{
  "_format": "hh-sol-artifact-1",
  "contractName": "TestSignatureRecovery",
  "sourceName": "contracts/test/TestSignatureRecovery.sol",
  "abi": [
    {
      "inputs": [
        {
          "internalType": "bytes",
          "name": "signatures",
          "type": "bytes"
        },
        {
          "internalType": "uint256",
          "name": "index",
          "type": "uint256"
        }
      ],
      "name": "getSignature",
      "outputs": [
        {
          "internalType": "bytes",
          "name": "signature",
          "type": "bytes"
        }
      ],
      "stateMutability": "pure",
      "type": "function"
    },
    {
      "inputs": [
        {
          "internalType": "bytes32",
          "name": "txHash",
          "type": "bytes32"
        },
        {
          "internalType": "bytes",
          "name": "signature",
          "type": "bytes"
        }
      ],
      "name": "recoverSigner",
      "outputs": [
        {
          "internalType": "address",
          "name": "",
          "type": "address"
        }
      ],
      "stateMutability": "pure",
      "type": "function"
    },
    {
      "inputs": [
        {
          "internalType": "bytes32",
          "name": "txHash",
          "type": "bytes32"
        },
        {
          "internalType": "bytes",
          "name": "signature",
          "type": "bytes"
        }
      ],
      "name": "recoverSignerDirect",
      "outputs": [
        {
          "internalType": "address",
          "name": "",
          "type": "address"
        }
      ],
      "stateMutability": "pure",
      "type": "function"
    },
    {
      "inputs": [
        {
          "internalType": "bytes32",
          "name": "txHash",
          "type": "bytes32"
        },
        {
          "internalType": "bytes",
          "name": "signatures",
          "type": "bytes"
        }
      ],
      "name": "testMultipleSignatures",
      "outputs": [
        {
          "internalType": "address[]",
          "name": "",
          "type": "address[]"
        }
      ],
      "stateMutability": "pure",
      "type": "function"
    }
  ],
  "bytecode": "0x6080806040523461001657610684908161001c8239f35b600080fdfe604060808152600436101561001357600080fd5b6000803560e01c91826341c363651461005c57505080637988a4e71461005757806397aba7f9146100525763fc47c4e11461004d57600080fd5b610250565b6101e7565b6101b1565b346100e457806003193601126100e4576004356001600160401b0381116100e05761008e610097913690600401610128565b60243590610570565b91815192839160208084528251928382860152825b8481106100ca57505050828201840152601f01601f19168101030190f35b81810183015188820188015287955082016100ac565b8280fd5b5080fd5b634e487b7160e01b600052604160045260246000fd5b6040519190601f01601f191682016001600160401b0381118382101761012357604052565b6100e8565b81601f8201121561017a578035906001600160401b03821161012357610157601f8301601f19166020016100fe565b928284526020838301011161017a57816000926020809301838601378301015290565b600080fd5b90604060031983011261017a5760043591602435906001600160401b03821161017a576101ae91600401610128565b90565b3461017a5760206101d56101cd6101c73661017f565b9061042e565b919091610313565b6040516001600160a01b039091168152f35b3461017a5760206101d56101cd6102076102003661017f565b91906104eb565b61042e565b6020908160408183019282815285518094520193019160005b828110610233575050505090565b83516001600160a01b031685529381019392810192600101610225565b3461017a5761025e3661017f565b6041815104916102756102708461060d565b6100fe565b83815291601f196102858561060d565b0136602085013760005b8481106102a857604051806102a4868261020c565b0390f35b6102dd6102c46101cd6102bb8486610570565b610207876104eb565b6102ce8387610624565b6001600160a01b039091169052565b60001981146102ee5760010161028f565b610519565b600511156102fd57565b634e487b7160e01b600052602160045260246000fd5b61031c816102f3565b806103245750565b61032d816102f3565b600181036103755760405162461bcd60e51b815260206004820152601860248201527745434453413a20696e76616c6964207369676e617475726560401b6044820152606490fd5b61037e816102f3565b600281036103cb5760405162461bcd60e51b815260206004820152601f60248201527f45434453413a20696e76616c6964207369676e6174757265206c656e677468006044820152606490fd5b806103d76003926102f3565b146103de57565b60405162461bcd60e51b815260206004820152602260248201527f45434453413a20696e76616c6964207369676e6174757265202773272076616c604482015261756560f01b6064820152608490fd5b90604181511460001461045c57610458916020820151906060604084015193015160001a90610466565b9091565b5050600090600290565b9291906fa2a8918ca85bafe22016d0b997e4df60600160ff1b0383116104df5791608094939160ff602094604051948552168484015260408301526060820152600093849182805260015afa156104d25781516001600160a01b038116156104cc579190565b50600190565b50604051903d90823e3d90fd5b50505050600090600390565b7b0ca2ba3432b932bab69029b4b3b732b21026b2b9b9b0b3b29d05199960211b600052601c52603c60002090565b634e487b7160e01b600052601160045260246000fd5b906041820291808304604114901517156102ee57565b60405190608082016001600160401b0381118382101761012357604052604182526060366020840137565b919091805160018401908185116102ee576041820291808304604114901517156102ee57106105ce576060906105ad6105a7610545565b9461052f565b016020810151602085015260408101516040850152015160001a6060830153565b60405162461bcd60e51b8152602060048201526017602482015276092dcecc2d8d2c840e6d2cedcc2e8eae4ca40d2dcc8caf604b1b6044820152606490fd5b6001600160401b0381116101235760051b60200190565b80518210156106385760209160051b010190565b634e487b7160e01b600052603260045260246000fdfea264697066735822122051aa95318a808484bd4ce04d51557e09a28fe08e12b40bd6c29d0a26a135c89964736f6c63430008140033",
  "linkReferences": {},
  "deployedLinkReferences": {}
}