{
  "_format": "hh-sol-artifact-1",
  "contractName": "TestSignatureRecovery",
  "sourceName": "contracts/test/TestSignatureRecovery.sol",
  "abi": [
    {
      "inputs": [
        {
          "internalType": "bytes",
          "name": "signatures",
          "type": "bytes"
        },
        {
          "internalType": "uint256",
          "name": "index",
          "type": "uint256"
        }
      ],
      "name": "getSignature",
      "outputs": [
        {
          "internalType": "bytes",
          "name": "signature",
          "type": "bytes"
        }
      ],
      "stateMutability": "pure",
      "type": "function"
    },
    {
      "inputs": [
        {
          "internalType": "bytes32",
          "name": "txHash",
          "type": "bytes32"
        },
        {
          "internalType": "bytes",
          "name": "signature",
          "type": "bytes"
        }
      ],
      "name": "recoverSigner",
      "outputs": [
        {
          "internalType": "address",
          "name": "",
          "type": "address"
        }
      ],
      "stateMutability": "pure",
      "type": "function"
    },
    {
      "inputs": [
        {
          "internalType": "bytes32",
          "name": "txHash",
          "type": "bytes32"
        },
        {
          "internalType": "bytes",
          "name": "signature",
          "type": "bytes"
        }
      ],
      "name": "recoverSignerDirect",
      "outputs": [
        {
          "internalType": "address",
          "name": "",
          "type": "address"
        }
      ],
      "stateMutability": "pure",
      "type": "function"
    },
    {
      "inputs": [
        {
          "internalType": "bytes32",
          "name": "txHash",
          "type": "bytes32"
        },
        {
          "internalType": "bytes",
          "name": "signatures",
          "type": "bytes"
        }
      ],
      "name": "testMultipleSignatures",
      "outputs": [
        {
          "internalType": "address[]",
          "name": "",
          "type": "address[]"
        }
      ],
      "stateMutability": "pure",
      "type": "function"
    }
  ],
  "bytecode": "0x608060405234801561001057600080fd5b5061080a806100206000396000f3fe608060405234801561001057600080fd5b506004361061004c5760003560e01c806341c36365146100515780637988a4e71461007a57806397aba7f9146100a5578063fc47c4e1146100b8575b600080fd5b61006461005f366004610606565b6100d8565b604051610071919061064b565b60405180910390f35b61008d610088366004610699565b6101a3565b6040516001600160a01b039091168152602001610071565b61008d6100b3366004610699565b6101b8565b6100cb6100c6366004610699565b6101f4565b60405161007191906106e0565b606060416100e7836001610743565b6100f19190610756565b835110156101465760405162461bcd60e51b815260206004820152601760248201527f496e76616c6964207369676e617475726520696e64657800000000000000000060448201526064015b60405180910390fd5b60408051604180825260808201909252906020820181803683370190505090506000610173604184610756565b9050806020850101602083018151815260208201516020820152604082015160001a604082015350505092915050565b60006101af83836102e9565b90505b92915050565b7f19457468657265756d205369676e6564204d6573736167653a0a3332000000006000908152601c839052603c81206101af9083905b906102e9565b6060600060418351610206919061076d565b905060008167ffffffffffffffff81111561022357610223610563565b60405190808252806020026020018201604052801561024c578160200160208202803683370190505b50905060005b828110156102e057600061026686836100d8565b90506102a3816101ee897f19457468657265756d205369676e6564204d6573736167653a0a3332000000006000908152601c91909152603c902090565b8383815181106102b5576102b561078f565b6001600160a01b039092166020928302919091019091015250806102d8816107a5565b915050610252565b50949350505050565b60008060006102f8858561030d565b9150915061030581610352565b509392505050565b60008082516041036103435760208301516040840151606085015160001a6103378782858561049f565b9450945050505061034b565b506000905060025b9250929050565b6000816004811115610366576103666107be565b0361036e5750565b6001816004811115610382576103826107be565b036103cf5760405162461bcd60e51b815260206004820152601860248201527f45434453413a20696e76616c6964207369676e61747572650000000000000000604482015260640161013d565b60028160048111156103e3576103e36107be565b036104305760405162461bcd60e51b815260206004820152601f60248201527f45434453413a20696e76616c6964207369676e6174757265206c656e67746800604482015260640161013d565b6003816004811115610444576104446107be565b0361049c5760405162461bcd60e51b815260206004820152602260248201527f45434453413a20696e76616c6964207369676e6174757265202773272076616c604482015261756560f01b606482015260840161013d565b50565b6000807f7fffffffffffffffffffffffffffffff5d576e7357a4501ddfe92f46681b20a08311156104d6575060009050600361055a565b6040805160008082526020820180845289905260ff881692820192909252606081018690526080810185905260019060a0016020604051602081039080840390855afa15801561052a573d6000803e3d6000fd5b5050604051601f1901519150506001600160a01b0381166105535760006001925092505061055a565b9150600090505b94509492505050565b634e487b7160e01b600052604160045260246000fd5b600082601f83011261058a57600080fd5b813567ffffffffffffffff808211156105a5576105a5610563565b604051601f8301601f19908116603f011681019082821181831017156105cd576105cd610563565b816040528381528660208588010111156105e657600080fd5b836020870160208301376000602085830101528094505050505092915050565b6000806040838503121561061957600080fd5b823567ffffffffffffffff81111561063057600080fd5b61063c85828601610579565b95602094909401359450505050565b600060208083528351808285015260005b818110156106785785810183015185820160400152820161065c565b506000604082860101526040601f19601f8301168501019250505092915050565b600080604083850312156106ac57600080fd5b82359150602083013567ffffffffffffffff8111156106ca57600080fd5b6106d685828601610579565b9150509250929050565b6020808252825182820181905260009190848201906040850190845b818110156107215783516001600160a01b0316835292840192918401916001016106fc565b50909695505050505050565b634e487b7160e01b600052601160045260246000fd5b808201808211156101b2576101b261072d565b80820281158282048414176101b2576101b261072d565b60008261078a57634e487b7160e01b600052601260045260246000fd5b500490565b634e487b7160e01b600052603260045260246000fd5b6000600182016107b7576107b761072d565b5060010190565b634e487b7160e01b600052602160045260246000fdfea264697066735822122087caaa6a5f84ea18809042b32ef38a54ddf39319a9d9ff7db0b8895c75862eee64736f6c63430008140033",
  "linkReferences": {},
  "deployedLinkReferences": {}
}