{
	"contracts/market/PropertyMarket.sol": {
		"PropertyMarket": {
			"abi": [
				{
					"inputs": [
						{
							"internalType": "address",
							"name": "_adminControl",
							"type": "address"
						},
						{
							"internalType": "address",
							"name": "_nftiAddress",
							"type": "address"
						},
						{
							"internalType": "address",
							"name": "_nftmAddress",
							"type": "address"
						}
					],
					"stateMutability": "nonpayable",
					"type": "constructor"
				},
				{
					"anonymous": false,
					"inputs": [
						{
							"indexed": true,
							"internalType": "uint256",
							"name": "tokenId",
							"type": "uint256"
						},
						{
							"indexed": false,
							"internalType": "uint256",
							"name": "newPrice",
							"type": "uint256"
						},
						{
							"indexed": false,
							"internalType": "address",
							"name": "newPaymentToken",
							"type": "address"
						}
					],
					"name": "ListingUpdated",
					"type": "event"
				},
				{
					"anonymous": false,
					"inputs": [
						{
							"indexed": true,
							"internalType": "uint256",
							"name": "tokenId",
							"type": "uint256"
						},
						{
							"indexed": true,
							"internalType": "address",
							"name": "seller",
							"type": "address"
						},
						{
							"indexed": false,
							"internalType": "uint256",
							"name": "price",
							"type": "uint256"
						},
						{
							"indexed": false,
							"internalType": "address",
							"name": "paymentToken",
							"type": "address"
						}
					],
					"name": "NewListing",
					"type": "event"
				},
				{
					"anonymous": false,
					"inputs": [
						{
							"indexed": true,
							"internalType": "uint256",
							"name": "tokenId",
							"type": "uint256"
						},
						{
							"indexed": false,
							"internalType": "address",
							"name": "buyer",
							"type": "address"
						},
						{
							"indexed": false,
							"internalType": "uint256",
							"name": "price",
							"type": "uint256"
						},
						{
							"indexed": false,
							"internalType": "address",
							"name": "paymentToken",
							"type": "address"
						}
					],
					"name": "PropertySold",
					"type": "event"
				},
				{
					"inputs": [],
					"name": "adminControl",
					"outputs": [
						{
							"internalType": "contract AdminControl",
							"name": "",
							"type": "address"
						}
					],
					"stateMutability": "view",
					"type": "function"
				},
				{
					"inputs": [
						{
							"internalType": "uint256",
							"name": "tokenId",
							"type": "uint256"
						}
					],
					"name": "getListingDetails",
					"outputs": [
						{
							"internalType": "address",
							"name": "seller",
							"type": "address"
						},
						{
							"internalType": "uint256",
							"name": "price",
							"type": "uint256"
						},
						{
							"internalType": "address",
							"name": "paymentToken",
							"type": "address"
						},
						{
							"internalType": "enum PropertyMarket.PropertyStatus",
							"name": "status",
							"type": "uint8"
						},
						{
							"internalType": "uint256",
							"name": "listTimestamp",
							"type": "uint256"
						}
					],
					"stateMutability": "view",
					"type": "function"
				},
				{
					"inputs": [
						{
							"internalType": "address",
							"name": "",
							"type": "address"
						},
						{
							"internalType": "uint256",
							"name": "",
							"type": "uint256"
						}
					],
					"name": "leaseTerms",
					"outputs": [
						{
							"internalType": "uint256",
							"name": "",
							"type": "uint256"
						}
					],
					"stateMutability": "view",
					"type": "function"
				},
				{
					"inputs": [
						{
							"internalType": "uint256",
							"name": "tokenId",
							"type": "uint256"
						},
						{
							"internalType": "uint256",
							"name": "price",
							"type": "uint256"
						},
						{
							"internalType": "address",
							"name": "paymentToken",
							"type": "address"
						}
					],
					"name": "listProperty",
					"outputs": [],
					"stateMutability": "nonpayable",
					"type": "function"
				},
				{
					"inputs": [
						{
							"internalType": "uint256",
							"name": "",
							"type": "uint256"
						}
					],
					"name": "listings",
					"outputs": [
						{
							"internalType": "uint256",
							"name": "tokenId",
							"type": "uint256"
						},
						{
							"internalType": "address",
							"name": "seller",
							"type": "address"
						},
						{
							"internalType": "uint256",
							"name": "price",
							"type": "uint256"
						},
						{
							"internalType": "address",
							"name": "paymentToken",
							"type": "address"
						},
						{
							"internalType": "enum PropertyMarket.PropertyStatus",
							"name": "status",
							"type": "uint8"
						},
						{
							"internalType": "uint256",
							"name": "listTimestamp",
							"type": "uint256"
						},
						{
							"internalType": "uint256",
							"name": "lastRenewed",
							"type": "uint256"
						}
					],
					"stateMutability": "view",
					"type": "function"
				},
				{
					"inputs": [],
					"name": "nftiContract",
					"outputs": [
						{
							"internalType": "contract IERC721",
							"name": "",
							"type": "address"
						}
					],
					"stateMutability": "view",
					"type": "function"
				},
				{
					"inputs": [],
					"name": "nftmContract",
					"outputs": [
						{
							"internalType": "contract IERC721",
							"name": "",
							"type": "address"
						}
					],
					"stateMutability": "view",
					"type": "function"
				},
				{
					"inputs": [
						{
							"internalType": "uint256",
							"name": "tokenId",
							"type": "uint256"
						},
						{
							"internalType": "uint256",
							"name": "offerPrice",
							"type": "uint256"
						}
					],
					"name": "purchaseProperty",
					"outputs": [],
					"stateMutability": "payable",
					"type": "function"
				},
				{
					"inputs": [
						{
							"internalType": "uint256",
							"name": "tokenId",
							"type": "uint256"
						},
						{
							"internalType": "uint256",
							"name": "newPrice",
							"type": "uint256"
						},
						{
							"internalType": "address",
							"name": "newPaymentToken",
							"type": "address"
						}
					],
					"name": "updateListing",
					"outputs": [],
					"stateMutability": "nonpayable",
					"type": "function"
				}
			],
			"devdoc": {
				"kind": "dev",
				"methods": {},
				"version": 1
			},
			"evm": {
				"assembly": "    /* \"contracts/market/PropertyMarket.sol\":287:6599  contract PropertyMarket is ReentrancyGuard {... */\n  mstore(0x40, 0xe0)\n    /* \"contracts/market/PropertyMarket.sol\":1529:1797  constructor(... */\n  callvalue\n  dup1\n  iszero\n  tag_1\n  jumpi\n  0x00\n  dup1\n  revert\ntag_1:\n  pop\n  mload(0x40)\n  sub(codesize, bytecodeSize)\n  dup1\n  bytecodeSize\n  dup4\n  codecopy\n  dup2\n  dup2\n  add\n  0x40\n  mstore\n  dup2\n  add\n  swap1\n  tag_2\n  swap2\n  swap1\n  tag_3\n  jump\t// in\ntag_2:\n    /* \"@openzeppelin/contracts/security/ReentrancyGuard.sol\":1716:1717  1 */\n  0x01\n    /* \"@openzeppelin/contracts/security/ReentrancyGuard.sol\":1821:1828  _status */\n  0x00\n    /* \"@openzeppelin/contracts/security/ReentrancyGuard.sol\":1821:1843  _status = _NOT_ENTERED */\n  dup2\n  swap1\n  sstore\n  pop\n    /* \"contracts/market/PropertyMarket.sol\":1681:1694  _adminControl */\n  dup3\n    /* \"contracts/market/PropertyMarket.sol\":1653:1695  adminControl = AdminControl(_adminControl) */\n  0xffffffffffffffffffffffffffffffffffffffff\n  and\n  0x80\n  dup2\n  0xffffffffffffffffffffffffffffffffffffffff\n  and\n  dup2\n  mstore\n  pop\n  pop\n    /* \"contracts/market/PropertyMarket.sol\":1729:1741  _nftiAddress */\n  dup2\n    /* \"contracts/market/PropertyMarket.sol\":1706:1742  nftiContract = IERC721(_nftiAddress) */\n  0xffffffffffffffffffffffffffffffffffffffff\n  and\n  0xa0\n  dup2\n  0xffffffffffffffffffffffffffffffffffffffff\n  and\n  dup2\n  mstore\n  pop\n  pop\n    /* \"contracts/market/PropertyMarket.sol\":1776:1788  _nftmAddress */\n  dup1\n    /* \"contracts/market/PropertyMarket.sol\":1753:1789  nftmContract = IERC721(_nftmAddress) */\n  0xffffffffffffffffffffffffffffffffffffffff\n  and\n  0xc0\n  dup2\n  0xffffffffffffffffffffffffffffffffffffffff\n  and\n  dup2\n  mstore\n  pop\n  pop\n    /* \"contracts/market/PropertyMarket.sol\":1529:1797  constructor(... */\n  pop\n  pop\n  pop\n    /* \"contracts/market/PropertyMarket.sol\":287:6599  contract PropertyMarket is ReentrancyGuard {... */\n  jump(tag_8)\n    /* \"#utility.yul\":88:205   */\ntag_10:\n    /* \"#utility.yul\":197:198   */\n  0x00\n    /* \"#utility.yul\":194:195   */\n  dup1\n    /* \"#utility.yul\":187:199   */\n  revert\n    /* \"#utility.yul\":334:460   */\ntag_12:\n    /* \"#utility.yul\":371:378   */\n  0x00\n    /* \"#utility.yul\":411:453   */\n  0xffffffffffffffffffffffffffffffffffffffff\n    /* \"#utility.yul\":404:409   */\n  dup3\n    /* \"#utility.yul\":400:454   */\n  and\n    /* \"#utility.yul\":389:454   */\n  swap1\n  pop\n    /* \"#utility.yul\":334:460   */\n  swap2\n  swap1\n  pop\n  jump\t// out\n    /* \"#utility.yul\":466:562   */\ntag_13:\n    /* \"#utility.yul\":503:510   */\n  0x00\n    /* \"#utility.yul\":532:556   */\n  tag_22\n    /* \"#utility.yul\":550:555   */\n  dup3\n    /* \"#utility.yul\":532:556   */\n  tag_12\n  jump\t// in\ntag_22:\n    /* \"#utility.yul\":521:556   */\n  swap1\n  pop\n    /* \"#utility.yul\":466:562   */\n  swap2\n  swap1\n  pop\n  jump\t// out\n    /* \"#utility.yul\":568:690   */\ntag_14:\n    /* \"#utility.yul\":641:665   */\n  tag_24\n    /* \"#utility.yul\":659:664   */\n  dup2\n    /* \"#utility.yul\":641:665   */\n  tag_13\n  jump\t// in\ntag_24:\n    /* \"#utility.yul\":634:639   */\n  dup2\n    /* \"#utility.yul\":631:666   */\n  eq\n    /* \"#utility.yul\":621:684   */\n  tag_25\n  jumpi\n    /* \"#utility.yul\":680:681   */\n  0x00\n    /* \"#utility.yul\":677:678   */\n  dup1\n    /* \"#utility.yul\":670:682   */\n  revert\n    /* \"#utility.yul\":621:684   */\ntag_25:\n    /* \"#utility.yul\":568:690   */\n  pop\n  jump\t// out\n    /* \"#utility.yul\":696:839   */\ntag_15:\n    /* \"#utility.yul\":753:758   */\n  0x00\n    /* \"#utility.yul\":784:790   */\n  dup2\n    /* \"#utility.yul\":778:791   */\n  mload\n    /* \"#utility.yul\":769:791   */\n  swap1\n  pop\n    /* \"#utility.yul\":800:833   */\n  tag_27\n    /* \"#utility.yul\":827:832   */\n  dup2\n    /* \"#utility.yul\":800:833   */\n  tag_14\n  jump\t// in\ntag_27:\n    /* \"#utility.yul\":696:839   */\n  swap3\n  swap2\n  pop\n  pop\n  jump\t// out\n    /* \"#utility.yul\":845:1508   */\ntag_3:\n    /* \"#utility.yul\":933:939   */\n  0x00\n    /* \"#utility.yul\":941:947   */\n  dup1\n    /* \"#utility.yul\":949:955   */\n  0x00\n    /* \"#utility.yul\":998:1000   */\n  0x60\n    /* \"#utility.yul\":986:995   */\n  dup5\n    /* \"#utility.yul\":977:984   */\n  dup7\n    /* \"#utility.yul\":973:996   */\n  sub\n    /* \"#utility.yul\":969:1001   */\n  slt\n    /* \"#utility.yul\":966:1085   */\n  iszero\n  tag_29\n  jumpi\n    /* \"#utility.yul\":1004:1083   */\n  tag_30\n  tag_10\n  jump\t// in\ntag_30:\n    /* \"#utility.yul\":966:1085   */\ntag_29:\n    /* \"#utility.yul\":1124:1125   */\n  0x00\n    /* \"#utility.yul\":1149:1213   */\n  tag_31\n    /* \"#utility.yul\":1205:1212   */\n  dup7\n    /* \"#utility.yul\":1196:1202   */\n  dup3\n    /* \"#utility.yul\":1185:1194   */\n  dup8\n    /* \"#utility.yul\":1181:1203   */\n  add\n    /* \"#utility.yul\":1149:1213   */\n  tag_15\n  jump\t// in\ntag_31:\n    /* \"#utility.yul\":1139:1213   */\n  swap4\n  pop\n    /* \"#utility.yul\":1095:1223   */\n  pop\n    /* \"#utility.yul\":1262:1264   */\n  0x20\n    /* \"#utility.yul\":1288:1352   */\n  tag_32\n    /* \"#utility.yul\":1344:1351   */\n  dup7\n    /* \"#utility.yul\":1335:1341   */\n  dup3\n    /* \"#utility.yul\":1324:1333   */\n  dup8\n    /* \"#utility.yul\":1320:1342   */\n  add\n    /* \"#utility.yul\":1288:1352   */\n  tag_15\n  jump\t// in\ntag_32:\n    /* \"#utility.yul\":1278:1352   */\n  swap3\n  pop\n    /* \"#utility.yul\":1233:1362   */\n  pop\n    /* \"#utility.yul\":1401:1403   */\n  0x40\n    /* \"#utility.yul\":1427:1491   */\n  tag_33\n    /* \"#utility.yul\":1483:1490   */\n  dup7\n    /* \"#utility.yul\":1474:1480   */\n  dup3\n    /* \"#utility.yul\":1463:1472   */\n  dup8\n    /* \"#utility.yul\":1459:1481   */\n  add\n    /* \"#utility.yul\":1427:1491   */\n  tag_15\n  jump\t// in\ntag_33:\n    /* \"#utility.yul\":1417:1491   */\n  swap2\n  pop\n    /* \"#utility.yul\":1372:1501   */\n  pop\n    /* \"#utility.yul\":845:1508   */\n  swap3\n  pop\n  swap3\n  pop\n  swap3\n  jump\t// out\n    /* \"contracts/market/PropertyMarket.sol\":287:6599  contract PropertyMarket is ReentrancyGuard {... */\ntag_8:\n  mload(0x80)\n  mload(0xa0)\n  mload(0xc0)\n  codecopy(0x00, dataOffset(sub_0), dataSize(sub_0))\n  0x00\n  assignImmutable(\"0xa719e06aa69fe5611e041976601e5776ff743aefe35a016a2b5dfe8f33a5e5e9\")\n  0x00\n  assignImmutable(\"0xe8f35d807a555c048cdee87efc9b127b73c5c0735fe18d5f7eb4977a981fea55\")\n  0x00\n  assignImmutable(\"0x8dbfb589ac5cc07612f2743376919bd376e16de5e3439de82f1db2526670b5f2\")\n  return(0x00, dataSize(sub_0))\nstop\n\nsub_0: assembly {\n        /* \"contracts/market/PropertyMarket.sol\":287:6599  contract PropertyMarket is ReentrancyGuard {... */\n      mstore(0x40, 0x80)\n      jumpi(tag_1, lt(calldatasize, 0x04))\n      shr(0xe0, calldataload(0x00))\n      dup1\n      0x887f495a\n      gt\n      tag_11\n      jumpi\n      dup1\n      0x887f495a\n      eq\n      tag_6\n      jumpi\n      dup1\n      0xad7bbd5a\n      eq\n      tag_7\n      jumpi\n      dup1\n      0xcbb9c9a4\n      eq\n      tag_8\n      jumpi\n      dup1\n      0xde74e57b\n      eq\n      tag_9\n      jumpi\n      dup1\n      0xfb05da2e\n      eq\n      tag_10\n      jumpi\n      jump(tag_1)\n    tag_11:\n      dup1\n      0x4f843494\n      eq\n      tag_2\n      jumpi\n      dup1\n      0x555d3e63\n      eq\n      tag_3\n      jumpi\n      dup1\n      0x592eb924\n      eq\n      tag_4\n      jumpi\n      dup1\n      0x86aa217e\n      eq\n      tag_5\n      jumpi\n    tag_1:\n      0x00\n      dup1\n      revert\n        /* \"contracts/market/PropertyMarket.sol\":2686:3730  function purchaseProperty(... */\n    tag_2:\n      tag_12\n      0x04\n      dup1\n      calldatasize\n      sub\n      dup2\n      add\n      swap1\n      tag_13\n      swap2\n      swap1\n      tag_14\n      jump\t// in\n    tag_13:\n      tag_15\n      jump\t// in\n    tag_12:\n      stop\n        /* \"contracts/market/PropertyMarket.sol\":728:770  AdminControl public immutable adminControl */\n    tag_3:\n      callvalue\n      dup1\n      iszero\n      tag_16\n      jumpi\n      0x00\n      dup1\n      revert\n    tag_16:\n      pop\n      tag_17\n      tag_18\n      jump\t// in\n    tag_17:\n      mload(0x40)\n      tag_19\n      swap2\n      swap1\n      tag_20\n      jump\t// in\n    tag_19:\n      mload(0x40)\n      dup1\n      swap2\n      sub\n      swap1\n      return\n        /* \"contracts/market/PropertyMarket.sol\":777:814  IERC721 public immutable nftiContract */\n    tag_4:\n      callvalue\n      dup1\n      iszero\n      tag_21\n      jumpi\n      0x00\n      dup1\n      revert\n    tag_21:\n      pop\n      tag_22\n      tag_23\n      jump\t// in\n    tag_22:\n      mload(0x40)\n      tag_24\n      swap2\n      swap1\n      tag_25\n      jump\t// in\n    tag_24:\n      mload(0x40)\n      dup1\n      swap2\n      sub\n      swap1\n      return\n        /* \"contracts/market/PropertyMarket.sol\":1848:2678  function listProperty(... */\n    tag_5:\n      callvalue\n      dup1\n      iszero\n      tag_26\n      jumpi\n      0x00\n      dup1\n      revert\n    tag_26:\n      pop\n      tag_27\n      0x04\n      dup1\n      calldatasize\n      sub\n      dup2\n      add\n      swap1\n      tag_28\n      swap2\n      swap1\n      tag_29\n      jump\t// in\n    tag_28:\n      tag_30\n      jump\t// in\n    tag_27:\n      stop\n        /* \"contracts/market/PropertyMarket.sol\":5218:5747  function updateListing(... */\n    tag_6:\n      callvalue\n      dup1\n      iszero\n      tag_31\n      jumpi\n      0x00\n      dup1\n      revert\n    tag_31:\n      pop\n      tag_32\n      0x04\n      dup1\n      calldatasize\n      sub\n      dup2\n      add\n      swap1\n      tag_33\n      swap2\n      swap1\n      tag_29\n      jump\t// in\n    tag_33:\n      tag_34\n      jump\t// in\n    tag_32:\n      stop\n        /* \"contracts/market/PropertyMarket.sol\":929:994  mapping(address => mapping(uint256 => uint256)) public leaseTerms */\n    tag_7:\n      callvalue\n      dup1\n      iszero\n      tag_35\n      jumpi\n      0x00\n      dup1\n      revert\n    tag_35:\n      pop\n      tag_36\n      0x04\n      dup1\n      calldatasize\n      sub\n      dup2\n      add\n      swap1\n      tag_37\n      swap2\n      swap1\n      tag_38\n      jump\t// in\n    tag_37:\n      tag_39\n      jump\t// in\n    tag_36:\n      mload(0x40)\n      tag_40\n      swap2\n      swap1\n      tag_41\n      jump\t// in\n    tag_40:\n      mload(0x40)\n      dup1\n      swap2\n      sub\n      swap1\n      return\n        /* \"contracts/market/PropertyMarket.sol\":821:858  IERC721 public immutable nftmContract */\n    tag_8:\n      callvalue\n      dup1\n      iszero\n      tag_42\n      jumpi\n      0x00\n      dup1\n      revert\n    tag_42:\n      pop\n      tag_43\n      tag_44\n      jump\t// in\n    tag_43:\n      mload(0x40)\n      tag_45\n      swap2\n      swap1\n      tag_25\n      jump\t// in\n    tag_45:\n      mload(0x40)\n      dup1\n      swap2\n      sub\n      swap1\n      return\n        /* \"contracts/market/PropertyMarket.sol\":871:922  mapping(uint256 => PropertyListing) public listings */\n    tag_9:\n      callvalue\n      dup1\n      iszero\n      tag_46\n      jumpi\n      0x00\n      dup1\n      revert\n    tag_46:\n      pop\n      tag_47\n      0x04\n      dup1\n      calldatasize\n      sub\n      dup2\n      add\n      swap1\n      tag_48\n      swap2\n      swap1\n      tag_49\n      jump\t// in\n    tag_48:\n      tag_50\n      jump\t// in\n    tag_47:\n      mload(0x40)\n      tag_51\n      swap8\n      swap7\n      swap6\n      swap5\n      swap4\n      swap3\n      swap2\n      swap1\n      tag_52\n      jump\t// in\n    tag_51:\n      mload(0x40)\n      dup1\n      swap2\n      sub\n      swap1\n      return\n        /* \"contracts/market/PropertyMarket.sol\":6066:6596  function getListingDetails(uint256 tokenId)... */\n    tag_10:\n      callvalue\n      dup1\n      iszero\n      tag_53\n      jumpi\n      0x00\n      dup1\n      revert\n    tag_53:\n      pop\n      tag_54\n      0x04\n      dup1\n      calldatasize\n      sub\n      dup2\n      add\n      swap1\n      tag_55\n      swap2\n      swap1\n      tag_49\n      jump\t// in\n    tag_55:\n      tag_56\n      jump\t// in\n    tag_54:\n      mload(0x40)\n      tag_57\n      swap6\n      swap5\n      swap4\n      swap3\n      swap2\n      swap1\n      tag_58\n      jump\t// in\n    tag_57:\n      mload(0x40)\n      dup1\n      swap2\n      sub\n      swap1\n      return\n        /* \"contracts/market/PropertyMarket.sol\":2686:3730  function purchaseProperty(... */\n    tag_15:\n        /* \"@openzeppelin/contracts/security/ReentrancyGuard.sol\":2261:2282  _nonReentrantBefore() */\n      tag_60\n        /* \"@openzeppelin/contracts/security/ReentrancyGuard.sol\":2261:2280  _nonReentrantBefore */\n      tag_61\n        /* \"@openzeppelin/contracts/security/ReentrancyGuard.sol\":2261:2282  _nonReentrantBefore() */\n      jump\t// in\n    tag_60:\n        /* \"contracts/market/PropertyMarket.sol\":2815:2846  PropertyListing storage listing */\n      0x00\n        /* \"contracts/market/PropertyMarket.sol\":2849:2857  listings */\n      0x01\n        /* \"contracts/market/PropertyMarket.sol\":2849:2866  listings[tokenId] */\n      0x00\n        /* \"contracts/market/PropertyMarket.sol\":2858:2865  tokenId */\n      dup5\n        /* \"contracts/market/PropertyMarket.sol\":2849:2866  listings[tokenId] */\n      dup2\n      mstore\n      0x20\n      add\n      swap1\n      dup2\n      mstore\n      0x20\n      add\n      0x00\n      keccak256\n        /* \"contracts/market/PropertyMarket.sol\":2815:2866  PropertyListing storage listing = listings[tokenId] */\n      swap1\n      pop\n        /* \"contracts/market/PropertyMarket.sol\":2927:2948  PropertyStatus.LISTED */\n      0x00\n        /* \"contracts/market/PropertyMarket.sol\":2909:2948  listing.status == PropertyStatus.LISTED */\n      0x03\n      dup2\n      gt\n      iszero\n      tag_63\n      jumpi\n      tag_64\n      tag_65\n      jump\t// in\n    tag_64:\n    tag_63:\n        /* \"contracts/market/PropertyMarket.sol\":2909:2916  listing */\n      dup2\n        /* \"contracts/market/PropertyMarket.sol\":2909:2923  listing.status */\n      0x03\n      add\n      0x14\n      swap1\n      sload\n      swap1\n      0x0100\n      exp\n      swap1\n      div\n      0xff\n      and\n        /* \"contracts/market/PropertyMarket.sol\":2909:2948  listing.status == PropertyStatus.LISTED */\n      0x03\n      dup2\n      gt\n      iszero\n      tag_66\n      jumpi\n      tag_67\n      tag_65\n      jump\t// in\n    tag_67:\n    tag_66:\n      eq\n        /* \"contracts/market/PropertyMarket.sol\":2887:2989  require(... */\n      tag_68\n      jumpi\n      mload(0x40)\n      0x08c379a000000000000000000000000000000000000000000000000000000000\n      dup2\n      mstore\n      0x04\n      add\n      tag_69\n      swap1\n      tag_70\n      jump\t// in\n    tag_69:\n      mload(0x40)\n      dup1\n      swap2\n      sub\n      swap1\n      revert\n    tag_68:\n        /* \"contracts/market/PropertyMarket.sol\":3032:3044  adminControl */\n      immutable(\"0x8dbfb589ac5cc07612f2743376919bd376e16de5e3439de82f1db2526670b5f2\")\n        /* \"contracts/market/PropertyMarket.sol\":3032:3058  adminControl.isKYCVerified */\n      0xffffffffffffffffffffffffffffffffffffffff\n      and\n      0x54b7636e\n        /* \"contracts/market/PropertyMarket.sol\":3059:3069  msg.sender */\n      caller\n        /* \"contracts/market/PropertyMarket.sol\":3032:3070  adminControl.isKYCVerified(msg.sender) */\n      mload(0x40)\n      dup3\n      0xffffffff\n      and\n      0xe0\n      shl\n      dup2\n      mstore\n      0x04\n      add\n      tag_71\n      swap2\n      swap1\n      tag_72\n      jump\t// in\n    tag_71:\n      0x20\n      mload(0x40)\n      dup1\n      dup4\n      sub\n      dup2\n      dup7\n      gas\n      staticcall\n      iszero\n      dup1\n      iszero\n      tag_74\n      jumpi\n      returndatasize\n      0x00\n      dup1\n      returndatacopy\n      revert(0x00, returndatasize)\n    tag_74:\n      pop\n      pop\n      pop\n      pop\n      mload(0x40)\n      returndatasize\n      not(0x1f)\n      0x1f\n      dup3\n      add\n      and\n      dup3\n      add\n      dup1\n      0x40\n      mstore\n      pop\n      dup2\n      add\n      swap1\n      tag_75\n      swap2\n      swap1\n      tag_76\n      jump\t// in\n    tag_75:\n        /* \"contracts/market/PropertyMarket.sol\":3010:3110  require(... */\n      tag_77\n      jumpi\n      mload(0x40)\n      0x08c379a000000000000000000000000000000000000000000000000000000000\n      dup2\n      mstore\n      0x04\n      add\n      tag_78\n      swap1\n      tag_79\n      jump\t// in\n    tag_78:\n      mload(0x40)\n      dup1\n      swap2\n      sub\n      swap1\n      revert\n    tag_77:\n        /* \"contracts/market/PropertyMarket.sol\":3153:3218  _validatePayment(listing.price, offerPrice, listing.paymentToken) */\n      tag_80\n        /* \"contracts/market/PropertyMarket.sol\":3170:3177  listing */\n      dup2\n        /* \"contracts/market/PropertyMarket.sol\":3170:3183  listing.price */\n      0x02\n      add\n      sload\n        /* \"contracts/market/PropertyMarket.sol\":3185:3195  offerPrice */\n      dup4\n        /* \"contracts/market/PropertyMarket.sol\":3197:3204  listing */\n      dup4\n        /* \"contracts/market/PropertyMarket.sol\":3197:3217  listing.paymentToken */\n      0x03\n      add\n      0x00\n      swap1\n      sload\n      swap1\n      0x0100\n      exp\n      swap1\n      div\n      0xffffffffffffffffffffffffffffffffffffffff\n      and\n        /* \"contracts/market/PropertyMarket.sol\":3153:3169  _validatePayment */\n      tag_81\n        /* \"contracts/market/PropertyMarket.sol\":3153:3218  _validatePayment(listing.price, offerPrice, listing.paymentToken) */\n      jump\t// in\n    tag_80:\n        /* \"contracts/market/PropertyMarket.sol\":3131:3260  require(... */\n      tag_82\n      jumpi\n      mload(0x40)\n      0x08c379a000000000000000000000000000000000000000000000000000000000\n      dup2\n      mstore\n      0x04\n      add\n      tag_83\n      swap1\n      tag_84\n      jump\t// in\n    tag_83:\n      mload(0x40)\n      dup1\n      swap2\n      sub\n      swap1\n      revert\n    tag_82:\n        /* \"contracts/market/PropertyMarket.sol\":3273:3391  _processPayment(... */\n      tag_85\n        /* \"contracts/market/PropertyMarket.sol\":3303:3310  listing */\n      dup2\n        /* \"contracts/market/PropertyMarket.sol\":3303:3317  listing.seller */\n      0x01\n      add\n      0x00\n      swap1\n      sload\n      swap1\n      0x0100\n      exp\n      swap1\n      div\n      0xffffffffffffffffffffffffffffffffffffffff\n      and\n        /* \"contracts/market/PropertyMarket.sol\":3332:3339  listing */\n      dup3\n        /* \"contracts/market/PropertyMarket.sol\":3332:3345  listing.price */\n      0x02\n      add\n      sload\n        /* \"contracts/market/PropertyMarket.sol\":3360:3367  listing */\n      dup4\n        /* \"contracts/market/PropertyMarket.sol\":3360:3380  listing.paymentToken */\n      0x03\n      add\n      0x00\n      swap1\n      sload\n      swap1\n      0x0100\n      exp\n      swap1\n      div\n      0xffffffffffffffffffffffffffffffffffffffff\n      and\n        /* \"contracts/market/PropertyMarket.sol\":3273:3288  _processPayment */\n      tag_86\n        /* \"contracts/market/PropertyMarket.sol\":3273:3391  _processPayment(... */\n      jump\t// in\n    tag_85:\n        /* \"contracts/market/PropertyMarket.sol\":3404:3416  nftiContract */\n      immutable(\"0xe8f35d807a555c048cdee87efc9b127b73c5c0735fe18d5f7eb4977a981fea55\")\n        /* \"contracts/market/PropertyMarket.sol\":3404:3429  nftiContract.transferFrom */\n      0xffffffffffffffffffffffffffffffffffffffff\n      and\n      0x23b872dd\n        /* \"contracts/market/PropertyMarket.sol\":3444:3451  listing */\n      dup3\n        /* \"contracts/market/PropertyMarket.sol\":3444:3458  listing.seller */\n      0x01\n      add\n      0x00\n      swap1\n      sload\n      swap1\n      0x0100\n      exp\n      swap1\n      div\n      0xffffffffffffffffffffffffffffffffffffffff\n      and\n        /* \"contracts/market/PropertyMarket.sol\":3473:3483  msg.sender */\n      caller\n        /* \"contracts/market/PropertyMarket.sol\":3498:3505  tokenId */\n      dup7\n        /* \"contracts/market/PropertyMarket.sol\":3404:3516  nftiContract.transferFrom(... */\n      mload(0x40)\n      dup5\n      0xffffffff\n      and\n      0xe0\n      shl\n      dup2\n      mstore\n      0x04\n      add\n      tag_87\n      swap4\n      swap3\n      swap2\n      swap1\n      tag_88\n      jump\t// in\n    tag_87:\n      0x00\n      mload(0x40)\n      dup1\n      dup4\n      sub\n      dup2\n      0x00\n      dup8\n      dup1\n      extcodesize\n      iszero\n      dup1\n      iszero\n      tag_89\n      jumpi\n      0x00\n      dup1\n      revert\n    tag_89:\n      pop\n      gas\n      call\n      iszero\n      dup1\n      iszero\n      tag_91\n      jumpi\n      returndatasize\n      0x00\n      dup1\n      returndatacopy\n      revert(0x00, returndatasize)\n    tag_91:\n      pop\n      pop\n      pop\n      pop\n        /* \"contracts/market/PropertyMarket.sol\":3544:3563  PropertyStatus.SOLD */\n      0x02\n        /* \"contracts/market/PropertyMarket.sol\":3527:3534  listing */\n      dup2\n        /* \"contracts/market/PropertyMarket.sol\":3527:3541  listing.status */\n      0x03\n      add\n      0x14\n        /* \"contracts/market/PropertyMarket.sol\":3527:3563  listing.status = PropertyStatus.SOLD */\n      0x0100\n      exp\n      dup2\n      sload\n      dup2\n      0xff\n      mul\n      not\n      and\n      swap1\n      dup4\n      0x03\n      dup2\n      gt\n      iszero\n      tag_92\n      jumpi\n      tag_93\n      tag_65\n      jump\t// in\n    tag_93:\n    tag_92:\n      mul\n      or\n      swap1\n      sstore\n      pop\n        /* \"contracts/market/PropertyMarket.sol\":3616:3623  tokenId */\n      dup3\n        /* \"contracts/market/PropertyMarket.sol\":3589:3722  PropertySold(... */\n      0x5be1cef2101afbbf72fccd811a15ccfdedc8c44b5f50934100f262ffcd9a1f06\n        /* \"contracts/market/PropertyMarket.sol\":3638:3648  msg.sender */\n      caller\n        /* \"contracts/market/PropertyMarket.sol\":3663:3670  listing */\n      dup4\n        /* \"contracts/market/PropertyMarket.sol\":3663:3676  listing.price */\n      0x02\n      add\n      sload\n        /* \"contracts/market/PropertyMarket.sol\":3691:3698  listing */\n      dup5\n        /* \"contracts/market/PropertyMarket.sol\":3691:3711  listing.paymentToken */\n      0x03\n      add\n      0x00\n      swap1\n      sload\n      swap1\n      0x0100\n      exp\n      swap1\n      div\n      0xffffffffffffffffffffffffffffffffffffffff\n      and\n        /* \"contracts/market/PropertyMarket.sol\":3589:3722  PropertySold(... */\n      mload(0x40)\n      tag_94\n      swap4\n      swap3\n      swap2\n      swap1\n      tag_95\n      jump\t// in\n    tag_94:\n      mload(0x40)\n      dup1\n      swap2\n      sub\n      swap1\n      log2\n        /* \"contracts/market/PropertyMarket.sol\":2804:3730  {... */\n      pop\n        /* \"@openzeppelin/contracts/security/ReentrancyGuard.sol\":2303:2323  _nonReentrantAfter() */\n      tag_96\n        /* \"@openzeppelin/contracts/security/ReentrancyGuard.sol\":2303:2321  _nonReentrantAfter */\n      tag_97\n        /* \"@openzeppelin/contracts/security/ReentrancyGuard.sol\":2303:2323  _nonReentrantAfter() */\n      jump\t// in\n    tag_96:\n        /* \"contracts/market/PropertyMarket.sol\":2686:3730  function purchaseProperty(... */\n      pop\n      pop\n      jump\t// out\n        /* \"contracts/market/PropertyMarket.sol\":728:770  AdminControl public immutable adminControl */\n    tag_18:\n      immutable(\"0x8dbfb589ac5cc07612f2743376919bd376e16de5e3439de82f1db2526670b5f2\")\n      dup2\n      jump\t// out\n        /* \"contracts/market/PropertyMarket.sol\":777:814  IERC721 public immutable nftiContract */\n    tag_23:\n      immutable(\"0xe8f35d807a555c048cdee87efc9b127b73c5c0735fe18d5f7eb4977a981fea55\")\n      dup2\n      jump\t// out\n        /* \"contracts/market/PropertyMarket.sol\":1848:2678  function listProperty(... */\n    tag_30:\n        /* \"@openzeppelin/contracts/security/ReentrancyGuard.sol\":2261:2282  _nonReentrantBefore() */\n      tag_99\n        /* \"@openzeppelin/contracts/security/ReentrancyGuard.sol\":2261:2280  _nonReentrantBefore */\n      tag_61\n        /* \"@openzeppelin/contracts/security/ReentrancyGuard.sol\":2261:2282  _nonReentrantBefore() */\n      jump\t// in\n    tag_99:\n        /* \"contracts/market/PropertyMarket.sol\":2046:2056  msg.sender */\n      caller\n        /* \"contracts/market/PropertyMarket.sol\":2013:2056  nftiContract.ownerOf(tokenId) == msg.sender */\n      0xffffffffffffffffffffffffffffffffffffffff\n      and\n        /* \"contracts/market/PropertyMarket.sol\":2013:2025  nftiContract */\n      immutable(\"0xe8f35d807a555c048cdee87efc9b127b73c5c0735fe18d5f7eb4977a981fea55\")\n        /* \"contracts/market/PropertyMarket.sol\":2013:2033  nftiContract.ownerOf */\n      0xffffffffffffffffffffffffffffffffffffffff\n      and\n      0x6352211e\n        /* \"contracts/market/PropertyMarket.sol\":2034:2041  tokenId */\n      dup6\n        /* \"contracts/market/PropertyMarket.sol\":2013:2042  nftiContract.ownerOf(tokenId) */\n      mload(0x40)\n      dup3\n      0xffffffff\n      and\n      0xe0\n      shl\n      dup2\n      mstore\n      0x04\n      add\n      tag_101\n      swap2\n      swap1\n      tag_41\n      jump\t// in\n    tag_101:\n      0x20\n      mload(0x40)\n      dup1\n      dup4\n      sub\n      dup2\n      dup7\n      gas\n      staticcall\n      iszero\n      dup1\n      iszero\n      tag_103\n      jumpi\n      returndatasize\n      0x00\n      dup1\n      returndatacopy\n      revert(0x00, returndatasize)\n    tag_103:\n      pop\n      pop\n      pop\n      pop\n      mload(0x40)\n      returndatasize\n      not(0x1f)\n      0x1f\n      dup3\n      add\n      and\n      dup3\n      add\n      dup1\n      0x40\n      mstore\n      pop\n      dup2\n      add\n      swap1\n      tag_104\n      swap2\n      swap1\n      tag_105\n      jump\t// in\n    tag_104:\n        /* \"contracts/market/PropertyMarket.sol\":2013:2056  nftiContract.ownerOf(tokenId) == msg.sender */\n      0xffffffffffffffffffffffffffffffffffffffff\n      and\n      eq\n        /* \"contracts/market/PropertyMarket.sol\":1991:2098  require(... */\n      tag_106\n      jumpi\n      mload(0x40)\n      0x08c379a000000000000000000000000000000000000000000000000000000000\n      dup2\n      mstore\n      0x04\n      add\n      tag_107\n      swap1\n      tag_108\n      jump\t// in\n    tag_107:\n      mload(0x40)\n      dup1\n      swap2\n      sub\n      swap1\n      revert\n    tag_106:\n        /* \"contracts/market/PropertyMarket.sol\":2141:2153  adminControl */\n      immutable(\"0x8dbfb589ac5cc07612f2743376919bd376e16de5e3439de82f1db2526670b5f2\")\n        /* \"contracts/market/PropertyMarket.sol\":2141:2167  adminControl.isKYCVerified */\n      0xffffffffffffffffffffffffffffffffffffffff\n      and\n      0x54b7636e\n        /* \"contracts/market/PropertyMarket.sol\":2168:2178  msg.sender */\n      caller\n        /* \"contracts/market/PropertyMarket.sol\":2141:2179  adminControl.isKYCVerified(msg.sender) */\n      mload(0x40)\n      dup3\n      0xffffffff\n      and\n      0xe0\n      shl\n      dup2\n      mstore\n      0x04\n      add\n      tag_109\n      swap2\n      swap1\n      tag_72\n      jump\t// in\n    tag_109:\n      0x20\n      mload(0x40)\n      dup1\n      dup4\n      sub\n      dup2\n      dup7\n      gas\n      staticcall\n      iszero\n      dup1\n      iszero\n      tag_111\n      jumpi\n      returndatasize\n      0x00\n      dup1\n      returndatacopy\n      revert(0x00, returndatasize)\n    tag_111:\n      pop\n      pop\n      pop\n      pop\n      mload(0x40)\n      returndatasize\n      not(0x1f)\n      0x1f\n      dup3\n      add\n      and\n      dup3\n      add\n      dup1\n      0x40\n      mstore\n      pop\n      dup2\n      add\n      swap1\n      tag_112\n      swap2\n      swap1\n      tag_76\n      jump\t// in\n    tag_112:\n        /* \"contracts/market/PropertyMarket.sol\":2119:2219  require(... */\n      tag_113\n      jumpi\n      mload(0x40)\n      0x08c379a000000000000000000000000000000000000000000000000000000000\n      dup2\n      mstore\n      0x04\n      add\n      tag_114\n      swap1\n      tag_79\n      jump\t// in\n    tag_114:\n      mload(0x40)\n      dup1\n      swap2\n      sub\n      swap1\n      revert\n    tag_113:\n        /* \"contracts/market/PropertyMarket.sol\":2256:2257  0 */\n      0x00\n        /* \"contracts/market/PropertyMarket.sol\":2248:2253  price */\n      dup3\n        /* \"contracts/market/PropertyMarket.sol\":2248:2257  price > 0 */\n      gt\n        /* \"contracts/market/PropertyMarket.sol\":2240:2275  require(price > 0, \"Invalid price\") */\n      tag_115\n      jumpi\n      mload(0x40)\n      0x08c379a000000000000000000000000000000000000000000000000000000000\n      dup2\n      mstore\n      0x04\n      add\n      tag_116\n      swap1\n      tag_117\n      jump\t// in\n    tag_116:\n      mload(0x40)\n      dup1\n      swap2\n      sub\n      swap1\n      revert\n    tag_115:\n        /* \"contracts/market/PropertyMarket.sol\":2308:2600  PropertyListing({... */\n      mload(0x40)\n      dup1\n      0xe0\n      add\n      0x40\n      mstore\n      dup1\n        /* \"contracts/market/PropertyMarket.sol\":2348:2355  tokenId */\n      dup5\n        /* \"contracts/market/PropertyMarket.sol\":2308:2600  PropertyListing({... */\n      dup2\n      mstore\n      0x20\n      add\n        /* \"contracts/market/PropertyMarket.sol\":2378:2388  msg.sender */\n      caller\n        /* \"contracts/market/PropertyMarket.sol\":2308:2600  PropertyListing({... */\n      0xffffffffffffffffffffffffffffffffffffffff\n      and\n      dup2\n      mstore\n      0x20\n      add\n        /* \"contracts/market/PropertyMarket.sol\":2410:2415  price */\n      dup4\n        /* \"contracts/market/PropertyMarket.sol\":2308:2600  PropertyListing({... */\n      dup2\n      mstore\n      0x20\n      add\n        /* \"contracts/market/PropertyMarket.sol\":2444:2456  paymentToken */\n      dup3\n        /* \"contracts/market/PropertyMarket.sol\":2308:2600  PropertyListing({... */\n      0xffffffffffffffffffffffffffffffffffffffff\n      and\n      dup2\n      mstore\n      0x20\n      add\n        /* \"contracts/market/PropertyMarket.sol\":2479:2500  PropertyStatus.LISTED */\n      0x00\n        /* \"contracts/market/PropertyMarket.sol\":2308:2600  PropertyListing({... */\n      0x03\n      dup2\n      gt\n      iszero\n      tag_118\n      jumpi\n      tag_119\n      tag_65\n      jump\t// in\n    tag_119:\n    tag_118:\n      dup2\n      mstore\n      0x20\n      add\n        /* \"contracts/market/PropertyMarket.sol\":2530:2545  block.timestamp */\n      timestamp\n        /* \"contracts/market/PropertyMarket.sol\":2308:2600  PropertyListing({... */\n      dup2\n      mstore\n      0x20\n      add\n        /* \"contracts/market/PropertyMarket.sol\":2573:2588  block.timestamp */\n      timestamp\n        /* \"contracts/market/PropertyMarket.sol\":2308:2600  PropertyListing({... */\n      dup2\n      mstore\n      pop\n        /* \"contracts/market/PropertyMarket.sol\":2288:2296  listings */\n      0x01\n        /* \"contracts/market/PropertyMarket.sol\":2288:2305  listings[tokenId] */\n      0x00\n        /* \"contracts/market/PropertyMarket.sol\":2297:2304  tokenId */\n      dup6\n        /* \"contracts/market/PropertyMarket.sol\":2288:2305  listings[tokenId] */\n      dup2\n      mstore\n      0x20\n      add\n      swap1\n      dup2\n      mstore\n      0x20\n      add\n      0x00\n      keccak256\n        /* \"contracts/market/PropertyMarket.sol\":2288:2600  listings[tokenId] = PropertyListing({... */\n      0x00\n      dup3\n      add\n      mload\n      dup2\n      0x00\n      add\n      sstore\n      0x20\n      dup3\n      add\n      mload\n      dup2\n      0x01\n      add\n      exp(0x0100, 0x00)\n      dup2\n      sload\n      dup2\n      0xffffffffffffffffffffffffffffffffffffffff\n      mul\n      not\n      and\n      swap1\n      dup4\n      0xffffffffffffffffffffffffffffffffffffffff\n      and\n      mul\n      or\n      swap1\n      sstore\n      pop\n      0x40\n      dup3\n      add\n      mload\n      dup2\n      0x02\n      add\n      sstore\n      0x60\n      dup3\n      add\n      mload\n      dup2\n      0x03\n      add\n      exp(0x0100, 0x00)\n      dup2\n      sload\n      dup2\n      0xffffffffffffffffffffffffffffffffffffffff\n      mul\n      not\n      and\n      swap1\n      dup4\n      0xffffffffffffffffffffffffffffffffffffffff\n      and\n      mul\n      or\n      swap1\n      sstore\n      pop\n      0x80\n      dup3\n      add\n      mload\n      dup2\n      0x03\n      add\n      exp(0x0100, 0x14)\n      dup2\n      sload\n      dup2\n      0xff\n      mul\n      not\n      and\n      swap1\n      dup4\n      0x03\n      dup2\n      gt\n      iszero\n      tag_120\n      jumpi\n      tag_121\n      tag_65\n      jump\t// in\n    tag_121:\n    tag_120:\n      mul\n      or\n      swap1\n      sstore\n      pop\n      0xa0\n      dup3\n      add\n      mload\n      dup2\n      0x04\n      add\n      sstore\n      0xc0\n      dup3\n      add\n      mload\n      dup2\n      0x05\n      add\n      sstore\n      swap1\n      pop\n      pop\n        /* \"contracts/market/PropertyMarket.sol\":2638:2648  msg.sender */\n      caller\n        /* \"contracts/market/PropertyMarket.sol\":2618:2670  NewListing(tokenId, msg.sender, price, paymentToken) */\n      0xffffffffffffffffffffffffffffffffffffffff\n      and\n        /* \"contracts/market/PropertyMarket.sol\":2629:2636  tokenId */\n      dup4\n        /* \"contracts/market/PropertyMarket.sol\":2618:2670  NewListing(tokenId, msg.sender, price, paymentToken) */\n      0x2c6c7576542d9307c65e21c836da28fc580279667ba9e8d5fe56dca491d59803\n        /* \"contracts/market/PropertyMarket.sol\":2650:2655  price */\n      dup5\n        /* \"contracts/market/PropertyMarket.sol\":2657:2669  paymentToken */\n      dup5\n        /* \"contracts/market/PropertyMarket.sol\":2618:2670  NewListing(tokenId, msg.sender, price, paymentToken) */\n      mload(0x40)\n      tag_122\n      swap3\n      swap2\n      swap1\n      tag_123\n      jump\t// in\n    tag_122:\n      mload(0x40)\n      dup1\n      swap2\n      sub\n      swap1\n      log3\n        /* \"@openzeppelin/contracts/security/ReentrancyGuard.sol\":2303:2323  _nonReentrantAfter() */\n      tag_124\n        /* \"@openzeppelin/contracts/security/ReentrancyGuard.sol\":2303:2321  _nonReentrantAfter */\n      tag_97\n        /* \"@openzeppelin/contracts/security/ReentrancyGuard.sol\":2303:2323  _nonReentrantAfter() */\n      jump\t// in\n    tag_124:\n        /* \"contracts/market/PropertyMarket.sol\":1848:2678  function listProperty(... */\n      pop\n      pop\n      pop\n      jump\t// out\n        /* \"contracts/market/PropertyMarket.sol\":5218:5747  function updateListing(... */\n    tag_34:\n        /* \"contracts/market/PropertyMarket.sol\":5836:5848  bytes32 role */\n      0x00\n        /* \"contracts/market/PropertyMarket.sol\":5851:5863  adminControl */\n      immutable(\"0x8dbfb589ac5cc07612f2743376919bd376e16de5e3439de82f1db2526670b5f2\")\n        /* \"contracts/market/PropertyMarket.sol\":5851:5877  adminControl.OPERATOR_ROLE */\n      0xffffffffffffffffffffffffffffffffffffffff\n      and\n      0xf5b541a6\n        /* \"contracts/market/PropertyMarket.sol\":5851:5879  adminControl.OPERATOR_ROLE() */\n      mload(0x40)\n      dup2\n      0xffffffff\n      and\n      0xe0\n      shl\n      dup2\n      mstore\n      0x04\n      add\n      0x20\n      mload(0x40)\n      dup1\n      dup4\n      sub\n      dup2\n      dup7\n      gas\n      staticcall\n      iszero\n      dup1\n      iszero\n      tag_127\n      jumpi\n      returndatasize\n      0x00\n      dup1\n      returndatacopy\n      revert(0x00, returndatasize)\n    tag_127:\n      pop\n      pop\n      pop\n      pop\n      mload(0x40)\n      returndatasize\n      not(0x1f)\n      0x1f\n      dup3\n      add\n      and\n      dup3\n      add\n      dup1\n      0x40\n      mstore\n      pop\n      dup2\n      add\n      swap1\n      tag_128\n      swap2\n      swap1\n      tag_129\n      jump\t// in\n    tag_128:\n        /* \"contracts/market/PropertyMarket.sol\":5836:5879  bytes32 role = adminControl.OPERATOR_ROLE() */\n      swap1\n      pop\n        /* \"contracts/market/PropertyMarket.sol\":5912:5924  adminControl */\n      immutable(\"0x8dbfb589ac5cc07612f2743376919bd376e16de5e3439de82f1db2526670b5f2\")\n        /* \"contracts/market/PropertyMarket.sol\":5912:5932  adminControl.hasRole */\n      0xffffffffffffffffffffffffffffffffffffffff\n      and\n      0x91d14854\n        /* \"contracts/market/PropertyMarket.sol\":5933:5937  role */\n      dup3\n        /* \"contracts/market/PropertyMarket.sol\":5939:5949  msg.sender */\n      caller\n        /* \"contracts/market/PropertyMarket.sol\":5912:5950  adminControl.hasRole(role, msg.sender) */\n      mload(0x40)\n      dup4\n      0xffffffff\n      and\n      0xe0\n      shl\n      dup2\n      mstore\n      0x04\n      add\n      tag_130\n      swap3\n      swap2\n      swap1\n      tag_131\n      jump\t// in\n    tag_130:\n      0x20\n      mload(0x40)\n      dup1\n      dup4\n      sub\n      dup2\n      dup7\n      gas\n      staticcall\n      iszero\n      dup1\n      iszero\n      tag_133\n      jumpi\n      returndatasize\n      0x00\n      dup1\n      returndatacopy\n      revert(0x00, returndatasize)\n    tag_133:\n      pop\n      pop\n      pop\n      pop\n      mload(0x40)\n      returndatasize\n      not(0x1f)\n      0x1f\n      dup3\n      add\n      and\n      dup3\n      add\n      dup1\n      0x40\n      mstore\n      pop\n      dup2\n      add\n      swap1\n      tag_134\n      swap2\n      swap1\n      tag_76\n      jump\t// in\n    tag_134:\n        /* \"contracts/market/PropertyMarket.sol\":5890:5995  require(... */\n      tag_135\n      jumpi\n      mload(0x40)\n      0x08c379a000000000000000000000000000000000000000000000000000000000\n      dup2\n      mstore\n      0x04\n      add\n      tag_136\n      swap1\n      tag_137\n      jump\t// in\n    tag_136:\n      mload(0x40)\n      dup1\n      swap2\n      sub\n      swap1\n      revert\n    tag_135:\n        /* \"contracts/market/PropertyMarket.sol\":5368:5399  PropertyListing storage listing */\n      0x00\n        /* \"contracts/market/PropertyMarket.sol\":5402:5410  listings */\n      0x01\n        /* \"contracts/market/PropertyMarket.sol\":5402:5419  listings[tokenId] */\n      0x00\n        /* \"contracts/market/PropertyMarket.sol\":5411:5418  tokenId */\n      dup7\n        /* \"contracts/market/PropertyMarket.sol\":5402:5419  listings[tokenId] */\n      dup2\n      mstore\n      0x20\n      add\n      swap1\n      dup2\n      mstore\n      0x20\n      add\n      0x00\n      keccak256\n        /* \"contracts/market/PropertyMarket.sol\":5368:5419  PropertyListing storage listing = listings[tokenId] */\n      swap1\n      pop\n        /* \"contracts/market/PropertyMarket.sol\":5470:5491  PropertyStatus.LISTED */\n      0x00\n        /* \"contracts/market/PropertyMarket.sol\":5452:5491  listing.status == PropertyStatus.LISTED */\n      0x03\n      dup2\n      gt\n      iszero\n      tag_139\n      jumpi\n      tag_140\n      tag_65\n      jump\t// in\n    tag_140:\n    tag_139:\n        /* \"contracts/market/PropertyMarket.sol\":5452:5459  listing */\n      dup2\n        /* \"contracts/market/PropertyMarket.sol\":5452:5466  listing.status */\n      0x03\n      add\n      0x14\n      swap1\n      sload\n      swap1\n      0x0100\n      exp\n      swap1\n      div\n      0xff\n      and\n        /* \"contracts/market/PropertyMarket.sol\":5452:5491  listing.status == PropertyStatus.LISTED */\n      0x03\n      dup2\n      gt\n      iszero\n      tag_141\n      jumpi\n      tag_142\n      tag_65\n      jump\t// in\n    tag_142:\n    tag_141:\n      eq\n        /* \"contracts/market/PropertyMarket.sol\":5430:5537  require(... */\n      tag_143\n      jumpi\n      mload(0x40)\n      0x08c379a000000000000000000000000000000000000000000000000000000000\n      dup2\n      mstore\n      0x04\n      add\n      tag_144\n      swap1\n      tag_145\n      jump\t// in\n    tag_144:\n      mload(0x40)\n      dup1\n      swap2\n      sub\n      swap1\n      revert\n    tag_143:\n        /* \"contracts/market/PropertyMarket.sol\":5566:5574  newPrice */\n      dup4\n        /* \"contracts/market/PropertyMarket.sol\":5550:5557  listing */\n      dup2\n        /* \"contracts/market/PropertyMarket.sol\":5550:5563  listing.price */\n      0x02\n      add\n        /* \"contracts/market/PropertyMarket.sol\":5550:5574  listing.price = newPrice */\n      dup2\n      swap1\n      sstore\n      pop\n        /* \"contracts/market/PropertyMarket.sol\":5608:5623  newPaymentToken */\n      dup3\n        /* \"contracts/market/PropertyMarket.sol\":5585:5592  listing */\n      dup2\n        /* \"contracts/market/PropertyMarket.sol\":5585:5605  listing.paymentToken */\n      0x03\n      add\n      0x00\n        /* \"contracts/market/PropertyMarket.sol\":5585:5623  listing.paymentToken = newPaymentToken */\n      0x0100\n      exp\n      dup2\n      sload\n      dup2\n      0xffffffffffffffffffffffffffffffffffffffff\n      mul\n      not\n      and\n      swap1\n      dup4\n      0xffffffffffffffffffffffffffffffffffffffff\n      and\n      mul\n      or\n      swap1\n      sstore\n      pop\n        /* \"contracts/market/PropertyMarket.sol\":5656:5671  block.timestamp */\n      timestamp\n        /* \"contracts/market/PropertyMarket.sol\":5634:5641  listing */\n      dup2\n        /* \"contracts/market/PropertyMarket.sol\":5634:5653  listing.lastRenewed */\n      0x05\n      add\n        /* \"contracts/market/PropertyMarket.sol\":5634:5671  listing.lastRenewed = block.timestamp */\n      dup2\n      swap1\n      sstore\n      pop\n        /* \"contracts/market/PropertyMarket.sol\":5704:5711  tokenId */\n      dup5\n        /* \"contracts/market/PropertyMarket.sol\":5689:5739  ListingUpdated(tokenId, newPrice, newPaymentToken) */\n      0xb82cb8d1ee5aa2af90399f2b0ece446b81a5f1e601da16a2a2b62dfcc8bb4ba3\n        /* \"contracts/market/PropertyMarket.sol\":5713:5721  newPrice */\n      dup6\n        /* \"contracts/market/PropertyMarket.sol\":5723:5738  newPaymentToken */\n      dup6\n        /* \"contracts/market/PropertyMarket.sol\":5689:5739  ListingUpdated(tokenId, newPrice, newPaymentToken) */\n      mload(0x40)\n      tag_146\n      swap3\n      swap2\n      swap1\n      tag_123\n      jump\t// in\n    tag_146:\n      mload(0x40)\n      dup1\n      swap2\n      sub\n      swap1\n      log2\n        /* \"contracts/market/PropertyMarket.sol\":5357:5747  {... */\n      pop\n        /* \"contracts/market/PropertyMarket.sol\":5825:6015  {... */\n      pop\n        /* \"contracts/market/PropertyMarket.sol\":5218:5747  function updateListing(... */\n      pop\n      pop\n      pop\n      jump\t// out\n        /* \"contracts/market/PropertyMarket.sol\":929:994  mapping(address => mapping(uint256 => uint256)) public leaseTerms */\n    tag_39:\n      mstore(0x20, 0x02)\n      dup2\n      0x00\n      mstore\n      mstore(0x20, keccak256(0x00, 0x40))\n      dup1\n      0x00\n      mstore\n      keccak256(0x00, 0x40)\n      0x00\n      swap2\n      pop\n      swap2\n      pop\n      pop\n      sload\n      dup2\n      jump\t// out\n        /* \"contracts/market/PropertyMarket.sol\":821:858  IERC721 public immutable nftmContract */\n    tag_44:\n      immutable(\"0xa719e06aa69fe5611e041976601e5776ff743aefe35a016a2b5dfe8f33a5e5e9\")\n      dup2\n      jump\t// out\n        /* \"contracts/market/PropertyMarket.sol\":871:922  mapping(uint256 => PropertyListing) public listings */\n    tag_50:\n      mstore(0x20, 0x01)\n      dup1\n      0x00\n      mstore\n      keccak256(0x00, 0x40)\n      0x00\n      swap2\n      pop\n      swap1\n      pop\n      dup1\n      0x00\n      add\n      sload\n      swap1\n      dup1\n      0x01\n      add\n      0x00\n      swap1\n      sload\n      swap1\n      0x0100\n      exp\n      swap1\n      div\n      0xffffffffffffffffffffffffffffffffffffffff\n      and\n      swap1\n      dup1\n      0x02\n      add\n      sload\n      swap1\n      dup1\n      0x03\n      add\n      0x00\n      swap1\n      sload\n      swap1\n      0x0100\n      exp\n      swap1\n      div\n      0xffffffffffffffffffffffffffffffffffffffff\n      and\n      swap1\n      dup1\n      0x03\n      add\n      0x14\n      swap1\n      sload\n      swap1\n      0x0100\n      exp\n      swap1\n      div\n      0xff\n      and\n      swap1\n      dup1\n      0x04\n      add\n      sload\n      swap1\n      dup1\n      0x05\n      add\n      sload\n      swap1\n      pop\n      dup8\n      jump\t// out\n        /* \"contracts/market/PropertyMarket.sol\":6066:6596  function getListingDetails(uint256 tokenId)... */\n    tag_56:\n        /* \"contracts/market/PropertyMarket.sol\":6174:6188  address seller */\n      0x00\n        /* \"contracts/market/PropertyMarket.sol\":6203:6216  uint256 price */\n      dup1\n        /* \"contracts/market/PropertyMarket.sol\":6231:6251  address paymentToken */\n      0x00\n        /* \"contracts/market/PropertyMarket.sol\":6266:6287  PropertyStatus status */\n      dup1\n        /* \"contracts/market/PropertyMarket.sol\":6302:6323  uint256 listTimestamp */\n      0x00\n        /* \"contracts/market/PropertyMarket.sol\":6351:6382  PropertyListing storage listing */\n      dup1\n        /* \"contracts/market/PropertyMarket.sol\":6385:6393  listings */\n      0x01\n        /* \"contracts/market/PropertyMarket.sol\":6385:6402  listings[tokenId] */\n      0x00\n        /* \"contracts/market/PropertyMarket.sol\":6394:6401  tokenId */\n      dup9\n        /* \"contracts/market/PropertyMarket.sol\":6385:6402  listings[tokenId] */\n      dup2\n      mstore\n      0x20\n      add\n      swap1\n      dup2\n      mstore\n      0x20\n      add\n      0x00\n      keccak256\n        /* \"contracts/market/PropertyMarket.sol\":6351:6402  PropertyListing storage listing = listings[tokenId] */\n      swap1\n      pop\n        /* \"contracts/market/PropertyMarket.sol\":6435:6442  listing */\n      dup1\n        /* \"contracts/market/PropertyMarket.sol\":6435:6449  listing.seller */\n      0x01\n      add\n      0x00\n      swap1\n      sload\n      swap1\n      0x0100\n      exp\n      swap1\n      div\n      0xffffffffffffffffffffffffffffffffffffffff\n      and\n        /* \"contracts/market/PropertyMarket.sol\":6464:6471  listing */\n      dup2\n        /* \"contracts/market/PropertyMarket.sol\":6464:6477  listing.price */\n      0x02\n      add\n      sload\n        /* \"contracts/market/PropertyMarket.sol\":6492:6499  listing */\n      dup3\n        /* \"contracts/market/PropertyMarket.sol\":6492:6512  listing.paymentToken */\n      0x03\n      add\n      0x00\n      swap1\n      sload\n      swap1\n      0x0100\n      exp\n      swap1\n      div\n      0xffffffffffffffffffffffffffffffffffffffff\n      and\n        /* \"contracts/market/PropertyMarket.sol\":6527:6534  listing */\n      dup4\n        /* \"contracts/market/PropertyMarket.sol\":6527:6541  listing.status */\n      0x03\n      add\n      0x14\n      swap1\n      sload\n      swap1\n      0x0100\n      exp\n      swap1\n      div\n      0xff\n      and\n        /* \"contracts/market/PropertyMarket.sol\":6556:6563  listing */\n      dup5\n        /* \"contracts/market/PropertyMarket.sol\":6556:6577  listing.listTimestamp */\n      0x04\n      add\n      sload\n        /* \"contracts/market/PropertyMarket.sol\":6413:6588  return (... */\n      swap6\n      pop\n      swap6\n      pop\n      swap6\n      pop\n      swap6\n      pop\n      swap6\n      pop\n      pop\n        /* \"contracts/market/PropertyMarket.sol\":6066:6596  function getListingDetails(uint256 tokenId)... */\n      swap2\n      swap4\n      swap6\n      swap1\n      swap3\n      swap5\n      pop\n      jump\t// out\n        /* \"@openzeppelin/contracts/security/ReentrancyGuard.sol\":2336:2623  function _nonReentrantBefore() private {... */\n    tag_61:\n        /* \"@openzeppelin/contracts/security/ReentrancyGuard.sol\":1759:1760  2 */\n      0x02\n        /* \"@openzeppelin/contracts/security/ReentrancyGuard.sol\":2468:2475  _status */\n      sload(0x00)\n        /* \"@openzeppelin/contracts/security/ReentrancyGuard.sol\":2468:2487  _status != _ENTERED */\n      sub\n        /* \"@openzeppelin/contracts/security/ReentrancyGuard.sol\":2460:2523  require(_status != _ENTERED, \"ReentrancyGuard: reentrant call\") */\n      tag_149\n      jumpi\n      mload(0x40)\n      0x08c379a000000000000000000000000000000000000000000000000000000000\n      dup2\n      mstore\n      0x04\n      add\n      tag_150\n      swap1\n      tag_151\n      jump\t// in\n    tag_150:\n      mload(0x40)\n      dup1\n      swap2\n      sub\n      swap1\n      revert\n    tag_149:\n        /* \"@openzeppelin/contracts/security/ReentrancyGuard.sol\":1759:1760  2 */\n      0x02\n        /* \"@openzeppelin/contracts/security/ReentrancyGuard.sol\":2598:2605  _status */\n      0x00\n        /* \"@openzeppelin/contracts/security/ReentrancyGuard.sol\":2598:2616  _status = _ENTERED */\n      dup2\n      swap1\n      sstore\n      pop\n        /* \"@openzeppelin/contracts/security/ReentrancyGuard.sol\":2336:2623  function _nonReentrantBefore() private {... */\n      jump\t// out\n        /* \"contracts/market/PropertyMarket.sol\":3787:4140  function _validatePayment(... */\n    tag_81:\n        /* \"contracts/market/PropertyMarket.sol\":3932:3936  bool */\n      0x00\n        /* \"contracts/market/PropertyMarket.sol\":3977:3978  0 */\n      dup1\n        /* \"contracts/market/PropertyMarket.sol\":3953:3979  paymentToken == address(0) */\n      0xffffffffffffffffffffffffffffffffffffffff\n      and\n        /* \"contracts/market/PropertyMarket.sol\":3953:3965  paymentToken */\n      dup3\n        /* \"contracts/market/PropertyMarket.sol\":3953:3979  paymentToken == address(0) */\n      0xffffffffffffffffffffffffffffffffffffffff\n      and\n      sub\n        /* \"contracts/market/PropertyMarket.sol\":3949:4133  if (paymentToken == address(0)) {... */\n      tag_153\n      jumpi\n        /* \"contracts/market/PropertyMarket.sol\":4016:4027  listedPrice */\n      dup4\n        /* \"contracts/market/PropertyMarket.sol\":4003:4012  msg.value */\n      callvalue\n        /* \"contracts/market/PropertyMarket.sol\":4003:4027  msg.value >= listedPrice */\n      lt\n      iszero\n        /* \"contracts/market/PropertyMarket.sol\":4003:4056  msg.value >= listedPrice && offerPrice == listedPrice */\n      dup1\n      iszero\n      tag_154\n      jumpi\n      pop\n        /* \"contracts/market/PropertyMarket.sol\":4045:4056  listedPrice */\n      dup4\n        /* \"contracts/market/PropertyMarket.sol\":4031:4041  offerPrice */\n      dup4\n        /* \"contracts/market/PropertyMarket.sol\":4031:4056  offerPrice == listedPrice */\n      eq\n        /* \"contracts/market/PropertyMarket.sol\":4003:4056  msg.value >= listedPrice && offerPrice == listedPrice */\n    tag_154:\n        /* \"contracts/market/PropertyMarket.sol\":3996:4056  return msg.value >= listedPrice && offerPrice == listedPrice */\n      swap1\n      pop\n      jump(tag_152)\n        /* \"contracts/market/PropertyMarket.sol\":3949:4133  if (paymentToken == address(0)) {... */\n    tag_153:\n        /* \"contracts/market/PropertyMarket.sol\":4110:4121  listedPrice */\n      dup4\n        /* \"contracts/market/PropertyMarket.sol\":4096:4106  offerPrice */\n      dup4\n        /* \"contracts/market/PropertyMarket.sol\":4096:4121  offerPrice == listedPrice */\n      eq\n        /* \"contracts/market/PropertyMarket.sol\":4089:4121  return offerPrice == listedPrice */\n      swap1\n      pop\n        /* \"contracts/market/PropertyMarket.sol\":3787:4140  function _validatePayment(... */\n    tag_152:\n      swap4\n      swap3\n      pop\n      pop\n      pop\n      jump\t// out\n        /* \"contracts/market/PropertyMarket.sol\":4148:5167  function _processPayment(... */\n    tag_86:\n        /* \"contracts/market/PropertyMarket.sol\":4281:4296  uint256 baseFee */\n      0x00\n        /* \"contracts/market/PropertyMarket.sol\":4299:4319  address feeCollector */\n      dup1\n        /* \"contracts/market/PropertyMarket.sol\":4323:4335  adminControl */\n      immutable(\"0x8dbfb589ac5cc07612f2743376919bd376e16de5e3439de82f1db2526670b5f2\")\n        /* \"contracts/market/PropertyMarket.sol\":4323:4345  adminControl.feeConfig */\n      0xffffffffffffffffffffffffffffffffffffffff\n      and\n      0x1e5eb1d0\n        /* \"contracts/market/PropertyMarket.sol\":4323:4347  adminControl.feeConfig() */\n      mload(0x40)\n      dup2\n      0xffffffff\n      and\n      0xe0\n      shl\n      dup2\n      mstore\n      0x04\n      add\n      0x60\n      mload(0x40)\n      dup1\n      dup4\n      sub\n      dup2\n      dup7\n      gas\n      staticcall\n      iszero\n      dup1\n      iszero\n      tag_158\n      jumpi\n      returndatasize\n      0x00\n      dup1\n      returndatacopy\n      revert(0x00, returndatasize)\n    tag_158:\n      pop\n      pop\n      pop\n      pop\n      mload(0x40)\n      returndatasize\n      not(0x1f)\n      0x1f\n      dup3\n      add\n      and\n      dup3\n      add\n      dup1\n      0x40\n      mstore\n      pop\n      dup2\n      add\n      swap1\n      tag_159\n      swap2\n      swap1\n      tag_160\n      jump\t// in\n    tag_159:\n        /* \"contracts/market/PropertyMarket.sol\":4280:4347  (uint256 baseFee,, address feeCollector) = adminControl.feeConfig() */\n      swap3\n      pop\n      pop\n      swap2\n      pop\n        /* \"contracts/market/PropertyMarket.sol\":4358:4370  uint256 fees */\n      0x00\n        /* \"contracts/market/PropertyMarket.sol\":4393:4398  10000 */\n      0x2710\n        /* \"contracts/market/PropertyMarket.sol\":4382:4389  baseFee */\n      dup4\n        /* \"contracts/market/PropertyMarket.sol\":4374:4379  price */\n      dup7\n        /* \"contracts/market/PropertyMarket.sol\":4374:4389  price * baseFee */\n      tag_161\n      swap2\n      swap1\n      tag_162\n      jump\t// in\n    tag_161:\n        /* \"contracts/market/PropertyMarket.sol\":4373:4398  (price * baseFee) / 10000 */\n      tag_163\n      swap2\n      swap1\n      tag_164\n      jump\t// in\n    tag_163:\n        /* \"contracts/market/PropertyMarket.sol\":4358:4398  uint256 fees = (price * baseFee) / 10000 */\n      swap1\n      pop\n        /* \"contracts/market/PropertyMarket.sol\":4409:4425  uint256 netValue */\n      0x00\n        /* \"contracts/market/PropertyMarket.sol\":4436:4440  fees */\n      dup2\n        /* \"contracts/market/PropertyMarket.sol\":4428:4433  price */\n      dup7\n        /* \"contracts/market/PropertyMarket.sol\":4428:4440  price - fees */\n      tag_165\n      swap2\n      swap1\n      tag_166\n      jump\t// in\n    tag_165:\n        /* \"contracts/market/PropertyMarket.sol\":4409:4440  uint256 netValue = price - fees */\n      swap1\n      pop\n        /* \"contracts/market/PropertyMarket.sol\":4481:4482  0 */\n      0x00\n        /* \"contracts/market/PropertyMarket.sol\":4457:4483  paymentToken == address(0) */\n      0xffffffffffffffffffffffffffffffffffffffff\n      and\n        /* \"contracts/market/PropertyMarket.sol\":4457:4469  paymentToken */\n      dup6\n        /* \"contracts/market/PropertyMarket.sol\":4457:4483  paymentToken == address(0) */\n      0xffffffffffffffffffffffffffffffffffffffff\n      and\n      sub\n        /* \"contracts/market/PropertyMarket.sol\":4453:5160  if (paymentToken == address(0)) {... */\n      tag_167\n      jumpi\n        /* \"contracts/market/PropertyMarket.sol\":4521:4526  price */\n      dup6\n        /* \"contracts/market/PropertyMarket.sol\":4508:4517  msg.value */\n      callvalue\n        /* \"contracts/market/PropertyMarket.sol\":4508:4526  msg.value >= price */\n      lt\n      iszero\n        /* \"contracts/market/PropertyMarket.sol\":4500:4547  require(msg.value >= price, \"Insufficient ETH\") */\n      tag_168\n      jumpi\n      mload(0x40)\n      0x08c379a000000000000000000000000000000000000000000000000000000000\n      dup2\n      mstore\n      0x04\n      add\n      tag_169\n      swap1\n      tag_170\n      jump\t// in\n    tag_169:\n      mload(0x40)\n      dup1\n      swap2\n      sub\n      swap1\n      revert\n    tag_168:\n        /* \"contracts/market/PropertyMarket.sol\":4592:4597  price */\n      dup6\n        /* \"contracts/market/PropertyMarket.sol\":4580:4589  msg.value */\n      callvalue\n        /* \"contracts/market/PropertyMarket.sol\":4580:4597  msg.value > price */\n      gt\n        /* \"contracts/market/PropertyMarket.sol\":4576:4681  if (msg.value > price) {... */\n      iszero\n      tag_171\n      jumpi\n        /* \"contracts/market/PropertyMarket.sol\":4626:4636  msg.sender */\n      caller\n        /* \"contracts/market/PropertyMarket.sol\":4618:4646  payable(msg.sender).transfer */\n      0xffffffffffffffffffffffffffffffffffffffff\n      and\n        /* \"contracts/market/PropertyMarket.sol\":4618:4665  payable(msg.sender).transfer(msg.value - price) */\n      0x08fc\n        /* \"contracts/market/PropertyMarket.sol\":4659:4664  price */\n      dup8\n        /* \"contracts/market/PropertyMarket.sol\":4647:4656  msg.value */\n      callvalue\n        /* \"contracts/market/PropertyMarket.sol\":4647:4664  msg.value - price */\n      tag_172\n      swap2\n      swap1\n      tag_166\n      jump\t// in\n    tag_172:\n        /* \"contracts/market/PropertyMarket.sol\":4618:4665  payable(msg.sender).transfer(msg.value - price) */\n      swap1\n      dup2\n      iszero\n      mul\n      swap1\n      mload(0x40)\n      0x00\n      mload(0x40)\n      dup1\n      dup4\n      sub\n      dup2\n      dup6\n      dup9\n      dup9\n      call\n      swap4\n      pop\n      pop\n      pop\n      pop\n      iszero\n      dup1\n      iszero\n      tag_174\n      jumpi\n      returndatasize\n      0x00\n      dup1\n      returndatacopy\n      revert(0x00, returndatasize)\n    tag_174:\n      pop\n        /* \"contracts/market/PropertyMarket.sol\":4576:4681  if (msg.value > price) {... */\n    tag_171:\n        /* \"contracts/market/PropertyMarket.sol\":4717:4723  seller */\n      dup7\n        /* \"contracts/market/PropertyMarket.sol\":4709:4733  payable(seller).transfer */\n      0xffffffffffffffffffffffffffffffffffffffff\n      and\n        /* \"contracts/market/PropertyMarket.sol\":4709:4743  payable(seller).transfer(netValue) */\n      0x08fc\n        /* \"contracts/market/PropertyMarket.sol\":4734:4742  netValue */\n      dup3\n        /* \"contracts/market/PropertyMarket.sol\":4709:4743  payable(seller).transfer(netValue) */\n      swap1\n      dup2\n      iszero\n      mul\n      swap1\n      mload(0x40)\n      0x00\n      mload(0x40)\n      dup1\n      dup4\n      sub\n      dup2\n      dup6\n      dup9\n      dup9\n      call\n      swap4\n      pop\n      pop\n      pop\n      pop\n      iszero\n      dup1\n      iszero\n      tag_176\n      jumpi\n      returndatasize\n      0x00\n      dup1\n      returndatacopy\n      revert(0x00, returndatasize)\n    tag_176:\n      pop\n        /* \"contracts/market/PropertyMarket.sol\":4766:4778  feeCollector */\n      dup3\n        /* \"contracts/market/PropertyMarket.sol\":4758:4788  payable(feeCollector).transfer */\n      0xffffffffffffffffffffffffffffffffffffffff\n      and\n        /* \"contracts/market/PropertyMarket.sol\":4758:4794  payable(feeCollector).transfer(fees) */\n      0x08fc\n        /* \"contracts/market/PropertyMarket.sol\":4789:4793  fees */\n      dup4\n        /* \"contracts/market/PropertyMarket.sol\":4758:4794  payable(feeCollector).transfer(fees) */\n      swap1\n      dup2\n      iszero\n      mul\n      swap1\n      mload(0x40)\n      0x00\n      mload(0x40)\n      dup1\n      dup4\n      sub\n      dup2\n      dup6\n      dup9\n      dup9\n      call\n      swap4\n      pop\n      pop\n      pop\n      pop\n      iszero\n      dup1\n      iszero\n      tag_178\n      jumpi\n      returndatasize\n      0x00\n      dup1\n      returndatacopy\n      revert(0x00, returndatasize)\n    tag_178:\n      pop\n        /* \"contracts/market/PropertyMarket.sol\":4453:5160  if (paymentToken == address(0)) {... */\n      jump(tag_179)\n    tag_167:\n        /* \"contracts/market/PropertyMarket.sol\":4827:4839  IERC20 token */\n      0x00\n        /* \"contracts/market/PropertyMarket.sol\":4849:4861  paymentToken */\n      dup6\n        /* \"contracts/market/PropertyMarket.sol\":4827:4862  IERC20 token = IERC20(paymentToken) */\n      swap1\n      pop\n        /* \"contracts/market/PropertyMarket.sol\":4903:4908  token */\n      dup1\n        /* \"contracts/market/PropertyMarket.sol\":4903:4921  token.transferFrom */\n      0xffffffffffffffffffffffffffffffffffffffff\n      and\n      0x23b872dd\n        /* \"contracts/market/PropertyMarket.sol\":4922:4932  msg.sender */\n      caller\n        /* \"contracts/market/PropertyMarket.sol\":4934:4940  seller */\n      dup11\n        /* \"contracts/market/PropertyMarket.sol\":4942:4950  netValue */\n      dup6\n        /* \"contracts/market/PropertyMarket.sol\":4903:4951  token.transferFrom(msg.sender, seller, netValue) */\n      mload(0x40)\n      dup5\n      0xffffffff\n      and\n      0xe0\n      shl\n      dup2\n      mstore\n      0x04\n      add\n      tag_180\n      swap4\n      swap3\n      swap2\n      swap1\n      tag_88\n      jump\t// in\n    tag_180:\n      0x20\n      mload(0x40)\n      dup1\n      dup4\n      sub\n      dup2\n      0x00\n      dup8\n      gas\n      call\n      iszero\n      dup1\n      iszero\n      tag_182\n      jumpi\n      returndatasize\n      0x00\n      dup1\n      returndatacopy\n      revert(0x00, returndatasize)\n    tag_182:\n      pop\n      pop\n      pop\n      pop\n      mload(0x40)\n      returndatasize\n      not(0x1f)\n      0x1f\n      dup3\n      add\n      and\n      dup3\n      add\n      dup1\n      0x40\n      mstore\n      pop\n      dup2\n      add\n      swap1\n      tag_183\n      swap2\n      swap1\n      tag_76\n      jump\t// in\n    tag_183:\n        /* \"contracts/market/PropertyMarket.sol\":4877:5002  require(... */\n      tag_184\n      jumpi\n      mload(0x40)\n      0x08c379a000000000000000000000000000000000000000000000000000000000\n      dup2\n      mstore\n      0x04\n      add\n      tag_185\n      swap1\n      tag_186\n      jump\t// in\n    tag_185:\n      mload(0x40)\n      dup1\n      swap2\n      sub\n      swap1\n      revert\n    tag_184:\n        /* \"contracts/market/PropertyMarket.sol\":5043:5048  token */\n      dup1\n        /* \"contracts/market/PropertyMarket.sol\":5043:5061  token.transferFrom */\n      0xffffffffffffffffffffffffffffffffffffffff\n      and\n      0x23b872dd\n        /* \"contracts/market/PropertyMarket.sol\":5062:5072  msg.sender */\n      caller\n        /* \"contracts/market/PropertyMarket.sol\":5074:5086  feeCollector */\n      dup7\n        /* \"contracts/market/PropertyMarket.sol\":5088:5092  fees */\n      dup7\n        /* \"contracts/market/PropertyMarket.sol\":5043:5093  token.transferFrom(msg.sender, feeCollector, fees) */\n      mload(0x40)\n      dup5\n      0xffffffff\n      and\n      0xe0\n      shl\n      dup2\n      mstore\n      0x04\n      add\n      tag_187\n      swap4\n      swap3\n      swap2\n      swap1\n      tag_88\n      jump\t// in\n    tag_187:\n      0x20\n      mload(0x40)\n      dup1\n      dup4\n      sub\n      dup2\n      0x00\n      dup8\n      gas\n      call\n      iszero\n      dup1\n      iszero\n      tag_189\n      jumpi\n      returndatasize\n      0x00\n      dup1\n      returndatacopy\n      revert(0x00, returndatasize)\n    tag_189:\n      pop\n      pop\n      pop\n      pop\n      mload(0x40)\n      returndatasize\n      not(0x1f)\n      0x1f\n      dup3\n      add\n      and\n      dup3\n      add\n      dup1\n      0x40\n      mstore\n      pop\n      dup2\n      add\n      swap1\n      tag_190\n      swap2\n      swap1\n      tag_76\n      jump\t// in\n    tag_190:\n        /* \"contracts/market/PropertyMarket.sol\":5017:5148  require(... */\n      tag_191\n      jumpi\n      mload(0x40)\n      0x08c379a000000000000000000000000000000000000000000000000000000000\n      dup2\n      mstore\n      0x04\n      add\n      tag_192\n      swap1\n      tag_193\n      jump\t// in\n    tag_192:\n      mload(0x40)\n      dup1\n      swap2\n      sub\n      swap1\n      revert\n    tag_191:\n        /* \"contracts/market/PropertyMarket.sol\":4812:5160  {... */\n      pop\n        /* \"contracts/market/PropertyMarket.sol\":4453:5160  if (paymentToken == address(0)) {... */\n    tag_179:\n        /* \"contracts/market/PropertyMarket.sol\":4269:5167  {... */\n      pop\n      pop\n      pop\n      pop\n        /* \"contracts/market/PropertyMarket.sol\":4148:5167  function _processPayment(... */\n      pop\n      pop\n      pop\n      jump\t// out\n        /* \"@openzeppelin/contracts/security/ReentrancyGuard.sol\":2629:2838  function _nonReentrantAfter() private {... */\n    tag_97:\n        /* \"@openzeppelin/contracts/security/ReentrancyGuard.sol\":1716:1717  1 */\n      0x01\n        /* \"@openzeppelin/contracts/security/ReentrancyGuard.sol\":2809:2816  _status */\n      0x00\n        /* \"@openzeppelin/contracts/security/ReentrancyGuard.sol\":2809:2831  _status = _NOT_ENTERED */\n      dup2\n      swap1\n      sstore\n      pop\n        /* \"@openzeppelin/contracts/security/ReentrancyGuard.sol\":2629:2838  function _nonReentrantAfter() private {... */\n      jump\t// out\n        /* \"#utility.yul\":88:205   */\n    tag_196:\n        /* \"#utility.yul\":197:198   */\n      0x00\n        /* \"#utility.yul\":194:195   */\n      dup1\n        /* \"#utility.yul\":187:199   */\n      revert\n        /* \"#utility.yul\":334:411   */\n    tag_198:\n        /* \"#utility.yul\":371:378   */\n      0x00\n        /* \"#utility.yul\":400:405   */\n      dup2\n        /* \"#utility.yul\":389:405   */\n      swap1\n      pop\n        /* \"#utility.yul\":334:411   */\n      swap2\n      swap1\n      pop\n      jump\t// out\n        /* \"#utility.yul\":417:539   */\n    tag_199:\n        /* \"#utility.yul\":490:514   */\n      tag_258\n        /* \"#utility.yul\":508:513   */\n      dup2\n        /* \"#utility.yul\":490:514   */\n      tag_198\n      jump\t// in\n    tag_258:\n        /* \"#utility.yul\":483:488   */\n      dup2\n        /* \"#utility.yul\":480:515   */\n      eq\n        /* \"#utility.yul\":470:533   */\n      tag_259\n      jumpi\n        /* \"#utility.yul\":529:530   */\n      0x00\n        /* \"#utility.yul\":526:527   */\n      dup1\n        /* \"#utility.yul\":519:531   */\n      revert\n        /* \"#utility.yul\":470:533   */\n    tag_259:\n        /* \"#utility.yul\":417:539   */\n      pop\n      jump\t// out\n        /* \"#utility.yul\":545:684   */\n    tag_200:\n        /* \"#utility.yul\":591:596   */\n      0x00\n        /* \"#utility.yul\":629:635   */\n      dup2\n        /* \"#utility.yul\":616:636   */\n      calldataload\n        /* \"#utility.yul\":607:636   */\n      swap1\n      pop\n        /* \"#utility.yul\":645:678   */\n      tag_261\n        /* \"#utility.yul\":672:677   */\n      dup2\n        /* \"#utility.yul\":645:678   */\n      tag_199\n      jump\t// in\n    tag_261:\n        /* \"#utility.yul\":545:684   */\n      swap3\n      swap2\n      pop\n      pop\n      jump\t// out\n        /* \"#utility.yul\":690:1164   */\n    tag_14:\n        /* \"#utility.yul\":758:764   */\n      0x00\n        /* \"#utility.yul\":766:772   */\n      dup1\n        /* \"#utility.yul\":815:817   */\n      0x40\n        /* \"#utility.yul\":803:812   */\n      dup4\n        /* \"#utility.yul\":794:801   */\n      dup6\n        /* \"#utility.yul\":790:813   */\n      sub\n        /* \"#utility.yul\":786:818   */\n      slt\n        /* \"#utility.yul\":783:902   */\n      iszero\n      tag_263\n      jumpi\n        /* \"#utility.yul\":821:900   */\n      tag_264\n      tag_196\n      jump\t// in\n    tag_264:\n        /* \"#utility.yul\":783:902   */\n    tag_263:\n        /* \"#utility.yul\":941:942   */\n      0x00\n        /* \"#utility.yul\":966:1019   */\n      tag_265\n        /* \"#utility.yul\":1011:1018   */\n      dup6\n        /* \"#utility.yul\":1002:1008   */\n      dup3\n        /* \"#utility.yul\":991:1000   */\n      dup7\n        /* \"#utility.yul\":987:1009   */\n      add\n        /* \"#utility.yul\":966:1019   */\n      tag_200\n      jump\t// in\n    tag_265:\n        /* \"#utility.yul\":956:1019   */\n      swap3\n      pop\n        /* \"#utility.yul\":912:1029   */\n      pop\n        /* \"#utility.yul\":1068:1070   */\n      0x20\n        /* \"#utility.yul\":1094:1147   */\n      tag_266\n        /* \"#utility.yul\":1139:1146   */\n      dup6\n        /* \"#utility.yul\":1130:1136   */\n      dup3\n        /* \"#utility.yul\":1119:1128   */\n      dup7\n        /* \"#utility.yul\":1115:1137   */\n      add\n        /* \"#utility.yul\":1094:1147   */\n      tag_200\n      jump\t// in\n    tag_266:\n        /* \"#utility.yul\":1084:1147   */\n      swap2\n      pop\n        /* \"#utility.yul\":1039:1157   */\n      pop\n        /* \"#utility.yul\":690:1164   */\n      swap3\n      pop\n      swap3\n      swap1\n      pop\n      jump\t// out\n        /* \"#utility.yul\":1170:1296   */\n    tag_201:\n        /* \"#utility.yul\":1207:1214   */\n      0x00\n        /* \"#utility.yul\":1247:1289   */\n      0xffffffffffffffffffffffffffffffffffffffff\n        /* \"#utility.yul\":1240:1245   */\n      dup3\n        /* \"#utility.yul\":1236:1290   */\n      and\n        /* \"#utility.yul\":1225:1290   */\n      swap1\n      pop\n        /* \"#utility.yul\":1170:1296   */\n      swap2\n      swap1\n      pop\n      jump\t// out\n        /* \"#utility.yul\":1302:1362   */\n    tag_202:\n        /* \"#utility.yul\":1330:1333   */\n      0x00\n        /* \"#utility.yul\":1351:1356   */\n      dup2\n        /* \"#utility.yul\":1344:1356   */\n      swap1\n      pop\n        /* \"#utility.yul\":1302:1362   */\n      swap2\n      swap1\n      pop\n      jump\t// out\n        /* \"#utility.yul\":1368:1510   */\n    tag_203:\n        /* \"#utility.yul\":1418:1427   */\n      0x00\n        /* \"#utility.yul\":1451:1504   */\n      tag_270\n        /* \"#utility.yul\":1469:1503   */\n      tag_271\n        /* \"#utility.yul\":1478:1502   */\n      tag_272\n        /* \"#utility.yul\":1496:1501   */\n      dup5\n        /* \"#utility.yul\":1478:1502   */\n      tag_201\n      jump\t// in\n    tag_272:\n        /* \"#utility.yul\":1469:1503   */\n      tag_202\n      jump\t// in\n    tag_271:\n        /* \"#utility.yul\":1451:1504   */\n      tag_201\n      jump\t// in\n    tag_270:\n        /* \"#utility.yul\":1438:1504   */\n      swap1\n      pop\n        /* \"#utility.yul\":1368:1510   */\n      swap2\n      swap1\n      pop\n      jump\t// out\n        /* \"#utility.yul\":1516:1642   */\n    tag_204:\n        /* \"#utility.yul\":1566:1575   */\n      0x00\n        /* \"#utility.yul\":1599:1636   */\n      tag_274\n        /* \"#utility.yul\":1630:1635   */\n      dup3\n        /* \"#utility.yul\":1599:1636   */\n      tag_203\n      jump\t// in\n    tag_274:\n        /* \"#utility.yul\":1586:1636   */\n      swap1\n      pop\n        /* \"#utility.yul\":1516:1642   */\n      swap2\n      swap1\n      pop\n      jump\t// out\n        /* \"#utility.yul\":1648:1795   */\n    tag_205:\n        /* \"#utility.yul\":1719:1728   */\n      0x00\n        /* \"#utility.yul\":1752:1789   */\n      tag_276\n        /* \"#utility.yul\":1783:1788   */\n      dup3\n        /* \"#utility.yul\":1752:1789   */\n      tag_204\n      jump\t// in\n    tag_276:\n        /* \"#utility.yul\":1739:1789   */\n      swap1\n      pop\n        /* \"#utility.yul\":1648:1795   */\n      swap2\n      swap1\n      pop\n      jump\t// out\n        /* \"#utility.yul\":1801:1974   */\n    tag_206:\n        /* \"#utility.yul\":1909:1967   */\n      tag_278\n        /* \"#utility.yul\":1961:1966   */\n      dup2\n        /* \"#utility.yul\":1909:1967   */\n      tag_205\n      jump\t// in\n    tag_278:\n        /* \"#utility.yul\":1904:1907   */\n      dup3\n        /* \"#utility.yul\":1897:1968   */\n      mstore\n        /* \"#utility.yul\":1801:1974   */\n      pop\n      pop\n      jump\t// out\n        /* \"#utility.yul\":1980:2244   */\n    tag_20:\n        /* \"#utility.yul\":2094:2098   */\n      0x00\n        /* \"#utility.yul\":2132:2134   */\n      0x20\n        /* \"#utility.yul\":2121:2130   */\n      dup3\n        /* \"#utility.yul\":2117:2135   */\n      add\n        /* \"#utility.yul\":2109:2135   */\n      swap1\n      pop\n        /* \"#utility.yul\":2145:2237   */\n      tag_280\n        /* \"#utility.yul\":2234:2235   */\n      0x00\n        /* \"#utility.yul\":2223:2232   */\n      dup4\n        /* \"#utility.yul\":2219:2236   */\n      add\n        /* \"#utility.yul\":2210:2216   */\n      dup5\n        /* \"#utility.yul\":2145:2237   */\n      tag_206\n      jump\t// in\n    tag_280:\n        /* \"#utility.yul\":1980:2244   */\n      swap3\n      swap2\n      pop\n      pop\n      jump\t// out\n        /* \"#utility.yul\":2250:2391   */\n    tag_207:\n        /* \"#utility.yul\":2315:2324   */\n      0x00\n        /* \"#utility.yul\":2348:2385   */\n      tag_282\n        /* \"#utility.yul\":2379:2384   */\n      dup3\n        /* \"#utility.yul\":2348:2385   */\n      tag_204\n      jump\t// in\n    tag_282:\n        /* \"#utility.yul\":2335:2385   */\n      swap1\n      pop\n        /* \"#utility.yul\":2250:2391   */\n      swap2\n      swap1\n      pop\n      jump\t// out\n        /* \"#utility.yul\":2397:2558   */\n    tag_208:\n        /* \"#utility.yul\":2499:2551   */\n      tag_284\n        /* \"#utility.yul\":2545:2550   */\n      dup2\n        /* \"#utility.yul\":2499:2551   */\n      tag_207\n      jump\t// in\n    tag_284:\n        /* \"#utility.yul\":2494:2497   */\n      dup3\n        /* \"#utility.yul\":2487:2552   */\n      mstore\n        /* \"#utility.yul\":2397:2558   */\n      pop\n      pop\n      jump\t// out\n        /* \"#utility.yul\":2564:2816   */\n    tag_25:\n        /* \"#utility.yul\":2672:2676   */\n      0x00\n        /* \"#utility.yul\":2710:2712   */\n      0x20\n        /* \"#utility.yul\":2699:2708   */\n      dup3\n        /* \"#utility.yul\":2695:2713   */\n      add\n        /* \"#utility.yul\":2687:2713   */\n      swap1\n      pop\n        /* \"#utility.yul\":2723:2809   */\n      tag_286\n        /* \"#utility.yul\":2806:2807   */\n      0x00\n        /* \"#utility.yul\":2795:2804   */\n      dup4\n        /* \"#utility.yul\":2791:2808   */\n      add\n        /* \"#utility.yul\":2782:2788   */\n      dup5\n        /* \"#utility.yul\":2723:2809   */\n      tag_208\n      jump\t// in\n    tag_286:\n        /* \"#utility.yul\":2564:2816   */\n      swap3\n      swap2\n      pop\n      pop\n      jump\t// out\n        /* \"#utility.yul\":2822:2918   */\n    tag_209:\n        /* \"#utility.yul\":2859:2866   */\n      0x00\n        /* \"#utility.yul\":2888:2912   */\n      tag_288\n        /* \"#utility.yul\":2906:2911   */\n      dup3\n        /* \"#utility.yul\":2888:2912   */\n      tag_201\n      jump\t// in\n    tag_288:\n        /* \"#utility.yul\":2877:2912   */\n      swap1\n      pop\n        /* \"#utility.yul\":2822:2918   */\n      swap2\n      swap1\n      pop\n      jump\t// out\n        /* \"#utility.yul\":2924:3046   */\n    tag_210:\n        /* \"#utility.yul\":2997:3021   */\n      tag_290\n        /* \"#utility.yul\":3015:3020   */\n      dup2\n        /* \"#utility.yul\":2997:3021   */\n      tag_209\n      jump\t// in\n    tag_290:\n        /* \"#utility.yul\":2990:2995   */\n      dup2\n        /* \"#utility.yul\":2987:3022   */\n      eq\n        /* \"#utility.yul\":2977:3040   */\n      tag_291\n      jumpi\n        /* \"#utility.yul\":3036:3037   */\n      0x00\n        /* \"#utility.yul\":3033:3034   */\n      dup1\n        /* \"#utility.yul\":3026:3038   */\n      revert\n        /* \"#utility.yul\":2977:3040   */\n    tag_291:\n        /* \"#utility.yul\":2924:3046   */\n      pop\n      jump\t// out\n        /* \"#utility.yul\":3052:3191   */\n    tag_211:\n        /* \"#utility.yul\":3098:3103   */\n      0x00\n        /* \"#utility.yul\":3136:3142   */\n      dup2\n        /* \"#utility.yul\":3123:3143   */\n      calldataload\n        /* \"#utility.yul\":3114:3143   */\n      swap1\n      pop\n        /* \"#utility.yul\":3152:3185   */\n      tag_293\n        /* \"#utility.yul\":3179:3184   */\n      dup2\n        /* \"#utility.yul\":3152:3185   */\n      tag_210\n      jump\t// in\n    tag_293:\n        /* \"#utility.yul\":3052:3191   */\n      swap3\n      swap2\n      pop\n      pop\n      jump\t// out\n        /* \"#utility.yul\":3197:3816   */\n    tag_29:\n        /* \"#utility.yul\":3274:3280   */\n      0x00\n        /* \"#utility.yul\":3282:3288   */\n      dup1\n        /* \"#utility.yul\":3290:3296   */\n      0x00\n        /* \"#utility.yul\":3339:3341   */\n      0x60\n        /* \"#utility.yul\":3327:3336   */\n      dup5\n        /* \"#utility.yul\":3318:3325   */\n      dup7\n        /* \"#utility.yul\":3314:3337   */\n      sub\n        /* \"#utility.yul\":3310:3342   */\n      slt\n        /* \"#utility.yul\":3307:3426   */\n      iszero\n      tag_295\n      jumpi\n        /* \"#utility.yul\":3345:3424   */\n      tag_296\n      tag_196\n      jump\t// in\n    tag_296:\n        /* \"#utility.yul\":3307:3426   */\n    tag_295:\n        /* \"#utility.yul\":3465:3466   */\n      0x00\n        /* \"#utility.yul\":3490:3543   */\n      tag_297\n        /* \"#utility.yul\":3535:3542   */\n      dup7\n        /* \"#utility.yul\":3526:3532   */\n      dup3\n        /* \"#utility.yul\":3515:3524   */\n      dup8\n        /* \"#utility.yul\":3511:3533   */\n      add\n        /* \"#utility.yul\":3490:3543   */\n      tag_200\n      jump\t// in\n    tag_297:\n        /* \"#utility.yul\":3480:3543   */\n      swap4\n      pop\n        /* \"#utility.yul\":3436:3553   */\n      pop\n        /* \"#utility.yul\":3592:3594   */\n      0x20\n        /* \"#utility.yul\":3618:3671   */\n      tag_298\n        /* \"#utility.yul\":3663:3670   */\n      dup7\n        /* \"#utility.yul\":3654:3660   */\n      dup3\n        /* \"#utility.yul\":3643:3652   */\n      dup8\n        /* \"#utility.yul\":3639:3661   */\n      add\n        /* \"#utility.yul\":3618:3671   */\n      tag_200\n      jump\t// in\n    tag_298:\n        /* \"#utility.yul\":3608:3671   */\n      swap3\n      pop\n        /* \"#utility.yul\":3563:3681   */\n      pop\n        /* \"#utility.yul\":3720:3722   */\n      0x40\n        /* \"#utility.yul\":3746:3799   */\n      tag_299\n        /* \"#utility.yul\":3791:3798   */\n      dup7\n        /* \"#utility.yul\":3782:3788   */\n      dup3\n        /* \"#utility.yul\":3771:3780   */\n      dup8\n        /* \"#utility.yul\":3767:3789   */\n      add\n        /* \"#utility.yul\":3746:3799   */\n      tag_211\n      jump\t// in\n    tag_299:\n        /* \"#utility.yul\":3736:3799   */\n      swap2\n      pop\n        /* \"#utility.yul\":3691:3809   */\n      pop\n        /* \"#utility.yul\":3197:3816   */\n      swap3\n      pop\n      swap3\n      pop\n      swap3\n      jump\t// out\n        /* \"#utility.yul\":3822:4296   */\n    tag_38:\n        /* \"#utility.yul\":3890:3896   */\n      0x00\n        /* \"#utility.yul\":3898:3904   */\n      dup1\n        /* \"#utility.yul\":3947:3949   */\n      0x40\n        /* \"#utility.yul\":3935:3944   */\n      dup4\n        /* \"#utility.yul\":3926:3933   */\n      dup6\n        /* \"#utility.yul\":3922:3945   */\n      sub\n        /* \"#utility.yul\":3918:3950   */\n      slt\n        /* \"#utility.yul\":3915:4034   */\n      iszero\n      tag_301\n      jumpi\n        /* \"#utility.yul\":3953:4032   */\n      tag_302\n      tag_196\n      jump\t// in\n    tag_302:\n        /* \"#utility.yul\":3915:4034   */\n    tag_301:\n        /* \"#utility.yul\":4073:4074   */\n      0x00\n        /* \"#utility.yul\":4098:4151   */\n      tag_303\n        /* \"#utility.yul\":4143:4150   */\n      dup6\n        /* \"#utility.yul\":4134:4140   */\n      dup3\n        /* \"#utility.yul\":4123:4132   */\n      dup7\n        /* \"#utility.yul\":4119:4141   */\n      add\n        /* \"#utility.yul\":4098:4151   */\n      tag_211\n      jump\t// in\n    tag_303:\n        /* \"#utility.yul\":4088:4151   */\n      swap3\n      pop\n        /* \"#utility.yul\":4044:4161   */\n      pop\n        /* \"#utility.yul\":4200:4202   */\n      0x20\n        /* \"#utility.yul\":4226:4279   */\n      tag_304\n        /* \"#utility.yul\":4271:4278   */\n      dup6\n        /* \"#utility.yul\":4262:4268   */\n      dup3\n        /* \"#utility.yul\":4251:4260   */\n      dup7\n        /* \"#utility.yul\":4247:4269   */\n      add\n        /* \"#utility.yul\":4226:4279   */\n      tag_200\n      jump\t// in\n    tag_304:\n        /* \"#utility.yul\":4216:4279   */\n      swap2\n      pop\n        /* \"#utility.yul\":4171:4289   */\n      pop\n        /* \"#utility.yul\":3822:4296   */\n      swap3\n      pop\n      swap3\n      swap1\n      pop\n      jump\t// out\n        /* \"#utility.yul\":4302:4420   */\n    tag_212:\n        /* \"#utility.yul\":4389:4413   */\n      tag_306\n        /* \"#utility.yul\":4407:4412   */\n      dup2\n        /* \"#utility.yul\":4389:4413   */\n      tag_198\n      jump\t// in\n    tag_306:\n        /* \"#utility.yul\":4384:4387   */\n      dup3\n        /* \"#utility.yul\":4377:4414   */\n      mstore\n        /* \"#utility.yul\":4302:4420   */\n      pop\n      pop\n      jump\t// out\n        /* \"#utility.yul\":4426:4648   */\n    tag_41:\n        /* \"#utility.yul\":4519:4523   */\n      0x00\n        /* \"#utility.yul\":4557:4559   */\n      0x20\n        /* \"#utility.yul\":4546:4555   */\n      dup3\n        /* \"#utility.yul\":4542:4560   */\n      add\n        /* \"#utility.yul\":4534:4560   */\n      swap1\n      pop\n        /* \"#utility.yul\":4570:4641   */\n      tag_308\n        /* \"#utility.yul\":4638:4639   */\n      0x00\n        /* \"#utility.yul\":4627:4636   */\n      dup4\n        /* \"#utility.yul\":4623:4640   */\n      add\n        /* \"#utility.yul\":4614:4620   */\n      dup5\n        /* \"#utility.yul\":4570:4641   */\n      tag_212\n      jump\t// in\n    tag_308:\n        /* \"#utility.yul\":4426:4648   */\n      swap3\n      swap2\n      pop\n      pop\n      jump\t// out\n        /* \"#utility.yul\":4654:4983   */\n    tag_49:\n        /* \"#utility.yul\":4713:4719   */\n      0x00\n        /* \"#utility.yul\":4762:4764   */\n      0x20\n        /* \"#utility.yul\":4750:4759   */\n      dup3\n        /* \"#utility.yul\":4741:4748   */\n      dup5\n        /* \"#utility.yul\":4737:4760   */\n      sub\n        /* \"#utility.yul\":4733:4765   */\n      slt\n        /* \"#utility.yul\":4730:4849   */\n      iszero\n      tag_310\n      jumpi\n        /* \"#utility.yul\":4768:4847   */\n      tag_311\n      tag_196\n      jump\t// in\n    tag_311:\n        /* \"#utility.yul\":4730:4849   */\n    tag_310:\n        /* \"#utility.yul\":4888:4889   */\n      0x00\n        /* \"#utility.yul\":4913:4966   */\n      tag_312\n        /* \"#utility.yul\":4958:4965   */\n      dup5\n        /* \"#utility.yul\":4949:4955   */\n      dup3\n        /* \"#utility.yul\":4938:4947   */\n      dup6\n        /* \"#utility.yul\":4934:4956   */\n      add\n        /* \"#utility.yul\":4913:4966   */\n      tag_200\n      jump\t// in\n    tag_312:\n        /* \"#utility.yul\":4903:4966   */\n      swap2\n      pop\n        /* \"#utility.yul\":4859:4976   */\n      pop\n        /* \"#utility.yul\":4654:4983   */\n      swap3\n      swap2\n      pop\n      pop\n      jump\t// out\n        /* \"#utility.yul\":4989:5107   */\n    tag_213:\n        /* \"#utility.yul\":5076:5100   */\n      tag_314\n        /* \"#utility.yul\":5094:5099   */\n      dup2\n        /* \"#utility.yul\":5076:5100   */\n      tag_209\n      jump\t// in\n    tag_314:\n        /* \"#utility.yul\":5071:5074   */\n      dup3\n        /* \"#utility.yul\":5064:5101   */\n      mstore\n        /* \"#utility.yul\":4989:5107   */\n      pop\n      pop\n      jump\t// out\n        /* \"#utility.yul\":5113:5293   */\n    tag_65:\n        /* \"#utility.yul\":5161:5238   */\n      0x4e487b7100000000000000000000000000000000000000000000000000000000\n        /* \"#utility.yul\":5158:5159   */\n      0x00\n        /* \"#utility.yul\":5151:5239   */\n      mstore\n        /* \"#utility.yul\":5258:5262   */\n      0x21\n        /* \"#utility.yul\":5255:5256   */\n      0x04\n        /* \"#utility.yul\":5248:5263   */\n      mstore\n        /* \"#utility.yul\":5282:5286   */\n      0x24\n        /* \"#utility.yul\":5279:5280   */\n      0x00\n        /* \"#utility.yul\":5272:5287   */\n      revert\n        /* \"#utility.yul\":5299:5423   */\n    tag_214:\n        /* \"#utility.yul\":5391:5392   */\n      0x04\n        /* \"#utility.yul\":5384:5389   */\n      dup2\n        /* \"#utility.yul\":5381:5393   */\n      lt\n        /* \"#utility.yul\":5371:5417   */\n      tag_317\n      jumpi\n        /* \"#utility.yul\":5397:5415   */\n      tag_318\n      tag_65\n      jump\t// in\n    tag_318:\n        /* \"#utility.yul\":5371:5417   */\n    tag_317:\n        /* \"#utility.yul\":5299:5423   */\n      pop\n      jump\t// out\n        /* \"#utility.yul\":5429:5578   */\n    tag_215:\n        /* \"#utility.yul\":5485:5492   */\n      0x00\n        /* \"#utility.yul\":5514:5519   */\n      dup2\n        /* \"#utility.yul\":5503:5519   */\n      swap1\n      pop\n        /* \"#utility.yul\":5520:5572   */\n      tag_320\n        /* \"#utility.yul\":5566:5571   */\n      dup3\n        /* \"#utility.yul\":5520:5572   */\n      tag_214\n      jump\t// in\n    tag_320:\n        /* \"#utility.yul\":5429:5578   */\n      swap2\n      swap1\n      pop\n      jump\t// out\n        /* \"#utility.yul\":5584:5733   */\n    tag_216:\n        /* \"#utility.yul\":5651:5660   */\n      0x00\n        /* \"#utility.yul\":5684:5727   */\n      tag_322\n        /* \"#utility.yul\":5721:5726   */\n      dup3\n        /* \"#utility.yul\":5684:5727   */\n      tag_215\n      jump\t// in\n    tag_322:\n        /* \"#utility.yul\":5671:5727   */\n      swap1\n      pop\n        /* \"#utility.yul\":5584:5733   */\n      swap2\n      swap1\n      pop\n      jump\t// out\n        /* \"#utility.yul\":5739:5904   */\n    tag_217:\n        /* \"#utility.yul\":5843:5897   */\n      tag_324\n        /* \"#utility.yul\":5891:5896   */\n      dup2\n        /* \"#utility.yul\":5843:5897   */\n      tag_216\n      jump\t// in\n    tag_324:\n        /* \"#utility.yul\":5838:5841   */\n      dup3\n        /* \"#utility.yul\":5831:5898   */\n      mstore\n        /* \"#utility.yul\":5739:5904   */\n      pop\n      pop\n      jump\t// out\n        /* \"#utility.yul\":5910:6830   */\n    tag_52:\n        /* \"#utility.yul\":6188:6192   */\n      0x00\n        /* \"#utility.yul\":6226:6229   */\n      0xe0\n        /* \"#utility.yul\":6215:6224   */\n      dup3\n        /* \"#utility.yul\":6211:6230   */\n      add\n        /* \"#utility.yul\":6203:6230   */\n      swap1\n      pop\n        /* \"#utility.yul\":6240:6311   */\n      tag_326\n        /* \"#utility.yul\":6308:6309   */\n      0x00\n        /* \"#utility.yul\":6297:6306   */\n      dup4\n        /* \"#utility.yul\":6293:6310   */\n      add\n        /* \"#utility.yul\":6284:6290   */\n      dup11\n        /* \"#utility.yul\":6240:6311   */\n      tag_212\n      jump\t// in\n    tag_326:\n        /* \"#utility.yul\":6321:6393   */\n      tag_327\n        /* \"#utility.yul\":6389:6391   */\n      0x20\n        /* \"#utility.yul\":6378:6387   */\n      dup4\n        /* \"#utility.yul\":6374:6392   */\n      add\n        /* \"#utility.yul\":6365:6371   */\n      dup10\n        /* \"#utility.yul\":6321:6393   */\n      tag_213\n      jump\t// in\n    tag_327:\n        /* \"#utility.yul\":6403:6475   */\n      tag_328\n        /* \"#utility.yul\":6471:6473   */\n      0x40\n        /* \"#utility.yul\":6460:6469   */\n      dup4\n        /* \"#utility.yul\":6456:6474   */\n      add\n        /* \"#utility.yul\":6447:6453   */\n      dup9\n        /* \"#utility.yul\":6403:6475   */\n      tag_212\n      jump\t// in\n    tag_328:\n        /* \"#utility.yul\":6485:6557   */\n      tag_329\n        /* \"#utility.yul\":6553:6555   */\n      0x60\n        /* \"#utility.yul\":6542:6551   */\n      dup4\n        /* \"#utility.yul\":6538:6556   */\n      add\n        /* \"#utility.yul\":6529:6535   */\n      dup8\n        /* \"#utility.yul\":6485:6557   */\n      tag_213\n      jump\t// in\n    tag_329:\n        /* \"#utility.yul\":6567:6657   */\n      tag_330\n        /* \"#utility.yul\":6652:6655   */\n      0x80\n        /* \"#utility.yul\":6641:6650   */\n      dup4\n        /* \"#utility.yul\":6637:6656   */\n      add\n        /* \"#utility.yul\":6628:6634   */\n      dup7\n        /* \"#utility.yul\":6567:6657   */\n      tag_217\n      jump\t// in\n    tag_330:\n        /* \"#utility.yul\":6667:6740   */\n      tag_331\n        /* \"#utility.yul\":6735:6738   */\n      0xa0\n        /* \"#utility.yul\":6724:6733   */\n      dup4\n        /* \"#utility.yul\":6720:6739   */\n      add\n        /* \"#utility.yul\":6711:6717   */\n      dup6\n        /* \"#utility.yul\":6667:6740   */\n      tag_212\n      jump\t// in\n    tag_331:\n        /* \"#utility.yul\":6750:6823   */\n      tag_332\n        /* \"#utility.yul\":6818:6821   */\n      0xc0\n        /* \"#utility.yul\":6807:6816   */\n      dup4\n        /* \"#utility.yul\":6803:6822   */\n      add\n        /* \"#utility.yul\":6794:6800   */\n      dup5\n        /* \"#utility.yul\":6750:6823   */\n      tag_212\n      jump\t// in\n    tag_332:\n        /* \"#utility.yul\":5910:6830   */\n      swap9\n      swap8\n      pop\n      pop\n      pop\n      pop\n      pop\n      pop\n      pop\n      pop\n      jump\t// out\n        /* \"#utility.yul\":6836:7534   */\n    tag_58:\n        /* \"#utility.yul\":7058:7062   */\n      0x00\n        /* \"#utility.yul\":7096:7099   */\n      0xa0\n        /* \"#utility.yul\":7085:7094   */\n      dup3\n        /* \"#utility.yul\":7081:7100   */\n      add\n        /* \"#utility.yul\":7073:7100   */\n      swap1\n      pop\n        /* \"#utility.yul\":7110:7181   */\n      tag_334\n        /* \"#utility.yul\":7178:7179   */\n      0x00\n        /* \"#utility.yul\":7167:7176   */\n      dup4\n        /* \"#utility.yul\":7163:7180   */\n      add\n        /* \"#utility.yul\":7154:7160   */\n      dup9\n        /* \"#utility.yul\":7110:7181   */\n      tag_213\n      jump\t// in\n    tag_334:\n        /* \"#utility.yul\":7191:7263   */\n      tag_335\n        /* \"#utility.yul\":7259:7261   */\n      0x20\n        /* \"#utility.yul\":7248:7257   */\n      dup4\n        /* \"#utility.yul\":7244:7262   */\n      add\n        /* \"#utility.yul\":7235:7241   */\n      dup8\n        /* \"#utility.yul\":7191:7263   */\n      tag_212\n      jump\t// in\n    tag_335:\n        /* \"#utility.yul\":7273:7345   */\n      tag_336\n        /* \"#utility.yul\":7341:7343   */\n      0x40\n        /* \"#utility.yul\":7330:7339   */\n      dup4\n        /* \"#utility.yul\":7326:7344   */\n      add\n        /* \"#utility.yul\":7317:7323   */\n      dup7\n        /* \"#utility.yul\":7273:7345   */\n      tag_213\n      jump\t// in\n    tag_336:\n        /* \"#utility.yul\":7355:7444   */\n      tag_337\n        /* \"#utility.yul\":7440:7442   */\n      0x60\n        /* \"#utility.yul\":7429:7438   */\n      dup4\n        /* \"#utility.yul\":7425:7443   */\n      add\n        /* \"#utility.yul\":7416:7422   */\n      dup6\n        /* \"#utility.yul\":7355:7444   */\n      tag_217\n      jump\t// in\n    tag_337:\n        /* \"#utility.yul\":7454:7527   */\n      tag_338\n        /* \"#utility.yul\":7522:7525   */\n      0x80\n        /* \"#utility.yul\":7511:7520   */\n      dup4\n        /* \"#utility.yul\":7507:7526   */\n      add\n        /* \"#utility.yul\":7498:7504   */\n      dup5\n        /* \"#utility.yul\":7454:7527   */\n      tag_212\n      jump\t// in\n    tag_338:\n        /* \"#utility.yul\":6836:7534   */\n      swap7\n      swap6\n      pop\n      pop\n      pop\n      pop\n      pop\n      pop\n      jump\t// out\n        /* \"#utility.yul\":7540:7709   */\n    tag_218:\n        /* \"#utility.yul\":7624:7635   */\n      0x00\n        /* \"#utility.yul\":7658:7664   */\n      dup3\n        /* \"#utility.yul\":7653:7656   */\n      dup3\n        /* \"#utility.yul\":7646:7665   */\n      mstore\n        /* \"#utility.yul\":7698:7702   */\n      0x20\n        /* \"#utility.yul\":7693:7696   */\n      dup3\n        /* \"#utility.yul\":7689:7703   */\n      add\n        /* \"#utility.yul\":7674:7703   */\n      swap1\n      pop\n        /* \"#utility.yul\":7540:7709   */\n      swap3\n      swap2\n      pop\n      pop\n      jump\t// out\n        /* \"#utility.yul\":7715:7878   */\n    tag_219:\n        /* \"#utility.yul\":7855:7870   */\n      0x4e6f7420617661696c61626c6500000000000000000000000000000000000000\n        /* \"#utility.yul\":7851:7852   */\n      0x00\n        /* \"#utility.yul\":7843:7849   */\n      dup3\n        /* \"#utility.yul\":7839:7853   */\n      add\n        /* \"#utility.yul\":7832:7871   */\n      mstore\n        /* \"#utility.yul\":7715:7878   */\n      pop\n      jump\t// out\n        /* \"#utility.yul\":7884:8250   */\n    tag_220:\n        /* \"#utility.yul\":8026:8029   */\n      0x00\n        /* \"#utility.yul\":8047:8114   */\n      tag_342\n        /* \"#utility.yul\":8111:8113   */\n      0x0d\n        /* \"#utility.yul\":8106:8109   */\n      dup4\n        /* \"#utility.yul\":8047:8114   */\n      tag_218\n      jump\t// in\n    tag_342:\n        /* \"#utility.yul\":8040:8114   */\n      swap2\n      pop\n        /* \"#utility.yul\":8123:8216   */\n      tag_343\n        /* \"#utility.yul\":8212:8215   */\n      dup3\n        /* \"#utility.yul\":8123:8216   */\n      tag_219\n      jump\t// in\n    tag_343:\n        /* \"#utility.yul\":8241:8243   */\n      0x20\n        /* \"#utility.yul\":8236:8239   */\n      dup3\n        /* \"#utility.yul\":8232:8244   */\n      add\n        /* \"#utility.yul\":8225:8244   */\n      swap1\n      pop\n        /* \"#utility.yul\":7884:8250   */\n      swap2\n      swap1\n      pop\n      jump\t// out\n        /* \"#utility.yul\":8256:8675   */\n    tag_70:\n        /* \"#utility.yul\":8422:8426   */\n      0x00\n        /* \"#utility.yul\":8460:8462   */\n      0x20\n        /* \"#utility.yul\":8449:8458   */\n      dup3\n        /* \"#utility.yul\":8445:8463   */\n      add\n        /* \"#utility.yul\":8437:8463   */\n      swap1\n      pop\n        /* \"#utility.yul\":8509:8518   */\n      dup2\n        /* \"#utility.yul\":8503:8507   */\n      dup2\n        /* \"#utility.yul\":8499:8519   */\n      sub\n        /* \"#utility.yul\":8495:8496   */\n      0x00\n        /* \"#utility.yul\":8484:8493   */\n      dup4\n        /* \"#utility.yul\":8480:8497   */\n      add\n        /* \"#utility.yul\":8473:8520   */\n      mstore\n        /* \"#utility.yul\":8537:8668   */\n      tag_345\n        /* \"#utility.yul\":8663:8667   */\n      dup2\n        /* \"#utility.yul\":8537:8668   */\n      tag_220\n      jump\t// in\n    tag_345:\n        /* \"#utility.yul\":8529:8668   */\n      swap1\n      pop\n        /* \"#utility.yul\":8256:8675   */\n      swap2\n      swap1\n      pop\n      jump\t// out\n        /* \"#utility.yul\":8681:8903   */\n    tag_72:\n        /* \"#utility.yul\":8774:8778   */\n      0x00\n        /* \"#utility.yul\":8812:8814   */\n      0x20\n        /* \"#utility.yul\":8801:8810   */\n      dup3\n        /* \"#utility.yul\":8797:8815   */\n      add\n        /* \"#utility.yul\":8789:8815   */\n      swap1\n      pop\n        /* \"#utility.yul\":8825:8896   */\n      tag_347\n        /* \"#utility.yul\":8893:8894   */\n      0x00\n        /* \"#utility.yul\":8882:8891   */\n      dup4\n        /* \"#utility.yul\":8878:8895   */\n      add\n        /* \"#utility.yul\":8869:8875   */\n      dup5\n        /* \"#utility.yul\":8825:8896   */\n      tag_213\n      jump\t// in\n    tag_347:\n        /* \"#utility.yul\":8681:8903   */\n      swap3\n      swap2\n      pop\n      pop\n      jump\t// out\n        /* \"#utility.yul\":8909:8999   */\n    tag_221:\n        /* \"#utility.yul\":8943:8950   */\n      0x00\n        /* \"#utility.yul\":8986:8991   */\n      dup2\n        /* \"#utility.yul\":8979:8992   */\n      iszero\n        /* \"#utility.yul\":8972:8993   */\n      iszero\n        /* \"#utility.yul\":8961:8993   */\n      swap1\n      pop\n        /* \"#utility.yul\":8909:8999   */\n      swap2\n      swap1\n      pop\n      jump\t// out\n        /* \"#utility.yul\":9005:9121   */\n    tag_222:\n        /* \"#utility.yul\":9075:9096   */\n      tag_350\n        /* \"#utility.yul\":9090:9095   */\n      dup2\n        /* \"#utility.yul\":9075:9096   */\n      tag_221\n      jump\t// in\n    tag_350:\n        /* \"#utility.yul\":9068:9073   */\n      dup2\n        /* \"#utility.yul\":9065:9097   */\n      eq\n        /* \"#utility.yul\":9055:9115   */\n      tag_351\n      jumpi\n        /* \"#utility.yul\":9111:9112   */\n      0x00\n        /* \"#utility.yul\":9108:9109   */\n      dup1\n        /* \"#utility.yul\":9101:9113   */\n      revert\n        /* \"#utility.yul\":9055:9115   */\n    tag_351:\n        /* \"#utility.yul\":9005:9121   */\n      pop\n      jump\t// out\n        /* \"#utility.yul\":9127:9264   */\n    tag_223:\n        /* \"#utility.yul\":9181:9186   */\n      0x00\n        /* \"#utility.yul\":9212:9218   */\n      dup2\n        /* \"#utility.yul\":9206:9219   */\n      mload\n        /* \"#utility.yul\":9197:9219   */\n      swap1\n      pop\n        /* \"#utility.yul\":9228:9258   */\n      tag_353\n        /* \"#utility.yul\":9252:9257   */\n      dup2\n        /* \"#utility.yul\":9228:9258   */\n      tag_222\n      jump\t// in\n    tag_353:\n        /* \"#utility.yul\":9127:9264   */\n      swap3\n      swap2\n      pop\n      pop\n      jump\t// out\n        /* \"#utility.yul\":9270:9615   */\n    tag_76:\n        /* \"#utility.yul\":9337:9343   */\n      0x00\n        /* \"#utility.yul\":9386:9388   */\n      0x20\n        /* \"#utility.yul\":9374:9383   */\n      dup3\n        /* \"#utility.yul\":9365:9372   */\n      dup5\n        /* \"#utility.yul\":9361:9384   */\n      sub\n        /* \"#utility.yul\":9357:9389   */\n      slt\n        /* \"#utility.yul\":9354:9473   */\n      iszero\n      tag_355\n      jumpi\n        /* \"#utility.yul\":9392:9471   */\n      tag_356\n      tag_196\n      jump\t// in\n    tag_356:\n        /* \"#utility.yul\":9354:9473   */\n    tag_355:\n        /* \"#utility.yul\":9512:9513   */\n      0x00\n        /* \"#utility.yul\":9537:9598   */\n      tag_357\n        /* \"#utility.yul\":9590:9597   */\n      dup5\n        /* \"#utility.yul\":9581:9587   */\n      dup3\n        /* \"#utility.yul\":9570:9579   */\n      dup6\n        /* \"#utility.yul\":9566:9588   */\n      add\n        /* \"#utility.yul\":9537:9598   */\n      tag_223\n      jump\t// in\n    tag_357:\n        /* \"#utility.yul\":9527:9598   */\n      swap2\n      pop\n        /* \"#utility.yul\":9483:9608   */\n      pop\n        /* \"#utility.yul\":9270:9615   */\n      swap3\n      swap2\n      pop\n      pop\n      jump\t// out\n        /* \"#utility.yul\":9621:9783   */\n    tag_224:\n        /* \"#utility.yul\":9761:9775   */\n      0x4b59432072657175697265640000000000000000000000000000000000000000\n        /* \"#utility.yul\":9757:9758   */\n      0x00\n        /* \"#utility.yul\":9749:9755   */\n      dup3\n        /* \"#utility.yul\":9745:9759   */\n      add\n        /* \"#utility.yul\":9738:9776   */\n      mstore\n        /* \"#utility.yul\":9621:9783   */\n      pop\n      jump\t// out\n        /* \"#utility.yul\":9789:10155   */\n    tag_225:\n        /* \"#utility.yul\":9931:9934   */\n      0x00\n        /* \"#utility.yul\":9952:10019   */\n      tag_360\n        /* \"#utility.yul\":10016:10018   */\n      0x0c\n        /* \"#utility.yul\":10011:10014   */\n      dup4\n        /* \"#utility.yul\":9952:10019   */\n      tag_218\n      jump\t// in\n    tag_360:\n        /* \"#utility.yul\":9945:10019   */\n      swap2\n      pop\n        /* \"#utility.yul\":10028:10121   */\n      tag_361\n        /* \"#utility.yul\":10117:10120   */\n      dup3\n        /* \"#utility.yul\":10028:10121   */\n      tag_224\n      jump\t// in\n    tag_361:\n        /* \"#utility.yul\":10146:10148   */\n      0x20\n        /* \"#utility.yul\":10141:10144   */\n      dup3\n        /* \"#utility.yul\":10137:10149   */\n      add\n        /* \"#utility.yul\":10130:10149   */\n      swap1\n      pop\n        /* \"#utility.yul\":9789:10155   */\n      swap2\n      swap1\n      pop\n      jump\t// out\n        /* \"#utility.yul\":10161:10580   */\n    tag_79:\n        /* \"#utility.yul\":10327:10331   */\n      0x00\n        /* \"#utility.yul\":10365:10367   */\n      0x20\n        /* \"#utility.yul\":10354:10363   */\n      dup3\n        /* \"#utility.yul\":10350:10368   */\n      add\n        /* \"#utility.yul\":10342:10368   */\n      swap1\n      pop\n        /* \"#utility.yul\":10414:10423   */\n      dup2\n        /* \"#utility.yul\":10408:10412   */\n      dup2\n        /* \"#utility.yul\":10404:10424   */\n      sub\n        /* \"#utility.yul\":10400:10401   */\n      0x00\n        /* \"#utility.yul\":10389:10398   */\n      dup4\n        /* \"#utility.yul\":10385:10402   */\n      add\n        /* \"#utility.yul\":10378:10425   */\n      mstore\n        /* \"#utility.yul\":10442:10573   */\n      tag_363\n        /* \"#utility.yul\":10568:10572   */\n      dup2\n        /* \"#utility.yul\":10442:10573   */\n      tag_225\n      jump\t// in\n    tag_363:\n        /* \"#utility.yul\":10434:10573   */\n      swap1\n      pop\n        /* \"#utility.yul\":10161:10580   */\n      swap2\n      swap1\n      pop\n      jump\t// out\n        /* \"#utility.yul\":10586:10750   */\n    tag_226:\n        /* \"#utility.yul\":10726:10742   */\n      0x5061796d656e74206661696c6564000000000000000000000000000000000000\n        /* \"#utility.yul\":10722:10723   */\n      0x00\n        /* \"#utility.yul\":10714:10720   */\n      dup3\n        /* \"#utility.yul\":10710:10724   */\n      add\n        /* \"#utility.yul\":10703:10743   */\n      mstore\n        /* \"#utility.yul\":10586:10750   */\n      pop\n      jump\t// out\n        /* \"#utility.yul\":10756:11122   */\n    tag_227:\n        /* \"#utility.yul\":10898:10901   */\n      0x00\n        /* \"#utility.yul\":10919:10986   */\n      tag_366\n        /* \"#utility.yul\":10983:10985   */\n      0x0e\n        /* \"#utility.yul\":10978:10981   */\n      dup4\n        /* \"#utility.yul\":10919:10986   */\n      tag_218\n      jump\t// in\n    tag_366:\n        /* \"#utility.yul\":10912:10986   */\n      swap2\n      pop\n        /* \"#utility.yul\":10995:11088   */\n      tag_367\n        /* \"#utility.yul\":11084:11087   */\n      dup3\n        /* \"#utility.yul\":10995:11088   */\n      tag_226\n      jump\t// in\n    tag_367:\n        /* \"#utility.yul\":11113:11115   */\n      0x20\n        /* \"#utility.yul\":11108:11111   */\n      dup3\n        /* \"#utility.yul\":11104:11116   */\n      add\n        /* \"#utility.yul\":11097:11116   */\n      swap1\n      pop\n        /* \"#utility.yul\":10756:11122   */\n      swap2\n      swap1\n      pop\n      jump\t// out\n        /* \"#utility.yul\":11128:11547   */\n    tag_84:\n        /* \"#utility.yul\":11294:11298   */\n      0x00\n        /* \"#utility.yul\":11332:11334   */\n      0x20\n        /* \"#utility.yul\":11321:11330   */\n      dup3\n        /* \"#utility.yul\":11317:11335   */\n      add\n        /* \"#utility.yul\":11309:11335   */\n      swap1\n      pop\n        /* \"#utility.yul\":11381:11390   */\n      dup2\n        /* \"#utility.yul\":11375:11379   */\n      dup2\n        /* \"#utility.yul\":11371:11391   */\n      sub\n        /* \"#utility.yul\":11367:11368   */\n      0x00\n        /* \"#utility.yul\":11356:11365   */\n      dup4\n        /* \"#utility.yul\":11352:11369   */\n      add\n        /* \"#utility.yul\":11345:11392   */\n      mstore\n        /* \"#utility.yul\":11409:11540   */\n      tag_369\n        /* \"#utility.yul\":11535:11539   */\n      dup2\n        /* \"#utility.yul\":11409:11540   */\n      tag_227\n      jump\t// in\n    tag_369:\n        /* \"#utility.yul\":11401:11540   */\n      swap1\n      pop\n        /* \"#utility.yul\":11128:11547   */\n      swap2\n      swap1\n      pop\n      jump\t// out\n        /* \"#utility.yul\":11553:11995   */\n    tag_88:\n        /* \"#utility.yul\":11702:11706   */\n      0x00\n        /* \"#utility.yul\":11740:11742   */\n      0x60\n        /* \"#utility.yul\":11729:11738   */\n      dup3\n        /* \"#utility.yul\":11725:11743   */\n      add\n        /* \"#utility.yul\":11717:11743   */\n      swap1\n      pop\n        /* \"#utility.yul\":11753:11824   */\n      tag_371\n        /* \"#utility.yul\":11821:11822   */\n      0x00\n        /* \"#utility.yul\":11810:11819   */\n      dup4\n        /* \"#utility.yul\":11806:11823   */\n      add\n        /* \"#utility.yul\":11797:11803   */\n      dup7\n        /* \"#utility.yul\":11753:11824   */\n      tag_213\n      jump\t// in\n    tag_371:\n        /* \"#utility.yul\":11834:11906   */\n      tag_372\n        /* \"#utility.yul\":11902:11904   */\n      0x20\n        /* \"#utility.yul\":11891:11900   */\n      dup4\n        /* \"#utility.yul\":11887:11905   */\n      add\n        /* \"#utility.yul\":11878:11884   */\n      dup6\n        /* \"#utility.yul\":11834:11906   */\n      tag_213\n      jump\t// in\n    tag_372:\n        /* \"#utility.yul\":11916:11988   */\n      tag_373\n        /* \"#utility.yul\":11984:11986   */\n      0x40\n        /* \"#utility.yul\":11973:11982   */\n      dup4\n        /* \"#utility.yul\":11969:11987   */\n      add\n        /* \"#utility.yul\":11960:11966   */\n      dup5\n        /* \"#utility.yul\":11916:11988   */\n      tag_212\n      jump\t// in\n    tag_373:\n        /* \"#utility.yul\":11553:11995   */\n      swap5\n      swap4\n      pop\n      pop\n      pop\n      pop\n      jump\t// out\n        /* \"#utility.yul\":12001:12443   */\n    tag_95:\n        /* \"#utility.yul\":12150:12154   */\n      0x00\n        /* \"#utility.yul\":12188:12190   */\n      0x60\n        /* \"#utility.yul\":12177:12186   */\n      dup3\n        /* \"#utility.yul\":12173:12191   */\n      add\n        /* \"#utility.yul\":12165:12191   */\n      swap1\n      pop\n        /* \"#utility.yul\":12201:12272   */\n      tag_375\n        /* \"#utility.yul\":12269:12270   */\n      0x00\n        /* \"#utility.yul\":12258:12267   */\n      dup4\n        /* \"#utility.yul\":12254:12271   */\n      add\n        /* \"#utility.yul\":12245:12251   */\n      dup7\n        /* \"#utility.yul\":12201:12272   */\n      tag_213\n      jump\t// in\n    tag_375:\n        /* \"#utility.yul\":12282:12354   */\n      tag_376\n        /* \"#utility.yul\":12350:12352   */\n      0x20\n        /* \"#utility.yul\":12339:12348   */\n      dup4\n        /* \"#utility.yul\":12335:12353   */\n      add\n        /* \"#utility.yul\":12326:12332   */\n      dup6\n        /* \"#utility.yul\":12282:12354   */\n      tag_212\n      jump\t// in\n    tag_376:\n        /* \"#utility.yul\":12364:12436   */\n      tag_377\n        /* \"#utility.yul\":12432:12434   */\n      0x40\n        /* \"#utility.yul\":12421:12430   */\n      dup4\n        /* \"#utility.yul\":12417:12435   */\n      add\n        /* \"#utility.yul\":12408:12414   */\n      dup5\n        /* \"#utility.yul\":12364:12436   */\n      tag_213\n      jump\t// in\n    tag_377:\n        /* \"#utility.yul\":12001:12443   */\n      swap5\n      swap4\n      pop\n      pop\n      pop\n      pop\n      jump\t// out\n        /* \"#utility.yul\":12449:12592   */\n    tag_228:\n        /* \"#utility.yul\":12506:12511   */\n      0x00\n        /* \"#utility.yul\":12537:12543   */\n      dup2\n        /* \"#utility.yul\":12531:12544   */\n      mload\n        /* \"#utility.yul\":12522:12544   */\n      swap1\n      pop\n        /* \"#utility.yul\":12553:12586   */\n      tag_379\n        /* \"#utility.yul\":12580:12585   */\n      dup2\n        /* \"#utility.yul\":12553:12586   */\n      tag_210\n      jump\t// in\n    tag_379:\n        /* \"#utility.yul\":12449:12592   */\n      swap3\n      swap2\n      pop\n      pop\n      jump\t// out\n        /* \"#utility.yul\":12598:12949   */\n    tag_105:\n        /* \"#utility.yul\":12668:12674   */\n      0x00\n        /* \"#utility.yul\":12717:12719   */\n      0x20\n        /* \"#utility.yul\":12705:12714   */\n      dup3\n        /* \"#utility.yul\":12696:12703   */\n      dup5\n        /* \"#utility.yul\":12692:12715   */\n      sub\n        /* \"#utility.yul\":12688:12720   */\n      slt\n        /* \"#utility.yul\":12685:12804   */\n      iszero\n      tag_381\n      jumpi\n        /* \"#utility.yul\":12723:12802   */\n      tag_382\n      tag_196\n      jump\t// in\n    tag_382:\n        /* \"#utility.yul\":12685:12804   */\n    tag_381:\n        /* \"#utility.yul\":12843:12844   */\n      0x00\n        /* \"#utility.yul\":12868:12932   */\n      tag_383\n        /* \"#utility.yul\":12924:12931   */\n      dup5\n        /* \"#utility.yul\":12915:12921   */\n      dup3\n        /* \"#utility.yul\":12904:12913   */\n      dup6\n        /* \"#utility.yul\":12900:12922   */\n      add\n        /* \"#utility.yul\":12868:12932   */\n      tag_228\n      jump\t// in\n    tag_383:\n        /* \"#utility.yul\":12858:12932   */\n      swap2\n      pop\n        /* \"#utility.yul\":12814:12942   */\n      pop\n        /* \"#utility.yul\":12598:12949   */\n      swap3\n      swap2\n      pop\n      pop\n      jump\t// out\n        /* \"#utility.yul\":12955:13119   */\n    tag_229:\n        /* \"#utility.yul\":13095:13111   */\n      0x4e6f74204e465469206f776e6572000000000000000000000000000000000000\n        /* \"#utility.yul\":13091:13092   */\n      0x00\n        /* \"#utility.yul\":13083:13089   */\n      dup3\n        /* \"#utility.yul\":13079:13093   */\n      add\n        /* \"#utility.yul\":13072:13112   */\n      mstore\n        /* \"#utility.yul\":12955:13119   */\n      pop\n      jump\t// out\n        /* \"#utility.yul\":13125:13491   */\n    tag_230:\n        /* \"#utility.yul\":13267:13270   */\n      0x00\n        /* \"#utility.yul\":13288:13355   */\n      tag_386\n        /* \"#utility.yul\":13352:13354   */\n      0x0e\n        /* \"#utility.yul\":13347:13350   */\n      dup4\n        /* \"#utility.yul\":13288:13355   */\n      tag_218\n      jump\t// in\n    tag_386:\n        /* \"#utility.yul\":13281:13355   */\n      swap2\n      pop\n        /* \"#utility.yul\":13364:13457   */\n      tag_387\n        /* \"#utility.yul\":13453:13456   */\n      dup3\n        /* \"#utility.yul\":13364:13457   */\n      tag_229\n      jump\t// in\n    tag_387:\n        /* \"#utility.yul\":13482:13484   */\n      0x20\n        /* \"#utility.yul\":13477:13480   */\n      dup3\n        /* \"#utility.yul\":13473:13485   */\n      add\n        /* \"#utility.yul\":13466:13485   */\n      swap1\n      pop\n        /* \"#utility.yul\":13125:13491   */\n      swap2\n      swap1\n      pop\n      jump\t// out\n        /* \"#utility.yul\":13497:13916   */\n    tag_108:\n        /* \"#utility.yul\":13663:13667   */\n      0x00\n        /* \"#utility.yul\":13701:13703   */\n      0x20\n        /* \"#utility.yul\":13690:13699   */\n      dup3\n        /* \"#utility.yul\":13686:13704   */\n      add\n        /* \"#utility.yul\":13678:13704   */\n      swap1\n      pop\n        /* \"#utility.yul\":13750:13759   */\n      dup2\n        /* \"#utility.yul\":13744:13748   */\n      dup2\n        /* \"#utility.yul\":13740:13760   */\n      sub\n        /* \"#utility.yul\":13736:13737   */\n      0x00\n        /* \"#utility.yul\":13725:13734   */\n      dup4\n        /* \"#utility.yul\":13721:13738   */\n      add\n        /* \"#utility.yul\":13714:13761   */\n      mstore\n        /* \"#utility.yul\":13778:13909   */\n      tag_389\n        /* \"#utility.yul\":13904:13908   */\n      dup2\n        /* \"#utility.yul\":13778:13909   */\n      tag_230\n      jump\t// in\n    tag_389:\n        /* \"#utility.yul\":13770:13909   */\n      swap1\n      pop\n        /* \"#utility.yul\":13497:13916   */\n      swap2\n      swap1\n      pop\n      jump\t// out\n        /* \"#utility.yul\":13922:14085   */\n    tag_231:\n        /* \"#utility.yul\":14062:14077   */\n      0x496e76616c696420707269636500000000000000000000000000000000000000\n        /* \"#utility.yul\":14058:14059   */\n      0x00\n        /* \"#utility.yul\":14050:14056   */\n      dup3\n        /* \"#utility.yul\":14046:14060   */\n      add\n        /* \"#utility.yul\":14039:14078   */\n      mstore\n        /* \"#utility.yul\":13922:14085   */\n      pop\n      jump\t// out\n        /* \"#utility.yul\":14091:14457   */\n    tag_232:\n        /* \"#utility.yul\":14233:14236   */\n      0x00\n        /* \"#utility.yul\":14254:14321   */\n      tag_392\n        /* \"#utility.yul\":14318:14320   */\n      0x0d\n        /* \"#utility.yul\":14313:14316   */\n      dup4\n        /* \"#utility.yul\":14254:14321   */\n      tag_218\n      jump\t// in\n    tag_392:\n        /* \"#utility.yul\":14247:14321   */\n      swap2\n      pop\n        /* \"#utility.yul\":14330:14423   */\n      tag_393\n        /* \"#utility.yul\":14419:14422   */\n      dup3\n        /* \"#utility.yul\":14330:14423   */\n      tag_231\n      jump\t// in\n    tag_393:\n        /* \"#utility.yul\":14448:14450   */\n      0x20\n        /* \"#utility.yul\":14443:14446   */\n      dup3\n        /* \"#utility.yul\":14439:14451   */\n      add\n        /* \"#utility.yul\":14432:14451   */\n      swap1\n      pop\n        /* \"#utility.yul\":14091:14457   */\n      swap2\n      swap1\n      pop\n      jump\t// out\n        /* \"#utility.yul\":14463:14882   */\n    tag_117:\n        /* \"#utility.yul\":14629:14633   */\n      0x00\n        /* \"#utility.yul\":14667:14669   */\n      0x20\n        /* \"#utility.yul\":14656:14665   */\n      dup3\n        /* \"#utility.yul\":14652:14670   */\n      add\n        /* \"#utility.yul\":14644:14670   */\n      swap1\n      pop\n        /* \"#utility.yul\":14716:14725   */\n      dup2\n        /* \"#utility.yul\":14710:14714   */\n      dup2\n        /* \"#utility.yul\":14706:14726   */\n      sub\n        /* \"#utility.yul\":14702:14703   */\n      0x00\n        /* \"#utility.yul\":14691:14700   */\n      dup4\n        /* \"#utility.yul\":14687:14704   */\n      add\n        /* \"#utility.yul\":14680:14727   */\n      mstore\n        /* \"#utility.yul\":14744:14875   */\n      tag_395\n        /* \"#utility.yul\":14870:14874   */\n      dup2\n        /* \"#utility.yul\":14744:14875   */\n      tag_232\n      jump\t// in\n    tag_395:\n        /* \"#utility.yul\":14736:14875   */\n      swap1\n      pop\n        /* \"#utility.yul\":14463:14882   */\n      swap2\n      swap1\n      pop\n      jump\t// out\n        /* \"#utility.yul\":14888:15220   */\n    tag_123:\n        /* \"#utility.yul\":15009:15013   */\n      0x00\n        /* \"#utility.yul\":15047:15049   */\n      0x40\n        /* \"#utility.yul\":15036:15045   */\n      dup3\n        /* \"#utility.yul\":15032:15050   */\n      add\n        /* \"#utility.yul\":15024:15050   */\n      swap1\n      pop\n        /* \"#utility.yul\":15060:15131   */\n      tag_397\n        /* \"#utility.yul\":15128:15129   */\n      0x00\n        /* \"#utility.yul\":15117:15126   */\n      dup4\n        /* \"#utility.yul\":15113:15130   */\n      add\n        /* \"#utility.yul\":15104:15110   */\n      dup6\n        /* \"#utility.yul\":15060:15131   */\n      tag_212\n      jump\t// in\n    tag_397:\n        /* \"#utility.yul\":15141:15213   */\n      tag_398\n        /* \"#utility.yul\":15209:15211   */\n      0x20\n        /* \"#utility.yul\":15198:15207   */\n      dup4\n        /* \"#utility.yul\":15194:15212   */\n      add\n        /* \"#utility.yul\":15185:15191   */\n      dup5\n        /* \"#utility.yul\":15141:15213   */\n      tag_213\n      jump\t// in\n    tag_398:\n        /* \"#utility.yul\":14888:15220   */\n      swap4\n      swap3\n      pop\n      pop\n      pop\n      jump\t// out\n        /* \"#utility.yul\":15226:15303   */\n    tag_233:\n        /* \"#utility.yul\":15263:15270   */\n      0x00\n        /* \"#utility.yul\":15292:15297   */\n      dup2\n        /* \"#utility.yul\":15281:15297   */\n      swap1\n      pop\n        /* \"#utility.yul\":15226:15303   */\n      swap2\n      swap1\n      pop\n      jump\t// out\n        /* \"#utility.yul\":15309:15431   */\n    tag_234:\n        /* \"#utility.yul\":15382:15406   */\n      tag_401\n        /* \"#utility.yul\":15400:15405   */\n      dup2\n        /* \"#utility.yul\":15382:15406   */\n      tag_233\n      jump\t// in\n    tag_401:\n        /* \"#utility.yul\":15375:15380   */\n      dup2\n        /* \"#utility.yul\":15372:15407   */\n      eq\n        /* \"#utility.yul\":15362:15425   */\n      tag_402\n      jumpi\n        /* \"#utility.yul\":15421:15422   */\n      0x00\n        /* \"#utility.yul\":15418:15419   */\n      dup1\n        /* \"#utility.yul\":15411:15423   */\n      revert\n        /* \"#utility.yul\":15362:15425   */\n    tag_402:\n        /* \"#utility.yul\":15309:15431   */\n      pop\n      jump\t// out\n        /* \"#utility.yul\":15437:15580   */\n    tag_235:\n        /* \"#utility.yul\":15494:15499   */\n      0x00\n        /* \"#utility.yul\":15525:15531   */\n      dup2\n        /* \"#utility.yul\":15519:15532   */\n      mload\n        /* \"#utility.yul\":15510:15532   */\n      swap1\n      pop\n        /* \"#utility.yul\":15541:15574   */\n      tag_404\n        /* \"#utility.yul\":15568:15573   */\n      dup2\n        /* \"#utility.yul\":15541:15574   */\n      tag_234\n      jump\t// in\n    tag_404:\n        /* \"#utility.yul\":15437:15580   */\n      swap3\n      swap2\n      pop\n      pop\n      jump\t// out\n        /* \"#utility.yul\":15586:15937   */\n    tag_129:\n        /* \"#utility.yul\":15656:15662   */\n      0x00\n        /* \"#utility.yul\":15705:15707   */\n      0x20\n        /* \"#utility.yul\":15693:15702   */\n      dup3\n        /* \"#utility.yul\":15684:15691   */\n      dup5\n        /* \"#utility.yul\":15680:15703   */\n      sub\n        /* \"#utility.yul\":15676:15708   */\n      slt\n        /* \"#utility.yul\":15673:15792   */\n      iszero\n      tag_406\n      jumpi\n        /* \"#utility.yul\":15711:15790   */\n      tag_407\n      tag_196\n      jump\t// in\n    tag_407:\n        /* \"#utility.yul\":15673:15792   */\n    tag_406:\n        /* \"#utility.yul\":15831:15832   */\n      0x00\n        /* \"#utility.yul\":15856:15920   */\n      tag_408\n        /* \"#utility.yul\":15912:15919   */\n      dup5\n        /* \"#utility.yul\":15903:15909   */\n      dup3\n        /* \"#utility.yul\":15892:15901   */\n      dup6\n        /* \"#utility.yul\":15888:15910   */\n      add\n        /* \"#utility.yul\":15856:15920   */\n      tag_235\n      jump\t// in\n    tag_408:\n        /* \"#utility.yul\":15846:15920   */\n      swap2\n      pop\n        /* \"#utility.yul\":15802:15930   */\n      pop\n        /* \"#utility.yul\":15586:15937   */\n      swap3\n      swap2\n      pop\n      pop\n      jump\t// out\n        /* \"#utility.yul\":15943:16061   */\n    tag_236:\n        /* \"#utility.yul\":16030:16054   */\n      tag_410\n        /* \"#utility.yul\":16048:16053   */\n      dup2\n        /* \"#utility.yul\":16030:16054   */\n      tag_233\n      jump\t// in\n    tag_410:\n        /* \"#utility.yul\":16025:16028   */\n      dup3\n        /* \"#utility.yul\":16018:16055   */\n      mstore\n        /* \"#utility.yul\":15943:16061   */\n      pop\n      pop\n      jump\t// out\n        /* \"#utility.yul\":16067:16399   */\n    tag_131:\n        /* \"#utility.yul\":16188:16192   */\n      0x00\n        /* \"#utility.yul\":16226:16228   */\n      0x40\n        /* \"#utility.yul\":16215:16224   */\n      dup3\n        /* \"#utility.yul\":16211:16229   */\n      add\n        /* \"#utility.yul\":16203:16229   */\n      swap1\n      pop\n        /* \"#utility.yul\":16239:16310   */\n      tag_412\n        /* \"#utility.yul\":16307:16308   */\n      0x00\n        /* \"#utility.yul\":16296:16305   */\n      dup4\n        /* \"#utility.yul\":16292:16309   */\n      add\n        /* \"#utility.yul\":16283:16289   */\n      dup6\n        /* \"#utility.yul\":16239:16310   */\n      tag_236\n      jump\t// in\n    tag_412:\n        /* \"#utility.yul\":16320:16392   */\n      tag_413\n        /* \"#utility.yul\":16388:16390   */\n      0x20\n        /* \"#utility.yul\":16377:16386   */\n      dup4\n        /* \"#utility.yul\":16373:16391   */\n      add\n        /* \"#utility.yul\":16364:16370   */\n      dup5\n        /* \"#utility.yul\":16320:16392   */\n      tag_213\n      jump\t// in\n    tag_413:\n        /* \"#utility.yul\":16067:16399   */\n      swap4\n      swap3\n      pop\n      pop\n      pop\n      jump\t// out\n        /* \"#utility.yul\":16405:16572   */\n    tag_237:\n        /* \"#utility.yul\":16545:16564   */\n      0x4f70657261746f72207265717569726564000000000000000000000000000000\n        /* \"#utility.yul\":16541:16542   */\n      0x00\n        /* \"#utility.yul\":16533:16539   */\n      dup3\n        /* \"#utility.yul\":16529:16543   */\n      add\n        /* \"#utility.yul\":16522:16565   */\n      mstore\n        /* \"#utility.yul\":16405:16572   */\n      pop\n      jump\t// out\n        /* \"#utility.yul\":16578:16944   */\n    tag_238:\n        /* \"#utility.yul\":16720:16723   */\n      0x00\n        /* \"#utility.yul\":16741:16808   */\n      tag_416\n        /* \"#utility.yul\":16805:16807   */\n      0x11\n        /* \"#utility.yul\":16800:16803   */\n      dup4\n        /* \"#utility.yul\":16741:16808   */\n      tag_218\n      jump\t// in\n    tag_416:\n        /* \"#utility.yul\":16734:16808   */\n      swap2\n      pop\n        /* \"#utility.yul\":16817:16910   */\n      tag_417\n        /* \"#utility.yul\":16906:16909   */\n      dup3\n        /* \"#utility.yul\":16817:16910   */\n      tag_237\n      jump\t// in\n    tag_417:\n        /* \"#utility.yul\":16935:16937   */\n      0x20\n        /* \"#utility.yul\":16930:16933   */\n      dup3\n        /* \"#utility.yul\":16926:16938   */\n      add\n        /* \"#utility.yul\":16919:16938   */\n      swap1\n      pop\n        /* \"#utility.yul\":16578:16944   */\n      swap2\n      swap1\n      pop\n      jump\t// out\n        /* \"#utility.yul\":16950:17369   */\n    tag_137:\n        /* \"#utility.yul\":17116:17120   */\n      0x00\n        /* \"#utility.yul\":17154:17156   */\n      0x20\n        /* \"#utility.yul\":17143:17152   */\n      dup3\n        /* \"#utility.yul\":17139:17157   */\n      add\n        /* \"#utility.yul\":17131:17157   */\n      swap1\n      pop\n        /* \"#utility.yul\":17203:17212   */\n      dup2\n        /* \"#utility.yul\":17197:17201   */\n      dup2\n        /* \"#utility.yul\":17193:17213   */\n      sub\n        /* \"#utility.yul\":17189:17190   */\n      0x00\n        /* \"#utility.yul\":17178:17187   */\n      dup4\n        /* \"#utility.yul\":17174:17191   */\n      add\n        /* \"#utility.yul\":17167:17214   */\n      mstore\n        /* \"#utility.yul\":17231:17362   */\n      tag_419\n        /* \"#utility.yul\":17357:17361   */\n      dup2\n        /* \"#utility.yul\":17231:17362   */\n      tag_238\n      jump\t// in\n    tag_419:\n        /* \"#utility.yul\":17223:17362   */\n      swap1\n      pop\n        /* \"#utility.yul\":16950:17369   */\n      swap2\n      swap1\n      pop\n      jump\t// out\n        /* \"#utility.yul\":17375:17543   */\n    tag_239:\n        /* \"#utility.yul\":17515:17535   */\n      0x4e6f7420616374697665206c697374696e670000000000000000000000000000\n        /* \"#utility.yul\":17511:17512   */\n      0x00\n        /* \"#utility.yul\":17503:17509   */\n      dup3\n        /* \"#utility.yul\":17499:17513   */\n      add\n        /* \"#utility.yul\":17492:17536   */\n      mstore\n        /* \"#utility.yul\":17375:17543   */\n      pop\n      jump\t// out\n        /* \"#utility.yul\":17549:17915   */\n    tag_240:\n        /* \"#utility.yul\":17691:17694   */\n      0x00\n        /* \"#utility.yul\":17712:17779   */\n      tag_422\n        /* \"#utility.yul\":17776:17778   */\n      0x12\n        /* \"#utility.yul\":17771:17774   */\n      dup4\n        /* \"#utility.yul\":17712:17779   */\n      tag_218\n      jump\t// in\n    tag_422:\n        /* \"#utility.yul\":17705:17779   */\n      swap2\n      pop\n        /* \"#utility.yul\":17788:17881   */\n      tag_423\n        /* \"#utility.yul\":17877:17880   */\n      dup3\n        /* \"#utility.yul\":17788:17881   */\n      tag_239\n      jump\t// in\n    tag_423:\n        /* \"#utility.yul\":17906:17908   */\n      0x20\n        /* \"#utility.yul\":17901:17904   */\n      dup3\n        /* \"#utility.yul\":17897:17909   */\n      add\n        /* \"#utility.yul\":17890:17909   */\n      swap1\n      pop\n        /* \"#utility.yul\":17549:17915   */\n      swap2\n      swap1\n      pop\n      jump\t// out\n        /* \"#utility.yul\":17921:18340   */\n    tag_145:\n        /* \"#utility.yul\":18087:18091   */\n      0x00\n        /* \"#utility.yul\":18125:18127   */\n      0x20\n        /* \"#utility.yul\":18114:18123   */\n      dup3\n        /* \"#utility.yul\":18110:18128   */\n      add\n        /* \"#utility.yul\":18102:18128   */\n      swap1\n      pop\n        /* \"#utility.yul\":18174:18183   */\n      dup2\n        /* \"#utility.yul\":18168:18172   */\n      dup2\n        /* \"#utility.yul\":18164:18184   */\n      sub\n        /* \"#utility.yul\":18160:18161   */\n      0x00\n        /* \"#utility.yul\":18149:18158   */\n      dup4\n        /* \"#utility.yul\":18145:18162   */\n      add\n        /* \"#utility.yul\":18138:18185   */\n      mstore\n        /* \"#utility.yul\":18202:18333   */\n      tag_425\n        /* \"#utility.yul\":18328:18332   */\n      dup2\n        /* \"#utility.yul\":18202:18333   */\n      tag_240\n      jump\t// in\n    tag_425:\n        /* \"#utility.yul\":18194:18333   */\n      swap1\n      pop\n        /* \"#utility.yul\":17921:18340   */\n      swap2\n      swap1\n      pop\n      jump\t// out\n        /* \"#utility.yul\":18346:18527   */\n    tag_241:\n        /* \"#utility.yul\":18486:18519   */\n      0x5265656e7472616e637947756172643a207265656e7472616e742063616c6c00\n        /* \"#utility.yul\":18482:18483   */\n      0x00\n        /* \"#utility.yul\":18474:18480   */\n      dup3\n        /* \"#utility.yul\":18470:18484   */\n      add\n        /* \"#utility.yul\":18463:18520   */\n      mstore\n        /* \"#utility.yul\":18346:18527   */\n      pop\n      jump\t// out\n        /* \"#utility.yul\":18533:18899   */\n    tag_242:\n        /* \"#utility.yul\":18675:18678   */\n      0x00\n        /* \"#utility.yul\":18696:18763   */\n      tag_428\n        /* \"#utility.yul\":18760:18762   */\n      0x1f\n        /* \"#utility.yul\":18755:18758   */\n      dup4\n        /* \"#utility.yul\":18696:18763   */\n      tag_218\n      jump\t// in\n    tag_428:\n        /* \"#utility.yul\":18689:18763   */\n      swap2\n      pop\n        /* \"#utility.yul\":18772:18865   */\n      tag_429\n        /* \"#utility.yul\":18861:18864   */\n      dup3\n        /* \"#utility.yul\":18772:18865   */\n      tag_241\n      jump\t// in\n    tag_429:\n        /* \"#utility.yul\":18890:18892   */\n      0x20\n        /* \"#utility.yul\":18885:18888   */\n      dup3\n        /* \"#utility.yul\":18881:18893   */\n      add\n        /* \"#utility.yul\":18874:18893   */\n      swap1\n      pop\n        /* \"#utility.yul\":18533:18899   */\n      swap2\n      swap1\n      pop\n      jump\t// out\n        /* \"#utility.yul\":18905:19324   */\n    tag_151:\n        /* \"#utility.yul\":19071:19075   */\n      0x00\n        /* \"#utility.yul\":19109:19111   */\n      0x20\n        /* \"#utility.yul\":19098:19107   */\n      dup3\n        /* \"#utility.yul\":19094:19112   */\n      add\n        /* \"#utility.yul\":19086:19112   */\n      swap1\n      pop\n        /* \"#utility.yul\":19158:19167   */\n      dup2\n        /* \"#utility.yul\":19152:19156   */\n      dup2\n        /* \"#utility.yul\":19148:19168   */\n      sub\n        /* \"#utility.yul\":19144:19145   */\n      0x00\n        /* \"#utility.yul\":19133:19142   */\n      dup4\n        /* \"#utility.yul\":19129:19146   */\n      add\n        /* \"#utility.yul\":19122:19169   */\n      mstore\n        /* \"#utility.yul\":19186:19317   */\n      tag_431\n        /* \"#utility.yul\":19312:19316   */\n      dup2\n        /* \"#utility.yul\":19186:19317   */\n      tag_242\n      jump\t// in\n    tag_431:\n        /* \"#utility.yul\":19178:19317   */\n      swap1\n      pop\n        /* \"#utility.yul\":18905:19324   */\n      swap2\n      swap1\n      pop\n      jump\t// out\n        /* \"#utility.yul\":19330:19473   */\n    tag_243:\n        /* \"#utility.yul\":19387:19392   */\n      0x00\n        /* \"#utility.yul\":19418:19424   */\n      dup2\n        /* \"#utility.yul\":19412:19425   */\n      mload\n        /* \"#utility.yul\":19403:19425   */\n      swap1\n      pop\n        /* \"#utility.yul\":19434:19467   */\n      tag_433\n        /* \"#utility.yul\":19461:19466   */\n      dup2\n        /* \"#utility.yul\":19434:19467   */\n      tag_199\n      jump\t// in\n    tag_433:\n        /* \"#utility.yul\":19330:19473   */\n      swap3\n      swap2\n      pop\n      pop\n      jump\t// out\n        /* \"#utility.yul\":19479:20142   */\n    tag_160:\n        /* \"#utility.yul\":19567:19573   */\n      0x00\n        /* \"#utility.yul\":19575:19581   */\n      dup1\n        /* \"#utility.yul\":19583:19589   */\n      0x00\n        /* \"#utility.yul\":19632:19634   */\n      0x60\n        /* \"#utility.yul\":19620:19629   */\n      dup5\n        /* \"#utility.yul\":19611:19618   */\n      dup7\n        /* \"#utility.yul\":19607:19630   */\n      sub\n        /* \"#utility.yul\":19603:19635   */\n      slt\n        /* \"#utility.yul\":19600:19719   */\n      iszero\n      tag_435\n      jumpi\n        /* \"#utility.yul\":19638:19717   */\n      tag_436\n      tag_196\n      jump\t// in\n    tag_436:\n        /* \"#utility.yul\":19600:19719   */\n    tag_435:\n        /* \"#utility.yul\":19758:19759   */\n      0x00\n        /* \"#utility.yul\":19783:19847   */\n      tag_437\n        /* \"#utility.yul\":19839:19846   */\n      dup7\n        /* \"#utility.yul\":19830:19836   */\n      dup3\n        /* \"#utility.yul\":19819:19828   */\n      dup8\n        /* \"#utility.yul\":19815:19837   */\n      add\n        /* \"#utility.yul\":19783:19847   */\n      tag_243\n      jump\t// in\n    tag_437:\n        /* \"#utility.yul\":19773:19847   */\n      swap4\n      pop\n        /* \"#utility.yul\":19729:19857   */\n      pop\n        /* \"#utility.yul\":19896:19898   */\n      0x20\n        /* \"#utility.yul\":19922:19986   */\n      tag_438\n        /* \"#utility.yul\":19978:19985   */\n      dup7\n        /* \"#utility.yul\":19969:19975   */\n      dup3\n        /* \"#utility.yul\":19958:19967   */\n      dup8\n        /* \"#utility.yul\":19954:19976   */\n      add\n        /* \"#utility.yul\":19922:19986   */\n      tag_243\n      jump\t// in\n    tag_438:\n        /* \"#utility.yul\":19912:19986   */\n      swap3\n      pop\n        /* \"#utility.yul\":19867:19996   */\n      pop\n        /* \"#utility.yul\":20035:20037   */\n      0x40\n        /* \"#utility.yul\":20061:20125   */\n      tag_439\n        /* \"#utility.yul\":20117:20124   */\n      dup7\n        /* \"#utility.yul\":20108:20114   */\n      dup3\n        /* \"#utility.yul\":20097:20106   */\n      dup8\n        /* \"#utility.yul\":20093:20115   */\n      add\n        /* \"#utility.yul\":20061:20125   */\n      tag_228\n      jump\t// in\n    tag_439:\n        /* \"#utility.yul\":20051:20125   */\n      swap2\n      pop\n        /* \"#utility.yul\":20006:20135   */\n      pop\n        /* \"#utility.yul\":19479:20142   */\n      swap3\n      pop\n      swap3\n      pop\n      swap3\n      jump\t// out\n        /* \"#utility.yul\":20148:20328   */\n    tag_244:\n        /* \"#utility.yul\":20196:20273   */\n      0x4e487b7100000000000000000000000000000000000000000000000000000000\n        /* \"#utility.yul\":20193:20194   */\n      0x00\n        /* \"#utility.yul\":20186:20274   */\n      mstore\n        /* \"#utility.yul\":20293:20297   */\n      0x11\n        /* \"#utility.yul\":20290:20291   */\n      0x04\n        /* \"#utility.yul\":20283:20298   */\n      mstore\n        /* \"#utility.yul\":20317:20321   */\n      0x24\n        /* \"#utility.yul\":20314:20315   */\n      0x00\n        /* \"#utility.yul\":20307:20322   */\n      revert\n        /* \"#utility.yul\":20334:20744   */\n    tag_162:\n        /* \"#utility.yul\":20374:20381   */\n      0x00\n        /* \"#utility.yul\":20397:20417   */\n      tag_442\n        /* \"#utility.yul\":20415:20416   */\n      dup3\n        /* \"#utility.yul\":20397:20417   */\n      tag_198\n      jump\t// in\n    tag_442:\n        /* \"#utility.yul\":20392:20417   */\n      swap2\n      pop\n        /* \"#utility.yul\":20431:20451   */\n      tag_443\n        /* \"#utility.yul\":20449:20450   */\n      dup4\n        /* \"#utility.yul\":20431:20451   */\n      tag_198\n      jump\t// in\n    tag_443:\n        /* \"#utility.yul\":20426:20451   */\n      swap3\n      pop\n        /* \"#utility.yul\":20486:20487   */\n      dup3\n        /* \"#utility.yul\":20483:20484   */\n      dup3\n        /* \"#utility.yul\":20479:20488   */\n      mul\n        /* \"#utility.yul\":20508:20538   */\n      tag_444\n        /* \"#utility.yul\":20526:20537   */\n      dup2\n        /* \"#utility.yul\":20508:20538   */\n      tag_198\n      jump\t// in\n    tag_444:\n        /* \"#utility.yul\":20497:20538   */\n      swap2\n      pop\n        /* \"#utility.yul\":20687:20688   */\n      dup3\n        /* \"#utility.yul\":20678:20685   */\n      dup3\n        /* \"#utility.yul\":20674:20689   */\n      div\n        /* \"#utility.yul\":20671:20672   */\n      dup5\n        /* \"#utility.yul\":20668:20690   */\n      eq\n        /* \"#utility.yul\":20648:20649   */\n      dup4\n        /* \"#utility.yul\":20641:20650   */\n      iszero\n        /* \"#utility.yul\":20621:20704   */\n      or\n        /* \"#utility.yul\":20598:20737   */\n      tag_445\n      jumpi\n        /* \"#utility.yul\":20717:20735   */\n      tag_446\n      tag_244\n      jump\t// in\n    tag_446:\n        /* \"#utility.yul\":20598:20737   */\n    tag_445:\n        /* \"#utility.yul\":20382:20744   */\n      pop\n        /* \"#utility.yul\":20334:20744   */\n      swap3\n      swap2\n      pop\n      pop\n      jump\t// out\n        /* \"#utility.yul\":20750:20930   */\n    tag_245:\n        /* \"#utility.yul\":20798:20875   */\n      0x4e487b7100000000000000000000000000000000000000000000000000000000\n        /* \"#utility.yul\":20795:20796   */\n      0x00\n        /* \"#utility.yul\":20788:20876   */\n      mstore\n        /* \"#utility.yul\":20895:20899   */\n      0x12\n        /* \"#utility.yul\":20892:20893   */\n      0x04\n        /* \"#utility.yul\":20885:20900   */\n      mstore\n        /* \"#utility.yul\":20919:20923   */\n      0x24\n        /* \"#utility.yul\":20916:20917   */\n      0x00\n        /* \"#utility.yul\":20909:20924   */\n      revert\n        /* \"#utility.yul\":20936:21121   */\n    tag_164:\n        /* \"#utility.yul\":20976:20977   */\n      0x00\n        /* \"#utility.yul\":20993:21013   */\n      tag_449\n        /* \"#utility.yul\":21011:21012   */\n      dup3\n        /* \"#utility.yul\":20993:21013   */\n      tag_198\n      jump\t// in\n    tag_449:\n        /* \"#utility.yul\":20988:21013   */\n      swap2\n      pop\n        /* \"#utility.yul\":21027:21047   */\n      tag_450\n        /* \"#utility.yul\":21045:21046   */\n      dup4\n        /* \"#utility.yul\":21027:21047   */\n      tag_198\n      jump\t// in\n    tag_450:\n        /* \"#utility.yul\":21022:21047   */\n      swap3\n      pop\n        /* \"#utility.yul\":21066:21067   */\n      dup3\n        /* \"#utility.yul\":21056:21091   */\n      tag_451\n      jumpi\n        /* \"#utility.yul\":21071:21089   */\n      tag_452\n      tag_245\n      jump\t// in\n    tag_452:\n        /* \"#utility.yul\":21056:21091   */\n    tag_451:\n        /* \"#utility.yul\":21113:21114   */\n      dup3\n        /* \"#utility.yul\":21110:21111   */\n      dup3\n        /* \"#utility.yul\":21106:21115   */\n      div\n        /* \"#utility.yul\":21101:21115   */\n      swap1\n      pop\n        /* \"#utility.yul\":20936:21121   */\n      swap3\n      swap2\n      pop\n      pop\n      jump\t// out\n        /* \"#utility.yul\":21127:21321   */\n    tag_166:\n        /* \"#utility.yul\":21167:21171   */\n      0x00\n        /* \"#utility.yul\":21187:21207   */\n      tag_454\n        /* \"#utility.yul\":21205:21206   */\n      dup3\n        /* \"#utility.yul\":21187:21207   */\n      tag_198\n      jump\t// in\n    tag_454:\n        /* \"#utility.yul\":21182:21207   */\n      swap2\n      pop\n        /* \"#utility.yul\":21221:21241   */\n      tag_455\n        /* \"#utility.yul\":21239:21240   */\n      dup4\n        /* \"#utility.yul\":21221:21241   */\n      tag_198\n      jump\t// in\n    tag_455:\n        /* \"#utility.yul\":21216:21241   */\n      swap3\n      pop\n        /* \"#utility.yul\":21265:21266   */\n      dup3\n        /* \"#utility.yul\":21262:21263   */\n      dup3\n        /* \"#utility.yul\":21258:21267   */\n      sub\n        /* \"#utility.yul\":21250:21267   */\n      swap1\n      pop\n        /* \"#utility.yul\":21289:21290   */\n      dup2\n        /* \"#utility.yul\":21283:21287   */\n      dup2\n        /* \"#utility.yul\":21280:21291   */\n      gt\n        /* \"#utility.yul\":21277:21314   */\n      iszero\n      tag_456\n      jumpi\n        /* \"#utility.yul\":21294:21312   */\n      tag_457\n      tag_244\n      jump\t// in\n    tag_457:\n        /* \"#utility.yul\":21277:21314   */\n    tag_456:\n        /* \"#utility.yul\":21127:21321   */\n      swap3\n      swap2\n      pop\n      pop\n      jump\t// out\n        /* \"#utility.yul\":21327:21493   */\n    tag_246:\n        /* \"#utility.yul\":21467:21485   */\n      0x496e73756666696369656e742045544800000000000000000000000000000000\n        /* \"#utility.yul\":21463:21464   */\n      0x00\n        /* \"#utility.yul\":21455:21461   */\n      dup3\n        /* \"#utility.yul\":21451:21465   */\n      add\n        /* \"#utility.yul\":21444:21486   */\n      mstore\n        /* \"#utility.yul\":21327:21493   */\n      pop\n      jump\t// out\n        /* \"#utility.yul\":21499:21865   */\n    tag_247:\n        /* \"#utility.yul\":21641:21644   */\n      0x00\n        /* \"#utility.yul\":21662:21729   */\n      tag_460\n        /* \"#utility.yul\":21726:21728   */\n      0x10\n        /* \"#utility.yul\":21721:21724   */\n      dup4\n        /* \"#utility.yul\":21662:21729   */\n      tag_218\n      jump\t// in\n    tag_460:\n        /* \"#utility.yul\":21655:21729   */\n      swap2\n      pop\n        /* \"#utility.yul\":21738:21831   */\n      tag_461\n        /* \"#utility.yul\":21827:21830   */\n      dup3\n        /* \"#utility.yul\":21738:21831   */\n      tag_246\n      jump\t// in\n    tag_461:\n        /* \"#utility.yul\":21856:21858   */\n      0x20\n        /* \"#utility.yul\":21851:21854   */\n      dup3\n        /* \"#utility.yul\":21847:21859   */\n      add\n        /* \"#utility.yul\":21840:21859   */\n      swap1\n      pop\n        /* \"#utility.yul\":21499:21865   */\n      swap2\n      swap1\n      pop\n      jump\t// out\n        /* \"#utility.yul\":21871:22290   */\n    tag_170:\n        /* \"#utility.yul\":22037:22041   */\n      0x00\n        /* \"#utility.yul\":22075:22077   */\n      0x20\n        /* \"#utility.yul\":22064:22073   */\n      dup3\n        /* \"#utility.yul\":22060:22078   */\n      add\n        /* \"#utility.yul\":22052:22078   */\n      swap1\n      pop\n        /* \"#utility.yul\":22124:22133   */\n      dup2\n        /* \"#utility.yul\":22118:22122   */\n      dup2\n        /* \"#utility.yul\":22114:22134   */\n      sub\n        /* \"#utility.yul\":22110:22111   */\n      0x00\n        /* \"#utility.yul\":22099:22108   */\n      dup4\n        /* \"#utility.yul\":22095:22112   */\n      add\n        /* \"#utility.yul\":22088:22135   */\n      mstore\n        /* \"#utility.yul\":22152:22283   */\n      tag_463\n        /* \"#utility.yul\":22278:22282   */\n      dup2\n        /* \"#utility.yul\":22152:22283   */\n      tag_247\n      jump\t// in\n    tag_463:\n        /* \"#utility.yul\":22144:22283   */\n      swap1\n      pop\n        /* \"#utility.yul\":21871:22290   */\n      swap2\n      swap1\n      pop\n      jump\t// out\n        /* \"#utility.yul\":22296:22461   */\n    tag_248:\n        /* \"#utility.yul\":22436:22453   */\n      0x5472616e73666572206661696c65640000000000000000000000000000000000\n        /* \"#utility.yul\":22432:22433   */\n      0x00\n        /* \"#utility.yul\":22424:22430   */\n      dup3\n        /* \"#utility.yul\":22420:22434   */\n      add\n        /* \"#utility.yul\":22413:22454   */\n      mstore\n        /* \"#utility.yul\":22296:22461   */\n      pop\n      jump\t// out\n        /* \"#utility.yul\":22467:22833   */\n    tag_249:\n        /* \"#utility.yul\":22609:22612   */\n      0x00\n        /* \"#utility.yul\":22630:22697   */\n      tag_466\n        /* \"#utility.yul\":22694:22696   */\n      0x0f\n        /* \"#utility.yul\":22689:22692   */\n      dup4\n        /* \"#utility.yul\":22630:22697   */\n      tag_218\n      jump\t// in\n    tag_466:\n        /* \"#utility.yul\":22623:22697   */\n      swap2\n      pop\n        /* \"#utility.yul\":22706:22799   */\n      tag_467\n        /* \"#utility.yul\":22795:22798   */\n      dup3\n        /* \"#utility.yul\":22706:22799   */\n      tag_248\n      jump\t// in\n    tag_467:\n        /* \"#utility.yul\":22824:22826   */\n      0x20\n        /* \"#utility.yul\":22819:22822   */\n      dup3\n        /* \"#utility.yul\":22815:22827   */\n      add\n        /* \"#utility.yul\":22808:22827   */\n      swap1\n      pop\n        /* \"#utility.yul\":22467:22833   */\n      swap2\n      swap1\n      pop\n      jump\t// out\n        /* \"#utility.yul\":22839:23258   */\n    tag_186:\n        /* \"#utility.yul\":23005:23009   */\n      0x00\n        /* \"#utility.yul\":23043:23045   */\n      0x20\n        /* \"#utility.yul\":23032:23041   */\n      dup3\n        /* \"#utility.yul\":23028:23046   */\n      add\n        /* \"#utility.yul\":23020:23046   */\n      swap1\n      pop\n        /* \"#utility.yul\":23092:23101   */\n      dup2\n        /* \"#utility.yul\":23086:23090   */\n      dup2\n        /* \"#utility.yul\":23082:23102   */\n      sub\n        /* \"#utility.yul\":23078:23079   */\n      0x00\n        /* \"#utility.yul\":23067:23076   */\n      dup4\n        /* \"#utility.yul\":23063:23080   */\n      add\n        /* \"#utility.yul\":23056:23103   */\n      mstore\n        /* \"#utility.yul\":23120:23251   */\n      tag_469\n        /* \"#utility.yul\":23246:23250   */\n      dup2\n        /* \"#utility.yul\":23120:23251   */\n      tag_249\n      jump\t// in\n    tag_469:\n        /* \"#utility.yul\":23112:23251   */\n      swap1\n      pop\n        /* \"#utility.yul\":22839:23258   */\n      swap2\n      swap1\n      pop\n      jump\t// out\n        /* \"#utility.yul\":23264:23433   */\n    tag_250:\n        /* \"#utility.yul\":23404:23425   */\n      0x466565207472616e73666572206661696c656400000000000000000000000000\n        /* \"#utility.yul\":23400:23401   */\n      0x00\n        /* \"#utility.yul\":23392:23398   */\n      dup3\n        /* \"#utility.yul\":23388:23402   */\n      add\n        /* \"#utility.yul\":23381:23426   */\n      mstore\n        /* \"#utility.yul\":23264:23433   */\n      pop\n      jump\t// out\n        /* \"#utility.yul\":23439:23805   */\n    tag_251:\n        /* \"#utility.yul\":23581:23584   */\n      0x00\n        /* \"#utility.yul\":23602:23669   */\n      tag_472\n        /* \"#utility.yul\":23666:23668   */\n      0x13\n        /* \"#utility.yul\":23661:23664   */\n      dup4\n        /* \"#utility.yul\":23602:23669   */\n      tag_218\n      jump\t// in\n    tag_472:\n        /* \"#utility.yul\":23595:23669   */\n      swap2\n      pop\n        /* \"#utility.yul\":23678:23771   */\n      tag_473\n        /* \"#utility.yul\":23767:23770   */\n      dup3\n        /* \"#utility.yul\":23678:23771   */\n      tag_250\n      jump\t// in\n    tag_473:\n        /* \"#utility.yul\":23796:23798   */\n      0x20\n        /* \"#utility.yul\":23791:23794   */\n      dup3\n        /* \"#utility.yul\":23787:23799   */\n      add\n        /* \"#utility.yul\":23780:23799   */\n      swap1\n      pop\n        /* \"#utility.yul\":23439:23805   */\n      swap2\n      swap1\n      pop\n      jump\t// out\n        /* \"#utility.yul\":23811:24230   */\n    tag_193:\n        /* \"#utility.yul\":23977:23981   */\n      0x00\n        /* \"#utility.yul\":24015:24017   */\n      0x20\n        /* \"#utility.yul\":24004:24013   */\n      dup3\n        /* \"#utility.yul\":24000:24018   */\n      add\n        /* \"#utility.yul\":23992:24018   */\n      swap1\n      pop\n        /* \"#utility.yul\":24064:24073   */\n      dup2\n        /* \"#utility.yul\":24058:24062   */\n      dup2\n        /* \"#utility.yul\":24054:24074   */\n      sub\n        /* \"#utility.yul\":24050:24051   */\n      0x00\n        /* \"#utility.yul\":24039:24048   */\n      dup4\n        /* \"#utility.yul\":24035:24052   */\n      add\n        /* \"#utility.yul\":24028:24075   */\n      mstore\n        /* \"#utility.yul\":24092:24223   */\n      tag_475\n        /* \"#utility.yul\":24218:24222   */\n      dup2\n        /* \"#utility.yul\":24092:24223   */\n      tag_251\n      jump\t// in\n    tag_475:\n        /* \"#utility.yul\":24084:24223   */\n      swap1\n      pop\n        /* \"#utility.yul\":23811:24230   */\n      swap2\n      swap1\n      pop\n      jump\t// out\n\n    auxdata: 0xa264697066735822122032171ebcf5cbc736ae903e927977efc41b6bc6c300cd6a8d7fe089256c54288264736f6c63430008180033\n}\n",
				"bytecode": {
					"linkReferences": {},
					"object": "60e060405234801562000010575f80fd5b5060405162001fa938038062001fa9833981810160405281019062000036919062000147565b60015f819055508273ffffffffffffffffffffffffffffffffffffffff1660808173ffffffffffffffffffffffffffffffffffffffff16815250508173ffffffffffffffffffffffffffffffffffffffff1660a08173ffffffffffffffffffffffffffffffffffffffff16815250508073ffffffffffffffffffffffffffffffffffffffff1660c08173ffffffffffffffffffffffffffffffffffffffff1681525050505050620001a0565b5f80fd5b5f73ffffffffffffffffffffffffffffffffffffffff82169050919050565b5f6200011182620000e6565b9050919050565b620001238162000105565b81146200012e575f80fd5b50565b5f81519050620001418162000118565b92915050565b5f805f60608486031215620001615762000160620000e2565b5b5f620001708682870162000131565b9350506020620001838682870162000131565b9250506040620001968682870162000131565b9150509250925092565b60805160a05160c051611dad620001fc5f395f610c8901525f8181610463015281816105d1015261061401525f81816102c6015281816105ad01528181610702015281816109e101528181610a700152610e6d0152611dad5ff3fe608060405260043610610085575f3560e01c8063887f495a11610058578063887f495a14610121578063ad7bbd5a14610149578063cbb9c9a414610185578063de74e57b146101af578063fb05da2e146101f157610085565b80634f84349414610089578063555d3e63146100a5578063592eb924146100cf57806386aa217e146100f9575b5f80fd5b6100a3600480360381019061009e919061124a565b610231565b005b3480156100b0575f80fd5b506100b96105ab565b6040516100c69190611302565b60405180910390f35b3480156100da575f80fd5b506100e36105cf565b6040516100f0919061133b565b60405180910390f35b348015610104575f80fd5b5061011f600480360381019061011a919061138f565b6105f3565b005b34801561012c575f80fd5b506101476004803603810190610142919061138f565b6109de565b005b348015610154575f80fd5b5061016f600480360381019061016a91906113df565b610c67565b60405161017c919061142c565b60405180910390f35b348015610190575f80fd5b50610199610c87565b6040516101a6919061133b565b60405180910390f35b3480156101ba575f80fd5b506101d560048036038101906101d09190611445565b610cab565b6040516101e897969594939291906114f2565b60405180910390f35b3480156101fc575f80fd5b5061021760048036038101906102129190611445565b610d34565b60405161022895949392919061155f565b60405180910390f35b610239610dc5565b5f60015f8481526020019081526020015f2090505f60038111156102605761025f61147f565b5b8160030160149054906101000a900460ff1660038111156102845761028361147f565b5b146102c4576040517f08c379a00000000000000000000000000000000000000000000000000000000081526004016102bb9061160a565b60405180910390fd5b7f000000000000000000000000000000000000000000000000000000000000000073ffffffffffffffffffffffffffffffffffffffff166354b7636e336040518263ffffffff1660e01b815260040161031d9190611628565b602060405180830381865afa158015610338573d5f803e3d5ffd5b505050506040513d601f19601f8201168201806040525081019061035c9190611676565b61039b576040517f08c379a0000000000000000000000000000000000000000000000000000000008152600401610392906116eb565b60405180910390fd5b6103cd816002015483836003015f9054906101000a900473ffffffffffffffffffffffffffffffffffffffff16610e12565b61040c576040517f08c379a000000000000000000000000000000000000000000000000000000000815260040161040390611753565b60405180910390fd5b610461816001015f9054906101000a900473ffffffffffffffffffffffffffffffffffffffff168260020154836003015f9054906101000a900473ffffffffffffffffffffffffffffffffffffffff16610e69565b7f000000000000000000000000000000000000000000000000000000000000000073ffffffffffffffffffffffffffffffffffffffff166323b872dd826001015f9054906101000a900473ffffffffffffffffffffffffffffffffffffffff1633866040518463ffffffff1660e01b81526004016104e193929190611771565b5f604051808303815f87803b1580156104f8575f80fd5b505af115801561050a573d5f803e3d5ffd5b5050505060028160030160146101000a81548160ff021916908360038111156105365761053561147f565b5b0217905550827f5be1cef2101afbbf72fccd811a15ccfdedc8c44b5f50934100f262ffcd9a1f06338360020154846003015f9054906101000a900473ffffffffffffffffffffffffffffffffffffffff16604051610596939291906117a6565b60405180910390a2506105a761120a565b5050565b7f000000000000000000000000000000000000000000000000000000000000000081565b7f000000000000000000000000000000000000000000000000000000000000000081565b6105fb610dc5565b3373ffffffffffffffffffffffffffffffffffffffff167f000000000000000000000000000000000000000000000000000000000000000073ffffffffffffffffffffffffffffffffffffffff16636352211e856040518263ffffffff1660e01b815260040161066b919061142c565b602060405180830381865afa158015610686573d5f803e3d5ffd5b505050506040513d601f19601f820116820180604052508101906106aa91906117ef565b73ffffffffffffffffffffffffffffffffffffffff1614610700576040517f08c379a00000000000000000000000000000000000000000000000000000000081526004016106f790611864565b60405180910390fd5b7f000000000000000000000000000000000000000000000000000000000000000073ffffffffffffffffffffffffffffffffffffffff166354b7636e336040518263ffffffff1660e01b81526004016107599190611628565b602060405180830381865afa158015610774573d5f803e3d5ffd5b505050506040513d601f19601f820116820180604052508101906107989190611676565b6107d7576040517f08c379a00000000000000000000000000000000000000000000000000000000081526004016107ce906116eb565b60405180910390fd5b5f8211610819576040517f08c379a0000000000000000000000000000000000000000000000000000000008152600401610810906118cc565b60405180910390fd5b6040518060e001604052808481526020013373ffffffffffffffffffffffffffffffffffffffff1681526020018381526020018273ffffffffffffffffffffffffffffffffffffffff1681526020015f600381111561087b5761087a61147f565b5b81526020014281526020014281525060015f8581526020019081526020015f205f820151815f01556020820151816001015f6101000a81548173ffffffffffffffffffffffffffffffffffffffff021916908373ffffffffffffffffffffffffffffffffffffffff160217905550604082015181600201556060820151816003015f6101000a81548173ffffffffffffffffffffffffffffffffffffffff021916908373ffffffffffffffffffffffffffffffffffffffff16021790555060808201518160030160146101000a81548160ff021916908360038111156109645761096361147f565b5b021790555060a0820151816004015560c082015181600501559050503373ffffffffffffffffffffffffffffffffffffffff16837f2c6c7576542d9307c65e21c836da28fc580279667ba9e8d5fe56dca491d5980384846040516109c99291906118ea565b60405180910390a36109d961120a565b505050565b5f7f000000000000000000000000000000000000000000000000000000000000000073ffffffffffffffffffffffffffffffffffffffff1663f5b541a66040518163ffffffff1660e01b8152600401602060405180830381865afa158015610a48573d5f803e3d5ffd5b505050506040513d601f19601f82011682018060405250810190610a6c9190611944565b90507f000000000000000000000000000000000000000000000000000000000000000073ffffffffffffffffffffffffffffffffffffffff166391d1485482336040518363ffffffff1660e01b8152600401610ac992919061197e565b602060405180830381865afa158015610ae4573d5f803e3d5ffd5b505050506040513d601f19601f82011682018060405250810190610b089190611676565b610b47576040517f08c379a0000000000000000000000000000000000000000000000000000000008152600401610b3e906119ef565b60405180910390fd5b5f60015f8681526020019081526020015f2090505f6003811115610b6e57610b6d61147f565b5b8160030160149054906101000a900460ff166003811115610b9257610b9161147f565b5b14610bd2576040517f08c379a0000000000000000000000000000000000000000000000000000000008152600401610bc990611a57565b60405180910390fd5b83816002018190555082816003015f6101000a81548173ffffffffffffffffffffffffffffffffffffffff021916908373ffffffffffffffffffffffffffffffffffffffff160217905550428160050181905550847fb82cb8d1ee5aa2af90399f2b0ece446b81a5f1e601da16a2a2b62dfcc8bb4ba38585604051610c589291906118ea565b60405180910390a25050505050565b6002602052815f5260405f20602052805f5260405f205f91509150505481565b7f000000000000000000000000000000000000000000000000000000000000000081565b6001602052805f5260405f205f91509050805f015490806001015f9054906101000a900473ffffffffffffffffffffffffffffffffffffffff1690806002015490806003015f9054906101000a900473ffffffffffffffffffffffffffffffffffffffff16908060030160149054906101000a900460ff16908060040154908060050154905087565b5f805f805f8060015f8881526020019081526020015f209050806001015f9054906101000a900473ffffffffffffffffffffffffffffffffffffffff168160020154826003015f9054906101000a900473ffffffffffffffffffffffffffffffffffffffff168360030160149054906101000a900460ff168460040154955095509550955095505091939590929450565b60025f5403610e09576040517f08c379a0000000000000000000000000000000000000000000000000000000008152600401610e0090611abf565b60405180910390fd5b60025f81905550565b5f8073ffffffffffffffffffffffffffffffffffffffff168273ffffffffffffffffffffffffffffffffffffffff1603610e5c57833410158015610e5557508383145b9050610e62565b83831490505b9392505050565b5f807f000000000000000000000000000000000000000000000000000000000000000073ffffffffffffffffffffffffffffffffffffffff16631e5eb1d06040518163ffffffff1660e01b8152600401606060405180830381865afa158015610ed4573d5f803e3d5ffd5b505050506040513d601f19601f82011682018060405250810190610ef89190611af1565b92505091505f6127108386610f0d9190611b6e565b610f179190611bdc565b90505f8186610f269190611c0c565b90505f73ffffffffffffffffffffffffffffffffffffffff168573ffffffffffffffffffffffffffffffffffffffff16036110835785341015610f9e576040517f08c379a0000000000000000000000000000000000000000000000000000000008152600401610f9590611c89565b60405180910390fd5b85341115610ff6573373ffffffffffffffffffffffffffffffffffffffff166108fc8734610fcc9190611c0c565b90811502906040515f60405180830381858888f19350505050158015610ff4573d5f803e3d5ffd5b505b8673ffffffffffffffffffffffffffffffffffffffff166108fc8290811502906040515f60405180830381858888f19350505050158015611039573d5f803e3d5ffd5b508273ffffffffffffffffffffffffffffffffffffffff166108fc8390811502906040515f60405180830381858888f1935050505015801561107d573d5f803e3d5ffd5b50611201565b5f8590508073ffffffffffffffffffffffffffffffffffffffff166323b872dd338a856040518463ffffffff1660e01b81526004016110c493929190611771565b6020604051808303815f875af11580156110e0573d5f803e3d5ffd5b505050506040513d601f19601f820116820180604052508101906111049190611676565b611143576040517f08c379a000000000000000000000000000000000000000000000000000000000815260040161113a90611cf1565b60405180910390fd5b8073ffffffffffffffffffffffffffffffffffffffff166323b872dd3386866040518463ffffffff1660e01b815260040161118093929190611771565b6020604051808303815f875af115801561119c573d5f803e3d5ffd5b505050506040513d601f19601f820116820180604052508101906111c09190611676565b6111ff576040517f08c379a00000000000000000000000000000000000000000000000000000000081526004016111f690611d59565b60405180910390fd5b505b50505050505050565b60015f81905550565b5f80fd5b5f819050919050565b61122981611217565b8114611233575f80fd5b50565b5f8135905061124481611220565b92915050565b5f80604083850312156112605761125f611213565b5b5f61126d85828601611236565b925050602061127e85828601611236565b9150509250929050565b5f73ffffffffffffffffffffffffffffffffffffffff82169050919050565b5f819050919050565b5f6112ca6112c56112c084611288565b6112a7565b611288565b9050919050565b5f6112db826112b0565b9050919050565b5f6112ec826112d1565b9050919050565b6112fc816112e2565b82525050565b5f6020820190506113155f8301846112f3565b92915050565b5f611325826112d1565b9050919050565b6113358161131b565b82525050565b5f60208201905061134e5f83018461132c565b92915050565b5f61135e82611288565b9050919050565b61136e81611354565b8114611378575f80fd5b50565b5f8135905061138981611365565b92915050565b5f805f606084860312156113a6576113a5611213565b5b5f6113b386828701611236565b93505060206113c486828701611236565b92505060406113d58682870161137b565b9150509250925092565b5f80604083850312156113f5576113f4611213565b5b5f6114028582860161137b565b925050602061141385828601611236565b9150509250929050565b61142681611217565b82525050565b5f60208201905061143f5f83018461141d565b92915050565b5f6020828403121561145a57611459611213565b5b5f61146784828501611236565b91505092915050565b61147981611354565b82525050565b7f4e487b71000000000000000000000000000000000000000000000000000000005f52602160045260245ffd5b600481106114bd576114bc61147f565b5b50565b5f8190506114cd826114ac565b919050565b5f6114dc826114c0565b9050919050565b6114ec816114d2565b82525050565b5f60e0820190506115055f83018a61141d565b6115126020830189611470565b61151f604083018861141d565b61152c6060830187611470565b61153960808301866114e3565b61154660a083018561141d565b61155360c083018461141d565b98975050505050505050565b5f60a0820190506115725f830188611470565b61157f602083018761141d565b61158c6040830186611470565b61159960608301856114e3565b6115a6608083018461141d565b9695505050505050565b5f82825260208201905092915050565b7f4e6f7420617661696c61626c65000000000000000000000000000000000000005f82015250565b5f6115f4600d836115b0565b91506115ff826115c0565b602082019050919050565b5f6020820190508181035f830152611621816115e8565b9050919050565b5f60208201905061163b5f830184611470565b92915050565b5f8115159050919050565b61165581611641565b811461165f575f80fd5b50565b5f815190506116708161164c565b92915050565b5f6020828403121561168b5761168a611213565b5b5f61169884828501611662565b91505092915050565b7f4b594320726571756972656400000000000000000000000000000000000000005f82015250565b5f6116d5600c836115b0565b91506116e0826116a1565b602082019050919050565b5f6020820190508181035f830152611702816116c9565b9050919050565b7f5061796d656e74206661696c65640000000000000000000000000000000000005f82015250565b5f61173d600e836115b0565b915061174882611709565b602082019050919050565b5f6020820190508181035f83015261176a81611731565b9050919050565b5f6060820190506117845f830186611470565b6117916020830185611470565b61179e604083018461141d565b949350505050565b5f6060820190506117b95f830186611470565b6117c6602083018561141d565b6117d36040830184611470565b949350505050565b5f815190506117e981611365565b92915050565b5f6020828403121561180457611803611213565b5b5f611811848285016117db565b91505092915050565b7f4e6f74204e465469206f776e65720000000000000000000000000000000000005f82015250565b5f61184e600e836115b0565b91506118598261181a565b602082019050919050565b5f6020820190508181035f83015261187b81611842565b9050919050565b7f496e76616c6964207072696365000000000000000000000000000000000000005f82015250565b5f6118b6600d836115b0565b91506118c182611882565b602082019050919050565b5f6020820190508181035f8301526118e3816118aa565b9050919050565b5f6040820190506118fd5f83018561141d565b61190a6020830184611470565b9392505050565b5f819050919050565b61192381611911565b811461192d575f80fd5b50565b5f8151905061193e8161191a565b92915050565b5f6020828403121561195957611958611213565b5b5f61196684828501611930565b91505092915050565b61197881611911565b82525050565b5f6040820190506119915f83018561196f565b61199e6020830184611470565b9392505050565b7f4f70657261746f722072657175697265640000000000000000000000000000005f82015250565b5f6119d96011836115b0565b91506119e4826119a5565b602082019050919050565b5f6020820190508181035f830152611a06816119cd565b9050919050565b7f4e6f7420616374697665206c697374696e6700000000000000000000000000005f82015250565b5f611a416012836115b0565b9150611a4c82611a0d565b602082019050919050565b5f6020820190508181035f830152611a6e81611a35565b9050919050565b7f5265656e7472616e637947756172643a207265656e7472616e742063616c6c005f82015250565b5f611aa9601f836115b0565b9150611ab482611a75565b602082019050919050565b5f6020820190508181035f830152611ad681611a9d565b9050919050565b5f81519050611aeb81611220565b92915050565b5f805f60608486031215611b0857611b07611213565b5b5f611b1586828701611add565b9350506020611b2686828701611add565b9250506040611b37868287016117db565b9150509250925092565b7f4e487b71000000000000000000000000000000000000000000000000000000005f52601160045260245ffd5b5f611b7882611217565b9150611b8383611217565b9250828202611b9181611217565b91508282048414831517611ba857611ba7611b41565b5b5092915050565b7f4e487b71000000000000000000000000000000000000000000000000000000005f52601260045260245ffd5b5f611be682611217565b9150611bf183611217565b925082611c0157611c00611baf565b5b828204905092915050565b5f611c1682611217565b9150611c2183611217565b9250828203905081811115611c3957611c38611b41565b5b92915050565b7f496e73756666696369656e7420455448000000000000000000000000000000005f82015250565b5f611c736010836115b0565b9150611c7e82611c3f565b602082019050919050565b5f6020820190508181035f830152611ca081611c67565b9050919050565b7f5472616e73666572206661696c656400000000000000000000000000000000005f82015250565b5f611cdb600f836115b0565b9150611ce682611ca7565b602082019050919050565b5f6020820190508181035f830152611d0881611ccf565b9050919050565b7f466565207472616e73666572206661696c6564000000000000000000000000005f82015250565b5f611d436013836115b0565b9150611d4e82611d0f565b602082019050919050565b5f6020820190508181035f830152611d7081611d37565b905091905056fea264697066735822122032171ebcf5cbc736ae903e927977efc41b6bc6c300cd6a8d7fe089256c54288264736f6c63430008180033",
					"opcodes": "PUSH1 0xE0 PUSH1 0x40 MSTORE CALLVALUE DUP1 ISZERO PUSH3 0x10 JUMPI PUSH0 DUP1 REVERT JUMPDEST POP PUSH1 0x40 MLOAD PUSH3 0x1FA9 CODESIZE SUB DUP1 PUSH3 0x1FA9 DUP4 CODECOPY DUP2 DUP2 ADD PUSH1 0x40 MSTORE DUP2 ADD SWAP1 PUSH3 0x36 SWAP2 SWAP1 PUSH3 0x147 JUMP JUMPDEST PUSH1 0x1 PUSH0 DUP2 SWAP1 SSTORE POP DUP3 PUSH20 0xFFFFFFFFFFFFFFFFFFFFFFFFFFFFFFFFFFFFFFFF AND PUSH1 0x80 DUP2 PUSH20 0xFFFFFFFFFFFFFFFFFFFFFFFFFFFFFFFFFFFFFFFF AND DUP2 MSTORE POP POP DUP2 PUSH20 0xFFFFFFFFFFFFFFFFFFFFFFFFFFFFFFFFFFFFFFFF AND PUSH1 0xA0 DUP2 PUSH20 0xFFFFFFFFFFFFFFFFFFFFFFFFFFFFFFFFFFFFFFFF AND DUP2 MSTORE POP POP DUP1 PUSH20 0xFFFFFFFFFFFFFFFFFFFFFFFFFFFFFFFFFFFFFFFF AND PUSH1 0xC0 DUP2 PUSH20 0xFFFFFFFFFFFFFFFFFFFFFFFFFFFFFFFFFFFFFFFF AND DUP2 MSTORE POP POP POP POP POP PUSH3 0x1A0 JUMP JUMPDEST PUSH0 DUP1 REVERT JUMPDEST PUSH0 PUSH20 0xFFFFFFFFFFFFFFFFFFFFFFFFFFFFFFFFFFFFFFFF DUP3 AND SWAP1 POP SWAP2 SWAP1 POP JUMP JUMPDEST PUSH0 PUSH3 0x111 DUP3 PUSH3 0xE6 JUMP JUMPDEST SWAP1 POP SWAP2 SWAP1 POP JUMP JUMPDEST PUSH3 0x123 DUP2 PUSH3 0x105 JUMP JUMPDEST DUP2 EQ PUSH3 0x12E JUMPI PUSH0 DUP1 REVERT JUMPDEST POP JUMP JUMPDEST PUSH0 DUP2 MLOAD SWAP1 POP PUSH3 0x141 DUP2 PUSH3 0x118 JUMP JUMPDEST SWAP3 SWAP2 POP POP JUMP JUMPDEST PUSH0 DUP1 PUSH0 PUSH1 0x60 DUP5 DUP7 SUB SLT ISZERO PUSH3 0x161 JUMPI PUSH3 0x160 PUSH3 0xE2 JUMP JUMPDEST JUMPDEST PUSH0 PUSH3 0x170 DUP7 DUP3 DUP8 ADD PUSH3 0x131 JUMP JUMPDEST SWAP4 POP POP PUSH1 0x20 PUSH3 0x183 DUP7 DUP3 DUP8 ADD PUSH3 0x131 JUMP JUMPDEST SWAP3 POP POP PUSH1 0x40 PUSH3 0x196 DUP7 DUP3 DUP8 ADD PUSH3 0x131 JUMP JUMPDEST SWAP2 POP POP SWAP3 POP SWAP3 POP SWAP3 JUMP JUMPDEST PUSH1 0x80 MLOAD PUSH1 0xA0 MLOAD PUSH1 0xC0 MLOAD PUSH2 0x1DAD PUSH3 0x1FC PUSH0 CODECOPY PUSH0 PUSH2 0xC89 ADD MSTORE PUSH0 DUP2 DUP2 PUSH2 0x463 ADD MSTORE DUP2 DUP2 PUSH2 0x5D1 ADD MSTORE PUSH2 0x614 ADD MSTORE PUSH0 DUP2 DUP2 PUSH2 0x2C6 ADD MSTORE DUP2 DUP2 PUSH2 0x5AD ADD MSTORE DUP2 DUP2 PUSH2 0x702 ADD MSTORE DUP2 DUP2 PUSH2 0x9E1 ADD MSTORE DUP2 DUP2 PUSH2 0xA70 ADD MSTORE PUSH2 0xE6D ADD MSTORE PUSH2 0x1DAD PUSH0 RETURN INVALID PUSH1 0x80 PUSH1 0x40 MSTORE PUSH1 0x4 CALLDATASIZE LT PUSH2 0x85 JUMPI PUSH0 CALLDATALOAD PUSH1 0xE0 SHR DUP1 PUSH4 0x887F495A GT PUSH2 0x58 JUMPI DUP1 PUSH4 0x887F495A EQ PUSH2 0x121 JUMPI DUP1 PUSH4 0xAD7BBD5A EQ PUSH2 0x149 JUMPI DUP1 PUSH4 0xCBB9C9A4 EQ PUSH2 0x185 JUMPI DUP1 PUSH4 0xDE74E57B EQ PUSH2 0x1AF JUMPI DUP1 PUSH4 0xFB05DA2E EQ PUSH2 0x1F1 JUMPI PUSH2 0x85 JUMP JUMPDEST DUP1 PUSH4 0x4F843494 EQ PUSH2 0x89 JUMPI DUP1 PUSH4 0x555D3E63 EQ PUSH2 0xA5 JUMPI DUP1 PUSH4 0x592EB924 EQ PUSH2 0xCF JUMPI DUP1 PUSH4 0x86AA217E EQ PUSH2 0xF9 JUMPI JUMPDEST PUSH0 DUP1 REVERT JUMPDEST PUSH2 0xA3 PUSH1 0x4 DUP1 CALLDATASIZE SUB DUP2 ADD SWAP1 PUSH2 0x9E SWAP2 SWAP1 PUSH2 0x124A JUMP JUMPDEST PUSH2 0x231 JUMP JUMPDEST STOP JUMPDEST CALLVALUE DUP1 ISZERO PUSH2 0xB0 JUMPI PUSH0 DUP1 REVERT JUMPDEST POP PUSH2 0xB9 PUSH2 0x5AB JUMP JUMPDEST PUSH1 0x40 MLOAD PUSH2 0xC6 SWAP2 SWAP1 PUSH2 0x1302 JUMP JUMPDEST PUSH1 0x40 MLOAD DUP1 SWAP2 SUB SWAP1 RETURN JUMPDEST CALLVALUE DUP1 ISZERO PUSH2 0xDA JUMPI PUSH0 DUP1 REVERT JUMPDEST POP PUSH2 0xE3 PUSH2 0x5CF JUMP JUMPDEST PUSH1 0x40 MLOAD PUSH2 0xF0 SWAP2 SWAP1 PUSH2 0x133B JUMP JUMPDEST PUSH1 0x40 MLOAD DUP1 SWAP2 SUB SWAP1 RETURN JUMPDEST CALLVALUE DUP1 ISZERO PUSH2 0x104 JUMPI PUSH0 DUP1 REVERT JUMPDEST POP PUSH2 0x11F PUSH1 0x4 DUP1 CALLDATASIZE SUB DUP2 ADD SWAP1 PUSH2 0x11A SWAP2 SWAP1 PUSH2 0x138F JUMP JUMPDEST PUSH2 0x5F3 JUMP JUMPDEST STOP JUMPDEST CALLVALUE DUP1 ISZERO PUSH2 0x12C JUMPI PUSH0 DUP1 REVERT JUMPDEST POP PUSH2 0x147 PUSH1 0x4 DUP1 CALLDATASIZE SUB DUP2 ADD SWAP1 PUSH2 0x142 SWAP2 SWAP1 PUSH2 0x138F JUMP JUMPDEST PUSH2 0x9DE JUMP JUMPDEST STOP JUMPDEST CALLVALUE DUP1 ISZERO PUSH2 0x154 JUMPI PUSH0 DUP1 REVERT JUMPDEST POP PUSH2 0x16F PUSH1 0x4 DUP1 CALLDATASIZE SUB DUP2 ADD SWAP1 PUSH2 0x16A SWAP2 SWAP1 PUSH2 0x13DF JUMP JUMPDEST PUSH2 0xC67 JUMP JUMPDEST PUSH1 0x40 MLOAD PUSH2 0x17C SWAP2 SWAP1 PUSH2 0x142C JUMP JUMPDEST PUSH1 0x40 MLOAD DUP1 SWAP2 SUB SWAP1 RETURN JUMPDEST CALLVALUE DUP1 ISZERO PUSH2 0x190 JUMPI PUSH0 DUP1 REVERT JUMPDEST POP PUSH2 0x199 PUSH2 0xC87 JUMP JUMPDEST PUSH1 0x40 MLOAD PUSH2 0x1A6 SWAP2 SWAP1 PUSH2 0x133B JUMP JUMPDEST PUSH1 0x40 MLOAD DUP1 SWAP2 SUB SWAP1 RETURN JUMPDEST CALLVALUE DUP1 ISZERO PUSH2 0x1BA JUMPI PUSH0 DUP1 REVERT JUMPDEST POP PUSH2 0x1D5 PUSH1 0x4 DUP1 CALLDATASIZE SUB DUP2 ADD SWAP1 PUSH2 0x1D0 SWAP2 SWAP1 PUSH2 0x1445 JUMP JUMPDEST PUSH2 0xCAB JUMP JUMPDEST PUSH1 0x40 MLOAD PUSH2 0x1E8 SWAP8 SWAP7 SWAP6 SWAP5 SWAP4 SWAP3 SWAP2 SWAP1 PUSH2 0x14F2 JUMP JUMPDEST PUSH1 0x40 MLOAD DUP1 SWAP2 SUB SWAP1 RETURN JUMPDEST CALLVALUE DUP1 ISZERO PUSH2 0x1FC JUMPI PUSH0 DUP1 REVERT JUMPDEST POP PUSH2 0x217 PUSH1 0x4 DUP1 CALLDATASIZE SUB DUP2 ADD SWAP1 PUSH2 0x212 SWAP2 SWAP1 PUSH2 0x1445 JUMP JUMPDEST PUSH2 0xD34 JUMP JUMPDEST PUSH1 0x40 MLOAD PUSH2 0x228 SWAP6 SWAP5 SWAP4 SWAP3 SWAP2 SWAP1 PUSH2 0x155F JUMP JUMPDEST PUSH1 0x40 MLOAD DUP1 SWAP2 SUB SWAP1 RETURN JUMPDEST PUSH2 0x239 PUSH2 0xDC5 JUMP JUMPDEST PUSH0 PUSH1 0x1 PUSH0 DUP5 DUP2 MSTORE PUSH1 0x20 ADD SWAP1 DUP2 MSTORE PUSH1 0x20 ADD PUSH0 KECCAK256 SWAP1 POP PUSH0 PUSH1 0x3 DUP2 GT ISZERO PUSH2 0x260 JUMPI PUSH2 0x25F PUSH2 0x147F JUMP JUMPDEST JUMPDEST DUP2 PUSH1 0x3 ADD PUSH1 0x14 SWAP1 SLOAD SWAP1 PUSH2 0x100 EXP SWAP1 DIV PUSH1 0xFF AND PUSH1 0x3 DUP2 GT ISZERO PUSH2 0x284 JUMPI PUSH2 0x283 PUSH2 0x147F JUMP JUMPDEST JUMPDEST EQ PUSH2 0x2C4 JUMPI PUSH1 0x40 MLOAD PUSH32 0x8C379A000000000000000000000000000000000000000000000000000000000 DUP2 MSTORE PUSH1 0x4 ADD PUSH2 0x2BB SWAP1 PUSH2 0x160A JUMP JUMPDEST PUSH1 0x40 MLOAD DUP1 SWAP2 SUB SWAP1 REVERT JUMPDEST PUSH32 0x0 PUSH20 0xFFFFFFFFFFFFFFFFFFFFFFFFFFFFFFFFFFFFFFFF AND PUSH4 0x54B7636E CALLER PUSH1 0x40 MLOAD DUP3 PUSH4 0xFFFFFFFF AND PUSH1 0xE0 SHL DUP2 MSTORE PUSH1 0x4 ADD PUSH2 0x31D SWAP2 SWAP1 PUSH2 0x1628 JUMP JUMPDEST PUSH1 0x20 PUSH1 0x40 MLOAD DUP1 DUP4 SUB DUP2 DUP7 GAS STATICCALL ISZERO DUP1 ISZERO PUSH2 0x338 JUMPI RETURNDATASIZE PUSH0 DUP1 RETURNDATACOPY RETURNDATASIZE PUSH0 REVERT JUMPDEST POP POP POP POP PUSH1 0x40 MLOAD RETURNDATASIZE PUSH1 0x1F NOT PUSH1 0x1F DUP3 ADD AND DUP3 ADD DUP1 PUSH1 0x40 MSTORE POP DUP2 ADD SWAP1 PUSH2 0x35C SWAP2 SWAP1 PUSH2 0x1676 JUMP JUMPDEST PUSH2 0x39B JUMPI PUSH1 0x40 MLOAD PUSH32 0x8C379A000000000000000000000000000000000000000000000000000000000 DUP2 MSTORE PUSH1 0x4 ADD PUSH2 0x392 SWAP1 PUSH2 0x16EB JUMP JUMPDEST PUSH1 0x40 MLOAD DUP1 SWAP2 SUB SWAP1 REVERT JUMPDEST PUSH2 0x3CD DUP2 PUSH1 0x2 ADD SLOAD DUP4 DUP4 PUSH1 0x3 ADD PUSH0 SWAP1 SLOAD SWAP1 PUSH2 0x100 EXP SWAP1 DIV PUSH20 0xFFFFFFFFFFFFFFFFFFFFFFFFFFFFFFFFFFFFFFFF AND PUSH2 0xE12 JUMP JUMPDEST PUSH2 0x40C JUMPI PUSH1 0x40 MLOAD PUSH32 0x8C379A000000000000000000000000000000000000000000000000000000000 DUP2 MSTORE PUSH1 0x4 ADD PUSH2 0x403 SWAP1 PUSH2 0x1753 JUMP JUMPDEST PUSH1 0x40 MLOAD DUP1 SWAP2 SUB SWAP1 REVERT JUMPDEST PUSH2 0x461 DUP2 PUSH1 0x1 ADD PUSH0 SWAP1 SLOAD SWAP1 PUSH2 0x100 EXP SWAP1 DIV PUSH20 0xFFFFFFFFFFFFFFFFFFFFFFFFFFFFFFFFFFFFFFFF AND DUP3 PUSH1 0x2 ADD SLOAD DUP4 PUSH1 0x3 ADD PUSH0 SWAP1 SLOAD SWAP1 PUSH2 0x100 EXP SWAP1 DIV PUSH20 0xFFFFFFFFFFFFFFFFFFFFFFFFFFFFFFFFFFFFFFFF AND PUSH2 0xE69 JUMP JUMPDEST PUSH32 0x0 PUSH20 0xFFFFFFFFFFFFFFFFFFFFFFFFFFFFFFFFFFFFFFFF AND PUSH4 0x23B872DD DUP3 PUSH1 0x1 ADD PUSH0 SWAP1 SLOAD SWAP1 PUSH2 0x100 EXP SWAP1 DIV PUSH20 0xFFFFFFFFFFFFFFFFFFFFFFFFFFFFFFFFFFFFFFFF AND CALLER DUP7 PUSH1 0x40 MLOAD DUP5 PUSH4 0xFFFFFFFF AND PUSH1 0xE0 SHL DUP2 MSTORE PUSH1 0x4 ADD PUSH2 0x4E1 SWAP4 SWAP3 SWAP2 SWAP1 PUSH2 0x1771 JUMP JUMPDEST PUSH0 PUSH1 0x40 MLOAD DUP1 DUP4 SUB DUP2 PUSH0 DUP8 DUP1 EXTCODESIZE ISZERO DUP1 ISZERO PUSH2 0x4F8 JUMPI PUSH0 DUP1 REVERT JUMPDEST POP GAS CALL ISZERO DUP1 ISZERO PUSH2 0x50A JUMPI RETURNDATASIZE PUSH0 DUP1 RETURNDATACOPY RETURNDATASIZE PUSH0 REVERT JUMPDEST POP POP POP POP PUSH1 0x2 DUP2 PUSH1 0x3 ADD PUSH1 0x14 PUSH2 0x100 EXP DUP2 SLOAD DUP2 PUSH1 0xFF MUL NOT AND SWAP1 DUP4 PUSH1 0x3 DUP2 GT ISZERO PUSH2 0x536 JUMPI PUSH2 0x535 PUSH2 0x147F JUMP JUMPDEST JUMPDEST MUL OR SWAP1 SSTORE POP DUP3 PUSH32 0x5BE1CEF2101AFBBF72FCCD811A15CCFDEDC8C44B5F50934100F262FFCD9A1F06 CALLER DUP4 PUSH1 0x2 ADD SLOAD DUP5 PUSH1 0x3 ADD PUSH0 SWAP1 SLOAD SWAP1 PUSH2 0x100 EXP SWAP1 DIV PUSH20 0xFFFFFFFFFFFFFFFFFFFFFFFFFFFFFFFFFFFFFFFF AND PUSH1 0x40 MLOAD PUSH2 0x596 SWAP4 SWAP3 SWAP2 SWAP1 PUSH2 0x17A6 JUMP JUMPDEST PUSH1 0x40 MLOAD DUP1 SWAP2 SUB SWAP1 LOG2 POP PUSH2 0x5A7 PUSH2 0x120A JUMP JUMPDEST POP POP JUMP JUMPDEST PUSH32 0x0 DUP2 JUMP JUMPDEST PUSH32 0x0 DUP2 JUMP JUMPDEST PUSH2 0x5FB PUSH2 0xDC5 JUMP JUMPDEST CALLER PUSH20 0xFFFFFFFFFFFFFFFFFFFFFFFFFFFFFFFFFFFFFFFF AND PUSH32 0x0 PUSH20 0xFFFFFFFFFFFFFFFFFFFFFFFFFFFFFFFFFFFFFFFF AND PUSH4 0x6352211E DUP6 PUSH1 0x40 MLOAD DUP3 PUSH4 0xFFFFFFFF AND PUSH1 0xE0 SHL DUP2 MSTORE PUSH1 0x4 ADD PUSH2 0x66B SWAP2 SWAP1 PUSH2 0x142C JUMP JUMPDEST PUSH1 0x20 PUSH1 0x40 MLOAD DUP1 DUP4 SUB DUP2 DUP7 GAS STATICCALL ISZERO DUP1 ISZERO PUSH2 0x686 JUMPI RETURNDATASIZE PUSH0 DUP1 RETURNDATACOPY RETURNDATASIZE PUSH0 REVERT JUMPDEST POP POP POP POP PUSH1 0x40 MLOAD RETURNDATASIZE PUSH1 0x1F NOT PUSH1 0x1F DUP3 ADD AND DUP3 ADD DUP1 PUSH1 0x40 MSTORE POP DUP2 ADD SWAP1 PUSH2 0x6AA SWAP2 SWAP1 PUSH2 0x17EF JUMP JUMPDEST PUSH20 0xFFFFFFFFFFFFFFFFFFFFFFFFFFFFFFFFFFFFFFFF AND EQ PUSH2 0x700 JUMPI PUSH1 0x40 MLOAD PUSH32 0x8C379A000000000000000000000000000000000000000000000000000000000 DUP2 MSTORE PUSH1 0x4 ADD PUSH2 0x6F7 SWAP1 PUSH2 0x1864 JUMP JUMPDEST PUSH1 0x40 MLOAD DUP1 SWAP2 SUB SWAP1 REVERT JUMPDEST PUSH32 0x0 PUSH20 0xFFFFFFFFFFFFFFFFFFFFFFFFFFFFFFFFFFFFFFFF AND PUSH4 0x54B7636E CALLER PUSH1 0x40 MLOAD DUP3 PUSH4 0xFFFFFFFF AND PUSH1 0xE0 SHL DUP2 MSTORE PUSH1 0x4 ADD PUSH2 0x759 SWAP2 SWAP1 PUSH2 0x1628 JUMP JUMPDEST PUSH1 0x20 PUSH1 0x40 MLOAD DUP1 DUP4 SUB DUP2 DUP7 GAS STATICCALL ISZERO DUP1 ISZERO PUSH2 0x774 JUMPI RETURNDATASIZE PUSH0 DUP1 RETURNDATACOPY RETURNDATASIZE PUSH0 REVERT JUMPDEST POP POP POP POP PUSH1 0x40 MLOAD RETURNDATASIZE PUSH1 0x1F NOT PUSH1 0x1F DUP3 ADD AND DUP3 ADD DUP1 PUSH1 0x40 MSTORE POP DUP2 ADD SWAP1 PUSH2 0x798 SWAP2 SWAP1 PUSH2 0x1676 JUMP JUMPDEST PUSH2 0x7D7 JUMPI PUSH1 0x40 MLOAD PUSH32 0x8C379A000000000000000000000000000000000000000000000000000000000 DUP2 MSTORE PUSH1 0x4 ADD PUSH2 0x7CE SWAP1 PUSH2 0x16EB JUMP JUMPDEST PUSH1 0x40 MLOAD DUP1 SWAP2 SUB SWAP1 REVERT JUMPDEST PUSH0 DUP3 GT PUSH2 0x819 JUMPI PUSH1 0x40 MLOAD PUSH32 0x8C379A000000000000000000000000000000000000000000000000000000000 DUP2 MSTORE PUSH1 0x4 ADD PUSH2 0x810 SWAP1 PUSH2 0x18CC JUMP JUMPDEST PUSH1 0x40 MLOAD DUP1 SWAP2 SUB SWAP1 REVERT JUMPDEST PUSH1 0x40 MLOAD DUP1 PUSH1 0xE0 ADD PUSH1 0x40 MSTORE DUP1 DUP5 DUP2 MSTORE PUSH1 0x20 ADD CALLER PUSH20 0xFFFFFFFFFFFFFFFFFFFFFFFFFFFFFFFFFFFFFFFF AND DUP2 MSTORE PUSH1 0x20 ADD DUP4 DUP2 MSTORE PUSH1 0x20 ADD DUP3 PUSH20 0xFFFFFFFFFFFFFFFFFFFFFFFFFFFFFFFFFFFFFFFF AND DUP2 MSTORE PUSH1 0x20 ADD PUSH0 PUSH1 0x3 DUP2 GT ISZERO PUSH2 0x87B JUMPI PUSH2 0x87A PUSH2 0x147F JUMP JUMPDEST JUMPDEST DUP2 MSTORE PUSH1 0x20 ADD TIMESTAMP DUP2 MSTORE PUSH1 0x20 ADD TIMESTAMP DUP2 MSTORE POP PUSH1 0x1 PUSH0 DUP6 DUP2 MSTORE PUSH1 0x20 ADD SWAP1 DUP2 MSTORE PUSH1 0x20 ADD PUSH0 KECCAK256 PUSH0 DUP3 ADD MLOAD DUP2 PUSH0 ADD SSTORE PUSH1 0x20 DUP3 ADD MLOAD DUP2 PUSH1 0x1 ADD PUSH0 PUSH2 0x100 EXP DUP2 SLOAD DUP2 PUSH20 0xFFFFFFFFFFFFFFFFFFFFFFFFFFFFFFFFFFFFFFFF MUL NOT AND SWAP1 DUP4 PUSH20 0xFFFFFFFFFFFFFFFFFFFFFFFFFFFFFFFFFFFFFFFF AND MUL OR SWAP1 SSTORE POP PUSH1 0x40 DUP3 ADD MLOAD DUP2 PUSH1 0x2 ADD SSTORE PUSH1 0x60 DUP3 ADD MLOAD DUP2 PUSH1 0x3 ADD PUSH0 PUSH2 0x100 EXP DUP2 SLOAD DUP2 PUSH20 0xFFFFFFFFFFFFFFFFFFFFFFFFFFFFFFFFFFFFFFFF MUL NOT AND SWAP1 DUP4 PUSH20 0xFFFFFFFFFFFFFFFFFFFFFFFFFFFFFFFFFFFFFFFF AND MUL OR SWAP1 SSTORE POP PUSH1 0x80 DUP3 ADD MLOAD DUP2 PUSH1 0x3 ADD PUSH1 0x14 PUSH2 0x100 EXP DUP2 SLOAD DUP2 PUSH1 0xFF MUL NOT AND SWAP1 DUP4 PUSH1 0x3 DUP2 GT ISZERO PUSH2 0x964 JUMPI PUSH2 0x963 PUSH2 0x147F JUMP JUMPDEST JUMPDEST MUL OR SWAP1 SSTORE POP PUSH1 0xA0 DUP3 ADD MLOAD DUP2 PUSH1 0x4 ADD SSTORE PUSH1 0xC0 DUP3 ADD MLOAD DUP2 PUSH1 0x5 ADD SSTORE SWAP1 POP POP CALLER PUSH20 0xFFFFFFFFFFFFFFFFFFFFFFFFFFFFFFFFFFFFFFFF AND DUP4 PUSH32 0x2C6C7576542D9307C65E21C836DA28FC580279667BA9E8D5FE56DCA491D59803 DUP5 DUP5 PUSH1 0x40 MLOAD PUSH2 0x9C9 SWAP3 SWAP2 SWAP1 PUSH2 0x18EA JUMP JUMPDEST PUSH1 0x40 MLOAD DUP1 SWAP2 SUB SWAP1 LOG3 PUSH2 0x9D9 PUSH2 0x120A JUMP JUMPDEST POP POP POP JUMP JUMPDEST PUSH0 PUSH32 0x0 PUSH20 0xFFFFFFFFFFFFFFFFFFFFFFFFFFFFFFFFFFFFFFFF AND PUSH4 0xF5B541A6 PUSH1 0x40 MLOAD DUP2 PUSH4 0xFFFFFFFF AND PUSH1 0xE0 SHL DUP2 MSTORE PUSH1 0x4 ADD PUSH1 0x20 PUSH1 0x40 MLOAD DUP1 DUP4 SUB DUP2 DUP7 GAS STATICCALL ISZERO DUP1 ISZERO PUSH2 0xA48 JUMPI RETURNDATASIZE PUSH0 DUP1 RETURNDATACOPY RETURNDATASIZE PUSH0 REVERT JUMPDEST POP POP POP POP PUSH1 0x40 MLOAD RETURNDATASIZE PUSH1 0x1F NOT PUSH1 0x1F DUP3 ADD AND DUP3 ADD DUP1 PUSH1 0x40 MSTORE POP DUP2 ADD SWAP1 PUSH2 0xA6C SWAP2 SWAP1 PUSH2 0x1944 JUMP JUMPDEST SWAP1 POP PUSH32 0x0 PUSH20 0xFFFFFFFFFFFFFFFFFFFFFFFFFFFFFFFFFFFFFFFF AND PUSH4 0x91D14854 DUP3 CALLER PUSH1 0x40 MLOAD DUP4 PUSH4 0xFFFFFFFF AND PUSH1 0xE0 SHL DUP2 MSTORE PUSH1 0x4 ADD PUSH2 0xAC9 SWAP3 SWAP2 SWAP1 PUSH2 0x197E JUMP JUMPDEST PUSH1 0x20 PUSH1 0x40 MLOAD DUP1 DUP4 SUB DUP2 DUP7 GAS STATICCALL ISZERO DUP1 ISZERO PUSH2 0xAE4 JUMPI RETURNDATASIZE PUSH0 DUP1 RETURNDATACOPY RETURNDATASIZE PUSH0 REVERT JUMPDEST POP POP POP POP PUSH1 0x40 MLOAD RETURNDATASIZE PUSH1 0x1F NOT PUSH1 0x1F DUP3 ADD AND DUP3 ADD DUP1 PUSH1 0x40 MSTORE POP DUP2 ADD SWAP1 PUSH2 0xB08 SWAP2 SWAP1 PUSH2 0x1676 JUMP JUMPDEST PUSH2 0xB47 JUMPI PUSH1 0x40 MLOAD PUSH32 0x8C379A000000000000000000000000000000000000000000000000000000000 DUP2 MSTORE PUSH1 0x4 ADD PUSH2 0xB3E SWAP1 PUSH2 0x19EF JUMP JUMPDEST PUSH1 0x40 MLOAD DUP1 SWAP2 SUB SWAP1 REVERT JUMPDEST PUSH0 PUSH1 0x1 PUSH0 DUP7 DUP2 MSTORE PUSH1 0x20 ADD SWAP1 DUP2 MSTORE PUSH1 0x20 ADD PUSH0 KECCAK256 SWAP1 POP PUSH0 PUSH1 0x3 DUP2 GT ISZERO PUSH2 0xB6E JUMPI PUSH2 0xB6D PUSH2 0x147F JUMP JUMPDEST JUMPDEST DUP2 PUSH1 0x3 ADD PUSH1 0x14 SWAP1 SLOAD SWAP1 PUSH2 0x100 EXP SWAP1 DIV PUSH1 0xFF AND PUSH1 0x3 DUP2 GT ISZERO PUSH2 0xB92 JUMPI PUSH2 0xB91 PUSH2 0x147F JUMP JUMPDEST JUMPDEST EQ PUSH2 0xBD2 JUMPI PUSH1 0x40 MLOAD PUSH32 0x8C379A000000000000000000000000000000000000000000000000000000000 DUP2 MSTORE PUSH1 0x4 ADD PUSH2 0xBC9 SWAP1 PUSH2 0x1A57 JUMP JUMPDEST PUSH1 0x40 MLOAD DUP1 SWAP2 SUB SWAP1 REVERT JUMPDEST DUP4 DUP2 PUSH1 0x2 ADD DUP2 SWAP1 SSTORE POP DUP3 DUP2 PUSH1 0x3 ADD PUSH0 PUSH2 0x100 EXP DUP2 SLOAD DUP2 PUSH20 0xFFFFFFFFFFFFFFFFFFFFFFFFFFFFFFFFFFFFFFFF MUL NOT AND SWAP1 DUP4 PUSH20 0xFFFFFFFFFFFFFFFFFFFFFFFFFFFFFFFFFFFFFFFF AND MUL OR SWAP1 SSTORE POP TIMESTAMP DUP2 PUSH1 0x5 ADD DUP2 SWAP1 SSTORE POP DUP5 PUSH32 0xB82CB8D1EE5AA2AF90399F2B0ECE446B81A5F1E601DA16A2A2B62DFCC8BB4BA3 DUP6 DUP6 PUSH1 0x40 MLOAD PUSH2 0xC58 SWAP3 SWAP2 SWAP1 PUSH2 0x18EA JUMP JUMPDEST PUSH1 0x40 MLOAD DUP1 SWAP2 SUB SWAP1 LOG2 POP POP POP POP POP JUMP JUMPDEST PUSH1 0x2 PUSH1 0x20 MSTORE DUP2 PUSH0 MSTORE PUSH1 0x40 PUSH0 KECCAK256 PUSH1 0x20 MSTORE DUP1 PUSH0 MSTORE PUSH1 0x40 PUSH0 KECCAK256 PUSH0 SWAP2 POP SWAP2 POP POP SLOAD DUP2 JUMP JUMPDEST PUSH32 0x0 DUP2 JUMP JUMPDEST PUSH1 0x1 PUSH1 0x20 MSTORE DUP1 PUSH0 MSTORE PUSH1 0x40 PUSH0 KECCAK256 PUSH0 SWAP2 POP SWAP1 POP DUP1 PUSH0 ADD SLOAD SWAP1 DUP1 PUSH1 0x1 ADD PUSH0 SWAP1 SLOAD SWAP1 PUSH2 0x100 EXP SWAP1 DIV PUSH20 0xFFFFFFFFFFFFFFFFFFFFFFFFFFFFFFFFFFFFFFFF AND SWAP1 DUP1 PUSH1 0x2 ADD SLOAD SWAP1 DUP1 PUSH1 0x3 ADD PUSH0 SWAP1 SLOAD SWAP1 PUSH2 0x100 EXP SWAP1 DIV PUSH20 0xFFFFFFFFFFFFFFFFFFFFFFFFFFFFFFFFFFFFFFFF AND SWAP1 DUP1 PUSH1 0x3 ADD PUSH1 0x14 SWAP1 SLOAD SWAP1 PUSH2 0x100 EXP SWAP1 DIV PUSH1 0xFF AND SWAP1 DUP1 PUSH1 0x4 ADD SLOAD SWAP1 DUP1 PUSH1 0x5 ADD SLOAD SWAP1 POP DUP8 JUMP JUMPDEST PUSH0 DUP1 PUSH0 DUP1 PUSH0 DUP1 PUSH1 0x1 PUSH0 DUP9 DUP2 MSTORE PUSH1 0x20 ADD SWAP1 DUP2 MSTORE PUSH1 0x20 ADD PUSH0 KECCAK256 SWAP1 POP DUP1 PUSH1 0x1 ADD PUSH0 SWAP1 SLOAD SWAP1 PUSH2 0x100 EXP SWAP1 DIV PUSH20 0xFFFFFFFFFFFFFFFFFFFFFFFFFFFFFFFFFFFFFFFF AND DUP2 PUSH1 0x2 ADD SLOAD DUP3 PUSH1 0x3 ADD PUSH0 SWAP1 SLOAD SWAP1 PUSH2 0x100 EXP SWAP1 DIV PUSH20 0xFFFFFFFFFFFFFFFFFFFFFFFFFFFFFFFFFFFFFFFF AND DUP4 PUSH1 0x3 ADD PUSH1 0x14 SWAP1 SLOAD SWAP1 PUSH2 0x100 EXP SWAP1 DIV PUSH1 0xFF AND DUP5 PUSH1 0x4 ADD SLOAD SWAP6 POP SWAP6 POP SWAP6 POP SWAP6 POP SWAP6 POP POP SWAP2 SWAP4 SWAP6 SWAP1 SWAP3 SWAP5 POP JUMP JUMPDEST PUSH1 0x2 PUSH0 SLOAD SUB PUSH2 0xE09 JUMPI PUSH1 0x40 MLOAD PUSH32 0x8C379A000000000000000000000000000000000000000000000000000000000 DUP2 MSTORE PUSH1 0x4 ADD PUSH2 0xE00 SWAP1 PUSH2 0x1ABF JUMP JUMPDEST PUSH1 0x40 MLOAD DUP1 SWAP2 SUB SWAP1 REVERT JUMPDEST PUSH1 0x2 PUSH0 DUP2 SWAP1 SSTORE POP JUMP JUMPDEST PUSH0 DUP1 PUSH20 0xFFFFFFFFFFFFFFFFFFFFFFFFFFFFFFFFFFFFFFFF AND DUP3 PUSH20 0xFFFFFFFFFFFFFFFFFFFFFFFFFFFFFFFFFFFFFFFF AND SUB PUSH2 0xE5C JUMPI DUP4 CALLVALUE LT ISZERO DUP1 ISZERO PUSH2 0xE55 JUMPI POP DUP4 DUP4 EQ JUMPDEST SWAP1 POP PUSH2 0xE62 JUMP JUMPDEST DUP4 DUP4 EQ SWAP1 POP JUMPDEST SWAP4 SWAP3 POP POP POP JUMP JUMPDEST PUSH0 DUP1 PUSH32 0x0 PUSH20 0xFFFFFFFFFFFFFFFFFFFFFFFFFFFFFFFFFFFFFFFF AND PUSH4 0x1E5EB1D0 PUSH1 0x40 MLOAD DUP2 PUSH4 0xFFFFFFFF AND PUSH1 0xE0 SHL DUP2 MSTORE PUSH1 0x4 ADD PUSH1 0x60 PUSH1 0x40 MLOAD DUP1 DUP4 SUB DUP2 DUP7 GAS STATICCALL ISZERO DUP1 ISZERO PUSH2 0xED4 JUMPI RETURNDATASIZE PUSH0 DUP1 RETURNDATACOPY RETURNDATASIZE PUSH0 REVERT JUMPDEST POP POP POP POP PUSH1 0x40 MLOAD RETURNDATASIZE PUSH1 0x1F NOT PUSH1 0x1F DUP3 ADD AND DUP3 ADD DUP1 PUSH1 0x40 MSTORE POP DUP2 ADD SWAP1 PUSH2 0xEF8 SWAP2 SWAP1 PUSH2 0x1AF1 JUMP JUMPDEST SWAP3 POP POP SWAP2 POP PUSH0 PUSH2 0x2710 DUP4 DUP7 PUSH2 0xF0D SWAP2 SWAP1 PUSH2 0x1B6E JUMP JUMPDEST PUSH2 0xF17 SWAP2 SWAP1 PUSH2 0x1BDC JUMP JUMPDEST SWAP1 POP PUSH0 DUP2 DUP7 PUSH2 0xF26 SWAP2 SWAP1 PUSH2 0x1C0C JUMP JUMPDEST SWAP1 POP PUSH0 PUSH20 0xFFFFFFFFFFFFFFFFFFFFFFFFFFFFFFFFFFFFFFFF AND DUP6 PUSH20 0xFFFFFFFFFFFFFFFFFFFFFFFFFFFFFFFFFFFFFFFF AND SUB PUSH2 0x1083 JUMPI DUP6 CALLVALUE LT ISZERO PUSH2 0xF9E JUMPI PUSH1 0x40 MLOAD PUSH32 0x8C379A000000000000000000000000000000000000000000000000000000000 DUP2 MSTORE PUSH1 0x4 ADD PUSH2 0xF95 SWAP1 PUSH2 0x1C89 JUMP JUMPDEST PUSH1 0x40 MLOAD DUP1 SWAP2 SUB SWAP1 REVERT JUMPDEST DUP6 CALLVALUE GT ISZERO PUSH2 0xFF6 JUMPI CALLER PUSH20 0xFFFFFFFFFFFFFFFFFFFFFFFFFFFFFFFFFFFFFFFF AND PUSH2 0x8FC DUP8 CALLVALUE PUSH2 0xFCC SWAP2 SWAP1 PUSH2 0x1C0C JUMP JUMPDEST SWAP1 DUP2 ISZERO MUL SWAP1 PUSH1 0x40 MLOAD PUSH0 PUSH1 0x40 MLOAD DUP1 DUP4 SUB DUP2 DUP6 DUP9 DUP9 CALL SWAP4 POP POP POP POP ISZERO DUP1 ISZERO PUSH2 0xFF4 JUMPI RETURNDATASIZE PUSH0 DUP1 RETURNDATACOPY RETURNDATASIZE PUSH0 REVERT JUMPDEST POP JUMPDEST DUP7 PUSH20 0xFFFFFFFFFFFFFFFFFFFFFFFFFFFFFFFFFFFFFFFF AND PUSH2 0x8FC DUP3 SWAP1 DUP2 ISZERO MUL SWAP1 PUSH1 0x40 MLOAD PUSH0 PUSH1 0x40 MLOAD DUP1 DUP4 SUB DUP2 DUP6 DUP9 DUP9 CALL SWAP4 POP POP POP POP ISZERO DUP1 ISZERO PUSH2 0x1039 JUMPI RETURNDATASIZE PUSH0 DUP1 RETURNDATACOPY RETURNDATASIZE PUSH0 REVERT JUMPDEST POP DUP3 PUSH20 0xFFFFFFFFFFFFFFFFFFFFFFFFFFFFFFFFFFFFFFFF AND PUSH2 0x8FC DUP4 SWAP1 DUP2 ISZERO MUL SWAP1 PUSH1 0x40 MLOAD PUSH0 PUSH1 0x40 MLOAD DUP1 DUP4 SUB DUP2 DUP6 DUP9 DUP9 CALL SWAP4 POP POP POP POP ISZERO DUP1 ISZERO PUSH2 0x107D JUMPI RETURNDATASIZE PUSH0 DUP1 RETURNDATACOPY RETURNDATASIZE PUSH0 REVERT JUMPDEST POP PUSH2 0x1201 JUMP JUMPDEST PUSH0 DUP6 SWAP1 POP DUP1 PUSH20 0xFFFFFFFFFFFFFFFFFFFFFFFFFFFFFFFFFFFFFFFF AND PUSH4 0x23B872DD CALLER DUP11 DUP6 PUSH1 0x40 MLOAD DUP5 PUSH4 0xFFFFFFFF AND PUSH1 0xE0 SHL DUP2 MSTORE PUSH1 0x4 ADD PUSH2 0x10C4 SWAP4 SWAP3 SWAP2 SWAP1 PUSH2 0x1771 JUMP JUMPDEST PUSH1 0x20 PUSH1 0x40 MLOAD DUP1 DUP4 SUB DUP2 PUSH0 DUP8 GAS CALL ISZERO DUP1 ISZERO PUSH2 0x10E0 JUMPI RETURNDATASIZE PUSH0 DUP1 RETURNDATACOPY RETURNDATASIZE PUSH0 REVERT JUMPDEST POP POP POP POP PUSH1 0x40 MLOAD RETURNDATASIZE PUSH1 0x1F NOT PUSH1 0x1F DUP3 ADD AND DUP3 ADD DUP1 PUSH1 0x40 MSTORE POP DUP2 ADD SWAP1 PUSH2 0x1104 SWAP2 SWAP1 PUSH2 0x1676 JUMP JUMPDEST PUSH2 0x1143 JUMPI PUSH1 0x40 MLOAD PUSH32 0x8C379A000000000000000000000000000000000000000000000000000000000 DUP2 MSTORE PUSH1 0x4 ADD PUSH2 0x113A SWAP1 PUSH2 0x1CF1 JUMP JUMPDEST PUSH1 0x40 MLOAD DUP1 SWAP2 SUB SWAP1 REVERT JUMPDEST DUP1 PUSH20 0xFFFFFFFFFFFFFFFFFFFFFFFFFFFFFFFFFFFFFFFF AND PUSH4 0x23B872DD CALLER DUP7 DUP7 PUSH1 0x40 MLOAD DUP5 PUSH4 0xFFFFFFFF AND PUSH1 0xE0 SHL DUP2 MSTORE PUSH1 0x4 ADD PUSH2 0x1180 SWAP4 SWAP3 SWAP2 SWAP1 PUSH2 0x1771 JUMP JUMPDEST PUSH1 0x20 PUSH1 0x40 MLOAD DUP1 DUP4 SUB DUP2 PUSH0 DUP8 GAS CALL ISZERO DUP1 ISZERO PUSH2 0x119C JUMPI RETURNDATASIZE PUSH0 DUP1 RETURNDATACOPY RETURNDATASIZE PUSH0 REVERT JUMPDEST POP POP POP POP PUSH1 0x40 MLOAD RETURNDATASIZE PUSH1 0x1F NOT PUSH1 0x1F DUP3 ADD AND DUP3 ADD DUP1 PUSH1 0x40 MSTORE POP DUP2 ADD SWAP1 PUSH2 0x11C0 SWAP2 SWAP1 PUSH2 0x1676 JUMP JUMPDEST PUSH2 0x11FF JUMPI PUSH1 0x40 MLOAD PUSH32 0x8C379A000000000000000000000000000000000000000000000000000000000 DUP2 MSTORE PUSH1 0x4 ADD PUSH2 0x11F6 SWAP1 PUSH2 0x1D59 JUMP JUMPDEST PUSH1 0x40 MLOAD DUP1 SWAP2 SUB SWAP1 REVERT JUMPDEST POP JUMPDEST POP POP POP POP POP POP POP JUMP JUMPDEST PUSH1 0x1 PUSH0 DUP2 SWAP1 SSTORE POP JUMP JUMPDEST PUSH0 DUP1 REVERT JUMPDEST PUSH0 DUP2 SWAP1 POP SWAP2 SWAP1 POP JUMP JUMPDEST PUSH2 0x1229 DUP2 PUSH2 0x1217 JUMP JUMPDEST DUP2 EQ PUSH2 0x1233 JUMPI PUSH0 DUP1 REVERT JUMPDEST POP JUMP JUMPDEST PUSH0 DUP2 CALLDATALOAD SWAP1 POP PUSH2 0x1244 DUP2 PUSH2 0x1220 JUMP JUMPDEST SWAP3 SWAP2 POP POP JUMP JUMPDEST PUSH0 DUP1 PUSH1 0x40 DUP4 DUP6 SUB SLT ISZERO PUSH2 0x1260 JUMPI PUSH2 0x125F PUSH2 0x1213 JUMP JUMPDEST JUMPDEST PUSH0 PUSH2 0x126D DUP6 DUP3 DUP7 ADD PUSH2 0x1236 JUMP JUMPDEST SWAP3 POP POP PUSH1 0x20 PUSH2 0x127E DUP6 DUP3 DUP7 ADD PUSH2 0x1236 JUMP JUMPDEST SWAP2 POP POP SWAP3 POP SWAP3 SWAP1 POP JUMP JUMPDEST PUSH0 PUSH20 0xFFFFFFFFFFFFFFFFFFFFFFFFFFFFFFFFFFFFFFFF DUP3 AND SWAP1 POP SWAP2 SWAP1 POP JUMP JUMPDEST PUSH0 DUP2 SWAP1 POP SWAP2 SWAP1 POP JUMP JUMPDEST PUSH0 PUSH2 0x12CA PUSH2 0x12C5 PUSH2 0x12C0 DUP5 PUSH2 0x1288 JUMP JUMPDEST PUSH2 0x12A7 JUMP JUMPDEST PUSH2 0x1288 JUMP JUMPDEST SWAP1 POP SWAP2 SWAP1 POP JUMP JUMPDEST PUSH0 PUSH2 0x12DB DUP3 PUSH2 0x12B0 JUMP JUMPDEST SWAP1 POP SWAP2 SWAP1 POP JUMP JUMPDEST PUSH0 PUSH2 0x12EC DUP3 PUSH2 0x12D1 JUMP JUMPDEST SWAP1 POP SWAP2 SWAP1 POP JUMP JUMPDEST PUSH2 0x12FC DUP2 PUSH2 0x12E2 JUMP JUMPDEST DUP3 MSTORE POP POP JUMP JUMPDEST PUSH0 PUSH1 0x20 DUP3 ADD SWAP1 POP PUSH2 0x1315 PUSH0 DUP4 ADD DUP5 PUSH2 0x12F3 JUMP JUMPDEST SWAP3 SWAP2 POP POP JUMP JUMPDEST PUSH0 PUSH2 0x1325 DUP3 PUSH2 0x12D1 JUMP JUMPDEST SWAP1 POP SWAP2 SWAP1 POP JUMP JUMPDEST PUSH2 0x1335 DUP2 PUSH2 0x131B JUMP JUMPDEST DUP3 MSTORE POP POP JUMP JUMPDEST PUSH0 PUSH1 0x20 DUP3 ADD SWAP1 POP PUSH2 0x134E PUSH0 DUP4 ADD DUP5 PUSH2 0x132C JUMP JUMPDEST SWAP3 SWAP2 POP POP JUMP JUMPDEST PUSH0 PUSH2 0x135E DUP3 PUSH2 0x1288 JUMP JUMPDEST SWAP1 POP SWAP2 SWAP1 POP JUMP JUMPDEST PUSH2 0x136E DUP2 PUSH2 0x1354 JUMP JUMPDEST DUP2 EQ PUSH2 0x1378 JUMPI PUSH0 DUP1 REVERT JUMPDEST POP JUMP JUMPDEST PUSH0 DUP2 CALLDATALOAD SWAP1 POP PUSH2 0x1389 DUP2 PUSH2 0x1365 JUMP JUMPDEST SWAP3 SWAP2 POP POP JUMP JUMPDEST PUSH0 DUP1 PUSH0 PUSH1 0x60 DUP5 DUP7 SUB SLT ISZERO PUSH2 0x13A6 JUMPI PUSH2 0x13A5 PUSH2 0x1213 JUMP JUMPDEST JUMPDEST PUSH0 PUSH2 0x13B3 DUP7 DUP3 DUP8 ADD PUSH2 0x1236 JUMP JUMPDEST SWAP4 POP POP PUSH1 0x20 PUSH2 0x13C4 DUP7 DUP3 DUP8 ADD PUSH2 0x1236 JUMP JUMPDEST SWAP3 POP POP PUSH1 0x40 PUSH2 0x13D5 DUP7 DUP3 DUP8 ADD PUSH2 0x137B JUMP JUMPDEST SWAP2 POP POP SWAP3 POP SWAP3 POP SWAP3 JUMP JUMPDEST PUSH0 DUP1 PUSH1 0x40 DUP4 DUP6 SUB SLT ISZERO PUSH2 0x13F5 JUMPI PUSH2 0x13F4 PUSH2 0x1213 JUMP JUMPDEST JUMPDEST PUSH0 PUSH2 0x1402 DUP6 DUP3 DUP7 ADD PUSH2 0x137B JUMP JUMPDEST SWAP3 POP POP PUSH1 0x20 PUSH2 0x1413 DUP6 DUP3 DUP7 ADD PUSH2 0x1236 JUMP JUMPDEST SWAP2 POP POP SWAP3 POP SWAP3 SWAP1 POP JUMP JUMPDEST PUSH2 0x1426 DUP2 PUSH2 0x1217 JUMP JUMPDEST DUP3 MSTORE POP POP JUMP JUMPDEST PUSH0 PUSH1 0x20 DUP3 ADD SWAP1 POP PUSH2 0x143F PUSH0 DUP4 ADD DUP5 PUSH2 0x141D JUMP JUMPDEST SWAP3 SWAP2 POP POP JUMP JUMPDEST PUSH0 PUSH1 0x20 DUP3 DUP5 SUB SLT ISZERO PUSH2 0x145A JUMPI PUSH2 0x1459 PUSH2 0x1213 JUMP JUMPDEST JUMPDEST PUSH0 PUSH2 0x1467 DUP5 DUP3 DUP6 ADD PUSH2 0x1236 JUMP JUMPDEST SWAP2 POP POP SWAP3 SWAP2 POP POP JUMP JUMPDEST PUSH2 0x1479 DUP2 PUSH2 0x1354 JUMP JUMPDEST DUP3 MSTORE POP POP JUMP JUMPDEST PUSH32 0x4E487B7100000000000000000000000000000000000000000000000000000000 PUSH0 MSTORE PUSH1 0x21 PUSH1 0x4 MSTORE PUSH1 0x24 PUSH0 REVERT JUMPDEST PUSH1 0x4 DUP2 LT PUSH2 0x14BD JUMPI PUSH2 0x14BC PUSH2 0x147F JUMP JUMPDEST JUMPDEST POP JUMP JUMPDEST PUSH0 DUP2 SWAP1 POP PUSH2 0x14CD DUP3 PUSH2 0x14AC JUMP JUMPDEST SWAP2 SWAP1 POP JUMP JUMPDEST PUSH0 PUSH2 0x14DC DUP3 PUSH2 0x14C0 JUMP JUMPDEST SWAP1 POP SWAP2 SWAP1 POP JUMP JUMPDEST PUSH2 0x14EC DUP2 PUSH2 0x14D2 JUMP JUMPDEST DUP3 MSTORE POP POP JUMP JUMPDEST PUSH0 PUSH1 0xE0 DUP3 ADD SWAP1 POP PUSH2 0x1505 PUSH0 DUP4 ADD DUP11 PUSH2 0x141D JUMP JUMPDEST PUSH2 0x1512 PUSH1 0x20 DUP4 ADD DUP10 PUSH2 0x1470 JUMP JUMPDEST PUSH2 0x151F PUSH1 0x40 DUP4 ADD DUP9 PUSH2 0x141D JUMP JUMPDEST PUSH2 0x152C PUSH1 0x60 DUP4 ADD DUP8 PUSH2 0x1470 JUMP JUMPDEST PUSH2 0x1539 PUSH1 0x80 DUP4 ADD DUP7 PUSH2 0x14E3 JUMP JUMPDEST PUSH2 0x1546 PUSH1 0xA0 DUP4 ADD DUP6 PUSH2 0x141D JUMP JUMPDEST PUSH2 0x1553 PUSH1 0xC0 DUP4 ADD DUP5 PUSH2 0x141D JUMP JUMPDEST SWAP9 SWAP8 POP POP POP POP POP POP POP POP JUMP JUMPDEST PUSH0 PUSH1 0xA0 DUP3 ADD SWAP1 POP PUSH2 0x1572 PUSH0 DUP4 ADD DUP9 PUSH2 0x1470 JUMP JUMPDEST PUSH2 0x157F PUSH1 0x20 DUP4 ADD DUP8 PUSH2 0x141D JUMP JUMPDEST PUSH2 0x158C PUSH1 0x40 DUP4 ADD DUP7 PUSH2 0x1470 JUMP JUMPDEST PUSH2 0x1599 PUSH1 0x60 DUP4 ADD DUP6 PUSH2 0x14E3 JUMP JUMPDEST PUSH2 0x15A6 PUSH1 0x80 DUP4 ADD DUP5 PUSH2 0x141D JUMP JUMPDEST SWAP7 SWAP6 POP POP POP POP POP POP JUMP JUMPDEST PUSH0 DUP3 DUP3 MSTORE PUSH1 0x20 DUP3 ADD SWAP1 POP SWAP3 SWAP2 POP POP JUMP JUMPDEST PUSH32 0x4E6F7420617661696C61626C6500000000000000000000000000000000000000 PUSH0 DUP3 ADD MSTORE POP JUMP JUMPDEST PUSH0 PUSH2 0x15F4 PUSH1 0xD DUP4 PUSH2 0x15B0 JUMP JUMPDEST SWAP2 POP PUSH2 0x15FF DUP3 PUSH2 0x15C0 JUMP JUMPDEST PUSH1 0x20 DUP3 ADD SWAP1 POP SWAP2 SWAP1 POP JUMP JUMPDEST PUSH0 PUSH1 0x20 DUP3 ADD SWAP1 POP DUP2 DUP2 SUB PUSH0 DUP4 ADD MSTORE PUSH2 0x1621 DUP2 PUSH2 0x15E8 JUMP JUMPDEST SWAP1 POP SWAP2 SWAP1 POP JUMP JUMPDEST PUSH0 PUSH1 0x20 DUP3 ADD SWAP1 POP PUSH2 0x163B PUSH0 DUP4 ADD DUP5 PUSH2 0x1470 JUMP JUMPDEST SWAP3 SWAP2 POP POP JUMP JUMPDEST PUSH0 DUP2 ISZERO ISZERO SWAP1 POP SWAP2 SWAP1 POP JUMP JUMPDEST PUSH2 0x1655 DUP2 PUSH2 0x1641 JUMP JUMPDEST DUP2 EQ PUSH2 0x165F JUMPI PUSH0 DUP1 REVERT JUMPDEST POP JUMP JUMPDEST PUSH0 DUP2 MLOAD SWAP1 POP PUSH2 0x1670 DUP2 PUSH2 0x164C JUMP JUMPDEST SWAP3 SWAP2 POP POP JUMP JUMPDEST PUSH0 PUSH1 0x20 DUP3 DUP5 SUB SLT ISZERO PUSH2 0x168B JUMPI PUSH2 0x168A PUSH2 0x1213 JUMP JUMPDEST JUMPDEST PUSH0 PUSH2 0x1698 DUP5 DUP3 DUP6 ADD PUSH2 0x1662 JUMP JUMPDEST SWAP2 POP POP SWAP3 SWAP2 POP POP JUMP JUMPDEST PUSH32 0x4B59432072657175697265640000000000000000000000000000000000000000 PUSH0 DUP3 ADD MSTORE POP JUMP JUMPDEST PUSH0 PUSH2 0x16D5 PUSH1 0xC DUP4 PUSH2 0x15B0 JUMP JUMPDEST SWAP2 POP PUSH2 0x16E0 DUP3 PUSH2 0x16A1 JUMP JUMPDEST PUSH1 0x20 DUP3 ADD SWAP1 POP SWAP2 SWAP1 POP JUMP JUMPDEST PUSH0 PUSH1 0x20 DUP3 ADD SWAP1 POP DUP2 DUP2 SUB PUSH0 DUP4 ADD MSTORE PUSH2 0x1702 DUP2 PUSH2 0x16C9 JUMP JUMPDEST SWAP1 POP SWAP2 SWAP1 POP JUMP JUMPDEST PUSH32 0x5061796D656E74206661696C6564000000000000000000000000000000000000 PUSH0 DUP3 ADD MSTORE POP JUMP JUMPDEST PUSH0 PUSH2 0x173D PUSH1 0xE DUP4 PUSH2 0x15B0 JUMP JUMPDEST SWAP2 POP PUSH2 0x1748 DUP3 PUSH2 0x1709 JUMP JUMPDEST PUSH1 0x20 DUP3 ADD SWAP1 POP SWAP2 SWAP1 POP JUMP JUMPDEST PUSH0 PUSH1 0x20 DUP3 ADD SWAP1 POP DUP2 DUP2 SUB PUSH0 DUP4 ADD MSTORE PUSH2 0x176A DUP2 PUSH2 0x1731 JUMP JUMPDEST SWAP1 POP SWAP2 SWAP1 POP JUMP JUMPDEST PUSH0 PUSH1 0x60 DUP3 ADD SWAP1 POP PUSH2 0x1784 PUSH0 DUP4 ADD DUP7 PUSH2 0x1470 JUMP JUMPDEST PUSH2 0x1791 PUSH1 0x20 DUP4 ADD DUP6 PUSH2 0x1470 JUMP JUMPDEST PUSH2 0x179E PUSH1 0x40 DUP4 ADD DUP5 PUSH2 0x141D JUMP JUMPDEST SWAP5 SWAP4 POP POP POP POP JUMP JUMPDEST PUSH0 PUSH1 0x60 DUP3 ADD SWAP1 POP PUSH2 0x17B9 PUSH0 DUP4 ADD DUP7 PUSH2 0x1470 JUMP JUMPDEST PUSH2 0x17C6 PUSH1 0x20 DUP4 ADD DUP6 PUSH2 0x141D JUMP JUMPDEST PUSH2 0x17D3 PUSH1 0x40 DUP4 ADD DUP5 PUSH2 0x1470 JUMP JUMPDEST SWAP5 SWAP4 POP POP POP POP JUMP JUMPDEST PUSH0 DUP2 MLOAD SWAP1 POP PUSH2 0x17E9 DUP2 PUSH2 0x1365 JUMP JUMPDEST SWAP3 SWAP2 POP POP JUMP JUMPDEST PUSH0 PUSH1 0x20 DUP3 DUP5 SUB SLT ISZERO PUSH2 0x1804 JUMPI PUSH2 0x1803 PUSH2 0x1213 JUMP JUMPDEST JUMPDEST PUSH0 PUSH2 0x1811 DUP5 DUP3 DUP6 ADD PUSH2 0x17DB JUMP JUMPDEST SWAP2 POP POP SWAP3 SWAP2 POP POP JUMP JUMPDEST PUSH32 0x4E6F74204E465469206F776E6572000000000000000000000000000000000000 PUSH0 DUP3 ADD MSTORE POP JUMP JUMPDEST PUSH0 PUSH2 0x184E PUSH1 0xE DUP4 PUSH2 0x15B0 JUMP JUMPDEST SWAP2 POP PUSH2 0x1859 DUP3 PUSH2 0x181A JUMP JUMPDEST PUSH1 0x20 DUP3 ADD SWAP1 POP SWAP2 SWAP1 POP JUMP JUMPDEST PUSH0 PUSH1 0x20 DUP3 ADD SWAP1 POP DUP2 DUP2 SUB PUSH0 DUP4 ADD MSTORE PUSH2 0x187B DUP2 PUSH2 0x1842 JUMP JUMPDEST SWAP1 POP SWAP2 SWAP1 POP JUMP JUMPDEST PUSH32 0x496E76616C696420707269636500000000000000000000000000000000000000 PUSH0 DUP3 ADD MSTORE POP JUMP JUMPDEST PUSH0 PUSH2 0x18B6 PUSH1 0xD DUP4 PUSH2 0x15B0 JUMP JUMPDEST SWAP2 POP PUSH2 0x18C1 DUP3 PUSH2 0x1882 JUMP JUMPDEST PUSH1 0x20 DUP3 ADD SWAP1 POP SWAP2 SWAP1 POP JUMP JUMPDEST PUSH0 PUSH1 0x20 DUP3 ADD SWAP1 POP DUP2 DUP2 SUB PUSH0 DUP4 ADD MSTORE PUSH2 0x18E3 DUP2 PUSH2 0x18AA JUMP JUMPDEST SWAP1 POP SWAP2 SWAP1 POP JUMP JUMPDEST PUSH0 PUSH1 0x40 DUP3 ADD SWAP1 POP PUSH2 0x18FD PUSH0 DUP4 ADD DUP6 PUSH2 0x141D JUMP JUMPDEST PUSH2 0x190A PUSH1 0x20 DUP4 ADD DUP5 PUSH2 0x1470 JUMP JUMPDEST SWAP4 SWAP3 POP POP POP JUMP JUMPDEST PUSH0 DUP2 SWAP1 POP SWAP2 SWAP1 POP JUMP JUMPDEST PUSH2 0x1923 DUP2 PUSH2 0x1911 JUMP JUMPDEST DUP2 EQ PUSH2 0x192D JUMPI PUSH0 DUP1 REVERT JUMPDEST POP JUMP JUMPDEST PUSH0 DUP2 MLOAD SWAP1 POP PUSH2 0x193E DUP2 PUSH2 0x191A JUMP JUMPDEST SWAP3 SWAP2 POP POP JUMP JUMPDEST PUSH0 PUSH1 0x20 DUP3 DUP5 SUB SLT ISZERO PUSH2 0x1959 JUMPI PUSH2 0x1958 PUSH2 0x1213 JUMP JUMPDEST JUMPDEST PUSH0 PUSH2 0x1966 DUP5 DUP3 DUP6 ADD PUSH2 0x1930 JUMP JUMPDEST SWAP2 POP POP SWAP3 SWAP2 POP POP JUMP JUMPDEST PUSH2 0x1978 DUP2 PUSH2 0x1911 JUMP JUMPDEST DUP3 MSTORE POP POP JUMP JUMPDEST PUSH0 PUSH1 0x40 DUP3 ADD SWAP1 POP PUSH2 0x1991 PUSH0 DUP4 ADD DUP6 PUSH2 0x196F JUMP JUMPDEST PUSH2 0x199E PUSH1 0x20 DUP4 ADD DUP5 PUSH2 0x1470 JUMP JUMPDEST SWAP4 SWAP3 POP POP POP JUMP JUMPDEST PUSH32 0x4F70657261746F72207265717569726564000000000000000000000000000000 PUSH0 DUP3 ADD MSTORE POP JUMP JUMPDEST PUSH0 PUSH2 0x19D9 PUSH1 0x11 DUP4 PUSH2 0x15B0 JUMP JUMPDEST SWAP2 POP PUSH2 0x19E4 DUP3 PUSH2 0x19A5 JUMP JUMPDEST PUSH1 0x20 DUP3 ADD SWAP1 POP SWAP2 SWAP1 POP JUMP JUMPDEST PUSH0 PUSH1 0x20 DUP3 ADD SWAP1 POP DUP2 DUP2 SUB PUSH0 DUP4 ADD MSTORE PUSH2 0x1A06 DUP2 PUSH2 0x19CD JUMP JUMPDEST SWAP1 POP SWAP2 SWAP1 POP JUMP JUMPDEST PUSH32 0x4E6F7420616374697665206C697374696E670000000000000000000000000000 PUSH0 DUP3 ADD MSTORE POP JUMP JUMPDEST PUSH0 PUSH2 0x1A41 PUSH1 0x12 DUP4 PUSH2 0x15B0 JUMP JUMPDEST SWAP2 POP PUSH2 0x1A4C DUP3 PUSH2 0x1A0D JUMP JUMPDEST PUSH1 0x20 DUP3 ADD SWAP1 POP SWAP2 SWAP1 POP JUMP JUMPDEST PUSH0 PUSH1 0x20 DUP3 ADD SWAP1 POP DUP2 DUP2 SUB PUSH0 DUP4 ADD MSTORE PUSH2 0x1A6E DUP2 PUSH2 0x1A35 JUMP JUMPDEST SWAP1 POP SWAP2 SWAP1 POP JUMP JUMPDEST PUSH32 0x5265656E7472616E637947756172643A207265656E7472616E742063616C6C00 PUSH0 DUP3 ADD MSTORE POP JUMP JUMPDEST PUSH0 PUSH2 0x1AA9 PUSH1 0x1F DUP4 PUSH2 0x15B0 JUMP JUMPDEST SWAP2 POP PUSH2 0x1AB4 DUP3 PUSH2 0x1A75 JUMP JUMPDEST PUSH1 0x20 DUP3 ADD SWAP1 POP SWAP2 SWAP1 POP JUMP JUMPDEST PUSH0 PUSH1 0x20 DUP3 ADD SWAP1 POP DUP2 DUP2 SUB PUSH0 DUP4 ADD MSTORE PUSH2 0x1AD6 DUP2 PUSH2 0x1A9D JUMP JUMPDEST SWAP1 POP SWAP2 SWAP1 POP JUMP JUMPDEST PUSH0 DUP2 MLOAD SWAP1 POP PUSH2 0x1AEB DUP2 PUSH2 0x1220 JUMP JUMPDEST SWAP3 SWAP2 POP POP JUMP JUMPDEST PUSH0 DUP1 PUSH0 PUSH1 0x60 DUP5 DUP7 SUB SLT ISZERO PUSH2 0x1B08 JUMPI PUSH2 0x1B07 PUSH2 0x1213 JUMP JUMPDEST JUMPDEST PUSH0 PUSH2 0x1B15 DUP7 DUP3 DUP8 ADD PUSH2 0x1ADD JUMP JUMPDEST SWAP4 POP POP PUSH1 0x20 PUSH2 0x1B26 DUP7 DUP3 DUP8 ADD PUSH2 0x1ADD JUMP JUMPDEST SWAP3 POP POP PUSH1 0x40 PUSH2 0x1B37 DUP7 DUP3 DUP8 ADD PUSH2 0x17DB JUMP JUMPDEST SWAP2 POP POP SWAP3 POP SWAP3 POP SWAP3 JUMP JUMPDEST PUSH32 0x4E487B7100000000000000000000000000000000000000000000000000000000 PUSH0 MSTORE PUSH1 0x11 PUSH1 0x4 MSTORE PUSH1 0x24 PUSH0 REVERT JUMPDEST PUSH0 PUSH2 0x1B78 DUP3 PUSH2 0x1217 JUMP JUMPDEST SWAP2 POP PUSH2 0x1B83 DUP4 PUSH2 0x1217 JUMP JUMPDEST SWAP3 POP DUP3 DUP3 MUL PUSH2 0x1B91 DUP2 PUSH2 0x1217 JUMP JUMPDEST SWAP2 POP DUP3 DUP3 DIV DUP5 EQ DUP4 ISZERO OR PUSH2 0x1BA8 JUMPI PUSH2 0x1BA7 PUSH2 0x1B41 JUMP JUMPDEST JUMPDEST POP SWAP3 SWAP2 POP POP JUMP JUMPDEST PUSH32 0x4E487B7100000000000000000000000000000000000000000000000000000000 PUSH0 MSTORE PUSH1 0x12 PUSH1 0x4 MSTORE PUSH1 0x24 PUSH0 REVERT JUMPDEST PUSH0 PUSH2 0x1BE6 DUP3 PUSH2 0x1217 JUMP JUMPDEST SWAP2 POP PUSH2 0x1BF1 DUP4 PUSH2 0x1217 JUMP JUMPDEST SWAP3 POP DUP3 PUSH2 0x1C01 JUMPI PUSH2 0x1C00 PUSH2 0x1BAF JUMP JUMPDEST JUMPDEST DUP3 DUP3 DIV SWAP1 POP SWAP3 SWAP2 POP POP JUMP JUMPDEST PUSH0 PUSH2 0x1C16 DUP3 PUSH2 0x1217 JUMP JUMPDEST SWAP2 POP PUSH2 0x1C21 DUP4 PUSH2 0x1217 JUMP JUMPDEST SWAP3 POP DUP3 DUP3 SUB SWAP1 POP DUP2 DUP2 GT ISZERO PUSH2 0x1C39 JUMPI PUSH2 0x1C38 PUSH2 0x1B41 JUMP JUMPDEST JUMPDEST SWAP3 SWAP2 POP POP JUMP JUMPDEST PUSH32 0x496E73756666696369656E742045544800000000000000000000000000000000 PUSH0 DUP3 ADD MSTORE POP JUMP JUMPDEST PUSH0 PUSH2 0x1C73 PUSH1 0x10 DUP4 PUSH2 0x15B0 JUMP JUMPDEST SWAP2 POP PUSH2 0x1C7E DUP3 PUSH2 0x1C3F JUMP JUMPDEST PUSH1 0x20 DUP3 ADD SWAP1 POP SWAP2 SWAP1 POP JUMP JUMPDEST PUSH0 PUSH1 0x20 DUP3 ADD SWAP1 POP DUP2 DUP2 SUB PUSH0 DUP4 ADD MSTORE PUSH2 0x1CA0 DUP2 PUSH2 0x1C67 JUMP JUMPDEST SWAP1 POP SWAP2 SWAP1 POP JUMP JUMPDEST PUSH32 0x5472616E73666572206661696C65640000000000000000000000000000000000 PUSH0 DUP3 ADD MSTORE POP JUMP JUMPDEST PUSH0 PUSH2 0x1CDB PUSH1 0xF DUP4 PUSH2 0x15B0 JUMP JUMPDEST SWAP2 POP PUSH2 0x1CE6 DUP3 PUSH2 0x1CA7 JUMP JUMPDEST PUSH1 0x20 DUP3 ADD SWAP1 POP SWAP2 SWAP1 POP JUMP JUMPDEST PUSH0 PUSH1 0x20 DUP3 ADD SWAP1 POP DUP2 DUP2 SUB PUSH0 DUP4 ADD MSTORE PUSH2 0x1D08 DUP2 PUSH2 0x1CCF JUMP JUMPDEST SWAP1 POP SWAP2 SWAP1 POP JUMP JUMPDEST PUSH32 0x466565207472616E73666572206661696C656400000000000000000000000000 PUSH0 DUP3 ADD MSTORE POP JUMP JUMPDEST PUSH0 PUSH2 0x1D43 PUSH1 0x13 DUP4 PUSH2 0x15B0 JUMP JUMPDEST SWAP2 POP PUSH2 0x1D4E DUP3 PUSH2 0x1D0F JUMP JUMPDEST PUSH1 0x20 DUP3 ADD SWAP1 POP SWAP2 SWAP1 POP JUMP JUMPDEST PUSH0 PUSH1 0x20 DUP3 ADD SWAP1 POP DUP2 DUP2 SUB PUSH0 DUP4 ADD MSTORE PUSH2 0x1D70 DUP2 PUSH2 0x1D37 JUMP JUMPDEST SWAP1 POP SWAP2 SWAP1 POP JUMP INVALID LOG2 PUSH5 0x6970667358 0x22 SLT KECCAK256 ORIGIN OR 0x1E 0xBC CREATE2 0xCB 0xC7 CALLDATASIZE 0xAE SWAP1 RETURNDATACOPY SWAP3 PUSH26 0x77EFC41B6BC6C300CD6A8D7FE089256C54288264736F6C634300 ADDMOD XOR STOP CALLER "
				},
				"gasEstimates": {
					"creation": {
						"codeDepositCost": "1519400",
						"executionCost": "infinite",
						"totalCost": "infinite"
					},
					"external": {
						"adminControl()": "infinite",
						"getListingDetails(uint256)": "infinite",
						"leaseTerms(address,uint256)": "infinite",
						"listProperty(uint256,uint256,address)": "infinite",
						"listings(uint256)": "infinite",
						"nftiContract()": "infinite",
						"nftmContract()": "infinite",
						"purchaseProperty(uint256,uint256)": "infinite",
						"updateListing(uint256,uint256,address)": "infinite"
					},
					"internal": {
						"_processPayment(address,uint256,address)": "infinite",
						"_validatePayment(uint256,uint256,address)": "116"
					}
				},
				"methodIdentifiers": {
					"adminControl()": "555d3e63",
					"getListingDetails(uint256)": "fb05da2e",
					"leaseTerms(address,uint256)": "ad7bbd5a",
					"listProperty(uint256,uint256,address)": "86aa217e",
					"listings(uint256)": "de74e57b",
					"nftiContract()": "592eb924",
					"nftmContract()": "cbb9c9a4",
					"purchaseProperty(uint256,uint256)": "4f843494",
					"updateListing(uint256,uint256,address)": "887f495a"
				}
			},
			"storageLayout": {
				"storage": [
					{
						"astId": 497,
						"contract": "contracts/market/PropertyMarket.sol:PropertyMarket",
						"label": "_status",
						"offset": 0,
						"slot": "0",
						"type": "t_uint256"
					},
					{
						"astId": 1937,
						"contract": "contracts/market/PropertyMarket.sol:PropertyMarket",
						"label": "listings",
						"offset": 0,
						"slot": "1",
						"type": "t_mapping(t_uint256,t_struct(PropertyListing)1923_storage)"
					},
					{
						"astId": 1943,
						"contract": "contracts/market/PropertyMarket.sol:PropertyMarket",
						"label": "leaseTerms",
						"offset": 0,
						"slot": "2",
						"type": "t_mapping(t_address,t_mapping(t_uint256,t_uint256))"
					}
				],
				"types": {
					"t_address": {
						"encoding": "inplace",
						"label": "address",
						"numberOfBytes": "20"
					},
					"t_enum(PropertyStatus)1907": {
						"encoding": "inplace",
						"label": "enum PropertyMarket.PropertyStatus",
						"numberOfBytes": "1"
					},
					"t_mapping(t_address,t_mapping(t_uint256,t_uint256))": {
						"encoding": "mapping",
						"key": "t_address",
						"label": "mapping(address => mapping(uint256 => uint256))",
						"numberOfBytes": "32",
						"value": "t_mapping(t_uint256,t_uint256)"
					},
					"t_mapping(t_uint256,t_struct(PropertyListing)1923_storage)": {
						"encoding": "mapping",
						"key": "t_uint256",
						"label": "mapping(uint256 => struct PropertyMarket.PropertyListing)",
						"numberOfBytes": "32",
						"value": "t_struct(PropertyListing)1923_storage"
					},
					"t_mapping(t_uint256,t_uint256)": {
						"encoding": "mapping",
						"key": "t_uint256",
						"label": "mapping(uint256 => uint256)",
						"numberOfBytes": "32",
						"value": "t_uint256"
					},
					"t_struct(PropertyListing)1923_storage": {
						"encoding": "inplace",
						"label": "struct PropertyMarket.PropertyListing",
						"members": [
							{
								"astId": 1909,
								"contract": "contracts/market/PropertyMarket.sol:PropertyMarket",
								"label": "tokenId",
								"offset": 0,
								"slot": "0",
								"type": "t_uint256"
							},
							{
								"astId": 1911,
								"contract": "contracts/market/PropertyMarket.sol:PropertyMarket",
								"label": "seller",
								"offset": 0,
								"slot": "1",
								"type": "t_address"
							},
							{
								"astId": 1913,
								"contract": "contracts/market/PropertyMarket.sol:PropertyMarket",
								"label": "price",
								"offset": 0,
								"slot": "2",
								"type": "t_uint256"
							},
							{
								"astId": 1915,
								"contract": "contracts/market/PropertyMarket.sol:PropertyMarket",
								"label": "paymentToken",
								"offset": 0,
								"slot": "3",
								"type": "t_address"
							},
							{
								"astId": 1918,
								"contract": "contracts/market/PropertyMarket.sol:PropertyMarket",
								"label": "status",
								"offset": 20,
								"slot": "3",
								"type": "t_enum(PropertyStatus)1907"
							},
							{
								"astId": 1920,
								"contract": "contracts/market/PropertyMarket.sol:PropertyMarket",
								"label": "listTimestamp",
								"offset": 0,
								"slot": "4",
								"type": "t_uint256"
							},
							{
								"astId": 1922,
								"contract": "contracts/market/PropertyMarket.sol:PropertyMarket",
								"label": "lastRenewed",
								"offset": 0,
								"slot": "5",
								"type": "t_uint256"
							}
						],
						"numberOfBytes": "192"
					},
					"t_uint256": {
						"encoding": "inplace",
						"label": "uint256",
						"numberOfBytes": "32"
					}
				}
			},
			"userdoc": {
				"kind": "user",
				"methods": {},
				"version": 1
			}
		}
	}
}