{"contracts/market/PropertyMarket.sol":{"PropertyMarket":{"abi":[{"inputs":[{"internalType":"address","name":"_nftiAddress","type":"address"},{"internalType":"address","name":"_nftmAddress","type":"address"},{"internalType":"address","name":"initialAdmin","type":"address"},{"internalType":"address","name":"feeCollector","type":"address"},{"internalType":"address","name":"rewardsVault","type":"address"}],"stateMutability":"nonpayable","type":"constructor"},{"anonymous":false,"inputs":[{"indexed":true,"internalType":"bytes32","name":"role","type":"bytes32"},{"indexed":true,"internalType":"address","name":"account","type":"address"},{"indexed":true,"internalType":"address","name":"sender","type":"address"}],"name":"AdminRoleGranted","type":"event"},{"anonymous":false,"inputs":[{"indexed":true,"internalType":"bytes32","name":"role","type":"bytes32"},{"indexed":true,"internalType":"address","name":"account","type":"address"},{"indexed":true,"internalType":"address","name":"sender","type":"address"}],"name":"AdminRoleRevoked","type":"event"},{"anonymous":false,"inputs":[{"indexed":true,"internalType":"uint256","name":"tokenId","type":"uint256"},{"indexed":true,"internalType":"address","name":"seller","type":"address"},{"indexed":true,"internalType":"address","name":"bidder","type":"address"},{"indexed":false,"internalType":"uint256","name":"amount","type":"uint256"},{"indexed":false,"internalType":"address","name":"paymentToken","type":"address"}],"name":"BidAccepted","type":"event"},{"anonymous":false,"inputs":[{"indexed":true,"internalType":"uint256","name":"tokenId","type":"uint256"},{"indexed":true,"internalType":"address","name":"bidder","type":"address"},{"indexed":false,"internalType":"uint256","name":"amount","type":"uint256"}],"name":"BidCancelled","type":"event"},{"anonymous":false,"inputs":[{"indexed":true,"internalType":"uint256","name":"tokenId","type":"uint256"},{"indexed":true,"internalType":"address","name":"bidder","type":"address"},{"indexed":false,"internalType":"uint256","name":"amount","type":"uint256"},{"indexed":false,"internalType":"address","name":"paymentToken","type":"address"}],"name":"BidPlaced","type":"event"},{"anonymous":false,"inputs":[{"indexed":true,"internalType":"address","name":"user","type":"address"},{"indexed":false,"internalType":"uint256","name":"oldScore","type":"uint256"},{"indexed":false,"internalType":"uint256","name":"newScore","type":"uint256"}],"name":"CommunityScoreUpdated","type":"event"},{"anonymous":false,"inputs":[{"indexed":true,"internalType":"uint256","name":"tokenId","type":"uint256"},{"indexed":true,"internalType":"address","name":"user","type":"address"},{"indexed":false,"internalType":"uint256","name":"amount","type":"uint256"}],"name":"EmergencyWithdrawal","type":"event"},{"anonymous":false,"inputs":[{"indexed":false,"internalType":"uint256","name":"oldBaseFee","type":"uint256"},{"indexed":false,"internalType":"uint256","name":"newBaseFee","type":"uint256"},{"indexed":false,"internalType":"uint256","name":"oldMaxFee","type":"uint256"},{"indexed":false,"internalType":"uint256","name":"newMaxFee","type":"uint256"},{"indexed":true,"internalType":"address","name":"admin","type":"address"}],"name":"FeeConfigUpdated","type":"event"},{"anonymous":false,"inputs":[{"indexed":true,"internalType":"address","name":"account","type":"address"},{"indexed":false,"internalType":"bool","name":"approved","type":"bool"}],"name":"KYCStatusUpdated","type":"event"},{"anonymous":false,"inputs":[{"indexed":true,"internalType":"uint256","name":"tokenId","type":"uint256"},{"indexed":false,"internalType":"uint256","name":"oldPrice","type":"uint256"},{"indexed":false,"internalType":"uint256","name":"newPrice","type":"uint256"},{"indexed":false,"internalType":"address","name":"oldToken","type":"address"},{"indexed":false,"internalType":"address","name":"newToken","type":"address"}],"name":"ListingPriceChanged","type":"event"},{"anonymous":false,"inputs":[{"indexed":true,"internalType":"uint256","name":"tokenId","type":"uint256"},{"indexed":false,"internalType":"uint256","name":"newPrice","type":"uint256"},{"indexed":false,"internalType":"address","name":"newPaymentToken","type":"address"}],"name":"ListingUpdated","type":"event"},{"anonymous":false,"inputs":[{"indexed":true,"internalType":"uint256","name":"tokenId","type":"uint256"},{"indexed":true,"internalType":"address","name":"seller","type":"address"},{"indexed":false,"internalType":"uint256","name":"price","type":"uint256"},{"indexed":false,"internalType":"address","name":"paymentToken","type":"address"}],"name":"NewListing","type":"event"},{"anonymous":false,"inputs":[{"indexed":false,"internalType":"address","name":"account","type":"address"}],"name":"Paused","type":"event"},{"anonymous":false,"inputs":[{"indexed":true,"internalType":"address","name":"seller","type":"address"},{"indexed":true,"internalType":"address","name":"buyer","type":"address"},{"indexed":false,"internalType":"uint256","name":"amount","type":"uint256"},{"indexed":false,"internalType":"uint256","name":"fees","type":"uint256"},{"indexed":false,"internalType":"address","name":"paymentToken","type":"address"}],"name":"PaymentProcessed","type":"event"},{"anonymous":false,"inputs":[{"indexed":true,"internalType":"address","name":"token","type":"address"},{"indexed":true,"internalType":"address","name":"operator","type":"address"}],"name":"PaymentTokenAdded","type":"event"},{"anonymous":false,"inputs":[{"indexed":true,"internalType":"address","name":"token","type":"address"},{"indexed":true,"internalType":"address","name":"operator","type":"address"}],"name":"PaymentTokenRemoved","type":"event"},{"anonymous":false,"inputs":[{"indexed":true,"internalType":"uint256","name":"tokenId","type":"uint256"},{"indexed":false,"internalType":"address","name":"buyer","type":"address"},{"indexed":false,"internalType":"uint256","name":"price","type":"uint256"},{"indexed":false,"internalType":"address","name":"paymentToken","type":"address"}],"name":"PropertySold","type":"event"},{"anonymous":false,"inputs":[{"indexed":false,"internalType":"uint256","name":"oldBaseRate","type":"uint256"},{"indexed":false,"internalType":"uint256","name":"newBaseRate","type":"uint256"},{"indexed":false,"internalType":"uint256","name":"oldMultiplier","type":"uint256"},{"indexed":false,"internalType":"uint256","name":"newMultiplier","type":"uint256"},{"indexed":true,"internalType":"address","name":"admin","type":"address"}],"name":"RewardParametersUpdated","type":"event"},{"anonymous":false,"inputs":[{"indexed":true,"internalType":"bytes32","name":"role","type":"bytes32"},{"indexed":true,"internalType":"bytes32","name":"previousAdminRole","type":"bytes32"},{"indexed":true,"internalType":"bytes32","name":"newAdminRole","type":"bytes32"}],"name":"RoleAdminChanged","type":"event"},{"anonymous":false,"inputs":[{"indexed":true,"internalType":"bytes32","name":"role","type":"bytes32"},{"indexed":true,"internalType":"address","name":"account","type":"address"},{"indexed":true,"internalType":"address","name":"sender","type":"address"}],"name":"RoleGranted","type":"event"},{"anonymous":false,"inputs":[{"indexed":true,"internalType":"bytes32","name":"role","type":"bytes32"},{"indexed":true,"internalType":"address","name":"account","type":"address"},{"indexed":true,"internalType":"address","name":"sender","type":"address"}],"name":"RoleRevoked","type":"event"},{"anonymous":false,"inputs":[{"indexed":false,"internalType":"address","name":"account","type":"address"}],"name":"Unpaused","type":"event"},{"anonymous":false,"inputs":[{"indexed":false,"internalType":"bool","name":"enabled","type":"bool"},{"indexed":true,"internalType":"address","name":"operator","type":"address"}],"name":"WhitelistStatusChanged","type":"event"},{"inputs":[],"name":"BASIS_POINTS","outputs":[{"internalType":"uint256","name":"","type":"uint256"}],"stateMutability":"view","type":"function"},{"inputs":[],"name":"DEFAULT_ADMIN_ROLE","outputs":[{"internalType":"bytes32","name":"","type":"bytes32"}],"stateMutability":"view","type":"function"},{"inputs":[],"name":"LEGAL_ROLE","outputs":[{"internalType":"bytes32","name":"","type":"bytes32"}],"stateMutability":"view","type":"function"},{"inputs":[],"name":"MIN_BID_INCREMENT_PERCENT","outputs":[{"internalType":"uint256","name":"","type":"uint256"}],"stateMutability":"view","type":"function"},{"inputs":[],"name":"OPERATOR_ROLE","outputs":[{"internalType":"bytes32","name":"","type":"bytes32"}],"stateMutability":"view","type":"function"},{"inputs":[],"name":"PERCENTAGE_BASE","outputs":[{"internalType":"uint256","name":"","type":"uint256"}],"stateMutability":"view","type":"function"},{"inputs":[],"name":"REWARD_MANAGER","outputs":[{"internalType":"bytes32","name":"","type":"bytes32"}],"stateMutability":"view","type":"function"},{"inputs":[{"internalType":"uint256","name":"tokenId","type":"uint256"},{"internalType":"uint256","name":"bidIndex","type":"uint256"},{"internalType":"address","name":"expectedBidder","type":"address"},{"internalType":"uint256","name":"expectedAmount","type":"uint256"},{"internalType":"address","name":"expectedPaymentToken","type":"address"}],"name":"acceptBid","outputs":[],"stateMutability":"nonpayable","type":"function"},{"inputs":[{"internalType":"address","name":"token","type":"address"}],"name":"addAllowedToken","outputs":[],"stateMutability":"nonpayable","type":"function"},{"inputs":[{"internalType":"address","name":"","type":"address"}],"name":"allowedPaymentTokens","outputs":[{"internalType":"bool","name":"","type":"bool"}],"stateMutability":"view","type":"function"},{"inputs":[{"internalType":"address[]","name":"accounts","type":"address[]"},{"internalType":"bool","name":"approved","type":"bool"}],"name":"batchApproveKYC","outputs":[],"stateMutability":"nonpayable","type":"function"},{"inputs":[{"internalType":"address","name":"","type":"address"},{"internalType":"uint256","name":"","type":"uint256"}],"name":"bidIndexByBidder","outputs":[{"internalType":"uint256","name":"","type":"uint256"}],"stateMutability":"view","type":"function"},{"inputs":[{"internalType":"uint256","name":"","type":"uint256"},{"internalType":"uint256","name":"","type":"uint256"}],"name":"bidsForToken","outputs":[{"internalType":"uint256","name":"tokenId","type":"uint256"},{"internalType":"address","name":"bidder","type":"address"},{"internalType":"uint256","name":"amount","type":"uint256"},{"internalType":"address","name":"paymentToken","type":"address"},{"internalType":"uint256","name":"bidTimestamp","type":"uint256"},{"internalType":"bool","name":"isActive","type":"bool"}],"stateMutability":"view","type":"function"},{"inputs":[{"internalType":"address","name":"user","type":"address"},{"internalType":"uint256","name":"baseAmount","type":"uint256"}],"name":"calculateRewards","outputs":[{"internalType":"uint256","name":"","type":"uint256"}],"stateMutability":"view","type":"function"},{"inputs":[{"internalType":"uint256","name":"tokenId","type":"uint256"}],"name":"cancelBid","outputs":[],"stateMutability":"nonpayable","type":"function"},{"inputs":[{"internalType":"address","name":"","type":"address"}],"name":"communityScores","outputs":[{"internalType":"uint256","name":"","type":"uint256"}],"stateMutability":"view","type":"function"},{"inputs":[{"internalType":"uint256","name":"newBaseRate","type":"uint256"},{"internalType":"uint256","name":"newMultiplier","type":"uint256"},{"internalType":"uint256","name":"newLeaseBonus","type":"uint256"}],"name":"configureRewards","outputs":[],"stateMutability":"nonpayable","type":"function"},{"inputs":[{"internalType":"uint256","name":"functionId","type":"uint256"},{"internalType":"bool","name":"paused","type":"bool"}],"name":"emergencyPauseFunction","outputs":[],"stateMutability":"nonpayable","type":"function"},{"inputs":[{"internalType":"uint256","name":"tokenId","type":"uint256"}],"name":"emergencyWithdrawDeposit","outputs":[],"stateMutability":"nonpayable","type":"function"},{"inputs":[{"internalType":"uint256","name":"","type":"uint256"},{"internalType":"address","name":"","type":"address"}],"name":"ethBidDeposits","outputs":[{"internalType":"uint256","name":"","type":"uint256"}],"stateMutability":"view","type":"function"},{"inputs":[],"name":"feeConfig","outputs":[{"internalType":"uint256","name":"baseFee","type":"uint256"},{"internalType":"uint256","name":"maxFee","type":"uint256"},{"internalType":"address","name":"feeCollector","type":"address"}],"stateMutability":"view","type":"function"},{"inputs":[{"internalType":"uint256","name":"","type":"uint256"}],"name":"functionPaused","outputs":[{"internalType":"bool","name":"","type":"bool"}],"stateMutability":"view","type":"function"},{"inputs":[{"internalType":"uint256","name":"tokenId","type":"uint256"}],"name":"getActiveBidsForToken","outputs":[{"components":[{"internalType":"uint256","name":"tokenId","type":"uint256"},{"internalType":"address","name":"bidder","type":"address"},{"internalType":"uint256","name":"amount","type":"uint256"},{"internalType":"address","name":"paymentToken","type":"address"},{"internalType":"uint256","name":"bidTimestamp","type":"uint256"},{"internalType":"bool","name":"isActive","type":"bool"}],"internalType":"struct PropertyMarket.Bid[]","name":"activeBids","type":"tuple[]"}],"stateMutability":"view","type":"function"},{"inputs":[{"internalType":"uint256","name":"tokenId","type":"uint256"},{"internalType":"uint256","name":"offset","type":"uint256"},{"internalType":"uint256","name":"limit","type":"uint256"}],"name":"getActiveBidsForTokenPaginated","outputs":[{"components":[{"internalType":"uint256","name":"tokenId","type":"uint256"},{"internalType":"address","name":"bidder","type":"address"},{"internalType":"uint256","name":"amount","type":"uint256"},{"internalType":"address","name":"paymentToken","type":"address"},{"internalType":"uint256","name":"bidTimestamp","type":"uint256"},{"internalType":"bool","name":"isActive","type":"bool"}],"internalType":"struct PropertyMarket.Bid[]","name":"activeBids","type":"tuple[]"},{"internalType":"uint256","name":"totalCount","type":"uint256"}],"stateMutability":"view","type":"function"},{"inputs":[{"internalType":"uint256","name":"tokenId","type":"uint256"},{"internalType":"address","name":"bidder","type":"address"}],"name":"getBidFromBidder","outputs":[{"components":[{"internalType":"uint256","name":"tokenId","type":"uint256"},{"internalType":"address","name":"bidder","type":"address"},{"internalType":"uint256","name":"amount","type":"uint256"},{"internalType":"address","name":"paymentToken","type":"address"},{"internalType":"uint256","name":"bidTimestamp","type":"uint256"},{"internalType":"bool","name":"isActive","type":"bool"}],"internalType":"struct PropertyMarket.Bid","name":"","type":"tuple"}],"stateMutability":"view","type":"function"},{"inputs":[],"name":"getCurrentFee","outputs":[{"internalType":"uint256","name":"","type":"uint256"}],"stateMutability":"view","type":"function"},{"inputs":[{"internalType":"uint256","name":"tokenId","type":"uint256"}],"name":"getListingDetails","outputs":[{"internalType":"address","name":"seller","type":"address"},{"internalType":"uint256","name":"price","type":"uint256"},{"internalType":"address","name":"paymentToken","type":"address"},{"internalType":"enum PropertyMarket.PropertyStatus","name":"status","type":"uint8"},{"internalType":"uint256","name":"listTimestamp","type":"uint256"}],"stateMutability":"view","type":"function"},{"inputs":[{"internalType":"bytes32","name":"role","type":"bytes32"}],"name":"getRoleAdmin","outputs":[{"internalType":"bytes32","name":"","type":"bytes32"}],"stateMutability":"view","type":"function"},{"inputs":[],"name":"globalPause","outputs":[],"stateMutability":"nonpayable","type":"function"},{"inputs":[],"name":"globalUnpause","outputs":[],"stateMutability":"nonpayable","type":"function"},{"inputs":[{"internalType":"bytes32","name":"role","type":"bytes32"},{"internalType":"address","name":"account","type":"address"}],"name":"grantRole","outputs":[],"stateMutability":"nonpayable","type":"function"},{"inputs":[{"internalType":"bytes32","name":"role","type":"bytes32"},{"internalType":"address","name":"account","type":"address"}],"name":"hasRole","outputs":[{"internalType":"bool","name":"","type":"bool"}],"stateMutability":"view","type":"function"},{"inputs":[{"internalType":"address","name":"account","type":"address"}],"name":"isKYCVerified","outputs":[{"internalType":"bool","name":"","type":"bool"}],"stateMutability":"view","type":"function"},{"inputs":[{"internalType":"address","name":"token","type":"address"}],"name":"isTokenAllowed","outputs":[{"internalType":"bool","name":"","type":"bool"}],"stateMutability":"view","type":"function"},{"inputs":[{"internalType":"uint256","name":"tokenId","type":"uint256"},{"internalType":"uint256","name":"price","type":"uint256"},{"internalType":"address","name":"paymentToken","type":"address"}],"name":"listProperty","outputs":[],"stateMutability":"nonpayable","type":"function"},{"inputs":[{"internalType":"uint256","name":"","type":"uint256"}],"name":"listings","outputs":[{"internalType":"uint256","name":"tokenId","type":"uint256"},{"internalType":"address","name":"seller","type":"address"},{"internalType":"uint256","name":"price","type":"uint256"},{"internalType":"address","name":"paymentToken","type":"address"},{"internalType":"enum PropertyMarket.PropertyStatus","name":"status","type":"uint8"},{"internalType":"uint256","name":"listTimestamp","type":"uint256"},{"internalType":"uint256","name":"lastRenewed","type":"uint256"}],"stateMutability":"view","type":"function"},{"inputs":[],"name":"nftiContract","outputs":[{"internalType":"contract IERC721","name":"","type":"address"}],"stateMutability":"view","type":"function"},{"inputs":[],"name":"nftmContract","outputs":[{"internalType":"contract IERC721","name":"","type":"address"}],"stateMutability":"view","type":"function"},{"inputs":[],"name":"paused","outputs":[{"internalType":"bool","name":"","type":"bool"}],"stateMutability":"view","type":"function"},{"inputs":[{"internalType":"uint256","name":"tokenId","type":"uint256"},{"internalType":"uint256","name":"bidAmount","type":"uint256"},{"internalType":"address","name":"paymentToken","type":"address"}],"name":"placeBid","outputs":[],"stateMutability":"payable","type":"function"},{"inputs":[{"internalType":"uint256","name":"tokenId","type":"uint256"},{"internalType":"uint256","name":"bidAmount","type":"uint256"},{"internalType":"address","name":"paymentToken","type":"address"}],"name":"placeBidSecure","outputs":[],"stateMutability":"payable","type":"function"},{"inputs":[{"internalType":"uint256","name":"tokenId","type":"uint256"},{"internalType":"uint256","name":"offerPrice","type":"uint256"}],"name":"purchaseProperty","outputs":[],"stateMutability":"payable","type":"function"},{"inputs":[{"internalType":"address","name":"token","type":"address"}],"name":"removeAllowedToken","outputs":[],"stateMutability":"nonpayable","type":"function"},{"inputs":[{"internalType":"bytes32","name":"role","type":"bytes32"},{"internalType":"address","name":"account","type":"address"}],"name":"renounceRole","outputs":[],"stateMutability":"nonpayable","type":"function"},{"inputs":[{"internalType":"bytes32","name":"role","type":"bytes32"},{"internalType":"address","name":"account","type":"address"}],"name":"revokeRole","outputs":[],"stateMutability":"nonpayable","type":"function"},{"inputs":[],"name":"rewardParams","outputs":[{"internalType":"uint256","name":"baseRate","type":"uint256"},{"internalType":"uint256","name":"communityMultiplier","type":"uint256"},{"internalType":"uint256","name":"maxLeaseBonus","type":"uint256"},{"internalType":"address","name":"rewardsVault","type":"address"}],"stateMutability":"view","type":"function"},{"inputs":[{"internalType":"bool","name":"enabled","type":"bool"}],"name":"setWhitelistEnabled","outputs":[],"stateMutability":"nonpayable","type":"function"},{"inputs":[{"internalType":"bytes4","name":"interfaceId","type":"bytes4"}],"name":"supportsInterface","outputs":[{"internalType":"bool","name":"","type":"bool"}],"stateMutability":"view","type":"function"},{"inputs":[{"internalType":"address","name":"user","type":"address"},{"internalType":"uint256","name":"scoreDelta","type":"uint256"},{"internalType":"bool","name":"isAddition","type":"bool"}],"name":"updateCommunityScore","outputs":[],"stateMutability":"nonpayable","type":"function"},{"inputs":[{"internalType":"uint256","name":"newBaseFee","type":"uint256"},{"internalType":"address","name":"newCollector","type":"address"}],"name":"updateFeeConfig","outputs":[],"stateMutability":"nonpayable","type":"function"},{"inputs":[{"internalType":"uint256","name":"tokenId","type":"uint256"},{"internalType":"uint256","name":"newPrice","type":"uint256"},{"internalType":"address","name":"newPaymentToken","type":"address"}],"name":"updateListing","outputs":[],"stateMutability":"nonpayable","type":"function"},{"inputs":[{"internalType":"uint256","name":"tokenId","type":"uint256"},{"internalType":"uint256","name":"newPrice","type":"uint256"},{"internalType":"address","name":"newPaymentToken","type":"address"}],"name":"updateListingBySeller","outputs":[],"stateMutability":"nonpayable","type":"function"},{"inputs":[],"name":"whitelistEnabled","outputs":[{"internalType":"bool","name":"","type":"bool"}],"stateMutability":"view","type":"function"}],"evm":{"bytecode":{"linkReferences":{},"object":"60c0604052600f805460ff191660011790553480156200001e57600080fd5b5060405162005ab038038062005ab08339810160408190526200004191620003f9565b60016000556002805460ff191690558282826001600160a01b038216620000af5760405162461bcd60e51b815260206004820152601d60248201527f496e76616c69642066656520636f6c6c6563746f72206164647265737300000060448201526064015b60405180910390fd5b6001600160a01b038116620001075760405162461bcd60e51b815260206004820152601d60248201527f496e76616c69642072657761726473207661756c7420616464726573730000006044820152606401620000a6565b6001600160a01b0383166200015f5760405162461bcd60e51b815260206004820152601560248201527f496e76616c69642061646d696e206164647265737300000000000000000000006044820152606401620000a6565b6200016a836200025e565b604080516060808201835260c88083526103e860208085018290526001600160a01b039788169486018590526003929092556004819055600580546001600160a01b0319908116909517905584516080810186528181526107d092810183905261012c958101869052959096169490910184905260069490945560079390935560085560098054909216179055506200020385620002f2565b6200020e84620002f2565b50506000805250600e6020527fe710864318d4a32f37d6ce54cb3fadbef648dd12d8dbdf53973564d56b7f881c805460ff191660011790556001600160a01b039182166080521660a052620004b9565b6200026b60008262000354565b620002977f97667070c54ef182b0f5858b034beac1b6f3089aa2d3188bb1e8929f4fa9b9298262000354565b620002c37fb9f13ecb5e7f0f859c44b76b3a163e504787b446da95a26bf75e53e1ff4a1e0e8262000354565b620002ef7f6393fa734211156fcc8c7dda6b0650f5c731d4c838c1db43445a149aa2f5b6fe8262000354565b50565b60408051808201909152601881527f5a65726f2061646472657373206e6f7420616c6c6f776564000000000000000060208201526001600160a01b038216620003505760405162461bcd60e51b8152600401620000a6919062000469565b5050565b60008281526001602090815260408083206001600160a01b038516845290915290205460ff16620003505760008281526001602081815260408084206001600160a01b0386168086529252808420805460ff19169093179092559051339285917f2f8788117e7eff1d82e926ec794901d17c78024a50270940304540a733656f0d9190a45050565b80516001600160a01b0381168114620003f457600080fd5b919050565b600080600080600060a086880312156200041257600080fd5b6200041d86620003dc565b94506200042d60208701620003dc565b93506200043d60408701620003dc565b92506200044d60608701620003dc565b91506200045d60808701620003dc565b90509295509295909350565b600060208083528351808285015260005b8181101562000498578581018301518582016040015282016200047a565b506000604082860101526040601f19601f8301168501019250505092915050565b60805160a0516155ae62000502600039600061092c01526000818161052d01528181610f64015281816116a901528181611c9601528181613307015261385501526155ae6000f3fe60806040526004361061031a5760003560e01c806388f0bc73116101ab578063ce190578116100f7578063e737220911610095578063f5b541a61161006f578063f5b541a614610acd578063f70d936214610aef578063f9eaee0d14610b04578063fb05da2e14610b2457600080fd5b8063e737220914610a75578063ee5b8e0e14610a88578063f12d54d814610ab857600080fd5b8063ddd1a5bf116100d1578063ddd1a5bf146109a3578063de74e57b146109db578063e1f1c4a71461072a578063e58a7b3114610a5557600080fd5b8063ce1905781461094e578063cf23913b14610963578063d547741f1461098357600080fd5b8063a33b2d3f11610164578063bc9968191161013e578063bc9968191461088a578063beb8314c1461089f578063c7921a7c146108bf578063cbb9c9a41461091a57600080fd5b8063a33b2d3f14610829578063ad6561ec14610849578063b10e26a91461085c57600080fd5b806388f0bc73146107605780638e7579a11461078057806390469a9d146107b457806391d14854146107d45780639703ef35146107f4578063a217fddf1461081457600080fd5b8063592eb9241161026a57806373c250c6116102235780637d4e297a116101fd5780637d4e297a146106ea57806386aa217e1461070a57806387c139431461072a578063887f495a1461074057600080fd5b806373c250c61461063b578063763469141461066857806379cef8bd146106bd57600080fd5b8063592eb9241461051b5780635932fdba146105675780635c975abb1461059b5780635dda3e01146105b3578063697d312a146105d357806369fcc6491461060357600080fd5b80632f2ff15d116102d75780634a277ec5116102b15780634a277ec5146104ae5780634f843494146104ce57806351fb012d146104e157806354b7636e146104fb57600080fd5b80632f2ff15d1461044e57806336568abe1461046e5780634178617f1461048e57600080fd5b806301ffc9a71461031f578063052d9e7e146103545780631276291c146103765780631e5eb1d0146103a35780631fb4d31c146103ef578063248a9ca31461040f575b600080fd5b34801561032b57600080fd5b5061033f61033a366004614ef5565b610b92565b60405190151581526020015b60405180910390f35b34801561036057600080fd5b5061037461036f366004614f2d565b610bc9565b005b34801561038257600080fd5b50610396610391366004614f4a565b610c7e565b60405161034b9190614ff2565b3480156103af57600080fd5b506003546004546005546103cb9291906001600160a01b031683565b6040805193845260208401929092526001600160a01b03169082015260600161034b565b3480156103fb57600080fd5b5061037461040a36600461501a565b610e1e565b34801561041b57600080fd5b5061044061042a366004614f4a565b6000908152600160208190526040909120015490565b60405190815260200161034b565b34801561045a57600080fd5b50610374610469366004615053565b6110fd565b34801561047a57600080fd5b50610374610489366004615053565b611160565b34801561049a57600080fd5b506103746104a9366004615083565b6111de565b3480156104ba57600080fd5b506103746104c93660046150a0565b6112e5565b6103746104dc3660046150cc565b611494565b3480156104ed57600080fd5b50600f5461033f9060ff1681565b34801561050757600080fd5b5061033f610516366004615083565b61176a565b34801561052757600080fd5b5061054f7f000000000000000000000000000000000000000000000000000000000000000081565b6040516001600160a01b03909116815260200161034b565b34801561057357600080fd5b506104407f6393fa734211156fcc8c7dda6b0650f5c731d4c838c1db43445a149aa2f5b6fe81565b3480156105a757600080fd5b5060025460ff1661033f565b3480156105bf57600080fd5b506103746105ce3660046150ee565b611777565b3480156105df57600080fd5b5061033f6105ee366004615083565b600e6020526000908152604090205460ff1681565b34801561060f57600080fd5b5061044061061e366004615169565b601360209081526000928352604080842090915290825290205481565b34801561064757600080fd5b50610440610656366004615083565b600c6020526000908152604090205481565b34801561067457600080fd5b50600654600754600854600954610694939291906001600160a01b031684565b604080519485526020850193909352918301526001600160a01b0316606082015260800161034b565b3480156106c957600080fd5b506106dd6106d8366004615053565b611852565b60405161034b9190615195565b3480156106f657600080fd5b50610374610705366004614f4a565b61195c565b34801561071657600080fd5b5061037461072536600461501a565b611b74565b34801561073657600080fd5b5061044061271081565b34801561074c57600080fd5b5061037461075b36600461501a565b611ef0565b34801561076c57600080fd5b5061037461077b366004615053565b6120cd565b34801561078c57600080fd5b506104407fb9f13ecb5e7f0f859c44b76b3a163e504787b446da95a26bf75e53e1ff4a1e0e81565b3480156107c057600080fd5b506103746107cf366004615083565b6121ef565b3480156107e057600080fd5b5061033f6107ef366004615053565b6122ff565b34801561080057600080fd5b5061037461080f366004614f4a565b61232a565b34801561082057600080fd5b50610440600081565b34801561083557600080fd5b506103746108443660046151a3565b612598565b61037461085736600461501a565b61264e565b34801561086857600080fd5b5061087c6108773660046150a0565b612e73565b60405161034b9291906151da565b34801561089657600080fd5b50610440600581565b3480156108ab57600080fd5b506104406108ba366004615169565b6130bd565b3480156108cb57600080fd5b506108df6108da3660046150cc565b613114565b604080519687526001600160a01b039586166020880152860193909352921660608401526080830191909152151560a082015260c00161034b565b34801561092657600080fd5b5061054f7f000000000000000000000000000000000000000000000000000000000000000081565b34801561095a57600080fd5b50610374613177565b34801561096f57600080fd5b5061037461097e3660046151fc565b61318a565b34801561098f57600080fd5b5061037461099e366004615053565b6131b6565b3480156109af57600080fd5b506104406109be366004615053565b601260209081526000928352604080842090915290825290205481565b3480156109e757600080fd5b50610a426109f6366004614f4a565b60106020526000908152604090208054600182015460028301546003840154600485015460059095015493946001600160a01b03938416949293821692600160a01b90920460ff169187565b60405161034b9796959493929190615259565b348015610a6157600080fd5b50610374610a703660046152a0565b613219565b610374610a8336600461501a565b613926565b348015610a9457600080fd5b5061033f610aa3366004614f4a565b600d6020526000908152604090205460ff1681565b348015610ac457600080fd5b50610374613e6a565b348015610ad957600080fd5b5061044060008051602061555983398151915281565b348015610afb57600080fd5b50600354610440565b348015610b1057600080fd5b5061033f610b1f366004615083565b613e7d565b348015610b3057600080fd5b50610b81610b3f366004614f4a565b60009081526010602052604090206001810154600282015460038301546004909301546001600160a01b0392831694919392831692600160a01b900460ff1691565b60405161034b9594939291906152f6565b60006001600160e01b03198216637965db0b60e01b1480610bc357506301ffc9a760e01b6001600160e01b03198316145b92915050565b600080516020615559833981519152610be281336122ff565b6040518060400160405280601181526020017013dc195c985d1bdc881c995c5d5a5c9959607a1b81525090610c335760405162461bcd60e51b8152600401610c2a9190615356565b60405180910390fd5b50600f805460ff191683151590811790915560405190815233907f49d3b7603127f47657003ec050b7aeb0d61d8261082d7807be013894e89373fd9060200160405180910390a25050565b6000818152601160205260408120805460609290815b81811015610cd957838181548110610cae57610cae615389565b600091825260209091206005600690920201015460ff1615610cd1578260010192505b600101610c94565b508167ffffffffffffffff811115610cf357610cf361539f565b604051908082528060200260200182016040528015610d2c57816020015b610d19614eab565b815260200190600190039081610d115790505b5093506000805b82811015610e1457848181548110610d4d57610d4d615389565b600091825260209091206005600690920201015460ff1615610e0c57848181548110610d7b57610d7b615389565b60009182526020918290206040805160c08101825260069093029091018054835260018101546001600160a01b0390811694840194909452600281015491830191909152600381015490921660608201526004820154608082015260059091015460ff16151560a08201528651879084908110610dfa57610dfa615389565b60200260200101819052508160010191505b600101610d33565b5050505050919050565b81610e2881613eb1565b81610e3281613e7d565b60405180604001604052806019815260200160008051602061553983398151915281525090610e745760405162461bcd60e51b8152600401610c2a9190615356565b50600085815260106020526040812090600382810154600160a01b900460ff1690811115610ea457610ea4615221565b1460405180604001604052806013815260200172141c9bdc195c9d1e481b9bdd081b1a5cdd1959606a1b81525090610eef5760405162461bcd60e51b8152600401610c2a9190615356565b50600181015460408051808201909152600e81526d2737ba103a34329039b2b63632b960911b6020820152906001600160a01b03163314610f435760405162461bcd60e51b8152600401610c2a9190615356565b506040516331a9108f60e11b81526004810187905233906001600160a01b037f00000000000000000000000000000000000000000000000000000000000000001690636352211e90602401602060405180830381865afa158015610fab573d6000803e3d6000fd5b505050506040513d601f19601f82011682018060405250810190610fcf91906153b5565b6001600160a01b0316146040518060400160405280600d81526020016c2737ba1027232a1037bbb732b960991b8152509061101d5760405162461bcd60e51b8152600401610c2a9190615356565b50600281018054600383018054928890556001600160a01b038781166001600160a01b03198516179091554260058501556040519192169088907fb82cb8d1ee5aa2af90399f2b0ece446b81a5f1e601da16a2a2b62dfcc8bb4ba390611098908a908a909182526001600160a01b0316602082015260400190565b60405180910390a260408051838152602081018990526001600160a01b038381168284015288166060820152905189917f365e79fa1534844b39f485cadfcee4d3132fe10f0ed8c862d07affd19ec72597919081900360800190a25050505050505050565b6000828152600160208190526040909120015461111981613ef4565b6111238383613efe565b60405133906001600160a01b0384169085907fb754d28367d5b086c81243c886ead0839c92cb5f281e492d7159800bc57d3c1790600090a4505050565b6001600160a01b03811633146111d05760405162461bcd60e51b815260206004820152602f60248201527f416363657373436f6e74726f6c3a2063616e206f6e6c792072656e6f756e636560448201526e103937b632b9903337b91039b2b63360891b6064820152608401610c2a565b6111da8282613f24565b5050565b6000805160206155598339815191526111f781336122ff565b6040518060400160405280601181526020017013dc195c985d1bdc881c995c5d5a5c9959607a1b8152509061123f5760405162461bcd60e51b8152600401610c2a9190615356565b506001600160a01b0382166112965760405162461bcd60e51b815260206004820152601960248201527f45544820697320616c6c6f7765642062792064656661756c74000000000000006044820152606401610c2a565b6001600160a01b0382166000818152600e6020526040808220805460ff19166001179055513392917fb96e353e41685d2c0c71657628655373417f3980dc2e6244ef705db758401d5391a35050565b7f6393fa734211156fcc8c7dda6b0650f5c731d4c838c1db43445a149aa2f5b6fe61130f81613ef4565b6009546001600160a01b031661135f5760405162461bcd60e51b815260206004820152601560248201527414995dd85c991cc81d985d5b1d081b9bdd081cd95d605a1b6044820152606401610c2a565b6107d08411156113a25760405162461bcd60e51b815260206004820152600e60248201526d426173652072617465203e32302560901b6044820152606401610c2a565b6107d08311156113e65760405162461bcd60e51b815260206004820152600f60248201526e4d756c7469706c696572203e32302560881b6044820152606401610c2a565b6101f482111561142a5760405162461bcd60e51b815260206004820152600f60248201526e4c6561736520626f6e7573203e352560881b6044820152606401610c2a565b600680546007805492879055859055600884905560408051828152602081018890529081018390526060810186905290919033907fdf3827857cf8ac45829164bd76e2950687437e15ff8543f477ae73691ee013b1906080015b60405180910390a2505050505050565b61149c613f8b565b604051632a5bb1b760e11b815233600482015230906354b7636e90602401602060405180830381865afa1580156114d7573d6000803e3d6000fd5b505050506040513d601f19601f820116820180604052508101906114fb91906153d2565b6040518060400160405280600c81526020016b12d650c81c995c5d5a5c995960a21b8152509061153e5760405162461bcd60e51b8152600401610c2a9190615356565b508061154981613eb1565b600083815260106020526040812090600382810154600160a01b900460ff169081111561157857611578615221565b146040518060400160405280600d81526020016c4e6f7420617661696c61626c6560981b815250906115bd5760405162461bcd60e51b8152600401610c2a9190615356565b50600281015460038201546115dd919085906001600160a01b0316613fe4565b6040518060400160405280600e81526020016d14185e5b595b9d0819985a5b195960921b815250906116225760405162461bcd60e51b8152600401610c2a9190615356565b5060038101805460ff60a01b1916600160a11b1790556116418461402b565b60018101546002820154600383015461166a926001600160a01b039081169233929091166141b1565b6001810154604051635c46a7ef60e11b81526001600160a01b0391821660048201523360248201526044810186905260806064820152600060848201527f00000000000000000000000000000000000000000000000000000000000000009091169063b88d4fde9060a401600060405180830381600087803b1580156116ef57600080fd5b505af1158015611703573d6000803e3d6000fd5b50505050600281015460038201546040805133815260208101939093526001600160a01b039091169082015284907f5be1cef2101afbbf72fccd811a15ccfdedc8c44b5f50934100f262ffcd9a1f069060600160405180910390a250506111da6001600055565b6000610bc3600a836141e8565b7fb9f13ecb5e7f0f859c44b76b3a163e504787b446da95a26bf75e53e1ff4a1e0e6117a181613ef4565b8260005b8181101561184a5760008686838181106117c1576117c1615389565b90506020020160208101906117d69190615083565b905084156117ef576117e9600a8261420a565b506117fc565b6117fa600a8261421f565b505b806001600160a01b03167f2df1cad2a2659e001c3804c872f69655356013e35c18c2e77a5d568078ab788f86604051611839911515815260200190565b60405180910390a2506001016117a5565b505050505050565b61185a614eab565b6001600160a01b0382166000908152601360209081526040808320868452909152812054908190036118bf5750506040805160c081018252600080825260208201819052918101829052606081018290526080810182905260a0810191909152610bc3565b60008481526011602052604090206118d8600183615405565b815481106118e8576118e8615389565b60009182526020918290206040805160c08101825260069093029091018054835260018101546001600160a01b0390811694840194909452600281015491830191909152600381015490921660608201526004820154608082015260059091015460ff16151560a082015291505092915050565b611964613f8b565b60008181526012602090815260408083203384528252918290205482518084019093526014835273496e73756666696369656e742062616c616e636560601b9183019190915290816119c95760405162461bcd60e51b8152600401610c2a9190615356565b503360009081526013602090815260408083208584529091529020548015611a7e576000838152601160205260408120611a04600184615405565b81548110611a1457611a14615389565b60009182526020909120600690910201600581015490915060ff1615611a7c5760405162461bcd60e51b815260206004820152601f60248201527f43616e6e6f7420776974686472617720776974682061637469766520626964006044820152606401610c2a565b505b6000838152601260209081526040808320338085529252808320839055516108fc90859084818181858888f193505050503d8060008114611adb576040519150601f19603f3d011682016040523d82523d6000602084013e611ae0565b606091505b50509050806040518060400160405280600f81526020016e151c985b9cd9995c8819985a5b1959608a1b81525090611b2b5760405162461bcd60e51b8152600401610c2a9190615356565b50604051838152339085907f18fcb562d23857df60e33824b748cb5c3af4e22375458317e7a33e52a971413f906020015b60405180910390a3505050611b716001600055565b50565b611b7c613f8b565b604051632a5bb1b760e11b815233600482015230906354b7636e90602401602060405180830381865afa158015611bb7573d6000803e3d6000fd5b505050506040513d601f19601f82011682018060405250810190611bdb91906153d2565b6040518060400160405280600c81526020016b12d650c81c995c5d5a5c995960a21b81525090611c1e5760405162461bcd60e51b8152600401610c2a9190615356565b5080611c2981613e7d565b60405180604001604052806019815260200160008051602061553983398151915281525090611c6b5760405162461bcd60e51b8152600401610c2a9190615356565b5082611c7681613eb1565b6040516331a9108f60e11b81526004810186905233906001600160a01b037f00000000000000000000000000000000000000000000000000000000000000001690636352211e90602401602060405180830381865afa158015611cdd573d6000803e3d6000fd5b505050506040513d601f19601f82011682018060405250810190611d0191906153b5565b6001600160a01b0316146040518060400160405280600d81526020016c2737ba1027232a1037bbb732b960991b81525090611d4f5760405162461bcd60e51b8152600401610c2a9190615356565b50600080868152601060205260409020600390810154600160a01b900460ff1690811115611d7f57611d7f615221565b14156040518060400160405280600e81526020016d105b1c9958591e481b1a5cdd195960921b81525090611dc65760405162461bcd60e51b8152600401610c2a9190615356565b506040805160e0810182528681523360208083019182528284018881526001600160a01b03888116606086019081526000608087018181524260a0890181905260c08901528d82526010909552969096208551815593516001850180549183166001600160a01b031992831617905591516002850155945160038085018054929097169282168317875592519495939493926001600160a81b031990911690911790600160a01b908490811115611e7f57611e7f615221565b021790555060a0820151600482015560c090910151600590910155604080518581526001600160a01b0385166020820152339187917f2c6c7576542d9307c65e21c836da28fc580279667ba9e8d5fe56dca491d59803910160405180910390a35050611eeb6001600055565b505050565b600080516020615559833981519152611f0981336122ff565b6040518060400160405280601181526020017013dc195c985d1bdc881c995c5d5a5c9959607a1b81525090611f515760405162461bcd60e51b8152600401610c2a9190615356565b50600084815260106020526040812090600382810154600160a01b900460ff1690811115611f8157611f81615221565b1460405180604001604052806013815260200172141c9bdc195c9d1e481b9bdd081b1a5cdd1959606a1b81525090611fcc5760405162461bcd60e51b8152600401610c2a9190615356565b5060408051808201909152600d81526c496e76616c696420707269636560981b60208201528461200f5760405162461bcd60e51b8152600401610c2a9190615356565b5061201983613e7d565b6040518060400160405280601981526020016000805160206155398339815191528152509061205b5760405162461bcd60e51b8152600401610c2a9190615356565b50600281018490556003810180546001600160a01b0319166001600160a01b03851690811790915542600583015560408051868152602081019290925286917fb82cb8d1ee5aa2af90399f2b0ece446b81a5f1e601da16a2a2b62dfcc8bb4ba391015b60405180910390a25050505050565b6000805160206155598339815191526120e581613ef4565b6001600160a01b03821661213b5760405162461bcd60e51b815260206004820152601d60248201527f496e76616c69642066656520636f6c6c6563746f7220616464726573730000006044820152606401610c2a565b60045483111561217f5760405162461bcd60e51b815260206004820152600f60248201526e45786365656473206d61782066656560881b6044820152606401610c2a565b6003805460045491859055600580546001600160a01b0319166001600160a01b03861617905560408051828152602081018790529081018390526060810183905290919033907f7c08ec61bfdc4469c5f8ec2332c513ac1e0980475856efedf21da74933485447906080016120be565b60008051602061555983398151915261220881336122ff565b6040518060400160405280601181526020017013dc195c985d1bdc881c995c5d5a5c9959607a1b815250906122505760405162461bcd60e51b8152600401610c2a9190615356565b506001600160a01b0382166122b35760405162461bcd60e51b815260206004820152602360248201527f43616e6e6f742072656d6f766520455448206173207061796d656e74206d65746044820152621a1bd960ea1b6064820152608401610c2a565b6001600160a01b0382166000818152600e6020526040808220805460ff19169055513392917ff26a45171a2cee53dc4409f66880ab4bd14f52dc6412965780895ca64abfa92391a35050565b60009182526001602090815260408084206001600160a01b0393909316845291905290205460ff1690565b612332613f8b565b33600090815260136020818152604080842085855282529283902054835180850190945291835272139bc81858dd1a5d9948189a5908199bdd5b99606a1b9083015290816123935760405162461bcd60e51b8152600401610c2a9190615356565b5060008281526011602052604081206123ad600184615405565b815481106123bd576123bd615389565b906000526020600020906006020190508060050160009054906101000a900460ff1660405180604001604052806011815260200170426964206973206e6f742061637469766560781b815250906124275760405162461bcd60e51b8152600401610c2a9190615356565b50600181015460408051808201909152600c81526b139bdd081e5bdd5c88189a5960a21b6020820152906001600160a01b031633146124795760405162461bcd60e51b8152600401610c2a9190615356565b5060058101805460ff19169055336000818152601360209081526040808320878452825280832083905560128252808320938352929052908120805491905580156125585760405160009033906108fc90849084818181858888f193505050503d8060008114612505576040519150601f19603f3d011682016040523d82523d6000602084013e61250a565b606091505b50509050806040518060400160405280600f81526020016e151c985b9cd9995c8819985a5b1959608a1b815250906125555760405162461bcd60e51b8152600401610c2a9190615356565b50505b336001600160a01b0316847faf2f02012ea1953fe9293dd4a8bb5194c96792324f9385297c991c2cfeade3d98460020154604051611b5c91815260200190565b6000805160206155598339815191526125b081613ef4565b6001600160a01b0384166000908152600c60205260408120549083156125e1576125da8583615418565b90506125fc565b8482116125ef5760006125f9565b6125f98583615405565b90505b6001600160a01b0386166000818152600c602090815260409182902084905581518581529081018490527f7681c9bc4703daadfdfbfae0bd1c828b4619e58101f0e8a5404f70e93c6286639101611484565b612656613f8b565b604051632a5bb1b760e11b815233600482015230906354b7636e90602401602060405180830381865afa158015612691573d6000803e3d6000fd5b505050506040513d601f19601f820116820180604052508101906126b591906153d2565b6040518060400160405280600c81526020016b12d650c81c995c5d5a5c995960a21b815250906126f85760405162461bcd60e51b8152600401610c2a9190615356565b508061270381613e7d565b604051806040016040528060198152602001600080516020615539833981519152815250906127455760405162461bcd60e51b8152600401610c2a9190615356565b508261275081613eb1565b600085815260106020526040812090600382810154600160a01b900460ff169081111561277f5761277f615221565b1460405180604001604052806013815260200172141c9bdc195c9d1e481b9bdd081b1a5cdd1959606a1b815250906127ca5760405162461bcd60e51b8152600401610c2a9190615356565b50600181015460408051808201909152601e81527f43616e6e6f7420626964206f6e20796f7572206f776e206c697374696e6700006020820152906001600160a01b0316330361282d5760405162461bcd60e51b8152600401610c2a9190615356565b503360009081526013602090815260408083208984529091529020546001600160a01b0385166128d05785341461289c5760405162461bcd60e51b815260206004820152601360248201527208aa89040c2dadeeadce840dad2e6dac2e8c6d606b1b6044820152606401610c2a565b6000878152601260209081526040808320338452909152812080543492906128c5908490615418565b909155506129989050565b604051636eb1769f60e11b815233600482015230602482015285906000906001600160a01b0383169063dd62ed3e90604401602060405180830381865afa15801561291f573d6000803e3d6000fd5b505050506040513d601f19601f82011682018060405250810190612943919061542b565b9050878110156129955760405162461bcd60e51b815260206004820152601c60248201527f496e73756666696369656e7420746f6b656e20616c6c6f77616e6365000000006044820152606401610c2a565b50505b81600201548610156129ec5760405162461bcd60e51b815260206004820152601b60248201527f426964206d757374206d656574206c697374696e6720707269636500000000006044820152606401610c2a565b6000878152601160205260408120815b8154811015612a9a57818181548110612a1757612a17615389565b600091825260209091206005600690920201015460ff168015612a5c575082828281548110612a4857612a48615389565b906000526020600020906006020160020154115b15612a8857818181548110612a7357612a73615389565b90600052602060002090600602016002015492505b80612a9281615444565b9150506129fc565b508115612b2b5760006064612ab0600582615418565b612aba908561545d565b612ac49190615474565b905080891015612b295760405162461bcd60e51b815260206004820152602a60248201527f426964206d75737420626520352520686967686572207468616e2063757272656044820152691b9d081a1a59da195cdd60b21b6064820152608401610c2a565b505b8215612cae576000898152601160205260408120612b4a600186615405565b81548110612b5a57612b5a615389565b60009182526020909120600690910201600581015490915060ff16612bb55760405162461bcd60e51b8152602060048201526011602482015270426964206973206e6f742061637469766560781b6044820152606401610c2a565b60038101546001600160a01b03898116911614612c145760405162461bcd60e51b815260206004820152601b60248201527f43616e6e6f74206368616e6765207061796d656e7420746f6b656e00000000006044820152606401610c2a565b60006064612c23600582615418565b8360020154612c32919061545d565b612c3c9190615474565b9050808a1015612c9a5760405162461bcd60e51b815260206004820152602360248201527f426964206d75737420626520352520686967686572207468616e2070726576696044820152626f757360e81b6064820152608401610c2a565b506002810189905542600490910155612e1e565b60006040518060c001604052808b8152602001336001600160a01b031681526020018a8152602001896001600160a01b03168152602001428152602001600115158152509050601160008b81526020019081526020016000208190806001815401808255809150506001900390600052602060002090600602016000909190919091506000820151816000015560208201518160010160006101000a8154816001600160a01b0302191690836001600160a01b031602179055506040820151816002015560608201518160030160006101000a8154816001600160a01b0302191690836001600160a01b031602179055506080820151816004015560a08201518160050160006101000a81548160ff0219169083151502179055505050601160008b81526020019081526020016000208054905060136000336001600160a01b03166001600160a01b0316815260200190815260200160002060008c815260200190815260200160002081905550505b604080518981526001600160a01b038916602082015233918b917fe30abccebb20a387be8e75e927d7e06ce1bf9d77bb3888516663bdc8995fb334910160405180910390a3505050505050611eeb6001600055565b600083815260116020526040812060609190815b8154811015612ede57818181548110612ea257612ea2615389565b600091825260209091206005600690920201015460ff1615612ecc5782612ec881615444565b9350505b80612ed681615444565b915050612e87565b5083828610612f22576040805160008082526020820190925290612f18565b612f05614eab565b815260200190600190039081612efd5790505b50935050506130b5565b82612f2d8688615418565b1115612f4057612f3d8684615405565b90505b8067ffffffffffffffff811115612f5957612f5961539f565b604051908082528060200260200182016040528015612f9257816020015b612f7f614eab565b815260200190600190039081612f775790505b50935060008060005b845481108015612faa57508382105b156130af57848181548110612fc157612fc1615389565b600091825260209091206005600690920201015460ff161561309d5788831061308f57848181548110612ff657612ff6615389565b60009182526020918290206040805160c08101825260069093029091018054835260018101546001600160a01b0390811694840194909452600281015491830191909152600381015490921660608201526004820154608082015260059091015460ff16151560a0820152875188908490811061307557613075615389565b6020026020010181905250818061308b90615444565b9250505b8261309981615444565b9350505b806130a781615444565b915050612f9b565b50505050505b935093915050565b6000806130c960085490565b905060006130d685614234565b905061271081836006600001546130ed9190615418565b6130f79190615418565b613101908661545d565b61310b9190615474565b95945050505050565b6011602052816000526040600020818154811061313057600080fd5b60009182526020909120600690910201805460018201546002830154600384015460048501546005909501549396506001600160a01b039283169550909391169160ff1686565b600061318281613ef4565b611b71614266565b600061319581613ef4565b506000918252600d6020526040909120805460ff1916911515919091179055565b600082815260016020819052604090912001546131d281613ef4565b6131dc83836142b8565b60405133906001600160a01b0384169085907f77a3124d5a7fb118ef3bd073fd7ee2c762b24256db96ace524ecd6b6cf11415c90600090a4505050565b613221613f8b565b600085815260106020526040812090600382810154600160a01b900460ff169081111561325057613250615221565b146132935760405162461bcd60e51b8152602060048201526013602482015272141c9bdc195c9d1e481b9bdd081b1a5cdd1959606a1b6044820152606401610c2a565b600181015460408051808201909152600e81526d2737ba103a34329039b2b63632b960911b6020820152906001600160a01b031633146132e65760405162461bcd60e51b8152600401610c2a9190615356565b506040516331a9108f60e11b81526004810187905233906001600160a01b037f00000000000000000000000000000000000000000000000000000000000000001690636352211e90602401602060405180830381865afa15801561334e573d6000803e3d6000fd5b505050506040513d601f19601f8201168201806040525081019061337291906153b5565b6001600160a01b0316146040518060400160405280600d81526020016c2737ba1027232a1037bbb732b960991b815250906133c05760405162461bcd60e51b8152600401610c2a9190615356565b50604080518082019091526011815270092dcecc2d8d2c840c4d2c840d2dcc8caf607b1b6020820152856134075760405162461bcd60e51b8152600401610c2a9190615356565b5060008681526011602081815260409283902054835180850190945291835270092dcecc2d8d2c840c4d2c840d2dcc8caf607b1b9083015286111561345f5760405162461bcd60e51b8152600401610c2a9190615356565b506000868152601160205260409020546134af5760405162461bcd60e51b81526020600482015260116024820152704e6f206269647320617661696c61626c6560781b6044820152606401610c2a565b60008681526011602052604081206134c8600188615405565b815481106134d8576134d8615389565b906000526020600020906006020190508060050160009054906101000a900460ff1660405180604001604052806011815260200170426964206973206e6f742061637469766560781b815250906135425760405162461bcd60e51b8152600401610c2a9190615356565b50600181015460408051808201909152600f81526e084d2c8c8cae440dad2e6dac2e8c6d608b1b6020820152906001600160a01b0387811691161461359a5760405162461bcd60e51b8152600401610c2a9190615356565b50838160020154146040518060400160405280600f81526020016e082dadeeadce840dad2e6dac2e8c6d608b1b815250906135e85760405162461bcd60e51b8152600401610c2a9190615356565b5060038101546040805180820190915260168152750a0c2f2dacadce840e8ded6cadc40dad2e6dac2e8c6d60531b6020820152906001600160a01b038581169116146136475760405162461bcd60e51b8152600401610c2a9190615356565b5060038201805460ff60a01b1916600160a11b17905560058101805460ff191690556001810180546001600160a01b0390811660009081526013602090815260408083208c84528252808320839055601282528083209454909316825292909252812080549190556136b88861402b565b60038201546001600160a01b03166137e157816002015481101560405180604001604052806014815260200173496e73756666696369656e742062616c616e636560601b8152509061371d5760405162461bcd60e51b8152600401610c2a9190615356565b5060008260020154826137309190615405565b905080156137df5760018301546040516000916001600160a01b0316906108fc90849084818181858888f193505050503d806000811461378c576040519150601f19603f3d011682016040523d82523d6000602084013e613791565b606091505b50509050806040518060400160405280600f81526020016e151c985b9cd9995c8819985a5b1959608a1b815250906137dc5760405162461bcd60e51b8152600401610c2a9190615356565b50505b505b600180840154908301546002840154600385015461380f936001600160a01b039081169381169291166141b1565b60018381015490830154604051635c46a7ef60e11b81526001600160a01b0392831660048201529082166024820152604481018a905260806064820152600060848201527f00000000000000000000000000000000000000000000000000000000000000009091169063b88d4fde9060a401600060405180830381600087803b15801561389b57600080fd5b505af11580156138af573d6000803e3d6000fd5b505050506001828101549084015460028401546003850154604080519283526001600160a01b039182166020840152938116939216918b917ffd9d7289c0b47546fff41663663c2372aa45809b7ab87d908e443a3821cb5b4e910160405180910390a450505061391f6001600055565b5050505050565b61392e613f8b565b604051632a5bb1b760e11b815233600482015230906354b7636e90602401602060405180830381865afa158015613969573d6000803e3d6000fd5b505050506040513d601f19601f8201168201806040525081019061398d91906153d2565b6040518060400160405280600c81526020016b12d650c81c995c5d5a5c995960a21b815250906139d05760405162461bcd60e51b8152600401610c2a9190615356565b50806139db81613e7d565b60405180604001604052806019815260200160008051602061553983398151915281525090613a1d5760405162461bcd60e51b8152600401610c2a9190615356565b5082613a2881613eb1565b600085815260106020526040812090600382810154600160a01b900460ff1690811115613a5757613a57615221565b1460405180604001604052806013815260200172141c9bdc195c9d1e481b9bdd081b1a5cdd1959606a1b81525090613aa25760405162461bcd60e51b8152600401610c2a9190615356565b50600181015460408051808201909152601e81527f43616e6e6f7420626964206f6e20796f7572206f776e206c697374696e6700006020820152906001600160a01b03163303613b055760405162461bcd60e51b8152600401610c2a9190615356565b508060020154851015613b5a5760405162461bcd60e51b815260206004820152601b60248201527f426964206d757374206d656574206c697374696e6720707269636500000000006044820152606401610c2a565b3360009081526013602090815260408083208984529091529020546001600160a01b038516613bfc57853414613bc85760405162461bcd60e51b815260206004820152601360248201527208aa89040c2dadeeadce840dad2e6dac2e8c6d606b1b6044820152606401610c2a565b600087815260126020908152604080832033845290915281208054349290613bf1908490615418565b90915550613cbe9050565b604051636eb1769f60e11b8152336004820152306024820152859087906001600160a01b0383169063dd62ed3e90604401602060405180830381865afa158015613c4a573d6000803e3d6000fd5b505050506040513d601f19601f82011682018060405250810190613c6e919061542b565b1015613cbc5760405162461bcd60e51b815260206004820152601c60248201527f496e73756666696369656e7420746f6b656e20616c6c6f77616e6365000000006044820152606401610c2a565b505b6000613cc9886142de565b90508015613d29576000613cdd8289614397565b905080881015613d275760405162461bcd60e51b815260206004820152601560248201527442696420696e6372656d656e7420746f6f206c6f7760581b6044820152606401610c2a565b505b8115613d4057613d3b8883898961443b565b613e16565b613e168888886040805160c0810182528481523360208083018281528385019687526001600160a01b03958616606085019081524260808601908152600160a0870181815260008c815260118752898120805480850182558183528883209a516006909102909a01998a5595519289018054938c166001600160a01b03199485161790559a516002890155925160038801805491909a169116179097559551600485015594516005909301805493151560ff19909416939093179092559254928452601381528184209484529390935291902055565b604080518881526001600160a01b038816602082015233918a917fe30abccebb20a387be8e75e927d7e06ce1bf9d77bb3888516663bdc8995fb334910160405180910390a35050505050611eeb6001600055565b6000613e7581613ef4565b611b7161459d565b600f5460009060ff16613e9257506001919050565b506001600160a01b03166000908152600e602052604090205460ff1690565b60408051808201909152600e81526d125b9d985b1a5908185b5bdd5b9d60921b6020820152816111da5760405162461bcd60e51b8152600401610c2a9190615356565b611b7181336145da565b60008281526001602081905260409091200154613f1a81613ef4565b611eeb8383614633565b613f2e82826122ff565b156111da5760008281526001602090815260408083206001600160a01b0385168085529252808320805460ff1916905551339285917ff6391f5c32d9c69d2a47ea670b442974b53935d1edc7fd64eb21e047a839171b9190a45050565b600260005403613fdd5760405162461bcd60e51b815260206004820152601f60248201527f5265656e7472616e637947756172643a207265656e7472616e742063616c6c006044820152606401610c2a565b6002600055565b6000613fef82613e7d565b613ffb57506000614024565b6001600160a01b03821661401f5783341015801561401857508383145b9050614024565b508183145b9392505050565b6000818152601160205260408120905b8154811015611eeb5781818154811061405657614056615389565b600091825260209091206005600690920201015460ff161561419f57600082828154811061408657614086615389565b906000526020600020906006020160050160006101000a81548160ff0219169083151502179055506000601360008484815481106140c6576140c6615389565b60009182526020808320600160069093020191909101546001600160a01b031683528281019390935260409182018120878252909252902055815482908290811061411357614113615389565b906000526020600020906006020160010160009054906101000a90046001600160a01b03166001600160a01b0316837faf2f02012ea1953fe9293dd4a8bb5194c96792324f9385297c991c2cfeade3d984848154811061417557614175615389565b90600052602060002090600602016002015460405161419691815260200190565b60405180910390a35b806141a981615444565b91505061403b565b6040805160608101825260035481526005546001600160a01b031660208201526127109181019190915261391f818686868661469e565b6001600160a01b03811660009081526001830160205260408120541515614024565b6000614024836001600160a01b03841661475e565b6000614024836001600160a01b0384166147ad565b6001600160a01b0381166000908152600c6020526040812054600754811161425c5780614024565b6007549392505050565b61426e6148a0565b6002805460ff191690557f5db9ee0a495bf2e6ff9c91a7834c1ba4fdd244a5e8aa4e537bd38aeae4b073aa335b6040516001600160a01b03909116815260200160405180910390a1565b600082815260016020819052604090912001546142d481613ef4565b611eeb8383613f24565b60008181526011602052604081208190815b815481101561438e5781818154811061430b5761430b615389565b600091825260209091206005600690920201015460ff16801561435057508282828154811061433c5761433c615389565b906000526020600020906006020160020154115b1561437c5781818154811061436757614367615389565b90600052602060002090600602016002015492505b8061438681615444565b9150506142f0565b50909392505050565b600080670de0b6b3a76400008410156143b25750600a6143ce565b678ac7230489e800008410156143ca575060056143ce565b5060025b60006143db826064615418565b90506143e981600019615474565b85111561442f5760405162461bcd60e51b815260206004820152601460248201527342696420616d6f756e7420746f6f206c6172676560601b6044820152606401610c2a565b6064613101828761545d565b6000848152601160205260408120614454600186615405565b8154811061446457614464615389565b906000526020600020906006020190508060050160009054906101000a900460ff1660405180604001604052806011815260200170426964206973206e6f742061637469766560781b815250906144ce5760405162461bcd60e51b8152600401610c2a9190615356565b5060038101546001600160a01b0383811691161461452e5760405162461bcd60e51b815260206004820152601b60248201527f43616e6e6f74206368616e6765207061796d656e7420746f6b656e00000000006044820152606401610c2a565b600061453e826002015485614397565b9050808410156145885760405162461bcd60e51b815260206004820152601560248201527442696420696e6372656d656e7420746f6f206c6f7760581b6044820152606401610c2a565b50600281019290925550426004909101555050565b6145a56148eb565b6002805460ff191660011790557f62e78cea01bee320cd4e420270b5ea74000d11b0c9f74754ebdbfc544b05a25861429b3390565b6145e482826122ff565b6111da576145f181614931565b6145fc836020614943565b60405160200161460d929190615496565b60408051601f198184030181529082905262461bcd60e51b8252610c2a91600401615356565b61463d82826122ff565b6111da5760008281526001602081815260408084206001600160a01b0386168086529252808420805460ff19169093179092559051339285917f2f8788117e7eff1d82e926ec794901d17c78024a50270940304540a733656f0d9190a45050565b60408501518551600091906146b3908561545d565b6146bd9190615474565b905060006146cb8285615405565b90506001600160a01b0383166146f2576146ed86886020015183858989614adf565b614704565b6147048386888a602001518587614d1b565b60408051858152602081018490526001600160a01b03858116828401529151878316928916917fa496c08b103292578a04c9879f2740638414c311180dffa9d1436d3c97119923919081900360600190a350505050505050565b60008181526001830160205260408120546147a557508154600181810184556000848152602080822090930184905584548482528286019093526040902091909155610bc3565b506000610bc3565b600081815260018301602052604081205480156148965760006147d1600183615405565b85549091506000906147e590600190615405565b905081811461484a57600086600001828154811061480557614805615389565b906000526020600020015490508087600001848154811061482857614828615389565b6000918252602080832090910192909255918252600188019052604090208390555b855486908061485b5761485b61550b565b600190038181906000526020600020016000905590558560010160008681526020019081526020016000206000905560019350505050610bc3565b6000915050610bc3565b60025460ff166148e95760405162461bcd60e51b815260206004820152601460248201527314185d5cd8589b194e881b9bdd081c185d5cd95960621b6044820152606401610c2a565b565b60025460ff16156148e95760405162461bcd60e51b815260206004820152601060248201526f14185d5cd8589b194e881c185d5cd95960821b6044820152606401610c2a565b6060610bc36001600160a01b03831660145b6060600061495283600261545d565b61495d906002615418565b67ffffffffffffffff8111156149755761497561539f565b6040519080825280601f01601f19166020018201604052801561499f576020820181803683370190505b509050600360fc1b816000815181106149ba576149ba615389565b60200101906001600160f81b031916908160001a905350600f60fb1b816001815181106149e9576149e9615389565b60200101906001600160f81b031916908160001a9053506000614a0d84600261545d565b614a18906001615418565b90505b6001811115614a90576f181899199a1a9b1b9c1cb0b131b232b360811b85600f1660108110614a4c57614a4c615389565b1a60f81b828281518110614a6257614a62615389565b60200101906001600160f81b031916908160001a90535060049490941c93614a8981615521565b9050614a1b565b5083156140245760405162461bcd60e51b815260206004820181905260248201527f537472696e67733a20686578206c656e67746820696e73756666696369656e746044820152606401610c2a565b80341015614b275760405162461bcd60e51b8152602060048201526015602482015274125b9cdd59999a58da595b9d08115512081cd95b9d605a1b6044820152606401610c2a565b6000866001600160a01b03168560405160006040518083038185875af1925050503d8060008114614b74576040519150601f19603f3d011682016040523d82523d6000602084013e614b79565b606091505b5050905080614bca5760405162461bcd60e51b815260206004820152601860248201527f5061796d656e7420746f2073656c6c6572206661696c656400000000000000006044820152606401610c2a565b6000866001600160a01b03168560405160006040518083038185875af1925050503d8060008114614c17576040519150601f19603f3d011682016040523d82523d6000602084013e614c1c565b606091505b5050905080614c625760405162461bcd60e51b8152602060048201526012602482015271119959481c185e5b595b9d0819985a5b195960721b6044820152606401610c2a565b6000614c6e8434615405565b90508015614d10576000856001600160a01b0316826108fc90604051600060405180830381858888f193505050503d8060008114614cc8576040519150601f19603f3d011682016040523d82523d6000602084013e614ccd565b606091505b5050905080614d0e5760405162461bcd60e51b815260206004820152600d60248201526c1499599d5b990819985a5b1959609a1b6044820152606401610c2a565b505b505050505050505050565b6040516323b872dd60e01b81526001600160a01b0386811660048301528581166024830152604482018490528791908216906323b872dd906064016020604051808303816000875af1158015614d75573d6000803e3d6000fd5b505050506040513d601f19601f82011682018060405250810190614d9991906153d2565b614de55760405162461bcd60e51b815260206004820152601960248201527f5472616e7366657220746f2073656c6c6572206661696c6564000000000000006044820152606401610c2a565b6040516323b872dd60e01b81526001600160a01b0387811660048301528581166024830152604482018490528216906323b872dd906064016020604051808303816000875af1158015614e3c573d6000803e3d6000fd5b505050506040513d601f19601f82011682018060405250810190614e6091906153d2565b614ea25760405162461bcd60e51b8152602060048201526013602482015272119959481d1c985b9cd9995c8819985a5b1959606a1b6044820152606401610c2a565b50505050505050565b6040518060c001604052806000815260200160006001600160a01b031681526020016000815260200160006001600160a01b03168152602001600081526020016000151581525090565b600060208284031215614f0757600080fd5b81356001600160e01b03198116811461402457600080fd5b8015158114611b7157600080fd5b600060208284031215614f3f57600080fd5b813561402481614f1f565b600060208284031215614f5c57600080fd5b5035919050565b80518252602081015160018060a01b0380821660208501526040830151604085015280606084015116606085015250506080810151608083015260a0810151151560a08301525050565b600081518084526020808501945080840160005b83811015614fe757614fd4878351614f63565b60c0969096019590820190600101614fc1565b509495945050505050565b6020815260006140246020830184614fad565b6001600160a01b0381168114611b7157600080fd5b60008060006060848603121561502f57600080fd5b8335925060208401359150604084013561504881615005565b809150509250925092565b6000806040838503121561506657600080fd5b82359150602083013561507881615005565b809150509250929050565b60006020828403121561509557600080fd5b813561402481615005565b6000806000606084860312156150b557600080fd5b505081359360208301359350604090920135919050565b600080604083850312156150df57600080fd5b50508035926020909101359150565b60008060006040848603121561510357600080fd5b833567ffffffffffffffff8082111561511b57600080fd5b818601915086601f83011261512f57600080fd5b81358181111561513e57600080fd5b8760208260051b850101111561515357600080fd5b6020928301955093505084013561504881614f1f565b6000806040838503121561517c57600080fd5b823561518781615005565b946020939093013593505050565b60c08101610bc38284614f63565b6000806000606084860312156151b857600080fd5b83356151c381615005565b925060208401359150604084013561504881614f1f565b6040815260006151ed6040830185614fad565b90508260208301529392505050565b6000806040838503121561520f57600080fd5b82359150602083013561507881614f1f565b634e487b7160e01b600052602160045260246000fd5b6004811061525557634e487b7160e01b600052602160045260246000fd5b9052565b8781526001600160a01b038781166020830152604082018790528516606082015260e0810161528b6080830186615237565b60a082019390935260c0015295945050505050565b600080600080600060a086880312156152b857600080fd5b853594506020860135935060408601356152d181615005565b92506060860135915060808601356152e881615005565b809150509295509295909350565b6001600160a01b038681168252602082018690528416604082015260a081016153226060830185615237565b8260808301529695505050505050565b60005b8381101561534d578181015183820152602001615335565b50506000910152565b6020815260008251806020840152615375816040850160208701615332565b601f01601f19169190910160400192915050565b634e487b7160e01b600052603260045260246000fd5b634e487b7160e01b600052604160045260246000fd5b6000602082840312156153c757600080fd5b815161402481615005565b6000602082840312156153e457600080fd5b815161402481614f1f565b634e487b7160e01b600052601160045260246000fd5b81810381811115610bc357610bc36153ef565b80820180821115610bc357610bc36153ef565b60006020828403121561543d57600080fd5b5051919050565b600060018201615456576154566153ef565b5060010190565b8082028115828204841417610bc357610bc36153ef565b60008261549157634e487b7160e01b600052601260045260246000fd5b500490565b7f416363657373436f6e74726f6c3a206163636f756e74200000000000000000008152600083516154ce816017850160208801615332565b7001034b99036b4b9b9b4b733903937b6329607d1b60179184019182015283516154ff816028840160208801615332565b01602801949350505050565b634e487b7160e01b600052603160045260246000fd5b600081615530576155306153ef565b50600019019056fe5061796d656e7420746f6b656e206e6f7420616c6c6f7765640000000000000097667070c54ef182b0f5858b034beac1b6f3089aa2d3188bb1e8929f4fa9b929a2646970667358221220a59b75a7e828203b058ffff92d4116dea82d73ac4d0e5329731630d4afb2d95564736f6c63430008140033","opcodes":"PUSH1 0xC0 PUSH1 0x40 MSTORE PUSH1 0xF DUP1 SLOAD PUSH1 0xFF NOT AND PUSH1 0x1 OR SWAP1 SSTORE CALLVALUE DUP1 ISZERO PUSH3 0x1E JUMPI PUSH1 0x0 DUP1 REVERT JUMPDEST POP PUSH1 0x40 MLOAD PUSH3 0x5AB0 CODESIZE SUB DUP1 PUSH3 0x5AB0 DUP4 CODECOPY DUP2 ADD PUSH1 0x40 DUP2 SWAP1 MSTORE PUSH3 0x41 SWAP2 PUSH3 0x3F9 JUMP JUMPDEST PUSH1 0x1 PUSH1 0x0 SSTORE PUSH1 0x2 DUP1 SLOAD PUSH1 0xFF NOT AND SWAP1 SSTORE DUP3 DUP3 DUP3 PUSH1 0x1 PUSH1 0x1 PUSH1 0xA0 SHL SUB DUP3 AND PUSH3 0xAF JUMPI PUSH1 0x40 MLOAD PUSH3 0x461BCD PUSH1 0xE5 SHL DUP2 MSTORE PUSH1 0x20 PUSH1 0x4 DUP3 ADD MSTORE PUSH1 0x1D PUSH1 0x24 DUP3 ADD MSTORE PUSH32 0x496E76616C69642066656520636F6C6C6563746F722061646472657373000000 PUSH1 0x44 DUP3 ADD MSTORE PUSH1 0x64 ADD JUMPDEST PUSH1 0x40 MLOAD DUP1 SWAP2 SUB SWAP1 REVERT JUMPDEST PUSH1 0x1 PUSH1 0x1 PUSH1 0xA0 SHL SUB DUP2 AND PUSH3 0x107 JUMPI PUSH1 0x40 MLOAD PUSH3 0x461BCD PUSH1 0xE5 SHL DUP2 MSTORE PUSH1 0x20 PUSH1 0x4 DUP3 ADD MSTORE PUSH1 0x1D PUSH1 0x24 DUP3 ADD MSTORE PUSH32 0x496E76616C69642072657761726473207661756C742061646472657373000000 PUSH1 0x44 DUP3 ADD MSTORE PUSH1 0x64 ADD PUSH3 0xA6 JUMP JUMPDEST PUSH1 0x1 PUSH1 0x1 PUSH1 0xA0 SHL SUB DUP4 AND PUSH3 0x15F JUMPI PUSH1 0x40 MLOAD PUSH3 0x461BCD PUSH1 0xE5 SHL DUP2 MSTORE PUSH1 0x20 PUSH1 0x4 DUP3 ADD MSTORE PUSH1 0x15 PUSH1 0x24 DUP3 ADD MSTORE PUSH32 0x496E76616C69642061646D696E20616464726573730000000000000000000000 PUSH1 0x44 DUP3 ADD MSTORE PUSH1 0x64 ADD PUSH3 0xA6 JUMP JUMPDEST PUSH3 0x16A DUP4 PUSH3 0x25E JUMP JUMPDEST PUSH1 0x40 DUP1 MLOAD PUSH1 0x60 DUP1 DUP3 ADD DUP4 MSTORE PUSH1 0xC8 DUP1 DUP4 MSTORE PUSH2 0x3E8 PUSH1 0x20 DUP1 DUP6 ADD DUP3 SWAP1 MSTORE PUSH1 0x1 PUSH1 0x1 PUSH1 0xA0 SHL SUB SWAP8 DUP9 AND SWAP5 DUP7 ADD DUP6 SWAP1 MSTORE PUSH1 0x3 SWAP3 SWAP1 SWAP3 SSTORE PUSH1 0x4 DUP2 SWAP1 SSTORE PUSH1 0x5 DUP1 SLOAD PUSH1 0x1 PUSH1 0x1 PUSH1 0xA0 SHL SUB NOT SWAP1 DUP2 AND SWAP1 SWAP6 OR SWAP1 SSTORE DUP5 MLOAD PUSH1 0x80 DUP2 ADD DUP7 MSTORE DUP2 DUP2 MSTORE PUSH2 0x7D0 SWAP3 DUP2 ADD DUP4 SWAP1 MSTORE PUSH2 0x12C SWAP6 DUP2 ADD DUP7 SWAP1 MSTORE SWAP6 SWAP1 SWAP7 AND SWAP5 SWAP1 SWAP2 ADD DUP5 SWAP1 MSTORE PUSH1 0x6 SWAP5 SWAP1 SWAP5 SSTORE PUSH1 0x7 SWAP4 SWAP1 SWAP4 SSTORE PUSH1 0x8 SSTORE PUSH1 0x9 DUP1 SLOAD SWAP1 SWAP3 AND OR SWAP1 SSTORE POP PUSH3 0x203 DUP6 PUSH3 0x2F2 JUMP JUMPDEST PUSH3 0x20E DUP5 PUSH3 0x2F2 JUMP JUMPDEST POP POP PUSH1 0x0 DUP1 MSTORE POP PUSH1 0xE PUSH1 0x20 MSTORE PUSH32 0xE710864318D4A32F37D6CE54CB3FADBEF648DD12D8DBDF53973564D56B7F881C DUP1 SLOAD PUSH1 0xFF NOT AND PUSH1 0x1 OR SWAP1 SSTORE PUSH1 0x1 PUSH1 0x1 PUSH1 0xA0 SHL SUB SWAP2 DUP3 AND PUSH1 0x80 MSTORE AND PUSH1 0xA0 MSTORE PUSH3 0x4B9 JUMP JUMPDEST PUSH3 0x26B PUSH1 0x0 DUP3 PUSH3 0x354 JUMP JUMPDEST PUSH3 0x297 PUSH32 0x97667070C54EF182B0F5858B034BEAC1B6F3089AA2D3188BB1E8929F4FA9B929 DUP3 PUSH3 0x354 JUMP JUMPDEST PUSH3 0x2C3 PUSH32 0xB9F13ECB5E7F0F859C44B76B3A163E504787B446DA95A26BF75E53E1FF4A1E0E DUP3 PUSH3 0x354 JUMP JUMPDEST PUSH3 0x2EF PUSH32 0x6393FA734211156FCC8C7DDA6B0650F5C731D4C838C1DB43445A149AA2F5B6FE DUP3 PUSH3 0x354 JUMP JUMPDEST POP JUMP JUMPDEST PUSH1 0x40 DUP1 MLOAD DUP1 DUP3 ADD SWAP1 SWAP2 MSTORE PUSH1 0x18 DUP2 MSTORE PUSH32 0x5A65726F2061646472657373206E6F7420616C6C6F7765640000000000000000 PUSH1 0x20 DUP3 ADD MSTORE PUSH1 0x1 PUSH1 0x1 PUSH1 0xA0 SHL SUB DUP3 AND PUSH3 0x350 JUMPI PUSH1 0x40 MLOAD PUSH3 0x461BCD PUSH1 0xE5 SHL DUP2 MSTORE PUSH1 0x4 ADD PUSH3 0xA6 SWAP2 SWAP1 PUSH3 0x469 JUMP JUMPDEST POP POP JUMP JUMPDEST PUSH1 0x0 DUP3 DUP2 MSTORE PUSH1 0x1 PUSH1 0x20 SWAP1 DUP2 MSTORE PUSH1 0x40 DUP1 DUP4 KECCAK256 PUSH1 0x1 PUSH1 0x1 PUSH1 0xA0 SHL SUB DUP6 AND DUP5 MSTORE SWAP1 SWAP2 MSTORE SWAP1 KECCAK256 SLOAD PUSH1 0xFF AND PUSH3 0x350 JUMPI PUSH1 0x0 DUP3 DUP2 MSTORE PUSH1 0x1 PUSH1 0x20 DUP2 DUP2 MSTORE PUSH1 0x40 DUP1 DUP5 KECCAK256 PUSH1 0x1 PUSH1 0x1 PUSH1 0xA0 SHL SUB DUP7 AND DUP1 DUP7 MSTORE SWAP3 MSTORE DUP1 DUP5 KECCAK256 DUP1 SLOAD PUSH1 0xFF NOT AND SWAP1 SWAP4 OR SWAP1 SWAP3 SSTORE SWAP1 MLOAD CALLER SWAP3 DUP6 SWAP2 PUSH32 0x2F8788117E7EFF1D82E926EC794901D17C78024A50270940304540A733656F0D SWAP2 SWAP1 LOG4 POP POP JUMP JUMPDEST DUP1 MLOAD PUSH1 0x1 PUSH1 0x1 PUSH1 0xA0 SHL SUB DUP2 AND DUP2 EQ PUSH3 0x3F4 JUMPI PUSH1 0x0 DUP1 REVERT JUMPDEST SWAP2 SWAP1 POP JUMP JUMPDEST PUSH1 0x0 DUP1 PUSH1 0x0 DUP1 PUSH1 0x0 PUSH1 0xA0 DUP7 DUP9 SUB SLT ISZERO PUSH3 0x412 JUMPI PUSH1 0x0 DUP1 REVERT JUMPDEST PUSH3 0x41D DUP7 PUSH3 0x3DC JUMP JUMPDEST SWAP5 POP PUSH3 0x42D PUSH1 0x20 DUP8 ADD PUSH3 0x3DC JUMP JUMPDEST SWAP4 POP PUSH3 0x43D PUSH1 0x40 DUP8 ADD PUSH3 0x3DC JUMP JUMPDEST SWAP3 POP PUSH3 0x44D PUSH1 0x60 DUP8 ADD PUSH3 0x3DC JUMP JUMPDEST SWAP2 POP PUSH3 0x45D PUSH1 0x80 DUP8 ADD PUSH3 0x3DC JUMP JUMPDEST SWAP1 POP SWAP3 SWAP6 POP SWAP3 SWAP6 SWAP1 SWAP4 POP JUMP JUMPDEST PUSH1 0x0 PUSH1 0x20 DUP1 DUP4 MSTORE DUP4 MLOAD DUP1 DUP3 DUP6 ADD MSTORE PUSH1 0x0 JUMPDEST DUP2 DUP2 LT ISZERO PUSH3 0x498 JUMPI DUP6 DUP2 ADD DUP4 ADD MLOAD DUP6 DUP3 ADD PUSH1 0x40 ADD MSTORE DUP3 ADD PUSH3 0x47A JUMP JUMPDEST POP PUSH1 0x0 PUSH1 0x40 DUP3 DUP7 ADD ADD MSTORE PUSH1 0x40 PUSH1 0x1F NOT PUSH1 0x1F DUP4 ADD AND DUP6 ADD ADD SWAP3 POP POP POP SWAP3 SWAP2 POP POP JUMP JUMPDEST PUSH1 0x80 MLOAD PUSH1 0xA0 MLOAD PUSH2 0x55AE PUSH3 0x502 PUSH1 0x0 CODECOPY PUSH1 0x0 PUSH2 0x92C ADD MSTORE PUSH1 0x0 DUP2 DUP2 PUSH2 0x52D ADD MSTORE DUP2 DUP2 PUSH2 0xF64 ADD MSTORE DUP2 DUP2 PUSH2 0x16A9 ADD MSTORE DUP2 DUP2 PUSH2 0x1C96 ADD MSTORE DUP2 DUP2 PUSH2 0x3307 ADD MSTORE PUSH2 0x3855 ADD MSTORE PUSH2 0x55AE PUSH1 0x0 RETURN INVALID PUSH1 0x80 PUSH1 0x40 MSTORE PUSH1 0x4 CALLDATASIZE LT PUSH2 0x31A JUMPI PUSH1 0x0 CALLDATALOAD PUSH1 0xE0 SHR DUP1 PUSH4 0x88F0BC73 GT PUSH2 0x1AB JUMPI DUP1 PUSH4 0xCE190578 GT PUSH2 0xF7 JUMPI DUP1 PUSH4 0xE7372209 GT PUSH2 0x95 JUMPI DUP1 PUSH4 0xF5B541A6 GT PUSH2 0x6F JUMPI DUP1 PUSH4 0xF5B541A6 EQ PUSH2 0xACD JUMPI DUP1 PUSH4 0xF70D9362 EQ PUSH2 0xAEF JUMPI DUP1 PUSH4 0xF9EAEE0D EQ PUSH2 0xB04 JUMPI DUP1 PUSH4 0xFB05DA2E EQ PUSH2 0xB24 JUMPI PUSH1 0x0 DUP1 REVERT JUMPDEST DUP1 PUSH4 0xE7372209 EQ PUSH2 0xA75 JUMPI DUP1 PUSH4 0xEE5B8E0E EQ PUSH2 0xA88 JUMPI DUP1 PUSH4 0xF12D54D8 EQ PUSH2 0xAB8 JUMPI PUSH1 0x0 DUP1 REVERT JUMPDEST DUP1 PUSH4 0xDDD1A5BF GT PUSH2 0xD1 JUMPI DUP1 PUSH4 0xDDD1A5BF EQ PUSH2 0x9A3 JUMPI DUP1 PUSH4 0xDE74E57B EQ PUSH2 0x9DB JUMPI DUP1 PUSH4 0xE1F1C4A7 EQ PUSH2 0x72A JUMPI DUP1 PUSH4 0xE58A7B31 EQ PUSH2 0xA55 JUMPI PUSH1 0x0 DUP1 REVERT JUMPDEST DUP1 PUSH4 0xCE190578 EQ PUSH2 0x94E JUMPI DUP1 PUSH4 0xCF23913B EQ PUSH2 0x963 JUMPI DUP1 PUSH4 0xD547741F EQ PUSH2 0x983 JUMPI PUSH1 0x0 DUP1 REVERT JUMPDEST DUP1 PUSH4 0xA33B2D3F GT PUSH2 0x164 JUMPI DUP1 PUSH4 0xBC996819 GT PUSH2 0x13E JUMPI DUP1 PUSH4 0xBC996819 EQ PUSH2 0x88A JUMPI DUP1 PUSH4 0xBEB8314C EQ PUSH2 0x89F JUMPI DUP1 PUSH4 0xC7921A7C EQ PUSH2 0x8BF JUMPI DUP1 PUSH4 0xCBB9C9A4 EQ PUSH2 0x91A JUMPI PUSH1 0x0 DUP1 REVERT JUMPDEST DUP1 PUSH4 0xA33B2D3F EQ PUSH2 0x829 JUMPI DUP1 PUSH4 0xAD6561EC EQ PUSH2 0x849 JUMPI DUP1 PUSH4 0xB10E26A9 EQ PUSH2 0x85C JUMPI PUSH1 0x0 DUP1 REVERT JUMPDEST DUP1 PUSH4 0x88F0BC73 EQ PUSH2 0x760 JUMPI DUP1 PUSH4 0x8E7579A1 EQ PUSH2 0x780 JUMPI DUP1 PUSH4 0x90469A9D EQ PUSH2 0x7B4 JUMPI DUP1 PUSH4 0x91D14854 EQ PUSH2 0x7D4 JUMPI DUP1 PUSH4 0x9703EF35 EQ PUSH2 0x7F4 JUMPI DUP1 PUSH4 0xA217FDDF EQ PUSH2 0x814 JUMPI PUSH1 0x0 DUP1 REVERT JUMPDEST DUP1 PUSH4 0x592EB924 GT PUSH2 0x26A JUMPI DUP1 PUSH4 0x73C250C6 GT PUSH2 0x223 JUMPI DUP1 PUSH4 0x7D4E297A GT PUSH2 0x1FD JUMPI DUP1 PUSH4 0x7D4E297A EQ PUSH2 0x6EA JUMPI DUP1 PUSH4 0x86AA217E EQ PUSH2 0x70A JUMPI DUP1 PUSH4 0x87C13943 EQ PUSH2 0x72A JUMPI DUP1 PUSH4 0x887F495A EQ PUSH2 0x740 JUMPI PUSH1 0x0 DUP1 REVERT JUMPDEST DUP1 PUSH4 0x73C250C6 EQ PUSH2 0x63B JUMPI DUP1 PUSH4 0x76346914 EQ PUSH2 0x668 JUMPI DUP1 PUSH4 0x79CEF8BD EQ PUSH2 0x6BD JUMPI PUSH1 0x0 DUP1 REVERT JUMPDEST DUP1 PUSH4 0x592EB924 EQ PUSH2 0x51B JUMPI DUP1 PUSH4 0x5932FDBA EQ PUSH2 0x567 JUMPI DUP1 PUSH4 0x5C975ABB EQ PUSH2 0x59B JUMPI DUP1 PUSH4 0x5DDA3E01 EQ PUSH2 0x5B3 JUMPI DUP1 PUSH4 0x697D312A EQ PUSH2 0x5D3 JUMPI DUP1 PUSH4 0x69FCC649 EQ PUSH2 0x603 JUMPI PUSH1 0x0 DUP1 REVERT JUMPDEST DUP1 PUSH4 0x2F2FF15D GT PUSH2 0x2D7 JUMPI DUP1 PUSH4 0x4A277EC5 GT PUSH2 0x2B1 JUMPI DUP1 PUSH4 0x4A277EC5 EQ PUSH2 0x4AE JUMPI DUP1 PUSH4 0x4F843494 EQ PUSH2 0x4CE JUMPI DUP1 PUSH4 0x51FB012D EQ PUSH2 0x4E1 JUMPI DUP1 PUSH4 0x54B7636E EQ PUSH2 0x4FB JUMPI PUSH1 0x0 DUP1 REVERT JUMPDEST DUP1 PUSH4 0x2F2FF15D EQ PUSH2 0x44E JUMPI DUP1 PUSH4 0x36568ABE EQ PUSH2 0x46E JUMPI DUP1 PUSH4 0x4178617F EQ PUSH2 0x48E JUMPI PUSH1 0x0 DUP1 REVERT JUMPDEST DUP1 PUSH4 0x1FFC9A7 EQ PUSH2 0x31F JUMPI DUP1 PUSH4 0x52D9E7E EQ PUSH2 0x354 JUMPI DUP1 PUSH4 0x1276291C EQ PUSH2 0x376 JUMPI DUP1 PUSH4 0x1E5EB1D0 EQ PUSH2 0x3A3 JUMPI DUP1 PUSH4 0x1FB4D31C EQ PUSH2 0x3EF JUMPI DUP1 PUSH4 0x248A9CA3 EQ PUSH2 0x40F JUMPI JUMPDEST PUSH1 0x0 DUP1 REVERT JUMPDEST CALLVALUE DUP1 ISZERO PUSH2 0x32B JUMPI PUSH1 0x0 DUP1 REVERT JUMPDEST POP PUSH2 0x33F PUSH2 0x33A CALLDATASIZE PUSH1 0x4 PUSH2 0x4EF5 JUMP JUMPDEST PUSH2 0xB92 JUMP JUMPDEST PUSH1 0x40 MLOAD SWAP1 ISZERO ISZERO DUP2 MSTORE PUSH1 0x20 ADD JUMPDEST PUSH1 0x40 MLOAD DUP1 SWAP2 SUB SWAP1 RETURN JUMPDEST CALLVALUE DUP1 ISZERO PUSH2 0x360 JUMPI PUSH1 0x0 DUP1 REVERT JUMPDEST POP PUSH2 0x374 PUSH2 0x36F CALLDATASIZE PUSH1 0x4 PUSH2 0x4F2D JUMP JUMPDEST PUSH2 0xBC9 JUMP JUMPDEST STOP JUMPDEST CALLVALUE DUP1 ISZERO PUSH2 0x382 JUMPI PUSH1 0x0 DUP1 REVERT JUMPDEST POP PUSH2 0x396 PUSH2 0x391 CALLDATASIZE PUSH1 0x4 PUSH2 0x4F4A JUMP JUMPDEST PUSH2 0xC7E JUMP JUMPDEST PUSH1 0x40 MLOAD PUSH2 0x34B SWAP2 SWAP1 PUSH2 0x4FF2 JUMP JUMPDEST CALLVALUE DUP1 ISZERO PUSH2 0x3AF JUMPI PUSH1 0x0 DUP1 REVERT JUMPDEST POP PUSH1 0x3 SLOAD PUSH1 0x4 SLOAD PUSH1 0x5 SLOAD PUSH2 0x3CB SWAP3 SWAP2 SWAP1 PUSH1 0x1 PUSH1 0x1 PUSH1 0xA0 SHL SUB AND DUP4 JUMP JUMPDEST PUSH1 0x40 DUP1 MLOAD SWAP4 DUP5 MSTORE PUSH1 0x20 DUP5 ADD SWAP3 SWAP1 SWAP3 MSTORE PUSH1 0x1 PUSH1 0x1 PUSH1 0xA0 SHL SUB AND SWAP1 DUP3 ADD MSTORE PUSH1 0x60 ADD PUSH2 0x34B JUMP JUMPDEST CALLVALUE DUP1 ISZERO PUSH2 0x3FB JUMPI PUSH1 0x0 DUP1 REVERT JUMPDEST POP PUSH2 0x374 PUSH2 0x40A CALLDATASIZE PUSH1 0x4 PUSH2 0x501A JUMP JUMPDEST PUSH2 0xE1E JUMP JUMPDEST CALLVALUE DUP1 ISZERO PUSH2 0x41B JUMPI PUSH1 0x0 DUP1 REVERT JUMPDEST POP PUSH2 0x440 PUSH2 0x42A CALLDATASIZE PUSH1 0x4 PUSH2 0x4F4A JUMP JUMPDEST PUSH1 0x0 SWAP1 DUP2 MSTORE PUSH1 0x1 PUSH1 0x20 DUP2 SWAP1 MSTORE PUSH1 0x40 SWAP1 SWAP2 KECCAK256 ADD SLOAD SWAP1 JUMP JUMPDEST PUSH1 0x40 MLOAD SWAP1 DUP2 MSTORE PUSH1 0x20 ADD PUSH2 0x34B JUMP JUMPDEST CALLVALUE DUP1 ISZERO PUSH2 0x45A JUMPI PUSH1 0x0 DUP1 REVERT JUMPDEST POP PUSH2 0x374 PUSH2 0x469 CALLDATASIZE PUSH1 0x4 PUSH2 0x5053 JUMP JUMPDEST PUSH2 0x10FD JUMP JUMPDEST CALLVALUE DUP1 ISZERO PUSH2 0x47A JUMPI PUSH1 0x0 DUP1 REVERT JUMPDEST POP PUSH2 0x374 PUSH2 0x489 CALLDATASIZE PUSH1 0x4 PUSH2 0x5053 JUMP JUMPDEST PUSH2 0x1160 JUMP JUMPDEST CALLVALUE DUP1 ISZERO PUSH2 0x49A JUMPI PUSH1 0x0 DUP1 REVERT JUMPDEST POP PUSH2 0x374 PUSH2 0x4A9 CALLDATASIZE PUSH1 0x4 PUSH2 0x5083 JUMP JUMPDEST PUSH2 0x11DE JUMP JUMPDEST CALLVALUE DUP1 ISZERO PUSH2 0x4BA JUMPI PUSH1 0x0 DUP1 REVERT JUMPDEST POP PUSH2 0x374 PUSH2 0x4C9 CALLDATASIZE PUSH1 0x4 PUSH2 0x50A0 JUMP JUMPDEST PUSH2 0x12E5 JUMP JUMPDEST PUSH2 0x374 PUSH2 0x4DC CALLDATASIZE PUSH1 0x4 PUSH2 0x50CC JUMP JUMPDEST PUSH2 0x1494 JUMP JUMPDEST CALLVALUE DUP1 ISZERO PUSH2 0x4ED JUMPI PUSH1 0x0 DUP1 REVERT JUMPDEST POP PUSH1 0xF SLOAD PUSH2 0x33F SWAP1 PUSH1 0xFF AND DUP2 JUMP JUMPDEST CALLVALUE DUP1 ISZERO PUSH2 0x507 JUMPI PUSH1 0x0 DUP1 REVERT JUMPDEST POP PUSH2 0x33F PUSH2 0x516 CALLDATASIZE PUSH1 0x4 PUSH2 0x5083 JUMP JUMPDEST PUSH2 0x176A JUMP JUMPDEST CALLVALUE DUP1 ISZERO PUSH2 0x527 JUMPI PUSH1 0x0 DUP1 REVERT JUMPDEST POP PUSH2 0x54F PUSH32 0x0 DUP2 JUMP JUMPDEST PUSH1 0x40 MLOAD PUSH1 0x1 PUSH1 0x1 PUSH1 0xA0 SHL SUB SWAP1 SWAP2 AND DUP2 MSTORE PUSH1 0x20 ADD PUSH2 0x34B JUMP JUMPDEST CALLVALUE DUP1 ISZERO PUSH2 0x573 JUMPI PUSH1 0x0 DUP1 REVERT JUMPDEST POP PUSH2 0x440 PUSH32 0x6393FA734211156FCC8C7DDA6B0650F5C731D4C838C1DB43445A149AA2F5B6FE DUP2 JUMP JUMPDEST CALLVALUE DUP1 ISZERO PUSH2 0x5A7 JUMPI PUSH1 0x0 DUP1 REVERT JUMPDEST POP PUSH1 0x2 SLOAD PUSH1 0xFF AND PUSH2 0x33F JUMP JUMPDEST CALLVALUE DUP1 ISZERO PUSH2 0x5BF JUMPI PUSH1 0x0 DUP1 REVERT JUMPDEST POP PUSH2 0x374 PUSH2 0x5CE CALLDATASIZE PUSH1 0x4 PUSH2 0x50EE JUMP JUMPDEST PUSH2 0x1777 JUMP JUMPDEST CALLVALUE DUP1 ISZERO PUSH2 0x5DF JUMPI PUSH1 0x0 DUP1 REVERT JUMPDEST POP PUSH2 0x33F PUSH2 0x5EE CALLDATASIZE PUSH1 0x4 PUSH2 0x5083 JUMP JUMPDEST PUSH1 0xE PUSH1 0x20 MSTORE PUSH1 0x0 SWAP1 DUP2 MSTORE PUSH1 0x40 SWAP1 KECCAK256 SLOAD PUSH1 0xFF AND DUP2 JUMP JUMPDEST CALLVALUE DUP1 ISZERO PUSH2 0x60F JUMPI PUSH1 0x0 DUP1 REVERT JUMPDEST POP PUSH2 0x440 PUSH2 0x61E CALLDATASIZE PUSH1 0x4 PUSH2 0x5169 JUMP JUMPDEST PUSH1 0x13 PUSH1 0x20 SWAP1 DUP2 MSTORE PUSH1 0x0 SWAP3 DUP4 MSTORE PUSH1 0x40 DUP1 DUP5 KECCAK256 SWAP1 SWAP2 MSTORE SWAP1 DUP3 MSTORE SWAP1 KECCAK256 SLOAD DUP2 JUMP JUMPDEST CALLVALUE DUP1 ISZERO PUSH2 0x647 JUMPI PUSH1 0x0 DUP1 REVERT JUMPDEST POP PUSH2 0x440 PUSH2 0x656 CALLDATASIZE PUSH1 0x4 PUSH2 0x5083 JUMP JUMPDEST PUSH1 0xC PUSH1 0x20 MSTORE PUSH1 0x0 SWAP1 DUP2 MSTORE PUSH1 0x40 SWAP1 KECCAK256 SLOAD DUP2 JUMP JUMPDEST CALLVALUE DUP1 ISZERO PUSH2 0x674 JUMPI PUSH1 0x0 DUP1 REVERT JUMPDEST POP PUSH1 0x6 SLOAD PUSH1 0x7 SLOAD PUSH1 0x8 SLOAD PUSH1 0x9 SLOAD PUSH2 0x694 SWAP4 SWAP3 SWAP2 SWAP1 PUSH1 0x1 PUSH1 0x1 PUSH1 0xA0 SHL SUB AND DUP5 JUMP JUMPDEST PUSH1 0x40 DUP1 MLOAD SWAP5 DUP6 MSTORE PUSH1 0x20 DUP6 ADD SWAP4 SWAP1 SWAP4 MSTORE SWAP2 DUP4 ADD MSTORE PUSH1 0x1 PUSH1 0x1 PUSH1 0xA0 SHL SUB AND PUSH1 0x60 DUP3 ADD MSTORE PUSH1 0x80 ADD PUSH2 0x34B JUMP JUMPDEST CALLVALUE DUP1 ISZERO PUSH2 0x6C9 JUMPI PUSH1 0x0 DUP1 REVERT JUMPDEST POP PUSH2 0x6DD PUSH2 0x6D8 CALLDATASIZE PUSH1 0x4 PUSH2 0x5053 JUMP JUMPDEST PUSH2 0x1852 JUMP JUMPDEST PUSH1 0x40 MLOAD PUSH2 0x34B SWAP2 SWAP1 PUSH2 0x5195 JUMP JUMPDEST CALLVALUE DUP1 ISZERO PUSH2 0x6F6 JUMPI PUSH1 0x0 DUP1 REVERT JUMPDEST POP PUSH2 0x374 PUSH2 0x705 CALLDATASIZE PUSH1 0x4 PUSH2 0x4F4A JUMP JUMPDEST PUSH2 0x195C JUMP JUMPDEST CALLVALUE DUP1 ISZERO PUSH2 0x716 JUMPI PUSH1 0x0 DUP1 REVERT JUMPDEST POP PUSH2 0x374 PUSH2 0x725 CALLDATASIZE PUSH1 0x4 PUSH2 0x501A JUMP JUMPDEST PUSH2 0x1B74 JUMP JUMPDEST CALLVALUE DUP1 ISZERO PUSH2 0x736 JUMPI PUSH1 0x0 DUP1 REVERT JUMPDEST POP PUSH2 0x440 PUSH2 0x2710 DUP2 JUMP JUMPDEST CALLVALUE DUP1 ISZERO PUSH2 0x74C JUMPI PUSH1 0x0 DUP1 REVERT JUMPDEST POP PUSH2 0x374 PUSH2 0x75B CALLDATASIZE PUSH1 0x4 PUSH2 0x501A JUMP JUMPDEST PUSH2 0x1EF0 JUMP JUMPDEST CALLVALUE DUP1 ISZERO PUSH2 0x76C JUMPI PUSH1 0x0 DUP1 REVERT JUMPDEST POP PUSH2 0x374 PUSH2 0x77B CALLDATASIZE PUSH1 0x4 PUSH2 0x5053 JUMP JUMPDEST PUSH2 0x20CD JUMP JUMPDEST CALLVALUE DUP1 ISZERO PUSH2 0x78C JUMPI PUSH1 0x0 DUP1 REVERT JUMPDEST POP PUSH2 0x440 PUSH32 0xB9F13ECB5E7F0F859C44B76B3A163E504787B446DA95A26BF75E53E1FF4A1E0E DUP2 JUMP JUMPDEST CALLVALUE DUP1 ISZERO PUSH2 0x7C0 JUMPI PUSH1 0x0 DUP1 REVERT JUMPDEST POP PUSH2 0x374 PUSH2 0x7CF CALLDATASIZE PUSH1 0x4 PUSH2 0x5083 JUMP JUMPDEST PUSH2 0x21EF JUMP JUMPDEST CALLVALUE DUP1 ISZERO PUSH2 0x7E0 JUMPI PUSH1 0x0 DUP1 REVERT JUMPDEST POP PUSH2 0x33F PUSH2 0x7EF CALLDATASIZE PUSH1 0x4 PUSH2 0x5053 JUMP JUMPDEST PUSH2 0x22FF JUMP JUMPDEST CALLVALUE DUP1 ISZERO PUSH2 0x800 JUMPI PUSH1 0x0 DUP1 REVERT JUMPDEST POP PUSH2 0x374 PUSH2 0x80F CALLDATASIZE PUSH1 0x4 PUSH2 0x4F4A JUMP JUMPDEST PUSH2 0x232A JUMP JUMPDEST CALLVALUE DUP1 ISZERO PUSH2 0x820 JUMPI PUSH1 0x0 DUP1 REVERT JUMPDEST POP PUSH2 0x440 PUSH1 0x0 DUP2 JUMP JUMPDEST CALLVALUE DUP1 ISZERO PUSH2 0x835 JUMPI PUSH1 0x0 DUP1 REVERT JUMPDEST POP PUSH2 0x374 PUSH2 0x844 CALLDATASIZE PUSH1 0x4 PUSH2 0x51A3 JUMP JUMPDEST PUSH2 0x2598 JUMP JUMPDEST PUSH2 0x374 PUSH2 0x857 CALLDATASIZE PUSH1 0x4 PUSH2 0x501A JUMP JUMPDEST PUSH2 0x264E JUMP JUMPDEST CALLVALUE DUP1 ISZERO PUSH2 0x868 JUMPI PUSH1 0x0 DUP1 REVERT JUMPDEST POP PUSH2 0x87C PUSH2 0x877 CALLDATASIZE PUSH1 0x4 PUSH2 0x50A0 JUMP JUMPDEST PUSH2 0x2E73 JUMP JUMPDEST PUSH1 0x40 MLOAD PUSH2 0x34B SWAP3 SWAP2 SWAP1 PUSH2 0x51DA JUMP JUMPDEST CALLVALUE DUP1 ISZERO PUSH2 0x896 JUMPI PUSH1 0x0 DUP1 REVERT JUMPDEST POP PUSH2 0x440 PUSH1 0x5 DUP2 JUMP JUMPDEST CALLVALUE DUP1 ISZERO PUSH2 0x8AB JUMPI PUSH1 0x0 DUP1 REVERT JUMPDEST POP PUSH2 0x440 PUSH2 0x8BA CALLDATASIZE PUSH1 0x4 PUSH2 0x5169 JUMP JUMPDEST PUSH2 0x30BD JUMP JUMPDEST CALLVALUE DUP1 ISZERO PUSH2 0x8CB JUMPI PUSH1 0x0 DUP1 REVERT JUMPDEST POP PUSH2 0x8DF PUSH2 0x8DA CALLDATASIZE PUSH1 0x4 PUSH2 0x50CC JUMP JUMPDEST PUSH2 0x3114 JUMP JUMPDEST PUSH1 0x40 DUP1 MLOAD SWAP7 DUP8 MSTORE PUSH1 0x1 PUSH1 0x1 PUSH1 0xA0 SHL SUB SWAP6 DUP7 AND PUSH1 0x20 DUP9 ADD MSTORE DUP7 ADD SWAP4 SWAP1 SWAP4 MSTORE SWAP3 AND PUSH1 0x60 DUP5 ADD MSTORE PUSH1 0x80 DUP4 ADD SWAP2 SWAP1 SWAP2 MSTORE ISZERO ISZERO PUSH1 0xA0 DUP3 ADD MSTORE PUSH1 0xC0 ADD PUSH2 0x34B JUMP JUMPDEST CALLVALUE DUP1 ISZERO PUSH2 0x926 JUMPI PUSH1 0x0 DUP1 REVERT JUMPDEST POP PUSH2 0x54F PUSH32 0x0 DUP2 JUMP JUMPDEST CALLVALUE DUP1 ISZERO PUSH2 0x95A JUMPI PUSH1 0x0 DUP1 REVERT JUMPDEST POP PUSH2 0x374 PUSH2 0x3177 JUMP JUMPDEST CALLVALUE DUP1 ISZERO PUSH2 0x96F JUMPI PUSH1 0x0 DUP1 REVERT JUMPDEST POP PUSH2 0x374 PUSH2 0x97E CALLDATASIZE PUSH1 0x4 PUSH2 0x51FC JUMP JUMPDEST PUSH2 0x318A JUMP JUMPDEST CALLVALUE DUP1 ISZERO PUSH2 0x98F JUMPI PUSH1 0x0 DUP1 REVERT JUMPDEST POP PUSH2 0x374 PUSH2 0x99E CALLDATASIZE PUSH1 0x4 PUSH2 0x5053 JUMP JUMPDEST PUSH2 0x31B6 JUMP JUMPDEST CALLVALUE DUP1 ISZERO PUSH2 0x9AF JUMPI PUSH1 0x0 DUP1 REVERT JUMPDEST POP PUSH2 0x440 PUSH2 0x9BE CALLDATASIZE PUSH1 0x4 PUSH2 0x5053 JUMP JUMPDEST PUSH1 0x12 PUSH1 0x20 SWAP1 DUP2 MSTORE PUSH1 0x0 SWAP3 DUP4 MSTORE PUSH1 0x40 DUP1 DUP5 KECCAK256 SWAP1 SWAP2 MSTORE SWAP1 DUP3 MSTORE SWAP1 KECCAK256 SLOAD DUP2 JUMP JUMPDEST CALLVALUE DUP1 ISZERO PUSH2 0x9E7 JUMPI PUSH1 0x0 DUP1 REVERT JUMPDEST POP PUSH2 0xA42 PUSH2 0x9F6 CALLDATASIZE PUSH1 0x4 PUSH2 0x4F4A JUMP JUMPDEST PUSH1 0x10 PUSH1 0x20 MSTORE PUSH1 0x0 SWAP1 DUP2 MSTORE PUSH1 0x40 SWAP1 KECCAK256 DUP1 SLOAD PUSH1 0x1 DUP3 ADD SLOAD PUSH1 0x2 DUP4 ADD SLOAD PUSH1 0x3 DUP5 ADD SLOAD PUSH1 0x4 DUP6 ADD SLOAD PUSH1 0x5 SWAP1 SWAP6 ADD SLOAD SWAP4 SWAP5 PUSH1 0x1 PUSH1 0x1 PUSH1 0xA0 SHL SUB SWAP4 DUP5 AND SWAP5 SWAP3 SWAP4 DUP3 AND SWAP3 PUSH1 0x1 PUSH1 0xA0 SHL SWAP1 SWAP3 DIV PUSH1 0xFF AND SWAP2 DUP8 JUMP JUMPDEST PUSH1 0x40 MLOAD PUSH2 0x34B SWAP8 SWAP7 SWAP6 SWAP5 SWAP4 SWAP3 SWAP2 SWAP1 PUSH2 0x5259 JUMP JUMPDEST CALLVALUE DUP1 ISZERO PUSH2 0xA61 JUMPI PUSH1 0x0 DUP1 REVERT JUMPDEST POP PUSH2 0x374 PUSH2 0xA70 CALLDATASIZE PUSH1 0x4 PUSH2 0x52A0 JUMP JUMPDEST PUSH2 0x3219 JUMP JUMPDEST PUSH2 0x374 PUSH2 0xA83 CALLDATASIZE PUSH1 0x4 PUSH2 0x501A JUMP JUMPDEST PUSH2 0x3926 JUMP JUMPDEST CALLVALUE DUP1 ISZERO PUSH2 0xA94 JUMPI PUSH1 0x0 DUP1 REVERT JUMPDEST POP PUSH2 0x33F PUSH2 0xAA3 CALLDATASIZE PUSH1 0x4 PUSH2 0x4F4A JUMP JUMPDEST PUSH1 0xD PUSH1 0x20 MSTORE PUSH1 0x0 SWAP1 DUP2 MSTORE PUSH1 0x40 SWAP1 KECCAK256 SLOAD PUSH1 0xFF AND DUP2 JUMP JUMPDEST CALLVALUE DUP1 ISZERO PUSH2 0xAC4 JUMPI PUSH1 0x0 DUP1 REVERT JUMPDEST POP PUSH2 0x374 PUSH2 0x3E6A JUMP JUMPDEST CALLVALUE DUP1 ISZERO PUSH2 0xAD9 JUMPI PUSH1 0x0 DUP1 REVERT JUMPDEST POP PUSH2 0x440 PUSH1 0x0 DUP1 MLOAD PUSH1 0x20 PUSH2 0x5559 DUP4 CODECOPY DUP2 MLOAD SWAP2 MSTORE DUP2 JUMP JUMPDEST CALLVALUE DUP1 ISZERO PUSH2 0xAFB JUMPI PUSH1 0x0 DUP1 REVERT JUMPDEST POP PUSH1 0x3 SLOAD PUSH2 0x440 JUMP JUMPDEST CALLVALUE DUP1 ISZERO PUSH2 0xB10 JUMPI PUSH1 0x0 DUP1 REVERT JUMPDEST POP PUSH2 0x33F PUSH2 0xB1F CALLDATASIZE PUSH1 0x4 PUSH2 0x5083 JUMP JUMPDEST PUSH2 0x3E7D JUMP JUMPDEST CALLVALUE DUP1 ISZERO PUSH2 0xB30 JUMPI PUSH1 0x0 DUP1 REVERT JUMPDEST POP PUSH2 0xB81 PUSH2 0xB3F CALLDATASIZE PUSH1 0x4 PUSH2 0x4F4A JUMP JUMPDEST PUSH1 0x0 SWAP1 DUP2 MSTORE PUSH1 0x10 PUSH1 0x20 MSTORE PUSH1 0x40 SWAP1 KECCAK256 PUSH1 0x1 DUP2 ADD SLOAD PUSH1 0x2 DUP3 ADD SLOAD PUSH1 0x3 DUP4 ADD SLOAD PUSH1 0x4 SWAP1 SWAP4 ADD SLOAD PUSH1 0x1 PUSH1 0x1 PUSH1 0xA0 SHL SUB SWAP3 DUP4 AND SWAP5 SWAP2 SWAP4 SWAP3 DUP4 AND SWAP3 PUSH1 0x1 PUSH1 0xA0 SHL SWAP1 DIV PUSH1 0xFF AND SWAP2 JUMP JUMPDEST PUSH1 0x40 MLOAD PUSH2 0x34B SWAP6 SWAP5 SWAP4 SWAP3 SWAP2 SWAP1 PUSH2 0x52F6 JUMP JUMPDEST PUSH1 0x0 PUSH1 0x1 PUSH1 0x1 PUSH1 0xE0 SHL SUB NOT DUP3 AND PUSH4 0x7965DB0B PUSH1 0xE0 SHL EQ DUP1 PUSH2 0xBC3 JUMPI POP PUSH4 0x1FFC9A7 PUSH1 0xE0 SHL PUSH1 0x1 PUSH1 0x1 PUSH1 0xE0 SHL SUB NOT DUP4 AND EQ JUMPDEST SWAP3 SWAP2 POP POP JUMP JUMPDEST PUSH1 0x0 DUP1 MLOAD PUSH1 0x20 PUSH2 0x5559 DUP4 CODECOPY DUP2 MLOAD SWAP2 MSTORE PUSH2 0xBE2 DUP2 CALLER PUSH2 0x22FF JUMP JUMPDEST PUSH1 0x40 MLOAD DUP1 PUSH1 0x40 ADD PUSH1 0x40 MSTORE DUP1 PUSH1 0x11 DUP2 MSTORE PUSH1 0x20 ADD PUSH17 0x13DC195C985D1BDC881C995C5D5A5C9959 PUSH1 0x7A SHL DUP2 MSTORE POP SWAP1 PUSH2 0xC33 JUMPI PUSH1 0x40 MLOAD PUSH3 0x461BCD PUSH1 0xE5 SHL DUP2 MSTORE PUSH1 0x4 ADD PUSH2 0xC2A SWAP2 SWAP1 PUSH2 0x5356 JUMP JUMPDEST PUSH1 0x40 MLOAD DUP1 SWAP2 SUB SWAP1 REVERT JUMPDEST POP PUSH1 0xF DUP1 SLOAD PUSH1 0xFF NOT AND DUP4 ISZERO ISZERO SWAP1 DUP2 OR SWAP1 SWAP2 SSTORE PUSH1 0x40 MLOAD SWAP1 DUP2 MSTORE CALLER SWAP1 PUSH32 0x49D3B7603127F47657003EC050B7AEB0D61D8261082D7807BE013894E89373FD SWAP1 PUSH1 0x20 ADD PUSH1 0x40 MLOAD DUP1 SWAP2 SUB SWAP1 LOG2 POP POP JUMP JUMPDEST PUSH1 0x0 DUP2 DUP2 MSTORE PUSH1 0x11 PUSH1 0x20 MSTORE PUSH1 0x40 DUP2 KECCAK256 DUP1 SLOAD PUSH1 0x60 SWAP3 SWAP1 DUP2 JUMPDEST DUP2 DUP2 LT ISZERO PUSH2 0xCD9 JUMPI DUP4 DUP2 DUP2 SLOAD DUP2 LT PUSH2 0xCAE JUMPI PUSH2 0xCAE PUSH2 0x5389 JUMP JUMPDEST PUSH1 0x0 SWAP2 DUP3 MSTORE PUSH1 0x20 SWAP1 SWAP2 KECCAK256 PUSH1 0x5 PUSH1 0x6 SWAP1 SWAP3 MUL ADD ADD SLOAD PUSH1 0xFF AND ISZERO PUSH2 0xCD1 JUMPI DUP3 PUSH1 0x1 ADD SWAP3 POP JUMPDEST PUSH1 0x1 ADD PUSH2 0xC94 JUMP JUMPDEST POP DUP2 PUSH8 0xFFFFFFFFFFFFFFFF DUP2 GT ISZERO PUSH2 0xCF3 JUMPI PUSH2 0xCF3 PUSH2 0x539F JUMP JUMPDEST PUSH1 0x40 MLOAD SWAP1 DUP1 DUP3 MSTORE DUP1 PUSH1 0x20 MUL PUSH1 0x20 ADD DUP3 ADD PUSH1 0x40 MSTORE DUP1 ISZERO PUSH2 0xD2C JUMPI DUP2 PUSH1 0x20 ADD JUMPDEST PUSH2 0xD19 PUSH2 0x4EAB JUMP JUMPDEST DUP2 MSTORE PUSH1 0x20 ADD SWAP1 PUSH1 0x1 SWAP1 SUB SWAP1 DUP2 PUSH2 0xD11 JUMPI SWAP1 POP JUMPDEST POP SWAP4 POP PUSH1 0x0 DUP1 JUMPDEST DUP3 DUP2 LT ISZERO PUSH2 0xE14 JUMPI DUP5 DUP2 DUP2 SLOAD DUP2 LT PUSH2 0xD4D JUMPI PUSH2 0xD4D PUSH2 0x5389 JUMP JUMPDEST PUSH1 0x0 SWAP2 DUP3 MSTORE PUSH1 0x20 SWAP1 SWAP2 KECCAK256 PUSH1 0x5 PUSH1 0x6 SWAP1 SWAP3 MUL ADD ADD SLOAD PUSH1 0xFF AND ISZERO PUSH2 0xE0C JUMPI DUP5 DUP2 DUP2 SLOAD DUP2 LT PUSH2 0xD7B JUMPI PUSH2 0xD7B PUSH2 0x5389 JUMP JUMPDEST PUSH1 0x0 SWAP2 DUP3 MSTORE PUSH1 0x20 SWAP2 DUP3 SWAP1 KECCAK256 PUSH1 0x40 DUP1 MLOAD PUSH1 0xC0 DUP2 ADD DUP3 MSTORE PUSH1 0x6 SWAP1 SWAP4 MUL SWAP1 SWAP2 ADD DUP1 SLOAD DUP4 MSTORE PUSH1 0x1 DUP2 ADD SLOAD PUSH1 0x1 PUSH1 0x1 PUSH1 0xA0 SHL SUB SWAP1 DUP2 AND SWAP5 DUP5 ADD SWAP5 SWAP1 SWAP5 MSTORE PUSH1 0x2 DUP2 ADD SLOAD SWAP2 DUP4 ADD SWAP2 SWAP1 SWAP2 MSTORE PUSH1 0x3 DUP2 ADD SLOAD SWAP1 SWAP3 AND PUSH1 0x60 DUP3 ADD MSTORE PUSH1 0x4 DUP3 ADD SLOAD PUSH1 0x80 DUP3 ADD MSTORE PUSH1 0x5 SWAP1 SWAP2 ADD SLOAD PUSH1 0xFF AND ISZERO ISZERO PUSH1 0xA0 DUP3 ADD MSTORE DUP7 MLOAD DUP8 SWAP1 DUP5 SWAP1 DUP2 LT PUSH2 0xDFA JUMPI PUSH2 0xDFA PUSH2 0x5389 JUMP JUMPDEST PUSH1 0x20 MUL PUSH1 0x20 ADD ADD DUP2 SWAP1 MSTORE POP DUP2 PUSH1 0x1 ADD SWAP2 POP JUMPDEST PUSH1 0x1 ADD PUSH2 0xD33 JUMP JUMPDEST POP POP POP POP POP SWAP2 SWAP1 POP JUMP JUMPDEST DUP2 PUSH2 0xE28 DUP2 PUSH2 0x3EB1 JUMP JUMPDEST DUP2 PUSH2 0xE32 DUP2 PUSH2 0x3E7D JUMP JUMPDEST PUSH1 0x40 MLOAD DUP1 PUSH1 0x40 ADD PUSH1 0x40 MSTORE DUP1 PUSH1 0x19 DUP2 MSTORE PUSH1 0x20 ADD PUSH1 0x0 DUP1 MLOAD PUSH1 0x20 PUSH2 0x5539 DUP4 CODECOPY DUP2 MLOAD SWAP2 MSTORE DUP2 MSTORE POP SWAP1 PUSH2 0xE74 JUMPI PUSH1 0x40 MLOAD PUSH3 0x461BCD PUSH1 0xE5 SHL DUP2 MSTORE PUSH1 0x4 ADD PUSH2 0xC2A SWAP2 SWAP1 PUSH2 0x5356 JUMP JUMPDEST POP PUSH1 0x0 DUP6 DUP2 MSTORE PUSH1 0x10 PUSH1 0x20 MSTORE PUSH1 0x40 DUP2 KECCAK256 SWAP1 PUSH1 0x3 DUP3 DUP2 ADD SLOAD PUSH1 0x1 PUSH1 0xA0 SHL SWAP1 DIV PUSH1 0xFF AND SWAP1 DUP2 GT ISZERO PUSH2 0xEA4 JUMPI PUSH2 0xEA4 PUSH2 0x5221 JUMP JUMPDEST EQ PUSH1 0x40 MLOAD DUP1 PUSH1 0x40 ADD PUSH1 0x40 MSTORE DUP1 PUSH1 0x13 DUP2 MSTORE PUSH1 0x20 ADD PUSH19 0x141C9BDC195C9D1E481B9BDD081B1A5CDD1959 PUSH1 0x6A SHL DUP2 MSTORE POP SWAP1 PUSH2 0xEEF JUMPI PUSH1 0x40 MLOAD PUSH3 0x461BCD PUSH1 0xE5 SHL DUP2 MSTORE PUSH1 0x4 ADD PUSH2 0xC2A SWAP2 SWAP1 PUSH2 0x5356 JUMP JUMPDEST POP PUSH1 0x1 DUP2 ADD SLOAD PUSH1 0x40 DUP1 MLOAD DUP1 DUP3 ADD SWAP1 SWAP2 MSTORE PUSH1 0xE DUP2 MSTORE PUSH14 0x2737BA103A34329039B2B63632B9 PUSH1 0x91 SHL PUSH1 0x20 DUP3 ADD MSTORE SWAP1 PUSH1 0x1 PUSH1 0x1 PUSH1 0xA0 SHL SUB AND CALLER EQ PUSH2 0xF43 JUMPI PUSH1 0x40 MLOAD PUSH3 0x461BCD PUSH1 0xE5 SHL DUP2 MSTORE PUSH1 0x4 ADD PUSH2 0xC2A SWAP2 SWAP1 PUSH2 0x5356 JUMP JUMPDEST POP PUSH1 0x40 MLOAD PUSH4 0x31A9108F PUSH1 0xE1 SHL DUP2 MSTORE PUSH1 0x4 DUP2 ADD DUP8 SWAP1 MSTORE CALLER SWAP1 PUSH1 0x1 PUSH1 0x1 PUSH1 0xA0 SHL SUB PUSH32 0x0 AND SWAP1 PUSH4 0x6352211E SWAP1 PUSH1 0x24 ADD PUSH1 0x20 PUSH1 0x40 MLOAD DUP1 DUP4 SUB DUP2 DUP7 GAS STATICCALL ISZERO DUP1 ISZERO PUSH2 0xFAB JUMPI RETURNDATASIZE PUSH1 0x0 DUP1 RETURNDATACOPY RETURNDATASIZE PUSH1 0x0 REVERT JUMPDEST POP POP POP POP PUSH1 0x40 MLOAD RETURNDATASIZE PUSH1 0x1F NOT PUSH1 0x1F DUP3 ADD AND DUP3 ADD DUP1 PUSH1 0x40 MSTORE POP DUP2 ADD SWAP1 PUSH2 0xFCF SWAP2 SWAP1 PUSH2 0x53B5 JUMP JUMPDEST PUSH1 0x1 PUSH1 0x1 PUSH1 0xA0 SHL SUB AND EQ PUSH1 0x40 MLOAD DUP1 PUSH1 0x40 ADD PUSH1 0x40 MSTORE DUP1 PUSH1 0xD DUP2 MSTORE PUSH1 0x20 ADD PUSH13 0x2737BA1027232A1037BBB732B9 PUSH1 0x99 SHL DUP2 MSTORE POP SWAP1 PUSH2 0x101D JUMPI PUSH1 0x40 MLOAD PUSH3 0x461BCD PUSH1 0xE5 SHL DUP2 MSTORE PUSH1 0x4 ADD PUSH2 0xC2A SWAP2 SWAP1 PUSH2 0x5356 JUMP JUMPDEST POP PUSH1 0x2 DUP2 ADD DUP1 SLOAD PUSH1 0x3 DUP4 ADD DUP1 SLOAD SWAP3 DUP9 SWAP1 SSTORE PUSH1 0x1 PUSH1 0x1 PUSH1 0xA0 SHL SUB DUP8 DUP2 AND PUSH1 0x1 PUSH1 0x1 PUSH1 0xA0 SHL SUB NOT DUP6 AND OR SWAP1 SWAP2 SSTORE TIMESTAMP PUSH1 0x5 DUP6 ADD SSTORE PUSH1 0x40 MLOAD SWAP2 SWAP3 AND SWAP1 DUP9 SWAP1 PUSH32 0xB82CB8D1EE5AA2AF90399F2B0ECE446B81A5F1E601DA16A2A2B62DFCC8BB4BA3 SWAP1 PUSH2 0x1098 SWAP1 DUP11 SWAP1 DUP11 SWAP1 SWAP2 DUP3 MSTORE PUSH1 0x1 PUSH1 0x1 PUSH1 0xA0 SHL SUB AND PUSH1 0x20 DUP3 ADD MSTORE PUSH1 0x40 ADD SWAP1 JUMP JUMPDEST PUSH1 0x40 MLOAD DUP1 SWAP2 SUB SWAP1 LOG2 PUSH1 0x40 DUP1 MLOAD DUP4 DUP2 MSTORE PUSH1 0x20 DUP2 ADD DUP10 SWAP1 MSTORE PUSH1 0x1 PUSH1 0x1 PUSH1 0xA0 SHL SUB DUP4 DUP2 AND DUP3 DUP5 ADD MSTORE DUP9 AND PUSH1 0x60 DUP3 ADD MSTORE SWAP1 MLOAD DUP10 SWAP2 PUSH32 0x365E79FA1534844B39F485CADFCEE4D3132FE10F0ED8C862D07AFFD19EC72597 SWAP2 SWAP1 DUP2 SWAP1 SUB PUSH1 0x80 ADD SWAP1 LOG2 POP POP POP POP POP POP POP POP JUMP JUMPDEST PUSH1 0x0 DUP3 DUP2 MSTORE PUSH1 0x1 PUSH1 0x20 DUP2 SWAP1 MSTORE PUSH1 0x40 SWAP1 SWAP2 KECCAK256 ADD SLOAD PUSH2 0x1119 DUP2 PUSH2 0x3EF4 JUMP JUMPDEST PUSH2 0x1123 DUP4 DUP4 PUSH2 0x3EFE JUMP JUMPDEST PUSH1 0x40 MLOAD CALLER SWAP1 PUSH1 0x1 PUSH1 0x1 PUSH1 0xA0 SHL SUB DUP5 AND SWAP1 DUP6 SWAP1 PUSH32 0xB754D28367D5B086C81243C886EAD0839C92CB5F281E492D7159800BC57D3C17 SWAP1 PUSH1 0x0 SWAP1 LOG4 POP POP POP JUMP JUMPDEST PUSH1 0x1 PUSH1 0x1 PUSH1 0xA0 SHL SUB DUP2 AND CALLER EQ PUSH2 0x11D0 JUMPI PUSH1 0x40 MLOAD PUSH3 0x461BCD PUSH1 0xE5 SHL DUP2 MSTORE PUSH1 0x20 PUSH1 0x4 DUP3 ADD MSTORE PUSH1 0x2F PUSH1 0x24 DUP3 ADD MSTORE PUSH32 0x416363657373436F6E74726F6C3A2063616E206F6E6C792072656E6F756E6365 PUSH1 0x44 DUP3 ADD MSTORE PUSH15 0x103937B632B9903337B91039B2B633 PUSH1 0x89 SHL PUSH1 0x64 DUP3 ADD MSTORE PUSH1 0x84 ADD PUSH2 0xC2A JUMP JUMPDEST PUSH2 0x11DA DUP3 DUP3 PUSH2 0x3F24 JUMP JUMPDEST POP POP JUMP JUMPDEST PUSH1 0x0 DUP1 MLOAD PUSH1 0x20 PUSH2 0x5559 DUP4 CODECOPY DUP2 MLOAD SWAP2 MSTORE PUSH2 0x11F7 DUP2 CALLER PUSH2 0x22FF JUMP JUMPDEST PUSH1 0x40 MLOAD DUP1 PUSH1 0x40 ADD PUSH1 0x40 MSTORE DUP1 PUSH1 0x11 DUP2 MSTORE PUSH1 0x20 ADD PUSH17 0x13DC195C985D1BDC881C995C5D5A5C9959 PUSH1 0x7A SHL DUP2 MSTORE POP SWAP1 PUSH2 0x123F JUMPI PUSH1 0x40 MLOAD PUSH3 0x461BCD PUSH1 0xE5 SHL DUP2 MSTORE PUSH1 0x4 ADD PUSH2 0xC2A SWAP2 SWAP1 PUSH2 0x5356 JUMP JUMPDEST POP PUSH1 0x1 PUSH1 0x1 PUSH1 0xA0 SHL SUB DUP3 AND PUSH2 0x1296 JUMPI PUSH1 0x40 MLOAD PUSH3 0x461BCD PUSH1 0xE5 SHL DUP2 MSTORE PUSH1 0x20 PUSH1 0x4 DUP3 ADD MSTORE PUSH1 0x19 PUSH1 0x24 DUP3 ADD MSTORE PUSH32 0x45544820697320616C6C6F7765642062792064656661756C7400000000000000 PUSH1 0x44 DUP3 ADD MSTORE PUSH1 0x64 ADD PUSH2 0xC2A JUMP JUMPDEST PUSH1 0x1 PUSH1 0x1 PUSH1 0xA0 SHL SUB DUP3 AND PUSH1 0x0 DUP2 DUP2 MSTORE PUSH1 0xE PUSH1 0x20 MSTORE PUSH1 0x40 DUP1 DUP3 KECCAK256 DUP1 SLOAD PUSH1 0xFF NOT AND PUSH1 0x1 OR SWAP1 SSTORE MLOAD CALLER SWAP3 SWAP2 PUSH32 0xB96E353E41685D2C0C71657628655373417F3980DC2E6244EF705DB758401D53 SWAP2 LOG3 POP POP JUMP JUMPDEST PUSH32 0x6393FA734211156FCC8C7DDA6B0650F5C731D4C838C1DB43445A149AA2F5B6FE PUSH2 0x130F DUP2 PUSH2 0x3EF4 JUMP JUMPDEST PUSH1 0x9 SLOAD PUSH1 0x1 PUSH1 0x1 PUSH1 0xA0 SHL SUB AND PUSH2 0x135F JUMPI PUSH1 0x40 MLOAD PUSH3 0x461BCD PUSH1 0xE5 SHL DUP2 MSTORE PUSH1 0x20 PUSH1 0x4 DUP3 ADD MSTORE PUSH1 0x15 PUSH1 0x24 DUP3 ADD MSTORE PUSH21 0x14995DD85C991CC81D985D5B1D081B9BDD081CD95D PUSH1 0x5A SHL PUSH1 0x44 DUP3 ADD MSTORE PUSH1 0x64 ADD PUSH2 0xC2A JUMP JUMPDEST PUSH2 0x7D0 DUP5 GT ISZERO PUSH2 0x13A2 JUMPI PUSH1 0x40 MLOAD PUSH3 0x461BCD PUSH1 0xE5 SHL DUP2 MSTORE PUSH1 0x20 PUSH1 0x4 DUP3 ADD MSTORE PUSH1 0xE PUSH1 0x24 DUP3 ADD MSTORE PUSH14 0x426173652072617465203E323025 PUSH1 0x90 SHL PUSH1 0x44 DUP3 ADD MSTORE PUSH1 0x64 ADD PUSH2 0xC2A JUMP JUMPDEST PUSH2 0x7D0 DUP4 GT ISZERO PUSH2 0x13E6 JUMPI PUSH1 0x40 MLOAD PUSH3 0x461BCD PUSH1 0xE5 SHL DUP2 MSTORE PUSH1 0x20 PUSH1 0x4 DUP3 ADD MSTORE PUSH1 0xF PUSH1 0x24 DUP3 ADD MSTORE PUSH15 0x4D756C7469706C696572203E323025 PUSH1 0x88 SHL PUSH1 0x44 DUP3 ADD MSTORE PUSH1 0x64 ADD PUSH2 0xC2A JUMP JUMPDEST PUSH2 0x1F4 DUP3 GT ISZERO PUSH2 0x142A JUMPI PUSH1 0x40 MLOAD PUSH3 0x461BCD PUSH1 0xE5 SHL DUP2 MSTORE PUSH1 0x20 PUSH1 0x4 DUP3 ADD MSTORE PUSH1 0xF PUSH1 0x24 DUP3 ADD MSTORE PUSH15 0x4C6561736520626F6E7573203E3525 PUSH1 0x88 SHL PUSH1 0x44 DUP3 ADD MSTORE PUSH1 0x64 ADD PUSH2 0xC2A JUMP JUMPDEST PUSH1 0x6 DUP1 SLOAD PUSH1 0x7 DUP1 SLOAD SWAP3 DUP8 SWAP1 SSTORE DUP6 SWAP1 SSTORE PUSH1 0x8 DUP5 SWAP1 SSTORE PUSH1 0x40 DUP1 MLOAD DUP3 DUP2 MSTORE PUSH1 0x20 DUP2 ADD DUP9 SWAP1 MSTORE SWAP1 DUP2 ADD DUP4 SWAP1 MSTORE PUSH1 0x60 DUP2 ADD DUP7 SWAP1 MSTORE SWAP1 SWAP2 SWAP1 CALLER SWAP1 PUSH32 0xDF3827857CF8AC45829164BD76E2950687437E15FF8543F477AE73691EE013B1 SWAP1 PUSH1 0x80 ADD JUMPDEST PUSH1 0x40 MLOAD DUP1 SWAP2 SUB SWAP1 LOG2 POP POP POP POP POP POP JUMP JUMPDEST PUSH2 0x149C PUSH2 0x3F8B JUMP JUMPDEST PUSH1 0x40 MLOAD PUSH4 0x2A5BB1B7 PUSH1 0xE1 SHL DUP2 MSTORE CALLER PUSH1 0x4 DUP3 ADD MSTORE ADDRESS SWAP1 PUSH4 0x54B7636E SWAP1 PUSH1 0x24 ADD PUSH1 0x20 PUSH1 0x40 MLOAD DUP1 DUP4 SUB DUP2 DUP7 GAS STATICCALL ISZERO DUP1 ISZERO PUSH2 0x14D7 JUMPI RETURNDATASIZE PUSH1 0x0 DUP1 RETURNDATACOPY RETURNDATASIZE PUSH1 0x0 REVERT JUMPDEST POP POP POP POP PUSH1 0x40 MLOAD RETURNDATASIZE PUSH1 0x1F NOT PUSH1 0x1F DUP3 ADD AND DUP3 ADD DUP1 PUSH1 0x40 MSTORE POP DUP2 ADD SWAP1 PUSH2 0x14FB SWAP2 SWAP1 PUSH2 0x53D2 JUMP JUMPDEST PUSH1 0x40 MLOAD DUP1 PUSH1 0x40 ADD PUSH1 0x40 MSTORE DUP1 PUSH1 0xC DUP2 MSTORE PUSH1 0x20 ADD PUSH12 0x12D650C81C995C5D5A5C9959 PUSH1 0xA2 SHL DUP2 MSTORE POP SWAP1 PUSH2 0x153E JUMPI PUSH1 0x40 MLOAD PUSH3 0x461BCD PUSH1 0xE5 SHL DUP2 MSTORE PUSH1 0x4 ADD PUSH2 0xC2A SWAP2 SWAP1 PUSH2 0x5356 JUMP JUMPDEST POP DUP1 PUSH2 0x1549 DUP2 PUSH2 0x3EB1 JUMP JUMPDEST PUSH1 0x0 DUP4 DUP2 MSTORE PUSH1 0x10 PUSH1 0x20 MSTORE PUSH1 0x40 DUP2 KECCAK256 SWAP1 PUSH1 0x3 DUP3 DUP2 ADD SLOAD PUSH1 0x1 PUSH1 0xA0 SHL SWAP1 DIV PUSH1 0xFF AND SWAP1 DUP2 GT ISZERO PUSH2 0x1578 JUMPI PUSH2 0x1578 PUSH2 0x5221 JUMP JUMPDEST EQ PUSH1 0x40 MLOAD DUP1 PUSH1 0x40 ADD PUSH1 0x40 MSTORE DUP1 PUSH1 0xD DUP2 MSTORE PUSH1 0x20 ADD PUSH13 0x4E6F7420617661696C61626C65 PUSH1 0x98 SHL DUP2 MSTORE POP SWAP1 PUSH2 0x15BD JUMPI PUSH1 0x40 MLOAD PUSH3 0x461BCD PUSH1 0xE5 SHL DUP2 MSTORE PUSH1 0x4 ADD PUSH2 0xC2A SWAP2 SWAP1 PUSH2 0x5356 JUMP JUMPDEST POP PUSH1 0x2 DUP2 ADD SLOAD PUSH1 0x3 DUP3 ADD SLOAD PUSH2 0x15DD SWAP2 SWAP1 DUP6 SWAP1 PUSH1 0x1 PUSH1 0x1 PUSH1 0xA0 SHL SUB AND PUSH2 0x3FE4 JUMP JUMPDEST PUSH1 0x40 MLOAD DUP1 PUSH1 0x40 ADD PUSH1 0x40 MSTORE DUP1 PUSH1 0xE DUP2 MSTORE PUSH1 0x20 ADD PUSH14 0x14185E5B595B9D0819985A5B1959 PUSH1 0x92 SHL DUP2 MSTORE POP SWAP1 PUSH2 0x1622 JUMPI PUSH1 0x40 MLOAD PUSH3 0x461BCD PUSH1 0xE5 SHL DUP2 MSTORE PUSH1 0x4 ADD PUSH2 0xC2A SWAP2 SWAP1 PUSH2 0x5356 JUMP JUMPDEST POP PUSH1 0x3 DUP2 ADD DUP1 SLOAD PUSH1 0xFF PUSH1 0xA0 SHL NOT AND PUSH1 0x1 PUSH1 0xA1 SHL OR SWAP1 SSTORE PUSH2 0x1641 DUP5 PUSH2 0x402B JUMP JUMPDEST PUSH1 0x1 DUP2 ADD SLOAD PUSH1 0x2 DUP3 ADD SLOAD PUSH1 0x3 DUP4 ADD SLOAD PUSH2 0x166A SWAP3 PUSH1 0x1 PUSH1 0x1 PUSH1 0xA0 SHL SUB SWAP1 DUP2 AND SWAP3 CALLER SWAP3 SWAP1 SWAP2 AND PUSH2 0x41B1 JUMP JUMPDEST PUSH1 0x1 DUP2 ADD SLOAD PUSH1 0x40 MLOAD PUSH4 0x5C46A7EF PUSH1 0xE1 SHL DUP2 MSTORE PUSH1 0x1 PUSH1 0x1 PUSH1 0xA0 SHL SUB SWAP2 DUP3 AND PUSH1 0x4 DUP3 ADD MSTORE CALLER PUSH1 0x24 DUP3 ADD MSTORE PUSH1 0x44 DUP2 ADD DUP7 SWAP1 MSTORE PUSH1 0x80 PUSH1 0x64 DUP3 ADD MSTORE PUSH1 0x0 PUSH1 0x84 DUP3 ADD MSTORE PUSH32 0x0 SWAP1 SWAP2 AND SWAP1 PUSH4 0xB88D4FDE SWAP1 PUSH1 0xA4 ADD PUSH1 0x0 PUSH1 0x40 MLOAD DUP1 DUP4 SUB DUP2 PUSH1 0x0 DUP8 DUP1 EXTCODESIZE ISZERO DUP1 ISZERO PUSH2 0x16EF JUMPI PUSH1 0x0 DUP1 REVERT JUMPDEST POP GAS CALL ISZERO DUP1 ISZERO PUSH2 0x1703 JUMPI RETURNDATASIZE PUSH1 0x0 DUP1 RETURNDATACOPY RETURNDATASIZE PUSH1 0x0 REVERT JUMPDEST POP POP POP POP PUSH1 0x2 DUP2 ADD SLOAD PUSH1 0x3 DUP3 ADD SLOAD PUSH1 0x40 DUP1 MLOAD CALLER DUP2 MSTORE PUSH1 0x20 DUP2 ADD SWAP4 SWAP1 SWAP4 MSTORE PUSH1 0x1 PUSH1 0x1 PUSH1 0xA0 SHL SUB SWAP1 SWAP2 AND SWAP1 DUP3 ADD MSTORE DUP5 SWAP1 PUSH32 0x5BE1CEF2101AFBBF72FCCD811A15CCFDEDC8C44B5F50934100F262FFCD9A1F06 SWAP1 PUSH1 0x60 ADD PUSH1 0x40 MLOAD DUP1 SWAP2 SUB SWAP1 LOG2 POP POP PUSH2 0x11DA PUSH1 0x1 PUSH1 0x0 SSTORE JUMP JUMPDEST PUSH1 0x0 PUSH2 0xBC3 PUSH1 0xA DUP4 PUSH2 0x41E8 JUMP JUMPDEST PUSH32 0xB9F13ECB5E7F0F859C44B76B3A163E504787B446DA95A26BF75E53E1FF4A1E0E PUSH2 0x17A1 DUP2 PUSH2 0x3EF4 JUMP JUMPDEST DUP3 PUSH1 0x0 JUMPDEST DUP2 DUP2 LT ISZERO PUSH2 0x184A JUMPI PUSH1 0x0 DUP7 DUP7 DUP4 DUP2 DUP2 LT PUSH2 0x17C1 JUMPI PUSH2 0x17C1 PUSH2 0x5389 JUMP JUMPDEST SWAP1 POP PUSH1 0x20 MUL ADD PUSH1 0x20 DUP2 ADD SWAP1 PUSH2 0x17D6 SWAP2 SWAP1 PUSH2 0x5083 JUMP JUMPDEST SWAP1 POP DUP5 ISZERO PUSH2 0x17EF JUMPI PUSH2 0x17E9 PUSH1 0xA DUP3 PUSH2 0x420A JUMP JUMPDEST POP PUSH2 0x17FC JUMP JUMPDEST PUSH2 0x17FA PUSH1 0xA DUP3 PUSH2 0x421F JUMP JUMPDEST POP JUMPDEST DUP1 PUSH1 0x1 PUSH1 0x1 PUSH1 0xA0 SHL SUB AND PUSH32 0x2DF1CAD2A2659E001C3804C872F69655356013E35C18C2E77A5D568078AB788F DUP7 PUSH1 0x40 MLOAD PUSH2 0x1839 SWAP2 ISZERO ISZERO DUP2 MSTORE PUSH1 0x20 ADD SWAP1 JUMP JUMPDEST PUSH1 0x40 MLOAD DUP1 SWAP2 SUB SWAP1 LOG2 POP PUSH1 0x1 ADD PUSH2 0x17A5 JUMP JUMPDEST POP POP POP POP POP POP JUMP JUMPDEST PUSH2 0x185A PUSH2 0x4EAB JUMP JUMPDEST PUSH1 0x1 PUSH1 0x1 PUSH1 0xA0 SHL SUB DUP3 AND PUSH1 0x0 SWAP1 DUP2 MSTORE PUSH1 0x13 PUSH1 0x20 SWAP1 DUP2 MSTORE PUSH1 0x40 DUP1 DUP4 KECCAK256 DUP7 DUP5 MSTORE SWAP1 SWAP2 MSTORE DUP2 KECCAK256 SLOAD SWAP1 DUP2 SWAP1 SUB PUSH2 0x18BF JUMPI POP POP PUSH1 0x40 DUP1 MLOAD PUSH1 0xC0 DUP2 ADD DUP3 MSTORE PUSH1 0x0 DUP1 DUP3 MSTORE PUSH1 0x20 DUP3 ADD DUP2 SWAP1 MSTORE SWAP2 DUP2 ADD DUP3 SWAP1 MSTORE PUSH1 0x60 DUP2 ADD DUP3 SWAP1 MSTORE PUSH1 0x80 DUP2 ADD DUP3 SWAP1 MSTORE PUSH1 0xA0 DUP2 ADD SWAP2 SWAP1 SWAP2 MSTORE PUSH2 0xBC3 JUMP JUMPDEST PUSH1 0x0 DUP5 DUP2 MSTORE PUSH1 0x11 PUSH1 0x20 MSTORE PUSH1 0x40 SWAP1 KECCAK256 PUSH2 0x18D8 PUSH1 0x1 DUP4 PUSH2 0x5405 JUMP JUMPDEST DUP2 SLOAD DUP2 LT PUSH2 0x18E8 JUMPI PUSH2 0x18E8 PUSH2 0x5389 JUMP JUMPDEST PUSH1 0x0 SWAP2 DUP3 MSTORE PUSH1 0x20 SWAP2 DUP3 SWAP1 KECCAK256 PUSH1 0x40 DUP1 MLOAD PUSH1 0xC0 DUP2 ADD DUP3 MSTORE PUSH1 0x6 SWAP1 SWAP4 MUL SWAP1 SWAP2 ADD DUP1 SLOAD DUP4 MSTORE PUSH1 0x1 DUP2 ADD SLOAD PUSH1 0x1 PUSH1 0x1 PUSH1 0xA0 SHL SUB SWAP1 DUP2 AND SWAP5 DUP5 ADD SWAP5 SWAP1 SWAP5 MSTORE PUSH1 0x2 DUP2 ADD SLOAD SWAP2 DUP4 ADD SWAP2 SWAP1 SWAP2 MSTORE PUSH1 0x3 DUP2 ADD SLOAD SWAP1 SWAP3 AND PUSH1 0x60 DUP3 ADD MSTORE PUSH1 0x4 DUP3 ADD SLOAD PUSH1 0x80 DUP3 ADD MSTORE PUSH1 0x5 SWAP1 SWAP2 ADD SLOAD PUSH1 0xFF AND ISZERO ISZERO PUSH1 0xA0 DUP3 ADD MSTORE SWAP2 POP POP SWAP3 SWAP2 POP POP JUMP JUMPDEST PUSH2 0x1964 PUSH2 0x3F8B JUMP JUMPDEST PUSH1 0x0 DUP2 DUP2 MSTORE PUSH1 0x12 PUSH1 0x20 SWAP1 DUP2 MSTORE PUSH1 0x40 DUP1 DUP4 KECCAK256 CALLER DUP5 MSTORE DUP3 MSTORE SWAP2 DUP3 SWAP1 KECCAK256 SLOAD DUP3 MLOAD DUP1 DUP5 ADD SWAP1 SWAP4 MSTORE PUSH1 0x14 DUP4 MSTORE PUSH20 0x496E73756666696369656E742062616C616E6365 PUSH1 0x60 SHL SWAP2 DUP4 ADD SWAP2 SWAP1 SWAP2 MSTORE SWAP1 DUP2 PUSH2 0x19C9 JUMPI PUSH1 0x40 MLOAD PUSH3 0x461BCD PUSH1 0xE5 SHL DUP2 MSTORE PUSH1 0x4 ADD PUSH2 0xC2A SWAP2 SWAP1 PUSH2 0x5356 JUMP JUMPDEST POP CALLER PUSH1 0x0 SWAP1 DUP2 MSTORE PUSH1 0x13 PUSH1 0x20 SWAP1 DUP2 MSTORE PUSH1 0x40 DUP1 DUP4 KECCAK256 DUP6 DUP5 MSTORE SWAP1 SWAP2 MSTORE SWAP1 KECCAK256 SLOAD DUP1 ISZERO PUSH2 0x1A7E JUMPI PUSH1 0x0 DUP4 DUP2 MSTORE PUSH1 0x11 PUSH1 0x20 MSTORE PUSH1 0x40 DUP2 KECCAK256 PUSH2 0x1A04 PUSH1 0x1 DUP5 PUSH2 0x5405 JUMP JUMPDEST DUP2 SLOAD DUP2 LT PUSH2 0x1A14 JUMPI PUSH2 0x1A14 PUSH2 0x5389 JUMP JUMPDEST PUSH1 0x0 SWAP2 DUP3 MSTORE PUSH1 0x20 SWAP1 SWAP2 KECCAK256 PUSH1 0x6 SWAP1 SWAP2 MUL ADD PUSH1 0x5 DUP2 ADD SLOAD SWAP1 SWAP2 POP PUSH1 0xFF AND ISZERO PUSH2 0x1A7C JUMPI PUSH1 0x40 MLOAD PUSH3 0x461BCD PUSH1 0xE5 SHL DUP2 MSTORE PUSH1 0x20 PUSH1 0x4 DUP3 ADD MSTORE PUSH1 0x1F PUSH1 0x24 DUP3 ADD MSTORE PUSH32 0x43616E6E6F742077697468647261772077697468206163746976652062696400 PUSH1 0x44 DUP3 ADD MSTORE PUSH1 0x64 ADD PUSH2 0xC2A JUMP JUMPDEST POP JUMPDEST PUSH1 0x0 DUP4 DUP2 MSTORE PUSH1 0x12 PUSH1 0x20 SWAP1 DUP2 MSTORE PUSH1 0x40 DUP1 DUP4 KECCAK256 CALLER DUP1 DUP6 MSTORE SWAP3 MSTORE DUP1 DUP4 KECCAK256 DUP4 SWAP1 SSTORE MLOAD PUSH2 0x8FC SWAP1 DUP6 SWAP1 DUP5 DUP2 DUP2 DUP2 DUP6 DUP9 DUP9 CALL SWAP4 POP POP POP POP RETURNDATASIZE DUP1 PUSH1 0x0 DUP2 EQ PUSH2 0x1ADB JUMPI PUSH1 0x40 MLOAD SWAP2 POP PUSH1 0x1F NOT PUSH1 0x3F RETURNDATASIZE ADD AND DUP3 ADD PUSH1 0x40 MSTORE RETURNDATASIZE DUP3 MSTORE RETURNDATASIZE PUSH1 0x0 PUSH1 0x20 DUP5 ADD RETURNDATACOPY PUSH2 0x1AE0 JUMP JUMPDEST PUSH1 0x60 SWAP2 POP JUMPDEST POP POP SWAP1 POP DUP1 PUSH1 0x40 MLOAD DUP1 PUSH1 0x40 ADD PUSH1 0x40 MSTORE DUP1 PUSH1 0xF DUP2 MSTORE PUSH1 0x20 ADD PUSH15 0x151C985B9CD9995C8819985A5B1959 PUSH1 0x8A SHL DUP2 MSTORE POP SWAP1 PUSH2 0x1B2B JUMPI PUSH1 0x40 MLOAD PUSH3 0x461BCD PUSH1 0xE5 SHL DUP2 MSTORE PUSH1 0x4 ADD PUSH2 0xC2A SWAP2 SWAP1 PUSH2 0x5356 JUMP JUMPDEST POP PUSH1 0x40 MLOAD DUP4 DUP2 MSTORE CALLER SWAP1 DUP6 SWAP1 PUSH32 0x18FCB562D23857DF60E33824B748CB5C3AF4E22375458317E7A33E52A971413F SWAP1 PUSH1 0x20 ADD JUMPDEST PUSH1 0x40 MLOAD DUP1 SWAP2 SUB SWAP1 LOG3 POP POP POP PUSH2 0x1B71 PUSH1 0x1 PUSH1 0x0 SSTORE JUMP JUMPDEST POP JUMP JUMPDEST PUSH2 0x1B7C PUSH2 0x3F8B JUMP JUMPDEST PUSH1 0x40 MLOAD PUSH4 0x2A5BB1B7 PUSH1 0xE1 SHL DUP2 MSTORE CALLER PUSH1 0x4 DUP3 ADD MSTORE ADDRESS SWAP1 PUSH4 0x54B7636E SWAP1 PUSH1 0x24 ADD PUSH1 0x20 PUSH1 0x40 MLOAD DUP1 DUP4 SUB DUP2 DUP7 GAS STATICCALL ISZERO DUP1 ISZERO PUSH2 0x1BB7 JUMPI RETURNDATASIZE PUSH1 0x0 DUP1 RETURNDATACOPY RETURNDATASIZE PUSH1 0x0 REVERT JUMPDEST POP POP POP POP PUSH1 0x40 MLOAD RETURNDATASIZE PUSH1 0x1F NOT PUSH1 0x1F DUP3 ADD AND DUP3 ADD DUP1 PUSH1 0x40 MSTORE POP DUP2 ADD SWAP1 PUSH2 0x1BDB SWAP2 SWAP1 PUSH2 0x53D2 JUMP JUMPDEST PUSH1 0x40 MLOAD DUP1 PUSH1 0x40 ADD PUSH1 0x40 MSTORE DUP1 PUSH1 0xC DUP2 MSTORE PUSH1 0x20 ADD PUSH12 0x12D650C81C995C5D5A5C9959 PUSH1 0xA2 SHL DUP2 MSTORE POP SWAP1 PUSH2 0x1C1E JUMPI PUSH1 0x40 MLOAD PUSH3 0x461BCD PUSH1 0xE5 SHL DUP2 MSTORE PUSH1 0x4 ADD PUSH2 0xC2A SWAP2 SWAP1 PUSH2 0x5356 JUMP JUMPDEST POP DUP1 PUSH2 0x1C29 DUP2 PUSH2 0x3E7D JUMP JUMPDEST PUSH1 0x40 MLOAD DUP1 PUSH1 0x40 ADD PUSH1 0x40 MSTORE DUP1 PUSH1 0x19 DUP2 MSTORE PUSH1 0x20 ADD PUSH1 0x0 DUP1 MLOAD PUSH1 0x20 PUSH2 0x5539 DUP4 CODECOPY DUP2 MLOAD SWAP2 MSTORE DUP2 MSTORE POP SWAP1 PUSH2 0x1C6B JUMPI PUSH1 0x40 MLOAD PUSH3 0x461BCD PUSH1 0xE5 SHL DUP2 MSTORE PUSH1 0x4 ADD PUSH2 0xC2A SWAP2 SWAP1 PUSH2 0x5356 JUMP JUMPDEST POP DUP3 PUSH2 0x1C76 DUP2 PUSH2 0x3EB1 JUMP JUMPDEST PUSH1 0x40 MLOAD PUSH4 0x31A9108F PUSH1 0xE1 SHL DUP2 MSTORE PUSH1 0x4 DUP2 ADD DUP7 SWAP1 MSTORE CALLER SWAP1 PUSH1 0x1 PUSH1 0x1 PUSH1 0xA0 SHL SUB PUSH32 0x0 AND SWAP1 PUSH4 0x6352211E SWAP1 PUSH1 0x24 ADD PUSH1 0x20 PUSH1 0x40 MLOAD DUP1 DUP4 SUB DUP2 DUP7 GAS STATICCALL ISZERO DUP1 ISZERO PUSH2 0x1CDD JUMPI RETURNDATASIZE PUSH1 0x0 DUP1 RETURNDATACOPY RETURNDATASIZE PUSH1 0x0 REVERT JUMPDEST POP POP POP POP PUSH1 0x40 MLOAD RETURNDATASIZE PUSH1 0x1F NOT PUSH1 0x1F DUP3 ADD AND DUP3 ADD DUP1 PUSH1 0x40 MSTORE POP DUP2 ADD SWAP1 PUSH2 0x1D01 SWAP2 SWAP1 PUSH2 0x53B5 JUMP JUMPDEST PUSH1 0x1 PUSH1 0x1 PUSH1 0xA0 SHL SUB AND EQ PUSH1 0x40 MLOAD DUP1 PUSH1 0x40 ADD PUSH1 0x40 MSTORE DUP1 PUSH1 0xD DUP2 MSTORE PUSH1 0x20 ADD PUSH13 0x2737BA1027232A1037BBB732B9 PUSH1 0x99 SHL DUP2 MSTORE POP SWAP1 PUSH2 0x1D4F JUMPI PUSH1 0x40 MLOAD PUSH3 0x461BCD PUSH1 0xE5 SHL DUP2 MSTORE PUSH1 0x4 ADD PUSH2 0xC2A SWAP2 SWAP1 PUSH2 0x5356 JUMP JUMPDEST POP PUSH1 0x0 DUP1 DUP7 DUP2 MSTORE PUSH1 0x10 PUSH1 0x20 MSTORE PUSH1 0x40 SWAP1 KECCAK256 PUSH1 0x3 SWAP1 DUP2 ADD SLOAD PUSH1 0x1 PUSH1 0xA0 SHL SWAP1 DIV PUSH1 0xFF AND SWAP1 DUP2 GT ISZERO PUSH2 0x1D7F JUMPI PUSH2 0x1D7F PUSH2 0x5221 JUMP JUMPDEST EQ ISZERO PUSH1 0x40 MLOAD DUP1 PUSH1 0x40 ADD PUSH1 0x40 MSTORE DUP1 PUSH1 0xE DUP2 MSTORE PUSH1 0x20 ADD PUSH14 0x105B1C9958591E481B1A5CDD1959 PUSH1 0x92 SHL DUP2 MSTORE POP SWAP1 PUSH2 0x1DC6 JUMPI PUSH1 0x40 MLOAD PUSH3 0x461BCD PUSH1 0xE5 SHL DUP2 MSTORE PUSH1 0x4 ADD PUSH2 0xC2A SWAP2 SWAP1 PUSH2 0x5356 JUMP JUMPDEST POP PUSH1 0x40 DUP1 MLOAD PUSH1 0xE0 DUP2 ADD DUP3 MSTORE DUP7 DUP2 MSTORE CALLER PUSH1 0x20 DUP1 DUP4 ADD SWAP2 DUP3 MSTORE DUP3 DUP5 ADD DUP9 DUP2 MSTORE PUSH1 0x1 PUSH1 0x1 PUSH1 0xA0 SHL SUB DUP9 DUP2 AND PUSH1 0x60 DUP7 ADD SWAP1 DUP2 MSTORE PUSH1 0x0 PUSH1 0x80 DUP8 ADD DUP2 DUP2 MSTORE TIMESTAMP PUSH1 0xA0 DUP10 ADD DUP2 SWAP1 MSTORE PUSH1 0xC0 DUP10 ADD MSTORE DUP14 DUP3 MSTORE PUSH1 0x10 SWAP1 SWAP6 MSTORE SWAP7 SWAP1 SWAP7 KECCAK256 DUP6 MLOAD DUP2 SSTORE SWAP4 MLOAD PUSH1 0x1 DUP6 ADD DUP1 SLOAD SWAP2 DUP4 AND PUSH1 0x1 PUSH1 0x1 PUSH1 0xA0 SHL SUB NOT SWAP3 DUP4 AND OR SWAP1 SSTORE SWAP2 MLOAD PUSH1 0x2 DUP6 ADD SSTORE SWAP5 MLOAD PUSH1 0x3 DUP1 DUP6 ADD DUP1 SLOAD SWAP3 SWAP1 SWAP8 AND SWAP3 DUP3 AND DUP4 OR DUP8 SSTORE SWAP3 MLOAD SWAP5 SWAP6 SWAP4 SWAP5 SWAP4 SWAP3 PUSH1 0x1 PUSH1 0x1 PUSH1 0xA8 SHL SUB NOT SWAP1 SWAP2 AND SWAP1 SWAP2 OR SWAP1 PUSH1 0x1 PUSH1 0xA0 SHL SWAP1 DUP5 SWAP1 DUP2 GT ISZERO PUSH2 0x1E7F JUMPI PUSH2 0x1E7F PUSH2 0x5221 JUMP JUMPDEST MUL OR SWAP1 SSTORE POP PUSH1 0xA0 DUP3 ADD MLOAD PUSH1 0x4 DUP3 ADD SSTORE PUSH1 0xC0 SWAP1 SWAP2 ADD MLOAD PUSH1 0x5 SWAP1 SWAP2 ADD SSTORE PUSH1 0x40 DUP1 MLOAD DUP6 DUP2 MSTORE PUSH1 0x1 PUSH1 0x1 PUSH1 0xA0 SHL SUB DUP6 AND PUSH1 0x20 DUP3 ADD MSTORE CALLER SWAP2 DUP8 SWAP2 PUSH32 0x2C6C7576542D9307C65E21C836DA28FC580279667BA9E8D5FE56DCA491D59803 SWAP2 ADD PUSH1 0x40 MLOAD DUP1 SWAP2 SUB SWAP1 LOG3 POP POP PUSH2 0x1EEB PUSH1 0x1 PUSH1 0x0 SSTORE JUMP JUMPDEST POP POP POP JUMP JUMPDEST PUSH1 0x0 DUP1 MLOAD PUSH1 0x20 PUSH2 0x5559 DUP4 CODECOPY DUP2 MLOAD SWAP2 MSTORE PUSH2 0x1F09 DUP2 CALLER PUSH2 0x22FF JUMP JUMPDEST PUSH1 0x40 MLOAD DUP1 PUSH1 0x40 ADD PUSH1 0x40 MSTORE DUP1 PUSH1 0x11 DUP2 MSTORE PUSH1 0x20 ADD PUSH17 0x13DC195C985D1BDC881C995C5D5A5C9959 PUSH1 0x7A SHL DUP2 MSTORE POP SWAP1 PUSH2 0x1F51 JUMPI PUSH1 0x40 MLOAD PUSH3 0x461BCD PUSH1 0xE5 SHL DUP2 MSTORE PUSH1 0x4 ADD PUSH2 0xC2A SWAP2 SWAP1 PUSH2 0x5356 JUMP JUMPDEST POP PUSH1 0x0 DUP5 DUP2 MSTORE PUSH1 0x10 PUSH1 0x20 MSTORE PUSH1 0x40 DUP2 KECCAK256 SWAP1 PUSH1 0x3 DUP3 DUP2 ADD SLOAD PUSH1 0x1 PUSH1 0xA0 SHL SWAP1 DIV PUSH1 0xFF AND SWAP1 DUP2 GT ISZERO PUSH2 0x1F81 JUMPI PUSH2 0x1F81 PUSH2 0x5221 JUMP JUMPDEST EQ PUSH1 0x40 MLOAD DUP1 PUSH1 0x40 ADD PUSH1 0x40 MSTORE DUP1 PUSH1 0x13 DUP2 MSTORE PUSH1 0x20 ADD PUSH19 0x141C9BDC195C9D1E481B9BDD081B1A5CDD1959 PUSH1 0x6A SHL DUP2 MSTORE POP SWAP1 PUSH2 0x1FCC JUMPI PUSH1 0x40 MLOAD PUSH3 0x461BCD PUSH1 0xE5 SHL DUP2 MSTORE PUSH1 0x4 ADD PUSH2 0xC2A SWAP2 SWAP1 PUSH2 0x5356 JUMP JUMPDEST POP PUSH1 0x40 DUP1 MLOAD DUP1 DUP3 ADD SWAP1 SWAP2 MSTORE PUSH1 0xD DUP2 MSTORE PUSH13 0x496E76616C6964207072696365 PUSH1 0x98 SHL PUSH1 0x20 DUP3 ADD MSTORE DUP5 PUSH2 0x200F JUMPI PUSH1 0x40 MLOAD PUSH3 0x461BCD PUSH1 0xE5 SHL DUP2 MSTORE PUSH1 0x4 ADD PUSH2 0xC2A SWAP2 SWAP1 PUSH2 0x5356 JUMP JUMPDEST POP PUSH2 0x2019 DUP4 PUSH2 0x3E7D JUMP JUMPDEST PUSH1 0x40 MLOAD DUP1 PUSH1 0x40 ADD PUSH1 0x40 MSTORE DUP1 PUSH1 0x19 DUP2 MSTORE PUSH1 0x20 ADD PUSH1 0x0 DUP1 MLOAD PUSH1 0x20 PUSH2 0x5539 DUP4 CODECOPY DUP2 MLOAD SWAP2 MSTORE DUP2 MSTORE POP SWAP1 PUSH2 0x205B JUMPI PUSH1 0x40 MLOAD PUSH3 0x461BCD PUSH1 0xE5 SHL DUP2 MSTORE PUSH1 0x4 ADD PUSH2 0xC2A SWAP2 SWAP1 PUSH2 0x5356 JUMP JUMPDEST POP PUSH1 0x2 DUP2 ADD DUP5 SWAP1 SSTORE PUSH1 0x3 DUP2 ADD DUP1 SLOAD PUSH1 0x1 PUSH1 0x1 PUSH1 0xA0 SHL SUB NOT AND PUSH1 0x1 PUSH1 0x1 PUSH1 0xA0 SHL SUB DUP6 AND SWAP1 DUP2 OR SWAP1 SWAP2 SSTORE TIMESTAMP PUSH1 0x5 DUP4 ADD SSTORE PUSH1 0x40 DUP1 MLOAD DUP7 DUP2 MSTORE PUSH1 0x20 DUP2 ADD SWAP3 SWAP1 SWAP3 MSTORE DUP7 SWAP2 PUSH32 0xB82CB8D1EE5AA2AF90399F2B0ECE446B81A5F1E601DA16A2A2B62DFCC8BB4BA3 SWAP2 ADD JUMPDEST PUSH1 0x40 MLOAD DUP1 SWAP2 SUB SWAP1 LOG2 POP POP POP POP POP JUMP JUMPDEST PUSH1 0x0 DUP1 MLOAD PUSH1 0x20 PUSH2 0x5559 DUP4 CODECOPY DUP2 MLOAD SWAP2 MSTORE PUSH2 0x20E5 DUP2 PUSH2 0x3EF4 JUMP JUMPDEST PUSH1 0x1 PUSH1 0x1 PUSH1 0xA0 SHL SUB DUP3 AND PUSH2 0x213B JUMPI PUSH1 0x40 MLOAD PUSH3 0x461BCD PUSH1 0xE5 SHL DUP2 MSTORE PUSH1 0x20 PUSH1 0x4 DUP3 ADD MSTORE PUSH1 0x1D PUSH1 0x24 DUP3 ADD MSTORE PUSH32 0x496E76616C69642066656520636F6C6C6563746F722061646472657373000000 PUSH1 0x44 DUP3 ADD MSTORE PUSH1 0x64 ADD PUSH2 0xC2A JUMP JUMPDEST PUSH1 0x4 SLOAD DUP4 GT ISZERO PUSH2 0x217F JUMPI PUSH1 0x40 MLOAD PUSH3 0x461BCD PUSH1 0xE5 SHL DUP2 MSTORE PUSH1 0x20 PUSH1 0x4 DUP3 ADD MSTORE PUSH1 0xF PUSH1 0x24 DUP3 ADD MSTORE PUSH15 0x45786365656473206D617820666565 PUSH1 0x88 SHL PUSH1 0x44 DUP3 ADD MSTORE PUSH1 0x64 ADD PUSH2 0xC2A JUMP JUMPDEST PUSH1 0x3 DUP1 SLOAD PUSH1 0x4 SLOAD SWAP2 DUP6 SWAP1 SSTORE PUSH1 0x5 DUP1 SLOAD PUSH1 0x1 PUSH1 0x1 PUSH1 0xA0 SHL SUB NOT AND PUSH1 0x1 PUSH1 0x1 PUSH1 0xA0 SHL SUB DUP7 AND OR SWAP1 SSTORE PUSH1 0x40 DUP1 MLOAD DUP3 DUP2 MSTORE PUSH1 0x20 DUP2 ADD DUP8 SWAP1 MSTORE SWAP1 DUP2 ADD DUP4 SWAP1 MSTORE PUSH1 0x60 DUP2 ADD DUP4 SWAP1 MSTORE SWAP1 SWAP2 SWAP1 CALLER SWAP1 PUSH32 0x7C08EC61BFDC4469C5F8EC2332C513AC1E0980475856EFEDF21DA74933485447 SWAP1 PUSH1 0x80 ADD PUSH2 0x20BE JUMP JUMPDEST PUSH1 0x0 DUP1 MLOAD PUSH1 0x20 PUSH2 0x5559 DUP4 CODECOPY DUP2 MLOAD SWAP2 MSTORE PUSH2 0x2208 DUP2 CALLER PUSH2 0x22FF JUMP JUMPDEST PUSH1 0x40 MLOAD DUP1 PUSH1 0x40 ADD PUSH1 0x40 MSTORE DUP1 PUSH1 0x11 DUP2 MSTORE PUSH1 0x20 ADD PUSH17 0x13DC195C985D1BDC881C995C5D5A5C9959 PUSH1 0x7A SHL DUP2 MSTORE POP SWAP1 PUSH2 0x2250 JUMPI PUSH1 0x40 MLOAD PUSH3 0x461BCD PUSH1 0xE5 SHL DUP2 MSTORE PUSH1 0x4 ADD PUSH2 0xC2A SWAP2 SWAP1 PUSH2 0x5356 JUMP JUMPDEST POP PUSH1 0x1 PUSH1 0x1 PUSH1 0xA0 SHL SUB DUP3 AND PUSH2 0x22B3 JUMPI PUSH1 0x40 MLOAD PUSH3 0x461BCD PUSH1 0xE5 SHL DUP2 MSTORE PUSH1 0x20 PUSH1 0x4 DUP3 ADD MSTORE PUSH1 0x23 PUSH1 0x24 DUP3 ADD MSTORE PUSH32 0x43616E6E6F742072656D6F766520455448206173207061796D656E74206D6574 PUSH1 0x44 DUP3 ADD MSTORE PUSH3 0x1A1BD9 PUSH1 0xEA SHL PUSH1 0x64 DUP3 ADD MSTORE PUSH1 0x84 ADD PUSH2 0xC2A JUMP JUMPDEST PUSH1 0x1 PUSH1 0x1 PUSH1 0xA0 SHL SUB DUP3 AND PUSH1 0x0 DUP2 DUP2 MSTORE PUSH1 0xE PUSH1 0x20 MSTORE PUSH1 0x40 DUP1 DUP3 KECCAK256 DUP1 SLOAD PUSH1 0xFF NOT AND SWAP1 SSTORE MLOAD CALLER SWAP3 SWAP2 PUSH32 0xF26A45171A2CEE53DC4409F66880AB4BD14F52DC6412965780895CA64ABFA923 SWAP2 LOG3 POP POP JUMP JUMPDEST PUSH1 0x0 SWAP2 DUP3 MSTORE PUSH1 0x1 PUSH1 0x20 SWAP1 DUP2 MSTORE PUSH1 0x40 DUP1 DUP5 KECCAK256 PUSH1 0x1 PUSH1 0x1 PUSH1 0xA0 SHL SUB SWAP4 SWAP1 SWAP4 AND DUP5 MSTORE SWAP2 SWAP1 MSTORE SWAP1 KECCAK256 SLOAD PUSH1 0xFF AND SWAP1 JUMP JUMPDEST PUSH2 0x2332 PUSH2 0x3F8B JUMP JUMPDEST CALLER PUSH1 0x0 SWAP1 DUP2 MSTORE PUSH1 0x13 PUSH1 0x20 DUP2 DUP2 MSTORE PUSH1 0x40 DUP1 DUP5 KECCAK256 DUP6 DUP6 MSTORE DUP3 MSTORE SWAP3 DUP4 SWAP1 KECCAK256 SLOAD DUP4 MLOAD DUP1 DUP6 ADD SWAP1 SWAP5 MSTORE SWAP2 DUP4 MSTORE PUSH19 0x139BC81858DD1A5D9948189A5908199BDD5B99 PUSH1 0x6A SHL SWAP1 DUP4 ADD MSTORE SWAP1 DUP2 PUSH2 0x2393 JUMPI PUSH1 0x40 MLOAD PUSH3 0x461BCD PUSH1 0xE5 SHL DUP2 MSTORE PUSH1 0x4 ADD PUSH2 0xC2A SWAP2 SWAP1 PUSH2 0x5356 JUMP JUMPDEST POP PUSH1 0x0 DUP3 DUP2 MSTORE PUSH1 0x11 PUSH1 0x20 MSTORE PUSH1 0x40 DUP2 KECCAK256 PUSH2 0x23AD PUSH1 0x1 DUP5 PUSH2 0x5405 JUMP JUMPDEST DUP2 SLOAD DUP2 LT PUSH2 0x23BD JUMPI PUSH2 0x23BD PUSH2 0x5389 JUMP JUMPDEST SWAP1 PUSH1 0x0 MSTORE PUSH1 0x20 PUSH1 0x0 KECCAK256 SWAP1 PUSH1 0x6 MUL ADD SWAP1 POP DUP1 PUSH1 0x5 ADD PUSH1 0x0 SWAP1 SLOAD SWAP1 PUSH2 0x100 EXP SWAP1 DIV PUSH1 0xFF AND PUSH1 0x40 MLOAD DUP1 PUSH1 0x40 ADD PUSH1 0x40 MSTORE DUP1 PUSH1 0x11 DUP2 MSTORE PUSH1 0x20 ADD PUSH17 0x426964206973206E6F7420616374697665 PUSH1 0x78 SHL DUP2 MSTORE POP SWAP1 PUSH2 0x2427 JUMPI PUSH1 0x40 MLOAD PUSH3 0x461BCD PUSH1 0xE5 SHL DUP2 MSTORE PUSH1 0x4 ADD PUSH2 0xC2A SWAP2 SWAP1 PUSH2 0x5356 JUMP JUMPDEST POP PUSH1 0x1 DUP2 ADD SLOAD PUSH1 0x40 DUP1 MLOAD DUP1 DUP3 ADD SWAP1 SWAP2 MSTORE PUSH1 0xC DUP2 MSTORE PUSH12 0x139BDD081E5BDD5C88189A59 PUSH1 0xA2 SHL PUSH1 0x20 DUP3 ADD MSTORE SWAP1 PUSH1 0x1 PUSH1 0x1 PUSH1 0xA0 SHL SUB AND CALLER EQ PUSH2 0x2479 JUMPI PUSH1 0x40 MLOAD PUSH3 0x461BCD PUSH1 0xE5 SHL DUP2 MSTORE PUSH1 0x4 ADD PUSH2 0xC2A SWAP2 SWAP1 PUSH2 0x5356 JUMP JUMPDEST POP PUSH1 0x5 DUP2 ADD DUP1 SLOAD PUSH1 0xFF NOT AND SWAP1 SSTORE CALLER PUSH1 0x0 DUP2 DUP2 MSTORE PUSH1 0x13 PUSH1 0x20 SWAP1 DUP2 MSTORE PUSH1 0x40 DUP1 DUP4 KECCAK256 DUP8 DUP5 MSTORE DUP3 MSTORE DUP1 DUP4 KECCAK256 DUP4 SWAP1 SSTORE PUSH1 0x12 DUP3 MSTORE DUP1 DUP4 KECCAK256 SWAP4 DUP4 MSTORE SWAP3 SWAP1 MSTORE SWAP1 DUP2 KECCAK256 DUP1 SLOAD SWAP2 SWAP1 SSTORE DUP1 ISZERO PUSH2 0x2558 JUMPI PUSH1 0x40 MLOAD PUSH1 0x0 SWAP1 CALLER SWAP1 PUSH2 0x8FC SWAP1 DUP5 SWAP1 DUP5 DUP2 DUP2 DUP2 DUP6 DUP9 DUP9 CALL SWAP4 POP POP POP POP RETURNDATASIZE DUP1 PUSH1 0x0 DUP2 EQ PUSH2 0x2505 JUMPI PUSH1 0x40 MLOAD SWAP2 POP PUSH1 0x1F NOT PUSH1 0x3F RETURNDATASIZE ADD AND DUP3 ADD PUSH1 0x40 MSTORE RETURNDATASIZE DUP3 MSTORE RETURNDATASIZE PUSH1 0x0 PUSH1 0x20 DUP5 ADD RETURNDATACOPY PUSH2 0x250A JUMP JUMPDEST PUSH1 0x60 SWAP2 POP JUMPDEST POP POP SWAP1 POP DUP1 PUSH1 0x40 MLOAD DUP1 PUSH1 0x40 ADD PUSH1 0x40 MSTORE DUP1 PUSH1 0xF DUP2 MSTORE PUSH1 0x20 ADD PUSH15 0x151C985B9CD9995C8819985A5B1959 PUSH1 0x8A SHL DUP2 MSTORE POP SWAP1 PUSH2 0x2555 JUMPI PUSH1 0x40 MLOAD PUSH3 0x461BCD PUSH1 0xE5 SHL DUP2 MSTORE PUSH1 0x4 ADD PUSH2 0xC2A SWAP2 SWAP1 PUSH2 0x5356 JUMP JUMPDEST POP POP JUMPDEST CALLER PUSH1 0x1 PUSH1 0x1 PUSH1 0xA0 SHL SUB AND DUP5 PUSH32 0xAF2F02012EA1953FE9293DD4A8BB5194C96792324F9385297C991C2CFEADE3D9 DUP5 PUSH1 0x2 ADD SLOAD PUSH1 0x40 MLOAD PUSH2 0x1B5C SWAP2 DUP2 MSTORE PUSH1 0x20 ADD SWAP1 JUMP JUMPDEST PUSH1 0x0 DUP1 MLOAD PUSH1 0x20 PUSH2 0x5559 DUP4 CODECOPY DUP2 MLOAD SWAP2 MSTORE PUSH2 0x25B0 DUP2 PUSH2 0x3EF4 JUMP JUMPDEST PUSH1 0x1 PUSH1 0x1 PUSH1 0xA0 SHL SUB DUP5 AND PUSH1 0x0 SWAP1 DUP2 MSTORE PUSH1 0xC PUSH1 0x20 MSTORE PUSH1 0x40 DUP2 KECCAK256 SLOAD SWAP1 DUP4 ISZERO PUSH2 0x25E1 JUMPI PUSH2 0x25DA DUP6 DUP4 PUSH2 0x5418 JUMP JUMPDEST SWAP1 POP PUSH2 0x25FC JUMP JUMPDEST DUP5 DUP3 GT PUSH2 0x25EF JUMPI PUSH1 0x0 PUSH2 0x25F9 JUMP JUMPDEST PUSH2 0x25F9 DUP6 DUP4 PUSH2 0x5405 JUMP JUMPDEST SWAP1 POP JUMPDEST PUSH1 0x1 PUSH1 0x1 PUSH1 0xA0 SHL SUB DUP7 AND PUSH1 0x0 DUP2 DUP2 MSTORE PUSH1 0xC PUSH1 0x20 SWAP1 DUP2 MSTORE PUSH1 0x40 SWAP2 DUP3 SWAP1 KECCAK256 DUP5 SWAP1 SSTORE DUP2 MLOAD DUP6 DUP2 MSTORE SWAP1 DUP2 ADD DUP5 SWAP1 MSTORE PUSH32 0x7681C9BC4703DAADFDFBFAE0BD1C828B4619E58101F0E8A5404F70E93C628663 SWAP2 ADD PUSH2 0x1484 JUMP JUMPDEST PUSH2 0x2656 PUSH2 0x3F8B JUMP JUMPDEST PUSH1 0x40 MLOAD PUSH4 0x2A5BB1B7 PUSH1 0xE1 SHL DUP2 MSTORE CALLER PUSH1 0x4 DUP3 ADD MSTORE ADDRESS SWAP1 PUSH4 0x54B7636E SWAP1 PUSH1 0x24 ADD PUSH1 0x20 PUSH1 0x40 MLOAD DUP1 DUP4 SUB DUP2 DUP7 GAS STATICCALL ISZERO DUP1 ISZERO PUSH2 0x2691 JUMPI RETURNDATASIZE PUSH1 0x0 DUP1 RETURNDATACOPY RETURNDATASIZE PUSH1 0x0 REVERT JUMPDEST POP POP POP POP PUSH1 0x40 MLOAD RETURNDATASIZE PUSH1 0x1F NOT PUSH1 0x1F DUP3 ADD AND DUP3 ADD DUP1 PUSH1 0x40 MSTORE POP DUP2 ADD SWAP1 PUSH2 0x26B5 SWAP2 SWAP1 PUSH2 0x53D2 JUMP JUMPDEST PUSH1 0x40 MLOAD DUP1 PUSH1 0x40 ADD PUSH1 0x40 MSTORE DUP1 PUSH1 0xC DUP2 MSTORE PUSH1 0x20 ADD PUSH12 0x12D650C81C995C5D5A5C9959 PUSH1 0xA2 SHL DUP2 MSTORE POP SWAP1 PUSH2 0x26F8 JUMPI PUSH1 0x40 MLOAD PUSH3 0x461BCD PUSH1 0xE5 SHL DUP2 MSTORE PUSH1 0x4 ADD PUSH2 0xC2A SWAP2 SWAP1 PUSH2 0x5356 JUMP JUMPDEST POP DUP1 PUSH2 0x2703 DUP2 PUSH2 0x3E7D JUMP JUMPDEST PUSH1 0x40 MLOAD DUP1 PUSH1 0x40 ADD PUSH1 0x40 MSTORE DUP1 PUSH1 0x19 DUP2 MSTORE PUSH1 0x20 ADD PUSH1 0x0 DUP1 MLOAD PUSH1 0x20 PUSH2 0x5539 DUP4 CODECOPY DUP2 MLOAD SWAP2 MSTORE DUP2 MSTORE POP SWAP1 PUSH2 0x2745 JUMPI PUSH1 0x40 MLOAD PUSH3 0x461BCD PUSH1 0xE5 SHL DUP2 MSTORE PUSH1 0x4 ADD PUSH2 0xC2A SWAP2 SWAP1 PUSH2 0x5356 JUMP JUMPDEST POP DUP3 PUSH2 0x2750 DUP2 PUSH2 0x3EB1 JUMP JUMPDEST PUSH1 0x0 DUP6 DUP2 MSTORE PUSH1 0x10 PUSH1 0x20 MSTORE PUSH1 0x40 DUP2 KECCAK256 SWAP1 PUSH1 0x3 DUP3 DUP2 ADD SLOAD PUSH1 0x1 PUSH1 0xA0 SHL SWAP1 DIV PUSH1 0xFF AND SWAP1 DUP2 GT ISZERO PUSH2 0x277F JUMPI PUSH2 0x277F PUSH2 0x5221 JUMP JUMPDEST EQ PUSH1 0x40 MLOAD DUP1 PUSH1 0x40 ADD PUSH1 0x40 MSTORE DUP1 PUSH1 0x13 DUP2 MSTORE PUSH1 0x20 ADD PUSH19 0x141C9BDC195C9D1E481B9BDD081B1A5CDD1959 PUSH1 0x6A SHL DUP2 MSTORE POP SWAP1 PUSH2 0x27CA JUMPI PUSH1 0x40 MLOAD PUSH3 0x461BCD PUSH1 0xE5 SHL DUP2 MSTORE PUSH1 0x4 ADD PUSH2 0xC2A SWAP2 SWAP1 PUSH2 0x5356 JUMP JUMPDEST POP PUSH1 0x1 DUP2 ADD SLOAD PUSH1 0x40 DUP1 MLOAD DUP1 DUP3 ADD SWAP1 SWAP2 MSTORE PUSH1 0x1E DUP2 MSTORE PUSH32 0x43616E6E6F7420626964206F6E20796F7572206F776E206C697374696E670000 PUSH1 0x20 DUP3 ADD MSTORE SWAP1 PUSH1 0x1 PUSH1 0x1 PUSH1 0xA0 SHL SUB AND CALLER SUB PUSH2 0x282D JUMPI PUSH1 0x40 MLOAD PUSH3 0x461BCD PUSH1 0xE5 SHL DUP2 MSTORE PUSH1 0x4 ADD PUSH2 0xC2A SWAP2 SWAP1 PUSH2 0x5356 JUMP JUMPDEST POP CALLER PUSH1 0x0 SWAP1 DUP2 MSTORE PUSH1 0x13 PUSH1 0x20 SWAP1 DUP2 MSTORE PUSH1 0x40 DUP1 DUP4 KECCAK256 DUP10 DUP5 MSTORE SWAP1 SWAP2 MSTORE SWAP1 KECCAK256 SLOAD PUSH1 0x1 PUSH1 0x1 PUSH1 0xA0 SHL SUB DUP6 AND PUSH2 0x28D0 JUMPI DUP6 CALLVALUE EQ PUSH2 0x289C JUMPI PUSH1 0x40 MLOAD PUSH3 0x461BCD PUSH1 0xE5 SHL DUP2 MSTORE PUSH1 0x20 PUSH1 0x4 DUP3 ADD MSTORE PUSH1 0x13 PUSH1 0x24 DUP3 ADD MSTORE PUSH19 0x8AA89040C2DADEEADCE840DAD2E6DAC2E8C6D PUSH1 0x6B SHL PUSH1 0x44 DUP3 ADD MSTORE PUSH1 0x64 ADD PUSH2 0xC2A JUMP JUMPDEST PUSH1 0x0 DUP8 DUP2 MSTORE PUSH1 0x12 PUSH1 0x20 SWAP1 DUP2 MSTORE PUSH1 0x40 DUP1 DUP4 KECCAK256 CALLER DUP5 MSTORE SWAP1 SWAP2 MSTORE DUP2 KECCAK256 DUP1 SLOAD CALLVALUE SWAP3 SWAP1 PUSH2 0x28C5 SWAP1 DUP5 SWAP1 PUSH2 0x5418 JUMP JUMPDEST SWAP1 SWAP2 SSTORE POP PUSH2 0x2998 SWAP1 POP JUMP JUMPDEST PUSH1 0x40 MLOAD PUSH4 0x6EB1769F PUSH1 0xE1 SHL DUP2 MSTORE CALLER PUSH1 0x4 DUP3 ADD MSTORE ADDRESS PUSH1 0x24 DUP3 ADD MSTORE DUP6 SWAP1 PUSH1 0x0 SWAP1 PUSH1 0x1 PUSH1 0x1 PUSH1 0xA0 SHL SUB DUP4 AND SWAP1 PUSH4 0xDD62ED3E SWAP1 PUSH1 0x44 ADD PUSH1 0x20 PUSH1 0x40 MLOAD DUP1 DUP4 SUB DUP2 DUP7 GAS STATICCALL ISZERO DUP1 ISZERO PUSH2 0x291F JUMPI RETURNDATASIZE PUSH1 0x0 DUP1 RETURNDATACOPY RETURNDATASIZE PUSH1 0x0 REVERT JUMPDEST POP POP POP POP PUSH1 0x40 MLOAD RETURNDATASIZE PUSH1 0x1F NOT PUSH1 0x1F DUP3 ADD AND DUP3 ADD DUP1 PUSH1 0x40 MSTORE POP DUP2 ADD SWAP1 PUSH2 0x2943 SWAP2 SWAP1 PUSH2 0x542B JUMP JUMPDEST SWAP1 POP DUP8 DUP2 LT ISZERO PUSH2 0x2995 JUMPI PUSH1 0x40 MLOAD PUSH3 0x461BCD PUSH1 0xE5 SHL DUP2 MSTORE PUSH1 0x20 PUSH1 0x4 DUP3 ADD MSTORE PUSH1 0x1C PUSH1 0x24 DUP3 ADD MSTORE PUSH32 0x496E73756666696369656E7420746F6B656E20616C6C6F77616E636500000000 PUSH1 0x44 DUP3 ADD MSTORE PUSH1 0x64 ADD PUSH2 0xC2A JUMP JUMPDEST POP POP JUMPDEST DUP2 PUSH1 0x2 ADD SLOAD DUP7 LT ISZERO PUSH2 0x29EC JUMPI PUSH1 0x40 MLOAD PUSH3 0x461BCD PUSH1 0xE5 SHL DUP2 MSTORE PUSH1 0x20 PUSH1 0x4 DUP3 ADD MSTORE PUSH1 0x1B PUSH1 0x24 DUP3 ADD MSTORE PUSH32 0x426964206D757374206D656574206C697374696E672070726963650000000000 PUSH1 0x44 DUP3 ADD MSTORE PUSH1 0x64 ADD PUSH2 0xC2A JUMP JUMPDEST PUSH1 0x0 DUP8 DUP2 MSTORE PUSH1 0x11 PUSH1 0x20 MSTORE PUSH1 0x40 DUP2 KECCAK256 DUP2 JUMPDEST DUP2 SLOAD DUP2 LT ISZERO PUSH2 0x2A9A JUMPI DUP2 DUP2 DUP2 SLOAD DUP2 LT PUSH2 0x2A17 JUMPI PUSH2 0x2A17 PUSH2 0x5389 JUMP JUMPDEST PUSH1 0x0 SWAP2 DUP3 MSTORE PUSH1 0x20 SWAP1 SWAP2 KECCAK256 PUSH1 0x5 PUSH1 0x6 SWAP1 SWAP3 MUL ADD ADD SLOAD PUSH1 0xFF AND DUP1 ISZERO PUSH2 0x2A5C JUMPI POP DUP3 DUP3 DUP3 DUP2 SLOAD DUP2 LT PUSH2 0x2A48 JUMPI PUSH2 0x2A48 PUSH2 0x5389 JUMP JUMPDEST SWAP1 PUSH1 0x0 MSTORE PUSH1 0x20 PUSH1 0x0 KECCAK256 SWAP1 PUSH1 0x6 MUL ADD PUSH1 0x2 ADD SLOAD GT JUMPDEST ISZERO PUSH2 0x2A88 JUMPI DUP2 DUP2 DUP2 SLOAD DUP2 LT PUSH2 0x2A73 JUMPI PUSH2 0x2A73 PUSH2 0x5389 JUMP JUMPDEST SWAP1 PUSH1 0x0 MSTORE PUSH1 0x20 PUSH1 0x0 KECCAK256 SWAP1 PUSH1 0x6 MUL ADD PUSH1 0x2 ADD SLOAD SWAP3 POP JUMPDEST DUP1 PUSH2 0x2A92 DUP2 PUSH2 0x5444 JUMP JUMPDEST SWAP2 POP POP PUSH2 0x29FC JUMP JUMPDEST POP DUP2 ISZERO PUSH2 0x2B2B JUMPI PUSH1 0x0 PUSH1 0x64 PUSH2 0x2AB0 PUSH1 0x5 DUP3 PUSH2 0x5418 JUMP JUMPDEST PUSH2 0x2ABA SWAP1 DUP6 PUSH2 0x545D JUMP JUMPDEST PUSH2 0x2AC4 SWAP2 SWAP1 PUSH2 0x5474 JUMP JUMPDEST SWAP1 POP DUP1 DUP10 LT ISZERO PUSH2 0x2B29 JUMPI PUSH1 0x40 MLOAD PUSH3 0x461BCD PUSH1 0xE5 SHL DUP2 MSTORE PUSH1 0x20 PUSH1 0x4 DUP3 ADD MSTORE PUSH1 0x2A PUSH1 0x24 DUP3 ADD MSTORE PUSH32 0x426964206D75737420626520352520686967686572207468616E206375727265 PUSH1 0x44 DUP3 ADD MSTORE PUSH10 0x1B9D081A1A59DA195CDD PUSH1 0xB2 SHL PUSH1 0x64 DUP3 ADD MSTORE PUSH1 0x84 ADD PUSH2 0xC2A JUMP JUMPDEST POP JUMPDEST DUP3 ISZERO PUSH2 0x2CAE JUMPI PUSH1 0x0 DUP10 DUP2 MSTORE PUSH1 0x11 PUSH1 0x20 MSTORE PUSH1 0x40 DUP2 KECCAK256 PUSH2 0x2B4A PUSH1 0x1 DUP7 PUSH2 0x5405 JUMP JUMPDEST DUP2 SLOAD DUP2 LT PUSH2 0x2B5A JUMPI PUSH2 0x2B5A PUSH2 0x5389 JUMP JUMPDEST PUSH1 0x0 SWAP2 DUP3 MSTORE PUSH1 0x20 SWAP1 SWAP2 KECCAK256 PUSH1 0x6 SWAP1 SWAP2 MUL ADD PUSH1 0x5 DUP2 ADD SLOAD SWAP1 SWAP2 POP PUSH1 0xFF AND PUSH2 0x2BB5 JUMPI PUSH1 0x40 MLOAD PUSH3 0x461BCD PUSH1 0xE5 SHL DUP2 MSTORE PUSH1 0x20 PUSH1 0x4 DUP3 ADD MSTORE PUSH1 0x11 PUSH1 0x24 DUP3 ADD MSTORE PUSH17 0x426964206973206E6F7420616374697665 PUSH1 0x78 SHL PUSH1 0x44 DUP3 ADD MSTORE PUSH1 0x64 ADD PUSH2 0xC2A JUMP JUMPDEST PUSH1 0x3 DUP2 ADD SLOAD PUSH1 0x1 PUSH1 0x1 PUSH1 0xA0 SHL SUB DUP10 DUP2 AND SWAP2 AND EQ PUSH2 0x2C14 JUMPI PUSH1 0x40 MLOAD PUSH3 0x461BCD PUSH1 0xE5 SHL DUP2 MSTORE PUSH1 0x20 PUSH1 0x4 DUP3 ADD MSTORE PUSH1 0x1B PUSH1 0x24 DUP3 ADD MSTORE PUSH32 0x43616E6E6F74206368616E6765207061796D656E7420746F6B656E0000000000 PUSH1 0x44 DUP3 ADD MSTORE PUSH1 0x64 ADD PUSH2 0xC2A JUMP JUMPDEST PUSH1 0x0 PUSH1 0x64 PUSH2 0x2C23 PUSH1 0x5 DUP3 PUSH2 0x5418 JUMP JUMPDEST DUP4 PUSH1 0x2 ADD SLOAD PUSH2 0x2C32 SWAP2 SWAP1 PUSH2 0x545D JUMP JUMPDEST PUSH2 0x2C3C SWAP2 SWAP1 PUSH2 0x5474 JUMP JUMPDEST SWAP1 POP DUP1 DUP11 LT ISZERO PUSH2 0x2C9A JUMPI PUSH1 0x40 MLOAD PUSH3 0x461BCD PUSH1 0xE5 SHL DUP2 MSTORE PUSH1 0x20 PUSH1 0x4 DUP3 ADD MSTORE PUSH1 0x23 PUSH1 0x24 DUP3 ADD MSTORE PUSH32 0x426964206D75737420626520352520686967686572207468616E207072657669 PUSH1 0x44 DUP3 ADD MSTORE PUSH3 0x6F7573 PUSH1 0xE8 SHL PUSH1 0x64 DUP3 ADD MSTORE PUSH1 0x84 ADD PUSH2 0xC2A JUMP JUMPDEST POP PUSH1 0x2 DUP2 ADD DUP10 SWAP1 SSTORE TIMESTAMP PUSH1 0x4 SWAP1 SWAP2 ADD SSTORE PUSH2 0x2E1E JUMP JUMPDEST PUSH1 0x0 PUSH1 0x40 MLOAD DUP1 PUSH1 0xC0 ADD PUSH1 0x40 MSTORE DUP1 DUP12 DUP2 MSTORE PUSH1 0x20 ADD CALLER PUSH1 0x1 PUSH1 0x1 PUSH1 0xA0 SHL SUB AND DUP2 MSTORE PUSH1 0x20 ADD DUP11 DUP2 MSTORE PUSH1 0x20 ADD DUP10 PUSH1 0x1 PUSH1 0x1 PUSH1 0xA0 SHL SUB AND DUP2 MSTORE PUSH1 0x20 ADD TIMESTAMP DUP2 MSTORE PUSH1 0x20 ADD PUSH1 0x1 ISZERO ISZERO DUP2 MSTORE POP SWAP1 POP PUSH1 0x11 PUSH1 0x0 DUP12 DUP2 MSTORE PUSH1 0x20 ADD SWAP1 DUP2 MSTORE PUSH1 0x20 ADD PUSH1 0x0 KECCAK256 DUP2 SWAP1 DUP1 PUSH1 0x1 DUP2 SLOAD ADD DUP1 DUP3 SSTORE DUP1 SWAP2 POP POP PUSH1 0x1 SWAP1 SUB SWAP1 PUSH1 0x0 MSTORE PUSH1 0x20 PUSH1 0x0 KECCAK256 SWAP1 PUSH1 0x6 MUL ADD PUSH1 0x0 SWAP1 SWAP2 SWAP1 SWAP2 SWAP1 SWAP2 POP PUSH1 0x0 DUP3 ADD MLOAD DUP2 PUSH1 0x0 ADD SSTORE PUSH1 0x20 DUP3 ADD MLOAD DUP2 PUSH1 0x1 ADD PUSH1 0x0 PUSH2 0x100 EXP DUP2 SLOAD DUP2 PUSH1 0x1 PUSH1 0x1 PUSH1 0xA0 SHL SUB MUL NOT AND SWAP1 DUP4 PUSH1 0x1 PUSH1 0x1 PUSH1 0xA0 SHL SUB AND MUL OR SWAP1 SSTORE POP PUSH1 0x40 DUP3 ADD MLOAD DUP2 PUSH1 0x2 ADD SSTORE PUSH1 0x60 DUP3 ADD MLOAD DUP2 PUSH1 0x3 ADD PUSH1 0x0 PUSH2 0x100 EXP DUP2 SLOAD DUP2 PUSH1 0x1 PUSH1 0x1 PUSH1 0xA0 SHL SUB MUL NOT AND SWAP1 DUP4 PUSH1 0x1 PUSH1 0x1 PUSH1 0xA0 SHL SUB AND MUL OR SWAP1 SSTORE POP PUSH1 0x80 DUP3 ADD MLOAD DUP2 PUSH1 0x4 ADD SSTORE PUSH1 0xA0 DUP3 ADD MLOAD DUP2 PUSH1 0x5 ADD PUSH1 0x0 PUSH2 0x100 EXP DUP2 SLOAD DUP2 PUSH1 0xFF MUL NOT AND SWAP1 DUP4 ISZERO ISZERO MUL OR SWAP1 SSTORE POP POP POP PUSH1 0x11 PUSH1 0x0 DUP12 DUP2 MSTORE PUSH1 0x20 ADD SWAP1 DUP2 MSTORE PUSH1 0x20 ADD PUSH1 0x0 KECCAK256 DUP1 SLOAD SWAP1 POP PUSH1 0x13 PUSH1 0x0 CALLER PUSH1 0x1 PUSH1 0x1 PUSH1 0xA0 SHL SUB AND PUSH1 0x1 PUSH1 0x1 PUSH1 0xA0 SHL SUB AND DUP2 MSTORE PUSH1 0x20 ADD SWAP1 DUP2 MSTORE PUSH1 0x20 ADD PUSH1 0x0 KECCAK256 PUSH1 0x0 DUP13 DUP2 MSTORE PUSH1 0x20 ADD SWAP1 DUP2 MSTORE PUSH1 0x20 ADD PUSH1 0x0 KECCAK256 DUP2 SWAP1 SSTORE POP POP JUMPDEST PUSH1 0x40 DUP1 MLOAD DUP10 DUP2 MSTORE PUSH1 0x1 PUSH1 0x1 PUSH1 0xA0 SHL SUB DUP10 AND PUSH1 0x20 DUP3 ADD MSTORE CALLER SWAP2 DUP12 SWAP2 PUSH32 0xE30ABCCEBB20A387BE8E75E927D7E06CE1BF9D77BB3888516663BDC8995FB334 SWAP2 ADD PUSH1 0x40 MLOAD DUP1 SWAP2 SUB SWAP1 LOG3 POP POP POP POP POP POP PUSH2 0x1EEB PUSH1 0x1 PUSH1 0x0 SSTORE JUMP JUMPDEST PUSH1 0x0 DUP4 DUP2 MSTORE PUSH1 0x11 PUSH1 0x20 MSTORE PUSH1 0x40 DUP2 KECCAK256 PUSH1 0x60 SWAP2 SWAP1 DUP2 JUMPDEST DUP2 SLOAD DUP2 LT ISZERO PUSH2 0x2EDE JUMPI DUP2 DUP2 DUP2 SLOAD DUP2 LT PUSH2 0x2EA2 JUMPI PUSH2 0x2EA2 PUSH2 0x5389 JUMP JUMPDEST PUSH1 0x0 SWAP2 DUP3 MSTORE PUSH1 0x20 SWAP1 SWAP2 KECCAK256 PUSH1 0x5 PUSH1 0x6 SWAP1 SWAP3 MUL ADD ADD SLOAD PUSH1 0xFF AND ISZERO PUSH2 0x2ECC JUMPI DUP3 PUSH2 0x2EC8 DUP2 PUSH2 0x5444 JUMP JUMPDEST SWAP4 POP POP JUMPDEST DUP1 PUSH2 0x2ED6 DUP2 PUSH2 0x5444 JUMP JUMPDEST SWAP2 POP POP PUSH2 0x2E87 JUMP JUMPDEST POP DUP4 DUP3 DUP7 LT PUSH2 0x2F22 JUMPI PUSH1 0x40 DUP1 MLOAD PUSH1 0x0 DUP1 DUP3 MSTORE PUSH1 0x20 DUP3 ADD SWAP1 SWAP3 MSTORE SWAP1 PUSH2 0x2F18 JUMP JUMPDEST PUSH2 0x2F05 PUSH2 0x4EAB JUMP JUMPDEST DUP2 MSTORE PUSH1 0x20 ADD SWAP1 PUSH1 0x1 SWAP1 SUB SWAP1 DUP2 PUSH2 0x2EFD JUMPI SWAP1 POP JUMPDEST POP SWAP4 POP POP POP PUSH2 0x30B5 JUMP JUMPDEST DUP3 PUSH2 0x2F2D DUP7 DUP9 PUSH2 0x5418 JUMP JUMPDEST GT ISZERO PUSH2 0x2F40 JUMPI PUSH2 0x2F3D DUP7 DUP5 PUSH2 0x5405 JUMP JUMPDEST SWAP1 POP JUMPDEST DUP1 PUSH8 0xFFFFFFFFFFFFFFFF DUP2 GT ISZERO PUSH2 0x2F59 JUMPI PUSH2 0x2F59 PUSH2 0x539F JUMP JUMPDEST PUSH1 0x40 MLOAD SWAP1 DUP1 DUP3 MSTORE DUP1 PUSH1 0x20 MUL PUSH1 0x20 ADD DUP3 ADD PUSH1 0x40 MSTORE DUP1 ISZERO PUSH2 0x2F92 JUMPI DUP2 PUSH1 0x20 ADD JUMPDEST PUSH2 0x2F7F PUSH2 0x4EAB JUMP JUMPDEST DUP2 MSTORE PUSH1 0x20 ADD SWAP1 PUSH1 0x1 SWAP1 SUB SWAP1 DUP2 PUSH2 0x2F77 JUMPI SWAP1 POP JUMPDEST POP SWAP4 POP PUSH1 0x0 DUP1 PUSH1 0x0 JUMPDEST DUP5 SLOAD DUP2 LT DUP1 ISZERO PUSH2 0x2FAA JUMPI POP DUP4 DUP3 LT JUMPDEST ISZERO PUSH2 0x30AF JUMPI DUP5 DUP2 DUP2 SLOAD DUP2 LT PUSH2 0x2FC1 JUMPI PUSH2 0x2FC1 PUSH2 0x5389 JUMP JUMPDEST PUSH1 0x0 SWAP2 DUP3 MSTORE PUSH1 0x20 SWAP1 SWAP2 KECCAK256 PUSH1 0x5 PUSH1 0x6 SWAP1 SWAP3 MUL ADD ADD SLOAD PUSH1 0xFF AND ISZERO PUSH2 0x309D JUMPI DUP9 DUP4 LT PUSH2 0x308F JUMPI DUP5 DUP2 DUP2 SLOAD DUP2 LT PUSH2 0x2FF6 JUMPI PUSH2 0x2FF6 PUSH2 0x5389 JUMP JUMPDEST PUSH1 0x0 SWAP2 DUP3 MSTORE PUSH1 0x20 SWAP2 DUP3 SWAP1 KECCAK256 PUSH1 0x40 DUP1 MLOAD PUSH1 0xC0 DUP2 ADD DUP3 MSTORE PUSH1 0x6 SWAP1 SWAP4 MUL SWAP1 SWAP2 ADD DUP1 SLOAD DUP4 MSTORE PUSH1 0x1 DUP2 ADD SLOAD PUSH1 0x1 PUSH1 0x1 PUSH1 0xA0 SHL SUB SWAP1 DUP2 AND SWAP5 DUP5 ADD SWAP5 SWAP1 SWAP5 MSTORE PUSH1 0x2 DUP2 ADD SLOAD SWAP2 DUP4 ADD SWAP2 SWAP1 SWAP2 MSTORE PUSH1 0x3 DUP2 ADD SLOAD SWAP1 SWAP3 AND PUSH1 0x60 DUP3 ADD MSTORE PUSH1 0x4 DUP3 ADD SLOAD PUSH1 0x80 DUP3 ADD MSTORE PUSH1 0x5 SWAP1 SWAP2 ADD SLOAD PUSH1 0xFF AND ISZERO ISZERO PUSH1 0xA0 DUP3 ADD MSTORE DUP8 MLOAD DUP9 SWAP1 DUP5 SWAP1 DUP2 LT PUSH2 0x3075 JUMPI PUSH2 0x3075 PUSH2 0x5389 JUMP JUMPDEST PUSH1 0x20 MUL PUSH1 0x20 ADD ADD DUP2 SWAP1 MSTORE POP DUP2 DUP1 PUSH2 0x308B SWAP1 PUSH2 0x5444 JUMP JUMPDEST SWAP3 POP POP JUMPDEST DUP3 PUSH2 0x3099 DUP2 PUSH2 0x5444 JUMP JUMPDEST SWAP4 POP POP JUMPDEST DUP1 PUSH2 0x30A7 DUP2 PUSH2 0x5444 JUMP JUMPDEST SWAP2 POP POP PUSH2 0x2F9B JUMP JUMPDEST POP POP POP POP POP JUMPDEST SWAP4 POP SWAP4 SWAP2 POP POP JUMP JUMPDEST PUSH1 0x0 DUP1 PUSH2 0x30C9 PUSH1 0x8 SLOAD SWAP1 JUMP JUMPDEST SWAP1 POP PUSH1 0x0 PUSH2 0x30D6 DUP6 PUSH2 0x4234 JUMP JUMPDEST SWAP1 POP PUSH2 0x2710 DUP2 DUP4 PUSH1 0x6 PUSH1 0x0 ADD SLOAD PUSH2 0x30ED SWAP2 SWAP1 PUSH2 0x5418 JUMP JUMPDEST PUSH2 0x30F7 SWAP2 SWAP1 PUSH2 0x5418 JUMP JUMPDEST PUSH2 0x3101 SWAP1 DUP7 PUSH2 0x545D JUMP JUMPDEST PUSH2 0x310B SWAP2 SWAP1 PUSH2 0x5474 JUMP JUMPDEST SWAP6 SWAP5 POP POP POP POP POP JUMP JUMPDEST PUSH1 0x11 PUSH1 0x20 MSTORE DUP2 PUSH1 0x0 MSTORE PUSH1 0x40 PUSH1 0x0 KECCAK256 DUP2 DUP2 SLOAD DUP2 LT PUSH2 0x3130 JUMPI PUSH1 0x0 DUP1 REVERT JUMPDEST PUSH1 0x0 SWAP2 DUP3 MSTORE PUSH1 0x20 SWAP1 SWAP2 KECCAK256 PUSH1 0x6 SWAP1 SWAP2 MUL ADD DUP1 SLOAD PUSH1 0x1 DUP3 ADD SLOAD PUSH1 0x2 DUP4 ADD SLOAD PUSH1 0x3 DUP5 ADD SLOAD PUSH1 0x4 DUP6 ADD SLOAD PUSH1 0x5 SWAP1 SWAP6 ADD SLOAD SWAP4 SWAP7 POP PUSH1 0x1 PUSH1 0x1 PUSH1 0xA0 SHL SUB SWAP3 DUP4 AND SWAP6 POP SWAP1 SWAP4 SWAP2 AND SWAP2 PUSH1 0xFF AND DUP7 JUMP JUMPDEST PUSH1 0x0 PUSH2 0x3182 DUP2 PUSH2 0x3EF4 JUMP JUMPDEST PUSH2 0x1B71 PUSH2 0x4266 JUMP JUMPDEST PUSH1 0x0 PUSH2 0x3195 DUP2 PUSH2 0x3EF4 JUMP JUMPDEST POP PUSH1 0x0 SWAP2 DUP3 MSTORE PUSH1 0xD PUSH1 0x20 MSTORE PUSH1 0x40 SWAP1 SWAP2 KECCAK256 DUP1 SLOAD PUSH1 0xFF NOT AND SWAP2 ISZERO ISZERO SWAP2 SWAP1 SWAP2 OR SWAP1 SSTORE JUMP JUMPDEST PUSH1 0x0 DUP3 DUP2 MSTORE PUSH1 0x1 PUSH1 0x20 DUP2 SWAP1 MSTORE PUSH1 0x40 SWAP1 SWAP2 KECCAK256 ADD SLOAD PUSH2 0x31D2 DUP2 PUSH2 0x3EF4 JUMP JUMPDEST PUSH2 0x31DC DUP4 DUP4 PUSH2 0x42B8 JUMP JUMPDEST PUSH1 0x40 MLOAD CALLER SWAP1 PUSH1 0x1 PUSH1 0x1 PUSH1 0xA0 SHL SUB DUP5 AND SWAP1 DUP6 SWAP1 PUSH32 0x77A3124D5A7FB118EF3BD073FD7EE2C762B24256DB96ACE524ECD6B6CF11415C SWAP1 PUSH1 0x0 SWAP1 LOG4 POP POP POP JUMP JUMPDEST PUSH2 0x3221 PUSH2 0x3F8B JUMP JUMPDEST PUSH1 0x0 DUP6 DUP2 MSTORE PUSH1 0x10 PUSH1 0x20 MSTORE PUSH1 0x40 DUP2 KECCAK256 SWAP1 PUSH1 0x3 DUP3 DUP2 ADD SLOAD PUSH1 0x1 PUSH1 0xA0 SHL SWAP1 DIV PUSH1 0xFF AND SWAP1 DUP2 GT ISZERO PUSH2 0x3250 JUMPI PUSH2 0x3250 PUSH2 0x5221 JUMP JUMPDEST EQ PUSH2 0x3293 JUMPI PUSH1 0x40 MLOAD PUSH3 0x461BCD PUSH1 0xE5 SHL DUP2 MSTORE PUSH1 0x20 PUSH1 0x4 DUP3 ADD MSTORE PUSH1 0x13 PUSH1 0x24 DUP3 ADD MSTORE PUSH19 0x141C9BDC195C9D1E481B9BDD081B1A5CDD1959 PUSH1 0x6A SHL PUSH1 0x44 DUP3 ADD MSTORE PUSH1 0x64 ADD PUSH2 0xC2A JUMP JUMPDEST PUSH1 0x1 DUP2 ADD SLOAD PUSH1 0x40 DUP1 MLOAD DUP1 DUP3 ADD SWAP1 SWAP2 MSTORE PUSH1 0xE DUP2 MSTORE PUSH14 0x2737BA103A34329039B2B63632B9 PUSH1 0x91 SHL PUSH1 0x20 DUP3 ADD MSTORE SWAP1 PUSH1 0x1 PUSH1 0x1 PUSH1 0xA0 SHL SUB AND CALLER EQ PUSH2 0x32E6 JUMPI PUSH1 0x40 MLOAD PUSH3 0x461BCD PUSH1 0xE5 SHL DUP2 MSTORE PUSH1 0x4 ADD PUSH2 0xC2A SWAP2 SWAP1 PUSH2 0x5356 JUMP JUMPDEST POP PUSH1 0x40 MLOAD PUSH4 0x31A9108F PUSH1 0xE1 SHL DUP2 MSTORE PUSH1 0x4 DUP2 ADD DUP8 SWAP1 MSTORE CALLER SWAP1 PUSH1 0x1 PUSH1 0x1 PUSH1 0xA0 SHL SUB PUSH32 0x0 AND SWAP1 PUSH4 0x6352211E SWAP1 PUSH1 0x24 ADD PUSH1 0x20 PUSH1 0x40 MLOAD DUP1 DUP4 SUB DUP2 DUP7 GAS STATICCALL ISZERO DUP1 ISZERO PUSH2 0x334E JUMPI RETURNDATASIZE PUSH1 0x0 DUP1 RETURNDATACOPY RETURNDATASIZE PUSH1 0x0 REVERT JUMPDEST POP POP POP POP PUSH1 0x40 MLOAD RETURNDATASIZE PUSH1 0x1F NOT PUSH1 0x1F DUP3 ADD AND DUP3 ADD DUP1 PUSH1 0x40 MSTORE POP DUP2 ADD SWAP1 PUSH2 0x3372 SWAP2 SWAP1 PUSH2 0x53B5 JUMP JUMPDEST PUSH1 0x1 PUSH1 0x1 PUSH1 0xA0 SHL SUB AND EQ PUSH1 0x40 MLOAD DUP1 PUSH1 0x40 ADD PUSH1 0x40 MSTORE DUP1 PUSH1 0xD DUP2 MSTORE PUSH1 0x20 ADD PUSH13 0x2737BA1027232A1037BBB732B9 PUSH1 0x99 SHL DUP2 MSTORE POP SWAP1 PUSH2 0x33C0 JUMPI PUSH1 0x40 MLOAD PUSH3 0x461BCD PUSH1 0xE5 SHL DUP2 MSTORE PUSH1 0x4 ADD PUSH2 0xC2A SWAP2 SWAP1 PUSH2 0x5356 JUMP JUMPDEST POP PUSH1 0x40 DUP1 MLOAD DUP1 DUP3 ADD SWAP1 SWAP2 MSTORE PUSH1 0x11 DUP2 MSTORE PUSH17 0x92DCECC2D8D2C840C4D2C840D2DCC8CAF PUSH1 0x7B SHL PUSH1 0x20 DUP3 ADD MSTORE DUP6 PUSH2 0x3407 JUMPI PUSH1 0x40 MLOAD PUSH3 0x461BCD PUSH1 0xE5 SHL DUP2 MSTORE PUSH1 0x4 ADD PUSH2 0xC2A SWAP2 SWAP1 PUSH2 0x5356 JUMP JUMPDEST POP PUSH1 0x0 DUP7 DUP2 MSTORE PUSH1 0x11 PUSH1 0x20 DUP2 DUP2 MSTORE PUSH1 0x40 SWAP3 DUP4 SWAP1 KECCAK256 SLOAD DUP4 MLOAD DUP1 DUP6 ADD SWAP1 SWAP5 MSTORE SWAP2 DUP4 MSTORE PUSH17 0x92DCECC2D8D2C840C4D2C840D2DCC8CAF PUSH1 0x7B SHL SWAP1 DUP4 ADD MSTORE DUP7 GT ISZERO PUSH2 0x345F JUMPI PUSH1 0x40 MLOAD PUSH3 0x461BCD PUSH1 0xE5 SHL DUP2 MSTORE PUSH1 0x4 ADD PUSH2 0xC2A SWAP2 SWAP1 PUSH2 0x5356 JUMP JUMPDEST POP PUSH1 0x0 DUP7 DUP2 MSTORE PUSH1 0x11 PUSH1 0x20 MSTORE PUSH1 0x40 SWAP1 KECCAK256 SLOAD PUSH2 0x34AF JUMPI PUSH1 0x40 MLOAD PUSH3 0x461BCD PUSH1 0xE5 SHL DUP2 MSTORE PUSH1 0x20 PUSH1 0x4 DUP3 ADD MSTORE PUSH1 0x11 PUSH1 0x24 DUP3 ADD MSTORE PUSH17 0x4E6F206269647320617661696C61626C65 PUSH1 0x78 SHL PUSH1 0x44 DUP3 ADD MSTORE PUSH1 0x64 ADD PUSH2 0xC2A JUMP JUMPDEST PUSH1 0x0 DUP7 DUP2 MSTORE PUSH1 0x11 PUSH1 0x20 MSTORE PUSH1 0x40 DUP2 KECCAK256 PUSH2 0x34C8 PUSH1 0x1 DUP9 PUSH2 0x5405 JUMP JUMPDEST DUP2 SLOAD DUP2 LT PUSH2 0x34D8 JUMPI PUSH2 0x34D8 PUSH2 0x5389 JUMP JUMPDEST SWAP1 PUSH1 0x0 MSTORE PUSH1 0x20 PUSH1 0x0 KECCAK256 SWAP1 PUSH1 0x6 MUL ADD SWAP1 POP DUP1 PUSH1 0x5 ADD PUSH1 0x0 SWAP1 SLOAD SWAP1 PUSH2 0x100 EXP SWAP1 DIV PUSH1 0xFF AND PUSH1 0x40 MLOAD DUP1 PUSH1 0x40 ADD PUSH1 0x40 MSTORE DUP1 PUSH1 0x11 DUP2 MSTORE PUSH1 0x20 ADD PUSH17 0x426964206973206E6F7420616374697665 PUSH1 0x78 SHL DUP2 MSTORE POP SWAP1 PUSH2 0x3542 JUMPI PUSH1 0x40 MLOAD PUSH3 0x461BCD PUSH1 0xE5 SHL DUP2 MSTORE PUSH1 0x4 ADD PUSH2 0xC2A SWAP2 SWAP1 PUSH2 0x5356 JUMP JUMPDEST POP PUSH1 0x1 DUP2 ADD SLOAD PUSH1 0x40 DUP1 MLOAD DUP1 DUP3 ADD SWAP1 SWAP2 MSTORE PUSH1 0xF DUP2 MSTORE PUSH15 0x84D2C8C8CAE440DAD2E6DAC2E8C6D PUSH1 0x8B SHL PUSH1 0x20 DUP3 ADD MSTORE SWAP1 PUSH1 0x1 PUSH1 0x1 PUSH1 0xA0 SHL SUB DUP8 DUP2 AND SWAP2 AND EQ PUSH2 0x359A JUMPI PUSH1 0x40 MLOAD PUSH3 0x461BCD PUSH1 0xE5 SHL DUP2 MSTORE PUSH1 0x4 ADD PUSH2 0xC2A SWAP2 SWAP1 PUSH2 0x5356 JUMP JUMPDEST POP DUP4 DUP2 PUSH1 0x2 ADD SLOAD EQ PUSH1 0x40 MLOAD DUP1 PUSH1 0x40 ADD PUSH1 0x40 MSTORE DUP1 PUSH1 0xF DUP2 MSTORE PUSH1 0x20 ADD PUSH15 0x82DADEEADCE840DAD2E6DAC2E8C6D PUSH1 0x8B SHL DUP2 MSTORE POP SWAP1 PUSH2 0x35E8 JUMPI PUSH1 0x40 MLOAD PUSH3 0x461BCD PUSH1 0xE5 SHL DUP2 MSTORE PUSH1 0x4 ADD PUSH2 0xC2A SWAP2 SWAP1 PUSH2 0x5356 JUMP JUMPDEST POP PUSH1 0x3 DUP2 ADD SLOAD PUSH1 0x40 DUP1 MLOAD DUP1 DUP3 ADD SWAP1 SWAP2 MSTORE PUSH1 0x16 DUP2 MSTORE PUSH22 0xA0C2F2DACADCE840E8DED6CADC40DAD2E6DAC2E8C6D PUSH1 0x53 SHL PUSH1 0x20 DUP3 ADD MSTORE SWAP1 PUSH1 0x1 PUSH1 0x1 PUSH1 0xA0 SHL SUB DUP6 DUP2 AND SWAP2 AND EQ PUSH2 0x3647 JUMPI PUSH1 0x40 MLOAD PUSH3 0x461BCD PUSH1 0xE5 SHL DUP2 MSTORE PUSH1 0x4 ADD PUSH2 0xC2A SWAP2 SWAP1 PUSH2 0x5356 JUMP JUMPDEST POP PUSH1 0x3 DUP3 ADD DUP1 SLOAD PUSH1 0xFF PUSH1 0xA0 SHL NOT AND PUSH1 0x1 PUSH1 0xA1 SHL OR SWAP1 SSTORE PUSH1 0x5 DUP2 ADD DUP1 SLOAD PUSH1 0xFF NOT AND SWAP1 SSTORE PUSH1 0x1 DUP2 ADD DUP1 SLOAD PUSH1 0x1 PUSH1 0x1 PUSH1 0xA0 SHL SUB SWAP1 DUP2 AND PUSH1 0x0 SWAP1 DUP2 MSTORE PUSH1 0x13 PUSH1 0x20 SWAP1 DUP2 MSTORE PUSH1 0x40 DUP1 DUP4 KECCAK256 DUP13 DUP5 MSTORE DUP3 MSTORE DUP1 DUP4 KECCAK256 DUP4 SWAP1 SSTORE PUSH1 0x12 DUP3 MSTORE DUP1 DUP4 KECCAK256 SWAP5 SLOAD SWAP1 SWAP4 AND DUP3 MSTORE SWAP3 SWAP1 SWAP3 MSTORE DUP2 KECCAK256 DUP1 SLOAD SWAP2 SWAP1 SSTORE PUSH2 0x36B8 DUP9 PUSH2 0x402B JUMP JUMPDEST PUSH1 0x3 DUP3 ADD SLOAD PUSH1 0x1 PUSH1 0x1 PUSH1 0xA0 SHL SUB AND PUSH2 0x37E1 JUMPI DUP2 PUSH1 0x2 ADD SLOAD DUP2 LT ISZERO PUSH1 0x40 MLOAD DUP1 PUSH1 0x40 ADD PUSH1 0x40 MSTORE DUP1 PUSH1 0x14 DUP2 MSTORE PUSH1 0x20 ADD PUSH20 0x496E73756666696369656E742062616C616E6365 PUSH1 0x60 SHL DUP2 MSTORE POP SWAP1 PUSH2 0x371D JUMPI PUSH1 0x40 MLOAD PUSH3 0x461BCD PUSH1 0xE5 SHL DUP2 MSTORE PUSH1 0x4 ADD PUSH2 0xC2A SWAP2 SWAP1 PUSH2 0x5356 JUMP JUMPDEST POP PUSH1 0x0 DUP3 PUSH1 0x2 ADD SLOAD DUP3 PUSH2 0x3730 SWAP2 SWAP1 PUSH2 0x5405 JUMP JUMPDEST SWAP1 POP DUP1 ISZERO PUSH2 0x37DF JUMPI PUSH1 0x1 DUP4 ADD SLOAD PUSH1 0x40 MLOAD PUSH1 0x0 SWAP2 PUSH1 0x1 PUSH1 0x1 PUSH1 0xA0 SHL SUB AND SWAP1 PUSH2 0x8FC SWAP1 DUP5 SWAP1 DUP5 DUP2 DUP2 DUP2 DUP6 DUP9 DUP9 CALL SWAP4 POP POP POP POP RETURNDATASIZE DUP1 PUSH1 0x0 DUP2 EQ PUSH2 0x378C JUMPI PUSH1 0x40 MLOAD SWAP2 POP PUSH1 0x1F NOT PUSH1 0x3F RETURNDATASIZE ADD AND DUP3 ADD PUSH1 0x40 MSTORE RETURNDATASIZE DUP3 MSTORE RETURNDATASIZE PUSH1 0x0 PUSH1 0x20 DUP5 ADD RETURNDATACOPY PUSH2 0x3791 JUMP JUMPDEST PUSH1 0x60 SWAP2 POP JUMPDEST POP POP SWAP1 POP DUP1 PUSH1 0x40 MLOAD DUP1 PUSH1 0x40 ADD PUSH1 0x40 MSTORE DUP1 PUSH1 0xF DUP2 MSTORE PUSH1 0x20 ADD PUSH15 0x151C985B9CD9995C8819985A5B1959 PUSH1 0x8A SHL DUP2 MSTORE POP SWAP1 PUSH2 0x37DC JUMPI PUSH1 0x40 MLOAD PUSH3 0x461BCD PUSH1 0xE5 SHL DUP2 MSTORE PUSH1 0x4 ADD PUSH2 0xC2A SWAP2 SWAP1 PUSH2 0x5356 JUMP JUMPDEST POP POP JUMPDEST POP JUMPDEST PUSH1 0x1 DUP1 DUP5 ADD SLOAD SWAP1 DUP4 ADD SLOAD PUSH1 0x2 DUP5 ADD SLOAD PUSH1 0x3 DUP6 ADD SLOAD PUSH2 0x380F SWAP4 PUSH1 0x1 PUSH1 0x1 PUSH1 0xA0 SHL SUB SWAP1 DUP2 AND SWAP4 DUP2 AND SWAP3 SWAP2 AND PUSH2 0x41B1 JUMP JUMPDEST PUSH1 0x1 DUP4 DUP2 ADD SLOAD SWAP1 DUP4 ADD SLOAD PUSH1 0x40 MLOAD PUSH4 0x5C46A7EF PUSH1 0xE1 SHL DUP2 MSTORE PUSH1 0x1 PUSH1 0x1 PUSH1 0xA0 SHL SUB SWAP3 DUP4 AND PUSH1 0x4 DUP3 ADD MSTORE SWAP1 DUP3 AND PUSH1 0x24 DUP3 ADD MSTORE PUSH1 0x44 DUP2 ADD DUP11 SWAP1 MSTORE PUSH1 0x80 PUSH1 0x64 DUP3 ADD MSTORE PUSH1 0x0 PUSH1 0x84 DUP3 ADD MSTORE PUSH32 0x0 SWAP1 SWAP2 AND SWAP1 PUSH4 0xB88D4FDE SWAP1 PUSH1 0xA4 ADD PUSH1 0x0 PUSH1 0x40 MLOAD DUP1 DUP4 SUB DUP2 PUSH1 0x0 DUP8 DUP1 EXTCODESIZE ISZERO DUP1 ISZERO PUSH2 0x389B JUMPI PUSH1 0x0 DUP1 REVERT JUMPDEST POP GAS CALL ISZERO DUP1 ISZERO PUSH2 0x38AF JUMPI RETURNDATASIZE PUSH1 0x0 DUP1 RETURNDATACOPY RETURNDATASIZE PUSH1 0x0 REVERT JUMPDEST POP POP POP POP PUSH1 0x1 DUP3 DUP2 ADD SLOAD SWAP1 DUP5 ADD SLOAD PUSH1 0x2 DUP5 ADD SLOAD PUSH1 0x3 DUP6 ADD SLOAD PUSH1 0x40 DUP1 MLOAD SWAP3 DUP4 MSTORE PUSH1 0x1 PUSH1 0x1 PUSH1 0xA0 SHL SUB SWAP2 DUP3 AND PUSH1 0x20 DUP5 ADD MSTORE SWAP4 DUP2 AND SWAP4 SWAP3 AND SWAP2 DUP12 SWAP2 PUSH32 0xFD9D7289C0B47546FFF41663663C2372AA45809B7AB87D908E443A3821CB5B4E SWAP2 ADD PUSH1 0x40 MLOAD DUP1 SWAP2 SUB SWAP1 LOG4 POP POP POP PUSH2 0x391F PUSH1 0x1 PUSH1 0x0 SSTORE JUMP JUMPDEST POP POP POP POP POP JUMP JUMPDEST PUSH2 0x392E PUSH2 0x3F8B JUMP JUMPDEST PUSH1 0x40 MLOAD PUSH4 0x2A5BB1B7 PUSH1 0xE1 SHL DUP2 MSTORE CALLER PUSH1 0x4 DUP3 ADD MSTORE ADDRESS SWAP1 PUSH4 0x54B7636E SWAP1 PUSH1 0x24 ADD PUSH1 0x20 PUSH1 0x40 MLOAD DUP1 DUP4 SUB DUP2 DUP7 GAS STATICCALL ISZERO DUP1 ISZERO PUSH2 0x3969 JUMPI RETURNDATASIZE PUSH1 0x0 DUP1 RETURNDATACOPY RETURNDATASIZE PUSH1 0x0 REVERT JUMPDEST POP POP POP POP PUSH1 0x40 MLOAD RETURNDATASIZE PUSH1 0x1F NOT PUSH1 0x1F DUP3 ADD AND DUP3 ADD DUP1 PUSH1 0x40 MSTORE POP DUP2 ADD SWAP1 PUSH2 0x398D SWAP2 SWAP1 PUSH2 0x53D2 JUMP JUMPDEST PUSH1 0x40 MLOAD DUP1 PUSH1 0x40 ADD PUSH1 0x40 MSTORE DUP1 PUSH1 0xC DUP2 MSTORE PUSH1 0x20 ADD PUSH12 0x12D650C81C995C5D5A5C9959 PUSH1 0xA2 SHL DUP2 MSTORE POP SWAP1 PUSH2 0x39D0 JUMPI PUSH1 0x40 MLOAD PUSH3 0x461BCD PUSH1 0xE5 SHL DUP2 MSTORE PUSH1 0x4 ADD PUSH2 0xC2A SWAP2 SWAP1 PUSH2 0x5356 JUMP JUMPDEST POP DUP1 PUSH2 0x39DB DUP2 PUSH2 0x3E7D JUMP JUMPDEST PUSH1 0x40 MLOAD DUP1 PUSH1 0x40 ADD PUSH1 0x40 MSTORE DUP1 PUSH1 0x19 DUP2 MSTORE PUSH1 0x20 ADD PUSH1 0x0 DUP1 MLOAD PUSH1 0x20 PUSH2 0x5539 DUP4 CODECOPY DUP2 MLOAD SWAP2 MSTORE DUP2 MSTORE POP SWAP1 PUSH2 0x3A1D JUMPI PUSH1 0x40 MLOAD PUSH3 0x461BCD PUSH1 0xE5 SHL DUP2 MSTORE PUSH1 0x4 ADD PUSH2 0xC2A SWAP2 SWAP1 PUSH2 0x5356 JUMP JUMPDEST POP DUP3 PUSH2 0x3A28 DUP2 PUSH2 0x3EB1 JUMP JUMPDEST PUSH1 0x0 DUP6 DUP2 MSTORE PUSH1 0x10 PUSH1 0x20 MSTORE PUSH1 0x40 DUP2 KECCAK256 SWAP1 PUSH1 0x3 DUP3 DUP2 ADD SLOAD PUSH1 0x1 PUSH1 0xA0 SHL SWAP1 DIV PUSH1 0xFF AND SWAP1 DUP2 GT ISZERO PUSH2 0x3A57 JUMPI PUSH2 0x3A57 PUSH2 0x5221 JUMP JUMPDEST EQ PUSH1 0x40 MLOAD DUP1 PUSH1 0x40 ADD PUSH1 0x40 MSTORE DUP1 PUSH1 0x13 DUP2 MSTORE PUSH1 0x20 ADD PUSH19 0x141C9BDC195C9D1E481B9BDD081B1A5CDD1959 PUSH1 0x6A SHL DUP2 MSTORE POP SWAP1 PUSH2 0x3AA2 JUMPI PUSH1 0x40 MLOAD PUSH3 0x461BCD PUSH1 0xE5 SHL DUP2 MSTORE PUSH1 0x4 ADD PUSH2 0xC2A SWAP2 SWAP1 PUSH2 0x5356 JUMP JUMPDEST POP PUSH1 0x1 DUP2 ADD SLOAD PUSH1 0x40 DUP1 MLOAD DUP1 DUP3 ADD SWAP1 SWAP2 MSTORE PUSH1 0x1E DUP2 MSTORE PUSH32 0x43616E6E6F7420626964206F6E20796F7572206F776E206C697374696E670000 PUSH1 0x20 DUP3 ADD MSTORE SWAP1 PUSH1 0x1 PUSH1 0x1 PUSH1 0xA0 SHL SUB AND CALLER SUB PUSH2 0x3B05 JUMPI PUSH1 0x40 MLOAD PUSH3 0x461BCD PUSH1 0xE5 SHL DUP2 MSTORE PUSH1 0x4 ADD PUSH2 0xC2A SWAP2 SWAP1 PUSH2 0x5356 JUMP JUMPDEST POP DUP1 PUSH1 0x2 ADD SLOAD DUP6 LT ISZERO PUSH2 0x3B5A JUMPI PUSH1 0x40 MLOAD PUSH3 0x461BCD PUSH1 0xE5 SHL DUP2 MSTORE PUSH1 0x20 PUSH1 0x4 DUP3 ADD MSTORE PUSH1 0x1B PUSH1 0x24 DUP3 ADD MSTORE PUSH32 0x426964206D757374206D656574206C697374696E672070726963650000000000 PUSH1 0x44 DUP3 ADD MSTORE PUSH1 0x64 ADD PUSH2 0xC2A JUMP JUMPDEST CALLER PUSH1 0x0 SWAP1 DUP2 MSTORE PUSH1 0x13 PUSH1 0x20 SWAP1 DUP2 MSTORE PUSH1 0x40 DUP1 DUP4 KECCAK256 DUP10 DUP5 MSTORE SWAP1 SWAP2 MSTORE SWAP1 KECCAK256 SLOAD PUSH1 0x1 PUSH1 0x1 PUSH1 0xA0 SHL SUB DUP6 AND PUSH2 0x3BFC JUMPI DUP6 CALLVALUE EQ PUSH2 0x3BC8 JUMPI PUSH1 0x40 MLOAD PUSH3 0x461BCD PUSH1 0xE5 SHL DUP2 MSTORE PUSH1 0x20 PUSH1 0x4 DUP3 ADD MSTORE PUSH1 0x13 PUSH1 0x24 DUP3 ADD MSTORE PUSH19 0x8AA89040C2DADEEADCE840DAD2E6DAC2E8C6D PUSH1 0x6B SHL PUSH1 0x44 DUP3 ADD MSTORE PUSH1 0x64 ADD PUSH2 0xC2A JUMP JUMPDEST PUSH1 0x0 DUP8 DUP2 MSTORE PUSH1 0x12 PUSH1 0x20 SWAP1 DUP2 MSTORE PUSH1 0x40 DUP1 DUP4 KECCAK256 CALLER DUP5 MSTORE SWAP1 SWAP2 MSTORE DUP2 KECCAK256 DUP1 SLOAD CALLVALUE SWAP3 SWAP1 PUSH2 0x3BF1 SWAP1 DUP5 SWAP1 PUSH2 0x5418 JUMP JUMPDEST SWAP1 SWAP2 SSTORE POP PUSH2 0x3CBE SWAP1 POP JUMP JUMPDEST PUSH1 0x40 MLOAD PUSH4 0x6EB1769F PUSH1 0xE1 SHL DUP2 MSTORE CALLER PUSH1 0x4 DUP3 ADD MSTORE ADDRESS PUSH1 0x24 DUP3 ADD MSTORE DUP6 SWAP1 DUP8 SWAP1 PUSH1 0x1 PUSH1 0x1 PUSH1 0xA0 SHL SUB DUP4 AND SWAP1 PUSH4 0xDD62ED3E SWAP1 PUSH1 0x44 ADD PUSH1 0x20 PUSH1 0x40 MLOAD DUP1 DUP4 SUB DUP2 DUP7 GAS STATICCALL ISZERO DUP1 ISZERO PUSH2 0x3C4A JUMPI RETURNDATASIZE PUSH1 0x0 DUP1 RETURNDATACOPY RETURNDATASIZE PUSH1 0x0 REVERT JUMPDEST POP POP POP POP PUSH1 0x40 MLOAD RETURNDATASIZE PUSH1 0x1F NOT PUSH1 0x1F DUP3 ADD AND DUP3 ADD DUP1 PUSH1 0x40 MSTORE POP DUP2 ADD SWAP1 PUSH2 0x3C6E SWAP2 SWAP1 PUSH2 0x542B JUMP JUMPDEST LT ISZERO PUSH2 0x3CBC JUMPI PUSH1 0x40 MLOAD PUSH3 0x461BCD PUSH1 0xE5 SHL DUP2 MSTORE PUSH1 0x20 PUSH1 0x4 DUP3 ADD MSTORE PUSH1 0x1C PUSH1 0x24 DUP3 ADD MSTORE PUSH32 0x496E73756666696369656E7420746F6B656E20616C6C6F77616E636500000000 PUSH1 0x44 DUP3 ADD MSTORE PUSH1 0x64 ADD PUSH2 0xC2A JUMP JUMPDEST POP JUMPDEST PUSH1 0x0 PUSH2 0x3CC9 DUP9 PUSH2 0x42DE JUMP JUMPDEST SWAP1 POP DUP1 ISZERO PUSH2 0x3D29 JUMPI PUSH1 0x0 PUSH2 0x3CDD DUP3 DUP10 PUSH2 0x4397 JUMP JUMPDEST SWAP1 POP DUP1 DUP9 LT ISZERO PUSH2 0x3D27 JUMPI PUSH1 0x40 MLOAD PUSH3 0x461BCD PUSH1 0xE5 SHL DUP2 MSTORE PUSH1 0x20 PUSH1 0x4 DUP3 ADD MSTORE PUSH1 0x15 PUSH1 0x24 DUP3 ADD MSTORE PUSH21 0x42696420696E6372656D656E7420746F6F206C6F77 PUSH1 0x58 SHL PUSH1 0x44 DUP3 ADD MSTORE PUSH1 0x64 ADD PUSH2 0xC2A JUMP JUMPDEST POP JUMPDEST DUP2 ISZERO PUSH2 0x3D40 JUMPI PUSH2 0x3D3B DUP9 DUP4 DUP10 DUP10 PUSH2 0x443B JUMP JUMPDEST PUSH2 0x3E16 JUMP JUMPDEST PUSH2 0x3E16 DUP9 DUP9 DUP9 PUSH1 0x40 DUP1 MLOAD PUSH1 0xC0 DUP2 ADD DUP3 MSTORE DUP5 DUP2 MSTORE CALLER PUSH1 0x20 DUP1 DUP4 ADD DUP3 DUP2 MSTORE DUP4 DUP6 ADD SWAP7 DUP8 MSTORE PUSH1 0x1 PUSH1 0x1 PUSH1 0xA0 SHL SUB SWAP6 DUP7 AND PUSH1 0x60 DUP6 ADD SWAP1 DUP2 MSTORE TIMESTAMP PUSH1 0x80 DUP7 ADD SWAP1 DUP2 MSTORE PUSH1 0x1 PUSH1 0xA0 DUP8 ADD DUP2 DUP2 MSTORE PUSH1 0x0 DUP13 DUP2 MSTORE PUSH1 0x11 DUP8 MSTORE DUP10 DUP2 KECCAK256 DUP1 SLOAD DUP1 DUP6 ADD DUP3 SSTORE DUP2 DUP4 MSTORE DUP9 DUP4 KECCAK256 SWAP11 MLOAD PUSH1 0x6 SWAP1 SWAP2 MUL SWAP1 SWAP11 ADD SWAP10 DUP11 SSTORE SWAP6 MLOAD SWAP3 DUP10 ADD DUP1 SLOAD SWAP4 DUP13 AND PUSH1 0x1 PUSH1 0x1 PUSH1 0xA0 SHL SUB NOT SWAP5 DUP6 AND OR SWAP1 SSTORE SWAP11 MLOAD PUSH1 0x2 DUP10 ADD SSTORE SWAP3 MLOAD PUSH1 0x3 DUP9 ADD DUP1 SLOAD SWAP2 SWAP1 SWAP11 AND SWAP2 AND OR SWAP1 SWAP8 SSTORE SWAP6 MLOAD PUSH1 0x4 DUP6 ADD SSTORE SWAP5 MLOAD PUSH1 0x5 SWAP1 SWAP4 ADD DUP1 SLOAD SWAP4 ISZERO ISZERO PUSH1 0xFF NOT SWAP1 SWAP5 AND SWAP4 SWAP1 SWAP4 OR SWAP1 SWAP3 SSTORE SWAP3 SLOAD SWAP3 DUP5 MSTORE PUSH1 0x13 DUP2 MSTORE DUP2 DUP5 KECCAK256 SWAP5 DUP5 MSTORE SWAP4 SWAP1 SWAP4 MSTORE SWAP2 SWAP1 KECCAK256 SSTORE JUMP JUMPDEST PUSH1 0x40 DUP1 MLOAD DUP9 DUP2 MSTORE PUSH1 0x1 PUSH1 0x1 PUSH1 0xA0 SHL SUB DUP9 AND PUSH1 0x20 DUP3 ADD MSTORE CALLER SWAP2 DUP11 SWAP2 PUSH32 0xE30ABCCEBB20A387BE8E75E927D7E06CE1BF9D77BB3888516663BDC8995FB334 SWAP2 ADD PUSH1 0x40 MLOAD DUP1 SWAP2 SUB SWAP1 LOG3 POP POP POP POP POP PUSH2 0x1EEB PUSH1 0x1 PUSH1 0x0 SSTORE JUMP JUMPDEST PUSH1 0x0 PUSH2 0x3E75 DUP2 PUSH2 0x3EF4 JUMP JUMPDEST PUSH2 0x1B71 PUSH2 0x459D JUMP JUMPDEST PUSH1 0xF SLOAD PUSH1 0x0 SWAP1 PUSH1 0xFF AND PUSH2 0x3E92 JUMPI POP PUSH1 0x1 SWAP2 SWAP1 POP JUMP JUMPDEST POP PUSH1 0x1 PUSH1 0x1 PUSH1 0xA0 SHL SUB AND PUSH1 0x0 SWAP1 DUP2 MSTORE PUSH1 0xE PUSH1 0x20 MSTORE PUSH1 0x40 SWAP1 KECCAK256 SLOAD PUSH1 0xFF AND SWAP1 JUMP JUMPDEST PUSH1 0x40 DUP1 MLOAD DUP1 DUP3 ADD SWAP1 SWAP2 MSTORE PUSH1 0xE DUP2 MSTORE PUSH14 0x125B9D985B1A5908185B5BDD5B9D PUSH1 0x92 SHL PUSH1 0x20 DUP3 ADD MSTORE DUP2 PUSH2 0x11DA JUMPI PUSH1 0x40 MLOAD PUSH3 0x461BCD PUSH1 0xE5 SHL DUP2 MSTORE PUSH1 0x4 ADD PUSH2 0xC2A SWAP2 SWAP1 PUSH2 0x5356 JUMP JUMPDEST PUSH2 0x1B71 DUP2 CALLER PUSH2 0x45DA JUMP JUMPDEST PUSH1 0x0 DUP3 DUP2 MSTORE PUSH1 0x1 PUSH1 0x20 DUP2 SWAP1 MSTORE PUSH1 0x40 SWAP1 SWAP2 KECCAK256 ADD SLOAD PUSH2 0x3F1A DUP2 PUSH2 0x3EF4 JUMP JUMPDEST PUSH2 0x1EEB DUP4 DUP4 PUSH2 0x4633 JUMP JUMPDEST PUSH2 0x3F2E DUP3 DUP3 PUSH2 0x22FF JUMP JUMPDEST ISZERO PUSH2 0x11DA JUMPI PUSH1 0x0 DUP3 DUP2 MSTORE PUSH1 0x1 PUSH1 0x20 SWAP1 DUP2 MSTORE PUSH1 0x40 DUP1 DUP4 KECCAK256 PUSH1 0x1 PUSH1 0x1 PUSH1 0xA0 SHL SUB DUP6 AND DUP1 DUP6 MSTORE SWAP3 MSTORE DUP1 DUP4 KECCAK256 DUP1 SLOAD PUSH1 0xFF NOT AND SWAP1 SSTORE MLOAD CALLER SWAP3 DUP6 SWAP2 PUSH32 0xF6391F5C32D9C69D2A47EA670B442974B53935D1EDC7FD64EB21E047A839171B SWAP2 SWAP1 LOG4 POP POP JUMP JUMPDEST PUSH1 0x2 PUSH1 0x0 SLOAD SUB PUSH2 0x3FDD JUMPI PUSH1 0x40 MLOAD PUSH3 0x461BCD PUSH1 0xE5 SHL DUP2 MSTORE PUSH1 0x20 PUSH1 0x4 DUP3 ADD MSTORE PUSH1 0x1F PUSH1 0x24 DUP3 ADD MSTORE PUSH32 0x5265656E7472616E637947756172643A207265656E7472616E742063616C6C00 PUSH1 0x44 DUP3 ADD MSTORE PUSH1 0x64 ADD PUSH2 0xC2A JUMP JUMPDEST PUSH1 0x2 PUSH1 0x0 SSTORE JUMP JUMPDEST PUSH1 0x0 PUSH2 0x3FEF DUP3 PUSH2 0x3E7D JUMP JUMPDEST PUSH2 0x3FFB JUMPI POP PUSH1 0x0 PUSH2 0x4024 JUMP JUMPDEST PUSH1 0x1 PUSH1 0x1 PUSH1 0xA0 SHL SUB DUP3 AND PUSH2 0x401F JUMPI DUP4 CALLVALUE LT ISZERO DUP1 ISZERO PUSH2 0x4018 JUMPI POP DUP4 DUP4 EQ JUMPDEST SWAP1 POP PUSH2 0x4024 JUMP JUMPDEST POP DUP2 DUP4 EQ JUMPDEST SWAP4 SWAP3 POP POP POP JUMP JUMPDEST PUSH1 0x0 DUP2 DUP2 MSTORE PUSH1 0x11 PUSH1 0x20 MSTORE PUSH1 0x40 DUP2 KECCAK256 SWAP1 JUMPDEST DUP2 SLOAD DUP2 LT ISZERO PUSH2 0x1EEB JUMPI DUP2 DUP2 DUP2 SLOAD DUP2 LT PUSH2 0x4056 JUMPI PUSH2 0x4056 PUSH2 0x5389 JUMP JUMPDEST PUSH1 0x0 SWAP2 DUP3 MSTORE PUSH1 0x20 SWAP1 SWAP2 KECCAK256 PUSH1 0x5 PUSH1 0x6 SWAP1 SWAP3 MUL ADD ADD SLOAD PUSH1 0xFF AND ISZERO PUSH2 0x419F JUMPI PUSH1 0x0 DUP3 DUP3 DUP2 SLOAD DUP2 LT PUSH2 0x4086 JUMPI PUSH2 0x4086 PUSH2 0x5389 JUMP JUMPDEST SWAP1 PUSH1 0x0 MSTORE PUSH1 0x20 PUSH1 0x0 KECCAK256 SWAP1 PUSH1 0x6 MUL ADD PUSH1 0x5 ADD PUSH1 0x0 PUSH2 0x100 EXP DUP2 SLOAD DUP2 PUSH1 0xFF MUL NOT AND SWAP1 DUP4 ISZERO ISZERO MUL OR SWAP1 SSTORE POP PUSH1 0x0 PUSH1 0x13 PUSH1 0x0 DUP5 DUP5 DUP2 SLOAD DUP2 LT PUSH2 0x40C6 JUMPI PUSH2 0x40C6 PUSH2 0x5389 JUMP JUMPDEST PUSH1 0x0 SWAP2 DUP3 MSTORE PUSH1 0x20 DUP1 DUP4 KECCAK256 PUSH1 0x1 PUSH1 0x6 SWAP1 SWAP4 MUL ADD SWAP2 SWAP1 SWAP2 ADD SLOAD PUSH1 0x1 PUSH1 0x1 PUSH1 0xA0 SHL SUB AND DUP4 MSTORE DUP3 DUP2 ADD SWAP4 SWAP1 SWAP4 MSTORE PUSH1 0x40 SWAP2 DUP3 ADD DUP2 KECCAK256 DUP8 DUP3 MSTORE SWAP1 SWAP3 MSTORE SWAP1 KECCAK256 SSTORE DUP2 SLOAD DUP3 SWAP1 DUP3 SWAP1 DUP2 LT PUSH2 0x4113 JUMPI PUSH2 0x4113 PUSH2 0x5389 JUMP JUMPDEST SWAP1 PUSH1 0x0 MSTORE PUSH1 0x20 PUSH1 0x0 KECCAK256 SWAP1 PUSH1 0x6 MUL ADD PUSH1 0x1 ADD PUSH1 0x0 SWAP1 SLOAD SWAP1 PUSH2 0x100 EXP SWAP1 DIV PUSH1 0x1 PUSH1 0x1 PUSH1 0xA0 SHL SUB AND PUSH1 0x1 PUSH1 0x1 PUSH1 0xA0 SHL SUB AND DUP4 PUSH32 0xAF2F02012EA1953FE9293DD4A8BB5194C96792324F9385297C991C2CFEADE3D9 DUP5 DUP5 DUP2 SLOAD DUP2 LT PUSH2 0x4175 JUMPI PUSH2 0x4175 PUSH2 0x5389 JUMP JUMPDEST SWAP1 PUSH1 0x0 MSTORE PUSH1 0x20 PUSH1 0x0 KECCAK256 SWAP1 PUSH1 0x6 MUL ADD PUSH1 0x2 ADD SLOAD PUSH1 0x40 MLOAD PUSH2 0x4196 SWAP2 DUP2 MSTORE PUSH1 0x20 ADD SWAP1 JUMP JUMPDEST PUSH1 0x40 MLOAD DUP1 SWAP2 SUB SWAP1 LOG3 JUMPDEST DUP1 PUSH2 0x41A9 DUP2 PUSH2 0x5444 JUMP JUMPDEST SWAP2 POP POP PUSH2 0x403B JUMP JUMPDEST PUSH1 0x40 DUP1 MLOAD PUSH1 0x60 DUP2 ADD DUP3 MSTORE PUSH1 0x3 SLOAD DUP2 MSTORE PUSH1 0x5 SLOAD PUSH1 0x1 PUSH1 0x1 PUSH1 0xA0 SHL SUB AND PUSH1 0x20 DUP3 ADD MSTORE PUSH2 0x2710 SWAP2 DUP2 ADD SWAP2 SWAP1 SWAP2 MSTORE PUSH2 0x391F DUP2 DUP7 DUP7 DUP7 DUP7 PUSH2 0x469E JUMP JUMPDEST PUSH1 0x1 PUSH1 0x1 PUSH1 0xA0 SHL SUB DUP2 AND PUSH1 0x0 SWAP1 DUP2 MSTORE PUSH1 0x1 DUP4 ADD PUSH1 0x20 MSTORE PUSH1 0x40 DUP2 KECCAK256 SLOAD ISZERO ISZERO PUSH2 0x4024 JUMP JUMPDEST PUSH1 0x0 PUSH2 0x4024 DUP4 PUSH1 0x1 PUSH1 0x1 PUSH1 0xA0 SHL SUB DUP5 AND PUSH2 0x475E JUMP JUMPDEST PUSH1 0x0 PUSH2 0x4024 DUP4 PUSH1 0x1 PUSH1 0x1 PUSH1 0xA0 SHL SUB DUP5 AND PUSH2 0x47AD JUMP JUMPDEST PUSH1 0x1 PUSH1 0x1 PUSH1 0xA0 SHL SUB DUP2 AND PUSH1 0x0 SWAP1 DUP2 MSTORE PUSH1 0xC PUSH1 0x20 MSTORE PUSH1 0x40 DUP2 KECCAK256 SLOAD PUSH1 0x7 SLOAD DUP2 GT PUSH2 0x425C JUMPI DUP1 PUSH2 0x4024 JUMP JUMPDEST PUSH1 0x7 SLOAD SWAP4 SWAP3 POP POP POP JUMP JUMPDEST PUSH2 0x426E PUSH2 0x48A0 JUMP JUMPDEST PUSH1 0x2 DUP1 SLOAD PUSH1 0xFF NOT AND SWAP1 SSTORE PUSH32 0x5DB9EE0A495BF2E6FF9C91A7834C1BA4FDD244A5E8AA4E537BD38AEAE4B073AA CALLER JUMPDEST PUSH1 0x40 MLOAD PUSH1 0x1 PUSH1 0x1 PUSH1 0xA0 SHL SUB SWAP1 SWAP2 AND DUP2 MSTORE PUSH1 0x20 ADD PUSH1 0x40 MLOAD DUP1 SWAP2 SUB SWAP1 LOG1 JUMP JUMPDEST PUSH1 0x0 DUP3 DUP2 MSTORE PUSH1 0x1 PUSH1 0x20 DUP2 SWAP1 MSTORE PUSH1 0x40 SWAP1 SWAP2 KECCAK256 ADD SLOAD PUSH2 0x42D4 DUP2 PUSH2 0x3EF4 JUMP JUMPDEST PUSH2 0x1EEB DUP4 DUP4 PUSH2 0x3F24 JUMP JUMPDEST PUSH1 0x0 DUP2 DUP2 MSTORE PUSH1 0x11 PUSH1 0x20 MSTORE PUSH1 0x40 DUP2 KECCAK256 DUP2 SWAP1 DUP2 JUMPDEST DUP2 SLOAD DUP2 LT ISZERO PUSH2 0x438E JUMPI DUP2 DUP2 DUP2 SLOAD DUP2 LT PUSH2 0x430B JUMPI PUSH2 0x430B PUSH2 0x5389 JUMP JUMPDEST PUSH1 0x0 SWAP2 DUP3 MSTORE PUSH1 0x20 SWAP1 SWAP2 KECCAK256 PUSH1 0x5 PUSH1 0x6 SWAP1 SWAP3 MUL ADD ADD SLOAD PUSH1 0xFF AND DUP1 ISZERO PUSH2 0x4350 JUMPI POP DUP3 DUP3 DUP3 DUP2 SLOAD DUP2 LT PUSH2 0x433C JUMPI PUSH2 0x433C PUSH2 0x5389 JUMP JUMPDEST SWAP1 PUSH1 0x0 MSTORE PUSH1 0x20 PUSH1 0x0 KECCAK256 SWAP1 PUSH1 0x6 MUL ADD PUSH1 0x2 ADD SLOAD GT JUMPDEST ISZERO PUSH2 0x437C JUMPI DUP2 DUP2 DUP2 SLOAD DUP2 LT PUSH2 0x4367 JUMPI PUSH2 0x4367 PUSH2 0x5389 JUMP JUMPDEST SWAP1 PUSH1 0x0 MSTORE PUSH1 0x20 PUSH1 0x0 KECCAK256 SWAP1 PUSH1 0x6 MUL ADD PUSH1 0x2 ADD SLOAD SWAP3 POP JUMPDEST DUP1 PUSH2 0x4386 DUP2 PUSH2 0x5444 JUMP JUMPDEST SWAP2 POP POP PUSH2 0x42F0 JUMP JUMPDEST POP SWAP1 SWAP4 SWAP3 POP POP POP JUMP JUMPDEST PUSH1 0x0 DUP1 PUSH8 0xDE0B6B3A7640000 DUP5 LT ISZERO PUSH2 0x43B2 JUMPI POP PUSH1 0xA PUSH2 0x43CE JUMP JUMPDEST PUSH8 0x8AC7230489E80000 DUP5 LT ISZERO PUSH2 0x43CA JUMPI POP PUSH1 0x5 PUSH2 0x43CE JUMP JUMPDEST POP PUSH1 0x2 JUMPDEST PUSH1 0x0 PUSH2 0x43DB DUP3 PUSH1 0x64 PUSH2 0x5418 JUMP JUMPDEST SWAP1 POP PUSH2 0x43E9 DUP2 PUSH1 0x0 NOT PUSH2 0x5474 JUMP JUMPDEST DUP6 GT ISZERO PUSH2 0x442F JUMPI PUSH1 0x40 MLOAD PUSH3 0x461BCD PUSH1 0xE5 SHL DUP2 MSTORE PUSH1 0x20 PUSH1 0x4 DUP3 ADD MSTORE PUSH1 0x14 PUSH1 0x24 DUP3 ADD MSTORE PUSH20 0x42696420616D6F756E7420746F6F206C61726765 PUSH1 0x60 SHL PUSH1 0x44 DUP3 ADD MSTORE PUSH1 0x64 ADD PUSH2 0xC2A JUMP JUMPDEST PUSH1 0x64 PUSH2 0x3101 DUP3 DUP8 PUSH2 0x545D JUMP JUMPDEST PUSH1 0x0 DUP5 DUP2 MSTORE PUSH1 0x11 PUSH1 0x20 MSTORE PUSH1 0x40 DUP2 KECCAK256 PUSH2 0x4454 PUSH1 0x1 DUP7 PUSH2 0x5405 JUMP JUMPDEST DUP2 SLOAD DUP2 LT PUSH2 0x4464 JUMPI PUSH2 0x4464 PUSH2 0x5389 JUMP JUMPDEST SWAP1 PUSH1 0x0 MSTORE PUSH1 0x20 PUSH1 0x0 KECCAK256 SWAP1 PUSH1 0x6 MUL ADD SWAP1 POP DUP1 PUSH1 0x5 ADD PUSH1 0x0 SWAP1 SLOAD SWAP1 PUSH2 0x100 EXP SWAP1 DIV PUSH1 0xFF AND PUSH1 0x40 MLOAD DUP1 PUSH1 0x40 ADD PUSH1 0x40 MSTORE DUP1 PUSH1 0x11 DUP2 MSTORE PUSH1 0x20 ADD PUSH17 0x426964206973206E6F7420616374697665 PUSH1 0x78 SHL DUP2 MSTORE POP SWAP1 PUSH2 0x44CE JUMPI PUSH1 0x40 MLOAD PUSH3 0x461BCD PUSH1 0xE5 SHL DUP2 MSTORE PUSH1 0x4 ADD PUSH2 0xC2A SWAP2 SWAP1 PUSH2 0x5356 JUMP JUMPDEST POP PUSH1 0x3 DUP2 ADD SLOAD PUSH1 0x1 PUSH1 0x1 PUSH1 0xA0 SHL SUB DUP4 DUP2 AND SWAP2 AND EQ PUSH2 0x452E JUMPI PUSH1 0x40 MLOAD PUSH3 0x461BCD PUSH1 0xE5 SHL DUP2 MSTORE PUSH1 0x20 PUSH1 0x4 DUP3 ADD MSTORE PUSH1 0x1B PUSH1 0x24 DUP3 ADD MSTORE PUSH32 0x43616E6E6F74206368616E6765207061796D656E7420746F6B656E0000000000 PUSH1 0x44 DUP3 ADD MSTORE PUSH1 0x64 ADD PUSH2 0xC2A JUMP JUMPDEST PUSH1 0x0 PUSH2 0x453E DUP3 PUSH1 0x2 ADD SLOAD DUP6 PUSH2 0x4397 JUMP JUMPDEST SWAP1 POP DUP1 DUP5 LT ISZERO PUSH2 0x4588 JUMPI PUSH1 0x40 MLOAD PUSH3 0x461BCD PUSH1 0xE5 SHL DUP2 MSTORE PUSH1 0x20 PUSH1 0x4 DUP3 ADD MSTORE PUSH1 0x15 PUSH1 0x24 DUP3 ADD MSTORE PUSH21 0x42696420696E6372656D656E7420746F6F206C6F77 PUSH1 0x58 SHL PUSH1 0x44 DUP3 ADD MSTORE PUSH1 0x64 ADD PUSH2 0xC2A JUMP JUMPDEST POP PUSH1 0x2 DUP2 ADD SWAP3 SWAP1 SWAP3 SSTORE POP TIMESTAMP PUSH1 0x4 SWAP1 SWAP2 ADD SSTORE POP POP JUMP JUMPDEST PUSH2 0x45A5 PUSH2 0x48EB JUMP JUMPDEST PUSH1 0x2 DUP1 SLOAD PUSH1 0xFF NOT AND PUSH1 0x1 OR SWAP1 SSTORE PUSH32 0x62E78CEA01BEE320CD4E420270B5EA74000D11B0C9F74754EBDBFC544B05A258 PUSH2 0x429B CALLER SWAP1 JUMP JUMPDEST PUSH2 0x45E4 DUP3 DUP3 PUSH2 0x22FF JUMP JUMPDEST PUSH2 0x11DA JUMPI PUSH2 0x45F1 DUP2 PUSH2 0x4931 JUMP JUMPDEST PUSH2 0x45FC DUP4 PUSH1 0x20 PUSH2 0x4943 JUMP JUMPDEST PUSH1 0x40 MLOAD PUSH1 0x20 ADD PUSH2 0x460D SWAP3 SWAP2 SWAP1 PUSH2 0x5496 JUMP JUMPDEST PUSH1 0x40 DUP1 MLOAD PUSH1 0x1F NOT DUP2 DUP5 SUB ADD DUP2 MSTORE SWAP1 DUP3 SWAP1 MSTORE PUSH3 0x461BCD PUSH1 0xE5 SHL DUP3 MSTORE PUSH2 0xC2A SWAP2 PUSH1 0x4 ADD PUSH2 0x5356 JUMP JUMPDEST PUSH2 0x463D DUP3 DUP3 PUSH2 0x22FF JUMP JUMPDEST PUSH2 0x11DA JUMPI PUSH1 0x0 DUP3 DUP2 MSTORE PUSH1 0x1 PUSH1 0x20 DUP2 DUP2 MSTORE PUSH1 0x40 DUP1 DUP5 KECCAK256 PUSH1 0x1 PUSH1 0x1 PUSH1 0xA0 SHL SUB DUP7 AND DUP1 DUP7 MSTORE SWAP3 MSTORE DUP1 DUP5 KECCAK256 DUP1 SLOAD PUSH1 0xFF NOT AND SWAP1 SWAP4 OR SWAP1 SWAP3 SSTORE SWAP1 MLOAD CALLER SWAP3 DUP6 SWAP2 PUSH32 0x2F8788117E7EFF1D82E926EC794901D17C78024A50270940304540A733656F0D SWAP2 SWAP1 LOG4 POP POP JUMP JUMPDEST PUSH1 0x40 DUP6 ADD MLOAD DUP6 MLOAD PUSH1 0x0 SWAP2 SWAP1 PUSH2 0x46B3 SWAP1 DUP6 PUSH2 0x545D JUMP JUMPDEST PUSH2 0x46BD SWAP2 SWAP1 PUSH2 0x5474 JUMP JUMPDEST SWAP1 POP PUSH1 0x0 PUSH2 0x46CB DUP3 DUP6 PUSH2 0x5405 JUMP JUMPDEST SWAP1 POP PUSH1 0x1 PUSH1 0x1 PUSH1 0xA0 SHL SUB DUP4 AND PUSH2 0x46F2 JUMPI PUSH2 0x46ED DUP7 DUP9 PUSH1 0x20 ADD MLOAD DUP4 DUP6 DUP10 DUP10 PUSH2 0x4ADF JUMP JUMPDEST PUSH2 0x4704 JUMP JUMPDEST PUSH2 0x4704 DUP4 DUP7 DUP9 DUP11 PUSH1 0x20 ADD MLOAD DUP6 DUP8 PUSH2 0x4D1B JUMP JUMPDEST PUSH1 0x40 DUP1 MLOAD DUP6 DUP2 MSTORE PUSH1 0x20 DUP2 ADD DUP5 SWAP1 MSTORE PUSH1 0x1 PUSH1 0x1 PUSH1 0xA0 SHL SUB DUP6 DUP2 AND DUP3 DUP5 ADD MSTORE SWAP2 MLOAD DUP8 DUP4 AND SWAP3 DUP10 AND SWAP2 PUSH32 0xA496C08B103292578A04C9879F2740638414C311180DFFA9D1436D3C97119923 SWAP2 SWAP1 DUP2 SWAP1 SUB PUSH1 0x60 ADD SWAP1 LOG3 POP POP POP POP POP POP POP JUMP JUMPDEST PUSH1 0x0 DUP2 DUP2 MSTORE PUSH1 0x1 DUP4 ADD PUSH1 0x20 MSTORE PUSH1 0x40 DUP2 KECCAK256 SLOAD PUSH2 0x47A5 JUMPI POP DUP2 SLOAD PUSH1 0x1 DUP2 DUP2 ADD DUP5 SSTORE PUSH1 0x0 DUP5 DUP2 MSTORE PUSH1 0x20 DUP1 DUP3 KECCAK256 SWAP1 SWAP4 ADD DUP5 SWAP1 SSTORE DUP5 SLOAD DUP5 DUP3 MSTORE DUP3 DUP7 ADD SWAP1 SWAP4 MSTORE PUSH1 0x40 SWAP1 KECCAK256 SWAP2 SWAP1 SWAP2 SSTORE PUSH2 0xBC3 JUMP JUMPDEST POP PUSH1 0x0 PUSH2 0xBC3 JUMP JUMPDEST PUSH1 0x0 DUP2 DUP2 MSTORE PUSH1 0x1 DUP4 ADD PUSH1 0x20 MSTORE PUSH1 0x40 DUP2 KECCAK256 SLOAD DUP1 ISZERO PUSH2 0x4896 JUMPI PUSH1 0x0 PUSH2 0x47D1 PUSH1 0x1 DUP4 PUSH2 0x5405 JUMP JUMPDEST DUP6 SLOAD SWAP1 SWAP2 POP PUSH1 0x0 SWAP1 PUSH2 0x47E5 SWAP1 PUSH1 0x1 SWAP1 PUSH2 0x5405 JUMP JUMPDEST SWAP1 POP DUP2 DUP2 EQ PUSH2 0x484A JUMPI PUSH1 0x0 DUP7 PUSH1 0x0 ADD DUP3 DUP2 SLOAD DUP2 LT PUSH2 0x4805 JUMPI PUSH2 0x4805 PUSH2 0x5389 JUMP JUMPDEST SWAP1 PUSH1 0x0 MSTORE PUSH1 0x20 PUSH1 0x0 KECCAK256 ADD SLOAD SWAP1 POP DUP1 DUP8 PUSH1 0x0 ADD DUP5 DUP2 SLOAD DUP2 LT PUSH2 0x4828 JUMPI PUSH2 0x4828 PUSH2 0x5389 JUMP JUMPDEST PUSH1 0x0 SWAP2 DUP3 MSTORE PUSH1 0x20 DUP1 DUP4 KECCAK256 SWAP1 SWAP2 ADD SWAP3 SWAP1 SWAP3 SSTORE SWAP2 DUP3 MSTORE PUSH1 0x1 DUP9 ADD SWAP1 MSTORE PUSH1 0x40 SWAP1 KECCAK256 DUP4 SWAP1 SSTORE JUMPDEST DUP6 SLOAD DUP7 SWAP1 DUP1 PUSH2 0x485B JUMPI PUSH2 0x485B PUSH2 0x550B JUMP JUMPDEST PUSH1 0x1 SWAP1 SUB DUP2 DUP2 SWAP1 PUSH1 0x0 MSTORE PUSH1 0x20 PUSH1 0x0 KECCAK256 ADD PUSH1 0x0 SWAP1 SSTORE SWAP1 SSTORE DUP6 PUSH1 0x1 ADD PUSH1 0x0 DUP7 DUP2 MSTORE PUSH1 0x20 ADD SWAP1 DUP2 MSTORE PUSH1 0x20 ADD PUSH1 0x0 KECCAK256 PUSH1 0x0 SWAP1 SSTORE PUSH1 0x1 SWAP4 POP POP POP POP PUSH2 0xBC3 JUMP JUMPDEST PUSH1 0x0 SWAP2 POP POP PUSH2 0xBC3 JUMP JUMPDEST PUSH1 0x2 SLOAD PUSH1 0xFF AND PUSH2 0x48E9 JUMPI PUSH1 0x40 MLOAD PUSH3 0x461BCD PUSH1 0xE5 SHL DUP2 MSTORE PUSH1 0x20 PUSH1 0x4 DUP3 ADD MSTORE PUSH1 0x14 PUSH1 0x24 DUP3 ADD MSTORE PUSH20 0x14185D5CD8589B194E881B9BDD081C185D5CD959 PUSH1 0x62 SHL PUSH1 0x44 DUP3 ADD MSTORE PUSH1 0x64 ADD PUSH2 0xC2A JUMP JUMPDEST JUMP JUMPDEST PUSH1 0x2 SLOAD PUSH1 0xFF AND ISZERO PUSH2 0x48E9 JUMPI PUSH1 0x40 MLOAD PUSH3 0x461BCD PUSH1 0xE5 SHL DUP2 MSTORE PUSH1 0x20 PUSH1 0x4 DUP3 ADD MSTORE PUSH1 0x10 PUSH1 0x24 DUP3 ADD MSTORE PUSH16 0x14185D5CD8589B194E881C185D5CD959 PUSH1 0x82 SHL PUSH1 0x44 DUP3 ADD MSTORE PUSH1 0x64 ADD PUSH2 0xC2A JUMP JUMPDEST PUSH1 0x60 PUSH2 0xBC3 PUSH1 0x1 PUSH1 0x1 PUSH1 0xA0 SHL SUB DUP4 AND PUSH1 0x14 JUMPDEST PUSH1 0x60 PUSH1 0x0 PUSH2 0x4952 DUP4 PUSH1 0x2 PUSH2 0x545D JUMP JUMPDEST PUSH2 0x495D SWAP1 PUSH1 0x2 PUSH2 0x5418 JUMP JUMPDEST PUSH8 0xFFFFFFFFFFFFFFFF DUP2 GT ISZERO PUSH2 0x4975 JUMPI PUSH2 0x4975 PUSH2 0x539F JUMP JUMPDEST PUSH1 0x40 MLOAD SWAP1 DUP1 DUP3 MSTORE DUP1 PUSH1 0x1F ADD PUSH1 0x1F NOT AND PUSH1 0x20 ADD DUP3 ADD PUSH1 0x40 MSTORE DUP1 ISZERO PUSH2 0x499F JUMPI PUSH1 0x20 DUP3 ADD DUP2 DUP1 CALLDATASIZE DUP4 CALLDATACOPY ADD SWAP1 POP JUMPDEST POP SWAP1 POP PUSH1 0x3 PUSH1 0xFC SHL DUP2 PUSH1 0x0 DUP2 MLOAD DUP2 LT PUSH2 0x49BA JUMPI PUSH2 0x49BA PUSH2 0x5389 JUMP JUMPDEST PUSH1 0x20 ADD ADD SWAP1 PUSH1 0x1 PUSH1 0x1 PUSH1 0xF8 SHL SUB NOT AND SWAP1 DUP2 PUSH1 0x0 BYTE SWAP1 MSTORE8 POP PUSH1 0xF PUSH1 0xFB SHL DUP2 PUSH1 0x1 DUP2 MLOAD DUP2 LT PUSH2 0x49E9 JUMPI PUSH2 0x49E9 PUSH2 0x5389 JUMP JUMPDEST PUSH1 0x20 ADD ADD SWAP1 PUSH1 0x1 PUSH1 0x1 PUSH1 0xF8 SHL SUB NOT AND SWAP1 DUP2 PUSH1 0x0 BYTE SWAP1 MSTORE8 POP PUSH1 0x0 PUSH2 0x4A0D DUP5 PUSH1 0x2 PUSH2 0x545D JUMP JUMPDEST PUSH2 0x4A18 SWAP1 PUSH1 0x1 PUSH2 0x5418 JUMP JUMPDEST SWAP1 POP JUMPDEST PUSH1 0x1 DUP2 GT ISZERO PUSH2 0x4A90 JUMPI PUSH16 0x181899199A1A9B1B9C1CB0B131B232B3 PUSH1 0x81 SHL DUP6 PUSH1 0xF AND PUSH1 0x10 DUP2 LT PUSH2 0x4A4C JUMPI PUSH2 0x4A4C PUSH2 0x5389 JUMP JUMPDEST BYTE PUSH1 0xF8 SHL DUP3 DUP3 DUP2 MLOAD DUP2 LT PUSH2 0x4A62 JUMPI PUSH2 0x4A62 PUSH2 0x5389 JUMP JUMPDEST PUSH1 0x20 ADD ADD SWAP1 PUSH1 0x1 PUSH1 0x1 PUSH1 0xF8 SHL SUB NOT AND SWAP1 DUP2 PUSH1 0x0 BYTE SWAP1 MSTORE8 POP PUSH1 0x4 SWAP5 SWAP1 SWAP5 SHR SWAP4 PUSH2 0x4A89 DUP2 PUSH2 0x5521 JUMP JUMPDEST SWAP1 POP PUSH2 0x4A1B JUMP JUMPDEST POP DUP4 ISZERO PUSH2 0x4024 JUMPI PUSH1 0x40 MLOAD PUSH3 0x461BCD PUSH1 0xE5 SHL DUP2 MSTORE PUSH1 0x20 PUSH1 0x4 DUP3 ADD DUP2 SWAP1 MSTORE PUSH1 0x24 DUP3 ADD MSTORE PUSH32 0x537472696E67733A20686578206C656E67746820696E73756666696369656E74 PUSH1 0x44 DUP3 ADD MSTORE PUSH1 0x64 ADD PUSH2 0xC2A JUMP JUMPDEST DUP1 CALLVALUE LT ISZERO PUSH2 0x4B27 JUMPI PUSH1 0x40 MLOAD PUSH3 0x461BCD PUSH1 0xE5 SHL DUP2 MSTORE PUSH1 0x20 PUSH1 0x4 DUP3 ADD MSTORE PUSH1 0x15 PUSH1 0x24 DUP3 ADD MSTORE PUSH21 0x125B9CDD59999A58DA595B9D08115512081CD95B9D PUSH1 0x5A SHL PUSH1 0x44 DUP3 ADD MSTORE PUSH1 0x64 ADD PUSH2 0xC2A JUMP JUMPDEST PUSH1 0x0 DUP7 PUSH1 0x1 PUSH1 0x1 PUSH1 0xA0 SHL SUB AND DUP6 PUSH1 0x40 MLOAD PUSH1 0x0 PUSH1 0x40 MLOAD DUP1 DUP4 SUB DUP2 DUP6 DUP8 GAS CALL SWAP3 POP POP POP RETURNDATASIZE DUP1 PUSH1 0x0 DUP2 EQ PUSH2 0x4B74 JUMPI PUSH1 0x40 MLOAD SWAP2 POP PUSH1 0x1F NOT PUSH1 0x3F RETURNDATASIZE ADD AND DUP3 ADD PUSH1 0x40 MSTORE RETURNDATASIZE DUP3 MSTORE RETURNDATASIZE PUSH1 0x0 PUSH1 0x20 DUP5 ADD RETURNDATACOPY PUSH2 0x4B79 JUMP JUMPDEST PUSH1 0x60 SWAP2 POP JUMPDEST POP POP SWAP1 POP DUP1 PUSH2 0x4BCA JUMPI PUSH1 0x40 MLOAD PUSH3 0x461BCD PUSH1 0xE5 SHL DUP2 MSTORE PUSH1 0x20 PUSH1 0x4 DUP3 ADD MSTORE PUSH1 0x18 PUSH1 0x24 DUP3 ADD MSTORE PUSH32 0x5061796D656E7420746F2073656C6C6572206661696C65640000000000000000 PUSH1 0x44 DUP3 ADD MSTORE PUSH1 0x64 ADD PUSH2 0xC2A JUMP JUMPDEST PUSH1 0x0 DUP7 PUSH1 0x1 PUSH1 0x1 PUSH1 0xA0 SHL SUB AND DUP6 PUSH1 0x40 MLOAD PUSH1 0x0 PUSH1 0x40 MLOAD DUP1 DUP4 SUB DUP2 DUP6 DUP8 GAS CALL SWAP3 POP POP POP RETURNDATASIZE DUP1 PUSH1 0x0 DUP2 EQ PUSH2 0x4C17 JUMPI PUSH1 0x40 MLOAD SWAP2 POP PUSH1 0x1F NOT PUSH1 0x3F RETURNDATASIZE ADD AND DUP3 ADD PUSH1 0x40 MSTORE RETURNDATASIZE DUP3 MSTORE RETURNDATASIZE PUSH1 0x0 PUSH1 0x20 DUP5 ADD RETURNDATACOPY PUSH2 0x4C1C JUMP JUMPDEST PUSH1 0x60 SWAP2 POP JUMPDEST POP POP SWAP1 POP DUP1 PUSH2 0x4C62 JUMPI PUSH1 0x40 MLOAD PUSH3 0x461BCD PUSH1 0xE5 SHL DUP2 MSTORE PUSH1 0x20 PUSH1 0x4 DUP3 ADD MSTORE PUSH1 0x12 PUSH1 0x24 DUP3 ADD MSTORE PUSH18 0x119959481C185E5B595B9D0819985A5B1959 PUSH1 0x72 SHL PUSH1 0x44 DUP3 ADD MSTORE PUSH1 0x64 ADD PUSH2 0xC2A JUMP JUMPDEST PUSH1 0x0 PUSH2 0x4C6E DUP5 CALLVALUE PUSH2 0x5405 JUMP JUMPDEST SWAP1 POP DUP1 ISZERO PUSH2 0x4D10 JUMPI PUSH1 0x0 DUP6 PUSH1 0x1 PUSH1 0x1 PUSH1 0xA0 SHL SUB AND DUP3 PUSH2 0x8FC SWAP1 PUSH1 0x40 MLOAD PUSH1 0x0 PUSH1 0x40 MLOAD DUP1 DUP4 SUB DUP2 DUP6 DUP9 DUP9 CALL SWAP4 POP POP POP POP RETURNDATASIZE DUP1 PUSH1 0x0 DUP2 EQ PUSH2 0x4CC8 JUMPI PUSH1 0x40 MLOAD SWAP2 POP PUSH1 0x1F NOT PUSH1 0x3F RETURNDATASIZE ADD AND DUP3 ADD PUSH1 0x40 MSTORE RETURNDATASIZE DUP3 MSTORE RETURNDATASIZE PUSH1 0x0 PUSH1 0x20 DUP5 ADD RETURNDATACOPY PUSH2 0x4CCD JUMP JUMPDEST PUSH1 0x60 SWAP2 POP JUMPDEST POP POP SWAP1 POP DUP1 PUSH2 0x4D0E JUMPI PUSH1 0x40 MLOAD PUSH3 0x461BCD PUSH1 0xE5 SHL DUP2 MSTORE PUSH1 0x20 PUSH1 0x4 DUP3 ADD MSTORE PUSH1 0xD PUSH1 0x24 DUP3 ADD MSTORE PUSH13 0x1499599D5B990819985A5B1959 PUSH1 0x9A SHL PUSH1 0x44 DUP3 ADD MSTORE PUSH1 0x64 ADD PUSH2 0xC2A JUMP JUMPDEST POP JUMPDEST POP POP POP POP POP POP POP POP POP JUMP JUMPDEST PUSH1 0x40 MLOAD PUSH4 0x23B872DD PUSH1 0xE0 SHL DUP2 MSTORE PUSH1 0x1 PUSH1 0x1 PUSH1 0xA0 SHL SUB DUP7 DUP2 AND PUSH1 0x4 DUP4 ADD MSTORE DUP6 DUP2 AND PUSH1 0x24 DUP4 ADD MSTORE PUSH1 0x44 DUP3 ADD DUP5 SWAP1 MSTORE DUP8 SWAP2 SWAP1 DUP3 AND SWAP1 PUSH4 0x23B872DD SWAP1 PUSH1 0x64 ADD PUSH1 0x20 PUSH1 0x40 MLOAD DUP1 DUP4 SUB DUP2 PUSH1 0x0 DUP8 GAS CALL ISZERO DUP1 ISZERO PUSH2 0x4D75 JUMPI RETURNDATASIZE PUSH1 0x0 DUP1 RETURNDATACOPY RETURNDATASIZE PUSH1 0x0 REVERT JUMPDEST POP POP POP POP PUSH1 0x40 MLOAD RETURNDATASIZE PUSH1 0x1F NOT PUSH1 0x1F DUP3 ADD AND DUP3 ADD DUP1 PUSH1 0x40 MSTORE POP DUP2 ADD SWAP1 PUSH2 0x4D99 SWAP2 SWAP1 PUSH2 0x53D2 JUMP JUMPDEST PUSH2 0x4DE5 JUMPI PUSH1 0x40 MLOAD PUSH3 0x461BCD PUSH1 0xE5 SHL DUP2 MSTORE PUSH1 0x20 PUSH1 0x4 DUP3 ADD MSTORE PUSH1 0x19 PUSH1 0x24 DUP3 ADD MSTORE PUSH32 0x5472616E7366657220746F2073656C6C6572206661696C656400000000000000 PUSH1 0x44 DUP3 ADD MSTORE PUSH1 0x64 ADD PUSH2 0xC2A JUMP JUMPDEST PUSH1 0x40 MLOAD PUSH4 0x23B872DD PUSH1 0xE0 SHL DUP2 MSTORE PUSH1 0x1 PUSH1 0x1 PUSH1 0xA0 SHL SUB DUP8 DUP2 AND PUSH1 0x4 DUP4 ADD MSTORE DUP6 DUP2 AND PUSH1 0x24 DUP4 ADD MSTORE PUSH1 0x44 DUP3 ADD DUP5 SWAP1 MSTORE DUP3 AND SWAP1 PUSH4 0x23B872DD SWAP1 PUSH1 0x64 ADD PUSH1 0x20 PUSH1 0x40 MLOAD DUP1 DUP4 SUB DUP2 PUSH1 0x0 DUP8 GAS CALL ISZERO DUP1 ISZERO PUSH2 0x4E3C JUMPI RETURNDATASIZE PUSH1 0x0 DUP1 RETURNDATACOPY RETURNDATASIZE PUSH1 0x0 REVERT JUMPDEST POP POP POP POP PUSH1 0x40 MLOAD RETURNDATASIZE PUSH1 0x1F NOT PUSH1 0x1F DUP3 ADD AND DUP3 ADD DUP1 PUSH1 0x40 MSTORE POP DUP2 ADD SWAP1 PUSH2 0x4E60 SWAP2 SWAP1 PUSH2 0x53D2 JUMP JUMPDEST PUSH2 0x4EA2 JUMPI PUSH1 0x40 MLOAD PUSH3 0x461BCD PUSH1 0xE5 SHL DUP2 MSTORE PUSH1 0x20 PUSH1 0x4 DUP3 ADD MSTORE PUSH1 0x13 PUSH1 0x24 DUP3 ADD MSTORE PUSH19 0x119959481D1C985B9CD9995C8819985A5B1959 PUSH1 0x6A SHL PUSH1 0x44 DUP3 ADD MSTORE PUSH1 0x64 ADD PUSH2 0xC2A JUMP JUMPDEST POP POP POP POP POP POP POP JUMP JUMPDEST PUSH1 0x40 MLOAD DUP1 PUSH1 0xC0 ADD PUSH1 0x40 MSTORE DUP1 PUSH1 0x0 DUP2 MSTORE PUSH1 0x20 ADD PUSH1 0x0 PUSH1 0x1 PUSH1 0x1 PUSH1 0xA0 SHL SUB AND DUP2 MSTORE PUSH1 0x20 ADD PUSH1 0x0 DUP2 MSTORE PUSH1 0x20 ADD PUSH1 0x0 PUSH1 0x1 PUSH1 0x1 PUSH1 0xA0 SHL SUB AND DUP2 MSTORE PUSH1 0x20 ADD PUSH1 0x0 DUP2 MSTORE PUSH1 0x20 ADD PUSH1 0x0 ISZERO ISZERO DUP2 MSTORE POP SWAP1 JUMP JUMPDEST PUSH1 0x0 PUSH1 0x20 DUP3 DUP5 SUB SLT ISZERO PUSH2 0x4F07 JUMPI PUSH1 0x0 DUP1 REVERT JUMPDEST DUP2 CALLDATALOAD PUSH1 0x1 PUSH1 0x1 PUSH1 0xE0 SHL SUB NOT DUP2 AND DUP2 EQ PUSH2 0x4024 JUMPI PUSH1 0x0 DUP1 REVERT JUMPDEST DUP1 ISZERO ISZERO DUP2 EQ PUSH2 0x1B71 JUMPI PUSH1 0x0 DUP1 REVERT JUMPDEST PUSH1 0x0 PUSH1 0x20 DUP3 DUP5 SUB SLT ISZERO PUSH2 0x4F3F JUMPI PUSH1 0x0 DUP1 REVERT JUMPDEST DUP2 CALLDATALOAD PUSH2 0x4024 DUP2 PUSH2 0x4F1F JUMP JUMPDEST PUSH1 0x0 PUSH1 0x20 DUP3 DUP5 SUB SLT ISZERO PUSH2 0x4F5C JUMPI PUSH1 0x0 DUP1 REVERT JUMPDEST POP CALLDATALOAD SWAP2 SWAP1 POP JUMP JUMPDEST DUP1 MLOAD DUP3 MSTORE PUSH1 0x20 DUP2 ADD MLOAD PUSH1 0x1 DUP1 PUSH1 0xA0 SHL SUB DUP1 DUP3 AND PUSH1 0x20 DUP6 ADD MSTORE PUSH1 0x40 DUP4 ADD MLOAD PUSH1 0x40 DUP6 ADD MSTORE DUP1 PUSH1 0x60 DUP5 ADD MLOAD AND PUSH1 0x60 DUP6 ADD MSTORE POP POP PUSH1 0x80 DUP2 ADD MLOAD PUSH1 0x80 DUP4 ADD MSTORE PUSH1 0xA0 DUP2 ADD MLOAD ISZERO ISZERO PUSH1 0xA0 DUP4 ADD MSTORE POP POP JUMP JUMPDEST PUSH1 0x0 DUP2 MLOAD DUP1 DUP5 MSTORE PUSH1 0x20 DUP1 DUP6 ADD SWAP5 POP DUP1 DUP5 ADD PUSH1 0x0 JUMPDEST DUP4 DUP2 LT ISZERO PUSH2 0x4FE7 JUMPI PUSH2 0x4FD4 DUP8 DUP4 MLOAD PUSH2 0x4F63 JUMP JUMPDEST PUSH1 0xC0 SWAP7 SWAP1 SWAP7 ADD SWAP6 SWAP1 DUP3 ADD SWAP1 PUSH1 0x1 ADD PUSH2 0x4FC1 JUMP JUMPDEST POP SWAP5 SWAP6 SWAP5 POP POP POP POP POP JUMP JUMPDEST PUSH1 0x20 DUP2 MSTORE PUSH1 0x0 PUSH2 0x4024 PUSH1 0x20 DUP4 ADD DUP5 PUSH2 0x4FAD JUMP JUMPDEST PUSH1 0x1 PUSH1 0x1 PUSH1 0xA0 SHL SUB DUP2 AND DUP2 EQ PUSH2 0x1B71 JUMPI PUSH1 0x0 DUP1 REVERT JUMPDEST PUSH1 0x0 DUP1 PUSH1 0x0 PUSH1 0x60 DUP5 DUP7 SUB SLT ISZERO PUSH2 0x502F JUMPI PUSH1 0x0 DUP1 REVERT JUMPDEST DUP4 CALLDATALOAD SWAP3 POP PUSH1 0x20 DUP5 ADD CALLDATALOAD SWAP2 POP PUSH1 0x40 DUP5 ADD CALLDATALOAD PUSH2 0x5048 DUP2 PUSH2 0x5005 JUMP JUMPDEST DUP1 SWAP2 POP POP SWAP3 POP SWAP3 POP SWAP3 JUMP JUMPDEST PUSH1 0x0 DUP1 PUSH1 0x40 DUP4 DUP6 SUB SLT ISZERO PUSH2 0x5066 JUMPI PUSH1 0x0 DUP1 REVERT JUMPDEST DUP3 CALLDATALOAD SWAP2 POP PUSH1 0x20 DUP4 ADD CALLDATALOAD PUSH2 0x5078 DUP2 PUSH2 0x5005 JUMP JUMPDEST DUP1 SWAP2 POP POP SWAP3 POP SWAP3 SWAP1 POP JUMP JUMPDEST PUSH1 0x0 PUSH1 0x20 DUP3 DUP5 SUB SLT ISZERO PUSH2 0x5095 JUMPI PUSH1 0x0 DUP1 REVERT JUMPDEST DUP2 CALLDATALOAD PUSH2 0x4024 DUP2 PUSH2 0x5005 JUMP JUMPDEST PUSH1 0x0 DUP1 PUSH1 0x0 PUSH1 0x60 DUP5 DUP7 SUB SLT ISZERO PUSH2 0x50B5 JUMPI PUSH1 0x0 DUP1 REVERT JUMPDEST POP POP DUP2 CALLDATALOAD SWAP4 PUSH1 0x20 DUP4 ADD CALLDATALOAD SWAP4 POP PUSH1 0x40 SWAP1 SWAP3 ADD CALLDATALOAD SWAP2 SWAP1 POP JUMP JUMPDEST PUSH1 0x0 DUP1 PUSH1 0x40 DUP4 DUP6 SUB SLT ISZERO PUSH2 0x50DF JUMPI PUSH1 0x0 DUP1 REVERT JUMPDEST POP POP DUP1 CALLDATALOAD SWAP3 PUSH1 0x20 SWAP1 SWAP2 ADD CALLDATALOAD SWAP2 POP JUMP JUMPDEST PUSH1 0x0 DUP1 PUSH1 0x0 PUSH1 0x40 DUP5 DUP7 SUB SLT ISZERO PUSH2 0x5103 JUMPI PUSH1 0x0 DUP1 REVERT JUMPDEST DUP4 CALLDATALOAD PUSH8 0xFFFFFFFFFFFFFFFF DUP1 DUP3 GT ISZERO PUSH2 0x511B JUMPI PUSH1 0x0 DUP1 REVERT JUMPDEST DUP2 DUP7 ADD SWAP2 POP DUP7 PUSH1 0x1F DUP4 ADD SLT PUSH2 0x512F JUMPI PUSH1 0x0 DUP1 REVERT JUMPDEST DUP2 CALLDATALOAD DUP2 DUP2 GT ISZERO PUSH2 0x513E JUMPI PUSH1 0x0 DUP1 REVERT JUMPDEST DUP8 PUSH1 0x20 DUP3 PUSH1 0x5 SHL DUP6 ADD ADD GT ISZERO PUSH2 0x5153 JUMPI PUSH1 0x0 DUP1 REVERT JUMPDEST PUSH1 0x20 SWAP3 DUP4 ADD SWAP6 POP SWAP4 POP POP DUP5 ADD CALLDATALOAD PUSH2 0x5048 DUP2 PUSH2 0x4F1F JUMP JUMPDEST PUSH1 0x0 DUP1 PUSH1 0x40 DUP4 DUP6 SUB SLT ISZERO PUSH2 0x517C JUMPI PUSH1 0x0 DUP1 REVERT JUMPDEST DUP3 CALLDATALOAD PUSH2 0x5187 DUP2 PUSH2 0x5005 JUMP JUMPDEST SWAP5 PUSH1 0x20 SWAP4 SWAP1 SWAP4 ADD CALLDATALOAD SWAP4 POP POP POP JUMP JUMPDEST PUSH1 0xC0 DUP2 ADD PUSH2 0xBC3 DUP3 DUP5 PUSH2 0x4F63 JUMP JUMPDEST PUSH1 0x0 DUP1 PUSH1 0x0 PUSH1 0x60 DUP5 DUP7 SUB SLT ISZERO PUSH2 0x51B8 JUMPI PUSH1 0x0 DUP1 REVERT JUMPDEST DUP4 CALLDATALOAD PUSH2 0x51C3 DUP2 PUSH2 0x5005 JUMP JUMPDEST SWAP3 POP PUSH1 0x20 DUP5 ADD CALLDATALOAD SWAP2 POP PUSH1 0x40 DUP5 ADD CALLDATALOAD PUSH2 0x5048 DUP2 PUSH2 0x4F1F JUMP JUMPDEST PUSH1 0x40 DUP2 MSTORE PUSH1 0x0 PUSH2 0x51ED PUSH1 0x40 DUP4 ADD DUP6 PUSH2 0x4FAD JUMP JUMPDEST SWAP1 POP DUP3 PUSH1 0x20 DUP4 ADD MSTORE SWAP4 SWAP3 POP POP POP JUMP JUMPDEST PUSH1 0x0 DUP1 PUSH1 0x40 DUP4 DUP6 SUB SLT ISZERO PUSH2 0x520F JUMPI PUSH1 0x0 DUP1 REVERT JUMPDEST DUP3 CALLDATALOAD SWAP2 POP PUSH1 0x20 DUP4 ADD CALLDATALOAD PUSH2 0x5078 DUP2 PUSH2 0x4F1F JUMP JUMPDEST PUSH4 0x4E487B71 PUSH1 0xE0 SHL PUSH1 0x0 MSTORE PUSH1 0x21 PUSH1 0x4 MSTORE PUSH1 0x24 PUSH1 0x0 REVERT JUMPDEST PUSH1 0x4 DUP2 LT PUSH2 0x5255 JUMPI PUSH4 0x4E487B71 PUSH1 0xE0 SHL PUSH1 0x0 MSTORE PUSH1 0x21 PUSH1 0x4 MSTORE PUSH1 0x24 PUSH1 0x0 REVERT JUMPDEST SWAP1 MSTORE JUMP JUMPDEST DUP8 DUP2 MSTORE PUSH1 0x1 PUSH1 0x1 PUSH1 0xA0 SHL SUB DUP8 DUP2 AND PUSH1 0x20 DUP4 ADD MSTORE PUSH1 0x40 DUP3 ADD DUP8 SWAP1 MSTORE DUP6 AND PUSH1 0x60 DUP3 ADD MSTORE PUSH1 0xE0 DUP2 ADD PUSH2 0x528B PUSH1 0x80 DUP4 ADD DUP7 PUSH2 0x5237 JUMP JUMPDEST PUSH1 0xA0 DUP3 ADD SWAP4 SWAP1 SWAP4 MSTORE PUSH1 0xC0 ADD MSTORE SWAP6 SWAP5 POP POP POP POP POP JUMP JUMPDEST PUSH1 0x0 DUP1 PUSH1 0x0 DUP1 PUSH1 0x0 PUSH1 0xA0 DUP7 DUP9 SUB SLT ISZERO PUSH2 0x52B8 JUMPI PUSH1 0x0 DUP1 REVERT JUMPDEST DUP6 CALLDATALOAD SWAP5 POP PUSH1 0x20 DUP7 ADD CALLDATALOAD SWAP4 POP PUSH1 0x40 DUP7 ADD CALLDATALOAD PUSH2 0x52D1 DUP2 PUSH2 0x5005 JUMP JUMPDEST SWAP3 POP PUSH1 0x60 DUP7 ADD CALLDATALOAD SWAP2 POP PUSH1 0x80 DUP7 ADD CALLDATALOAD PUSH2 0x52E8 DUP2 PUSH2 0x5005 JUMP JUMPDEST DUP1 SWAP2 POP POP SWAP3 SWAP6 POP SWAP3 SWAP6 SWAP1 SWAP4 POP JUMP JUMPDEST PUSH1 0x1 PUSH1 0x1 PUSH1 0xA0 SHL SUB DUP7 DUP2 AND DUP3 MSTORE PUSH1 0x20 DUP3 ADD DUP7 SWAP1 MSTORE DUP5 AND PUSH1 0x40 DUP3 ADD MSTORE PUSH1 0xA0 DUP2 ADD PUSH2 0x5322 PUSH1 0x60 DUP4 ADD DUP6 PUSH2 0x5237 JUMP JUMPDEST DUP3 PUSH1 0x80 DUP4 ADD MSTORE SWAP7 SWAP6 POP POP POP POP POP POP JUMP JUMPDEST PUSH1 0x0 JUMPDEST DUP4 DUP2 LT ISZERO PUSH2 0x534D JUMPI DUP2 DUP2 ADD MLOAD DUP4 DUP3 ADD MSTORE PUSH1 0x20 ADD PUSH2 0x5335 JUMP JUMPDEST POP POP PUSH1 0x0 SWAP2 ADD MSTORE JUMP JUMPDEST PUSH1 0x20 DUP2 MSTORE PUSH1 0x0 DUP3 MLOAD DUP1 PUSH1 0x20 DUP5 ADD MSTORE PUSH2 0x5375 DUP2 PUSH1 0x40 DUP6 ADD PUSH1 0x20 DUP8 ADD PUSH2 0x5332 JUMP JUMPDEST PUSH1 0x1F ADD PUSH1 0x1F NOT AND SWAP2 SWAP1 SWAP2 ADD PUSH1 0x40 ADD SWAP3 SWAP2 POP POP JUMP JUMPDEST PUSH4 0x4E487B71 PUSH1 0xE0 SHL PUSH1 0x0 MSTORE PUSH1 0x32 PUSH1 0x4 MSTORE PUSH1 0x24 PUSH1 0x0 REVERT JUMPDEST PUSH4 0x4E487B71 PUSH1 0xE0 SHL PUSH1 0x0 MSTORE PUSH1 0x41 PUSH1 0x4 MSTORE PUSH1 0x24 PUSH1 0x0 REVERT JUMPDEST PUSH1 0x0 PUSH1 0x20 DUP3 DUP5 SUB SLT ISZERO PUSH2 0x53C7 JUMPI PUSH1 0x0 DUP1 REVERT JUMPDEST DUP2 MLOAD PUSH2 0x4024 DUP2 PUSH2 0x5005 JUMP JUMPDEST PUSH1 0x0 PUSH1 0x20 DUP3 DUP5 SUB SLT ISZERO PUSH2 0x53E4 JUMPI PUSH1 0x0 DUP1 REVERT JUMPDEST DUP2 MLOAD PUSH2 0x4024 DUP2 PUSH2 0x4F1F JUMP JUMPDEST PUSH4 0x4E487B71 PUSH1 0xE0 SHL PUSH1 0x0 MSTORE PUSH1 0x11 PUSH1 0x4 MSTORE PUSH1 0x24 PUSH1 0x0 REVERT JUMPDEST DUP2 DUP2 SUB DUP2 DUP2 GT ISZERO PUSH2 0xBC3 JUMPI PUSH2 0xBC3 PUSH2 0x53EF JUMP JUMPDEST DUP1 DUP3 ADD DUP1 DUP3 GT ISZERO PUSH2 0xBC3 JUMPI PUSH2 0xBC3 PUSH2 0x53EF JUMP JUMPDEST PUSH1 0x0 PUSH1 0x20 DUP3 DUP5 SUB SLT ISZERO PUSH2 0x543D JUMPI PUSH1 0x0 DUP1 REVERT JUMPDEST POP MLOAD SWAP2 SWAP1 POP JUMP JUMPDEST PUSH1 0x0 PUSH1 0x1 DUP3 ADD PUSH2 0x5456 JUMPI PUSH2 0x5456 PUSH2 0x53EF JUMP JUMPDEST POP PUSH1 0x1 ADD SWAP1 JUMP JUMPDEST DUP1 DUP3 MUL DUP2 ISZERO DUP3 DUP3 DIV DUP5 EQ OR PUSH2 0xBC3 JUMPI PUSH2 0xBC3 PUSH2 0x53EF JUMP JUMPDEST PUSH1 0x0 DUP3 PUSH2 0x5491 JUMPI PUSH4 0x4E487B71 PUSH1 0xE0 SHL PUSH1 0x0 MSTORE PUSH1 0x12 PUSH1 0x4 MSTORE PUSH1 0x24 PUSH1 0x0 REVERT JUMPDEST POP DIV SWAP1 JUMP JUMPDEST PUSH32 0x416363657373436F6E74726F6C3A206163636F756E7420000000000000000000 DUP2 MSTORE PUSH1 0x0 DUP4 MLOAD PUSH2 0x54CE DUP2 PUSH1 0x17 DUP6 ADD PUSH1 0x20 DUP9 ADD PUSH2 0x5332 JUMP JUMPDEST PUSH17 0x1034B99036B4B9B9B4B733903937B6329 PUSH1 0x7D SHL PUSH1 0x17 SWAP2 DUP5 ADD SWAP2 DUP3 ADD MSTORE DUP4 MLOAD PUSH2 0x54FF DUP2 PUSH1 0x28 DUP5 ADD PUSH1 0x20 DUP9 ADD PUSH2 0x5332 JUMP JUMPDEST ADD PUSH1 0x28 ADD SWAP5 SWAP4 POP POP POP POP JUMP JUMPDEST PUSH4 0x4E487B71 PUSH1 0xE0 SHL PUSH1 0x0 MSTORE PUSH1 0x31 PUSH1 0x4 MSTORE PUSH1 0x24 PUSH1 0x0 REVERT JUMPDEST PUSH1 0x0 DUP2 PUSH2 0x5530 JUMPI PUSH2 0x5530 PUSH2 0x53EF JUMP JUMPDEST POP PUSH1 0x0 NOT ADD SWAP1 JUMP INVALID POP PUSH2 0x796D PUSH6 0x6E7420746F6B PUSH6 0x6E206E6F7420 PUSH2 0x6C6C PUSH16 0x7765640000000000000097667070C54E CALL DUP3 0xB0 CREATE2 DUP6 DUP12 SUB 0x4B 0xEA 0xC1 0xB6 RETURN ADDMOD SWAP11 LOG2 0xD3 XOR DUP12 0xB1 0xE8 SWAP3 SWAP16 0x4F 0xA9 0xB9 0x29 LOG2 PUSH5 0x6970667358 0x22 SLT KECCAK256 0xA5 SWAP12 PUSH22 0xA7E828203B058FFFF92D4116DEA82D73AC4D0E532973 AND ADDRESS 0xD4 0xAF 0xB2 0xD9 SSTORE PUSH5 0x736F6C6343 STOP ADDMOD EQ STOP CALLER "},"methodIdentifiers":{"BASIS_POINTS()":"e1f1c4a7","DEFAULT_ADMIN_ROLE()":"a217fddf","LEGAL_ROLE()":"8e7579a1","MIN_BID_INCREMENT_PERCENT()":"bc996819","OPERATOR_ROLE()":"f5b541a6","PERCENTAGE_BASE()":"87c13943","REWARD_MANAGER()":"5932fdba","acceptBid(uint256,uint256,address,uint256,address)":"e58a7b31","addAllowedToken(address)":"4178617f","allowedPaymentTokens(address)":"697d312a","batchApproveKYC(address[],bool)":"5dda3e01","bidIndexByBidder(address,uint256)":"69fcc649","bidsForToken(uint256,uint256)":"c7921a7c","calculateRewards(address,uint256)":"beb8314c","cancelBid(uint256)":"9703ef35","communityScores(address)":"73c250c6","configureRewards(uint256,uint256,uint256)":"4a277ec5","emergencyPauseFunction(uint256,bool)":"cf23913b","emergencyWithdrawDeposit(uint256)":"7d4e297a","ethBidDeposits(uint256,address)":"ddd1a5bf","feeConfig()":"1e5eb1d0","functionPaused(uint256)":"ee5b8e0e","getActiveBidsForToken(uint256)":"1276291c","getActiveBidsForTokenPaginated(uint256,uint256,uint256)":"b10e26a9","getBidFromBidder(uint256,address)":"79cef8bd","getCurrentFee()":"f70d9362","getListingDetails(uint256)":"fb05da2e","getRoleAdmin(bytes32)":"248a9ca3","globalPause()":"f12d54d8","globalUnpause()":"ce190578","grantRole(bytes32,address)":"2f2ff15d","hasRole(bytes32,address)":"91d14854","isKYCVerified(address)":"54b7636e","isTokenAllowed(address)":"f9eaee0d","listProperty(uint256,uint256,address)":"86aa217e","listings(uint256)":"de74e57b","nftiContract()":"592eb924","nftmContract()":"cbb9c9a4","paused()":"5c975abb","placeBid(uint256,uint256,address)":"ad6561ec","placeBidSecure(uint256,uint256,address)":"e7372209","purchaseProperty(uint256,uint256)":"4f843494","removeAllowedToken(address)":"90469a9d","renounceRole(bytes32,address)":"36568abe","revokeRole(bytes32,address)":"d547741f","rewardParams()":"76346914","setWhitelistEnabled(bool)":"052d9e7e","supportsInterface(bytes4)":"01ffc9a7","updateCommunityScore(address,uint256,bool)":"a33b2d3f","updateFeeConfig(uint256,address)":"88f0bc73","updateListing(uint256,uint256,address)":"887f495a","updateListingBySeller(uint256,uint256,address)":"1fb4d31c","whitelistEnabled()":"51fb012d"}}}}}