{"contracts/market/PropertyMarket.sol":{"PropertyMarket":{"abi":[{"inputs":[{"internalType":"address","name":"_nftiAddress","type":"address"},{"internalType":"address","name":"_nftmAddress","type":"address"},{"internalType":"address","name":"initialAdmin","type":"address"},{"internalType":"address","name":"feeCollector","type":"address"},{"internalType":"address","name":"rewardsVault","type":"address"}],"stateMutability":"nonpayable","type":"constructor"},{"anonymous":false,"inputs":[{"indexed":true,"internalType":"bytes32","name":"role","type":"bytes32"},{"indexed":true,"internalType":"address","name":"account","type":"address"},{"indexed":true,"internalType":"address","name":"sender","type":"address"}],"name":"AdminRoleGranted","type":"event"},{"anonymous":false,"inputs":[{"indexed":true,"internalType":"bytes32","name":"role","type":"bytes32"},{"indexed":true,"internalType":"address","name":"account","type":"address"},{"indexed":true,"internalType":"address","name":"sender","type":"address"}],"name":"AdminRoleRevoked","type":"event"},{"anonymous":false,"inputs":[{"indexed":true,"internalType":"uint256","name":"tokenId","type":"uint256"},{"indexed":true,"internalType":"address","name":"seller","type":"address"},{"indexed":true,"internalType":"address","name":"bidder","type":"address"},{"indexed":false,"internalType":"uint256","name":"amount","type":"uint256"},{"indexed":false,"internalType":"address","name":"paymentToken","type":"address"}],"name":"BidAccepted","type":"event"},{"anonymous":false,"inputs":[{"indexed":true,"internalType":"uint256","name":"tokenId","type":"uint256"},{"indexed":true,"internalType":"address","name":"bidder","type":"address"},{"indexed":false,"internalType":"uint256","name":"amount","type":"uint256"}],"name":"BidCancelled","type":"event"},{"anonymous":false,"inputs":[{"indexed":true,"internalType":"uint256","name":"tokenId","type":"uint256"},{"indexed":true,"internalType":"address","name":"bidder","type":"address"},{"indexed":false,"internalType":"uint256","name":"amount","type":"uint256"},{"indexed":false,"internalType":"address","name":"paymentToken","type":"address"}],"name":"BidPlaced","type":"event"},{"anonymous":false,"inputs":[{"indexed":true,"internalType":"address","name":"user","type":"address"},{"indexed":false,"internalType":"uint256","name":"oldScore","type":"uint256"},{"indexed":false,"internalType":"uint256","name":"newScore","type":"uint256"}],"name":"CommunityScoreUpdated","type":"event"},{"anonymous":false,"inputs":[{"indexed":false,"internalType":"uint256","name":"oldBaseFee","type":"uint256"},{"indexed":false,"internalType":"uint256","name":"newBaseFee","type":"uint256"},{"indexed":false,"internalType":"uint256","name":"oldMaxFee","type":"uint256"},{"indexed":false,"internalType":"uint256","name":"newMaxFee","type":"uint256"},{"indexed":true,"internalType":"address","name":"admin","type":"address"}],"name":"FeeConfigUpdated","type":"event"},{"anonymous":false,"inputs":[{"indexed":true,"internalType":"address","name":"account","type":"address"},{"indexed":false,"internalType":"bool","name":"approved","type":"bool"}],"name":"KYCStatusUpdated","type":"event"},{"anonymous":false,"inputs":[{"indexed":true,"internalType":"uint256","name":"tokenId","type":"uint256"},{"indexed":false,"internalType":"uint256","name":"newPrice","type":"uint256"},{"indexed":false,"internalType":"address","name":"newPaymentToken","type":"address"}],"name":"ListingUpdated","type":"event"},{"anonymous":false,"inputs":[{"indexed":true,"internalType":"uint256","name":"tokenId","type":"uint256"},{"indexed":true,"internalType":"address","name":"seller","type":"address"},{"indexed":false,"internalType":"uint256","name":"price","type":"uint256"},{"indexed":false,"internalType":"address","name":"paymentToken","type":"address"}],"name":"NewListing","type":"event"},{"anonymous":false,"inputs":[{"indexed":false,"internalType":"address","name":"account","type":"address"}],"name":"Paused","type":"event"},{"anonymous":false,"inputs":[{"indexed":true,"internalType":"address","name":"seller","type":"address"},{"indexed":true,"internalType":"address","name":"buyer","type":"address"},{"indexed":false,"internalType":"uint256","name":"amount","type":"uint256"},{"indexed":false,"internalType":"uint256","name":"fees","type":"uint256"},{"indexed":false,"internalType":"address","name":"paymentToken","type":"address"}],"name":"PaymentProcessed","type":"event"},{"anonymous":false,"inputs":[{"indexed":true,"internalType":"address","name":"token","type":"address"},{"indexed":true,"internalType":"address","name":"operator","type":"address"}],"name":"PaymentTokenAdded","type":"event"},{"anonymous":false,"inputs":[{"indexed":true,"internalType":"address","name":"token","type":"address"},{"indexed":true,"internalType":"address","name":"operator","type":"address"}],"name":"PaymentTokenRemoved","type":"event"},{"anonymous":false,"inputs":[{"indexed":true,"internalType":"uint256","name":"tokenId","type":"uint256"},{"indexed":false,"internalType":"address","name":"buyer","type":"address"},{"indexed":false,"internalType":"uint256","name":"price","type":"uint256"},{"indexed":false,"internalType":"address","name":"paymentToken","type":"address"}],"name":"PropertySold","type":"event"},{"anonymous":false,"inputs":[{"indexed":false,"internalType":"uint256","name":"oldBaseRate","type":"uint256"},{"indexed":false,"internalType":"uint256","name":"newBaseRate","type":"uint256"},{"indexed":false,"internalType":"uint256","name":"oldMultiplier","type":"uint256"},{"indexed":false,"internalType":"uint256","name":"newMultiplier","type":"uint256"},{"indexed":true,"internalType":"address","name":"admin","type":"address"}],"name":"RewardParametersUpdated","type":"event"},{"anonymous":false,"inputs":[{"indexed":true,"internalType":"bytes32","name":"role","type":"bytes32"},{"indexed":true,"internalType":"bytes32","name":"previousAdminRole","type":"bytes32"},{"indexed":true,"internalType":"bytes32","name":"newAdminRole","type":"bytes32"}],"name":"RoleAdminChanged","type":"event"},{"anonymous":false,"inputs":[{"indexed":true,"internalType":"bytes32","name":"role","type":"bytes32"},{"indexed":true,"internalType":"address","name":"account","type":"address"},{"indexed":true,"internalType":"address","name":"sender","type":"address"}],"name":"RoleGranted","type":"event"},{"anonymous":false,"inputs":[{"indexed":true,"internalType":"bytes32","name":"role","type":"bytes32"},{"indexed":true,"internalType":"address","name":"account","type":"address"},{"indexed":true,"internalType":"address","name":"sender","type":"address"}],"name":"RoleRevoked","type":"event"},{"anonymous":false,"inputs":[{"indexed":false,"internalType":"address","name":"account","type":"address"}],"name":"Unpaused","type":"event"},{"anonymous":false,"inputs":[{"indexed":false,"internalType":"bool","name":"enabled","type":"bool"},{"indexed":true,"internalType":"address","name":"operator","type":"address"}],"name":"WhitelistStatusChanged","type":"event"},{"inputs":[],"name":"BASIS_POINTS","outputs":[{"internalType":"uint256","name":"","type":"uint256"}],"stateMutability":"view","type":"function"},{"inputs":[],"name":"DEFAULT_ADMIN_ROLE","outputs":[{"internalType":"bytes32","name":"","type":"bytes32"}],"stateMutability":"view","type":"function"},{"inputs":[],"name":"LEGAL_ROLE","outputs":[{"internalType":"bytes32","name":"","type":"bytes32"}],"stateMutability":"view","type":"function"},{"inputs":[],"name":"MIN_BID_INCREMENT_PERCENT","outputs":[{"internalType":"uint256","name":"","type":"uint256"}],"stateMutability":"view","type":"function"},{"inputs":[],"name":"OPERATOR_ROLE","outputs":[{"internalType":"bytes32","name":"","type":"bytes32"}],"stateMutability":"view","type":"function"},{"inputs":[],"name":"PERCENTAGE_BASE","outputs":[{"internalType":"uint256","name":"","type":"uint256"}],"stateMutability":"view","type":"function"},{"inputs":[],"name":"REWARD_MANAGER","outputs":[{"internalType":"bytes32","name":"","type":"bytes32"}],"stateMutability":"view","type":"function"},{"inputs":[{"internalType":"uint256","name":"tokenId","type":"uint256"},{"internalType":"uint256","name":"bidIndex","type":"uint256"},{"internalType":"address","name":"expectedBidder","type":"address"},{"internalType":"uint256","name":"expectedAmount","type":"uint256"},{"internalType":"address","name":"expectedPaymentToken","type":"address"}],"name":"acceptBid","outputs":[],"stateMutability":"nonpayable","type":"function"},{"inputs":[{"internalType":"address","name":"token","type":"address"}],"name":"addAllowedToken","outputs":[],"stateMutability":"nonpayable","type":"function"},{"inputs":[{"internalType":"address","name":"","type":"address"}],"name":"allowedPaymentTokens","outputs":[{"internalType":"bool","name":"","type":"bool"}],"stateMutability":"view","type":"function"},{"inputs":[{"internalType":"address[]","name":"accounts","type":"address[]"},{"internalType":"bool","name":"approved","type":"bool"}],"name":"batchApproveKYC","outputs":[],"stateMutability":"nonpayable","type":"function"},{"inputs":[{"internalType":"address","name":"","type":"address"},{"internalType":"uint256","name":"","type":"uint256"}],"name":"bidIndexByBidder","outputs":[{"internalType":"uint256","name":"","type":"uint256"}],"stateMutability":"view","type":"function"},{"inputs":[{"internalType":"uint256","name":"","type":"uint256"},{"internalType":"uint256","name":"","type":"uint256"}],"name":"bidsForToken","outputs":[{"internalType":"uint256","name":"tokenId","type":"uint256"},{"internalType":"address","name":"bidder","type":"address"},{"internalType":"uint256","name":"amount","type":"uint256"},{"internalType":"address","name":"paymentToken","type":"address"},{"internalType":"uint256","name":"bidTimestamp","type":"uint256"},{"internalType":"bool","name":"isActive","type":"bool"}],"stateMutability":"view","type":"function"},{"inputs":[{"internalType":"address","name":"user","type":"address"},{"internalType":"uint256","name":"baseAmount","type":"uint256"}],"name":"calculateRewards","outputs":[{"internalType":"uint256","name":"","type":"uint256"}],"stateMutability":"view","type":"function"},{"inputs":[{"internalType":"uint256","name":"tokenId","type":"uint256"}],"name":"cancelBid","outputs":[],"stateMutability":"nonpayable","type":"function"},{"inputs":[{"internalType":"address","name":"","type":"address"}],"name":"communityScores","outputs":[{"internalType":"uint256","name":"","type":"uint256"}],"stateMutability":"view","type":"function"},{"inputs":[{"internalType":"uint256","name":"newBaseRate","type":"uint256"},{"internalType":"uint256","name":"newMultiplier","type":"uint256"},{"internalType":"uint256","name":"newLeaseBonus","type":"uint256"}],"name":"configureRewards","outputs":[],"stateMutability":"nonpayable","type":"function"},{"inputs":[{"internalType":"uint256","name":"functionId","type":"uint256"},{"internalType":"bool","name":"paused","type":"bool"}],"name":"emergencyPauseFunction","outputs":[],"stateMutability":"nonpayable","type":"function"},{"inputs":[{"internalType":"uint256","name":"","type":"uint256"},{"internalType":"address","name":"","type":"address"}],"name":"ethBidDeposits","outputs":[{"internalType":"uint256","name":"","type":"uint256"}],"stateMutability":"view","type":"function"},{"inputs":[],"name":"feeConfig","outputs":[{"internalType":"uint256","name":"baseFee","type":"uint256"},{"internalType":"uint256","name":"maxFee","type":"uint256"},{"internalType":"address","name":"feeCollector","type":"address"}],"stateMutability":"view","type":"function"},{"inputs":[{"internalType":"uint256","name":"","type":"uint256"}],"name":"functionPaused","outputs":[{"internalType":"bool","name":"","type":"bool"}],"stateMutability":"view","type":"function"},{"inputs":[{"internalType":"uint256","name":"tokenId","type":"uint256"}],"name":"getActiveBidsForToken","outputs":[{"components":[{"internalType":"uint256","name":"tokenId","type":"uint256"},{"internalType":"address","name":"bidder","type":"address"},{"internalType":"uint256","name":"amount","type":"uint256"},{"internalType":"address","name":"paymentToken","type":"address"},{"internalType":"uint256","name":"bidTimestamp","type":"uint256"},{"internalType":"bool","name":"isActive","type":"bool"}],"internalType":"struct PropertyMarket.Bid[]","name":"activeBids","type":"tuple[]"}],"stateMutability":"view","type":"function"},{"inputs":[{"internalType":"uint256","name":"tokenId","type":"uint256"},{"internalType":"address","name":"bidder","type":"address"}],"name":"getBidFromBidder","outputs":[{"components":[{"internalType":"uint256","name":"tokenId","type":"uint256"},{"internalType":"address","name":"bidder","type":"address"},{"internalType":"uint256","name":"amount","type":"uint256"},{"internalType":"address","name":"paymentToken","type":"address"},{"internalType":"uint256","name":"bidTimestamp","type":"uint256"},{"internalType":"bool","name":"isActive","type":"bool"}],"internalType":"struct PropertyMarket.Bid","name":"","type":"tuple"}],"stateMutability":"view","type":"function"},{"inputs":[],"name":"getCurrentFee","outputs":[{"internalType":"uint256","name":"","type":"uint256"}],"stateMutability":"view","type":"function"},{"inputs":[{"internalType":"uint256","name":"tokenId","type":"uint256"}],"name":"getListingDetails","outputs":[{"internalType":"address","name":"seller","type":"address"},{"internalType":"uint256","name":"price","type":"uint256"},{"internalType":"address","name":"paymentToken","type":"address"},{"internalType":"enum PropertyMarket.PropertyStatus","name":"status","type":"uint8"},{"internalType":"uint256","name":"listTimestamp","type":"uint256"}],"stateMutability":"view","type":"function"},{"inputs":[{"internalType":"bytes32","name":"role","type":"bytes32"}],"name":"getRoleAdmin","outputs":[{"internalType":"bytes32","name":"","type":"bytes32"}],"stateMutability":"view","type":"function"},{"inputs":[],"name":"globalPause","outputs":[],"stateMutability":"nonpayable","type":"function"},{"inputs":[],"name":"globalUnpause","outputs":[],"stateMutability":"nonpayable","type":"function"},{"inputs":[{"internalType":"bytes32","name":"role","type":"bytes32"},{"internalType":"address","name":"account","type":"address"}],"name":"grantRole","outputs":[],"stateMutability":"nonpayable","type":"function"},{"inputs":[{"internalType":"bytes32","name":"role","type":"bytes32"},{"internalType":"address","name":"account","type":"address"}],"name":"hasRole","outputs":[{"internalType":"bool","name":"","type":"bool"}],"stateMutability":"view","type":"function"},{"inputs":[{"internalType":"address","name":"account","type":"address"}],"name":"isKYCVerified","outputs":[{"internalType":"bool","name":"","type":"bool"}],"stateMutability":"view","type":"function"},{"inputs":[{"internalType":"address","name":"token","type":"address"}],"name":"isTokenAllowed","outputs":[{"internalType":"bool","name":"","type":"bool"}],"stateMutability":"view","type":"function"},{"inputs":[{"internalType":"uint256","name":"tokenId","type":"uint256"},{"internalType":"uint256","name":"price","type":"uint256"},{"internalType":"address","name":"paymentToken","type":"address"}],"name":"listProperty","outputs":[],"stateMutability":"nonpayable","type":"function"},{"inputs":[{"internalType":"uint256","name":"","type":"uint256"}],"name":"listings","outputs":[{"internalType":"uint256","name":"tokenId","type":"uint256"},{"internalType":"address","name":"seller","type":"address"},{"internalType":"uint256","name":"price","type":"uint256"},{"internalType":"address","name":"paymentToken","type":"address"},{"internalType":"enum PropertyMarket.PropertyStatus","name":"status","type":"uint8"},{"internalType":"uint256","name":"listTimestamp","type":"uint256"},{"internalType":"uint256","name":"lastRenewed","type":"uint256"}],"stateMutability":"view","type":"function"},{"inputs":[],"name":"nftiContract","outputs":[{"internalType":"contract IERC721","name":"","type":"address"}],"stateMutability":"view","type":"function"},{"inputs":[],"name":"nftmContract","outputs":[{"internalType":"contract IERC721","name":"","type":"address"}],"stateMutability":"view","type":"function"},{"inputs":[],"name":"paused","outputs":[{"internalType":"bool","name":"","type":"bool"}],"stateMutability":"view","type":"function"},{"inputs":[{"internalType":"uint256","name":"tokenId","type":"uint256"},{"internalType":"uint256","name":"bidAmount","type":"uint256"},{"internalType":"address","name":"paymentToken","type":"address"}],"name":"placeBid","outputs":[],"stateMutability":"payable","type":"function"},{"inputs":[{"internalType":"uint256","name":"tokenId","type":"uint256"},{"internalType":"uint256","name":"offerPrice","type":"uint256"}],"name":"purchaseProperty","outputs":[],"stateMutability":"payable","type":"function"},{"inputs":[{"internalType":"address","name":"token","type":"address"}],"name":"removeAllowedToken","outputs":[],"stateMutability":"nonpayable","type":"function"},{"inputs":[{"internalType":"bytes32","name":"role","type":"bytes32"},{"internalType":"address","name":"account","type":"address"}],"name":"renounceRole","outputs":[],"stateMutability":"nonpayable","type":"function"},{"inputs":[{"internalType":"bytes32","name":"role","type":"bytes32"},{"internalType":"address","name":"account","type":"address"}],"name":"revokeRole","outputs":[],"stateMutability":"nonpayable","type":"function"},{"inputs":[],"name":"rewardParams","outputs":[{"internalType":"uint256","name":"baseRate","type":"uint256"},{"internalType":"uint256","name":"communityMultiplier","type":"uint256"},{"internalType":"uint256","name":"maxLeaseBonus","type":"uint256"},{"internalType":"address","name":"rewardsVault","type":"address"}],"stateMutability":"view","type":"function"},{"inputs":[{"internalType":"bool","name":"enabled","type":"bool"}],"name":"setWhitelistEnabled","outputs":[],"stateMutability":"nonpayable","type":"function"},{"inputs":[{"internalType":"bytes4","name":"interfaceId","type":"bytes4"}],"name":"supportsInterface","outputs":[{"internalType":"bool","name":"","type":"bool"}],"stateMutability":"view","type":"function"},{"inputs":[{"internalType":"address","name":"user","type":"address"},{"internalType":"uint256","name":"scoreDelta","type":"uint256"},{"internalType":"bool","name":"isAddition","type":"bool"}],"name":"updateCommunityScore","outputs":[],"stateMutability":"nonpayable","type":"function"},{"inputs":[{"internalType":"uint256","name":"newBaseFee","type":"uint256"},{"internalType":"address","name":"newCollector","type":"address"}],"name":"updateFeeConfig","outputs":[],"stateMutability":"nonpayable","type":"function"},{"inputs":[{"internalType":"uint256","name":"tokenId","type":"uint256"},{"internalType":"uint256","name":"newPrice","type":"uint256"},{"internalType":"address","name":"newPaymentToken","type":"address"}],"name":"updateListing","outputs":[],"stateMutability":"nonpayable","type":"function"},{"inputs":[],"name":"whitelistEnabled","outputs":[{"internalType":"bool","name":"","type":"bool"}],"stateMutability":"view","type":"function"}],"evm":{"bytecode":{"linkReferences":{},"object":"60c0604052600f805460ff191660011790553480156200001e57600080fd5b5060405162004be938038062004be983398101604081905262000041916200037e565b60016000556002805460ff191690558282826001600160a01b038216620000af5760405162461bcd60e51b815260206004820152601d60248201527f496e76616c69642066656520636f6c6c6563746f72206164647265737300000060448201526064015b60405180910390fd5b6001600160a01b038116620001075760405162461bcd60e51b815260206004820152601d60248201527f496e76616c69642072657761726473207661756c7420616464726573730000006044820152606401620000a6565b6001600160a01b0383166200015f5760405162461bcd60e51b815260206004820152601560248201527f496e76616c69642061646d696e206164647265737300000000000000000000006044820152606401620000a6565b6200016a8362000244565b604080516060808201835260c88083526103e860208085018290526001600160a01b039788169486018590526003929092556004819055600580546001600160a01b031990811690951790558451608080820187528282526107d082850181905261012c9783018890529789169190940181905260069190915560079590955560089390935560098054909216909317905560008052600e90527fe710864318d4a32f37d6ce54cb3fadbef648dd12d8dbdf53973564d56b7f881c805460ff19166001179055968116909652505050501660a052620003ee565b62000251600082620002d8565b6200027d7f97667070c54ef182b0f5858b034beac1b6f3089aa2d3188bb1e8929f4fa9b92982620002d8565b620002a97fb9f13ecb5e7f0f859c44b76b3a163e504787b446da95a26bf75e53e1ff4a1e0e82620002d8565b620002d57f6393fa734211156fcc8c7dda6b0650f5c731d4c838c1db43445a149aa2f5b6fe82620002d8565b50565b60008281526001602090815260408083206001600160a01b038516845290915290205460ff166200035d5760008281526001602081815260408084206001600160a01b0386168086529252808420805460ff19169093179092559051339285917f2f8788117e7eff1d82e926ec794901d17c78024a50270940304540a733656f0d9190a45b5050565b80516001600160a01b03811681146200037957600080fd5b919050565b600080600080600060a086880312156200039757600080fd5b620003a28662000361565b9450620003b26020870162000361565b9350620003c26040870162000361565b9250620003d26060870162000361565b9150620003e26080870162000361565b90509295509295909350565b60805160a0516147c06200042960003960006108520152600081816104a10152818161131e0152818161174201526132f401526147c06000f3fe6080604052600436106102ae5760003560e01c806388f0bc7311610175578063ce190578116100dc578063e58a7b3111610095578063f5b541a61161006f578063f5b541a6146109e0578063f70d936214610a02578063f9eaee0d14610a17578063fb05da2e14610a3757600080fd5b8063e58a7b311461097b578063ee5b8e0e1461099b578063f12d54d8146109cb57600080fd5b8063ce19057814610874578063cf23913b14610889578063d547741f146108a9578063ddd1a5bf146108c9578063de74e57b14610901578063e1f1c4a71461067e57600080fd5b8063a33b2d3f1161012e578063a33b2d3f1461077d578063ad6561ec1461079d578063bc996819146107b0578063beb8314c146107c5578063c7921a7c146107e5578063cbb9c9a41461084057600080fd5b806388f0bc73146106b45780638e7579a1146106d457806390469a9d1461070857806391d14854146107285780639703ef3514610748578063a217fddf1461076857600080fd5b8063592eb9241161021957806373c250c6116101d257806373c250c6146105af57806376346914146105dc57806379cef8bd1461063157806386aa217e1461065e57806387c139431461067e578063887f495a1461069457600080fd5b8063592eb9241461048f5780635932fdba146104db5780635c975abb1461050f5780635dda3e0114610527578063697d312a1461054757806369fcc6491461057757600080fd5b806336568abe1161026b57806336568abe146103e25780634178617f146104025780634a277ec5146104225780634f8434941461044257806351fb012d1461045557806354b7636e1461046f57600080fd5b806301ffc9a7146102b3578063052d9e7e146102e85780631276291c1461030a5780631e5eb1d014610337578063248a9ca3146103835780632f2ff15d146103c2575b600080fd5b3480156102bf57600080fd5b506102d36102ce36600461412f565b610aa5565b60405190151581526020015b60405180910390f35b3480156102f457600080fd5b50610308610303366004614167565b610adc565b005b34801561031657600080fd5b5061032a610325366004614184565b610b91565b6040516102df91906141e7565b34801561034357600080fd5b5060035460045460055461035f9291906001600160a01b031683565b6040805193845260208401929092526001600160a01b0316908201526060016102df565b34801561038f57600080fd5b506103b461039e366004614184565b6000908152600160208190526040909120015490565b6040519081526020016102df565b3480156103ce57600080fd5b506103086103dd36600461424a565b610d31565b3480156103ee57600080fd5b506103086103fd36600461424a565b610d94565b34801561040e57600080fd5b5061030861041d36600461427a565b610e12565b34801561042e57600080fd5b5061030861043d366004614297565b610f19565b6103086104503660046142c3565b6110c8565b34801561046157600080fd5b50600f546102d39060ff1681565b34801561047b57600080fd5b506102d361048a36600461427a565b6113df565b34801561049b57600080fd5b506104c37f000000000000000000000000000000000000000000000000000000000000000081565b6040516001600160a01b0390911681526020016102df565b3480156104e757600080fd5b506103b47f6393fa734211156fcc8c7dda6b0650f5c731d4c838c1db43445a149aa2f5b6fe81565b34801561051b57600080fd5b5060025460ff166102d3565b34801561053357600080fd5b506103086105423660046142e5565b6113ec565b34801561055357600080fd5b506102d361056236600461427a565b600e6020526000908152604090205460ff1681565b34801561058357600080fd5b506103b461059236600461436b565b601360209081526000928352604080842090915290825290205481565b3480156105bb57600080fd5b506103b46105ca36600461427a565b600c6020526000908152604090205481565b3480156105e857600080fd5b50600654600754600854600954610608939291906001600160a01b031684565b604080519485526020850193909352918301526001600160a01b031660608201526080016102df565b34801561063d57600080fd5b5061065161064c36600461424a565b6114c7565b6040516102df9190614397565b34801561066a57600080fd5b506103086106793660046143a5565b6115d1565b34801561068a57600080fd5b506103b461271081565b3480156106a057600080fd5b506103086106af3660046143a5565b61199c565b3480156106c057600080fd5b506103086106cf36600461424a565b611b71565b3480156106e057600080fd5b506103b47fb9f13ecb5e7f0f859c44b76b3a163e504787b446da95a26bf75e53e1ff4a1e0e81565b34801561071457600080fd5b5061030861072336600461427a565b611c93565b34801561073457600080fd5b506102d361074336600461424a565b611da3565b34801561075457600080fd5b50610308610763366004614184565b611dce565b34801561077457600080fd5b506103b4600081565b34801561078957600080fd5b506103086107983660046143d3565b61202d565b6103086107ab3660046143a5565b6120e3565b3480156107bc57600080fd5b506103b4600581565b3480156107d157600080fd5b506103b46107e036600461436b565b612957565b3480156107f157600080fd5b506108056108003660046142c3565b6129ae565b604080519687526001600160a01b039586166020880152860193909352921660608401526080830191909152151560a082015260c0016102df565b34801561084c57600080fd5b506104c37f000000000000000000000000000000000000000000000000000000000000000081565b34801561088057600080fd5b50610308612a11565b34801561089557600080fd5b506103086108a436600461440a565b612a24565b3480156108b557600080fd5b506103086108c436600461424a565b612a50565b3480156108d557600080fd5b506103b46108e436600461424a565b601260209081526000928352604080842090915290825290205481565b34801561090d57600080fd5b5061096861091c366004614184565b60106020526000908152604090208054600182015460028301546003840154600485015460059095015493946001600160a01b03938416949293821692600160a01b90920460ff169187565b6040516102df9796959493929190614467565b34801561098757600080fd5b506103086109963660046144ae565b612ab3565b3480156109a757600080fd5b506102d36109b6366004614184565b600d6020526000908152604090205460ff1681565b3480156109d757600080fd5b506103086133c5565b3480156109ec57600080fd5b506103b460008051602061476b83398151915281565b348015610a0e57600080fd5b506003546103b4565b348015610a2357600080fd5b506102d3610a3236600461427a565b6133d8565b348015610a4357600080fd5b50610a94610a52366004614184565b60009081526010602052604090206001810154600282015460038301546004909301546001600160a01b0392831694919392831692600160a01b900460ff1691565b6040516102df959493929190614504565b60006001600160e01b03198216637965db0b60e01b1480610ad657506301ffc9a760e01b6001600160e01b03198316145b92915050565b60008051602061476b833981519152610af58133611da3565b6040518060400160405280601181526020017013dc195c985d1bdc881c995c5d5a5c9959607a1b81525090610b465760405162461bcd60e51b8152600401610b3d9190614564565b60405180910390fd5b50600f805460ff191683151590811790915560405190815233907f49d3b7603127f47657003ec050b7aeb0d61d8261082d7807be013894e89373fd9060200160405180910390a25050565b6000818152601160205260408120805460609290815b81811015610bec57838181548110610bc157610bc1614597565b600091825260209091206005600690920201015460ff1615610be4578260010192505b600101610ba7565b508167ffffffffffffffff811115610c0657610c066145ad565b604051908082528060200260200182016040528015610c3f57816020015b610c2c6140e5565b815260200190600190039081610c245790505b5093506000805b82811015610d2757848181548110610c6057610c60614597565b600091825260209091206005600690920201015460ff1615610d1f57848181548110610c8e57610c8e614597565b60009182526020918290206040805160c08101825260069093029091018054835260018101546001600160a01b0390811694840194909452600281015491830191909152600381015490921660608201526004820154608082015260059091015460ff16151560a08201528651879084908110610d0d57610d0d614597565b60200260200101819052508160010191505b600101610c46565b5050505050919050565b60008281526001602081905260409091200154610d4d8161340c565b610d578383613416565b60405133906001600160a01b0384169085907fb754d28367d5b086c81243c886ead0839c92cb5f281e492d7159800bc57d3c1790600090a4505050565b6001600160a01b0381163314610e045760405162461bcd60e51b815260206004820152602f60248201527f416363657373436f6e74726f6c3a2063616e206f6e6c792072656e6f756e636560448201526e103937b632b9903337b91039b2b63360891b6064820152608401610b3d565b610e0e828261343c565b5050565b60008051602061476b833981519152610e2b8133611da3565b6040518060400160405280601181526020017013dc195c985d1bdc881c995c5d5a5c9959607a1b81525090610e735760405162461bcd60e51b8152600401610b3d9190614564565b506001600160a01b038216610eca5760405162461bcd60e51b815260206004820152601960248201527f45544820697320616c6c6f7765642062792064656661756c74000000000000006044820152606401610b3d565b6001600160a01b0382166000818152600e6020526040808220805460ff19166001179055513392917fb96e353e41685d2c0c71657628655373417f3980dc2e6244ef705db758401d5391a35050565b7f6393fa734211156fcc8c7dda6b0650f5c731d4c838c1db43445a149aa2f5b6fe610f438161340c565b6009546001600160a01b0316610f935760405162461bcd60e51b815260206004820152601560248201527414995dd85c991cc81d985d5b1d081b9bdd081cd95d605a1b6044820152606401610b3d565b6107d0841115610fd65760405162461bcd60e51b815260206004820152600e60248201526d426173652072617465203e32302560901b6044820152606401610b3d565b6107d083111561101a5760405162461bcd60e51b815260206004820152600f60248201526e4d756c7469706c696572203e32302560881b6044820152606401610b3d565b6101f482111561105e5760405162461bcd60e51b815260206004820152600f60248201526e4c6561736520626f6e7573203e352560881b6044820152606401610b3d565b600680546007805492879055859055600884905560408051828152602081018890529081018390526060810186905290919033907fdf3827857cf8ac45829164bd76e2950687437e15ff8543f477ae73691ee013b1906080015b60405180910390a2505050505050565b6110d06134a3565b604051632a5bb1b760e11b815233600482015230906354b7636e90602401602060405180830381865afa15801561110b573d6000803e3d6000fd5b505050506040513d601f19601f8201168201806040525081019061112f91906145c3565b6040518060400160405280600c81526020016b12d650c81c995c5d5a5c995960a21b815250906111725760405162461bcd60e51b8152600401610b3d9190614564565b5080600081116040518060400160405280600e81526020016d125b9d985b1a5908185b5bdd5b9d60921b815250906111bd5760405162461bcd60e51b8152600401610b3d9190614564565b50600083815260106020526040812090600382810154600160a01b900460ff16908111156111ed576111ed61442f565b146040518060400160405280600d81526020016c4e6f7420617661696c61626c6560981b815250906112325760405162461bcd60e51b8152600401610b3d9190614564565b5060028101546003820154611252919085906001600160a01b03166134fc565b6040518060400160405280600e81526020016d14185e5b595b9d0819985a5b195960921b815250906112975760405162461bcd60e51b8152600401610b3d9190614564565b5060038101805460ff60a01b1916600160a11b1790556112b684613543565b6001810154600282015460038301546112df926001600160a01b039081169233929091166136c9565b6001810154604051635c46a7ef60e11b81526001600160a01b0391821660048201523360248201526044810186905260806064820152600060848201527f00000000000000000000000000000000000000000000000000000000000000009091169063b88d4fde9060a401600060405180830381600087803b15801561136457600080fd5b505af1158015611378573d6000803e3d6000fd5b50505050600281015460038201546040805133815260208101939093526001600160a01b039091169082015284907f5be1cef2101afbbf72fccd811a15ccfdedc8c44b5f50934100f262ffcd9a1f069060600160405180910390a25050610e0e6001600055565b6000610ad6600a83613700565b7fb9f13ecb5e7f0f859c44b76b3a163e504787b446da95a26bf75e53e1ff4a1e0e6114168161340c565b8260005b818110156114bf57600086868381811061143657611436614597565b905060200201602081019061144b919061427a565b905084156114645761145e600a82613722565b50611471565b61146f600a82613737565b505b806001600160a01b03167f2df1cad2a2659e001c3804c872f69655356013e35c18c2e77a5d568078ab788f866040516114ae911515815260200190565b60405180910390a25060010161141a565b505050505050565b6114cf6140e5565b6001600160a01b0382166000908152601360209081526040808320868452909152812054908190036115345750506040805160c081018252600080825260208201819052918101829052606081018290526080810182905260a0810191909152610ad6565b600084815260116020526040902061154d6001836145f6565b8154811061155d5761155d614597565b60009182526020918290206040805160c08101825260069093029091018054835260018101546001600160a01b0390811694840194909452600281015491830191909152600381015490921660608201526004820154608082015260059091015460ff16151560a082015291505092915050565b6115d96134a3565b604051632a5bb1b760e11b815233600482015230906354b7636e90602401602060405180830381865afa158015611614573d6000803e3d6000fd5b505050506040513d601f19601f8201168201806040525081019061163891906145c3565b6040518060400160405280600c81526020016b12d650c81c995c5d5a5c995960a21b8152509061167b5760405162461bcd60e51b8152600401610b3d9190614564565b5080611686816133d8565b6040518060400160405280601981526020017814185e5b595b9d081d1bdad95b881b9bdd08185b1b1bddd959603a1b815250906116d65760405162461bcd60e51b8152600401610b3d9190614564565b5082600081116040518060400160405280600e81526020016d125b9d985b1a5908185b5bdd5b9d60921b815250906117215760405162461bcd60e51b8152600401610b3d9190614564565b506040516331a9108f60e11b81526004810186905233906001600160a01b037f00000000000000000000000000000000000000000000000000000000000000001690636352211e90602401602060405180830381865afa158015611789573d6000803e3d6000fd5b505050506040513d601f19601f820116820180604052508101906117ad9190614609565b6001600160a01b0316146040518060400160405280600d81526020016c2737ba1027232a1037bbb732b960991b815250906117fb5760405162461bcd60e51b8152600401610b3d9190614564565b50600080868152601060205260409020600390810154600160a01b900460ff169081111561182b5761182b61442f565b14156040518060400160405280600e81526020016d105b1c9958591e481b1a5cdd195960921b815250906118725760405162461bcd60e51b8152600401610b3d9190614564565b506040805160e0810182528681523360208083019182528284018881526001600160a01b03888116606086019081526000608087018181524260a0890181905260c08901528d82526010909552969096208551815593516001850180549183166001600160a01b031992831617905591516002850155945160038085018054929097169282168317875592519495939493926001600160a81b031990911690911790600160a01b90849081111561192b5761192b61442f565b021790555060a0820151600482015560c090910151600590910155604080518581526001600160a01b0385166020820152339187917f2c6c7576542d9307c65e21c836da28fc580279667ba9e8d5fe56dca491d59803910160405180910390a350506119976001600055565b505050565b60008051602061476b8339815191526119b58133611da3565b6040518060400160405280601181526020017013dc195c985d1bdc881c995c5d5a5c9959607a1b815250906119fd5760405162461bcd60e51b8152600401610b3d9190614564565b50600084815260106020526040812090600382810154600160a01b900460ff1690811115611a2d57611a2d61442f565b14611a6f5760405162461bcd60e51b81526020600482015260126024820152714e6f7420616374697665206c697374696e6760701b6044820152606401610b3d565b60008411611aaf5760405162461bcd60e51b815260206004820152600d60248201526c496e76616c696420707269636560981b6044820152606401610b3d565b611ab8836133d8565b611b005760405162461bcd60e51b815260206004820152601960248201527814185e5b595b9d081d1bdad95b881b9bdd08185b1b1bddd959603a1b6044820152606401610b3d565b600281018490556003810180546001600160a01b0319166001600160a01b03851690811790915542600583015560408051868152602081019290925286917fb82cb8d1ee5aa2af90399f2b0ece446b81a5f1e601da16a2a2b62dfcc8bb4ba391015b60405180910390a25050505050565b60008051602061476b833981519152611b898161340c565b6001600160a01b038216611bdf5760405162461bcd60e51b815260206004820152601d60248201527f496e76616c69642066656520636f6c6c6563746f7220616464726573730000006044820152606401610b3d565b600454831115611c235760405162461bcd60e51b815260206004820152600f60248201526e45786365656473206d61782066656560881b6044820152606401610b3d565b6003805460045491859055600580546001600160a01b0319166001600160a01b03861617905560408051828152602081018790529081018390526060810183905290919033907f7c08ec61bfdc4469c5f8ec2332c513ac1e0980475856efedf21da7493348544790608001611b62565b60008051602061476b833981519152611cac8133611da3565b6040518060400160405280601181526020017013dc195c985d1bdc881c995c5d5a5c9959607a1b81525090611cf45760405162461bcd60e51b8152600401610b3d9190614564565b506001600160a01b038216611d575760405162461bcd60e51b815260206004820152602360248201527f43616e6e6f742072656d6f766520455448206173207061796d656e74206d65746044820152621a1bd960ea1b6064820152608401610b3d565b6001600160a01b0382166000818152600e6020526040808220805460ff19169055513392917ff26a45171a2cee53dc4409f66880ab4bd14f52dc6412965780895ca64abfa92391a35050565b60009182526001602090815260408084206001600160a01b0393909316845291905290205460ff1690565b611dd66134a3565b33600090815260136020908152604080832084845290915290205480611e345760405162461bcd60e51b8152602060048201526013602482015272139bc81858dd1a5d9948189a5908199bdd5b99606a1b6044820152606401610b3d565b6000828152601160205260408120611e4d6001846145f6565b81548110611e5d57611e5d614597565b60009182526020909120600690910201600581015490915060ff16611eb85760405162461bcd60e51b8152602060048201526011602482015270426964206973206e6f742061637469766560781b6044820152606401610b3d565b60018101546001600160a01b03163314611f035760405162461bcd60e51b815260206004820152600c60248201526b139bdd081e5bdd5c88189a5960a21b6044820152606401610b3d565b60058101805460ff1916905533600081815260136020908152604080832087845282528083208390556012825280832093835292905290812080549190558015611fd557604051600090339083908381818185875af1925050503d8060008114611f89576040519150601f19603f3d011682016040523d82523d6000602084013e611f8e565b606091505b5050905080611fd35760405162461bcd60e51b8152602060048201526011602482015270115512081c99599d5b990819985a5b1959607a1b6044820152606401610b3d565b505b336001600160a01b0316847faf2f02012ea1953fe9293dd4a8bb5194c96792324f9385297c991c2cfeade3d9846002015460405161201591815260200190565b60405180910390a350505061202a6001600055565b50565b60008051602061476b8339815191526120458161340c565b6001600160a01b0384166000908152600c60205260408120549083156120765761206f8583614626565b9050612091565b84821161208457600061208e565b61208e85836145f6565b90505b6001600160a01b0386166000818152600c602090815260409182902084905581518581529081018490527f7681c9bc4703daadfdfbfae0bd1c828b4619e58101f0e8a5404f70e93c62866391016110b8565b6120eb6134a3565b604051632a5bb1b760e11b815233600482015230906354b7636e90602401602060405180830381865afa158015612126573d6000803e3d6000fd5b505050506040513d601f19601f8201168201806040525081019061214a91906145c3565b6040518060400160405280600c81526020016b12d650c81c995c5d5a5c995960a21b8152509061218d5760405162461bcd60e51b8152600401610b3d9190614564565b5080612198816133d8565b6040518060400160405280601981526020017814185e5b595b9d081d1bdad95b881b9bdd08185b1b1bddd959603a1b815250906121e85760405162461bcd60e51b8152600401610b3d9190614564565b5082600081116040518060400160405280600e81526020016d125b9d985b1a5908185b5bdd5b9d60921b815250906122335760405162461bcd60e51b8152600401610b3d9190614564565b50600085815260106020526040812090600382810154600160a01b900460ff16908111156122635761226361442f565b1460405180604001604052806013815260200172141c9bdc195c9d1e481b9bdd081b1a5cdd1959606a1b815250906122ae5760405162461bcd60e51b8152600401610b3d9190614564565b50600181015460408051808201909152601e81527f43616e6e6f7420626964206f6e20796f7572206f776e206c697374696e6700006020820152906001600160a01b031633036123115760405162461bcd60e51b8152600401610b3d9190614564565b503360009081526013602090815260408083208984529091529020546001600160a01b0385166123b4578534146123805760405162461bcd60e51b815260206004820152601360248201527208aa89040c2dadeeadce840dad2e6dac2e8c6d606b1b6044820152606401610b3d565b6000878152601260209081526040808320338452909152812080543492906123a9908490614626565b9091555061247c9050565b604051636eb1769f60e11b815233600482015230602482015285906000906001600160a01b0383169063dd62ed3e90604401602060405180830381865afa158015612403573d6000803e3d6000fd5b505050506040513d601f19601f820116820180604052508101906124279190614639565b9050878110156124795760405162461bcd60e51b815260206004820152601c60248201527f496e73756666696369656e7420746f6b656e20616c6c6f77616e6365000000006044820152606401610b3d565b50505b81600201548610156124d05760405162461bcd60e51b815260206004820152601b60248201527f426964206d757374206d656574206c697374696e6720707269636500000000006044820152606401610b3d565b6000878152601160205260408120815b815481101561257e578181815481106124fb576124fb614597565b600091825260209091206005600690920201015460ff16801561254057508282828154811061252c5761252c614597565b906000526020600020906006020160020154115b1561256c5781818154811061255757612557614597565b90600052602060002090600602016002015492505b8061257681614652565b9150506124e0565b50811561260f5760006064612594600582614626565b61259e908561466b565b6125a89190614682565b90508089101561260d5760405162461bcd60e51b815260206004820152602a60248201527f426964206d75737420626520352520686967686572207468616e2063757272656044820152691b9d081a1a59da195cdd60b21b6064820152608401610b3d565b505b821561279257600089815260116020526040812061262e6001866145f6565b8154811061263e5761263e614597565b60009182526020909120600690910201600581015490915060ff166126995760405162461bcd60e51b8152602060048201526011602482015270426964206973206e6f742061637469766560781b6044820152606401610b3d565b60038101546001600160a01b038981169116146126f85760405162461bcd60e51b815260206004820152601b60248201527f43616e6e6f74206368616e6765207061796d656e7420746f6b656e00000000006044820152606401610b3d565b60006064612707600582614626565b8360020154612716919061466b565b6127209190614682565b9050808a101561277e5760405162461bcd60e51b815260206004820152602360248201527f426964206d75737420626520352520686967686572207468616e2070726576696044820152626f757360e81b6064820152608401610b3d565b506002810189905542600490910155612902565b60006040518060c001604052808b8152602001336001600160a01b031681526020018a8152602001896001600160a01b03168152602001428152602001600115158152509050601160008b81526020019081526020016000208190806001815401808255809150506001900390600052602060002090600602016000909190919091506000820151816000015560208201518160010160006101000a8154816001600160a01b0302191690836001600160a01b031602179055506040820151816002015560608201518160030160006101000a8154816001600160a01b0302191690836001600160a01b031602179055506080820151816004015560a08201518160050160006101000a81548160ff0219169083151502179055505050601160008b81526020019081526020016000208054905060136000336001600160a01b03166001600160a01b0316815260200190815260200160002060008c815260200190815260200160002081905550505b604080518981526001600160a01b038916602082015233918b917fe30abccebb20a387be8e75e927d7e06ce1bf9d77bb3888516663bdc8995fb334910160405180910390a35050505050506119976001600055565b60008061296360085490565b905060006129708561374c565b905061271081836006600001546129879190614626565b6129919190614626565b61299b908661466b565b6129a59190614682565b95945050505050565b601160205281600052604060002081815481106129ca57600080fd5b60009182526020909120600690910201805460018201546002830154600384015460048501546005909501549396506001600160a01b039283169550909391169160ff1686565b6000612a1c8161340c565b61202a61377e565b6000612a2f8161340c565b506000918252600d6020526040909120805460ff1916911515919091179055565b60008281526001602081905260409091200154612a6c8161340c565b612a7683836137d0565b60405133906001600160a01b0384169085907f77a3124d5a7fb118ef3bd073fd7ee2c762b24256db96ace524ecd6b6cf11415c90600090a4505050565b612abb6134a3565b600085815260106020526040812090600382810154600160a01b900460ff1690811115612aea57612aea61442f565b14612b2d5760405162461bcd60e51b8152602060048201526013602482015272141c9bdc195c9d1e481b9bdd081b1a5cdd1959606a1b6044820152606401610b3d565b600181015460408051808201909152600e81526d2737ba103a34329039b2b63632b960911b6020820152906001600160a01b03163314612b805760405162461bcd60e51b8152600401610b3d9190614564565b50604080518082019091526011815270092dcecc2d8d2c840c4d2c840d2dcc8caf607b1b602082015285612bc75760405162461bcd60e51b8152600401610b3d9190614564565b5060008681526011602081815260409283902054835180850190945291835270092dcecc2d8d2c840c4d2c840d2dcc8caf607b1b90830152861115612c1f5760405162461bcd60e51b8152600401610b3d9190614564565b506000868152601160205260408120612c396001886145f6565b81548110612c4957612c49614597565b906000526020600020906006020190508060050160009054906101000a900460ff1660405180604001604052806011815260200170426964206973206e6f742061637469766560781b81525090612cb35760405162461bcd60e51b8152600401610b3d9190614564565b50600181015460408051808201909152600f81526e084d2c8c8cae440dad2e6dac2e8c6d608b1b6020820152906001600160a01b03878116911614612d0b5760405162461bcd60e51b8152600401610b3d9190614564565b50838160020154146040518060400160405280600f81526020016e082dadeeadce840dad2e6dac2e8c6d608b1b81525090612d595760405162461bcd60e51b8152600401610b3d9190614564565b5060038101546040805180820190915260168152750a0c2f2dacadce840e8ded6cadc40dad2e6dac2e8c6d60531b6020820152906001600160a01b03858116911614612db85760405162461bcd60e51b8152600401610b3d9190614564565b5060038201805460ff60a01b1916600160a11b17905560058101805460ff191690556001810180546001600160a01b0390811660009081526013602090815260408083208c8452825280832083905560128252808320945490931682529290925281208054919055612e2988613543565b60038201546001600160a01b03166130d0578160020154811015612e8f5760405162461bcd60e51b815260206004820152601860248201527f496e73756666696369656e7420455448206465706f73697400000000000000006044820152606401610b3d565b60035460055460028401546001600160a01b039091169060009061271090612eb890859061466b565b612ec29190614682565b90506000818660020154612ed691906145f6565b60018801546040519192506000916001600160a01b039091169083908381818185875af1925050503d8060008114612f2a576040519150601f19603f3d011682016040523d82523d6000602084013e612f2f565b606091505b5050905080612f7b5760405162461bcd60e51b815260206004820152601860248201527714185e5b595b9d081d1bc81cd95b1b195c8819985a5b195960421b6044820152606401610b3d565b6000846001600160a01b03168460405160006040518083038185875af1925050503d8060008114612fc8576040519150601f19603f3d011682016040523d82523d6000602084013e612fcd565b606091505b50509050806130135760405162461bcd60e51b8152602060048201526012602482015271119959481c185e5b595b9d0819985a5b195960721b6044820152606401610b3d565b600088600201548861302591906145f6565b905080156130c45760018901546040516000916001600160a01b03169083908381818185875af1925050503d806000811461307c576040519150601f19603f3d011682016040523d82523d6000602084013e613081565b606091505b50509050806130c25760405162461bcd60e51b815260206004820152600d60248201526c1499599d5b990819985a5b1959609a1b6044820152606401610b3d565b505b505050505050506132ae565b600382810154905460055460028501546001600160a01b0393841693909116906000906127109061310290859061466b565b61310c9190614682565b9050600081876002015461312091906145f6565b600180890154908a01546040516323b872dd60e01b81529293506001600160a01b03808916936323b872dd936131609390831692169086906004016146a4565b6020604051808303816000875af115801561317f573d6000803e3d6000fd5b505050506040513d601f19601f820116820180604052508101906131a391906145c3565b6131eb5760405162461bcd60e51b8152602060048201526019602482015278151c985b9cd9995c881d1bc81cd95b1b195c8819985a5b1959603a1b6044820152606401610b3d565b60018701546040516323b872dd60e01b81526001600160a01b03878116926323b872dd926132239290911690879087906004016146a4565b6020604051808303816000875af1158015613242573d6000803e3d6000fd5b505050506040513d601f19601f8201168201806040525081019061326691906145c3565b6132a85760405162461bcd60e51b8152602060048201526013602482015272119959481d1c985b9cd9995c8819985a5b1959606a1b6044820152606401610b3d565b50505050505b60018381015490830154604051635c46a7ef60e11b81526001600160a01b0392831660048201529082166024820152604481018a905260806064820152600060848201527f00000000000000000000000000000000000000000000000000000000000000009091169063b88d4fde9060a401600060405180830381600087803b15801561333a57600080fd5b505af115801561334e573d6000803e3d6000fd5b505050506001828101549084015460028401546003850154604080519283526001600160a01b039182166020840152938116939216918b917ffd9d7289c0b47546fff41663663c2372aa45809b7ab87d908e443a3821cb5b4e910160405180910390a45050506133be6001600055565b5050505050565b60006133d08161340c565b61202a6137f6565b600f5460009060ff166133ed57506001919050565b506001600160a01b03166000908152600e602052604090205460ff1690565b61202a8133613833565b600082815260016020819052604090912001546134328161340c565b611997838361388c565b6134468282611da3565b15610e0e5760008281526001602090815260408083206001600160a01b0385168085529252808320805460ff1916905551339285917ff6391f5c32d9c69d2a47ea670b442974b53935d1edc7fd64eb21e047a839171b9190a45050565b6002600054036134f55760405162461bcd60e51b815260206004820152601f60248201527f5265656e7472616e637947756172643a207265656e7472616e742063616c6c006044820152606401610b3d565b6002600055565b6000613507826133d8565b6135135750600061353c565b6001600160a01b0382166135375783341015801561353057508383145b905061353c565b508183145b9392505050565b6000818152601160205260408120905b81548110156119975781818154811061356e5761356e614597565b600091825260209091206005600690920201015460ff16156136b757600082828154811061359e5761359e614597565b906000526020600020906006020160050160006101000a81548160ff0219169083151502179055506000601360008484815481106135de576135de614597565b60009182526020808320600160069093020191909101546001600160a01b031683528281019390935260409182018120878252909252902055815482908290811061362b5761362b614597565b906000526020600020906006020160010160009054906101000a90046001600160a01b03166001600160a01b0316837faf2f02012ea1953fe9293dd4a8bb5194c96792324f9385297c991c2cfeade3d984848154811061368d5761368d614597565b9060005260206000209060060201600201546040516136ae91815260200190565b60405180910390a35b806136c181614652565b915050613553565b6040805160608101825260035481526005546001600160a01b03166020820152612710918101919091526133be81868686866138f7565b6001600160a01b0381166000908152600183016020526040812054151561353c565b600061353c836001600160a01b0384166139b7565b600061353c836001600160a01b038416613a06565b6001600160a01b0381166000908152600c60205260408120546007548111613774578061353c565b6007549392505050565b613786613af9565b6002805460ff191690557f5db9ee0a495bf2e6ff9c91a7834c1ba4fdd244a5e8aa4e537bd38aeae4b073aa335b6040516001600160a01b03909116815260200160405180910390a1565b600082815260016020819052604090912001546137ec8161340c565b611997838361343c565b6137fe613b44565b6002805460ff191660011790557f62e78cea01bee320cd4e420270b5ea74000d11b0c9f74754ebdbfc544b05a2586137b33390565b61383d8282611da3565b610e0e5761384a81613b8a565b613855836020613b9c565b6040516020016138669291906146c8565b60408051601f198184030181529082905262461bcd60e51b8252610b3d91600401614564565b6138968282611da3565b610e0e5760008281526001602081815260408084206001600160a01b0386168086529252808420805460ff19169093179092559051339285917f2f8788117e7eff1d82e926ec794901d17c78024a50270940304540a733656f0d9190a45050565b604085015185516000919061390c908561466b565b6139169190614682565b9050600061392482856145f6565b90506001600160a01b03831661394b5761394686886020015183858989613d38565b61395d565b61395d8386888a602001518587613f6a565b60408051858152602081018490526001600160a01b03858116828401529151878316928916917fa496c08b103292578a04c9879f2740638414c311180dffa9d1436d3c97119923919081900360600190a350505050505050565b60008181526001830160205260408120546139fe57508154600181810184556000848152602080822090930184905584548482528286019093526040902091909155610ad6565b506000610ad6565b60008181526001830160205260408120548015613aef576000613a2a6001836145f6565b8554909150600090613a3e906001906145f6565b9050818114613aa3576000866000018281548110613a5e57613a5e614597565b9060005260206000200154905080876000018481548110613a8157613a81614597565b6000918252602080832090910192909255918252600188019052604090208390555b8554869080613ab457613ab461473d565b600190038181906000526020600020016000905590558560010160008681526020019081526020016000206000905560019350505050610ad6565b6000915050610ad6565b60025460ff16613b425760405162461bcd60e51b815260206004820152601460248201527314185d5cd8589b194e881b9bdd081c185d5cd95960621b6044820152606401610b3d565b565b60025460ff1615613b425760405162461bcd60e51b815260206004820152601060248201526f14185d5cd8589b194e881c185d5cd95960821b6044820152606401610b3d565b6060610ad66001600160a01b03831660145b60606000613bab83600261466b565b613bb6906002614626565b67ffffffffffffffff811115613bce57613bce6145ad565b6040519080825280601f01601f191660200182016040528015613bf8576020820181803683370190505b509050600360fc1b81600081518110613c1357613c13614597565b60200101906001600160f81b031916908160001a905350600f60fb1b81600181518110613c4257613c42614597565b60200101906001600160f81b031916908160001a9053506000613c6684600261466b565b613c71906001614626565b90505b6001811115613ce9576f181899199a1a9b1b9c1cb0b131b232b360811b85600f1660108110613ca557613ca5614597565b1a60f81b828281518110613cbb57613cbb614597565b60200101906001600160f81b031916908160001a90535060049490941c93613ce281614753565b9050613c74565b50831561353c5760405162461bcd60e51b815260206004820181905260248201527f537472696e67733a20686578206c656e67746820696e73756666696369656e746044820152606401610b3d565b80341015613d805760405162461bcd60e51b8152602060048201526015602482015274125b9cdd59999a58da595b9d08115512081cd95b9d605a1b6044820152606401610b3d565b6000866001600160a01b03168560405160006040518083038185875af1925050503d8060008114613dcd576040519150601f19603f3d011682016040523d82523d6000602084013e613dd2565b606091505b5050905080613e1e5760405162461bcd60e51b815260206004820152601860248201527714185e5b595b9d081d1bc81cd95b1b195c8819985a5b195960421b6044820152606401610b3d565b6000866001600160a01b03168560405160006040518083038185875af1925050503d8060008114613e6b576040519150601f19603f3d011682016040523d82523d6000602084013e613e70565b606091505b5050905080613eb65760405162461bcd60e51b8152602060048201526012602482015271119959481c185e5b595b9d0819985a5b195960721b6044820152606401610b3d565b6000613ec284346145f6565b90508015613f5f576000856001600160a01b03168260405160006040518083038185875af1925050503d8060008114613f17576040519150601f19603f3d011682016040523d82523d6000602084013e613f1c565b606091505b5050905080613f5d5760405162461bcd60e51b815260206004820152600d60248201526c1499599d5b990819985a5b1959609a1b6044820152606401610b3d565b505b505050505050505050565b6040516323b872dd60e01b815286906001600160a01b038216906323b872dd90613f9c908990899088906004016146a4565b6020604051808303816000875af1158015613fbb573d6000803e3d6000fd5b505050506040513d601f19601f82011682018060405250810190613fdf91906145c3565b6140275760405162461bcd60e51b8152602060048201526019602482015278151c985b9cd9995c881d1bc81cd95b1b195c8819985a5b1959603a1b6044820152606401610b3d565b6040516323b872dd60e01b81526001600160a01b038216906323b872dd90614057908990889087906004016146a4565b6020604051808303816000875af1158015614076573d6000803e3d6000fd5b505050506040513d601f19601f8201168201806040525081019061409a91906145c3565b6140dc5760405162461bcd60e51b8152602060048201526013602482015272119959481d1c985b9cd9995c8819985a5b1959606a1b6044820152606401610b3d565b50505050505050565b6040518060c001604052806000815260200160006001600160a01b031681526020016000815260200160006001600160a01b03168152602001600081526020016000151581525090565b60006020828403121561414157600080fd5b81356001600160e01b03198116811461353c57600080fd5b801515811461202a57600080fd5b60006020828403121561417957600080fd5b813561353c81614159565b60006020828403121561419657600080fd5b5035919050565b80518252602081015160018060a01b0380821660208501526040830151604085015280606084015116606085015250506080810151608083015260a0810151151560a08301525050565b6020808252825182820181905260009190848201906040850190845b818110156142295761421683855161419d565b9284019260c09290920191600101614203565b50909695505050505050565b6001600160a01b038116811461202a57600080fd5b6000806040838503121561425d57600080fd5b82359150602083013561426f81614235565b809150509250929050565b60006020828403121561428c57600080fd5b813561353c81614235565b6000806000606084860312156142ac57600080fd5b505081359360208301359350604090920135919050565b600080604083850312156142d657600080fd5b50508035926020909101359150565b6000806000604084860312156142fa57600080fd5b833567ffffffffffffffff8082111561431257600080fd5b818601915086601f83011261432657600080fd5b81358181111561433557600080fd5b8760208260051b850101111561434a57600080fd5b6020928301955093505084013561436081614159565b809150509250925092565b6000806040838503121561437e57600080fd5b823561438981614235565b946020939093013593505050565b60c08101610ad6828461419d565b6000806000606084860312156143ba57600080fd5b8335925060208401359150604084013561436081614235565b6000806000606084860312156143e857600080fd5b83356143f381614235565b925060208401359150604084013561436081614159565b6000806040838503121561441d57600080fd5b82359150602083013561426f81614159565b634e487b7160e01b600052602160045260246000fd5b6004811061446357634e487b7160e01b600052602160045260246000fd5b9052565b8781526001600160a01b038781166020830152604082018790528516606082015260e081016144996080830186614445565b60a082019390935260c0015295945050505050565b600080600080600060a086880312156144c657600080fd5b853594506020860135935060408601356144df81614235565b92506060860135915060808601356144f681614235565b809150509295509295909350565b6001600160a01b038681168252602082018690528416604082015260a081016145306060830185614445565b8260808301529695505050505050565b60005b8381101561455b578181015183820152602001614543565b50506000910152565b6020815260008251806020840152614583816040850160208701614540565b601f01601f19169190910160400192915050565b634e487b7160e01b600052603260045260246000fd5b634e487b7160e01b600052604160045260246000fd5b6000602082840312156145d557600080fd5b815161353c81614159565b634e487b7160e01b600052601160045260246000fd5b81810381811115610ad657610ad66145e0565b60006020828403121561461b57600080fd5b815161353c81614235565b80820180821115610ad657610ad66145e0565b60006020828403121561464b57600080fd5b5051919050565b600060018201614664576146646145e0565b5060010190565b8082028115828204841417610ad657610ad66145e0565b60008261469f57634e487b7160e01b600052601260045260246000fd5b500490565b6001600160a01b039384168152919092166020820152604081019190915260600190565b7f416363657373436f6e74726f6c3a206163636f756e7420000000000000000000815260008351614700816017850160208801614540565b7001034b99036b4b9b9b4b733903937b6329607d1b6017918401918201528351614731816028840160208801614540565b01602801949350505050565b634e487b7160e01b600052603160045260246000fd5b600081614762576147626145e0565b50600019019056fe97667070c54ef182b0f5858b034beac1b6f3089aa2d3188bb1e8929f4fa9b929a2646970667358221220b00b624274e39a62130088e9511b6e5f4a95ebc569b820fcd2455937aede6b8c64736f6c63430008140033","opcodes":"PUSH1 0xC0 PUSH1 0x40 MSTORE PUSH1 0xF DUP1 SLOAD PUSH1 0xFF NOT AND PUSH1 0x1 OR SWAP1 SSTORE CALLVALUE DUP1 ISZERO PUSH3 0x1E JUMPI PUSH1 0x0 DUP1 REVERT JUMPDEST POP PUSH1 0x40 MLOAD PUSH3 0x4BE9 CODESIZE SUB DUP1 PUSH3 0x4BE9 DUP4 CODECOPY DUP2 ADD PUSH1 0x40 DUP2 SWAP1 MSTORE PUSH3 0x41 SWAP2 PUSH3 0x37E JUMP JUMPDEST PUSH1 0x1 PUSH1 0x0 SSTORE PUSH1 0x2 DUP1 SLOAD PUSH1 0xFF NOT AND SWAP1 SSTORE DUP3 DUP3 DUP3 PUSH1 0x1 PUSH1 0x1 PUSH1 0xA0 SHL SUB DUP3 AND PUSH3 0xAF JUMPI PUSH1 0x40 MLOAD PUSH3 0x461BCD PUSH1 0xE5 SHL DUP2 MSTORE PUSH1 0x20 PUSH1 0x4 DUP3 ADD MSTORE PUSH1 0x1D PUSH1 0x24 DUP3 ADD MSTORE PUSH32 0x496E76616C69642066656520636F6C6C6563746F722061646472657373000000 PUSH1 0x44 DUP3 ADD MSTORE PUSH1 0x64 ADD JUMPDEST PUSH1 0x40 MLOAD DUP1 SWAP2 SUB SWAP1 REVERT JUMPDEST PUSH1 0x1 PUSH1 0x1 PUSH1 0xA0 SHL SUB DUP2 AND PUSH3 0x107 JUMPI PUSH1 0x40 MLOAD PUSH3 0x461BCD PUSH1 0xE5 SHL DUP2 MSTORE PUSH1 0x20 PUSH1 0x4 DUP3 ADD MSTORE PUSH1 0x1D PUSH1 0x24 DUP3 ADD MSTORE PUSH32 0x496E76616C69642072657761726473207661756C742061646472657373000000 PUSH1 0x44 DUP3 ADD MSTORE PUSH1 0x64 ADD PUSH3 0xA6 JUMP JUMPDEST PUSH1 0x1 PUSH1 0x1 PUSH1 0xA0 SHL SUB DUP4 AND PUSH3 0x15F JUMPI PUSH1 0x40 MLOAD PUSH3 0x461BCD PUSH1 0xE5 SHL DUP2 MSTORE PUSH1 0x20 PUSH1 0x4 DUP3 ADD MSTORE PUSH1 0x15 PUSH1 0x24 DUP3 ADD MSTORE PUSH32 0x496E76616C69642061646D696E20616464726573730000000000000000000000 PUSH1 0x44 DUP3 ADD MSTORE PUSH1 0x64 ADD PUSH3 0xA6 JUMP JUMPDEST PUSH3 0x16A DUP4 PUSH3 0x244 JUMP JUMPDEST PUSH1 0x40 DUP1 MLOAD PUSH1 0x60 DUP1 DUP3 ADD DUP4 MSTORE PUSH1 0xC8 DUP1 DUP4 MSTORE PUSH2 0x3E8 PUSH1 0x20 DUP1 DUP6 ADD DUP3 SWAP1 MSTORE PUSH1 0x1 PUSH1 0x1 PUSH1 0xA0 SHL SUB SWAP8 DUP9 AND SWAP5 DUP7 ADD DUP6 SWAP1 MSTORE PUSH1 0x3 SWAP3 SWAP1 SWAP3 SSTORE PUSH1 0x4 DUP2 SWAP1 SSTORE PUSH1 0x5 DUP1 SLOAD PUSH1 0x1 PUSH1 0x1 PUSH1 0xA0 SHL SUB NOT SWAP1 DUP2 AND SWAP1 SWAP6 OR SWAP1 SSTORE DUP5 MLOAD PUSH1 0x80 DUP1 DUP3 ADD DUP8 MSTORE DUP3 DUP3 MSTORE PUSH2 0x7D0 DUP3 DUP6 ADD DUP2 SWAP1 MSTORE PUSH2 0x12C SWAP8 DUP4 ADD DUP9 SWAP1 MSTORE SWAP8 DUP10 AND SWAP2 SWAP1 SWAP5 ADD DUP2 SWAP1 MSTORE PUSH1 0x6 SWAP2 SWAP1 SWAP2 SSTORE PUSH1 0x7 SWAP6 SWAP1 SWAP6 SSTORE PUSH1 0x8 SWAP4 SWAP1 SWAP4 SSTORE PUSH1 0x9 DUP1 SLOAD SWAP1 SWAP3 AND SWAP1 SWAP4 OR SWAP1 SSTORE PUSH1 0x0 DUP1 MSTORE PUSH1 0xE SWAP1 MSTORE PUSH32 0xE710864318D4A32F37D6CE54CB3FADBEF648DD12D8DBDF53973564D56B7F881C DUP1 SLOAD PUSH1 0xFF NOT AND PUSH1 0x1 OR SWAP1 SSTORE SWAP7 DUP2 AND SWAP1 SWAP7 MSTORE POP POP POP POP AND PUSH1 0xA0 MSTORE PUSH3 0x3EE JUMP JUMPDEST PUSH3 0x251 PUSH1 0x0 DUP3 PUSH3 0x2D8 JUMP JUMPDEST PUSH3 0x27D PUSH32 0x97667070C54EF182B0F5858B034BEAC1B6F3089AA2D3188BB1E8929F4FA9B929 DUP3 PUSH3 0x2D8 JUMP JUMPDEST PUSH3 0x2A9 PUSH32 0xB9F13ECB5E7F0F859C44B76B3A163E504787B446DA95A26BF75E53E1FF4A1E0E DUP3 PUSH3 0x2D8 JUMP JUMPDEST PUSH3 0x2D5 PUSH32 0x6393FA734211156FCC8C7DDA6B0650F5C731D4C838C1DB43445A149AA2F5B6FE DUP3 PUSH3 0x2D8 JUMP JUMPDEST POP JUMP JUMPDEST PUSH1 0x0 DUP3 DUP2 MSTORE PUSH1 0x1 PUSH1 0x20 SWAP1 DUP2 MSTORE PUSH1 0x40 DUP1 DUP4 KECCAK256 PUSH1 0x1 PUSH1 0x1 PUSH1 0xA0 SHL SUB DUP6 AND DUP5 MSTORE SWAP1 SWAP2 MSTORE SWAP1 KECCAK256 SLOAD PUSH1 0xFF AND PUSH3 0x35D JUMPI PUSH1 0x0 DUP3 DUP2 MSTORE PUSH1 0x1 PUSH1 0x20 DUP2 DUP2 MSTORE PUSH1 0x40 DUP1 DUP5 KECCAK256 PUSH1 0x1 PUSH1 0x1 PUSH1 0xA0 SHL SUB DUP7 AND DUP1 DUP7 MSTORE SWAP3 MSTORE DUP1 DUP5 KECCAK256 DUP1 SLOAD PUSH1 0xFF NOT AND SWAP1 SWAP4 OR SWAP1 SWAP3 SSTORE SWAP1 MLOAD CALLER SWAP3 DUP6 SWAP2 PUSH32 0x2F8788117E7EFF1D82E926EC794901D17C78024A50270940304540A733656F0D SWAP2 SWAP1 LOG4 JUMPDEST POP POP JUMP JUMPDEST DUP1 MLOAD PUSH1 0x1 PUSH1 0x1 PUSH1 0xA0 SHL SUB DUP2 AND DUP2 EQ PUSH3 0x379 JUMPI PUSH1 0x0 DUP1 REVERT JUMPDEST SWAP2 SWAP1 POP JUMP JUMPDEST PUSH1 0x0 DUP1 PUSH1 0x0 DUP1 PUSH1 0x0 PUSH1 0xA0 DUP7 DUP9 SUB SLT ISZERO PUSH3 0x397 JUMPI PUSH1 0x0 DUP1 REVERT JUMPDEST PUSH3 0x3A2 DUP7 PUSH3 0x361 JUMP JUMPDEST SWAP5 POP PUSH3 0x3B2 PUSH1 0x20 DUP8 ADD PUSH3 0x361 JUMP JUMPDEST SWAP4 POP PUSH3 0x3C2 PUSH1 0x40 DUP8 ADD PUSH3 0x361 JUMP JUMPDEST SWAP3 POP PUSH3 0x3D2 PUSH1 0x60 DUP8 ADD PUSH3 0x361 JUMP JUMPDEST SWAP2 POP PUSH3 0x3E2 PUSH1 0x80 DUP8 ADD PUSH3 0x361 JUMP JUMPDEST SWAP1 POP SWAP3 SWAP6 POP SWAP3 SWAP6 SWAP1 SWAP4 POP JUMP JUMPDEST PUSH1 0x80 MLOAD PUSH1 0xA0 MLOAD PUSH2 0x47C0 PUSH3 0x429 PUSH1 0x0 CODECOPY PUSH1 0x0 PUSH2 0x852 ADD MSTORE PUSH1 0x0 DUP2 DUP2 PUSH2 0x4A1 ADD MSTORE DUP2 DUP2 PUSH2 0x131E ADD MSTORE DUP2 DUP2 PUSH2 0x1742 ADD MSTORE PUSH2 0x32F4 ADD MSTORE PUSH2 0x47C0 PUSH1 0x0 RETURN INVALID PUSH1 0x80 PUSH1 0x40 MSTORE PUSH1 0x4 CALLDATASIZE LT PUSH2 0x2AE JUMPI PUSH1 0x0 CALLDATALOAD PUSH1 0xE0 SHR DUP1 PUSH4 0x88F0BC73 GT PUSH2 0x175 JUMPI DUP1 PUSH4 0xCE190578 GT PUSH2 0xDC JUMPI DUP1 PUSH4 0xE58A7B31 GT PUSH2 0x95 JUMPI DUP1 PUSH4 0xF5B541A6 GT PUSH2 0x6F JUMPI DUP1 PUSH4 0xF5B541A6 EQ PUSH2 0x9E0 JUMPI DUP1 PUSH4 0xF70D9362 EQ PUSH2 0xA02 JUMPI DUP1 PUSH4 0xF9EAEE0D EQ PUSH2 0xA17 JUMPI DUP1 PUSH4 0xFB05DA2E EQ PUSH2 0xA37 JUMPI PUSH1 0x0 DUP1 REVERT JUMPDEST DUP1 PUSH4 0xE58A7B31 EQ PUSH2 0x97B JUMPI DUP1 PUSH4 0xEE5B8E0E EQ PUSH2 0x99B JUMPI DUP1 PUSH4 0xF12D54D8 EQ PUSH2 0x9CB JUMPI PUSH1 0x0 DUP1 REVERT JUMPDEST DUP1 PUSH4 0xCE190578 EQ PUSH2 0x874 JUMPI DUP1 PUSH4 0xCF23913B EQ PUSH2 0x889 JUMPI DUP1 PUSH4 0xD547741F EQ PUSH2 0x8A9 JUMPI DUP1 PUSH4 0xDDD1A5BF EQ PUSH2 0x8C9 JUMPI DUP1 PUSH4 0xDE74E57B EQ PUSH2 0x901 JUMPI DUP1 PUSH4 0xE1F1C4A7 EQ PUSH2 0x67E JUMPI PUSH1 0x0 DUP1 REVERT JUMPDEST DUP1 PUSH4 0xA33B2D3F GT PUSH2 0x12E JUMPI DUP1 PUSH4 0xA33B2D3F EQ PUSH2 0x77D JUMPI DUP1 PUSH4 0xAD6561EC EQ PUSH2 0x79D JUMPI DUP1 PUSH4 0xBC996819 EQ PUSH2 0x7B0 JUMPI DUP1 PUSH4 0xBEB8314C EQ PUSH2 0x7C5 JUMPI DUP1 PUSH4 0xC7921A7C EQ PUSH2 0x7E5 JUMPI DUP1 PUSH4 0xCBB9C9A4 EQ PUSH2 0x840 JUMPI PUSH1 0x0 DUP1 REVERT JUMPDEST DUP1 PUSH4 0x88F0BC73 EQ PUSH2 0x6B4 JUMPI DUP1 PUSH4 0x8E7579A1 EQ PUSH2 0x6D4 JUMPI DUP1 PUSH4 0x90469A9D EQ PUSH2 0x708 JUMPI DUP1 PUSH4 0x91D14854 EQ PUSH2 0x728 JUMPI DUP1 PUSH4 0x9703EF35 EQ PUSH2 0x748 JUMPI DUP1 PUSH4 0xA217FDDF EQ PUSH2 0x768 JUMPI PUSH1 0x0 DUP1 REVERT JUMPDEST DUP1 PUSH4 0x592EB924 GT PUSH2 0x219 JUMPI DUP1 PUSH4 0x73C250C6 GT PUSH2 0x1D2 JUMPI DUP1 PUSH4 0x73C250C6 EQ PUSH2 0x5AF JUMPI DUP1 PUSH4 0x76346914 EQ PUSH2 0x5DC JUMPI DUP1 PUSH4 0x79CEF8BD EQ PUSH2 0x631 JUMPI DUP1 PUSH4 0x86AA217E EQ PUSH2 0x65E JUMPI DUP1 PUSH4 0x87C13943 EQ PUSH2 0x67E JUMPI DUP1 PUSH4 0x887F495A EQ PUSH2 0x694 JUMPI PUSH1 0x0 DUP1 REVERT JUMPDEST DUP1 PUSH4 0x592EB924 EQ PUSH2 0x48F JUMPI DUP1 PUSH4 0x5932FDBA EQ PUSH2 0x4DB JUMPI DUP1 PUSH4 0x5C975ABB EQ PUSH2 0x50F JUMPI DUP1 PUSH4 0x5DDA3E01 EQ PUSH2 0x527 JUMPI DUP1 PUSH4 0x697D312A EQ PUSH2 0x547 JUMPI DUP1 PUSH4 0x69FCC649 EQ PUSH2 0x577 JUMPI PUSH1 0x0 DUP1 REVERT JUMPDEST DUP1 PUSH4 0x36568ABE GT PUSH2 0x26B JUMPI DUP1 PUSH4 0x36568ABE EQ PUSH2 0x3E2 JUMPI DUP1 PUSH4 0x4178617F EQ PUSH2 0x402 JUMPI DUP1 PUSH4 0x4A277EC5 EQ PUSH2 0x422 JUMPI DUP1 PUSH4 0x4F843494 EQ PUSH2 0x442 JUMPI DUP1 PUSH4 0x51FB012D EQ PUSH2 0x455 JUMPI DUP1 PUSH4 0x54B7636E EQ PUSH2 0x46F JUMPI PUSH1 0x0 DUP1 REVERT JUMPDEST DUP1 PUSH4 0x1FFC9A7 EQ PUSH2 0x2B3 JUMPI DUP1 PUSH4 0x52D9E7E EQ PUSH2 0x2E8 JUMPI DUP1 PUSH4 0x1276291C EQ PUSH2 0x30A JUMPI DUP1 PUSH4 0x1E5EB1D0 EQ PUSH2 0x337 JUMPI DUP1 PUSH4 0x248A9CA3 EQ PUSH2 0x383 JUMPI DUP1 PUSH4 0x2F2FF15D EQ PUSH2 0x3C2 JUMPI JUMPDEST PUSH1 0x0 DUP1 REVERT JUMPDEST CALLVALUE DUP1 ISZERO PUSH2 0x2BF JUMPI PUSH1 0x0 DUP1 REVERT JUMPDEST POP PUSH2 0x2D3 PUSH2 0x2CE CALLDATASIZE PUSH1 0x4 PUSH2 0x412F JUMP JUMPDEST PUSH2 0xAA5 JUMP JUMPDEST PUSH1 0x40 MLOAD SWAP1 ISZERO ISZERO DUP2 MSTORE PUSH1 0x20 ADD JUMPDEST PUSH1 0x40 MLOAD DUP1 SWAP2 SUB SWAP1 RETURN JUMPDEST CALLVALUE DUP1 ISZERO PUSH2 0x2F4 JUMPI PUSH1 0x0 DUP1 REVERT JUMPDEST POP PUSH2 0x308 PUSH2 0x303 CALLDATASIZE PUSH1 0x4 PUSH2 0x4167 JUMP JUMPDEST PUSH2 0xADC JUMP JUMPDEST STOP JUMPDEST CALLVALUE DUP1 ISZERO PUSH2 0x316 JUMPI PUSH1 0x0 DUP1 REVERT JUMPDEST POP PUSH2 0x32A PUSH2 0x325 CALLDATASIZE PUSH1 0x4 PUSH2 0x4184 JUMP JUMPDEST PUSH2 0xB91 JUMP JUMPDEST PUSH1 0x40 MLOAD PUSH2 0x2DF SWAP2 SWAP1 PUSH2 0x41E7 JUMP JUMPDEST CALLVALUE DUP1 ISZERO PUSH2 0x343 JUMPI PUSH1 0x0 DUP1 REVERT JUMPDEST POP PUSH1 0x3 SLOAD PUSH1 0x4 SLOAD PUSH1 0x5 SLOAD PUSH2 0x35F SWAP3 SWAP2 SWAP1 PUSH1 0x1 PUSH1 0x1 PUSH1 0xA0 SHL SUB AND DUP4 JUMP JUMPDEST PUSH1 0x40 DUP1 MLOAD SWAP4 DUP5 MSTORE PUSH1 0x20 DUP5 ADD SWAP3 SWAP1 SWAP3 MSTORE PUSH1 0x1 PUSH1 0x1 PUSH1 0xA0 SHL SUB AND SWAP1 DUP3 ADD MSTORE PUSH1 0x60 ADD PUSH2 0x2DF JUMP JUMPDEST CALLVALUE DUP1 ISZERO PUSH2 0x38F JUMPI PUSH1 0x0 DUP1 REVERT JUMPDEST POP PUSH2 0x3B4 PUSH2 0x39E CALLDATASIZE PUSH1 0x4 PUSH2 0x4184 JUMP JUMPDEST PUSH1 0x0 SWAP1 DUP2 MSTORE PUSH1 0x1 PUSH1 0x20 DUP2 SWAP1 MSTORE PUSH1 0x40 SWAP1 SWAP2 KECCAK256 ADD SLOAD SWAP1 JUMP JUMPDEST PUSH1 0x40 MLOAD SWAP1 DUP2 MSTORE PUSH1 0x20 ADD PUSH2 0x2DF JUMP JUMPDEST CALLVALUE DUP1 ISZERO PUSH2 0x3CE JUMPI PUSH1 0x0 DUP1 REVERT JUMPDEST POP PUSH2 0x308 PUSH2 0x3DD CALLDATASIZE PUSH1 0x4 PUSH2 0x424A JUMP JUMPDEST PUSH2 0xD31 JUMP JUMPDEST CALLVALUE DUP1 ISZERO PUSH2 0x3EE JUMPI PUSH1 0x0 DUP1 REVERT JUMPDEST POP PUSH2 0x308 PUSH2 0x3FD CALLDATASIZE PUSH1 0x4 PUSH2 0x424A JUMP JUMPDEST PUSH2 0xD94 JUMP JUMPDEST CALLVALUE DUP1 ISZERO PUSH2 0x40E JUMPI PUSH1 0x0 DUP1 REVERT JUMPDEST POP PUSH2 0x308 PUSH2 0x41D CALLDATASIZE PUSH1 0x4 PUSH2 0x427A JUMP JUMPDEST PUSH2 0xE12 JUMP JUMPDEST CALLVALUE DUP1 ISZERO PUSH2 0x42E JUMPI PUSH1 0x0 DUP1 REVERT JUMPDEST POP PUSH2 0x308 PUSH2 0x43D CALLDATASIZE PUSH1 0x4 PUSH2 0x4297 JUMP JUMPDEST PUSH2 0xF19 JUMP JUMPDEST PUSH2 0x308 PUSH2 0x450 CALLDATASIZE PUSH1 0x4 PUSH2 0x42C3 JUMP JUMPDEST PUSH2 0x10C8 JUMP JUMPDEST CALLVALUE DUP1 ISZERO PUSH2 0x461 JUMPI PUSH1 0x0 DUP1 REVERT JUMPDEST POP PUSH1 0xF SLOAD PUSH2 0x2D3 SWAP1 PUSH1 0xFF AND DUP2 JUMP JUMPDEST CALLVALUE DUP1 ISZERO PUSH2 0x47B JUMPI PUSH1 0x0 DUP1 REVERT JUMPDEST POP PUSH2 0x2D3 PUSH2 0x48A CALLDATASIZE PUSH1 0x4 PUSH2 0x427A JUMP JUMPDEST PUSH2 0x13DF JUMP JUMPDEST CALLVALUE DUP1 ISZERO PUSH2 0x49B JUMPI PUSH1 0x0 DUP1 REVERT JUMPDEST POP PUSH2 0x4C3 PUSH32 0x0 DUP2 JUMP JUMPDEST PUSH1 0x40 MLOAD PUSH1 0x1 PUSH1 0x1 PUSH1 0xA0 SHL SUB SWAP1 SWAP2 AND DUP2 MSTORE PUSH1 0x20 ADD PUSH2 0x2DF JUMP JUMPDEST CALLVALUE DUP1 ISZERO PUSH2 0x4E7 JUMPI PUSH1 0x0 DUP1 REVERT JUMPDEST POP PUSH2 0x3B4 PUSH32 0x6393FA734211156FCC8C7DDA6B0650F5C731D4C838C1DB43445A149AA2F5B6FE DUP2 JUMP JUMPDEST CALLVALUE DUP1 ISZERO PUSH2 0x51B JUMPI PUSH1 0x0 DUP1 REVERT JUMPDEST POP PUSH1 0x2 SLOAD PUSH1 0xFF AND PUSH2 0x2D3 JUMP JUMPDEST CALLVALUE DUP1 ISZERO PUSH2 0x533 JUMPI PUSH1 0x0 DUP1 REVERT JUMPDEST POP PUSH2 0x308 PUSH2 0x542 CALLDATASIZE PUSH1 0x4 PUSH2 0x42E5 JUMP JUMPDEST PUSH2 0x13EC JUMP JUMPDEST CALLVALUE DUP1 ISZERO PUSH2 0x553 JUMPI PUSH1 0x0 DUP1 REVERT JUMPDEST POP PUSH2 0x2D3 PUSH2 0x562 CALLDATASIZE PUSH1 0x4 PUSH2 0x427A JUMP JUMPDEST PUSH1 0xE PUSH1 0x20 MSTORE PUSH1 0x0 SWAP1 DUP2 MSTORE PUSH1 0x40 SWAP1 KECCAK256 SLOAD PUSH1 0xFF AND DUP2 JUMP JUMPDEST CALLVALUE DUP1 ISZERO PUSH2 0x583 JUMPI PUSH1 0x0 DUP1 REVERT JUMPDEST POP PUSH2 0x3B4 PUSH2 0x592 CALLDATASIZE PUSH1 0x4 PUSH2 0x436B JUMP JUMPDEST PUSH1 0x13 PUSH1 0x20 SWAP1 DUP2 MSTORE PUSH1 0x0 SWAP3 DUP4 MSTORE PUSH1 0x40 DUP1 DUP5 KECCAK256 SWAP1 SWAP2 MSTORE SWAP1 DUP3 MSTORE SWAP1 KECCAK256 SLOAD DUP2 JUMP JUMPDEST CALLVALUE DUP1 ISZERO PUSH2 0x5BB JUMPI PUSH1 0x0 DUP1 REVERT JUMPDEST POP PUSH2 0x3B4 PUSH2 0x5CA CALLDATASIZE PUSH1 0x4 PUSH2 0x427A JUMP JUMPDEST PUSH1 0xC PUSH1 0x20 MSTORE PUSH1 0x0 SWAP1 DUP2 MSTORE PUSH1 0x40 SWAP1 KECCAK256 SLOAD DUP2 JUMP JUMPDEST CALLVALUE DUP1 ISZERO PUSH2 0x5E8 JUMPI PUSH1 0x0 DUP1 REVERT JUMPDEST POP PUSH1 0x6 SLOAD PUSH1 0x7 SLOAD PUSH1 0x8 SLOAD PUSH1 0x9 SLOAD PUSH2 0x608 SWAP4 SWAP3 SWAP2 SWAP1 PUSH1 0x1 PUSH1 0x1 PUSH1 0xA0 SHL SUB AND DUP5 JUMP JUMPDEST PUSH1 0x40 DUP1 MLOAD SWAP5 DUP6 MSTORE PUSH1 0x20 DUP6 ADD SWAP4 SWAP1 SWAP4 MSTORE SWAP2 DUP4 ADD MSTORE PUSH1 0x1 PUSH1 0x1 PUSH1 0xA0 SHL SUB AND PUSH1 0x60 DUP3 ADD MSTORE PUSH1 0x80 ADD PUSH2 0x2DF JUMP JUMPDEST CALLVALUE DUP1 ISZERO PUSH2 0x63D JUMPI PUSH1 0x0 DUP1 REVERT JUMPDEST POP PUSH2 0x651 PUSH2 0x64C CALLDATASIZE PUSH1 0x4 PUSH2 0x424A JUMP JUMPDEST PUSH2 0x14C7 JUMP JUMPDEST PUSH1 0x40 MLOAD PUSH2 0x2DF SWAP2 SWAP1 PUSH2 0x4397 JUMP JUMPDEST CALLVALUE DUP1 ISZERO PUSH2 0x66A JUMPI PUSH1 0x0 DUP1 REVERT JUMPDEST POP PUSH2 0x308 PUSH2 0x679 CALLDATASIZE PUSH1 0x4 PUSH2 0x43A5 JUMP JUMPDEST PUSH2 0x15D1 JUMP JUMPDEST CALLVALUE DUP1 ISZERO PUSH2 0x68A JUMPI PUSH1 0x0 DUP1 REVERT JUMPDEST POP PUSH2 0x3B4 PUSH2 0x2710 DUP2 JUMP JUMPDEST CALLVALUE DUP1 ISZERO PUSH2 0x6A0 JUMPI PUSH1 0x0 DUP1 REVERT JUMPDEST POP PUSH2 0x308 PUSH2 0x6AF CALLDATASIZE PUSH1 0x4 PUSH2 0x43A5 JUMP JUMPDEST PUSH2 0x199C JUMP JUMPDEST CALLVALUE DUP1 ISZERO PUSH2 0x6C0 JUMPI PUSH1 0x0 DUP1 REVERT JUMPDEST POP PUSH2 0x308 PUSH2 0x6CF CALLDATASIZE PUSH1 0x4 PUSH2 0x424A JUMP JUMPDEST PUSH2 0x1B71 JUMP JUMPDEST CALLVALUE DUP1 ISZERO PUSH2 0x6E0 JUMPI PUSH1 0x0 DUP1 REVERT JUMPDEST POP PUSH2 0x3B4 PUSH32 0xB9F13ECB5E7F0F859C44B76B3A163E504787B446DA95A26BF75E53E1FF4A1E0E DUP2 JUMP JUMPDEST CALLVALUE DUP1 ISZERO PUSH2 0x714 JUMPI PUSH1 0x0 DUP1 REVERT JUMPDEST POP PUSH2 0x308 PUSH2 0x723 CALLDATASIZE PUSH1 0x4 PUSH2 0x427A JUMP JUMPDEST PUSH2 0x1C93 JUMP JUMPDEST CALLVALUE DUP1 ISZERO PUSH2 0x734 JUMPI PUSH1 0x0 DUP1 REVERT JUMPDEST POP PUSH2 0x2D3 PUSH2 0x743 CALLDATASIZE PUSH1 0x4 PUSH2 0x424A JUMP JUMPDEST PUSH2 0x1DA3 JUMP JUMPDEST CALLVALUE DUP1 ISZERO PUSH2 0x754 JUMPI PUSH1 0x0 DUP1 REVERT JUMPDEST POP PUSH2 0x308 PUSH2 0x763 CALLDATASIZE PUSH1 0x4 PUSH2 0x4184 JUMP JUMPDEST PUSH2 0x1DCE JUMP JUMPDEST CALLVALUE DUP1 ISZERO PUSH2 0x774 JUMPI PUSH1 0x0 DUP1 REVERT JUMPDEST POP PUSH2 0x3B4 PUSH1 0x0 DUP2 JUMP JUMPDEST CALLVALUE DUP1 ISZERO PUSH2 0x789 JUMPI PUSH1 0x0 DUP1 REVERT JUMPDEST POP PUSH2 0x308 PUSH2 0x798 CALLDATASIZE PUSH1 0x4 PUSH2 0x43D3 JUMP JUMPDEST PUSH2 0x202D JUMP JUMPDEST PUSH2 0x308 PUSH2 0x7AB CALLDATASIZE PUSH1 0x4 PUSH2 0x43A5 JUMP JUMPDEST PUSH2 0x20E3 JUMP JUMPDEST CALLVALUE DUP1 ISZERO PUSH2 0x7BC JUMPI PUSH1 0x0 DUP1 REVERT JUMPDEST POP PUSH2 0x3B4 PUSH1 0x5 DUP2 JUMP JUMPDEST CALLVALUE DUP1 ISZERO PUSH2 0x7D1 JUMPI PUSH1 0x0 DUP1 REVERT JUMPDEST POP PUSH2 0x3B4 PUSH2 0x7E0 CALLDATASIZE PUSH1 0x4 PUSH2 0x436B JUMP JUMPDEST PUSH2 0x2957 JUMP JUMPDEST CALLVALUE DUP1 ISZERO PUSH2 0x7F1 JUMPI PUSH1 0x0 DUP1 REVERT JUMPDEST POP PUSH2 0x805 PUSH2 0x800 CALLDATASIZE PUSH1 0x4 PUSH2 0x42C3 JUMP JUMPDEST PUSH2 0x29AE JUMP JUMPDEST PUSH1 0x40 DUP1 MLOAD SWAP7 DUP8 MSTORE PUSH1 0x1 PUSH1 0x1 PUSH1 0xA0 SHL SUB SWAP6 DUP7 AND PUSH1 0x20 DUP9 ADD MSTORE DUP7 ADD SWAP4 SWAP1 SWAP4 MSTORE SWAP3 AND PUSH1 0x60 DUP5 ADD MSTORE PUSH1 0x80 DUP4 ADD SWAP2 SWAP1 SWAP2 MSTORE ISZERO ISZERO PUSH1 0xA0 DUP3 ADD MSTORE PUSH1 0xC0 ADD PUSH2 0x2DF JUMP JUMPDEST CALLVALUE DUP1 ISZERO PUSH2 0x84C JUMPI PUSH1 0x0 DUP1 REVERT JUMPDEST POP PUSH2 0x4C3 PUSH32 0x0 DUP2 JUMP JUMPDEST CALLVALUE DUP1 ISZERO PUSH2 0x880 JUMPI PUSH1 0x0 DUP1 REVERT JUMPDEST POP PUSH2 0x308 PUSH2 0x2A11 JUMP JUMPDEST CALLVALUE DUP1 ISZERO PUSH2 0x895 JUMPI PUSH1 0x0 DUP1 REVERT JUMPDEST POP PUSH2 0x308 PUSH2 0x8A4 CALLDATASIZE PUSH1 0x4 PUSH2 0x440A JUMP JUMPDEST PUSH2 0x2A24 JUMP JUMPDEST CALLVALUE DUP1 ISZERO PUSH2 0x8B5 JUMPI PUSH1 0x0 DUP1 REVERT JUMPDEST POP PUSH2 0x308 PUSH2 0x8C4 CALLDATASIZE PUSH1 0x4 PUSH2 0x424A JUMP JUMPDEST PUSH2 0x2A50 JUMP JUMPDEST CALLVALUE DUP1 ISZERO PUSH2 0x8D5 JUMPI PUSH1 0x0 DUP1 REVERT JUMPDEST POP PUSH2 0x3B4 PUSH2 0x8E4 CALLDATASIZE PUSH1 0x4 PUSH2 0x424A JUMP JUMPDEST PUSH1 0x12 PUSH1 0x20 SWAP1 DUP2 MSTORE PUSH1 0x0 SWAP3 DUP4 MSTORE PUSH1 0x40 DUP1 DUP5 KECCAK256 SWAP1 SWAP2 MSTORE SWAP1 DUP3 MSTORE SWAP1 KECCAK256 SLOAD DUP2 JUMP JUMPDEST CALLVALUE DUP1 ISZERO PUSH2 0x90D JUMPI PUSH1 0x0 DUP1 REVERT JUMPDEST POP PUSH2 0x968 PUSH2 0x91C CALLDATASIZE PUSH1 0x4 PUSH2 0x4184 JUMP JUMPDEST PUSH1 0x10 PUSH1 0x20 MSTORE PUSH1 0x0 SWAP1 DUP2 MSTORE PUSH1 0x40 SWAP1 KECCAK256 DUP1 SLOAD PUSH1 0x1 DUP3 ADD SLOAD PUSH1 0x2 DUP4 ADD SLOAD PUSH1 0x3 DUP5 ADD SLOAD PUSH1 0x4 DUP6 ADD SLOAD PUSH1 0x5 SWAP1 SWAP6 ADD SLOAD SWAP4 SWAP5 PUSH1 0x1 PUSH1 0x1 PUSH1 0xA0 SHL SUB SWAP4 DUP5 AND SWAP5 SWAP3 SWAP4 DUP3 AND SWAP3 PUSH1 0x1 PUSH1 0xA0 SHL SWAP1 SWAP3 DIV PUSH1 0xFF AND SWAP2 DUP8 JUMP JUMPDEST PUSH1 0x40 MLOAD PUSH2 0x2DF SWAP8 SWAP7 SWAP6 SWAP5 SWAP4 SWAP3 SWAP2 SWAP1 PUSH2 0x4467 JUMP JUMPDEST CALLVALUE DUP1 ISZERO PUSH2 0x987 JUMPI PUSH1 0x0 DUP1 REVERT JUMPDEST POP PUSH2 0x308 PUSH2 0x996 CALLDATASIZE PUSH1 0x4 PUSH2 0x44AE JUMP JUMPDEST PUSH2 0x2AB3 JUMP JUMPDEST CALLVALUE DUP1 ISZERO PUSH2 0x9A7 JUMPI PUSH1 0x0 DUP1 REVERT JUMPDEST POP PUSH2 0x2D3 PUSH2 0x9B6 CALLDATASIZE PUSH1 0x4 PUSH2 0x4184 JUMP JUMPDEST PUSH1 0xD PUSH1 0x20 MSTORE PUSH1 0x0 SWAP1 DUP2 MSTORE PUSH1 0x40 SWAP1 KECCAK256 SLOAD PUSH1 0xFF AND DUP2 JUMP JUMPDEST CALLVALUE DUP1 ISZERO PUSH2 0x9D7 JUMPI PUSH1 0x0 DUP1 REVERT JUMPDEST POP PUSH2 0x308 PUSH2 0x33C5 JUMP JUMPDEST CALLVALUE DUP1 ISZERO PUSH2 0x9EC JUMPI PUSH1 0x0 DUP1 REVERT JUMPDEST POP PUSH2 0x3B4 PUSH1 0x0 DUP1 MLOAD PUSH1 0x20 PUSH2 0x476B DUP4 CODECOPY DUP2 MLOAD SWAP2 MSTORE DUP2 JUMP JUMPDEST CALLVALUE DUP1 ISZERO PUSH2 0xA0E JUMPI PUSH1 0x0 DUP1 REVERT JUMPDEST POP PUSH1 0x3 SLOAD PUSH2 0x3B4 JUMP JUMPDEST CALLVALUE DUP1 ISZERO PUSH2 0xA23 JUMPI PUSH1 0x0 DUP1 REVERT JUMPDEST POP PUSH2 0x2D3 PUSH2 0xA32 CALLDATASIZE PUSH1 0x4 PUSH2 0x427A JUMP JUMPDEST PUSH2 0x33D8 JUMP JUMPDEST CALLVALUE DUP1 ISZERO PUSH2 0xA43 JUMPI PUSH1 0x0 DUP1 REVERT JUMPDEST POP PUSH2 0xA94 PUSH2 0xA52 CALLDATASIZE PUSH1 0x4 PUSH2 0x4184 JUMP JUMPDEST PUSH1 0x0 SWAP1 DUP2 MSTORE PUSH1 0x10 PUSH1 0x20 MSTORE PUSH1 0x40 SWAP1 KECCAK256 PUSH1 0x1 DUP2 ADD SLOAD PUSH1 0x2 DUP3 ADD SLOAD PUSH1 0x3 DUP4 ADD SLOAD PUSH1 0x4 SWAP1 SWAP4 ADD SLOAD PUSH1 0x1 PUSH1 0x1 PUSH1 0xA0 SHL SUB SWAP3 DUP4 AND SWAP5 SWAP2 SWAP4 SWAP3 DUP4 AND SWAP3 PUSH1 0x1 PUSH1 0xA0 SHL SWAP1 DIV PUSH1 0xFF AND SWAP2 JUMP JUMPDEST PUSH1 0x40 MLOAD PUSH2 0x2DF SWAP6 SWAP5 SWAP4 SWAP3 SWAP2 SWAP1 PUSH2 0x4504 JUMP JUMPDEST PUSH1 0x0 PUSH1 0x1 PUSH1 0x1 PUSH1 0xE0 SHL SUB NOT DUP3 AND PUSH4 0x7965DB0B PUSH1 0xE0 SHL EQ DUP1 PUSH2 0xAD6 JUMPI POP PUSH4 0x1FFC9A7 PUSH1 0xE0 SHL PUSH1 0x1 PUSH1 0x1 PUSH1 0xE0 SHL SUB NOT DUP4 AND EQ JUMPDEST SWAP3 SWAP2 POP POP JUMP JUMPDEST PUSH1 0x0 DUP1 MLOAD PUSH1 0x20 PUSH2 0x476B DUP4 CODECOPY DUP2 MLOAD SWAP2 MSTORE PUSH2 0xAF5 DUP2 CALLER PUSH2 0x1DA3 JUMP JUMPDEST PUSH1 0x40 MLOAD DUP1 PUSH1 0x40 ADD PUSH1 0x40 MSTORE DUP1 PUSH1 0x11 DUP2 MSTORE PUSH1 0x20 ADD PUSH17 0x13DC195C985D1BDC881C995C5D5A5C9959 PUSH1 0x7A SHL DUP2 MSTORE POP SWAP1 PUSH2 0xB46 JUMPI PUSH1 0x40 MLOAD PUSH3 0x461BCD PUSH1 0xE5 SHL DUP2 MSTORE PUSH1 0x4 ADD PUSH2 0xB3D SWAP2 SWAP1 PUSH2 0x4564 JUMP JUMPDEST PUSH1 0x40 MLOAD DUP1 SWAP2 SUB SWAP1 REVERT JUMPDEST POP PUSH1 0xF DUP1 SLOAD PUSH1 0xFF NOT AND DUP4 ISZERO ISZERO SWAP1 DUP2 OR SWAP1 SWAP2 SSTORE PUSH1 0x40 MLOAD SWAP1 DUP2 MSTORE CALLER SWAP1 PUSH32 0x49D3B7603127F47657003EC050B7AEB0D61D8261082D7807BE013894E89373FD SWAP1 PUSH1 0x20 ADD PUSH1 0x40 MLOAD DUP1 SWAP2 SUB SWAP1 LOG2 POP POP JUMP JUMPDEST PUSH1 0x0 DUP2 DUP2 MSTORE PUSH1 0x11 PUSH1 0x20 MSTORE PUSH1 0x40 DUP2 KECCAK256 DUP1 SLOAD PUSH1 0x60 SWAP3 SWAP1 DUP2 JUMPDEST DUP2 DUP2 LT ISZERO PUSH2 0xBEC JUMPI DUP4 DUP2 DUP2 SLOAD DUP2 LT PUSH2 0xBC1 JUMPI PUSH2 0xBC1 PUSH2 0x4597 JUMP JUMPDEST PUSH1 0x0 SWAP2 DUP3 MSTORE PUSH1 0x20 SWAP1 SWAP2 KECCAK256 PUSH1 0x5 PUSH1 0x6 SWAP1 SWAP3 MUL ADD ADD SLOAD PUSH1 0xFF AND ISZERO PUSH2 0xBE4 JUMPI DUP3 PUSH1 0x1 ADD SWAP3 POP JUMPDEST PUSH1 0x1 ADD PUSH2 0xBA7 JUMP JUMPDEST POP DUP2 PUSH8 0xFFFFFFFFFFFFFFFF DUP2 GT ISZERO PUSH2 0xC06 JUMPI PUSH2 0xC06 PUSH2 0x45AD JUMP JUMPDEST PUSH1 0x40 MLOAD SWAP1 DUP1 DUP3 MSTORE DUP1 PUSH1 0x20 MUL PUSH1 0x20 ADD DUP3 ADD PUSH1 0x40 MSTORE DUP1 ISZERO PUSH2 0xC3F JUMPI DUP2 PUSH1 0x20 ADD JUMPDEST PUSH2 0xC2C PUSH2 0x40E5 JUMP JUMPDEST DUP2 MSTORE PUSH1 0x20 ADD SWAP1 PUSH1 0x1 SWAP1 SUB SWAP1 DUP2 PUSH2 0xC24 JUMPI SWAP1 POP JUMPDEST POP SWAP4 POP PUSH1 0x0 DUP1 JUMPDEST DUP3 DUP2 LT ISZERO PUSH2 0xD27 JUMPI DUP5 DUP2 DUP2 SLOAD DUP2 LT PUSH2 0xC60 JUMPI PUSH2 0xC60 PUSH2 0x4597 JUMP JUMPDEST PUSH1 0x0 SWAP2 DUP3 MSTORE PUSH1 0x20 SWAP1 SWAP2 KECCAK256 PUSH1 0x5 PUSH1 0x6 SWAP1 SWAP3 MUL ADD ADD SLOAD PUSH1 0xFF AND ISZERO PUSH2 0xD1F JUMPI DUP5 DUP2 DUP2 SLOAD DUP2 LT PUSH2 0xC8E JUMPI PUSH2 0xC8E PUSH2 0x4597 JUMP JUMPDEST PUSH1 0x0 SWAP2 DUP3 MSTORE PUSH1 0x20 SWAP2 DUP3 SWAP1 KECCAK256 PUSH1 0x40 DUP1 MLOAD PUSH1 0xC0 DUP2 ADD DUP3 MSTORE PUSH1 0x6 SWAP1 SWAP4 MUL SWAP1 SWAP2 ADD DUP1 SLOAD DUP4 MSTORE PUSH1 0x1 DUP2 ADD SLOAD PUSH1 0x1 PUSH1 0x1 PUSH1 0xA0 SHL SUB SWAP1 DUP2 AND SWAP5 DUP5 ADD SWAP5 SWAP1 SWAP5 MSTORE PUSH1 0x2 DUP2 ADD SLOAD SWAP2 DUP4 ADD SWAP2 SWAP1 SWAP2 MSTORE PUSH1 0x3 DUP2 ADD SLOAD SWAP1 SWAP3 AND PUSH1 0x60 DUP3 ADD MSTORE PUSH1 0x4 DUP3 ADD SLOAD PUSH1 0x80 DUP3 ADD MSTORE PUSH1 0x5 SWAP1 SWAP2 ADD SLOAD PUSH1 0xFF AND ISZERO ISZERO PUSH1 0xA0 DUP3 ADD MSTORE DUP7 MLOAD DUP8 SWAP1 DUP5 SWAP1 DUP2 LT PUSH2 0xD0D JUMPI PUSH2 0xD0D PUSH2 0x4597 JUMP JUMPDEST PUSH1 0x20 MUL PUSH1 0x20 ADD ADD DUP2 SWAP1 MSTORE POP DUP2 PUSH1 0x1 ADD SWAP2 POP JUMPDEST PUSH1 0x1 ADD PUSH2 0xC46 JUMP JUMPDEST POP POP POP POP POP SWAP2 SWAP1 POP JUMP JUMPDEST PUSH1 0x0 DUP3 DUP2 MSTORE PUSH1 0x1 PUSH1 0x20 DUP2 SWAP1 MSTORE PUSH1 0x40 SWAP1 SWAP2 KECCAK256 ADD SLOAD PUSH2 0xD4D DUP2 PUSH2 0x340C JUMP JUMPDEST PUSH2 0xD57 DUP4 DUP4 PUSH2 0x3416 JUMP JUMPDEST PUSH1 0x40 MLOAD CALLER SWAP1 PUSH1 0x1 PUSH1 0x1 PUSH1 0xA0 SHL SUB DUP5 AND SWAP1 DUP6 SWAP1 PUSH32 0xB754D28367D5B086C81243C886EAD0839C92CB5F281E492D7159800BC57D3C17 SWAP1 PUSH1 0x0 SWAP1 LOG4 POP POP POP JUMP JUMPDEST PUSH1 0x1 PUSH1 0x1 PUSH1 0xA0 SHL SUB DUP2 AND CALLER EQ PUSH2 0xE04 JUMPI PUSH1 0x40 MLOAD PUSH3 0x461BCD PUSH1 0xE5 SHL DUP2 MSTORE PUSH1 0x20 PUSH1 0x4 DUP3 ADD MSTORE PUSH1 0x2F PUSH1 0x24 DUP3 ADD MSTORE PUSH32 0x416363657373436F6E74726F6C3A2063616E206F6E6C792072656E6F756E6365 PUSH1 0x44 DUP3 ADD MSTORE PUSH15 0x103937B632B9903337B91039B2B633 PUSH1 0x89 SHL PUSH1 0x64 DUP3 ADD MSTORE PUSH1 0x84 ADD PUSH2 0xB3D JUMP JUMPDEST PUSH2 0xE0E DUP3 DUP3 PUSH2 0x343C JUMP JUMPDEST POP POP JUMP JUMPDEST PUSH1 0x0 DUP1 MLOAD PUSH1 0x20 PUSH2 0x476B DUP4 CODECOPY DUP2 MLOAD SWAP2 MSTORE PUSH2 0xE2B DUP2 CALLER PUSH2 0x1DA3 JUMP JUMPDEST PUSH1 0x40 MLOAD DUP1 PUSH1 0x40 ADD PUSH1 0x40 MSTORE DUP1 PUSH1 0x11 DUP2 MSTORE PUSH1 0x20 ADD PUSH17 0x13DC195C985D1BDC881C995C5D5A5C9959 PUSH1 0x7A SHL DUP2 MSTORE POP SWAP1 PUSH2 0xE73 JUMPI PUSH1 0x40 MLOAD PUSH3 0x461BCD PUSH1 0xE5 SHL DUP2 MSTORE PUSH1 0x4 ADD PUSH2 0xB3D SWAP2 SWAP1 PUSH2 0x4564 JUMP JUMPDEST POP PUSH1 0x1 PUSH1 0x1 PUSH1 0xA0 SHL SUB DUP3 AND PUSH2 0xECA JUMPI PUSH1 0x40 MLOAD PUSH3 0x461BCD PUSH1 0xE5 SHL DUP2 MSTORE PUSH1 0x20 PUSH1 0x4 DUP3 ADD MSTORE PUSH1 0x19 PUSH1 0x24 DUP3 ADD MSTORE PUSH32 0x45544820697320616C6C6F7765642062792064656661756C7400000000000000 PUSH1 0x44 DUP3 ADD MSTORE PUSH1 0x64 ADD PUSH2 0xB3D JUMP JUMPDEST PUSH1 0x1 PUSH1 0x1 PUSH1 0xA0 SHL SUB DUP3 AND PUSH1 0x0 DUP2 DUP2 MSTORE PUSH1 0xE PUSH1 0x20 MSTORE PUSH1 0x40 DUP1 DUP3 KECCAK256 DUP1 SLOAD PUSH1 0xFF NOT AND PUSH1 0x1 OR SWAP1 SSTORE MLOAD CALLER SWAP3 SWAP2 PUSH32 0xB96E353E41685D2C0C71657628655373417F3980DC2E6244EF705DB758401D53 SWAP2 LOG3 POP POP JUMP JUMPDEST PUSH32 0x6393FA734211156FCC8C7DDA6B0650F5C731D4C838C1DB43445A149AA2F5B6FE PUSH2 0xF43 DUP2 PUSH2 0x340C JUMP JUMPDEST PUSH1 0x9 SLOAD PUSH1 0x1 PUSH1 0x1 PUSH1 0xA0 SHL SUB AND PUSH2 0xF93 JUMPI PUSH1 0x40 MLOAD PUSH3 0x461BCD PUSH1 0xE5 SHL DUP2 MSTORE PUSH1 0x20 PUSH1 0x4 DUP3 ADD MSTORE PUSH1 0x15 PUSH1 0x24 DUP3 ADD MSTORE PUSH21 0x14995DD85C991CC81D985D5B1D081B9BDD081CD95D PUSH1 0x5A SHL PUSH1 0x44 DUP3 ADD MSTORE PUSH1 0x64 ADD PUSH2 0xB3D JUMP JUMPDEST PUSH2 0x7D0 DUP5 GT ISZERO PUSH2 0xFD6 JUMPI PUSH1 0x40 MLOAD PUSH3 0x461BCD PUSH1 0xE5 SHL DUP2 MSTORE PUSH1 0x20 PUSH1 0x4 DUP3 ADD MSTORE PUSH1 0xE PUSH1 0x24 DUP3 ADD MSTORE PUSH14 0x426173652072617465203E323025 PUSH1 0x90 SHL PUSH1 0x44 DUP3 ADD MSTORE PUSH1 0x64 ADD PUSH2 0xB3D JUMP JUMPDEST PUSH2 0x7D0 DUP4 GT ISZERO PUSH2 0x101A JUMPI PUSH1 0x40 MLOAD PUSH3 0x461BCD PUSH1 0xE5 SHL DUP2 MSTORE PUSH1 0x20 PUSH1 0x4 DUP3 ADD MSTORE PUSH1 0xF PUSH1 0x24 DUP3 ADD MSTORE PUSH15 0x4D756C7469706C696572203E323025 PUSH1 0x88 SHL PUSH1 0x44 DUP3 ADD MSTORE PUSH1 0x64 ADD PUSH2 0xB3D JUMP JUMPDEST PUSH2 0x1F4 DUP3 GT ISZERO PUSH2 0x105E JUMPI PUSH1 0x40 MLOAD PUSH3 0x461BCD PUSH1 0xE5 SHL DUP2 MSTORE PUSH1 0x20 PUSH1 0x4 DUP3 ADD MSTORE PUSH1 0xF PUSH1 0x24 DUP3 ADD MSTORE PUSH15 0x4C6561736520626F6E7573203E3525 PUSH1 0x88 SHL PUSH1 0x44 DUP3 ADD MSTORE PUSH1 0x64 ADD PUSH2 0xB3D JUMP JUMPDEST PUSH1 0x6 DUP1 SLOAD PUSH1 0x7 DUP1 SLOAD SWAP3 DUP8 SWAP1 SSTORE DUP6 SWAP1 SSTORE PUSH1 0x8 DUP5 SWAP1 SSTORE PUSH1 0x40 DUP1 MLOAD DUP3 DUP2 MSTORE PUSH1 0x20 DUP2 ADD DUP9 SWAP1 MSTORE SWAP1 DUP2 ADD DUP4 SWAP1 MSTORE PUSH1 0x60 DUP2 ADD DUP7 SWAP1 MSTORE SWAP1 SWAP2 SWAP1 CALLER SWAP1 PUSH32 0xDF3827857CF8AC45829164BD76E2950687437E15FF8543F477AE73691EE013B1 SWAP1 PUSH1 0x80 ADD JUMPDEST PUSH1 0x40 MLOAD DUP1 SWAP2 SUB SWAP1 LOG2 POP POP POP POP POP POP JUMP JUMPDEST PUSH2 0x10D0 PUSH2 0x34A3 JUMP JUMPDEST PUSH1 0x40 MLOAD PUSH4 0x2A5BB1B7 PUSH1 0xE1 SHL DUP2 MSTORE CALLER PUSH1 0x4 DUP3 ADD MSTORE ADDRESS SWAP1 PUSH4 0x54B7636E SWAP1 PUSH1 0x24 ADD PUSH1 0x20 PUSH1 0x40 MLOAD DUP1 DUP4 SUB DUP2 DUP7 GAS STATICCALL ISZERO DUP1 ISZERO PUSH2 0x110B JUMPI RETURNDATASIZE PUSH1 0x0 DUP1 RETURNDATACOPY RETURNDATASIZE PUSH1 0x0 REVERT JUMPDEST POP POP POP POP PUSH1 0x40 MLOAD RETURNDATASIZE PUSH1 0x1F NOT PUSH1 0x1F DUP3 ADD AND DUP3 ADD DUP1 PUSH1 0x40 MSTORE POP DUP2 ADD SWAP1 PUSH2 0x112F SWAP2 SWAP1 PUSH2 0x45C3 JUMP JUMPDEST PUSH1 0x40 MLOAD DUP1 PUSH1 0x40 ADD PUSH1 0x40 MSTORE DUP1 PUSH1 0xC DUP2 MSTORE PUSH1 0x20 ADD PUSH12 0x12D650C81C995C5D5A5C9959 PUSH1 0xA2 SHL DUP2 MSTORE POP SWAP1 PUSH2 0x1172 JUMPI PUSH1 0x40 MLOAD PUSH3 0x461BCD PUSH1 0xE5 SHL DUP2 MSTORE PUSH1 0x4 ADD PUSH2 0xB3D SWAP2 SWAP1 PUSH2 0x4564 JUMP JUMPDEST POP DUP1 PUSH1 0x0 DUP2 GT PUSH1 0x40 MLOAD DUP1 PUSH1 0x40 ADD PUSH1 0x40 MSTORE DUP1 PUSH1 0xE DUP2 MSTORE PUSH1 0x20 ADD PUSH14 0x125B9D985B1A5908185B5BDD5B9D PUSH1 0x92 SHL DUP2 MSTORE POP SWAP1 PUSH2 0x11BD JUMPI PUSH1 0x40 MLOAD PUSH3 0x461BCD PUSH1 0xE5 SHL DUP2 MSTORE PUSH1 0x4 ADD PUSH2 0xB3D SWAP2 SWAP1 PUSH2 0x4564 JUMP JUMPDEST POP PUSH1 0x0 DUP4 DUP2 MSTORE PUSH1 0x10 PUSH1 0x20 MSTORE PUSH1 0x40 DUP2 KECCAK256 SWAP1 PUSH1 0x3 DUP3 DUP2 ADD SLOAD PUSH1 0x1 PUSH1 0xA0 SHL SWAP1 DIV PUSH1 0xFF AND SWAP1 DUP2 GT ISZERO PUSH2 0x11ED JUMPI PUSH2 0x11ED PUSH2 0x442F JUMP JUMPDEST EQ PUSH1 0x40 MLOAD DUP1 PUSH1 0x40 ADD PUSH1 0x40 MSTORE DUP1 PUSH1 0xD DUP2 MSTORE PUSH1 0x20 ADD PUSH13 0x4E6F7420617661696C61626C65 PUSH1 0x98 SHL DUP2 MSTORE POP SWAP1 PUSH2 0x1232 JUMPI PUSH1 0x40 MLOAD PUSH3 0x461BCD PUSH1 0xE5 SHL DUP2 MSTORE PUSH1 0x4 ADD PUSH2 0xB3D SWAP2 SWAP1 PUSH2 0x4564 JUMP JUMPDEST POP PUSH1 0x2 DUP2 ADD SLOAD PUSH1 0x3 DUP3 ADD SLOAD PUSH2 0x1252 SWAP2 SWAP1 DUP6 SWAP1 PUSH1 0x1 PUSH1 0x1 PUSH1 0xA0 SHL SUB AND PUSH2 0x34FC JUMP JUMPDEST PUSH1 0x40 MLOAD DUP1 PUSH1 0x40 ADD PUSH1 0x40 MSTORE DUP1 PUSH1 0xE DUP2 MSTORE PUSH1 0x20 ADD PUSH14 0x14185E5B595B9D0819985A5B1959 PUSH1 0x92 SHL DUP2 MSTORE POP SWAP1 PUSH2 0x1297 JUMPI PUSH1 0x40 MLOAD PUSH3 0x461BCD PUSH1 0xE5 SHL DUP2 MSTORE PUSH1 0x4 ADD PUSH2 0xB3D SWAP2 SWAP1 PUSH2 0x4564 JUMP JUMPDEST POP PUSH1 0x3 DUP2 ADD DUP1 SLOAD PUSH1 0xFF PUSH1 0xA0 SHL NOT AND PUSH1 0x1 PUSH1 0xA1 SHL OR SWAP1 SSTORE PUSH2 0x12B6 DUP5 PUSH2 0x3543 JUMP JUMPDEST PUSH1 0x1 DUP2 ADD SLOAD PUSH1 0x2 DUP3 ADD SLOAD PUSH1 0x3 DUP4 ADD SLOAD PUSH2 0x12DF SWAP3 PUSH1 0x1 PUSH1 0x1 PUSH1 0xA0 SHL SUB SWAP1 DUP2 AND SWAP3 CALLER SWAP3 SWAP1 SWAP2 AND PUSH2 0x36C9 JUMP JUMPDEST PUSH1 0x1 DUP2 ADD SLOAD PUSH1 0x40 MLOAD PUSH4 0x5C46A7EF PUSH1 0xE1 SHL DUP2 MSTORE PUSH1 0x1 PUSH1 0x1 PUSH1 0xA0 SHL SUB SWAP2 DUP3 AND PUSH1 0x4 DUP3 ADD MSTORE CALLER PUSH1 0x24 DUP3 ADD MSTORE PUSH1 0x44 DUP2 ADD DUP7 SWAP1 MSTORE PUSH1 0x80 PUSH1 0x64 DUP3 ADD MSTORE PUSH1 0x0 PUSH1 0x84 DUP3 ADD MSTORE PUSH32 0x0 SWAP1 SWAP2 AND SWAP1 PUSH4 0xB88D4FDE SWAP1 PUSH1 0xA4 ADD PUSH1 0x0 PUSH1 0x40 MLOAD DUP1 DUP4 SUB DUP2 PUSH1 0x0 DUP8 DUP1 EXTCODESIZE ISZERO DUP1 ISZERO PUSH2 0x1364 JUMPI PUSH1 0x0 DUP1 REVERT JUMPDEST POP GAS CALL ISZERO DUP1 ISZERO PUSH2 0x1378 JUMPI RETURNDATASIZE PUSH1 0x0 DUP1 RETURNDATACOPY RETURNDATASIZE PUSH1 0x0 REVERT JUMPDEST POP POP POP POP PUSH1 0x2 DUP2 ADD SLOAD PUSH1 0x3 DUP3 ADD SLOAD PUSH1 0x40 DUP1 MLOAD CALLER DUP2 MSTORE PUSH1 0x20 DUP2 ADD SWAP4 SWAP1 SWAP4 MSTORE PUSH1 0x1 PUSH1 0x1 PUSH1 0xA0 SHL SUB SWAP1 SWAP2 AND SWAP1 DUP3 ADD MSTORE DUP5 SWAP1 PUSH32 0x5BE1CEF2101AFBBF72FCCD811A15CCFDEDC8C44B5F50934100F262FFCD9A1F06 SWAP1 PUSH1 0x60 ADD PUSH1 0x40 MLOAD DUP1 SWAP2 SUB SWAP1 LOG2 POP POP PUSH2 0xE0E PUSH1 0x1 PUSH1 0x0 SSTORE JUMP JUMPDEST PUSH1 0x0 PUSH2 0xAD6 PUSH1 0xA DUP4 PUSH2 0x3700 JUMP JUMPDEST PUSH32 0xB9F13ECB5E7F0F859C44B76B3A163E504787B446DA95A26BF75E53E1FF4A1E0E PUSH2 0x1416 DUP2 PUSH2 0x340C JUMP JUMPDEST DUP3 PUSH1 0x0 JUMPDEST DUP2 DUP2 LT ISZERO PUSH2 0x14BF JUMPI PUSH1 0x0 DUP7 DUP7 DUP4 DUP2 DUP2 LT PUSH2 0x1436 JUMPI PUSH2 0x1436 PUSH2 0x4597 JUMP JUMPDEST SWAP1 POP PUSH1 0x20 MUL ADD PUSH1 0x20 DUP2 ADD SWAP1 PUSH2 0x144B SWAP2 SWAP1 PUSH2 0x427A JUMP JUMPDEST SWAP1 POP DUP5 ISZERO PUSH2 0x1464 JUMPI PUSH2 0x145E PUSH1 0xA DUP3 PUSH2 0x3722 JUMP JUMPDEST POP PUSH2 0x1471 JUMP JUMPDEST PUSH2 0x146F PUSH1 0xA DUP3 PUSH2 0x3737 JUMP JUMPDEST POP JUMPDEST DUP1 PUSH1 0x1 PUSH1 0x1 PUSH1 0xA0 SHL SUB AND PUSH32 0x2DF1CAD2A2659E001C3804C872F69655356013E35C18C2E77A5D568078AB788F DUP7 PUSH1 0x40 MLOAD PUSH2 0x14AE SWAP2 ISZERO ISZERO DUP2 MSTORE PUSH1 0x20 ADD SWAP1 JUMP JUMPDEST PUSH1 0x40 MLOAD DUP1 SWAP2 SUB SWAP1 LOG2 POP PUSH1 0x1 ADD PUSH2 0x141A JUMP JUMPDEST POP POP POP POP POP POP JUMP JUMPDEST PUSH2 0x14CF PUSH2 0x40E5 JUMP JUMPDEST PUSH1 0x1 PUSH1 0x1 PUSH1 0xA0 SHL SUB DUP3 AND PUSH1 0x0 SWAP1 DUP2 MSTORE PUSH1 0x13 PUSH1 0x20 SWAP1 DUP2 MSTORE PUSH1 0x40 DUP1 DUP4 KECCAK256 DUP7 DUP5 MSTORE SWAP1 SWAP2 MSTORE DUP2 KECCAK256 SLOAD SWAP1 DUP2 SWAP1 SUB PUSH2 0x1534 JUMPI POP POP PUSH1 0x40 DUP1 MLOAD PUSH1 0xC0 DUP2 ADD DUP3 MSTORE PUSH1 0x0 DUP1 DUP3 MSTORE PUSH1 0x20 DUP3 ADD DUP2 SWAP1 MSTORE SWAP2 DUP2 ADD DUP3 SWAP1 MSTORE PUSH1 0x60 DUP2 ADD DUP3 SWAP1 MSTORE PUSH1 0x80 DUP2 ADD DUP3 SWAP1 MSTORE PUSH1 0xA0 DUP2 ADD SWAP2 SWAP1 SWAP2 MSTORE PUSH2 0xAD6 JUMP JUMPDEST PUSH1 0x0 DUP5 DUP2 MSTORE PUSH1 0x11 PUSH1 0x20 MSTORE PUSH1 0x40 SWAP1 KECCAK256 PUSH2 0x154D PUSH1 0x1 DUP4 PUSH2 0x45F6 JUMP JUMPDEST DUP2 SLOAD DUP2 LT PUSH2 0x155D JUMPI PUSH2 0x155D PUSH2 0x4597 JUMP JUMPDEST PUSH1 0x0 SWAP2 DUP3 MSTORE PUSH1 0x20 SWAP2 DUP3 SWAP1 KECCAK256 PUSH1 0x40 DUP1 MLOAD PUSH1 0xC0 DUP2 ADD DUP3 MSTORE PUSH1 0x6 SWAP1 SWAP4 MUL SWAP1 SWAP2 ADD DUP1 SLOAD DUP4 MSTORE PUSH1 0x1 DUP2 ADD SLOAD PUSH1 0x1 PUSH1 0x1 PUSH1 0xA0 SHL SUB SWAP1 DUP2 AND SWAP5 DUP5 ADD SWAP5 SWAP1 SWAP5 MSTORE PUSH1 0x2 DUP2 ADD SLOAD SWAP2 DUP4 ADD SWAP2 SWAP1 SWAP2 MSTORE PUSH1 0x3 DUP2 ADD SLOAD SWAP1 SWAP3 AND PUSH1 0x60 DUP3 ADD MSTORE PUSH1 0x4 DUP3 ADD SLOAD PUSH1 0x80 DUP3 ADD MSTORE PUSH1 0x5 SWAP1 SWAP2 ADD SLOAD PUSH1 0xFF AND ISZERO ISZERO PUSH1 0xA0 DUP3 ADD MSTORE SWAP2 POP POP SWAP3 SWAP2 POP POP JUMP JUMPDEST PUSH2 0x15D9 PUSH2 0x34A3 JUMP JUMPDEST PUSH1 0x40 MLOAD PUSH4 0x2A5BB1B7 PUSH1 0xE1 SHL DUP2 MSTORE CALLER PUSH1 0x4 DUP3 ADD MSTORE ADDRESS SWAP1 PUSH4 0x54B7636E SWAP1 PUSH1 0x24 ADD PUSH1 0x20 PUSH1 0x40 MLOAD DUP1 DUP4 SUB DUP2 DUP7 GAS STATICCALL ISZERO DUP1 ISZERO PUSH2 0x1614 JUMPI RETURNDATASIZE PUSH1 0x0 DUP1 RETURNDATACOPY RETURNDATASIZE PUSH1 0x0 REVERT JUMPDEST POP POP POP POP PUSH1 0x40 MLOAD RETURNDATASIZE PUSH1 0x1F NOT PUSH1 0x1F DUP3 ADD AND DUP3 ADD DUP1 PUSH1 0x40 MSTORE POP DUP2 ADD SWAP1 PUSH2 0x1638 SWAP2 SWAP1 PUSH2 0x45C3 JUMP JUMPDEST PUSH1 0x40 MLOAD DUP1 PUSH1 0x40 ADD PUSH1 0x40 MSTORE DUP1 PUSH1 0xC DUP2 MSTORE PUSH1 0x20 ADD PUSH12 0x12D650C81C995C5D5A5C9959 PUSH1 0xA2 SHL DUP2 MSTORE POP SWAP1 PUSH2 0x167B JUMPI PUSH1 0x40 MLOAD PUSH3 0x461BCD PUSH1 0xE5 SHL DUP2 MSTORE PUSH1 0x4 ADD PUSH2 0xB3D SWAP2 SWAP1 PUSH2 0x4564 JUMP JUMPDEST POP DUP1 PUSH2 0x1686 DUP2 PUSH2 0x33D8 JUMP JUMPDEST PUSH1 0x40 MLOAD DUP1 PUSH1 0x40 ADD PUSH1 0x40 MSTORE DUP1 PUSH1 0x19 DUP2 MSTORE PUSH1 0x20 ADD PUSH25 0x14185E5B595B9D081D1BDAD95B881B9BDD08185B1B1BDDD959 PUSH1 0x3A SHL DUP2 MSTORE POP SWAP1 PUSH2 0x16D6 JUMPI PUSH1 0x40 MLOAD PUSH3 0x461BCD PUSH1 0xE5 SHL DUP2 MSTORE PUSH1 0x4 ADD PUSH2 0xB3D SWAP2 SWAP1 PUSH2 0x4564 JUMP JUMPDEST POP DUP3 PUSH1 0x0 DUP2 GT PUSH1 0x40 MLOAD DUP1 PUSH1 0x40 ADD PUSH1 0x40 MSTORE DUP1 PUSH1 0xE DUP2 MSTORE PUSH1 0x20 ADD PUSH14 0x125B9D985B1A5908185B5BDD5B9D PUSH1 0x92 SHL DUP2 MSTORE POP SWAP1 PUSH2 0x1721 JUMPI PUSH1 0x40 MLOAD PUSH3 0x461BCD PUSH1 0xE5 SHL DUP2 MSTORE PUSH1 0x4 ADD PUSH2 0xB3D SWAP2 SWAP1 PUSH2 0x4564 JUMP JUMPDEST POP PUSH1 0x40 MLOAD PUSH4 0x31A9108F PUSH1 0xE1 SHL DUP2 MSTORE PUSH1 0x4 DUP2 ADD DUP7 SWAP1 MSTORE CALLER SWAP1 PUSH1 0x1 PUSH1 0x1 PUSH1 0xA0 SHL SUB PUSH32 0x0 AND SWAP1 PUSH4 0x6352211E SWAP1 PUSH1 0x24 ADD PUSH1 0x20 PUSH1 0x40 MLOAD DUP1 DUP4 SUB DUP2 DUP7 GAS STATICCALL ISZERO DUP1 ISZERO PUSH2 0x1789 JUMPI RETURNDATASIZE PUSH1 0x0 DUP1 RETURNDATACOPY RETURNDATASIZE PUSH1 0x0 REVERT JUMPDEST POP POP POP POP PUSH1 0x40 MLOAD RETURNDATASIZE PUSH1 0x1F NOT PUSH1 0x1F DUP3 ADD AND DUP3 ADD DUP1 PUSH1 0x40 MSTORE POP DUP2 ADD SWAP1 PUSH2 0x17AD SWAP2 SWAP1 PUSH2 0x4609 JUMP JUMPDEST PUSH1 0x1 PUSH1 0x1 PUSH1 0xA0 SHL SUB AND EQ PUSH1 0x40 MLOAD DUP1 PUSH1 0x40 ADD PUSH1 0x40 MSTORE DUP1 PUSH1 0xD DUP2 MSTORE PUSH1 0x20 ADD PUSH13 0x2737BA1027232A1037BBB732B9 PUSH1 0x99 SHL DUP2 MSTORE POP SWAP1 PUSH2 0x17FB JUMPI PUSH1 0x40 MLOAD PUSH3 0x461BCD PUSH1 0xE5 SHL DUP2 MSTORE PUSH1 0x4 ADD PUSH2 0xB3D SWAP2 SWAP1 PUSH2 0x4564 JUMP JUMPDEST POP PUSH1 0x0 DUP1 DUP7 DUP2 MSTORE PUSH1 0x10 PUSH1 0x20 MSTORE PUSH1 0x40 SWAP1 KECCAK256 PUSH1 0x3 SWAP1 DUP2 ADD SLOAD PUSH1 0x1 PUSH1 0xA0 SHL SWAP1 DIV PUSH1 0xFF AND SWAP1 DUP2 GT ISZERO PUSH2 0x182B JUMPI PUSH2 0x182B PUSH2 0x442F JUMP JUMPDEST EQ ISZERO PUSH1 0x40 MLOAD DUP1 PUSH1 0x40 ADD PUSH1 0x40 MSTORE DUP1 PUSH1 0xE DUP2 MSTORE PUSH1 0x20 ADD PUSH14 0x105B1C9958591E481B1A5CDD1959 PUSH1 0x92 SHL DUP2 MSTORE POP SWAP1 PUSH2 0x1872 JUMPI PUSH1 0x40 MLOAD PUSH3 0x461BCD PUSH1 0xE5 SHL DUP2 MSTORE PUSH1 0x4 ADD PUSH2 0xB3D SWAP2 SWAP1 PUSH2 0x4564 JUMP JUMPDEST POP PUSH1 0x40 DUP1 MLOAD PUSH1 0xE0 DUP2 ADD DUP3 MSTORE DUP7 DUP2 MSTORE CALLER PUSH1 0x20 DUP1 DUP4 ADD SWAP2 DUP3 MSTORE DUP3 DUP5 ADD DUP9 DUP2 MSTORE PUSH1 0x1 PUSH1 0x1 PUSH1 0xA0 SHL SUB DUP9 DUP2 AND PUSH1 0x60 DUP7 ADD SWAP1 DUP2 MSTORE PUSH1 0x0 PUSH1 0x80 DUP8 ADD DUP2 DUP2 MSTORE TIMESTAMP PUSH1 0xA0 DUP10 ADD DUP2 SWAP1 MSTORE PUSH1 0xC0 DUP10 ADD MSTORE DUP14 DUP3 MSTORE PUSH1 0x10 SWAP1 SWAP6 MSTORE SWAP7 SWAP1 SWAP7 KECCAK256 DUP6 MLOAD DUP2 SSTORE SWAP4 MLOAD PUSH1 0x1 DUP6 ADD DUP1 SLOAD SWAP2 DUP4 AND PUSH1 0x1 PUSH1 0x1 PUSH1 0xA0 SHL SUB NOT SWAP3 DUP4 AND OR SWAP1 SSTORE SWAP2 MLOAD PUSH1 0x2 DUP6 ADD SSTORE SWAP5 MLOAD PUSH1 0x3 DUP1 DUP6 ADD DUP1 SLOAD SWAP3 SWAP1 SWAP8 AND SWAP3 DUP3 AND DUP4 OR DUP8 SSTORE SWAP3 MLOAD SWAP5 SWAP6 SWAP4 SWAP5 SWAP4 SWAP3 PUSH1 0x1 PUSH1 0x1 PUSH1 0xA8 SHL SUB NOT SWAP1 SWAP2 AND SWAP1 SWAP2 OR SWAP1 PUSH1 0x1 PUSH1 0xA0 SHL SWAP1 DUP5 SWAP1 DUP2 GT ISZERO PUSH2 0x192B JUMPI PUSH2 0x192B PUSH2 0x442F JUMP JUMPDEST MUL OR SWAP1 SSTORE POP PUSH1 0xA0 DUP3 ADD MLOAD PUSH1 0x4 DUP3 ADD SSTORE PUSH1 0xC0 SWAP1 SWAP2 ADD MLOAD PUSH1 0x5 SWAP1 SWAP2 ADD SSTORE PUSH1 0x40 DUP1 MLOAD DUP6 DUP2 MSTORE PUSH1 0x1 PUSH1 0x1 PUSH1 0xA0 SHL SUB DUP6 AND PUSH1 0x20 DUP3 ADD MSTORE CALLER SWAP2 DUP8 SWAP2 PUSH32 0x2C6C7576542D9307C65E21C836DA28FC580279667BA9E8D5FE56DCA491D59803 SWAP2 ADD PUSH1 0x40 MLOAD DUP1 SWAP2 SUB SWAP1 LOG3 POP POP PUSH2 0x1997 PUSH1 0x1 PUSH1 0x0 SSTORE JUMP JUMPDEST POP POP POP JUMP JUMPDEST PUSH1 0x0 DUP1 MLOAD PUSH1 0x20 PUSH2 0x476B DUP4 CODECOPY DUP2 MLOAD SWAP2 MSTORE PUSH2 0x19B5 DUP2 CALLER PUSH2 0x1DA3 JUMP JUMPDEST PUSH1 0x40 MLOAD DUP1 PUSH1 0x40 ADD PUSH1 0x40 MSTORE DUP1 PUSH1 0x11 DUP2 MSTORE PUSH1 0x20 ADD PUSH17 0x13DC195C985D1BDC881C995C5D5A5C9959 PUSH1 0x7A SHL DUP2 MSTORE POP SWAP1 PUSH2 0x19FD JUMPI PUSH1 0x40 MLOAD PUSH3 0x461BCD PUSH1 0xE5 SHL DUP2 MSTORE PUSH1 0x4 ADD PUSH2 0xB3D SWAP2 SWAP1 PUSH2 0x4564 JUMP JUMPDEST POP PUSH1 0x0 DUP5 DUP2 MSTORE PUSH1 0x10 PUSH1 0x20 MSTORE PUSH1 0x40 DUP2 KECCAK256 SWAP1 PUSH1 0x3 DUP3 DUP2 ADD SLOAD PUSH1 0x1 PUSH1 0xA0 SHL SWAP1 DIV PUSH1 0xFF AND SWAP1 DUP2 GT ISZERO PUSH2 0x1A2D JUMPI PUSH2 0x1A2D PUSH2 0x442F JUMP JUMPDEST EQ PUSH2 0x1A6F JUMPI PUSH1 0x40 MLOAD PUSH3 0x461BCD PUSH1 0xE5 SHL DUP2 MSTORE PUSH1 0x20 PUSH1 0x4 DUP3 ADD MSTORE PUSH1 0x12 PUSH1 0x24 DUP3 ADD MSTORE PUSH18 0x4E6F7420616374697665206C697374696E67 PUSH1 0x70 SHL PUSH1 0x44 DUP3 ADD MSTORE PUSH1 0x64 ADD PUSH2 0xB3D JUMP JUMPDEST PUSH1 0x0 DUP5 GT PUSH2 0x1AAF JUMPI PUSH1 0x40 MLOAD PUSH3 0x461BCD PUSH1 0xE5 SHL DUP2 MSTORE PUSH1 0x20 PUSH1 0x4 DUP3 ADD MSTORE PUSH1 0xD PUSH1 0x24 DUP3 ADD MSTORE PUSH13 0x496E76616C6964207072696365 PUSH1 0x98 SHL PUSH1 0x44 DUP3 ADD MSTORE PUSH1 0x64 ADD PUSH2 0xB3D JUMP JUMPDEST PUSH2 0x1AB8 DUP4 PUSH2 0x33D8 JUMP JUMPDEST PUSH2 0x1B00 JUMPI PUSH1 0x40 MLOAD PUSH3 0x461BCD PUSH1 0xE5 SHL DUP2 MSTORE PUSH1 0x20 PUSH1 0x4 DUP3 ADD MSTORE PUSH1 0x19 PUSH1 0x24 DUP3 ADD MSTORE PUSH25 0x14185E5B595B9D081D1BDAD95B881B9BDD08185B1B1BDDD959 PUSH1 0x3A SHL PUSH1 0x44 DUP3 ADD MSTORE PUSH1 0x64 ADD PUSH2 0xB3D JUMP JUMPDEST PUSH1 0x2 DUP2 ADD DUP5 SWAP1 SSTORE PUSH1 0x3 DUP2 ADD DUP1 SLOAD PUSH1 0x1 PUSH1 0x1 PUSH1 0xA0 SHL SUB NOT AND PUSH1 0x1 PUSH1 0x1 PUSH1 0xA0 SHL SUB DUP6 AND SWAP1 DUP2 OR SWAP1 SWAP2 SSTORE TIMESTAMP PUSH1 0x5 DUP4 ADD SSTORE PUSH1 0x40 DUP1 MLOAD DUP7 DUP2 MSTORE PUSH1 0x20 DUP2 ADD SWAP3 SWAP1 SWAP3 MSTORE DUP7 SWAP2 PUSH32 0xB82CB8D1EE5AA2AF90399F2B0ECE446B81A5F1E601DA16A2A2B62DFCC8BB4BA3 SWAP2 ADD JUMPDEST PUSH1 0x40 MLOAD DUP1 SWAP2 SUB SWAP1 LOG2 POP POP POP POP POP JUMP JUMPDEST PUSH1 0x0 DUP1 MLOAD PUSH1 0x20 PUSH2 0x476B DUP4 CODECOPY DUP2 MLOAD SWAP2 MSTORE PUSH2 0x1B89 DUP2 PUSH2 0x340C JUMP JUMPDEST PUSH1 0x1 PUSH1 0x1 PUSH1 0xA0 SHL SUB DUP3 AND PUSH2 0x1BDF JUMPI PUSH1 0x40 MLOAD PUSH3 0x461BCD PUSH1 0xE5 SHL DUP2 MSTORE PUSH1 0x20 PUSH1 0x4 DUP3 ADD MSTORE PUSH1 0x1D PUSH1 0x24 DUP3 ADD MSTORE PUSH32 0x496E76616C69642066656520636F6C6C6563746F722061646472657373000000 PUSH1 0x44 DUP3 ADD MSTORE PUSH1 0x64 ADD PUSH2 0xB3D JUMP JUMPDEST PUSH1 0x4 SLOAD DUP4 GT ISZERO PUSH2 0x1C23 JUMPI PUSH1 0x40 MLOAD PUSH3 0x461BCD PUSH1 0xE5 SHL DUP2 MSTORE PUSH1 0x20 PUSH1 0x4 DUP3 ADD MSTORE PUSH1 0xF PUSH1 0x24 DUP3 ADD MSTORE PUSH15 0x45786365656473206D617820666565 PUSH1 0x88 SHL PUSH1 0x44 DUP3 ADD MSTORE PUSH1 0x64 ADD PUSH2 0xB3D JUMP JUMPDEST PUSH1 0x3 DUP1 SLOAD PUSH1 0x4 SLOAD SWAP2 DUP6 SWAP1 SSTORE PUSH1 0x5 DUP1 SLOAD PUSH1 0x1 PUSH1 0x1 PUSH1 0xA0 SHL SUB NOT AND PUSH1 0x1 PUSH1 0x1 PUSH1 0xA0 SHL SUB DUP7 AND OR SWAP1 SSTORE PUSH1 0x40 DUP1 MLOAD DUP3 DUP2 MSTORE PUSH1 0x20 DUP2 ADD DUP8 SWAP1 MSTORE SWAP1 DUP2 ADD DUP4 SWAP1 MSTORE PUSH1 0x60 DUP2 ADD DUP4 SWAP1 MSTORE SWAP1 SWAP2 SWAP1 CALLER SWAP1 PUSH32 0x7C08EC61BFDC4469C5F8EC2332C513AC1E0980475856EFEDF21DA74933485447 SWAP1 PUSH1 0x80 ADD PUSH2 0x1B62 JUMP JUMPDEST PUSH1 0x0 DUP1 MLOAD PUSH1 0x20 PUSH2 0x476B DUP4 CODECOPY DUP2 MLOAD SWAP2 MSTORE PUSH2 0x1CAC DUP2 CALLER PUSH2 0x1DA3 JUMP JUMPDEST PUSH1 0x40 MLOAD DUP1 PUSH1 0x40 ADD PUSH1 0x40 MSTORE DUP1 PUSH1 0x11 DUP2 MSTORE PUSH1 0x20 ADD PUSH17 0x13DC195C985D1BDC881C995C5D5A5C9959 PUSH1 0x7A SHL DUP2 MSTORE POP SWAP1 PUSH2 0x1CF4 JUMPI PUSH1 0x40 MLOAD PUSH3 0x461BCD PUSH1 0xE5 SHL DUP2 MSTORE PUSH1 0x4 ADD PUSH2 0xB3D SWAP2 SWAP1 PUSH2 0x4564 JUMP JUMPDEST POP PUSH1 0x1 PUSH1 0x1 PUSH1 0xA0 SHL SUB DUP3 AND PUSH2 0x1D57 JUMPI PUSH1 0x40 MLOAD PUSH3 0x461BCD PUSH1 0xE5 SHL DUP2 MSTORE PUSH1 0x20 PUSH1 0x4 DUP3 ADD MSTORE PUSH1 0x23 PUSH1 0x24 DUP3 ADD MSTORE PUSH32 0x43616E6E6F742072656D6F766520455448206173207061796D656E74206D6574 PUSH1 0x44 DUP3 ADD MSTORE PUSH3 0x1A1BD9 PUSH1 0xEA SHL PUSH1 0x64 DUP3 ADD MSTORE PUSH1 0x84 ADD PUSH2 0xB3D JUMP JUMPDEST PUSH1 0x1 PUSH1 0x1 PUSH1 0xA0 SHL SUB DUP3 AND PUSH1 0x0 DUP2 DUP2 MSTORE PUSH1 0xE PUSH1 0x20 MSTORE PUSH1 0x40 DUP1 DUP3 KECCAK256 DUP1 SLOAD PUSH1 0xFF NOT AND SWAP1 SSTORE MLOAD CALLER SWAP3 SWAP2 PUSH32 0xF26A45171A2CEE53DC4409F66880AB4BD14F52DC6412965780895CA64ABFA923 SWAP2 LOG3 POP POP JUMP JUMPDEST PUSH1 0x0 SWAP2 DUP3 MSTORE PUSH1 0x1 PUSH1 0x20 SWAP1 DUP2 MSTORE PUSH1 0x40 DUP1 DUP5 KECCAK256 PUSH1 0x1 PUSH1 0x1 PUSH1 0xA0 SHL SUB SWAP4 SWAP1 SWAP4 AND DUP5 MSTORE SWAP2 SWAP1 MSTORE SWAP1 KECCAK256 SLOAD PUSH1 0xFF AND SWAP1 JUMP JUMPDEST PUSH2 0x1DD6 PUSH2 0x34A3 JUMP JUMPDEST CALLER PUSH1 0x0 SWAP1 DUP2 MSTORE PUSH1 0x13 PUSH1 0x20 SWAP1 DUP2 MSTORE PUSH1 0x40 DUP1 DUP4 KECCAK256 DUP5 DUP5 MSTORE SWAP1 SWAP2 MSTORE SWAP1 KECCAK256 SLOAD DUP1 PUSH2 0x1E34 JUMPI PUSH1 0x40 MLOAD PUSH3 0x461BCD PUSH1 0xE5 SHL DUP2 MSTORE PUSH1 0x20 PUSH1 0x4 DUP3 ADD MSTORE PUSH1 0x13 PUSH1 0x24 DUP3 ADD MSTORE PUSH19 0x139BC81858DD1A5D9948189A5908199BDD5B99 PUSH1 0x6A SHL PUSH1 0x44 DUP3 ADD MSTORE PUSH1 0x64 ADD PUSH2 0xB3D JUMP JUMPDEST PUSH1 0x0 DUP3 DUP2 MSTORE PUSH1 0x11 PUSH1 0x20 MSTORE PUSH1 0x40 DUP2 KECCAK256 PUSH2 0x1E4D PUSH1 0x1 DUP5 PUSH2 0x45F6 JUMP JUMPDEST DUP2 SLOAD DUP2 LT PUSH2 0x1E5D JUMPI PUSH2 0x1E5D PUSH2 0x4597 JUMP JUMPDEST PUSH1 0x0 SWAP2 DUP3 MSTORE PUSH1 0x20 SWAP1 SWAP2 KECCAK256 PUSH1 0x6 SWAP1 SWAP2 MUL ADD PUSH1 0x5 DUP2 ADD SLOAD SWAP1 SWAP2 POP PUSH1 0xFF AND PUSH2 0x1EB8 JUMPI PUSH1 0x40 MLOAD PUSH3 0x461BCD PUSH1 0xE5 SHL DUP2 MSTORE PUSH1 0x20 PUSH1 0x4 DUP3 ADD MSTORE PUSH1 0x11 PUSH1 0x24 DUP3 ADD MSTORE PUSH17 0x426964206973206E6F7420616374697665 PUSH1 0x78 SHL PUSH1 0x44 DUP3 ADD MSTORE PUSH1 0x64 ADD PUSH2 0xB3D JUMP JUMPDEST PUSH1 0x1 DUP2 ADD SLOAD PUSH1 0x1 PUSH1 0x1 PUSH1 0xA0 SHL SUB AND CALLER EQ PUSH2 0x1F03 JUMPI PUSH1 0x40 MLOAD PUSH3 0x461BCD PUSH1 0xE5 SHL DUP2 MSTORE PUSH1 0x20 PUSH1 0x4 DUP3 ADD MSTORE PUSH1 0xC PUSH1 0x24 DUP3 ADD MSTORE PUSH12 0x139BDD081E5BDD5C88189A59 PUSH1 0xA2 SHL PUSH1 0x44 DUP3 ADD MSTORE PUSH1 0x64 ADD PUSH2 0xB3D JUMP JUMPDEST PUSH1 0x5 DUP2 ADD DUP1 SLOAD PUSH1 0xFF NOT AND SWAP1 SSTORE CALLER PUSH1 0x0 DUP2 DUP2 MSTORE PUSH1 0x13 PUSH1 0x20 SWAP1 DUP2 MSTORE PUSH1 0x40 DUP1 DUP4 KECCAK256 DUP8 DUP5 MSTORE DUP3 MSTORE DUP1 DUP4 KECCAK256 DUP4 SWAP1 SSTORE PUSH1 0x12 DUP3 MSTORE DUP1 DUP4 KECCAK256 SWAP4 DUP4 MSTORE SWAP3 SWAP1 MSTORE SWAP1 DUP2 KECCAK256 DUP1 SLOAD SWAP2 SWAP1 SSTORE DUP1 ISZERO PUSH2 0x1FD5 JUMPI PUSH1 0x40 MLOAD PUSH1 0x0 SWAP1 CALLER SWAP1 DUP4 SWAP1 DUP4 DUP2 DUP2 DUP2 DUP6 DUP8 GAS CALL SWAP3 POP POP POP RETURNDATASIZE DUP1 PUSH1 0x0 DUP2 EQ PUSH2 0x1F89 JUMPI PUSH1 0x40 MLOAD SWAP2 POP PUSH1 0x1F NOT PUSH1 0x3F RETURNDATASIZE ADD AND DUP3 ADD PUSH1 0x40 MSTORE RETURNDATASIZE DUP3 MSTORE RETURNDATASIZE PUSH1 0x0 PUSH1 0x20 DUP5 ADD RETURNDATACOPY PUSH2 0x1F8E JUMP JUMPDEST PUSH1 0x60 SWAP2 POP JUMPDEST POP POP SWAP1 POP DUP1 PUSH2 0x1FD3 JUMPI PUSH1 0x40 MLOAD PUSH3 0x461BCD PUSH1 0xE5 SHL DUP2 MSTORE PUSH1 0x20 PUSH1 0x4 DUP3 ADD MSTORE PUSH1 0x11 PUSH1 0x24 DUP3 ADD MSTORE PUSH17 0x115512081C99599D5B990819985A5B1959 PUSH1 0x7A SHL PUSH1 0x44 DUP3 ADD MSTORE PUSH1 0x64 ADD PUSH2 0xB3D JUMP JUMPDEST POP JUMPDEST CALLER PUSH1 0x1 PUSH1 0x1 PUSH1 0xA0 SHL SUB AND DUP5 PUSH32 0xAF2F02012EA1953FE9293DD4A8BB5194C96792324F9385297C991C2CFEADE3D9 DUP5 PUSH1 0x2 ADD SLOAD PUSH1 0x40 MLOAD PUSH2 0x2015 SWAP2 DUP2 MSTORE PUSH1 0x20 ADD SWAP1 JUMP JUMPDEST PUSH1 0x40 MLOAD DUP1 SWAP2 SUB SWAP1 LOG3 POP POP POP PUSH2 0x202A PUSH1 0x1 PUSH1 0x0 SSTORE JUMP JUMPDEST POP JUMP JUMPDEST PUSH1 0x0 DUP1 MLOAD PUSH1 0x20 PUSH2 0x476B DUP4 CODECOPY DUP2 MLOAD SWAP2 MSTORE PUSH2 0x2045 DUP2 PUSH2 0x340C JUMP JUMPDEST PUSH1 0x1 PUSH1 0x1 PUSH1 0xA0 SHL SUB DUP5 AND PUSH1 0x0 SWAP1 DUP2 MSTORE PUSH1 0xC PUSH1 0x20 MSTORE PUSH1 0x40 DUP2 KECCAK256 SLOAD SWAP1 DUP4 ISZERO PUSH2 0x2076 JUMPI PUSH2 0x206F DUP6 DUP4 PUSH2 0x4626 JUMP JUMPDEST SWAP1 POP PUSH2 0x2091 JUMP JUMPDEST DUP5 DUP3 GT PUSH2 0x2084 JUMPI PUSH1 0x0 PUSH2 0x208E JUMP JUMPDEST PUSH2 0x208E DUP6 DUP4 PUSH2 0x45F6 JUMP JUMPDEST SWAP1 POP JUMPDEST PUSH1 0x1 PUSH1 0x1 PUSH1 0xA0 SHL SUB DUP7 AND PUSH1 0x0 DUP2 DUP2 MSTORE PUSH1 0xC PUSH1 0x20 SWAP1 DUP2 MSTORE PUSH1 0x40 SWAP2 DUP3 SWAP1 KECCAK256 DUP5 SWAP1 SSTORE DUP2 MLOAD DUP6 DUP2 MSTORE SWAP1 DUP2 ADD DUP5 SWAP1 MSTORE PUSH32 0x7681C9BC4703DAADFDFBFAE0BD1C828B4619E58101F0E8A5404F70E93C628663 SWAP2 ADD PUSH2 0x10B8 JUMP JUMPDEST PUSH2 0x20EB PUSH2 0x34A3 JUMP JUMPDEST PUSH1 0x40 MLOAD PUSH4 0x2A5BB1B7 PUSH1 0xE1 SHL DUP2 MSTORE CALLER PUSH1 0x4 DUP3 ADD MSTORE ADDRESS SWAP1 PUSH4 0x54B7636E SWAP1 PUSH1 0x24 ADD PUSH1 0x20 PUSH1 0x40 MLOAD DUP1 DUP4 SUB DUP2 DUP7 GAS STATICCALL ISZERO DUP1 ISZERO PUSH2 0x2126 JUMPI RETURNDATASIZE PUSH1 0x0 DUP1 RETURNDATACOPY RETURNDATASIZE PUSH1 0x0 REVERT JUMPDEST POP POP POP POP PUSH1 0x40 MLOAD RETURNDATASIZE PUSH1 0x1F NOT PUSH1 0x1F DUP3 ADD AND DUP3 ADD DUP1 PUSH1 0x40 MSTORE POP DUP2 ADD SWAP1 PUSH2 0x214A SWAP2 SWAP1 PUSH2 0x45C3 JUMP JUMPDEST PUSH1 0x40 MLOAD DUP1 PUSH1 0x40 ADD PUSH1 0x40 MSTORE DUP1 PUSH1 0xC DUP2 MSTORE PUSH1 0x20 ADD PUSH12 0x12D650C81C995C5D5A5C9959 PUSH1 0xA2 SHL DUP2 MSTORE POP SWAP1 PUSH2 0x218D JUMPI PUSH1 0x40 MLOAD PUSH3 0x461BCD PUSH1 0xE5 SHL DUP2 MSTORE PUSH1 0x4 ADD PUSH2 0xB3D SWAP2 SWAP1 PUSH2 0x4564 JUMP JUMPDEST POP DUP1 PUSH2 0x2198 DUP2 PUSH2 0x33D8 JUMP JUMPDEST PUSH1 0x40 MLOAD DUP1 PUSH1 0x40 ADD PUSH1 0x40 MSTORE DUP1 PUSH1 0x19 DUP2 MSTORE PUSH1 0x20 ADD PUSH25 0x14185E5B595B9D081D1BDAD95B881B9BDD08185B1B1BDDD959 PUSH1 0x3A SHL DUP2 MSTORE POP SWAP1 PUSH2 0x21E8 JUMPI PUSH1 0x40 MLOAD PUSH3 0x461BCD PUSH1 0xE5 SHL DUP2 MSTORE PUSH1 0x4 ADD PUSH2 0xB3D SWAP2 SWAP1 PUSH2 0x4564 JUMP JUMPDEST POP DUP3 PUSH1 0x0 DUP2 GT PUSH1 0x40 MLOAD DUP1 PUSH1 0x40 ADD PUSH1 0x40 MSTORE DUP1 PUSH1 0xE DUP2 MSTORE PUSH1 0x20 ADD PUSH14 0x125B9D985B1A5908185B5BDD5B9D PUSH1 0x92 SHL DUP2 MSTORE POP SWAP1 PUSH2 0x2233 JUMPI PUSH1 0x40 MLOAD PUSH3 0x461BCD PUSH1 0xE5 SHL DUP2 MSTORE PUSH1 0x4 ADD PUSH2 0xB3D SWAP2 SWAP1 PUSH2 0x4564 JUMP JUMPDEST POP PUSH1 0x0 DUP6 DUP2 MSTORE PUSH1 0x10 PUSH1 0x20 MSTORE PUSH1 0x40 DUP2 KECCAK256 SWAP1 PUSH1 0x3 DUP3 DUP2 ADD SLOAD PUSH1 0x1 PUSH1 0xA0 SHL SWAP1 DIV PUSH1 0xFF AND SWAP1 DUP2 GT ISZERO PUSH2 0x2263 JUMPI PUSH2 0x2263 PUSH2 0x442F JUMP JUMPDEST EQ PUSH1 0x40 MLOAD DUP1 PUSH1 0x40 ADD PUSH1 0x40 MSTORE DUP1 PUSH1 0x13 DUP2 MSTORE PUSH1 0x20 ADD PUSH19 0x141C9BDC195C9D1E481B9BDD081B1A5CDD1959 PUSH1 0x6A SHL DUP2 MSTORE POP SWAP1 PUSH2 0x22AE JUMPI PUSH1 0x40 MLOAD PUSH3 0x461BCD PUSH1 0xE5 SHL DUP2 MSTORE PUSH1 0x4 ADD PUSH2 0xB3D SWAP2 SWAP1 PUSH2 0x4564 JUMP JUMPDEST POP PUSH1 0x1 DUP2 ADD SLOAD PUSH1 0x40 DUP1 MLOAD DUP1 DUP3 ADD SWAP1 SWAP2 MSTORE PUSH1 0x1E DUP2 MSTORE PUSH32 0x43616E6E6F7420626964206F6E20796F7572206F776E206C697374696E670000 PUSH1 0x20 DUP3 ADD MSTORE SWAP1 PUSH1 0x1 PUSH1 0x1 PUSH1 0xA0 SHL SUB AND CALLER SUB PUSH2 0x2311 JUMPI PUSH1 0x40 MLOAD PUSH3 0x461BCD PUSH1 0xE5 SHL DUP2 MSTORE PUSH1 0x4 ADD PUSH2 0xB3D SWAP2 SWAP1 PUSH2 0x4564 JUMP JUMPDEST POP CALLER PUSH1 0x0 SWAP1 DUP2 MSTORE PUSH1 0x13 PUSH1 0x20 SWAP1 DUP2 MSTORE PUSH1 0x40 DUP1 DUP4 KECCAK256 DUP10 DUP5 MSTORE SWAP1 SWAP2 MSTORE SWAP1 KECCAK256 SLOAD PUSH1 0x1 PUSH1 0x1 PUSH1 0xA0 SHL SUB DUP6 AND PUSH2 0x23B4 JUMPI DUP6 CALLVALUE EQ PUSH2 0x2380 JUMPI PUSH1 0x40 MLOAD PUSH3 0x461BCD PUSH1 0xE5 SHL DUP2 MSTORE PUSH1 0x20 PUSH1 0x4 DUP3 ADD MSTORE PUSH1 0x13 PUSH1 0x24 DUP3 ADD MSTORE PUSH19 0x8AA89040C2DADEEADCE840DAD2E6DAC2E8C6D PUSH1 0x6B SHL PUSH1 0x44 DUP3 ADD MSTORE PUSH1 0x64 ADD PUSH2 0xB3D JUMP JUMPDEST PUSH1 0x0 DUP8 DUP2 MSTORE PUSH1 0x12 PUSH1 0x20 SWAP1 DUP2 MSTORE PUSH1 0x40 DUP1 DUP4 KECCAK256 CALLER DUP5 MSTORE SWAP1 SWAP2 MSTORE DUP2 KECCAK256 DUP1 SLOAD CALLVALUE SWAP3 SWAP1 PUSH2 0x23A9 SWAP1 DUP5 SWAP1 PUSH2 0x4626 JUMP JUMPDEST SWAP1 SWAP2 SSTORE POP PUSH2 0x247C SWAP1 POP JUMP JUMPDEST PUSH1 0x40 MLOAD PUSH4 0x6EB1769F PUSH1 0xE1 SHL DUP2 MSTORE CALLER PUSH1 0x4 DUP3 ADD MSTORE ADDRESS PUSH1 0x24 DUP3 ADD MSTORE DUP6 SWAP1 PUSH1 0x0 SWAP1 PUSH1 0x1 PUSH1 0x1 PUSH1 0xA0 SHL SUB DUP4 AND SWAP1 PUSH4 0xDD62ED3E SWAP1 PUSH1 0x44 ADD PUSH1 0x20 PUSH1 0x40 MLOAD DUP1 DUP4 SUB DUP2 DUP7 GAS STATICCALL ISZERO DUP1 ISZERO PUSH2 0x2403 JUMPI RETURNDATASIZE PUSH1 0x0 DUP1 RETURNDATACOPY RETURNDATASIZE PUSH1 0x0 REVERT JUMPDEST POP POP POP POP PUSH1 0x40 MLOAD RETURNDATASIZE PUSH1 0x1F NOT PUSH1 0x1F DUP3 ADD AND DUP3 ADD DUP1 PUSH1 0x40 MSTORE POP DUP2 ADD SWAP1 PUSH2 0x2427 SWAP2 SWAP1 PUSH2 0x4639 JUMP JUMPDEST SWAP1 POP DUP8 DUP2 LT ISZERO PUSH2 0x2479 JUMPI PUSH1 0x40 MLOAD PUSH3 0x461BCD PUSH1 0xE5 SHL DUP2 MSTORE PUSH1 0x20 PUSH1 0x4 DUP3 ADD MSTORE PUSH1 0x1C PUSH1 0x24 DUP3 ADD MSTORE PUSH32 0x496E73756666696369656E7420746F6B656E20616C6C6F77616E636500000000 PUSH1 0x44 DUP3 ADD MSTORE PUSH1 0x64 ADD PUSH2 0xB3D JUMP JUMPDEST POP POP JUMPDEST DUP2 PUSH1 0x2 ADD SLOAD DUP7 LT ISZERO PUSH2 0x24D0 JUMPI PUSH1 0x40 MLOAD PUSH3 0x461BCD PUSH1 0xE5 SHL DUP2 MSTORE PUSH1 0x20 PUSH1 0x4 DUP3 ADD MSTORE PUSH1 0x1B PUSH1 0x24 DUP3 ADD MSTORE PUSH32 0x426964206D757374206D656574206C697374696E672070726963650000000000 PUSH1 0x44 DUP3 ADD MSTORE PUSH1 0x64 ADD PUSH2 0xB3D JUMP JUMPDEST PUSH1 0x0 DUP8 DUP2 MSTORE PUSH1 0x11 PUSH1 0x20 MSTORE PUSH1 0x40 DUP2 KECCAK256 DUP2 JUMPDEST DUP2 SLOAD DUP2 LT ISZERO PUSH2 0x257E JUMPI DUP2 DUP2 DUP2 SLOAD DUP2 LT PUSH2 0x24FB JUMPI PUSH2 0x24FB PUSH2 0x4597 JUMP JUMPDEST PUSH1 0x0 SWAP2 DUP3 MSTORE PUSH1 0x20 SWAP1 SWAP2 KECCAK256 PUSH1 0x5 PUSH1 0x6 SWAP1 SWAP3 MUL ADD ADD SLOAD PUSH1 0xFF AND DUP1 ISZERO PUSH2 0x2540 JUMPI POP DUP3 DUP3 DUP3 DUP2 SLOAD DUP2 LT PUSH2 0x252C JUMPI PUSH2 0x252C PUSH2 0x4597 JUMP JUMPDEST SWAP1 PUSH1 0x0 MSTORE PUSH1 0x20 PUSH1 0x0 KECCAK256 SWAP1 PUSH1 0x6 MUL ADD PUSH1 0x2 ADD SLOAD GT JUMPDEST ISZERO PUSH2 0x256C JUMPI DUP2 DUP2 DUP2 SLOAD DUP2 LT PUSH2 0x2557 JUMPI PUSH2 0x2557 PUSH2 0x4597 JUMP JUMPDEST SWAP1 PUSH1 0x0 MSTORE PUSH1 0x20 PUSH1 0x0 KECCAK256 SWAP1 PUSH1 0x6 MUL ADD PUSH1 0x2 ADD SLOAD SWAP3 POP JUMPDEST DUP1 PUSH2 0x2576 DUP2 PUSH2 0x4652 JUMP JUMPDEST SWAP2 POP POP PUSH2 0x24E0 JUMP JUMPDEST POP DUP2 ISZERO PUSH2 0x260F JUMPI PUSH1 0x0 PUSH1 0x64 PUSH2 0x2594 PUSH1 0x5 DUP3 PUSH2 0x4626 JUMP JUMPDEST PUSH2 0x259E SWAP1 DUP6 PUSH2 0x466B JUMP JUMPDEST PUSH2 0x25A8 SWAP2 SWAP1 PUSH2 0x4682 JUMP JUMPDEST SWAP1 POP DUP1 DUP10 LT ISZERO PUSH2 0x260D JUMPI PUSH1 0x40 MLOAD PUSH3 0x461BCD PUSH1 0xE5 SHL DUP2 MSTORE PUSH1 0x20 PUSH1 0x4 DUP3 ADD MSTORE PUSH1 0x2A PUSH1 0x24 DUP3 ADD MSTORE PUSH32 0x426964206D75737420626520352520686967686572207468616E206375727265 PUSH1 0x44 DUP3 ADD MSTORE PUSH10 0x1B9D081A1A59DA195CDD PUSH1 0xB2 SHL PUSH1 0x64 DUP3 ADD MSTORE PUSH1 0x84 ADD PUSH2 0xB3D JUMP JUMPDEST POP JUMPDEST DUP3 ISZERO PUSH2 0x2792 JUMPI PUSH1 0x0 DUP10 DUP2 MSTORE PUSH1 0x11 PUSH1 0x20 MSTORE PUSH1 0x40 DUP2 KECCAK256 PUSH2 0x262E PUSH1 0x1 DUP7 PUSH2 0x45F6 JUMP JUMPDEST DUP2 SLOAD DUP2 LT PUSH2 0x263E JUMPI PUSH2 0x263E PUSH2 0x4597 JUMP JUMPDEST PUSH1 0x0 SWAP2 DUP3 MSTORE PUSH1 0x20 SWAP1 SWAP2 KECCAK256 PUSH1 0x6 SWAP1 SWAP2 MUL ADD PUSH1 0x5 DUP2 ADD SLOAD SWAP1 SWAP2 POP PUSH1 0xFF AND PUSH2 0x2699 JUMPI PUSH1 0x40 MLOAD PUSH3 0x461BCD PUSH1 0xE5 SHL DUP2 MSTORE PUSH1 0x20 PUSH1 0x4 DUP3 ADD MSTORE PUSH1 0x11 PUSH1 0x24 DUP3 ADD MSTORE PUSH17 0x426964206973206E6F7420616374697665 PUSH1 0x78 SHL PUSH1 0x44 DUP3 ADD MSTORE PUSH1 0x64 ADD PUSH2 0xB3D JUMP JUMPDEST PUSH1 0x3 DUP2 ADD SLOAD PUSH1 0x1 PUSH1 0x1 PUSH1 0xA0 SHL SUB DUP10 DUP2 AND SWAP2 AND EQ PUSH2 0x26F8 JUMPI PUSH1 0x40 MLOAD PUSH3 0x461BCD PUSH1 0xE5 SHL DUP2 MSTORE PUSH1 0x20 PUSH1 0x4 DUP3 ADD MSTORE PUSH1 0x1B PUSH1 0x24 DUP3 ADD MSTORE PUSH32 0x43616E6E6F74206368616E6765207061796D656E7420746F6B656E0000000000 PUSH1 0x44 DUP3 ADD MSTORE PUSH1 0x64 ADD PUSH2 0xB3D JUMP JUMPDEST PUSH1 0x0 PUSH1 0x64 PUSH2 0x2707 PUSH1 0x5 DUP3 PUSH2 0x4626 JUMP JUMPDEST DUP4 PUSH1 0x2 ADD SLOAD PUSH2 0x2716 SWAP2 SWAP1 PUSH2 0x466B JUMP JUMPDEST PUSH2 0x2720 SWAP2 SWAP1 PUSH2 0x4682 JUMP JUMPDEST SWAP1 POP DUP1 DUP11 LT ISZERO PUSH2 0x277E JUMPI PUSH1 0x40 MLOAD PUSH3 0x461BCD PUSH1 0xE5 SHL DUP2 MSTORE PUSH1 0x20 PUSH1 0x4 DUP3 ADD MSTORE PUSH1 0x23 PUSH1 0x24 DUP3 ADD MSTORE PUSH32 0x426964206D75737420626520352520686967686572207468616E207072657669 PUSH1 0x44 DUP3 ADD MSTORE PUSH3 0x6F7573 PUSH1 0xE8 SHL PUSH1 0x64 DUP3 ADD MSTORE PUSH1 0x84 ADD PUSH2 0xB3D JUMP JUMPDEST POP PUSH1 0x2 DUP2 ADD DUP10 SWAP1 SSTORE TIMESTAMP PUSH1 0x4 SWAP1 SWAP2 ADD SSTORE PUSH2 0x2902 JUMP JUMPDEST PUSH1 0x0 PUSH1 0x40 MLOAD DUP1 PUSH1 0xC0 ADD PUSH1 0x40 MSTORE DUP1 DUP12 DUP2 MSTORE PUSH1 0x20 ADD CALLER PUSH1 0x1 PUSH1 0x1 PUSH1 0xA0 SHL SUB AND DUP2 MSTORE PUSH1 0x20 ADD DUP11 DUP2 MSTORE PUSH1 0x20 ADD DUP10 PUSH1 0x1 PUSH1 0x1 PUSH1 0xA0 SHL SUB AND DUP2 MSTORE PUSH1 0x20 ADD TIMESTAMP DUP2 MSTORE PUSH1 0x20 ADD PUSH1 0x1 ISZERO ISZERO DUP2 MSTORE POP SWAP1 POP PUSH1 0x11 PUSH1 0x0 DUP12 DUP2 MSTORE PUSH1 0x20 ADD SWAP1 DUP2 MSTORE PUSH1 0x20 ADD PUSH1 0x0 KECCAK256 DUP2 SWAP1 DUP1 PUSH1 0x1 DUP2 SLOAD ADD DUP1 DUP3 SSTORE DUP1 SWAP2 POP POP PUSH1 0x1 SWAP1 SUB SWAP1 PUSH1 0x0 MSTORE PUSH1 0x20 PUSH1 0x0 KECCAK256 SWAP1 PUSH1 0x6 MUL ADD PUSH1 0x0 SWAP1 SWAP2 SWAP1 SWAP2 SWAP1 SWAP2 POP PUSH1 0x0 DUP3 ADD MLOAD DUP2 PUSH1 0x0 ADD SSTORE PUSH1 0x20 DUP3 ADD MLOAD DUP2 PUSH1 0x1 ADD PUSH1 0x0 PUSH2 0x100 EXP DUP2 SLOAD DUP2 PUSH1 0x1 PUSH1 0x1 PUSH1 0xA0 SHL SUB MUL NOT AND SWAP1 DUP4 PUSH1 0x1 PUSH1 0x1 PUSH1 0xA0 SHL SUB AND MUL OR SWAP1 SSTORE POP PUSH1 0x40 DUP3 ADD MLOAD DUP2 PUSH1 0x2 ADD SSTORE PUSH1 0x60 DUP3 ADD MLOAD DUP2 PUSH1 0x3 ADD PUSH1 0x0 PUSH2 0x100 EXP DUP2 SLOAD DUP2 PUSH1 0x1 PUSH1 0x1 PUSH1 0xA0 SHL SUB MUL NOT AND SWAP1 DUP4 PUSH1 0x1 PUSH1 0x1 PUSH1 0xA0 SHL SUB AND MUL OR SWAP1 SSTORE POP PUSH1 0x80 DUP3 ADD MLOAD DUP2 PUSH1 0x4 ADD SSTORE PUSH1 0xA0 DUP3 ADD MLOAD DUP2 PUSH1 0x5 ADD PUSH1 0x0 PUSH2 0x100 EXP DUP2 SLOAD DUP2 PUSH1 0xFF MUL NOT AND SWAP1 DUP4 ISZERO ISZERO MUL OR SWAP1 SSTORE POP POP POP PUSH1 0x11 PUSH1 0x0 DUP12 DUP2 MSTORE PUSH1 0x20 ADD SWAP1 DUP2 MSTORE PUSH1 0x20 ADD PUSH1 0x0 KECCAK256 DUP1 SLOAD SWAP1 POP PUSH1 0x13 PUSH1 0x0 CALLER PUSH1 0x1 PUSH1 0x1 PUSH1 0xA0 SHL SUB AND PUSH1 0x1 PUSH1 0x1 PUSH1 0xA0 SHL SUB AND DUP2 MSTORE PUSH1 0x20 ADD SWAP1 DUP2 MSTORE PUSH1 0x20 ADD PUSH1 0x0 KECCAK256 PUSH1 0x0 DUP13 DUP2 MSTORE PUSH1 0x20 ADD SWAP1 DUP2 MSTORE PUSH1 0x20 ADD PUSH1 0x0 KECCAK256 DUP2 SWAP1 SSTORE POP POP JUMPDEST PUSH1 0x40 DUP1 MLOAD DUP10 DUP2 MSTORE PUSH1 0x1 PUSH1 0x1 PUSH1 0xA0 SHL SUB DUP10 AND PUSH1 0x20 DUP3 ADD MSTORE CALLER SWAP2 DUP12 SWAP2 PUSH32 0xE30ABCCEBB20A387BE8E75E927D7E06CE1BF9D77BB3888516663BDC8995FB334 SWAP2 ADD PUSH1 0x40 MLOAD DUP1 SWAP2 SUB SWAP1 LOG3 POP POP POP POP POP POP PUSH2 0x1997 PUSH1 0x1 PUSH1 0x0 SSTORE JUMP JUMPDEST PUSH1 0x0 DUP1 PUSH2 0x2963 PUSH1 0x8 SLOAD SWAP1 JUMP JUMPDEST SWAP1 POP PUSH1 0x0 PUSH2 0x2970 DUP6 PUSH2 0x374C JUMP JUMPDEST SWAP1 POP PUSH2 0x2710 DUP2 DUP4 PUSH1 0x6 PUSH1 0x0 ADD SLOAD PUSH2 0x2987 SWAP2 SWAP1 PUSH2 0x4626 JUMP JUMPDEST PUSH2 0x2991 SWAP2 SWAP1 PUSH2 0x4626 JUMP JUMPDEST PUSH2 0x299B SWAP1 DUP7 PUSH2 0x466B JUMP JUMPDEST PUSH2 0x29A5 SWAP2 SWAP1 PUSH2 0x4682 JUMP JUMPDEST SWAP6 SWAP5 POP POP POP POP POP JUMP JUMPDEST PUSH1 0x11 PUSH1 0x20 MSTORE DUP2 PUSH1 0x0 MSTORE PUSH1 0x40 PUSH1 0x0 KECCAK256 DUP2 DUP2 SLOAD DUP2 LT PUSH2 0x29CA JUMPI PUSH1 0x0 DUP1 REVERT JUMPDEST PUSH1 0x0 SWAP2 DUP3 MSTORE PUSH1 0x20 SWAP1 SWAP2 KECCAK256 PUSH1 0x6 SWAP1 SWAP2 MUL ADD DUP1 SLOAD PUSH1 0x1 DUP3 ADD SLOAD PUSH1 0x2 DUP4 ADD SLOAD PUSH1 0x3 DUP5 ADD SLOAD PUSH1 0x4 DUP6 ADD SLOAD PUSH1 0x5 SWAP1 SWAP6 ADD SLOAD SWAP4 SWAP7 POP PUSH1 0x1 PUSH1 0x1 PUSH1 0xA0 SHL SUB SWAP3 DUP4 AND SWAP6 POP SWAP1 SWAP4 SWAP2 AND SWAP2 PUSH1 0xFF AND DUP7 JUMP JUMPDEST PUSH1 0x0 PUSH2 0x2A1C DUP2 PUSH2 0x340C JUMP JUMPDEST PUSH2 0x202A PUSH2 0x377E JUMP JUMPDEST PUSH1 0x0 PUSH2 0x2A2F DUP2 PUSH2 0x340C JUMP JUMPDEST POP PUSH1 0x0 SWAP2 DUP3 MSTORE PUSH1 0xD PUSH1 0x20 MSTORE PUSH1 0x40 SWAP1 SWAP2 KECCAK256 DUP1 SLOAD PUSH1 0xFF NOT AND SWAP2 ISZERO ISZERO SWAP2 SWAP1 SWAP2 OR SWAP1 SSTORE JUMP JUMPDEST PUSH1 0x0 DUP3 DUP2 MSTORE PUSH1 0x1 PUSH1 0x20 DUP2 SWAP1 MSTORE PUSH1 0x40 SWAP1 SWAP2 KECCAK256 ADD SLOAD PUSH2 0x2A6C DUP2 PUSH2 0x340C JUMP JUMPDEST PUSH2 0x2A76 DUP4 DUP4 PUSH2 0x37D0 JUMP JUMPDEST PUSH1 0x40 MLOAD CALLER SWAP1 PUSH1 0x1 PUSH1 0x1 PUSH1 0xA0 SHL SUB DUP5 AND SWAP1 DUP6 SWAP1 PUSH32 0x77A3124D5A7FB118EF3BD073FD7EE2C762B24256DB96ACE524ECD6B6CF11415C SWAP1 PUSH1 0x0 SWAP1 LOG4 POP POP POP JUMP JUMPDEST PUSH2 0x2ABB PUSH2 0x34A3 JUMP JUMPDEST PUSH1 0x0 DUP6 DUP2 MSTORE PUSH1 0x10 PUSH1 0x20 MSTORE PUSH1 0x40 DUP2 KECCAK256 SWAP1 PUSH1 0x3 DUP3 DUP2 ADD SLOAD PUSH1 0x1 PUSH1 0xA0 SHL SWAP1 DIV PUSH1 0xFF AND SWAP1 DUP2 GT ISZERO PUSH2 0x2AEA JUMPI PUSH2 0x2AEA PUSH2 0x442F JUMP JUMPDEST EQ PUSH2 0x2B2D JUMPI PUSH1 0x40 MLOAD PUSH3 0x461BCD PUSH1 0xE5 SHL DUP2 MSTORE PUSH1 0x20 PUSH1 0x4 DUP3 ADD MSTORE PUSH1 0x13 PUSH1 0x24 DUP3 ADD MSTORE PUSH19 0x141C9BDC195C9D1E481B9BDD081B1A5CDD1959 PUSH1 0x6A SHL PUSH1 0x44 DUP3 ADD MSTORE PUSH1 0x64 ADD PUSH2 0xB3D JUMP JUMPDEST PUSH1 0x1 DUP2 ADD SLOAD PUSH1 0x40 DUP1 MLOAD DUP1 DUP3 ADD SWAP1 SWAP2 MSTORE PUSH1 0xE DUP2 MSTORE PUSH14 0x2737BA103A34329039B2B63632B9 PUSH1 0x91 SHL PUSH1 0x20 DUP3 ADD MSTORE SWAP1 PUSH1 0x1 PUSH1 0x1 PUSH1 0xA0 SHL SUB AND CALLER EQ PUSH2 0x2B80 JUMPI PUSH1 0x40 MLOAD PUSH3 0x461BCD PUSH1 0xE5 SHL DUP2 MSTORE PUSH1 0x4 ADD PUSH2 0xB3D SWAP2 SWAP1 PUSH2 0x4564 JUMP JUMPDEST POP PUSH1 0x40 DUP1 MLOAD DUP1 DUP3 ADD SWAP1 SWAP2 MSTORE PUSH1 0x11 DUP2 MSTORE PUSH17 0x92DCECC2D8D2C840C4D2C840D2DCC8CAF PUSH1 0x7B SHL PUSH1 0x20 DUP3 ADD MSTORE DUP6 PUSH2 0x2BC7 JUMPI PUSH1 0x40 MLOAD PUSH3 0x461BCD PUSH1 0xE5 SHL DUP2 MSTORE PUSH1 0x4 ADD PUSH2 0xB3D SWAP2 SWAP1 PUSH2 0x4564 JUMP JUMPDEST POP PUSH1 0x0 DUP7 DUP2 MSTORE PUSH1 0x11 PUSH1 0x20 DUP2 DUP2 MSTORE PUSH1 0x40 SWAP3 DUP4 SWAP1 KECCAK256 SLOAD DUP4 MLOAD DUP1 DUP6 ADD SWAP1 SWAP5 MSTORE SWAP2 DUP4 MSTORE PUSH17 0x92DCECC2D8D2C840C4D2C840D2DCC8CAF PUSH1 0x7B SHL SWAP1 DUP4 ADD MSTORE DUP7 GT ISZERO PUSH2 0x2C1F JUMPI PUSH1 0x40 MLOAD PUSH3 0x461BCD PUSH1 0xE5 SHL DUP2 MSTORE PUSH1 0x4 ADD PUSH2 0xB3D SWAP2 SWAP1 PUSH2 0x4564 JUMP JUMPDEST POP PUSH1 0x0 DUP7 DUP2 MSTORE PUSH1 0x11 PUSH1 0x20 MSTORE PUSH1 0x40 DUP2 KECCAK256 PUSH2 0x2C39 PUSH1 0x1 DUP9 PUSH2 0x45F6 JUMP JUMPDEST DUP2 SLOAD DUP2 LT PUSH2 0x2C49 JUMPI PUSH2 0x2C49 PUSH2 0x4597 JUMP JUMPDEST SWAP1 PUSH1 0x0 MSTORE PUSH1 0x20 PUSH1 0x0 KECCAK256 SWAP1 PUSH1 0x6 MUL ADD SWAP1 POP DUP1 PUSH1 0x5 ADD PUSH1 0x0 SWAP1 SLOAD SWAP1 PUSH2 0x100 EXP SWAP1 DIV PUSH1 0xFF AND PUSH1 0x40 MLOAD DUP1 PUSH1 0x40 ADD PUSH1 0x40 MSTORE DUP1 PUSH1 0x11 DUP2 MSTORE PUSH1 0x20 ADD PUSH17 0x426964206973206E6F7420616374697665 PUSH1 0x78 SHL DUP2 MSTORE POP SWAP1 PUSH2 0x2CB3 JUMPI PUSH1 0x40 MLOAD PUSH3 0x461BCD PUSH1 0xE5 SHL DUP2 MSTORE PUSH1 0x4 ADD PUSH2 0xB3D SWAP2 SWAP1 PUSH2 0x4564 JUMP JUMPDEST POP PUSH1 0x1 DUP2 ADD SLOAD PUSH1 0x40 DUP1 MLOAD DUP1 DUP3 ADD SWAP1 SWAP2 MSTORE PUSH1 0xF DUP2 MSTORE PUSH15 0x84D2C8C8CAE440DAD2E6DAC2E8C6D PUSH1 0x8B SHL PUSH1 0x20 DUP3 ADD MSTORE SWAP1 PUSH1 0x1 PUSH1 0x1 PUSH1 0xA0 SHL SUB DUP8 DUP2 AND SWAP2 AND EQ PUSH2 0x2D0B JUMPI PUSH1 0x40 MLOAD PUSH3 0x461BCD PUSH1 0xE5 SHL DUP2 MSTORE PUSH1 0x4 ADD PUSH2 0xB3D SWAP2 SWAP1 PUSH2 0x4564 JUMP JUMPDEST POP DUP4 DUP2 PUSH1 0x2 ADD SLOAD EQ PUSH1 0x40 MLOAD DUP1 PUSH1 0x40 ADD PUSH1 0x40 MSTORE DUP1 PUSH1 0xF DUP2 MSTORE PUSH1 0x20 ADD PUSH15 0x82DADEEADCE840DAD2E6DAC2E8C6D PUSH1 0x8B SHL DUP2 MSTORE POP SWAP1 PUSH2 0x2D59 JUMPI PUSH1 0x40 MLOAD PUSH3 0x461BCD PUSH1 0xE5 SHL DUP2 MSTORE PUSH1 0x4 ADD PUSH2 0xB3D SWAP2 SWAP1 PUSH2 0x4564 JUMP JUMPDEST POP PUSH1 0x3 DUP2 ADD SLOAD PUSH1 0x40 DUP1 MLOAD DUP1 DUP3 ADD SWAP1 SWAP2 MSTORE PUSH1 0x16 DUP2 MSTORE PUSH22 0xA0C2F2DACADCE840E8DED6CADC40DAD2E6DAC2E8C6D PUSH1 0x53 SHL PUSH1 0x20 DUP3 ADD MSTORE SWAP1 PUSH1 0x1 PUSH1 0x1 PUSH1 0xA0 SHL SUB DUP6 DUP2 AND SWAP2 AND EQ PUSH2 0x2DB8 JUMPI PUSH1 0x40 MLOAD PUSH3 0x461BCD PUSH1 0xE5 SHL DUP2 MSTORE PUSH1 0x4 ADD PUSH2 0xB3D SWAP2 SWAP1 PUSH2 0x4564 JUMP JUMPDEST POP PUSH1 0x3 DUP3 ADD DUP1 SLOAD PUSH1 0xFF PUSH1 0xA0 SHL NOT AND PUSH1 0x1 PUSH1 0xA1 SHL OR SWAP1 SSTORE PUSH1 0x5 DUP2 ADD DUP1 SLOAD PUSH1 0xFF NOT AND SWAP1 SSTORE PUSH1 0x1 DUP2 ADD DUP1 SLOAD PUSH1 0x1 PUSH1 0x1 PUSH1 0xA0 SHL SUB SWAP1 DUP2 AND PUSH1 0x0 SWAP1 DUP2 MSTORE PUSH1 0x13 PUSH1 0x20 SWAP1 DUP2 MSTORE PUSH1 0x40 DUP1 DUP4 KECCAK256 DUP13 DUP5 MSTORE DUP3 MSTORE DUP1 DUP4 KECCAK256 DUP4 SWAP1 SSTORE PUSH1 0x12 DUP3 MSTORE DUP1 DUP4 KECCAK256 SWAP5 SLOAD SWAP1 SWAP4 AND DUP3 MSTORE SWAP3 SWAP1 SWAP3 MSTORE DUP2 KECCAK256 DUP1 SLOAD SWAP2 SWAP1 SSTORE PUSH2 0x2E29 DUP9 PUSH2 0x3543 JUMP JUMPDEST PUSH1 0x3 DUP3 ADD SLOAD PUSH1 0x1 PUSH1 0x1 PUSH1 0xA0 SHL SUB AND PUSH2 0x30D0 JUMPI DUP2 PUSH1 0x2 ADD SLOAD DUP2 LT ISZERO PUSH2 0x2E8F JUMPI PUSH1 0x40 MLOAD PUSH3 0x461BCD PUSH1 0xE5 SHL DUP2 MSTORE PUSH1 0x20 PUSH1 0x4 DUP3 ADD MSTORE PUSH1 0x18 PUSH1 0x24 DUP3 ADD MSTORE PUSH32 0x496E73756666696369656E7420455448206465706F7369740000000000000000 PUSH1 0x44 DUP3 ADD MSTORE PUSH1 0x64 ADD PUSH2 0xB3D JUMP JUMPDEST PUSH1 0x3 SLOAD PUSH1 0x5 SLOAD PUSH1 0x2 DUP5 ADD SLOAD PUSH1 0x1 PUSH1 0x1 PUSH1 0xA0 SHL SUB SWAP1 SWAP2 AND SWAP1 PUSH1 0x0 SWAP1 PUSH2 0x2710 SWAP1 PUSH2 0x2EB8 SWAP1 DUP6 SWAP1 PUSH2 0x466B JUMP JUMPDEST PUSH2 0x2EC2 SWAP2 SWAP1 PUSH2 0x4682 JUMP JUMPDEST SWAP1 POP PUSH1 0x0 DUP2 DUP7 PUSH1 0x2 ADD SLOAD PUSH2 0x2ED6 SWAP2 SWAP1 PUSH2 0x45F6 JUMP JUMPDEST PUSH1 0x1 DUP9 ADD SLOAD PUSH1 0x40 MLOAD SWAP2 SWAP3 POP PUSH1 0x0 SWAP2 PUSH1 0x1 PUSH1 0x1 PUSH1 0xA0 SHL SUB SWAP1 SWAP2 AND SWAP1 DUP4 SWAP1 DUP4 DUP2 DUP2 DUP2 DUP6 DUP8 GAS CALL SWAP3 POP POP POP RETURNDATASIZE DUP1 PUSH1 0x0 DUP2 EQ PUSH2 0x2F2A JUMPI PUSH1 0x40 MLOAD SWAP2 POP PUSH1 0x1F NOT PUSH1 0x3F RETURNDATASIZE ADD AND DUP3 ADD PUSH1 0x40 MSTORE RETURNDATASIZE DUP3 MSTORE RETURNDATASIZE PUSH1 0x0 PUSH1 0x20 DUP5 ADD RETURNDATACOPY PUSH2 0x2F2F JUMP JUMPDEST PUSH1 0x60 SWAP2 POP JUMPDEST POP POP SWAP1 POP DUP1 PUSH2 0x2F7B JUMPI PUSH1 0x40 MLOAD PUSH3 0x461BCD PUSH1 0xE5 SHL DUP2 MSTORE PUSH1 0x20 PUSH1 0x4 DUP3 ADD MSTORE PUSH1 0x18 PUSH1 0x24 DUP3 ADD MSTORE PUSH24 0x14185E5B595B9D081D1BC81CD95B1B195C8819985A5B1959 PUSH1 0x42 SHL PUSH1 0x44 DUP3 ADD MSTORE PUSH1 0x64 ADD PUSH2 0xB3D JUMP JUMPDEST PUSH1 0x0 DUP5 PUSH1 0x1 PUSH1 0x1 PUSH1 0xA0 SHL SUB AND DUP5 PUSH1 0x40 MLOAD PUSH1 0x0 PUSH1 0x40 MLOAD DUP1 DUP4 SUB DUP2 DUP6 DUP8 GAS CALL SWAP3 POP POP POP RETURNDATASIZE DUP1 PUSH1 0x0 DUP2 EQ PUSH2 0x2FC8 JUMPI PUSH1 0x40 MLOAD SWAP2 POP PUSH1 0x1F NOT PUSH1 0x3F RETURNDATASIZE ADD AND DUP3 ADD PUSH1 0x40 MSTORE RETURNDATASIZE DUP3 MSTORE RETURNDATASIZE PUSH1 0x0 PUSH1 0x20 DUP5 ADD RETURNDATACOPY PUSH2 0x2FCD JUMP JUMPDEST PUSH1 0x60 SWAP2 POP JUMPDEST POP POP SWAP1 POP DUP1 PUSH2 0x3013 JUMPI PUSH1 0x40 MLOAD PUSH3 0x461BCD PUSH1 0xE5 SHL DUP2 MSTORE PUSH1 0x20 PUSH1 0x4 DUP3 ADD MSTORE PUSH1 0x12 PUSH1 0x24 DUP3 ADD MSTORE PUSH18 0x119959481C185E5B595B9D0819985A5B1959 PUSH1 0x72 SHL PUSH1 0x44 DUP3 ADD MSTORE PUSH1 0x64 ADD PUSH2 0xB3D JUMP JUMPDEST PUSH1 0x0 DUP9 PUSH1 0x2 ADD SLOAD DUP9 PUSH2 0x3025 SWAP2 SWAP1 PUSH2 0x45F6 JUMP JUMPDEST SWAP1 POP DUP1 ISZERO PUSH2 0x30C4 JUMPI PUSH1 0x1 DUP10 ADD SLOAD PUSH1 0x40 MLOAD PUSH1 0x0 SWAP2 PUSH1 0x1 PUSH1 0x1 PUSH1 0xA0 SHL SUB AND SWAP1 DUP4 SWAP1 DUP4 DUP2 DUP2 DUP2 DUP6 DUP8 GAS CALL SWAP3 POP POP POP RETURNDATASIZE DUP1 PUSH1 0x0 DUP2 EQ PUSH2 0x307C JUMPI PUSH1 0x40 MLOAD SWAP2 POP PUSH1 0x1F NOT PUSH1 0x3F RETURNDATASIZE ADD AND DUP3 ADD PUSH1 0x40 MSTORE RETURNDATASIZE DUP3 MSTORE RETURNDATASIZE PUSH1 0x0 PUSH1 0x20 DUP5 ADD RETURNDATACOPY PUSH2 0x3081 JUMP JUMPDEST PUSH1 0x60 SWAP2 POP JUMPDEST POP POP SWAP1 POP DUP1 PUSH2 0x30C2 JUMPI PUSH1 0x40 MLOAD PUSH3 0x461BCD PUSH1 0xE5 SHL DUP2 MSTORE PUSH1 0x20 PUSH1 0x4 DUP3 ADD MSTORE PUSH1 0xD PUSH1 0x24 DUP3 ADD MSTORE PUSH13 0x1499599D5B990819985A5B1959 PUSH1 0x9A SHL PUSH1 0x44 DUP3 ADD MSTORE PUSH1 0x64 ADD PUSH2 0xB3D JUMP JUMPDEST POP JUMPDEST POP POP POP POP POP POP POP PUSH2 0x32AE JUMP JUMPDEST PUSH1 0x3 DUP3 DUP2 ADD SLOAD SWAP1 SLOAD PUSH1 0x5 SLOAD PUSH1 0x2 DUP6 ADD SLOAD PUSH1 0x1 PUSH1 0x1 PUSH1 0xA0 SHL SUB SWAP4 DUP5 AND SWAP4 SWAP1 SWAP2 AND SWAP1 PUSH1 0x0 SWAP1 PUSH2 0x2710 SWAP1 PUSH2 0x3102 SWAP1 DUP6 SWAP1 PUSH2 0x466B JUMP JUMPDEST PUSH2 0x310C SWAP2 SWAP1 PUSH2 0x4682 JUMP JUMPDEST SWAP1 POP PUSH1 0x0 DUP2 DUP8 PUSH1 0x2 ADD SLOAD PUSH2 0x3120 SWAP2 SWAP1 PUSH2 0x45F6 JUMP JUMPDEST PUSH1 0x1 DUP1 DUP10 ADD SLOAD SWAP1 DUP11 ADD SLOAD PUSH1 0x40 MLOAD PUSH4 0x23B872DD PUSH1 0xE0 SHL DUP2 MSTORE SWAP3 SWAP4 POP PUSH1 0x1 PUSH1 0x1 PUSH1 0xA0 SHL SUB DUP1 DUP10 AND SWAP4 PUSH4 0x23B872DD SWAP4 PUSH2 0x3160 SWAP4 SWAP1 DUP4 AND SWAP3 AND SWAP1 DUP7 SWAP1 PUSH1 0x4 ADD PUSH2 0x46A4 JUMP JUMPDEST PUSH1 0x20 PUSH1 0x40 MLOAD DUP1 DUP4 SUB DUP2 PUSH1 0x0 DUP8 GAS CALL ISZERO DUP1 ISZERO PUSH2 0x317F JUMPI RETURNDATASIZE PUSH1 0x0 DUP1 RETURNDATACOPY RETURNDATASIZE PUSH1 0x0 REVERT JUMPDEST POP POP POP POP PUSH1 0x40 MLOAD RETURNDATASIZE PUSH1 0x1F NOT PUSH1 0x1F DUP3 ADD AND DUP3 ADD DUP1 PUSH1 0x40 MSTORE POP DUP2 ADD SWAP1 PUSH2 0x31A3 SWAP2 SWAP1 PUSH2 0x45C3 JUMP JUMPDEST PUSH2 0x31EB JUMPI PUSH1 0x40 MLOAD PUSH3 0x461BCD PUSH1 0xE5 SHL DUP2 MSTORE PUSH1 0x20 PUSH1 0x4 DUP3 ADD MSTORE PUSH1 0x19 PUSH1 0x24 DUP3 ADD MSTORE PUSH25 0x151C985B9CD9995C881D1BC81CD95B1B195C8819985A5B1959 PUSH1 0x3A SHL PUSH1 0x44 DUP3 ADD MSTORE PUSH1 0x64 ADD PUSH2 0xB3D JUMP JUMPDEST PUSH1 0x1 DUP8 ADD SLOAD PUSH1 0x40 MLOAD PUSH4 0x23B872DD PUSH1 0xE0 SHL DUP2 MSTORE PUSH1 0x1 PUSH1 0x1 PUSH1 0xA0 SHL SUB DUP8 DUP2 AND SWAP3 PUSH4 0x23B872DD SWAP3 PUSH2 0x3223 SWAP3 SWAP1 SWAP2 AND SWAP1 DUP8 SWAP1 DUP8 SWAP1 PUSH1 0x4 ADD PUSH2 0x46A4 JUMP JUMPDEST PUSH1 0x20 PUSH1 0x40 MLOAD DUP1 DUP4 SUB DUP2 PUSH1 0x0 DUP8 GAS CALL ISZERO DUP1 ISZERO PUSH2 0x3242 JUMPI RETURNDATASIZE PUSH1 0x0 DUP1 RETURNDATACOPY RETURNDATASIZE PUSH1 0x0 REVERT JUMPDEST POP POP POP POP PUSH1 0x40 MLOAD RETURNDATASIZE PUSH1 0x1F NOT PUSH1 0x1F DUP3 ADD AND DUP3 ADD DUP1 PUSH1 0x40 MSTORE POP DUP2 ADD SWAP1 PUSH2 0x3266 SWAP2 SWAP1 PUSH2 0x45C3 JUMP JUMPDEST PUSH2 0x32A8 JUMPI PUSH1 0x40 MLOAD PUSH3 0x461BCD PUSH1 0xE5 SHL DUP2 MSTORE PUSH1 0x20 PUSH1 0x4 DUP3 ADD MSTORE PUSH1 0x13 PUSH1 0x24 DUP3 ADD MSTORE PUSH19 0x119959481D1C985B9CD9995C8819985A5B1959 PUSH1 0x6A SHL PUSH1 0x44 DUP3 ADD MSTORE PUSH1 0x64 ADD PUSH2 0xB3D JUMP JUMPDEST POP POP POP POP POP JUMPDEST PUSH1 0x1 DUP4 DUP2 ADD SLOAD SWAP1 DUP4 ADD SLOAD PUSH1 0x40 MLOAD PUSH4 0x5C46A7EF PUSH1 0xE1 SHL DUP2 MSTORE PUSH1 0x1 PUSH1 0x1 PUSH1 0xA0 SHL SUB SWAP3 DUP4 AND PUSH1 0x4 DUP3 ADD MSTORE SWAP1 DUP3 AND PUSH1 0x24 DUP3 ADD MSTORE PUSH1 0x44 DUP2 ADD DUP11 SWAP1 MSTORE PUSH1 0x80 PUSH1 0x64 DUP3 ADD MSTORE PUSH1 0x0 PUSH1 0x84 DUP3 ADD MSTORE PUSH32 0x0 SWAP1 SWAP2 AND SWAP1 PUSH4 0xB88D4FDE SWAP1 PUSH1 0xA4 ADD PUSH1 0x0 PUSH1 0x40 MLOAD DUP1 DUP4 SUB DUP2 PUSH1 0x0 DUP8 DUP1 EXTCODESIZE ISZERO DUP1 ISZERO PUSH2 0x333A JUMPI PUSH1 0x0 DUP1 REVERT JUMPDEST POP GAS CALL ISZERO DUP1 ISZERO PUSH2 0x334E JUMPI RETURNDATASIZE PUSH1 0x0 DUP1 RETURNDATACOPY RETURNDATASIZE PUSH1 0x0 REVERT JUMPDEST POP POP POP POP PUSH1 0x1 DUP3 DUP2 ADD SLOAD SWAP1 DUP5 ADD SLOAD PUSH1 0x2 DUP5 ADD SLOAD PUSH1 0x3 DUP6 ADD SLOAD PUSH1 0x40 DUP1 MLOAD SWAP3 DUP4 MSTORE PUSH1 0x1 PUSH1 0x1 PUSH1 0xA0 SHL SUB SWAP2 DUP3 AND PUSH1 0x20 DUP5 ADD MSTORE SWAP4 DUP2 AND SWAP4 SWAP3 AND SWAP2 DUP12 SWAP2 PUSH32 0xFD9D7289C0B47546FFF41663663C2372AA45809B7AB87D908E443A3821CB5B4E SWAP2 ADD PUSH1 0x40 MLOAD DUP1 SWAP2 SUB SWAP1 LOG4 POP POP POP PUSH2 0x33BE PUSH1 0x1 PUSH1 0x0 SSTORE JUMP JUMPDEST POP POP POP POP POP JUMP JUMPDEST PUSH1 0x0 PUSH2 0x33D0 DUP2 PUSH2 0x340C JUMP JUMPDEST PUSH2 0x202A PUSH2 0x37F6 JUMP JUMPDEST PUSH1 0xF SLOAD PUSH1 0x0 SWAP1 PUSH1 0xFF AND PUSH2 0x33ED JUMPI POP PUSH1 0x1 SWAP2 SWAP1 POP JUMP JUMPDEST POP PUSH1 0x1 PUSH1 0x1 PUSH1 0xA0 SHL SUB AND PUSH1 0x0 SWAP1 DUP2 MSTORE PUSH1 0xE PUSH1 0x20 MSTORE PUSH1 0x40 SWAP1 KECCAK256 SLOAD PUSH1 0xFF AND SWAP1 JUMP JUMPDEST PUSH2 0x202A DUP2 CALLER PUSH2 0x3833 JUMP JUMPDEST PUSH1 0x0 DUP3 DUP2 MSTORE PUSH1 0x1 PUSH1 0x20 DUP2 SWAP1 MSTORE PUSH1 0x40 SWAP1 SWAP2 KECCAK256 ADD SLOAD PUSH2 0x3432 DUP2 PUSH2 0x340C JUMP JUMPDEST PUSH2 0x1997 DUP4 DUP4 PUSH2 0x388C JUMP JUMPDEST PUSH2 0x3446 DUP3 DUP3 PUSH2 0x1DA3 JUMP JUMPDEST ISZERO PUSH2 0xE0E JUMPI PUSH1 0x0 DUP3 DUP2 MSTORE PUSH1 0x1 PUSH1 0x20 SWAP1 DUP2 MSTORE PUSH1 0x40 DUP1 DUP4 KECCAK256 PUSH1 0x1 PUSH1 0x1 PUSH1 0xA0 SHL SUB DUP6 AND DUP1 DUP6 MSTORE SWAP3 MSTORE DUP1 DUP4 KECCAK256 DUP1 SLOAD PUSH1 0xFF NOT AND SWAP1 SSTORE MLOAD CALLER SWAP3 DUP6 SWAP2 PUSH32 0xF6391F5C32D9C69D2A47EA670B442974B53935D1EDC7FD64EB21E047A839171B SWAP2 SWAP1 LOG4 POP POP JUMP JUMPDEST PUSH1 0x2 PUSH1 0x0 SLOAD SUB PUSH2 0x34F5 JUMPI PUSH1 0x40 MLOAD PUSH3 0x461BCD PUSH1 0xE5 SHL DUP2 MSTORE PUSH1 0x20 PUSH1 0x4 DUP3 ADD MSTORE PUSH1 0x1F PUSH1 0x24 DUP3 ADD MSTORE PUSH32 0x5265656E7472616E637947756172643A207265656E7472616E742063616C6C00 PUSH1 0x44 DUP3 ADD MSTORE PUSH1 0x64 ADD PUSH2 0xB3D JUMP JUMPDEST PUSH1 0x2 PUSH1 0x0 SSTORE JUMP JUMPDEST PUSH1 0x0 PUSH2 0x3507 DUP3 PUSH2 0x33D8 JUMP JUMPDEST PUSH2 0x3513 JUMPI POP PUSH1 0x0 PUSH2 0x353C JUMP JUMPDEST PUSH1 0x1 PUSH1 0x1 PUSH1 0xA0 SHL SUB DUP3 AND PUSH2 0x3537 JUMPI DUP4 CALLVALUE LT ISZERO DUP1 ISZERO PUSH2 0x3530 JUMPI POP DUP4 DUP4 EQ JUMPDEST SWAP1 POP PUSH2 0x353C JUMP JUMPDEST POP DUP2 DUP4 EQ JUMPDEST SWAP4 SWAP3 POP POP POP JUMP JUMPDEST PUSH1 0x0 DUP2 DUP2 MSTORE PUSH1 0x11 PUSH1 0x20 MSTORE PUSH1 0x40 DUP2 KECCAK256 SWAP1 JUMPDEST DUP2 SLOAD DUP2 LT ISZERO PUSH2 0x1997 JUMPI DUP2 DUP2 DUP2 SLOAD DUP2 LT PUSH2 0x356E JUMPI PUSH2 0x356E PUSH2 0x4597 JUMP JUMPDEST PUSH1 0x0 SWAP2 DUP3 MSTORE PUSH1 0x20 SWAP1 SWAP2 KECCAK256 PUSH1 0x5 PUSH1 0x6 SWAP1 SWAP3 MUL ADD ADD SLOAD PUSH1 0xFF AND ISZERO PUSH2 0x36B7 JUMPI PUSH1 0x0 DUP3 DUP3 DUP2 SLOAD DUP2 LT PUSH2 0x359E JUMPI PUSH2 0x359E PUSH2 0x4597 JUMP JUMPDEST SWAP1 PUSH1 0x0 MSTORE PUSH1 0x20 PUSH1 0x0 KECCAK256 SWAP1 PUSH1 0x6 MUL ADD PUSH1 0x5 ADD PUSH1 0x0 PUSH2 0x100 EXP DUP2 SLOAD DUP2 PUSH1 0xFF MUL NOT AND SWAP1 DUP4 ISZERO ISZERO MUL OR SWAP1 SSTORE POP PUSH1 0x0 PUSH1 0x13 PUSH1 0x0 DUP5 DUP5 DUP2 SLOAD DUP2 LT PUSH2 0x35DE JUMPI PUSH2 0x35DE PUSH2 0x4597 JUMP JUMPDEST PUSH1 0x0 SWAP2 DUP3 MSTORE PUSH1 0x20 DUP1 DUP4 KECCAK256 PUSH1 0x1 PUSH1 0x6 SWAP1 SWAP4 MUL ADD SWAP2 SWAP1 SWAP2 ADD SLOAD PUSH1 0x1 PUSH1 0x1 PUSH1 0xA0 SHL SUB AND DUP4 MSTORE DUP3 DUP2 ADD SWAP4 SWAP1 SWAP4 MSTORE PUSH1 0x40 SWAP2 DUP3 ADD DUP2 KECCAK256 DUP8 DUP3 MSTORE SWAP1 SWAP3 MSTORE SWAP1 KECCAK256 SSTORE DUP2 SLOAD DUP3 SWAP1 DUP3 SWAP1 DUP2 LT PUSH2 0x362B JUMPI PUSH2 0x362B PUSH2 0x4597 JUMP JUMPDEST SWAP1 PUSH1 0x0 MSTORE PUSH1 0x20 PUSH1 0x0 KECCAK256 SWAP1 PUSH1 0x6 MUL ADD PUSH1 0x1 ADD PUSH1 0x0 SWAP1 SLOAD SWAP1 PUSH2 0x100 EXP SWAP1 DIV PUSH1 0x1 PUSH1 0x1 PUSH1 0xA0 SHL SUB AND PUSH1 0x1 PUSH1 0x1 PUSH1 0xA0 SHL SUB AND DUP4 PUSH32 0xAF2F02012EA1953FE9293DD4A8BB5194C96792324F9385297C991C2CFEADE3D9 DUP5 DUP5 DUP2 SLOAD DUP2 LT PUSH2 0x368D JUMPI PUSH2 0x368D PUSH2 0x4597 JUMP JUMPDEST SWAP1 PUSH1 0x0 MSTORE PUSH1 0x20 PUSH1 0x0 KECCAK256 SWAP1 PUSH1 0x6 MUL ADD PUSH1 0x2 ADD SLOAD PUSH1 0x40 MLOAD PUSH2 0x36AE SWAP2 DUP2 MSTORE PUSH1 0x20 ADD SWAP1 JUMP JUMPDEST PUSH1 0x40 MLOAD DUP1 SWAP2 SUB SWAP1 LOG3 JUMPDEST DUP1 PUSH2 0x36C1 DUP2 PUSH2 0x4652 JUMP JUMPDEST SWAP2 POP POP PUSH2 0x3553 JUMP JUMPDEST PUSH1 0x40 DUP1 MLOAD PUSH1 0x60 DUP2 ADD DUP3 MSTORE PUSH1 0x3 SLOAD DUP2 MSTORE PUSH1 0x5 SLOAD PUSH1 0x1 PUSH1 0x1 PUSH1 0xA0 SHL SUB AND PUSH1 0x20 DUP3 ADD MSTORE PUSH2 0x2710 SWAP2 DUP2 ADD SWAP2 SWAP1 SWAP2 MSTORE PUSH2 0x33BE DUP2 DUP7 DUP7 DUP7 DUP7 PUSH2 0x38F7 JUMP JUMPDEST PUSH1 0x1 PUSH1 0x1 PUSH1 0xA0 SHL SUB DUP2 AND PUSH1 0x0 SWAP1 DUP2 MSTORE PUSH1 0x1 DUP4 ADD PUSH1 0x20 MSTORE PUSH1 0x40 DUP2 KECCAK256 SLOAD ISZERO ISZERO PUSH2 0x353C JUMP JUMPDEST PUSH1 0x0 PUSH2 0x353C DUP4 PUSH1 0x1 PUSH1 0x1 PUSH1 0xA0 SHL SUB DUP5 AND PUSH2 0x39B7 JUMP JUMPDEST PUSH1 0x0 PUSH2 0x353C DUP4 PUSH1 0x1 PUSH1 0x1 PUSH1 0xA0 SHL SUB DUP5 AND PUSH2 0x3A06 JUMP JUMPDEST PUSH1 0x1 PUSH1 0x1 PUSH1 0xA0 SHL SUB DUP2 AND PUSH1 0x0 SWAP1 DUP2 MSTORE PUSH1 0xC PUSH1 0x20 MSTORE PUSH1 0x40 DUP2 KECCAK256 SLOAD PUSH1 0x7 SLOAD DUP2 GT PUSH2 0x3774 JUMPI DUP1 PUSH2 0x353C JUMP JUMPDEST PUSH1 0x7 SLOAD SWAP4 SWAP3 POP POP POP JUMP JUMPDEST PUSH2 0x3786 PUSH2 0x3AF9 JUMP JUMPDEST PUSH1 0x2 DUP1 SLOAD PUSH1 0xFF NOT AND SWAP1 SSTORE PUSH32 0x5DB9EE0A495BF2E6FF9C91A7834C1BA4FDD244A5E8AA4E537BD38AEAE4B073AA CALLER JUMPDEST PUSH1 0x40 MLOAD PUSH1 0x1 PUSH1 0x1 PUSH1 0xA0 SHL SUB SWAP1 SWAP2 AND DUP2 MSTORE PUSH1 0x20 ADD PUSH1 0x40 MLOAD DUP1 SWAP2 SUB SWAP1 LOG1 JUMP JUMPDEST PUSH1 0x0 DUP3 DUP2 MSTORE PUSH1 0x1 PUSH1 0x20 DUP2 SWAP1 MSTORE PUSH1 0x40 SWAP1 SWAP2 KECCAK256 ADD SLOAD PUSH2 0x37EC DUP2 PUSH2 0x340C JUMP JUMPDEST PUSH2 0x1997 DUP4 DUP4 PUSH2 0x343C JUMP JUMPDEST PUSH2 0x37FE PUSH2 0x3B44 JUMP JUMPDEST PUSH1 0x2 DUP1 SLOAD PUSH1 0xFF NOT AND PUSH1 0x1 OR SWAP1 SSTORE PUSH32 0x62E78CEA01BEE320CD4E420270B5EA74000D11B0C9F74754EBDBFC544B05A258 PUSH2 0x37B3 CALLER SWAP1 JUMP JUMPDEST PUSH2 0x383D DUP3 DUP3 PUSH2 0x1DA3 JUMP JUMPDEST PUSH2 0xE0E JUMPI PUSH2 0x384A DUP2 PUSH2 0x3B8A JUMP JUMPDEST PUSH2 0x3855 DUP4 PUSH1 0x20 PUSH2 0x3B9C JUMP JUMPDEST PUSH1 0x40 MLOAD PUSH1 0x20 ADD PUSH2 0x3866 SWAP3 SWAP2 SWAP1 PUSH2 0x46C8 JUMP JUMPDEST PUSH1 0x40 DUP1 MLOAD PUSH1 0x1F NOT DUP2 DUP5 SUB ADD DUP2 MSTORE SWAP1 DUP3 SWAP1 MSTORE PUSH3 0x461BCD PUSH1 0xE5 SHL DUP3 MSTORE PUSH2 0xB3D SWAP2 PUSH1 0x4 ADD PUSH2 0x4564 JUMP JUMPDEST PUSH2 0x3896 DUP3 DUP3 PUSH2 0x1DA3 JUMP JUMPDEST PUSH2 0xE0E JUMPI PUSH1 0x0 DUP3 DUP2 MSTORE PUSH1 0x1 PUSH1 0x20 DUP2 DUP2 MSTORE PUSH1 0x40 DUP1 DUP5 KECCAK256 PUSH1 0x1 PUSH1 0x1 PUSH1 0xA0 SHL SUB DUP7 AND DUP1 DUP7 MSTORE SWAP3 MSTORE DUP1 DUP5 KECCAK256 DUP1 SLOAD PUSH1 0xFF NOT AND SWAP1 SWAP4 OR SWAP1 SWAP3 SSTORE SWAP1 MLOAD CALLER SWAP3 DUP6 SWAP2 PUSH32 0x2F8788117E7EFF1D82E926EC794901D17C78024A50270940304540A733656F0D SWAP2 SWAP1 LOG4 POP POP JUMP JUMPDEST PUSH1 0x40 DUP6 ADD MLOAD DUP6 MLOAD PUSH1 0x0 SWAP2 SWAP1 PUSH2 0x390C SWAP1 DUP6 PUSH2 0x466B JUMP JUMPDEST PUSH2 0x3916 SWAP2 SWAP1 PUSH2 0x4682 JUMP JUMPDEST SWAP1 POP PUSH1 0x0 PUSH2 0x3924 DUP3 DUP6 PUSH2 0x45F6 JUMP JUMPDEST SWAP1 POP PUSH1 0x1 PUSH1 0x1 PUSH1 0xA0 SHL SUB DUP4 AND PUSH2 0x394B JUMPI PUSH2 0x3946 DUP7 DUP9 PUSH1 0x20 ADD MLOAD DUP4 DUP6 DUP10 DUP10 PUSH2 0x3D38 JUMP JUMPDEST PUSH2 0x395D JUMP JUMPDEST PUSH2 0x395D DUP4 DUP7 DUP9 DUP11 PUSH1 0x20 ADD MLOAD DUP6 DUP8 PUSH2 0x3F6A JUMP JUMPDEST PUSH1 0x40 DUP1 MLOAD DUP6 DUP2 MSTORE PUSH1 0x20 DUP2 ADD DUP5 SWAP1 MSTORE PUSH1 0x1 PUSH1 0x1 PUSH1 0xA0 SHL SUB DUP6 DUP2 AND DUP3 DUP5 ADD MSTORE SWAP2 MLOAD DUP8 DUP4 AND SWAP3 DUP10 AND SWAP2 PUSH32 0xA496C08B103292578A04C9879F2740638414C311180DFFA9D1436D3C97119923 SWAP2 SWAP1 DUP2 SWAP1 SUB PUSH1 0x60 ADD SWAP1 LOG3 POP POP POP POP POP POP POP JUMP JUMPDEST PUSH1 0x0 DUP2 DUP2 MSTORE PUSH1 0x1 DUP4 ADD PUSH1 0x20 MSTORE PUSH1 0x40 DUP2 KECCAK256 SLOAD PUSH2 0x39FE JUMPI POP DUP2 SLOAD PUSH1 0x1 DUP2 DUP2 ADD DUP5 SSTORE PUSH1 0x0 DUP5 DUP2 MSTORE PUSH1 0x20 DUP1 DUP3 KECCAK256 SWAP1 SWAP4 ADD DUP5 SWAP1 SSTORE DUP5 SLOAD DUP5 DUP3 MSTORE DUP3 DUP7 ADD SWAP1 SWAP4 MSTORE PUSH1 0x40 SWAP1 KECCAK256 SWAP2 SWAP1 SWAP2 SSTORE PUSH2 0xAD6 JUMP JUMPDEST POP PUSH1 0x0 PUSH2 0xAD6 JUMP JUMPDEST PUSH1 0x0 DUP2 DUP2 MSTORE PUSH1 0x1 DUP4 ADD PUSH1 0x20 MSTORE PUSH1 0x40 DUP2 KECCAK256 SLOAD DUP1 ISZERO PUSH2 0x3AEF JUMPI PUSH1 0x0 PUSH2 0x3A2A PUSH1 0x1 DUP4 PUSH2 0x45F6 JUMP JUMPDEST DUP6 SLOAD SWAP1 SWAP2 POP PUSH1 0x0 SWAP1 PUSH2 0x3A3E SWAP1 PUSH1 0x1 SWAP1 PUSH2 0x45F6 JUMP JUMPDEST SWAP1 POP DUP2 DUP2 EQ PUSH2 0x3AA3 JUMPI PUSH1 0x0 DUP7 PUSH1 0x0 ADD DUP3 DUP2 SLOAD DUP2 LT PUSH2 0x3A5E JUMPI PUSH2 0x3A5E PUSH2 0x4597 JUMP JUMPDEST SWAP1 PUSH1 0x0 MSTORE PUSH1 0x20 PUSH1 0x0 KECCAK256 ADD SLOAD SWAP1 POP DUP1 DUP8 PUSH1 0x0 ADD DUP5 DUP2 SLOAD DUP2 LT PUSH2 0x3A81 JUMPI PUSH2 0x3A81 PUSH2 0x4597 JUMP JUMPDEST PUSH1 0x0 SWAP2 DUP3 MSTORE PUSH1 0x20 DUP1 DUP4 KECCAK256 SWAP1 SWAP2 ADD SWAP3 SWAP1 SWAP3 SSTORE SWAP2 DUP3 MSTORE PUSH1 0x1 DUP9 ADD SWAP1 MSTORE PUSH1 0x40 SWAP1 KECCAK256 DUP4 SWAP1 SSTORE JUMPDEST DUP6 SLOAD DUP7 SWAP1 DUP1 PUSH2 0x3AB4 JUMPI PUSH2 0x3AB4 PUSH2 0x473D JUMP JUMPDEST PUSH1 0x1 SWAP1 SUB DUP2 DUP2 SWAP1 PUSH1 0x0 MSTORE PUSH1 0x20 PUSH1 0x0 KECCAK256 ADD PUSH1 0x0 SWAP1 SSTORE SWAP1 SSTORE DUP6 PUSH1 0x1 ADD PUSH1 0x0 DUP7 DUP2 MSTORE PUSH1 0x20 ADD SWAP1 DUP2 MSTORE PUSH1 0x20 ADD PUSH1 0x0 KECCAK256 PUSH1 0x0 SWAP1 SSTORE PUSH1 0x1 SWAP4 POP POP POP POP PUSH2 0xAD6 JUMP JUMPDEST PUSH1 0x0 SWAP2 POP POP PUSH2 0xAD6 JUMP JUMPDEST PUSH1 0x2 SLOAD PUSH1 0xFF AND PUSH2 0x3B42 JUMPI PUSH1 0x40 MLOAD PUSH3 0x461BCD PUSH1 0xE5 SHL DUP2 MSTORE PUSH1 0x20 PUSH1 0x4 DUP3 ADD MSTORE PUSH1 0x14 PUSH1 0x24 DUP3 ADD MSTORE PUSH20 0x14185D5CD8589B194E881B9BDD081C185D5CD959 PUSH1 0x62 SHL PUSH1 0x44 DUP3 ADD MSTORE PUSH1 0x64 ADD PUSH2 0xB3D JUMP JUMPDEST JUMP JUMPDEST PUSH1 0x2 SLOAD PUSH1 0xFF AND ISZERO PUSH2 0x3B42 JUMPI PUSH1 0x40 MLOAD PUSH3 0x461BCD PUSH1 0xE5 SHL DUP2 MSTORE PUSH1 0x20 PUSH1 0x4 DUP3 ADD MSTORE PUSH1 0x10 PUSH1 0x24 DUP3 ADD MSTORE PUSH16 0x14185D5CD8589B194E881C185D5CD959 PUSH1 0x82 SHL PUSH1 0x44 DUP3 ADD MSTORE PUSH1 0x64 ADD PUSH2 0xB3D JUMP JUMPDEST PUSH1 0x60 PUSH2 0xAD6 PUSH1 0x1 PUSH1 0x1 PUSH1 0xA0 SHL SUB DUP4 AND PUSH1 0x14 JUMPDEST PUSH1 0x60 PUSH1 0x0 PUSH2 0x3BAB DUP4 PUSH1 0x2 PUSH2 0x466B JUMP JUMPDEST PUSH2 0x3BB6 SWAP1 PUSH1 0x2 PUSH2 0x4626 JUMP JUMPDEST PUSH8 0xFFFFFFFFFFFFFFFF DUP2 GT ISZERO PUSH2 0x3BCE JUMPI PUSH2 0x3BCE PUSH2 0x45AD JUMP JUMPDEST PUSH1 0x40 MLOAD SWAP1 DUP1 DUP3 MSTORE DUP1 PUSH1 0x1F ADD PUSH1 0x1F NOT AND PUSH1 0x20 ADD DUP3 ADD PUSH1 0x40 MSTORE DUP1 ISZERO PUSH2 0x3BF8 JUMPI PUSH1 0x20 DUP3 ADD DUP2 DUP1 CALLDATASIZE DUP4 CALLDATACOPY ADD SWAP1 POP JUMPDEST POP SWAP1 POP PUSH1 0x3 PUSH1 0xFC SHL DUP2 PUSH1 0x0 DUP2 MLOAD DUP2 LT PUSH2 0x3C13 JUMPI PUSH2 0x3C13 PUSH2 0x4597 JUMP JUMPDEST PUSH1 0x20 ADD ADD SWAP1 PUSH1 0x1 PUSH1 0x1 PUSH1 0xF8 SHL SUB NOT AND SWAP1 DUP2 PUSH1 0x0 BYTE SWAP1 MSTORE8 POP PUSH1 0xF PUSH1 0xFB SHL DUP2 PUSH1 0x1 DUP2 MLOAD DUP2 LT PUSH2 0x3C42 JUMPI PUSH2 0x3C42 PUSH2 0x4597 JUMP JUMPDEST PUSH1 0x20 ADD ADD SWAP1 PUSH1 0x1 PUSH1 0x1 PUSH1 0xF8 SHL SUB NOT AND SWAP1 DUP2 PUSH1 0x0 BYTE SWAP1 MSTORE8 POP PUSH1 0x0 PUSH2 0x3C66 DUP5 PUSH1 0x2 PUSH2 0x466B JUMP JUMPDEST PUSH2 0x3C71 SWAP1 PUSH1 0x1 PUSH2 0x4626 JUMP JUMPDEST SWAP1 POP JUMPDEST PUSH1 0x1 DUP2 GT ISZERO PUSH2 0x3CE9 JUMPI PUSH16 0x181899199A1A9B1B9C1CB0B131B232B3 PUSH1 0x81 SHL DUP6 PUSH1 0xF AND PUSH1 0x10 DUP2 LT PUSH2 0x3CA5 JUMPI PUSH2 0x3CA5 PUSH2 0x4597 JUMP JUMPDEST BYTE PUSH1 0xF8 SHL DUP3 DUP3 DUP2 MLOAD DUP2 LT PUSH2 0x3CBB JUMPI PUSH2 0x3CBB PUSH2 0x4597 JUMP JUMPDEST PUSH1 0x20 ADD ADD SWAP1 PUSH1 0x1 PUSH1 0x1 PUSH1 0xF8 SHL SUB NOT AND SWAP1 DUP2 PUSH1 0x0 BYTE SWAP1 MSTORE8 POP PUSH1 0x4 SWAP5 SWAP1 SWAP5 SHR SWAP4 PUSH2 0x3CE2 DUP2 PUSH2 0x4753 JUMP JUMPDEST SWAP1 POP PUSH2 0x3C74 JUMP JUMPDEST POP DUP4 ISZERO PUSH2 0x353C JUMPI PUSH1 0x40 MLOAD PUSH3 0x461BCD PUSH1 0xE5 SHL DUP2 MSTORE PUSH1 0x20 PUSH1 0x4 DUP3 ADD DUP2 SWAP1 MSTORE PUSH1 0x24 DUP3 ADD MSTORE PUSH32 0x537472696E67733A20686578206C656E67746820696E73756666696369656E74 PUSH1 0x44 DUP3 ADD MSTORE PUSH1 0x64 ADD PUSH2 0xB3D JUMP JUMPDEST DUP1 CALLVALUE LT ISZERO PUSH2 0x3D80 JUMPI PUSH1 0x40 MLOAD PUSH3 0x461BCD PUSH1 0xE5 SHL DUP2 MSTORE PUSH1 0x20 PUSH1 0x4 DUP3 ADD MSTORE PUSH1 0x15 PUSH1 0x24 DUP3 ADD MSTORE PUSH21 0x125B9CDD59999A58DA595B9D08115512081CD95B9D PUSH1 0x5A SHL PUSH1 0x44 DUP3 ADD MSTORE PUSH1 0x64 ADD PUSH2 0xB3D JUMP JUMPDEST PUSH1 0x0 DUP7 PUSH1 0x1 PUSH1 0x1 PUSH1 0xA0 SHL SUB AND DUP6 PUSH1 0x40 MLOAD PUSH1 0x0 PUSH1 0x40 MLOAD DUP1 DUP4 SUB DUP2 DUP6 DUP8 GAS CALL SWAP3 POP POP POP RETURNDATASIZE DUP1 PUSH1 0x0 DUP2 EQ PUSH2 0x3DCD JUMPI PUSH1 0x40 MLOAD SWAP2 POP PUSH1 0x1F NOT PUSH1 0x3F RETURNDATASIZE ADD AND DUP3 ADD PUSH1 0x40 MSTORE RETURNDATASIZE DUP3 MSTORE RETURNDATASIZE PUSH1 0x0 PUSH1 0x20 DUP5 ADD RETURNDATACOPY PUSH2 0x3DD2 JUMP JUMPDEST PUSH1 0x60 SWAP2 POP JUMPDEST POP POP SWAP1 POP DUP1 PUSH2 0x3E1E JUMPI PUSH1 0x40 MLOAD PUSH3 0x461BCD PUSH1 0xE5 SHL DUP2 MSTORE PUSH1 0x20 PUSH1 0x4 DUP3 ADD MSTORE PUSH1 0x18 PUSH1 0x24 DUP3 ADD MSTORE PUSH24 0x14185E5B595B9D081D1BC81CD95B1B195C8819985A5B1959 PUSH1 0x42 SHL PUSH1 0x44 DUP3 ADD MSTORE PUSH1 0x64 ADD PUSH2 0xB3D JUMP JUMPDEST PUSH1 0x0 DUP7 PUSH1 0x1 PUSH1 0x1 PUSH1 0xA0 SHL SUB AND DUP6 PUSH1 0x40 MLOAD PUSH1 0x0 PUSH1 0x40 MLOAD DUP1 DUP4 SUB DUP2 DUP6 DUP8 GAS CALL SWAP3 POP POP POP RETURNDATASIZE DUP1 PUSH1 0x0 DUP2 EQ PUSH2 0x3E6B JUMPI PUSH1 0x40 MLOAD SWAP2 POP PUSH1 0x1F NOT PUSH1 0x3F RETURNDATASIZE ADD AND DUP3 ADD PUSH1 0x40 MSTORE RETURNDATASIZE DUP3 MSTORE RETURNDATASIZE PUSH1 0x0 PUSH1 0x20 DUP5 ADD RETURNDATACOPY PUSH2 0x3E70 JUMP JUMPDEST PUSH1 0x60 SWAP2 POP JUMPDEST POP POP SWAP1 POP DUP1 PUSH2 0x3EB6 JUMPI PUSH1 0x40 MLOAD PUSH3 0x461BCD PUSH1 0xE5 SHL DUP2 MSTORE PUSH1 0x20 PUSH1 0x4 DUP3 ADD MSTORE PUSH1 0x12 PUSH1 0x24 DUP3 ADD MSTORE PUSH18 0x119959481C185E5B595B9D0819985A5B1959 PUSH1 0x72 SHL PUSH1 0x44 DUP3 ADD MSTORE PUSH1 0x64 ADD PUSH2 0xB3D JUMP JUMPDEST PUSH1 0x0 PUSH2 0x3EC2 DUP5 CALLVALUE PUSH2 0x45F6 JUMP JUMPDEST SWAP1 POP DUP1 ISZERO PUSH2 0x3F5F JUMPI PUSH1 0x0 DUP6 PUSH1 0x1 PUSH1 0x1 PUSH1 0xA0 SHL SUB AND DUP3 PUSH1 0x40 MLOAD PUSH1 0x0 PUSH1 0x40 MLOAD DUP1 DUP4 SUB DUP2 DUP6 DUP8 GAS CALL SWAP3 POP POP POP RETURNDATASIZE DUP1 PUSH1 0x0 DUP2 EQ PUSH2 0x3F17 JUMPI PUSH1 0x40 MLOAD SWAP2 POP PUSH1 0x1F NOT PUSH1 0x3F RETURNDATASIZE ADD AND DUP3 ADD PUSH1 0x40 MSTORE RETURNDATASIZE DUP3 MSTORE RETURNDATASIZE PUSH1 0x0 PUSH1 0x20 DUP5 ADD RETURNDATACOPY PUSH2 0x3F1C JUMP JUMPDEST PUSH1 0x60 SWAP2 POP JUMPDEST POP POP SWAP1 POP DUP1 PUSH2 0x3F5D JUMPI PUSH1 0x40 MLOAD PUSH3 0x461BCD PUSH1 0xE5 SHL DUP2 MSTORE PUSH1 0x20 PUSH1 0x4 DUP3 ADD MSTORE PUSH1 0xD PUSH1 0x24 DUP3 ADD MSTORE PUSH13 0x1499599D5B990819985A5B1959 PUSH1 0x9A SHL PUSH1 0x44 DUP3 ADD MSTORE PUSH1 0x64 ADD PUSH2 0xB3D JUMP JUMPDEST POP JUMPDEST POP POP POP POP POP POP POP POP POP JUMP JUMPDEST PUSH1 0x40 MLOAD PUSH4 0x23B872DD PUSH1 0xE0 SHL DUP2 MSTORE DUP7 SWAP1 PUSH1 0x1 PUSH1 0x1 PUSH1 0xA0 SHL SUB DUP3 AND SWAP1 PUSH4 0x23B872DD SWAP1 PUSH2 0x3F9C SWAP1 DUP10 SWAP1 DUP10 SWAP1 DUP9 SWAP1 PUSH1 0x4 ADD PUSH2 0x46A4 JUMP JUMPDEST PUSH1 0x20 PUSH1 0x40 MLOAD DUP1 DUP4 SUB DUP2 PUSH1 0x0 DUP8 GAS CALL ISZERO DUP1 ISZERO PUSH2 0x3FBB JUMPI RETURNDATASIZE PUSH1 0x0 DUP1 RETURNDATACOPY RETURNDATASIZE PUSH1 0x0 REVERT JUMPDEST POP POP POP POP PUSH1 0x40 MLOAD RETURNDATASIZE PUSH1 0x1F NOT PUSH1 0x1F DUP3 ADD AND DUP3 ADD DUP1 PUSH1 0x40 MSTORE POP DUP2 ADD SWAP1 PUSH2 0x3FDF SWAP2 SWAP1 PUSH2 0x45C3 JUMP JUMPDEST PUSH2 0x4027 JUMPI PUSH1 0x40 MLOAD PUSH3 0x461BCD PUSH1 0xE5 SHL DUP2 MSTORE PUSH1 0x20 PUSH1 0x4 DUP3 ADD MSTORE PUSH1 0x19 PUSH1 0x24 DUP3 ADD MSTORE PUSH25 0x151C985B9CD9995C881D1BC81CD95B1B195C8819985A5B1959 PUSH1 0x3A SHL PUSH1 0x44 DUP3 ADD MSTORE PUSH1 0x64 ADD PUSH2 0xB3D JUMP JUMPDEST PUSH1 0x40 MLOAD PUSH4 0x23B872DD PUSH1 0xE0 SHL DUP2 MSTORE PUSH1 0x1 PUSH1 0x1 PUSH1 0xA0 SHL SUB DUP3 AND SWAP1 PUSH4 0x23B872DD SWAP1 PUSH2 0x4057 SWAP1 DUP10 SWAP1 DUP9 SWAP1 DUP8 SWAP1 PUSH1 0x4 ADD PUSH2 0x46A4 JUMP JUMPDEST PUSH1 0x20 PUSH1 0x40 MLOAD DUP1 DUP4 SUB DUP2 PUSH1 0x0 DUP8 GAS CALL ISZERO DUP1 ISZERO PUSH2 0x4076 JUMPI RETURNDATASIZE PUSH1 0x0 DUP1 RETURNDATACOPY RETURNDATASIZE PUSH1 0x0 REVERT JUMPDEST POP POP POP POP PUSH1 0x40 MLOAD RETURNDATASIZE PUSH1 0x1F NOT PUSH1 0x1F DUP3 ADD AND DUP3 ADD DUP1 PUSH1 0x40 MSTORE POP DUP2 ADD SWAP1 PUSH2 0x409A SWAP2 SWAP1 PUSH2 0x45C3 JUMP JUMPDEST PUSH2 0x40DC JUMPI PUSH1 0x40 MLOAD PUSH3 0x461BCD PUSH1 0xE5 SHL DUP2 MSTORE PUSH1 0x20 PUSH1 0x4 DUP3 ADD MSTORE PUSH1 0x13 PUSH1 0x24 DUP3 ADD MSTORE PUSH19 0x119959481D1C985B9CD9995C8819985A5B1959 PUSH1 0x6A SHL PUSH1 0x44 DUP3 ADD MSTORE PUSH1 0x64 ADD PUSH2 0xB3D JUMP JUMPDEST POP POP POP POP POP POP POP JUMP JUMPDEST PUSH1 0x40 MLOAD DUP1 PUSH1 0xC0 ADD PUSH1 0x40 MSTORE DUP1 PUSH1 0x0 DUP2 MSTORE PUSH1 0x20 ADD PUSH1 0x0 PUSH1 0x1 PUSH1 0x1 PUSH1 0xA0 SHL SUB AND DUP2 MSTORE PUSH1 0x20 ADD PUSH1 0x0 DUP2 MSTORE PUSH1 0x20 ADD PUSH1 0x0 PUSH1 0x1 PUSH1 0x1 PUSH1 0xA0 SHL SUB AND DUP2 MSTORE PUSH1 0x20 ADD PUSH1 0x0 DUP2 MSTORE PUSH1 0x20 ADD PUSH1 0x0 ISZERO ISZERO DUP2 MSTORE POP SWAP1 JUMP JUMPDEST PUSH1 0x0 PUSH1 0x20 DUP3 DUP5 SUB SLT ISZERO PUSH2 0x4141 JUMPI PUSH1 0x0 DUP1 REVERT JUMPDEST DUP2 CALLDATALOAD PUSH1 0x1 PUSH1 0x1 PUSH1 0xE0 SHL SUB NOT DUP2 AND DUP2 EQ PUSH2 0x353C JUMPI PUSH1 0x0 DUP1 REVERT JUMPDEST DUP1 ISZERO ISZERO DUP2 EQ PUSH2 0x202A JUMPI PUSH1 0x0 DUP1 REVERT JUMPDEST PUSH1 0x0 PUSH1 0x20 DUP3 DUP5 SUB SLT ISZERO PUSH2 0x4179 JUMPI PUSH1 0x0 DUP1 REVERT JUMPDEST DUP2 CALLDATALOAD PUSH2 0x353C DUP2 PUSH2 0x4159 JUMP JUMPDEST PUSH1 0x0 PUSH1 0x20 DUP3 DUP5 SUB SLT ISZERO PUSH2 0x4196 JUMPI PUSH1 0x0 DUP1 REVERT JUMPDEST POP CALLDATALOAD SWAP2 SWAP1 POP JUMP JUMPDEST DUP1 MLOAD DUP3 MSTORE PUSH1 0x20 DUP2 ADD MLOAD PUSH1 0x1 DUP1 PUSH1 0xA0 SHL SUB DUP1 DUP3 AND PUSH1 0x20 DUP6 ADD MSTORE PUSH1 0x40 DUP4 ADD MLOAD PUSH1 0x40 DUP6 ADD MSTORE DUP1 PUSH1 0x60 DUP5 ADD MLOAD AND PUSH1 0x60 DUP6 ADD MSTORE POP POP PUSH1 0x80 DUP2 ADD MLOAD PUSH1 0x80 DUP4 ADD MSTORE PUSH1 0xA0 DUP2 ADD MLOAD ISZERO ISZERO PUSH1 0xA0 DUP4 ADD MSTORE POP POP JUMP JUMPDEST PUSH1 0x20 DUP1 DUP3 MSTORE DUP3 MLOAD DUP3 DUP3 ADD DUP2 SWAP1 MSTORE PUSH1 0x0 SWAP2 SWAP1 DUP5 DUP3 ADD SWAP1 PUSH1 0x40 DUP6 ADD SWAP1 DUP5 JUMPDEST DUP2 DUP2 LT ISZERO PUSH2 0x4229 JUMPI PUSH2 0x4216 DUP4 DUP6 MLOAD PUSH2 0x419D JUMP JUMPDEST SWAP3 DUP5 ADD SWAP3 PUSH1 0xC0 SWAP3 SWAP1 SWAP3 ADD SWAP2 PUSH1 0x1 ADD PUSH2 0x4203 JUMP JUMPDEST POP SWAP1 SWAP7 SWAP6 POP POP POP POP POP POP JUMP JUMPDEST PUSH1 0x1 PUSH1 0x1 PUSH1 0xA0 SHL SUB DUP2 AND DUP2 EQ PUSH2 0x202A JUMPI PUSH1 0x0 DUP1 REVERT JUMPDEST PUSH1 0x0 DUP1 PUSH1 0x40 DUP4 DUP6 SUB SLT ISZERO PUSH2 0x425D JUMPI PUSH1 0x0 DUP1 REVERT JUMPDEST DUP3 CALLDATALOAD SWAP2 POP PUSH1 0x20 DUP4 ADD CALLDATALOAD PUSH2 0x426F DUP2 PUSH2 0x4235 JUMP JUMPDEST DUP1 SWAP2 POP POP SWAP3 POP SWAP3 SWAP1 POP JUMP JUMPDEST PUSH1 0x0 PUSH1 0x20 DUP3 DUP5 SUB SLT ISZERO PUSH2 0x428C JUMPI PUSH1 0x0 DUP1 REVERT JUMPDEST DUP2 CALLDATALOAD PUSH2 0x353C DUP2 PUSH2 0x4235 JUMP JUMPDEST PUSH1 0x0 DUP1 PUSH1 0x0 PUSH1 0x60 DUP5 DUP7 SUB SLT ISZERO PUSH2 0x42AC JUMPI PUSH1 0x0 DUP1 REVERT JUMPDEST POP POP DUP2 CALLDATALOAD SWAP4 PUSH1 0x20 DUP4 ADD CALLDATALOAD SWAP4 POP PUSH1 0x40 SWAP1 SWAP3 ADD CALLDATALOAD SWAP2 SWAP1 POP JUMP JUMPDEST PUSH1 0x0 DUP1 PUSH1 0x40 DUP4 DUP6 SUB SLT ISZERO PUSH2 0x42D6 JUMPI PUSH1 0x0 DUP1 REVERT JUMPDEST POP POP DUP1 CALLDATALOAD SWAP3 PUSH1 0x20 SWAP1 SWAP2 ADD CALLDATALOAD SWAP2 POP JUMP JUMPDEST PUSH1 0x0 DUP1 PUSH1 0x0 PUSH1 0x40 DUP5 DUP7 SUB SLT ISZERO PUSH2 0x42FA JUMPI PUSH1 0x0 DUP1 REVERT JUMPDEST DUP4 CALLDATALOAD PUSH8 0xFFFFFFFFFFFFFFFF DUP1 DUP3 GT ISZERO PUSH2 0x4312 JUMPI PUSH1 0x0 DUP1 REVERT JUMPDEST DUP2 DUP7 ADD SWAP2 POP DUP7 PUSH1 0x1F DUP4 ADD SLT PUSH2 0x4326 JUMPI PUSH1 0x0 DUP1 REVERT JUMPDEST DUP2 CALLDATALOAD DUP2 DUP2 GT ISZERO PUSH2 0x4335 JUMPI PUSH1 0x0 DUP1 REVERT JUMPDEST DUP8 PUSH1 0x20 DUP3 PUSH1 0x5 SHL DUP6 ADD ADD GT ISZERO PUSH2 0x434A JUMPI PUSH1 0x0 DUP1 REVERT JUMPDEST PUSH1 0x20 SWAP3 DUP4 ADD SWAP6 POP SWAP4 POP POP DUP5 ADD CALLDATALOAD PUSH2 0x4360 DUP2 PUSH2 0x4159 JUMP JUMPDEST DUP1 SWAP2 POP POP SWAP3 POP SWAP3 POP SWAP3 JUMP JUMPDEST PUSH1 0x0 DUP1 PUSH1 0x40 DUP4 DUP6 SUB SLT ISZERO PUSH2 0x437E JUMPI PUSH1 0x0 DUP1 REVERT JUMPDEST DUP3 CALLDATALOAD PUSH2 0x4389 DUP2 PUSH2 0x4235 JUMP JUMPDEST SWAP5 PUSH1 0x20 SWAP4 SWAP1 SWAP4 ADD CALLDATALOAD SWAP4 POP POP POP JUMP JUMPDEST PUSH1 0xC0 DUP2 ADD PUSH2 0xAD6 DUP3 DUP5 PUSH2 0x419D JUMP JUMPDEST PUSH1 0x0 DUP1 PUSH1 0x0 PUSH1 0x60 DUP5 DUP7 SUB SLT ISZERO PUSH2 0x43BA JUMPI PUSH1 0x0 DUP1 REVERT JUMPDEST DUP4 CALLDATALOAD SWAP3 POP PUSH1 0x20 DUP5 ADD CALLDATALOAD SWAP2 POP PUSH1 0x40 DUP5 ADD CALLDATALOAD PUSH2 0x4360 DUP2 PUSH2 0x4235 JUMP JUMPDEST PUSH1 0x0 DUP1 PUSH1 0x0 PUSH1 0x60 DUP5 DUP7 SUB SLT ISZERO PUSH2 0x43E8 JUMPI PUSH1 0x0 DUP1 REVERT JUMPDEST DUP4 CALLDATALOAD PUSH2 0x43F3 DUP2 PUSH2 0x4235 JUMP JUMPDEST SWAP3 POP PUSH1 0x20 DUP5 ADD CALLDATALOAD SWAP2 POP PUSH1 0x40 DUP5 ADD CALLDATALOAD PUSH2 0x4360 DUP2 PUSH2 0x4159 JUMP JUMPDEST PUSH1 0x0 DUP1 PUSH1 0x40 DUP4 DUP6 SUB SLT ISZERO PUSH2 0x441D JUMPI PUSH1 0x0 DUP1 REVERT JUMPDEST DUP3 CALLDATALOAD SWAP2 POP PUSH1 0x20 DUP4 ADD CALLDATALOAD PUSH2 0x426F DUP2 PUSH2 0x4159 JUMP JUMPDEST PUSH4 0x4E487B71 PUSH1 0xE0 SHL PUSH1 0x0 MSTORE PUSH1 0x21 PUSH1 0x4 MSTORE PUSH1 0x24 PUSH1 0x0 REVERT JUMPDEST PUSH1 0x4 DUP2 LT PUSH2 0x4463 JUMPI PUSH4 0x4E487B71 PUSH1 0xE0 SHL PUSH1 0x0 MSTORE PUSH1 0x21 PUSH1 0x4 MSTORE PUSH1 0x24 PUSH1 0x0 REVERT JUMPDEST SWAP1 MSTORE JUMP JUMPDEST DUP8 DUP2 MSTORE PUSH1 0x1 PUSH1 0x1 PUSH1 0xA0 SHL SUB DUP8 DUP2 AND PUSH1 0x20 DUP4 ADD MSTORE PUSH1 0x40 DUP3 ADD DUP8 SWAP1 MSTORE DUP6 AND PUSH1 0x60 DUP3 ADD MSTORE PUSH1 0xE0 DUP2 ADD PUSH2 0x4499 PUSH1 0x80 DUP4 ADD DUP7 PUSH2 0x4445 JUMP JUMPDEST PUSH1 0xA0 DUP3 ADD SWAP4 SWAP1 SWAP4 MSTORE PUSH1 0xC0 ADD MSTORE SWAP6 SWAP5 POP POP POP POP POP JUMP JUMPDEST PUSH1 0x0 DUP1 PUSH1 0x0 DUP1 PUSH1 0x0 PUSH1 0xA0 DUP7 DUP9 SUB SLT ISZERO PUSH2 0x44C6 JUMPI PUSH1 0x0 DUP1 REVERT JUMPDEST DUP6 CALLDATALOAD SWAP5 POP PUSH1 0x20 DUP7 ADD CALLDATALOAD SWAP4 POP PUSH1 0x40 DUP7 ADD CALLDATALOAD PUSH2 0x44DF DUP2 PUSH2 0x4235 JUMP JUMPDEST SWAP3 POP PUSH1 0x60 DUP7 ADD CALLDATALOAD SWAP2 POP PUSH1 0x80 DUP7 ADD CALLDATALOAD PUSH2 0x44F6 DUP2 PUSH2 0x4235 JUMP JUMPDEST DUP1 SWAP2 POP POP SWAP3 SWAP6 POP SWAP3 SWAP6 SWAP1 SWAP4 POP JUMP JUMPDEST PUSH1 0x1 PUSH1 0x1 PUSH1 0xA0 SHL SUB DUP7 DUP2 AND DUP3 MSTORE PUSH1 0x20 DUP3 ADD DUP7 SWAP1 MSTORE DUP5 AND PUSH1 0x40 DUP3 ADD MSTORE PUSH1 0xA0 DUP2 ADD PUSH2 0x4530 PUSH1 0x60 DUP4 ADD DUP6 PUSH2 0x4445 JUMP JUMPDEST DUP3 PUSH1 0x80 DUP4 ADD MSTORE SWAP7 SWAP6 POP POP POP POP POP POP JUMP JUMPDEST PUSH1 0x0 JUMPDEST DUP4 DUP2 LT ISZERO PUSH2 0x455B JUMPI DUP2 DUP2 ADD MLOAD DUP4 DUP3 ADD MSTORE PUSH1 0x20 ADD PUSH2 0x4543 JUMP JUMPDEST POP POP PUSH1 0x0 SWAP2 ADD MSTORE JUMP JUMPDEST PUSH1 0x20 DUP2 MSTORE PUSH1 0x0 DUP3 MLOAD DUP1 PUSH1 0x20 DUP5 ADD MSTORE PUSH2 0x4583 DUP2 PUSH1 0x40 DUP6 ADD PUSH1 0x20 DUP8 ADD PUSH2 0x4540 JUMP JUMPDEST PUSH1 0x1F ADD PUSH1 0x1F NOT AND SWAP2 SWAP1 SWAP2 ADD PUSH1 0x40 ADD SWAP3 SWAP2 POP POP JUMP JUMPDEST PUSH4 0x4E487B71 PUSH1 0xE0 SHL PUSH1 0x0 MSTORE PUSH1 0x32 PUSH1 0x4 MSTORE PUSH1 0x24 PUSH1 0x0 REVERT JUMPDEST PUSH4 0x4E487B71 PUSH1 0xE0 SHL PUSH1 0x0 MSTORE PUSH1 0x41 PUSH1 0x4 MSTORE PUSH1 0x24 PUSH1 0x0 REVERT JUMPDEST PUSH1 0x0 PUSH1 0x20 DUP3 DUP5 SUB SLT ISZERO PUSH2 0x45D5 JUMPI PUSH1 0x0 DUP1 REVERT JUMPDEST DUP2 MLOAD PUSH2 0x353C DUP2 PUSH2 0x4159 JUMP JUMPDEST PUSH4 0x4E487B71 PUSH1 0xE0 SHL PUSH1 0x0 MSTORE PUSH1 0x11 PUSH1 0x4 MSTORE PUSH1 0x24 PUSH1 0x0 REVERT JUMPDEST DUP2 DUP2 SUB DUP2 DUP2 GT ISZERO PUSH2 0xAD6 JUMPI PUSH2 0xAD6 PUSH2 0x45E0 JUMP JUMPDEST PUSH1 0x0 PUSH1 0x20 DUP3 DUP5 SUB SLT ISZERO PUSH2 0x461B JUMPI PUSH1 0x0 DUP1 REVERT JUMPDEST DUP2 MLOAD PUSH2 0x353C DUP2 PUSH2 0x4235 JUMP JUMPDEST DUP1 DUP3 ADD DUP1 DUP3 GT ISZERO PUSH2 0xAD6 JUMPI PUSH2 0xAD6 PUSH2 0x45E0 JUMP JUMPDEST PUSH1 0x0 PUSH1 0x20 DUP3 DUP5 SUB SLT ISZERO PUSH2 0x464B JUMPI PUSH1 0x0 DUP1 REVERT JUMPDEST POP MLOAD SWAP2 SWAP1 POP JUMP JUMPDEST PUSH1 0x0 PUSH1 0x1 DUP3 ADD PUSH2 0x4664 JUMPI PUSH2 0x4664 PUSH2 0x45E0 JUMP JUMPDEST POP PUSH1 0x1 ADD SWAP1 JUMP JUMPDEST DUP1 DUP3 MUL DUP2 ISZERO DUP3 DUP3 DIV DUP5 EQ OR PUSH2 0xAD6 JUMPI PUSH2 0xAD6 PUSH2 0x45E0 JUMP JUMPDEST PUSH1 0x0 DUP3 PUSH2 0x469F JUMPI PUSH4 0x4E487B71 PUSH1 0xE0 SHL PUSH1 0x0 MSTORE PUSH1 0x12 PUSH1 0x4 MSTORE PUSH1 0x24 PUSH1 0x0 REVERT JUMPDEST POP DIV SWAP1 JUMP JUMPDEST PUSH1 0x1 PUSH1 0x1 PUSH1 0xA0 SHL SUB SWAP4 DUP5 AND DUP2 MSTORE SWAP2 SWAP1 SWAP3 AND PUSH1 0x20 DUP3 ADD MSTORE PUSH1 0x40 DUP2 ADD SWAP2 SWAP1 SWAP2 MSTORE PUSH1 0x60 ADD SWAP1 JUMP JUMPDEST PUSH32 0x416363657373436F6E74726F6C3A206163636F756E7420000000000000000000 DUP2 MSTORE PUSH1 0x0 DUP4 MLOAD PUSH2 0x4700 DUP2 PUSH1 0x17 DUP6 ADD PUSH1 0x20 DUP9 ADD PUSH2 0x4540 JUMP JUMPDEST PUSH17 0x1034B99036B4B9B9B4B733903937B6329 PUSH1 0x7D SHL PUSH1 0x17 SWAP2 DUP5 ADD SWAP2 DUP3 ADD MSTORE DUP4 MLOAD PUSH2 0x4731 DUP2 PUSH1 0x28 DUP5 ADD PUSH1 0x20 DUP9 ADD PUSH2 0x4540 JUMP JUMPDEST ADD PUSH1 0x28 ADD SWAP5 SWAP4 POP POP POP POP JUMP JUMPDEST PUSH4 0x4E487B71 PUSH1 0xE0 SHL PUSH1 0x0 MSTORE PUSH1 0x31 PUSH1 0x4 MSTORE PUSH1 0x24 PUSH1 0x0 REVERT JUMPDEST PUSH1 0x0 DUP2 PUSH2 0x4762 JUMPI PUSH2 0x4762 PUSH2 0x45E0 JUMP JUMPDEST POP PUSH1 0x0 NOT ADD SWAP1 JUMP INVALID SWAP8 PUSH7 0x7070C54EF182B0 CREATE2 DUP6 DUP12 SUB 0x4B 0xEA 0xC1 0xB6 RETURN ADDMOD SWAP11 LOG2 0xD3 XOR DUP12 0xB1 0xE8 SWAP3 SWAP16 0x4F 0xA9 0xB9 0x29 LOG2 PUSH5 0x6970667358 0x22 SLT KECCAK256 0xB0 SIGNEXTEND PUSH3 0x4274E3 SWAP11 PUSH3 0x130088 0xE9 MLOAD SHL PUSH15 0x5F4A95EBC569B820FCD2455937AEDE PUSH12 0x8C64736F6C63430008140033 "},"methodIdentifiers":{"BASIS_POINTS()":"e1f1c4a7","DEFAULT_ADMIN_ROLE()":"a217fddf","LEGAL_ROLE()":"8e7579a1","MIN_BID_INCREMENT_PERCENT()":"bc996819","OPERATOR_ROLE()":"f5b541a6","PERCENTAGE_BASE()":"87c13943","REWARD_MANAGER()":"5932fdba","acceptBid(uint256,uint256,address,uint256,address)":"e58a7b31","addAllowedToken(address)":"4178617f","allowedPaymentTokens(address)":"697d312a","batchApproveKYC(address[],bool)":"5dda3e01","bidIndexByBidder(address,uint256)":"69fcc649","bidsForToken(uint256,uint256)":"c7921a7c","calculateRewards(address,uint256)":"beb8314c","cancelBid(uint256)":"9703ef35","communityScores(address)":"73c250c6","configureRewards(uint256,uint256,uint256)":"4a277ec5","emergencyPauseFunction(uint256,bool)":"cf23913b","ethBidDeposits(uint256,address)":"ddd1a5bf","feeConfig()":"1e5eb1d0","functionPaused(uint256)":"ee5b8e0e","getActiveBidsForToken(uint256)":"1276291c","getBidFromBidder(uint256,address)":"79cef8bd","getCurrentFee()":"f70d9362","getListingDetails(uint256)":"fb05da2e","getRoleAdmin(bytes32)":"248a9ca3","globalPause()":"f12d54d8","globalUnpause()":"ce190578","grantRole(bytes32,address)":"2f2ff15d","hasRole(bytes32,address)":"91d14854","isKYCVerified(address)":"54b7636e","isTokenAllowed(address)":"f9eaee0d","listProperty(uint256,uint256,address)":"86aa217e","listings(uint256)":"de74e57b","nftiContract()":"592eb924","nftmContract()":"cbb9c9a4","paused()":"5c975abb","placeBid(uint256,uint256,address)":"ad6561ec","purchaseProperty(uint256,uint256)":"4f843494","removeAllowedToken(address)":"90469a9d","renounceRole(bytes32,address)":"36568abe","revokeRole(bytes32,address)":"d547741f","rewardParams()":"76346914","setWhitelistEnabled(bool)":"052d9e7e","supportsInterface(bytes4)":"01ffc9a7","updateCommunityScore(address,uint256,bool)":"a33b2d3f","updateFeeConfig(uint256,address)":"88f0bc73","updateListing(uint256,uint256,address)":"887f495a","whitelistEnabled()":"51fb012d"}}}}}