{"contracts/tokens/LifeToken.sol":{"LifeToken":{"abi":[{"inputs":[{"internalType":"address","name":"initialOwner_","type":"address"}],"stateMutability":"nonpayable","type":"constructor"},{"anonymous":false,"inputs":[{"indexed":true,"internalType":"address","name":"owner","type":"address"},{"indexed":true,"internalType":"address","name":"spender","type":"address"},{"indexed":false,"internalType":"uint256","name":"value","type":"uint256"}],"name":"Approval","type":"event"},{"anonymous":false,"inputs":[{"indexed":true,"internalType":"address","name":"account","type":"address"},{"indexed":false,"internalType":"uint256","name":"oldAmount","type":"uint256"},{"indexed":false,"internalType":"uint256","name":"newAmount","type":"uint256"},{"indexed":false,"internalType":"uint256","name":"timestamp","type":"uint256"}],"name":"BaseBalanceAdjusted","type":"event"},{"anonymous":false,"inputs":[{"indexed":true,"internalType":"address","name":"newDistributor","type":"address"}],"name":"DistributorUpdated","type":"event"},{"anonymous":false,"inputs":[{"indexed":true,"internalType":"address","name":"account","type":"address"},{"indexed":false,"internalType":"bool","name":"oldExcluded","type":"bool"},{"indexed":false,"internalType":"bool","name":"newExcluded","type":"bool"}],"name":"ExcludedFromRebase","type":"event"},{"anonymous":false,"inputs":[{"indexed":true,"internalType":"address","name":"recipient","type":"address"},{"indexed":false,"internalType":"uint256","name":"amount","type":"uint256"}],"name":"Mint","type":"event"},{"anonymous":false,"inputs":[{"indexed":true,"internalType":"address","name":"canceledOwner","type":"address"}],"name":"OwnershipTransferCanceled","type":"event"},{"anonymous":false,"inputs":[{"indexed":true,"internalType":"address","name":"pendingOwner","type":"address"}],"name":"OwnershipTransferStarted","type":"event"},{"anonymous":false,"inputs":[{"indexed":true,"internalType":"address","name":"previousOwner","type":"address"},{"indexed":true,"internalType":"address","name":"newOwner","type":"address"}],"name":"OwnershipTransferred","type":"event"},{"anonymous":false,"inputs":[{"indexed":true,"internalType":"uint256","name":"epoch","type":"uint256"},{"indexed":false,"internalType":"uint256","name":"oldFactor","type":"uint256"},{"indexed":false,"internalType":"uint256","name":"newFactor","type":"uint256"}],"name":"Rebase","type":"event"},{"anonymous":false,"inputs":[{"indexed":true,"internalType":"address","name":"newRebaser","type":"address"}],"name":"RebaserUpdated","type":"event"},{"anonymous":false,"inputs":[{"indexed":true,"internalType":"address","name":"from","type":"address"},{"indexed":true,"internalType":"address","name":"to","type":"address"},{"indexed":false,"internalType":"uint256","name":"value","type":"uint256"}],"name":"Transfer","type":"event"},{"inputs":[],"name":"INITIAL_SUPPLY","outputs":[{"internalType":"uint256","name":"","type":"uint256"}],"stateMutability":"view","type":"function"},{"inputs":[],"name":"MAX_REBASE_FACTOR","outputs":[{"internalType":"uint256","name":"","type":"uint256"}],"stateMutability":"view","type":"function"},{"inputs":[],"name":"MAX_SUPPLY","outputs":[{"internalType":"uint256","name":"","type":"uint256"}],"stateMutability":"view","type":"function"},{"inputs":[],"name":"MIN_SUPPLY","outputs":[{"internalType":"uint256","name":"","type":"uint256"}],"stateMutability":"view","type":"function"},{"inputs":[],"name":"REBASE_FACTOR_PRECISION","outputs":[{"internalType":"uint256","name":"","type":"uint256"}],"stateMutability":"view","type":"function"},{"inputs":[],"name":"TOKEN_UNIT","outputs":[{"internalType":"uint256","name":"","type":"uint256"}],"stateMutability":"view","type":"function"},{"inputs":[],"name":"acceptOwnership","outputs":[],"stateMutability":"nonpayable","type":"function"},{"inputs":[{"internalType":"address","name":"owner","type":"address"},{"internalType":"address","name":"spender","type":"address"}],"name":"allowance","outputs":[{"internalType":"uint256","name":"","type":"uint256"}],"stateMutability":"view","type":"function"},{"inputs":[{"internalType":"address","name":"spender","type":"address"},{"internalType":"uint256","name":"amount","type":"uint256"}],"name":"approve","outputs":[{"internalType":"bool","name":"","type":"bool"}],"stateMutability":"nonpayable","type":"function"},{"inputs":[{"internalType":"address","name":"account","type":"address"}],"name":"balanceOf","outputs":[{"internalType":"uint256","name":"","type":"uint256"}],"stateMutability":"view","type":"function"},{"inputs":[],"name":"cancelOwnershipTransfer","outputs":[],"stateMutability":"nonpayable","type":"function"},{"inputs":[],"name":"decimals","outputs":[{"internalType":"uint8","name":"","type":"uint8"}],"stateMutability":"view","type":"function"},{"inputs":[{"internalType":"address","name":"spender","type":"address"},{"internalType":"uint256","name":"subtractedValue","type":"uint256"}],"name":"decreaseAllowance","outputs":[{"internalType":"bool","name":"","type":"bool"}],"stateMutability":"nonpayable","type":"function"},{"inputs":[],"name":"distributor","outputs":[{"internalType":"address","name":"","type":"address"}],"stateMutability":"view","type":"function"},{"inputs":[{"internalType":"address","name":"account_","type":"address"}],"name":"excludeFromRebase","outputs":[],"stateMutability":"nonpayable","type":"function"},{"inputs":[{"internalType":"address","name":"account","type":"address"}],"name":"getBaseBalanceHistory","outputs":[{"components":[{"internalType":"uint256","name":"amount","type":"uint256"},{"internalType":"uint256","name":"timestamp","type":"uint256"}],"internalType":"struct LifeToken.BaseBalanceRecord[]","name":"","type":"tuple[]"}],"stateMutability":"view","type":"function"},{"inputs":[],"name":"getExcludedFromRebaseTotal","outputs":[{"internalType":"uint256","name":"","type":"uint256"}],"stateMutability":"view","type":"function"},{"inputs":[{"internalType":"address","name":"account","type":"address"}],"name":"includeInRebase","outputs":[],"stateMutability":"nonpayable","type":"function"},{"inputs":[{"internalType":"address","name":"spender","type":"address"},{"internalType":"uint256","name":"addedValue","type":"uint256"}],"name":"increaseAllowance","outputs":[{"internalType":"bool","name":"","type":"bool"}],"stateMutability":"nonpayable","type":"function"},{"inputs":[],"name":"initialDistributionDone","outputs":[{"internalType":"bool","name":"","type":"bool"}],"stateMutability":"view","type":"function"},{"inputs":[{"internalType":"address","name":"account","type":"address"}],"name":"isExcludedFromRebase","outputs":[{"internalType":"bool","name":"","type":"bool"}],"stateMutability":"view","type":"function"},{"inputs":[{"internalType":"address","name":"recipient","type":"address"}],"name":"mintRemainingSupply","outputs":[],"stateMutability":"nonpayable","type":"function"},{"inputs":[],"name":"name","outputs":[{"internalType":"string","name":"","type":"string"}],"stateMutability":"view","type":"function"},{"inputs":[],"name":"owner","outputs":[{"internalType":"address","name":"","type":"address"}],"stateMutability":"view","type":"function"},{"inputs":[],"name":"ownershipTransferTime","outputs":[{"internalType":"uint256","name":"","type":"uint256"}],"stateMutability":"view","type":"function"},{"inputs":[{"internalType":"uint256","name":"newRebaseFactor","type":"uint256"}],"name":"rebase","outputs":[],"stateMutability":"nonpayable","type":"function"},{"inputs":[],"name":"rebaseConfig","outputs":[{"internalType":"uint256","name":"lastRebaseTimestamp","type":"uint256"},{"internalType":"uint256","name":"minRebaseInterval","type":"uint256"},{"internalType":"uint256","name":"rebaseFactor","type":"uint256"},{"internalType":"uint256","name":"epoch","type":"uint256"}],"stateMutability":"view","type":"function"},{"inputs":[],"name":"rebaseEpoch","outputs":[{"internalType":"uint256","name":"","type":"uint256"}],"stateMutability":"view","type":"function"},{"inputs":[],"name":"rebaser","outputs":[{"internalType":"address","name":"","type":"address"}],"stateMutability":"view","type":"function"},{"inputs":[],"name":"renounceOwnership","outputs":[],"stateMutability":"view","type":"function"},{"inputs":[{"internalType":"address","name":"newDistributor_","type":"address"}],"name":"setDistributor","outputs":[],"stateMutability":"nonpayable","type":"function"},{"inputs":[{"internalType":"address","name":"newRebaser_","type":"address"}],"name":"setRebaser","outputs":[],"stateMutability":"nonpayable","type":"function"},{"inputs":[],"name":"symbol","outputs":[{"internalType":"string","name":"","type":"string"}],"stateMutability":"view","type":"function"},{"inputs":[],"name":"totalSupply","outputs":[{"internalType":"uint256","name":"","type":"uint256"}],"stateMutability":"view","type":"function"},{"inputs":[{"internalType":"address","name":"to","type":"address"},{"internalType":"uint256","name":"amount","type":"uint256"}],"name":"transfer","outputs":[{"internalType":"bool","name":"","type":"bool"}],"stateMutability":"nonpayable","type":"function"},{"inputs":[{"internalType":"address","name":"from","type":"address"},{"internalType":"address","name":"to","type":"address"},{"internalType":"uint256","name":"amount","type":"uint256"}],"name":"transferFrom","outputs":[{"internalType":"bool","name":"","type":"bool"}],"stateMutability":"nonpayable","type":"function"},{"inputs":[{"internalType":"address","name":"newOwner","type":"address"}],"name":"transferOwnership","outputs":[],"stateMutability":"nonpayable","type":"function"}],"evm":{"bytecode":{"linkReferences":{},"object":"60806040523480156200001157600080fd5b5060405162001feb38038062001feb833981016040819052620000349162000241565b6040518060400160405280601081526020016f26b0b730b3b2a634b332902a37b5b2b760811b815250604051806040016040528060048152602001634c69666560e01b81525081600390816200008b919062000318565b5060046200009a828262000318565b505050620000b7620000b1620001eb60201b60201c565b620001ef565b6001600160a01b038116620001125760405162461bcd60e51b815260206004820152601860248201527f5a65726f2061646472657373206e6f7420616c6c6f7765640000000000000000604482015260640160405180910390fd5b6200011d81620001ef565b600780546001600160a01b0383166001600160a01b03199182168117909255600880549091169091179055604080516080810182524280825262278d006020808401829052670de0b6b3a764000084860181905260006060909501859052600993909355600a91909155600b91909155600c82905530808352600e82528383206b06765c793fa10079d00000009081905560108190559351938452927fddf252ad1be2c89b69c2b068fc378daa952ba7f163c4a11628f55a4df523b3ef910160405180910390a350620003e4565b3390565b600580546001600160a01b038381166001600160a01b0319831681179093556040519116919082907f8be0079c531659141344cd1fd0a4f28419497f9722a3daafe3b4186f6b6457e090600090a35050565b6000602082840312156200025457600080fd5b81516001600160a01b03811681146200026c57600080fd5b9392505050565b634e487b7160e01b600052604160045260246000fd5b600181811c908216806200029e57607f821691505b602082108103620002bf57634e487b7160e01b600052602260045260246000fd5b50919050565b601f8211156200031357600081815260208120601f850160051c81016020861015620002ee5750805b601f850160051c820191505b818110156200030f57828155600101620002fa565b5050505b505050565b81516001600160401b0381111562000334576200033462000273565b6200034c8162000345845462000289565b84620002c5565b602080601f8311600181146200038457600084156200036b5750858301515b600019600386901b1c1916600185901b1785556200030f565b600085815260208120601f198616915b82811015620003b55788860151825594840194600190910190840162000394565b5085821015620003d45787850151600019600388901b60f8161c191681555b5050505050600190811b01905550565b611bf780620003f46000396000f3fe608060405234801561001057600080fd5b50600436106102275760003560e01c806379ba509711610130578063bfe10928116100b8578063dd62ed3e1161007c578063dd62ed3e14610483578063e46adf6214610496578063e7d6289b146104a9578063f06d66b8146104bc578063f2fde38b146104cf57600080fd5b8063bfe1092814610425578063c02e4b3814610438578063d360127114610447578063d54d97ed14610467578063d55d60f91461047a57600080fd5b8063a457c2d7116100ff578063a457c2d7146103dd578063a5c9cd82146103f0578063a9059cbb146103ff578063b48ca720146103f0578063bc4f2d6d1461041257600080fd5b806379ba5097146103b45780638da5cb5b146103bc57806395d89b41146103cd578063a236b83a146103d557600080fd5b8063313ce567116101b35780634d3d0553116101825780634d3d05531461034757806357b535c01461037d57806370a0823114610386578063715018a61461039957806375619ab5146103a157600080fd5b8063313ce5671461030157806332cb6b0c1461031057806335917c6414610323578063395093511461033457600080fd5b806311fd8a83116101fa57806311fd8a831461029257806318160ddd146102bd57806323452b9c146102d357806323b872dd146102db5780632ff2e9dc146102ee57600080fd5b80630535ec771461022c57806306fdde0314610255578063095ea7b31461026a5780630e23d25c1461027d575b600080fd5b60085461024090600160a01b900460ff1681565b60405190151581526020015b60405180910390f35b61025d6104e2565b60405161024c919061193c565b6102406102783660046119a6565b610574565b61029061028b3660046119d0565b61058e565b005b6007546102a5906001600160a01b031681565b6040516001600160a01b03909116815260200161024c565b6102c56107e4565b60405190815260200161024c565b610290610830565b6102406102e93660046119eb565b6108d5565b6102c56b06765c793fa10079d000000081565b6040516012815260200161024c565b6102c56b1027e72f1f1281308800000081565b6102c569d3c21bcecceda100000081565b6102406103423660046119a6565b6108f9565b600954600a54600b54600c5461035d9392919084565b60408051948552602085019390935291830152606082015260800161024c565b6102c560125481565b6102c56103943660046119d0565b61091b565b610290610991565b6102906103af3660046119d0565b6109e1565b610290610a8d565b6005546001600160a01b03166102a5565b61025d610bac565b6011546102c5565b6102406103eb3660046119a6565b610bbb565b6102c5670de0b6b3a764000081565b61024061040d3660046119a6565b610c36565b610290610420366004611a27565b610c44565b6008546102a5906001600160a01b031681565b6102c5678ac7230489e8000081565b61045a6104553660046119d0565b610ec3565b60405161024c9190611a40565b6102906104753660046119d0565b610f6f565b6102c560135481565b6102c5610491366004611a8f565b611086565b6102906104a43660046119d0565b6110b1565b6102906104b73660046119d0565b61114b565b6102406104ca3660046119d0565b611268565b6102906104dd3660046119d0565b6112af565b6060600380546104f190611ac2565b80601f016020809104026020016040519081016040528092919081815260200182805461051d90611ac2565b801561056a5780601f1061053f5761010080835404028352916020019161056a565b820191906000526020600020905b81548152906001019060200180831161054d57829003601f168201915b5050505050905090565b600033610582818585611361565b60019150505b92915050565b610596611485565b6001600160a01b0381166105f15760405162461bcd60e51b815260206004820152601b60248201527f43616e6e6f74206d696e7420746f207a65726f2061646472657373000000000060448201526064015b60405180910390fd5b60006105fb6107e4565b90506b1027e72f1f1281308800000081106106585760405162461bcd60e51b815260206004820152601960248201527f4d617820737570706c7920616c7265616479206d696e7465640000000000000060448201526064016105e8565b6000610670826b1027e72f1f12813088000000611b12565b6001600160a01b0384166000908152600d60205260408120549192509060ff166106b857600b546106b3906106ad84670de0b6b3a76400006114e1565b906114f4565b6106ba565b815b6001600160a01b0385166000908152600e60205260408120805492935083916106e38385611b25565b9250508190555081601060008282546106fc9190611b25565b90915550506001600160a01b0385166000908152600d602052604090205460ff16156107335760115461072f9083611500565b6011555b6001600160a01b0385166000908152600e6020526040902054610759908690839061150c565b6040518381526001600160a01b038616906000907fddf252ad1be2c89b69c2b068fc378daa952ba7f163c4a11628f55a4df523b3ef9060200160405180910390a3846001600160a01b03167f0f6798a560793a54c3bcfe86a93cde1e73087d944c0ea20544137d4121396885846040516107d591815260200190565b60405180910390a25050505050565b600080670de0b6b3a76400006009600201546011546010546108069190611b12565b6108109190611b38565b61081a9190611b4f565b90506011548161082a9190611b25565b91505090565b610838611485565b6006546001600160a01b03166108865760405162461bcd60e51b81526020600482015260136024820152722737903832b73234b733903a3930b739b332b960691b60448201526064016105e8565b6006546040516001600160a01b03909116907f6ecd4842251bedd053b09547c0fabaab9ec98506ebf24469e8dd5560412ed37f90600090a2600680546001600160a01b03191690556000601355565b6000336108e38582856115a1565b6108ee85858561161b565b506001949350505050565b60003361058281858561090c8383611086565b6109169190611b25565b611361565b6001600160a01b0381166000908152600d602052604081205460ff161561095857506001600160a01b03166000908152600e602052604090205490565b600b546001600160a01b0383166000908152600e6020526040902054670de0b6b3a76400009161098791611b38565b6105889190611b4f565b610999611485565b60405162461bcd60e51b815260206004820152601f60248201527f4f776e6572736869702072656e756e63696174696f6e2064697361626c65640060448201526064016105e8565b6109e9611485565b600854600160a01b900460ff1615610a435760405162461bcd60e51b815260206004820152601e60248201527f446973747269627574696f6e20616c726561647920636f6d706c65746564000060448201526064016105e8565b600880546001600160a01b0319166001600160a01b0383169081179091556040517fc0ebb188f905d128bcd7e4282dd1f9cf24cd331b69071002e488349aca6a867b90600090a250565b6006546001600160a01b0316610adb5760405162461bcd60e51b81526020600482015260136024820152722737903832b73234b733903a3930b739b332b960691b60448201526064016105e8565b601354421015610b265760405162461bcd60e51b8152602060048201526016602482015275151c985b9cd9995c8819195b185e481b9bdd081b595d60521b60448201526064016105e8565b6006546001600160a01b03163314610b805760405162461bcd60e51b815260206004820152601860248201527f43616c6c6572206e6f742070656e64696e67206f776e6572000000000000000060448201526064016105e8565b600654610b95906001600160a01b03166118de565b600680546001600160a01b03191690556000601355565b6060600480546104f190611ac2565b60003381610bc98286611086565b905083811015610c295760405162461bcd60e51b815260206004820152602560248201527f45524332303a2064656372656173656420616c6c6f77616e63652062656c6f77604482015264207a65726f60d81b60648201526084016105e8565b6108ee8286868403611361565b60003361058281858561161b565b6007546001600160a01b03163314610c9e5760405162461bcd60e51b815260206004820152601960248201527f43616c6c6572206973206e6f742074686520726562617365720000000000000060448201526064016105e8565b600a54600954610cae9190611b25565b421015610cfd5760405162461bcd60e51b815260206004820152601760248201527f52656261736520696e74657276616c206e6f74206d657400000000000000000060448201526064016105e8565b60008111610d455760405162461bcd60e51b815260206004820152601560248201527424b73b30b634b2103932b130b9b2903330b1ba37b960591b60448201526064016105e8565b678ac7230489e80000811115610d965760405162461bcd60e51b81526020600482015260166024820152750a4cac4c2e6ca40ccc2c6e8dee440e8dede40d0d2ced60531b60448201526064016105e8565b6000670de0b6b3a764000082601054610daf9190611b38565b610db99190611b4f565b90506b1027e72f1f12813088000000811115610e105760405162461bcd60e51b8152602060048201526016602482015275537570706c792065786365656473206d6178696d756d60501b60448201526064016105e8565b69d3c21bcecceda1000000811015610e615760405162461bcd60e51b8152602060048201526014602482015273537570706c792062656c6f77206d696e696d756d60601b60448201526064016105e8565b600b80549083905542600955600c8054906000610e7d83611b71565b9091555050600c5460408051838152602081018690527fc6642d24d84e7f3d36ca39f5cce10e75639d9b158d5193aa350e2f900653e4c0910160405180910390a2505050565b60606001600160a01b038216610eeb5760405162461bcd60e51b81526004016105e890611b8a565b6001600160a01b0382166000908152600f6020908152604080832080548251818502810185019093528083529193909284015b82821015610f6457838290600052602060002090600202016040518060400160405290816000820154815260200160018201548152505081526020019060010190610f1e565b505050509050919050565b610f77611485565b6001600160a01b038116610f9d5760405162461bcd60e51b81526004016105e890611b8a565b6001600160a01b0381166000908152600d602052604090205460ff1680610ffd5760405162461bcd60e51b81526020600482015260146024820152731058d8dbdd5b9d081b9bdd08195e18db1d59195960621b60448201526064016105e8565b6001600160a01b0382166000908152600e602052604090205460115461102291611930565b6011556001600160a01b0382166000818152600d60209081526040808320805460ff1916905580518515158152918201929092527f0ebf4318915b850f5616a5f8a1a5ae6ce4faab31726b6ed1385e582e19c1ba7d91015b60405180910390a25050565b6001600160a01b03918216600090815260016020908152604080832093909416825291909152205490565b6110b9611485565b6001600160a01b0381166111015760405162461bcd60e51b815260206004820152600f60248201526e496e76616c6964206164647265737360881b60448201526064016105e8565b600780546001600160a01b0319166001600160a01b0383169081179091556040517f80910f486ec44179623ed755c408902927264bcf6c44b08b8bbd8f6ad283697a90600090a250565b611153611485565b6001600160a01b0381166111795760405162461bcd60e51b81526004016105e890611b8a565b6001600160a01b0381166000908152600d602052604090205460ff1680156111e35760405162461bcd60e51b815260206004820152601860248201527f4163636f756e7420616c7265616479206578636c75646564000000000000000060448201526064016105e8565b6001600160a01b0382166000908152600e602052604090205460115461120891611500565b6011556001600160a01b0382166000818152600d6020908152604091829020805460ff1916600190811790915582518515158152918201527f0ebf4318915b850f5616a5f8a1a5ae6ce4faab31726b6ed1385e582e19c1ba7d910161107a565b60006001600160a01b0382166112905760405162461bcd60e51b81526004016105e890611b8a565b506001600160a01b03166000908152600d602052604090205460ff1690565b6112b7611485565b6001600160a01b0381166112ff5760405162461bcd60e51b815260206004820152600f60248201526e496e76616c6964206164647265737360881b60448201526064016105e8565b600680546001600160a01b0319166001600160a01b0383161790556113276202a30042611b25565b6013556040516001600160a01b038216907fd9be0e8e07417e00f2521db636cb53e316fd288f5051f16d2aa2bf0c3938a87690600090a250565b6001600160a01b0383166113c35760405162461bcd60e51b8152602060048201526024808201527f45524332303a20617070726f76652066726f6d20746865207a65726f206164646044820152637265737360e01b60648201526084016105e8565b6001600160a01b0382166114245760405162461bcd60e51b815260206004820152602260248201527f45524332303a20617070726f766520746f20746865207a65726f206164647265604482015261737360f01b60648201526084016105e8565b6001600160a01b0383811660008181526001602090815260408083209487168084529482529182902085905590518481527f8c5be1e5ebec7d5bd14f71427d1e84f3dd0314c0f7b2291e5b200ac8c7c3b925910160405180910390a3505050565b6005546001600160a01b031633146114df5760405162461bcd60e51b815260206004820181905260248201527f4f776e61626c653a2063616c6c6572206973206e6f7420746865206f776e657260448201526064016105e8565b565b60006114ed8284611b38565b9392505050565b60006114ed8284611b4f565b60006114ed8284611b25565b6001600160a01b0383166000818152600f6020908152604080832081518083018352868152428185018181528354600180820186558589529787902093516002909102909301928355519190950155815187815292830186905282820193909352519192917fd6822a0e90ec13780d19f97be90a3bb74627ab42b26a3df64d69359a01352e2b9181900360600190a250505050565b60006115ad8484611086565b9050600019811461161557818110156116085760405162461bcd60e51b815260206004820152601d60248201527f45524332303a20696e73756666696369656e7420616c6c6f77616e636500000060448201526064016105e8565b6116158484848403611361565b50505050565b6001600160a01b0383166116715760405162461bcd60e51b815260206004820152601a60248201527f5472616e736665722066726f6d207a65726f206164647265737300000000000060448201526064016105e8565b6001600160a01b0382166116c75760405162461bcd60e51b815260206004820152601860248201527f5472616e7366657220746f207a65726f2061646472657373000000000000000060448201526064016105e8565b6001600160a01b0383166000908152600d602052604081205460ff16156116ef575080611711565b600b54611704670de0b6b3a764000084611b38565b61170e9190611b4f565b90505b6001600160a01b0384166000908152600e60205260409020548111156117705760405162461bcd60e51b8152602060048201526014602482015273496e73756666696369656e742062616c616e636560601b60448201526064016105e8565b6001600160a01b0384166000908152600e602052604081208054839290611798908490611b12565b90915550506001600160a01b0383166000908152600e6020526040812080548392906117c5908490611b25565b90915550506001600160a01b0384166000908152600d602052604090205460ff16801561180b57506001600160a01b0383166000908152600d602052604090205460ff16155b1561182d5780601160008282546118229190611b12565b9091555061188b9050565b6001600160a01b0384166000908152600d602052604090205460ff1615801561186e57506001600160a01b0383166000908152600d602052604090205460ff165b1561188b5780601160008282546118859190611b25565b90915550505b826001600160a01b0316846001600160a01b03167fddf252ad1be2c89b69c2b068fc378daa952ba7f163c4a11628f55a4df523b3ef846040516118d091815260200190565b60405180910390a350505050565b600580546001600160a01b038381166001600160a01b0319831681179093556040519116919082907f8be0079c531659141344cd1fd0a4f28419497f9722a3daafe3b4186f6b6457e090600090a35050565b60006114ed8284611b12565b600060208083528351808285015260005b818110156119695785810183015185820160400152820161194d565b506000604082860101526040601f19601f8301168501019250505092915050565b80356001600160a01b03811681146119a157600080fd5b919050565b600080604083850312156119b957600080fd5b6119c28361198a565b946020939093013593505050565b6000602082840312156119e257600080fd5b6114ed8261198a565b600080600060608486031215611a0057600080fd5b611a098461198a565b9250611a176020850161198a565b9150604084013590509250925092565b600060208284031215611a3957600080fd5b5035919050565b602080825282518282018190526000919060409081850190868401855b82811015611a8257815180518552860151868501529284019290850190600101611a5d565b5091979650505050505050565b60008060408385031215611aa257600080fd5b611aab8361198a565b9150611ab96020840161198a565b90509250929050565b600181811c90821680611ad657607f821691505b602082108103611af657634e487b7160e01b600052602260045260246000fd5b50919050565b634e487b7160e01b600052601160045260246000fd5b8181038181111561058857610588611afc565b8082018082111561058857610588611afc565b808202811582820484141761058857610588611afc565b600082611b6c57634e487b7160e01b600052601260045260246000fd5b500490565b600060018201611b8357611b83611afc565b5060010190565b60208082526018908201527f5a65726f2061646472657373206e6f7420616c6c6f776564000000000000000060408201526060019056fea264697066735822122078d1c55121b37fc9eb23ea2f7d6c9d031e775f128dab35660481df9102940d0464736f6c63430008140033","opcodes":"PUSH1 0x80 PUSH1 0x40 MSTORE CALLVALUE DUP1 ISZERO PUSH3 0x11 JUMPI PUSH1 0x0 DUP1 REVERT JUMPDEST POP PUSH1 0x40 MLOAD PUSH3 0x1FEB CODESIZE SUB DUP1 PUSH3 0x1FEB DUP4 CODECOPY DUP2 ADD PUSH1 0x40 DUP2 SWAP1 MSTORE PUSH3 0x34 SWAP2 PUSH3 0x241 JUMP JUMPDEST PUSH1 0x40 MLOAD DUP1 PUSH1 0x40 ADD PUSH1 0x40 MSTORE DUP1 PUSH1 0x10 DUP2 MSTORE PUSH1 0x20 ADD PUSH16 0x26B0B730B3B2A634B332902A37B5B2B7 PUSH1 0x81 SHL DUP2 MSTORE POP PUSH1 0x40 MLOAD DUP1 PUSH1 0x40 ADD PUSH1 0x40 MSTORE DUP1 PUSH1 0x4 DUP2 MSTORE PUSH1 0x20 ADD PUSH4 0x4C696665 PUSH1 0xE0 SHL DUP2 MSTORE POP DUP2 PUSH1 0x3 SWAP1 DUP2 PUSH3 0x8B SWAP2 SWAP1 PUSH3 0x318 JUMP JUMPDEST POP PUSH1 0x4 PUSH3 0x9A DUP3 DUP3 PUSH3 0x318 JUMP JUMPDEST POP POP POP PUSH3 0xB7 PUSH3 0xB1 PUSH3 0x1EB PUSH1 0x20 SHL PUSH1 0x20 SHR JUMP JUMPDEST PUSH3 0x1EF JUMP JUMPDEST PUSH1 0x1 PUSH1 0x1 PUSH1 0xA0 SHL SUB DUP2 AND PUSH3 0x112 JUMPI PUSH1 0x40 MLOAD PUSH3 0x461BCD PUSH1 0xE5 SHL DUP2 MSTORE PUSH1 0x20 PUSH1 0x4 DUP3 ADD MSTORE PUSH1 0x18 PUSH1 0x24 DUP3 ADD MSTORE PUSH32 0x5A65726F2061646472657373206E6F7420616C6C6F7765640000000000000000 PUSH1 0x44 DUP3 ADD MSTORE PUSH1 0x64 ADD PUSH1 0x40 MLOAD DUP1 SWAP2 SUB SWAP1 REVERT JUMPDEST PUSH3 0x11D DUP2 PUSH3 0x1EF JUMP JUMPDEST PUSH1 0x7 DUP1 SLOAD PUSH1 0x1 PUSH1 0x1 PUSH1 0xA0 SHL SUB DUP4 AND PUSH1 0x1 PUSH1 0x1 PUSH1 0xA0 SHL SUB NOT SWAP2 DUP3 AND DUP2 OR SWAP1 SWAP3 SSTORE PUSH1 0x8 DUP1 SLOAD SWAP1 SWAP2 AND SWAP1 SWAP2 OR SWAP1 SSTORE PUSH1 0x40 DUP1 MLOAD PUSH1 0x80 DUP2 ADD DUP3 MSTORE TIMESTAMP DUP1 DUP3 MSTORE PUSH3 0x278D00 PUSH1 0x20 DUP1 DUP5 ADD DUP3 SWAP1 MSTORE PUSH8 0xDE0B6B3A7640000 DUP5 DUP7 ADD DUP2 SWAP1 MSTORE PUSH1 0x0 PUSH1 0x60 SWAP1 SWAP6 ADD DUP6 SWAP1 MSTORE PUSH1 0x9 SWAP4 SWAP1 SWAP4 SSTORE PUSH1 0xA SWAP2 SWAP1 SWAP2 SSTORE PUSH1 0xB SWAP2 SWAP1 SWAP2 SSTORE PUSH1 0xC DUP3 SWAP1 SSTORE ADDRESS DUP1 DUP4 MSTORE PUSH1 0xE DUP3 MSTORE DUP4 DUP4 KECCAK256 PUSH12 0x6765C793FA10079D0000000 SWAP1 DUP2 SWAP1 SSTORE PUSH1 0x10 DUP2 SWAP1 SSTORE SWAP4 MLOAD SWAP4 DUP5 MSTORE SWAP3 PUSH32 0xDDF252AD1BE2C89B69C2B068FC378DAA952BA7F163C4A11628F55A4DF523B3EF SWAP2 ADD PUSH1 0x40 MLOAD DUP1 SWAP2 SUB SWAP1 LOG3 POP PUSH3 0x3E4 JUMP JUMPDEST CALLER SWAP1 JUMP JUMPDEST PUSH1 0x5 DUP1 SLOAD PUSH1 0x1 PUSH1 0x1 PUSH1 0xA0 SHL SUB DUP4 DUP2 AND PUSH1 0x1 PUSH1 0x1 PUSH1 0xA0 SHL SUB NOT DUP4 AND DUP2 OR SWAP1 SWAP4 SSTORE PUSH1 0x40 MLOAD SWAP2 AND SWAP2 SWAP1 DUP3 SWAP1 PUSH32 0x8BE0079C531659141344CD1FD0A4F28419497F9722A3DAAFE3B4186F6B6457E0 SWAP1 PUSH1 0x0 SWAP1 LOG3 POP POP JUMP JUMPDEST PUSH1 0x0 PUSH1 0x20 DUP3 DUP5 SUB SLT ISZERO PUSH3 0x254 JUMPI PUSH1 0x0 DUP1 REVERT JUMPDEST DUP2 MLOAD PUSH1 0x1 PUSH1 0x1 PUSH1 0xA0 SHL SUB DUP2 AND DUP2 EQ PUSH3 0x26C JUMPI PUSH1 0x0 DUP1 REVERT JUMPDEST SWAP4 SWAP3 POP POP POP JUMP JUMPDEST PUSH4 0x4E487B71 PUSH1 0xE0 SHL PUSH1 0x0 MSTORE PUSH1 0x41 PUSH1 0x4 MSTORE PUSH1 0x24 PUSH1 0x0 REVERT JUMPDEST PUSH1 0x1 DUP2 DUP2 SHR SWAP1 DUP3 AND DUP1 PUSH3 0x29E JUMPI PUSH1 0x7F DUP3 AND SWAP2 POP JUMPDEST PUSH1 0x20 DUP3 LT DUP2 SUB PUSH3 0x2BF JUMPI PUSH4 0x4E487B71 PUSH1 0xE0 SHL PUSH1 0x0 MSTORE PUSH1 0x22 PUSH1 0x4 MSTORE PUSH1 0x24 PUSH1 0x0 REVERT JUMPDEST POP SWAP2 SWAP1 POP JUMP JUMPDEST PUSH1 0x1F DUP3 GT ISZERO PUSH3 0x313 JUMPI PUSH1 0x0 DUP2 DUP2 MSTORE PUSH1 0x20 DUP2 KECCAK256 PUSH1 0x1F DUP6 ADD PUSH1 0x5 SHR DUP2 ADD PUSH1 0x20 DUP7 LT ISZERO PUSH3 0x2EE JUMPI POP DUP1 JUMPDEST PUSH1 0x1F DUP6 ADD PUSH1 0x5 SHR DUP3 ADD SWAP2 POP JUMPDEST DUP2 DUP2 LT ISZERO PUSH3 0x30F JUMPI DUP3 DUP2 SSTORE PUSH1 0x1 ADD PUSH3 0x2FA JUMP JUMPDEST POP POP POP JUMPDEST POP POP POP JUMP JUMPDEST DUP2 MLOAD PUSH1 0x1 PUSH1 0x1 PUSH1 0x40 SHL SUB DUP2 GT ISZERO PUSH3 0x334 JUMPI PUSH3 0x334 PUSH3 0x273 JUMP JUMPDEST PUSH3 0x34C DUP2 PUSH3 0x345 DUP5 SLOAD PUSH3 0x289 JUMP JUMPDEST DUP5 PUSH3 0x2C5 JUMP JUMPDEST PUSH1 0x20 DUP1 PUSH1 0x1F DUP4 GT PUSH1 0x1 DUP2 EQ PUSH3 0x384 JUMPI PUSH1 0x0 DUP5 ISZERO PUSH3 0x36B JUMPI POP DUP6 DUP4 ADD MLOAD JUMPDEST PUSH1 0x0 NOT PUSH1 0x3 DUP7 SWAP1 SHL SHR NOT AND PUSH1 0x1 DUP6 SWAP1 SHL OR DUP6 SSTORE PUSH3 0x30F JUMP JUMPDEST PUSH1 0x0 DUP6 DUP2 MSTORE PUSH1 0x20 DUP2 KECCAK256 PUSH1 0x1F NOT DUP7 AND SWAP2 JUMPDEST DUP3 DUP2 LT ISZERO PUSH3 0x3B5 JUMPI DUP9 DUP7 ADD MLOAD DUP3 SSTORE SWAP5 DUP5 ADD SWAP5 PUSH1 0x1 SWAP1 SWAP2 ADD SWAP1 DUP5 ADD PUSH3 0x394 JUMP JUMPDEST POP DUP6 DUP3 LT ISZERO PUSH3 0x3D4 JUMPI DUP8 DUP6 ADD MLOAD PUSH1 0x0 NOT PUSH1 0x3 DUP9 SWAP1 SHL PUSH1 0xF8 AND SHR NOT AND DUP2 SSTORE JUMPDEST POP POP POP POP POP PUSH1 0x1 SWAP1 DUP2 SHL ADD SWAP1 SSTORE POP JUMP JUMPDEST PUSH2 0x1BF7 DUP1 PUSH3 0x3F4 PUSH1 0x0 CODECOPY PUSH1 0x0 RETURN INVALID PUSH1 0x80 PUSH1 0x40 MSTORE CALLVALUE DUP1 ISZERO PUSH2 0x10 JUMPI PUSH1 0x0 DUP1 REVERT JUMPDEST POP PUSH1 0x4 CALLDATASIZE LT PUSH2 0x227 JUMPI PUSH1 0x0 CALLDATALOAD PUSH1 0xE0 SHR DUP1 PUSH4 0x79BA5097 GT PUSH2 0x130 JUMPI DUP1 PUSH4 0xBFE10928 GT PUSH2 0xB8 JUMPI DUP1 PUSH4 0xDD62ED3E GT PUSH2 0x7C JUMPI DUP1 PUSH4 0xDD62ED3E EQ PUSH2 0x483 JUMPI DUP1 PUSH4 0xE46ADF62 EQ PUSH2 0x496 JUMPI DUP1 PUSH4 0xE7D6289B EQ PUSH2 0x4A9 JUMPI DUP1 PUSH4 0xF06D66B8 EQ PUSH2 0x4BC JUMPI DUP1 PUSH4 0xF2FDE38B EQ PUSH2 0x4CF JUMPI PUSH1 0x0 DUP1 REVERT JUMPDEST DUP1 PUSH4 0xBFE10928 EQ PUSH2 0x425 JUMPI DUP1 PUSH4 0xC02E4B38 EQ PUSH2 0x438 JUMPI DUP1 PUSH4 0xD3601271 EQ PUSH2 0x447 JUMPI DUP1 PUSH4 0xD54D97ED EQ PUSH2 0x467 JUMPI DUP1 PUSH4 0xD55D60F9 EQ PUSH2 0x47A JUMPI PUSH1 0x0 DUP1 REVERT JUMPDEST DUP1 PUSH4 0xA457C2D7 GT PUSH2 0xFF JUMPI DUP1 PUSH4 0xA457C2D7 EQ PUSH2 0x3DD JUMPI DUP1 PUSH4 0xA5C9CD82 EQ PUSH2 0x3F0 JUMPI DUP1 PUSH4 0xA9059CBB EQ PUSH2 0x3FF JUMPI DUP1 PUSH4 0xB48CA720 EQ PUSH2 0x3F0 JUMPI DUP1 PUSH4 0xBC4F2D6D EQ PUSH2 0x412 JUMPI PUSH1 0x0 DUP1 REVERT JUMPDEST DUP1 PUSH4 0x79BA5097 EQ PUSH2 0x3B4 JUMPI DUP1 PUSH4 0x8DA5CB5B EQ PUSH2 0x3BC JUMPI DUP1 PUSH4 0x95D89B41 EQ PUSH2 0x3CD JUMPI DUP1 PUSH4 0xA236B83A EQ PUSH2 0x3D5 JUMPI PUSH1 0x0 DUP1 REVERT JUMPDEST DUP1 PUSH4 0x313CE567 GT PUSH2 0x1B3 JUMPI DUP1 PUSH4 0x4D3D0553 GT PUSH2 0x182 JUMPI DUP1 PUSH4 0x4D3D0553 EQ PUSH2 0x347 JUMPI DUP1 PUSH4 0x57B535C0 EQ PUSH2 0x37D JUMPI DUP1 PUSH4 0x70A08231 EQ PUSH2 0x386 JUMPI DUP1 PUSH4 0x715018A6 EQ PUSH2 0x399 JUMPI DUP1 PUSH4 0x75619AB5 EQ PUSH2 0x3A1 JUMPI PUSH1 0x0 DUP1 REVERT JUMPDEST DUP1 PUSH4 0x313CE567 EQ PUSH2 0x301 JUMPI DUP1 PUSH4 0x32CB6B0C EQ PUSH2 0x310 JUMPI DUP1 PUSH4 0x35917C64 EQ PUSH2 0x323 JUMPI DUP1 PUSH4 0x39509351 EQ PUSH2 0x334 JUMPI PUSH1 0x0 DUP1 REVERT JUMPDEST DUP1 PUSH4 0x11FD8A83 GT PUSH2 0x1FA JUMPI DUP1 PUSH4 0x11FD8A83 EQ PUSH2 0x292 JUMPI DUP1 PUSH4 0x18160DDD EQ PUSH2 0x2BD JUMPI DUP1 PUSH4 0x23452B9C EQ PUSH2 0x2D3 JUMPI DUP1 PUSH4 0x23B872DD EQ PUSH2 0x2DB JUMPI DUP1 PUSH4 0x2FF2E9DC EQ PUSH2 0x2EE JUMPI PUSH1 0x0 DUP1 REVERT JUMPDEST DUP1 PUSH4 0x535EC77 EQ PUSH2 0x22C JUMPI DUP1 PUSH4 0x6FDDE03 EQ PUSH2 0x255 JUMPI DUP1 PUSH4 0x95EA7B3 EQ PUSH2 0x26A JUMPI DUP1 PUSH4 0xE23D25C EQ PUSH2 0x27D JUMPI JUMPDEST PUSH1 0x0 DUP1 REVERT JUMPDEST PUSH1 0x8 SLOAD PUSH2 0x240 SWAP1 PUSH1 0x1 PUSH1 0xA0 SHL SWAP1 DIV PUSH1 0xFF AND DUP2 JUMP JUMPDEST PUSH1 0x40 MLOAD SWAP1 ISZERO ISZERO DUP2 MSTORE PUSH1 0x20 ADD JUMPDEST PUSH1 0x40 MLOAD DUP1 SWAP2 SUB SWAP1 RETURN JUMPDEST PUSH2 0x25D PUSH2 0x4E2 JUMP JUMPDEST PUSH1 0x40 MLOAD PUSH2 0x24C SWAP2 SWAP1 PUSH2 0x193C JUMP JUMPDEST PUSH2 0x240 PUSH2 0x278 CALLDATASIZE PUSH1 0x4 PUSH2 0x19A6 JUMP JUMPDEST PUSH2 0x574 JUMP JUMPDEST PUSH2 0x290 PUSH2 0x28B CALLDATASIZE PUSH1 0x4 PUSH2 0x19D0 JUMP JUMPDEST PUSH2 0x58E JUMP JUMPDEST STOP JUMPDEST PUSH1 0x7 SLOAD PUSH2 0x2A5 SWAP1 PUSH1 0x1 PUSH1 0x1 PUSH1 0xA0 SHL SUB AND DUP2 JUMP JUMPDEST PUSH1 0x40 MLOAD PUSH1 0x1 PUSH1 0x1 PUSH1 0xA0 SHL SUB SWAP1 SWAP2 AND DUP2 MSTORE PUSH1 0x20 ADD PUSH2 0x24C JUMP JUMPDEST PUSH2 0x2C5 PUSH2 0x7E4 JUMP JUMPDEST PUSH1 0x40 MLOAD SWAP1 DUP2 MSTORE PUSH1 0x20 ADD PUSH2 0x24C JUMP JUMPDEST PUSH2 0x290 PUSH2 0x830 JUMP JUMPDEST PUSH2 0x240 PUSH2 0x2E9 CALLDATASIZE PUSH1 0x4 PUSH2 0x19EB JUMP JUMPDEST PUSH2 0x8D5 JUMP JUMPDEST PUSH2 0x2C5 PUSH12 0x6765C793FA10079D0000000 DUP2 JUMP JUMPDEST PUSH1 0x40 MLOAD PUSH1 0x12 DUP2 MSTORE PUSH1 0x20 ADD PUSH2 0x24C JUMP JUMPDEST PUSH2 0x2C5 PUSH12 0x1027E72F1F12813088000000 DUP2 JUMP JUMPDEST PUSH2 0x2C5 PUSH10 0xD3C21BCECCEDA1000000 DUP2 JUMP JUMPDEST PUSH2 0x240 PUSH2 0x342 CALLDATASIZE PUSH1 0x4 PUSH2 0x19A6 JUMP JUMPDEST PUSH2 0x8F9 JUMP JUMPDEST PUSH1 0x9 SLOAD PUSH1 0xA SLOAD PUSH1 0xB SLOAD PUSH1 0xC SLOAD PUSH2 0x35D SWAP4 SWAP3 SWAP2 SWAP1 DUP5 JUMP JUMPDEST PUSH1 0x40 DUP1 MLOAD SWAP5 DUP6 MSTORE PUSH1 0x20 DUP6 ADD SWAP4 SWAP1 SWAP4 MSTORE SWAP2 DUP4 ADD MSTORE PUSH1 0x60 DUP3 ADD MSTORE PUSH1 0x80 ADD PUSH2 0x24C JUMP JUMPDEST PUSH2 0x2C5 PUSH1 0x12 SLOAD DUP2 JUMP JUMPDEST PUSH2 0x2C5 PUSH2 0x394 CALLDATASIZE PUSH1 0x4 PUSH2 0x19D0 JUMP JUMPDEST PUSH2 0x91B JUMP JUMPDEST PUSH2 0x290 PUSH2 0x991 JUMP JUMPDEST PUSH2 0x290 PUSH2 0x3AF CALLDATASIZE PUSH1 0x4 PUSH2 0x19D0 JUMP JUMPDEST PUSH2 0x9E1 JUMP JUMPDEST PUSH2 0x290 PUSH2 0xA8D JUMP JUMPDEST PUSH1 0x5 SLOAD PUSH1 0x1 PUSH1 0x1 PUSH1 0xA0 SHL SUB AND PUSH2 0x2A5 JUMP JUMPDEST PUSH2 0x25D PUSH2 0xBAC JUMP JUMPDEST PUSH1 0x11 SLOAD PUSH2 0x2C5 JUMP JUMPDEST PUSH2 0x240 PUSH2 0x3EB CALLDATASIZE PUSH1 0x4 PUSH2 0x19A6 JUMP JUMPDEST PUSH2 0xBBB JUMP JUMPDEST PUSH2 0x2C5 PUSH8 0xDE0B6B3A7640000 DUP2 JUMP JUMPDEST PUSH2 0x240 PUSH2 0x40D CALLDATASIZE PUSH1 0x4 PUSH2 0x19A6 JUMP JUMPDEST PUSH2 0xC36 JUMP JUMPDEST PUSH2 0x290 PUSH2 0x420 CALLDATASIZE PUSH1 0x4 PUSH2 0x1A27 JUMP JUMPDEST PUSH2 0xC44 JUMP JUMPDEST PUSH1 0x8 SLOAD PUSH2 0x2A5 SWAP1 PUSH1 0x1 PUSH1 0x1 PUSH1 0xA0 SHL SUB AND DUP2 JUMP JUMPDEST PUSH2 0x2C5 PUSH8 0x8AC7230489E80000 DUP2 JUMP JUMPDEST PUSH2 0x45A PUSH2 0x455 CALLDATASIZE PUSH1 0x4 PUSH2 0x19D0 JUMP JUMPDEST PUSH2 0xEC3 JUMP JUMPDEST PUSH1 0x40 MLOAD PUSH2 0x24C SWAP2 SWAP1 PUSH2 0x1A40 JUMP JUMPDEST PUSH2 0x290 PUSH2 0x475 CALLDATASIZE PUSH1 0x4 PUSH2 0x19D0 JUMP JUMPDEST PUSH2 0xF6F JUMP JUMPDEST PUSH2 0x2C5 PUSH1 0x13 SLOAD DUP2 JUMP JUMPDEST PUSH2 0x2C5 PUSH2 0x491 CALLDATASIZE PUSH1 0x4 PUSH2 0x1A8F JUMP JUMPDEST PUSH2 0x1086 JUMP JUMPDEST PUSH2 0x290 PUSH2 0x4A4 CALLDATASIZE PUSH1 0x4 PUSH2 0x19D0 JUMP JUMPDEST PUSH2 0x10B1 JUMP JUMPDEST PUSH2 0x290 PUSH2 0x4B7 CALLDATASIZE PUSH1 0x4 PUSH2 0x19D0 JUMP JUMPDEST PUSH2 0x114B JUMP JUMPDEST PUSH2 0x240 PUSH2 0x4CA CALLDATASIZE PUSH1 0x4 PUSH2 0x19D0 JUMP JUMPDEST PUSH2 0x1268 JUMP JUMPDEST PUSH2 0x290 PUSH2 0x4DD CALLDATASIZE PUSH1 0x4 PUSH2 0x19D0 JUMP JUMPDEST PUSH2 0x12AF JUMP JUMPDEST PUSH1 0x60 PUSH1 0x3 DUP1 SLOAD PUSH2 0x4F1 SWAP1 PUSH2 0x1AC2 JUMP JUMPDEST DUP1 PUSH1 0x1F ADD PUSH1 0x20 DUP1 SWAP2 DIV MUL PUSH1 0x20 ADD PUSH1 0x40 MLOAD SWAP1 DUP2 ADD PUSH1 0x40 MSTORE DUP1 SWAP3 SWAP2 SWAP1 DUP2 DUP2 MSTORE PUSH1 0x20 ADD DUP3 DUP1 SLOAD PUSH2 0x51D SWAP1 PUSH2 0x1AC2 JUMP JUMPDEST DUP1 ISZERO PUSH2 0x56A JUMPI DUP1 PUSH1 0x1F LT PUSH2 0x53F JUMPI PUSH2 0x100 DUP1 DUP4 SLOAD DIV MUL DUP4 MSTORE SWAP2 PUSH1 0x20 ADD SWAP2 PUSH2 0x56A JUMP JUMPDEST DUP3 ADD SWAP2 SWAP1 PUSH1 0x0 MSTORE PUSH1 0x20 PUSH1 0x0 KECCAK256 SWAP1 JUMPDEST DUP2 SLOAD DUP2 MSTORE SWAP1 PUSH1 0x1 ADD SWAP1 PUSH1 0x20 ADD DUP1 DUP4 GT PUSH2 0x54D JUMPI DUP3 SWAP1 SUB PUSH1 0x1F AND DUP3 ADD SWAP2 JUMPDEST POP POP POP POP POP SWAP1 POP SWAP1 JUMP JUMPDEST PUSH1 0x0 CALLER PUSH2 0x582 DUP2 DUP6 DUP6 PUSH2 0x1361 JUMP JUMPDEST PUSH1 0x1 SWAP2 POP POP JUMPDEST SWAP3 SWAP2 POP POP JUMP JUMPDEST PUSH2 0x596 PUSH2 0x1485 JUMP JUMPDEST PUSH1 0x1 PUSH1 0x1 PUSH1 0xA0 SHL SUB DUP2 AND PUSH2 0x5F1 JUMPI PUSH1 0x40 MLOAD PUSH3 0x461BCD PUSH1 0xE5 SHL DUP2 MSTORE PUSH1 0x20 PUSH1 0x4 DUP3 ADD MSTORE PUSH1 0x1B PUSH1 0x24 DUP3 ADD MSTORE PUSH32 0x43616E6E6F74206D696E7420746F207A65726F20616464726573730000000000 PUSH1 0x44 DUP3 ADD MSTORE PUSH1 0x64 ADD JUMPDEST PUSH1 0x40 MLOAD DUP1 SWAP2 SUB SWAP1 REVERT JUMPDEST PUSH1 0x0 PUSH2 0x5FB PUSH2 0x7E4 JUMP JUMPDEST SWAP1 POP PUSH12 0x1027E72F1F12813088000000 DUP2 LT PUSH2 0x658 JUMPI PUSH1 0x40 MLOAD PUSH3 0x461BCD PUSH1 0xE5 SHL DUP2 MSTORE PUSH1 0x20 PUSH1 0x4 DUP3 ADD MSTORE PUSH1 0x19 PUSH1 0x24 DUP3 ADD MSTORE PUSH32 0x4D617820737570706C7920616C7265616479206D696E74656400000000000000 PUSH1 0x44 DUP3 ADD MSTORE PUSH1 0x64 ADD PUSH2 0x5E8 JUMP JUMPDEST PUSH1 0x0 PUSH2 0x670 DUP3 PUSH12 0x1027E72F1F12813088000000 PUSH2 0x1B12 JUMP JUMPDEST PUSH1 0x1 PUSH1 0x1 PUSH1 0xA0 SHL SUB DUP5 AND PUSH1 0x0 SWAP1 DUP2 MSTORE PUSH1 0xD PUSH1 0x20 MSTORE PUSH1 0x40 DUP2 KECCAK256 SLOAD SWAP2 SWAP3 POP SWAP1 PUSH1 0xFF AND PUSH2 0x6B8 JUMPI PUSH1 0xB SLOAD PUSH2 0x6B3 SWAP1 PUSH2 0x6AD DUP5 PUSH8 0xDE0B6B3A7640000 PUSH2 0x14E1 JUMP JUMPDEST SWAP1 PUSH2 0x14F4 JUMP JUMPDEST PUSH2 0x6BA JUMP JUMPDEST DUP2 JUMPDEST PUSH1 0x1 PUSH1 0x1 PUSH1 0xA0 SHL SUB DUP6 AND PUSH1 0x0 SWAP1 DUP2 MSTORE PUSH1 0xE PUSH1 0x20 MSTORE PUSH1 0x40 DUP2 KECCAK256 DUP1 SLOAD SWAP3 SWAP4 POP DUP4 SWAP2 PUSH2 0x6E3 DUP4 DUP6 PUSH2 0x1B25 JUMP JUMPDEST SWAP3 POP POP DUP2 SWAP1 SSTORE POP DUP2 PUSH1 0x10 PUSH1 0x0 DUP3 DUP3 SLOAD PUSH2 0x6FC SWAP2 SWAP1 PUSH2 0x1B25 JUMP JUMPDEST SWAP1 SWAP2 SSTORE POP POP PUSH1 0x1 PUSH1 0x1 PUSH1 0xA0 SHL SUB DUP6 AND PUSH1 0x0 SWAP1 DUP2 MSTORE PUSH1 0xD PUSH1 0x20 MSTORE PUSH1 0x40 SWAP1 KECCAK256 SLOAD PUSH1 0xFF AND ISZERO PUSH2 0x733 JUMPI PUSH1 0x11 SLOAD PUSH2 0x72F SWAP1 DUP4 PUSH2 0x1500 JUMP JUMPDEST PUSH1 0x11 SSTORE JUMPDEST PUSH1 0x1 PUSH1 0x1 PUSH1 0xA0 SHL SUB DUP6 AND PUSH1 0x0 SWAP1 DUP2 MSTORE PUSH1 0xE PUSH1 0x20 MSTORE PUSH1 0x40 SWAP1 KECCAK256 SLOAD PUSH2 0x759 SWAP1 DUP7 SWAP1 DUP4 SWAP1 PUSH2 0x150C JUMP JUMPDEST PUSH1 0x40 MLOAD DUP4 DUP2 MSTORE PUSH1 0x1 PUSH1 0x1 PUSH1 0xA0 SHL SUB DUP7 AND SWAP1 PUSH1 0x0 SWAP1 PUSH32 0xDDF252AD1BE2C89B69C2B068FC378DAA952BA7F163C4A11628F55A4DF523B3EF SWAP1 PUSH1 0x20 ADD PUSH1 0x40 MLOAD DUP1 SWAP2 SUB SWAP1 LOG3 DUP5 PUSH1 0x1 PUSH1 0x1 PUSH1 0xA0 SHL SUB AND PUSH32 0xF6798A560793A54C3BCFE86A93CDE1E73087D944C0EA20544137D4121396885 DUP5 PUSH1 0x40 MLOAD PUSH2 0x7D5 SWAP2 DUP2 MSTORE PUSH1 0x20 ADD SWAP1 JUMP JUMPDEST PUSH1 0x40 MLOAD DUP1 SWAP2 SUB SWAP1 LOG2 POP POP POP POP POP JUMP JUMPDEST PUSH1 0x0 DUP1 PUSH8 0xDE0B6B3A7640000 PUSH1 0x9 PUSH1 0x2 ADD SLOAD PUSH1 0x11 SLOAD PUSH1 0x10 SLOAD PUSH2 0x806 SWAP2 SWAP1 PUSH2 0x1B12 JUMP JUMPDEST PUSH2 0x810 SWAP2 SWAP1 PUSH2 0x1B38 JUMP JUMPDEST PUSH2 0x81A SWAP2 SWAP1 PUSH2 0x1B4F JUMP JUMPDEST SWAP1 POP PUSH1 0x11 SLOAD DUP2 PUSH2 0x82A SWAP2 SWAP1 PUSH2 0x1B25 JUMP JUMPDEST SWAP2 POP POP SWAP1 JUMP JUMPDEST PUSH2 0x838 PUSH2 0x1485 JUMP JUMPDEST PUSH1 0x6 SLOAD PUSH1 0x1 PUSH1 0x1 PUSH1 0xA0 SHL SUB AND PUSH2 0x886 JUMPI PUSH1 0x40 MLOAD PUSH3 0x461BCD PUSH1 0xE5 SHL DUP2 MSTORE PUSH1 0x20 PUSH1 0x4 DUP3 ADD MSTORE PUSH1 0x13 PUSH1 0x24 DUP3 ADD MSTORE PUSH19 0x2737903832B73234B733903A3930B739B332B9 PUSH1 0x69 SHL PUSH1 0x44 DUP3 ADD MSTORE PUSH1 0x64 ADD PUSH2 0x5E8 JUMP JUMPDEST PUSH1 0x6 SLOAD PUSH1 0x40 MLOAD PUSH1 0x1 PUSH1 0x1 PUSH1 0xA0 SHL SUB SWAP1 SWAP2 AND SWAP1 PUSH32 0x6ECD4842251BEDD053B09547C0FABAAB9EC98506EBF24469E8DD5560412ED37F SWAP1 PUSH1 0x0 SWAP1 LOG2 PUSH1 0x6 DUP1 SLOAD PUSH1 0x1 PUSH1 0x1 PUSH1 0xA0 SHL SUB NOT AND SWAP1 SSTORE PUSH1 0x0 PUSH1 0x13 SSTORE JUMP JUMPDEST PUSH1 0x0 CALLER PUSH2 0x8E3 DUP6 DUP3 DUP6 PUSH2 0x15A1 JUMP JUMPDEST PUSH2 0x8EE DUP6 DUP6 DUP6 PUSH2 0x161B JUMP JUMPDEST POP PUSH1 0x1 SWAP5 SWAP4 POP POP POP POP JUMP JUMPDEST PUSH1 0x0 CALLER PUSH2 0x582 DUP2 DUP6 DUP6 PUSH2 0x90C DUP4 DUP4 PUSH2 0x1086 JUMP JUMPDEST PUSH2 0x916 SWAP2 SWAP1 PUSH2 0x1B25 JUMP JUMPDEST PUSH2 0x1361 JUMP JUMPDEST PUSH1 0x1 PUSH1 0x1 PUSH1 0xA0 SHL SUB DUP2 AND PUSH1 0x0 SWAP1 DUP2 MSTORE PUSH1 0xD PUSH1 0x20 MSTORE PUSH1 0x40 DUP2 KECCAK256 SLOAD PUSH1 0xFF AND ISZERO PUSH2 0x958 JUMPI POP PUSH1 0x1 PUSH1 0x1 PUSH1 0xA0 SHL SUB AND PUSH1 0x0 SWAP1 DUP2 MSTORE PUSH1 0xE PUSH1 0x20 MSTORE PUSH1 0x40 SWAP1 KECCAK256 SLOAD SWAP1 JUMP JUMPDEST PUSH1 0xB SLOAD PUSH1 0x1 PUSH1 0x1 PUSH1 0xA0 SHL SUB DUP4 AND PUSH1 0x0 SWAP1 DUP2 MSTORE PUSH1 0xE PUSH1 0x20 MSTORE PUSH1 0x40 SWAP1 KECCAK256 SLOAD PUSH8 0xDE0B6B3A7640000 SWAP2 PUSH2 0x987 SWAP2 PUSH2 0x1B38 JUMP JUMPDEST PUSH2 0x588 SWAP2 SWAP1 PUSH2 0x1B4F JUMP JUMPDEST PUSH2 0x999 PUSH2 0x1485 JUMP JUMPDEST PUSH1 0x40 MLOAD PUSH3 0x461BCD PUSH1 0xE5 SHL DUP2 MSTORE PUSH1 0x20 PUSH1 0x4 DUP3 ADD MSTORE PUSH1 0x1F PUSH1 0x24 DUP3 ADD MSTORE PUSH32 0x4F776E6572736869702072656E756E63696174696F6E2064697361626C656400 PUSH1 0x44 DUP3 ADD MSTORE PUSH1 0x64 ADD PUSH2 0x5E8 JUMP JUMPDEST PUSH2 0x9E9 PUSH2 0x1485 JUMP JUMPDEST PUSH1 0x8 SLOAD PUSH1 0x1 PUSH1 0xA0 SHL SWAP1 DIV PUSH1 0xFF AND ISZERO PUSH2 0xA43 JUMPI PUSH1 0x40 MLOAD PUSH3 0x461BCD PUSH1 0xE5 SHL DUP2 MSTORE PUSH1 0x20 PUSH1 0x4 DUP3 ADD MSTORE PUSH1 0x1E PUSH1 0x24 DUP3 ADD MSTORE PUSH32 0x446973747269627574696F6E20616C726561647920636F6D706C657465640000 PUSH1 0x44 DUP3 ADD MSTORE PUSH1 0x64 ADD PUSH2 0x5E8 JUMP JUMPDEST PUSH1 0x8 DUP1 SLOAD PUSH1 0x1 PUSH1 0x1 PUSH1 0xA0 SHL SUB NOT AND PUSH1 0x1 PUSH1 0x1 PUSH1 0xA0 SHL SUB DUP4 AND SWAP1 DUP2 OR SWAP1 SWAP2 SSTORE PUSH1 0x40 MLOAD PUSH32 0xC0EBB188F905D128BCD7E4282DD1F9CF24CD331B69071002E488349ACA6A867B SWAP1 PUSH1 0x0 SWAP1 LOG2 POP JUMP JUMPDEST PUSH1 0x6 SLOAD PUSH1 0x1 PUSH1 0x1 PUSH1 0xA0 SHL SUB AND PUSH2 0xADB JUMPI PUSH1 0x40 MLOAD PUSH3 0x461BCD PUSH1 0xE5 SHL DUP2 MSTORE PUSH1 0x20 PUSH1 0x4 DUP3 ADD MSTORE PUSH1 0x13 PUSH1 0x24 DUP3 ADD MSTORE PUSH19 0x2737903832B73234B733903A3930B739B332B9 PUSH1 0x69 SHL PUSH1 0x44 DUP3 ADD MSTORE PUSH1 0x64 ADD PUSH2 0x5E8 JUMP JUMPDEST PUSH1 0x13 SLOAD TIMESTAMP LT ISZERO PUSH2 0xB26 JUMPI PUSH1 0x40 MLOAD PUSH3 0x461BCD PUSH1 0xE5 SHL DUP2 MSTORE PUSH1 0x20 PUSH1 0x4 DUP3 ADD MSTORE PUSH1 0x16 PUSH1 0x24 DUP3 ADD MSTORE PUSH22 0x151C985B9CD9995C8819195B185E481B9BDD081B595D PUSH1 0x52 SHL PUSH1 0x44 DUP3 ADD MSTORE PUSH1 0x64 ADD PUSH2 0x5E8 JUMP JUMPDEST PUSH1 0x6 SLOAD PUSH1 0x1 PUSH1 0x1 PUSH1 0xA0 SHL SUB AND CALLER EQ PUSH2 0xB80 JUMPI PUSH1 0x40 MLOAD PUSH3 0x461BCD PUSH1 0xE5 SHL DUP2 MSTORE PUSH1 0x20 PUSH1 0x4 DUP3 ADD MSTORE PUSH1 0x18 PUSH1 0x24 DUP3 ADD MSTORE PUSH32 0x43616C6C6572206E6F742070656E64696E67206F776E65720000000000000000 PUSH1 0x44 DUP3 ADD MSTORE PUSH1 0x64 ADD PUSH2 0x5E8 JUMP JUMPDEST PUSH1 0x6 SLOAD PUSH2 0xB95 SWAP1 PUSH1 0x1 PUSH1 0x1 PUSH1 0xA0 SHL SUB AND PUSH2 0x18DE JUMP JUMPDEST PUSH1 0x6 DUP1 SLOAD PUSH1 0x1 PUSH1 0x1 PUSH1 0xA0 SHL SUB NOT AND SWAP1 SSTORE PUSH1 0x0 PUSH1 0x13 SSTORE JUMP JUMPDEST PUSH1 0x60 PUSH1 0x4 DUP1 SLOAD PUSH2 0x4F1 SWAP1 PUSH2 0x1AC2 JUMP JUMPDEST PUSH1 0x0 CALLER DUP2 PUSH2 0xBC9 DUP3 DUP7 PUSH2 0x1086 JUMP JUMPDEST SWAP1 POP DUP4 DUP2 LT ISZERO PUSH2 0xC29 JUMPI PUSH1 0x40 MLOAD PUSH3 0x461BCD PUSH1 0xE5 SHL DUP2 MSTORE PUSH1 0x20 PUSH1 0x4 DUP3 ADD MSTORE PUSH1 0x25 PUSH1 0x24 DUP3 ADD MSTORE PUSH32 0x45524332303A2064656372656173656420616C6C6F77616E63652062656C6F77 PUSH1 0x44 DUP3 ADD MSTORE PUSH5 0x207A65726F PUSH1 0xD8 SHL PUSH1 0x64 DUP3 ADD MSTORE PUSH1 0x84 ADD PUSH2 0x5E8 JUMP JUMPDEST PUSH2 0x8EE DUP3 DUP7 DUP7 DUP5 SUB PUSH2 0x1361 JUMP JUMPDEST PUSH1 0x0 CALLER PUSH2 0x582 DUP2 DUP6 DUP6 PUSH2 0x161B JUMP JUMPDEST PUSH1 0x7 SLOAD PUSH1 0x1 PUSH1 0x1 PUSH1 0xA0 SHL SUB AND CALLER EQ PUSH2 0xC9E JUMPI PUSH1 0x40 MLOAD PUSH3 0x461BCD PUSH1 0xE5 SHL DUP2 MSTORE PUSH1 0x20 PUSH1 0x4 DUP3 ADD MSTORE PUSH1 0x19 PUSH1 0x24 DUP3 ADD MSTORE PUSH32 0x43616C6C6572206973206E6F7420746865207265626173657200000000000000 PUSH1 0x44 DUP3 ADD MSTORE PUSH1 0x64 ADD PUSH2 0x5E8 JUMP JUMPDEST PUSH1 0xA SLOAD PUSH1 0x9 SLOAD PUSH2 0xCAE SWAP2 SWAP1 PUSH2 0x1B25 JUMP JUMPDEST TIMESTAMP LT ISZERO PUSH2 0xCFD JUMPI PUSH1 0x40 MLOAD PUSH3 0x461BCD PUSH1 0xE5 SHL DUP2 MSTORE PUSH1 0x20 PUSH1 0x4 DUP3 ADD MSTORE PUSH1 0x17 PUSH1 0x24 DUP3 ADD MSTORE PUSH32 0x52656261736520696E74657276616C206E6F74206D6574000000000000000000 PUSH1 0x44 DUP3 ADD MSTORE PUSH1 0x64 ADD PUSH2 0x5E8 JUMP JUMPDEST PUSH1 0x0 DUP2 GT PUSH2 0xD45 JUMPI PUSH1 0x40 MLOAD PUSH3 0x461BCD PUSH1 0xE5 SHL DUP2 MSTORE PUSH1 0x20 PUSH1 0x4 DUP3 ADD MSTORE PUSH1 0x15 PUSH1 0x24 DUP3 ADD MSTORE PUSH21 0x24B73B30B634B2103932B130B9B2903330B1BA37B9 PUSH1 0x59 SHL PUSH1 0x44 DUP3 ADD MSTORE PUSH1 0x64 ADD PUSH2 0x5E8 JUMP JUMPDEST PUSH8 0x8AC7230489E80000 DUP2 GT ISZERO PUSH2 0xD96 JUMPI PUSH1 0x40 MLOAD PUSH3 0x461BCD PUSH1 0xE5 SHL DUP2 MSTORE PUSH1 0x20 PUSH1 0x4 DUP3 ADD MSTORE PUSH1 0x16 PUSH1 0x24 DUP3 ADD MSTORE PUSH22 0xA4CAC4C2E6CA40CCC2C6E8DEE440E8DEDE40D0D2CED PUSH1 0x53 SHL PUSH1 0x44 DUP3 ADD MSTORE PUSH1 0x64 ADD PUSH2 0x5E8 JUMP JUMPDEST PUSH1 0x0 PUSH8 0xDE0B6B3A7640000 DUP3 PUSH1 0x10 SLOAD PUSH2 0xDAF SWAP2 SWAP1 PUSH2 0x1B38 JUMP JUMPDEST PUSH2 0xDB9 SWAP2 SWAP1 PUSH2 0x1B4F JUMP JUMPDEST SWAP1 POP PUSH12 0x1027E72F1F12813088000000 DUP2 GT ISZERO PUSH2 0xE10 JUMPI PUSH1 0x40 MLOAD PUSH3 0x461BCD PUSH1 0xE5 SHL DUP2 MSTORE PUSH1 0x20 PUSH1 0x4 DUP3 ADD MSTORE PUSH1 0x16 PUSH1 0x24 DUP3 ADD MSTORE PUSH22 0x537570706C792065786365656473206D6178696D756D PUSH1 0x50 SHL PUSH1 0x44 DUP3 ADD MSTORE PUSH1 0x64 ADD PUSH2 0x5E8 JUMP JUMPDEST PUSH10 0xD3C21BCECCEDA1000000 DUP2 LT ISZERO PUSH2 0xE61 JUMPI PUSH1 0x40 MLOAD PUSH3 0x461BCD PUSH1 0xE5 SHL DUP2 MSTORE PUSH1 0x20 PUSH1 0x4 DUP3 ADD MSTORE PUSH1 0x14 PUSH1 0x24 DUP3 ADD MSTORE PUSH20 0x537570706C792062656C6F77206D696E696D756D PUSH1 0x60 SHL PUSH1 0x44 DUP3 ADD MSTORE PUSH1 0x64 ADD PUSH2 0x5E8 JUMP JUMPDEST PUSH1 0xB DUP1 SLOAD SWAP1 DUP4 SWAP1 SSTORE TIMESTAMP PUSH1 0x9 SSTORE PUSH1 0xC DUP1 SLOAD SWAP1 PUSH1 0x0 PUSH2 0xE7D DUP4 PUSH2 0x1B71 JUMP JUMPDEST SWAP1 SWAP2 SSTORE POP POP PUSH1 0xC SLOAD PUSH1 0x40 DUP1 MLOAD DUP4 DUP2 MSTORE PUSH1 0x20 DUP2 ADD DUP7 SWAP1 MSTORE PUSH32 0xC6642D24D84E7F3D36CA39F5CCE10E75639D9B158D5193AA350E2F900653E4C0 SWAP2 ADD PUSH1 0x40 MLOAD DUP1 SWAP2 SUB SWAP1 LOG2 POP POP POP JUMP JUMPDEST PUSH1 0x60 PUSH1 0x1 PUSH1 0x1 PUSH1 0xA0 SHL SUB DUP3 AND PUSH2 0xEEB JUMPI PUSH1 0x40 MLOAD PUSH3 0x461BCD PUSH1 0xE5 SHL DUP2 MSTORE PUSH1 0x4 ADD PUSH2 0x5E8 SWAP1 PUSH2 0x1B8A JUMP JUMPDEST PUSH1 0x1 PUSH1 0x1 PUSH1 0xA0 SHL SUB DUP3 AND PUSH1 0x0 SWAP1 DUP2 MSTORE PUSH1 0xF PUSH1 0x20 SWAP1 DUP2 MSTORE PUSH1 0x40 DUP1 DUP4 KECCAK256 DUP1 SLOAD DUP3 MLOAD DUP2 DUP6 MUL DUP2 ADD DUP6 ADD SWAP1 SWAP4 MSTORE DUP1 DUP4 MSTORE SWAP2 SWAP4 SWAP1 SWAP3 DUP5 ADD JUMPDEST DUP3 DUP3 LT ISZERO PUSH2 0xF64 JUMPI DUP4 DUP3 SWAP1 PUSH1 0x0 MSTORE PUSH1 0x20 PUSH1 0x0 KECCAK256 SWAP1 PUSH1 0x2 MUL ADD PUSH1 0x40 MLOAD DUP1 PUSH1 0x40 ADD PUSH1 0x40 MSTORE SWAP1 DUP2 PUSH1 0x0 DUP3 ADD SLOAD DUP2 MSTORE PUSH1 0x20 ADD PUSH1 0x1 DUP3 ADD SLOAD DUP2 MSTORE POP POP DUP2 MSTORE PUSH1 0x20 ADD SWAP1 PUSH1 0x1 ADD SWAP1 PUSH2 0xF1E JUMP JUMPDEST POP POP POP POP SWAP1 POP SWAP2 SWAP1 POP JUMP JUMPDEST PUSH2 0xF77 PUSH2 0x1485 JUMP JUMPDEST PUSH1 0x1 PUSH1 0x1 PUSH1 0xA0 SHL SUB DUP2 AND PUSH2 0xF9D JUMPI PUSH1 0x40 MLOAD PUSH3 0x461BCD PUSH1 0xE5 SHL DUP2 MSTORE PUSH1 0x4 ADD PUSH2 0x5E8 SWAP1 PUSH2 0x1B8A JUMP JUMPDEST PUSH1 0x1 PUSH1 0x1 PUSH1 0xA0 SHL SUB DUP2 AND PUSH1 0x0 SWAP1 DUP2 MSTORE PUSH1 0xD PUSH1 0x20 MSTORE PUSH1 0x40 SWAP1 KECCAK256 SLOAD PUSH1 0xFF AND DUP1 PUSH2 0xFFD JUMPI PUSH1 0x40 MLOAD PUSH3 0x461BCD PUSH1 0xE5 SHL DUP2 MSTORE PUSH1 0x20 PUSH1 0x4 DUP3 ADD MSTORE PUSH1 0x14 PUSH1 0x24 DUP3 ADD MSTORE PUSH20 0x1058D8DBDD5B9D081B9BDD08195E18DB1D591959 PUSH1 0x62 SHL PUSH1 0x44 DUP3 ADD MSTORE PUSH1 0x64 ADD PUSH2 0x5E8 JUMP JUMPDEST PUSH1 0x1 PUSH1 0x1 PUSH1 0xA0 SHL SUB DUP3 AND PUSH1 0x0 SWAP1 DUP2 MSTORE PUSH1 0xE PUSH1 0x20 MSTORE PUSH1 0x40 SWAP1 KECCAK256 SLOAD PUSH1 0x11 SLOAD PUSH2 0x1022 SWAP2 PUSH2 0x1930 JUMP JUMPDEST PUSH1 0x11 SSTORE PUSH1 0x1 PUSH1 0x1 PUSH1 0xA0 SHL SUB DUP3 AND PUSH1 0x0 DUP2 DUP2 MSTORE PUSH1 0xD PUSH1 0x20 SWAP1 DUP2 MSTORE PUSH1 0x40 DUP1 DUP4 KECCAK256 DUP1 SLOAD PUSH1 0xFF NOT AND SWAP1 SSTORE DUP1 MLOAD DUP6 ISZERO ISZERO DUP2 MSTORE SWAP2 DUP3 ADD SWAP3 SWAP1 SWAP3 MSTORE PUSH32 0xEBF4318915B850F5616A5F8A1A5AE6CE4FAAB31726B6ED1385E582E19C1BA7D SWAP2 ADD JUMPDEST PUSH1 0x40 MLOAD DUP1 SWAP2 SUB SWAP1 LOG2 POP POP JUMP JUMPDEST PUSH1 0x1 PUSH1 0x1 PUSH1 0xA0 SHL SUB SWAP2 DUP3 AND PUSH1 0x0 SWAP1 DUP2 MSTORE PUSH1 0x1 PUSH1 0x20 SWAP1 DUP2 MSTORE PUSH1 0x40 DUP1 DUP4 KECCAK256 SWAP4 SWAP1 SWAP5 AND DUP3 MSTORE SWAP2 SWAP1 SWAP2 MSTORE KECCAK256 SLOAD SWAP1 JUMP JUMPDEST PUSH2 0x10B9 PUSH2 0x1485 JUMP JUMPDEST PUSH1 0x1 PUSH1 0x1 PUSH1 0xA0 SHL SUB DUP2 AND PUSH2 0x1101 JUMPI PUSH1 0x40 MLOAD PUSH3 0x461BCD PUSH1 0xE5 SHL DUP2 MSTORE PUSH1 0x20 PUSH1 0x4 DUP3 ADD MSTORE PUSH1 0xF PUSH1 0x24 DUP3 ADD MSTORE PUSH15 0x496E76616C69642061646472657373 PUSH1 0x88 SHL PUSH1 0x44 DUP3 ADD MSTORE PUSH1 0x64 ADD PUSH2 0x5E8 JUMP JUMPDEST PUSH1 0x7 DUP1 SLOAD PUSH1 0x1 PUSH1 0x1 PUSH1 0xA0 SHL SUB NOT AND PUSH1 0x1 PUSH1 0x1 PUSH1 0xA0 SHL SUB DUP4 AND SWAP1 DUP2 OR SWAP1 SWAP2 SSTORE PUSH1 0x40 MLOAD PUSH32 0x80910F486EC44179623ED755C408902927264BCF6C44B08B8BBD8F6AD283697A SWAP1 PUSH1 0x0 SWAP1 LOG2 POP JUMP JUMPDEST PUSH2 0x1153 PUSH2 0x1485 JUMP JUMPDEST PUSH1 0x1 PUSH1 0x1 PUSH1 0xA0 SHL SUB DUP2 AND PUSH2 0x1179 JUMPI PUSH1 0x40 MLOAD PUSH3 0x461BCD PUSH1 0xE5 SHL DUP2 MSTORE PUSH1 0x4 ADD PUSH2 0x5E8 SWAP1 PUSH2 0x1B8A JUMP JUMPDEST PUSH1 0x1 PUSH1 0x1 PUSH1 0xA0 SHL SUB DUP2 AND PUSH1 0x0 SWAP1 DUP2 MSTORE PUSH1 0xD PUSH1 0x20 MSTORE PUSH1 0x40 SWAP1 KECCAK256 SLOAD PUSH1 0xFF AND DUP1 ISZERO PUSH2 0x11E3 JUMPI PUSH1 0x40 MLOAD PUSH3 0x461BCD PUSH1 0xE5 SHL DUP2 MSTORE PUSH1 0x20 PUSH1 0x4 DUP3 ADD MSTORE PUSH1 0x18 PUSH1 0x24 DUP3 ADD MSTORE PUSH32 0x4163636F756E7420616C7265616479206578636C756465640000000000000000 PUSH1 0x44 DUP3 ADD MSTORE PUSH1 0x64 ADD PUSH2 0x5E8 JUMP JUMPDEST PUSH1 0x1 PUSH1 0x1 PUSH1 0xA0 SHL SUB DUP3 AND PUSH1 0x0 SWAP1 DUP2 MSTORE PUSH1 0xE PUSH1 0x20 MSTORE PUSH1 0x40 SWAP1 KECCAK256 SLOAD PUSH1 0x11 SLOAD PUSH2 0x1208 SWAP2 PUSH2 0x1500 JUMP JUMPDEST PUSH1 0x11 SSTORE PUSH1 0x1 PUSH1 0x1 PUSH1 0xA0 SHL SUB DUP3 AND PUSH1 0x0 DUP2 DUP2 MSTORE PUSH1 0xD PUSH1 0x20 SWAP1 DUP2 MSTORE PUSH1 0x40 SWAP2 DUP3 SWAP1 KECCAK256 DUP1 SLOAD PUSH1 0xFF NOT AND PUSH1 0x1 SWAP1 DUP2 OR SWAP1 SWAP2 SSTORE DUP3 MLOAD DUP6 ISZERO ISZERO DUP2 MSTORE SWAP2 DUP3 ADD MSTORE PUSH32 0xEBF4318915B850F5616A5F8A1A5AE6CE4FAAB31726B6ED1385E582E19C1BA7D SWAP2 ADD PUSH2 0x107A JUMP JUMPDEST PUSH1 0x0 PUSH1 0x1 PUSH1 0x1 PUSH1 0xA0 SHL SUB DUP3 AND PUSH2 0x1290 JUMPI PUSH1 0x40 MLOAD PUSH3 0x461BCD PUSH1 0xE5 SHL DUP2 MSTORE PUSH1 0x4 ADD PUSH2 0x5E8 SWAP1 PUSH2 0x1B8A JUMP JUMPDEST POP PUSH1 0x1 PUSH1 0x1 PUSH1 0xA0 SHL SUB AND PUSH1 0x0 SWAP1 DUP2 MSTORE PUSH1 0xD PUSH1 0x20 MSTORE PUSH1 0x40 SWAP1 KECCAK256 SLOAD PUSH1 0xFF AND SWAP1 JUMP JUMPDEST PUSH2 0x12B7 PUSH2 0x1485 JUMP JUMPDEST PUSH1 0x1 PUSH1 0x1 PUSH1 0xA0 SHL SUB DUP2 AND PUSH2 0x12FF JUMPI PUSH1 0x40 MLOAD PUSH3 0x461BCD PUSH1 0xE5 SHL DUP2 MSTORE PUSH1 0x20 PUSH1 0x4 DUP3 ADD MSTORE PUSH1 0xF PUSH1 0x24 DUP3 ADD MSTORE PUSH15 0x496E76616C69642061646472657373 PUSH1 0x88 SHL PUSH1 0x44 DUP3 ADD MSTORE PUSH1 0x64 ADD PUSH2 0x5E8 JUMP JUMPDEST PUSH1 0x6 DUP1 SLOAD PUSH1 0x1 PUSH1 0x1 PUSH1 0xA0 SHL SUB NOT AND PUSH1 0x1 PUSH1 0x1 PUSH1 0xA0 SHL SUB DUP4 AND OR SWAP1 SSTORE PUSH2 0x1327 PUSH3 0x2A300 TIMESTAMP PUSH2 0x1B25 JUMP JUMPDEST PUSH1 0x13 SSTORE PUSH1 0x40 MLOAD PUSH1 0x1 PUSH1 0x1 PUSH1 0xA0 SHL SUB DUP3 AND SWAP1 PUSH32 0xD9BE0E8E07417E00F2521DB636CB53E316FD288F5051F16D2AA2BF0C3938A876 SWAP1 PUSH1 0x0 SWAP1 LOG2 POP JUMP JUMPDEST PUSH1 0x1 PUSH1 0x1 PUSH1 0xA0 SHL SUB DUP4 AND PUSH2 0x13C3 JUMPI PUSH1 0x40 MLOAD PUSH3 0x461BCD PUSH1 0xE5 SHL DUP2 MSTORE PUSH1 0x20 PUSH1 0x4 DUP3 ADD MSTORE PUSH1 0x24 DUP1 DUP3 ADD MSTORE PUSH32 0x45524332303A20617070726F76652066726F6D20746865207A65726F20616464 PUSH1 0x44 DUP3 ADD MSTORE PUSH4 0x72657373 PUSH1 0xE0 SHL PUSH1 0x64 DUP3 ADD MSTORE PUSH1 0x84 ADD PUSH2 0x5E8 JUMP JUMPDEST PUSH1 0x1 PUSH1 0x1 PUSH1 0xA0 SHL SUB DUP3 AND PUSH2 0x1424 JUMPI PUSH1 0x40 MLOAD PUSH3 0x461BCD PUSH1 0xE5 SHL DUP2 MSTORE PUSH1 0x20 PUSH1 0x4 DUP3 ADD MSTORE PUSH1 0x22 PUSH1 0x24 DUP3 ADD MSTORE PUSH32 0x45524332303A20617070726F766520746F20746865207A65726F206164647265 PUSH1 0x44 DUP3 ADD MSTORE PUSH2 0x7373 PUSH1 0xF0 SHL PUSH1 0x64 DUP3 ADD MSTORE PUSH1 0x84 ADD PUSH2 0x5E8 JUMP JUMPDEST PUSH1 0x1 PUSH1 0x1 PUSH1 0xA0 SHL SUB DUP4 DUP2 AND PUSH1 0x0 DUP2 DUP2 MSTORE PUSH1 0x1 PUSH1 0x20 SWAP1 DUP2 MSTORE PUSH1 0x40 DUP1 DUP4 KECCAK256 SWAP5 DUP8 AND DUP1 DUP5 MSTORE SWAP5 DUP3 MSTORE SWAP2 DUP3 SWAP1 KECCAK256 DUP6 SWAP1 SSTORE SWAP1 MLOAD DUP5 DUP2 MSTORE PUSH32 0x8C5BE1E5EBEC7D5BD14F71427D1E84F3DD0314C0F7B2291E5B200AC8C7C3B925 SWAP2 ADD PUSH1 0x40 MLOAD DUP1 SWAP2 SUB SWAP1 LOG3 POP POP POP JUMP JUMPDEST PUSH1 0x5 SLOAD PUSH1 0x1 PUSH1 0x1 PUSH1 0xA0 SHL SUB AND CALLER EQ PUSH2 0x14DF JUMPI PUSH1 0x40 MLOAD PUSH3 0x461BCD PUSH1 0xE5 SHL DUP2 MSTORE PUSH1 0x20 PUSH1 0x4 DUP3 ADD DUP2 SWAP1 MSTORE PUSH1 0x24 DUP3 ADD MSTORE PUSH32 0x4F776E61626C653A2063616C6C6572206973206E6F7420746865206F776E6572 PUSH1 0x44 DUP3 ADD MSTORE PUSH1 0x64 ADD PUSH2 0x5E8 JUMP JUMPDEST JUMP JUMPDEST PUSH1 0x0 PUSH2 0x14ED DUP3 DUP5 PUSH2 0x1B38 JUMP JUMPDEST SWAP4 SWAP3 POP POP POP JUMP JUMPDEST PUSH1 0x0 PUSH2 0x14ED DUP3 DUP5 PUSH2 0x1B4F JUMP JUMPDEST PUSH1 0x0 PUSH2 0x14ED DUP3 DUP5 PUSH2 0x1B25 JUMP JUMPDEST PUSH1 0x1 PUSH1 0x1 PUSH1 0xA0 SHL SUB DUP4 AND PUSH1 0x0 DUP2 DUP2 MSTORE PUSH1 0xF PUSH1 0x20 SWAP1 DUP2 MSTORE PUSH1 0x40 DUP1 DUP4 KECCAK256 DUP2 MLOAD DUP1 DUP4 ADD DUP4 MSTORE DUP7 DUP2 MSTORE TIMESTAMP DUP2 DUP6 ADD DUP2 DUP2 MSTORE DUP4 SLOAD PUSH1 0x1 DUP1 DUP3 ADD DUP7 SSTORE DUP6 DUP10 MSTORE SWAP8 DUP8 SWAP1 KECCAK256 SWAP4 MLOAD PUSH1 0x2 SWAP1 SWAP2 MUL SWAP1 SWAP4 ADD SWAP3 DUP4 SSTORE MLOAD SWAP2 SWAP1 SWAP6 ADD SSTORE DUP2 MLOAD DUP8 DUP2 MSTORE SWAP3 DUP4 ADD DUP7 SWAP1 MSTORE DUP3 DUP3 ADD SWAP4 SWAP1 SWAP4 MSTORE MLOAD SWAP2 SWAP3 SWAP2 PUSH32 0xD6822A0E90EC13780D19F97BE90A3BB74627AB42B26A3DF64D69359A01352E2B SWAP2 DUP2 SWAP1 SUB PUSH1 0x60 ADD SWAP1 LOG2 POP POP POP POP JUMP JUMPDEST PUSH1 0x0 PUSH2 0x15AD DUP5 DUP5 PUSH2 0x1086 JUMP JUMPDEST SWAP1 POP PUSH1 0x0 NOT DUP2 EQ PUSH2 0x1615 JUMPI DUP2 DUP2 LT ISZERO PUSH2 0x1608 JUMPI PUSH1 0x40 MLOAD PUSH3 0x461BCD PUSH1 0xE5 SHL DUP2 MSTORE PUSH1 0x20 PUSH1 0x4 DUP3 ADD MSTORE PUSH1 0x1D PUSH1 0x24 DUP3 ADD MSTORE PUSH32 0x45524332303A20696E73756666696369656E7420616C6C6F77616E6365000000 PUSH1 0x44 DUP3 ADD MSTORE PUSH1 0x64 ADD PUSH2 0x5E8 JUMP JUMPDEST PUSH2 0x1615 DUP5 DUP5 DUP5 DUP5 SUB PUSH2 0x1361 JUMP JUMPDEST POP POP POP POP JUMP JUMPDEST PUSH1 0x1 PUSH1 0x1 PUSH1 0xA0 SHL SUB DUP4 AND PUSH2 0x1671 JUMPI PUSH1 0x40 MLOAD PUSH3 0x461BCD PUSH1 0xE5 SHL DUP2 MSTORE PUSH1 0x20 PUSH1 0x4 DUP3 ADD MSTORE PUSH1 0x1A PUSH1 0x24 DUP3 ADD MSTORE PUSH32 0x5472616E736665722066726F6D207A65726F2061646472657373000000000000 PUSH1 0x44 DUP3 ADD MSTORE PUSH1 0x64 ADD PUSH2 0x5E8 JUMP JUMPDEST PUSH1 0x1 PUSH1 0x1 PUSH1 0xA0 SHL SUB DUP3 AND PUSH2 0x16C7 JUMPI PUSH1 0x40 MLOAD PUSH3 0x461BCD PUSH1 0xE5 SHL DUP2 MSTORE PUSH1 0x20 PUSH1 0x4 DUP3 ADD MSTORE PUSH1 0x18 PUSH1 0x24 DUP3 ADD MSTORE PUSH32 0x5472616E7366657220746F207A65726F20616464726573730000000000000000 PUSH1 0x44 DUP3 ADD MSTORE PUSH1 0x64 ADD PUSH2 0x5E8 JUMP JUMPDEST PUSH1 0x1 PUSH1 0x1 PUSH1 0xA0 SHL SUB DUP4 AND PUSH1 0x0 SWAP1 DUP2 MSTORE PUSH1 0xD PUSH1 0x20 MSTORE PUSH1 0x40 DUP2 KECCAK256 SLOAD PUSH1 0xFF AND ISZERO PUSH2 0x16EF JUMPI POP DUP1 PUSH2 0x1711 JUMP JUMPDEST PUSH1 0xB SLOAD PUSH2 0x1704 PUSH8 0xDE0B6B3A7640000 DUP5 PUSH2 0x1B38 JUMP JUMPDEST PUSH2 0x170E SWAP2 SWAP1 PUSH2 0x1B4F JUMP JUMPDEST SWAP1 POP JUMPDEST PUSH1 0x1 PUSH1 0x1 PUSH1 0xA0 SHL SUB DUP5 AND PUSH1 0x0 SWAP1 DUP2 MSTORE PUSH1 0xE PUSH1 0x20 MSTORE PUSH1 0x40 SWAP1 KECCAK256 SLOAD DUP2 GT ISZERO PUSH2 0x1770 JUMPI PUSH1 0x40 MLOAD PUSH3 0x461BCD PUSH1 0xE5 SHL DUP2 MSTORE PUSH1 0x20 PUSH1 0x4 DUP3 ADD MSTORE PUSH1 0x14 PUSH1 0x24 DUP3 ADD MSTORE PUSH20 0x496E73756666696369656E742062616C616E6365 PUSH1 0x60 SHL PUSH1 0x44 DUP3 ADD MSTORE PUSH1 0x64 ADD PUSH2 0x5E8 JUMP JUMPDEST PUSH1 0x1 PUSH1 0x1 PUSH1 0xA0 SHL SUB DUP5 AND PUSH1 0x0 SWAP1 DUP2 MSTORE PUSH1 0xE PUSH1 0x20 MSTORE PUSH1 0x40 DUP2 KECCAK256 DUP1 SLOAD DUP4 SWAP3 SWAP1 PUSH2 0x1798 SWAP1 DUP5 SWAP1 PUSH2 0x1B12 JUMP JUMPDEST SWAP1 SWAP2 SSTORE POP POP PUSH1 0x1 PUSH1 0x1 PUSH1 0xA0 SHL SUB DUP4 AND PUSH1 0x0 SWAP1 DUP2 MSTORE PUSH1 0xE PUSH1 0x20 MSTORE PUSH1 0x40 DUP2 KECCAK256 DUP1 SLOAD DUP4 SWAP3 SWAP1 PUSH2 0x17C5 SWAP1 DUP5 SWAP1 PUSH2 0x1B25 JUMP JUMPDEST SWAP1 SWAP2 SSTORE POP POP PUSH1 0x1 PUSH1 0x1 PUSH1 0xA0 SHL SUB DUP5 AND PUSH1 0x0 SWAP1 DUP2 MSTORE PUSH1 0xD PUSH1 0x20 MSTORE PUSH1 0x40 SWAP1 KECCAK256 SLOAD PUSH1 0xFF AND DUP1 ISZERO PUSH2 0x180B JUMPI POP PUSH1 0x1 PUSH1 0x1 PUSH1 0xA0 SHL SUB DUP4 AND PUSH1 0x0 SWAP1 DUP2 MSTORE PUSH1 0xD PUSH1 0x20 MSTORE PUSH1 0x40 SWAP1 KECCAK256 SLOAD PUSH1 0xFF AND ISZERO JUMPDEST ISZERO PUSH2 0x182D JUMPI DUP1 PUSH1 0x11 PUSH1 0x0 DUP3 DUP3 SLOAD PUSH2 0x1822 SWAP2 SWAP1 PUSH2 0x1B12 JUMP JUMPDEST SWAP1 SWAP2 SSTORE POP PUSH2 0x188B SWAP1 POP JUMP JUMPDEST PUSH1 0x1 PUSH1 0x1 PUSH1 0xA0 SHL SUB DUP5 AND PUSH1 0x0 SWAP1 DUP2 MSTORE PUSH1 0xD PUSH1 0x20 MSTORE PUSH1 0x40 SWAP1 KECCAK256 SLOAD PUSH1 0xFF AND ISZERO DUP1 ISZERO PUSH2 0x186E JUMPI POP PUSH1 0x1 PUSH1 0x1 PUSH1 0xA0 SHL SUB DUP4 AND PUSH1 0x0 SWAP1 DUP2 MSTORE PUSH1 0xD PUSH1 0x20 MSTORE PUSH1 0x40 SWAP1 KECCAK256 SLOAD PUSH1 0xFF AND JUMPDEST ISZERO PUSH2 0x188B JUMPI DUP1 PUSH1 0x11 PUSH1 0x0 DUP3 DUP3 SLOAD PUSH2 0x1885 SWAP2 SWAP1 PUSH2 0x1B25 JUMP JUMPDEST SWAP1 SWAP2 SSTORE POP POP JUMPDEST DUP3 PUSH1 0x1 PUSH1 0x1 PUSH1 0xA0 SHL SUB AND DUP5 PUSH1 0x1 PUSH1 0x1 PUSH1 0xA0 SHL SUB AND PUSH32 0xDDF252AD1BE2C89B69C2B068FC378DAA952BA7F163C4A11628F55A4DF523B3EF DUP5 PUSH1 0x40 MLOAD PUSH2 0x18D0 SWAP2 DUP2 MSTORE PUSH1 0x20 ADD SWAP1 JUMP JUMPDEST PUSH1 0x40 MLOAD DUP1 SWAP2 SUB SWAP1 LOG3 POP POP POP POP JUMP JUMPDEST PUSH1 0x5 DUP1 SLOAD PUSH1 0x1 PUSH1 0x1 PUSH1 0xA0 SHL SUB DUP4 DUP2 AND PUSH1 0x1 PUSH1 0x1 PUSH1 0xA0 SHL SUB NOT DUP4 AND DUP2 OR SWAP1 SWAP4 SSTORE PUSH1 0x40 MLOAD SWAP2 AND SWAP2 SWAP1 DUP3 SWAP1 PUSH32 0x8BE0079C531659141344CD1FD0A4F28419497F9722A3DAAFE3B4186F6B6457E0 SWAP1 PUSH1 0x0 SWAP1 LOG3 POP POP JUMP JUMPDEST PUSH1 0x0 PUSH2 0x14ED DUP3 DUP5 PUSH2 0x1B12 JUMP JUMPDEST PUSH1 0x0 PUSH1 0x20 DUP1 DUP4 MSTORE DUP4 MLOAD DUP1 DUP3 DUP6 ADD MSTORE PUSH1 0x0 JUMPDEST DUP2 DUP2 LT ISZERO PUSH2 0x1969 JUMPI DUP6 DUP2 ADD DUP4 ADD MLOAD DUP6 DUP3 ADD PUSH1 0x40 ADD MSTORE DUP3 ADD PUSH2 0x194D JUMP JUMPDEST POP PUSH1 0x0 PUSH1 0x40 DUP3 DUP7 ADD ADD MSTORE PUSH1 0x40 PUSH1 0x1F NOT PUSH1 0x1F DUP4 ADD AND DUP6 ADD ADD SWAP3 POP POP POP SWAP3 SWAP2 POP POP JUMP JUMPDEST DUP1 CALLDATALOAD PUSH1 0x1 PUSH1 0x1 PUSH1 0xA0 SHL SUB DUP2 AND DUP2 EQ PUSH2 0x19A1 JUMPI PUSH1 0x0 DUP1 REVERT JUMPDEST SWAP2 SWAP1 POP JUMP JUMPDEST PUSH1 0x0 DUP1 PUSH1 0x40 DUP4 DUP6 SUB SLT ISZERO PUSH2 0x19B9 JUMPI PUSH1 0x0 DUP1 REVERT JUMPDEST PUSH2 0x19C2 DUP4 PUSH2 0x198A JUMP JUMPDEST SWAP5 PUSH1 0x20 SWAP4 SWAP1 SWAP4 ADD CALLDATALOAD SWAP4 POP POP POP JUMP JUMPDEST PUSH1 0x0 PUSH1 0x20 DUP3 DUP5 SUB SLT ISZERO PUSH2 0x19E2 JUMPI PUSH1 0x0 DUP1 REVERT JUMPDEST PUSH2 0x14ED DUP3 PUSH2 0x198A JUMP JUMPDEST PUSH1 0x0 DUP1 PUSH1 0x0 PUSH1 0x60 DUP5 DUP7 SUB SLT ISZERO PUSH2 0x1A00 JUMPI PUSH1 0x0 DUP1 REVERT JUMPDEST PUSH2 0x1A09 DUP5 PUSH2 0x198A JUMP JUMPDEST SWAP3 POP PUSH2 0x1A17 PUSH1 0x20 DUP6 ADD PUSH2 0x198A JUMP JUMPDEST SWAP2 POP PUSH1 0x40 DUP5 ADD CALLDATALOAD SWAP1 POP SWAP3 POP SWAP3 POP SWAP3 JUMP JUMPDEST PUSH1 0x0 PUSH1 0x20 DUP3 DUP5 SUB SLT ISZERO PUSH2 0x1A39 JUMPI PUSH1 0x0 DUP1 REVERT JUMPDEST POP CALLDATALOAD SWAP2 SWAP1 POP JUMP JUMPDEST PUSH1 0x20 DUP1 DUP3 MSTORE DUP3 MLOAD DUP3 DUP3 ADD DUP2 SWAP1 MSTORE PUSH1 0x0 SWAP2 SWAP1 PUSH1 0x40 SWAP1 DUP2 DUP6 ADD SWAP1 DUP7 DUP5 ADD DUP6 JUMPDEST DUP3 DUP2 LT ISZERO PUSH2 0x1A82 JUMPI DUP2 MLOAD DUP1 MLOAD DUP6 MSTORE DUP7 ADD MLOAD DUP7 DUP6 ADD MSTORE SWAP3 DUP5 ADD SWAP3 SWAP1 DUP6 ADD SWAP1 PUSH1 0x1 ADD PUSH2 0x1A5D JUMP JUMPDEST POP SWAP2 SWAP8 SWAP7 POP POP POP POP POP POP POP JUMP JUMPDEST PUSH1 0x0 DUP1 PUSH1 0x40 DUP4 DUP6 SUB SLT ISZERO PUSH2 0x1AA2 JUMPI PUSH1 0x0 DUP1 REVERT JUMPDEST PUSH2 0x1AAB DUP4 PUSH2 0x198A JUMP JUMPDEST SWAP2 POP PUSH2 0x1AB9 PUSH1 0x20 DUP5 ADD PUSH2 0x198A JUMP JUMPDEST SWAP1 POP SWAP3 POP SWAP3 SWAP1 POP JUMP JUMPDEST PUSH1 0x1 DUP2 DUP2 SHR SWAP1 DUP3 AND DUP1 PUSH2 0x1AD6 JUMPI PUSH1 0x7F DUP3 AND SWAP2 POP JUMPDEST PUSH1 0x20 DUP3 LT DUP2 SUB PUSH2 0x1AF6 JUMPI PUSH4 0x4E487B71 PUSH1 0xE0 SHL PUSH1 0x0 MSTORE PUSH1 0x22 PUSH1 0x4 MSTORE PUSH1 0x24 PUSH1 0x0 REVERT JUMPDEST POP SWAP2 SWAP1 POP JUMP JUMPDEST PUSH4 0x4E487B71 PUSH1 0xE0 SHL PUSH1 0x0 MSTORE PUSH1 0x11 PUSH1 0x4 MSTORE PUSH1 0x24 PUSH1 0x0 REVERT JUMPDEST DUP2 DUP2 SUB DUP2 DUP2 GT ISZERO PUSH2 0x588 JUMPI PUSH2 0x588 PUSH2 0x1AFC JUMP JUMPDEST DUP1 DUP3 ADD DUP1 DUP3 GT ISZERO PUSH2 0x588 JUMPI PUSH2 0x588 PUSH2 0x1AFC JUMP JUMPDEST DUP1 DUP3 MUL DUP2 ISZERO DUP3 DUP3 DIV DUP5 EQ OR PUSH2 0x588 JUMPI PUSH2 0x588 PUSH2 0x1AFC JUMP JUMPDEST PUSH1 0x0 DUP3 PUSH2 0x1B6C JUMPI PUSH4 0x4E487B71 PUSH1 0xE0 SHL PUSH1 0x0 MSTORE PUSH1 0x12 PUSH1 0x4 MSTORE PUSH1 0x24 PUSH1 0x0 REVERT JUMPDEST POP DIV SWAP1 JUMP JUMPDEST PUSH1 0x0 PUSH1 0x1 DUP3 ADD PUSH2 0x1B83 JUMPI PUSH2 0x1B83 PUSH2 0x1AFC JUMP JUMPDEST POP PUSH1 0x1 ADD SWAP1 JUMP JUMPDEST PUSH1 0x20 DUP1 DUP3 MSTORE PUSH1 0x18 SWAP1 DUP3 ADD MSTORE PUSH32 0x5A65726F2061646472657373206E6F7420616C6C6F7765640000000000000000 PUSH1 0x40 DUP3 ADD MSTORE PUSH1 0x60 ADD SWAP1 JUMP INVALID LOG2 PUSH5 0x6970667358 0x22 SLT KECCAK256 PUSH25 0xD1C55121B37FC9EB23EA2F7D6C9D031E775F128DAB35660481 0xDF SWAP2 MUL SWAP5 0xD DIV PUSH5 0x736F6C6343 STOP ADDMOD EQ STOP CALLER "},"methodIdentifiers":{"INITIAL_SUPPLY()":"2ff2e9dc","MAX_REBASE_FACTOR()":"c02e4b38","MAX_SUPPLY()":"32cb6b0c","MIN_SUPPLY()":"35917c64","REBASE_FACTOR_PRECISION()":"b48ca720","TOKEN_UNIT()":"a5c9cd82","acceptOwnership()":"79ba5097","allowance(address,address)":"dd62ed3e","approve(address,uint256)":"095ea7b3","balanceOf(address)":"70a08231","cancelOwnershipTransfer()":"23452b9c","decimals()":"313ce567","decreaseAllowance(address,uint256)":"a457c2d7","distributor()":"bfe10928","excludeFromRebase(address)":"e7d6289b","getBaseBalanceHistory(address)":"d3601271","getExcludedFromRebaseTotal()":"a236b83a","includeInRebase(address)":"d54d97ed","increaseAllowance(address,uint256)":"39509351","initialDistributionDone()":"0535ec77","isExcludedFromRebase(address)":"f06d66b8","mintRemainingSupply(address)":"0e23d25c","name()":"06fdde03","owner()":"8da5cb5b","ownershipTransferTime()":"d55d60f9","rebase(uint256)":"bc4f2d6d","rebaseConfig()":"4d3d0553","rebaseEpoch()":"57b535c0","rebaser()":"11fd8a83","renounceOwnership()":"715018a6","setDistributor(address)":"75619ab5","setRebaser(address)":"e46adf62","symbol()":"95d89b41","totalSupply()":"18160ddd","transfer(address,uint256)":"a9059cbb","transferFrom(address,address,uint256)":"23b872dd","transferOwnership(address)":"f2fde38b"}}}}}