{"contracts/rewards/BaseRewards.sol":{"BaseRewards":{"abi":[{"inputs":[{"internalType":"address","name":"_stakingToken","type":"address"},{"internalType":"address","name":"_rewardsToken","type":"address"},{"internalType":"address","name":"initialOwner","type":"address"}],"stateMutability":"nonpayable","type":"constructor"},{"anonymous":false,"inputs":[{"indexed":false,"internalType":"uint256","name":"newPeriod","type":"uint256"}],"name":"MinStakingPeriodUpdated","type":"event"},{"anonymous":false,"inputs":[{"indexed":true,"internalType":"address","name":"previousOwner","type":"address"},{"indexed":true,"internalType":"address","name":"newOwner","type":"address"}],"name":"OwnershipTransferred","type":"event"},{"anonymous":false,"inputs":[{"indexed":true,"internalType":"address","name":"user","type":"address"},{"indexed":false,"internalType":"uint256","name":"amount","type":"uint256"}],"name":"RewardExpired","type":"event"},{"anonymous":false,"inputs":[{"indexed":true,"internalType":"address","name":"user","type":"address"},{"indexed":false,"internalType":"uint256","name":"reward","type":"uint256"}],"name":"RewardPaid","type":"event"},{"anonymous":false,"inputs":[{"indexed":false,"internalType":"uint256","name":"oldRate","type":"uint256"},{"indexed":false,"internalType":"uint256","name":"newRate","type":"uint256"},{"indexed":true,"internalType":"address","name":"admin","type":"address"}],"name":"RewardRateUpdated","type":"event"},{"anonymous":false,"inputs":[{"indexed":true,"internalType":"address","name":"user","type":"address"},{"indexed":false,"internalType":"uint256","name":"amount","type":"uint256"}],"name":"Staked","type":"event"},{"anonymous":false,"inputs":[{"indexed":true,"internalType":"address","name":"token","type":"address"},{"indexed":false,"internalType":"uint256","name":"amount","type":"uint256"},{"indexed":true,"internalType":"address","name":"admin","type":"address"}],"name":"TokensRescued","type":"event"},{"anonymous":false,"inputs":[{"indexed":true,"internalType":"address","name":"user","type":"address"},{"indexed":false,"internalType":"uint256","name":"amount","type":"uint256"}],"name":"Withdrawn","type":"event"},{"inputs":[],"name":"BASIS_POINTS","outputs":[{"internalType":"uint256","name":"","type":"uint256"}],"stateMutability":"view","type":"function"},{"inputs":[],"name":"MAX_CLAIM_PERIOD","outputs":[{"internalType":"uint256","name":"","type":"uint256"}],"stateMutability":"view","type":"function"},{"inputs":[],"name":"MAX_PERIODS_PROCESSED","outputs":[{"internalType":"uint256","name":"","type":"uint256"}],"stateMutability":"view","type":"function"},{"inputs":[],"name":"MAX_REWARD_AMOUNT","outputs":[{"internalType":"uint256","name":"","type":"uint256"}],"stateMutability":"view","type":"function"},{"inputs":[],"name":"MAX_REWARD_RATE","outputs":[{"internalType":"uint256","name":"","type":"uint256"}],"stateMutability":"view","type":"function"},{"inputs":[],"name":"MAX_STAKING_DAYS","outputs":[{"internalType":"uint256","name":"","type":"uint256"}],"stateMutability":"view","type":"function"},{"inputs":[],"name":"MIN_STAKING_PERIOD","outputs":[{"internalType":"uint256","name":"","type":"uint256"}],"stateMutability":"view","type":"function"},{"inputs":[],"name":"RATE_CHANGE_COOLDOWN","outputs":[{"internalType":"uint256","name":"","type":"uint256"}],"stateMutability":"view","type":"function"},{"inputs":[],"name":"adminControl","outputs":[{"internalType":"contract IAdminControl","name":"","type":"address"}],"stateMutability":"view","type":"function"},{"inputs":[{"internalType":"address","name":"account","type":"address"}],"name":"balanceOf","outputs":[{"internalType":"uint256","name":"","type":"uint256"}],"stateMutability":"view","type":"function"},{"inputs":[{"internalType":"address","name":"user","type":"address"},{"internalType":"uint256","name":"stakingAmount","type":"uint256"},{"internalType":"uint256","name":"stakingDuration","type":"uint256"}],"name":"calculateRewards","outputs":[{"internalType":"uint256","name":"totalReward","type":"uint256"}],"stateMutability":"view","type":"function"},{"inputs":[],"name":"claimReward","outputs":[],"stateMutability":"nonpayable","type":"function"},{"inputs":[{"internalType":"address","name":"account","type":"address"}],"name":"clearExpiredRewards","outputs":[],"stateMutability":"nonpayable","type":"function"},{"inputs":[{"internalType":"address","name":"account","type":"address"}],"name":"earned","outputs":[{"internalType":"uint256","name":"","type":"uint256"}],"stateMutability":"view","type":"function"},{"inputs":[],"name":"lastRateChange","outputs":[{"internalType":"uint256","name":"","type":"uint256"}],"stateMutability":"view","type":"function"},{"inputs":[],"name":"lastUpdateTime","outputs":[{"internalType":"uint256","name":"","type":"uint256"}],"stateMutability":"view","type":"function"},{"inputs":[],"name":"minStakingPeriod","outputs":[{"internalType":"uint256","name":"","type":"uint256"}],"stateMutability":"view","type":"function"},{"inputs":[],"name":"owner","outputs":[{"internalType":"address","name":"","type":"address"}],"stateMutability":"view","type":"function"},{"inputs":[],"name":"pauseRateChanges","outputs":[],"stateMutability":"nonpayable","type":"function"},{"inputs":[],"name":"rateChangePaused","outputs":[{"internalType":"bool","name":"","type":"bool"}],"stateMutability":"view","type":"function"},{"inputs":[],"name":"renounceOwnership","outputs":[],"stateMutability":"nonpayable","type":"function"},{"inputs":[{"internalType":"address","name":"token","type":"address"},{"internalType":"uint256","name":"amount","type":"uint256"}],"name":"rescueTokens","outputs":[],"stateMutability":"nonpayable","type":"function"},{"inputs":[],"name":"rewardConfig","outputs":[{"internalType":"uint256","name":"baseRewardRate","type":"uint256"},{"internalType":"uint256","name":"communityBonusRate","type":"uint256"},{"internalType":"uint256","name":"leaseBonusRate","type":"uint256"}],"stateMutability":"view","type":"function"},{"inputs":[{"internalType":"address","name":"","type":"address"}],"name":"rewardExpirationTimestamps","outputs":[{"internalType":"uint256","name":"","type":"uint256"}],"stateMutability":"view","type":"function"},{"inputs":[],"name":"rewardPerToken","outputs":[{"internalType":"uint256","name":"","type":"uint256"}],"stateMutability":"view","type":"function"},{"inputs":[],"name":"rewardPerTokenStored","outputs":[{"internalType":"uint256","name":"","type":"uint256"}],"stateMutability":"view","type":"function"},{"inputs":[{"internalType":"uint256","name":"","type":"uint256"}],"name":"rewardPeriods","outputs":[{"internalType":"uint256","name":"rate","type":"uint256"},{"internalType":"uint256","name":"startTime","type":"uint256"},{"internalType":"uint256","name":"endTime","type":"uint256"}],"stateMutability":"view","type":"function"},{"inputs":[{"internalType":"address","name":"","type":"address"}],"name":"rewards","outputs":[{"internalType":"uint256","name":"","type":"uint256"}],"stateMutability":"view","type":"function"},{"inputs":[],"name":"rewardsToken","outputs":[{"internalType":"contract ERC20","name":"","type":"address"}],"stateMutability":"view","type":"function"},{"inputs":[],"name":"rewardsTokenUnit","outputs":[{"internalType":"uint256","name":"","type":"uint256"}],"stateMutability":"view","type":"function"},{"inputs":[{"internalType":"uint256","name":"period","type":"uint256"}],"name":"setMinStakingPeriod","outputs":[],"stateMutability":"nonpayable","type":"function"},{"inputs":[{"internalType":"uint256","name":"_rewardRate","type":"uint256"}],"name":"setRewardRate","outputs":[],"stateMutability":"nonpayable","type":"function"},{"inputs":[{"internalType":"uint256","name":"amount","type":"uint256"}],"name":"stake","outputs":[],"stateMutability":"nonpayable","type":"function"},{"inputs":[],"name":"stakingToken","outputs":[{"internalType":"contract ERC20","name":"","type":"address"}],"stateMutability":"view","type":"function"},{"inputs":[],"name":"stakingTokenUnit","outputs":[{"internalType":"uint256","name":"","type":"uint256"}],"stateMutability":"view","type":"function"},{"inputs":[],"name":"totalSupply","outputs":[{"internalType":"uint256","name":"","type":"uint256"}],"stateMutability":"view","type":"function"},{"inputs":[{"internalType":"address","name":"newOwner","type":"address"}],"name":"transferOwnership","outputs":[],"stateMutability":"nonpayable","type":"function"},{"inputs":[],"name":"unpauseRateChanges","outputs":[],"stateMutability":"nonpayable","type":"function"},{"inputs":[{"internalType":"address","name":"","type":"address"}],"name":"userRewardPerTokenPaid","outputs":[{"internalType":"uint256","name":"","type":"uint256"}],"stateMutability":"view","type":"function"},{"inputs":[{"internalType":"uint256","name":"amount","type":"uint256"}],"name":"withdraw","outputs":[],"stateMutability":"nonpayable","type":"function"}],"evm":{"bytecode":{"linkReferences":{},"object":"61010060405262093a806012553480156200001957600080fd5b5060405162002505380380620025058339810160408190526200003c91620002dd565b620000473362000270565b600180556001600160a01b038316620000a75760405162461bcd60e51b815260206004820152601d60248201527f496e76616c6964207374616b696e6720746f6b656e206164647265737300000060448201526064015b60405180910390fd5b6001600160a01b038216620000ff5760405162461bcd60e51b815260206004820152601d60248201527f496e76616c6964207265776172647320746f6b656e206164647265737300000060448201526064016200009e565b6001600160a01b0380841660c081905290831660e0526040805163313ce56760e01b815290516000928392909163313ce567916004808201926020929091908290030181865afa92505050801562000176575060408051601f3d908101601f19168201909252620001739181019062000327565b60015b6200018c57670de0b6b3a76400009150620001a0565b6200019c60ff8216600a62000468565b9250505b60e0516001600160a01b031663313ce5676040518163ffffffff1660e01b8152600401602060405180830381865afa925050508015620001ff575060408051601f3d908101601f19168201909252620001fc9181019062000327565b60015b620002145750670de0b6b3a764000062000228565b6200022460ff8216600a62000468565b9150505b608082905260a08190526001600160a01b038316158015906200025457506001600160a01b0383163314155b156200026557620002658362000270565b505050505062000476565b600080546001600160a01b038381166001600160a01b0319831681178455604051919092169283917f8be0079c531659141344cd1fd0a4f28419497f9722a3daafe3b4186f6b6457e09190a35050565b80516001600160a01b0381168114620002d857600080fd5b919050565b600080600060608486031215620002f357600080fd5b620002fe84620002c0565b92506200030e60208501620002c0565b91506200031e60408501620002c0565b90509250925092565b6000602082840312156200033a57600080fd5b815160ff811681146200034c57600080fd5b9392505050565b634e487b7160e01b600052601160045260246000fd5b600181815b80851115620003aa5781600019048211156200038e576200038e62000353565b808516156200039c57918102915b93841c93908002906200036e565b509250929050565b600082620003c35750600162000462565b81620003d25750600062000462565b8160018114620003eb5760028114620003f65762000416565b600191505062000462565b60ff8411156200040a576200040a62000353565b50506001821b62000462565b5060208310610133831016604e8410600b84101617156200043b575081810a62000462565b62000447838362000369565b80600019048211156200045e576200045e62000353565b0290505b92915050565b60006200034c8383620003b2565b60805160a05160c05160e05161200f620004f66000396000818161050f01528181610fbc0152818161146f015261154e0152600081816103f001528181610819015281816109b80152818161108c0152818161112401526111cd0152600081816104b0015261171d0152600081816102f801526105a0015261200f6000f3fe608060405234801561001057600080fd5b50600436106102475760003560e01c80638252097d1161013b578063c8f33c91116100b8578063da71ae791161007c578063da71ae7914610544578063df136d651461054d578063e1f1c4a714610556578063ef0e74171461055f578063f2fde38b1461056757600080fd5b8063c8f33c91146104dc578063c9d3d16d146104e5578063cd3daf9d14610502578063d1af0c7d1461050a578063d72b08c61461053157600080fd5b8063a04f6b4b116100ff578063a04f6b4b1461047c578063a694fc3a14610490578063b88a802f146104a3578063be0eac0c146104ab578063c743dabb146104d257600080fd5b80638252097d1461041257806388ee6a43146104255780638b876347146104385780638da5cb5b146104585780639e447fc61461046957600080fd5b80634e94c285116101c95780636eaa7ba21161018d5780636eaa7ba2146103a057806370a08231146103aa578063715018a6146103d3578063718dc3c3146103db57806372f702f3146103eb57600080fd5b80634e94c2851461031a57806353809b5714610347578063539f1f341461035a578063555d3e6314610362578063573761981461038d57600080fd5b806318160ddd1161021057806318160ddd146102ae5780632e1a7d4d146102b657806330568c8c146102c957806342364b4f146102d357806348e0dc12146102f357600080fd5b80628cc2621461024c57806305cb614114610272578063069c34f61461027b5780630700037d1461028457806313f52235146102a4575b600080fd5b61025f61025a366004611ddc565b61057a565b6040519081526020015b60405180910390f35b61025f610e4281565b61025f60125481565b61025f610292366004611ddc565b600a6020526000908152604090205481565b6102ac61060f565b005b600e5461025f565b6102ac6102c4366004611dfe565b610626565b61025f62278d0081565b61025f6102e1366004611ddc565b600b6020526000908152604090205481565b61025f7f000000000000000000000000000000000000000000000000000000000000000081565b60035460045460055461032c92919083565b60408051938452602084019290925290820152606001610269565b6102ac610355366004611ddc565b6108ee565b61025f606481565b600254610375906001600160a01b031681565b6040516001600160a01b039091168152602001610269565b6102ac61039b366004611e17565b6109ae565b61025f6201518081565b61025f6103b8366004611ddc565b6001600160a01b03166000908152600f602052604090205490565b6102ac610b08565b61025f68056bc75e2d6310000081565b6103757f000000000000000000000000000000000000000000000000000000000000000081565b61032c610420366004611dfe565b610b1c565b6102ac610433366004611dfe565b610b4f565b61025f610446366004611ddc565b60096020526000908152604090205481565b6000546001600160a01b0316610375565b6102ac610477366004611dfe565b610b92565b61025f6c0c9f2c9cd04674edea4000000081565b6102ac61049e366004611dfe565b610ecc565b6102ac611332565b61025f7f000000000000000000000000000000000000000000000000000000000000000081565b61025f62093a8081565b61025f60085481565b600d546104f29060ff1681565b6040519015158152602001610269565b61025f61164a565b6103757f000000000000000000000000000000000000000000000000000000000000000081565b61025f61053f366004611e41565b6117b8565b61025f600c5481565b61025f60075481565b61025f61271081565b6102ac611ae3565b6102ac610575366004611ddc565b611af7565b6001600160a01b0381166000908152600a602090815260408083205460099092528220547f0000000000000000000000000000000000000000000000000000000000000000906105c861164a565b6105d29190611e8a565b6001600160a01b0385166000908152601160205260409020546105f59190611e9d565b6105ff9190611eca565b6106099190611eec565b92915050565b610617611b6d565b600d805460ff19166001179055565b61062e611bc7565b33600061063961164a565b60078190554260085590506001600160a01b038216156106bd5761065c8261057a565b6001600160a01b0383166000908152600a602090815260408083209390935560098152828220849055600f8152828220546011909152919020556106a362278d0042611eec565b6001600160a01b0383166000908152600b60205260409020555b601254336000908152601060205260409020546106da9190611eec565b42101561072e5760405162461bcd60e51b815260206004820152601e60248201527f4d696e696d756d207374616b696e6720706572696f64206e6f74206d6574000060448201526064015b60405180910390fd5b600083116107725760405162461bcd60e51b8152602060048201526011602482015270043616e6e6f74207769746864726177203607c1b6044820152606401610725565b336000908152600f6020526040902054838110156107d25760405162461bcd60e51b815260206004820152601b60248201527f496e73756666696369656e74207374616b65642062616c616e636500000000006044820152606401610725565b6107dc8482611e8a565b336000908152600f6020526040902055600e546107fa908590611e8a565b600e5560405163a9059cbb60e01b8152336004820152602481018590527f00000000000000000000000000000000000000000000000000000000000000006001600160a01b03169063a9059cbb906044016020604051808303816000875af115801561086a573d6000803e3d6000fd5b505050506040513d601f19601f8201168201806040525081019061088e9190611eff565b6108aa5760405162461bcd60e51b815260040161072590611f21565b60405184815233907f7084f5476618d8e60b11ef0d7d3f06914655adb8793e28ff7f018d4c76d505d59060200160405180910390a25050506108eb60018055565b50565b6108f6611bc7565b6001600160a01b0381166000908152600b602052604090205442116109525760405162461bcd60e51b815260206004820152601260248201527114995dd85c99081b9bdd08195e1c1a5c995960721b6044820152606401610725565b6001600160a01b0381166000818152600a602090815260408083208054939055518281529192917f6424bfe05f4bf0bb8ed07ffc754f2c4ed6ca4ef02134180b34899ab61d998e02910160405180910390a2506108eb60018055565b6109b6611b6d565b7f00000000000000000000000000000000000000000000000000000000000000006001600160a01b0316826001600160a01b031603610a375760405162461bcd60e51b815260206004820152601b60248201527f43616e6e6f7420726573637565207374616b696e6720746f6b656e00000000006044820152606401610725565b60405163a9059cbb60e01b8152336004820152602481018290526001600160a01b0383169063a9059cbb906044016020604051808303816000875af1158015610a84573d6000803e3d6000fd5b505050506040513d601f19601f82011682018060405250810190610aa89190611eff565b610ac45760405162461bcd60e51b815260040161072590611f21565b60405181815233906001600160a01b038416907ffb475a842bad10d3800b61bd1a92e716051afba979b124b583bd99a2d1d7bfd59060200160405180910390a35050565b610b10611b6d565b610b1a6000611c20565b565b60068181548110610b2c57600080fd5b600091825260209091206003909102018054600182015460029092015490925083565b610b57611b6d565b60128190556040518181527f8114637a99d6dbde6e7e5125969a8ecbe5d143eedc597560c9c79a8cb9a6b5d09060200160405180910390a150565b610b9a611b6d565b600080610ba561164a565b60078190554260085590506001600160a01b03821615610c2957610bc88261057a565b6001600160a01b0383166000908152600a602090815260408083209390935560098152828220849055600f815282822054601190915291902055610c0f62278d0042611eec565b6001600160a01b0383166000908152600b60205260409020555b600d5460ff1615610c905760405162461bcd60e51b815260206004820152602b60248201527f4369726375697420627265616b6572206163746976653a20726174652063686160448201526a1b99d95cc81c185d5cd95960aa1b6064820152608401610725565b68056bc75e2d63100000831115610ce95760405162461bcd60e51b815260206004820152601b60248201527f52657761726420726174652065786365656473206d6178696d756d00000000006044820152606401610725565b62015180600c54610cfa9190611eec565b421015610d495760405162461bcd60e51b815260206004820152601b60248201527f52617465206368616e676520636f6f6c646f776e2061637469766500000000006044820152606401610725565b600654600090610d5a576000610d8d565b60068054610d6a90600190611e8a565b81548110610d7a57610d7a611f50565b9060005260206000209060030201600001545b60065490915015610de1576006805460009190610dac90600190611e8a565b81548110610dbc57610dbc611f50565b906000526020600020906003020190504281600201541115610ddf574260028201555b505b604080516060810182528581524260208083018281526000198486019081526006805460018101825560009190915294517ff652222313e28459528d920b65115c16c04f3efc82aaedc97be59f3f377c0d3f60039096029586015590517ff652222313e28459528d920b65115c16c04f3efc82aaedc97be59f3f377c0d40850155517ff652222313e28459528d920b65115c16c04f3efc82aaedc97be59f3f377c0d4190930192909255600c55815183815290810186905233917f32191e98bcd46ebeb00f4196390aa79d479294b3b08655329c4d2647030b77da910160405180910390a250505050565b610ed4611bc7565b336000610edf61164a565b60078190554260085590506001600160a01b03821615610f6357610f028261057a565b6001600160a01b0383166000908152600a602090815260408083209390935560098152828220849055600f815282822054601190915291902055610f4962278d0042611eec565b6001600160a01b0383166000908152600b60205260409020555b60008311610fa45760405162461bcd60e51b815260206004820152600e60248201526d043616e6e6f74207374616b6520360941b6044820152606401610725565b6040516370a0823160e01b81523060048201526000907f00000000000000000000000000000000000000000000000000000000000000006001600160a01b0316906370a0823190602401602060405180830381865afa15801561100b573d6000803e3d6000fd5b505050506040513d601f19601f8201168201806040525081019061102f9190611f66565b116110745760405162461bcd60e51b81526020600482015260156024820152745265776172647320706f6f6c20697320656d70747960581b6044820152606401610725565b6040516370a0823160e01b81523060048201526000907f00000000000000000000000000000000000000000000000000000000000000006001600160a01b0316906370a0823190602401602060405180830381865afa1580156110db573d6000803e3d6000fd5b505050506040513d601f19601f820116820180604052508101906110ff9190611f66565b6040516323b872dd60e01b8152336004820152306024820152604481018690529091507f00000000000000000000000000000000000000000000000000000000000000006001600160a01b0316906323b872dd906064016020604051808303816000875af1158015611175573d6000803e3d6000fd5b505050506040513d601f19601f820116820180604052508101906111999190611eff565b6111b55760405162461bcd60e51b815260040161072590611f21565b6040516370a0823160e01b81523060048201526000907f00000000000000000000000000000000000000000000000000000000000000006001600160a01b0316906370a0823190602401602060405180830381865afa15801561121c573d6000803e3d6000fd5b505050506040513d601f19601f820116820180604052508101906112409190611f66565b9050600061124e8383611e8a565b905085811461129f5760405162461bcd60e51b815260206004820152601960248201527f496e636f727265637420616d6f756e74207265636569766564000000000000006044820152606401610725565b80600e546112ad9190611eec565b600e55336000908152600f60205260409020546112cb908290611eec565b336000818152600f60209081526040808320949094556010905282902042905590517f9e71bc8eea02a63969f509818f2dafb9254532904319f9dbda79b67bd34a5f3d9061131c9084815260200190565b60405180910390a250505050506108eb60018055565b61133a611bc7565b33600061134561164a565b60078190554260085590506001600160a01b038216156113c9576113688261057a565b6001600160a01b0383166000908152600a602090815260408083209390935560098152828220849055600f8152828220546011909152919020556113af62278d0042611eec565b6001600160a01b0383166000908152600b60205260409020555b336000908152600b60205260409020544211156114285760405162461bcd60e51b815260206004820152601b60248201527f52657761726420636c61696d20706572696f64206578706972656400000000006044820152606401610725565b336000908152600a6020526040902054801561163e57336000908152600a602052604080822091909155516370a0823160e01b815230600482015281906001600160a01b037f000000000000000000000000000000000000000000000000000000000000000016906370a0823190602401602060405180830381865afa1580156114b6573d6000803e3d6000fd5b505050506040513d601f19601f820116820180604052508101906114da9190611f66565b10156115325760405162461bcd60e51b815260206004820152602160248201527f496e73756666696369656e742072657761726420746f6b656e2062616c616e636044820152606560f81b6064820152608401610725565b60405163a9059cbb60e01b8152336004820152602481018290527f00000000000000000000000000000000000000000000000000000000000000006001600160a01b03169063a9059cbb906044016020604051808303816000875af115801561159f573d6000803e3d6000fd5b505050506040513d601f19601f820116820180604052508101906115c39190611eff565b6116085760405162461bcd60e51b815260206004820152601660248201527514995dd85c99081d1c985b9cd9995c8819985a5b195960521b6044820152606401610725565b60405181815233907fe2403640ba68fed3a2f88b7557551d1993f84b99bb10ff833f0cf8db0c5e04869060200160405180910390a25b505050610b1a60018055565b6000600e546000148061165d5750600854155b15611669575060075490565b60065460009081805b828110156117a15760006006828154811061168f5761168f611f50565b600091825260209182902060408051606081018252600390930290910180548352600181015493830184905260020154908201819052600854919350919082111561178b57600060085482116116e7576008546116e9565b815b905060004284106116fa57426116fc565b835b9050818111156117885760006117128383611e8a565b8651600e54919250907f00000000000000000000000000000000000000000000000000000000000000006117468484611e9d565b6117509190611e9d565b61175a9190611eca565b611764908c611eec565b9a5060646117718a611f7f565b9950891061178557505050505050506117a1565b50505b50505b505050808061179990611f7f565b915050611672565b50826007546117b09190611eec565b935050505090565b60006001600160a01b0384166118075760405162461bcd60e51b8152602060048201526014602482015273496e76616c69642075736572206164647265737360601b6044820152606401610725565b600083116118505760405162461bcd60e51b8152602060048201526016602482015275125b9d985b1a59081cdd185ada5b99c8185b5bdd5b9d60521b6044820152606401610725565b600082116118a05760405162461bcd60e51b815260206004820152601860248201527f496e76616c6964207374616b696e67206475726174696f6e00000000000000006044820152606401610725565b600354806118f05760405162461bcd60e51b815260206004820152601860248201527f42617365207265776172642072617465206e6f742073657400000000000000006044820152606401610725565b60006118ff6201518085611eca565b9050610e428111156119535760405162461bcd60e51b815260206004820152601960248201527f5374616b696e67206475726174696f6e20746f6f206c6f6e67000000000000006044820152606401610725565b6000826000198161196657611966611eb4565b048611156119b65760405162461bcd60e51b815260206004820152601a60248201527f43616c63756c6174696f6e20776f756c64206f766572666c6f770000000000006044820152606401610725565b5084820281600019816119cb576119cb611eb4565b04811115611a1b5760405162461bcd60e51b815260206004820152601a60248201527f43616c63756c6174696f6e20776f756c64206f766572666c6f770000000000006044820152606401610725565b612710908202046000611a2e8883611c70565b90506000611a3c8984611d51565b905082955081600019611a4f9190611e8a565b861115611a6e5760405162461bcd60e51b815260040161072590611f98565b611a788287611eec565b9550611a8681600019611e8a565b861115611aa55760405162461bcd60e51b815260040161072590611f98565b611aaf8187611eec565b95506c0c9f2c9cd04674edea40000000861115611ad7576c0c9f2c9cd04674edea4000000095505b50505050509392505050565b611aeb611b6d565b600d805460ff19169055565b611aff611b6d565b6001600160a01b038116611b645760405162461bcd60e51b815260206004820152602660248201527f4f776e61626c653a206e6577206f776e657220697320746865207a65726f206160448201526564647265737360d01b6064820152608401610725565b6108eb81611c20565b6000546001600160a01b03163314610b1a5760405162461bcd60e51b815260206004820181905260248201527f4f776e61626c653a2063616c6c6572206973206e6f7420746865206f776e65726044820152606401610725565b600260015403611c195760405162461bcd60e51b815260206004820152601f60248201527f5265656e7472616e637947756172643a207265656e7472616e742063616c6c006044820152606401610725565b6002600155565b600080546001600160a01b038381166001600160a01b0319831681178455604051919092169283917f8be0079c531659141344cd1fd0a4f28419497f9722a3daafe3b4186f6b6457e09190a35050565b60025460405163d636b87f60e01b81526001600160a01b038481166004830152600092839291169063d636b87f90602401602060405180830381865afa158015611cbe573d6000803e3d6000fd5b505050506040513d601f19601f82011682018060405250810190611ce29190611f66565b905080600003611cf6576000915050610609565b6004546000819003611d0d57600092505050610609565b8060001981611d1e57611d1e611eb4565b04841115611d3d576c0c9f2c9cd04674edea4000000092505050610609565b620f424084820283025b0495945050505050565b60006001600160a01b038316151580611d6e576000915050610609565b6005546000819003611d8557600092505050610609565b8060001981611d9657611d96611eb4565b04841115611db5576c0c9f2c9cd04674edea4000000092505050610609565b612710848202611d47565b80356001600160a01b0381168114611dd757600080fd5b919050565b600060208284031215611dee57600080fd5b611df782611dc0565b9392505050565b600060208284031215611e1057600080fd5b5035919050565b60008060408385031215611e2a57600080fd5b611e3383611dc0565b946020939093013593505050565b600080600060608486031215611e5657600080fd5b611e5f84611dc0565b95602085013595506040909401359392505050565b634e487b7160e01b600052601160045260246000fd5b8181038181111561060957610609611e74565b808202811582820484141761060957610609611e74565b634e487b7160e01b600052601260045260246000fd5b600082611ee757634e487b7160e01b600052601260045260246000fd5b500490565b8082018082111561060957610609611e74565b600060208284031215611f1157600080fd5b81518015158114611df757600080fd5b602080825260159082015274151bdad95b881d1c985b9cd9995c8819985a5b1959605a1b604082015260600190565b634e487b7160e01b600052603260045260246000fd5b600060208284031215611f7857600080fd5b5051919050565b600060018201611f9157611f91611e74565b5060010190565b60208082526021908201527f546f74616c207265776172642063616c63756c6174696f6e206f766572666c6f6040820152607760f81b60608201526080019056fea2646970667358221220e52ef0ac785b9cbe0670287dac1e091fbeaefb62deb72bbe75f5f192d5a0d2e364736f6c63430008140033","opcodes":"PUSH2 0x100 PUSH1 0x40 MSTORE PUSH3 0x93A80 PUSH1 0x12 SSTORE CALLVALUE DUP1 ISZERO PUSH3 0x19 JUMPI PUSH1 0x0 DUP1 REVERT JUMPDEST POP PUSH1 0x40 MLOAD PUSH3 0x2505 CODESIZE SUB DUP1 PUSH3 0x2505 DUP4 CODECOPY DUP2 ADD PUSH1 0x40 DUP2 SWAP1 MSTORE PUSH3 0x3C SWAP2 PUSH3 0x2DD JUMP JUMPDEST PUSH3 0x47 CALLER PUSH3 0x270 JUMP JUMPDEST PUSH1 0x1 DUP1 SSTORE PUSH1 0x1 PUSH1 0x1 PUSH1 0xA0 SHL SUB DUP4 AND PUSH3 0xA7 JUMPI PUSH1 0x40 MLOAD PUSH3 0x461BCD PUSH1 0xE5 SHL DUP2 MSTORE PUSH1 0x20 PUSH1 0x4 DUP3 ADD MSTORE PUSH1 0x1D PUSH1 0x24 DUP3 ADD MSTORE PUSH32 0x496E76616C6964207374616B696E6720746F6B656E2061646472657373000000 PUSH1 0x44 DUP3 ADD MSTORE PUSH1 0x64 ADD JUMPDEST PUSH1 0x40 MLOAD DUP1 SWAP2 SUB SWAP1 REVERT JUMPDEST PUSH1 0x1 PUSH1 0x1 PUSH1 0xA0 SHL SUB DUP3 AND PUSH3 0xFF JUMPI PUSH1 0x40 MLOAD PUSH3 0x461BCD PUSH1 0xE5 SHL DUP2 MSTORE PUSH1 0x20 PUSH1 0x4 DUP3 ADD MSTORE PUSH1 0x1D PUSH1 0x24 DUP3 ADD MSTORE PUSH32 0x496E76616C6964207265776172647320746F6B656E2061646472657373000000 PUSH1 0x44 DUP3 ADD MSTORE PUSH1 0x64 ADD PUSH3 0x9E JUMP JUMPDEST PUSH1 0x1 PUSH1 0x1 PUSH1 0xA0 SHL SUB DUP1 DUP5 AND PUSH1 0xC0 DUP2 SWAP1 MSTORE SWAP1 DUP4 AND PUSH1 0xE0 MSTORE PUSH1 0x40 DUP1 MLOAD PUSH4 0x313CE567 PUSH1 0xE0 SHL DUP2 MSTORE SWAP1 MLOAD PUSH1 0x0 SWAP3 DUP4 SWAP3 SWAP1 SWAP2 PUSH4 0x313CE567 SWAP2 PUSH1 0x4 DUP1 DUP3 ADD SWAP3 PUSH1 0x20 SWAP3 SWAP1 SWAP2 SWAP1 DUP3 SWAP1 SUB ADD DUP2 DUP7 GAS STATICCALL SWAP3 POP POP POP DUP1 ISZERO PUSH3 0x176 JUMPI POP PUSH1 0x40 DUP1 MLOAD PUSH1 0x1F RETURNDATASIZE SWAP1 DUP2 ADD PUSH1 0x1F NOT AND DUP3 ADD SWAP1 SWAP3 MSTORE PUSH3 0x173 SWAP2 DUP2 ADD SWAP1 PUSH3 0x327 JUMP JUMPDEST PUSH1 0x1 JUMPDEST PUSH3 0x18C JUMPI PUSH8 0xDE0B6B3A7640000 SWAP2 POP PUSH3 0x1A0 JUMP JUMPDEST PUSH3 0x19C PUSH1 0xFF DUP3 AND PUSH1 0xA PUSH3 0x468 JUMP JUMPDEST SWAP3 POP POP JUMPDEST PUSH1 0xE0 MLOAD PUSH1 0x1 PUSH1 0x1 PUSH1 0xA0 SHL SUB AND PUSH4 0x313CE567 PUSH1 0x40 MLOAD DUP2 PUSH4 0xFFFFFFFF AND PUSH1 0xE0 SHL DUP2 MSTORE PUSH1 0x4 ADD PUSH1 0x20 PUSH1 0x40 MLOAD DUP1 DUP4 SUB DUP2 DUP7 GAS STATICCALL SWAP3 POP POP POP DUP1 ISZERO PUSH3 0x1FF JUMPI POP PUSH1 0x40 DUP1 MLOAD PUSH1 0x1F RETURNDATASIZE SWAP1 DUP2 ADD PUSH1 0x1F NOT AND DUP3 ADD SWAP1 SWAP3 MSTORE PUSH3 0x1FC SWAP2 DUP2 ADD SWAP1 PUSH3 0x327 JUMP JUMPDEST PUSH1 0x1 JUMPDEST PUSH3 0x214 JUMPI POP PUSH8 0xDE0B6B3A7640000 PUSH3 0x228 JUMP JUMPDEST PUSH3 0x224 PUSH1 0xFF DUP3 AND PUSH1 0xA PUSH3 0x468 JUMP JUMPDEST SWAP2 POP POP JUMPDEST PUSH1 0x80 DUP3 SWAP1 MSTORE PUSH1 0xA0 DUP2 SWAP1 MSTORE PUSH1 0x1 PUSH1 0x1 PUSH1 0xA0 SHL SUB DUP4 AND ISZERO DUP1 ISZERO SWAP1 PUSH3 0x254 JUMPI POP PUSH1 0x1 PUSH1 0x1 PUSH1 0xA0 SHL SUB DUP4 AND CALLER EQ ISZERO JUMPDEST ISZERO PUSH3 0x265 JUMPI PUSH3 0x265 DUP4 PUSH3 0x270 JUMP JUMPDEST POP POP POP POP POP PUSH3 0x476 JUMP JUMPDEST PUSH1 0x0 DUP1 SLOAD PUSH1 0x1 PUSH1 0x1 PUSH1 0xA0 SHL SUB DUP4 DUP2 AND PUSH1 0x1 PUSH1 0x1 PUSH1 0xA0 SHL SUB NOT DUP4 AND DUP2 OR DUP5 SSTORE PUSH1 0x40 MLOAD SWAP2 SWAP1 SWAP3 AND SWAP3 DUP4 SWAP2 PUSH32 0x8BE0079C531659141344CD1FD0A4F28419497F9722A3DAAFE3B4186F6B6457E0 SWAP2 SWAP1 LOG3 POP POP JUMP JUMPDEST DUP1 MLOAD PUSH1 0x1 PUSH1 0x1 PUSH1 0xA0 SHL SUB DUP2 AND DUP2 EQ PUSH3 0x2D8 JUMPI PUSH1 0x0 DUP1 REVERT JUMPDEST SWAP2 SWAP1 POP JUMP JUMPDEST PUSH1 0x0 DUP1 PUSH1 0x0 PUSH1 0x60 DUP5 DUP7 SUB SLT ISZERO PUSH3 0x2F3 JUMPI PUSH1 0x0 DUP1 REVERT JUMPDEST PUSH3 0x2FE DUP5 PUSH3 0x2C0 JUMP JUMPDEST SWAP3 POP PUSH3 0x30E PUSH1 0x20 DUP6 ADD PUSH3 0x2C0 JUMP JUMPDEST SWAP2 POP PUSH3 0x31E PUSH1 0x40 DUP6 ADD PUSH3 0x2C0 JUMP JUMPDEST SWAP1 POP SWAP3 POP SWAP3 POP SWAP3 JUMP JUMPDEST PUSH1 0x0 PUSH1 0x20 DUP3 DUP5 SUB SLT ISZERO PUSH3 0x33A JUMPI PUSH1 0x0 DUP1 REVERT JUMPDEST DUP2 MLOAD PUSH1 0xFF DUP2 AND DUP2 EQ PUSH3 0x34C JUMPI PUSH1 0x0 DUP1 REVERT JUMPDEST SWAP4 SWAP3 POP POP POP JUMP JUMPDEST PUSH4 0x4E487B71 PUSH1 0xE0 SHL PUSH1 0x0 MSTORE PUSH1 0x11 PUSH1 0x4 MSTORE PUSH1 0x24 PUSH1 0x0 REVERT JUMPDEST PUSH1 0x1 DUP2 DUP2 JUMPDEST DUP1 DUP6 GT ISZERO PUSH3 0x3AA JUMPI DUP2 PUSH1 0x0 NOT DIV DUP3 GT ISZERO PUSH3 0x38E JUMPI PUSH3 0x38E PUSH3 0x353 JUMP JUMPDEST DUP1 DUP6 AND ISZERO PUSH3 0x39C JUMPI SWAP2 DUP2 MUL SWAP2 JUMPDEST SWAP4 DUP5 SHR SWAP4 SWAP1 DUP1 MUL SWAP1 PUSH3 0x36E JUMP JUMPDEST POP SWAP3 POP SWAP3 SWAP1 POP JUMP JUMPDEST PUSH1 0x0 DUP3 PUSH3 0x3C3 JUMPI POP PUSH1 0x1 PUSH3 0x462 JUMP JUMPDEST DUP2 PUSH3 0x3D2 JUMPI POP PUSH1 0x0 PUSH3 0x462 JUMP JUMPDEST DUP2 PUSH1 0x1 DUP2 EQ PUSH3 0x3EB JUMPI PUSH1 0x2 DUP2 EQ PUSH3 0x3F6 JUMPI PUSH3 0x416 JUMP JUMPDEST PUSH1 0x1 SWAP2 POP POP PUSH3 0x462 JUMP JUMPDEST PUSH1 0xFF DUP5 GT ISZERO PUSH3 0x40A JUMPI PUSH3 0x40A PUSH3 0x353 JUMP JUMPDEST POP POP PUSH1 0x1 DUP3 SHL PUSH3 0x462 JUMP JUMPDEST POP PUSH1 0x20 DUP4 LT PUSH2 0x133 DUP4 LT AND PUSH1 0x4E DUP5 LT PUSH1 0xB DUP5 LT AND OR ISZERO PUSH3 0x43B JUMPI POP DUP2 DUP2 EXP PUSH3 0x462 JUMP JUMPDEST PUSH3 0x447 DUP4 DUP4 PUSH3 0x369 JUMP JUMPDEST DUP1 PUSH1 0x0 NOT DIV DUP3 GT ISZERO PUSH3 0x45E JUMPI PUSH3 0x45E PUSH3 0x353 JUMP JUMPDEST MUL SWAP1 POP JUMPDEST SWAP3 SWAP2 POP POP JUMP JUMPDEST PUSH1 0x0 PUSH3 0x34C DUP4 DUP4 PUSH3 0x3B2 JUMP JUMPDEST PUSH1 0x80 MLOAD PUSH1 0xA0 MLOAD PUSH1 0xC0 MLOAD PUSH1 0xE0 MLOAD PUSH2 0x200F PUSH3 0x4F6 PUSH1 0x0 CODECOPY PUSH1 0x0 DUP2 DUP2 PUSH2 0x50F ADD MSTORE DUP2 DUP2 PUSH2 0xFBC ADD MSTORE DUP2 DUP2 PUSH2 0x146F ADD MSTORE PUSH2 0x154E ADD MSTORE PUSH1 0x0 DUP2 DUP2 PUSH2 0x3F0 ADD MSTORE DUP2 DUP2 PUSH2 0x819 ADD MSTORE DUP2 DUP2 PUSH2 0x9B8 ADD MSTORE DUP2 DUP2 PUSH2 0x108C ADD MSTORE DUP2 DUP2 PUSH2 0x1124 ADD MSTORE PUSH2 0x11CD ADD MSTORE PUSH1 0x0 DUP2 DUP2 PUSH2 0x4B0 ADD MSTORE PUSH2 0x171D ADD MSTORE PUSH1 0x0 DUP2 DUP2 PUSH2 0x2F8 ADD MSTORE PUSH2 0x5A0 ADD MSTORE PUSH2 0x200F PUSH1 0x0 RETURN INVALID PUSH1 0x80 PUSH1 0x40 MSTORE CALLVALUE DUP1 ISZERO PUSH2 0x10 JUMPI PUSH1 0x0 DUP1 REVERT JUMPDEST POP PUSH1 0x4 CALLDATASIZE LT PUSH2 0x247 JUMPI PUSH1 0x0 CALLDATALOAD PUSH1 0xE0 SHR DUP1 PUSH4 0x8252097D GT PUSH2 0x13B JUMPI DUP1 PUSH4 0xC8F33C91 GT PUSH2 0xB8 JUMPI DUP1 PUSH4 0xDA71AE79 GT PUSH2 0x7C JUMPI DUP1 PUSH4 0xDA71AE79 EQ PUSH2 0x544 JUMPI DUP1 PUSH4 0xDF136D65 EQ PUSH2 0x54D JUMPI DUP1 PUSH4 0xE1F1C4A7 EQ PUSH2 0x556 JUMPI DUP1 PUSH4 0xEF0E7417 EQ PUSH2 0x55F JUMPI DUP1 PUSH4 0xF2FDE38B EQ PUSH2 0x567 JUMPI PUSH1 0x0 DUP1 REVERT JUMPDEST DUP1 PUSH4 0xC8F33C91 EQ PUSH2 0x4DC JUMPI DUP1 PUSH4 0xC9D3D16D EQ PUSH2 0x4E5 JUMPI DUP1 PUSH4 0xCD3DAF9D EQ PUSH2 0x502 JUMPI DUP1 PUSH4 0xD1AF0C7D EQ PUSH2 0x50A JUMPI DUP1 PUSH4 0xD72B08C6 EQ PUSH2 0x531 JUMPI PUSH1 0x0 DUP1 REVERT JUMPDEST DUP1 PUSH4 0xA04F6B4B GT PUSH2 0xFF JUMPI DUP1 PUSH4 0xA04F6B4B EQ PUSH2 0x47C JUMPI DUP1 PUSH4 0xA694FC3A EQ PUSH2 0x490 JUMPI DUP1 PUSH4 0xB88A802F EQ PUSH2 0x4A3 JUMPI DUP1 PUSH4 0xBE0EAC0C EQ PUSH2 0x4AB JUMPI DUP1 PUSH4 0xC743DABB EQ PUSH2 0x4D2 JUMPI PUSH1 0x0 DUP1 REVERT JUMPDEST DUP1 PUSH4 0x8252097D EQ PUSH2 0x412 JUMPI DUP1 PUSH4 0x88EE6A43 EQ PUSH2 0x425 JUMPI DUP1 PUSH4 0x8B876347 EQ PUSH2 0x438 JUMPI DUP1 PUSH4 0x8DA5CB5B EQ PUSH2 0x458 JUMPI DUP1 PUSH4 0x9E447FC6 EQ PUSH2 0x469 JUMPI PUSH1 0x0 DUP1 REVERT JUMPDEST DUP1 PUSH4 0x4E94C285 GT PUSH2 0x1C9 JUMPI DUP1 PUSH4 0x6EAA7BA2 GT PUSH2 0x18D JUMPI DUP1 PUSH4 0x6EAA7BA2 EQ PUSH2 0x3A0 JUMPI DUP1 PUSH4 0x70A08231 EQ PUSH2 0x3AA JUMPI DUP1 PUSH4 0x715018A6 EQ PUSH2 0x3D3 JUMPI DUP1 PUSH4 0x718DC3C3 EQ PUSH2 0x3DB JUMPI DUP1 PUSH4 0x72F702F3 EQ PUSH2 0x3EB JUMPI PUSH1 0x0 DUP1 REVERT JUMPDEST DUP1 PUSH4 0x4E94C285 EQ PUSH2 0x31A JUMPI DUP1 PUSH4 0x53809B57 EQ PUSH2 0x347 JUMPI DUP1 PUSH4 0x539F1F34 EQ PUSH2 0x35A JUMPI DUP1 PUSH4 0x555D3E63 EQ PUSH2 0x362 JUMPI DUP1 PUSH4 0x57376198 EQ PUSH2 0x38D JUMPI PUSH1 0x0 DUP1 REVERT JUMPDEST DUP1 PUSH4 0x18160DDD GT PUSH2 0x210 JUMPI DUP1 PUSH4 0x18160DDD EQ PUSH2 0x2AE JUMPI DUP1 PUSH4 0x2E1A7D4D EQ PUSH2 0x2B6 JUMPI DUP1 PUSH4 0x30568C8C EQ PUSH2 0x2C9 JUMPI DUP1 PUSH4 0x42364B4F EQ PUSH2 0x2D3 JUMPI DUP1 PUSH4 0x48E0DC12 EQ PUSH2 0x2F3 JUMPI PUSH1 0x0 DUP1 REVERT JUMPDEST DUP1 PUSH3 0x8CC262 EQ PUSH2 0x24C JUMPI DUP1 PUSH4 0x5CB6141 EQ PUSH2 0x272 JUMPI DUP1 PUSH4 0x69C34F6 EQ PUSH2 0x27B JUMPI DUP1 PUSH4 0x700037D EQ PUSH2 0x284 JUMPI DUP1 PUSH4 0x13F52235 EQ PUSH2 0x2A4 JUMPI JUMPDEST PUSH1 0x0 DUP1 REVERT JUMPDEST PUSH2 0x25F PUSH2 0x25A CALLDATASIZE PUSH1 0x4 PUSH2 0x1DDC JUMP JUMPDEST PUSH2 0x57A JUMP JUMPDEST PUSH1 0x40 MLOAD SWAP1 DUP2 MSTORE PUSH1 0x20 ADD JUMPDEST PUSH1 0x40 MLOAD DUP1 SWAP2 SUB SWAP1 RETURN JUMPDEST PUSH2 0x25F PUSH2 0xE42 DUP2 JUMP JUMPDEST PUSH2 0x25F PUSH1 0x12 SLOAD DUP2 JUMP JUMPDEST PUSH2 0x25F PUSH2 0x292 CALLDATASIZE PUSH1 0x4 PUSH2 0x1DDC JUMP JUMPDEST PUSH1 0xA PUSH1 0x20 MSTORE PUSH1 0x0 SWAP1 DUP2 MSTORE PUSH1 0x40 SWAP1 KECCAK256 SLOAD DUP2 JUMP JUMPDEST PUSH2 0x2AC PUSH2 0x60F JUMP JUMPDEST STOP JUMPDEST PUSH1 0xE SLOAD PUSH2 0x25F JUMP JUMPDEST PUSH2 0x2AC PUSH2 0x2C4 CALLDATASIZE PUSH1 0x4 PUSH2 0x1DFE JUMP JUMPDEST PUSH2 0x626 JUMP JUMPDEST PUSH2 0x25F PUSH3 0x278D00 DUP2 JUMP JUMPDEST PUSH2 0x25F PUSH2 0x2E1 CALLDATASIZE PUSH1 0x4 PUSH2 0x1DDC JUMP JUMPDEST PUSH1 0xB PUSH1 0x20 MSTORE PUSH1 0x0 SWAP1 DUP2 MSTORE PUSH1 0x40 SWAP1 KECCAK256 SLOAD DUP2 JUMP JUMPDEST PUSH2 0x25F PUSH32 0x0 DUP2 JUMP JUMPDEST PUSH1 0x3 SLOAD PUSH1 0x4 SLOAD PUSH1 0x5 SLOAD PUSH2 0x32C SWAP3 SWAP2 SWAP1 DUP4 JUMP JUMPDEST PUSH1 0x40 DUP1 MLOAD SWAP4 DUP5 MSTORE PUSH1 0x20 DUP5 ADD SWAP3 SWAP1 SWAP3 MSTORE SWAP1 DUP3 ADD MSTORE PUSH1 0x60 ADD PUSH2 0x269 JUMP JUMPDEST PUSH2 0x2AC PUSH2 0x355 CALLDATASIZE PUSH1 0x4 PUSH2 0x1DDC JUMP JUMPDEST PUSH2 0x8EE JUMP JUMPDEST PUSH2 0x25F PUSH1 0x64 DUP2 JUMP JUMPDEST PUSH1 0x2 SLOAD PUSH2 0x375 SWAP1 PUSH1 0x1 PUSH1 0x1 PUSH1 0xA0 SHL SUB AND DUP2 JUMP JUMPDEST PUSH1 0x40 MLOAD PUSH1 0x1 PUSH1 0x1 PUSH1 0xA0 SHL SUB SWAP1 SWAP2 AND DUP2 MSTORE PUSH1 0x20 ADD PUSH2 0x269 JUMP JUMPDEST PUSH2 0x2AC PUSH2 0x39B CALLDATASIZE PUSH1 0x4 PUSH2 0x1E17 JUMP JUMPDEST PUSH2 0x9AE JUMP JUMPDEST PUSH2 0x25F PUSH3 0x15180 DUP2 JUMP JUMPDEST PUSH2 0x25F PUSH2 0x3B8 CALLDATASIZE PUSH1 0x4 PUSH2 0x1DDC JUMP JUMPDEST PUSH1 0x1 PUSH1 0x1 PUSH1 0xA0 SHL SUB AND PUSH1 0x0 SWAP1 DUP2 MSTORE PUSH1 0xF PUSH1 0x20 MSTORE PUSH1 0x40 SWAP1 KECCAK256 SLOAD SWAP1 JUMP JUMPDEST PUSH2 0x2AC PUSH2 0xB08 JUMP JUMPDEST PUSH2 0x25F PUSH9 0x56BC75E2D63100000 DUP2 JUMP JUMPDEST PUSH2 0x375 PUSH32 0x0 DUP2 JUMP JUMPDEST PUSH2 0x32C PUSH2 0x420 CALLDATASIZE PUSH1 0x4 PUSH2 0x1DFE JUMP JUMPDEST PUSH2 0xB1C JUMP JUMPDEST PUSH2 0x2AC PUSH2 0x433 CALLDATASIZE PUSH1 0x4 PUSH2 0x1DFE JUMP JUMPDEST PUSH2 0xB4F JUMP JUMPDEST PUSH2 0x25F PUSH2 0x446 CALLDATASIZE PUSH1 0x4 PUSH2 0x1DDC JUMP JUMPDEST PUSH1 0x9 PUSH1 0x20 MSTORE PUSH1 0x0 SWAP1 DUP2 MSTORE PUSH1 0x40 SWAP1 KECCAK256 SLOAD DUP2 JUMP JUMPDEST PUSH1 0x0 SLOAD PUSH1 0x1 PUSH1 0x1 PUSH1 0xA0 SHL SUB AND PUSH2 0x375 JUMP JUMPDEST PUSH2 0x2AC PUSH2 0x477 CALLDATASIZE PUSH1 0x4 PUSH2 0x1DFE JUMP JUMPDEST PUSH2 0xB92 JUMP JUMPDEST PUSH2 0x25F PUSH13 0xC9F2C9CD04674EDEA40000000 DUP2 JUMP JUMPDEST PUSH2 0x2AC PUSH2 0x49E CALLDATASIZE PUSH1 0x4 PUSH2 0x1DFE JUMP JUMPDEST PUSH2 0xECC JUMP JUMPDEST PUSH2 0x2AC PUSH2 0x1332 JUMP JUMPDEST PUSH2 0x25F PUSH32 0x0 DUP2 JUMP JUMPDEST PUSH2 0x25F PUSH3 0x93A80 DUP2 JUMP JUMPDEST PUSH2 0x25F PUSH1 0x8 SLOAD DUP2 JUMP JUMPDEST PUSH1 0xD SLOAD PUSH2 0x4F2 SWAP1 PUSH1 0xFF AND DUP2 JUMP JUMPDEST PUSH1 0x40 MLOAD SWAP1 ISZERO ISZERO DUP2 MSTORE PUSH1 0x20 ADD PUSH2 0x269 JUMP JUMPDEST PUSH2 0x25F PUSH2 0x164A JUMP JUMPDEST PUSH2 0x375 PUSH32 0x0 DUP2 JUMP JUMPDEST PUSH2 0x25F PUSH2 0x53F CALLDATASIZE PUSH1 0x4 PUSH2 0x1E41 JUMP JUMPDEST PUSH2 0x17B8 JUMP JUMPDEST PUSH2 0x25F PUSH1 0xC SLOAD DUP2 JUMP JUMPDEST PUSH2 0x25F PUSH1 0x7 SLOAD DUP2 JUMP JUMPDEST PUSH2 0x25F PUSH2 0x2710 DUP2 JUMP JUMPDEST PUSH2 0x2AC PUSH2 0x1AE3 JUMP JUMPDEST PUSH2 0x2AC PUSH2 0x575 CALLDATASIZE PUSH1 0x4 PUSH2 0x1DDC JUMP JUMPDEST PUSH2 0x1AF7 JUMP JUMPDEST PUSH1 0x1 PUSH1 0x1 PUSH1 0xA0 SHL SUB DUP2 AND PUSH1 0x0 SWAP1 DUP2 MSTORE PUSH1 0xA PUSH1 0x20 SWAP1 DUP2 MSTORE PUSH1 0x40 DUP1 DUP4 KECCAK256 SLOAD PUSH1 0x9 SWAP1 SWAP3 MSTORE DUP3 KECCAK256 SLOAD PUSH32 0x0 SWAP1 PUSH2 0x5C8 PUSH2 0x164A JUMP JUMPDEST PUSH2 0x5D2 SWAP2 SWAP1 PUSH2 0x1E8A JUMP JUMPDEST PUSH1 0x1 PUSH1 0x1 PUSH1 0xA0 SHL SUB DUP6 AND PUSH1 0x0 SWAP1 DUP2 MSTORE PUSH1 0x11 PUSH1 0x20 MSTORE PUSH1 0x40 SWAP1 KECCAK256 SLOAD PUSH2 0x5F5 SWAP2 SWAP1 PUSH2 0x1E9D JUMP JUMPDEST PUSH2 0x5FF SWAP2 SWAP1 PUSH2 0x1ECA JUMP JUMPDEST PUSH2 0x609 SWAP2 SWAP1 PUSH2 0x1EEC JUMP JUMPDEST SWAP3 SWAP2 POP POP JUMP JUMPDEST PUSH2 0x617 PUSH2 0x1B6D JUMP JUMPDEST PUSH1 0xD DUP1 SLOAD PUSH1 0xFF NOT AND PUSH1 0x1 OR SWAP1 SSTORE JUMP JUMPDEST PUSH2 0x62E PUSH2 0x1BC7 JUMP JUMPDEST CALLER PUSH1 0x0 PUSH2 0x639 PUSH2 0x164A JUMP JUMPDEST PUSH1 0x7 DUP2 SWAP1 SSTORE TIMESTAMP PUSH1 0x8 SSTORE SWAP1 POP PUSH1 0x1 PUSH1 0x1 PUSH1 0xA0 SHL SUB DUP3 AND ISZERO PUSH2 0x6BD JUMPI PUSH2 0x65C DUP3 PUSH2 0x57A JUMP JUMPDEST PUSH1 0x1 PUSH1 0x1 PUSH1 0xA0 SHL SUB DUP4 AND PUSH1 0x0 SWAP1 DUP2 MSTORE PUSH1 0xA PUSH1 0x20 SWAP1 DUP2 MSTORE PUSH1 0x40 DUP1 DUP4 KECCAK256 SWAP4 SWAP1 SWAP4 SSTORE PUSH1 0x9 DUP2 MSTORE DUP3 DUP3 KECCAK256 DUP5 SWAP1 SSTORE PUSH1 0xF DUP2 MSTORE DUP3 DUP3 KECCAK256 SLOAD PUSH1 0x11 SWAP1 SWAP2 MSTORE SWAP2 SWAP1 KECCAK256 SSTORE PUSH2 0x6A3 PUSH3 0x278D00 TIMESTAMP PUSH2 0x1EEC JUMP JUMPDEST PUSH1 0x1 PUSH1 0x1 PUSH1 0xA0 SHL SUB DUP4 AND PUSH1 0x0 SWAP1 DUP2 MSTORE PUSH1 0xB PUSH1 0x20 MSTORE PUSH1 0x40 SWAP1 KECCAK256 SSTORE JUMPDEST PUSH1 0x12 SLOAD CALLER PUSH1 0x0 SWAP1 DUP2 MSTORE PUSH1 0x10 PUSH1 0x20 MSTORE PUSH1 0x40 SWAP1 KECCAK256 SLOAD PUSH2 0x6DA SWAP2 SWAP1 PUSH2 0x1EEC JUMP JUMPDEST TIMESTAMP LT ISZERO PUSH2 0x72E JUMPI PUSH1 0x40 MLOAD PUSH3 0x461BCD PUSH1 0xE5 SHL DUP2 MSTORE PUSH1 0x20 PUSH1 0x4 DUP3 ADD MSTORE PUSH1 0x1E PUSH1 0x24 DUP3 ADD MSTORE PUSH32 0x4D696E696D756D207374616B696E6720706572696F64206E6F74206D65740000 PUSH1 0x44 DUP3 ADD MSTORE PUSH1 0x64 ADD JUMPDEST PUSH1 0x40 MLOAD DUP1 SWAP2 SUB SWAP1 REVERT JUMPDEST PUSH1 0x0 DUP4 GT PUSH2 0x772 JUMPI PUSH1 0x40 MLOAD PUSH3 0x461BCD PUSH1 0xE5 SHL DUP2 MSTORE PUSH1 0x20 PUSH1 0x4 DUP3 ADD MSTORE PUSH1 0x11 PUSH1 0x24 DUP3 ADD MSTORE PUSH17 0x43616E6E6F74207769746864726177203 PUSH1 0x7C SHL PUSH1 0x44 DUP3 ADD MSTORE PUSH1 0x64 ADD PUSH2 0x725 JUMP JUMPDEST CALLER PUSH1 0x0 SWAP1 DUP2 MSTORE PUSH1 0xF PUSH1 0x20 MSTORE PUSH1 0x40 SWAP1 KECCAK256 SLOAD DUP4 DUP2 LT ISZERO PUSH2 0x7D2 JUMPI PUSH1 0x40 MLOAD PUSH3 0x461BCD PUSH1 0xE5 SHL DUP2 MSTORE PUSH1 0x20 PUSH1 0x4 DUP3 ADD MSTORE PUSH1 0x1B PUSH1 0x24 DUP3 ADD MSTORE PUSH32 0x496E73756666696369656E74207374616B65642062616C616E63650000000000 PUSH1 0x44 DUP3 ADD MSTORE PUSH1 0x64 ADD PUSH2 0x725 JUMP JUMPDEST PUSH2 0x7DC DUP5 DUP3 PUSH2 0x1E8A JUMP JUMPDEST CALLER PUSH1 0x0 SWAP1 DUP2 MSTORE PUSH1 0xF PUSH1 0x20 MSTORE PUSH1 0x40 SWAP1 KECCAK256 SSTORE PUSH1 0xE SLOAD PUSH2 0x7FA SWAP1 DUP6 SWAP1 PUSH2 0x1E8A JUMP JUMPDEST PUSH1 0xE SSTORE PUSH1 0x40 MLOAD PUSH4 0xA9059CBB PUSH1 0xE0 SHL DUP2 MSTORE CALLER PUSH1 0x4 DUP3 ADD MSTORE PUSH1 0x24 DUP2 ADD DUP6 SWAP1 MSTORE PUSH32 0x0 PUSH1 0x1 PUSH1 0x1 PUSH1 0xA0 SHL SUB AND SWAP1 PUSH4 0xA9059CBB SWAP1 PUSH1 0x44 ADD PUSH1 0x20 PUSH1 0x40 MLOAD DUP1 DUP4 SUB DUP2 PUSH1 0x0 DUP8 GAS CALL ISZERO DUP1 ISZERO PUSH2 0x86A JUMPI RETURNDATASIZE PUSH1 0x0 DUP1 RETURNDATACOPY RETURNDATASIZE PUSH1 0x0 REVERT JUMPDEST POP POP POP POP PUSH1 0x40 MLOAD RETURNDATASIZE PUSH1 0x1F NOT PUSH1 0x1F DUP3 ADD AND DUP3 ADD DUP1 PUSH1 0x40 MSTORE POP DUP2 ADD SWAP1 PUSH2 0x88E SWAP2 SWAP1 PUSH2 0x1EFF JUMP JUMPDEST PUSH2 0x8AA JUMPI PUSH1 0x40 MLOAD PUSH3 0x461BCD PUSH1 0xE5 SHL DUP2 MSTORE PUSH1 0x4 ADD PUSH2 0x725 SWAP1 PUSH2 0x1F21 JUMP JUMPDEST PUSH1 0x40 MLOAD DUP5 DUP2 MSTORE CALLER SWAP1 PUSH32 0x7084F5476618D8E60B11EF0D7D3F06914655ADB8793E28FF7F018D4C76D505D5 SWAP1 PUSH1 0x20 ADD PUSH1 0x40 MLOAD DUP1 SWAP2 SUB SWAP1 LOG2 POP POP POP PUSH2 0x8EB PUSH1 0x1 DUP1 SSTORE JUMP JUMPDEST POP JUMP JUMPDEST PUSH2 0x8F6 PUSH2 0x1BC7 JUMP JUMPDEST PUSH1 0x1 PUSH1 0x1 PUSH1 0xA0 SHL SUB DUP2 AND PUSH1 0x0 SWAP1 DUP2 MSTORE PUSH1 0xB PUSH1 0x20 MSTORE PUSH1 0x40 SWAP1 KECCAK256 SLOAD TIMESTAMP GT PUSH2 0x952 JUMPI PUSH1 0x40 MLOAD PUSH3 0x461BCD PUSH1 0xE5 SHL DUP2 MSTORE PUSH1 0x20 PUSH1 0x4 DUP3 ADD MSTORE PUSH1 0x12 PUSH1 0x24 DUP3 ADD MSTORE PUSH18 0x14995DD85C99081B9BDD08195E1C1A5C9959 PUSH1 0x72 SHL PUSH1 0x44 DUP3 ADD MSTORE PUSH1 0x64 ADD PUSH2 0x725 JUMP JUMPDEST PUSH1 0x1 PUSH1 0x1 PUSH1 0xA0 SHL SUB DUP2 AND PUSH1 0x0 DUP2 DUP2 MSTORE PUSH1 0xA PUSH1 0x20 SWAP1 DUP2 MSTORE PUSH1 0x40 DUP1 DUP4 KECCAK256 DUP1 SLOAD SWAP4 SWAP1 SSTORE MLOAD DUP3 DUP2 MSTORE SWAP2 SWAP3 SWAP2 PUSH32 0x6424BFE05F4BF0BB8ED07FFC754F2C4ED6CA4EF02134180B34899AB61D998E02 SWAP2 ADD PUSH1 0x40 MLOAD DUP1 SWAP2 SUB SWAP1 LOG2 POP PUSH2 0x8EB PUSH1 0x1 DUP1 SSTORE JUMP JUMPDEST PUSH2 0x9B6 PUSH2 0x1B6D JUMP JUMPDEST PUSH32 0x0 PUSH1 0x1 PUSH1 0x1 PUSH1 0xA0 SHL SUB AND DUP3 PUSH1 0x1 PUSH1 0x1 PUSH1 0xA0 SHL SUB AND SUB PUSH2 0xA37 JUMPI PUSH1 0x40 MLOAD PUSH3 0x461BCD PUSH1 0xE5 SHL DUP2 MSTORE PUSH1 0x20 PUSH1 0x4 DUP3 ADD MSTORE PUSH1 0x1B PUSH1 0x24 DUP3 ADD MSTORE PUSH32 0x43616E6E6F7420726573637565207374616B696E6720746F6B656E0000000000 PUSH1 0x44 DUP3 ADD MSTORE PUSH1 0x64 ADD PUSH2 0x725 JUMP JUMPDEST PUSH1 0x40 MLOAD PUSH4 0xA9059CBB PUSH1 0xE0 SHL DUP2 MSTORE CALLER PUSH1 0x4 DUP3 ADD MSTORE PUSH1 0x24 DUP2 ADD DUP3 SWAP1 MSTORE PUSH1 0x1 PUSH1 0x1 PUSH1 0xA0 SHL SUB DUP4 AND SWAP1 PUSH4 0xA9059CBB SWAP1 PUSH1 0x44 ADD PUSH1 0x20 PUSH1 0x40 MLOAD DUP1 DUP4 SUB DUP2 PUSH1 0x0 DUP8 GAS CALL ISZERO DUP1 ISZERO PUSH2 0xA84 JUMPI RETURNDATASIZE PUSH1 0x0 DUP1 RETURNDATACOPY RETURNDATASIZE PUSH1 0x0 REVERT JUMPDEST POP POP POP POP PUSH1 0x40 MLOAD RETURNDATASIZE PUSH1 0x1F NOT PUSH1 0x1F DUP3 ADD AND DUP3 ADD DUP1 PUSH1 0x40 MSTORE POP DUP2 ADD SWAP1 PUSH2 0xAA8 SWAP2 SWAP1 PUSH2 0x1EFF JUMP JUMPDEST PUSH2 0xAC4 JUMPI PUSH1 0x40 MLOAD PUSH3 0x461BCD PUSH1 0xE5 SHL DUP2 MSTORE PUSH1 0x4 ADD PUSH2 0x725 SWAP1 PUSH2 0x1F21 JUMP JUMPDEST PUSH1 0x40 MLOAD DUP2 DUP2 MSTORE CALLER SWAP1 PUSH1 0x1 PUSH1 0x1 PUSH1 0xA0 SHL SUB DUP5 AND SWAP1 PUSH32 0xFB475A842BAD10D3800B61BD1A92E716051AFBA979B124B583BD99A2D1D7BFD5 SWAP1 PUSH1 0x20 ADD PUSH1 0x40 MLOAD DUP1 SWAP2 SUB SWAP1 LOG3 POP POP JUMP JUMPDEST PUSH2 0xB10 PUSH2 0x1B6D JUMP JUMPDEST PUSH2 0xB1A PUSH1 0x0 PUSH2 0x1C20 JUMP JUMPDEST JUMP JUMPDEST PUSH1 0x6 DUP2 DUP2 SLOAD DUP2 LT PUSH2 0xB2C JUMPI PUSH1 0x0 DUP1 REVERT JUMPDEST PUSH1 0x0 SWAP2 DUP3 MSTORE PUSH1 0x20 SWAP1 SWAP2 KECCAK256 PUSH1 0x3 SWAP1 SWAP2 MUL ADD DUP1 SLOAD PUSH1 0x1 DUP3 ADD SLOAD PUSH1 0x2 SWAP1 SWAP3 ADD SLOAD SWAP1 SWAP3 POP DUP4 JUMP JUMPDEST PUSH2 0xB57 PUSH2 0x1B6D JUMP JUMPDEST PUSH1 0x12 DUP2 SWAP1 SSTORE PUSH1 0x40 MLOAD DUP2 DUP2 MSTORE PUSH32 0x8114637A99D6DBDE6E7E5125969A8ECBE5D143EEDC597560C9C79A8CB9A6B5D0 SWAP1 PUSH1 0x20 ADD PUSH1 0x40 MLOAD DUP1 SWAP2 SUB SWAP1 LOG1 POP JUMP JUMPDEST PUSH2 0xB9A PUSH2 0x1B6D JUMP JUMPDEST PUSH1 0x0 DUP1 PUSH2 0xBA5 PUSH2 0x164A JUMP JUMPDEST PUSH1 0x7 DUP2 SWAP1 SSTORE TIMESTAMP PUSH1 0x8 SSTORE SWAP1 POP PUSH1 0x1 PUSH1 0x1 PUSH1 0xA0 SHL SUB DUP3 AND ISZERO PUSH2 0xC29 JUMPI PUSH2 0xBC8 DUP3 PUSH2 0x57A JUMP JUMPDEST PUSH1 0x1 PUSH1 0x1 PUSH1 0xA0 SHL SUB DUP4 AND PUSH1 0x0 SWAP1 DUP2 MSTORE PUSH1 0xA PUSH1 0x20 SWAP1 DUP2 MSTORE PUSH1 0x40 DUP1 DUP4 KECCAK256 SWAP4 SWAP1 SWAP4 SSTORE PUSH1 0x9 DUP2 MSTORE DUP3 DUP3 KECCAK256 DUP5 SWAP1 SSTORE PUSH1 0xF DUP2 MSTORE DUP3 DUP3 KECCAK256 SLOAD PUSH1 0x11 SWAP1 SWAP2 MSTORE SWAP2 SWAP1 KECCAK256 SSTORE PUSH2 0xC0F PUSH3 0x278D00 TIMESTAMP PUSH2 0x1EEC JUMP JUMPDEST PUSH1 0x1 PUSH1 0x1 PUSH1 0xA0 SHL SUB DUP4 AND PUSH1 0x0 SWAP1 DUP2 MSTORE PUSH1 0xB PUSH1 0x20 MSTORE PUSH1 0x40 SWAP1 KECCAK256 SSTORE JUMPDEST PUSH1 0xD SLOAD PUSH1 0xFF AND ISZERO PUSH2 0xC90 JUMPI PUSH1 0x40 MLOAD PUSH3 0x461BCD PUSH1 0xE5 SHL DUP2 MSTORE PUSH1 0x20 PUSH1 0x4 DUP3 ADD MSTORE PUSH1 0x2B PUSH1 0x24 DUP3 ADD MSTORE PUSH32 0x4369726375697420627265616B6572206163746976653A207261746520636861 PUSH1 0x44 DUP3 ADD MSTORE PUSH11 0x1B99D95CC81C185D5CD959 PUSH1 0xAA SHL PUSH1 0x64 DUP3 ADD MSTORE PUSH1 0x84 ADD PUSH2 0x725 JUMP JUMPDEST PUSH9 0x56BC75E2D63100000 DUP4 GT ISZERO PUSH2 0xCE9 JUMPI PUSH1 0x40 MLOAD PUSH3 0x461BCD PUSH1 0xE5 SHL DUP2 MSTORE PUSH1 0x20 PUSH1 0x4 DUP3 ADD MSTORE PUSH1 0x1B PUSH1 0x24 DUP3 ADD MSTORE PUSH32 0x52657761726420726174652065786365656473206D6178696D756D0000000000 PUSH1 0x44 DUP3 ADD MSTORE PUSH1 0x64 ADD PUSH2 0x725 JUMP JUMPDEST PUSH3 0x15180 PUSH1 0xC SLOAD PUSH2 0xCFA SWAP2 SWAP1 PUSH2 0x1EEC JUMP JUMPDEST TIMESTAMP LT ISZERO PUSH2 0xD49 JUMPI PUSH1 0x40 MLOAD PUSH3 0x461BCD PUSH1 0xE5 SHL DUP2 MSTORE PUSH1 0x20 PUSH1 0x4 DUP3 ADD MSTORE PUSH1 0x1B PUSH1 0x24 DUP3 ADD MSTORE PUSH32 0x52617465206368616E676520636F6F6C646F776E206163746976650000000000 PUSH1 0x44 DUP3 ADD MSTORE PUSH1 0x64 ADD PUSH2 0x725 JUMP JUMPDEST PUSH1 0x6 SLOAD PUSH1 0x0 SWAP1 PUSH2 0xD5A JUMPI PUSH1 0x0 PUSH2 0xD8D JUMP JUMPDEST PUSH1 0x6 DUP1 SLOAD PUSH2 0xD6A SWAP1 PUSH1 0x1 SWAP1 PUSH2 0x1E8A JUMP JUMPDEST DUP2 SLOAD DUP2 LT PUSH2 0xD7A JUMPI PUSH2 0xD7A PUSH2 0x1F50 JUMP JUMPDEST SWAP1 PUSH1 0x0 MSTORE PUSH1 0x20 PUSH1 0x0 KECCAK256 SWAP1 PUSH1 0x3 MUL ADD PUSH1 0x0 ADD SLOAD JUMPDEST PUSH1 0x6 SLOAD SWAP1 SWAP2 POP ISZERO PUSH2 0xDE1 JUMPI PUSH1 0x6 DUP1 SLOAD PUSH1 0x0 SWAP2 SWAP1 PUSH2 0xDAC SWAP1 PUSH1 0x1 SWAP1 PUSH2 0x1E8A JUMP JUMPDEST DUP2 SLOAD DUP2 LT PUSH2 0xDBC JUMPI PUSH2 0xDBC PUSH2 0x1F50 JUMP JUMPDEST SWAP1 PUSH1 0x0 MSTORE PUSH1 0x20 PUSH1 0x0 KECCAK256 SWAP1 PUSH1 0x3 MUL ADD SWAP1 POP TIMESTAMP DUP2 PUSH1 0x2 ADD SLOAD GT ISZERO PUSH2 0xDDF JUMPI TIMESTAMP PUSH1 0x2 DUP3 ADD SSTORE JUMPDEST POP JUMPDEST PUSH1 0x40 DUP1 MLOAD PUSH1 0x60 DUP2 ADD DUP3 MSTORE DUP6 DUP2 MSTORE TIMESTAMP PUSH1 0x20 DUP1 DUP4 ADD DUP3 DUP2 MSTORE PUSH1 0x0 NOT DUP5 DUP7 ADD SWAP1 DUP2 MSTORE PUSH1 0x6 DUP1 SLOAD PUSH1 0x1 DUP2 ADD DUP3 SSTORE PUSH1 0x0 SWAP2 SWAP1 SWAP2 MSTORE SWAP5 MLOAD PUSH32 0xF652222313E28459528D920B65115C16C04F3EFC82AAEDC97BE59F3F377C0D3F PUSH1 0x3 SWAP1 SWAP7 MUL SWAP6 DUP7 ADD SSTORE SWAP1 MLOAD PUSH32 0xF652222313E28459528D920B65115C16C04F3EFC82AAEDC97BE59F3F377C0D40 DUP6 ADD SSTORE MLOAD PUSH32 0xF652222313E28459528D920B65115C16C04F3EFC82AAEDC97BE59F3F377C0D41 SWAP1 SWAP4 ADD SWAP3 SWAP1 SWAP3 SSTORE PUSH1 0xC SSTORE DUP2 MLOAD DUP4 DUP2 MSTORE SWAP1 DUP2 ADD DUP7 SWAP1 MSTORE CALLER SWAP2 PUSH32 0x32191E98BCD46EBEB00F4196390AA79D479294B3B08655329C4D2647030B77DA SWAP2 ADD PUSH1 0x40 MLOAD DUP1 SWAP2 SUB SWAP1 LOG2 POP POP POP POP JUMP JUMPDEST PUSH2 0xED4 PUSH2 0x1BC7 JUMP JUMPDEST CALLER PUSH1 0x0 PUSH2 0xEDF PUSH2 0x164A JUMP JUMPDEST PUSH1 0x7 DUP2 SWAP1 SSTORE TIMESTAMP PUSH1 0x8 SSTORE SWAP1 POP PUSH1 0x1 PUSH1 0x1 PUSH1 0xA0 SHL SUB DUP3 AND ISZERO PUSH2 0xF63 JUMPI PUSH2 0xF02 DUP3 PUSH2 0x57A JUMP JUMPDEST PUSH1 0x1 PUSH1 0x1 PUSH1 0xA0 SHL SUB DUP4 AND PUSH1 0x0 SWAP1 DUP2 MSTORE PUSH1 0xA PUSH1 0x20 SWAP1 DUP2 MSTORE PUSH1 0x40 DUP1 DUP4 KECCAK256 SWAP4 SWAP1 SWAP4 SSTORE PUSH1 0x9 DUP2 MSTORE DUP3 DUP3 KECCAK256 DUP5 SWAP1 SSTORE PUSH1 0xF DUP2 MSTORE DUP3 DUP3 KECCAK256 SLOAD PUSH1 0x11 SWAP1 SWAP2 MSTORE SWAP2 SWAP1 KECCAK256 SSTORE PUSH2 0xF49 PUSH3 0x278D00 TIMESTAMP PUSH2 0x1EEC JUMP JUMPDEST PUSH1 0x1 PUSH1 0x1 PUSH1 0xA0 SHL SUB DUP4 AND PUSH1 0x0 SWAP1 DUP2 MSTORE PUSH1 0xB PUSH1 0x20 MSTORE PUSH1 0x40 SWAP1 KECCAK256 SSTORE JUMPDEST PUSH1 0x0 DUP4 GT PUSH2 0xFA4 JUMPI PUSH1 0x40 MLOAD PUSH3 0x461BCD PUSH1 0xE5 SHL DUP2 MSTORE PUSH1 0x20 PUSH1 0x4 DUP3 ADD MSTORE PUSH1 0xE PUSH1 0x24 DUP3 ADD MSTORE PUSH14 0x43616E6E6F74207374616B65203 PUSH1 0x94 SHL PUSH1 0x44 DUP3 ADD MSTORE PUSH1 0x64 ADD PUSH2 0x725 JUMP JUMPDEST PUSH1 0x40 MLOAD PUSH4 0x70A08231 PUSH1 0xE0 SHL DUP2 MSTORE ADDRESS PUSH1 0x4 DUP3 ADD MSTORE PUSH1 0x0 SWAP1 PUSH32 0x0 PUSH1 0x1 PUSH1 0x1 PUSH1 0xA0 SHL SUB AND SWAP1 PUSH4 0x70A08231 SWAP1 PUSH1 0x24 ADD PUSH1 0x20 PUSH1 0x40 MLOAD DUP1 DUP4 SUB DUP2 DUP7 GAS STATICCALL ISZERO DUP1 ISZERO PUSH2 0x100B JUMPI RETURNDATASIZE PUSH1 0x0 DUP1 RETURNDATACOPY RETURNDATASIZE PUSH1 0x0 REVERT JUMPDEST POP POP POP POP PUSH1 0x40 MLOAD RETURNDATASIZE PUSH1 0x1F NOT PUSH1 0x1F DUP3 ADD AND DUP3 ADD DUP1 PUSH1 0x40 MSTORE POP DUP2 ADD SWAP1 PUSH2 0x102F SWAP2 SWAP1 PUSH2 0x1F66 JUMP JUMPDEST GT PUSH2 0x1074 JUMPI PUSH1 0x40 MLOAD PUSH3 0x461BCD PUSH1 0xE5 SHL DUP2 MSTORE PUSH1 0x20 PUSH1 0x4 DUP3 ADD MSTORE PUSH1 0x15 PUSH1 0x24 DUP3 ADD MSTORE PUSH21 0x5265776172647320706F6F6C20697320656D707479 PUSH1 0x58 SHL PUSH1 0x44 DUP3 ADD MSTORE PUSH1 0x64 ADD PUSH2 0x725 JUMP JUMPDEST PUSH1 0x40 MLOAD PUSH4 0x70A08231 PUSH1 0xE0 SHL DUP2 MSTORE ADDRESS PUSH1 0x4 DUP3 ADD MSTORE PUSH1 0x0 SWAP1 PUSH32 0x0 PUSH1 0x1 PUSH1 0x1 PUSH1 0xA0 SHL SUB AND SWAP1 PUSH4 0x70A08231 SWAP1 PUSH1 0x24 ADD PUSH1 0x20 PUSH1 0x40 MLOAD DUP1 DUP4 SUB DUP2 DUP7 GAS STATICCALL ISZERO DUP1 ISZERO PUSH2 0x10DB JUMPI RETURNDATASIZE PUSH1 0x0 DUP1 RETURNDATACOPY RETURNDATASIZE PUSH1 0x0 REVERT JUMPDEST POP POP POP POP PUSH1 0x40 MLOAD RETURNDATASIZE PUSH1 0x1F NOT PUSH1 0x1F DUP3 ADD AND DUP3 ADD DUP1 PUSH1 0x40 MSTORE POP DUP2 ADD SWAP1 PUSH2 0x10FF SWAP2 SWAP1 PUSH2 0x1F66 JUMP JUMPDEST PUSH1 0x40 MLOAD PUSH4 0x23B872DD PUSH1 0xE0 SHL DUP2 MSTORE CALLER PUSH1 0x4 DUP3 ADD MSTORE ADDRESS PUSH1 0x24 DUP3 ADD MSTORE PUSH1 0x44 DUP2 ADD DUP7 SWAP1 MSTORE SWAP1 SWAP2 POP PUSH32 0x0 PUSH1 0x1 PUSH1 0x1 PUSH1 0xA0 SHL SUB AND SWAP1 PUSH4 0x23B872DD SWAP1 PUSH1 0x64 ADD PUSH1 0x20 PUSH1 0x40 MLOAD DUP1 DUP4 SUB DUP2 PUSH1 0x0 DUP8 GAS CALL ISZERO DUP1 ISZERO PUSH2 0x1175 JUMPI RETURNDATASIZE PUSH1 0x0 DUP1 RETURNDATACOPY RETURNDATASIZE PUSH1 0x0 REVERT JUMPDEST POP POP POP POP PUSH1 0x40 MLOAD RETURNDATASIZE PUSH1 0x1F NOT PUSH1 0x1F DUP3 ADD AND DUP3 ADD DUP1 PUSH1 0x40 MSTORE POP DUP2 ADD SWAP1 PUSH2 0x1199 SWAP2 SWAP1 PUSH2 0x1EFF JUMP JUMPDEST PUSH2 0x11B5 JUMPI PUSH1 0x40 MLOAD PUSH3 0x461BCD PUSH1 0xE5 SHL DUP2 MSTORE PUSH1 0x4 ADD PUSH2 0x725 SWAP1 PUSH2 0x1F21 JUMP JUMPDEST PUSH1 0x40 MLOAD PUSH4 0x70A08231 PUSH1 0xE0 SHL DUP2 MSTORE ADDRESS PUSH1 0x4 DUP3 ADD MSTORE PUSH1 0x0 SWAP1 PUSH32 0x0 PUSH1 0x1 PUSH1 0x1 PUSH1 0xA0 SHL SUB AND SWAP1 PUSH4 0x70A08231 SWAP1 PUSH1 0x24 ADD PUSH1 0x20 PUSH1 0x40 MLOAD DUP1 DUP4 SUB DUP2 DUP7 GAS STATICCALL ISZERO DUP1 ISZERO PUSH2 0x121C JUMPI RETURNDATASIZE PUSH1 0x0 DUP1 RETURNDATACOPY RETURNDATASIZE PUSH1 0x0 REVERT JUMPDEST POP POP POP POP PUSH1 0x40 MLOAD RETURNDATASIZE PUSH1 0x1F NOT PUSH1 0x1F DUP3 ADD AND DUP3 ADD DUP1 PUSH1 0x40 MSTORE POP DUP2 ADD SWAP1 PUSH2 0x1240 SWAP2 SWAP1 PUSH2 0x1F66 JUMP JUMPDEST SWAP1 POP PUSH1 0x0 PUSH2 0x124E DUP4 DUP4 PUSH2 0x1E8A JUMP JUMPDEST SWAP1 POP DUP6 DUP2 EQ PUSH2 0x129F JUMPI PUSH1 0x40 MLOAD PUSH3 0x461BCD PUSH1 0xE5 SHL DUP2 MSTORE PUSH1 0x20 PUSH1 0x4 DUP3 ADD MSTORE PUSH1 0x19 PUSH1 0x24 DUP3 ADD MSTORE PUSH32 0x496E636F727265637420616D6F756E7420726563656976656400000000000000 PUSH1 0x44 DUP3 ADD MSTORE PUSH1 0x64 ADD PUSH2 0x725 JUMP JUMPDEST DUP1 PUSH1 0xE SLOAD PUSH2 0x12AD SWAP2 SWAP1 PUSH2 0x1EEC JUMP JUMPDEST PUSH1 0xE SSTORE CALLER PUSH1 0x0 SWAP1 DUP2 MSTORE PUSH1 0xF PUSH1 0x20 MSTORE PUSH1 0x40 SWAP1 KECCAK256 SLOAD PUSH2 0x12CB SWAP1 DUP3 SWAP1 PUSH2 0x1EEC JUMP JUMPDEST CALLER PUSH1 0x0 DUP2 DUP2 MSTORE PUSH1 0xF PUSH1 0x20 SWAP1 DUP2 MSTORE PUSH1 0x40 DUP1 DUP4 KECCAK256 SWAP5 SWAP1 SWAP5 SSTORE PUSH1 0x10 SWAP1 MSTORE DUP3 SWAP1 KECCAK256 TIMESTAMP SWAP1 SSTORE SWAP1 MLOAD PUSH32 0x9E71BC8EEA02A63969F509818F2DAFB9254532904319F9DBDA79B67BD34A5F3D SWAP1 PUSH2 0x131C SWAP1 DUP5 DUP2 MSTORE PUSH1 0x20 ADD SWAP1 JUMP JUMPDEST PUSH1 0x40 MLOAD DUP1 SWAP2 SUB SWAP1 LOG2 POP POP POP POP POP PUSH2 0x8EB PUSH1 0x1 DUP1 SSTORE JUMP JUMPDEST PUSH2 0x133A PUSH2 0x1BC7 JUMP JUMPDEST CALLER PUSH1 0x0 PUSH2 0x1345 PUSH2 0x164A JUMP JUMPDEST PUSH1 0x7 DUP2 SWAP1 SSTORE TIMESTAMP PUSH1 0x8 SSTORE SWAP1 POP PUSH1 0x1 PUSH1 0x1 PUSH1 0xA0 SHL SUB DUP3 AND ISZERO PUSH2 0x13C9 JUMPI PUSH2 0x1368 DUP3 PUSH2 0x57A JUMP JUMPDEST PUSH1 0x1 PUSH1 0x1 PUSH1 0xA0 SHL SUB DUP4 AND PUSH1 0x0 SWAP1 DUP2 MSTORE PUSH1 0xA PUSH1 0x20 SWAP1 DUP2 MSTORE PUSH1 0x40 DUP1 DUP4 KECCAK256 SWAP4 SWAP1 SWAP4 SSTORE PUSH1 0x9 DUP2 MSTORE DUP3 DUP3 KECCAK256 DUP5 SWAP1 SSTORE PUSH1 0xF DUP2 MSTORE DUP3 DUP3 KECCAK256 SLOAD PUSH1 0x11 SWAP1 SWAP2 MSTORE SWAP2 SWAP1 KECCAK256 SSTORE PUSH2 0x13AF PUSH3 0x278D00 TIMESTAMP PUSH2 0x1EEC JUMP JUMPDEST PUSH1 0x1 PUSH1 0x1 PUSH1 0xA0 SHL SUB DUP4 AND PUSH1 0x0 SWAP1 DUP2 MSTORE PUSH1 0xB PUSH1 0x20 MSTORE PUSH1 0x40 SWAP1 KECCAK256 SSTORE JUMPDEST CALLER PUSH1 0x0 SWAP1 DUP2 MSTORE PUSH1 0xB PUSH1 0x20 MSTORE PUSH1 0x40 SWAP1 KECCAK256 SLOAD TIMESTAMP GT ISZERO PUSH2 0x1428 JUMPI PUSH1 0x40 MLOAD PUSH3 0x461BCD PUSH1 0xE5 SHL DUP2 MSTORE PUSH1 0x20 PUSH1 0x4 DUP3 ADD MSTORE PUSH1 0x1B PUSH1 0x24 DUP3 ADD MSTORE PUSH32 0x52657761726420636C61696D20706572696F6420657870697265640000000000 PUSH1 0x44 DUP3 ADD MSTORE PUSH1 0x64 ADD PUSH2 0x725 JUMP JUMPDEST CALLER PUSH1 0x0 SWAP1 DUP2 MSTORE PUSH1 0xA PUSH1 0x20 MSTORE PUSH1 0x40 SWAP1 KECCAK256 SLOAD DUP1 ISZERO PUSH2 0x163E JUMPI CALLER PUSH1 0x0 SWAP1 DUP2 MSTORE PUSH1 0xA PUSH1 0x20 MSTORE PUSH1 0x40 DUP1 DUP3 KECCAK256 SWAP2 SWAP1 SWAP2 SSTORE MLOAD PUSH4 0x70A08231 PUSH1 0xE0 SHL DUP2 MSTORE ADDRESS PUSH1 0x4 DUP3 ADD MSTORE DUP2 SWAP1 PUSH1 0x1 PUSH1 0x1 PUSH1 0xA0 SHL SUB PUSH32 0x0 AND SWAP1 PUSH4 0x70A08231 SWAP1 PUSH1 0x24 ADD PUSH1 0x20 PUSH1 0x40 MLOAD DUP1 DUP4 SUB DUP2 DUP7 GAS STATICCALL ISZERO DUP1 ISZERO PUSH2 0x14B6 JUMPI RETURNDATASIZE PUSH1 0x0 DUP1 RETURNDATACOPY RETURNDATASIZE PUSH1 0x0 REVERT JUMPDEST POP POP POP POP PUSH1 0x40 MLOAD RETURNDATASIZE PUSH1 0x1F NOT PUSH1 0x1F DUP3 ADD AND DUP3 ADD DUP1 PUSH1 0x40 MSTORE POP DUP2 ADD SWAP1 PUSH2 0x14DA SWAP2 SWAP1 PUSH2 0x1F66 JUMP JUMPDEST LT ISZERO PUSH2 0x1532 JUMPI PUSH1 0x40 MLOAD PUSH3 0x461BCD PUSH1 0xE5 SHL DUP2 MSTORE PUSH1 0x20 PUSH1 0x4 DUP3 ADD MSTORE PUSH1 0x21 PUSH1 0x24 DUP3 ADD MSTORE PUSH32 0x496E73756666696369656E742072657761726420746F6B656E2062616C616E63 PUSH1 0x44 DUP3 ADD MSTORE PUSH1 0x65 PUSH1 0xF8 SHL PUSH1 0x64 DUP3 ADD MSTORE PUSH1 0x84 ADD PUSH2 0x725 JUMP JUMPDEST PUSH1 0x40 MLOAD PUSH4 0xA9059CBB PUSH1 0xE0 SHL DUP2 MSTORE CALLER PUSH1 0x4 DUP3 ADD MSTORE PUSH1 0x24 DUP2 ADD DUP3 SWAP1 MSTORE PUSH32 0x0 PUSH1 0x1 PUSH1 0x1 PUSH1 0xA0 SHL SUB AND SWAP1 PUSH4 0xA9059CBB SWAP1 PUSH1 0x44 ADD PUSH1 0x20 PUSH1 0x40 MLOAD DUP1 DUP4 SUB DUP2 PUSH1 0x0 DUP8 GAS CALL ISZERO DUP1 ISZERO PUSH2 0x159F JUMPI RETURNDATASIZE PUSH1 0x0 DUP1 RETURNDATACOPY RETURNDATASIZE PUSH1 0x0 REVERT JUMPDEST POP POP POP POP PUSH1 0x40 MLOAD RETURNDATASIZE PUSH1 0x1F NOT PUSH1 0x1F DUP3 ADD AND DUP3 ADD DUP1 PUSH1 0x40 MSTORE POP DUP2 ADD SWAP1 PUSH2 0x15C3 SWAP2 SWAP1 PUSH2 0x1EFF JUMP JUMPDEST PUSH2 0x1608 JUMPI PUSH1 0x40 MLOAD PUSH3 0x461BCD PUSH1 0xE5 SHL DUP2 MSTORE PUSH1 0x20 PUSH1 0x4 DUP3 ADD MSTORE PUSH1 0x16 PUSH1 0x24 DUP3 ADD MSTORE PUSH22 0x14995DD85C99081D1C985B9CD9995C8819985A5B1959 PUSH1 0x52 SHL PUSH1 0x44 DUP3 ADD MSTORE PUSH1 0x64 ADD PUSH2 0x725 JUMP JUMPDEST PUSH1 0x40 MLOAD DUP2 DUP2 MSTORE CALLER SWAP1 PUSH32 0xE2403640BA68FED3A2F88B7557551D1993F84B99BB10FF833F0CF8DB0C5E0486 SWAP1 PUSH1 0x20 ADD PUSH1 0x40 MLOAD DUP1 SWAP2 SUB SWAP1 LOG2 JUMPDEST POP POP POP PUSH2 0xB1A PUSH1 0x1 DUP1 SSTORE JUMP JUMPDEST PUSH1 0x0 PUSH1 0xE SLOAD PUSH1 0x0 EQ DUP1 PUSH2 0x165D JUMPI POP PUSH1 0x8 SLOAD ISZERO JUMPDEST ISZERO PUSH2 0x1669 JUMPI POP PUSH1 0x7 SLOAD SWAP1 JUMP JUMPDEST PUSH1 0x6 SLOAD PUSH1 0x0 SWAP1 DUP2 DUP1 JUMPDEST DUP3 DUP2 LT ISZERO PUSH2 0x17A1 JUMPI PUSH1 0x0 PUSH1 0x6 DUP3 DUP2 SLOAD DUP2 LT PUSH2 0x168F JUMPI PUSH2 0x168F PUSH2 0x1F50 JUMP JUMPDEST PUSH1 0x0 SWAP2 DUP3 MSTORE PUSH1 0x20 SWAP2 DUP3 SWAP1 KECCAK256 PUSH1 0x40 DUP1 MLOAD PUSH1 0x60 DUP2 ADD DUP3 MSTORE PUSH1 0x3 SWAP1 SWAP4 MUL SWAP1 SWAP2 ADD DUP1 SLOAD DUP4 MSTORE PUSH1 0x1 DUP2 ADD SLOAD SWAP4 DUP4 ADD DUP5 SWAP1 MSTORE PUSH1 0x2 ADD SLOAD SWAP1 DUP3 ADD DUP2 SWAP1 MSTORE PUSH1 0x8 SLOAD SWAP2 SWAP4 POP SWAP2 SWAP1 DUP3 GT ISZERO PUSH2 0x178B JUMPI PUSH1 0x0 PUSH1 0x8 SLOAD DUP3 GT PUSH2 0x16E7 JUMPI PUSH1 0x8 SLOAD PUSH2 0x16E9 JUMP JUMPDEST DUP2 JUMPDEST SWAP1 POP PUSH1 0x0 TIMESTAMP DUP5 LT PUSH2 0x16FA JUMPI TIMESTAMP PUSH2 0x16FC JUMP JUMPDEST DUP4 JUMPDEST SWAP1 POP DUP2 DUP2 GT ISZERO PUSH2 0x1788 JUMPI PUSH1 0x0 PUSH2 0x1712 DUP4 DUP4 PUSH2 0x1E8A JUMP JUMPDEST DUP7 MLOAD PUSH1 0xE SLOAD SWAP2 SWAP3 POP SWAP1 PUSH32 0x0 PUSH2 0x1746 DUP5 DUP5 PUSH2 0x1E9D JUMP JUMPDEST PUSH2 0x1750 SWAP2 SWAP1 PUSH2 0x1E9D JUMP JUMPDEST PUSH2 0x175A SWAP2 SWAP1 PUSH2 0x1ECA JUMP JUMPDEST PUSH2 0x1764 SWAP1 DUP13 PUSH2 0x1EEC JUMP JUMPDEST SWAP11 POP PUSH1 0x64 PUSH2 0x1771 DUP11 PUSH2 0x1F7F JUMP JUMPDEST SWAP10 POP DUP10 LT PUSH2 0x1785 JUMPI POP POP POP POP POP POP POP PUSH2 0x17A1 JUMP JUMPDEST POP POP JUMPDEST POP POP JUMPDEST POP POP POP DUP1 DUP1 PUSH2 0x1799 SWAP1 PUSH2 0x1F7F JUMP JUMPDEST SWAP2 POP POP PUSH2 0x1672 JUMP JUMPDEST POP DUP3 PUSH1 0x7 SLOAD PUSH2 0x17B0 SWAP2 SWAP1 PUSH2 0x1EEC JUMP JUMPDEST SWAP4 POP POP POP POP SWAP1 JUMP JUMPDEST PUSH1 0x0 PUSH1 0x1 PUSH1 0x1 PUSH1 0xA0 SHL SUB DUP5 AND PUSH2 0x1807 JUMPI PUSH1 0x40 MLOAD PUSH3 0x461BCD PUSH1 0xE5 SHL DUP2 MSTORE PUSH1 0x20 PUSH1 0x4 DUP3 ADD MSTORE PUSH1 0x14 PUSH1 0x24 DUP3 ADD MSTORE PUSH20 0x496E76616C696420757365722061646472657373 PUSH1 0x60 SHL PUSH1 0x44 DUP3 ADD MSTORE PUSH1 0x64 ADD PUSH2 0x725 JUMP JUMPDEST PUSH1 0x0 DUP4 GT PUSH2 0x1850 JUMPI PUSH1 0x40 MLOAD PUSH3 0x461BCD PUSH1 0xE5 SHL DUP2 MSTORE PUSH1 0x20 PUSH1 0x4 DUP3 ADD MSTORE PUSH1 0x16 PUSH1 0x24 DUP3 ADD MSTORE PUSH22 0x125B9D985B1A59081CDD185ADA5B99C8185B5BDD5B9D PUSH1 0x52 SHL PUSH1 0x44 DUP3 ADD MSTORE PUSH1 0x64 ADD PUSH2 0x725 JUMP JUMPDEST PUSH1 0x0 DUP3 GT PUSH2 0x18A0 JUMPI PUSH1 0x40 MLOAD PUSH3 0x461BCD PUSH1 0xE5 SHL DUP2 MSTORE PUSH1 0x20 PUSH1 0x4 DUP3 ADD MSTORE PUSH1 0x18 PUSH1 0x24 DUP3 ADD MSTORE PUSH32 0x496E76616C6964207374616B696E67206475726174696F6E0000000000000000 PUSH1 0x44 DUP3 ADD MSTORE PUSH1 0x64 ADD PUSH2 0x725 JUMP JUMPDEST PUSH1 0x3 SLOAD DUP1 PUSH2 0x18F0 JUMPI PUSH1 0x40 MLOAD PUSH3 0x461BCD PUSH1 0xE5 SHL DUP2 MSTORE PUSH1 0x20 PUSH1 0x4 DUP3 ADD MSTORE PUSH1 0x18 PUSH1 0x24 DUP3 ADD MSTORE PUSH32 0x42617365207265776172642072617465206E6F74207365740000000000000000 PUSH1 0x44 DUP3 ADD MSTORE PUSH1 0x64 ADD PUSH2 0x725 JUMP JUMPDEST PUSH1 0x0 PUSH2 0x18FF PUSH3 0x15180 DUP6 PUSH2 0x1ECA JUMP JUMPDEST SWAP1 POP PUSH2 0xE42 DUP2 GT ISZERO PUSH2 0x1953 JUMPI PUSH1 0x40 MLOAD PUSH3 0x461BCD PUSH1 0xE5 SHL DUP2 MSTORE PUSH1 0x20 PUSH1 0x4 DUP3 ADD MSTORE PUSH1 0x19 PUSH1 0x24 DUP3 ADD MSTORE PUSH32 0x5374616B696E67206475726174696F6E20746F6F206C6F6E6700000000000000 PUSH1 0x44 DUP3 ADD MSTORE PUSH1 0x64 ADD PUSH2 0x725 JUMP JUMPDEST PUSH1 0x0 DUP3 PUSH1 0x0 NOT DUP2 PUSH2 0x1966 JUMPI PUSH2 0x1966 PUSH2 0x1EB4 JUMP JUMPDEST DIV DUP7 GT ISZERO PUSH2 0x19B6 JUMPI PUSH1 0x40 MLOAD PUSH3 0x461BCD PUSH1 0xE5 SHL DUP2 MSTORE PUSH1 0x20 PUSH1 0x4 DUP3 ADD MSTORE PUSH1 0x1A PUSH1 0x24 DUP3 ADD MSTORE PUSH32 0x43616C63756C6174696F6E20776F756C64206F766572666C6F77000000000000 PUSH1 0x44 DUP3 ADD MSTORE PUSH1 0x64 ADD PUSH2 0x725 JUMP JUMPDEST POP DUP5 DUP3 MUL DUP2 PUSH1 0x0 NOT DUP2 PUSH2 0x19CB JUMPI PUSH2 0x19CB PUSH2 0x1EB4 JUMP JUMPDEST DIV DUP2 GT ISZERO PUSH2 0x1A1B JUMPI PUSH1 0x40 MLOAD PUSH3 0x461BCD PUSH1 0xE5 SHL DUP2 MSTORE PUSH1 0x20 PUSH1 0x4 DUP3 ADD MSTORE PUSH1 0x1A PUSH1 0x24 DUP3 ADD MSTORE PUSH32 0x43616C63756C6174696F6E20776F756C64206F766572666C6F77000000000000 PUSH1 0x44 DUP3 ADD MSTORE PUSH1 0x64 ADD PUSH2 0x725 JUMP JUMPDEST PUSH2 0x2710 SWAP1 DUP3 MUL DIV PUSH1 0x0 PUSH2 0x1A2E DUP9 DUP4 PUSH2 0x1C70 JUMP JUMPDEST SWAP1 POP PUSH1 0x0 PUSH2 0x1A3C DUP10 DUP5 PUSH2 0x1D51 JUMP JUMPDEST SWAP1 POP DUP3 SWAP6 POP DUP2 PUSH1 0x0 NOT PUSH2 0x1A4F SWAP2 SWAP1 PUSH2 0x1E8A JUMP JUMPDEST DUP7 GT ISZERO PUSH2 0x1A6E JUMPI PUSH1 0x40 MLOAD PUSH3 0x461BCD PUSH1 0xE5 SHL DUP2 MSTORE PUSH1 0x4 ADD PUSH2 0x725 SWAP1 PUSH2 0x1F98 JUMP JUMPDEST PUSH2 0x1A78 DUP3 DUP8 PUSH2 0x1EEC JUMP JUMPDEST SWAP6 POP PUSH2 0x1A86 DUP2 PUSH1 0x0 NOT PUSH2 0x1E8A JUMP JUMPDEST DUP7 GT ISZERO PUSH2 0x1AA5 JUMPI PUSH1 0x40 MLOAD PUSH3 0x461BCD PUSH1 0xE5 SHL DUP2 MSTORE PUSH1 0x4 ADD PUSH2 0x725 SWAP1 PUSH2 0x1F98 JUMP JUMPDEST PUSH2 0x1AAF DUP2 DUP8 PUSH2 0x1EEC JUMP JUMPDEST SWAP6 POP PUSH13 0xC9F2C9CD04674EDEA40000000 DUP7 GT ISZERO PUSH2 0x1AD7 JUMPI PUSH13 0xC9F2C9CD04674EDEA40000000 SWAP6 POP JUMPDEST POP POP POP POP POP SWAP4 SWAP3 POP POP POP JUMP JUMPDEST PUSH2 0x1AEB PUSH2 0x1B6D JUMP JUMPDEST PUSH1 0xD DUP1 SLOAD PUSH1 0xFF NOT AND SWAP1 SSTORE JUMP JUMPDEST PUSH2 0x1AFF PUSH2 0x1B6D JUMP JUMPDEST PUSH1 0x1 PUSH1 0x1 PUSH1 0xA0 SHL SUB DUP2 AND PUSH2 0x1B64 JUMPI PUSH1 0x40 MLOAD PUSH3 0x461BCD PUSH1 0xE5 SHL DUP2 MSTORE PUSH1 0x20 PUSH1 0x4 DUP3 ADD MSTORE PUSH1 0x26 PUSH1 0x24 DUP3 ADD MSTORE PUSH32 0x4F776E61626C653A206E6577206F776E657220697320746865207A65726F2061 PUSH1 0x44 DUP3 ADD MSTORE PUSH6 0x646472657373 PUSH1 0xD0 SHL PUSH1 0x64 DUP3 ADD MSTORE PUSH1 0x84 ADD PUSH2 0x725 JUMP JUMPDEST PUSH2 0x8EB DUP2 PUSH2 0x1C20 JUMP JUMPDEST PUSH1 0x0 SLOAD PUSH1 0x1 PUSH1 0x1 PUSH1 0xA0 SHL SUB AND CALLER EQ PUSH2 0xB1A JUMPI PUSH1 0x40 MLOAD PUSH3 0x461BCD PUSH1 0xE5 SHL DUP2 MSTORE PUSH1 0x20 PUSH1 0x4 DUP3 ADD DUP2 SWAP1 MSTORE PUSH1 0x24 DUP3 ADD MSTORE PUSH32 0x4F776E61626C653A2063616C6C6572206973206E6F7420746865206F776E6572 PUSH1 0x44 DUP3 ADD MSTORE PUSH1 0x64 ADD PUSH2 0x725 JUMP JUMPDEST PUSH1 0x2 PUSH1 0x1 SLOAD SUB PUSH2 0x1C19 JUMPI PUSH1 0x40 MLOAD PUSH3 0x461BCD PUSH1 0xE5 SHL DUP2 MSTORE PUSH1 0x20 PUSH1 0x4 DUP3 ADD MSTORE PUSH1 0x1F PUSH1 0x24 DUP3 ADD MSTORE PUSH32 0x5265656E7472616E637947756172643A207265656E7472616E742063616C6C00 PUSH1 0x44 DUP3 ADD MSTORE PUSH1 0x64 ADD PUSH2 0x725 JUMP JUMPDEST PUSH1 0x2 PUSH1 0x1 SSTORE JUMP JUMPDEST PUSH1 0x0 DUP1 SLOAD PUSH1 0x1 PUSH1 0x1 PUSH1 0xA0 SHL SUB DUP4 DUP2 AND PUSH1 0x1 PUSH1 0x1 PUSH1 0xA0 SHL SUB NOT DUP4 AND DUP2 OR DUP5 SSTORE PUSH1 0x40 MLOAD SWAP2 SWAP1 SWAP3 AND SWAP3 DUP4 SWAP2 PUSH32 0x8BE0079C531659141344CD1FD0A4F28419497F9722A3DAAFE3B4186F6B6457E0 SWAP2 SWAP1 LOG3 POP POP JUMP JUMPDEST PUSH1 0x2 SLOAD PUSH1 0x40 MLOAD PUSH4 0xD636B87F PUSH1 0xE0 SHL DUP2 MSTORE PUSH1 0x1 PUSH1 0x1 PUSH1 0xA0 SHL SUB DUP5 DUP2 AND PUSH1 0x4 DUP4 ADD MSTORE PUSH1 0x0 SWAP3 DUP4 SWAP3 SWAP2 AND SWAP1 PUSH4 0xD636B87F SWAP1 PUSH1 0x24 ADD PUSH1 0x20 PUSH1 0x40 MLOAD DUP1 DUP4 SUB DUP2 DUP7 GAS STATICCALL ISZERO DUP1 ISZERO PUSH2 0x1CBE JUMPI RETURNDATASIZE PUSH1 0x0 DUP1 RETURNDATACOPY RETURNDATASIZE PUSH1 0x0 REVERT JUMPDEST POP POP POP POP PUSH1 0x40 MLOAD RETURNDATASIZE PUSH1 0x1F NOT PUSH1 0x1F DUP3 ADD AND DUP3 ADD DUP1 PUSH1 0x40 MSTORE POP DUP2 ADD SWAP1 PUSH2 0x1CE2 SWAP2 SWAP1 PUSH2 0x1F66 JUMP JUMPDEST SWAP1 POP DUP1 PUSH1 0x0 SUB PUSH2 0x1CF6 JUMPI PUSH1 0x0 SWAP2 POP POP PUSH2 0x609 JUMP JUMPDEST PUSH1 0x4 SLOAD PUSH1 0x0 DUP2 SWAP1 SUB PUSH2 0x1D0D JUMPI PUSH1 0x0 SWAP3 POP POP POP PUSH2 0x609 JUMP JUMPDEST DUP1 PUSH1 0x0 NOT DUP2 PUSH2 0x1D1E JUMPI PUSH2 0x1D1E PUSH2 0x1EB4 JUMP JUMPDEST DIV DUP5 GT ISZERO PUSH2 0x1D3D JUMPI PUSH13 0xC9F2C9CD04674EDEA40000000 SWAP3 POP POP POP PUSH2 0x609 JUMP JUMPDEST PUSH3 0xF4240 DUP5 DUP3 MUL DUP4 MUL JUMPDEST DIV SWAP6 SWAP5 POP POP POP POP POP JUMP JUMPDEST PUSH1 0x0 PUSH1 0x1 PUSH1 0x1 PUSH1 0xA0 SHL SUB DUP4 AND ISZERO ISZERO DUP1 PUSH2 0x1D6E JUMPI PUSH1 0x0 SWAP2 POP POP PUSH2 0x609 JUMP JUMPDEST PUSH1 0x5 SLOAD PUSH1 0x0 DUP2 SWAP1 SUB PUSH2 0x1D85 JUMPI PUSH1 0x0 SWAP3 POP POP POP PUSH2 0x609 JUMP JUMPDEST DUP1 PUSH1 0x0 NOT DUP2 PUSH2 0x1D96 JUMPI PUSH2 0x1D96 PUSH2 0x1EB4 JUMP JUMPDEST DIV DUP5 GT ISZERO PUSH2 0x1DB5 JUMPI PUSH13 0xC9F2C9CD04674EDEA40000000 SWAP3 POP POP POP PUSH2 0x609 JUMP JUMPDEST PUSH2 0x2710 DUP5 DUP3 MUL PUSH2 0x1D47 JUMP JUMPDEST DUP1 CALLDATALOAD PUSH1 0x1 PUSH1 0x1 PUSH1 0xA0 SHL SUB DUP2 AND DUP2 EQ PUSH2 0x1DD7 JUMPI PUSH1 0x0 DUP1 REVERT JUMPDEST SWAP2 SWAP1 POP JUMP JUMPDEST PUSH1 0x0 PUSH1 0x20 DUP3 DUP5 SUB SLT ISZERO PUSH2 0x1DEE JUMPI PUSH1 0x0 DUP1 REVERT JUMPDEST PUSH2 0x1DF7 DUP3 PUSH2 0x1DC0 JUMP JUMPDEST SWAP4 SWAP3 POP POP POP JUMP JUMPDEST PUSH1 0x0 PUSH1 0x20 DUP3 DUP5 SUB SLT ISZERO PUSH2 0x1E10 JUMPI PUSH1 0x0 DUP1 REVERT JUMPDEST POP CALLDATALOAD SWAP2 SWAP1 POP JUMP JUMPDEST PUSH1 0x0 DUP1 PUSH1 0x40 DUP4 DUP6 SUB SLT ISZERO PUSH2 0x1E2A JUMPI PUSH1 0x0 DUP1 REVERT JUMPDEST PUSH2 0x1E33 DUP4 PUSH2 0x1DC0 JUMP JUMPDEST SWAP5 PUSH1 0x20 SWAP4 SWAP1 SWAP4 ADD CALLDATALOAD SWAP4 POP POP POP JUMP JUMPDEST PUSH1 0x0 DUP1 PUSH1 0x0 PUSH1 0x60 DUP5 DUP7 SUB SLT ISZERO PUSH2 0x1E56 JUMPI PUSH1 0x0 DUP1 REVERT JUMPDEST PUSH2 0x1E5F DUP5 PUSH2 0x1DC0 JUMP JUMPDEST SWAP6 PUSH1 0x20 DUP6 ADD CALLDATALOAD SWAP6 POP PUSH1 0x40 SWAP1 SWAP5 ADD CALLDATALOAD SWAP4 SWAP3 POP POP POP JUMP JUMPDEST PUSH4 0x4E487B71 PUSH1 0xE0 SHL PUSH1 0x0 MSTORE PUSH1 0x11 PUSH1 0x4 MSTORE PUSH1 0x24 PUSH1 0x0 REVERT JUMPDEST DUP2 DUP2 SUB DUP2 DUP2 GT ISZERO PUSH2 0x609 JUMPI PUSH2 0x609 PUSH2 0x1E74 JUMP JUMPDEST DUP1 DUP3 MUL DUP2 ISZERO DUP3 DUP3 DIV DUP5 EQ OR PUSH2 0x609 JUMPI PUSH2 0x609 PUSH2 0x1E74 JUMP JUMPDEST PUSH4 0x4E487B71 PUSH1 0xE0 SHL PUSH1 0x0 MSTORE PUSH1 0x12 PUSH1 0x4 MSTORE PUSH1 0x24 PUSH1 0x0 REVERT JUMPDEST PUSH1 0x0 DUP3 PUSH2 0x1EE7 JUMPI PUSH4 0x4E487B71 PUSH1 0xE0 SHL PUSH1 0x0 MSTORE PUSH1 0x12 PUSH1 0x4 MSTORE PUSH1 0x24 PUSH1 0x0 REVERT JUMPDEST POP DIV SWAP1 JUMP JUMPDEST DUP1 DUP3 ADD DUP1 DUP3 GT ISZERO PUSH2 0x609 JUMPI PUSH2 0x609 PUSH2 0x1E74 JUMP JUMPDEST PUSH1 0x0 PUSH1 0x20 DUP3 DUP5 SUB SLT ISZERO PUSH2 0x1F11 JUMPI PUSH1 0x0 DUP1 REVERT JUMPDEST DUP2 MLOAD DUP1 ISZERO ISZERO DUP2 EQ PUSH2 0x1DF7 JUMPI PUSH1 0x0 DUP1 REVERT JUMPDEST PUSH1 0x20 DUP1 DUP3 MSTORE PUSH1 0x15 SWAP1 DUP3 ADD MSTORE PUSH21 0x151BDAD95B881D1C985B9CD9995C8819985A5B1959 PUSH1 0x5A SHL PUSH1 0x40 DUP3 ADD MSTORE PUSH1 0x60 ADD SWAP1 JUMP JUMPDEST PUSH4 0x4E487B71 PUSH1 0xE0 SHL PUSH1 0x0 MSTORE PUSH1 0x32 PUSH1 0x4 MSTORE PUSH1 0x24 PUSH1 0x0 REVERT JUMPDEST PUSH1 0x0 PUSH1 0x20 DUP3 DUP5 SUB SLT ISZERO PUSH2 0x1F78 JUMPI PUSH1 0x0 DUP1 REVERT JUMPDEST POP MLOAD SWAP2 SWAP1 POP JUMP JUMPDEST PUSH1 0x0 PUSH1 0x1 DUP3 ADD PUSH2 0x1F91 JUMPI PUSH2 0x1F91 PUSH2 0x1E74 JUMP JUMPDEST POP PUSH1 0x1 ADD SWAP1 JUMP JUMPDEST PUSH1 0x20 DUP1 DUP3 MSTORE PUSH1 0x21 SWAP1 DUP3 ADD MSTORE PUSH32 0x546F74616C207265776172642063616C63756C6174696F6E206F766572666C6F PUSH1 0x40 DUP3 ADD MSTORE PUSH1 0x77 PUSH1 0xF8 SHL PUSH1 0x60 DUP3 ADD MSTORE PUSH1 0x80 ADD SWAP1 JUMP INVALID LOG2 PUSH5 0x6970667358 0x22 SLT KECCAK256 0xE5 0x2E CREATE 0xAC PUSH25 0x5B9CBE0670287DAC1E091FBEAEFB62DEB72BBE75F5F192D5A0 0xD2 0xE3 PUSH5 0x736F6C6343 STOP ADDMOD EQ STOP CALLER "},"methodIdentifiers":{"BASIS_POINTS()":"e1f1c4a7","MAX_CLAIM_PERIOD()":"30568c8c","MAX_PERIODS_PROCESSED()":"539f1f34","MAX_REWARD_AMOUNT()":"a04f6b4b","MAX_REWARD_RATE()":"718dc3c3","MAX_STAKING_DAYS()":"05cb6141","MIN_STAKING_PERIOD()":"c743dabb","RATE_CHANGE_COOLDOWN()":"6eaa7ba2","adminControl()":"555d3e63","balanceOf(address)":"70a08231","calculateRewards(address,uint256,uint256)":"d72b08c6","claimReward()":"b88a802f","clearExpiredRewards(address)":"53809b57","earned(address)":"008cc262","lastRateChange()":"da71ae79","lastUpdateTime()":"c8f33c91","minStakingPeriod()":"069c34f6","owner()":"8da5cb5b","pauseRateChanges()":"13f52235","rateChangePaused()":"c9d3d16d","renounceOwnership()":"715018a6","rescueTokens(address,uint256)":"57376198","rewardConfig()":"4e94c285","rewardExpirationTimestamps(address)":"42364b4f","rewardPerToken()":"cd3daf9d","rewardPerTokenStored()":"df136d65","rewardPeriods(uint256)":"8252097d","rewards(address)":"0700037d","rewardsToken()":"d1af0c7d","rewardsTokenUnit()":"be0eac0c","setMinStakingPeriod(uint256)":"88ee6a43","setRewardRate(uint256)":"9e447fc6","stake(uint256)":"a694fc3a","stakingToken()":"72f702f3","stakingTokenUnit()":"48e0dc12","totalSupply()":"18160ddd","transferOwnership(address)":"f2fde38b","unpauseRateChanges()":"ef0e7417","userRewardPerTokenPaid(address)":"8b876347","withdraw(uint256)":"2e1a7d4d"}}}}}