{
  "_format": "hh-sol-artifact-1",
  "contractName": "AdminControl",
  "sourceName": "contracts/governance/AdminControl.sol",
  "abi": [
    {
      "inputs": [
        {
          "internalType": "address",
          "name": "initialAdmin",
          "type": "address"
        },
        {
          "internalType": "address",
          "name": "feeCollector",
          "type": "address"
        },
        {
          "internalType": "address",
          "name": "rewardsVault",
          "type": "address"
        }
      ],
      "stateMutability": "nonpayable",
      "type": "constructor"
    },
    {
      "anonymous": false,
      "inputs": [
        {
          "indexed": false,
          "internalType": "uint256",
          "name": "newBaseFee",
          "type": "uint256"
        },
        {
          "indexed": false,
          "internalType": "uint256",
          "name": "newMaxFee",
          "type": "uint256"
        }
      ],
      "name": "FeeConfigUpdated",
      "type": "event"
    },
    {
      "anonymous": false,
      "inputs": [
        {
          "indexed": true,
          "internalType": "address",
          "name": "account",
          "type": "address"
        },
        {
          "indexed": false,
          "internalType": "bool",
          "name": "status",
          "type": "bool"
        }
      ],
      "name": "KYCStatusUpdated",
      "type": "event"
    },
    {
      "anonymous": false,
      "inputs": [
        {
          "indexed": false,
          "internalType": "address",
          "name": "account",
          "type": "address"
        }
      ],
      "name": "Paused",
      "type": "event"
    },
    {
      "anonymous": false,
      "inputs": [
        {
          "indexed": false,
          "internalType": "uint256",
          "name": "newBaseRate",
          "type": "uint256"
        },
        {
          "indexed": false,
          "internalType": "uint256",
          "name": "newMultiplier",
          "type": "uint256"
        }
      ],
      "name": "RewardParametersUpdated",
      "type": "event"
    },
    {
      "anonymous": false,
      "inputs": [
        {
          "indexed": true,
          "internalType": "bytes32",
          "name": "role",
          "type": "bytes32"
        },
        {
          "indexed": true,
          "internalType": "bytes32",
          "name": "previousAdminRole",
          "type": "bytes32"
        },
        {
          "indexed": true,
          "internalType": "bytes32",
          "name": "newAdminRole",
          "type": "bytes32"
        }
      ],
      "name": "RoleAdminChanged",
      "type": "event"
    },
    {
      "anonymous": false,
      "inputs": [
        {
          "indexed": true,
          "internalType": "bytes32",
          "name": "role",
          "type": "bytes32"
        },
        {
          "indexed": true,
          "internalType": "address",
          "name": "account",
          "type": "address"
        },
        {
          "indexed": true,
          "internalType": "address",
          "name": "sender",
          "type": "address"
        }
      ],
      "name": "RoleGranted",
      "type": "event"
    },
    {
      "anonymous": false,
      "inputs": [
        {
          "indexed": true,
          "internalType": "bytes32",
          "name": "role",
          "type": "bytes32"
        },
        {
          "indexed": true,
          "internalType": "address",
          "name": "account",
          "type": "address"
        },
        {
          "indexed": true,
          "internalType": "address",
          "name": "sender",
          "type": "address"
        }
      ],
      "name": "RoleRevoked",
      "type": "event"
    },
    {
      "anonymous": false,
      "inputs": [
        {
          "indexed": false,
          "internalType": "address",
          "name": "account",
          "type": "address"
        }
      ],
      "name": "Unpaused",
      "type": "event"
    },
    {
      "inputs": [],
      "name": "DEFAULT_ADMIN_ROLE",
      "outputs": [
        {
          "internalType": "bytes32",
          "name": "",
          "type": "bytes32"
        }
      ],
      "stateMutability": "view",
      "type": "function"
    },
    {
      "inputs": [],
      "name": "LEGAL_ROLE",
      "outputs": [
        {
          "internalType": "bytes32",
          "name": "",
          "type": "bytes32"
        }
      ],
      "stateMutability": "view",
      "type": "function"
    },
    {
      "inputs": [],
      "name": "OPERATOR_ROLE",
      "outputs": [
        {
          "internalType": "bytes32",
          "name": "",
          "type": "bytes32"
        }
      ],
      "stateMutability": "view",
      "type": "function"
    },
    {
      "inputs": [],
      "name": "REWARD_MANAGER",
      "outputs": [
        {
          "internalType": "bytes32",
          "name": "",
          "type": "bytes32"
        }
      ],
      "stateMutability": "view",
      "type": "function"
    },
    {
      "inputs": [
        {
          "internalType": "address[]",
          "name": "accounts",
          "type": "address[]"
        },
        {
          "internalType": "bool",
          "name": "approved",
          "type": "bool"
        }
      ],
      "name": "batchApproveKYC",
      "outputs": [],
      "stateMutability": "nonpayable",
      "type": "function"
    },
    {
      "inputs": [
        {
          "internalType": "address",
          "name": "user",
          "type": "address"
        },
        {
          "internalType": "uint256",
          "name": "baseAmount",
          "type": "uint256"
        }
      ],
      "name": "calculateRewards",
      "outputs": [
        {
          "internalType": "uint256",
          "name": "",
          "type": "uint256"
        }
      ],
      "stateMutability": "view",
      "type": "function"
    },
    {
      "inputs": [
        {
          "internalType": "address",
          "name": "",
          "type": "address"
        }
      ],
      "name": "communityScores",
      "outputs": [
        {
          "internalType": "uint256",
          "name": "",
          "type": "uint256"
        }
      ],
      "stateMutability": "view",
      "type": "function"
    },
    {
      "inputs": [
        {
          "internalType": "uint256",
          "name": "newBaseRate",
          "type": "uint256"
        },
        {
          "internalType": "uint256",
          "name": "newMultiplier",
          "type": "uint256"
        },
        {
          "internalType": "uint256",
          "name": "newLeaseBonus",
          "type": "uint256"
        }
      ],
      "name": "configureRewards",
      "outputs": [],
      "stateMutability": "nonpayable",
      "type": "function"
    },
    {
      "inputs": [
        {
          "internalType": "uint256",
          "name": "functionId",
          "type": "uint256"
        },
        {
          "internalType": "bool",
          "name": "paused",
          "type": "bool"
        }
      ],
      "name": "emergencyPauseFunction",
      "outputs": [],
      "stateMutability": "nonpayable",
      "type": "function"
    },
    {
      "inputs": [],
      "name": "feeConfig",
      "outputs": [
        {
          "internalType": "uint256",
          "name": "baseFee",
          "type": "uint256"
        },
        {
          "internalType": "uint256",
          "name": "maxFee",
          "type": "uint256"
        },
        {
          "internalType": "address",
          "name": "feeCollector",
          "type": "address"
        }
      ],
      "stateMutability": "view",
      "type": "function"
    },
    {
      "inputs": [
        {
          "internalType": "uint256",
          "name": "",
          "type": "uint256"
        }
      ],
      "name": "functionPaused",
      "outputs": [
        {
          "internalType": "bool",
          "name": "",
          "type": "bool"
        }
      ],
      "stateMutability": "view",
      "type": "function"
    },
    {
      "inputs": [],
      "name": "getCurrentFee",
      "outputs": [
        {
          "internalType": "uint256",
          "name": "",
          "type": "uint256"
        }
      ],
      "stateMutability": "view",
      "type": "function"
    },
    {
      "inputs": [
        {
          "internalType": "bytes32",
          "name": "role",
          "type": "bytes32"
        }
      ],
      "name": "getRoleAdmin",
      "outputs": [
        {
          "internalType": "bytes32",
          "name": "",
          "type": "bytes32"
        }
      ],
      "stateMutability": "view",
      "type": "function"
    },
    {
      "inputs": [],
      "name": "globalPause",
      "outputs": [],
      "stateMutability": "nonpayable",
      "type": "function"
    },
    {
      "inputs": [],
      "name": "globalUnpause",
      "outputs": [],
      "stateMutability": "nonpayable",
      "type": "function"
    },
    {
      "inputs": [
        {
          "internalType": "bytes32",
          "name": "role",
          "type": "bytes32"
        },
        {
          "internalType": "address",
          "name": "account",
          "type": "address"
        }
      ],
      "name": "grantRole",
      "outputs": [],
      "stateMutability": "nonpayable",
      "type": "function"
    },
    {
      "inputs": [
        {
          "internalType": "bytes32",
          "name": "role",
          "type": "bytes32"
        },
        {
          "internalType": "address",
          "name": "account",
          "type": "address"
        }
      ],
      "name": "hasRole",
      "outputs": [
        {
          "internalType": "bool",
          "name": "",
          "type": "bool"
        }
      ],
      "stateMutability": "view",
      "type": "function"
    },
    {
      "inputs": [
        {
          "internalType": "address",
          "name": "account",
          "type": "address"
        }
      ],
      "name": "isKYCVerified",
      "outputs": [
        {
          "internalType": "bool",
          "name": "",
          "type": "bool"
        }
      ],
      "stateMutability": "view",
      "type": "function"
    },
    {
      "inputs": [],
      "name": "paused",
      "outputs": [
        {
          "internalType": "bool",
          "name": "",
          "type": "bool"
        }
      ],
      "stateMutability": "view",
      "type": "function"
    },
    {
      "inputs": [
        {
          "internalType": "bytes32",
          "name": "role",
          "type": "bytes32"
        },
        {
          "internalType": "address",
          "name": "account",
          "type": "address"
        }
      ],
      "name": "renounceRole",
      "outputs": [],
      "stateMutability": "nonpayable",
      "type": "function"
    },
    {
      "inputs": [
        {
          "internalType": "bytes32",
          "name": "role",
          "type": "bytes32"
        },
        {
          "internalType": "address",
          "name": "account",
          "type": "address"
        }
      ],
      "name": "revokeRole",
      "outputs": [],
      "stateMutability": "nonpayable",
      "type": "function"
    },
    {
      "inputs": [],
      "name": "rewardParams",
      "outputs": [
        {
          "internalType": "uint256",
          "name": "baseRate",
          "type": "uint256"
        },
        {
          "internalType": "uint256",
          "name": "communityMultiplier",
          "type": "uint256"
        },
        {
          "internalType": "uint256",
          "name": "maxLeaseBonus",
          "type": "uint256"
        },
        {
          "internalType": "address",
          "name": "rewardsVault",
          "type": "address"
        }
      ],
      "stateMutability": "view",
      "type": "function"
    },
    {
      "inputs": [
        {
          "internalType": "bytes4",
          "name": "interfaceId",
          "type": "bytes4"
        }
      ],
      "name": "supportsInterface",
      "outputs": [
        {
          "internalType": "bool",
          "name": "",
          "type": "bool"
        }
      ],
      "stateMutability": "view",
      "type": "function"
    },
    {
      "inputs": [
        {
          "internalType": "address",
          "name": "user",
          "type": "address"
        },
        {
          "internalType": "uint256",
          "name": "scoreDelta",
          "type": "uint256"
        },
        {
          "internalType": "bool",
          "name": "isAddition",
          "type": "bool"
        }
      ],
      "name": "updateCommunityScore",
      "outputs": [],
      "stateMutability": "nonpayable",
      "type": "function"
    },
    {
      "inputs": [
        {
          "internalType": "uint256",
          "name": "newBaseFee",
          "type": "uint256"
        },
        {
          "internalType": "address",
          "name": "newCollector",
          "type": "address"
        }
      ],
      "name": "updateFeeConfig",
      "outputs": [],
      "stateMutability": "nonpayable",
      "type": "function"
    }
  ],
  "bytecode": "0x60806040523480156200001157600080fd5b50604051620029ef380380620029ef833981810160405281019062000037919062000494565b6000600160006101000a81548160ff021916908315150217905550600073ffffffffffffffffffffffffffffffffffffffff168373ffffffffffffffffffffffffffffffffffffffff1603620000c4576040517f08c379a0000000000000000000000000000000000000000000000000000000008152600401620000bb9062000551565b60405180910390fd5b620000d5836200021960201b60201c565b604051806060016040528060c881526020016103e881526020018373ffffffffffffffffffffffffffffffffffffffff168152506002600082015181600001556020820151816001015560408201518160020160006101000a81548173ffffffffffffffffffffffffffffffffffffffff021916908373ffffffffffffffffffffffffffffffffffffffff16021790555090505060405180608001604052806103e881526020016107d0815260200161012c81526020018273ffffffffffffffffffffffffffffffffffffffff16815250600560008201518160000155602082015181600101556040820151816002015560608201518160030160006101000a81548173ffffffffffffffffffffffffffffffffffffffff021916908373ffffffffffffffffffffffffffffffffffffffff16021790555090505050505062000573565b6200022e6000801b82620002c760201b60201c565b620002607f97667070c54ef182b0f5858b034beac1b6f3089aa2d3188bb1e8929f4fa9b92982620002c760201b60201c565b620002927fb9f13ecb5e7f0f859c44b76b3a163e504787b446da95a26bf75e53e1ff4a1e0e82620002c760201b60201c565b620002c47f6393fa734211156fcc8c7dda6b0650f5c731d4c838c1db43445a149aa2f5b6fe82620002c760201b60201c565b50565b620002d98282620003b860201b60201c565b620003b457600160008084815260200190815260200160002060000160008373ffffffffffffffffffffffffffffffffffffffff1673ffffffffffffffffffffffffffffffffffffffff16815260200190815260200160002060006101000a81548160ff021916908315150217905550620003596200042260201b60201c565b73ffffffffffffffffffffffffffffffffffffffff168173ffffffffffffffffffffffffffffffffffffffff16837f2f8788117e7eff1d82e926ec794901d17c78024a50270940304540a733656f0d60405160405180910390a45b5050565b600080600084815260200190815260200160002060000160008373ffffffffffffffffffffffffffffffffffffffff1673ffffffffffffffffffffffffffffffffffffffff16815260200190815260200160002060009054906101000a900460ff16905092915050565b600033905090565b600080fd5b600073ffffffffffffffffffffffffffffffffffffffff82169050919050565b60006200045c826200042f565b9050919050565b6200046e816200044f565b81146200047a57600080fd5b50565b6000815190506200048e8162000463565b92915050565b600080600060608486031215620004b057620004af6200042a565b5b6000620004c0868287016200047d565b9350506020620004d3868287016200047d565b9250506040620004e6868287016200047d565b9150509250925092565b600082825260208201905092915050565b7f496e76616c69642061646d696e20616464726573730000000000000000000000600082015250565b600062000539601583620004f0565b9150620005468262000501565b602082019050919050565b600060208201905081810360008301526200056c816200052a565b9050919050565b61246c80620005836000396000f3fe608060405234801561001057600080fd5b50600436106101735760003560e01c806388f0bc73116100de578063ce19057811610097578063ee5b8e0e11610071578063ee5b8e0e1461043b578063f12d54d81461046b578063f5b541a614610475578063f70d93621461049357610173565b8063ce190578146103f9578063cf23913b14610403578063d547741f1461041f57610173565b806388f0bc73146103255780638e7579a11461034157806391d148541461035f578063a217fddf1461038f578063a33b2d3f146103ad578063beb8314c146103c957610173565b806354b7636e1161013057806354b7636e1461024c5780635932fdba1461027c5780635c975abb1461029a5780635dda3e01146102b857806373c250c6146102d4578063763469141461030457610173565b806301ffc9a7146101785780631e5eb1d0146101a8578063248a9ca3146101c85780632f2ff15d146101f857806336568abe146102145780634a277ec514610230575b600080fd5b610192600480360381019061018d919061174b565b6104b1565b60405161019f9190611793565b60405180910390f35b6101b061052b565b6040516101bf93929190611808565b60405180910390f35b6101e260048036038101906101dd9190611875565b610563565b6040516101ef91906118b1565b60405180910390f35b610212600480360381019061020d91906118f8565b610582565b005b61022e600480360381019061022991906118f8565b6105a3565b005b61024a60048036038101906102459190611964565b610626565b005b610266600480360381019061026191906119b7565b61077c565b6040516102739190611793565b60405180910390f35b610284610799565b60405161029191906118b1565b60405180910390f35b6102a26107bd565b6040516102af9190611793565b60405180910390f35b6102d260048036038101906102cd9190611a75565b6107d4565b005b6102ee60048036038101906102e991906119b7565b61091d565b6040516102fb9190611ad5565b60405180910390f35b61030c610935565b60405161031c9493929190611af0565b60405180910390f35b61033f600480360381019061033a9190611b35565b610973565b005b610349610a75565b60405161035691906118b1565b60405180910390f35b610379600480360381019061037491906118f8565b610a99565b6040516103869190611793565b60405180910390f35b610397610b03565b6040516103a491906118b1565b60405180910390f35b6103c760048036038101906103c29190611b75565b610b0a565b005b6103e360048036038101906103de9190611bc8565b610c78565b6040516103f09190611ad5565b60405180910390f35b610401610cd1565b005b61041d60048036038101906104189190611c08565b610ce9565b005b610439600480360381019061043491906118f8565b610d26565b005b61045560048036038101906104509190611c48565b610d47565b6040516104629190611793565b60405180910390f35b610473610d67565b005b61047d610d7f565b60405161048a91906118b1565b60405180910390f35b61049b610da3565b6040516104a89190611ad5565b60405180910390f35b60007f7965db0b000000000000000000000000000000000000000000000000000000007bffffffffffffffffffffffffffffffffffffffffffffffffffffffff1916827bffffffffffffffffffffffffffffffffffffffffffffffffffffffff19161480610524575061052382610db0565b5b9050919050565b60028060000154908060010154908060020160009054906101000a900473ffffffffffffffffffffffffffffffffffffffff16905083565b6000806000838152602001908152602001600020600101549050919050565b61058b82610563565b61059481610e1a565b61059e8383610e2e565b505050565b6105ab610f0e565b73ffffffffffffffffffffffffffffffffffffffff168173ffffffffffffffffffffffffffffffffffffffff1614610618576040517f08c379a000000000000000000000000000000000000000000000000000000000815260040161060f90611cf8565b60405180910390fd5b6106228282610f16565b5050565b7f6393fa734211156fcc8c7dda6b0650f5c731d4c838c1db43445a149aa2f5b6fe61065081610e1a565b6107d0841115610695576040517f08c379a000000000000000000000000000000000000000000000000000000000815260040161068c90611d64565b60405180910390fd5b6105dc8311156106da576040517f08c379a00000000000000000000000000000000000000000000000000000000081526004016106d190611dd0565b60405180910390fd5b6101f482111561071f576040517f08c379a000000000000000000000000000000000000000000000000000000000815260040161071690611e3c565b60405180910390fd5b8360056000018190555082600560010181905550816005600201819055507ff3a6ee10a78fb7d212e87d9be970fb16bd7324e9dc9c38d21cd7ecde781a1d2a848460405161076e929190611e5c565b60405180910390a150505050565b6000610792826009610ff790919063ffffffff16565b9050919050565b7f6393fa734211156fcc8c7dda6b0650f5c731d4c838c1db43445a149aa2f5b6fe81565b6000600160009054906101000a900460ff16905090565b7fb9f13ecb5e7f0f859c44b76b3a163e504787b446da95a26bf75e53e1ff4a1e0e6107fe81610e1a565b60005b8484905081101561091657826108515761084c85858381811061082757610826611e85565b5b905060200201602081019061083c91906119b7565b600961102790919063ffffffff16565b61088d565b61088c85858381811061086757610866611e85565b5b905060200201602081019061087c91906119b7565b600961105790919063ffffffff16565b5b508484828181106108a1576108a0611e85565b5b90506020020160208101906108b691906119b7565b73ffffffffffffffffffffffffffffffffffffffff167f2df1cad2a2659e001c3804c872f69655356013e35c18c2e77a5d568078ab788f846040516108fb9190611793565b60405180910390a2808061090e90611ee3565b915050610801565b5050505050565b600b6020528060005260406000206000915090505481565b60058060000154908060010154908060020154908060030160009054906101000a900473ffffffffffffffffffffffffffffffffffffffff16905084565b7f97667070c54ef182b0f5858b034beac1b6f3089aa2d3188bb1e8929f4fa9b92961099d81610e1a565b6002600101548311156109e5576040517f08c379a00000000000000000000000000000000000000000000000000000000081526004016109dc90611f77565b60405180910390fd5b82600260000181905550816002800160006101000a81548173ffffffffffffffffffffffffffffffffffffffff021916908373ffffffffffffffffffffffffffffffffffffffff1602179055507f1eab951da250f7e001396235b296e29bc73945b6a52fd471dd8f3de3398634be83600260010154604051610a68929190611e5c565b60405180910390a1505050565b7fb9f13ecb5e7f0f859c44b76b3a163e504787b446da95a26bf75e53e1ff4a1e0e81565b600080600084815260200190815260200160002060000160008373ffffffffffffffffffffffffffffffffffffffff1673ffffffffffffffffffffffffffffffffffffffff16815260200190815260200160002060009054906101000a900460ff16905092915050565b6000801b81565b7f97667070c54ef182b0f5858b034beac1b6f3089aa2d3188bb1e8929f4fa9b929610b3481610e1a565b8115610b955782600b60008673ffffffffffffffffffffffffffffffffffffffff1673ffffffffffffffffffffffffffffffffffffffff1681526020019081526020016000206000828254610b899190611f97565b92505081905550610c72565b82600b60008673ffffffffffffffffffffffffffffffffffffffff1673ffffffffffffffffffffffffffffffffffffffff1681526020019081526020016000205411610be2576000610c2e565b82600b60008673ffffffffffffffffffffffffffffffffffffffff1673ffffffffffffffffffffffffffffffffffffffff16815260200190815260200160002054610c2d9190611fcb565b5b600b60008673ffffffffffffffffffffffffffffffffffffffff1673ffffffffffffffffffffffffffffffffffffffff168152602001908152602001600020819055505b50505050565b600080610c8484611087565b90506000610c9185611096565b90506127108183600560000154610ca89190611f97565b610cb29190611f97565b85610cbd9190611fff565b610cc79190612070565b9250505092915050565b6000801b610cde81610e1a565b610ce66110fc565b50565b6000801b610cf681610e1a565b81600c600085815260200190815260200160002060006101000a81548160ff021916908315150217905550505050565b610d2f82610563565b610d3881610e1a565b610d428383610f16565b505050565b600c6020528060005260406000206000915054906101000a900460ff1681565b6000801b610d7481610e1a565b610d7c61115f565b50565b7f97667070c54ef182b0f5858b034beac1b6f3089aa2d3188bb1e8929f4fa9b92981565b6000600260000154905090565b60007f01ffc9a7000000000000000000000000000000000000000000000000000000007bffffffffffffffffffffffffffffffffffffffffffffffffffffffff1916827bffffffffffffffffffffffffffffffffffffffffffffffffffffffff1916149050919050565b610e2b81610e26610f0e565b6111c1565b50565b610e388282610a99565b610f0a57600160008084815260200190815260200160002060000160008373ffffffffffffffffffffffffffffffffffffffff1673ffffffffffffffffffffffffffffffffffffffff16815260200190815260200160002060006101000a81548160ff021916908315150217905550610eaf610f0e565b73ffffffffffffffffffffffffffffffffffffffff168173ffffffffffffffffffffffffffffffffffffffff16837f2f8788117e7eff1d82e926ec794901d17c78024a50270940304540a733656f0d60405160405180910390a45b5050565b600033905090565b610f208282610a99565b15610ff357600080600084815260200190815260200160002060000160008373ffffffffffffffffffffffffffffffffffffffff1673ffffffffffffffffffffffffffffffffffffffff16815260200190815260200160002060006101000a81548160ff021916908315150217905550610f98610f0e565b73ffffffffffffffffffffffffffffffffffffffff168173ffffffffffffffffffffffffffffffffffffffff16837ff6391f5c32d9c69d2a47ea670b442974b53935d1edc7fd64eb21e047a839171b60405160405180910390a45b5050565b600061101f836000018373ffffffffffffffffffffffffffffffffffffffff1660001b611246565b905092915050565b600061104f836000018373ffffffffffffffffffffffffffffffffffffffff1660001b611269565b905092915050565b600061107f836000018373ffffffffffffffffffffffffffffffffffffffff1660001b61137d565b905092915050565b60006005600201549050919050565b600080600b60008473ffffffffffffffffffffffffffffffffffffffff1673ffffffffffffffffffffffffffffffffffffffff16815260200190815260200160002054905060056001015481116110ed57806110f4565b6005600101545b915050919050565b6111046113ed565b6000600160006101000a81548160ff0219169083151502179055507f5db9ee0a495bf2e6ff9c91a7834c1ba4fdd244a5e8aa4e537bd38aeae4b073aa611148610f0e565b60405161115591906120a1565b60405180910390a1565b611167611436565b60018060006101000a81548160ff0219169083151502179055507f62e78cea01bee320cd4e420270b5ea74000d11b0c9f74754ebdbfc544b05a2586111aa610f0e565b6040516111b791906120a1565b60405180910390a1565b6111cb8282610a99565b611242576111d881611480565b6111e68360001c60206114ad565b6040516020016111f79291906121c5565b6040516020818303038152906040526040517f08c379a00000000000000000000000000000000000000000000000000000000081526004016112399190612249565b60405180910390fd5b5050565b600080836001016000848152602001908152602001600020541415905092915050565b6000808360010160008481526020019081526020016000205490506000811461137157600060018261129b9190611fcb565b90506000600186600001805490506112b39190611fcb565b90508181146113225760008660000182815481106112d4576112d3611e85565b5b90600052602060002001549050808760000184815481106112f8576112f7611e85565b5b90600052602060002001819055508387600101600083815260200190815260200160002081905550505b856000018054806113365761133561226b565b5b600190038181906000526020600020016000905590558560010160008681526020019081526020016000206000905560019350505050611377565b60009150505b92915050565b60006113898383611246565b6113e25782600001829080600181540180825580915050600190039060005260206000200160009091909190915055826000018054905083600101600084815260200190815260200160002081905550600190506113e7565b600090505b92915050565b6113f56107bd565b611434576040517f08c379a000000000000000000000000000000000000000000000000000000000815260040161142b906122e6565b60405180910390fd5b565b61143e6107bd565b1561147e576040517f08c379a000000000000000000000000000000000000000000000000000000000815260040161147590612352565b60405180910390fd5b565b60606114a68273ffffffffffffffffffffffffffffffffffffffff16601460ff166114ad565b9050919050565b6060600060028360026114c09190611fff565b6114ca9190611f97565b67ffffffffffffffff8111156114e3576114e2612372565b5b6040519080825280601f01601f1916602001820160405280156115155781602001600182028036833780820191505090505b5090507f30000000000000000000000000000000000000000000000000000000000000008160008151811061154d5761154c611e85565b5b60200101907effffffffffffffffffffffffffffffffffffffffffffffffffffffffffffff1916908160001a9053507f7800000000000000000000000000000000000000000000000000000000000000816001815181106115b1576115b0611e85565b5b60200101907effffffffffffffffffffffffffffffffffffffffffffffffffffffffffffff1916908160001a905350600060018460026115f19190611fff565b6115fb9190611f97565b90505b600181111561169b577f3031323334353637383961626364656600000000000000000000000000000000600f86166010811061163d5761163c611e85565b5b1a60f81b82828151811061165457611653611e85565b5b60200101907effffffffffffffffffffffffffffffffffffffffffffffffffffffffffffff1916908160001a905350600485901c945080611694906123a1565b90506115fe565b50600084146116df576040517f08c379a00000000000000000000000000000000000000000000000000000000081526004016116d690612416565b60405180910390fd5b8091505092915050565b600080fd5b600080fd5b60007fffffffff0000000000000000000000000000000000000000000000000000000082169050919050565b611728816116f3565b811461173357600080fd5b50565b6000813590506117458161171f565b92915050565b600060208284031215611761576117606116e9565b5b600061176f84828501611736565b91505092915050565b60008115159050919050565b61178d81611778565b82525050565b60006020820190506117a86000830184611784565b92915050565b6000819050919050565b6117c1816117ae565b82525050565b600073ffffffffffffffffffffffffffffffffffffffff82169050919050565b60006117f2826117c7565b9050919050565b611802816117e7565b82525050565b600060608201905061181d60008301866117b8565b61182a60208301856117b8565b61183760408301846117f9565b949350505050565b6000819050919050565b6118528161183f565b811461185d57600080fd5b50565b60008135905061186f81611849565b92915050565b60006020828403121561188b5761188a6116e9565b5b600061189984828501611860565b91505092915050565b6118ab8161183f565b82525050565b60006020820190506118c660008301846118a2565b92915050565b6118d5816117e7565b81146118e057600080fd5b50565b6000813590506118f2816118cc565b92915050565b6000806040838503121561190f5761190e6116e9565b5b600061191d85828601611860565b925050602061192e858286016118e3565b9150509250929050565b611941816117ae565b811461194c57600080fd5b50565b60008135905061195e81611938565b92915050565b60008060006060848603121561197d5761197c6116e9565b5b600061198b8682870161194f565b935050602061199c8682870161194f565b92505060406119ad8682870161194f565b9150509250925092565b6000602082840312156119cd576119cc6116e9565b5b60006119db848285016118e3565b91505092915050565b600080fd5b600080fd5b600080fd5b60008083601f840112611a0957611a086119e4565b5b8235905067ffffffffffffffff811115611a2657611a256119e9565b5b602083019150836020820283011115611a4257611a416119ee565b5b9250929050565b611a5281611778565b8114611a5d57600080fd5b50565b600081359050611a6f81611a49565b92915050565b600080600060408486031215611a8e57611a8d6116e9565b5b600084013567ffffffffffffffff811115611aac57611aab6116ee565b5b611ab8868287016119f3565b93509350506020611acb86828701611a60565b9150509250925092565b6000602082019050611aea60008301846117b8565b92915050565b6000608082019050611b0560008301876117b8565b611b1260208301866117b8565b611b1f60408301856117b8565b611b2c60608301846117f9565b95945050505050565b60008060408385031215611b4c57611b4b6116e9565b5b6000611b5a8582860161194f565b9250506020611b6b858286016118e3565b9150509250929050565b600080600060608486031215611b8e57611b8d6116e9565b5b6000611b9c868287016118e3565b9350506020611bad8682870161194f565b9250506040611bbe86828701611a60565b9150509250925092565b60008060408385031215611bdf57611bde6116e9565b5b6000611bed858286016118e3565b9250506020611bfe8582860161194f565b9150509250929050565b60008060408385031215611c1f57611c1e6116e9565b5b6000611c2d8582860161194f565b9250506020611c3e85828601611a60565b9150509250929050565b600060208284031215611c5e57611c5d6116e9565b5b6000611c6c8482850161194f565b91505092915050565b600082825260208201905092915050565b7f416363657373436f6e74726f6c3a2063616e206f6e6c792072656e6f756e636560008201527f20726f6c657320666f722073656c660000000000000000000000000000000000602082015250565b6000611ce2602f83611c75565b9150611ced82611c86565b604082019050919050565b60006020820190508181036000830152611d1181611cd5565b9050919050565b7f426173652072617465203e323025000000000000000000000000000000000000600082015250565b6000611d4e600e83611c75565b9150611d5982611d18565b602082019050919050565b60006020820190508181036000830152611d7d81611d41565b9050919050565b7f4d756c7469706c696572203e3135250000000000000000000000000000000000600082015250565b6000611dba600f83611c75565b9150611dc582611d84565b602082019050919050565b60006020820190508181036000830152611de981611dad565b9050919050565b7f4c6561736520626f6e7573203e35250000000000000000000000000000000000600082015250565b6000611e26600f83611c75565b9150611e3182611df0565b602082019050919050565b60006020820190508181036000830152611e5581611e19565b9050919050565b6000604082019050611e7160008301856117b8565b611e7e60208301846117b8565b9392505050565b7f4e487b7100000000000000000000000000000000000000000000000000000000600052603260045260246000fd5b7f4e487b7100000000000000000000000000000000000000000000000000000000600052601160045260246000fd5b6000611eee826117ae565b91507fffffffffffffffffffffffffffffffffffffffffffffffffffffffffffffffff8203611f2057611f1f611eb4565b5b600182019050919050565b7f45786365656473206d6178206665650000000000000000000000000000000000600082015250565b6000611f61600f83611c75565b9150611f6c82611f2b565b602082019050919050565b60006020820190508181036000830152611f9081611f54565b9050919050565b6000611fa2826117ae565b9150611fad836117ae565b9250828201905080821115611fc557611fc4611eb4565b5b92915050565b6000611fd6826117ae565b9150611fe1836117ae565b9250828203905081811115611ff957611ff8611eb4565b5b92915050565b600061200a826117ae565b9150612015836117ae565b9250828202612023816117ae565b9150828204841483151761203a57612039611eb4565b5b5092915050565b7f4e487b7100000000000000000000000000000000000000000000000000000000600052601260045260246000fd5b600061207b826117ae565b9150612086836117ae565b92508261209657612095612041565b5b828204905092915050565b60006020820190506120b660008301846117f9565b92915050565b600081905092915050565b7f416363657373436f6e74726f6c3a206163636f756e7420000000000000000000600082015250565b60006120fd6017836120bc565b9150612108826120c7565b601782019050919050565b600081519050919050565b60005b8381101561213c578082015181840152602081019050612121565b60008484015250505050565b600061215382612113565b61215d81856120bc565b935061216d81856020860161211e565b80840191505092915050565b7f206973206d697373696e6720726f6c6520000000000000000000000000000000600082015250565b60006121af6011836120bc565b91506121ba82612179565b601182019050919050565b60006121d0826120f0565b91506121dc8285612148565b91506121e7826121a2565b91506121f38284612148565b91508190509392505050565b6000601f19601f8301169050919050565b600061221b82612113565b6122258185611c75565b935061223581856020860161211e565b61223e816121ff565b840191505092915050565b600060208201905081810360008301526122638184612210565b905092915050565b7f4e487b7100000000000000000000000000000000000000000000000000000000600052603160045260246000fd5b7f5061757361626c653a206e6f7420706175736564000000000000000000000000600082015250565b60006122d0601483611c75565b91506122db8261229a565b602082019050919050565b600060208201905081810360008301526122ff816122c3565b9050919050565b7f5061757361626c653a2070617573656400000000000000000000000000000000600082015250565b600061233c601083611c75565b915061234782612306565b602082019050919050565b6000602082019050818103600083015261236b8161232f565b9050919050565b7f4e487b7100000000000000000000000000000000000000000000000000000000600052604160045260246000fd5b60006123ac826117ae565b9150600082036123bf576123be611eb4565b5b600182039050919050565b7f537472696e67733a20686578206c656e67746820696e73756666696369656e74600082015250565b6000612400602083611c75565b915061240b826123ca565b602082019050919050565b6000602082019050818103600083015261242f816123f3565b905091905056fea2646970667358221220af0b2573d23abd9bb01efb80be53a89c9117ee97daf283305a231b41fe0d365e64736f6c63430008140033",
  "linkReferences": {},
  "deployedLinkReferences": {}
}