{
  "_format": "hh-sol-artifact-1",
  "contractName": "AdminControl",
  "sourceName": "contracts/governance/AdminControl.sol",
  "abi": [
    {
      "inputs": [
        {
          "internalType": "address",
          "name": "initialAdmin",
          "type": "address"
        },
        {
          "internalType": "address",
          "name": "feeCollector",
          "type": "address"
        },
        {
          "internalType": "address",
          "name": "rewardsVault",
          "type": "address"
        }
      ],
      "stateMutability": "nonpayable",
      "type": "constructor"
    },
    {
      "anonymous": false,
      "inputs": [
        {
          "indexed": false,
          "internalType": "uint256",
          "name": "newBaseFee",
          "type": "uint256"
        },
        {
          "indexed": false,
          "internalType": "uint256",
          "name": "newMaxFee",
          "type": "uint256"
        }
      ],
      "name": "FeeConfigUpdated",
      "type": "event"
    },
    {
      "anonymous": false,
      "inputs": [
        {
          "indexed": true,
          "internalType": "address",
          "name": "account",
          "type": "address"
        },
        {
          "indexed": false,
          "internalType": "bool",
          "name": "status",
          "type": "bool"
        }
      ],
      "name": "KYCStatusUpdated",
      "type": "event"
    },
    {
      "anonymous": false,
      "inputs": [
        {
          "indexed": false,
          "internalType": "address",
          "name": "account",
          "type": "address"
        }
      ],
      "name": "Paused",
      "type": "event"
    },
    {
      "anonymous": false,
      "inputs": [
        {
          "indexed": false,
          "internalType": "uint256",
          "name": "newBaseRate",
          "type": "uint256"
        },
        {
          "indexed": false,
          "internalType": "uint256",
          "name": "newMultiplier",
          "type": "uint256"
        }
      ],
      "name": "RewardParametersUpdated",
      "type": "event"
    },
    {
      "anonymous": false,
      "inputs": [
        {
          "indexed": true,
          "internalType": "bytes32",
          "name": "role",
          "type": "bytes32"
        },
        {
          "indexed": true,
          "internalType": "bytes32",
          "name": "previousAdminRole",
          "type": "bytes32"
        },
        {
          "indexed": true,
          "internalType": "bytes32",
          "name": "newAdminRole",
          "type": "bytes32"
        }
      ],
      "name": "RoleAdminChanged",
      "type": "event"
    },
    {
      "anonymous": false,
      "inputs": [
        {
          "indexed": true,
          "internalType": "bytes32",
          "name": "role",
          "type": "bytes32"
        },
        {
          "indexed": true,
          "internalType": "address",
          "name": "account",
          "type": "address"
        },
        {
          "indexed": true,
          "internalType": "address",
          "name": "sender",
          "type": "address"
        }
      ],
      "name": "RoleGranted",
      "type": "event"
    },
    {
      "anonymous": false,
      "inputs": [
        {
          "indexed": true,
          "internalType": "bytes32",
          "name": "role",
          "type": "bytes32"
        },
        {
          "indexed": true,
          "internalType": "address",
          "name": "account",
          "type": "address"
        },
        {
          "indexed": true,
          "internalType": "address",
          "name": "sender",
          "type": "address"
        }
      ],
      "name": "RoleRevoked",
      "type": "event"
    },
    {
      "anonymous": false,
      "inputs": [
        {
          "indexed": false,
          "internalType": "address",
          "name": "account",
          "type": "address"
        }
      ],
      "name": "Unpaused",
      "type": "event"
    },
    {
      "inputs": [],
      "name": "DEFAULT_ADMIN_ROLE",
      "outputs": [
        {
          "internalType": "bytes32",
          "name": "",
          "type": "bytes32"
        }
      ],
      "stateMutability": "view",
      "type": "function"
    },
    {
      "inputs": [],
      "name": "LEGAL_ROLE",
      "outputs": [
        {
          "internalType": "bytes32",
          "name": "",
          "type": "bytes32"
        }
      ],
      "stateMutability": "view",
      "type": "function"
    },
    {
      "inputs": [],
      "name": "OPERATOR_ROLE",
      "outputs": [
        {
          "internalType": "bytes32",
          "name": "",
          "type": "bytes32"
        }
      ],
      "stateMutability": "view",
      "type": "function"
    },
    {
      "inputs": [],
      "name": "REWARD_MANAGER",
      "outputs": [
        {
          "internalType": "bytes32",
          "name": "",
          "type": "bytes32"
        }
      ],
      "stateMutability": "view",
      "type": "function"
    },
    {
      "inputs": [
        {
          "internalType": "address[]",
          "name": "accounts",
          "type": "address[]"
        },
        {
          "internalType": "bool",
          "name": "approved",
          "type": "bool"
        }
      ],
      "name": "batchApproveKYC",
      "outputs": [],
      "stateMutability": "nonpayable",
      "type": "function"
    },
    {
      "inputs": [
        {
          "internalType": "address",
          "name": "user",
          "type": "address"
        },
        {
          "internalType": "uint256",
          "name": "baseAmount",
          "type": "uint256"
        }
      ],
      "name": "calculateRewards",
      "outputs": [
        {
          "internalType": "uint256",
          "name": "",
          "type": "uint256"
        }
      ],
      "stateMutability": "view",
      "type": "function"
    },
    {
      "inputs": [
        {
          "internalType": "address",
          "name": "",
          "type": "address"
        }
      ],
      "name": "communityScores",
      "outputs": [
        {
          "internalType": "uint256",
          "name": "",
          "type": "uint256"
        }
      ],
      "stateMutability": "view",
      "type": "function"
    },
    {
      "inputs": [
        {
          "internalType": "uint256",
          "name": "newBaseRate",
          "type": "uint256"
        },
        {
          "internalType": "uint256",
          "name": "newMultiplier",
          "type": "uint256"
        },
        {
          "internalType": "uint256",
          "name": "newLeaseBonus",
          "type": "uint256"
        }
      ],
      "name": "configureRewards",
      "outputs": [],
      "stateMutability": "nonpayable",
      "type": "function"
    },
    {
      "inputs": [
        {
          "internalType": "uint256",
          "name": "functionId",
          "type": "uint256"
        },
        {
          "internalType": "bool",
          "name": "paused",
          "type": "bool"
        }
      ],
      "name": "emergencyPauseFunction",
      "outputs": [],
      "stateMutability": "nonpayable",
      "type": "function"
    },
    {
      "inputs": [],
      "name": "feeConfig",
      "outputs": [
        {
          "internalType": "uint256",
          "name": "baseFee",
          "type": "uint256"
        },
        {
          "internalType": "uint256",
          "name": "maxFee",
          "type": "uint256"
        },
        {
          "internalType": "address",
          "name": "feeCollector",
          "type": "address"
        }
      ],
      "stateMutability": "view",
      "type": "function"
    },
    {
      "inputs": [
        {
          "internalType": "uint256",
          "name": "",
          "type": "uint256"
        }
      ],
      "name": "functionPaused",
      "outputs": [
        {
          "internalType": "bool",
          "name": "",
          "type": "bool"
        }
      ],
      "stateMutability": "view",
      "type": "function"
    },
    {
      "inputs": [],
      "name": "getCurrentFee",
      "outputs": [
        {
          "internalType": "uint256",
          "name": "",
          "type": "uint256"
        }
      ],
      "stateMutability": "view",
      "type": "function"
    },
    {
      "inputs": [
        {
          "internalType": "bytes32",
          "name": "role",
          "type": "bytes32"
        }
      ],
      "name": "getRoleAdmin",
      "outputs": [
        {
          "internalType": "bytes32",
          "name": "",
          "type": "bytes32"
        }
      ],
      "stateMutability": "view",
      "type": "function"
    },
    {
      "inputs": [],
      "name": "globalPause",
      "outputs": [],
      "stateMutability": "nonpayable",
      "type": "function"
    },
    {
      "inputs": [],
      "name": "globalUnpause",
      "outputs": [],
      "stateMutability": "nonpayable",
      "type": "function"
    },
    {
      "inputs": [
        {
          "internalType": "bytes32",
          "name": "role",
          "type": "bytes32"
        },
        {
          "internalType": "address",
          "name": "account",
          "type": "address"
        }
      ],
      "name": "grantRole",
      "outputs": [],
      "stateMutability": "nonpayable",
      "type": "function"
    },
    {
      "inputs": [
        {
          "internalType": "bytes32",
          "name": "role",
          "type": "bytes32"
        },
        {
          "internalType": "address",
          "name": "account",
          "type": "address"
        }
      ],
      "name": "hasRole",
      "outputs": [
        {
          "internalType": "bool",
          "name": "",
          "type": "bool"
        }
      ],
      "stateMutability": "view",
      "type": "function"
    },
    {
      "inputs": [
        {
          "internalType": "address",
          "name": "account",
          "type": "address"
        }
      ],
      "name": "isKYCVerified",
      "outputs": [
        {
          "internalType": "bool",
          "name": "",
          "type": "bool"
        }
      ],
      "stateMutability": "view",
      "type": "function"
    },
    {
      "inputs": [],
      "name": "paused",
      "outputs": [
        {
          "internalType": "bool",
          "name": "",
          "type": "bool"
        }
      ],
      "stateMutability": "view",
      "type": "function"
    },
    {
      "inputs": [
        {
          "internalType": "bytes32",
          "name": "role",
          "type": "bytes32"
        },
        {
          "internalType": "address",
          "name": "account",
          "type": "address"
        }
      ],
      "name": "renounceRole",
      "outputs": [],
      "stateMutability": "nonpayable",
      "type": "function"
    },
    {
      "inputs": [
        {
          "internalType": "bytes32",
          "name": "role",
          "type": "bytes32"
        },
        {
          "internalType": "address",
          "name": "account",
          "type": "address"
        }
      ],
      "name": "revokeRole",
      "outputs": [],
      "stateMutability": "nonpayable",
      "type": "function"
    },
    {
      "inputs": [],
      "name": "rewardParams",
      "outputs": [
        {
          "internalType": "uint256",
          "name": "baseRate",
          "type": "uint256"
        },
        {
          "internalType": "uint256",
          "name": "communityMultiplier",
          "type": "uint256"
        },
        {
          "internalType": "uint256",
          "name": "maxLeaseBonus",
          "type": "uint256"
        },
        {
          "internalType": "address",
          "name": "rewardsVault",
          "type": "address"
        }
      ],
      "stateMutability": "view",
      "type": "function"
    },
    {
      "inputs": [
        {
          "internalType": "bytes4",
          "name": "interfaceId",
          "type": "bytes4"
        }
      ],
      "name": "supportsInterface",
      "outputs": [
        {
          "internalType": "bool",
          "name": "",
          "type": "bool"
        }
      ],
      "stateMutability": "view",
      "type": "function"
    },
    {
      "inputs": [
        {
          "internalType": "address",
          "name": "user",
          "type": "address"
        },
        {
          "internalType": "uint256",
          "name": "scoreDelta",
          "type": "uint256"
        },
        {
          "internalType": "bool",
          "name": "isAddition",
          "type": "bool"
        }
      ],
      "name": "updateCommunityScore",
      "outputs": [],
      "stateMutability": "nonpayable",
      "type": "function"
    },
    {
      "inputs": [
        {
          "internalType": "uint256",
          "name": "newBaseFee",
          "type": "uint256"
        },
        {
          "internalType": "address",
          "name": "newCollector",
          "type": "address"
        }
      ],
      "name": "updateFeeConfig",
      "outputs": [],
      "stateMutability": "nonpayable",
      "type": "function"
    }
  ],
  "bytecode": "0x608060405234801561001057600080fd5b5060405161297238038061297283398181016040528101906100329190610475565b6000600160006101000a81548160ff021916908315150217905550600073ffffffffffffffffffffffffffffffffffffffff168373ffffffffffffffffffffffffffffffffffffffff16036100bc576040517f08c379a00000000000000000000000000000000000000000000000000000000081526004016100b390610525565b60405180910390fd5b6100cb8361020e60201b60201c565b604051806060016040528060c881526020016103e881526020018373ffffffffffffffffffffffffffffffffffffffff168152506002600082015181600001556020820151816001015560408201518160020160006101000a81548173ffffffffffffffffffffffffffffffffffffffff021916908373ffffffffffffffffffffffffffffffffffffffff16021790555090505060405180608001604052806103e881526020016107d0815260200161012c81526020018273ffffffffffffffffffffffffffffffffffffffff16815250600560008201518160000155602082015181600101556040820151816002015560608201518160030160006101000a81548173ffffffffffffffffffffffffffffffffffffffff021916908373ffffffffffffffffffffffffffffffffffffffff160217905550905050505050610545565b6102216000801b826102b460201b60201c565b6102517f97667070c54ef182b0f5858b034beac1b6f3089aa2d3188bb1e8929f4fa9b929826102b460201b60201c565b6102817fb9f13ecb5e7f0f859c44b76b3a163e504787b446da95a26bf75e53e1ff4a1e0e826102b460201b60201c565b6102b17f6393fa734211156fcc8c7dda6b0650f5c731d4c838c1db43445a149aa2f5b6fe826102b460201b60201c565b50565b6102c482826103a060201b60201c565b61039c57600160008084815260200190815260200160002060000160008373ffffffffffffffffffffffffffffffffffffffff1673ffffffffffffffffffffffffffffffffffffffff16815260200190815260200160002060006101000a81548160ff02191690831515021790555061034161040a60201b60201c565b73ffffffffffffffffffffffffffffffffffffffff168173ffffffffffffffffffffffffffffffffffffffff16837f2f8788117e7eff1d82e926ec794901d17c78024a50270940304540a733656f0d60405160405180910390a45b5050565b600080600084815260200190815260200160002060000160008373ffffffffffffffffffffffffffffffffffffffff1673ffffffffffffffffffffffffffffffffffffffff16815260200190815260200160002060009054906101000a900460ff16905092915050565b600033905090565b600080fd5b600073ffffffffffffffffffffffffffffffffffffffff82169050919050565b600061044282610417565b9050919050565b61045281610437565b811461045d57600080fd5b50565b60008151905061046f81610449565b92915050565b60008060006060848603121561048e5761048d610412565b5b600061049c86828701610460565b93505060206104ad86828701610460565b92505060406104be86828701610460565b9150509250925092565b600082825260208201905092915050565b7f496e76616c69642061646d696e20616464726573730000000000000000000000600082015250565b600061050f6015836104c8565b915061051a826104d9565b602082019050919050565b6000602082019050818103600083015261053e81610502565b9050919050565b61241e806105546000396000f3fe608060405234801561001057600080fd5b50600436106101735760003560e01c806388f0bc73116100de578063ce19057811610097578063ee5b8e0e11610071578063ee5b8e0e1461043b578063f12d54d81461046b578063f5b541a614610475578063f70d93621461049357610173565b8063ce190578146103f9578063cf23913b14610403578063d547741f1461041f57610173565b806388f0bc73146103255780638e7579a11461034157806391d148541461035f578063a217fddf1461038f578063a33b2d3f146103ad578063beb8314c146103c957610173565b806354b7636e1161013057806354b7636e1461024c5780635932fdba1461027c5780635c975abb1461029a5780635dda3e01146102b857806373c250c6146102d4578063763469141461030457610173565b806301ffc9a7146101785780631e5eb1d0146101a8578063248a9ca3146101c85780632f2ff15d146101f857806336568abe146102145780634a277ec514610230575b600080fd5b610192600480360381019061018d9190611745565b6104b1565b60405161019f919061178d565b60405180910390f35b6101b061052b565b6040516101bf93929190611802565b60405180910390f35b6101e260048036038101906101dd919061186f565b610563565b6040516101ef91906118ab565b60405180910390f35b610212600480360381019061020d91906118f2565b610582565b005b61022e600480360381019061022991906118f2565b6105a3565b005b61024a6004803603810190610245919061195e565b610626565b005b610266600480360381019061026191906119b1565b61077c565b604051610273919061178d565b60405180910390f35b610284610799565b60405161029191906118ab565b60405180910390f35b6102a26107bd565b6040516102af919061178d565b60405180910390f35b6102d260048036038101906102cd9190611a6f565b6107d4565b005b6102ee60048036038101906102e991906119b1565b610917565b6040516102fb9190611acf565b60405180910390f35b61030c61092f565b60405161031c9493929190611aea565b60405180910390f35b61033f600480360381019061033a9190611b2f565b61096d565b005b610349610a6f565b60405161035691906118ab565b60405180910390f35b610379600480360381019061037491906118f2565b610a93565b604051610386919061178d565b60405180910390f35b610397610afd565b6040516103a491906118ab565b60405180910390f35b6103c760048036038101906103c29190611b6f565b610b04565b005b6103e360048036038101906103de9190611bc2565b610c72565b6040516103f09190611acf565b60405180910390f35b610401610ccb565b005b61041d60048036038101906104189190611c02565b610ce3565b005b610439600480360381019061043491906118f2565b610d20565b005b61045560048036038101906104509190611c42565b610d41565b604051610462919061178d565b60405180910390f35b610473610d61565b005b61047d610d79565b60405161048a91906118ab565b60405180910390f35b61049b610d9d565b6040516104a89190611acf565b60405180910390f35b60007f7965db0b000000000000000000000000000000000000000000000000000000007bffffffffffffffffffffffffffffffffffffffffffffffffffffffff1916827bffffffffffffffffffffffffffffffffffffffffffffffffffffffff19161480610524575061052382610daa565b5b9050919050565b60028060000154908060010154908060020160009054906101000a900473ffffffffffffffffffffffffffffffffffffffff16905083565b6000806000838152602001908152602001600020600101549050919050565b61058b82610563565b61059481610e14565b61059e8383610e28565b505050565b6105ab610f08565b73ffffffffffffffffffffffffffffffffffffffff168173ffffffffffffffffffffffffffffffffffffffff1614610618576040517f08c379a000000000000000000000000000000000000000000000000000000000815260040161060f90611cf2565b60405180910390fd5b6106228282610f10565b5050565b7f6393fa734211156fcc8c7dda6b0650f5c731d4c838c1db43445a149aa2f5b6fe61065081610e14565b6107d0841115610695576040517f08c379a000000000000000000000000000000000000000000000000000000000815260040161068c90611d5e565b60405180910390fd5b6105dc8311156106da576040517f08c379a00000000000000000000000000000000000000000000000000000000081526004016106d190611dca565b60405180910390fd5b6101f482111561071f576040517f08c379a000000000000000000000000000000000000000000000000000000000815260040161071690611e36565b60405180910390fd5b8360056000018190555082600560010181905550816005600201819055507ff3a6ee10a78fb7d212e87d9be970fb16bd7324e9dc9c38d21cd7ecde781a1d2a848460405161076e929190611e56565b60405180910390a150505050565b6000610792826009610ff190919063ffffffff16565b9050919050565b7f6393fa734211156fcc8c7dda6b0650f5c731d4c838c1db43445a149aa2f5b6fe81565b6000600160009054906101000a900460ff16905090565b7fb9f13ecb5e7f0f859c44b76b3a163e504787b446da95a26bf75e53e1ff4a1e0e6107fe81610e14565b60005b8484905081101561091057826108515761084c85858381811061082757610826611e7f565b5b905060200201602081019061083c91906119b1565b600961102190919063ffffffff16565b61088d565b61088c85858381811061086757610866611e7f565b5b905060200201602081019061087c91906119b1565b600961105190919063ffffffff16565b5b508484828181106108a1576108a0611e7f565b5b90506020020160208101906108b691906119b1565b73ffffffffffffffffffffffffffffffffffffffff167f2df1cad2a2659e001c3804c872f69655356013e35c18c2e77a5d568078ab788f846040516108fb919061178d565b60405180910390a28080600101915050610801565b5050505050565b600b6020528060005260406000206000915090505481565b60058060000154908060010154908060020154908060030160009054906101000a900473ffffffffffffffffffffffffffffffffffffffff16905084565b7f97667070c54ef182b0f5858b034beac1b6f3089aa2d3188bb1e8929f4fa9b92961099781610e14565b6002600101548311156109df576040517f08c379a00000000000000000000000000000000000000000000000000000000081526004016109d690611efa565b60405180910390fd5b82600260000181905550816002800160006101000a81548173ffffffffffffffffffffffffffffffffffffffff021916908373ffffffffffffffffffffffffffffffffffffffff1602179055507f1eab951da250f7e001396235b296e29bc73945b6a52fd471dd8f3de3398634be83600260010154604051610a62929190611e56565b60405180910390a1505050565b7fb9f13ecb5e7f0f859c44b76b3a163e504787b446da95a26bf75e53e1ff4a1e0e81565b600080600084815260200190815260200160002060000160008373ffffffffffffffffffffffffffffffffffffffff1673ffffffffffffffffffffffffffffffffffffffff16815260200190815260200160002060009054906101000a900460ff16905092915050565b6000801b81565b7f97667070c54ef182b0f5858b034beac1b6f3089aa2d3188bb1e8929f4fa9b929610b2e81610e14565b8115610b8f5782600b60008673ffffffffffffffffffffffffffffffffffffffff1673ffffffffffffffffffffffffffffffffffffffff1681526020019081526020016000206000828254610b839190611f49565b92505081905550610c6c565b82600b60008673ffffffffffffffffffffffffffffffffffffffff1673ffffffffffffffffffffffffffffffffffffffff1681526020019081526020016000205411610bdc576000610c28565b82600b60008673ffffffffffffffffffffffffffffffffffffffff1673ffffffffffffffffffffffffffffffffffffffff16815260200190815260200160002054610c279190611f7d565b5b600b60008673ffffffffffffffffffffffffffffffffffffffff1673ffffffffffffffffffffffffffffffffffffffff168152602001908152602001600020819055505b50505050565b600080610c7e84611081565b90506000610c8b85611090565b90506127108183600560000154610ca29190611f49565b610cac9190611f49565b85610cb79190611fb1565b610cc19190612022565b9250505092915050565b6000801b610cd881610e14565b610ce06110f6565b50565b6000801b610cf081610e14565b81600c600085815260200190815260200160002060006101000a81548160ff021916908315150217905550505050565b610d2982610563565b610d3281610e14565b610d3c8383610f10565b505050565b600c6020528060005260406000206000915054906101000a900460ff1681565b6000801b610d6e81610e14565b610d76611159565b50565b7f97667070c54ef182b0f5858b034beac1b6f3089aa2d3188bb1e8929f4fa9b92981565b6000600260000154905090565b60007f01ffc9a7000000000000000000000000000000000000000000000000000000007bffffffffffffffffffffffffffffffffffffffffffffffffffffffff1916827bffffffffffffffffffffffffffffffffffffffffffffffffffffffff1916149050919050565b610e2581610e20610f08565b6111bb565b50565b610e328282610a93565b610f0457600160008084815260200190815260200160002060000160008373ffffffffffffffffffffffffffffffffffffffff1673ffffffffffffffffffffffffffffffffffffffff16815260200190815260200160002060006101000a81548160ff021916908315150217905550610ea9610f08565b73ffffffffffffffffffffffffffffffffffffffff168173ffffffffffffffffffffffffffffffffffffffff16837f2f8788117e7eff1d82e926ec794901d17c78024a50270940304540a733656f0d60405160405180910390a45b5050565b600033905090565b610f1a8282610a93565b15610fed57600080600084815260200190815260200160002060000160008373ffffffffffffffffffffffffffffffffffffffff1673ffffffffffffffffffffffffffffffffffffffff16815260200190815260200160002060006101000a81548160ff021916908315150217905550610f92610f08565b73ffffffffffffffffffffffffffffffffffffffff168173ffffffffffffffffffffffffffffffffffffffff16837ff6391f5c32d9c69d2a47ea670b442974b53935d1edc7fd64eb21e047a839171b60405160405180910390a45b5050565b6000611019836000018373ffffffffffffffffffffffffffffffffffffffff1660001b611240565b905092915050565b6000611049836000018373ffffffffffffffffffffffffffffffffffffffff1660001b611263565b905092915050565b6000611079836000018373ffffffffffffffffffffffffffffffffffffffff1660001b611377565b905092915050565b60006005600201549050919050565b600080600b60008473ffffffffffffffffffffffffffffffffffffffff1673ffffffffffffffffffffffffffffffffffffffff16815260200190815260200160002054905060056001015481116110e757806110ee565b6005600101545b915050919050565b6110fe6113e7565b6000600160006101000a81548160ff0219169083151502179055507f5db9ee0a495bf2e6ff9c91a7834c1ba4fdd244a5e8aa4e537bd38aeae4b073aa611142610f08565b60405161114f9190612053565b60405180910390a1565b611161611430565b60018060006101000a81548160ff0219169083151502179055507f62e78cea01bee320cd4e420270b5ea74000d11b0c9f74754ebdbfc544b05a2586111a4610f08565b6040516111b19190612053565b60405180910390a1565b6111c58282610a93565b61123c576111d28161147a565b6111e08360001c60206114a7565b6040516020016111f1929190612177565b6040516020818303038152906040526040517f08c379a000000000000000000000000000000000000000000000000000000000815260040161123391906121fb565b60405180910390fd5b5050565b600080836001016000848152602001908152602001600020541415905092915050565b6000808360010160008481526020019081526020016000205490506000811461136b5760006001826112959190611f7d565b90506000600186600001805490506112ad9190611f7d565b905081811461131c5760008660000182815481106112ce576112cd611e7f565b5b90600052602060002001549050808760000184815481106112f2576112f1611e7f565b5b90600052602060002001819055508387600101600083815260200190815260200160002081905550505b856000018054806113305761132f61221d565b5b600190038181906000526020600020016000905590558560010160008681526020019081526020016000206000905560019350505050611371565b60009150505b92915050565b60006113838383611240565b6113dc5782600001829080600181540180825580915050600190039060005260206000200160009091909190915055826000018054905083600101600084815260200190815260200160002081905550600190506113e1565b600090505b92915050565b6113ef6107bd565b61142e576040517f08c379a000000000000000000000000000000000000000000000000000000000815260040161142590612298565b60405180910390fd5b565b6114386107bd565b15611478576040517f08c379a000000000000000000000000000000000000000000000000000000000815260040161146f90612304565b60405180910390fd5b565b60606114a08273ffffffffffffffffffffffffffffffffffffffff16601460ff166114a7565b9050919050565b6060600060028360026114ba9190611fb1565b6114c49190611f49565b67ffffffffffffffff8111156114dd576114dc612324565b5b6040519080825280601f01601f19166020018201604052801561150f5781602001600182028036833780820191505090505b5090507f30000000000000000000000000000000000000000000000000000000000000008160008151811061154757611546611e7f565b5b60200101907effffffffffffffffffffffffffffffffffffffffffffffffffffffffffffff1916908160001a9053507f7800000000000000000000000000000000000000000000000000000000000000816001815181106115ab576115aa611e7f565b5b60200101907effffffffffffffffffffffffffffffffffffffffffffffffffffffffffffff1916908160001a905350600060018460026115eb9190611fb1565b6115f59190611f49565b90505b6001811115611695577f3031323334353637383961626364656600000000000000000000000000000000600f86166010811061163757611636611e7f565b5b1a60f81b82828151811061164e5761164d611e7f565b5b60200101907effffffffffffffffffffffffffffffffffffffffffffffffffffffffffffff1916908160001a905350600485901c94508061168e90612353565b90506115f8565b50600084146116d9576040517f08c379a00000000000000000000000000000000000000000000000000000000081526004016116d0906123c8565b60405180910390fd5b8091505092915050565b600080fd5b600080fd5b60007fffffffff0000000000000000000000000000000000000000000000000000000082169050919050565b611722816116ed565b811461172d57600080fd5b50565b60008135905061173f81611719565b92915050565b60006020828403121561175b5761175a6116e3565b5b600061176984828501611730565b91505092915050565b60008115159050919050565b61178781611772565b82525050565b60006020820190506117a2600083018461177e565b92915050565b6000819050919050565b6117bb816117a8565b82525050565b600073ffffffffffffffffffffffffffffffffffffffff82169050919050565b60006117ec826117c1565b9050919050565b6117fc816117e1565b82525050565b600060608201905061181760008301866117b2565b61182460208301856117b2565b61183160408301846117f3565b949350505050565b6000819050919050565b61184c81611839565b811461185757600080fd5b50565b60008135905061186981611843565b92915050565b600060208284031215611885576118846116e3565b5b60006118938482850161185a565b91505092915050565b6118a581611839565b82525050565b60006020820190506118c0600083018461189c565b92915050565b6118cf816117e1565b81146118da57600080fd5b50565b6000813590506118ec816118c6565b92915050565b60008060408385031215611909576119086116e3565b5b60006119178582860161185a565b9250506020611928858286016118dd565b9150509250929050565b61193b816117a8565b811461194657600080fd5b50565b60008135905061195881611932565b92915050565b600080600060608486031215611977576119766116e3565b5b600061198586828701611949565b935050602061199686828701611949565b92505060406119a786828701611949565b9150509250925092565b6000602082840312156119c7576119c66116e3565b5b60006119d5848285016118dd565b91505092915050565b600080fd5b600080fd5b600080fd5b60008083601f840112611a0357611a026119de565b5b8235905067ffffffffffffffff811115611a2057611a1f6119e3565b5b602083019150836020820283011115611a3c57611a3b6119e8565b5b9250929050565b611a4c81611772565b8114611a5757600080fd5b50565b600081359050611a6981611a43565b92915050565b600080600060408486031215611a8857611a876116e3565b5b600084013567ffffffffffffffff811115611aa657611aa56116e8565b5b611ab2868287016119ed565b93509350506020611ac586828701611a5a565b9150509250925092565b6000602082019050611ae460008301846117b2565b92915050565b6000608082019050611aff60008301876117b2565b611b0c60208301866117b2565b611b1960408301856117b2565b611b2660608301846117f3565b95945050505050565b60008060408385031215611b4657611b456116e3565b5b6000611b5485828601611949565b9250506020611b65858286016118dd565b9150509250929050565b600080600060608486031215611b8857611b876116e3565b5b6000611b96868287016118dd565b9350506020611ba786828701611949565b9250506040611bb886828701611a5a565b9150509250925092565b60008060408385031215611bd957611bd86116e3565b5b6000611be7858286016118dd565b9250506020611bf885828601611949565b9150509250929050565b60008060408385031215611c1957611c186116e3565b5b6000611c2785828601611949565b9250506020611c3885828601611a5a565b9150509250929050565b600060208284031215611c5857611c576116e3565b5b6000611c6684828501611949565b91505092915050565b600082825260208201905092915050565b7f416363657373436f6e74726f6c3a2063616e206f6e6c792072656e6f756e636560008201527f20726f6c657320666f722073656c660000000000000000000000000000000000602082015250565b6000611cdc602f83611c6f565b9150611ce782611c80565b604082019050919050565b60006020820190508181036000830152611d0b81611ccf565b9050919050565b7f426173652072617465203e323025000000000000000000000000000000000000600082015250565b6000611d48600e83611c6f565b9150611d5382611d12565b602082019050919050565b60006020820190508181036000830152611d7781611d3b565b9050919050565b7f4d756c7469706c696572203e3135250000000000000000000000000000000000600082015250565b6000611db4600f83611c6f565b9150611dbf82611d7e565b602082019050919050565b60006020820190508181036000830152611de381611da7565b9050919050565b7f4c6561736520626f6e7573203e35250000000000000000000000000000000000600082015250565b6000611e20600f83611c6f565b9150611e2b82611dea565b602082019050919050565b60006020820190508181036000830152611e4f81611e13565b9050919050565b6000604082019050611e6b60008301856117b2565b611e7860208301846117b2565b9392505050565b7f4e487b7100000000000000000000000000000000000000000000000000000000600052603260045260246000fd5b7f45786365656473206d6178206665650000000000000000000000000000000000600082015250565b6000611ee4600f83611c6f565b9150611eef82611eae565b602082019050919050565b60006020820190508181036000830152611f1381611ed7565b9050919050565b7f4e487b7100000000000000000000000000000000000000000000000000000000600052601160045260246000fd5b6000611f54826117a8565b9150611f5f836117a8565b9250828201905080821115611f7757611f76611f1a565b5b92915050565b6000611f88826117a8565b9150611f93836117a8565b9250828203905081811115611fab57611faa611f1a565b5b92915050565b6000611fbc826117a8565b9150611fc7836117a8565b9250828202611fd5816117a8565b91508282048414831517611fec57611feb611f1a565b5b5092915050565b7f4e487b7100000000000000000000000000000000000000000000000000000000600052601260045260246000fd5b600061202d826117a8565b9150612038836117a8565b92508261204857612047611ff3565b5b828204905092915050565b600060208201905061206860008301846117f3565b92915050565b600081905092915050565b7f416363657373436f6e74726f6c3a206163636f756e7420000000000000000000600082015250565b60006120af60178361206e565b91506120ba82612079565b601782019050919050565b600081519050919050565b60005b838110156120ee5780820151818401526020810190506120d3565b60008484015250505050565b6000612105826120c5565b61210f818561206e565b935061211f8185602086016120d0565b80840191505092915050565b7f206973206d697373696e6720726f6c6520000000000000000000000000000000600082015250565b600061216160118361206e565b915061216c8261212b565b601182019050919050565b6000612182826120a2565b915061218e82856120fa565b915061219982612154565b91506121a582846120fa565b91508190509392505050565b6000601f19601f8301169050919050565b60006121cd826120c5565b6121d78185611c6f565b93506121e78185602086016120d0565b6121f0816121b1565b840191505092915050565b6000602082019050818103600083015261221581846121c2565b905092915050565b7f4e487b7100000000000000000000000000000000000000000000000000000000600052603160045260246000fd5b7f5061757361626c653a206e6f7420706175736564000000000000000000000000600082015250565b6000612282601483611c6f565b915061228d8261224c565b602082019050919050565b600060208201905081810360008301526122b181612275565b9050919050565b7f5061757361626c653a2070617573656400000000000000000000000000000000600082015250565b60006122ee601083611c6f565b91506122f9826122b8565b602082019050919050565b6000602082019050818103600083015261231d816122e1565b9050919050565b7f4e487b7100000000000000000000000000000000000000000000000000000000600052604160045260246000fd5b600061235e826117a8565b91506000820361237157612370611f1a565b5b600182039050919050565b7f537472696e67733a20686578206c656e67746820696e73756666696369656e74600082015250565b60006123b2602083611c6f565b91506123bd8261237c565b602082019050919050565b600060208201905081810360008301526123e1816123a5565b905091905056fea2646970667358221220db9facfd3a34210f0c157711aa8164974fd4e6a45638f78f37424f642473424f64736f6c634300081c0033",
  "linkReferences": {},
  "deployedLinkReferences": {}
}