{
  "_format": "hh-sol-artifact-1",
  "contractName": "AdminControl",
  "sourceName": "contracts/governance/AdminControl.sol",
  "abi": [
    {
      "inputs": [
        {
          "internalType": "address",
          "name": "initialAdmin",
          "type": "address"
        },
        {
          "internalType": "address",
          "name": "feeCollector",
          "type": "address"
        },
        {
          "internalType": "address",
          "name": "rewardsVault",
          "type": "address"
        }
      ],
      "stateMutability": "nonpayable",
      "type": "constructor"
    },
    {
      "anonymous": false,
      "inputs": [
        {
          "indexed": true,
          "internalType": "bytes32",
          "name": "role",
          "type": "bytes32"
        },
        {
          "indexed": true,
          "internalType": "address",
          "name": "account",
          "type": "address"
        },
        {
          "indexed": true,
          "internalType": "address",
          "name": "sender",
          "type": "address"
        }
      ],
      "name": "AdminRoleGranted",
      "type": "event"
    },
    {
      "anonymous": false,
      "inputs": [
        {
          "indexed": true,
          "internalType": "bytes32",
          "name": "role",
          "type": "bytes32"
        },
        {
          "indexed": true,
          "internalType": "address",
          "name": "account",
          "type": "address"
        },
        {
          "indexed": true,
          "internalType": "address",
          "name": "sender",
          "type": "address"
        }
      ],
      "name": "AdminRoleRevoked",
      "type": "event"
    },
    {
      "anonymous": false,
      "inputs": [
        {
          "indexed": false,
          "internalType": "uint256",
          "name": "oldBaseFee",
          "type": "uint256"
        },
        {
          "indexed": false,
          "internalType": "uint256",
          "name": "newBaseFee",
          "type": "uint256"
        },
        {
          "indexed": false,
          "internalType": "uint256",
          "name": "oldMaxFee",
          "type": "uint256"
        },
        {
          "indexed": false,
          "internalType": "uint256",
          "name": "newMaxFee",
          "type": "uint256"
        },
        {
          "indexed": true,
          "internalType": "address",
          "name": "admin",
          "type": "address"
        }
      ],
      "name": "FeeConfigUpdated",
      "type": "event"
    },
    {
      "anonymous": false,
      "inputs": [
        {
          "indexed": true,
          "internalType": "address",
          "name": "account",
          "type": "address"
        },
        {
          "indexed": false,
          "internalType": "bool",
          "name": "status",
          "type": "bool"
        }
      ],
      "name": "KYCStatusUpdated",
      "type": "event"
    },
    {
      "anonymous": false,
      "inputs": [
        {
          "indexed": false,
          "internalType": "address",
          "name": "account",
          "type": "address"
        }
      ],
      "name": "Paused",
      "type": "event"
    },
    {
      "anonymous": false,
      "inputs": [
        {
          "indexed": false,
          "internalType": "uint256",
          "name": "oldBaseRate",
          "type": "uint256"
        },
        {
          "indexed": false,
          "internalType": "uint256",
          "name": "newBaseRate",
          "type": "uint256"
        },
        {
          "indexed": false,
          "internalType": "uint256",
          "name": "oldMultiplier",
          "type": "uint256"
        },
        {
          "indexed": false,
          "internalType": "uint256",
          "name": "newMultiplier",
          "type": "uint256"
        },
        {
          "indexed": true,
          "internalType": "address",
          "name": "admin",
          "type": "address"
        }
      ],
      "name": "RewardParametersUpdated",
      "type": "event"
    },
    {
      "anonymous": false,
      "inputs": [
        {
          "indexed": true,
          "internalType": "bytes32",
          "name": "role",
          "type": "bytes32"
        },
        {
          "indexed": true,
          "internalType": "bytes32",
          "name": "previousAdminRole",
          "type": "bytes32"
        },
        {
          "indexed": true,
          "internalType": "bytes32",
          "name": "newAdminRole",
          "type": "bytes32"
        }
      ],
      "name": "RoleAdminChanged",
      "type": "event"
    },
    {
      "anonymous": false,
      "inputs": [
        {
          "indexed": true,
          "internalType": "bytes32",
          "name": "role",
          "type": "bytes32"
        },
        {
          "indexed": true,
          "internalType": "address",
          "name": "account",
          "type": "address"
        },
        {
          "indexed": true,
          "internalType": "address",
          "name": "sender",
          "type": "address"
        }
      ],
      "name": "RoleGranted",
      "type": "event"
    },
    {
      "anonymous": false,
      "inputs": [
        {
          "indexed": true,
          "internalType": "bytes32",
          "name": "role",
          "type": "bytes32"
        },
        {
          "indexed": true,
          "internalType": "address",
          "name": "account",
          "type": "address"
        },
        {
          "indexed": true,
          "internalType": "address",
          "name": "sender",
          "type": "address"
        }
      ],
      "name": "RoleRevoked",
      "type": "event"
    },
    {
      "anonymous": false,
      "inputs": [
        {
          "indexed": false,
          "internalType": "address",
          "name": "account",
          "type": "address"
        }
      ],
      "name": "Unpaused",
      "type": "event"
    },
    {
      "inputs": [],
      "name": "BASIS_POINTS",
      "outputs": [
        {
          "internalType": "uint256",
          "name": "",
          "type": "uint256"
        }
      ],
      "stateMutability": "view",
      "type": "function"
    },
    {
      "inputs": [],
      "name": "DEFAULT_ADMIN_ROLE",
      "outputs": [
        {
          "internalType": "bytes32",
          "name": "",
          "type": "bytes32"
        }
      ],
      "stateMutability": "view",
      "type": "function"
    },
    {
      "inputs": [],
      "name": "LEGAL_ROLE",
      "outputs": [
        {
          "internalType": "bytes32",
          "name": "",
          "type": "bytes32"
        }
      ],
      "stateMutability": "view",
      "type": "function"
    },
    {
      "inputs": [],
      "name": "OPERATOR_ROLE",
      "outputs": [
        {
          "internalType": "bytes32",
          "name": "",
          "type": "bytes32"
        }
      ],
      "stateMutability": "view",
      "type": "function"
    },
    {
      "inputs": [],
      "name": "REWARD_MANAGER",
      "outputs": [
        {
          "internalType": "bytes32",
          "name": "",
          "type": "bytes32"
        }
      ],
      "stateMutability": "view",
      "type": "function"
    },
    {
      "inputs": [
        {
          "internalType": "address[]",
          "name": "accounts",
          "type": "address[]"
        },
        {
          "internalType": "bool",
          "name": "approved",
          "type": "bool"
        }
      ],
      "name": "batchApproveKYC",
      "outputs": [],
      "stateMutability": "nonpayable",
      "type": "function"
    },
    {
      "inputs": [
        {
          "internalType": "address",
          "name": "user",
          "type": "address"
        },
        {
          "internalType": "uint256",
          "name": "baseAmount",
          "type": "uint256"
        }
      ],
      "name": "calculateRewards",
      "outputs": [
        {
          "internalType": "uint256",
          "name": "",
          "type": "uint256"
        }
      ],
      "stateMutability": "view",
      "type": "function"
    },
    {
      "inputs": [
        {
          "internalType": "address",
          "name": "",
          "type": "address"
        }
      ],
      "name": "communityScores",
      "outputs": [
        {
          "internalType": "uint256",
          "name": "",
          "type": "uint256"
        }
      ],
      "stateMutability": "view",
      "type": "function"
    },
    {
      "inputs": [
        {
          "internalType": "uint256",
          "name": "newBaseRate",
          "type": "uint256"
        },
        {
          "internalType": "uint256",
          "name": "newMultiplier",
          "type": "uint256"
        },
        {
          "internalType": "uint256",
          "name": "newLeaseBonus",
          "type": "uint256"
        }
      ],
      "name": "configureRewards",
      "outputs": [],
      "stateMutability": "nonpayable",
      "type": "function"
    },
    {
      "inputs": [
        {
          "internalType": "uint256",
          "name": "functionId",
          "type": "uint256"
        },
        {
          "internalType": "bool",
          "name": "paused",
          "type": "bool"
        }
      ],
      "name": "emergencyPauseFunction",
      "outputs": [],
      "stateMutability": "nonpayable",
      "type": "function"
    },
    {
      "inputs": [],
      "name": "feeConfig",
      "outputs": [
        {
          "internalType": "uint256",
          "name": "baseFee",
          "type": "uint256"
        },
        {
          "internalType": "uint256",
          "name": "maxFee",
          "type": "uint256"
        },
        {
          "internalType": "address",
          "name": "feeCollector",
          "type": "address"
        }
      ],
      "stateMutability": "view",
      "type": "function"
    },
    {
      "inputs": [
        {
          "internalType": "uint256",
          "name": "",
          "type": "uint256"
        }
      ],
      "name": "functionPaused",
      "outputs": [
        {
          "internalType": "bool",
          "name": "",
          "type": "bool"
        }
      ],
      "stateMutability": "view",
      "type": "function"
    },
    {
      "inputs": [],
      "name": "getCurrentFee",
      "outputs": [
        {
          "internalType": "uint256",
          "name": "",
          "type": "uint256"
        }
      ],
      "stateMutability": "view",
      "type": "function"
    },
    {
      "inputs": [
        {
          "internalType": "bytes32",
          "name": "role",
          "type": "bytes32"
        }
      ],
      "name": "getRoleAdmin",
      "outputs": [
        {
          "internalType": "bytes32",
          "name": "",
          "type": "bytes32"
        }
      ],
      "stateMutability": "view",
      "type": "function"
    },
    {
      "inputs": [],
      "name": "globalPause",
      "outputs": [],
      "stateMutability": "nonpayable",
      "type": "function"
    },
    {
      "inputs": [],
      "name": "globalUnpause",
      "outputs": [],
      "stateMutability": "nonpayable",
      "type": "function"
    },
    {
      "inputs": [
        {
          "internalType": "bytes32",
          "name": "role",
          "type": "bytes32"
        },
        {
          "internalType": "address",
          "name": "account",
          "type": "address"
        }
      ],
      "name": "grantRole",
      "outputs": [],
      "stateMutability": "nonpayable",
      "type": "function"
    },
    {
      "inputs": [
        {
          "internalType": "bytes32",
          "name": "role",
          "type": "bytes32"
        },
        {
          "internalType": "address",
          "name": "account",
          "type": "address"
        }
      ],
      "name": "hasRole",
      "outputs": [
        {
          "internalType": "bool",
          "name": "",
          "type": "bool"
        }
      ],
      "stateMutability": "view",
      "type": "function"
    },
    {
      "inputs": [
        {
          "internalType": "address",
          "name": "account",
          "type": "address"
        }
      ],
      "name": "isKYCVerified",
      "outputs": [
        {
          "internalType": "bool",
          "name": "",
          "type": "bool"
        }
      ],
      "stateMutability": "view",
      "type": "function"
    },
    {
      "inputs": [],
      "name": "paused",
      "outputs": [
        {
          "internalType": "bool",
          "name": "",
          "type": "bool"
        }
      ],
      "stateMutability": "view",
      "type": "function"
    },
    {
      "inputs": [
        {
          "internalType": "bytes32",
          "name": "role",
          "type": "bytes32"
        },
        {
          "internalType": "address",
          "name": "account",
          "type": "address"
        }
      ],
      "name": "renounceRole",
      "outputs": [],
      "stateMutability": "nonpayable",
      "type": "function"
    },
    {
      "inputs": [
        {
          "internalType": "bytes32",
          "name": "role",
          "type": "bytes32"
        },
        {
          "internalType": "address",
          "name": "account",
          "type": "address"
        }
      ],
      "name": "revokeRole",
      "outputs": [],
      "stateMutability": "nonpayable",
      "type": "function"
    },
    {
      "inputs": [],
      "name": "rewardParams",
      "outputs": [
        {
          "internalType": "uint256",
          "name": "baseRate",
          "type": "uint256"
        },
        {
          "internalType": "uint256",
          "name": "communityMultiplier",
          "type": "uint256"
        },
        {
          "internalType": "uint256",
          "name": "maxLeaseBonus",
          "type": "uint256"
        },
        {
          "internalType": "address",
          "name": "rewardsVault",
          "type": "address"
        }
      ],
      "stateMutability": "view",
      "type": "function"
    },
    {
      "inputs": [
        {
          "internalType": "bytes4",
          "name": "interfaceId",
          "type": "bytes4"
        }
      ],
      "name": "supportsInterface",
      "outputs": [
        {
          "internalType": "bool",
          "name": "",
          "type": "bool"
        }
      ],
      "stateMutability": "view",
      "type": "function"
    },
    {
      "inputs": [
        {
          "internalType": "address",
          "name": "user",
          "type": "address"
        },
        {
          "internalType": "uint256",
          "name": "scoreDelta",
          "type": "uint256"
        },
        {
          "internalType": "bool",
          "name": "isAddition",
          "type": "bool"
        }
      ],
      "name": "updateCommunityScore",
      "outputs": [],
      "stateMutability": "nonpayable",
      "type": "function"
    },
    {
      "inputs": [
        {
          "internalType": "uint256",
          "name": "newBaseFee",
          "type": "uint256"
        },
        {
          "internalType": "address",
          "name": "newCollector",
          "type": "address"
        }
      ],
      "name": "updateFeeConfig",
      "outputs": [],
      "stateMutability": "nonpayable",
      "type": "function"
    }
  ],
  "bytecode": "0x60806040523480156200001157600080fd5b5060405162002f4738038062002f47833981810160405281019062000037919062000578565b6000600160006101000a81548160ff021916908315150217905550600073ffffffffffffffffffffffffffffffffffffffff168273ffffffffffffffffffffffffffffffffffffffff1603620000c4576040517f08c379a0000000000000000000000000000000000000000000000000000000008152600401620000bb9062000635565b60405180910390fd5b600073ffffffffffffffffffffffffffffffffffffffff168173ffffffffffffffffffffffffffffffffffffffff160362000136576040517f08c379a00000000000000000000000000000000000000000000000000000000081526004016200012d90620006a7565b60405180910390fd5b600073ffffffffffffffffffffffffffffffffffffffff168373ffffffffffffffffffffffffffffffffffffffff1603620001a8576040517f08c379a00000000000000000000000000000000000000000000000000000000081526004016200019f9062000719565b60405180910390fd5b620001b983620002fd60201b60201c565b604051806060016040528060c881526020016103e881526020018373ffffffffffffffffffffffffffffffffffffffff168152506002600082015181600001556020820151816001015560408201518160020160006101000a81548173ffffffffffffffffffffffffffffffffffffffff021916908373ffffffffffffffffffffffffffffffffffffffff16021790555090505060405180608001604052806103e881526020016107d0815260200161012c81526020018273ffffffffffffffffffffffffffffffffffffffff16815250600560008201518160000155602082015181600101556040820151816002015560608201518160030160006101000a81548173ffffffffffffffffffffffffffffffffffffffff021916908373ffffffffffffffffffffffffffffffffffffffff1602179055509050505050506200073b565b620003126000801b82620003ab60201b60201c565b620003447f97667070c54ef182b0f5858b034beac1b6f3089aa2d3188bb1e8929f4fa9b92982620003ab60201b60201c565b620003767fb9f13ecb5e7f0f859c44b76b3a163e504787b446da95a26bf75e53e1ff4a1e0e82620003ab60201b60201c565b620003a87f6393fa734211156fcc8c7dda6b0650f5c731d4c838c1db43445a149aa2f5b6fe82620003ab60201b60201c565b50565b620003bd82826200049c60201b60201c565b6200049857600160008084815260200190815260200160002060000160008373ffffffffffffffffffffffffffffffffffffffff1673ffffffffffffffffffffffffffffffffffffffff16815260200190815260200160002060006101000a81548160ff0219169083151502179055506200043d6200050660201b60201c565b73ffffffffffffffffffffffffffffffffffffffff168173ffffffffffffffffffffffffffffffffffffffff16837f2f8788117e7eff1d82e926ec794901d17c78024a50270940304540a733656f0d60405160405180910390a45b5050565b600080600084815260200190815260200160002060000160008373ffffffffffffffffffffffffffffffffffffffff1673ffffffffffffffffffffffffffffffffffffffff16815260200190815260200160002060009054906101000a900460ff16905092915050565b600033905090565b600080fd5b600073ffffffffffffffffffffffffffffffffffffffff82169050919050565b6000620005408262000513565b9050919050565b620005528162000533565b81146200055e57600080fd5b50565b600081519050620005728162000547565b92915050565b6000806000606084860312156200059457620005936200050e565b5b6000620005a48682870162000561565b9350506020620005b78682870162000561565b9250506040620005ca8682870162000561565b9150509250925092565b600082825260208201905092915050565b7f496e76616c69642066656520636f6c6c6563746f722061646472657373000000600082015250565b60006200061d601d83620005d4565b91506200062a82620005e5565b602082019050919050565b6000602082019050818103600083015262000650816200060e565b9050919050565b7f496e76616c69642072657761726473207661756c742061646472657373000000600082015250565b60006200068f601d83620005d4565b91506200069c8262000657565b602082019050919050565b60006020820190508181036000830152620006c28162000680565b9050919050565b7f496e76616c69642061646d696e20616464726573730000000000000000000000600082015250565b600062000701601583620005d4565b91506200070e82620006c9565b602082019050919050565b600060208201905081810360008301526200073481620006f2565b9050919050565b6127fc806200074b6000396000f3fe608060405234801561001057600080fd5b506004361061018e5760003560e01c80638e7579a1116100de578063cf23913b11610097578063ee5b8e0e11610071578063ee5b8e0e14610474578063f12d54d8146104a4578063f5b541a6146104ae578063f70d9362146104cc5761018e565b8063cf23913b1461041e578063d547741f1461043a578063e1f1c4a7146104565761018e565b80638e7579a11461035c57806391d148541461037a578063a217fddf146103aa578063a33b2d3f146103c8578063beb8314c146103e4578063ce190578146104145761018e565b806354b7636e1161014b5780635dda3e01116101255780635dda3e01146102d357806373c250c6146102ef578063763469141461031f57806388f0bc73146103405761018e565b806354b7636e146102675780635932fdba146102975780635c975abb146102b55761018e565b806301ffc9a7146101935780631e5eb1d0146101c3578063248a9ca3146101e35780632f2ff15d1461021357806336568abe1461022f5780634a277ec51461024b575b600080fd5b6101ad60048036038101906101a891906119e7565b6104ea565b6040516101ba9190611a2f565b60405180910390f35b6101cb610564565b6040516101da93929190611aa4565b60405180910390f35b6101fd60048036038101906101f89190611b11565b61059c565b60405161020a9190611b4d565b60405180910390f35b61022d60048036038101906102289190611b94565b6105bb565b005b61024960048036038101906102449190611b94565b610637565b005b61026560048036038101906102609190611c00565b6106ba565b005b610281600480360381019061027c9190611c53565b6108d5565b60405161028e9190611a2f565b60405180910390f35b61029f6108f2565b6040516102ac9190611b4d565b60405180910390f35b6102bd610916565b6040516102ca9190611a2f565b60405180910390f35b6102ed60048036038101906102e89190611d11565b61092d565b005b61030960048036038101906103049190611c53565b610a76565b6040516103169190611d71565b60405180910390f35b610327610a8e565b6040516103379493929190611d8c565b60405180910390f35b61035a60048036038101906103559190611dd1565b610acc565b005b610364610c6e565b6040516103719190611b4d565b60405180910390f35b610394600480360381019061038f9190611b94565b610c92565b6040516103a19190611a2f565b60405180910390f35b6103b2610cfc565b6040516103bf9190611b4d565b60405180910390f35b6103e260048036038101906103dd9190611e11565b610d03565b005b6103fe60048036038101906103f99190611e64565b610e71565b60405161040b9190611d71565b60405180910390f35b61041c610eca565b005b61043860048036038101906104339190611ea4565b610ee2565b005b610454600480360381019061044f9190611b94565b610f1f565b005b61045e610f9b565b60405161046b9190611d71565b60405180910390f35b61048e60048036038101906104899190611ee4565b610fa1565b60405161049b9190611a2f565b60405180910390f35b6104ac610fc1565b005b6104b6610fd9565b6040516104c39190611b4d565b60405180910390f35b6104d4610ffd565b6040516104e19190611d71565b60405180910390f35b60007f7965db0b000000000000000000000000000000000000000000000000000000007bffffffffffffffffffffffffffffffffffffffffffffffffffffffff1916827bffffffffffffffffffffffffffffffffffffffffffffffffffffffff1916148061055d575061055c8261100a565b5b9050919050565b60028060000154908060010154908060020160009054906101000a900473ffffffffffffffffffffffffffffffffffffffff16905083565b6000806000838152602001908152602001600020600101549050919050565b6105c48261059c565b6105cd81611074565b6105d78383611088565b3373ffffffffffffffffffffffffffffffffffffffff168273ffffffffffffffffffffffffffffffffffffffff16847fb754d28367d5b086c81243c886ead0839c92cb5f281e492d7159800bc57d3c1760405160405180910390a4505050565b61063f6110a9565b73ffffffffffffffffffffffffffffffffffffffff168173ffffffffffffffffffffffffffffffffffffffff16146106ac576040517f08c379a00000000000000000000000000000000000000000000000000000000081526004016106a390611f94565b60405180910390fd5b6106b682826110b1565b5050565b7f6393fa734211156fcc8c7dda6b0650f5c731d4c838c1db43445a149aa2f5b6fe6106e481611074565b600073ffffffffffffffffffffffffffffffffffffffff16600560030160009054906101000a900473ffffffffffffffffffffffffffffffffffffffff1673ffffffffffffffffffffffffffffffffffffffff1603610778576040517f08c379a000000000000000000000000000000000000000000000000000000000815260040161076f90612000565b60405180910390fd5b6107d08411156107bd576040517f08c379a00000000000000000000000000000000000000000000000000000000081526004016107b49061206c565b60405180910390fd5b6107d0831115610802576040517f08c379a00000000000000000000000000000000000000000000000000000000081526004016107f9906120d8565b60405180910390fd5b6101f4821115610847576040517f08c379a000000000000000000000000000000000000000000000000000000000815260040161083e90612144565b60405180910390fd5b60006005600001549050600060056001015490508560056000018190555084600560010181905550836005600201819055503373ffffffffffffffffffffffffffffffffffffffff167fdf3827857cf8ac45829164bd76e2950687437e15ff8543f477ae73691ee013b1838884896040516108c59493929190612164565b60405180910390a2505050505050565b60006108eb82600961119290919063ffffffff16565b9050919050565b7f6393fa734211156fcc8c7dda6b0650f5c731d4c838c1db43445a149aa2f5b6fe81565b6000600160009054906101000a900460ff16905090565b7fb9f13ecb5e7f0f859c44b76b3a163e504787b446da95a26bf75e53e1ff4a1e0e61095781611074565b60005b84849050811015610a6f57826109aa576109a58585838181106109805761097f6121a9565b5b90506020020160208101906109959190611c53565b60096111c290919063ffffffff16565b6109e6565b6109e58585838181106109c0576109bf6121a9565b5b90506020020160208101906109d59190611c53565b60096111f290919063ffffffff16565b5b508484828181106109fa576109f96121a9565b5b9050602002016020810190610a0f9190611c53565b73ffffffffffffffffffffffffffffffffffffffff167f2df1cad2a2659e001c3804c872f69655356013e35c18c2e77a5d568078ab788f84604051610a549190611a2f565b60405180910390a28080610a6790612207565b91505061095a565b5050505050565b600b6020528060005260406000206000915090505481565b60058060000154908060010154908060020154908060030160009054906101000a900473ffffffffffffffffffffffffffffffffffffffff16905084565b7f97667070c54ef182b0f5858b034beac1b6f3089aa2d3188bb1e8929f4fa9b929610af681611074565b600073ffffffffffffffffffffffffffffffffffffffff168273ffffffffffffffffffffffffffffffffffffffff1603610b65576040517f08c379a0000000000000000000000000000000000000000000000000000000008152600401610b5c9061229b565b60405180910390fd5b600260010154831115610bad576040517f08c379a0000000000000000000000000000000000000000000000000000000008152600401610ba490612307565b60405180910390fd5b600060026000015490506000600260010154905084600260000181905550836002800160006101000a81548173ffffffffffffffffffffffffffffffffffffffff021916908373ffffffffffffffffffffffffffffffffffffffff1602179055503373ffffffffffffffffffffffffffffffffffffffff167f7c08ec61bfdc4469c5f8ec2332c513ac1e0980475856efedf21da74933485447838784600260010154604051610c5f9493929190612164565b60405180910390a25050505050565b7fb9f13ecb5e7f0f859c44b76b3a163e504787b446da95a26bf75e53e1ff4a1e0e81565b600080600084815260200190815260200160002060000160008373ffffffffffffffffffffffffffffffffffffffff1673ffffffffffffffffffffffffffffffffffffffff16815260200190815260200160002060009054906101000a900460ff16905092915050565b6000801b81565b7f97667070c54ef182b0f5858b034beac1b6f3089aa2d3188bb1e8929f4fa9b929610d2d81611074565b8115610d8e5782600b60008673ffffffffffffffffffffffffffffffffffffffff1673ffffffffffffffffffffffffffffffffffffffff1681526020019081526020016000206000828254610d829190612327565b92505081905550610e6b565b82600b60008673ffffffffffffffffffffffffffffffffffffffff1673ffffffffffffffffffffffffffffffffffffffff1681526020019081526020016000205411610ddb576000610e27565b82600b60008673ffffffffffffffffffffffffffffffffffffffff1673ffffffffffffffffffffffffffffffffffffffff16815260200190815260200160002054610e26919061235b565b5b600b60008673ffffffffffffffffffffffffffffffffffffffff1673ffffffffffffffffffffffffffffffffffffffff168152602001908152602001600020819055505b50505050565b600080610e7d84611222565b90506000610e8a85611231565b90506127108183600560000154610ea19190612327565b610eab9190612327565b85610eb6919061238f565b610ec09190612400565b9250505092915050565b6000801b610ed781611074565b610edf611297565b50565b6000801b610eef81611074565b81600c600085815260200190815260200160002060006101000a81548160ff021916908315150217905550505050565b610f288261059c565b610f3181611074565b610f3b83836112fa565b3373ffffffffffffffffffffffffffffffffffffffff168273ffffffffffffffffffffffffffffffffffffffff16847f77a3124d5a7fb118ef3bd073fd7ee2c762b24256db96ace524ecd6b6cf11415c60405160405180910390a4505050565b61271081565b600c6020528060005260406000206000915054906101000a900460ff1681565b6000801b610fce81611074565b610fd661131b565b50565b7f97667070c54ef182b0f5858b034beac1b6f3089aa2d3188bb1e8929f4fa9b92981565b6000600260000154905090565b60007f01ffc9a7000000000000000000000000000000000000000000000000000000007bffffffffffffffffffffffffffffffffffffffffffffffffffffffff1916827bffffffffffffffffffffffffffffffffffffffffffffffffffffffff1916149050919050565b611085816110806110a9565b61137d565b50565b6110918261059c565b61109a81611074565b6110a48383611402565b505050565b600033905090565b6110bb8282610c92565b1561118e57600080600084815260200190815260200160002060000160008373ffffffffffffffffffffffffffffffffffffffff1673ffffffffffffffffffffffffffffffffffffffff16815260200190815260200160002060006101000a81548160ff0219169083151502179055506111336110a9565b73ffffffffffffffffffffffffffffffffffffffff168173ffffffffffffffffffffffffffffffffffffffff16837ff6391f5c32d9c69d2a47ea670b442974b53935d1edc7fd64eb21e047a839171b60405160405180910390a45b5050565b60006111ba836000018373ffffffffffffffffffffffffffffffffffffffff1660001b6114e2565b905092915050565b60006111ea836000018373ffffffffffffffffffffffffffffffffffffffff1660001b611505565b905092915050565b600061121a836000018373ffffffffffffffffffffffffffffffffffffffff1660001b611619565b905092915050565b60006005600201549050919050565b600080600b60008473ffffffffffffffffffffffffffffffffffffffff1673ffffffffffffffffffffffffffffffffffffffff1681526020019081526020016000205490506005600101548111611288578061128f565b6005600101545b915050919050565b61129f611689565b6000600160006101000a81548160ff0219169083151502179055507f5db9ee0a495bf2e6ff9c91a7834c1ba4fdd244a5e8aa4e537bd38aeae4b073aa6112e36110a9565b6040516112f09190612431565b60405180910390a1565b6113038261059c565b61130c81611074565b61131683836110b1565b505050565b6113236116d2565b60018060006101000a81548160ff0219169083151502179055507f62e78cea01bee320cd4e420270b5ea74000d11b0c9f74754ebdbfc544b05a2586113666110a9565b6040516113739190612431565b60405180910390a1565b6113878282610c92565b6113fe576113948161171c565b6113a28360001c6020611749565b6040516020016113b3929190612555565b6040516020818303038152906040526040517f08c379a00000000000000000000000000000000000000000000000000000000081526004016113f591906125d9565b60405180910390fd5b5050565b61140c8282610c92565b6114de57600160008084815260200190815260200160002060000160008373ffffffffffffffffffffffffffffffffffffffff1673ffffffffffffffffffffffffffffffffffffffff16815260200190815260200160002060006101000a81548160ff0219169083151502179055506114836110a9565b73ffffffffffffffffffffffffffffffffffffffff168173ffffffffffffffffffffffffffffffffffffffff16837f2f8788117e7eff1d82e926ec794901d17c78024a50270940304540a733656f0d60405160405180910390a45b5050565b600080836001016000848152602001908152602001600020541415905092915050565b6000808360010160008481526020019081526020016000205490506000811461160d576000600182611537919061235b565b905060006001866000018054905061154f919061235b565b90508181146115be5760008660000182815481106115705761156f6121a9565b5b9060005260206000200154905080876000018481548110611594576115936121a9565b5b90600052602060002001819055508387600101600083815260200190815260200160002081905550505b856000018054806115d2576115d16125fb565b5b600190038181906000526020600020016000905590558560010160008681526020019081526020016000206000905560019350505050611613565b60009150505b92915050565b600061162583836114e2565b61167e578260000182908060018154018082558091505060019003906000526020600020016000909190919091505582600001805490508360010160008481526020019081526020016000208190555060019050611683565b600090505b92915050565b611691610916565b6116d0576040517f08c379a00000000000000000000000000000000000000000000000000000000081526004016116c790612676565b60405180910390fd5b565b6116da610916565b1561171a576040517f08c379a0000000000000000000000000000000000000000000000000000000008152600401611711906126e2565b60405180910390fd5b565b60606117428273ffffffffffffffffffffffffffffffffffffffff16601460ff16611749565b9050919050565b60606000600283600261175c919061238f565b6117669190612327565b67ffffffffffffffff81111561177f5761177e612702565b5b6040519080825280601f01601f1916602001820160405280156117b15781602001600182028036833780820191505090505b5090507f3000000000000000000000000000000000000000000000000000000000000000816000815181106117e9576117e86121a9565b5b60200101907effffffffffffffffffffffffffffffffffffffffffffffffffffffffffffff1916908160001a9053507f78000000000000000000000000000000000000000000000000000000000000008160018151811061184d5761184c6121a9565b5b60200101907effffffffffffffffffffffffffffffffffffffffffffffffffffffffffffff1916908160001a9053506000600184600261188d919061238f565b6118979190612327565b90505b6001811115611937577f3031323334353637383961626364656600000000000000000000000000000000600f8616601081106118d9576118d86121a9565b5b1a60f81b8282815181106118f0576118ef6121a9565b5b60200101907effffffffffffffffffffffffffffffffffffffffffffffffffffffffffffff1916908160001a905350600485901c94508061193090612731565b905061189a565b506000841461197b576040517f08c379a0000000000000000000000000000000000000000000000000000000008152600401611972906127a6565b60405180910390fd5b8091505092915050565b600080fd5b600080fd5b60007fffffffff0000000000000000000000000000000000000000000000000000000082169050919050565b6119c48161198f565b81146119cf57600080fd5b50565b6000813590506119e1816119bb565b92915050565b6000602082840312156119fd576119fc611985565b5b6000611a0b848285016119d2565b91505092915050565b60008115159050919050565b611a2981611a14565b82525050565b6000602082019050611a446000830184611a20565b92915050565b6000819050919050565b611a5d81611a4a565b82525050565b600073ffffffffffffffffffffffffffffffffffffffff82169050919050565b6000611a8e82611a63565b9050919050565b611a9e81611a83565b82525050565b6000606082019050611ab96000830186611a54565b611ac66020830185611a54565b611ad36040830184611a95565b949350505050565b6000819050919050565b611aee81611adb565b8114611af957600080fd5b50565b600081359050611b0b81611ae5565b92915050565b600060208284031215611b2757611b26611985565b5b6000611b3584828501611afc565b91505092915050565b611b4781611adb565b82525050565b6000602082019050611b626000830184611b3e565b92915050565b611b7181611a83565b8114611b7c57600080fd5b50565b600081359050611b8e81611b68565b92915050565b60008060408385031215611bab57611baa611985565b5b6000611bb985828601611afc565b9250506020611bca85828601611b7f565b9150509250929050565b611bdd81611a4a565b8114611be857600080fd5b50565b600081359050611bfa81611bd4565b92915050565b600080600060608486031215611c1957611c18611985565b5b6000611c2786828701611beb565b9350506020611c3886828701611beb565b9250506040611c4986828701611beb565b9150509250925092565b600060208284031215611c6957611c68611985565b5b6000611c7784828501611b7f565b91505092915050565b600080fd5b600080fd5b600080fd5b60008083601f840112611ca557611ca4611c80565b5b8235905067ffffffffffffffff811115611cc257611cc1611c85565b5b602083019150836020820283011115611cde57611cdd611c8a565b5b9250929050565b611cee81611a14565b8114611cf957600080fd5b50565b600081359050611d0b81611ce5565b92915050565b600080600060408486031215611d2a57611d29611985565b5b600084013567ffffffffffffffff811115611d4857611d4761198a565b5b611d5486828701611c8f565b93509350506020611d6786828701611cfc565b9150509250925092565b6000602082019050611d866000830184611a54565b92915050565b6000608082019050611da16000830187611a54565b611dae6020830186611a54565b611dbb6040830185611a54565b611dc86060830184611a95565b95945050505050565b60008060408385031215611de857611de7611985565b5b6000611df685828601611beb565b9250506020611e0785828601611b7f565b9150509250929050565b600080600060608486031215611e2a57611e29611985565b5b6000611e3886828701611b7f565b9350506020611e4986828701611beb565b9250506040611e5a86828701611cfc565b9150509250925092565b60008060408385031215611e7b57611e7a611985565b5b6000611e8985828601611b7f565b9250506020611e9a85828601611beb565b9150509250929050565b60008060408385031215611ebb57611eba611985565b5b6000611ec985828601611beb565b9250506020611eda85828601611cfc565b9150509250929050565b600060208284031215611efa57611ef9611985565b5b6000611f0884828501611beb565b91505092915050565b600082825260208201905092915050565b7f416363657373436f6e74726f6c3a2063616e206f6e6c792072656e6f756e636560008201527f20726f6c657320666f722073656c660000000000000000000000000000000000602082015250565b6000611f7e602f83611f11565b9150611f8982611f22565b604082019050919050565b60006020820190508181036000830152611fad81611f71565b9050919050565b7f52657761726473207661756c74206e6f74207365740000000000000000000000600082015250565b6000611fea601583611f11565b9150611ff582611fb4565b602082019050919050565b6000602082019050818103600083015261201981611fdd565b9050919050565b7f426173652072617465203e323025000000000000000000000000000000000000600082015250565b6000612056600e83611f11565b915061206182612020565b602082019050919050565b6000602082019050818103600083015261208581612049565b9050919050565b7f4d756c7469706c696572203e3230250000000000000000000000000000000000600082015250565b60006120c2600f83611f11565b91506120cd8261208c565b602082019050919050565b600060208201905081810360008301526120f1816120b5565b9050919050565b7f4c6561736520626f6e7573203e35250000000000000000000000000000000000600082015250565b600061212e600f83611f11565b9150612139826120f8565b602082019050919050565b6000602082019050818103600083015261215d81612121565b9050919050565b60006080820190506121796000830187611a54565b6121866020830186611a54565b6121936040830185611a54565b6121a06060830184611a54565b95945050505050565b7f4e487b7100000000000000000000000000000000000000000000000000000000600052603260045260246000fd5b7f4e487b7100000000000000000000000000000000000000000000000000000000600052601160045260246000fd5b600061221282611a4a565b91507fffffffffffffffffffffffffffffffffffffffffffffffffffffffffffffffff8203612244576122436121d8565b5b600182019050919050565b7f496e76616c69642066656520636f6c6c6563746f722061646472657373000000600082015250565b6000612285601d83611f11565b91506122908261224f565b602082019050919050565b600060208201905081810360008301526122b481612278565b9050919050565b7f45786365656473206d6178206665650000000000000000000000000000000000600082015250565b60006122f1600f83611f11565b91506122fc826122bb565b602082019050919050565b60006020820190508181036000830152612320816122e4565b9050919050565b600061233282611a4a565b915061233d83611a4a565b9250828201905080821115612355576123546121d8565b5b92915050565b600061236682611a4a565b915061237183611a4a565b9250828203905081811115612389576123886121d8565b5b92915050565b600061239a82611a4a565b91506123a583611a4a565b92508282026123b381611a4a565b915082820484148315176123ca576123c96121d8565b5b5092915050565b7f4e487b7100000000000000000000000000000000000000000000000000000000600052601260045260246000fd5b600061240b82611a4a565b915061241683611a4a565b925082612426576124256123d1565b5b828204905092915050565b60006020820190506124466000830184611a95565b92915050565b600081905092915050565b7f416363657373436f6e74726f6c3a206163636f756e7420000000000000000000600082015250565b600061248d60178361244c565b915061249882612457565b601782019050919050565b600081519050919050565b60005b838110156124cc5780820151818401526020810190506124b1565b60008484015250505050565b60006124e3826124a3565b6124ed818561244c565b93506124fd8185602086016124ae565b80840191505092915050565b7f206973206d697373696e6720726f6c6520000000000000000000000000000000600082015250565b600061253f60118361244c565b915061254a82612509565b601182019050919050565b600061256082612480565b915061256c82856124d8565b915061257782612532565b915061258382846124d8565b91508190509392505050565b6000601f19601f8301169050919050565b60006125ab826124a3565b6125b58185611f11565b93506125c58185602086016124ae565b6125ce8161258f565b840191505092915050565b600060208201905081810360008301526125f381846125a0565b905092915050565b7f4e487b7100000000000000000000000000000000000000000000000000000000600052603160045260246000fd5b7f5061757361626c653a206e6f7420706175736564000000000000000000000000600082015250565b6000612660601483611f11565b915061266b8261262a565b602082019050919050565b6000602082019050818103600083015261268f81612653565b9050919050565b7f5061757361626c653a2070617573656400000000000000000000000000000000600082015250565b60006126cc601083611f11565b91506126d782612696565b602082019050919050565b600060208201905081810360008301526126fb816126bf565b9050919050565b7f4e487b7100000000000000000000000000000000000000000000000000000000600052604160045260246000fd5b600061273c82611a4a565b91506000820361274f5761274e6121d8565b5b600182039050919050565b7f537472696e67733a20686578206c656e67746820696e73756666696369656e74600082015250565b6000612790602083611f11565b915061279b8261275a565b602082019050919050565b600060208201905081810360008301526127bf81612783565b905091905056fea26469706673582212204c3a2ec3f8806b43060504143f60d22f63aff1faf9dbf4df47d86210ccb7f12264736f6c63430008140033",
  "linkReferences": {},
  "deployedLinkReferences": {}
}