{
  "_format": "hh-sol-artifact-1",
  "contractName": "AdminControl",
  "sourceName": "contracts/governance/AdminControl.sol",
  "abi": [
    {
      "inputs": [
        {
          "internalType": "address",
          "name": "initialAdmin",
          "type": "address"
        },
        {
          "internalType": "address",
          "name": "feeCollector",
          "type": "address"
        },
        {
          "internalType": "address",
          "name": "rewardsVault",
          "type": "address"
        }
      ],
      "stateMutability": "nonpayable",
      "type": "constructor"
    },
    {
      "anonymous": false,
      "inputs": [
        {
          "indexed": true,
          "internalType": "bytes32",
          "name": "role",
          "type": "bytes32"
        },
        {
          "indexed": true,
          "internalType": "address",
          "name": "account",
          "type": "address"
        },
        {
          "indexed": true,
          "internalType": "address",
          "name": "admin",
          "type": "address"
        }
      ],
      "name": "AdminRoleGranted",
      "type": "event"
    },
    {
      "anonymous": false,
      "inputs": [
        {
          "indexed": true,
          "internalType": "bytes32",
          "name": "role",
          "type": "bytes32"
        },
        {
          "indexed": true,
          "internalType": "address",
          "name": "account",
          "type": "address"
        },
        {
          "indexed": true,
          "internalType": "address",
          "name": "admin",
          "type": "address"
        }
      ],
      "name": "AdminRoleRevoked",
      "type": "event"
    },
    {
      "anonymous": false,
      "inputs": [
        {
          "indexed": true,
          "internalType": "address",
          "name": "account",
          "type": "address"
        },
        {
          "indexed": false,
          "internalType": "uint256",
          "name": "oldScore",
          "type": "uint256"
        },
        {
          "indexed": false,
          "internalType": "uint256",
          "name": "newScore",
          "type": "uint256"
        }
      ],
      "name": "CommunityScoreUpdated",
      "type": "event"
    },
    {
      "anonymous": false,
      "inputs": [
        {
          "indexed": true,
          "internalType": "address",
          "name": "oldCollector",
          "type": "address"
        },
        {
          "indexed": true,
          "internalType": "address",
          "name": "newCollector",
          "type": "address"
        }
      ],
      "name": "FeeCollectorUpdated",
      "type": "event"
    },
    {
      "anonymous": false,
      "inputs": [
        {
          "indexed": false,
          "internalType": "uint256",
          "name": "oldBaseFee",
          "type": "uint256"
        },
        {
          "indexed": false,
          "internalType": "uint256",
          "name": "newBaseFee",
          "type": "uint256"
        },
        {
          "indexed": false,
          "internalType": "uint256",
          "name": "oldMaxFee",
          "type": "uint256"
        },
        {
          "indexed": false,
          "internalType": "uint256",
          "name": "newMaxFee",
          "type": "uint256"
        },
        {
          "indexed": false,
          "internalType": "uint256",
          "name": "oldMinFee",
          "type": "uint256"
        },
        {
          "indexed": false,
          "internalType": "uint256",
          "name": "newMinFee",
          "type": "uint256"
        },
        {
          "indexed": true,
          "internalType": "address",
          "name": "admin",
          "type": "address"
        }
      ],
      "name": "FeeConfigUpdated",
      "type": "event"
    },
    {
      "anonymous": false,
      "inputs": [
        {
          "indexed": true,
          "internalType": "address",
          "name": "account",
          "type": "address"
        },
        {
          "indexed": false,
          "internalType": "bool",
          "name": "status",
          "type": "bool"
        },
        {
          "indexed": true,
          "internalType": "address",
          "name": "operator",
          "type": "address"
        }
      ],
      "name": "KYCStatusUpdated",
      "type": "event"
    },
    {
      "anonymous": false,
      "inputs": [
        {
          "indexed": false,
          "internalType": "address",
          "name": "account",
          "type": "address"
        }
      ],
      "name": "Paused",
      "type": "event"
    },
    {
      "anonymous": false,
      "inputs": [
        {
          "indexed": false,
          "internalType": "uint256",
          "name": "oldBaseRate",
          "type": "uint256"
        },
        {
          "indexed": false,
          "internalType": "uint256",
          "name": "newBaseRate",
          "type": "uint256"
        },
        {
          "indexed": false,
          "internalType": "uint256",
          "name": "oldMultiplier",
          "type": "uint256"
        },
        {
          "indexed": false,
          "internalType": "uint256",
          "name": "newMultiplier",
          "type": "uint256"
        },
        {
          "indexed": false,
          "internalType": "uint256",
          "name": "oldCap",
          "type": "uint256"
        },
        {
          "indexed": false,
          "internalType": "uint256",
          "name": "newCap",
          "type": "uint256"
        },
        {
          "indexed": true,
          "internalType": "address",
          "name": "admin",
          "type": "address"
        }
      ],
      "name": "RewardParametersUpdated",
      "type": "event"
    },
    {
      "anonymous": false,
      "inputs": [
        {
          "indexed": true,
          "internalType": "address",
          "name": "oldVault",
          "type": "address"
        },
        {
          "indexed": true,
          "internalType": "address",
          "name": "newVault",
          "type": "address"
        }
      ],
      "name": "RewardsVaultUpdated",
      "type": "event"
    },
    {
      "anonymous": false,
      "inputs": [
        {
          "indexed": true,
          "internalType": "bytes32",
          "name": "role",
          "type": "bytes32"
        },
        {
          "indexed": true,
          "internalType": "bytes32",
          "name": "previousAdminRole",
          "type": "bytes32"
        },
        {
          "indexed": true,
          "internalType": "bytes32",
          "name": "newAdminRole",
          "type": "bytes32"
        }
      ],
      "name": "RoleAdminChanged",
      "type": "event"
    },
    {
      "anonymous": false,
      "inputs": [
        {
          "indexed": true,
          "internalType": "bytes32",
          "name": "role",
          "type": "bytes32"
        },
        {
          "indexed": true,
          "internalType": "address",
          "name": "account",
          "type": "address"
        },
        {
          "indexed": true,
          "internalType": "address",
          "name": "sender",
          "type": "address"
        }
      ],
      "name": "RoleGranted",
      "type": "event"
    },
    {
      "anonymous": false,
      "inputs": [
        {
          "indexed": true,
          "internalType": "bytes32",
          "name": "role",
          "type": "bytes32"
        },
        {
          "indexed": true,
          "internalType": "address",
          "name": "account",
          "type": "address"
        },
        {
          "indexed": true,
          "internalType": "address",
          "name": "sender",
          "type": "address"
        }
      ],
      "name": "RoleRevoked",
      "type": "event"
    },
    {
      "anonymous": false,
      "inputs": [
        {
          "indexed": false,
          "internalType": "address",
          "name": "account",
          "type": "address"
        }
      ],
      "name": "Unpaused",
      "type": "event"
    },
    {
      "inputs": [],
      "name": "DEFAULT_ADMIN_ROLE",
      "outputs": [
        {
          "internalType": "bytes32",
          "name": "",
          "type": "bytes32"
        }
      ],
      "stateMutability": "view",
      "type": "function"
    },
    {
      "inputs": [],
      "name": "EMERGENCY_ADMIN",
      "outputs": [
        {
          "internalType": "bytes32",
          "name": "",
          "type": "bytes32"
        }
      ],
      "stateMutability": "view",
      "type": "function"
    },
    {
      "inputs": [],
      "name": "LEGAL_ROLE",
      "outputs": [
        {
          "internalType": "bytes32",
          "name": "",
          "type": "bytes32"
        }
      ],
      "stateMutability": "view",
      "type": "function"
    },
    {
      "inputs": [],
      "name": "MAX_BASE_RATE",
      "outputs": [
        {
          "internalType": "uint256",
          "name": "",
          "type": "uint256"
        }
      ],
      "stateMutability": "view",
      "type": "function"
    },
    {
      "inputs": [],
      "name": "MAX_COMMUNITY_SCORE",
      "outputs": [
        {
          "internalType": "uint256",
          "name": "",
          "type": "uint256"
        }
      ],
      "stateMutability": "view",
      "type": "function"
    },
    {
      "inputs": [],
      "name": "MAX_FEE",
      "outputs": [
        {
          "internalType": "uint256",
          "name": "",
          "type": "uint256"
        }
      ],
      "stateMutability": "view",
      "type": "function"
    },
    {
      "inputs": [],
      "name": "MAX_MULTIPLIER",
      "outputs": [
        {
          "internalType": "uint256",
          "name": "",
          "type": "uint256"
        }
      ],
      "stateMutability": "view",
      "type": "function"
    },
    {
      "inputs": [],
      "name": "MIN_BASE_RATE",
      "outputs": [
        {
          "internalType": "uint256",
          "name": "",
          "type": "uint256"
        }
      ],
      "stateMutability": "view",
      "type": "function"
    },
    {
      "inputs": [],
      "name": "MIN_MULTIPLIER",
      "outputs": [
        {
          "internalType": "uint256",
          "name": "",
          "type": "uint256"
        }
      ],
      "stateMutability": "view",
      "type": "function"
    },
    {
      "inputs": [],
      "name": "MIN_UPDATE_INTERVAL",
      "outputs": [
        {
          "internalType": "uint256",
          "name": "",
          "type": "uint256"
        }
      ],
      "stateMutability": "view",
      "type": "function"
    },
    {
      "inputs": [],
      "name": "OPERATOR_ROLE",
      "outputs": [
        {
          "internalType": "bytes32",
          "name": "",
          "type": "bytes32"
        }
      ],
      "stateMutability": "view",
      "type": "function"
    },
    {
      "inputs": [],
      "name": "PAUSER_ROLE",
      "outputs": [
        {
          "internalType": "bytes32",
          "name": "",
          "type": "bytes32"
        }
      ],
      "stateMutability": "view",
      "type": "function"
    },
    {
      "inputs": [],
      "name": "PERCENTAGE_BASE",
      "outputs": [
        {
          "internalType": "uint256",
          "name": "",
          "type": "uint256"
        }
      ],
      "stateMutability": "view",
      "type": "function"
    },
    {
      "inputs": [],
      "name": "REWARD_MANAGER",
      "outputs": [
        {
          "internalType": "bytes32",
          "name": "",
          "type": "bytes32"
        }
      ],
      "stateMutability": "view",
      "type": "function"
    },
    {
      "inputs": [
        {
          "internalType": "address",
          "name": "",
          "type": "address"
        }
      ],
      "name": "communityScores",
      "outputs": [
        {
          "internalType": "uint256",
          "name": "",
          "type": "uint256"
        }
      ],
      "stateMutability": "view",
      "type": "function"
    },
    {
      "inputs": [],
      "name": "feeConfig",
      "outputs": [
        {
          "internalType": "uint256",
          "name": "baseFee",
          "type": "uint256"
        },
        {
          "internalType": "uint256",
          "name": "maxFee",
          "type": "uint256"
        },
        {
          "internalType": "uint256",
          "name": "minFee",
          "type": "uint256"
        },
        {
          "internalType": "address",
          "name": "feeCollector",
          "type": "address"
        },
        {
          "internalType": "uint256",
          "name": "lastUpdateTime",
          "type": "uint256"
        }
      ],
      "stateMutability": "view",
      "type": "function"
    },
    {
      "inputs": [],
      "name": "getFeeConfig",
      "outputs": [
        {
          "internalType": "uint256",
          "name": "baseFee",
          "type": "uint256"
        },
        {
          "internalType": "uint256",
          "name": "maxFee",
          "type": "uint256"
        },
        {
          "internalType": "uint256",
          "name": "minFee",
          "type": "uint256"
        },
        {
          "internalType": "address",
          "name": "collector",
          "type": "address"
        },
        {
          "internalType": "uint256",
          "name": "lastUpdate",
          "type": "uint256"
        }
      ],
      "stateMutability": "view",
      "type": "function"
    },
    {
      "inputs": [],
      "name": "getRewardParameters",
      "outputs": [
        {
          "internalType": "uint256",
          "name": "baseRate",
          "type": "uint256"
        },
        {
          "internalType": "uint256",
          "name": "multiplier",
          "type": "uint256"
        },
        {
          "internalType": "uint256",
          "name": "rewardsCap",
          "type": "uint256"
        },
        {
          "internalType": "address",
          "name": "vault",
          "type": "address"
        },
        {
          "internalType": "uint256",
          "name": "lastUpdate",
          "type": "uint256"
        }
      ],
      "stateMutability": "view",
      "type": "function"
    },
    {
      "inputs": [
        {
          "internalType": "bytes32",
          "name": "role",
          "type": "bytes32"
        }
      ],
      "name": "getRoleAdmin",
      "outputs": [
        {
          "internalType": "bytes32",
          "name": "",
          "type": "bytes32"
        }
      ],
      "stateMutability": "view",
      "type": "function"
    },
    {
      "inputs": [
        {
          "internalType": "bytes32",
          "name": "role",
          "type": "bytes32"
        },
        {
          "internalType": "address",
          "name": "account",
          "type": "address"
        }
      ],
      "name": "grantRole",
      "outputs": [],
      "stateMutability": "nonpayable",
      "type": "function"
    },
    {
      "inputs": [
        {
          "internalType": "bytes32",
          "name": "role",
          "type": "bytes32"
        },
        {
          "internalType": "address",
          "name": "account",
          "type": "address"
        }
      ],
      "name": "hasRole",
      "outputs": [
        {
          "internalType": "bool",
          "name": "",
          "type": "bool"
        }
      ],
      "stateMutability": "view",
      "type": "function"
    },
    {
      "inputs": [
        {
          "internalType": "address",
          "name": "account",
          "type": "address"
        }
      ],
      "name": "isKYCVerified",
      "outputs": [
        {
          "internalType": "bool",
          "name": "",
          "type": "bool"
        }
      ],
      "stateMutability": "view",
      "type": "function"
    },
    {
      "inputs": [],
      "name": "pause",
      "outputs": [],
      "stateMutability": "nonpayable",
      "type": "function"
    },
    {
      "inputs": [],
      "name": "paused",
      "outputs": [
        {
          "internalType": "bool",
          "name": "",
          "type": "bool"
        }
      ],
      "stateMutability": "view",
      "type": "function"
    },
    {
      "inputs": [
        {
          "internalType": "bytes32",
          "name": "role",
          "type": "bytes32"
        },
        {
          "internalType": "address",
          "name": "account",
          "type": "address"
        }
      ],
      "name": "renounceRole",
      "outputs": [],
      "stateMutability": "nonpayable",
      "type": "function"
    },
    {
      "inputs": [
        {
          "internalType": "bytes32",
          "name": "role",
          "type": "bytes32"
        },
        {
          "internalType": "address",
          "name": "account",
          "type": "address"
        }
      ],
      "name": "revokeRole",
      "outputs": [],
      "stateMutability": "nonpayable",
      "type": "function"
    },
    {
      "inputs": [],
      "name": "rewardParams",
      "outputs": [
        {
          "internalType": "uint256",
          "name": "baseRate",
          "type": "uint256"
        },
        {
          "internalType": "uint256",
          "name": "multiplier",
          "type": "uint256"
        },
        {
          "internalType": "uint256",
          "name": "rewardsCap",
          "type": "uint256"
        },
        {
          "internalType": "uint256",
          "name": "lastUpdateTime",
          "type": "uint256"
        },
        {
          "internalType": "address",
          "name": "rewardsVault",
          "type": "address"
        }
      ],
      "stateMutability": "view",
      "type": "function"
    },
    {
      "inputs": [
        {
          "internalType": "bytes4",
          "name": "interfaceId",
          "type": "bytes4"
        }
      ],
      "name": "supportsInterface",
      "outputs": [
        {
          "internalType": "bool",
          "name": "",
          "type": "bool"
        }
      ],
      "stateMutability": "view",
      "type": "function"
    },
    {
      "inputs": [],
      "name": "unpause",
      "outputs": [],
      "stateMutability": "nonpayable",
      "type": "function"
    },
    {
      "inputs": [
        {
          "internalType": "address",
          "name": "account",
          "type": "address"
        },
        {
          "internalType": "uint256",
          "name": "newScore",
          "type": "uint256"
        }
      ],
      "name": "updateCommunityScore",
      "outputs": [],
      "stateMutability": "nonpayable",
      "type": "function"
    },
    {
      "inputs": [
        {
          "internalType": "address",
          "name": "newCollector",
          "type": "address"
        }
      ],
      "name": "updateFeeCollector",
      "outputs": [],
      "stateMutability": "nonpayable",
      "type": "function"
    },
    {
      "inputs": [
        {
          "internalType": "uint256",
          "name": "newBaseFee",
          "type": "uint256"
        },
        {
          "internalType": "uint256",
          "name": "newMaxFee",
          "type": "uint256"
        },
        {
          "internalType": "uint256",
          "name": "newMinFee",
          "type": "uint256"
        }
      ],
      "name": "updateFeeConfig",
      "outputs": [],
      "stateMutability": "nonpayable",
      "type": "function"
    },
    {
      "inputs": [
        {
          "internalType": "address",
          "name": "account",
          "type": "address"
        },
        {
          "internalType": "bool",
          "name": "status",
          "type": "bool"
        }
      ],
      "name": "updateKYCStatus",
      "outputs": [],
      "stateMutability": "nonpayable",
      "type": "function"
    },
    {
      "inputs": [
        {
          "internalType": "uint256",
          "name": "newBaseRate",
          "type": "uint256"
        },
        {
          "internalType": "uint256",
          "name": "newMultiplier",
          "type": "uint256"
        },
        {
          "internalType": "uint256",
          "name": "newRewardsCap",
          "type": "uint256"
        }
      ],
      "name": "updateRewardParameters",
      "outputs": [],
      "stateMutability": "nonpayable",
      "type": "function"
    },
    {
      "inputs": [
        {
          "internalType": "address",
          "name": "newVault",
          "type": "address"
        }
      ],
      "name": "updateRewardsVault",
      "outputs": [],
      "stateMutability": "nonpayable",
      "type": "function"
    }
  ],
  "bytecode": "0x60806040523480156200001157600080fd5b50604051620033663803806200336683398181016040528101906200003791906200061d565b600180819055506000600260006101000a81548160ff021916908315150217905550600073ffffffffffffffffffffffffffffffffffffffff168373ffffffffffffffffffffffffffffffffffffffff1603620000cb576040517f08c379a0000000000000000000000000000000000000000000000000000000008152600401620000c290620006da565b60405180910390fd5b600073ffffffffffffffffffffffffffffffffffffffff168273ffffffffffffffffffffffffffffffffffffffff16036200013d576040517f08c379a000000000000000000000000000000000000000000000000000000000815260040162000134906200074c565b60405180910390fd5b600073ffffffffffffffffffffffffffffffffffffffff168173ffffffffffffffffffffffffffffffffffffffff1603620001af576040517f08c379a0000000000000000000000000000000000000000000000000000000008152600401620001a690620007be565b60405180910390fd5b620001c46000801b846200043a60201b60201c565b620001f67f97667070c54ef182b0f5858b034beac1b6f3089aa2d3188bb1e8929f4fa9b929846200043a60201b60201c565b620002287fb9f13ecb5e7f0f859c44b76b3a163e504787b446da95a26bf75e53e1ff4a1e0e846200043a60201b60201c565b6200025a7f6393fa734211156fcc8c7dda6b0650f5c731d4c838c1db43445a149aa2f5b6fe846200043a60201b60201c565b6200028c7f5c91514091af31f62f596a314af7d5be40146b2f2355969392f055e12e0982fb846200043a60201b60201c565b620002be7f65d7a28e3265b37a6474929f336521b332c1681b933f6cb9f3376673440d862a846200043a60201b60201c565b6040518060a0016040528060fa81526020016101f48152602001606481526020018373ffffffffffffffffffffffffffffffffffffffff16815260200142815250600360008201518160000155602082015181600101556040820151816002015560608201518160030160006101000a81548173ffffffffffffffffffffffffffffffffffffffff021916908373ffffffffffffffffffffffffffffffffffffffff160217905550608082015181600401559050506040518060a001604052806103e8815260200160c8815260200169d3c21bcecceda100000081526020014281526020018273ffffffffffffffffffffffffffffffffffffffff1681525060086000820151816000015560208201518160010155604082015181600201556060820151816003015560808201518160040160006101000a81548173ffffffffffffffffffffffffffffffffffffffff021916908373ffffffffffffffffffffffffffffffffffffffff160217905550905050505050620007e0565b6200044c82826200045060201b60201c565b5050565b6200046282826200054160201b60201c565b6200053d57600160008084815260200190815260200160002060000160008373ffffffffffffffffffffffffffffffffffffffff1673ffffffffffffffffffffffffffffffffffffffff16815260200190815260200160002060006101000a81548160ff021916908315150217905550620004e2620005ab60201b60201c565b73ffffffffffffffffffffffffffffffffffffffff168173ffffffffffffffffffffffffffffffffffffffff16837f2f8788117e7eff1d82e926ec794901d17c78024a50270940304540a733656f0d60405160405180910390a45b5050565b600080600084815260200190815260200160002060000160008373ffffffffffffffffffffffffffffffffffffffff1673ffffffffffffffffffffffffffffffffffffffff16815260200190815260200160002060009054906101000a900460ff16905092915050565b600033905090565b600080fd5b600073ffffffffffffffffffffffffffffffffffffffff82169050919050565b6000620005e582620005b8565b9050919050565b620005f781620005d8565b81146200060357600080fd5b50565b6000815190506200061781620005ec565b92915050565b600080600060608486031215620006395762000638620005b3565b5b6000620006498682870162000606565b93505060206200065c8682870162000606565b92505060406200066f8682870162000606565b9150509250925092565b600082825260208201905092915050565b7f496e76616c69642061646d696e20616464726573730000000000000000000000600082015250565b6000620006c260158362000679565b9150620006cf826200068a565b602082019050919050565b60006020820190508181036000830152620006f581620006b3565b9050919050565b7f496e76616c69642066656520636f6c6c6563746f720000000000000000000000600082015250565b60006200073460158362000679565b91506200074182620006fc565b602082019050919050565b60006020820190508181036000830152620007678162000725565b9050919050565b7f496e76616c69642072657761726473207661756c740000000000000000000000600082015250565b6000620007a660158362000679565b9150620007b3826200076e565b602082019050919050565b60006020820190508181036000830152620007d98162000797565b9050919050565b612b7680620007f06000396000f3fe608060405234801561001057600080fd5b50600436106102115760003560e01c80637bf9601411610125578063bd3be27c116100ad578063d547741f1161007c578063d547741f146105cc578063d6585ecf146105e8578063e63ab1e914610606578063ed03e78c14610624578063f5b541a61461064257610211565b8063bd3be27c14610558578063bf534d6314610576578063c9bf852214610592578063d2c35ce8146105b057610211565b806391d14854116100f457806391d14854146104ae5780639a03911e146104de578063a217fddf146104fa578063b74b9fd914610518578063bc063e1a1461053a57610211565b80637bf960141461044a5780638456cb591461046857806387c13943146104725780638e7579a11461049057610211565b806354b7636e116101a85780635e67ab76116101775780635e67ab761461039e5780635fbbc0d2146103ba57806360d03f26146103dc57806373c250c6146103f8578063763469141461042857610211565b806354b7636e146103145780635932fdba146103445780635c975abb146103625780635d6a618d1461038057610211565b8063352fbf99116101e4578063352fbf99146102b457806336568abe146102d25780633f4ba83a146102ee57806353df9d76146102f857610211565b806301ffc9a7146102165780631e5eb1d014610246578063248a9ca3146102685780632f2ff15d14610298575b600080fd5b610230600480360381019061022b9190611dd2565b610660565b60405161023d9190611e1a565b60405180910390f35b61024e6106da565b60405161025f959493929190611e8f565b60405180910390f35b610282600480360381019061027d9190611f18565b61071e565b60405161028f9190611f54565b60405180910390f35b6102b260048036038101906102ad9190611f9b565b61073d565b005b6102bc61082a565b6040516102c99190611fdb565b60405180910390f35b6102ec60048036038101906102e79190611f9b565b61082f565b005b6102f66108b2565b005b610312600480360381019061030d9190612022565b6108e7565b005b61032e60048036038101906103299190612062565b610a4b565b60405161033b9190611e1a565b60405180910390f35b61034c610aa1565b6040516103599190611f54565b60405180910390f35b61036a610ac5565b6040516103779190611e1a565b60405180910390f35b610388610adc565b6040516103959190611fdb565b60405180910390f35b6103b860048036038101906103b391906120bb565b610ae2565b005b6103c2610d12565b6040516103d3959493929190611e8f565b60405180910390f35b6103f660048036038101906103f1919061210e565b610d68565b005b610412600480360381019061040d9190612062565b610f2e565b60405161041f9190611fdb565b60405180910390f35b610430610f46565b60405161044195949392919061214e565b60405180910390f35b610452610f8a565b60405161045f9190611fdb565b60405180910390f35b610470610f91565b005b61047a610fc6565b6040516104879190611fdb565b60405180910390f35b610498610fcc565b6040516104a59190611f54565b60405180910390f35b6104c860048036038101906104c39190611f9b565b610ff0565b6040516104d59190611e1a565b60405180910390f35b6104f860048036038101906104f39190612062565b61105a565b005b6105026111a5565b60405161050f9190611f54565b60405180910390f35b6105206111ac565b604051610531959493929190611e8f565b60405180910390f35b610542611203565b60405161054f9190611fdb565b60405180910390f35b610560611209565b60405161056d9190611fdb565b60405180910390f35b610590600480360381019061058b91906120bb565b611210565b005b61059a6113f8565b6040516105a79190611fdb565b60405180910390f35b6105ca60048036038101906105c59190612062565b6113fe565b005b6105e660048036038101906105e19190611f9b565b611547565b005b6105f0611634565b6040516105fd9190611f54565b60405180910390f35b61060e611658565b60405161061b9190611f54565b60405180910390f35b61062c61167c565b6040516106399190611fdb565b60405180910390f35b61064a611681565b6040516106579190611f54565b60405180910390f35b60007f7965db0b000000000000000000000000000000000000000000000000000000007bffffffffffffffffffffffffffffffffffffffffffffffffffffffff1916827bffffffffffffffffffffffffffffffffffffffffffffffffffffffff191614806106d357506106d2826116a5565b5b9050919050565b60038060000154908060010154908060020154908060030160009054906101000a900473ffffffffffffffffffffffffffffffffffffffff16908060040154905085565b6000806000838152602001908152602001600020600101549050919050565b6107468261071e565b61074f8161170f565b81600073ffffffffffffffffffffffffffffffffffffffff168173ffffffffffffffffffffffffffffffffffffffff16036107bf576040517f08c379a00000000000000000000000000000000000000000000000000000000081526004016107b6906121fe565b60405180910390fd5b6107c98484611723565b3373ffffffffffffffffffffffffffffffffffffffff168373ffffffffffffffffffffffffffffffffffffffff16857fb754d28367d5b086c81243c886ead0839c92cb5f281e492d7159800bc57d3c1760405160405180910390a450505050565b606481565b610837611744565b73ffffffffffffffffffffffffffffffffffffffff168173ffffffffffffffffffffffffffffffffffffffff16146108a4576040517f08c379a000000000000000000000000000000000000000000000000000000000815260040161089b90612290565b60405180910390fd5b6108ae828261174c565b5050565b7f5c91514091af31f62f596a314af7d5be40146b2f2355969392f055e12e0982fb6108dc8161170f565b6108e461182d565b50565b7fb9f13ecb5e7f0f859c44b76b3a163e504787b446da95a26bf75e53e1ff4a1e0e6109118161170f565b610919611890565b82600073ffffffffffffffffffffffffffffffffffffffff168173ffffffffffffffffffffffffffffffffffffffff1603610989576040517f08c379a0000000000000000000000000000000000000000000000000000000008152600401610980906121fe565b60405180910390fd5b82600d60008673ffffffffffffffffffffffffffffffffffffffff1673ffffffffffffffffffffffffffffffffffffffff16815260200190815260200160002060006101000a81548160ff0219169083151502179055503373ffffffffffffffffffffffffffffffffffffffff168473ffffffffffffffffffffffffffffffffffffffff167f24a8961e762fdb5b58e46e6d14dd1b5c261b610bf3bf440130bdabbfc699116a85604051610a3d9190611e1a565b60405180910390a350505050565b6000600d60008373ffffffffffffffffffffffffffffffffffffffff1673ffffffffffffffffffffffffffffffffffffffff16815260200190815260200160002060009054906101000a900460ff169050919050565b7f6393fa734211156fcc8c7dda6b0650f5c731d4c838c1db43445a149aa2f5b6fe81565b6000600260009054906101000a900460ff16905090565b61271081565b7f6393fa734211156fcc8c7dda6b0650f5c731d4c838c1db43445a149aa2f5b6fe610b0c8161170f565b610b14611890565b62015180600360040154610b2891906122df565b421015610b6a576040517f08c379a0000000000000000000000000000000000000000000000000000000008152600401610b619061235f565b60405180910390fd5b6064841015610bae576040517f08c379a0000000000000000000000000000000000000000000000000000000008152600401610ba5906123cb565b60405180910390fd5b620f4240841115610bf4576040517f08c379a0000000000000000000000000000000000000000000000000000000008152600401610beb90612437565b60405180910390fd5b6064831015610c38576040517f08c379a0000000000000000000000000000000000000000000000000000000008152600401610c2f906124a3565b60405180910390fd5b612710831115610c7d576040517f08c379a0000000000000000000000000000000000000000000000000000000008152600401610c749061250f565b60405180910390fd5b3373ffffffffffffffffffffffffffffffffffffffff167f0e9e404729dbeee37a908f95a230168e5a74924f4dd32bbd8ec55fbfe7a066ca600860000154866008600101548760086002015488604051610cdc9695949392919061252f565b60405180910390a28360086000018190555082600860010181905550816008600201819055504260086003018190555050505050565b60008060008060006003600001546003600101546003600201546003800160009054906101000a900473ffffffffffffffffffffffffffffffffffffffff16600360040154945094509450945094509091929394565b7f97667070c54ef182b0f5858b034beac1b6f3089aa2d3188bb1e8929f4fa9b929610d928161170f565b610d9a611890565b82600073ffffffffffffffffffffffffffffffffffffffff168173ffffffffffffffffffffffffffffffffffffffff1603610e0a576040517f08c379a0000000000000000000000000000000000000000000000000000000008152600401610e01906121fe565b60405180910390fd5b612710831115610e4f576040517f08c379a0000000000000000000000000000000000000000000000000000000008152600401610e46906125dc565b60405180910390fd5b6000600e60008673ffffffffffffffffffffffffffffffffffffffff1673ffffffffffffffffffffffffffffffffffffffff16815260200190815260200160002054905083600e60008773ffffffffffffffffffffffffffffffffffffffff1673ffffffffffffffffffffffffffffffffffffffff168152602001908152602001600020819055508473ffffffffffffffffffffffffffffffffffffffff167f7681c9bc4703daadfdfbfae0bd1c828b4619e58101f0e8a5404f70e93c6286638286604051610f1f9291906125fc565b60405180910390a25050505050565b600e6020528060005260406000206000915090505481565b60088060000154908060010154908060020154908060030154908060040160009054906101000a900473ffffffffffffffffffffffffffffffffffffffff16905085565b620f424081565b7f5c91514091af31f62f596a314af7d5be40146b2f2355969392f055e12e0982fb610fbb8161170f565b610fc36118da565b50565b61271081565b7fb9f13ecb5e7f0f859c44b76b3a163e504787b446da95a26bf75e53e1ff4a1e0e81565b600080600084815260200190815260200160002060000160008373ffffffffffffffffffffffffffffffffffffffff1673ffffffffffffffffffffffffffffffffffffffff16815260200190815260200160002060009054906101000a900460ff16905092915050565b6000801b6110678161170f565b81600073ffffffffffffffffffffffffffffffffffffffff168173ffffffffffffffffffffffffffffffffffffffff16036110d7576040517f08c379a00000000000000000000000000000000000000000000000000000000081526004016110ce906121fe565b60405180910390fd5b6000600860040160009054906101000a900473ffffffffffffffffffffffffffffffffffffffff16905083600860040160006101000a81548173ffffffffffffffffffffffffffffffffffffffff021916908373ffffffffffffffffffffffffffffffffffffffff1602179055508373ffffffffffffffffffffffffffffffffffffffff168173ffffffffffffffffffffffffffffffffffffffff167ff2ce85500052e4bce5775e8ae4c693f7306abf01169eb3a48860dce05cb91c3160405160405180910390a350505050565b6000801b81565b6000806000806000600860000154600860010154600860020154600860040160009054906101000a900473ffffffffffffffffffffffffffffffffffffffff16600860030154945094509450945094509091929394565b6103e881565b6201518081565b7f97667070c54ef182b0f5858b034beac1b6f3089aa2d3188bb1e8929f4fa9b92961123a8161170f565b611242611890565b6201518060036004015461125691906122df565b421015611298576040517f08c379a000000000000000000000000000000000000000000000000000000000815260040161128f9061235f565b60405180910390fd5b838211156112db576040517f08c379a00000000000000000000000000000000000000000000000000000000081526004016112d290612671565b60405180910390fd5b8284111561131e576040517f08c379a0000000000000000000000000000000000000000000000000000000008152600401611315906126dd565b60405180910390fd5b6103e8831115611363576040517f08c379a000000000000000000000000000000000000000000000000000000000815260040161135a90612749565b60405180910390fd5b3373ffffffffffffffffffffffffffffffffffffffff167f4fd952b4a4b8a6db26b29134c94b61c25b74b0f857c3685e527c9e43f1d6d1cd6003600001548660036001015487600360020154886040516113c29695949392919061252f565b60405180910390a28360036000018190555082600360010181905550816003600201819055504260036004018190555050505050565b61271081565b6000801b61140b8161170f565b81600073ffffffffffffffffffffffffffffffffffffffff168173ffffffffffffffffffffffffffffffffffffffff160361147b576040517f08c379a0000000000000000000000000000000000000000000000000000000008152600401611472906121fe565b60405180910390fd5b60006003800160009054906101000a900473ffffffffffffffffffffffffffffffffffffffff169050836003800160006101000a81548173ffffffffffffffffffffffffffffffffffffffff021916908373ffffffffffffffffffffffffffffffffffffffff1602179055508373ffffffffffffffffffffffffffffffffffffffff168173ffffffffffffffffffffffffffffffffffffffff167f5d16ad41baeb009cd23eb8f6c7cde5c2e0cd5acf4a33926ab488875c37c37f3860405160405180910390a350505050565b6115508261071e565b6115598161170f565b81600073ffffffffffffffffffffffffffffffffffffffff168173ffffffffffffffffffffffffffffffffffffffff16036115c9576040517f08c379a00000000000000000000000000000000000000000000000000000000081526004016115c0906121fe565b60405180910390fd5b6115d3848461193d565b3373ffffffffffffffffffffffffffffffffffffffff168373ffffffffffffffffffffffffffffffffffffffff16857f77a3124d5a7fb118ef3bd073fd7ee2c762b24256db96ace524ecd6b6cf11415c60405160405180910390a450505050565b7f5c91514091af31f62f596a314af7d5be40146b2f2355969392f055e12e0982fb81565b7f65d7a28e3265b37a6474929f336521b332c1681b933f6cb9f3376673440d862a81565b606481565b7f97667070c54ef182b0f5858b034beac1b6f3089aa2d3188bb1e8929f4fa9b92981565b60007f01ffc9a7000000000000000000000000000000000000000000000000000000007bffffffffffffffffffffffffffffffffffffffffffffffffffffffff1916827bffffffffffffffffffffffffffffffffffffffffffffffffffffffff1916149050919050565b6117208161171b611744565b61195e565b50565b61172c8261071e565b6117358161170f565b61173f83836119e3565b505050565b600033905090565b6117568282610ff0565b1561182957600080600084815260200190815260200160002060000160008373ffffffffffffffffffffffffffffffffffffffff1673ffffffffffffffffffffffffffffffffffffffff16815260200190815260200160002060006101000a81548160ff0219169083151502179055506117ce611744565b73ffffffffffffffffffffffffffffffffffffffff168173ffffffffffffffffffffffffffffffffffffffff16837ff6391f5c32d9c69d2a47ea670b442974b53935d1edc7fd64eb21e047a839171b60405160405180910390a45b5050565b611835611ac3565b6000600260006101000a81548160ff0219169083151502179055507f5db9ee0a495bf2e6ff9c91a7834c1ba4fdd244a5e8aa4e537bd38aeae4b073aa611879611744565b6040516118869190612769565b60405180910390a1565b611898610ac5565b156118d8576040517f08c379a00000000000000000000000000000000000000000000000000000000081526004016118cf906127d0565b60405180910390fd5b565b6118e2611890565b6001600260006101000a81548160ff0219169083151502179055507f62e78cea01bee320cd4e420270b5ea74000d11b0c9f74754ebdbfc544b05a258611926611744565b6040516119339190612769565b60405180910390a1565b6119468261071e565b61194f8161170f565b611959838361174c565b505050565b6119688282610ff0565b6119df5761197581611b0c565b6119838360001c6020611b39565b6040516020016119949291906128f9565b6040516020818303038152906040526040517f08c379a00000000000000000000000000000000000000000000000000000000081526004016119d6919061297d565b60405180910390fd5b5050565b6119ed8282610ff0565b611abf57600160008084815260200190815260200160002060000160008373ffffffffffffffffffffffffffffffffffffffff1673ffffffffffffffffffffffffffffffffffffffff16815260200190815260200160002060006101000a81548160ff021916908315150217905550611a64611744565b73ffffffffffffffffffffffffffffffffffffffff168173ffffffffffffffffffffffffffffffffffffffff16837f2f8788117e7eff1d82e926ec794901d17c78024a50270940304540a733656f0d60405160405180910390a45b5050565b611acb610ac5565b611b0a576040517f08c379a0000000000000000000000000000000000000000000000000000000008152600401611b01906129eb565b60405180910390fd5b565b6060611b328273ffffffffffffffffffffffffffffffffffffffff16601460ff16611b39565b9050919050565b606060006002836002611b4c9190612a0b565b611b5691906122df565b67ffffffffffffffff811115611b6f57611b6e612a4d565b5b6040519080825280601f01601f191660200182016040528015611ba15781602001600182028036833780820191505090505b5090507f300000000000000000000000000000000000000000000000000000000000000081600081518110611bd957611bd8612a7c565b5b60200101907effffffffffffffffffffffffffffffffffffffffffffffffffffffffffffff1916908160001a9053507f780000000000000000000000000000000000000000000000000000000000000081600181518110611c3d57611c3c612a7c565b5b60200101907effffffffffffffffffffffffffffffffffffffffffffffffffffffffffffff1916908160001a90535060006001846002611c7d9190612a0b565b611c8791906122df565b90505b6001811115611d27577f3031323334353637383961626364656600000000000000000000000000000000600f861660108110611cc957611cc8612a7c565b5b1a60f81b828281518110611ce057611cdf612a7c565b5b60200101907effffffffffffffffffffffffffffffffffffffffffffffffffffffffffffff1916908160001a905350600485901c945080611d2090612aab565b9050611c8a565b5060008414611d6b576040517f08c379a0000000000000000000000000000000000000000000000000000000008152600401611d6290612b20565b60405180910390fd5b8091505092915050565b600080fd5b60007fffffffff0000000000000000000000000000000000000000000000000000000082169050919050565b611daf81611d7a565b8114611dba57600080fd5b50565b600081359050611dcc81611da6565b92915050565b600060208284031215611de857611de7611d75565b5b6000611df684828501611dbd565b91505092915050565b60008115159050919050565b611e1481611dff565b82525050565b6000602082019050611e2f6000830184611e0b565b92915050565b6000819050919050565b611e4881611e35565b82525050565b600073ffffffffffffffffffffffffffffffffffffffff82169050919050565b6000611e7982611e4e565b9050919050565b611e8981611e6e565b82525050565b600060a082019050611ea46000830188611e3f565b611eb16020830187611e3f565b611ebe6040830186611e3f565b611ecb6060830185611e80565b611ed86080830184611e3f565b9695505050505050565b6000819050919050565b611ef581611ee2565b8114611f0057600080fd5b50565b600081359050611f1281611eec565b92915050565b600060208284031215611f2e57611f2d611d75565b5b6000611f3c84828501611f03565b91505092915050565b611f4e81611ee2565b82525050565b6000602082019050611f696000830184611f45565b92915050565b611f7881611e6e565b8114611f8357600080fd5b50565b600081359050611f9581611f6f565b92915050565b60008060408385031215611fb257611fb1611d75565b5b6000611fc085828601611f03565b9250506020611fd185828601611f86565b9150509250929050565b6000602082019050611ff06000830184611e3f565b92915050565b611fff81611dff565b811461200a57600080fd5b50565b60008135905061201c81611ff6565b92915050565b6000806040838503121561203957612038611d75565b5b600061204785828601611f86565b92505060206120588582860161200d565b9150509250929050565b60006020828403121561207857612077611d75565b5b600061208684828501611f86565b91505092915050565b61209881611e35565b81146120a357600080fd5b50565b6000813590506120b58161208f565b92915050565b6000806000606084860312156120d4576120d3611d75565b5b60006120e2868287016120a6565b93505060206120f3868287016120a6565b9250506040612104868287016120a6565b9150509250925092565b6000806040838503121561212557612124611d75565b5b600061213385828601611f86565b9250506020612144858286016120a6565b9150509250929050565b600060a0820190506121636000830188611e3f565b6121706020830187611e3f565b61217d6040830186611e3f565b61218a6060830185611e3f565b6121976080830184611e80565b9695505050505050565b600082825260208201905092915050565b7f496e76616c696420616464726573730000000000000000000000000000000000600082015250565b60006121e8600f836121a1565b91506121f3826121b2565b602082019050919050565b60006020820190508181036000830152612217816121db565b9050919050565b7f416363657373436f6e74726f6c3a2063616e206f6e6c792072656e6f756e636560008201527f20726f6c657320666f722073656c660000000000000000000000000000000000602082015250565b600061227a602f836121a1565b91506122858261221e565b604082019050919050565b600060208201905081810360008301526122a98161226d565b9050919050565b7f4e487b7100000000000000000000000000000000000000000000000000000000600052601160045260246000fd5b60006122ea82611e35565b91506122f583611e35565b925082820190508082111561230d5761230c6122b0565b5b92915050565b7f55706461746520696e74657276616c206e6f7420656c61707365640000000000600082015250565b6000612349601b836121a1565b915061235482612313565b602082019050919050565b600060208201905081810360008301526123788161233c565b9050919050565b7f42617365207261746520746f6f206c6f77000000000000000000000000000000600082015250565b60006123b56011836121a1565b91506123c08261237f565b602082019050919050565b600060208201905081810360008301526123e4816123a8565b9050919050565b7f42617365207261746520746f6f20686967680000000000000000000000000000600082015250565b60006124216012836121a1565b915061242c826123eb565b602082019050919050565b6000602082019050818103600083015261245081612414565b9050919050565b7f4d756c7469706c69657220746f6f206c6f770000000000000000000000000000600082015250565b600061248d6012836121a1565b915061249882612457565b602082019050919050565b600060208201905081810360008301526124bc81612480565b9050919050565b7f4d756c7469706c69657220746f6f206869676800000000000000000000000000600082015250565b60006124f96013836121a1565b9150612504826124c3565b602082019050919050565b60006020820190508181036000830152612528816124ec565b9050919050565b600060c0820190506125446000830189611e3f565b6125516020830188611e3f565b61255e6040830187611e3f565b61256b6060830186611e3f565b6125786080830185611e3f565b61258560a0830184611e3f565b979650505050505050565b7f53636f72652065786365656473206d6178696d756d0000000000000000000000600082015250565b60006125c66015836121a1565b91506125d182612590565b602082019050919050565b600060208201905081810360008301526125f5816125b9565b9050919050565b60006040820190506126116000830185611e3f565b61261e6020830184611e3f565b9392505050565b7f4d696e2066656520657863656564732062617365206665650000000000000000600082015250565b600061265b6018836121a1565b915061266682612625565b602082019050919050565b6000602082019050818103600083015261268a8161264e565b9050919050565b7f42617365206665652065786365656473206d6178206665650000000000000000600082015250565b60006126c76018836121a1565b91506126d282612691565b602082019050919050565b600060208201905081810360008301526126f6816126ba565b9050919050565b7f4d61782066656520746f6f206869676800000000000000000000000000000000600082015250565b60006127336010836121a1565b915061273e826126fd565b602082019050919050565b6000602082019050818103600083015261276281612726565b9050919050565b600060208201905061277e6000830184611e80565b92915050565b7f5061757361626c653a2070617573656400000000000000000000000000000000600082015250565b60006127ba6010836121a1565b91506127c582612784565b602082019050919050565b600060208201905081810360008301526127e9816127ad565b9050919050565b600081905092915050565b7f416363657373436f6e74726f6c3a206163636f756e7420000000000000000000600082015250565b60006128316017836127f0565b915061283c826127fb565b601782019050919050565b600081519050919050565b60005b83811015612870578082015181840152602081019050612855565b60008484015250505050565b600061288782612847565b61289181856127f0565b93506128a1818560208601612852565b80840191505092915050565b7f206973206d697373696e6720726f6c6520000000000000000000000000000000600082015250565b60006128e36011836127f0565b91506128ee826128ad565b601182019050919050565b600061290482612824565b9150612910828561287c565b915061291b826128d6565b9150612927828461287c565b91508190509392505050565b6000601f19601f8301169050919050565b600061294f82612847565b61295981856121a1565b9350612969818560208601612852565b61297281612933565b840191505092915050565b600060208201905081810360008301526129978184612944565b905092915050565b7f5061757361626c653a206e6f7420706175736564000000000000000000000000600082015250565b60006129d56014836121a1565b91506129e08261299f565b602082019050919050565b60006020820190508181036000830152612a04816129c8565b9050919050565b6000612a1682611e35565b9150612a2183611e35565b9250828202612a2f81611e35565b91508282048414831517612a4657612a456122b0565b5b5092915050565b7f4e487b7100000000000000000000000000000000000000000000000000000000600052604160045260246000fd5b7f4e487b7100000000000000000000000000000000000000000000000000000000600052603260045260246000fd5b6000612ab682611e35565b915060008203612ac957612ac86122b0565b5b600182039050919050565b7f537472696e67733a20686578206c656e67746820696e73756666696369656e74600082015250565b6000612b0a6020836121a1565b9150612b1582612ad4565b602082019050919050565b60006020820190508181036000830152612b3981612afd565b905091905056fea26469706673582212202efba8d327a75ad47a4d3416e04df71f84567efaeb768ddc99ad96ad2a2339bb64736f6c63430008140033",
  "linkReferences": {},
  "deployedLinkReferences": {}
}