{
  "_format": "hh-sol-artifact-1",
  "contractName": "NFTi",
  "sourceName": "contracts/nft/NFTi.sol",
  "abi": [
    {
      "inputs": [],
      "stateMutability": "nonpayable",
      "type": "constructor"
    },
    {
      "anonymous": false,
      "inputs": [
        {
          "indexed": true,
          "internalType": "address",
          "name": "owner",
          "type": "address"
        },
        {
          "indexed": true,
          "internalType": "address",
          "name": "approved",
          "type": "address"
        },
        {
          "indexed": true,
          "internalType": "uint256",
          "name": "tokenId",
          "type": "uint256"
        }
      ],
      "name": "Approval",
      "type": "event"
    },
    {
      "anonymous": false,
      "inputs": [
        {
          "indexed": true,
          "internalType": "address",
          "name": "owner",
          "type": "address"
        },
        {
          "indexed": true,
          "internalType": "address",
          "name": "operator",
          "type": "address"
        },
        {
          "indexed": false,
          "internalType": "bool",
          "name": "approved",
          "type": "bool"
        }
      ],
      "name": "ApprovalForAll",
      "type": "event"
    },
    {
      "anonymous": false,
      "inputs": [
        {
          "indexed": true,
          "internalType": "address",
          "name": "from",
          "type": "address"
        },
        {
          "indexed": true,
          "internalType": "address",
          "name": "to",
          "type": "address"
        },
        {
          "indexed": true,
          "internalType": "uint256",
          "name": "tokenId",
          "type": "uint256"
        }
      ],
      "name": "Transfer",
      "type": "event"
    },
    {
      "inputs": [
        {
          "internalType": "address",
          "name": "to",
          "type": "address"
        },
        {
          "internalType": "uint256",
          "name": "tokenId",
          "type": "uint256"
        }
      ],
      "name": "approve",
      "outputs": [],
      "stateMutability": "nonpayable",
      "type": "function"
    },
    {
      "inputs": [
        {
          "internalType": "address",
          "name": "owner",
          "type": "address"
        }
      ],
      "name": "balanceOf",
      "outputs": [
        {
          "internalType": "uint256",
          "name": "",
          "type": "uint256"
        }
      ],
      "stateMutability": "view",
      "type": "function"
    },
    {
      "inputs": [
        {
          "internalType": "uint256",
          "name": "tokenId",
          "type": "uint256"
        }
      ],
      "name": "burn",
      "outputs": [],
      "stateMutability": "nonpayable",
      "type": "function"
    },
    {
      "inputs": [
        {
          "internalType": "uint256",
          "name": "tokenId",
          "type": "uint256"
        }
      ],
      "name": "getApproved",
      "outputs": [
        {
          "internalType": "address",
          "name": "",
          "type": "address"
        }
      ],
      "stateMutability": "view",
      "type": "function"
    },
    {
      "inputs": [
        {
          "internalType": "address",
          "name": "owner",
          "type": "address"
        },
        {
          "internalType": "address",
          "name": "operator",
          "type": "address"
        }
      ],
      "name": "isApprovedForAll",
      "outputs": [
        {
          "internalType": "bool",
          "name": "",
          "type": "bool"
        }
      ],
      "stateMutability": "view",
      "type": "function"
    },
    {
      "inputs": [],
      "name": "marketContract",
      "outputs": [
        {
          "internalType": "address",
          "name": "",
          "type": "address"
        }
      ],
      "stateMutability": "view",
      "type": "function"
    },
    {
      "inputs": [
        {
          "internalType": "address",
          "name": "to",
          "type": "address"
        },
        {
          "internalType": "string",
          "name": "legalId",
          "type": "string"
        },
        {
          "internalType": "bool",
          "name": "managed",
          "type": "bool"
        }
      ],
      "name": "mint",
      "outputs": [
        {
          "internalType": "uint256",
          "name": "",
          "type": "uint256"
        }
      ],
      "stateMutability": "nonpayable",
      "type": "function"
    },
    {
      "inputs": [],
      "name": "name",
      "outputs": [
        {
          "internalType": "string",
          "name": "",
          "type": "string"
        }
      ],
      "stateMutability": "view",
      "type": "function"
    },
    {
      "inputs": [
        {
          "internalType": "uint256",
          "name": "tokenId",
          "type": "uint256"
        }
      ],
      "name": "ownerOf",
      "outputs": [
        {
          "internalType": "address",
          "name": "",
          "type": "address"
        }
      ],
      "stateMutability": "view",
      "type": "function"
    },
    {
      "inputs": [
        {
          "internalType": "uint256",
          "name": "",
          "type": "uint256"
        }
      ],
      "name": "properties",
      "outputs": [
        {
          "internalType": "string",
          "name": "legalId",
          "type": "string"
        },
        {
          "internalType": "bool",
          "name": "isManaged",
          "type": "bool"
        },
        {
          "internalType": "uint256",
          "name": "createdAt",
          "type": "uint256"
        }
      ],
      "stateMutability": "view",
      "type": "function"
    },
    {
      "inputs": [
        {
          "internalType": "address",
          "name": "from",
          "type": "address"
        },
        {
          "internalType": "address",
          "name": "to",
          "type": "address"
        },
        {
          "internalType": "uint256",
          "name": "tokenId",
          "type": "uint256"
        }
      ],
      "name": "safeTransferFrom",
      "outputs": [],
      "stateMutability": "nonpayable",
      "type": "function"
    },
    {
      "inputs": [
        {
          "internalType": "address",
          "name": "from",
          "type": "address"
        },
        {
          "internalType": "address",
          "name": "to",
          "type": "address"
        },
        {
          "internalType": "uint256",
          "name": "tokenId",
          "type": "uint256"
        },
        {
          "internalType": "bytes",
          "name": "data",
          "type": "bytes"
        }
      ],
      "name": "safeTransferFrom",
      "outputs": [],
      "stateMutability": "nonpayable",
      "type": "function"
    },
    {
      "inputs": [
        {
          "internalType": "address",
          "name": "operator",
          "type": "address"
        },
        {
          "internalType": "bool",
          "name": "approved",
          "type": "bool"
        }
      ],
      "name": "setApprovalForAll",
      "outputs": [],
      "stateMutability": "nonpayable",
      "type": "function"
    },
    {
      "inputs": [
        {
          "internalType": "bytes4",
          "name": "interfaceId",
          "type": "bytes4"
        }
      ],
      "name": "supportsInterface",
      "outputs": [
        {
          "internalType": "bool",
          "name": "",
          "type": "bool"
        }
      ],
      "stateMutability": "view",
      "type": "function"
    },
    {
      "inputs": [],
      "name": "symbol",
      "outputs": [
        {
          "internalType": "string",
          "name": "",
          "type": "string"
        }
      ],
      "stateMutability": "view",
      "type": "function"
    },
    {
      "inputs": [],
      "name": "tokenCounter",
      "outputs": [
        {
          "internalType": "uint256",
          "name": "",
          "type": "uint256"
        }
      ],
      "stateMutability": "view",
      "type": "function"
    },
    {
      "inputs": [
        {
          "internalType": "uint256",
          "name": "tokenId",
          "type": "uint256"
        }
      ],
      "name": "tokenURI",
      "outputs": [
        {
          "internalType": "string",
          "name": "",
          "type": "string"
        }
      ],
      "stateMutability": "view",
      "type": "function"
    },
    {
      "inputs": [
        {
          "internalType": "address",
          "name": "from",
          "type": "address"
        },
        {
          "internalType": "address",
          "name": "to",
          "type": "address"
        },
        {
          "internalType": "uint256",
          "name": "tokenId",
          "type": "uint256"
        }
      ],
      "name": "transferFrom",
      "outputs": [],
      "stateMutability": "nonpayable",
      "type": "function"
    }
  ],
  "bytecode": "0x608060405234801561001057600080fd5b506040518060400160405280600f81526020017f4d616e6167654c696665204e46546900000000000000000000000000000000008152506040518060400160405280600481526020017f4e46546900000000000000000000000000000000000000000000000000000000815250816000908161008c91906102fc565b50806001908161009c91906102fc565b50505060016006819055506103ce565b600081519050919050565b7f4e487b7100000000000000000000000000000000000000000000000000000000600052604160045260246000fd5b7f4e487b7100000000000000000000000000000000000000000000000000000000600052602260045260246000fd5b6000600282049050600182168061012d57607f821691505b6020821081036101405761013f6100e6565b5b50919050565b60008190508160005260206000209050919050565b60006020601f8301049050919050565b600082821b905092915050565b6000600883026101a87fffffffffffffffffffffffffffffffffffffffffffffffffffffffffffffffff8261016b565b6101b2868361016b565b95508019841693508086168417925050509392505050565b6000819050919050565b6000819050919050565b60006101f96101f46101ef846101ca565b6101d4565b6101ca565b9050919050565b6000819050919050565b610213836101de565b61022761021f82610200565b848454610178565b825550505050565b600090565b61023c61022f565b61024781848461020a565b505050565b5b8181101561026b57610260600082610234565b60018101905061024d565b5050565b601f8211156102b05761028181610146565b61028a8461015b565b81016020851015610299578190505b6102ad6102a58561015b565b83018261024c565b50505b505050565b600082821c905092915050565b60006102d3600019846008026102b5565b1980831691505092915050565b60006102ec83836102c2565b9150826002028217905092915050565b610305826100ac565b67ffffffffffffffff81111561031e5761031d6100b7565b5b6103288254610115565b61033382828561026f565b600060209050601f8311600181146103665760008415610354578287015190505b61035e85826102e0565b8655506103c6565b601f19841661037486610146565b60005b8281101561039c57848901518255600182019150602085019450602081019050610377565b868310156103b957848901516103b5601f8916826102c2565b8355505b6001600288020188555050505b505050505050565b612e3c806103dd6000396000f3fe608060405234801561001057600080fd5b50600436106101165760003560e01c806395d89b41116100a2578063b88d4fde11610071578063b88d4fde146102f1578063c87b56dd1461030d578063d082e3811461033d578063e985e9c51461035b578063f7b108081461038b57610116565b806395d89b4114610269578063a1794bcd14610287578063a22cb465146102a5578063a230da05146102c157610116565b806323b872dd116100e957806323b872dd146101b557806342842e0e146101d157806342966c68146101ed5780636352211e1461020957806370a082311461023957610116565b806301ffc9a71461011b57806306fdde031461014b578063081812fc14610169578063095ea7b314610199575b600080fd5b61013560048036038101906101309190611c89565b6103bd565b6040516101429190611cd1565b60405180910390f35b61015361049f565b6040516101609190611d7c565b60405180910390f35b610183600480360381019061017e9190611dd4565b610531565b6040516101909190611e42565b60405180910390f35b6101b360048036038101906101ae9190611e89565b610577565b005b6101cf60048036038101906101ca9190611ec9565b61068e565b005b6101eb60048036038101906101e69190611ec9565b6106ee565b005b61020760048036038101906102029190611dd4565b61070e565b005b610223600480360381019061021e9190611dd4565b6107d2565b6040516102309190611e42565b60405180910390f35b610253600480360381019061024e9190611f1c565b610858565b6040516102609190611f58565b60405180910390f35b61027161090f565b60405161027e9190611d7c565b60405180910390f35b61028f6109a1565b60405161029c9190611e42565b60405180910390f35b6102bf60048036038101906102ba9190611f9f565b6109c7565b005b6102db60048036038101906102d69190612114565b6109dd565b6040516102e89190611f58565b60405180910390f35b61030b60048036038101906103069190612224565b610a81565b005b61032760048036038101906103229190611dd4565b610ae3565b6040516103349190611d7c565b60405180910390f35b610345610b4b565b6040516103529190611f58565b60405180910390f35b610375600480360381019061037091906122a7565b610b51565b6040516103829190611cd1565b60405180910390f35b6103a560048036038101906103a09190611dd4565b610be5565b6040516103b4939291906122e7565b60405180910390f35b60007f80ac58cd000000000000000000000000000000000000000000000000000000007bffffffffffffffffffffffffffffffffffffffffffffffffffffffff1916827bffffffffffffffffffffffffffffffffffffffffffffffffffffffff1916148061048857507f5b5e139f000000000000000000000000000000000000000000000000000000007bffffffffffffffffffffffffffffffffffffffffffffffffffffffff1916827bffffffffffffffffffffffffffffffffffffffffffffffffffffffff1916145b80610498575061049782610ca4565b5b9050919050565b6060600080546104ae90612354565b80601f01602080910402602001604051908101604052809291908181526020018280546104da90612354565b80156105275780601f106104fc57610100808354040283529160200191610527565b820191906000526020600020905b81548152906001019060200180831161050a57829003601f168201915b5050505050905090565b600061053c82610d0e565b6004600083815260200190815260200160002060009054906101000a900473ffffffffffffffffffffffffffffffffffffffff169050919050565b6000610582826107d2565b90508073ffffffffffffffffffffffffffffffffffffffff168373ffffffffffffffffffffffffffffffffffffffff16036105f2576040517f08c379a00000000000000000000000000000000000000000000000000000000081526004016105e9906123f7565b60405180910390fd5b8073ffffffffffffffffffffffffffffffffffffffff16610611610d59565b73ffffffffffffffffffffffffffffffffffffffff161480610640575061063f8161063a610d59565b610b51565b5b61067f576040517f08c379a000000000000000000000000000000000000000000000000000000000815260040161067690612489565b60405180910390fd5b6106898383610d61565b505050565b61069f610699610d59565b82610e1a565b6106de576040517f08c379a00000000000000000000000000000000000000000000000000000000081526004016106d59061251b565b60405180910390fd5b6106e9838383610eaf565b505050565b61070983838360405180602001604052806000815250610a81565b505050565b3373ffffffffffffffffffffffffffffffffffffffff1661072e826107d2565b73ffffffffffffffffffffffffffffffffffffffff1614610784576040517f08c379a000000000000000000000000000000000000000000000000000000000815260040161077b90612587565b60405180910390fd5b61078d816111a8565b60086000828152602001908152602001600020600080820160006107b19190611bc0565b6001820160006101000a81549060ff02191690556002820160009055505050565b6000806107de836112f6565b9050600073ffffffffffffffffffffffffffffffffffffffff168173ffffffffffffffffffffffffffffffffffffffff160361084f576040517f08c379a0000000000000000000000000000000000000000000000000000000008152600401610846906125f3565b60405180910390fd5b80915050919050565b60008073ffffffffffffffffffffffffffffffffffffffff168273ffffffffffffffffffffffffffffffffffffffff16036108c8576040517f08c379a00000000000000000000000000000000000000000000000000000000081526004016108bf90612685565b60405180910390fd5b600360008373ffffffffffffffffffffffffffffffffffffffff1673ffffffffffffffffffffffffffffffffffffffff168152602001908152602001600020549050919050565b60606001805461091e90612354565b80601f016020809104026020016040519081016040528092919081815260200182805461094a90612354565b80156109975780601f1061096c57610100808354040283529160200191610997565b820191906000526020600020905b81548152906001019060200180831161097a57829003601f168201915b5050505050905090565b600760009054906101000a900473ffffffffffffffffffffffffffffffffffffffff1681565b6109d96109d2610d59565b8383611333565b5050565b600080600660008154809291906109f3906126d4565b919050559050610a03858261149f565b6040518060600160405280858152602001841515815260200142815250600860008381526020019081526020016000206000820151816000019081610a4891906128c8565b5060208201518160010160006101000a81548160ff02191690831515021790555060408201518160020155905050809150509392505050565b610a92610a8c610d59565b83610e1a565b610ad1576040517f08c379a0000000000000000000000000000000000000000000000000000000008152600401610ac89061251b565b60405180910390fd5b610add848484846114bd565b50505050565b6060610aee82610d0e565b6000610af8611519565b90506000815111610b185760405180602001604052806000815250610b43565b80610b2284611530565b604051602001610b339291906129d6565b6040516020818303038152906040525b915050919050565b60065481565b6000600560008473ffffffffffffffffffffffffffffffffffffffff1673ffffffffffffffffffffffffffffffffffffffff16815260200190815260200160002060008373ffffffffffffffffffffffffffffffffffffffff1673ffffffffffffffffffffffffffffffffffffffff16815260200190815260200160002060009054906101000a900460ff16905092915050565b6008602052806000526040600020600091509050806000018054610c0890612354565b80601f0160208091040260200160405190810160405280929190818152602001828054610c3490612354565b8015610c815780601f10610c5657610100808354040283529160200191610c81565b820191906000526020600020905b815481529060010190602001808311610c6457829003601f168201915b5050505050908060010160009054906101000a900460ff16908060020154905083565b60007f01ffc9a7000000000000000000000000000000000000000000000000000000007bffffffffffffffffffffffffffffffffffffffffffffffffffffffff1916827bffffffffffffffffffffffffffffffffffffffffffffffffffffffff1916149050919050565b610d17816115fe565b610d56576040517f08c379a0000000000000000000000000000000000000000000000000000000008152600401610d4d906125f3565b60405180910390fd5b50565b600033905090565b816004600083815260200190815260200160002060006101000a81548173ffffffffffffffffffffffffffffffffffffffff021916908373ffffffffffffffffffffffffffffffffffffffff160217905550808273ffffffffffffffffffffffffffffffffffffffff16610dd4836107d2565b73ffffffffffffffffffffffffffffffffffffffff167f8c5be1e5ebec7d5bd14f71427d1e84f3dd0314c0f7b2291e5b200ac8c7c3b92560405160405180910390a45050565b600080610e26836107d2565b90508073ffffffffffffffffffffffffffffffffffffffff168473ffffffffffffffffffffffffffffffffffffffff161480610e685750610e678185610b51565b5b80610ea657508373ffffffffffffffffffffffffffffffffffffffff16610e8e84610531565b73ffffffffffffffffffffffffffffffffffffffff16145b91505092915050565b8273ffffffffffffffffffffffffffffffffffffffff16610ecf826107d2565b73ffffffffffffffffffffffffffffffffffffffff1614610f25576040517f08c379a0000000000000000000000000000000000000000000000000000000008152600401610f1c90612a6c565b60405180910390fd5b600073ffffffffffffffffffffffffffffffffffffffff168273ffffffffffffffffffffffffffffffffffffffff1603610f94576040517f08c379a0000000000000000000000000000000000000000000000000000000008152600401610f8b90612afe565b60405180910390fd5b610fa1838383600161163f565b8273ffffffffffffffffffffffffffffffffffffffff16610fc1826107d2565b73ffffffffffffffffffffffffffffffffffffffff1614611017576040517f08c379a000000000000000000000000000000000000000000000000000000000815260040161100e90612a6c565b60405180910390fd5b6004600082815260200190815260200160002060006101000a81549073ffffffffffffffffffffffffffffffffffffffff02191690556001600360008573ffffffffffffffffffffffffffffffffffffffff1673ffffffffffffffffffffffffffffffffffffffff168152602001908152602001600020600082825403925050819055506001600360008473ffffffffffffffffffffffffffffffffffffffff1673ffffffffffffffffffffffffffffffffffffffff16815260200190815260200160002060008282540192505081905550816002600083815260200190815260200160002060006101000a81548173ffffffffffffffffffffffffffffffffffffffff021916908373ffffffffffffffffffffffffffffffffffffffff160217905550808273ffffffffffffffffffffffffffffffffffffffff168473ffffffffffffffffffffffffffffffffffffffff167fddf252ad1be2c89b69c2b068fc378daa952ba7f163c4a11628f55a4df523b3ef60405160405180910390a46111a38383836001611645565b505050565b60006111b3826107d2565b90506111c381600084600161163f565b6111cc826107d2565b90506004600083815260200190815260200160002060006101000a81549073ffffffffffffffffffffffffffffffffffffffff02191690556001600360008373ffffffffffffffffffffffffffffffffffffffff1673ffffffffffffffffffffffffffffffffffffffff168152602001908152602001600020600082825403925050819055506002600083815260200190815260200160002060006101000a81549073ffffffffffffffffffffffffffffffffffffffff021916905581600073ffffffffffffffffffffffffffffffffffffffff168273ffffffffffffffffffffffffffffffffffffffff167fddf252ad1be2c89b69c2b068fc378daa952ba7f163c4a11628f55a4df523b3ef60405160405180910390a46112f2816000846001611645565b5050565b60006002600083815260200190815260200160002060009054906101000a900473ffffffffffffffffffffffffffffffffffffffff169050919050565b8173ffffffffffffffffffffffffffffffffffffffff168373ffffffffffffffffffffffffffffffffffffffff16036113a1576040517f08c379a000000000000000000000000000000000000000000000000000000000815260040161139890612b6a565b60405180910390fd5b80600560008573ffffffffffffffffffffffffffffffffffffffff1673ffffffffffffffffffffffffffffffffffffffff16815260200190815260200160002060008473ffffffffffffffffffffffffffffffffffffffff1673ffffffffffffffffffffffffffffffffffffffff16815260200190815260200160002060006101000a81548160ff0219169083151502179055508173ffffffffffffffffffffffffffffffffffffffff168373ffffffffffffffffffffffffffffffffffffffff167f17307eab39ab6107e8899845ad3d59bd9653f200f220920489ca2b5937696c31836040516114929190611cd1565b60405180910390a3505050565b6114b982826040518060200160405280600081525061164b565b5050565b6114c8848484610eaf565b6114d4848484846116a6565b611513576040517f08c379a000000000000000000000000000000000000000000000000000000000815260040161150a90612bfc565b60405180910390fd5b50505050565b606060405180602001604052806000815250905090565b60606000600161153f8461182d565b01905060008167ffffffffffffffff81111561155e5761155d611fe9565b5b6040519080825280601f01601f1916602001820160405280156115905781602001600182028036833780820191505090505b509050600082602001820190505b6001156115f3578080600190039150507f3031323334353637383961626364656600000000000000000000000000000000600a86061a8153600a85816115e7576115e6612c1c565b5b0494506000850361159e575b819350505050919050565b60008073ffffffffffffffffffffffffffffffffffffffff16611620836112f6565b73ffffffffffffffffffffffffffffffffffffffff1614159050919050565b50505050565b50505050565b6116558383611980565b61166260008484846116a6565b6116a1576040517f08c379a000000000000000000000000000000000000000000000000000000000815260040161169890612bfc565b60405180910390fd5b505050565b60006116c78473ffffffffffffffffffffffffffffffffffffffff16611b9d565b15611820578373ffffffffffffffffffffffffffffffffffffffff1663150b7a026116f0610d59565b8786866040518563ffffffff1660e01b81526004016117129493929190612ca0565b6020604051808303816000875af192505050801561174e57506040513d601f19601f8201168201806040525081019061174b9190612d01565b60015b6117d0573d806000811461177e576040519150601f19603f3d011682016040523d82523d6000602084013e611783565b606091505b5060008151036117c8576040517f08c379a00000000000000000000000000000000000000000000000000000000081526004016117bf90612bfc565b60405180910390fd5b805181602001fd5b63150b7a0260e01b7bffffffffffffffffffffffffffffffffffffffffffffffffffffffff1916817bffffffffffffffffffffffffffffffffffffffffffffffffffffffff191614915050611825565b600190505b949350505050565b600080600090507a184f03e93ff9f4daa797ed6e38ed64bf6a1f010000000000000000831061188b577a184f03e93ff9f4daa797ed6e38ed64bf6a1f010000000000000000838161188157611880612c1c565b5b0492506040810190505b6d04ee2d6d415b85acef810000000083106118c8576d04ee2d6d415b85acef810000000083816118be576118bd612c1c565b5b0492506020810190505b662386f26fc1000083106118f757662386f26fc1000083816118ed576118ec612c1c565b5b0492506010810190505b6305f5e1008310611920576305f5e100838161191657611915612c1c565b5b0492506008810190505b612710831061194557612710838161193b5761193a612c1c565b5b0492506004810190505b60648310611968576064838161195e5761195d612c1c565b5b0492506002810190505b600a8310611977576001810190505b80915050919050565b600073ffffffffffffffffffffffffffffffffffffffff168273ffffffffffffffffffffffffffffffffffffffff16036119ef576040517f08c379a00000000000000000000000000000000000000000000000000000000081526004016119e690612d7a565b60405180910390fd5b6119f8816115fe565b15611a38576040517f08c379a0000000000000000000000000000000000000000000000000000000008152600401611a2f90612de6565b60405180910390fd5b611a4660008383600161163f565b611a4f816115fe565b15611a8f576040517f08c379a0000000000000000000000000000000000000000000000000000000008152600401611a8690612de6565b60405180910390fd5b6001600360008473ffffffffffffffffffffffffffffffffffffffff1673ffffffffffffffffffffffffffffffffffffffff16815260200190815260200160002060008282540192505081905550816002600083815260200190815260200160002060006101000a81548173ffffffffffffffffffffffffffffffffffffffff021916908373ffffffffffffffffffffffffffffffffffffffff160217905550808273ffffffffffffffffffffffffffffffffffffffff16600073ffffffffffffffffffffffffffffffffffffffff167fddf252ad1be2c89b69c2b068fc378daa952ba7f163c4a11628f55a4df523b3ef60405160405180910390a4611b99600083836001611645565b5050565b6000808273ffffffffffffffffffffffffffffffffffffffff163b119050919050565b508054611bcc90612354565b6000825580601f10611bde5750611bfd565b601f016020900490600052602060002090810190611bfc9190611c00565b5b50565b5b80821115611c19576000816000905550600101611c01565b5090565b6000604051905090565b600080fd5b600080fd5b60007fffffffff0000000000000000000000000000000000000000000000000000000082169050919050565b611c6681611c31565b8114611c7157600080fd5b50565b600081359050611c8381611c5d565b92915050565b600060208284031215611c9f57611c9e611c27565b5b6000611cad84828501611c74565b91505092915050565b60008115159050919050565b611ccb81611cb6565b82525050565b6000602082019050611ce66000830184611cc2565b92915050565b600081519050919050565b600082825260208201905092915050565b60005b83811015611d26578082015181840152602081019050611d0b565b60008484015250505050565b6000601f19601f8301169050919050565b6000611d4e82611cec565b611d588185611cf7565b9350611d68818560208601611d08565b611d7181611d32565b840191505092915050565b60006020820190508181036000830152611d968184611d43565b905092915050565b6000819050919050565b611db181611d9e565b8114611dbc57600080fd5b50565b600081359050611dce81611da8565b92915050565b600060208284031215611dea57611de9611c27565b5b6000611df884828501611dbf565b91505092915050565b600073ffffffffffffffffffffffffffffffffffffffff82169050919050565b6000611e2c82611e01565b9050919050565b611e3c81611e21565b82525050565b6000602082019050611e576000830184611e33565b92915050565b611e6681611e21565b8114611e7157600080fd5b50565b600081359050611e8381611e5d565b92915050565b60008060408385031215611ea057611e9f611c27565b5b6000611eae85828601611e74565b9250506020611ebf85828601611dbf565b9150509250929050565b600080600060608486031215611ee257611ee1611c27565b5b6000611ef086828701611e74565b9350506020611f0186828701611e74565b9250506040611f1286828701611dbf565b9150509250925092565b600060208284031215611f3257611f31611c27565b5b6000611f4084828501611e74565b91505092915050565b611f5281611d9e565b82525050565b6000602082019050611f6d6000830184611f49565b92915050565b611f7c81611cb6565b8114611f8757600080fd5b50565b600081359050611f9981611f73565b92915050565b60008060408385031215611fb657611fb5611c27565b5b6000611fc485828601611e74565b9250506020611fd585828601611f8a565b9150509250929050565b600080fd5b600080fd5b7f4e487b7100000000000000000000000000000000000000000000000000000000600052604160045260246000fd5b61202182611d32565b810181811067ffffffffffffffff821117156120405761203f611fe9565b5b80604052505050565b6000612053611c1d565b905061205f8282612018565b919050565b600067ffffffffffffffff82111561207f5761207e611fe9565b5b61208882611d32565b9050602081019050919050565b82818337600083830152505050565b60006120b76120b284612064565b612049565b9050828152602081018484840111156120d3576120d2611fe4565b5b6120de848285612095565b509392505050565b600082601f8301126120fb576120fa611fdf565b5b813561210b8482602086016120a4565b91505092915050565b60008060006060848603121561212d5761212c611c27565b5b600061213b86828701611e74565b935050602084013567ffffffffffffffff81111561215c5761215b611c2c565b5b612168868287016120e6565b925050604061217986828701611f8a565b9150509250925092565b600067ffffffffffffffff82111561219e5761219d611fe9565b5b6121a782611d32565b9050602081019050919050565b60006121c76121c284612183565b612049565b9050828152602081018484840111156121e3576121e2611fe4565b5b6121ee848285612095565b509392505050565b600082601f83011261220b5761220a611fdf565b5b813561221b8482602086016121b4565b91505092915050565b6000806000806080858703121561223e5761223d611c27565b5b600061224c87828801611e74565b945050602061225d87828801611e74565b935050604061226e87828801611dbf565b925050606085013567ffffffffffffffff81111561228f5761228e611c2c565b5b61229b878288016121f6565b91505092959194509250565b600080604083850312156122be576122bd611c27565b5b60006122cc85828601611e74565b92505060206122dd85828601611e74565b9150509250929050565b600060608201905081810360008301526123018186611d43565b90506123106020830185611cc2565b61231d6040830184611f49565b949350505050565b7f4e487b7100000000000000000000000000000000000000000000000000000000600052602260045260246000fd5b6000600282049050600182168061236c57607f821691505b60208210810361237f5761237e612325565b5b50919050565b7f4552433732313a20617070726f76616c20746f2063757272656e74206f776e6560008201527f7200000000000000000000000000000000000000000000000000000000000000602082015250565b60006123e1602183611cf7565b91506123ec82612385565b604082019050919050565b60006020820190508181036000830152612410816123d4565b9050919050565b7f4552433732313a20617070726f76652063616c6c6572206973206e6f7420746f60008201527f6b656e206f776e6572206f7220617070726f76656420666f7220616c6c000000602082015250565b6000612473603d83611cf7565b915061247e82612417565b604082019050919050565b600060208201905081810360008301526124a281612466565b9050919050565b7f4552433732313a2063616c6c6572206973206e6f7420746f6b656e206f776e6560008201527f72206f7220617070726f76656400000000000000000000000000000000000000602082015250565b6000612505602d83611cf7565b9150612510826124a9565b604082019050919050565b60006020820190508181036000830152612534816124f8565b9050919050565b7f4e6f74206f776e65720000000000000000000000000000000000000000000000600082015250565b6000612571600983611cf7565b915061257c8261253b565b602082019050919050565b600060208201905081810360008301526125a081612564565b9050919050565b7f4552433732313a20696e76616c696420746f6b656e2049440000000000000000600082015250565b60006125dd601883611cf7565b91506125e8826125a7565b602082019050919050565b6000602082019050818103600083015261260c816125d0565b9050919050565b7f4552433732313a2061646472657373207a65726f206973206e6f74206120766160008201527f6c6964206f776e65720000000000000000000000000000000000000000000000602082015250565b600061266f602983611cf7565b915061267a82612613565b604082019050919050565b6000602082019050818103600083015261269e81612662565b9050919050565b7f4e487b7100000000000000000000000000000000000000000000000000000000600052601160045260246000fd5b60006126df82611d9e565b91507fffffffffffffffffffffffffffffffffffffffffffffffffffffffffffffffff8203612711576127106126a5565b5b600182019050919050565b60008190508160005260206000209050919050565b60006020601f8301049050919050565b600082821b905092915050565b60006008830261277e7fffffffffffffffffffffffffffffffffffffffffffffffffffffffffffffffff82612741565b6127888683612741565b95508019841693508086168417925050509392505050565b6000819050919050565b60006127c56127c06127bb84611d9e565b6127a0565b611d9e565b9050919050565b6000819050919050565b6127df836127aa565b6127f36127eb826127cc565b84845461274e565b825550505050565b600090565b6128086127fb565b6128138184846127d6565b505050565b5b818110156128375761282c600082612800565b600181019050612819565b5050565b601f82111561287c5761284d8161271c565b61285684612731565b81016020851015612865578190505b61287961287185612731565b830182612818565b50505b505050565b600082821c905092915050565b600061289f60001984600802612881565b1980831691505092915050565b60006128b8838361288e565b9150826002028217905092915050565b6128d182611cec565b67ffffffffffffffff8111156128ea576128e9611fe9565b5b6128f48254612354565b6128ff82828561283b565b600060209050601f8311600181146129325760008415612920578287015190505b61292a85826128ac565b865550612992565b601f1984166129408661271c565b60005b8281101561296857848901518255600182019150602085019450602081019050612943565b868310156129855784890151612981601f89168261288e565b8355505b6001600288020188555050505b505050505050565b600081905092915050565b60006129b082611cec565b6129ba818561299a565b93506129ca818560208601611d08565b80840191505092915050565b60006129e282856129a5565b91506129ee82846129a5565b91508190509392505050565b7f4552433732313a207472616e736665722066726f6d20696e636f72726563742060008201527f6f776e6572000000000000000000000000000000000000000000000000000000602082015250565b6000612a56602583611cf7565b9150612a61826129fa565b604082019050919050565b60006020820190508181036000830152612a8581612a49565b9050919050565b7f4552433732313a207472616e7366657220746f20746865207a65726f2061646460008201527f7265737300000000000000000000000000000000000000000000000000000000602082015250565b6000612ae8602483611cf7565b9150612af382612a8c565b604082019050919050565b60006020820190508181036000830152612b1781612adb565b9050919050565b7f4552433732313a20617070726f766520746f2063616c6c657200000000000000600082015250565b6000612b54601983611cf7565b9150612b5f82612b1e565b602082019050919050565b60006020820190508181036000830152612b8381612b47565b9050919050565b7f4552433732313a207472616e7366657220746f206e6f6e20455243373231526560008201527f63656976657220696d706c656d656e7465720000000000000000000000000000602082015250565b6000612be6603283611cf7565b9150612bf182612b8a565b604082019050919050565b60006020820190508181036000830152612c1581612bd9565b9050919050565b7f4e487b7100000000000000000000000000000000000000000000000000000000600052601260045260246000fd5b600081519050919050565b600082825260208201905092915050565b6000612c7282612c4b565b612c7c8185612c56565b9350612c8c818560208601611d08565b612c9581611d32565b840191505092915050565b6000608082019050612cb56000830187611e33565b612cc26020830186611e33565b612ccf6040830185611f49565b8181036060830152612ce18184612c67565b905095945050505050565b600081519050612cfb81611c5d565b92915050565b600060208284031215612d1757612d16611c27565b5b6000612d2584828501612cec565b91505092915050565b7f4552433732313a206d696e7420746f20746865207a65726f2061646472657373600082015250565b6000612d64602083611cf7565b9150612d6f82612d2e565b602082019050919050565b60006020820190508181036000830152612d9381612d57565b9050919050565b7f4552433732313a20746f6b656e20616c7265616479206d696e74656400000000600082015250565b6000612dd0601c83611cf7565b9150612ddb82612d9a565b602082019050919050565b60006020820190508181036000830152612dff81612dc3565b905091905056fea26469706673582212208174b2a7c31a5b8dc0dfd13910a19474bf71a06b0098559e723143df416ece6264736f6c634300081c0033",
  "linkReferences": {},
  "deployedLinkReferences": {}
}