{
  "_format": "hh-sol-artifact-1",
  "contractName": "DynamicRewards",
  "sourceName": "contracts/rewards/DynamicRewards.sol",
  "abi": [
    {
      "inputs": [
        {
          "internalType": "address",
          "name": "_stakingToken",
          "type": "address"
        },
        {
          "internalType": "address",
          "name": "admin",
          "type": "address"
        }
      ],
      "stateMutability": "nonpayable",
      "type": "constructor"
    },
    {
      "anonymous": false,
      "inputs": [
        {
          "indexed": true,
          "internalType": "address",
          "name": "user",
          "type": "address"
        },
        {
          "indexed": false,
          "internalType": "uint256",
          "name": "amount",
          "type": "uint256"
        },
        {
          "indexed": false,
          "internalType": "address",
          "name": "token",
          "type": "address"
        }
      ],
      "name": "RewardClaimed",
      "type": "event"
    },
    {
      "anonymous": false,
      "inputs": [
        {
          "indexed": false,
          "internalType": "uint256",
          "name": "scheduleId",
          "type": "uint256"
        }
      ],
      "name": "RewardScheduleAdded",
      "type": "event"
    },
    {
      "anonymous": false,
      "inputs": [
        {
          "indexed": true,
          "internalType": "bytes32",
          "name": "role",
          "type": "bytes32"
        },
        {
          "indexed": true,
          "internalType": "bytes32",
          "name": "previousAdminRole",
          "type": "bytes32"
        },
        {
          "indexed": true,
          "internalType": "bytes32",
          "name": "newAdminRole",
          "type": "bytes32"
        }
      ],
      "name": "RoleAdminChanged",
      "type": "event"
    },
    {
      "anonymous": false,
      "inputs": [
        {
          "indexed": true,
          "internalType": "bytes32",
          "name": "role",
          "type": "bytes32"
        },
        {
          "indexed": true,
          "internalType": "address",
          "name": "account",
          "type": "address"
        },
        {
          "indexed": true,
          "internalType": "address",
          "name": "sender",
          "type": "address"
        }
      ],
      "name": "RoleGranted",
      "type": "event"
    },
    {
      "anonymous": false,
      "inputs": [
        {
          "indexed": true,
          "internalType": "bytes32",
          "name": "role",
          "type": "bytes32"
        },
        {
          "indexed": true,
          "internalType": "address",
          "name": "account",
          "type": "address"
        },
        {
          "indexed": true,
          "internalType": "address",
          "name": "sender",
          "type": "address"
        }
      ],
      "name": "RoleRevoked",
      "type": "event"
    },
    {
      "anonymous": false,
      "inputs": [
        {
          "indexed": true,
          "internalType": "address",
          "name": "user",
          "type": "address"
        },
        {
          "indexed": false,
          "internalType": "uint256",
          "name": "amount",
          "type": "uint256"
        }
      ],
      "name": "Staked",
      "type": "event"
    },
    {
      "anonymous": false,
      "inputs": [
        {
          "indexed": true,
          "internalType": "address",
          "name": "user",
          "type": "address"
        },
        {
          "indexed": false,
          "internalType": "uint256",
          "name": "amount",
          "type": "uint256"
        }
      ],
      "name": "Withdrawn",
      "type": "event"
    },
    {
      "inputs": [],
      "name": "DEFAULT_ADMIN_ROLE",
      "outputs": [
        {
          "internalType": "bytes32",
          "name": "",
          "type": "bytes32"
        }
      ],
      "stateMutability": "view",
      "type": "function"
    },
    {
      "inputs": [],
      "name": "REWARD_MANAGER",
      "outputs": [
        {
          "internalType": "bytes32",
          "name": "",
          "type": "bytes32"
        }
      ],
      "stateMutability": "view",
      "type": "function"
    },
    {
      "inputs": [
        {
          "internalType": "uint256",
          "name": "startTime",
          "type": "uint256"
        },
        {
          "internalType": "uint256",
          "name": "duration",
          "type": "uint256"
        },
        {
          "internalType": "uint256",
          "name": "totalReward",
          "type": "uint256"
        },
        {
          "internalType": "address",
          "name": "rewardsToken",
          "type": "address"
        }
      ],
      "name": "addRewardSchedule",
      "outputs": [],
      "stateMutability": "nonpayable",
      "type": "function"
    },
    {
      "inputs": [
        {
          "internalType": "address",
          "name": "account",
          "type": "address"
        }
      ],
      "name": "balanceOf",
      "outputs": [
        {
          "internalType": "uint256",
          "name": "",
          "type": "uint256"
        }
      ],
      "stateMutability": "view",
      "type": "function"
    },
    {
      "inputs": [],
      "name": "claimRewards",
      "outputs": [],
      "stateMutability": "nonpayable",
      "type": "function"
    },
    {
      "inputs": [],
      "name": "currentScheduleId",
      "outputs": [
        {
          "internalType": "uint256",
          "name": "",
          "type": "uint256"
        }
      ],
      "stateMutability": "view",
      "type": "function"
    },
    {
      "inputs": [
        {
          "internalType": "address",
          "name": "account",
          "type": "address"
        }
      ],
      "name": "earned",
      "outputs": [
        {
          "internalType": "uint256",
          "name": "total",
          "type": "uint256"
        }
      ],
      "stateMutability": "view",
      "type": "function"
    },
    {
      "inputs": [],
      "name": "getActiveSchedules",
      "outputs": [
        {
          "internalType": "uint256[]",
          "name": "",
          "type": "uint256[]"
        }
      ],
      "stateMutability": "view",
      "type": "function"
    },
    {
      "inputs": [
        {
          "internalType": "bytes32",
          "name": "role",
          "type": "bytes32"
        }
      ],
      "name": "getRoleAdmin",
      "outputs": [
        {
          "internalType": "bytes32",
          "name": "",
          "type": "bytes32"
        }
      ],
      "stateMutability": "view",
      "type": "function"
    },
    {
      "inputs": [
        {
          "internalType": "bytes32",
          "name": "role",
          "type": "bytes32"
        },
        {
          "internalType": "address",
          "name": "account",
          "type": "address"
        }
      ],
      "name": "grantRole",
      "outputs": [],
      "stateMutability": "nonpayable",
      "type": "function"
    },
    {
      "inputs": [
        {
          "internalType": "bytes32",
          "name": "role",
          "type": "bytes32"
        },
        {
          "internalType": "address",
          "name": "account",
          "type": "address"
        }
      ],
      "name": "hasRole",
      "outputs": [
        {
          "internalType": "bool",
          "name": "",
          "type": "bool"
        }
      ],
      "stateMutability": "view",
      "type": "function"
    },
    {
      "inputs": [
        {
          "internalType": "bytes32",
          "name": "role",
          "type": "bytes32"
        },
        {
          "internalType": "address",
          "name": "account",
          "type": "address"
        }
      ],
      "name": "renounceRole",
      "outputs": [],
      "stateMutability": "nonpayable",
      "type": "function"
    },
    {
      "inputs": [
        {
          "internalType": "bytes32",
          "name": "role",
          "type": "bytes32"
        },
        {
          "internalType": "address",
          "name": "account",
          "type": "address"
        }
      ],
      "name": "revokeRole",
      "outputs": [],
      "stateMutability": "nonpayable",
      "type": "function"
    },
    {
      "inputs": [
        {
          "internalType": "uint256",
          "name": "",
          "type": "uint256"
        }
      ],
      "name": "rewardSchedules",
      "outputs": [
        {
          "internalType": "uint256",
          "name": "startTime",
          "type": "uint256"
        },
        {
          "internalType": "uint256",
          "name": "endTime",
          "type": "uint256"
        },
        {
          "internalType": "uint256",
          "name": "totalRewards",
          "type": "uint256"
        },
        {
          "internalType": "uint256",
          "name": "claimedRewards",
          "type": "uint256"
        },
        {
          "internalType": "address",
          "name": "rewardsToken",
          "type": "address"
        }
      ],
      "stateMutability": "view",
      "type": "function"
    },
    {
      "inputs": [
        {
          "internalType": "uint256",
          "name": "amount",
          "type": "uint256"
        }
      ],
      "name": "stake",
      "outputs": [],
      "stateMutability": "nonpayable",
      "type": "function"
    },
    {
      "inputs": [],
      "name": "stakingToken",
      "outputs": [
        {
          "internalType": "contract IERC20",
          "name": "",
          "type": "address"
        }
      ],
      "stateMutability": "view",
      "type": "function"
    },
    {
      "inputs": [
        {
          "internalType": "bytes4",
          "name": "interfaceId",
          "type": "bytes4"
        }
      ],
      "name": "supportsInterface",
      "outputs": [
        {
          "internalType": "bool",
          "name": "",
          "type": "bool"
        }
      ],
      "stateMutability": "view",
      "type": "function"
    },
    {
      "inputs": [],
      "name": "totalStaked",
      "outputs": [
        {
          "internalType": "uint256",
          "name": "",
          "type": "uint256"
        }
      ],
      "stateMutability": "view",
      "type": "function"
    },
    {
      "inputs": [
        {
          "internalType": "uint256",
          "name": "amount",
          "type": "uint256"
        }
      ],
      "name": "withdraw",
      "outputs": [],
      "stateMutability": "nonpayable",
      "type": "function"
    }
  ],
  "bytecode": "0x60a060405234801561001057600080fd5b5060405161301a38038061301a833981810160405281019061003291906102e7565b60018081905550600073ffffffffffffffffffffffffffffffffffffffff168273ffffffffffffffffffffffffffffffffffffffff16036100a8576040517f08c379a000000000000000000000000000000000000000000000000000000000815260040161009f90610384565b60405180910390fd5b8173ffffffffffffffffffffffffffffffffffffffff1660808173ffffffffffffffffffffffffffffffffffffffff16815250506100ef6000801b8261012660201b60201c565b61011f7f6393fa734211156fcc8c7dda6b0650f5c731d4c838c1db43445a149aa2f5b6fe8261012660201b60201c565b50506103a4565b610136828261021260201b60201c565b61020e57600160008084815260200190815260200160002060000160008373ffffffffffffffffffffffffffffffffffffffff1673ffffffffffffffffffffffffffffffffffffffff16815260200190815260200160002060006101000a81548160ff0219169083151502179055506101b361027c60201b60201c565b73ffffffffffffffffffffffffffffffffffffffff168173ffffffffffffffffffffffffffffffffffffffff16837f2f8788117e7eff1d82e926ec794901d17c78024a50270940304540a733656f0d60405160405180910390a45b5050565b600080600084815260200190815260200160002060000160008373ffffffffffffffffffffffffffffffffffffffff1673ffffffffffffffffffffffffffffffffffffffff16815260200190815260200160002060009054906101000a900460ff16905092915050565b600033905090565b600080fd5b600073ffffffffffffffffffffffffffffffffffffffff82169050919050565b60006102b482610289565b9050919050565b6102c4816102a9565b81146102cf57600080fd5b50565b6000815190506102e1816102bb565b92915050565b600080604083850312156102fe576102fd610284565b5b600061030c858286016102d2565b925050602061031d858286016102d2565b9150509250929050565b600082825260208201905092915050565b7f496e76616c6964207374616b696e6720746f6b656e0000000000000000000000600082015250565b600061036e601583610327565b915061037982610338565b602082019050919050565b6000602082019050818103600083015261039d81610361565b9050919050565b608051612c466103d46000396000818161078a01528181610bae01528181610c5d0152610e080152612c466000f3fe608060405234801561001057600080fd5b50600436106101205760003560e01c80635932fdba116100ad57806391d148541161007157806391d148541461030d578063a217fddf1461033d578063a694fc3a1461035b578063d547741f14610377578063e075d82c1461039357610120565b80635932fdba1461026557806370a082311461028357806372f702f3146102b3578063817b1cd2146102d157806385ecdd93146102ef57610120565b8063248a9ca3116100f4578063248a9ca3146101d75780632e1a7d4d146102075780632f2ff15d1461022357806336568abe1461023f578063372500ab1461025b57610120565b80628cc2621461012557806301ffc9a7146101555780630b35a4b0146101855780631c1121c5146101a3575b600080fd5b61013f600480360381019061013a9190611d02565b6103af565b60405161014c9190611d48565b60405180910390f35b61016f600480360381019061016a9190611dbb565b6103f7565b60405161017c9190611e03565b60405180910390f35b61018d610471565b60405161019a9190611edc565b60405180910390f35b6101bd60048036038101906101b89190611f2a565b61058b565b6040516101ce959493929190611f66565b60405180910390f35b6101f160048036038101906101ec9190611fef565b6105e1565b6040516101fe919061202b565b60405180910390f35b610221600480360381019061021c9190611f2a565b610600565b005b61023d60048036038101906102389190612046565b6108c2565b005b61025960048036038101906102549190612046565b6108e3565b005b610263610966565b005b61026d610bee565b60405161027a919061202b565b60405180910390f35b61029d60048036038101906102989190611d02565b610c12565b6040516102aa9190611d48565b60405180910390f35b6102bb610c5b565b6040516102c891906120e5565b60405180910390f35b6102d9610c7f565b6040516102e69190611d48565b60405180910390f35b6102f7610c89565b6040516103049190611d48565b60405180910390f35b61032760048036038101906103229190612046565b610c8f565b6040516103349190611e03565b60405180910390f35b610345610cf9565b604051610352919061202b565b60405180910390f35b61037560048036038101906103709190611f2a565b610d00565b005b610391600480360381019061038c9190612046565b610f42565b005b6103ad60048036038101906103a89190612100565b610f63565b005b600080600190505b60055481116103f1576103dc6103cd8483611245565b8361144f90919063ffffffff16565b915080806103e990612196565b9150506103b7565b50919050565b60007f7965db0b000000000000000000000000000000000000000000000000000000007bffffffffffffffffffffffffffffffffffffffffffffffffffffffff1916827bffffffffffffffffffffffffffffffffffffffffffffffffffffffff1916148061046a575061046982611465565b5b9050919050565b6060600080600190505b60055481116104c45760046000828152602001908152602001600020600101544210156104b15781806104ad90612196565b9250505b80806104bc90612196565b91505061047b565b5060008167ffffffffffffffff8111156104e1576104e06121de565b5b60405190808252806020026020018201604052801561050f5781602001602082028036833780820191505090505b509050600080600190505b600554811161058157600460008281526020019081526020016000206001015442101561056e578083838061054e90612196565b9450815181106105615761056061220d565b5b6020026020010181815250505b808061057990612196565b91505061051a565b5081935050505090565b60046020528060005260406000206000915090508060000154908060010154908060020154908060030154908060040160009054906101000a900473ffffffffffffffffffffffffffffffffffffffff16905085565b6000806000838152602001908152602001600020600101549050919050565b6106086114cf565b6000811161064b576040517f08c379a000000000000000000000000000000000000000000000000000000000815260040161064290612299565b60405180910390fd5b80600360003373ffffffffffffffffffffffffffffffffffffffff1673ffffffffffffffffffffffffffffffffffffffff1681526020019081526020016000205410156106cd576040517f08c379a00000000000000000000000000000000000000000000000000000000081526004016106c490612305565b60405180910390fd5b6106d63361151e565b6106eb8160025461160590919063ffffffff16565b60028190555061074381600360003373ffffffffffffffffffffffffffffffffffffffff1673ffffffffffffffffffffffffffffffffffffffff1681526020019081526020016000205461160590919063ffffffff16565b600360003373ffffffffffffffffffffffffffffffffffffffff1673ffffffffffffffffffffffffffffffffffffffff1681526020019081526020016000208190555060007f000000000000000000000000000000000000000000000000000000000000000073ffffffffffffffffffffffffffffffffffffffff1663a9059cbb33846040518363ffffffff1660e01b81526004016107e3929190612325565b6020604051808303816000875af1158015610802573d6000803e3d6000fd5b505050506040513d601f19601f82011682018060405250810190610826919061237a565b905080610868576040517f08c379a000000000000000000000000000000000000000000000000000000000815260040161085f906123f3565b60405180910390fd5b3373ffffffffffffffffffffffffffffffffffffffff167f7084f5476618d8e60b11ef0d7d3f06914655adb8793e28ff7f018d4c76d505d5836040516108ae9190611d48565b60405180910390a2506108bf61161b565b50565b6108cb826105e1565b6108d481611624565b6108de8383611638565b505050565b6108eb611718565b73ffffffffffffffffffffffffffffffffffffffff168173ffffffffffffffffffffffffffffffffffffffff1614610958576040517f08c379a000000000000000000000000000000000000000000000000000000000815260040161094f90612485565b60405180910390fd5b6109628282611720565b5050565b61096e6114cf565b6109773361151e565b600080600190505b6005548111610b2f5760006004600083815260200190815260200160002090506000600660003373ffffffffffffffffffffffffffffffffffffffff1673ffffffffffffffffffffffffffffffffffffffff168152602001908152602001600020600084815260200190815260200160002054905060008103610a03575050610b1c565b8160020154610a1f82846003015461144f90919063ffffffff16565b1115610a60576040517f08c379a0000000000000000000000000000000000000000000000000000000008152600401610a57906124f1565b60405180910390fd5b6000600660003373ffffffffffffffffffffffffffffffffffffffff1673ffffffffffffffffffffffffffffffffffffffff168152602001908152602001600020600085815260200190815260200160002081905550610acd81836003015461144f90919063ffffffff16565b8260030181905550610b048260040160009054906101000a900473ffffffffffffffffffffffffffffffffffffffff163383611801565b610b17818561144f90919063ffffffff16565b935050505b8080610b2790612196565b91505061097f565b5060008111610b73576040517f08c379a0000000000000000000000000000000000000000000000000000000008152600401610b6a9061255d565b60405180910390fd5b3373ffffffffffffffffffffffffffffffffffffffff167ff80b6d248ca65e589d3f24c7ce36e2df22ba16ba4e7656aad67e114abbe971d2827f0000000000000000000000000000000000000000000000000000000000000000604051610bdb92919061257d565b60405180910390a250610bec61161b565b565b7f6393fa734211156fcc8c7dda6b0650f5c731d4c838c1db43445a149aa2f5b6fe81565b6000600360008373ffffffffffffffffffffffffffffffffffffffff1673ffffffffffffffffffffffffffffffffffffffff168152602001908152602001600020549050919050565b7f000000000000000000000000000000000000000000000000000000000000000081565b6000600254905090565b60055481565b600080600084815260200190815260200160002060000160008373ffffffffffffffffffffffffffffffffffffffff1673ffffffffffffffffffffffffffffffffffffffff16815260200190815260200160002060009054906101000a900460ff16905092915050565b6000801b81565b610d086114cf565b60008111610d4b576040517f08c379a0000000000000000000000000000000000000000000000000000000008152600401610d4290612299565b60405180910390fd5b610d543361151e565b610d698160025461144f90919063ffffffff16565b600281905550610dc181600360003373ffffffffffffffffffffffffffffffffffffffff1673ffffffffffffffffffffffffffffffffffffffff1681526020019081526020016000205461144f90919063ffffffff16565b600360003373ffffffffffffffffffffffffffffffffffffffff1673ffffffffffffffffffffffffffffffffffffffff1681526020019081526020016000208190555060007f000000000000000000000000000000000000000000000000000000000000000073ffffffffffffffffffffffffffffffffffffffff166323b872dd3330856040518463ffffffff1660e01b8152600401610e63939291906125a6565b6020604051808303816000875af1158015610e82573d6000803e3d6000fd5b505050506040513d601f19601f82011682018060405250810190610ea6919061237a565b905080610ee8576040517f08c379a0000000000000000000000000000000000000000000000000000000008152600401610edf906123f3565b60405180910390fd5b3373ffffffffffffffffffffffffffffffffffffffff167f9e71bc8eea02a63969f509818f2dafb9254532904319f9dbda79b67bd34a5f3d83604051610f2e9190611d48565b60405180910390a250610f3f61161b565b50565b610f4b826105e1565b610f5481611624565b610f5e8383611720565b505050565b7f6393fa734211156fcc8c7dda6b0650f5c731d4c838c1db43445a149aa2f5b6fe610f8d81611624565b42851015610fd0576040517f08c379a0000000000000000000000000000000000000000000000000000000008152600401610fc790612629565b60405180910390fd5b60008411611013576040517f08c379a000000000000000000000000000000000000000000000000000000000815260040161100a90612695565b60405180910390fd5b60008311611056576040517f08c379a000000000000000000000000000000000000000000000000000000000815260040161104d90612701565b60405180910390fd5b60008273ffffffffffffffffffffffffffffffffffffffff166370a08231306040518263ffffffff1660e01b81526004016110919190612721565b602060405180830381865afa1580156110ae573d6000803e3d6000fd5b505050506040513d601f19601f820116820180604052508101906110d29190612751565b905083811015611117576040517f08c379a000000000000000000000000000000000000000000000000000000000815260040161110e906127ca565b60405180910390fd5b600060056000815461112890612196565b91905081905590506040518060a00160405280888152602001611154888a61144f90919063ffffffff16565b8152602001868152602001600081526020018573ffffffffffffffffffffffffffffffffffffffff16815250600460008381526020019081526020016000206000820151816000015560208201518160010155604082015181600201556060820151816003015560808201518160040160006101000a81548173ffffffffffffffffffffffffffffffffffffffff021916908373ffffffffffffffffffffffffffffffffffffffff1602179055509050507f85396969f10b93e89b84ce058bbce90a809c86067bb94a5f0243dfe9f9868943816040516112349190611d48565b60405180910390a150505050505050565b6000806004600084815260200190815260200160002090506000600360008673ffffffffffffffffffffffffffffffffffffffff1673ffffffffffffffffffffffffffffffffffffffff1681526020019081526020016000205414806112ae5750806000015442105b156112bd576000915050611449565b60006112d682600001544261160590919063ffffffff16565b905060006112f58360000154846001015461160590919063ffffffff16565b9050600061132682611318670de0b6b3a76400008661198590919063ffffffff16565b61199b90919063ffffffff16565b905060006113458560030154866002015461160590919063ffffffff16565b905060006113af6002546113a185600360008e73ffffffffffffffffffffffffffffffffffffffff1673ffffffffffffffffffffffffffffffffffffffff1681526020019081526020016000205461198590919063ffffffff16565b61199b90919063ffffffff16565b9050611440600660008b73ffffffffffffffffffffffffffffffffffffffff1673ffffffffffffffffffffffffffffffffffffffff16815260200190815260200160002060008a815260200190815260200160002054611432670de0b6b3a7640000611424858761198590919063ffffffff16565b61199b90919063ffffffff16565b61160590919063ffffffff16565b96505050505050505b92915050565b6000818361145d91906127ea565b905092915050565b60007f01ffc9a7000000000000000000000000000000000000000000000000000000007bffffffffffffffffffffffffffffffffffffffffffffffffffffffff1916827bffffffffffffffffffffffffffffffffffffffffffffffffffffffff1916149050919050565b600260015403611514576040517f08c379a000000000000000000000000000000000000000000000000000000000815260040161150b9061286a565b60405180910390fd5b6002600181905550565b6000600190505b60055481116116015761159a61153b8383611245565b600660008573ffffffffffffffffffffffffffffffffffffffff1673ffffffffffffffffffffffffffffffffffffffff16815260200190815260200160002060008481526020019081526020016000205461144f90919063ffffffff16565b600660008473ffffffffffffffffffffffffffffffffffffffff1673ffffffffffffffffffffffffffffffffffffffff16815260200190815260200160002060008381526020019081526020016000208190555080806115f990612196565b915050611525565b5050565b60008183611613919061288a565b905092915050565b60018081905550565b61163581611630611718565b6119b1565b50565b6116428282610c8f565b61171457600160008084815260200190815260200160002060000160008373ffffffffffffffffffffffffffffffffffffffff1673ffffffffffffffffffffffffffffffffffffffff16815260200190815260200160002060006101000a81548160ff0219169083151502179055506116b9611718565b73ffffffffffffffffffffffffffffffffffffffff168173ffffffffffffffffffffffffffffffffffffffff16837f2f8788117e7eff1d82e926ec794901d17c78024a50270940304540a733656f0d60405160405180910390a45b5050565b600033905090565b61172a8282610c8f565b156117fd57600080600084815260200190815260200160002060000160008373ffffffffffffffffffffffffffffffffffffffff1673ffffffffffffffffffffffffffffffffffffffff16815260200190815260200160002060006101000a81548160ff0219169083151502179055506117a2611718565b73ffffffffffffffffffffffffffffffffffffffff168173ffffffffffffffffffffffffffffffffffffffff16837ff6391f5c32d9c69d2a47ea670b442974b53935d1edc7fd64eb21e047a839171b60405160405180910390a45b5050565b808373ffffffffffffffffffffffffffffffffffffffff166370a08231306040518263ffffffff1660e01b815260040161183b9190612721565b602060405180830381865afa158015611858573d6000803e3d6000fd5b505050506040513d601f19601f8201168201806040525081019061187c9190612751565b10156118bd576040517f08c379a00000000000000000000000000000000000000000000000000000000081526004016118b49061290a565b60405180910390fd5b60008373ffffffffffffffffffffffffffffffffffffffff1663a9059cbb84846040518363ffffffff1660e01b81526004016118fa929190612325565b6020604051808303816000875af1158015611919573d6000803e3d6000fd5b505050506040513d601f19601f8201168201806040525081019061193d919061237a565b90508061197f576040517f08c379a0000000000000000000000000000000000000000000000000000000008152600401611976906123f3565b60405180910390fd5b50505050565b60008183611993919061292a565b905092915050565b600081836119a9919061299b565b905092915050565b6119bb8282610c8f565b611a32576119c881611a36565b6119d68360001c6020611a63565b6040516020016119e7929190612ad5565b6040516020818303038152906040526040517f08c379a0000000000000000000000000000000000000000000000000000000008152600401611a299190612b59565b60405180910390fd5b5050565b6060611a5c8273ffffffffffffffffffffffffffffffffffffffff16601460ff16611a63565b9050919050565b606060006002836002611a76919061292a565b611a8091906127ea565b67ffffffffffffffff811115611a9957611a986121de565b5b6040519080825280601f01601f191660200182016040528015611acb5781602001600182028036833780820191505090505b5090507f300000000000000000000000000000000000000000000000000000000000000081600081518110611b0357611b0261220d565b5b60200101907effffffffffffffffffffffffffffffffffffffffffffffffffffffffffffff1916908160001a9053507f780000000000000000000000000000000000000000000000000000000000000081600181518110611b6757611b6661220d565b5b60200101907effffffffffffffffffffffffffffffffffffffffffffffffffffffffffffff1916908160001a90535060006001846002611ba7919061292a565b611bb191906127ea565b90505b6001811115611c51577f3031323334353637383961626364656600000000000000000000000000000000600f861660108110611bf357611bf261220d565b5b1a60f81b828281518110611c0a57611c0961220d565b5b60200101907effffffffffffffffffffffffffffffffffffffffffffffffffffffffffffff1916908160001a905350600485901c945080611c4a90612b7b565b9050611bb4565b5060008414611c95576040517f08c379a0000000000000000000000000000000000000000000000000000000008152600401611c8c90612bf0565b60405180910390fd5b8091505092915050565b600080fd5b600073ffffffffffffffffffffffffffffffffffffffff82169050919050565b6000611ccf82611ca4565b9050919050565b611cdf81611cc4565b8114611cea57600080fd5b50565b600081359050611cfc81611cd6565b92915050565b600060208284031215611d1857611d17611c9f565b5b6000611d2684828501611ced565b91505092915050565b6000819050919050565b611d4281611d2f565b82525050565b6000602082019050611d5d6000830184611d39565b92915050565b60007fffffffff0000000000000000000000000000000000000000000000000000000082169050919050565b611d9881611d63565b8114611da357600080fd5b50565b600081359050611db581611d8f565b92915050565b600060208284031215611dd157611dd0611c9f565b5b6000611ddf84828501611da6565b91505092915050565b60008115159050919050565b611dfd81611de8565b82525050565b6000602082019050611e186000830184611df4565b92915050565b600081519050919050565b600082825260208201905092915050565b6000819050602082019050919050565b611e5381611d2f565b82525050565b6000611e658383611e4a565b60208301905092915050565b6000602082019050919050565b6000611e8982611e1e565b611e938185611e29565b9350611e9e83611e3a565b8060005b83811015611ecf578151611eb68882611e59565b9750611ec183611e71565b925050600181019050611ea2565b5085935050505092915050565b60006020820190508181036000830152611ef68184611e7e565b905092915050565b611f0781611d2f565b8114611f1257600080fd5b50565b600081359050611f2481611efe565b92915050565b600060208284031215611f4057611f3f611c9f565b5b6000611f4e84828501611f15565b91505092915050565b611f6081611cc4565b82525050565b600060a082019050611f7b6000830188611d39565b611f886020830187611d39565b611f956040830186611d39565b611fa26060830185611d39565b611faf6080830184611f57565b9695505050505050565b6000819050919050565b611fcc81611fb9565b8114611fd757600080fd5b50565b600081359050611fe981611fc3565b92915050565b60006020828403121561200557612004611c9f565b5b600061201384828501611fda565b91505092915050565b61202581611fb9565b82525050565b6000602082019050612040600083018461201c565b92915050565b6000806040838503121561205d5761205c611c9f565b5b600061206b85828601611fda565b925050602061207c85828601611ced565b9150509250929050565b6000819050919050565b60006120ab6120a66120a184611ca4565b612086565b611ca4565b9050919050565b60006120bd82612090565b9050919050565b60006120cf826120b2565b9050919050565b6120df816120c4565b82525050565b60006020820190506120fa60008301846120d6565b92915050565b6000806000806080858703121561211a57612119611c9f565b5b600061212887828801611f15565b945050602061213987828801611f15565b935050604061214a87828801611f15565b925050606061215b87828801611ced565b91505092959194509250565b7f4e487b7100000000000000000000000000000000000000000000000000000000600052601160045260246000fd5b60006121a182611d2f565b91507fffffffffffffffffffffffffffffffffffffffffffffffffffffffffffffffff82036121d3576121d2612167565b5b600182019050919050565b7f4e487b7100000000000000000000000000000000000000000000000000000000600052604160045260246000fd5b7f4e487b7100000000000000000000000000000000000000000000000000000000600052603260045260246000fd5b600082825260208201905092915050565b7f416d6f756e74206d757374206265203e20300000000000000000000000000000600082015250565b600061228360128361223c565b915061228e8261224d565b602082019050919050565b600060208201905081810360008301526122b281612276565b9050919050565b7f496e73756666696369656e742062616c616e6365000000000000000000000000600082015250565b60006122ef60148361223c565b91506122fa826122b9565b602082019050919050565b6000602082019050818103600083015261231e816122e2565b9050919050565b600060408201905061233a6000830185611f57565b6123476020830184611d39565b9392505050565b61235781611de8565b811461236257600080fd5b50565b6000815190506123748161234e565b92915050565b6000602082840312156123905761238f611c9f565b5b600061239e84828501612365565b91505092915050565b7f5472616e73666572206661696c65640000000000000000000000000000000000600082015250565b60006123dd600f8361223c565b91506123e8826123a7565b602082019050919050565b6000602082019050818103600083015261240c816123d0565b9050919050565b7f416363657373436f6e74726f6c3a2063616e206f6e6c792072656e6f756e636560008201527f20726f6c657320666f722073656c660000000000000000000000000000000000602082015250565b600061246f602f8361223c565b915061247a82612413565b604082019050919050565b6000602082019050818103600083015261249e81612462565b9050919050565b7f4f76657220636c61696d65640000000000000000000000000000000000000000600082015250565b60006124db600c8361223c565b91506124e6826124a5565b602082019050919050565b6000602082019050818103600083015261250a816124ce565b9050919050565b7f4e6f207265776172647300000000000000000000000000000000000000000000600082015250565b6000612547600a8361223c565b915061255282612511565b602082019050919050565b600060208201905081810360008301526125768161253a565b9050919050565b60006040820190506125926000830185611d39565b61259f6020830184611f57565b9392505050565b60006060820190506125bb6000830186611f57565b6125c86020830185611f57565b6125d56040830184611d39565b949350505050565b7f53746172742074696d6520696e20706173740000000000000000000000000000600082015250565b600061261360128361223c565b915061261e826125dd565b602082019050919050565b6000602082019050818103600083015261264281612606565b9050919050565b7f496e76616c6964206475726174696f6e00000000000000000000000000000000600082015250565b600061267f60108361223c565b915061268a82612649565b602082019050919050565b600060208201905081810360008301526126ae81612672565b9050919050565b7f496e76616c69642072657761726420616d6f756e740000000000000000000000600082015250565b60006126eb60158361223c565b91506126f6826126b5565b602082019050919050565b6000602082019050818103600083015261271a816126de565b9050919050565b60006020820190506127366000830184611f57565b92915050565b60008151905061274b81611efe565b92915050565b60006020828403121561276757612766611c9f565b5b60006127758482850161273c565b91505092915050565b7f496e73756666696369656e742072657761726420746f6b656e73000000000000600082015250565b60006127b4601a8361223c565b91506127bf8261277e565b602082019050919050565b600060208201905081810360008301526127e3816127a7565b9050919050565b60006127f582611d2f565b915061280083611d2f565b925082820190508082111561281857612817612167565b5b92915050565b7f5265656e7472616e637947756172643a207265656e7472616e742063616c6c00600082015250565b6000612854601f8361223c565b915061285f8261281e565b602082019050919050565b6000602082019050818103600083015261288381612847565b9050919050565b600061289582611d2f565b91506128a083611d2f565b92508282039050818111156128b8576128b7612167565b5b92915050565b7f496e73756666696369656e74207265776172642062616c616e63650000000000600082015250565b60006128f4601b8361223c565b91506128ff826128be565b602082019050919050565b60006020820190508181036000830152612923816128e7565b9050919050565b600061293582611d2f565b915061294083611d2f565b925082820261294e81611d2f565b9150828204841483151761296557612964612167565b5b5092915050565b7f4e487b7100000000000000000000000000000000000000000000000000000000600052601260045260246000fd5b60006129a682611d2f565b91506129b183611d2f565b9250826129c1576129c061296c565b5b828204905092915050565b600081905092915050565b7f416363657373436f6e74726f6c3a206163636f756e7420000000000000000000600082015250565b6000612a0d6017836129cc565b9150612a18826129d7565b601782019050919050565b600081519050919050565b60005b83811015612a4c578082015181840152602081019050612a31565b60008484015250505050565b6000612a6382612a23565b612a6d81856129cc565b9350612a7d818560208601612a2e565b80840191505092915050565b7f206973206d697373696e6720726f6c6520000000000000000000000000000000600082015250565b6000612abf6011836129cc565b9150612aca82612a89565b601182019050919050565b6000612ae082612a00565b9150612aec8285612a58565b9150612af782612ab2565b9150612b038284612a58565b91508190509392505050565b6000601f19601f8301169050919050565b6000612b2b82612a23565b612b35818561223c565b9350612b45818560208601612a2e565b612b4e81612b0f565b840191505092915050565b60006020820190508181036000830152612b738184612b20565b905092915050565b6000612b8682611d2f565b915060008203612b9957612b98612167565b5b600182039050919050565b7f537472696e67733a20686578206c656e67746820696e73756666696369656e74600082015250565b6000612bda60208361223c565b9150612be582612ba4565b602082019050919050565b60006020820190508181036000830152612c0981612bcd565b905091905056fea26469706673582212204795fd2ad3b014cfe66b8514923e00ea044d5fb25c955eb0ce2bf61d221973e564736f6c634300081c0033",
  "linkReferences": {},
  "deployedLinkReferences": {}
}