{
  "_format": "hh-sol-artifact-1",
  "contractName": "LifeToken",
  "sourceName": "contracts/tokens/LifeToken.sol",
  "abi": [
    {
      "inputs": [
        {
          "internalType": "address",
          "name": "initialOwner_",
          "type": "address"
        }
      ],
      "stateMutability": "nonpayable",
      "type": "constructor"
    },
    {
      "anonymous": false,
      "inputs": [
        {
          "indexed": true,
          "internalType": "address",
          "name": "owner",
          "type": "address"
        },
        {
          "indexed": true,
          "internalType": "address",
          "name": "spender",
          "type": "address"
        },
        {
          "indexed": false,
          "internalType": "uint256",
          "name": "value",
          "type": "uint256"
        }
      ],
      "name": "Approval",
      "type": "event"
    },
    {
      "anonymous": false,
      "inputs": [
        {
          "indexed": true,
          "internalType": "address",
          "name": "newDistributor",
          "type": "address"
        }
      ],
      "name": "DistributorUpdated",
      "type": "event"
    },
    {
      "anonymous": false,
      "inputs": [
        {
          "indexed": true,
          "internalType": "address",
          "name": "account",
          "type": "address"
        },
        {
          "indexed": false,
          "internalType": "bool",
          "name": "excluded",
          "type": "bool"
        }
      ],
      "name": "ExcludedFromRebase",
      "type": "event"
    },
    {
      "anonymous": false,
      "inputs": [
        {
          "indexed": true,
          "internalType": "address",
          "name": "previousOwner",
          "type": "address"
        },
        {
          "indexed": true,
          "internalType": "address",
          "name": "newOwner",
          "type": "address"
        }
      ],
      "name": "OwnershipTransferred",
      "type": "event"
    },
    {
      "anonymous": false,
      "inputs": [
        {
          "indexed": true,
          "internalType": "uint256",
          "name": "epoch",
          "type": "uint256"
        },
        {
          "indexed": false,
          "internalType": "uint256",
          "name": "oldFactor",
          "type": "uint256"
        },
        {
          "indexed": false,
          "internalType": "uint256",
          "name": "newFactor",
          "type": "uint256"
        }
      ],
      "name": "Rebase",
      "type": "event"
    },
    {
      "anonymous": false,
      "inputs": [
        {
          "indexed": true,
          "internalType": "address",
          "name": "newRebaser",
          "type": "address"
        }
      ],
      "name": "RebaserUpdated",
      "type": "event"
    },
    {
      "anonymous": false,
      "inputs": [
        {
          "indexed": true,
          "internalType": "address",
          "name": "from",
          "type": "address"
        },
        {
          "indexed": true,
          "internalType": "address",
          "name": "to",
          "type": "address"
        },
        {
          "indexed": false,
          "internalType": "uint256",
          "name": "value",
          "type": "uint256"
        }
      ],
      "name": "Transfer",
      "type": "event"
    },
    {
      "inputs": [],
      "name": "INITIAL_SUPPLY",
      "outputs": [
        {
          "internalType": "uint256",
          "name": "",
          "type": "uint256"
        }
      ],
      "stateMutability": "view",
      "type": "function"
    },
    {
      "inputs": [],
      "name": "MAX_SUPPLY",
      "outputs": [
        {
          "internalType": "uint256",
          "name": "",
          "type": "uint256"
        }
      ],
      "stateMutability": "view",
      "type": "function"
    },
    {
      "inputs": [
        {
          "internalType": "address",
          "name": "owner",
          "type": "address"
        },
        {
          "internalType": "address",
          "name": "spender",
          "type": "address"
        }
      ],
      "name": "allowance",
      "outputs": [
        {
          "internalType": "uint256",
          "name": "",
          "type": "uint256"
        }
      ],
      "stateMutability": "view",
      "type": "function"
    },
    {
      "inputs": [
        {
          "internalType": "address",
          "name": "spender",
          "type": "address"
        },
        {
          "internalType": "uint256",
          "name": "amount",
          "type": "uint256"
        }
      ],
      "name": "approve",
      "outputs": [
        {
          "internalType": "bool",
          "name": "",
          "type": "bool"
        }
      ],
      "stateMutability": "nonpayable",
      "type": "function"
    },
    {
      "inputs": [
        {
          "internalType": "address",
          "name": "account",
          "type": "address"
        }
      ],
      "name": "balanceOf",
      "outputs": [
        {
          "internalType": "uint256",
          "name": "",
          "type": "uint256"
        }
      ],
      "stateMutability": "view",
      "type": "function"
    },
    {
      "inputs": [],
      "name": "decimals",
      "outputs": [
        {
          "internalType": "uint8",
          "name": "",
          "type": "uint8"
        }
      ],
      "stateMutability": "view",
      "type": "function"
    },
    {
      "inputs": [
        {
          "internalType": "address",
          "name": "spender",
          "type": "address"
        },
        {
          "internalType": "uint256",
          "name": "subtractedValue",
          "type": "uint256"
        }
      ],
      "name": "decreaseAllowance",
      "outputs": [
        {
          "internalType": "bool",
          "name": "",
          "type": "bool"
        }
      ],
      "stateMutability": "nonpayable",
      "type": "function"
    },
    {
      "inputs": [],
      "name": "distributor",
      "outputs": [
        {
          "internalType": "address",
          "name": "",
          "type": "address"
        }
      ],
      "stateMutability": "view",
      "type": "function"
    },
    {
      "inputs": [
        {
          "internalType": "address",
          "name": "account_",
          "type": "address"
        },
        {
          "internalType": "bool",
          "name": "excluded_",
          "type": "bool"
        }
      ],
      "name": "excludeFromRebase",
      "outputs": [],
      "stateMutability": "nonpayable",
      "type": "function"
    },
    {
      "inputs": [
        {
          "internalType": "address",
          "name": "spender",
          "type": "address"
        },
        {
          "internalType": "uint256",
          "name": "addedValue",
          "type": "uint256"
        }
      ],
      "name": "increaseAllowance",
      "outputs": [
        {
          "internalType": "bool",
          "name": "",
          "type": "bool"
        }
      ],
      "stateMutability": "nonpayable",
      "type": "function"
    },
    {
      "inputs": [
        {
          "internalType": "address[]",
          "name": "recipients_",
          "type": "address[]"
        },
        {
          "internalType": "uint256[]",
          "name": "amounts_",
          "type": "uint256[]"
        }
      ],
      "name": "initialDistribution",
      "outputs": [],
      "stateMutability": "nonpayable",
      "type": "function"
    },
    {
      "inputs": [],
      "name": "initialDistributionDone",
      "outputs": [
        {
          "internalType": "bool",
          "name": "",
          "type": "bool"
        }
      ],
      "stateMutability": "view",
      "type": "function"
    },
    {
      "inputs": [],
      "name": "name",
      "outputs": [
        {
          "internalType": "string",
          "name": "",
          "type": "string"
        }
      ],
      "stateMutability": "view",
      "type": "function"
    },
    {
      "inputs": [],
      "name": "owner",
      "outputs": [
        {
          "internalType": "address",
          "name": "",
          "type": "address"
        }
      ],
      "stateMutability": "view",
      "type": "function"
    },
    {
      "inputs": [
        {
          "internalType": "uint256",
          "name": "newFactor_",
          "type": "uint256"
        }
      ],
      "name": "rebase",
      "outputs": [],
      "stateMutability": "nonpayable",
      "type": "function"
    },
    {
      "inputs": [],
      "name": "rebaseConfig",
      "outputs": [
        {
          "internalType": "uint256",
          "name": "lastRebaseTime",
          "type": "uint256"
        },
        {
          "internalType": "uint256",
          "name": "minRebaseInterval",
          "type": "uint256"
        },
        {
          "internalType": "uint256",
          "name": "rebaseFactor",
          "type": "uint256"
        }
      ],
      "stateMutability": "view",
      "type": "function"
    },
    {
      "inputs": [],
      "name": "rebaser",
      "outputs": [
        {
          "internalType": "address",
          "name": "",
          "type": "address"
        }
      ],
      "stateMutability": "view",
      "type": "function"
    },
    {
      "inputs": [],
      "name": "renounceOwnership",
      "outputs": [],
      "stateMutability": "nonpayable",
      "type": "function"
    },
    {
      "inputs": [
        {
          "internalType": "address",
          "name": "newDistributor_",
          "type": "address"
        }
      ],
      "name": "setDistributor",
      "outputs": [],
      "stateMutability": "nonpayable",
      "type": "function"
    },
    {
      "inputs": [
        {
          "internalType": "address",
          "name": "newRebaser_",
          "type": "address"
        }
      ],
      "name": "setRebaser",
      "outputs": [],
      "stateMutability": "nonpayable",
      "type": "function"
    },
    {
      "inputs": [],
      "name": "symbol",
      "outputs": [
        {
          "internalType": "string",
          "name": "",
          "type": "string"
        }
      ],
      "stateMutability": "view",
      "type": "function"
    },
    {
      "inputs": [],
      "name": "totalSupply",
      "outputs": [
        {
          "internalType": "uint256",
          "name": "",
          "type": "uint256"
        }
      ],
      "stateMutability": "view",
      "type": "function"
    },
    {
      "inputs": [
        {
          "internalType": "address",
          "name": "to",
          "type": "address"
        },
        {
          "internalType": "uint256",
          "name": "amount",
          "type": "uint256"
        }
      ],
      "name": "transfer",
      "outputs": [
        {
          "internalType": "bool",
          "name": "",
          "type": "bool"
        }
      ],
      "stateMutability": "nonpayable",
      "type": "function"
    },
    {
      "inputs": [
        {
          "internalType": "address",
          "name": "from",
          "type": "address"
        },
        {
          "internalType": "address",
          "name": "to",
          "type": "address"
        },
        {
          "internalType": "uint256",
          "name": "amount",
          "type": "uint256"
        }
      ],
      "name": "transferFrom",
      "outputs": [
        {
          "internalType": "bool",
          "name": "",
          "type": "bool"
        }
      ],
      "stateMutability": "nonpayable",
      "type": "function"
    },
    {
      "inputs": [
        {
          "internalType": "address",
          "name": "newOwner",
          "type": "address"
        }
      ],
      "name": "transferOwnership",
      "outputs": [],
      "stateMutability": "nonpayable",
      "type": "function"
    }
  ],
  "bytecode": "0x608060405234801561001057600080fd5b50604051612ee8380380612ee8833981810160405281019061003291906103af565b6040518060400160405280601081526020017f4d616e6167654c69666520546f6b656e000000000000000000000000000000008152506040518060400160405280600481526020017f4c6966650000000000000000000000000000000000000000000000000000000081525081600390816100ad919061062c565b5080600490816100bd919061062c565b5050506100dc6100d161027e60201b60201c565b61028660201b60201c565b6100eb8161028660201b60201c565b80600660006101000a81548173ffffffffffffffffffffffffffffffffffffffff021916908373ffffffffffffffffffffffffffffffffffffffff16021790555080600760006101000a81548173ffffffffffffffffffffffffffffffffffffffff021916908373ffffffffffffffffffffffffffffffffffffffff160217905550604051806060016040528042815260200162278d008152602001670de0b6b3a764000081525060086000820151816000015560208201518160010155604082015181600201559050506b06765c793fa10079d0000000600c60003073ffffffffffffffffffffffffffffffffffffffff1673ffffffffffffffffffffffffffffffffffffffff168152602001908152602001600020819055503073ffffffffffffffffffffffffffffffffffffffff16600073ffffffffffffffffffffffffffffffffffffffff167fddf252ad1be2c89b69c2b068fc378daa952ba7f163c4a11628f55a4df523b3ef6b06765c793fa10079d0000000604051610270919061070d565b60405180910390a350610728565b600033905090565b6000600560009054906101000a900473ffffffffffffffffffffffffffffffffffffffff16905081600560006101000a81548173ffffffffffffffffffffffffffffffffffffffff021916908373ffffffffffffffffffffffffffffffffffffffff1602179055508173ffffffffffffffffffffffffffffffffffffffff168173ffffffffffffffffffffffffffffffffffffffff167f8be0079c531659141344cd1fd0a4f28419497f9722a3daafe3b4186f6b6457e060405160405180910390a35050565b600080fd5b600073ffffffffffffffffffffffffffffffffffffffff82169050919050565b600061037c82610351565b9050919050565b61038c81610371565b811461039757600080fd5b50565b6000815190506103a981610383565b92915050565b6000602082840312156103c5576103c461034c565b5b60006103d38482850161039a565b91505092915050565b600081519050919050565b7f4e487b7100000000000000000000000000000000000000000000000000000000600052604160045260246000fd5b7f4e487b7100000000000000000000000000000000000000000000000000000000600052602260045260246000fd5b6000600282049050600182168061045d57607f821691505b6020821081036104705761046f610416565b5b50919050565b60008190508160005260206000209050919050565b60006020601f8301049050919050565b600082821b905092915050565b6000600883026104d87fffffffffffffffffffffffffffffffffffffffffffffffffffffffffffffffff8261049b565b6104e2868361049b565b95508019841693508086168417925050509392505050565b6000819050919050565b6000819050919050565b600061052961052461051f846104fa565b610504565b6104fa565b9050919050565b6000819050919050565b6105438361050e565b61055761054f82610530565b8484546104a8565b825550505050565b600090565b61056c61055f565b61057781848461053a565b505050565b5b8181101561059b57610590600082610564565b60018101905061057d565b5050565b601f8211156105e0576105b181610476565b6105ba8461048b565b810160208510156105c9578190505b6105dd6105d58561048b565b83018261057c565b50505b505050565b600082821c905092915050565b6000610603600019846008026105e5565b1980831691505092915050565b600061061c83836105f2565b9150826002028217905092915050565b610635826103dc565b67ffffffffffffffff81111561064e5761064d6103e7565b5b6106588254610445565b61066382828561059f565b600060209050601f8311600181146106965760008415610684578287015190505b61068e8582610610565b8655506106f6565b601f1984166106a486610476565b60005b828110156106cc578489015182556001820191506020850194506020810190506106a7565b868310156106e957848901516106e5601f8916826105f2565b8355505b6001600288020188555050505b505050505050565b610707816104fa565b82525050565b600060208201905061072260008301846106fe565b92915050565b6127b1806107376000396000f3fe608060405234801561001057600080fd5b50600436106101735760003560e01c806370a08231116100de578063a457c2d711610097578063bfe1092811610071578063bfe1092814610440578063dd62ed3e1461045e578063e46adf621461048e578063f2fde38b146104aa57610173565b8063a457c2d7146103c4578063a9059cbb146103f4578063bc4f2d6d1461042457610173565b806370a0823114610316578063715018a614610346578063736a0ea81461035057806375619ab51461036c5780638da5cb5b1461038857806395d89b41146103a657610173565b80632ff2e9dc116101305780632ff2e9dc14610250578063313ce5671461026e57806332cb6b0c1461028c57806339509351146102aa5780634d3d0553146102da5780635dcdcb39146102fa57610173565b80630535ec771461017857806306fdde0314610196578063095ea7b3146101b457806311fd8a83146101e457806318160ddd1461020257806323b872dd14610220575b600080fd5b6101806104c6565b60405161018d919061182c565b60405180910390f35b61019e6104d9565b6040516101ab91906118d7565b60405180910390f35b6101ce60048036038101906101c99190611997565b61056b565b6040516101db919061182c565b60405180910390f35b6101ec61058e565b6040516101f991906119e6565b60405180910390f35b61020a6105b4565b6040516102179190611a10565b60405180910390f35b61023a60048036038101906102359190611a2b565b6105f4565b604051610247919061182c565b60405180910390f35b610258610623565b6040516102659190611a10565b60405180910390f35b610276610633565b6040516102839190611a9a565b60405180910390f35b61029461063c565b6040516102a19190611a10565b60405180910390f35b6102c460048036038101906102bf9190611997565b61064c565b6040516102d1919061182c565b60405180910390f35b6102e2610683565b6040516102f193929190611ab5565b60405180910390f35b610314600480360381019061030f9190611b18565b61069b565b005b610330600480360381019061032b9190611b58565b61074c565b60405161033d9190611a10565b60405180910390f35b61034e610860565b005b61036a60048036038101906103659190611c40565b610874565b005b61038660048036038101906103819190611b58565b610aaf565b005b610390610b8e565b60405161039d91906119e6565b60405180910390f35b6103ae610bb8565b6040516103bb91906118d7565b60405180910390f35b6103de60048036038101906103d99190611997565b610c4a565b6040516103eb919061182c565b60405180910390f35b61040e60048036038101906104099190611997565b610cc1565b60405161041b919061182c565b60405180910390f35b61043e60048036038101906104399190611cc1565b610ce4565b005b610448610e8e565b60405161045591906119e6565b60405180910390f35b61047860048036038101906104739190611cee565b610eb4565b6040516104859190611a10565b60405180910390f35b6104a860048036038101906104a39190611b58565b610f3b565b005b6104c460048036038101906104bf9190611b58565b611039565b005b600760149054906101000a900460ff1681565b6060600380546104e890611d5d565b80601f016020809104026020016040519081016040528092919081815260200182805461051490611d5d565b80156105615780601f1061053657610100808354040283529160200191610561565b820191906000526020600020905b81548152906001019060200180831161054457829003601f168201915b5050505050905090565b6000806105766110bc565b90506105838185856110c4565b600191505092915050565b600660009054906101000a900473ffffffffffffffffffffffffffffffffffffffff1681565b60006105ef670de0b6b3a76400006105e16008600201546105d361128d565b61129790919063ffffffff16565b6112ad90919063ffffffff16565b905090565b6000806105ff6110bc565b905061060c8582856112c3565b61061785858561134f565b60019150509392505050565b6b06765c793fa10079d000000081565b60006012905090565b6b1027e72f1f1281308800000081565b6000806106576110bc565b90506106788185856106698589610eb4565b6106739190611dbd565b6110c4565b600191505092915050565b60088060000154908060010154908060020154905083565b6106a36116a1565b80600b60008473ffffffffffffffffffffffffffffffffffffffff1673ffffffffffffffffffffffffffffffffffffffff16815260200190815260200160002060006101000a81548160ff0219169083151502179055508173ffffffffffffffffffffffffffffffffffffffff167fa3417d21d93ba9a745a2a08c607658183b0aa4c6e1c8708236b75a085e3bac7682604051610740919061182c565b60405180910390a25050565b6000600b60008373ffffffffffffffffffffffffffffffffffffffff1673ffffffffffffffffffffffffffffffffffffffff16815260200190815260200160002060009054906101000a900460ff16156107e757600c60008373ffffffffffffffffffffffffffffffffffffffff1673ffffffffffffffffffffffffffffffffffffffff16815260200190815260200160002054905061085b565b610858670de0b6b3a764000061084a600860020154600c60008773ffffffffffffffffffffffffffffffffffffffff1673ffffffffffffffffffffffffffffffffffffffff1681526020019081526020016000205461129790919063ffffffff16565b6112ad90919063ffffffff16565b90505b919050565b6108686116a1565b610872600061171f565b565b600760009054906101000a900473ffffffffffffffffffffffffffffffffffffffff1673ffffffffffffffffffffffffffffffffffffffff163373ffffffffffffffffffffffffffffffffffffffff1614610904576040517f08c379a00000000000000000000000000000000000000000000000000000000081526004016108fb90611e3d565b60405180910390fd5b600760149054906101000a900460ff1615610954576040517f08c379a000000000000000000000000000000000000000000000000000000000815260040161094b90611ea9565b60405180910390fd5b81819050848490501461099c576040517f08c379a000000000000000000000000000000000000000000000000000000000815260040161099390611f15565b60405180910390fd5b600080600090505b85859050811015610a3e5760006109e769d3c21bcecceda10000008686858181106109d2576109d1611f35565b5b9050602002013561129790919063ffffffff16565b9050610a1b30888885818110610a00576109ff611f35565b5b9050602002016020810190610a159190611b58565b8361134f565b610a2e81846117e590919063ffffffff16565b92505080806001019150506109a4565b506b06765c793fa10079d00000008114610a8d576040517f08c379a0000000000000000000000000000000000000000000000000000000008152600401610a8490611fb0565b60405180910390fd5b6001600760146101000a81548160ff0219169083151502179055505050505050565b610ab76116a1565b600760149054906101000a900460ff1615610b07576040517f08c379a0000000000000000000000000000000000000000000000000000000008152600401610afe90611ea9565b60405180910390fd5b80600760006101000a81548173ffffffffffffffffffffffffffffffffffffffff021916908373ffffffffffffffffffffffffffffffffffffffff1602179055508073ffffffffffffffffffffffffffffffffffffffff167fc0ebb188f905d128bcd7e4282dd1f9cf24cd331b69071002e488349aca6a867b60405160405180910390a250565b6000600560009054906101000a900473ffffffffffffffffffffffffffffffffffffffff16905090565b606060048054610bc790611d5d565b80601f0160208091040260200160405190810160405280929190818152602001828054610bf390611d5d565b8015610c405780601f10610c1557610100808354040283529160200191610c40565b820191906000526020600020905b815481529060010190602001808311610c2357829003601f168201915b5050505050905090565b600080610c556110bc565b90506000610c638286610eb4565b905083811015610ca8576040517f08c379a0000000000000000000000000000000000000000000000000000000008152600401610c9f90612042565b60405180910390fd5b610cb582868684036110c4565b60019250505092915050565b600080610ccc6110bc565b9050610cd981858561134f565b600191505092915050565b600660009054906101000a900473ffffffffffffffffffffffffffffffffffffffff1673ffffffffffffffffffffffffffffffffffffffff163373ffffffffffffffffffffffffffffffffffffffff1614610d74576040517f08c379a0000000000000000000000000000000000000000000000000000000008152600401610d6b906120ae565b60405180910390fd5b610d916008600101546008600001546117e590919063ffffffff16565b421015610dd3576040517f08c379a0000000000000000000000000000000000000000000000000000000008152600401610dca9061211a565b60405180910390fd5b6714d1120d7b1600008111158015610df357506706f05b59d3b200008110155b610e32576040517f08c379a0000000000000000000000000000000000000000000000000000000008152600401610e29906121ac565b60405180910390fd5b600060086002015490508160086002018190555042600860000181905550427fc6642d24d84e7f3d36ca39f5cce10e75639d9b158d5193aa350e2f900653e4c08284604051610e829291906121cc565b60405180910390a25050565b600760009054906101000a900473ffffffffffffffffffffffffffffffffffffffff1681565b6000600160008473ffffffffffffffffffffffffffffffffffffffff1673ffffffffffffffffffffffffffffffffffffffff16815260200190815260200160002060008373ffffffffffffffffffffffffffffffffffffffff1673ffffffffffffffffffffffffffffffffffffffff16815260200190815260200160002054905092915050565b610f436116a1565b600073ffffffffffffffffffffffffffffffffffffffff168173ffffffffffffffffffffffffffffffffffffffff1603610fb2576040517f08c379a0000000000000000000000000000000000000000000000000000000008152600401610fa990612241565b60405180910390fd5b80600660006101000a81548173ffffffffffffffffffffffffffffffffffffffff021916908373ffffffffffffffffffffffffffffffffffffffff1602179055508073ffffffffffffffffffffffffffffffffffffffff167f80910f486ec44179623ed755c408902927264bcf6c44b08b8bbd8f6ad283697a60405160405180910390a250565b6110416116a1565b600073ffffffffffffffffffffffffffffffffffffffff168173ffffffffffffffffffffffffffffffffffffffff16036110b0576040517f08c379a00000000000000000000000000000000000000000000000000000000081526004016110a7906122d3565b60405180910390fd5b6110b98161171f565b50565b600033905090565b600073ffffffffffffffffffffffffffffffffffffffff168373ffffffffffffffffffffffffffffffffffffffff1603611133576040517f08c379a000000000000000000000000000000000000000000000000000000000815260040161112a90612365565b60405180910390fd5b600073ffffffffffffffffffffffffffffffffffffffff168273ffffffffffffffffffffffffffffffffffffffff16036111a2576040517f08c379a0000000000000000000000000000000000000000000000000000000008152600401611199906123f7565b60405180910390fd5b80600160008573ffffffffffffffffffffffffffffffffffffffff1673ffffffffffffffffffffffffffffffffffffffff16815260200190815260200160002060008473ffffffffffffffffffffffffffffffffffffffff1673ffffffffffffffffffffffffffffffffffffffff168152602001908152602001600020819055508173ffffffffffffffffffffffffffffffffffffffff168373ffffffffffffffffffffffffffffffffffffffff167f8c5be1e5ebec7d5bd14f71427d1e84f3dd0314c0f7b2291e5b200ac8c7c3b925836040516112809190611a10565b60405180910390a3505050565b6000600254905090565b600081836112a59190612417565b905092915050565b600081836112bb9190612488565b905092915050565b60006112cf8484610eb4565b90507fffffffffffffffffffffffffffffffffffffffffffffffffffffffffffffffff8114611349578181101561133b576040517f08c379a000000000000000000000000000000000000000000000000000000000815260040161133290612505565b60405180910390fd5b61134884848484036110c4565b5b50505050565b600073ffffffffffffffffffffffffffffffffffffffff168373ffffffffffffffffffffffffffffffffffffffff16036113be576040517f08c379a00000000000000000000000000000000000000000000000000000000081526004016113b590612597565b60405180910390fd5b600073ffffffffffffffffffffffffffffffffffffffff168273ffffffffffffffffffffffffffffffffffffffff160361142d576040517f08c379a000000000000000000000000000000000000000000000000000000000815260040161142490612629565b60405180910390fd5b60006114388461074c565b90508181101561147d576040517f08c379a0000000000000000000000000000000000000000000000000000000008152600401611474906126bb565b60405180910390fd5b6000600b60008673ffffffffffffffffffffffffffffffffffffffff1673ffffffffffffffffffffffffffffffffffffffff16815260200190815260200160002060009054906101000a900460ff16611507576115026008600201546114f4670de0b6b3a76400008661129790919063ffffffff16565b6112ad90919063ffffffff16565b611509565b825b905061155d81600c60008873ffffffffffffffffffffffffffffffffffffffff1673ffffffffffffffffffffffffffffffffffffffff168152602001908152602001600020546117fb90919063ffffffff16565b600c60008773ffffffffffffffffffffffffffffffffffffffff1673ffffffffffffffffffffffffffffffffffffffff168152602001908152602001600020819055506115f281600c60008773ffffffffffffffffffffffffffffffffffffffff1673ffffffffffffffffffffffffffffffffffffffff168152602001908152602001600020546117e590919063ffffffff16565b600c60008673ffffffffffffffffffffffffffffffffffffffff1673ffffffffffffffffffffffffffffffffffffffff168152602001908152602001600020819055508373ffffffffffffffffffffffffffffffffffffffff168573ffffffffffffffffffffffffffffffffffffffff167fddf252ad1be2c89b69c2b068fc378daa952ba7f163c4a11628f55a4df523b3ef856040516116929190611a10565b60405180910390a35050505050565b6116a96110bc565b73ffffffffffffffffffffffffffffffffffffffff166116c7610b8e565b73ffffffffffffffffffffffffffffffffffffffff161461171d576040517f08c379a000000000000000000000000000000000000000000000000000000000815260040161171490612727565b60405180910390fd5b565b6000600560009054906101000a900473ffffffffffffffffffffffffffffffffffffffff16905081600560006101000a81548173ffffffffffffffffffffffffffffffffffffffff021916908373ffffffffffffffffffffffffffffffffffffffff1602179055508173ffffffffffffffffffffffffffffffffffffffff168173ffffffffffffffffffffffffffffffffffffffff167f8be0079c531659141344cd1fd0a4f28419497f9722a3daafe3b4186f6b6457e060405160405180910390a35050565b600081836117f39190611dbd565b905092915050565b600081836118099190612747565b905092915050565b60008115159050919050565b61182681611811565b82525050565b6000602082019050611841600083018461181d565b92915050565b600081519050919050565b600082825260208201905092915050565b60005b83811015611881578082015181840152602081019050611866565b60008484015250505050565b6000601f19601f8301169050919050565b60006118a982611847565b6118b38185611852565b93506118c3818560208601611863565b6118cc8161188d565b840191505092915050565b600060208201905081810360008301526118f1818461189e565b905092915050565b600080fd5b600080fd5b600073ffffffffffffffffffffffffffffffffffffffff82169050919050565b600061192e82611903565b9050919050565b61193e81611923565b811461194957600080fd5b50565b60008135905061195b81611935565b92915050565b6000819050919050565b61197481611961565b811461197f57600080fd5b50565b6000813590506119918161196b565b92915050565b600080604083850312156119ae576119ad6118f9565b5b60006119bc8582860161194c565b92505060206119cd85828601611982565b9150509250929050565b6119e081611923565b82525050565b60006020820190506119fb60008301846119d7565b92915050565b611a0a81611961565b82525050565b6000602082019050611a256000830184611a01565b92915050565b600080600060608486031215611a4457611a436118f9565b5b6000611a528682870161194c565b9350506020611a638682870161194c565b9250506040611a7486828701611982565b9150509250925092565b600060ff82169050919050565b611a9481611a7e565b82525050565b6000602082019050611aaf6000830184611a8b565b92915050565b6000606082019050611aca6000830186611a01565b611ad76020830185611a01565b611ae46040830184611a01565b949350505050565b611af581611811565b8114611b0057600080fd5b50565b600081359050611b1281611aec565b92915050565b60008060408385031215611b2f57611b2e6118f9565b5b6000611b3d8582860161194c565b9250506020611b4e85828601611b03565b9150509250929050565b600060208284031215611b6e57611b6d6118f9565b5b6000611b7c8482850161194c565b91505092915050565b600080fd5b600080fd5b600080fd5b60008083601f840112611baa57611ba9611b85565b5b8235905067ffffffffffffffff811115611bc757611bc6611b8a565b5b602083019150836020820283011115611be357611be2611b8f565b5b9250929050565b60008083601f840112611c0057611bff611b85565b5b8235905067ffffffffffffffff811115611c1d57611c1c611b8a565b5b602083019150836020820283011115611c3957611c38611b8f565b5b9250929050565b60008060008060408587031215611c5a57611c596118f9565b5b600085013567ffffffffffffffff811115611c7857611c776118fe565b5b611c8487828801611b94565b9450945050602085013567ffffffffffffffff811115611ca757611ca66118fe565b5b611cb387828801611bea565b925092505092959194509250565b600060208284031215611cd757611cd66118f9565b5b6000611ce584828501611982565b91505092915050565b60008060408385031215611d0557611d046118f9565b5b6000611d138582860161194c565b9250506020611d248582860161194c565b9150509250929050565b7f4e487b7100000000000000000000000000000000000000000000000000000000600052602260045260246000fd5b60006002820490506001821680611d7557607f821691505b602082108103611d8857611d87611d2e565b5b50919050565b7f4e487b7100000000000000000000000000000000000000000000000000000000600052601160045260246000fd5b6000611dc882611961565b9150611dd383611961565b9250828201905080821115611deb57611dea611d8e565b5b92915050565b7f43616c6c6572206973206e6f7420746865206469737472696275746f72000000600082015250565b6000611e27601d83611852565b9150611e3282611df1565b602082019050919050565b60006020820190508181036000830152611e5681611e1a565b9050919050565b7f446973747269627574696f6e20616c726561647920636f6d706c657465640000600082015250565b6000611e93601e83611852565b9150611e9e82611e5d565b602082019050919050565b60006020820190508181036000830152611ec281611e86565b9050919050565b7f4172726179206c656e677468206d69736d617463680000000000000000000000600082015250565b6000611eff601583611852565b9150611f0a82611ec9565b602082019050919050565b60006020820190508181036000830152611f2e81611ef2565b9050919050565b7f4e487b7100000000000000000000000000000000000000000000000000000000600052603260045260246000fd5b7f496e76616c696420646973747269627574696f6e20746f74616c000000000000600082015250565b6000611f9a601a83611852565b9150611fa582611f64565b602082019050919050565b60006020820190508181036000830152611fc981611f8d565b9050919050565b7f45524332303a2064656372656173656420616c6c6f77616e63652062656c6f7760008201527f207a65726f000000000000000000000000000000000000000000000000000000602082015250565b600061202c602583611852565b915061203782611fd0565b604082019050919050565b6000602082019050818103600083015261205b8161201f565b9050919050565b7f43616c6c6572206973206e6f7420746865207265626173657200000000000000600082015250565b6000612098601983611852565b91506120a382612062565b602082019050919050565b600060208201905081810360008301526120c78161208b565b9050919050565b7f52656261736520696e74657276616c206e6f7420726561636865640000000000600082015250565b6000612104601b83611852565b915061210f826120ce565b602082019050919050565b60006020820190508181036000830152612133816120f7565b9050919050565b7f466163746f72206f7574206f6620616c6c6f7765642072616e67652028302e3560008201527f78202d20312e3578290000000000000000000000000000000000000000000000602082015250565b6000612196602983611852565b91506121a18261213a565b604082019050919050565b600060208201905081810360008301526121c581612189565b9050919050565b60006040820190506121e16000830185611a01565b6121ee6020830184611a01565b9392505050565b7f496e76616c696420616464726573730000000000000000000000000000000000600082015250565b600061222b600f83611852565b9150612236826121f5565b602082019050919050565b6000602082019050818103600083015261225a8161221e565b9050919050565b7f4f776e61626c653a206e6577206f776e657220697320746865207a65726f206160008201527f6464726573730000000000000000000000000000000000000000000000000000602082015250565b60006122bd602683611852565b91506122c882612261565b604082019050919050565b600060208201905081810360008301526122ec816122b0565b9050919050565b7f45524332303a20617070726f76652066726f6d20746865207a65726f2061646460008201527f7265737300000000000000000000000000000000000000000000000000000000602082015250565b600061234f602483611852565b915061235a826122f3565b604082019050919050565b6000602082019050818103600083015261237e81612342565b9050919050565b7f45524332303a20617070726f766520746f20746865207a65726f20616464726560008201527f7373000000000000000000000000000000000000000000000000000000000000602082015250565b60006123e1602283611852565b91506123ec82612385565b604082019050919050565b60006020820190508181036000830152612410816123d4565b9050919050565b600061242282611961565b915061242d83611961565b925082820261243b81611961565b9150828204841483151761245257612451611d8e565b5b5092915050565b7f4e487b7100000000000000000000000000000000000000000000000000000000600052601260045260246000fd5b600061249382611961565b915061249e83611961565b9250826124ae576124ad612459565b5b828204905092915050565b7f45524332303a20696e73756666696369656e7420616c6c6f77616e6365000000600082015250565b60006124ef601d83611852565b91506124fa826124b9565b602082019050919050565b6000602082019050818103600083015261251e816124e2565b9050919050565b7f45524332303a207472616e736665722066726f6d20746865207a65726f20616460008201527f6472657373000000000000000000000000000000000000000000000000000000602082015250565b6000612581602583611852565b915061258c82612525565b604082019050919050565b600060208201905081810360008301526125b081612574565b9050919050565b7f45524332303a207472616e7366657220746f20746865207a65726f206164647260008201527f6573730000000000000000000000000000000000000000000000000000000000602082015250565b6000612613602383611852565b915061261e826125b7565b604082019050919050565b6000602082019050818103600083015261264281612606565b9050919050565b7f45524332303a207472616e7366657220616d6f756e742065786365656473206260008201527f616c616e63650000000000000000000000000000000000000000000000000000602082015250565b60006126a5602683611852565b91506126b082612649565b604082019050919050565b600060208201905081810360008301526126d481612698565b9050919050565b7f4f776e61626c653a2063616c6c6572206973206e6f7420746865206f776e6572600082015250565b6000612711602083611852565b915061271c826126db565b602082019050919050565b6000602082019050818103600083015261274081612704565b9050919050565b600061275282611961565b915061275d83611961565b925082820390508181111561277557612774611d8e565b5b9291505056fea2646970667358221220176bb48dcfc2f3b3eda26cf8aec87eaa67531b9d92755dcb6ee2828162aaaea364736f6c634300081c0033",
  "linkReferences": {},
  "deployedLinkReferences": {}
}