{
  "_format": "hh-sol-artifact-1",
  "contractName": "LifeToken",
  "sourceName": "contracts/tokens/LifeToken.sol",
  "abi": [
    {
      "inputs": [
        {
          "internalType": "address",
          "name": "initialOwner_",
          "type": "address"
        }
      ],
      "stateMutability": "nonpayable",
      "type": "constructor"
    },
    {
      "anonymous": false,
      "inputs": [
        {
          "indexed": true,
          "internalType": "address",
          "name": "owner",
          "type": "address"
        },
        {
          "indexed": true,
          "internalType": "address",
          "name": "spender",
          "type": "address"
        },
        {
          "indexed": false,
          "internalType": "uint256",
          "name": "value",
          "type": "uint256"
        }
      ],
      "name": "Approval",
      "type": "event"
    },
    {
      "anonymous": false,
      "inputs": [
        {
          "indexed": true,
          "internalType": "address",
          "name": "newDistributor",
          "type": "address"
        }
      ],
      "name": "DistributorUpdated",
      "type": "event"
    },
    {
      "anonymous": false,
      "inputs": [
        {
          "indexed": true,
          "internalType": "address",
          "name": "account",
          "type": "address"
        },
        {
          "indexed": false,
          "internalType": "bool",
          "name": "excluded",
          "type": "bool"
        }
      ],
      "name": "ExcludedFromRebase",
      "type": "event"
    },
    {
      "anonymous": false,
      "inputs": [
        {
          "indexed": true,
          "internalType": "address",
          "name": "previousOwner",
          "type": "address"
        },
        {
          "indexed": true,
          "internalType": "address",
          "name": "newOwner",
          "type": "address"
        }
      ],
      "name": "OwnershipTransferred",
      "type": "event"
    },
    {
      "anonymous": false,
      "inputs": [
        {
          "indexed": true,
          "internalType": "uint256",
          "name": "epoch",
          "type": "uint256"
        },
        {
          "indexed": false,
          "internalType": "uint256",
          "name": "oldFactor",
          "type": "uint256"
        },
        {
          "indexed": false,
          "internalType": "uint256",
          "name": "newFactor",
          "type": "uint256"
        }
      ],
      "name": "Rebase",
      "type": "event"
    },
    {
      "anonymous": false,
      "inputs": [
        {
          "indexed": true,
          "internalType": "address",
          "name": "newRebaser",
          "type": "address"
        }
      ],
      "name": "RebaserUpdated",
      "type": "event"
    },
    {
      "anonymous": false,
      "inputs": [
        {
          "indexed": true,
          "internalType": "address",
          "name": "from",
          "type": "address"
        },
        {
          "indexed": true,
          "internalType": "address",
          "name": "to",
          "type": "address"
        },
        {
          "indexed": false,
          "internalType": "uint256",
          "name": "value",
          "type": "uint256"
        }
      ],
      "name": "Transfer",
      "type": "event"
    },
    {
      "inputs": [],
      "name": "INITIAL_SUPPLY",
      "outputs": [
        {
          "internalType": "uint256",
          "name": "",
          "type": "uint256"
        }
      ],
      "stateMutability": "view",
      "type": "function"
    },
    {
      "inputs": [],
      "name": "MAX_SUPPLY",
      "outputs": [
        {
          "internalType": "uint256",
          "name": "",
          "type": "uint256"
        }
      ],
      "stateMutability": "view",
      "type": "function"
    },
    {
      "inputs": [
        {
          "internalType": "address",
          "name": "owner",
          "type": "address"
        },
        {
          "internalType": "address",
          "name": "spender",
          "type": "address"
        }
      ],
      "name": "allowance",
      "outputs": [
        {
          "internalType": "uint256",
          "name": "",
          "type": "uint256"
        }
      ],
      "stateMutability": "view",
      "type": "function"
    },
    {
      "inputs": [
        {
          "internalType": "address",
          "name": "spender",
          "type": "address"
        },
        {
          "internalType": "uint256",
          "name": "amount",
          "type": "uint256"
        }
      ],
      "name": "approve",
      "outputs": [
        {
          "internalType": "bool",
          "name": "",
          "type": "bool"
        }
      ],
      "stateMutability": "nonpayable",
      "type": "function"
    },
    {
      "inputs": [
        {
          "internalType": "address",
          "name": "account",
          "type": "address"
        }
      ],
      "name": "balanceOf",
      "outputs": [
        {
          "internalType": "uint256",
          "name": "",
          "type": "uint256"
        }
      ],
      "stateMutability": "view",
      "type": "function"
    },
    {
      "inputs": [],
      "name": "decimals",
      "outputs": [
        {
          "internalType": "uint8",
          "name": "",
          "type": "uint8"
        }
      ],
      "stateMutability": "view",
      "type": "function"
    },
    {
      "inputs": [
        {
          "internalType": "address",
          "name": "spender",
          "type": "address"
        },
        {
          "internalType": "uint256",
          "name": "subtractedValue",
          "type": "uint256"
        }
      ],
      "name": "decreaseAllowance",
      "outputs": [
        {
          "internalType": "bool",
          "name": "",
          "type": "bool"
        }
      ],
      "stateMutability": "nonpayable",
      "type": "function"
    },
    {
      "inputs": [],
      "name": "distributor",
      "outputs": [
        {
          "internalType": "address",
          "name": "",
          "type": "address"
        }
      ],
      "stateMutability": "view",
      "type": "function"
    },
    {
      "inputs": [
        {
          "internalType": "address",
          "name": "account_",
          "type": "address"
        },
        {
          "internalType": "bool",
          "name": "excluded_",
          "type": "bool"
        }
      ],
      "name": "excludeFromRebase",
      "outputs": [],
      "stateMutability": "nonpayable",
      "type": "function"
    },
    {
      "inputs": [
        {
          "internalType": "address",
          "name": "spender",
          "type": "address"
        },
        {
          "internalType": "uint256",
          "name": "addedValue",
          "type": "uint256"
        }
      ],
      "name": "increaseAllowance",
      "outputs": [
        {
          "internalType": "bool",
          "name": "",
          "type": "bool"
        }
      ],
      "stateMutability": "nonpayable",
      "type": "function"
    },
    {
      "inputs": [
        {
          "internalType": "address[]",
          "name": "recipients_",
          "type": "address[]"
        },
        {
          "internalType": "uint256[]",
          "name": "amounts_",
          "type": "uint256[]"
        }
      ],
      "name": "initialDistribution",
      "outputs": [],
      "stateMutability": "nonpayable",
      "type": "function"
    },
    {
      "inputs": [],
      "name": "initialDistributionDone",
      "outputs": [
        {
          "internalType": "bool",
          "name": "",
          "type": "bool"
        }
      ],
      "stateMutability": "view",
      "type": "function"
    },
    {
      "inputs": [],
      "name": "name",
      "outputs": [
        {
          "internalType": "string",
          "name": "",
          "type": "string"
        }
      ],
      "stateMutability": "view",
      "type": "function"
    },
    {
      "inputs": [],
      "name": "owner",
      "outputs": [
        {
          "internalType": "address",
          "name": "",
          "type": "address"
        }
      ],
      "stateMutability": "view",
      "type": "function"
    },
    {
      "inputs": [
        {
          "internalType": "uint256",
          "name": "newFactor_",
          "type": "uint256"
        }
      ],
      "name": "rebase",
      "outputs": [],
      "stateMutability": "nonpayable",
      "type": "function"
    },
    {
      "inputs": [],
      "name": "rebaseConfig",
      "outputs": [
        {
          "internalType": "uint256",
          "name": "lastRebaseTime",
          "type": "uint256"
        },
        {
          "internalType": "uint256",
          "name": "minRebaseInterval",
          "type": "uint256"
        },
        {
          "internalType": "uint256",
          "name": "rebaseFactor",
          "type": "uint256"
        }
      ],
      "stateMutability": "view",
      "type": "function"
    },
    {
      "inputs": [],
      "name": "rebaser",
      "outputs": [
        {
          "internalType": "address",
          "name": "",
          "type": "address"
        }
      ],
      "stateMutability": "view",
      "type": "function"
    },
    {
      "inputs": [],
      "name": "renounceOwnership",
      "outputs": [],
      "stateMutability": "nonpayable",
      "type": "function"
    },
    {
      "inputs": [
        {
          "internalType": "address",
          "name": "newDistributor_",
          "type": "address"
        }
      ],
      "name": "setDistributor",
      "outputs": [],
      "stateMutability": "nonpayable",
      "type": "function"
    },
    {
      "inputs": [
        {
          "internalType": "address",
          "name": "newRebaser_",
          "type": "address"
        }
      ],
      "name": "setRebaser",
      "outputs": [],
      "stateMutability": "nonpayable",
      "type": "function"
    },
    {
      "inputs": [],
      "name": "symbol",
      "outputs": [
        {
          "internalType": "string",
          "name": "",
          "type": "string"
        }
      ],
      "stateMutability": "view",
      "type": "function"
    },
    {
      "inputs": [],
      "name": "totalSupply",
      "outputs": [
        {
          "internalType": "uint256",
          "name": "",
          "type": "uint256"
        }
      ],
      "stateMutability": "view",
      "type": "function"
    },
    {
      "inputs": [
        {
          "internalType": "address",
          "name": "to",
          "type": "address"
        },
        {
          "internalType": "uint256",
          "name": "amount",
          "type": "uint256"
        }
      ],
      "name": "transfer",
      "outputs": [
        {
          "internalType": "bool",
          "name": "",
          "type": "bool"
        }
      ],
      "stateMutability": "nonpayable",
      "type": "function"
    },
    {
      "inputs": [
        {
          "internalType": "address",
          "name": "from",
          "type": "address"
        },
        {
          "internalType": "address",
          "name": "to",
          "type": "address"
        },
        {
          "internalType": "uint256",
          "name": "amount",
          "type": "uint256"
        }
      ],
      "name": "transferFrom",
      "outputs": [
        {
          "internalType": "bool",
          "name": "",
          "type": "bool"
        }
      ],
      "stateMutability": "nonpayable",
      "type": "function"
    },
    {
      "inputs": [
        {
          "internalType": "address",
          "name": "newOwner",
          "type": "address"
        }
      ],
      "name": "transferOwnership",
      "outputs": [],
      "stateMutability": "nonpayable",
      "type": "function"
    }
  ],
  "bytecode": "0x60806040523480156200001157600080fd5b5060405162002f9838038062002f988339818101604052810190620000379190620003c8565b6040518060400160405280601081526020017f4d616e6167654c69666520546f6b656e000000000000000000000000000000008152506040518060400160405280600481526020017f4c696665000000000000000000000000000000000000000000000000000000008152508160039081620000b4919062000674565b508060049081620000c6919062000674565b505050620000e9620000dd6200029060201b60201c565b6200029860201b60201c565b620000fa816200029860201b60201c565b80600660006101000a81548173ffffffffffffffffffffffffffffffffffffffff021916908373ffffffffffffffffffffffffffffffffffffffff16021790555080600760006101000a81548173ffffffffffffffffffffffffffffffffffffffff021916908373ffffffffffffffffffffffffffffffffffffffff160217905550604051806060016040528042815260200162278d008152602001670de0b6b3a764000081525060086000820151816000015560208201518160010155604082015181600201559050506b06765c793fa10079d0000000600c60003073ffffffffffffffffffffffffffffffffffffffff1673ffffffffffffffffffffffffffffffffffffffff168152602001908152602001600020819055503073ffffffffffffffffffffffffffffffffffffffff16600073ffffffffffffffffffffffffffffffffffffffff167fddf252ad1be2c89b69c2b068fc378daa952ba7f163c4a11628f55a4df523b3ef6b06765c793fa10079d00000006040516200028191906200076c565b60405180910390a35062000789565b600033905090565b6000600560009054906101000a900473ffffffffffffffffffffffffffffffffffffffff16905081600560006101000a81548173ffffffffffffffffffffffffffffffffffffffff021916908373ffffffffffffffffffffffffffffffffffffffff1602179055508173ffffffffffffffffffffffffffffffffffffffff168173ffffffffffffffffffffffffffffffffffffffff167f8be0079c531659141344cd1fd0a4f28419497f9722a3daafe3b4186f6b6457e060405160405180910390a35050565b600080fd5b600073ffffffffffffffffffffffffffffffffffffffff82169050919050565b6000620003908262000363565b9050919050565b620003a28162000383565b8114620003ae57600080fd5b50565b600081519050620003c28162000397565b92915050565b600060208284031215620003e157620003e06200035e565b5b6000620003f184828501620003b1565b91505092915050565b600081519050919050565b7f4e487b7100000000000000000000000000000000000000000000000000000000600052604160045260246000fd5b7f4e487b7100000000000000000000000000000000000000000000000000000000600052602260045260246000fd5b600060028204905060018216806200047c57607f821691505b60208210810362000492576200049162000434565b5b50919050565b60008190508160005260206000209050919050565b60006020601f8301049050919050565b600082821b905092915050565b600060088302620004fc7fffffffffffffffffffffffffffffffffffffffffffffffffffffffffffffffff82620004bd565b620005088683620004bd565b95508019841693508086168417925050509392505050565b6000819050919050565b6000819050919050565b6000620005556200054f620005498462000520565b6200052a565b62000520565b9050919050565b6000819050919050565b620005718362000534565b6200058962000580826200055c565b848454620004ca565b825550505050565b600090565b620005a062000591565b620005ad81848462000566565b505050565b5b81811015620005d557620005c960008262000596565b600181019050620005b3565b5050565b601f8211156200062457620005ee8162000498565b620005f984620004ad565b8101602085101562000609578190505b620006216200061885620004ad565b830182620005b2565b50505b505050565b600082821c905092915050565b6000620006496000198460080262000629565b1980831691505092915050565b600062000664838362000636565b9150826002028217905092915050565b6200067f82620003fa565b67ffffffffffffffff8111156200069b576200069a62000405565b5b620006a7825462000463565b620006b4828285620005d9565b600060209050601f831160018114620006ec5760008415620006d7578287015190505b620006e3858262000656565b86555062000753565b601f198416620006fc8662000498565b60005b828110156200072657848901518255600182019150602085019450602081019050620006ff565b8683101562000746578489015162000742601f89168262000636565b8355505b6001600288020188555050505b505050505050565b620007668162000520565b82525050565b60006020820190506200078360008301846200075b565b92915050565b6127ff80620007996000396000f3fe608060405234801561001057600080fd5b50600436106101735760003560e01c806370a08231116100de578063a457c2d711610097578063bfe1092811610071578063bfe1092814610440578063dd62ed3e1461045e578063e46adf621461048e578063f2fde38b146104aa57610173565b8063a457c2d7146103c4578063a9059cbb146103f4578063bc4f2d6d1461042457610173565b806370a0823114610316578063715018a614610346578063736a0ea81461035057806375619ab51461036c5780638da5cb5b1461038857806395d89b41146103a657610173565b80632ff2e9dc116101305780632ff2e9dc14610250578063313ce5671461026e57806332cb6b0c1461028c57806339509351146102aa5780634d3d0553146102da5780635dcdcb39146102fa57610173565b80630535ec771461017857806306fdde0314610196578063095ea7b3146101b457806311fd8a83146101e457806318160ddd1461020257806323b872dd14610220575b600080fd5b6101806104c6565b60405161018d9190611832565b60405180910390f35b61019e6104d9565b6040516101ab91906118dd565b60405180910390f35b6101ce60048036038101906101c9919061199d565b61056b565b6040516101db9190611832565b60405180910390f35b6101ec61058e565b6040516101f991906119ec565b60405180910390f35b61020a6105b4565b6040516102179190611a16565b60405180910390f35b61023a60048036038101906102359190611a31565b6105f4565b6040516102479190611832565b60405180910390f35b610258610623565b6040516102659190611a16565b60405180910390f35b610276610633565b6040516102839190611aa0565b60405180910390f35b61029461063c565b6040516102a19190611a16565b60405180910390f35b6102c460048036038101906102bf919061199d565b61064c565b6040516102d19190611832565b60405180910390f35b6102e2610683565b6040516102f193929190611abb565b60405180910390f35b610314600480360381019061030f9190611b1e565b61069b565b005b610330600480360381019061032b9190611b5e565b61074c565b60405161033d9190611a16565b60405180910390f35b61034e610860565b005b61036a60048036038101906103659190611c46565b610874565b005b61038660048036038101906103819190611b5e565b610ab5565b005b610390610b94565b60405161039d91906119ec565b60405180910390f35b6103ae610bbe565b6040516103bb91906118dd565b60405180910390f35b6103de60048036038101906103d9919061199d565b610c50565b6040516103eb9190611832565b60405180910390f35b61040e6004803603810190610409919061199d565b610cc7565b60405161041b9190611832565b60405180910390f35b61043e60048036038101906104399190611cc7565b610cea565b005b610448610e94565b60405161045591906119ec565b60405180910390f35b61047860048036038101906104739190611cf4565b610eba565b6040516104859190611a16565b60405180910390f35b6104a860048036038101906104a39190611b5e565b610f41565b005b6104c460048036038101906104bf9190611b5e565b61103f565b005b600760149054906101000a900460ff1681565b6060600380546104e890611d63565b80601f016020809104026020016040519081016040528092919081815260200182805461051490611d63565b80156105615780601f1061053657610100808354040283529160200191610561565b820191906000526020600020905b81548152906001019060200180831161054457829003601f168201915b5050505050905090565b6000806105766110c2565b90506105838185856110ca565b600191505092915050565b600660009054906101000a900473ffffffffffffffffffffffffffffffffffffffff1681565b60006105ef670de0b6b3a76400006105e16008600201546105d3611293565b61129d90919063ffffffff16565b6112b390919063ffffffff16565b905090565b6000806105ff6110c2565b905061060c8582856112c9565b610617858585611355565b60019150509392505050565b6b06765c793fa10079d000000081565b60006012905090565b6b1027e72f1f1281308800000081565b6000806106576110c2565b90506106788185856106698589610eba565b6106739190611dc3565b6110ca565b600191505092915050565b60088060000154908060010154908060020154905083565b6106a36116a7565b80600b60008473ffffffffffffffffffffffffffffffffffffffff1673ffffffffffffffffffffffffffffffffffffffff16815260200190815260200160002060006101000a81548160ff0219169083151502179055508173ffffffffffffffffffffffffffffffffffffffff167fa3417d21d93ba9a745a2a08c607658183b0aa4c6e1c8708236b75a085e3bac76826040516107409190611832565b60405180910390a25050565b6000600b60008373ffffffffffffffffffffffffffffffffffffffff1673ffffffffffffffffffffffffffffffffffffffff16815260200190815260200160002060009054906101000a900460ff16156107e757600c60008373ffffffffffffffffffffffffffffffffffffffff1673ffffffffffffffffffffffffffffffffffffffff16815260200190815260200160002054905061085b565b610858670de0b6b3a764000061084a600860020154600c60008773ffffffffffffffffffffffffffffffffffffffff1673ffffffffffffffffffffffffffffffffffffffff1681526020019081526020016000205461129d90919063ffffffff16565b6112b390919063ffffffff16565b90505b919050565b6108686116a7565b6108726000611725565b565b600760009054906101000a900473ffffffffffffffffffffffffffffffffffffffff1673ffffffffffffffffffffffffffffffffffffffff163373ffffffffffffffffffffffffffffffffffffffff1614610904576040517f08c379a00000000000000000000000000000000000000000000000000000000081526004016108fb90611e43565b60405180910390fd5b600760149054906101000a900460ff1615610954576040517f08c379a000000000000000000000000000000000000000000000000000000000815260040161094b90611eaf565b60405180910390fd5b81819050848490501461099c576040517f08c379a000000000000000000000000000000000000000000000000000000000815260040161099390611f1b565b60405180910390fd5b600080600090505b85859050811015610a445760006109e769d3c21bcecceda10000008686858181106109d2576109d1611f3b565b5b9050602002013561129d90919063ffffffff16565b9050610a1b30888885818110610a00576109ff611f3b565b5b9050602002016020810190610a159190611b5e565b83611355565b610a2e81846117eb90919063ffffffff16565b9250508080610a3c90611f6a565b9150506109a4565b506b06765c793fa10079d00000008114610a93576040517f08c379a0000000000000000000000000000000000000000000000000000000008152600401610a8a90611ffe565b60405180910390fd5b6001600760146101000a81548160ff0219169083151502179055505050505050565b610abd6116a7565b600760149054906101000a900460ff1615610b0d576040517f08c379a0000000000000000000000000000000000000000000000000000000008152600401610b0490611eaf565b60405180910390fd5b80600760006101000a81548173ffffffffffffffffffffffffffffffffffffffff021916908373ffffffffffffffffffffffffffffffffffffffff1602179055508073ffffffffffffffffffffffffffffffffffffffff167fc0ebb188f905d128bcd7e4282dd1f9cf24cd331b69071002e488349aca6a867b60405160405180910390a250565b6000600560009054906101000a900473ffffffffffffffffffffffffffffffffffffffff16905090565b606060048054610bcd90611d63565b80601f0160208091040260200160405190810160405280929190818152602001828054610bf990611d63565b8015610c465780601f10610c1b57610100808354040283529160200191610c46565b820191906000526020600020905b815481529060010190602001808311610c2957829003601f168201915b5050505050905090565b600080610c5b6110c2565b90506000610c698286610eba565b905083811015610cae576040517f08c379a0000000000000000000000000000000000000000000000000000000008152600401610ca590612090565b60405180910390fd5b610cbb82868684036110ca565b60019250505092915050565b600080610cd26110c2565b9050610cdf818585611355565b600191505092915050565b600660009054906101000a900473ffffffffffffffffffffffffffffffffffffffff1673ffffffffffffffffffffffffffffffffffffffff163373ffffffffffffffffffffffffffffffffffffffff1614610d7a576040517f08c379a0000000000000000000000000000000000000000000000000000000008152600401610d71906120fc565b60405180910390fd5b610d976008600101546008600001546117eb90919063ffffffff16565b421015610dd9576040517f08c379a0000000000000000000000000000000000000000000000000000000008152600401610dd090612168565b60405180910390fd5b6714d1120d7b1600008111158015610df957506706f05b59d3b200008110155b610e38576040517f08c379a0000000000000000000000000000000000000000000000000000000008152600401610e2f906121fa565b60405180910390fd5b600060086002015490508160086002018190555042600860000181905550427fc6642d24d84e7f3d36ca39f5cce10e75639d9b158d5193aa350e2f900653e4c08284604051610e8892919061221a565b60405180910390a25050565b600760009054906101000a900473ffffffffffffffffffffffffffffffffffffffff1681565b6000600160008473ffffffffffffffffffffffffffffffffffffffff1673ffffffffffffffffffffffffffffffffffffffff16815260200190815260200160002060008373ffffffffffffffffffffffffffffffffffffffff1673ffffffffffffffffffffffffffffffffffffffff16815260200190815260200160002054905092915050565b610f496116a7565b600073ffffffffffffffffffffffffffffffffffffffff168173ffffffffffffffffffffffffffffffffffffffff1603610fb8576040517f08c379a0000000000000000000000000000000000000000000000000000000008152600401610faf9061228f565b60405180910390fd5b80600660006101000a81548173ffffffffffffffffffffffffffffffffffffffff021916908373ffffffffffffffffffffffffffffffffffffffff1602179055508073ffffffffffffffffffffffffffffffffffffffff167f80910f486ec44179623ed755c408902927264bcf6c44b08b8bbd8f6ad283697a60405160405180910390a250565b6110476116a7565b600073ffffffffffffffffffffffffffffffffffffffff168173ffffffffffffffffffffffffffffffffffffffff16036110b6576040517f08c379a00000000000000000000000000000000000000000000000000000000081526004016110ad90612321565b60405180910390fd5b6110bf81611725565b50565b600033905090565b600073ffffffffffffffffffffffffffffffffffffffff168373ffffffffffffffffffffffffffffffffffffffff1603611139576040517f08c379a0000000000000000000000000000000000000000000000000000000008152600401611130906123b3565b60405180910390fd5b600073ffffffffffffffffffffffffffffffffffffffff168273ffffffffffffffffffffffffffffffffffffffff16036111a8576040517f08c379a000000000000000000000000000000000000000000000000000000000815260040161119f90612445565b60405180910390fd5b80600160008573ffffffffffffffffffffffffffffffffffffffff1673ffffffffffffffffffffffffffffffffffffffff16815260200190815260200160002060008473ffffffffffffffffffffffffffffffffffffffff1673ffffffffffffffffffffffffffffffffffffffff168152602001908152602001600020819055508173ffffffffffffffffffffffffffffffffffffffff168373ffffffffffffffffffffffffffffffffffffffff167f8c5be1e5ebec7d5bd14f71427d1e84f3dd0314c0f7b2291e5b200ac8c7c3b925836040516112869190611a16565b60405180910390a3505050565b6000600254905090565b600081836112ab9190612465565b905092915050565b600081836112c191906124d6565b905092915050565b60006112d58484610eba565b90507fffffffffffffffffffffffffffffffffffffffffffffffffffffffffffffffff811461134f5781811015611341576040517f08c379a000000000000000000000000000000000000000000000000000000000815260040161133890612553565b60405180910390fd5b61134e84848484036110ca565b5b50505050565b600073ffffffffffffffffffffffffffffffffffffffff168373ffffffffffffffffffffffffffffffffffffffff16036113c4576040517f08c379a00000000000000000000000000000000000000000000000000000000081526004016113bb906125e5565b60405180910390fd5b600073ffffffffffffffffffffffffffffffffffffffff168273ffffffffffffffffffffffffffffffffffffffff1603611433576040517f08c379a000000000000000000000000000000000000000000000000000000000815260040161142a90612677565b60405180910390fd5b600061143e8461074c565b905081811015611483576040517f08c379a000000000000000000000000000000000000000000000000000000000815260040161147a90612709565b60405180910390fd5b6000600b60008673ffffffffffffffffffffffffffffffffffffffff1673ffffffffffffffffffffffffffffffffffffffff16815260200190815260200160002060009054906101000a900460ff1661150d576115086008600201546114fa670de0b6b3a76400008661129d90919063ffffffff16565b6112b390919063ffffffff16565b61150f565b825b905061156381600c60008873ffffffffffffffffffffffffffffffffffffffff1673ffffffffffffffffffffffffffffffffffffffff1681526020019081526020016000205461180190919063ffffffff16565b600c60008773ffffffffffffffffffffffffffffffffffffffff1673ffffffffffffffffffffffffffffffffffffffff168152602001908152602001600020819055506115f881600c60008773ffffffffffffffffffffffffffffffffffffffff1673ffffffffffffffffffffffffffffffffffffffff168152602001908152602001600020546117eb90919063ffffffff16565b600c60008673ffffffffffffffffffffffffffffffffffffffff1673ffffffffffffffffffffffffffffffffffffffff168152602001908152602001600020819055508373ffffffffffffffffffffffffffffffffffffffff168573ffffffffffffffffffffffffffffffffffffffff167fddf252ad1be2c89b69c2b068fc378daa952ba7f163c4a11628f55a4df523b3ef856040516116989190611a16565b60405180910390a35050505050565b6116af6110c2565b73ffffffffffffffffffffffffffffffffffffffff166116cd610b94565b73ffffffffffffffffffffffffffffffffffffffff1614611723576040517f08c379a000000000000000000000000000000000000000000000000000000000815260040161171a90612775565b60405180910390fd5b565b6000600560009054906101000a900473ffffffffffffffffffffffffffffffffffffffff16905081600560006101000a81548173ffffffffffffffffffffffffffffffffffffffff021916908373ffffffffffffffffffffffffffffffffffffffff1602179055508173ffffffffffffffffffffffffffffffffffffffff168173ffffffffffffffffffffffffffffffffffffffff167f8be0079c531659141344cd1fd0a4f28419497f9722a3daafe3b4186f6b6457e060405160405180910390a35050565b600081836117f99190611dc3565b905092915050565b6000818361180f9190612795565b905092915050565b60008115159050919050565b61182c81611817565b82525050565b60006020820190506118476000830184611823565b92915050565b600081519050919050565b600082825260208201905092915050565b60005b8381101561188757808201518184015260208101905061186c565b60008484015250505050565b6000601f19601f8301169050919050565b60006118af8261184d565b6118b98185611858565b93506118c9818560208601611869565b6118d281611893565b840191505092915050565b600060208201905081810360008301526118f781846118a4565b905092915050565b600080fd5b600080fd5b600073ffffffffffffffffffffffffffffffffffffffff82169050919050565b600061193482611909565b9050919050565b61194481611929565b811461194f57600080fd5b50565b6000813590506119618161193b565b92915050565b6000819050919050565b61197a81611967565b811461198557600080fd5b50565b60008135905061199781611971565b92915050565b600080604083850312156119b4576119b36118ff565b5b60006119c285828601611952565b92505060206119d385828601611988565b9150509250929050565b6119e681611929565b82525050565b6000602082019050611a0160008301846119dd565b92915050565b611a1081611967565b82525050565b6000602082019050611a2b6000830184611a07565b92915050565b600080600060608486031215611a4a57611a496118ff565b5b6000611a5886828701611952565b9350506020611a6986828701611952565b9250506040611a7a86828701611988565b9150509250925092565b600060ff82169050919050565b611a9a81611a84565b82525050565b6000602082019050611ab56000830184611a91565b92915050565b6000606082019050611ad06000830186611a07565b611add6020830185611a07565b611aea6040830184611a07565b949350505050565b611afb81611817565b8114611b0657600080fd5b50565b600081359050611b1881611af2565b92915050565b60008060408385031215611b3557611b346118ff565b5b6000611b4385828601611952565b9250506020611b5485828601611b09565b9150509250929050565b600060208284031215611b7457611b736118ff565b5b6000611b8284828501611952565b91505092915050565b600080fd5b600080fd5b600080fd5b60008083601f840112611bb057611baf611b8b565b5b8235905067ffffffffffffffff811115611bcd57611bcc611b90565b5b602083019150836020820283011115611be957611be8611b95565b5b9250929050565b60008083601f840112611c0657611c05611b8b565b5b8235905067ffffffffffffffff811115611c2357611c22611b90565b5b602083019150836020820283011115611c3f57611c3e611b95565b5b9250929050565b60008060008060408587031215611c6057611c5f6118ff565b5b600085013567ffffffffffffffff811115611c7e57611c7d611904565b5b611c8a87828801611b9a565b9450945050602085013567ffffffffffffffff811115611cad57611cac611904565b5b611cb987828801611bf0565b925092505092959194509250565b600060208284031215611cdd57611cdc6118ff565b5b6000611ceb84828501611988565b91505092915050565b60008060408385031215611d0b57611d0a6118ff565b5b6000611d1985828601611952565b9250506020611d2a85828601611952565b9150509250929050565b7f4e487b7100000000000000000000000000000000000000000000000000000000600052602260045260246000fd5b60006002820490506001821680611d7b57607f821691505b602082108103611d8e57611d8d611d34565b5b50919050565b7f4e487b7100000000000000000000000000000000000000000000000000000000600052601160045260246000fd5b6000611dce82611967565b9150611dd983611967565b9250828201905080821115611df157611df0611d94565b5b92915050565b7f43616c6c6572206973206e6f7420746865206469737472696275746f72000000600082015250565b6000611e2d601d83611858565b9150611e3882611df7565b602082019050919050565b60006020820190508181036000830152611e5c81611e20565b9050919050565b7f446973747269627574696f6e20616c726561647920636f6d706c657465640000600082015250565b6000611e99601e83611858565b9150611ea482611e63565b602082019050919050565b60006020820190508181036000830152611ec881611e8c565b9050919050565b7f4172726179206c656e677468206d69736d617463680000000000000000000000600082015250565b6000611f05601583611858565b9150611f1082611ecf565b602082019050919050565b60006020820190508181036000830152611f3481611ef8565b9050919050565b7f4e487b7100000000000000000000000000000000000000000000000000000000600052603260045260246000fd5b6000611f7582611967565b91507fffffffffffffffffffffffffffffffffffffffffffffffffffffffffffffffff8203611fa757611fa6611d94565b5b600182019050919050565b7f496e76616c696420646973747269627574696f6e20746f74616c000000000000600082015250565b6000611fe8601a83611858565b9150611ff382611fb2565b602082019050919050565b6000602082019050818103600083015261201781611fdb565b9050919050565b7f45524332303a2064656372656173656420616c6c6f77616e63652062656c6f7760008201527f207a65726f000000000000000000000000000000000000000000000000000000602082015250565b600061207a602583611858565b91506120858261201e565b604082019050919050565b600060208201905081810360008301526120a98161206d565b9050919050565b7f43616c6c6572206973206e6f7420746865207265626173657200000000000000600082015250565b60006120e6601983611858565b91506120f1826120b0565b602082019050919050565b60006020820190508181036000830152612115816120d9565b9050919050565b7f52656261736520696e74657276616c206e6f7420726561636865640000000000600082015250565b6000612152601b83611858565b915061215d8261211c565b602082019050919050565b6000602082019050818103600083015261218181612145565b9050919050565b7f466163746f72206f7574206f6620616c6c6f7765642072616e67652028302e3560008201527f78202d20312e3578290000000000000000000000000000000000000000000000602082015250565b60006121e4602983611858565b91506121ef82612188565b604082019050919050565b60006020820190508181036000830152612213816121d7565b9050919050565b600060408201905061222f6000830185611a07565b61223c6020830184611a07565b9392505050565b7f496e76616c696420616464726573730000000000000000000000000000000000600082015250565b6000612279600f83611858565b915061228482612243565b602082019050919050565b600060208201905081810360008301526122a88161226c565b9050919050565b7f4f776e61626c653a206e6577206f776e657220697320746865207a65726f206160008201527f6464726573730000000000000000000000000000000000000000000000000000602082015250565b600061230b602683611858565b9150612316826122af565b604082019050919050565b6000602082019050818103600083015261233a816122fe565b9050919050565b7f45524332303a20617070726f76652066726f6d20746865207a65726f2061646460008201527f7265737300000000000000000000000000000000000000000000000000000000602082015250565b600061239d602483611858565b91506123a882612341565b604082019050919050565b600060208201905081810360008301526123cc81612390565b9050919050565b7f45524332303a20617070726f766520746f20746865207a65726f20616464726560008201527f7373000000000000000000000000000000000000000000000000000000000000602082015250565b600061242f602283611858565b915061243a826123d3565b604082019050919050565b6000602082019050818103600083015261245e81612422565b9050919050565b600061247082611967565b915061247b83611967565b925082820261248981611967565b915082820484148315176124a05761249f611d94565b5b5092915050565b7f4e487b7100000000000000000000000000000000000000000000000000000000600052601260045260246000fd5b60006124e182611967565b91506124ec83611967565b9250826124fc576124fb6124a7565b5b828204905092915050565b7f45524332303a20696e73756666696369656e7420616c6c6f77616e6365000000600082015250565b600061253d601d83611858565b915061254882612507565b602082019050919050565b6000602082019050818103600083015261256c81612530565b9050919050565b7f45524332303a207472616e736665722066726f6d20746865207a65726f20616460008201527f6472657373000000000000000000000000000000000000000000000000000000602082015250565b60006125cf602583611858565b91506125da82612573565b604082019050919050565b600060208201905081810360008301526125fe816125c2565b9050919050565b7f45524332303a207472616e7366657220746f20746865207a65726f206164647260008201527f6573730000000000000000000000000000000000000000000000000000000000602082015250565b6000612661602383611858565b915061266c82612605565b604082019050919050565b6000602082019050818103600083015261269081612654565b9050919050565b7f45524332303a207472616e7366657220616d6f756e742065786365656473206260008201527f616c616e63650000000000000000000000000000000000000000000000000000602082015250565b60006126f3602683611858565b91506126fe82612697565b604082019050919050565b60006020820190508181036000830152612722816126e6565b9050919050565b7f4f776e61626c653a2063616c6c6572206973206e6f7420746865206f776e6572600082015250565b600061275f602083611858565b915061276a82612729565b602082019050919050565b6000602082019050818103600083015261278e81612752565b9050919050565b60006127a082611967565b91506127ab83611967565b92508282039050818111156127c3576127c2611d94565b5b9291505056fea264697066735822122091f3cac215fe33666400e90db7dbd7391aee0fce05d6d742aa8912c31cebca9864736f6c63430008140033",
  "linkReferences": {},
  "deployedLinkReferences": {}
}