{
  "_format": "hh-sol-artifact-1",
  "contractName": "DynamicRewards",
  "sourceName": "contracts/rewards/DynamicRewards.sol",
  "abi": [
    {
      "inputs": [
        {
          "internalType": "address",
          "name": "_stakingToken",
          "type": "address"
        },
        {
          "internalType": "address",
          "name": "admin",
          "type": "address"
        }
      ],
      "stateMutability": "nonpayable",
      "type": "constructor"
    },
    {
      "anonymous": false,
      "inputs": [
        {
          "indexed": false,
          "internalType": "uint256",
          "name": "newPeriod",
          "type": "uint256"
        }
      ],
      "name": "MinStakingPeriodUpdated",
      "type": "event"
    },
    {
      "anonymous": false,
      "inputs": [
        {
          "indexed": true,
          "internalType": "address",
          "name": "user",
          "type": "address"
        },
        {
          "indexed": false,
          "internalType": "uint256",
          "name": "amount",
          "type": "uint256"
        },
        {
          "indexed": false,
          "internalType": "address",
          "name": "token",
          "type": "address"
        }
      ],
      "name": "RewardClaimed",
      "type": "event"
    },
    {
      "anonymous": false,
      "inputs": [
        {
          "indexed": false,
          "internalType": "uint256",
          "name": "scheduleId",
          "type": "uint256"
        }
      ],
      "name": "RewardScheduleAdded",
      "type": "event"
    },
    {
      "anonymous": false,
      "inputs": [
        {
          "indexed": true,
          "internalType": "bytes32",
          "name": "role",
          "type": "bytes32"
        },
        {
          "indexed": true,
          "internalType": "bytes32",
          "name": "previousAdminRole",
          "type": "bytes32"
        },
        {
          "indexed": true,
          "internalType": "bytes32",
          "name": "newAdminRole",
          "type": "bytes32"
        }
      ],
      "name": "RoleAdminChanged",
      "type": "event"
    },
    {
      "anonymous": false,
      "inputs": [
        {
          "indexed": true,
          "internalType": "bytes32",
          "name": "role",
          "type": "bytes32"
        },
        {
          "indexed": true,
          "internalType": "address",
          "name": "account",
          "type": "address"
        },
        {
          "indexed": true,
          "internalType": "address",
          "name": "sender",
          "type": "address"
        }
      ],
      "name": "RoleGranted",
      "type": "event"
    },
    {
      "anonymous": false,
      "inputs": [
        {
          "indexed": true,
          "internalType": "bytes32",
          "name": "role",
          "type": "bytes32"
        },
        {
          "indexed": true,
          "internalType": "address",
          "name": "account",
          "type": "address"
        },
        {
          "indexed": true,
          "internalType": "address",
          "name": "sender",
          "type": "address"
        }
      ],
      "name": "RoleRevoked",
      "type": "event"
    },
    {
      "anonymous": false,
      "inputs": [
        {
          "indexed": true,
          "internalType": "address",
          "name": "user",
          "type": "address"
        },
        {
          "indexed": false,
          "internalType": "uint256",
          "name": "amount",
          "type": "uint256"
        }
      ],
      "name": "Staked",
      "type": "event"
    },
    {
      "anonymous": false,
      "inputs": [
        {
          "indexed": true,
          "internalType": "address",
          "name": "user",
          "type": "address"
        },
        {
          "indexed": false,
          "internalType": "uint256",
          "name": "amount",
          "type": "uint256"
        }
      ],
      "name": "Withdrawn",
      "type": "event"
    },
    {
      "inputs": [],
      "name": "DEFAULT_ADMIN_ROLE",
      "outputs": [
        {
          "internalType": "bytes32",
          "name": "",
          "type": "bytes32"
        }
      ],
      "stateMutability": "view",
      "type": "function"
    },
    {
      "inputs": [],
      "name": "MIN_STAKING_PERIOD",
      "outputs": [
        {
          "internalType": "uint256",
          "name": "",
          "type": "uint256"
        }
      ],
      "stateMutability": "view",
      "type": "function"
    },
    {
      "inputs": [],
      "name": "MULTIPLIER",
      "outputs": [
        {
          "internalType": "uint256",
          "name": "",
          "type": "uint256"
        }
      ],
      "stateMutability": "view",
      "type": "function"
    },
    {
      "inputs": [],
      "name": "PERCENTAGE_BASE",
      "outputs": [
        {
          "internalType": "uint256",
          "name": "",
          "type": "uint256"
        }
      ],
      "stateMutability": "view",
      "type": "function"
    },
    {
      "inputs": [],
      "name": "REWARD_MANAGER",
      "outputs": [
        {
          "internalType": "bytes32",
          "name": "",
          "type": "bytes32"
        }
      ],
      "stateMutability": "view",
      "type": "function"
    },
    {
      "inputs": [],
      "name": "TOKEN_UNIT",
      "outputs": [
        {
          "internalType": "uint256",
          "name": "",
          "type": "uint256"
        }
      ],
      "stateMutability": "view",
      "type": "function"
    },
    {
      "inputs": [
        {
          "internalType": "uint256",
          "name": "startTime",
          "type": "uint256"
        },
        {
          "internalType": "uint256",
          "name": "duration",
          "type": "uint256"
        },
        {
          "internalType": "uint256",
          "name": "totalReward",
          "type": "uint256"
        },
        {
          "internalType": "address",
          "name": "rewardsToken",
          "type": "address"
        }
      ],
      "name": "addRewardSchedule",
      "outputs": [],
      "stateMutability": "nonpayable",
      "type": "function"
    },
    {
      "inputs": [
        {
          "internalType": "address",
          "name": "account",
          "type": "address"
        }
      ],
      "name": "balanceOf",
      "outputs": [
        {
          "internalType": "uint256",
          "name": "",
          "type": "uint256"
        }
      ],
      "stateMutability": "view",
      "type": "function"
    },
    {
      "inputs": [],
      "name": "claimRewards",
      "outputs": [],
      "stateMutability": "nonpayable",
      "type": "function"
    },
    {
      "inputs": [],
      "name": "currentScheduleId",
      "outputs": [
        {
          "internalType": "uint256",
          "name": "",
          "type": "uint256"
        }
      ],
      "stateMutability": "view",
      "type": "function"
    },
    {
      "inputs": [
        {
          "internalType": "address",
          "name": "account",
          "type": "address"
        }
      ],
      "name": "earned",
      "outputs": [
        {
          "internalType": "uint256",
          "name": "total",
          "type": "uint256"
        }
      ],
      "stateMutability": "view",
      "type": "function"
    },
    {
      "inputs": [],
      "name": "getActiveSchedules",
      "outputs": [
        {
          "internalType": "uint256[]",
          "name": "",
          "type": "uint256[]"
        }
      ],
      "stateMutability": "view",
      "type": "function"
    },
    {
      "inputs": [
        {
          "internalType": "bytes32",
          "name": "role",
          "type": "bytes32"
        }
      ],
      "name": "getRoleAdmin",
      "outputs": [
        {
          "internalType": "bytes32",
          "name": "",
          "type": "bytes32"
        }
      ],
      "stateMutability": "view",
      "type": "function"
    },
    {
      "inputs": [
        {
          "internalType": "bytes32",
          "name": "role",
          "type": "bytes32"
        },
        {
          "internalType": "address",
          "name": "account",
          "type": "address"
        }
      ],
      "name": "grantRole",
      "outputs": [],
      "stateMutability": "nonpayable",
      "type": "function"
    },
    {
      "inputs": [
        {
          "internalType": "bytes32",
          "name": "role",
          "type": "bytes32"
        },
        {
          "internalType": "address",
          "name": "account",
          "type": "address"
        }
      ],
      "name": "hasRole",
      "outputs": [
        {
          "internalType": "bool",
          "name": "",
          "type": "bool"
        }
      ],
      "stateMutability": "view",
      "type": "function"
    },
    {
      "inputs": [],
      "name": "lastUpdateTime",
      "outputs": [
        {
          "internalType": "uint256",
          "name": "",
          "type": "uint256"
        }
      ],
      "stateMutability": "view",
      "type": "function"
    },
    {
      "inputs": [],
      "name": "minStakingPeriod",
      "outputs": [
        {
          "internalType": "uint256",
          "name": "",
          "type": "uint256"
        }
      ],
      "stateMutability": "view",
      "type": "function"
    },
    {
      "inputs": [],
      "name": "pause",
      "outputs": [],
      "stateMutability": "nonpayable",
      "type": "function"
    },
    {
      "inputs": [
        {
          "internalType": "bytes32",
          "name": "role",
          "type": "bytes32"
        },
        {
          "internalType": "address",
          "name": "account",
          "type": "address"
        }
      ],
      "name": "renounceRole",
      "outputs": [],
      "stateMutability": "nonpayable",
      "type": "function"
    },
    {
      "inputs": [
        {
          "internalType": "bytes32",
          "name": "role",
          "type": "bytes32"
        },
        {
          "internalType": "address",
          "name": "account",
          "type": "address"
        }
      ],
      "name": "revokeRole",
      "outputs": [],
      "stateMutability": "nonpayable",
      "type": "function"
    },
    {
      "inputs": [],
      "name": "rewardPerToken",
      "outputs": [
        {
          "internalType": "uint256",
          "name": "",
          "type": "uint256"
        }
      ],
      "stateMutability": "view",
      "type": "function"
    },
    {
      "inputs": [],
      "name": "rewardPerTokenStored",
      "outputs": [
        {
          "internalType": "uint256",
          "name": "",
          "type": "uint256"
        }
      ],
      "stateMutability": "view",
      "type": "function"
    },
    {
      "inputs": [
        {
          "internalType": "uint256",
          "name": "",
          "type": "uint256"
        }
      ],
      "name": "rewardSchedules",
      "outputs": [
        {
          "internalType": "uint256",
          "name": "startTime",
          "type": "uint256"
        },
        {
          "internalType": "uint256",
          "name": "endTime",
          "type": "uint256"
        },
        {
          "internalType": "uint256",
          "name": "totalRewards",
          "type": "uint256"
        },
        {
          "internalType": "uint256",
          "name": "claimedRewards",
          "type": "uint256"
        },
        {
          "internalType": "address",
          "name": "rewardsToken",
          "type": "address"
        }
      ],
      "stateMutability": "view",
      "type": "function"
    },
    {
      "inputs": [
        {
          "internalType": "address",
          "name": "",
          "type": "address"
        }
      ],
      "name": "rewards",
      "outputs": [
        {
          "internalType": "uint256",
          "name": "",
          "type": "uint256"
        }
      ],
      "stateMutability": "view",
      "type": "function"
    },
    {
      "inputs": [
        {
          "internalType": "uint256",
          "name": "period",
          "type": "uint256"
        }
      ],
      "name": "setMinStakingPeriod",
      "outputs": [],
      "stateMutability": "nonpayable",
      "type": "function"
    },
    {
      "inputs": [
        {
          "internalType": "uint256",
          "name": "amount",
          "type": "uint256"
        }
      ],
      "name": "stake",
      "outputs": [],
      "stateMutability": "nonpayable",
      "type": "function"
    },
    {
      "inputs": [],
      "name": "stakingToken",
      "outputs": [
        {
          "internalType": "contract IERC20",
          "name": "",
          "type": "address"
        }
      ],
      "stateMutability": "view",
      "type": "function"
    },
    {
      "inputs": [
        {
          "internalType": "bytes4",
          "name": "interfaceId",
          "type": "bytes4"
        }
      ],
      "name": "supportsInterface",
      "outputs": [
        {
          "internalType": "bool",
          "name": "",
          "type": "bool"
        }
      ],
      "stateMutability": "view",
      "type": "function"
    },
    {
      "inputs": [],
      "name": "totalStaked",
      "outputs": [
        {
          "internalType": "uint256",
          "name": "",
          "type": "uint256"
        }
      ],
      "stateMutability": "view",
      "type": "function"
    },
    {
      "inputs": [],
      "name": "unpause",
      "outputs": [],
      "stateMutability": "nonpayable",
      "type": "function"
    },
    {
      "inputs": [
        {
          "internalType": "address",
          "name": "",
          "type": "address"
        }
      ],
      "name": "userRewardPerTokenPaid",
      "outputs": [
        {
          "internalType": "uint256",
          "name": "",
          "type": "uint256"
        }
      ],
      "stateMutability": "view",
      "type": "function"
    },
    {
      "inputs": [
        {
          "internalType": "uint256",
          "name": "amount",
          "type": "uint256"
        }
      ],
      "name": "withdraw",
      "outputs": [],
      "stateMutability": "nonpayable",
      "type": "function"
    }
  ],
  "bytecode": "0x60a034620002165762001f1490601f38839003908101601f19168201906001600160401b038211838310176200021b578083916040958694855283398101031262000216576200004f8162000231565b906200005f602080920162000231565b6001805562093a806007556001600160a01b0392831692908315620001d257169081156200018f5760ff19928360025416600255608052600092838052838252848420838552825260ff85852054161562000159575b7f6393fa734211156fcc8c7dda6b0650f5c731d4c838c1db43445a149aa2f5b6fe91828552848152858520848652815260ff86862054161562000120575b8551611cad908162000247823960805181818161056d015281816107d7015281816108da0152610d2f0152f35b828552848152858520908486525260018585209182541617905560008051602062001ef4833981519152339380a43880808080620000f3565b838052838252848420838552825284842060018282541617905533838560008051602062001ef48339815191528180a4620000b5565b60649084519062461bcd60e51b82526004820152601560248201527f496e76616c69642061646d696e206164647265737300000000000000000000006044820152fd5b845162461bcd60e51b815260048101849052601560248201527f496e76616c6964207374616b696e6720746f6b656e00000000000000000000006044820152606490fd5b600080fd5b634e487b7160e01b600052604160045260246000fd5b51906001600160a01b0382168203620002165756fe60406080815260048036101561001457600080fd5b600090813560e01c80628cc262146110b957806301ffc9a714611062578063059f8b161461064d578063069c34f6146110435780630700037d1461100b5780630b35a4b014610ec45780631c1121c514610e69578063248a9ca314610e3e5780632e1a7d4d14610c485780632f2ff15d14610b9e57806336568abe14610b0e578063372500ab1461088c5780633f4ba83a146108665780635932fdba1461083d57806370a082311461080657806372f702f3146107c2578063817b1cd2146107a35780638456cb591461077757806385ecdd931461075857806387c139431461073b57806388ee6a43146106ec5780638b876347146106b457806391d148541461066d578063a217fddf14610652578063a5c9cd821461064d578063a694fc3a146104b4578063c743dabb14610496578063c8f33c9114610477578063cd3daf9d14610453578063d547741f14610412578063df136d65146103f35763e075d82c1461017f57600080fd5b346103ef5760803660031901126103ef5760249260443591843591906001600160a01b0360643581811692908135908490036103eb576101bd611323565b4281106103b457851561037f5786156103455784516370a0823160e01b815230838201526020979088818c81895afa90811561033b579082918b91610306575b50106102c75761021c6102116009546118e7565b978860095583611661565b86519290919060a084016001600160401b038111858210176102b5577f85396969f10b93e89b84ce058bbce90a809c86067bb94a5f0243dfe9f98689439b9c508852835288830191825286830190815260608301918b835260808401968752888c5260088a52878c20935184555160018401555160028301555160038201550191511660018060a01b031982541617905551908152a180f35b634e487b7160e01b8c52604186528c8cfd5b855162461bcd60e51b8152808401899052601a818c015279496e73756666696369656e742072657761726420746f6b656e7360301b6044820152606490fd5b8092508a8092503d8311610334575b61031f81836115a1565b8101031261033057819051386101fd565b8980fd5b503d610315565b87513d8c823e3d90fd5b845162461bcd60e51b81526020818401526015818b015274125b9d985b1a59081c995dd85c9908185b5bdd5b9d605a1b6044820152606490fd5b845162461bcd60e51b81526020818401526010818b01526f24b73b30b634b210323ab930ba34b7b760811b6044820152606490fd5b845162461bcd60e51b81526020818401526012818b01527114dd185c9d081d1a5b59481a5b881c185cdd60721b6044820152606490fd5b8780fd5b5080fd5b8284346103ef57816003193601126103ef57602090600c549051908152f35b50823461044f578060031936011261044f5761044c913561044760016104366110fa565b93838752866020528620015461144e565b6115c4565b80f35b8280fd5b8284346103ef57816003193601126103ef57602090610470611bc8565b9051908152f35b8284346103ef57816003193601126103ef57602090600b549051908152f35b8284346103ef57816003193601126103ef576020905162093a808152f35b5082903461044f57602080600319360112610649578135916104d4611869565b6104e360ff6002541615611791565b6104eb611bc8565b80600c5542600b5533610618575b506105058315156117d2565b61050e33611b1f565b61051a83600354611661565b6003553385528082526105308385872054611661565b33808752828452858720919091556006835284862042905584516323b872dd60e01b815291820152306024820152604481018390528181606481887f00000000000000000000000000000000000000000000000000000000000000006001600160a01b03165af190811561060e577f9e71bc8eea02a63969f509818f2dafb9254532904319f9dbda79b67bd34a5f3d9394916105d39187916105e1575b5061182b565b519283523392a26001805580f35b6106019150843d8611610607575b6105f981836115a1565b810190611813565b876105cd565b503d6105ef565b84513d87823e3d90fd5b610621336118f6565b338752600d845285872055600e835284862055808252838520546005835284862055856104f9565b8380fd5b611110565b8284346103ef57816003193601126103ef5751908152602090f35b5082903461044f578160031936011261044f578160209360ff9261068f6110fa565b903582528186528282206001600160a01b039091168252855220549151911615158152f35b8284346103ef5760203660031901126103ef5760209181906001600160a01b036106dc6110df565b168152600e845220549051908152f35b5082903461044f57602036600319011261044f577f8114637a99d6dbde6e7e5125969a8ecbe5d143eedc597560c9c79a8cb9a6b5d091602091359061072f611323565b8160075551908152a180f35b8284346103ef57816003193601126103ef57602090516127108152f35b8284346103ef57816003193601126103ef576020906009549051908152f35b82346107a057806003193601126107a057610790611133565b600160ff19600254161760025580f35b80fd5b8284346103ef57816003193601126103ef576020906003549051908152f35b8284346103ef57816003193601126103ef57517f00000000000000000000000000000000000000000000000000000000000000006001600160a01b03168152602090f35b5082903461044f57602036600319011261044f5760209282916001600160a01b0361082f6110df565b168252845220549051908152f35b8284346103ef57816003193601126103ef5760209051600080516020611c388339815191528152f35b82346107a057806003193601126107a05761087f611133565b60ff196002541660025580f35b50823461044f578260031936011261044f576108a6611869565b6108b560ff6002541615611791565b6108be33611b1f565b829060019283805b610961575b508215610932575080519182527f00000000000000000000000000000000000000000000000000000000000000006001600160a01b0316602083015233917ff80b6d248ca65e589d3f24c7ce36e2df22ba16ba4e7656aad67e114abbe971d29190a2805580f35b6020606492519162461bcd60e51b8352820152600a6024820152694e6f207265776172647360b01b6044820152fd5b926009548411610b08578386526020906008825283872091338852600a92838252858920878a5282528589205493888515610af95750338a528252858920878a5282528886812055600381016109b8858254611661565b905584015485516370a0823160e01b815230818701526001600160a01b039091169060249083818381865afa908115610aef579086918c91610aba575b5010610a7b5750818651809263a9059cbb60e01b8252818c81610a1b8a338d84016118cc565b03925af1918215610a715792610a43610a48938a9693610a4e968d92610a54575b505061182b565b611661565b946118e7565b906108c6565b610a6a9250803d10610607576105f981836115a1565b8c80610a3c565b86513d8b823e3d90fd5b85601b606492858a519362461bcd60e51b85528401528201527a496e73756666696369656e74207265776172642062616c616e636560281b6044820152fd5b809250858092503d8311610ae8575b610ad381836115a1565b81010312610ae4578590518c6109f5565b8a80fd5b503d610ac9565b88513d8d823e3d90fd5b945050505093610a4e906118e7565b926108cb565b50346103ef57826003193601126103ef57610b276110fa565b90336001600160a01b03831603610b43579061044c91356115c4565b608490602085519162461bcd60e51b8352820152602f60248201527f416363657373436f6e74726f6c3a2063616e206f6e6c792072656e6f756e636560448201526e103937b632b9903337b91039b2b63360891b6064820152fd5b5082903461044f578160031936011261044f573590610bbb6110fa565b9082845283602052610bd26001828620015461144e565b82845260208481528185206001600160a01b039093168086529290528084205460ff1615610bfe578380f35b828452836020528084208285526020528320600160ff1982541617905533917f2f8788117e7eff1d82e926ec794901d17c78024a50270940304540a733656f0d8480a48180808380f35b5082903461044f5760208060031936011261064957813591610c68611869565b610c7760ff6002541615611791565b610c7f611bc8565b80600c5542600b5533610e0d575b5033855260068252610ca58486205460075490611661565b4210610dcc57610cb68315156117d2565b338552808252828486205410610d94578183610d2a92610cd533611b1f565b610ce1826003546118bf565b600355338852808352868820546005845287892055808352610d0682888a20546118bf565b338952818452878920558651938492839263a9059cbb60e01b8452339084016118cc565b0381887f00000000000000000000000000000000000000000000000000000000000000006001600160a01b03165af190811561060e577f7084f5476618d8e60b11ef0d7d3f06914655adb8793e28ff7f018d4c76d505d59394916105d39187916105e1575061182b565b60649184519162461bcd60e51b83528201526014602482015273496e73756666696369656e742062616c616e636560601b6044820152fd5b60649184519162461bcd60e51b8352820152601e60248201527f4d696e696d756d207374616b696e6720706572696f64206e6f74206d657400006044820152fd5b610e16336118f6565b338752600d845285872055600e83528486205580825283852054600583528486205585610c8d565b5082903461044f57602036600319011261044f57816020936001923581528085522001549051908152f35b50823461044f57602036600319011261044f578060a0938335815260086020522091825492600181015492600282015491600381015493600180891b0391015416938151958652602086015284015260608301526080820152f35b5090346107a057806003193601126107a0576009549291908060015b85811115610fc75750610f0a610ef582611bb1565b91610f02865193846115a1565b808352611bb1565b6020958287019491601f19013686378360015b82811115610f64575050505083519485948186019282875251809352850193925b828110610f4d57505050500390f35b835185528695509381019392810192600101610f3e565b808695979899965260088652600189862001544210610f92575b610f87906118e7565b979695939497610f1d565b610f9b826118e7565b918751811015610fb45760051b87018601819052610f7e565b634e487b7160e01b865260328552602486fd5b80839294959693526008602052600186832001544210610ff6575b610feb906118e7565b949392909194610ee0565b92611003610feb916118e7565b939050610fe2565b8284346103ef5760203660031901126103ef5760209181906001600160a01b036110336110df565b168152600d845220549051908152f35b8284346103ef57816003193601126103ef576020906007549051908152f35b5082903461044f57602036600319011261044f57359063ffffffff60e01b821680920361044f5760209250637965db0b60e01b82149182156110a8575b50519015158152f35b6301ffc9a760e01b1491508361109f565b8284346103ef5760203660031901126103ef576020906104706110da6110df565b6118f6565b600435906001600160a01b03821682036110f557565b600080fd5b602435906001600160a01b03821682036110f557565b346110f55760003660031901126110f5576020604051670de0b6b3a76400008152f35b3360009081527fad3228b676f7d3cd4284a5443f17f1962b36e491b30a40b2405849e597ba5fb560209081526040808320549092919060ff161561117657505050565b61117f33611695565b83518361118b82611570565b6042825283820194606036873782511561130f576030865382519060019182101561130f5790607860218501536041915b8183116112a157505050611271578461123f604861126393604497985198899161123089840198600080516020611c588339815191528a52611207815180928d60378901910161154d565b8401917001034b99036b4b9b9b4b733903937b6329607d1b60378401525180938684019061154d565b010360288101895201876115a1565b5194859362461bcd60e51b855260048501525180928160248601528585019061154d565b601f01601f19168101030190fd5b60648386519062461bcd60e51b82528060048301526024820152600080516020611c188339815191526044820152fd5b909192600f811660108110156112fb576f181899199a1a9b1b9c1cb0b131b232b360811b901a6112d1858761166e565b5360041c9280156112e7576000190191906111bc565b634e487b7160e01b82526011600452602482fd5b634e487b7160e01b83526032600452602483fd5b634e487b7160e01b81526032600452602490fd5b3360009081527ebe5eba7a054496bec43e02beb5f3aa0464f0a7ef5f913ef8844994b81149ba602090815260408083205490929190600080516020611c388339815191529060ff16156113765750505050565b61137f33611695565b9084519061138c82611570565b6042825283820194606036873782511561130f576030865382519060019182101561130f5790607860218501536041915b81831161140857505050611271578461123f604861126393604497985198899161123089840198600080516020611c588339815191528a52611207815180928d60378901910161154d565b909192600f811660108110156112fb576f181899199a1a9b1b9c1cb0b131b232b360811b901a611438858761166e565b5360041c9280156112e7576000190191906113bd565b60008181526020818152604092838320338452825260ff8484205416156114755750505050565b61147e33611695565b9084519061148b82611570565b6042825283820194606036873782511561130f576030865382519060019182101561130f5790607860218501536041915b81831161150757505050611271578461123f604861126393604497985198899161123089840198600080516020611c588339815191528a52611207815180928d60378901910161154d565b909192600f811660108110156112fb576f181899199a1a9b1b9c1cb0b131b232b360811b901a611537858761166e565b5360041c9280156112e7576000190191906114bc565b60005b8381106115605750506000910152565b8181015183820152602001611550565b608081019081106001600160401b0382111761158b57604052565b634e487b7160e01b600052604160045260246000fd5b601f909101601f19168101906001600160401b0382119082101761158b57604052565b9060009180835282602052604083209160018060a01b03169182845260205260ff6040842054166115f457505050565b80835282602052604083208284526020526040832060ff1981541690557ff6391f5c32d9c69d2a47ea670b442974b53935d1edc7fd64eb21e047a839171b339380a4565b8181029291811591840414171561164b57565b634e487b7160e01b600052601160045260246000fd5b9190820180921161164b57565b90815181101561167f570160200190565b634e487b7160e01b600052603260045260246000fd5b60405190606082016001600160401b0381118382101761158b57604052602a825260208201604036823782511561167f5760309053815160019081101561167f57607860218401536029905b8082116117235750506116f15790565b606460405162461bcd60e51b81526020600482015260206024820152600080516020611c188339815191526044820152fd5b9091600f8116601081101561177c576f181899199a1a9b1b9c1cb0b131b232b360811b901a611752848661166e565b5360041c9180156117675760001901906116e1565b60246000634e487b7160e01b81526011600452fd5b60246000634e487b7160e01b81526032600452fd5b1561179857565b60405162461bcd60e51b815260206004820152601260248201527110dbdb9d1c9858dd081a5cc81c185d5cd95960721b6044820152606490fd5b156117d957565b60405162461bcd60e51b81526020600482015260126024820152710416d6f756e74206d757374206265203e20360741b6044820152606490fd5b908160209103126110f5575180151581036110f55790565b1561183257565b60405162461bcd60e51b815260206004820152600f60248201526e151c985b9cd9995c8819985a5b1959608a1b6044820152606490fd5b60026001541461187a576002600155565b60405162461bcd60e51b815260206004820152601f60248201527f5265656e7472616e637947756172643a207265656e7472616e742063616c6c006044820152606490fd5b9190820391821161164b57565b6001600160a01b039091168152602081019190915260400190565b600019811461164b5760010190565b90600091600190600954905b8183111561190f57505050565b909193610a48611929916119238785611950565b90611661565b9190611902565b811561193a570490565b634e487b7160e01b600052601260045260246000fd5b600091808352602090600882526040918285209360018060a01b0316938486526005825283862054158015611b15575b611b0d57600181015490611996815480936118bf565b918215611acd576119a790426118bf565b91808311611ac5575b670de0b6b3a76400009081840293808504831481151715611a9d576a0c097ce7bc90715b34b9f160241b9481860290801590820485141715611ab1579060026119fc84611a0494611930565b950154611638565b82810290808204841490151715611a9d57611a3391611a2291611930565b92888a5260048652878a2054611638565b600354828102928184041490151715611a8957611a5a9291611a5491611930565b90611638565b04938552600a81528285209185525282205490818111600014611a8457611a8192506118bf565b90565b505090565b634e487b7160e01b89526011600452602489fd5b634e487b7160e01b8a52601160045260248afd5b634e487b7160e01b8b52601160045260248bfd5b9150816119b0565b855162461bcd60e51b815260048101859052601960248201527824b73b30b634b21039b1b432b23ab63290323ab930ba34b7b760391b6044820152606490fd5b505050505090565b5080544210611980565b60019081805b611b2e57505050565b6009548111611bac57611b6083916000818152602090600882526040908582822001544210611b66575b5050506118e7565b90611b25565b6001600160a01b038716808252600a808552838320868452855283832054919491611b9590611923888c611950565b948352815282822090858352522055388080611b58565b505050565b6001600160401b03811161158b5760051b60200190565b6003548015611c1057600c54611be0600b54426118bf565b670de0b6b3a76400009081810291818304149015171561164b57611a8192611c0b8361192393611638565b611930565b50600c549056fe537472696e67733a20686578206c656e67746820696e73756666696369656e746393fa734211156fcc8c7dda6b0650f5c731d4c838c1db43445a149aa2f5b6fe416363657373436f6e74726f6c3a206163636f756e7420000000000000000000a264697066735822122003415e61fb203b758a194a708dcded956c74ecb5ba141ca360903b7cad99779b64736f6c634300081400332f8788117e7eff1d82e926ec794901d17c78024a50270940304540a733656f0d",
  "linkReferences": {},
  "deployedLinkReferences": {}
}