{
  "_format": "hh-sol-artifact-1",
  "contractName": "DynamicRewards",
  "sourceName": "contracts/rewards/DynamicRewards.sol",
  "abi": [
    {
      "inputs": [
        {
          "internalType": "address",
          "name": "_stakingToken",
          "type": "address"
        },
        {
          "internalType": "address",
          "name": "admin",
          "type": "address"
        }
      ],
      "stateMutability": "nonpayable",
      "type": "constructor"
    },
    {
      "anonymous": false,
      "inputs": [
        {
          "indexed": false,
          "internalType": "uint256",
          "name": "newPeriod",
          "type": "uint256"
        }
      ],
      "name": "MinStakingPeriodUpdated",
      "type": "event"
    },
    {
      "anonymous": false,
      "inputs": [
        {
          "indexed": true,
          "internalType": "address",
          "name": "user",
          "type": "address"
        },
        {
          "indexed": false,
          "internalType": "uint256",
          "name": "amount",
          "type": "uint256"
        },
        {
          "indexed": false,
          "internalType": "address",
          "name": "token",
          "type": "address"
        }
      ],
      "name": "RewardClaimed",
      "type": "event"
    },
    {
      "anonymous": false,
      "inputs": [
        {
          "indexed": false,
          "internalType": "uint256",
          "name": "scheduleId",
          "type": "uint256"
        }
      ],
      "name": "RewardScheduleAdded",
      "type": "event"
    },
    {
      "anonymous": false,
      "inputs": [
        {
          "indexed": true,
          "internalType": "bytes32",
          "name": "role",
          "type": "bytes32"
        },
        {
          "indexed": true,
          "internalType": "bytes32",
          "name": "previousAdminRole",
          "type": "bytes32"
        },
        {
          "indexed": true,
          "internalType": "bytes32",
          "name": "newAdminRole",
          "type": "bytes32"
        }
      ],
      "name": "RoleAdminChanged",
      "type": "event"
    },
    {
      "anonymous": false,
      "inputs": [
        {
          "indexed": true,
          "internalType": "bytes32",
          "name": "role",
          "type": "bytes32"
        },
        {
          "indexed": true,
          "internalType": "address",
          "name": "account",
          "type": "address"
        },
        {
          "indexed": true,
          "internalType": "address",
          "name": "sender",
          "type": "address"
        }
      ],
      "name": "RoleGranted",
      "type": "event"
    },
    {
      "anonymous": false,
      "inputs": [
        {
          "indexed": true,
          "internalType": "bytes32",
          "name": "role",
          "type": "bytes32"
        },
        {
          "indexed": true,
          "internalType": "address",
          "name": "account",
          "type": "address"
        },
        {
          "indexed": true,
          "internalType": "address",
          "name": "sender",
          "type": "address"
        }
      ],
      "name": "RoleRevoked",
      "type": "event"
    },
    {
      "anonymous": false,
      "inputs": [
        {
          "indexed": true,
          "internalType": "address",
          "name": "user",
          "type": "address"
        },
        {
          "indexed": false,
          "internalType": "uint256",
          "name": "balance",
          "type": "uint256"
        },
        {
          "indexed": false,
          "internalType": "uint256",
          "name": "timestamp",
          "type": "uint256"
        }
      ],
      "name": "StakeSnapshotCreated",
      "type": "event"
    },
    {
      "anonymous": false,
      "inputs": [
        {
          "indexed": true,
          "internalType": "address",
          "name": "user",
          "type": "address"
        },
        {
          "indexed": false,
          "internalType": "uint256",
          "name": "amount",
          "type": "uint256"
        }
      ],
      "name": "Staked",
      "type": "event"
    },
    {
      "anonymous": false,
      "inputs": [
        {
          "indexed": true,
          "internalType": "address",
          "name": "user",
          "type": "address"
        },
        {
          "indexed": false,
          "internalType": "uint256",
          "name": "amount",
          "type": "uint256"
        }
      ],
      "name": "Withdrawn",
      "type": "event"
    },
    {
      "inputs": [],
      "name": "DEFAULT_ADMIN_ROLE",
      "outputs": [
        {
          "internalType": "bytes32",
          "name": "",
          "type": "bytes32"
        }
      ],
      "stateMutability": "view",
      "type": "function"
    },
    {
      "inputs": [],
      "name": "MAX_REWARD_MULTIPLIER",
      "outputs": [
        {
          "internalType": "uint256",
          "name": "",
          "type": "uint256"
        }
      ],
      "stateMutability": "view",
      "type": "function"
    },
    {
      "inputs": [],
      "name": "MIN_STAKING_PERIOD",
      "outputs": [
        {
          "internalType": "uint256",
          "name": "",
          "type": "uint256"
        }
      ],
      "stateMutability": "view",
      "type": "function"
    },
    {
      "inputs": [],
      "name": "MULTIPLIER",
      "outputs": [
        {
          "internalType": "uint256",
          "name": "",
          "type": "uint256"
        }
      ],
      "stateMutability": "view",
      "type": "function"
    },
    {
      "inputs": [],
      "name": "PERCENTAGE_BASE",
      "outputs": [
        {
          "internalType": "uint256",
          "name": "",
          "type": "uint256"
        }
      ],
      "stateMutability": "view",
      "type": "function"
    },
    {
      "inputs": [],
      "name": "PRECISION_FACTOR",
      "outputs": [
        {
          "internalType": "uint256",
          "name": "",
          "type": "uint256"
        }
      ],
      "stateMutability": "view",
      "type": "function"
    },
    {
      "inputs": [],
      "name": "REWARD_MANAGER",
      "outputs": [
        {
          "internalType": "bytes32",
          "name": "",
          "type": "bytes32"
        }
      ],
      "stateMutability": "view",
      "type": "function"
    },
    {
      "inputs": [],
      "name": "TOKEN_UNIT",
      "outputs": [
        {
          "internalType": "uint256",
          "name": "",
          "type": "uint256"
        }
      ],
      "stateMutability": "view",
      "type": "function"
    },
    {
      "inputs": [
        {
          "internalType": "uint256",
          "name": "startTime",
          "type": "uint256"
        },
        {
          "internalType": "uint256",
          "name": "duration",
          "type": "uint256"
        },
        {
          "internalType": "uint256",
          "name": "totalReward",
          "type": "uint256"
        },
        {
          "internalType": "address",
          "name": "rewardsToken",
          "type": "address"
        }
      ],
      "name": "addRewardSchedule",
      "outputs": [],
      "stateMutability": "nonpayable",
      "type": "function"
    },
    {
      "inputs": [
        {
          "internalType": "address",
          "name": "account",
          "type": "address"
        }
      ],
      "name": "balanceOf",
      "outputs": [
        {
          "internalType": "uint256",
          "name": "",
          "type": "uint256"
        }
      ],
      "stateMutability": "view",
      "type": "function"
    },
    {
      "inputs": [],
      "name": "claimRewards",
      "outputs": [],
      "stateMutability": "nonpayable",
      "type": "function"
    },
    {
      "inputs": [],
      "name": "currentScheduleId",
      "outputs": [
        {
          "internalType": "uint256",
          "name": "",
          "type": "uint256"
        }
      ],
      "stateMutability": "view",
      "type": "function"
    },
    {
      "inputs": [
        {
          "internalType": "address",
          "name": "account",
          "type": "address"
        }
      ],
      "name": "earned",
      "outputs": [
        {
          "internalType": "uint256",
          "name": "total",
          "type": "uint256"
        }
      ],
      "stateMutability": "view",
      "type": "function"
    },
    {
      "inputs": [],
      "name": "getActiveSchedules",
      "outputs": [
        {
          "internalType": "uint256[]",
          "name": "",
          "type": "uint256[]"
        }
      ],
      "stateMutability": "view",
      "type": "function"
    },
    {
      "inputs": [
        {
          "internalType": "address",
          "name": "account",
          "type": "address"
        },
        {
          "internalType": "uint256",
          "name": "timestamp",
          "type": "uint256"
        }
      ],
      "name": "getBalanceAtTime",
      "outputs": [
        {
          "internalType": "uint256",
          "name": "",
          "type": "uint256"
        }
      ],
      "stateMutability": "view",
      "type": "function"
    },
    {
      "inputs": [
        {
          "internalType": "bytes32",
          "name": "role",
          "type": "bytes32"
        }
      ],
      "name": "getRoleAdmin",
      "outputs": [
        {
          "internalType": "bytes32",
          "name": "",
          "type": "bytes32"
        }
      ],
      "stateMutability": "view",
      "type": "function"
    },
    {
      "inputs": [
        {
          "internalType": "address",
          "name": "account",
          "type": "address"
        }
      ],
      "name": "getStakeHistoryLength",
      "outputs": [
        {
          "internalType": "uint256",
          "name": "",
          "type": "uint256"
        }
      ],
      "stateMutability": "view",
      "type": "function"
    },
    {
      "inputs": [
        {
          "internalType": "address",
          "name": "account",
          "type": "address"
        },
        {
          "internalType": "uint256",
          "name": "index",
          "type": "uint256"
        }
      ],
      "name": "getStakeSnapshotAt",
      "outputs": [
        {
          "components": [
            {
              "internalType": "uint256",
              "name": "balance",
              "type": "uint256"
            },
            {
              "internalType": "uint256",
              "name": "timestamp",
              "type": "uint256"
            },
            {
              "internalType": "uint256",
              "name": "totalSupplyAtTime",
              "type": "uint256"
            }
          ],
          "internalType": "struct DynamicRewards.StakeSnapshot",
          "name": "",
          "type": "tuple"
        }
      ],
      "stateMutability": "view",
      "type": "function"
    },
    {
      "inputs": [
        {
          "internalType": "uint256",
          "name": "timestamp",
          "type": "uint256"
        }
      ],
      "name": "getTotalSupplyAtTime",
      "outputs": [
        {
          "internalType": "uint256",
          "name": "",
          "type": "uint256"
        }
      ],
      "stateMutability": "view",
      "type": "function"
    },
    {
      "inputs": [
        {
          "internalType": "address",
          "name": "account",
          "type": "address"
        }
      ],
      "name": "getWithdrawableAmount",
      "outputs": [
        {
          "internalType": "uint256",
          "name": "",
          "type": "uint256"
        }
      ],
      "stateMutability": "view",
      "type": "function"
    },
    {
      "inputs": [
        {
          "internalType": "bytes32",
          "name": "role",
          "type": "bytes32"
        },
        {
          "internalType": "address",
          "name": "account",
          "type": "address"
        }
      ],
      "name": "grantRole",
      "outputs": [],
      "stateMutability": "nonpayable",
      "type": "function"
    },
    {
      "inputs": [],
      "name": "hasActiveRewardSchedules",
      "outputs": [
        {
          "internalType": "bool",
          "name": "",
          "type": "bool"
        }
      ],
      "stateMutability": "view",
      "type": "function"
    },
    {
      "inputs": [
        {
          "internalType": "bytes32",
          "name": "role",
          "type": "bytes32"
        },
        {
          "internalType": "address",
          "name": "account",
          "type": "address"
        }
      ],
      "name": "hasRole",
      "outputs": [
        {
          "internalType": "bool",
          "name": "",
          "type": "bool"
        }
      ],
      "stateMutability": "view",
      "type": "function"
    },
    {
      "inputs": [],
      "name": "minStakingPeriod",
      "outputs": [
        {
          "internalType": "uint256",
          "name": "",
          "type": "uint256"
        }
      ],
      "stateMutability": "view",
      "type": "function"
    },
    {
      "inputs": [],
      "name": "pause",
      "outputs": [],
      "stateMutability": "nonpayable",
      "type": "function"
    },
    {
      "inputs": [
        {
          "internalType": "bytes32",
          "name": "role",
          "type": "bytes32"
        },
        {
          "internalType": "address",
          "name": "account",
          "type": "address"
        }
      ],
      "name": "renounceRole",
      "outputs": [],
      "stateMutability": "nonpayable",
      "type": "function"
    },
    {
      "inputs": [
        {
          "internalType": "bytes32",
          "name": "role",
          "type": "bytes32"
        },
        {
          "internalType": "address",
          "name": "account",
          "type": "address"
        }
      ],
      "name": "revokeRole",
      "outputs": [],
      "stateMutability": "nonpayable",
      "type": "function"
    },
    {
      "inputs": [
        {
          "internalType": "uint256",
          "name": "",
          "type": "uint256"
        }
      ],
      "name": "rewardSchedules",
      "outputs": [
        {
          "internalType": "uint256",
          "name": "startTime",
          "type": "uint256"
        },
        {
          "internalType": "uint256",
          "name": "endTime",
          "type": "uint256"
        },
        {
          "internalType": "uint256",
          "name": "totalRewards",
          "type": "uint256"
        },
        {
          "internalType": "uint256",
          "name": "claimedRewards",
          "type": "uint256"
        },
        {
          "internalType": "address",
          "name": "rewardsToken",
          "type": "address"
        }
      ],
      "stateMutability": "view",
      "type": "function"
    },
    {
      "inputs": [
        {
          "internalType": "uint256",
          "name": "period",
          "type": "uint256"
        }
      ],
      "name": "setMinStakingPeriod",
      "outputs": [],
      "stateMutability": "nonpayable",
      "type": "function"
    },
    {
      "inputs": [
        {
          "internalType": "uint256",
          "name": "amount",
          "type": "uint256"
        }
      ],
      "name": "stake",
      "outputs": [],
      "stateMutability": "nonpayable",
      "type": "function"
    },
    {
      "inputs": [],
      "name": "stakingToken",
      "outputs": [
        {
          "internalType": "contract IERC20",
          "name": "",
          "type": "address"
        }
      ],
      "stateMutability": "view",
      "type": "function"
    },
    {
      "inputs": [
        {
          "internalType": "bytes4",
          "name": "interfaceId",
          "type": "bytes4"
        }
      ],
      "name": "supportsInterface",
      "outputs": [
        {
          "internalType": "bool",
          "name": "",
          "type": "bool"
        }
      ],
      "stateMutability": "view",
      "type": "function"
    },
    {
      "inputs": [],
      "name": "totalStaked",
      "outputs": [
        {
          "internalType": "uint256",
          "name": "",
          "type": "uint256"
        }
      ],
      "stateMutability": "view",
      "type": "function"
    },
    {
      "inputs": [],
      "name": "unpause",
      "outputs": [],
      "stateMutability": "nonpayable",
      "type": "function"
    },
    {
      "inputs": [
        {
          "internalType": "uint256",
          "name": "amount",
          "type": "uint256"
        }
      ],
      "name": "withdraw",
      "outputs": [],
      "stateMutability": "nonpayable",
      "type": "function"
    }
  ],
  "bytecode": "0x60a060405262093a80600c553480156200001857600080fd5b50604051620047913803806200479183398181016040528101906200003e919062000394565b60018081905550600073ffffffffffffffffffffffffffffffffffffffff168273ffffffffffffffffffffffffffffffffffffffff1603620000b7576040517f08c379a0000000000000000000000000000000000000000000000000000000008152600401620000ae906200043c565b60405180910390fd5b600073ffffffffffffffffffffffffffffffffffffffff168173ffffffffffffffffffffffffffffffffffffffff160362000129576040517f08c379a00000000000000000000000000000000000000000000000000000000081526004016200012090620004ae565b60405180910390fd5b6000600260006101000a81548160ff0219169083151502179055508173ffffffffffffffffffffffffffffffffffffffff1660808173ffffffffffffffffffffffffffffffffffffffff16815250506200018d6000801b82620001c760201b60201c565b620001bf7f6393fa734211156fcc8c7dda6b0650f5c731d4c838c1db43445a149aa2f5b6fe82620001c760201b60201c565b5050620004d0565b620001d98282620002b860201b60201c565b620002b457600160008084815260200190815260200160002060000160008373ffffffffffffffffffffffffffffffffffffffff1673ffffffffffffffffffffffffffffffffffffffff16815260200190815260200160002060006101000a81548160ff021916908315150217905550620002596200032260201b60201c565b73ffffffffffffffffffffffffffffffffffffffff168173ffffffffffffffffffffffffffffffffffffffff16837f2f8788117e7eff1d82e926ec794901d17c78024a50270940304540a733656f0d60405160405180910390a45b5050565b600080600084815260200190815260200160002060000160008373ffffffffffffffffffffffffffffffffffffffff1673ffffffffffffffffffffffffffffffffffffffff16815260200190815260200160002060009054906101000a900460ff16905092915050565b600033905090565b600080fd5b600073ffffffffffffffffffffffffffffffffffffffff82169050919050565b60006200035c826200032f565b9050919050565b6200036e816200034f565b81146200037a57600080fd5b50565b6000815190506200038e8162000363565b92915050565b60008060408385031215620003ae57620003ad6200032a565b5b6000620003be858286016200037d565b9250506020620003d1858286016200037d565b9150509250929050565b600082825260208201905092915050565b7f496e76616c6964207374616b696e6720746f6b656e0000000000000000000000600082015250565b600062000424601583620003db565b91506200043182620003ec565b602082019050919050565b60006020820190508181036000830152620004578162000415565b9050919050565b7f496e76616c69642061646d696e20616464726573730000000000000000000000600082015250565b600062000496601583620003db565b9150620004a3826200045e565b602082019050919050565b60006020820190508181036000830152620004c98162000487565b9050919050565b608051614297620004fa60003960008181610c050152818161156c015261192901526142976000f3fe608060405234801561001057600080fd5b50600436106102105760003560e01c806370a0823111610125578063a5c9cd82116100ad578063d547741f1161007c578063d547741f146105e7578063d8b3fe9514610603578063dda397f614610633578063e075d82c14610663578063f67771751461067f57610210565b8063a5c9cd8214610571578063a694fc3a1461058f578063c743dabb146105ab578063ccd34cd5146105c957610210565b806385ecdd93116100f457806385ecdd93146104cb57806387c13943146104e957806388ee6a431461050757806391d1485414610523578063a217fddf1461055357610210565b806370a082311461045557806372f702f314610485578063817b1cd2146104a35780638456cb59146104c157610210565b80632f2ff15d116101a85780633f4ba83a116101775780633f4ba83a146103c15780635932fdba146103cb5780635a9e74ae146103e9578063623662f514610419578063646f6eb41461043757610210565b80632f2ff15d1461034f57806336568abe1461036b578063372500ab14610387578063387297621461039157610210565b80630b35a4b0116101e45780630b35a4b0146102b15780631c1121c5146102cf578063248a9ca3146103035780632e1a7d4d1461033357610210565b80628cc2621461021557806301ffc9a714610245578063059f8b1614610275578063069c34f614610293575b600080fd5b61022f600480360381019061022a9190612ee1565b6106af565b60405161023c9190612f27565b60405180910390f35b61025f600480360381019061025a9190612f9a565b6106f0565b60405161026c9190612fe2565b60405180910390f35b61027d61076a565b60405161028a9190612f27565b60405180910390f35b61029b610776565b6040516102a89190612f27565b60405180910390f35b6102b961077c565b6040516102c691906130bb565b60405180910390f35b6102e960048036038101906102e49190613109565b610896565b6040516102fa959493929190613145565b60405180910390f35b61031d600480360381019061031891906131ce565b6108ec565b60405161032a919061320a565b60405180910390f35b61034d60048036038101906103489190613109565b61090b565b005b61036960048036038101906103649190613225565b610d40565b005b61038560048036038101906103809190613225565b610d61565b005b61038f610de4565b005b6103ab60048036038101906103a69190613265565b6111ce565b6040516103b891906132e7565b60405180910390f35b6103c96112ea565b005b6103d3611315565b6040516103e0919061320a565b60405180910390f35b61040360048036038101906103fe9190613265565b611339565b6040516104109190612f27565b60405180910390f35b6104216114c7565b60405161042e9190612fe2565b60405180910390f35b61043f61151c565b60405161044c9190612f27565b60405180910390f35b61046f600480360381019061046a9190612ee1565b611521565b60405161047c9190612f27565b60405180910390f35b61048d61156a565b60405161049a9190613361565b60405180910390f35b6104ab61158e565b6040516104b89190612f27565b60405180910390f35b6104c9611598565b005b6104d36115c3565b6040516104e09190612f27565b60405180910390f35b6104f16115c9565b6040516104fe9190612f27565b60405180910390f35b610521600480360381019061051c9190613109565b6115cf565b005b61053d60048036038101906105389190613225565b61163b565b60405161054a9190612fe2565b60405180910390f35b61055b6116a5565b604051610568919061320a565b60405180910390f35b6105796116ac565b6040516105869190612f27565b60405180910390f35b6105a960048036038101906105a49190613109565b6116b8565b005b6105b3611a63565b6040516105c09190612f27565b60405180910390f35b6105d1611a6a565b6040516105de9190612f27565b60405180910390f35b61060160048036038101906105fc9190613225565b611a73565b005b61061d60048036038101906106189190613109565b611a94565b60405161062a9190612f27565b60405180910390f35b61064d60048036038101906106489190612ee1565b611bc8565b60405161065a9190612f27565b60405180910390f35b61067d6004803603810190610678919061337c565b611c14565b005b61069960048036038101906106949190612ee1565b611eef565b6040516106a69190612f27565b60405180910390f35b600080600190505b600e5481116106ea576106ca8382611fb7565b826106d59190613412565b915080806106e290613446565b9150506106b7565b50919050565b60007f7965db0b000000000000000000000000000000000000000000000000000000007bffffffffffffffffffffffffffffffffffffffffffffffffffffffff1916827bffffffffffffffffffffffffffffffffffffffffffffffffffffffff191614806107635750610762826122a0565b5b9050919050565b670de0b6b3a764000081565b600c5481565b6060600080600190505b600e5481116107cf57600d6000828152602001908152602001600020600101544210156107bc5781806107b890613446565b9250505b80806107c790613446565b915050610786565b5060008167ffffffffffffffff8111156107ec576107eb61348e565b5b60405190808252806020026020018201604052801561081a5781602001602082028036833780820191505090505b509050600080600190505b600e54811161088c57600d600082815260200190815260200160002060010154421015610879578083838061085990613446565b94508151811061086c5761086b6134bd565b5b6020026020010181815250505b808061088490613446565b915050610825565b5081935050505090565b600d6020528060005260406000206000915090508060000154908060010154908060020154908060030154908060040160009054906101000a900473ffffffffffffffffffffffffffffffffffffffff16905085565b6000806000838152602001908152602001600020600101549050919050565b61091361230a565b600260009054906101000a900460ff1615610963576040517f08c379a000000000000000000000000000000000000000000000000000000000815260040161095a90613549565b60405180910390fd5b600081116109a6576040517f08c379a000000000000000000000000000000000000000000000000000000000815260040161099d906135b5565b60405180910390fd5b60006109b133611eef565b9050818110156109f6576040517f08c379a00000000000000000000000000000000000000000000000000000000081526004016109ed90613647565b60405180910390fd5b6109ff33612359565b60008290506000600760003373ffffffffffffffffffffffffffffffffffffffff1673ffffffffffffffffffffffffffffffffffffffff168152602001908152602001600020905060005b818054905081108015610a5d5750600083115b15610b12576000828281548110610a7757610a766134bd565b5b90600052602060002090600202019050600c548160010154610a999190613412565b421015610aa65750610aff565b6000816000015403610ab85750610aff565b600081600001548511610acb5784610ad1565b81600001545b905080826000016000828254610ae79190613667565b925050819055508085610afa9190613667565b945050505b8080610b0a90613446565b915050610a4a565b5060008214610b56576040517f08c379a0000000000000000000000000000000000000000000000000000000008152600401610b4d906136e7565b60405180910390fd5b83600354610b649190613667565b60038190555083600460003373ffffffffffffffffffffffffffffffffffffffff1673ffffffffffffffffffffffffffffffffffffffff16815260200190815260200160002054610bb59190613667565b600460003373ffffffffffffffffffffffffffffffffffffffff1673ffffffffffffffffffffffffffffffffffffffff16815260200190815260200160002081905550610c01336125ed565b60007f000000000000000000000000000000000000000000000000000000000000000073ffffffffffffffffffffffffffffffffffffffff1663a9059cbb33876040518363ffffffff1660e01b8152600401610c5e929190613707565b6020604051808303816000875af1158015610c7d573d6000803e3d6000fd5b505050506040513d601f19601f82011682018060405250810190610ca1919061375c565b905080610ce3576040517f08c379a0000000000000000000000000000000000000000000000000000000008152600401610cda906137d5565b60405180910390fd5b3373ffffffffffffffffffffffffffffffffffffffff167f7084f5476618d8e60b11ef0d7d3f06914655adb8793e28ff7f018d4c76d505d586604051610d299190612f27565b60405180910390a250505050610d3d612805565b50565b610d49826108ec565b610d528161280e565b610d5c8383612822565b505050565b610d69612902565b73ffffffffffffffffffffffffffffffffffffffff168173ffffffffffffffffffffffffffffffffffffffff1614610dd6576040517f08c379a0000000000000000000000000000000000000000000000000000000008152600401610dcd90613867565b60405180910390fd5b610de0828261290a565b5050565b610dec61230a565b600260009054906101000a900460ff1615610e3c576040517f08c379a0000000000000000000000000000000000000000000000000000000008152600401610e3390613549565b60405180910390fd5b610e4533612359565b600080600190505b600e54811161117f576000600d600083815260200190815260200160002090506000600f60003373ffffffffffffffffffffffffffffffffffffffff1673ffffffffffffffffffffffffffffffffffffffff168152602001908152602001600020600084815260200190815260200160002054905060008103610ed157505061116c565b60008111610f14576040517f08c379a0000000000000000000000000000000000000000000000000000000008152600401610f0b906138d3565b60405180910390fd5b8160020154818360030154610f299190613412565b1115610f6a576040517f08c379a0000000000000000000000000000000000000000000000000000000008152600401610f619061393f565b60405180910390fd5b808260040160009054906101000a900473ffffffffffffffffffffffffffffffffffffffff1673ffffffffffffffffffffffffffffffffffffffff166370a08231306040518263ffffffff1660e01b8152600401610fc8919061395f565b602060405180830381865afa158015610fe5573d6000803e3d6000fd5b505050506040513d601f19601f82011682018060405250810190611009919061398f565b101561104a576040517f08c379a000000000000000000000000000000000000000000000000000000000815260040161104190613a08565b60405180910390fd5b6000600f60003373ffffffffffffffffffffffffffffffffffffffff1673ffffffffffffffffffffffffffffffffffffffff1681526020019081526020016000206000858152602001908152602001600020819055508082600301546110b09190613412565b82600301819055506110e78260040160009054906101000a900473ffffffffffffffffffffffffffffffffffffffff1633836129eb565b80846110f39190613412565b93503373ffffffffffffffffffffffffffffffffffffffff167ff80b6d248ca65e589d3f24c7ce36e2df22ba16ba4e7656aad67e114abbe971d2828460040160009054906101000a900473ffffffffffffffffffffffffffffffffffffffff16604051611161929190613a28565b60405180910390a250505b808061117790613446565b915050610e4d565b50600081116111c3576040517f08c379a00000000000000000000000000000000000000000000000000000000081526004016111ba90613a9d565b60405180910390fd5b506111cc612805565b565b6111d6612e5d565b600860008473ffffffffffffffffffffffffffffffffffffffff1673ffffffffffffffffffffffffffffffffffffffff16815260200190815260200160002080549050821061125a576040517f08c379a000000000000000000000000000000000000000000000000000000000815260040161125190613b09565b60405180910390fd5b600860008473ffffffffffffffffffffffffffffffffffffffff1673ffffffffffffffffffffffffffffffffffffffff16815260200190815260200160002082815481106112ab576112aa6134bd565b5b90600052602060002090600302016040518060600160405290816000820154815260200160018201548152602001600282015481525050905092915050565b6000801b6112f78161280e565b6000600260006101000a81548160ff02191690831515021790555050565b7f6393fa734211156fcc8c7dda6b0650f5c731d4c838c1db43445a149aa2f5b6fe81565b600080600860008573ffffffffffffffffffffffffffffffffffffffff1673ffffffffffffffffffffffffffffffffffffffff168152602001908152602001600020905060008180549050036113935760009150506114c1565b600080600183805490506113a79190613667565b90505b8082116114b9576000600282846113c19190613412565b6113cb9190613b58565b9050858482815481106113e1576113e06134bd565b5b9060005260206000209060030201600101541161148e57600184805490506114099190613667565b811480611445575085846001836114209190613412565b81548110611431576114306134bd565b5b906000526020600020906003020160010154115b1561147a5783818154811061145d5761145c6134bd565b5b9060005260206000209060030201600001549450505050506114c1565b6001816114879190613412565b92506114b3565b600081036114a35760009450505050506114c1565b6001816114b09190613667565b91505b506113aa565b600093505050505b92915050565b600080600190505b600e54811161151357600d600082815260200190815260200160002060010154421015611500576001915050611519565b808061150b90613446565b9150506114cf565b50600090505b90565b600a81565b6000600460008373ffffffffffffffffffffffffffffffffffffffff1673ffffffffffffffffffffffffffffffffffffffff168152602001908152602001600020549050919050565b7f000000000000000000000000000000000000000000000000000000000000000081565b6000600354905090565b6000801b6115a58161280e565b6001600260006101000a81548160ff02191690831515021790555050565b600e5481565b61271081565b7f6393fa734211156fcc8c7dda6b0650f5c731d4c838c1db43445a149aa2f5b6fe6115f98161280e565b81600c819055507f8114637a99d6dbde6e7e5125969a8ecbe5d143eedc597560c9c79a8cb9a6b5d08260405161162f9190612f27565b60405180910390a15050565b600080600084815260200190815260200160002060000160008373ffffffffffffffffffffffffffffffffffffffff1673ffffffffffffffffffffffffffffffffffffffff16815260200190815260200160002060009054906101000a900460ff16905092915050565b6000801b81565b670de0b6b3a764000081565b6116c061230a565b600260009054906101000a900460ff1615611710576040517f08c379a000000000000000000000000000000000000000000000000000000000815260040161170790613549565b60405180910390fd5b60008111611753576040517f08c379a000000000000000000000000000000000000000000000000000000000815260040161174a90613bd5565b60405180910390fd5b61175b6114c7565b61179a576040517f08c379a000000000000000000000000000000000000000000000000000000000815260040161179190613c67565b60405180910390fd5b6117a333612359565b806003546117b19190613412565b60038190555080600460003373ffffffffffffffffffffffffffffffffffffffff1673ffffffffffffffffffffffffffffffffffffffff168152602001908152602001600020546118029190613412565b600460003373ffffffffffffffffffffffffffffffffffffffff1673ffffffffffffffffffffffffffffffffffffffff1681526020019081526020016000208190555042600660003373ffffffffffffffffffffffffffffffffffffffff1673ffffffffffffffffffffffffffffffffffffffff16815260200190815260200160002081905550600760003373ffffffffffffffffffffffffffffffffffffffff1673ffffffffffffffffffffffffffffffffffffffff168152602001908152602001600020604051806040016040528083815260200142815250908060018154018082558091505060019003906000526020600020906002020160009091909190915060008201518160000155602082015181600101555050611925336125ed565b60007f000000000000000000000000000000000000000000000000000000000000000073ffffffffffffffffffffffffffffffffffffffff166323b872dd3330856040518463ffffffff1660e01b815260040161198493929190613c87565b6020604051808303816000875af11580156119a3573d6000803e3d6000fd5b505050506040513d601f19601f820116820180604052508101906119c7919061375c565b905080611a09576040517f08c379a0000000000000000000000000000000000000000000000000000000008152600401611a00906137d5565b60405180910390fd5b3373ffffffffffffffffffffffffffffffffffffffff167f9e71bc8eea02a63969f509818f2dafb9254532904319f9dbda79b67bd34a5f3d83604051611a4f9190612f27565b60405180910390a250611a60612805565b50565b62093a8081565b64e8d4a5100081565b611a7c826108ec565b611a858161280e565b611a8f838361290a565b505050565b600080600b8054905003611aab5760009050611bc3565b6000806001600b80549050611ac09190613667565b90505b808211611bbc57600060028284611ada9190613412565b611ae49190613b58565b90506000600b8281548110611afc57611afb6134bd565b5b90600052602060002001549050858111611b90576001600b80549050611b229190613667565b821480611b58575085600b600184611b3a9190613412565b81548110611b4b57611b4a6134bd565b5b9060005260206000200154115b15611b7c57600a600082815260200190815260200160002054945050505050611bc3565b600182611b899190613412565b9350611bb5565b60008203611ba5576000945050505050611bc3565b600182611bb29190613667565b92505b5050611ac3565b6000925050505b919050565b6000600860008373ffffffffffffffffffffffffffffffffffffffff1673ffffffffffffffffffffffffffffffffffffffff168152602001908152602001600020805490509050919050565b7f6393fa734211156fcc8c7dda6b0650f5c731d4c838c1db43445a149aa2f5b6fe611c3e8161280e565b42851015611c81576040517f08c379a0000000000000000000000000000000000000000000000000000000008152600401611c7890613d0a565b60405180910390fd5b60008411611cc4576040517f08c379a0000000000000000000000000000000000000000000000000000000008152600401611cbb90613d76565b60405180910390fd5b60008311611d07576040517f08c379a0000000000000000000000000000000000000000000000000000000008152600401611cfe90613de2565b60405180910390fd5b60008273ffffffffffffffffffffffffffffffffffffffff166370a08231306040518263ffffffff1660e01b8152600401611d42919061395f565b602060405180830381865afa158015611d5f573d6000803e3d6000fd5b505050506040513d601f19601f82011682018060405250810190611d83919061398f565b905083811015611dc8576040517f08c379a0000000000000000000000000000000000000000000000000000000008152600401611dbf90613e4e565b60405180910390fd5b6000600e60008154611dd990613446565b91905081905590506040518060a001604052808881526020018789611dfe9190613412565b8152602001868152602001600081526020018573ffffffffffffffffffffffffffffffffffffffff16815250600d60008381526020019081526020016000206000820151816000015560208201518160010155604082015181600201556060820151816003015560808201518160040160006101000a81548173ffffffffffffffffffffffffffffffffffffffff021916908373ffffffffffffffffffffffffffffffffffffffff1602179055509050507f85396969f10b93e89b84ce058bbce90a809c86067bb94a5f0243dfe9f986894381604051611ede9190612f27565b60405180910390a150505050505050565b600080600090506000600760008573ffffffffffffffffffffffffffffffffffffffff1673ffffffffffffffffffffffffffffffffffffffff168152602001908152602001600020905060005b8180549050811015611fac576000828281548110611f5d57611f5c6134bd565b5b90600052602060002090600202019050600c548160010154611f7f9190613412565b4210611f9857806000015484611f959190613412565b93505b508080611fa490613446565b915050611f3c565b508192505050919050565b600080600d600084815260200190815260200160002090508060000154421015611fe557600091505061229a565b600081600001548260010154611ffb9190613667565b905060008111612040576040517f08c379a000000000000000000000000000000000000000000000000000000000815260040161203790613eba565b60405180910390fd5b6000612050868460000154611339565b905060006120618460000154611a94565b905060008214806120725750600081145b1561208457600094505050505061229a565b8360010154421061217b5760008460020154905060008282856120a79190613eda565b6120b19190613b58565b9050600f60008a73ffffffffffffffffffffffffffffffffffffffff1673ffffffffffffffffffffffffffffffffffffffff168152602001908152602001600020600089815260200190815260200160002054811161211157600061216e565b600f60008a73ffffffffffffffffffffffffffffffffffffffff1673ffffffffffffffffffffffffffffffffffffffff1681526020019081526020016000206000898152602001908152602001600020548161216d9190613667565b5b965050505050505061229a565b600084600001544261218d9190613667565b90508381111561219b578390505b6000848287600201546121ae9190613eda565b6121b89190613b58565b905060008382866121c99190613eda565b6121d39190613b58565b9050600f60008b73ffffffffffffffffffffffffffffffffffffffff1673ffffffffffffffffffffffffffffffffffffffff16815260200190815260200160002060008a8152602001908152602001600020548111612233576000612290565b600f60008b73ffffffffffffffffffffffffffffffffffffffff1673ffffffffffffffffffffffffffffffffffffffff16815260200190815260200160002060008a8152602001908152602001600020548161228f9190613667565b5b9750505050505050505b92915050565b60007f01ffc9a7000000000000000000000000000000000000000000000000000000007bffffffffffffffffffffffffffffffffffffffffffffffffffffffff1916827bffffffffffffffffffffffffffffffffffffffffffffffffffffffff1916149050919050565b60026001540361234f576040517f08c379a000000000000000000000000000000000000000000000000000000000815260040161234690613f68565b60405180910390fd5b6002600181905550565b6000600190505b600e5481116125e95760006123758383611fb7565b905060008111156125d5576000600d6000848152602001908152602001600020905060006123a7858360000154611339565b905060006123b88360000154611a94565b90506000821180156123ca5750600081115b156125d1576000818460020154846123e29190613eda565b6123ec9190613b58565b9050600085600f60008a73ffffffffffffffffffffffffffffffffffffffff1673ffffffffffffffffffffffffffffffffffffffff16815260200190815260200160002060008981526020019081526020016000205461244c9190613412565b90508181111561251457600f60008973ffffffffffffffffffffffffffffffffffffffff1673ffffffffffffffffffffffffffffffffffffffff16815260200190815260200160002060008881526020019081526020016000205482116124b4576000612511565b600f60008973ffffffffffffffffffffffffffffffffffffffff1673ffffffffffffffffffffffffffffffffffffffff168152602001908152602001600020600088815260200190815260200160002054826125109190613667565b5b95505b60008611156125ce5785600f60008a73ffffffffffffffffffffffffffffffffffffffff1673ffffffffffffffffffffffffffffffffffffffff1681526020019081526020016000206000898152602001908152602001600020546125799190613412565b600f60008a73ffffffffffffffffffffffffffffffffffffffff1673ffffffffffffffffffffffffffffffffffffffff1681526020019081526020016000206000898152602001908152602001600020819055505b50505b5050505b5080806125e190613446565b915050612360565b5050565b6000600460008373ffffffffffffffffffffffffffffffffffffffff1673ffffffffffffffffffffffffffffffffffffffff1681526020019081526020016000205490506000429050600860008473ffffffffffffffffffffffffffffffffffffffff1673ffffffffffffffffffffffffffffffffffffffff1681526020019081526020016000206040518060600160405280848152602001838152602001600354815250908060018154018082558091505060019003906000526020600020906003020160009091909190915060008201518160000155602082015181600101556040820151816002015550506001600860008573ffffffffffffffffffffffffffffffffffffffff1673ffffffffffffffffffffffffffffffffffffffff1681526020019081526020016000208054905061272a9190613667565b600960008573ffffffffffffffffffffffffffffffffffffffff1673ffffffffffffffffffffffffffffffffffffffff16815260200190815260200160002081905550600354600a600083815260200190815260200160002081905550600b8190806001815401808255809150506001900390600052602060002001600090919091909150558273ffffffffffffffffffffffffffffffffffffffff167f4939535cba104d1128c93f57b3c3c9f3544eee330eee1eb1b1923ffdcdef5f3b83836040516127f8929190613f88565b60405180910390a2505050565b60018081905550565b61281f8161281a612902565b612b6f565b50565b61282c828261163b565b6128fe57600160008084815260200190815260200160002060000160008373ffffffffffffffffffffffffffffffffffffffff1673ffffffffffffffffffffffffffffffffffffffff16815260200190815260200160002060006101000a81548160ff0219169083151502179055506128a3612902565b73ffffffffffffffffffffffffffffffffffffffff168173ffffffffffffffffffffffffffffffffffffffff16837f2f8788117e7eff1d82e926ec794901d17c78024a50270940304540a733656f0d60405160405180910390a45b5050565b600033905090565b612914828261163b565b156129e757600080600084815260200190815260200160002060000160008373ffffffffffffffffffffffffffffffffffffffff1673ffffffffffffffffffffffffffffffffffffffff16815260200190815260200160002060006101000a81548160ff02191690831515021790555061298c612902565b73ffffffffffffffffffffffffffffffffffffffff168173ffffffffffffffffffffffffffffffffffffffff16837ff6391f5c32d9c69d2a47ea670b442974b53935d1edc7fd64eb21e047a839171b60405160405180910390a45b5050565b808373ffffffffffffffffffffffffffffffffffffffff166370a08231306040518263ffffffff1660e01b8152600401612a25919061395f565b602060405180830381865afa158015612a42573d6000803e3d6000fd5b505050506040513d601f19601f82011682018060405250810190612a66919061398f565b1015612aa7576040517f08c379a0000000000000000000000000000000000000000000000000000000008152600401612a9e90613ffd565b60405180910390fd5b60008373ffffffffffffffffffffffffffffffffffffffff1663a9059cbb84846040518363ffffffff1660e01b8152600401612ae4929190613707565b6020604051808303816000875af1158015612b03573d6000803e3d6000fd5b505050506040513d601f19601f82011682018060405250810190612b27919061375c565b905080612b69576040517f08c379a0000000000000000000000000000000000000000000000000000000008152600401612b60906137d5565b60405180910390fd5b50505050565b612b79828261163b565b612bf057612b8681612bf4565b612b948360001c6020612c21565b604051602001612ba5929190614126565b6040516020818303038152906040526040517f08c379a0000000000000000000000000000000000000000000000000000000008152600401612be791906141aa565b60405180910390fd5b5050565b6060612c1a8273ffffffffffffffffffffffffffffffffffffffff16601460ff16612c21565b9050919050565b606060006002836002612c349190613eda565b612c3e9190613412565b67ffffffffffffffff811115612c5757612c5661348e565b5b6040519080825280601f01601f191660200182016040528015612c895781602001600182028036833780820191505090505b5090507f300000000000000000000000000000000000000000000000000000000000000081600081518110612cc157612cc06134bd565b5b60200101907effffffffffffffffffffffffffffffffffffffffffffffffffffffffffffff1916908160001a9053507f780000000000000000000000000000000000000000000000000000000000000081600181518110612d2557612d246134bd565b5b60200101907effffffffffffffffffffffffffffffffffffffffffffffffffffffffffffff1916908160001a90535060006001846002612d659190613eda565b612d6f9190613412565b90505b6001811115612e0f577f3031323334353637383961626364656600000000000000000000000000000000600f861660108110612db157612db06134bd565b5b1a60f81b828281518110612dc857612dc76134bd565b5b60200101907effffffffffffffffffffffffffffffffffffffffffffffffffffffffffffff1916908160001a905350600485901c945080612e08906141cc565b9050612d72565b5060008414612e53576040517f08c379a0000000000000000000000000000000000000000000000000000000008152600401612e4a90614241565b60405180910390fd5b8091505092915050565b60405180606001604052806000815260200160008152602001600081525090565b600080fd5b600073ffffffffffffffffffffffffffffffffffffffff82169050919050565b6000612eae82612e83565b9050919050565b612ebe81612ea3565b8114612ec957600080fd5b50565b600081359050612edb81612eb5565b92915050565b600060208284031215612ef757612ef6612e7e565b5b6000612f0584828501612ecc565b91505092915050565b6000819050919050565b612f2181612f0e565b82525050565b6000602082019050612f3c6000830184612f18565b92915050565b60007fffffffff0000000000000000000000000000000000000000000000000000000082169050919050565b612f7781612f42565b8114612f8257600080fd5b50565b600081359050612f9481612f6e565b92915050565b600060208284031215612fb057612faf612e7e565b5b6000612fbe84828501612f85565b91505092915050565b60008115159050919050565b612fdc81612fc7565b82525050565b6000602082019050612ff76000830184612fd3565b92915050565b600081519050919050565b600082825260208201905092915050565b6000819050602082019050919050565b61303281612f0e565b82525050565b60006130448383613029565b60208301905092915050565b6000602082019050919050565b600061306882612ffd565b6130728185613008565b935061307d83613019565b8060005b838110156130ae5781516130958882613038565b97506130a083613050565b925050600181019050613081565b5085935050505092915050565b600060208201905081810360008301526130d5818461305d565b905092915050565b6130e681612f0e565b81146130f157600080fd5b50565b600081359050613103816130dd565b92915050565b60006020828403121561311f5761311e612e7e565b5b600061312d848285016130f4565b91505092915050565b61313f81612ea3565b82525050565b600060a08201905061315a6000830188612f18565b6131676020830187612f18565b6131746040830186612f18565b6131816060830185612f18565b61318e6080830184613136565b9695505050505050565b6000819050919050565b6131ab81613198565b81146131b657600080fd5b50565b6000813590506131c8816131a2565b92915050565b6000602082840312156131e4576131e3612e7e565b5b60006131f2848285016131b9565b91505092915050565b61320481613198565b82525050565b600060208201905061321f60008301846131fb565b92915050565b6000806040838503121561323c5761323b612e7e565b5b600061324a858286016131b9565b925050602061325b85828601612ecc565b9150509250929050565b6000806040838503121561327c5761327b612e7e565b5b600061328a85828601612ecc565b925050602061329b858286016130f4565b9150509250929050565b6060820160008201516132bb6000850182613029565b5060208201516132ce6020850182613029565b5060408201516132e16040850182613029565b50505050565b60006060820190506132fc60008301846132a5565b92915050565b6000819050919050565b600061332761332261331d84612e83565b613302565b612e83565b9050919050565b60006133398261330c565b9050919050565b600061334b8261332e565b9050919050565b61335b81613340565b82525050565b60006020820190506133766000830184613352565b92915050565b6000806000806080858703121561339657613395612e7e565b5b60006133a4878288016130f4565b94505060206133b5878288016130f4565b93505060406133c6878288016130f4565b92505060606133d787828801612ecc565b91505092959194509250565b7f4e487b7100000000000000000000000000000000000000000000000000000000600052601160045260246000fd5b600061341d82612f0e565b915061342883612f0e565b92508282019050808211156134405761343f6133e3565b5b92915050565b600061345182612f0e565b91507fffffffffffffffffffffffffffffffffffffffffffffffffffffffffffffffff8203613483576134826133e3565b5b600182019050919050565b7f4e487b7100000000000000000000000000000000000000000000000000000000600052604160045260246000fd5b7f4e487b7100000000000000000000000000000000000000000000000000000000600052603260045260246000fd5b600082825260208201905092915050565b7f436f6e7472616374206973207061757365640000000000000000000000000000600082015250565b60006135336012836134ec565b915061353e826134fd565b602082019050919050565b6000602082019050818103600083015261356281613526565b9050919050565b7f43616e6e6f742077697468647261772030000000000000000000000000000000600082015250565b600061359f6011836134ec565b91506135aa82613569565b602082019050919050565b600060208201905081810360008301526135ce81613592565b9050919050565b7f496e73756666696369656e7420776974686472617761626c652062616c616e6360008201527f6500000000000000000000000000000000000000000000000000000000000000602082015250565b60006136316021836134ec565b915061363c826135d5565b604082019050919050565b6000602082019050818103600083015261366081613624565b9050919050565b600061367282612f0e565b915061367d83612f0e565b9250828203905081811115613695576136946133e3565b5b92915050565b7f5769746864726177616c2063616c63756c6174696f6e206572726f7200000000600082015250565b60006136d1601c836134ec565b91506136dc8261369b565b602082019050919050565b60006020820190508181036000830152613700816136c4565b9050919050565b600060408201905061371c6000830185613136565b6137296020830184612f18565b9392505050565b61373981612fc7565b811461374457600080fd5b50565b60008151905061375681613730565b92915050565b60006020828403121561377257613771612e7e565b5b600061378084828501613747565b91505092915050565b7f5472616e73666572206661696c65640000000000000000000000000000000000600082015250565b60006137bf600f836134ec565b91506137ca82613789565b602082019050919050565b600060208201905081810360008301526137ee816137b2565b9050919050565b7f416363657373436f6e74726f6c3a2063616e206f6e6c792072656e6f756e636560008201527f20726f6c657320666f722073656c660000000000000000000000000000000000602082015250565b6000613851602f836134ec565b915061385c826137f5565b604082019050919050565b6000602082019050818103600083015261388081613844565b9050919050565b7f4e6f7468696e6720746f20636c61696d00000000000000000000000000000000600082015250565b60006138bd6010836134ec565b91506138c882613887565b602082019050919050565b600060208201905081810360008301526138ec816138b0565b9050919050565b7f436c61696d206578636565647320746f74616c20726577617264730000000000600082015250565b6000613929601b836134ec565b9150613934826138f3565b602082019050919050565b600060208201905081810360008301526139588161391c565b9050919050565b60006020820190506139746000830184613136565b92915050565b600081519050613989816130dd565b92915050565b6000602082840312156139a5576139a4612e7e565b5b60006139b38482850161397a565b91505092915050565b7f496e73756666696369656e7420636f6e74726163742062616c616e6365000000600082015250565b60006139f2601d836134ec565b91506139fd826139bc565b602082019050919050565b60006020820190508181036000830152613a21816139e5565b9050919050565b6000604082019050613a3d6000830185612f18565b613a4a6020830184613136565b9392505050565b7f4e6f207265776172647300000000000000000000000000000000000000000000600082015250565b6000613a87600a836134ec565b9150613a9282613a51565b602082019050919050565b60006020820190508181036000830152613ab681613a7a565b9050919050565b7f496e646578206f7574206f6620626f756e647300000000000000000000000000600082015250565b6000613af36013836134ec565b9150613afe82613abd565b602082019050919050565b60006020820190508181036000830152613b2281613ae6565b9050919050565b7f4e487b7100000000000000000000000000000000000000000000000000000000600052601260045260246000fd5b6000613b6382612f0e565b9150613b6e83612f0e565b925082613b7e57613b7d613b29565b5b828204905092915050565b7f416d6f756e74206d757374206265203e20300000000000000000000000000000600082015250565b6000613bbf6012836134ec565b9150613bca82613b89565b602082019050919050565b60006020820190508181036000830152613bee81613bb2565b9050919050565b7f4e6f2061637469766520726577617264207363686564756c657320617661696c60008201527f61626c6500000000000000000000000000000000000000000000000000000000602082015250565b6000613c516024836134ec565b9150613c5c82613bf5565b604082019050919050565b60006020820190508181036000830152613c8081613c44565b9050919050565b6000606082019050613c9c6000830186613136565b613ca96020830185613136565b613cb66040830184612f18565b949350505050565b7f53746172742074696d6520696e20706173740000000000000000000000000000600082015250565b6000613cf46012836134ec565b9150613cff82613cbe565b602082019050919050565b60006020820190508181036000830152613d2381613ce7565b9050919050565b7f496e76616c6964206475726174696f6e00000000000000000000000000000000600082015250565b6000613d606010836134ec565b9150613d6b82613d2a565b602082019050919050565b60006020820190508181036000830152613d8f81613d53565b9050919050565b7f496e76616c69642072657761726420616d6f756e740000000000000000000000600082015250565b6000613dcc6015836134ec565b9150613dd782613d96565b602082019050919050565b60006020820190508181036000830152613dfb81613dbf565b9050919050565b7f496e73756666696369656e742072657761726420746f6b656e73000000000000600082015250565b6000613e38601a836134ec565b9150613e4382613e02565b602082019050919050565b60006020820190508181036000830152613e6781613e2b565b9050919050565b7f496e76616c6964207363686564756c65206475726174696f6e00000000000000600082015250565b6000613ea46019836134ec565b9150613eaf82613e6e565b602082019050919050565b60006020820190508181036000830152613ed381613e97565b9050919050565b6000613ee582612f0e565b9150613ef083612f0e565b9250828202613efe81612f0e565b91508282048414831517613f1557613f146133e3565b5b5092915050565b7f5265656e7472616e637947756172643a207265656e7472616e742063616c6c00600082015250565b6000613f52601f836134ec565b9150613f5d82613f1c565b602082019050919050565b60006020820190508181036000830152613f8181613f45565b9050919050565b6000604082019050613f9d6000830185612f18565b613faa6020830184612f18565b9392505050565b7f496e73756666696369656e74207265776172642062616c616e63650000000000600082015250565b6000613fe7601b836134ec565b9150613ff282613fb1565b602082019050919050565b6000602082019050818103600083015261401681613fda565b9050919050565b600081905092915050565b7f416363657373436f6e74726f6c3a206163636f756e7420000000000000000000600082015250565b600061405e60178361401d565b915061406982614028565b601782019050919050565b600081519050919050565b60005b8381101561409d578082015181840152602081019050614082565b60008484015250505050565b60006140b482614074565b6140be818561401d565b93506140ce81856020860161407f565b80840191505092915050565b7f206973206d697373696e6720726f6c6520000000000000000000000000000000600082015250565b600061411060118361401d565b915061411b826140da565b601182019050919050565b600061413182614051565b915061413d82856140a9565b915061414882614103565b915061415482846140a9565b91508190509392505050565b6000601f19601f8301169050919050565b600061417c82614074565b61418681856134ec565b935061419681856020860161407f565b61419f81614160565b840191505092915050565b600060208201905081810360008301526141c48184614171565b905092915050565b60006141d782612f0e565b9150600082036141ea576141e96133e3565b5b600182039050919050565b7f537472696e67733a20686578206c656e67746820696e73756666696369656e74600082015250565b600061422b6020836134ec565b9150614236826141f5565b602082019050919050565b6000602082019050818103600083015261425a8161421e565b905091905056fea2646970667358221220574ebb6a45afad760f474fee899be241ac0fe24359351b5812f0100d40c1b9f264736f6c63430008140033",
  "linkReferences": {},
  "deployedLinkReferences": {}
}