{
  "_format": "hh-sol-artifact-1",
  "contractName": "NFTm",
  "sourceName": "contracts/nft/NFTm.sol",
  "abi": [
    {
      "inputs": [
        {
          "internalType": "address",
          "name": "adminControlAddress",
          "type": "address"
        },
        {
          "internalType": "address",
          "name": "initialOwner",
          "type": "address"
        },
        {
          "internalType": "address",
          "name": "_nftiContract",
          "type": "address"
        }
      ],
      "stateMutability": "nonpayable",
      "type": "constructor"
    },
    {
      "anonymous": false,
      "inputs": [
        {
          "indexed": true,
          "internalType": "address",
          "name": "owner",
          "type": "address"
        },
        {
          "indexed": true,
          "internalType": "address",
          "name": "approved",
          "type": "address"
        },
        {
          "indexed": true,
          "internalType": "uint256",
          "name": "tokenId",
          "type": "uint256"
        }
      ],
      "name": "Approval",
      "type": "event"
    },
    {
      "anonymous": false,
      "inputs": [
        {
          "indexed": true,
          "internalType": "address",
          "name": "owner",
          "type": "address"
        },
        {
          "indexed": true,
          "internalType": "address",
          "name": "operator",
          "type": "address"
        },
        {
          "indexed": false,
          "internalType": "bool",
          "name": "approved",
          "type": "bool"
        }
      ],
      "name": "ApprovalForAll",
      "type": "event"
    },
    {
      "anonymous": false,
      "inputs": [
        {
          "indexed": false,
          "internalType": "address",
          "name": "newController",
          "type": "address"
        }
      ],
      "name": "ControllershipTransferred",
      "type": "event"
    },
    {
      "anonymous": false,
      "inputs": [
        {
          "indexed": true,
          "internalType": "uint256",
          "name": "tokenId",
          "type": "uint256"
        }
      ],
      "name": "LegalRecordUpdated",
      "type": "event"
    },
    {
      "anonymous": false,
      "inputs": [
        {
          "indexed": true,
          "internalType": "uint256",
          "name": "tokenId",
          "type": "uint256"
        }
      ],
      "name": "MetadataUpdated",
      "type": "event"
    },
    {
      "anonymous": false,
      "inputs": [
        {
          "indexed": true,
          "internalType": "address",
          "name": "minter",
          "type": "address"
        },
        {
          "indexed": true,
          "internalType": "address",
          "name": "admin",
          "type": "address"
        }
      ],
      "name": "MinterAdded",
      "type": "event"
    },
    {
      "anonymous": false,
      "inputs": [
        {
          "indexed": true,
          "internalType": "address",
          "name": "minter",
          "type": "address"
        },
        {
          "indexed": true,
          "internalType": "address",
          "name": "admin",
          "type": "address"
        }
      ],
      "name": "MinterRemoved",
      "type": "event"
    },
    {
      "anonymous": false,
      "inputs": [
        {
          "indexed": true,
          "internalType": "uint256",
          "name": "nftiTokenId",
          "type": "uint256"
        },
        {
          "indexed": true,
          "internalType": "address",
          "name": "operator",
          "type": "address"
        },
        {
          "indexed": false,
          "internalType": "uint256",
          "name": "timestamp",
          "type": "uint256"
        }
      ],
      "name": "NFTiBurnHandled",
      "type": "event"
    },
    {
      "anonymous": false,
      "inputs": [
        {
          "indexed": true,
          "internalType": "address",
          "name": "nftiContractAddress",
          "type": "address"
        }
      ],
      "name": "NFTiContractSet",
      "type": "event"
    },
    {
      "anonymous": false,
      "inputs": [
        {
          "indexed": true,
          "internalType": "uint256",
          "name": "nftmTokenId",
          "type": "uint256"
        },
        {
          "indexed": true,
          "internalType": "uint256",
          "name": "nftiTokenId",
          "type": "uint256"
        }
      ],
      "name": "NFTmOrphaned",
      "type": "event"
    },
    {
      "anonymous": false,
      "inputs": [
        {
          "indexed": true,
          "internalType": "address",
          "name": "previousOwner",
          "type": "address"
        },
        {
          "indexed": true,
          "internalType": "address",
          "name": "newOwner",
          "type": "address"
        }
      ],
      "name": "OwnershipTransferred",
      "type": "event"
    },
    {
      "anonymous": false,
      "inputs": [
        {
          "indexed": true,
          "internalType": "address",
          "name": "from",
          "type": "address"
        },
        {
          "indexed": true,
          "internalType": "address",
          "name": "to",
          "type": "address"
        },
        {
          "indexed": true,
          "internalType": "uint256",
          "name": "tokenId",
          "type": "uint256"
        }
      ],
      "name": "Transfer",
      "type": "event"
    },
    {
      "inputs": [
        {
          "internalType": "address",
          "name": "minter",
          "type": "address"
        }
      ],
      "name": "addApprovedMinter",
      "outputs": [],
      "stateMutability": "nonpayable",
      "type": "function"
    },
    {
      "inputs": [],
      "name": "adminController",
      "outputs": [
        {
          "internalType": "contract IAdminControl",
          "name": "",
          "type": "address"
        }
      ],
      "stateMutability": "view",
      "type": "function"
    },
    {
      "inputs": [
        {
          "internalType": "address",
          "name": "to",
          "type": "address"
        },
        {
          "internalType": "uint256",
          "name": "tokenId",
          "type": "uint256"
        }
      ],
      "name": "approve",
      "outputs": [],
      "stateMutability": "nonpayable",
      "type": "function"
    },
    {
      "inputs": [
        {
          "internalType": "address",
          "name": "owner",
          "type": "address"
        }
      ],
      "name": "balanceOf",
      "outputs": [
        {
          "internalType": "uint256",
          "name": "",
          "type": "uint256"
        }
      ],
      "stateMutability": "view",
      "type": "function"
    },
    {
      "inputs": [
        {
          "internalType": "uint256",
          "name": "tokenId",
          "type": "uint256"
        }
      ],
      "name": "getApproved",
      "outputs": [
        {
          "internalType": "address",
          "name": "",
          "type": "address"
        }
      ],
      "stateMutability": "view",
      "type": "function"
    },
    {
      "inputs": [
        {
          "internalType": "uint256",
          "name": "nftmTokenId",
          "type": "uint256"
        }
      ],
      "name": "getNFTiForToken",
      "outputs": [
        {
          "internalType": "uint256",
          "name": "",
          "type": "uint256"
        }
      ],
      "stateMutability": "view",
      "type": "function"
    },
    {
      "inputs": [
        {
          "internalType": "uint256",
          "name": "nftiTokenId",
          "type": "uint256"
        }
      ],
      "name": "handleNFTiBurn",
      "outputs": [],
      "stateMutability": "nonpayable",
      "type": "function"
    },
    {
      "inputs": [
        {
          "internalType": "address",
          "name": "owner",
          "type": "address"
        },
        {
          "internalType": "address",
          "name": "operator",
          "type": "address"
        }
      ],
      "name": "isApprovedForAll",
      "outputs": [
        {
          "internalType": "bool",
          "name": "",
          "type": "bool"
        }
      ],
      "stateMutability": "view",
      "type": "function"
    },
    {
      "inputs": [
        {
          "internalType": "address",
          "name": "account",
          "type": "address"
        }
      ],
      "name": "isApprovedMinter",
      "outputs": [
        {
          "internalType": "bool",
          "name": "",
          "type": "bool"
        }
      ],
      "stateMutability": "view",
      "type": "function"
    },
    {
      "inputs": [
        {
          "internalType": "uint256",
          "name": "nftmTokenId",
          "type": "uint256"
        }
      ],
      "name": "isOrphaned",
      "outputs": [
        {
          "internalType": "bool",
          "name": "",
          "type": "bool"
        }
      ],
      "stateMutability": "view",
      "type": "function"
    },
    {
      "inputs": [
        {
          "internalType": "uint256",
          "name": "",
          "type": "uint256"
        }
      ],
      "name": "legalRecords",
      "outputs": [
        {
          "internalType": "string",
          "name": "LLCNumber",
          "type": "string"
        },
        {
          "internalType": "string",
          "name": "jurisdiction",
          "type": "string"
        },
        {
          "internalType": "uint256",
          "name": "registryDate",
          "type": "uint256"
        }
      ],
      "stateMutability": "view",
      "type": "function"
    },
    {
      "inputs": [
        {
          "internalType": "address",
          "name": "to",
          "type": "address"
        },
        {
          "internalType": "string",
          "name": "tokenURI_",
          "type": "string"
        },
        {
          "components": [
            {
              "internalType": "string",
              "name": "LLCNumber",
              "type": "string"
            },
            {
              "internalType": "string",
              "name": "jurisdiction",
              "type": "string"
            },
            {
              "internalType": "uint256",
              "name": "registryDate",
              "type": "uint256"
            }
          ],
          "internalType": "struct NFTm.LegalInfo",
          "name": "legalInfo",
          "type": "tuple"
        },
        {
          "internalType": "uint256",
          "name": "nftiTokenId",
          "type": "uint256"
        }
      ],
      "name": "mintPropertyNFT",
      "outputs": [
        {
          "internalType": "uint256",
          "name": "",
          "type": "uint256"
        }
      ],
      "stateMutability": "nonpayable",
      "type": "function"
    },
    {
      "inputs": [],
      "name": "name",
      "outputs": [
        {
          "internalType": "string",
          "name": "",
          "type": "string"
        }
      ],
      "stateMutability": "view",
      "type": "function"
    },
    {
      "inputs": [],
      "name": "nftiContract",
      "outputs": [
        {
          "internalType": "address",
          "name": "",
          "type": "address"
        }
      ],
      "stateMutability": "view",
      "type": "function"
    },
    {
      "inputs": [
        {
          "internalType": "uint256",
          "name": "",
          "type": "uint256"
        }
      ],
      "name": "nftiToNftm",
      "outputs": [
        {
          "internalType": "uint256",
          "name": "",
          "type": "uint256"
        }
      ],
      "stateMutability": "view",
      "type": "function"
    },
    {
      "inputs": [],
      "name": "owner",
      "outputs": [
        {
          "internalType": "address",
          "name": "",
          "type": "address"
        }
      ],
      "stateMutability": "view",
      "type": "function"
    },
    {
      "inputs": [
        {
          "internalType": "uint256",
          "name": "tokenId",
          "type": "uint256"
        }
      ],
      "name": "ownerOf",
      "outputs": [
        {
          "internalType": "address",
          "name": "",
          "type": "address"
        }
      ],
      "stateMutability": "view",
      "type": "function"
    },
    {
      "inputs": [],
      "name": "renounceOwnership",
      "outputs": [],
      "stateMutability": "nonpayable",
      "type": "function"
    },
    {
      "inputs": [
        {
          "internalType": "address",
          "name": "minter",
          "type": "address"
        }
      ],
      "name": "revokeMinter",
      "outputs": [],
      "stateMutability": "nonpayable",
      "type": "function"
    },
    {
      "inputs": [
        {
          "internalType": "address",
          "name": "from",
          "type": "address"
        },
        {
          "internalType": "address",
          "name": "to",
          "type": "address"
        },
        {
          "internalType": "uint256",
          "name": "tokenId",
          "type": "uint256"
        }
      ],
      "name": "safeTransferFrom",
      "outputs": [],
      "stateMutability": "nonpayable",
      "type": "function"
    },
    {
      "inputs": [
        {
          "internalType": "address",
          "name": "from",
          "type": "address"
        },
        {
          "internalType": "address",
          "name": "to",
          "type": "address"
        },
        {
          "internalType": "uint256",
          "name": "tokenId",
          "type": "uint256"
        },
        {
          "internalType": "bytes",
          "name": "data",
          "type": "bytes"
        }
      ],
      "name": "safeTransferFrom",
      "outputs": [],
      "stateMutability": "nonpayable",
      "type": "function"
    },
    {
      "inputs": [
        {
          "internalType": "address",
          "name": "newController",
          "type": "address"
        }
      ],
      "name": "setAdminController",
      "outputs": [],
      "stateMutability": "nonpayable",
      "type": "function"
    },
    {
      "inputs": [
        {
          "internalType": "address",
          "name": "operator",
          "type": "address"
        },
        {
          "internalType": "bool",
          "name": "approved",
          "type": "bool"
        }
      ],
      "name": "setApprovalForAll",
      "outputs": [],
      "stateMutability": "nonpayable",
      "type": "function"
    },
    {
      "inputs": [
        {
          "internalType": "address",
          "name": "_nftiContract",
          "type": "address"
        }
      ],
      "name": "setNFTiContract",
      "outputs": [],
      "stateMutability": "nonpayable",
      "type": "function"
    },
    {
      "inputs": [
        {
          "internalType": "bytes4",
          "name": "interfaceId",
          "type": "bytes4"
        }
      ],
      "name": "supportsInterface",
      "outputs": [
        {
          "internalType": "bool",
          "name": "",
          "type": "bool"
        }
      ],
      "stateMutability": "view",
      "type": "function"
    },
    {
      "inputs": [],
      "name": "symbol",
      "outputs": [
        {
          "internalType": "string",
          "name": "",
          "type": "string"
        }
      ],
      "stateMutability": "view",
      "type": "function"
    },
    {
      "inputs": [
        {
          "internalType": "uint256",
          "name": "tokenId",
          "type": "uint256"
        }
      ],
      "name": "tokenURI",
      "outputs": [
        {
          "internalType": "string",
          "name": "",
          "type": "string"
        }
      ],
      "stateMutability": "view",
      "type": "function"
    },
    {
      "inputs": [],
      "name": "totalSupply",
      "outputs": [
        {
          "internalType": "uint256",
          "name": "",
          "type": "uint256"
        }
      ],
      "stateMutability": "view",
      "type": "function"
    },
    {
      "inputs": [
        {
          "internalType": "address",
          "name": "from",
          "type": "address"
        },
        {
          "internalType": "address",
          "name": "to",
          "type": "address"
        },
        {
          "internalType": "uint256",
          "name": "tokenId",
          "type": "uint256"
        }
      ],
      "name": "transferFrom",
      "outputs": [],
      "stateMutability": "nonpayable",
      "type": "function"
    },
    {
      "inputs": [
        {
          "internalType": "address",
          "name": "newOwner",
          "type": "address"
        }
      ],
      "name": "transferOwnership",
      "outputs": [],
      "stateMutability": "nonpayable",
      "type": "function"
    },
    {
      "inputs": [
        {
          "internalType": "uint256",
          "name": "tokenId",
          "type": "uint256"
        },
        {
          "components": [
            {
              "internalType": "string",
              "name": "LLCNumber",
              "type": "string"
            },
            {
              "internalType": "string",
              "name": "jurisdiction",
              "type": "string"
            },
            {
              "internalType": "uint256",
              "name": "registryDate",
              "type": "uint256"
            }
          ],
          "internalType": "struct NFTm.LegalInfo",
          "name": "newInfo",
          "type": "tuple"
        }
      ],
      "name": "updateLegalRecord",
      "outputs": [],
      "stateMutability": "nonpayable",
      "type": "function"
    }
  ],
  "bytecode": "0x608034620003de57601f906001600160401b03601f1962002b2f3881900385810183168501919084831186841017620003c857808692606094604052833981010312620003de57620000518362000403565b926020946200007060406200006888850162000403565b930162000403565b936200007b620003e3565b91600d83526c1499585b115cdd185d19539195609a1b888401526200009f620003e3565b60048152631493919560e21b89820152835198838a11620003c8576000998a54956001968781811c91168015620003bd575b84821014620003a95790818684931162000353575b5083908d878411600114620002f35792620002e7575b5050600019600383901b1c191690861b178a555b8151938411620002d35784548581811c91168015620002c8575b82821014620002b4578381116200026c575b5080928411600114620001fd575062000182955088919083620001f1575b5050600019600383901b1c191690821b1781555b620001793362000418565b60075562000418565b600980546001600160a01b03199081166001600160a01b039485161790915591169182620001bb575b6040516126cd9081620004628239f35b827f516e2449c651c4584cb9e767045ca7d95192c02dc5bf94aebbc176f02587cd9c92600a541617600a5580a2388080620001ab565b0151905038806200015a565b929394958416858a52838a20938a905b828210620002545750509185949291836200018298979593106200023a575b505050811b0181556200016e565b015160001960f88460031b161c191690553880806200022c565b8088869782949787015181550196019401906200020d565b858b52818b208480870160051c820192848810620002aa575b0160051c019086905b8281106200029e5750506200013c565b8c81550186906200028e565b9250819262000285565b634e487b7160e01b8b52602260045260248bfd5b90607f16906200012a565b634e487b7160e01b8a52604160045260248afd5b015190503880620000fc565b91908b8a9516838052868420935b878282106200033c575050841162000322575b505050811b018a5562000110565b015160001960f88460031b161c1916905538808062000314565b8385015186558c9790950194938401930162000301565b9091508c8052838d208680850160051c8201928686106200039f575b859493910160051c9091019089908f5b8382106200039057505050620000e6565b81558594508a91018f6200037f565b925081926200036f565b634e487b7160e01b8d52602260045260248dfd5b90607f1690620000d1565b634e487b7160e01b600052604160045260246000fd5b600080fd5b60408051919082016001600160401b03811183821017620003c857604052565b51906001600160a01b0382168203620003de57565b600680546001600160a01b039283166001600160a01b0319821681179092559091167f8be0079c531659141344cd1fd0a4f28419497f9722a3daafe3b4186f6b6457e0600080a356fe608080604052600436101561001357600080fd5b60003560e01c90816301ffc9a714611c145750806306fdde0314611b71578063081812fc14611b53578063095ea7b3146119d9578063164fd149146119ad57806318160ddd1461198f578063237c5763146118e157806323b872dd146118bd5780632d14e7fb146118515780633a3d146f1461181257806342842e0e146117df57806351f6d6771461159b578063592eb924146115725780636352211e1461154257806370a08231146114ab578063715018a6146114605780637745470f146114385780638da5cb5b1461140f578063913f579d14610c10578063950c5d0314610be757806395d89b4114610b22578063a22cb46514610a54578063b88d4fde146109cd578063bee4d106146108d9578063c87b56dd1461076c578063cfbd488514610660578063d1d41239146105f1578063e985e9c51461059b578063ef458acc14610575578063f2fde38b146104c45763f7e9e1ac1461017457600080fd5b346104bf576003196040368201126104bf57600435906001600160401b03906024803591908383116104bf576060836004019284360301126104bf57600954604051630683037d60e11b81523360048201526020959186908290859082906001600160a01b03165afa9081156104b357600091610486575b5015610447576101fb86612239565b1561040c5785600052600c85526040600020946102188480612432565b908382116103f7578190610236826102308b54611dce565b8b612464565b600090601f831160011461038d57600092610382575b50508160011b916000199060031b1c19161786555b6001916102748388019585880190612432565b949091851161036e57506102928461028c8754611dce565b87612464565b600091601f85116001146102fe57509280604495938193600298966000946102f3575b50501b916000199060031b1c19161790555b01359101557f7d6bd56f8f050884f12c4276a008b12a967e49ad0d851a9dab61040641634f6e600080a2005b0135925038806102b5565b91601f9493941984168660005283600020936000905b828210610357575050916002979593918560449896941061033d575b505050811b0190556102c7565b0135600019600384901b60f8161c19169055388080610330565b808885978294968801358155019601930190610314565b634e487b7160e01b60009081526041600452fd5b01359050388061024c565b909150601f1983169189600052846000209260005b868282106103e15750509084600195949392106103c7575b505050811b018655610261565b0135600019600384901b60f8161c191690553880806103ba565b60018496829395870135815501950192016103a2565b84634e487b7160e01b60005260416004526000fd5b60405162461bcd60e51b81526004810186905260148184015273151bdad95b88111bd95cc8139bdd08115e1a5cdd60621b6044820152606490fd5b60405162461bcd60e51b81526004810186905260188184015277131959d85b08105d5d1a1bdc9a5d1e4814995c5d5a5c995960421b6044820152606490fd5b6104a69150863d88116104ac575b61049e8183611d3b565b8101906123fb565b386101ec565b503d610494565b6040513d6000823e3d90fd5b600080fd5b346104bf5760203660031901126104bf576104dd611cbf565b6104e5611eae565b6001600160a01b0390811690811561052157600680546001600160a01b03198116841790915516600080516020612658833981519152600080a3005b60405162461bcd60e51b815260206004820152602660248201527f4f776e61626c653a206e6577206f776e657220697320746865207a65726f206160448201526564647265737360d01b6064820152608490fd5b346104bf5760203660031901126104bf57602061059360043561254a565b604051908152f35b346104bf5760403660031901126104bf576105b4611cbf565b6105bc611cd5565b9060018060a01b03809116600052600560205260406000209116600052602052602060ff604060002054166040519015158152f35b346104bf5760203660031901126104bf57600435600052600c602052610648604060002061061e81611e08565b90610656600261063060018401611e08565b92015491604051948594606086526060860190611c7f565b908482036020860152611c7f565b9060408301520390f35b346104bf576020806003193601126104bf5761067a611cbf565b600954604051630935e01b60e21b81523360048201526001600160a01b03929184908290602490829087165afa80156104b3576106bf9160009161074f575b50612503565b169081600052600d815260ff604060002054161561071557600d908260005252604060002060ff19815416905533907f4b5ef9a786cf64a7d82ebcf2d5132667edc9faef4ac36260d9a9e52c526b6232600080a3005b6064906040519062461bcd60e51b825260048201526013602482015272135a5b9d195c881b9bdd08185c1c1c9bdd9959606a1b6044820152fd5b6107669150853d87116104ac5761049e8183611d3b565b856106b9565b346104bf576020806003193601126104bf5760043561078a81612239565b1561087c57600052600b8152604060002090604051809260009080546107af81611dce565b9160019186838216918260001461085657505060011461080f575b5050506107f791816d17b6b2ba30b230ba30973539b7b760911b600e935203601119810185520183611d3b565b61080b604051928284938452830190611c7f565b0390f35b859294935060005281600020906000915b85831061083d5750505090600e916107f7938201019181936107ca565b8193929450805483868a01015201920184918693610820565b60ff19168782015284151590940286019093019350849250600e91506107f790506107ca565b60405162461bcd60e51b815260048101839052602f60248201527f4552433732314d657461646174613a2055524920717565727920666f72206e6f60448201526e3732bc34b9ba32b73a103a37b5b2b760891b6064820152608490fd5b346104bf576020806003193601126104bf576108f3611cbf565b600954604051630935e01b60e21b81523360048201526001600160a01b03929184908290602490829087165afa80156104b3576109379160009161074f5750612503565b169081600052600d815260ff6040600020541661098f57600d9082600052526040600020600160ff1982541617905533907f3c091dafb1d99e4a4c333024492eac3b2cd8bf921a3dd547c937db33be307bb8600080a3005b6064906040519062461bcd60e51b825260048201526017602482015276135a5b9d195c88185b1c9958591e48185c1c1c9bdd9959604a1b6044820152fd5b346104bf5760803660031901126104bf576109e6611cbf565b6109ee611cd5565b90606435906044356001600160401b0383116104bf57366023840112156104bf57610a5293610a2a610a4d943690602481600401359101611d79565b92610a3d610a388433612075565b611f9c565b610a4883838361213d565b612374565b612051565b005b346104bf5760403660031901126104bf57610a6d611cbf565b602435908115158092036104bf576001600160a01b031690338214610ae157336000526005602052604060002082600052602052604060002060ff1981541660ff83161790556040519081527f17307eab39ab6107e8899845ad3d59bd9653f200f220920489ca2b5937696c3160203392a3005b60405162461bcd60e51b815260206004820152601960248201527822a9219b99189d1030b8383937bb32903a379031b0b63632b960391b6044820152606490fd5b346104bf5760003660031901126104bf5760405160009060018054610b4681611dce565b80845290828116908115610bbf5750600114610b81575b61080b83610b6d81870382611d3b565b604051918291602083526020830190611c7f565b92508060005260209283600020916000925b828410610bac57505050810190910190610b6d81610b5d565b8054858501870152928501928101610b93565b61080b9550610b6d93506020915091849260ff191682840152151560051b8201019350610b5d565b346104bf5760003660031901126104bf576009546040516001600160a01b039091168152602090f35b346104bf576003196080368201126104bf57610c2a611cbf565b6024356001600160401b0381116104bf57610c49903690600401611db0565b604435926001600160401b0384116104bf5760609084360301126104bf576002600754146113ca576002600755600954604051632474521560e21b81526000805160206126388339815191526004820152336024820152906001600160a01b0316602082604481845afa9182156104b3576000926113a9575b50811561138f575b8115611334575b50156112e157604051606081016001600160401b038111828210176110445760405260048401356001600160401b0381116104bf57610d169060043691870101611db0565b815260248401356001600160401b0381116104bf57610d3d60059160043691880101611db0565b91826020820152604486013560408201525151101590816112d5575b50806112c4575b1561128a576000606435151591828093611276575b6111c2575b600160085401938460085560405190610d9282611d20565b600082526001600160a01b0381161561117e57610e229186610a4d92610dc0610dba83612239565b156124b8565b610dcc610dba83612239565b6001600160a01b0381166000818152600360209081526040808320805460010190558583526002909152812080546001600160a01b031916831790558391906000805160206126788339815191528180a4612256565b805115611144576000848152600b60205260409020815190916001600160401b038211611044578190610e5f82610e598654611dce565b86612464565b602090601f83116001146110d8576000926110cd575b50508160011b916000199060031b1c19161790555b827f9428dcbe773ffde983d366e27dc72d5f9be6e309154036dd48f60fbc0784be68600080a26000838152600c60205260409020610ecb6004860180612432565b906001600160401b038211611044578190610eea82610e598654611dce565b600090601f83116001146110655760009261105a575b50508160011b916000199060031b1c19161781555b610f256024860186600401612432565b9095906001600160401b03811161104457602096610f5382610f4a6001870154611dce565b60018701612464565b600090601f8311600114610fd157918060029492604494600092610fc6575b50508160011b916000199060031b1c19161760018501555b013591015581610fbe575b50610fa8575b6001600755604051908152f35b606435600052600e825280604060002055610f9b565b905083610f95565b013590508a80610f72565b60018501600052886000209160005b601f198516811061102d5750926002949260019260449583601f19811610611013575b505050811b016001850155610f8a565b0135600019600384901b60f8161c191690558a8080611003565b90928a600181928686013581550194019101610fe0565b634e487b7160e01b600052604160045260246000fd5b013590508780610f00565b600085815260208120909450915b601f19841685106110b5576001945083601f1981161061109b575b505050811b018155610f15565b0135600019600384901b60f8161c1916905587808061108e565b81810135835560209485019460019093019201611073565b015190508780610e75565b9250836000526020600020906000935b601f1984168510611129576001945083601f19811610611110575b505050811b019055610e8a565b015160001960f88460031b161c19169055878080611103565b818101518355602094850194600190930192909101906110e8565b60405162461bcd60e51b8152602060048201526012602482015271456d707479204d657461646174612055524960701b6044820152606490fd5b606460405162461bcd60e51b815260206004820152602060248201527f4552433732313a206d696e7420746f20746865207a65726f20616464726573736044820152fd5b600a546040516331a9108f60e11b81526064356004820152919250602090829060249082906001600160a01b03165afa9081611247575b5061123f5760405162461bcd60e51b81526020600482015260196024820152781391951a481d1bdad95b88191bd95cc81b9bdd08195e1a5cdd603a1b6044820152606490fd5b600190610d7a565b6112689060203d60201161126f575b6112608183611d3b565b810190612413565b50856111f9565b503d611256565b50600a546001600160a01b03161515610d75565b60405162461bcd60e51b8152602060048201526012602482015271496e76616c6964206c6567616c206461746160701b6044820152606490fd5b50635fee6600604484013511610d60565b60029150511484610d59565b60405162461bcd60e51b815260206004820152602560248201527f4e46546d3a20696e73756666696369656e74206d696e74696e672070726976696044820152646c6567657360d81b6064820152608490fd5b60405163570ca73560e01b81529150602090829060049082905afa9081156104b357600091611370575b506001600160a01b0316331484610cd1565b611389915060203d60201161126f576112608183611d3b565b8461135e565b905033600052600d60205260ff6040600020541690610cca565b6113c391925060203d6020116104ac5761049e8183611d3b565b9085610cc2565b60405162461bcd60e51b815260206004820152601f60248201527f5265656e7472616e637947756172643a207265656e7472616e742063616c6c006044820152606490fd5b346104bf5760003660031901126104bf576006546040516001600160a01b039091168152602090f35b346104bf5760203660031901126104bf5760206114566004356125a3565b6040519015158152f35b346104bf5760003660031901126104bf57611479611eae565b600680546001600160a01b031981169091556000906001600160a01b03166000805160206126588339815191528280a3005b346104bf5760203660031901126104bf576001600160a01b036114cc611cbf565b1680156114eb5760005260036020526020604060002054604051908152f35b60405162461bcd60e51b815260206004820152602960248201527f4552433732313a2061646472657373207a65726f206973206e6f7420612076616044820152683634b21037bbb732b960b91b6064820152608490fd5b346104bf5760203660031901126104bf576020611560600435611f4d565b6040516001600160a01b039091168152f35b346104bf5760003660031901126104bf57600a546040516001600160a01b039091168152602090f35b346104bf576020806003193601126104bf576004359060018060a01b0380600a541633149060095416604051632474521560e21b815260008051602061263883398151915260048201523360248201528381604481855afa9081156104b35784906000926117bf575b50604051630935e01b60e21b81523360048201529192829060249082905afa9081156104b3576000916117a2575b508215611789575b5050156117125781156116d657604051428152827f2520f7570bf8982028e0713774e6ccc532a122dc55dc674c3989adea509ce630833393a381600052600e815260406000205490811515806116c7575b61169157005b600e908360005252600060408120557f314b7ae2c2c5e78dfcd903bca7be6a8c703117c962426562b72d1a02ed2374eb600080a3005b506116d182612239565b61168b565b6064906040519062461bcd60e51b825260048201526015602482015274125b9d985b1a59081391951a481d1bdad95b881251605a1b6044820152fd5b60a4906040519062461bcd60e51b82526004820152604460248201527f556e617574686f72697a65643a207265717569726573204e46546920636f6e7460448201527f72616374206f72206f70657261746f7220776974682061646d696e20617070726064820152631bdd985b60e21b6084820152fd5b9091508161179a575b50838061163a565b905083611792565b6117b99150843d86116104ac5761049e8183611d3b565b85611632565b602492506117d990823d84116104ac5761049e8183611d3b565b91611604565b346104bf57610a52610a4d6117f336611ceb565b906040519261180184611d20565b60008452610a3d610a388433612075565b346104bf5760203660031901126104bf576001600160a01b03611833611cbf565b16600052600d602052602060ff604060002054166040519015158152f35b346104bf5760203660031901126104bf577f7d88dd45d25950332b9522f79190bd739a55136ebdb98da8d4420fb2a2bd86e0602061188d611cbf565b611895611eae565b600980546001600160a01b0319166001600160a01b03929092169182179055604051908152a1005b346104bf57610a526118ce36611ceb565b916118dc610a388433612075565b61213d565b346104bf5760203660031901126104bf576118fa611cbf565b611902611eae565b6001600160a01b0316801561194a57600a80546001600160a01b031916821790557f516e2449c651c4584cb9e767045ca7d95192c02dc5bf94aebbc176f02587cd9c600080a2005b60405162461bcd60e51b815260206004820152601d60248201527f496e76616c6964204e46546920636f6e747261637420616464726573730000006044820152606490fd5b346104bf5760003660031901126104bf576020600854604051908152f35b346104bf5760203660031901126104bf57600435600052600e6020526020604060002054604051908152f35b346104bf5760403660031901126104bf576119f2611cbf565b602435906001600160a01b038080611a0985611f4d565b16921691808314611b0457803314908115611adf575b5015611a7457600083815260046020526040902080546001600160a01b03191683179055611a4c83611f4d565b167f8c5be1e5ebec7d5bd14f71427d1e84f3dd0314c0f7b2291e5b200ac8c7c3b925600080a4005b60405162461bcd60e51b815260206004820152603d60248201527f4552433732313a20617070726f76652063616c6c6572206973206e6f7420746f60448201527f6b656e206f776e6572206f7220617070726f76656420666f7220616c6c0000006064820152608490fd5b9050600052600560205260406000203360005260205260ff6040600020541684611a1f565b60405162461bcd60e51b815260206004820152602160248201527f4552433732313a20617070726f76616c20746f2063757272656e74206f776e656044820152603960f91b6064820152608490fd5b346104bf5760203660031901126104bf576020611560600435611f70565b346104bf5760003660031901126104bf57604051600090600054611b9481611dce565b808352600191808316908115610bbf5750600114611bbc5761080b83610b6d81870382611d3b565b600080805260209450917f290decd9548b62a8d60345a988386fc84ba6bc95484008f6362f93160ef3e5635b828410611c0157505050810190910190610b6d81610b5d565b8054858501870152928501928101611be8565b346104bf5760203660031901126104bf576004359063ffffffff60e01b82168092036104bf576020916380ac58cd60e01b8114908115611c6e575b8115611c5d575b5015158152f35b6301ffc9a760e01b14905083611c56565b635b5e139f60e01b81149150611c4f565b919082519283825260005b848110611cab575050826000602080949584010152601f8019910116010190565b602081830181015184830182015201611c8a565b600435906001600160a01b03821682036104bf57565b602435906001600160a01b03821682036104bf57565b60609060031901126104bf576001600160a01b039060043582811681036104bf579160243590811681036104bf579060443590565b602081019081106001600160401b0382111761104457604052565b601f909101601f19168101906001600160401b0382119082101761104457604052565b6001600160401b03811161104457601f01601f191660200190565b929192611d8582611d5e565b91611d936040519384611d3b565b8294818452818301116104bf578281602093846000960137010152565b9080601f830112156104bf57816020611dcb93359101611d79565b90565b90600182811c92168015611dfe575b6020831014611de857565b634e487b7160e01b600052602260045260246000fd5b91607f1691611ddd565b9060405191826000825492611e1c84611dce565b908184526001948581169081600014611e8b5750600114611e48575b5050611e4692500383611d3b565b565b9093915060005260209081600020936000915b818310611e73575050611e4693508201013880611e38565b85548884018501529485019487945091830191611e5b565b915050611e4694506020925060ff191682840152151560051b8201013880611e38565b6006546001600160a01b03163303611ec257565b606460405162461bcd60e51b815260206004820152602060248201527f4f776e61626c653a2063616c6c6572206973206e6f7420746865206f776e65726044820152fd5b15611f0d57565b60405162461bcd60e51b8152602060048201526018602482015277115490cdcc8c4e881a5b9d985b1a59081d1bdad95b88125160421b6044820152606490fd5b6000908152600260205260409020546001600160a01b0316611dcb811515611f06565b611f81611f7c82612239565b611f06565b6000908152600460205260409020546001600160a01b031690565b15611fa357565b60405162461bcd60e51b815260206004820152602d60248201527f4552433732313a2063616c6c6572206973206e6f7420746f6b656e206f776e6560448201526c1c881bdc88185c1c1c9bdd9959609a1b6064820152608490fd5b60809060208152603260208201527f4552433732313a207472616e7366657220746f206e6f6e20455243373231526560408201527131b2b4bb32b91034b6b83632b6b2b73a32b960711b60608201520190565b1561205857565b60405162461bcd60e51b81528061207160048201611ffe565b0390fd5b906001600160a01b03808061208984611f4d565b169316918383149384156120bc575b5083156120a6575b50505090565b6120b291929350611f70565b16143880806120a0565b909350600052600560205260406000208260005260205260ff604060002054169238612098565b156120ea57565b60405162461bcd60e51b815260206004820152602560248201527f4552433732313a207472616e736665722066726f6d20696e636f72726563742060448201526437bbb732b960d91b6064820152608490fd5b906121659161214b84611f4d565b6001600160a01b03939184169284929091831684146120e3565b169182156121e857816121829161217b86611f4d565b16146120e3565b600080516020612678833981519152600084815260046020526040812060018060a01b03199081815416905583825260036020526040822060001981540190558482526040822060018154019055858252600260205284604083209182541617905580a4565b60405162461bcd60e51b8152602060048201526024808201527f4552433732313a207472616e7366657220746f20746865207a65726f206164646044820152637265737360e01b6064820152608490fd5b6000908152600260205260409020546001600160a01b0316151590565b91929091803b1561236b576122a3936040519081630a85bd0160e11b9384825233600483015260009687602484015260448301526080606483015281878160209a8b966084830190611c7f565b03926001600160a01b03165af1849181612327575b50612316575050503d60001461230e573d6122d281611d5e565b906122e06040519283611d3b565b81528091833d92013e5b8051918261230b5760405162461bcd60e51b81528061207160048201611ffe565b01fd5b5060606122ea565b6001600160e01b0319161492509050565b9091508581813d8311612364575b61233f8183611d3b565b8101031261236057516001600160e01b0319811681036123605790386122b8565b8480fd5b503d612335565b50915050600190565b92939190803b156123f1576123c6946040518092630a85bd0160e11b9485835233600484015260018060a01b03809816602484015260448301526080606483015281806020998a956084830190611c7f565b03916000988991165af18491816123275750612316575050503d60001461230e573d6122d281611d5e565b5050915050600190565b908160209103126104bf575180151581036104bf5790565b908160209103126104bf57516001600160a01b03811681036104bf5790565b903590601e19813603018212156104bf57018035906001600160401b0382116104bf576020019181360383136104bf57565b90601f811161247257505050565b600091825260208220906020601f850160051c830194106124ae575b601f0160051c01915b8281106124a357505050565b818155600101612497565b909250829061248e565b156124bf57565b60405162461bcd60e51b815260206004820152601c60248201527b115490cdcc8c4e881d1bdad95b88185b1c9958591e481b5a5b9d195960221b6044820152606490fd5b1561250a57565b60405162461bcd60e51b815260206004820152601860248201527710591b5a5b88141c9a5d9a5b1959d94814995c5d5a5c995960421b6044820152606490fd5b600854600191825b828111156125635750505050600090565b8160406000838152600e60205220541461259c576000198114612587578301612552565b60246000634e487b7160e01b81526011600452fd5b9250505090565b6125ac81612239565b15612631576125ba9061254a565b801561262b57600a546001600160a01b0316908115612624576020906024604051809481936331a9108f60e11b835260048301525afa9081612606575b5061260157600190565b600090565b61261d9060203d811161126f576112608183611d3b565b50386125f7565b5050600190565b50600190565b5060009056fe97667070c54ef182b0f5858b034beac1b6f3089aa2d3188bb1e8929f4fa9b9298be0079c531659141344cd1fd0a4f28419497f9722a3daafe3b4186f6b6457e0ddf252ad1be2c89b69c2b068fc378daa952ba7f163c4a11628f55a4df523b3efa26469706673582212200991e6cdedfdad475c9895292e513578e9283f630d175fff93b0f7e4fe5886cf64736f6c63430008140033",
  "linkReferences": {},
  "deployedLinkReferences": {}
}