{
  "_format": "hh-sol-artifact-1",
  "contractName": "NFTi",
  "sourceName": "contracts/nft/NFTi.sol",
  "abi": [
    {
      "inputs": [],
      "stateMutability": "nonpayable",
      "type": "constructor"
    },
    {
      "anonymous": false,
      "inputs": [
        {
          "indexed": true,
          "internalType": "address",
          "name": "owner",
          "type": "address"
        },
        {
          "indexed": true,
          "internalType": "address",
          "name": "approved",
          "type": "address"
        },
        {
          "indexed": true,
          "internalType": "uint256",
          "name": "tokenId",
          "type": "uint256"
        }
      ],
      "name": "Approval",
      "type": "event"
    },
    {
      "anonymous": false,
      "inputs": [
        {
          "indexed": true,
          "internalType": "address",
          "name": "owner",
          "type": "address"
        },
        {
          "indexed": true,
          "internalType": "address",
          "name": "operator",
          "type": "address"
        },
        {
          "indexed": false,
          "internalType": "bool",
          "name": "approved",
          "type": "bool"
        }
      ],
      "name": "ApprovalForAll",
      "type": "event"
    },
    {
      "anonymous": false,
      "inputs": [
        {
          "indexed": true,
          "internalType": "address",
          "name": "previousOwner",
          "type": "address"
        },
        {
          "indexed": true,
          "internalType": "address",
          "name": "newOwner",
          "type": "address"
        }
      ],
      "name": "OwnershipTransferred",
      "type": "event"
    },
    {
      "anonymous": false,
      "inputs": [
        {
          "indexed": true,
          "internalType": "address",
          "name": "from",
          "type": "address"
        },
        {
          "indexed": true,
          "internalType": "address",
          "name": "to",
          "type": "address"
        },
        {
          "indexed": true,
          "internalType": "uint256",
          "name": "tokenId",
          "type": "uint256"
        }
      ],
      "name": "Transfer",
      "type": "event"
    },
    {
      "inputs": [
        {
          "internalType": "address",
          "name": "to",
          "type": "address"
        },
        {
          "internalType": "uint256",
          "name": "tokenId",
          "type": "uint256"
        }
      ],
      "name": "approve",
      "outputs": [],
      "stateMutability": "nonpayable",
      "type": "function"
    },
    {
      "inputs": [
        {
          "internalType": "address",
          "name": "owner",
          "type": "address"
        }
      ],
      "name": "balanceOf",
      "outputs": [
        {
          "internalType": "uint256",
          "name": "",
          "type": "uint256"
        }
      ],
      "stateMutability": "view",
      "type": "function"
    },
    {
      "inputs": [
        {
          "internalType": "uint256",
          "name": "tokenId",
          "type": "uint256"
        }
      ],
      "name": "burn",
      "outputs": [],
      "stateMutability": "nonpayable",
      "type": "function"
    },
    {
      "inputs": [
        {
          "internalType": "uint256",
          "name": "tokenId",
          "type": "uint256"
        }
      ],
      "name": "getApproved",
      "outputs": [
        {
          "internalType": "address",
          "name": "",
          "type": "address"
        }
      ],
      "stateMutability": "view",
      "type": "function"
    },
    {
      "inputs": [
        {
          "internalType": "address",
          "name": "owner",
          "type": "address"
        },
        {
          "internalType": "address",
          "name": "operator",
          "type": "address"
        }
      ],
      "name": "isApprovedForAll",
      "outputs": [
        {
          "internalType": "bool",
          "name": "",
          "type": "bool"
        }
      ],
      "stateMutability": "view",
      "type": "function"
    },
    {
      "inputs": [],
      "name": "marketContract",
      "outputs": [
        {
          "internalType": "address",
          "name": "",
          "type": "address"
        }
      ],
      "stateMutability": "view",
      "type": "function"
    },
    {
      "inputs": [
        {
          "internalType": "address",
          "name": "to",
          "type": "address"
        },
        {
          "internalType": "string",
          "name": "legalId",
          "type": "string"
        },
        {
          "internalType": "bool",
          "name": "managed",
          "type": "bool"
        }
      ],
      "name": "mint",
      "outputs": [
        {
          "internalType": "uint256",
          "name": "",
          "type": "uint256"
        }
      ],
      "stateMutability": "nonpayable",
      "type": "function"
    },
    {
      "inputs": [],
      "name": "name",
      "outputs": [
        {
          "internalType": "string",
          "name": "",
          "type": "string"
        }
      ],
      "stateMutability": "view",
      "type": "function"
    },
    {
      "inputs": [],
      "name": "nftmContract",
      "outputs": [
        {
          "internalType": "address",
          "name": "",
          "type": "address"
        }
      ],
      "stateMutability": "view",
      "type": "function"
    },
    {
      "inputs": [],
      "name": "owner",
      "outputs": [
        {
          "internalType": "address",
          "name": "",
          "type": "address"
        }
      ],
      "stateMutability": "view",
      "type": "function"
    },
    {
      "inputs": [
        {
          "internalType": "uint256",
          "name": "tokenId",
          "type": "uint256"
        }
      ],
      "name": "ownerOf",
      "outputs": [
        {
          "internalType": "address",
          "name": "",
          "type": "address"
        }
      ],
      "stateMutability": "view",
      "type": "function"
    },
    {
      "inputs": [
        {
          "internalType": "uint256",
          "name": "",
          "type": "uint256"
        }
      ],
      "name": "properties",
      "outputs": [
        {
          "internalType": "string",
          "name": "legalId",
          "type": "string"
        },
        {
          "internalType": "bool",
          "name": "isManaged",
          "type": "bool"
        },
        {
          "internalType": "uint256",
          "name": "createdAt",
          "type": "uint256"
        }
      ],
      "stateMutability": "view",
      "type": "function"
    },
    {
      "inputs": [],
      "name": "renounceOwnership",
      "outputs": [],
      "stateMutability": "nonpayable",
      "type": "function"
    },
    {
      "inputs": [
        {
          "internalType": "address",
          "name": "from",
          "type": "address"
        },
        {
          "internalType": "address",
          "name": "to",
          "type": "address"
        },
        {
          "internalType": "uint256",
          "name": "tokenId",
          "type": "uint256"
        }
      ],
      "name": "safeTransferFrom",
      "outputs": [],
      "stateMutability": "nonpayable",
      "type": "function"
    },
    {
      "inputs": [
        {
          "internalType": "address",
          "name": "from",
          "type": "address"
        },
        {
          "internalType": "address",
          "name": "to",
          "type": "address"
        },
        {
          "internalType": "uint256",
          "name": "tokenId",
          "type": "uint256"
        },
        {
          "internalType": "bytes",
          "name": "data",
          "type": "bytes"
        }
      ],
      "name": "safeTransferFrom",
      "outputs": [],
      "stateMutability": "nonpayable",
      "type": "function"
    },
    {
      "inputs": [
        {
          "internalType": "address",
          "name": "operator",
          "type": "address"
        },
        {
          "internalType": "bool",
          "name": "approved",
          "type": "bool"
        }
      ],
      "name": "setApprovalForAll",
      "outputs": [],
      "stateMutability": "nonpayable",
      "type": "function"
    },
    {
      "inputs": [
        {
          "internalType": "address",
          "name": "_nftmContract",
          "type": "address"
        }
      ],
      "name": "setNFTmContract",
      "outputs": [],
      "stateMutability": "nonpayable",
      "type": "function"
    },
    {
      "inputs": [
        {
          "internalType": "bytes4",
          "name": "interfaceId",
          "type": "bytes4"
        }
      ],
      "name": "supportsInterface",
      "outputs": [
        {
          "internalType": "bool",
          "name": "",
          "type": "bool"
        }
      ],
      "stateMutability": "view",
      "type": "function"
    },
    {
      "inputs": [],
      "name": "symbol",
      "outputs": [
        {
          "internalType": "string",
          "name": "",
          "type": "string"
        }
      ],
      "stateMutability": "view",
      "type": "function"
    },
    {
      "inputs": [],
      "name": "tokenCounter",
      "outputs": [
        {
          "internalType": "uint256",
          "name": "",
          "type": "uint256"
        }
      ],
      "stateMutability": "view",
      "type": "function"
    },
    {
      "inputs": [
        {
          "internalType": "uint256",
          "name": "tokenId",
          "type": "uint256"
        }
      ],
      "name": "tokenURI",
      "outputs": [
        {
          "internalType": "string",
          "name": "",
          "type": "string"
        }
      ],
      "stateMutability": "view",
      "type": "function"
    },
    {
      "inputs": [
        {
          "internalType": "address",
          "name": "from",
          "type": "address"
        },
        {
          "internalType": "address",
          "name": "to",
          "type": "address"
        },
        {
          "internalType": "uint256",
          "name": "tokenId",
          "type": "uint256"
        }
      ],
      "name": "transferFrom",
      "outputs": [],
      "stateMutability": "nonpayable",
      "type": "function"
    },
    {
      "inputs": [
        {
          "internalType": "address",
          "name": "newOwner",
          "type": "address"
        }
      ],
      "name": "transferOwnership",
      "outputs": [],
      "stateMutability": "nonpayable",
      "type": "function"
    }
  ],
  "bytecode": "0x60806040523480156200001157600080fd5b506040518060400160405280600f81526020016e4d616e6167654c696665204e46546960881b815250604051806040016040528060048152602001634e46546960e01b81525081600090816200006891906200019f565b5060016200007782826200019f565b505050620000946200008e620000a460201b60201c565b620000a8565b600160078190556008556200026b565b3390565b600680546001600160a01b038381166001600160a01b0319831681179093556040519116919082907f8be0079c531659141344cd1fd0a4f28419497f9722a3daafe3b4186f6b6457e090600090a35050565b634e487b7160e01b600052604160045260246000fd5b600181811c908216806200012557607f821691505b6020821081036200014657634e487b7160e01b600052602260045260246000fd5b50919050565b601f8211156200019a57600081815260208120601f850160051c81016020861015620001755750805b601f850160051c820191505b81811015620001965782815560010162000181565b5050505b505050565b81516001600160401b03811115620001bb57620001bb620000fa565b620001d381620001cc845462000110565b846200014c565b602080601f8311600181146200020b5760008415620001f25750858301515b600019600386901b1c1916600185901b17855562000196565b600085815260208120601f198616915b828110156200023c578886015182559484019460019091019084016200021b565b50858210156200025b5787850151600019600388901b60f8161c191681555b5050505050600190811b01905550565b611b82806200027b6000396000f3fe608060405234801561001057600080fd5b506004361061011d5760003560e01c806301ffc9a71461012257806306fdde031461014a578063081812fc1461015f578063095ea7b31461018a57806323b872dd1461019f57806342842e0e146101b257806342966c68146101c55780636352211e146101d857806370a08231146101eb578063715018a61461020c5780638da5cb5b1461021457806395d89b411461021c578063a1794bcd14610224578063a22cb46514610237578063a230da051461024a578063b88d4fde1461025d578063c87b56dd14610270578063cbb9c9a414610283578063d082e38114610296578063d7bca8371461029f578063e985e9c5146102b2578063f2fde38b146102c5578063f7b10808146102d8575b600080fd5b61013561013036600461147e565b6102fa565b60405190151581526020015b60405180910390f35b61015261034c565b60405161014191906114eb565b61017261016d3660046114fe565b6103de565b6040516001600160a01b039091168152602001610141565b61019d610198366004611533565b610405565b005b61019d6101ad36600461155d565b61051f565b61019d6101c036600461155d565b610550565b61019d6101d33660046114fe565b61056b565b6101726101e63660046114fe565b61066d565b6101fe6101f9366004611599565b6106a1565b604051908152602001610141565b61019d610727565b61017261073b565b61015261074a565b600954610172906001600160a01b031681565b61019d6102453660046115c2565b610759565b6101fe610258366004611684565b610768565b61019d61026b3660046116f9565b6108e6565b61015261027e3660046114fe565b61091e565b600a54610172906001600160a01b031681565b6101fe60085481565b61019d6102ad366004611599565b610991565b6101356102c0366004611774565b610a11565b61019d6102d3366004611599565b610a3f565b6102eb6102e63660046114fe565b610ab5565b604051610141939291906117a7565b60006001600160e01b031982166380ac58cd60e01b148061032b57506001600160e01b03198216635b5e139f60e01b145b8061034657506301ffc9a760e01b6001600160e01b03198316145b92915050565b60606000805461035b906117cc565b80601f0160208091040260200160405190810160405280929190818152602001828054610387906117cc565b80156103d45780601f106103a9576101008083540402835291602001916103d4565b820191906000526020600020905b8154815290600101906020018083116103b757829003601f168201915b5050505050905090565b60006103e982610b63565b506000908152600460205260409020546001600160a01b031690565b60006104108261066d565b9050806001600160a01b0316836001600160a01b0316036104825760405162461bcd60e51b815260206004820152602160248201527f4552433732313a20617070726f76616c20746f2063757272656e74206f776e656044820152603960f91b60648201526084015b60405180910390fd5b336001600160a01b038216148061049e575061049e8133610a11565b6105105760405162461bcd60e51b815260206004820152603d60248201527f4552433732313a20617070726f76652063616c6c6572206973206e6f7420746f60448201527f6b656e206f776e6572206f7220617070726f76656420666f7220616c6c0000006064820152608401610479565b61051a8383610b88565b505050565b6105293382610bf6565b6105455760405162461bcd60e51b815260040161047990611806565b61051a838383610c55565b61051a838383604051806020016040528060008152506108e6565b610573610da7565b3361057d8261066d565b6001600160a01b0316146105bf5760405162461bcd60e51b81526020600482015260096024820152682737ba1037bbb732b960b91b6044820152606401610479565b6105c881610e00565b6000818152600b60205260408120906105e1828261141a565b5060018101805460ff191690556000600290910155600a546001600160a01b03161561066057600a546040516351f6d67760e01b8152600481018390526001600160a01b03909116906351f6d67790602401600060405180830381600087803b15801561064d57600080fd5b505af192505050801561065e575060015b505b61066a6001600755565b50565b60008061067983610e83565b90506001600160a01b0381166103465760405162461bcd60e51b815260040161047990611853565b60006001600160a01b03821661070b5760405162461bcd60e51b815260206004820152602960248201527f4552433732313a2061646472657373207a65726f206973206e6f7420612076616044820152683634b21037bbb732b960b91b6064820152608401610479565b506001600160a01b031660009081526003602052604090205490565b61072f610e9e565b6107396000610efd565b565b6006546001600160a01b031690565b60606001805461035b906117cc565b610764338383610f4f565b5050565b6000610772610da7565b600a54604051632474521560e21b81527f97667070c54ef182b0f5858b034beac1b6f3089aa2d3188bb1e8929f4fa9b92960048201523360248201526001600160a01b03909116906391d1485490604401602060405180830381865afa1580156107e0573d6000803e3d6000fd5b505050506040513d601f19601f820116820180604052508101906108049190611885565b6108505760405162461bcd60e51b815260206004820181905260248201527f4e4654693a2063616c6c6572206c61636b73206f70657261746f7220726f6c656044820152606401610479565b6008805460009182610861836118a2565b909155506040805160608101825286815285151560208083019190915242828401526000848152600b909152919091208151929350909181906108a49082611917565b50602082015160018201805460ff19169115159190911790556040909101516002909101556108d38582611019565b90506108df6001600755565b9392505050565b6108f03383610bf6565b61090c5760405162461bcd60e51b815260040161047990611806565b61091884848484611033565b50505050565b606061092982610b63565b600061094060408051602081019091526000815290565b9050600081511161096057604051806020016040528060008152506108df565b8061096a84611066565b60405160200161097b9291906119d6565b6040516020818303038152906040529392505050565b610999610e9e565b6001600160a01b0381166109ef5760405162461bcd60e51b815260206004820152601d60248201527f496e76616c6964204e46546d20636f6e747261637420616464726573730000006044820152606401610479565b600a80546001600160a01b0319166001600160a01b0392909216919091179055565b6001600160a01b03918216600090815260056020908152604080832093909416825291909152205460ff1690565b610a47610e9e565b6001600160a01b038116610aac5760405162461bcd60e51b815260206004820152602660248201527f4f776e61626c653a206e6577206f776e657220697320746865207a65726f206160448201526564647265737360d01b6064820152608401610479565b61066a81610efd565b600b60205260009081526040902080548190610ad0906117cc565b80601f0160208091040260200160405190810160405280929190818152602001828054610afc906117cc565b8015610b495780601f10610b1e57610100808354040283529160200191610b49565b820191906000526020600020905b815481529060010190602001808311610b2c57829003601f168201915b505050506001830154600290930154919260ff1691905083565b610b6c816110f8565b61066a5760405162461bcd60e51b815260040161047990611853565b600081815260046020526040902080546001600160a01b0319166001600160a01b0384169081179091558190610bbd8261066d565b6001600160a01b03167f8c5be1e5ebec7d5bd14f71427d1e84f3dd0314c0f7b2291e5b200ac8c7c3b92560405160405180910390a45050565b600080610c028361066d565b9050806001600160a01b0316846001600160a01b03161480610c295750610c298185610a11565b80610c4d5750836001600160a01b0316610c42846103de565b6001600160a01b0316145b949350505050565b826001600160a01b0316610c688261066d565b6001600160a01b031614610c8e5760405162461bcd60e51b815260040161047990611a05565b6001600160a01b038216610cf05760405162461bcd60e51b8152602060048201526024808201527f4552433732313a207472616e7366657220746f20746865207a65726f206164646044820152637265737360e01b6064820152608401610479565b826001600160a01b0316610d038261066d565b6001600160a01b031614610d295760405162461bcd60e51b815260040161047990611a05565b600081815260046020908152604080832080546001600160a01b03199081169091556001600160a01b038781168086526003855283862080546000190190559087168086528386208054600101905586865260029094528285208054909216841790915590518493600080516020611b2d83398151915291a4505050565b600260075403610df95760405162461bcd60e51b815260206004820152601f60248201527f5265656e7472616e637947756172643a207265656e7472616e742063616c6c006044820152606401610479565b6002600755565b6000610e0b8261066d565b9050610e168261066d565b600083815260046020908152604080832080546001600160a01b03199081169091556001600160a01b038516808552600384528285208054600019019055878552600290935281842080549091169055519293508492600080516020611b2d833981519152908390a45050565b6000908152600260205260409020546001600160a01b031690565b33610ea761073b565b6001600160a01b0316146107395760405162461bcd60e51b815260206004820181905260248201527f4f776e61626c653a2063616c6c6572206973206e6f7420746865206f776e65726044820152606401610479565b600680546001600160a01b038381166001600160a01b0319831681179093556040519116919082907f8be0079c531659141344cd1fd0a4f28419497f9722a3daafe3b4186f6b6457e090600090a35050565b816001600160a01b0316836001600160a01b031603610fac5760405162461bcd60e51b815260206004820152601960248201527822a9219b99189d1030b8383937bb32903a379031b0b63632b960391b6044820152606401610479565b6001600160a01b03838116600081815260056020908152604080832094871680845294825291829020805460ff191686151590811790915591519182527f17307eab39ab6107e8899845ad3d59bd9653f200f220920489ca2b5937696c31910160405180910390a3505050565b610764828260405180602001604052806000815250611115565b61103e848484610c55565b61104a84848484611148565b6109185760405162461bcd60e51b815260040161047990611a4a565b6060600061107383611249565b60010190506000816001600160401b03811115611092576110926115f9565b6040519080825280601f01601f1916602001820160405280156110bc576020820181803683370190505b5090508181016020015b600019016f181899199a1a9b1b9c1cb0b131b232b360811b600a86061a8153600a85049450846110c657509392505050565b60008061110483610e83565b6001600160a01b0316141592915050565b61111f838361131f565b61112c6000848484611148565b61051a5760405162461bcd60e51b815260040161047990611a4a565b60006001600160a01b0384163b1561123e57604051630a85bd0160e11b81526001600160a01b0385169063150b7a029061118c903390899088908890600401611a9c565b6020604051808303816000875af19250505080156111c7575060408051601f3d908101601f191682019092526111c491810190611ad9565b60015b611224573d8080156111f5576040519150601f19603f3d011682016040523d82523d6000602084013e6111fa565b606091505b50805160000361121c5760405162461bcd60e51b815260040161047990611a4a565b805181602001fd5b6001600160e01b031916630a85bd0160e11b149050610c4d565b506001949350505050565b60008072184f03e93ff9f4daa797ed6e38ed64bf6a1f0160401b83106112885772184f03e93ff9f4daa797ed6e38ed64bf6a1f0160401b830492506040015b6904ee2d6d415b85acef8160201b83106112b2576904ee2d6d415b85acef8160201b830492506020015b662386f26fc1000083106112d057662386f26fc10000830492506010015b6305f5e10083106112e8576305f5e100830492506008015b61271083106112fc57612710830492506004015b6064831061130e576064830492506002015b600a83106103465760010192915050565b6001600160a01b0382166113755760405162461bcd60e51b815260206004820181905260248201527f4552433732313a206d696e7420746f20746865207a65726f20616464726573736044820152606401610479565b61137e816110f8565b1561139b5760405162461bcd60e51b815260040161047990611af6565b6113a4816110f8565b156113c15760405162461bcd60e51b815260040161047990611af6565b6001600160a01b038216600081815260036020908152604080832080546001019055848352600290915280822080546001600160a01b031916841790555183929190600080516020611b2d833981519152908290a45050565b508054611426906117cc565b6000825580601f10611436575050565b601f01602090049060005260206000209081019061066a91905b808211156114645760008155600101611450565b5090565b6001600160e01b03198116811461066a57600080fd5b60006020828403121561149057600080fd5b81356108df81611468565b60005b838110156114b657818101518382015260200161149e565b50506000910152565b600081518084526114d781602086016020860161149b565b601f01601f19169290920160200192915050565b6020815260006108df60208301846114bf565b60006020828403121561151057600080fd5b5035919050565b80356001600160a01b038116811461152e57600080fd5b919050565b6000806040838503121561154657600080fd5b61154f83611517565b946020939093013593505050565b60008060006060848603121561157257600080fd5b61157b84611517565b925061158960208501611517565b9150604084013590509250925092565b6000602082840312156115ab57600080fd5b6108df82611517565b801515811461066a57600080fd5b600080604083850312156115d557600080fd5b6115de83611517565b915060208301356115ee816115b4565b809150509250929050565b634e487b7160e01b600052604160045260246000fd5b60006001600160401b0380841115611629576116296115f9565b604051601f8501601f19908116603f01168101908282118183101715611651576116516115f9565b8160405280935085815286868601111561166a57600080fd5b858560208301376000602087830101525050509392505050565b60008060006060848603121561169957600080fd5b6116a284611517565b925060208401356001600160401b038111156116bd57600080fd5b8401601f810186136116ce57600080fd5b6116dd8682356020840161160f565b92505060408401356116ee816115b4565b809150509250925092565b6000806000806080858703121561170f57600080fd5b61171885611517565b935061172660208601611517565b92506040850135915060608501356001600160401b0381111561174857600080fd5b8501601f8101871361175957600080fd5b6117688782356020840161160f565b91505092959194509250565b6000806040838503121561178757600080fd5b61179083611517565b915061179e60208401611517565b90509250929050565b6060815260006117ba60608301866114bf565b93151560208301525060400152919050565b600181811c908216806117e057607f821691505b60208210810361180057634e487b7160e01b600052602260045260246000fd5b50919050565b6020808252602d908201527f4552433732313a2063616c6c6572206973206e6f7420746f6b656e206f776e6560408201526c1c881bdc88185c1c1c9bdd9959609a1b606082015260800190565b602080825260189082015277115490cdcc8c4e881a5b9d985b1a59081d1bdad95b88125160421b604082015260600190565b60006020828403121561189757600080fd5b81516108df816115b4565b6000600182016118c257634e487b7160e01b600052601160045260246000fd5b5060010190565b601f82111561051a57600081815260208120601f850160051c810160208610156118f05750805b601f850160051c820191505b8181101561190f578281556001016118fc565b505050505050565b81516001600160401b03811115611930576119306115f9565b6119448161193e84546117cc565b846118c9565b602080601f83116001811461197957600084156119615750858301515b600019600386901b1c1916600185901b17855561190f565b600085815260208120601f198616915b828110156119a857888601518255948401946001909101908401611989565b50858210156119c65787850151600019600388901b60f8161c191681555b5050505050600190811b01905550565b600083516119e881846020880161149b565b8351908301906119fc81836020880161149b565b01949350505050565b60208082526025908201527f4552433732313a207472616e736665722066726f6d20696e636f72726563742060408201526437bbb732b960d91b606082015260800190565b60208082526032908201527f4552433732313a207472616e7366657220746f206e6f6e20455243373231526560408201527131b2b4bb32b91034b6b83632b6b2b73a32b960711b606082015260800190565b6001600160a01b0385811682528416602082015260408101839052608060608201819052600090611acf908301846114bf565b9695505050505050565b600060208284031215611aeb57600080fd5b81516108df81611468565b6020808252601c908201527b115490cdcc8c4e881d1bdad95b88185b1c9958591e481b5a5b9d195960221b60408201526060019056feddf252ad1be2c89b69c2b068fc378daa952ba7f163c4a11628f55a4df523b3efa264697066735822122049dd0d89cf0aeb410cdf500b045cdf7247bc8299943ac3bd3b99d7a60e3a0e0264736f6c63430008140033",
  "linkReferences": {},
  "deployedLinkReferences": {}
}