{
  "_format": "hh-sol-artifact-1",
  "contractName": "NFTi",
  "sourceName": "contracts/nft/NFTi.sol",
  "abi": [
    {
      "inputs": [],
      "stateMutability": "nonpayable",
      "type": "constructor"
    },
    {
      "anonymous": false,
      "inputs": [
        {
          "indexed": true,
          "internalType": "address",
          "name": "owner",
          "type": "address"
        },
        {
          "indexed": true,
          "internalType": "address",
          "name": "approved",
          "type": "address"
        },
        {
          "indexed": true,
          "internalType": "uint256",
          "name": "tokenId",
          "type": "uint256"
        }
      ],
      "name": "Approval",
      "type": "event"
    },
    {
      "anonymous": false,
      "inputs": [
        {
          "indexed": true,
          "internalType": "address",
          "name": "owner",
          "type": "address"
        },
        {
          "indexed": true,
          "internalType": "address",
          "name": "operator",
          "type": "address"
        },
        {
          "indexed": false,
          "internalType": "bool",
          "name": "approved",
          "type": "bool"
        }
      ],
      "name": "ApprovalForAll",
      "type": "event"
    },
    {
      "anonymous": false,
      "inputs": [
        {
          "indexed": true,
          "internalType": "address",
          "name": "previousOwner",
          "type": "address"
        },
        {
          "indexed": true,
          "internalType": "address",
          "name": "newOwner",
          "type": "address"
        }
      ],
      "name": "OwnershipTransferred",
      "type": "event"
    },
    {
      "anonymous": false,
      "inputs": [
        {
          "indexed": true,
          "internalType": "address",
          "name": "from",
          "type": "address"
        },
        {
          "indexed": true,
          "internalType": "address",
          "name": "to",
          "type": "address"
        },
        {
          "indexed": true,
          "internalType": "uint256",
          "name": "tokenId",
          "type": "uint256"
        }
      ],
      "name": "Transfer",
      "type": "event"
    },
    {
      "inputs": [
        {
          "internalType": "address",
          "name": "to",
          "type": "address"
        },
        {
          "internalType": "uint256",
          "name": "tokenId",
          "type": "uint256"
        }
      ],
      "name": "approve",
      "outputs": [],
      "stateMutability": "nonpayable",
      "type": "function"
    },
    {
      "inputs": [
        {
          "internalType": "address",
          "name": "owner",
          "type": "address"
        }
      ],
      "name": "balanceOf",
      "outputs": [
        {
          "internalType": "uint256",
          "name": "",
          "type": "uint256"
        }
      ],
      "stateMutability": "view",
      "type": "function"
    },
    {
      "inputs": [
        {
          "internalType": "uint256",
          "name": "tokenId",
          "type": "uint256"
        }
      ],
      "name": "burn",
      "outputs": [],
      "stateMutability": "nonpayable",
      "type": "function"
    },
    {
      "inputs": [
        {
          "internalType": "uint256",
          "name": "tokenId",
          "type": "uint256"
        }
      ],
      "name": "getApproved",
      "outputs": [
        {
          "internalType": "address",
          "name": "",
          "type": "address"
        }
      ],
      "stateMutability": "view",
      "type": "function"
    },
    {
      "inputs": [
        {
          "internalType": "address",
          "name": "owner",
          "type": "address"
        },
        {
          "internalType": "address",
          "name": "operator",
          "type": "address"
        }
      ],
      "name": "isApprovedForAll",
      "outputs": [
        {
          "internalType": "bool",
          "name": "",
          "type": "bool"
        }
      ],
      "stateMutability": "view",
      "type": "function"
    },
    {
      "inputs": [],
      "name": "marketContract",
      "outputs": [
        {
          "internalType": "address",
          "name": "",
          "type": "address"
        }
      ],
      "stateMutability": "view",
      "type": "function"
    },
    {
      "inputs": [
        {
          "internalType": "address",
          "name": "to",
          "type": "address"
        },
        {
          "internalType": "string",
          "name": "legalId",
          "type": "string"
        },
        {
          "internalType": "bool",
          "name": "managed",
          "type": "bool"
        }
      ],
      "name": "mint",
      "outputs": [
        {
          "internalType": "uint256",
          "name": "",
          "type": "uint256"
        }
      ],
      "stateMutability": "nonpayable",
      "type": "function"
    },
    {
      "inputs": [],
      "name": "name",
      "outputs": [
        {
          "internalType": "string",
          "name": "",
          "type": "string"
        }
      ],
      "stateMutability": "view",
      "type": "function"
    },
    {
      "inputs": [],
      "name": "nftmContract",
      "outputs": [
        {
          "internalType": "address",
          "name": "",
          "type": "address"
        }
      ],
      "stateMutability": "view",
      "type": "function"
    },
    {
      "inputs": [],
      "name": "owner",
      "outputs": [
        {
          "internalType": "address",
          "name": "",
          "type": "address"
        }
      ],
      "stateMutability": "view",
      "type": "function"
    },
    {
      "inputs": [
        {
          "internalType": "uint256",
          "name": "tokenId",
          "type": "uint256"
        }
      ],
      "name": "ownerOf",
      "outputs": [
        {
          "internalType": "address",
          "name": "",
          "type": "address"
        }
      ],
      "stateMutability": "view",
      "type": "function"
    },
    {
      "inputs": [
        {
          "internalType": "uint256",
          "name": "",
          "type": "uint256"
        }
      ],
      "name": "properties",
      "outputs": [
        {
          "internalType": "string",
          "name": "legalId",
          "type": "string"
        },
        {
          "internalType": "bool",
          "name": "isManaged",
          "type": "bool"
        },
        {
          "internalType": "uint256",
          "name": "createdAt",
          "type": "uint256"
        }
      ],
      "stateMutability": "view",
      "type": "function"
    },
    {
      "inputs": [],
      "name": "renounceOwnership",
      "outputs": [],
      "stateMutability": "nonpayable",
      "type": "function"
    },
    {
      "inputs": [
        {
          "internalType": "address",
          "name": "from",
          "type": "address"
        },
        {
          "internalType": "address",
          "name": "to",
          "type": "address"
        },
        {
          "internalType": "uint256",
          "name": "tokenId",
          "type": "uint256"
        }
      ],
      "name": "safeTransferFrom",
      "outputs": [],
      "stateMutability": "nonpayable",
      "type": "function"
    },
    {
      "inputs": [
        {
          "internalType": "address",
          "name": "from",
          "type": "address"
        },
        {
          "internalType": "address",
          "name": "to",
          "type": "address"
        },
        {
          "internalType": "uint256",
          "name": "tokenId",
          "type": "uint256"
        },
        {
          "internalType": "bytes",
          "name": "data",
          "type": "bytes"
        }
      ],
      "name": "safeTransferFrom",
      "outputs": [],
      "stateMutability": "nonpayable",
      "type": "function"
    },
    {
      "inputs": [
        {
          "internalType": "address",
          "name": "operator",
          "type": "address"
        },
        {
          "internalType": "bool",
          "name": "approved",
          "type": "bool"
        }
      ],
      "name": "setApprovalForAll",
      "outputs": [],
      "stateMutability": "nonpayable",
      "type": "function"
    },
    {
      "inputs": [
        {
          "internalType": "address",
          "name": "_nftmContract",
          "type": "address"
        }
      ],
      "name": "setNFTmContract",
      "outputs": [],
      "stateMutability": "nonpayable",
      "type": "function"
    },
    {
      "inputs": [
        {
          "internalType": "bytes4",
          "name": "interfaceId",
          "type": "bytes4"
        }
      ],
      "name": "supportsInterface",
      "outputs": [
        {
          "internalType": "bool",
          "name": "",
          "type": "bool"
        }
      ],
      "stateMutability": "view",
      "type": "function"
    },
    {
      "inputs": [],
      "name": "symbol",
      "outputs": [
        {
          "internalType": "string",
          "name": "",
          "type": "string"
        }
      ],
      "stateMutability": "view",
      "type": "function"
    },
    {
      "inputs": [],
      "name": "tokenCounter",
      "outputs": [
        {
          "internalType": "uint256",
          "name": "",
          "type": "uint256"
        }
      ],
      "stateMutability": "view",
      "type": "function"
    },
    {
      "inputs": [
        {
          "internalType": "uint256",
          "name": "tokenId",
          "type": "uint256"
        }
      ],
      "name": "tokenURI",
      "outputs": [
        {
          "internalType": "string",
          "name": "",
          "type": "string"
        }
      ],
      "stateMutability": "view",
      "type": "function"
    },
    {
      "inputs": [
        {
          "internalType": "address",
          "name": "from",
          "type": "address"
        },
        {
          "internalType": "address",
          "name": "to",
          "type": "address"
        },
        {
          "internalType": "uint256",
          "name": "tokenId",
          "type": "uint256"
        }
      ],
      "name": "transferFrom",
      "outputs": [],
      "stateMutability": "nonpayable",
      "type": "function"
    },
    {
      "inputs": [
        {
          "internalType": "address",
          "name": "newOwner",
          "type": "address"
        }
      ],
      "name": "transferOwnership",
      "outputs": [],
      "stateMutability": "nonpayable",
      "type": "function"
    }
  ],
  "bytecode": "0x60803462000367576001600160401b03906040908082018381118282101762000351578252600f81526020916e4d616e6167654c696665204e46546960881b83830152805193818501858110828211176200035157825260048552634e46546960e01b84860152825181811162000351576000948554916001958684811c9416801562000346575b8385101462000332578190601f94858111620002df575b5083908583116001146200027b5789926200026f575b5050600019600383901b1c191690861b1786555b86519283116200025b5784548581811c9116801562000250575b828210146200023c57828111620001f4575b50809183116001146200018b5750849582939495926200017f575b5050600019600383901b1c191690831b1782555b60068054336001600160a01b03198216811790925591519390916001600160a01b0316907f8be0079c531659141344cd1fd0a4f28419497f9722a3daafe3b4186f6b6457e09080a3806007556008556119fc90816200036d8239f35b0151905038806200010f565b90601f198316968587528287209287905b898210620001dc5750508386979896959610620001c2575b505050811b01825562000123565b015160001960f88460031b161c19169055388080620001b4565b8088859682949686015181550195019301906200019c565b8587528187208380860160051c82019284871062000232575b0160051c019086905b82811062000226575050620000f4565b88815501869062000216565b925081926200020d565b634e487b7160e01b87526022600452602487fd5b90607f1690620000e2565b634e487b7160e01b86526041600452602486fd5b015190503880620000b4565b898052848a208994509190601f1984168b5b87828210620002c85750508411620002ae575b505050811b018655620000c8565b015160001960f88460031b161c19169055388080620002a0565b8385015186558c979095019493840193016200028d565b9091508880528389208580850160051c82019286861062000328575b918a91869594930160051c01915b828110620003195750506200009e565b8b81558594508a910162000309565b92508192620002fb565b634e487b7160e01b88526022600452602488fd5b93607f169362000087565b634e487b7160e01b600052604160045260246000fd5b600080fdfe6080604090808252600436101561001557600080fd5b600090813560e01c90816301ffc9a71461118d5750806306fdde03146110dd578063081812fc146110bc578063095ea7b314610f4d57806323b872dd14610f2857806342842e0e14610ef457806342966c6814610d4c5780636352211e14610d1a57806370a0823114610c86578063715018a614610c3a5780638da5cb5b14610c1157806395d89b4114610b4d578063a1794bcd14610b24578063a22cb46514610a52578063a230da0514610677578063b88d4fde146105ea578063c87b56dd146103d6578063cbb9c9a4146103ad578063d082e3811461038e578063d7bca83714610300578063e985e9c5146102b0578063f2fde38b146101f95763f7b108081461012057600080fd5b346101f657602090816003193601126101f65782906004358152600b8352208251916000938254946101518661134d565b8086526001968088169081156101db57506001146101a8575b5060ff61019a9661017f8760029403886112d8565b85015416930154918151958695606087526060870190611221565b931515908501528301520390f35b60008581528481209092505b8183106101c85750508401820160ff61016a565b80548784018601529184019187016101b4565b60ff19168588015250151560051b85018301905060ff61016a565b80fd5b5090346102ac5760203660031901126102ac57610214611246565b61021c611387565b6001600160a01b0390811691821561025a5750600680546001600160a01b03198116841790915516600080516020611987833981519152600080a380f35b5162461bcd60e51b815260206004820152602660248201527f4f776e61626c653a206e6577206f776e657220697320746865207a65726f206160448201526564647265737360d01b6064820152608490fd5b5080fd5b5090346102ac57806003193601126102ac576020916102cd611246565b826102d661125c565b9260018060a01b03809316815260058652209116600052825260ff81600020541690519015158152f35b5090346102ac5760203660031901126102ac5761031b611246565b610323611387565b6001600160a01b031690811561034b5750600a80546001600160a01b03191691909117905580f35b5162461bcd60e51b815260206004820152601d60248201527f496e76616c6964204e46546d20636f6e747261637420616464726573730000006044820152606490fd5b5090346102ac57816003193601126102ac576020906008549051908152f35b5090346102ac57816003193601126102ac57600a5490516001600160a01b039091168152602090f35b50346101f657602090816003193601126101f6578190600435906104016103fc83611710565b6113df565b84519161040d836112a7565b81835281156105ce5781908072184f03e93ff9f4daa797ed6e38ed64bf6a1f0160401b81818110156105c1575b508690506904ee2d6d415b85acef8160201b808410156105b3575b5050662386f26fc10000808310156105a4575b506305f5e10080831015610595575b5061271080831015610586575b506064821015610576575b600a8092101561056c575b6021908893600192816104c7858094016104bf6104b6826112fb565b9951998a6112d8565b8089526112fb565b878b019890601f1901368a3750860101905b610536575b50505050926105159261052192610532958851958361050688955180928880890191016111fe565b840191518093868401906111fe565b010380845201826112d8565b925b51928284938452830190611221565b0390f35b600019019083906f181899199a1a9b1b9c1cb0b131b232b360811b8282061a835304918215610567579190826104d9565b6104de565b916001019161049a565b919060646002910491019161048f565b60049193920491019138610484565b60089193920491019138610477565b60109193920491019138610468565b930192909104908538610455565b899450049150388061043a565b5050505061053282516105e0816112a7565b6000815292610523565b50346101f65760803660031901126101f657610604611246565b61060c61125c565b90606435906044356001600160401b0383116106735736602384011215610673576106709361064861066b943690602481600401359101611316565b9261065b610656843361154c565b611473565b610666838383611614565b611847565b611528565b80f35b8480fd5b50346101f65760603660031901126101f657610691611246565b6001600160401b03919060248035848111610a4e5736602382011215610a4e576106c49036908381600401359101611316565b60443594851515809603610a49576106da6118e5565b600a548751632474521560e21b81527f97667070c54ef182b0f5858b034beac1b6f3089aa2d3188bb1e8929f4fa9b9296004820152338582015290602090829060449082906001600160a01b03165afa908115610a3f578691610a00575b50156109bd576008549560001987146109aa5760018701600855875192606084018481108482111761099557895283526020830190815287830191428352878752600b6020528887209351805191821161098257610796855461134d565b601f8111610947575b50602090601f83116001146108d957918060029594926107ed948b926108ce575b50508160011b916000199060031b1c19161785555b511515600185019060ff801983541691151516179055565b519101558451926107fd846112a7565b8084526001600160a01b03831691821561088c57509284610881938161066b946020999761083361082d84611710565b1561193b565b61083f61082d84611710565b81815260038b528881208054600101905582815260028b5288812080546001600160a01b031916831790556000805160206119a78339815191528180a461172d565b600160075551908152f35b606490602088519162461bcd60e51b83528160048401528201527f4552433732313a206d696e7420746f20746865207a65726f20616464726573736044820152fd5b0151905038806107c0565b908589526020892091895b601f198516811061092f57509260029594926001926107ed9583601f19811610610916575b505050811b0185556107d5565b015160001960f88460031b161c19169055388080610909565b919260206001819286850151815501940192016108e4565b61097290868a5260208a20601f850160051c81019160208610610978575b601f0160051c01906118ce565b3861079f565b9091508190610965565b634e487b7160e01b885260416004528588fd5b85634e487b7160e01b60005260416004526000fd5b634e487b7160e01b865260116004528386fd5b865162461bcd60e51b8152602060048201819052818501527f4e4654693a2063616c6c6572206c61636b73206f70657261746f7220726f6c656044820152606490fd5b90506020813d602011610a37575b81610a1b602093836112d8565b81010312610a3357518015158103610a335738610738565b8580fd5b3d9150610a0e565b88513d88823e3d90fd5b600080fd5b8380fd5b5090346102ac57806003193601126102ac57610a6c611246565b6024359182151591828403610a49576001600160a01b031692338414610ae457610ab790338652600560205282862085600052602052826000209060ff801983541691151516179055565b519081527f17307eab39ab6107e8899845ad3d59bd9653f200f220920489ca2b5937696c3160203392a380f35b815162461bcd60e51b815260206004820152601960248201527822a9219b99189d1030b8383937bb32903a379031b0b63632b960391b6044820152606490fd5b5090346102ac57816003193601126102ac5760095490516001600160a01b039091168152602090f35b50346101f657806003193601126101f65750805160009160018054610b718161134d565b80855290828116908115610be95750600114610bab575b5050610b99826105329403836112d8565b51918291602083526020830190611221565b93508060005260209384600020916000925b828410610bd657505050820190920191610b9982610b88565b8054868501880152928601928101610bbd565b6105329650610b9993506020915091859260ff191682840152151560051b8201019450610b88565b5090346102ac57816003193601126102ac5760065490516001600160a01b039091168152602090f35b50346101f657806003193601126101f657610c53611387565b600680546001600160a01b031981169091556000906001600160a01b03166000805160206119878339815191528280a380f35b5090346102ac5760203660031901126102ac576001600160a01b03610ca9611246565b168015610cc457828291602094526003845220549051908152f35b815162461bcd60e51b815260206004820152602960248201527f4552433732313a2061646472657373207a65726f206973206e6f7420612076616044820152683634b21037bbb732b960b91b6064820152608490fd5b5090346102ac5760203660031901126102ac57602090610d3b600435611426565b90516001600160a01b039091168152f35b50346101f657602091826003193601126102ac57600435610d6b6118e5565b610d7481611426565b6001600160a01b03903390821603610ec4578360028196610d9485611426565b508483610da082611426565b8282526004845288822080546001600160a01b031990811690915590871680835260038552898320805460001901905583835285855289832080549092169091556000805160206119a78339815191528280a4600b81528286812091610e06835461134d565b9081610e88575b505060018201550155600a541680610e29575b83600160075580f35b803b15610e835760248492845195869384926351f6d67760e01b845260048401525af1610e59575b808392610e20565b6001600160401b038211610e6f57523880610e51565b634e487b7160e01b83526041600452602483fd5b505050fd5b601f8211600114610ea057505081555b823880610e0d565b601f610ebb918585528420920160051c8201600183016118ce565b81835555610e98565b825162461bcd60e51b81526004810186905260096024820152682737ba1037bbb732b960b91b6044820152606490fd5b5090346102ac5761066b61067091610f0b36611272565b91925192610f18846112a7565b86845261065b610656843361154c565b50346101f657610670610f3a36611272565b91610f48610656843361154c565b611614565b5090346102ac57806003193601126102ac57610f67611246565b602435916001600160a01b03908180610f7f86611426565b1693169280841461106e5780331490811561104f575b5015610fe6578385526004602052842080546001600160a01b03191683179055610fbe83611426565b167f8c5be1e5ebec7d5bd14f71427d1e84f3dd0314c0f7b2291e5b200ac8c7c3b9258480a480f35b5162461bcd60e51b815260206004820152603d60248201527f4552433732313a20617070726f76652063616c6c6572206973206e6f7420746f60448201527f6b656e206f776e6572206f7220617070726f76656420666f7220616c6c0000006064820152608490fd5b90508552600560205280852033865260205260ff818620541638610f95565b815162461bcd60e51b815260206004820152602160248201527f4552433732313a20617070726f76616c20746f2063757272656e74206f776e656044820152603960f91b6064820152608490fd5b5090346102ac5760203660031901126102ac57602090610d3b60043561144c565b5090346102ac57816003193601126102ac578051908280546110fe8161134d565b80855290600190818116908115611165575060011461112a575b505050610b99826105329403836112d8565b94508180526020948583205b828410611152575050508261053294610b999282010194611118565b8054868501880152928601928101611136565b6105329750610b999450602092508693915060ff191682840152151560051b82010194611118565b9050346102ac5760203660031901126102ac5760043563ffffffff60e01b81168091036111fa57602092506380ac58cd60e01b81149081156111e9575b81156111d8575b5015158152f35b6301ffc9a760e01b149050836111d1565b635b5e139f60e01b811491506111ca565b8280fd5b60005b8381106112115750506000910152565b8181015183820152602001611201565b9060209161123a815180928185528580860191016111fe565b601f01601f1916010190565b600435906001600160a01b0382168203610a4957565b602435906001600160a01b0382168203610a4957565b6060906003190112610a49576001600160a01b03906004358281168103610a4957916024359081168103610a49579060443590565b602081019081106001600160401b038211176112c257604052565b634e487b7160e01b600052604160045260246000fd5b601f909101601f19168101906001600160401b038211908210176112c257604052565b6001600160401b0381116112c257601f01601f191660200190565b929192611322826112fb565b9161133060405193846112d8565b829481845281830111610a49578281602093846000960137010152565b90600182811c9216801561137d575b602083101461136757565b634e487b7160e01b600052602260045260246000fd5b91607f169161135c565b6006546001600160a01b0316330361139b57565b606460405162461bcd60e51b815260206004820152602060248201527f4f776e61626c653a2063616c6c6572206973206e6f7420746865206f776e65726044820152fd5b156113e657565b60405162461bcd60e51b8152602060048201526018602482015277115490cdcc8c4e881a5b9d985b1a59081d1bdad95b88125160421b6044820152606490fd5b6000908152600260205260409020546001600160a01b03166114498115156113df565b90565b6114586103fc82611710565b6000908152600460205260409020546001600160a01b031690565b1561147a57565b60405162461bcd60e51b815260206004820152602d60248201527f4552433732313a2063616c6c6572206973206e6f7420746f6b656e206f776e6560448201526c1c881bdc88185c1c1c9bdd9959609a1b6064820152608490fd5b60809060208152603260208201527f4552433732313a207472616e7366657220746f206e6f6e20455243373231526560408201527131b2b4bb32b91034b6b83632b6b2b73a32b960711b60608201520190565b1561152f57565b60405162461bcd60e51b815280611548600482016114d5565b0390fd5b906001600160a01b03808061156084611426565b16931691838314938415611593575b50831561157d575b50505090565b6115899192935061144c565b1614388080611577565b909350600052600560205260406000208260005260205260ff60406000205416923861156f565b156115c157565b60405162461bcd60e51b815260206004820152602560248201527f4552433732313a207472616e736665722066726f6d20696e636f72726563742060448201526437bbb732b960d91b6064820152608490fd5b9061163c9161162284611426565b6001600160a01b03939184169284929091831684146115ba565b169182156116bf57816116599161165286611426565b16146115ba565b6000805160206119a7833981519152600084815260046020526040812060018060a01b03199081815416905583825260036020526040822060001981540190558482526040822060018154019055858252600260205284604083209182541617905580a4565b60405162461bcd60e51b8152602060048201526024808201527f4552433732313a207472616e7366657220746f20746865207a65726f206164646044820152637265737360e01b6064820152608490fd5b6000908152600260205260409020546001600160a01b0316151590565b91929091803b1561183e5761177a936040519081630a85bd0160e11b9384825233600483015260009687602484015260448301526080606483015281878160209a8b966084830190611221565b03926001600160a01b03165af18491816117fe575b506117ed575050503d6000146117e5573d6117a9816112fb565b906117b760405192836112d8565b81528091833d92013e5b805191826117e25760405162461bcd60e51b815280611548600482016114d5565b01fd5b5060606117c1565b6001600160e01b0319161492509050565b9091508581813d8311611837575b61181681836112d8565b8101031261067357516001600160e01b03198116810361067357903861178f565b503d61180c565b50915050600190565b92939190803b156118c457611899946040518092630a85bd0160e11b9485835233600484015260018060a01b03809816602484015260448301526080606483015281806020998a956084830190611221565b03916000988991165af18491816117fe57506117ed575050503d6000146117e5573d6117a9816112fb565b5050915050600190565b8181106118d9575050565b600081556001016118ce565b6002600754146118f6576002600755565b60405162461bcd60e51b815260206004820152601f60248201527f5265656e7472616e637947756172643a207265656e7472616e742063616c6c006044820152606490fd5b1561194257565b60405162461bcd60e51b815260206004820152601c60248201527b115490cdcc8c4e881d1bdad95b88185b1c9958591e481b5a5b9d195960221b6044820152606490fdfe8be0079c531659141344cd1fd0a4f28419497f9722a3daafe3b4186f6b6457e0ddf252ad1be2c89b69c2b068fc378daa952ba7f163c4a11628f55a4df523b3efa2646970667358221220d35d7816b276bcbc46a1df5fea896f19feadf3564ccc7bebb579d8fa93f8299364736f6c63430008140033",
  "linkReferences": {},
  "deployedLinkReferences": {}
}