{
  "_format": "hh-sol-artifact-1",
  "contractName": "StakingConstants",
  "sourceName": "libraries/StakingConstants.sol",
  "abi": [
    {
      "inputs": [],
      "name": "MIN_STAKING_PERIOD",
      "outputs": [
        {
          "internalType": "uint256",
          "name": "",
          "type": "uint256"
        }
      ],
      "stateMutability": "view",
      "type": "function"
    }
  ],
  "bytecode": "0x608080604052346018576077908161001e823930815050f35b600080fdfe6080806040526004361015601257600080fd5b60003560e01c63c743dabb14602657600080fd5b6000366003190112603c578062093a8060209252f35b600080fdfea2646970667358221220934ca2db337eeedf5c620a21541543c9c05e146d0040c00fa99839d365a7067b64736f6c63430008140033",
  "linkReferences": {},
  "deployedLinkReferences": {}
}