{
  "_format": "hh-sol-artifact-1",
  "contractName": "StakingConstants",
  "sourceName": "libraries/StakingConstants.sol",
  "abi": [
    {
      "inputs": [],
      "name": "MIN_STAKING_PERIOD",
      "outputs": [
        {
          "internalType": "uint256",
          "name": "",
          "type": "uint256"
        }
      ],
      "stateMutability": "view",
      "type": "function"
    }
  ],
  "bytecode": "0x60bf610052600b82828239805160001a607314610045577f4e487b7100000000000000000000000000000000000000000000000000000000600052600060045260246000fd5b30600052607381538281f3fe730000000000000000000000000000000000000000301460806040526004361060335760003560e01c8063c743dabb146038575b600080fd5b603e6052565b604051604991906070565b60405180910390f35b62093a8081565b6000819050919050565b606a816059565b82525050565b6000602082019050608360008301846063565b9291505056fea2646970667358221220ee2692b56bfba91046dcd819fdde606c84c0ea5d9df467c039630689312c129e64736f6c63430008140033",
  "linkReferences": {},
  "deployedLinkReferences": {}
}