{
  "_format": "hh-sol-artifact-1",
  "contractName": "PaymentValidation",
  "sourceName": "contracts/libraries/PaymentValidation.sol",
  "abi": [
    {
      "inputs": [
        {
          "internalType": "uint256",
          "name": "totalAmount",
          "type": "uint256"
        },
        {
          "internalType": "uint256",
          "name": "feeRate",
          "type": "uint256"
        },
        {
          "internalType": "uint256",
          "name": "percentageBase",
          "type": "uint256"
        }
      ],
      "name": "calculatePaymentDistribution",
      "outputs": [
        {
          "internalType": "uint256",
          "name": "sellerAmount",
          "type": "uint256"
        },
        {
          "internalType": "uint256",
          "name": "feeAmount",
          "type": "uint256"
        }
      ],
      "stateMutability": "pure",
      "type": "function"
    },
    {
      "inputs": [
        {
          "internalType": "uint256",
          "name": "oldAmount",
          "type": "uint256"
        },
        {
          "internalType": "uint256",
          "name": "newAmount",
          "type": "uint256"
        },
        {
          "internalType": "address",
          "name": "paymentToken",
          "type": "address"
        }
      ],
      "name": "validateAdditionalPayment",
      "outputs": [
        {
          "internalType": "bool",
          "name": "valid",
          "type": "bool"
        },
        {
          "internalType": "uint256",
          "name": "additionalAmount",
          "type": "uint256"
        }
      ],
      "stateMutability": "view",
      "type": "function"
    },
    {
      "inputs": [
        {
          "internalType": "uint256",
          "name": "expectedAmount",
          "type": "uint256"
        }
      ],
      "name": "validateETHAmount",
      "outputs": [
        {
          "internalType": "bool",
          "name": "valid",
          "type": "bool"
        }
      ],
      "stateMutability": "view",
      "type": "function"
    },
    {
      "inputs": [
        {
          "internalType": "contract IERC20",
          "name": "token",
          "type": "IERC20"
        },
        {
          "internalType": "address",
          "name": "spender",
          "type": "address"
        },
        {
          "internalType": "uint256",
          "name": "amount",
          "type": "uint256"
        }
      ],
      "name": "validateTokenAllowance",
      "outputs": [
        {
          "internalType": "bool",
          "name": "valid",
          "type": "bool"
        }
      ],
      "stateMutability": "view",
      "type": "function"
    }
  ],
  "bytecode": "0x6080806040523461001c5761078c90816100228239308160ce0152f35b600080fdfe6040608081526004908136101561001557600080fd5b6000803560e01c80630951c4db1461049f5780631e0c0bc41461046257806325cfb21a146103b55780633465b7051461034757806336234c581461031257806375b2222d146100c9578063c1710420146100a95763c4adbc291461007857600080fd5b60603660031901126100a6575061009d6020926100936104ff565b60443591356105f6565b90519015158152f35b80fd5b50919060203660031901126100c5576020925051903534148152f35b8280fd5b5091307f0000000000000000000000000000000000000000000000000000000000000000146100c55760803660031901126100c5576101066104e9565b9261010f6104ff565b6101176104ce565b84516370a0823160e01b8082526001600160a01b0392831682870181905260209892969094909391928216918988602481865afa9788156102d95787986102e3575b508851916323b872dd60e01b835216848201528460248201526044906064358282015289816064818a875af19081156102d957879161029f575b50885190818a016001600160401b0381118382101761028c578a52858252634537303760e01b8b830152156102365750508792916024918851958694859384528301525afa91821561022b5780926101f9575b5050906101f2916105d3565b9051908152f35b9091508482813d8311610224575b6102118183610580565b810103126100a65750516101f2386101e6565b503d610207565b8451903d90823e3d90fd5b90848a9288848c5195869462461bcd60e51b8652850152825192836024860152825b84811061027657505050828201840152601f01601f19168101030190fd5b8181018301518882018801528795508201610258565b634e487b7160e01b895260418752602489fd5b90508981813d83116102d2575b6102b68183610580565b810103126102ce575180151581036102ce5738610193565b8680fd5b503d6102ac565b89513d89823e3d90fd5b9097508981813d831161030b575b6102fb8183610580565b810103126102ce57519638610159565b503d6102f1565b50829060603660031901126100a657506103399061032e6104ce565b9060243590356106a2565b825191151582526020820152f35b5060603660031901126100a657823590602435604435918184029184830414841517156103a257821561038f575090610382910480926105d3565b9082519182526020820152f35b634e487b7160e01b815260128652602490fd5b634e487b7160e01b815260118652602490fd5b50919060603660031901126100c55760206103f7926103d26104e9565b6103da6104ff565b8451636eb1769f60e11b81529586938492839291339084016105b9565b03916001600160a01b03165afa918215610458578392610421575b60208383519060443511158152f35b9091506020813d8211610450575b8161043c60209383610580565b810103126100c55760209250519038610412565b3d915061042f565b81513d85823e3d90fd5b50908060031936011261049b5760209160ff9082906001600160a01b036104876104e9565b168152602435855220541690519015158152f35b5080fd5b5060a03660031901126100a6575061009d6020926104bb6104ce565b9060843591606435916024359035610515565b604435906001600160a01b03821682036104e457565b600080fd5b600435906001600160a01b03821682036104e457565b602435906001600160a01b03821682036104e457565b90929160018060a01b0316938460005260205260ff604060002054161561057757811561056f5750915b61056a5781341015918261055f575b5081610558575090565b9050341490565b81101591503861054e565b101590565b90509161053f565b50505050600090565b601f909101601f19168101906001600160401b038211908210176105a357604052565b634e487b7160e01b600052604160045260246000fd5b6001600160a01b0391821681529116602082015260400190565b919082039182116105e057565b634e487b7160e01b600052601160045260246000fd5b919060018060a01b031660009181835260205260ff6040832054161561069c5780610622575050341490565b60206040518092636eb1769f60e11b825281806106433033600484016105b9565b03915afa91821561069057809261065c575b5050101590565b9091506020823d8211610688575b8161067760209383610580565b810103126100a65750513880610655565b3d915061066a565b604051903d90823e3d90fd5b50905090565b909291928181111561074b57906106b8916105d3565b916001600160a01b0316806106cf57508134149190565b60206040518092636eb1769f60e11b825281806106f03033600484016105b9565b03915afa801561073f57839160009161070b575b5010159190565b91506020823d8211610737575b8161072560209383610580565b810103126100a6575082905138610704565b3d9150610718565b6040513d6000823e3d90fd5b50503415915060009056fea2646970667358221220962b4b1fc1bebc74b46506f85cae5484d58bbd99a2dda343198546f895d3988c64736f6c63430008140033",
  "linkReferences": {},
  "deployedLinkReferences": {}
}