{
  "_format": "hh-sol-artifact-1",
  "contractName": "PropertyMarket",
  "sourceName": "contracts/market/PropertyMarket.sol",
  "abi": [
    {
      "inputs": [
        {
          "internalType": "address",
          "name": "_nftiAddress",
          "type": "address"
        },
        {
          "internalType": "address",
          "name": "_nftmAddress",
          "type": "address"
        },
        {
          "internalType": "address",
          "name": "initialAdmin",
          "type": "address"
        },
        {
          "internalType": "address",
          "name": "feeCollector",
          "type": "address"
        },
        {
          "internalType": "address",
          "name": "rewardsVault",
          "type": "address"
        }
      ],
      "stateMutability": "nonpayable",
      "type": "constructor"
    },
    {
      "anonymous": false,
      "inputs": [
        {
          "indexed": true,
          "internalType": "bytes32",
          "name": "role",
          "type": "bytes32"
        },
        {
          "indexed": true,
          "internalType": "address",
          "name": "account",
          "type": "address"
        },
        {
          "indexed": true,
          "internalType": "address",
          "name": "sender",
          "type": "address"
        }
      ],
      "name": "AdminRoleGranted",
      "type": "event"
    },
    {
      "anonymous": false,
      "inputs": [
        {
          "indexed": true,
          "internalType": "bytes32",
          "name": "role",
          "type": "bytes32"
        },
        {
          "indexed": true,
          "internalType": "address",
          "name": "account",
          "type": "address"
        },
        {
          "indexed": true,
          "internalType": "address",
          "name": "sender",
          "type": "address"
        }
      ],
      "name": "AdminRoleRevoked",
      "type": "event"
    },
    {
      "anonymous": false,
      "inputs": [
        {
          "indexed": true,
          "internalType": "uint256",
          "name": "tokenId",
          "type": "uint256"
        },
        {
          "indexed": true,
          "internalType": "address",
          "name": "seller",
          "type": "address"
        },
        {
          "indexed": true,
          "internalType": "address",
          "name": "bidder",
          "type": "address"
        },
        {
          "indexed": false,
          "internalType": "uint256",
          "name": "amount",
          "type": "uint256"
        },
        {
          "indexed": false,
          "internalType": "address",
          "name": "paymentToken",
          "type": "address"
        }
      ],
      "name": "BidAccepted",
      "type": "event"
    },
    {
      "anonymous": false,
      "inputs": [
        {
          "indexed": true,
          "internalType": "uint256",
          "name": "tokenId",
          "type": "uint256"
        },
        {
          "indexed": true,
          "internalType": "address",
          "name": "seller",
          "type": "address"
        },
        {
          "indexed": true,
          "internalType": "address",
          "name": "bidder",
          "type": "address"
        },
        {
          "indexed": false,
          "internalType": "uint256",
          "name": "amount",
          "type": "uint256"
        },
        {
          "indexed": false,
          "internalType": "address",
          "name": "paymentToken",
          "type": "address"
        }
      ],
      "name": "BidAcceptedPendingPayment",
      "type": "event"
    },
    {
      "anonymous": false,
      "inputs": [
        {
          "indexed": true,
          "internalType": "uint256",
          "name": "tokenId",
          "type": "uint256"
        },
        {
          "indexed": true,
          "internalType": "address",
          "name": "bidder",
          "type": "address"
        },
        {
          "indexed": false,
          "internalType": "uint256",
          "name": "amount",
          "type": "uint256"
        }
      ],
      "name": "BidCancelled",
      "type": "event"
    },
    {
      "anonymous": false,
      "inputs": [
        {
          "indexed": true,
          "internalType": "uint256",
          "name": "tokenId",
          "type": "uint256"
        },
        {
          "indexed": true,
          "internalType": "address",
          "name": "bidder",
          "type": "address"
        },
        {
          "indexed": false,
          "internalType": "uint256",
          "name": "amount",
          "type": "uint256"
        },
        {
          "indexed": false,
          "internalType": "address",
          "name": "paymentToken",
          "type": "address"
        }
      ],
      "name": "BidPlaced",
      "type": "event"
    },
    {
      "anonymous": false,
      "inputs": [
        {
          "indexed": true,
          "internalType": "uint256",
          "name": "tokenId",
          "type": "uint256"
        },
        {
          "indexed": true,
          "internalType": "address",
          "name": "bidder",
          "type": "address"
        },
        {
          "indexed": false,
          "internalType": "uint256",
          "name": "amount",
          "type": "uint256"
        }
      ],
      "name": "BidRefundFailed",
      "type": "event"
    },
    {
      "anonymous": false,
      "inputs": [
        {
          "indexed": true,
          "internalType": "uint256",
          "name": "tokenId",
          "type": "uint256"
        },
        {
          "indexed": false,
          "internalType": "uint256",
          "name": "removedCount",
          "type": "uint256"
        },
        {
          "indexed": false,
          "internalType": "uint256",
          "name": "remainingCount",
          "type": "uint256"
        }
      ],
      "name": "BidsCleanedUp",
      "type": "event"
    },
    {
      "anonymous": false,
      "inputs": [
        {
          "indexed": true,
          "internalType": "address",
          "name": "user",
          "type": "address"
        },
        {
          "indexed": false,
          "internalType": "uint256",
          "name": "oldScore",
          "type": "uint256"
        },
        {
          "indexed": false,
          "internalType": "uint256",
          "name": "newScore",
          "type": "uint256"
        }
      ],
      "name": "CommunityScoreUpdated",
      "type": "event"
    },
    {
      "anonymous": false,
      "inputs": [
        {
          "indexed": true,
          "internalType": "uint256",
          "name": "tokenId",
          "type": "uint256"
        },
        {
          "indexed": true,
          "internalType": "address",
          "name": "buyer",
          "type": "address"
        },
        {
          "indexed": false,
          "internalType": "uint256",
          "name": "purchasePrice",
          "type": "uint256"
        },
        {
          "indexed": false,
          "internalType": "uint256",
          "name": "highestBidOutbid",
          "type": "uint256"
        },
        {
          "indexed": false,
          "internalType": "address",
          "name": "paymentToken",
          "type": "address"
        }
      ],
      "name": "CompetitivePurchase",
      "type": "event"
    },
    {
      "anonymous": false,
      "inputs": [
        {
          "indexed": true,
          "internalType": "address",
          "name": "admin",
          "type": "address"
        },
        {
          "indexed": true,
          "internalType": "address",
          "name": "token",
          "type": "address"
        },
        {
          "indexed": true,
          "internalType": "address",
          "name": "recipient",
          "type": "address"
        },
        {
          "indexed": false,
          "internalType": "uint256",
          "name": "amount",
          "type": "uint256"
        },
        {
          "indexed": false,
          "internalType": "uint256",
          "name": "timestamp",
          "type": "uint256"
        }
      ],
      "name": "EmergencyTokenWithdrawal",
      "type": "event"
    },
    {
      "anonymous": false,
      "inputs": [
        {
          "indexed": true,
          "internalType": "address",
          "name": "admin",
          "type": "address"
        },
        {
          "indexed": true,
          "internalType": "address",
          "name": "recipient",
          "type": "address"
        },
        {
          "indexed": false,
          "internalType": "uint256",
          "name": "amount",
          "type": "uint256"
        },
        {
          "indexed": false,
          "internalType": "uint256",
          "name": "timestamp",
          "type": "uint256"
        }
      ],
      "name": "EmergencyWithdrawal",
      "type": "event"
    },
    {
      "anonymous": false,
      "inputs": [
        {
          "indexed": false,
          "internalType": "uint256",
          "name": "oldBaseFee",
          "type": "uint256"
        },
        {
          "indexed": false,
          "internalType": "uint256",
          "name": "newBaseFee",
          "type": "uint256"
        },
        {
          "indexed": false,
          "internalType": "uint256",
          "name": "oldMaxFee",
          "type": "uint256"
        },
        {
          "indexed": false,
          "internalType": "uint256",
          "name": "newMaxFee",
          "type": "uint256"
        },
        {
          "indexed": true,
          "internalType": "address",
          "name": "admin",
          "type": "address"
        }
      ],
      "name": "FeeConfigUpdated",
      "type": "event"
    },
    {
      "anonymous": false,
      "inputs": [
        {
          "indexed": true,
          "internalType": "address",
          "name": "account",
          "type": "address"
        },
        {
          "indexed": false,
          "internalType": "bool",
          "name": "approved",
          "type": "bool"
        }
      ],
      "name": "KYCStatusUpdated",
      "type": "event"
    },
    {
      "anonymous": false,
      "inputs": [
        {
          "indexed": true,
          "internalType": "uint256",
          "name": "tokenId",
          "type": "uint256"
        },
        {
          "indexed": false,
          "internalType": "uint256",
          "name": "oldPrice",
          "type": "uint256"
        },
        {
          "indexed": false,
          "internalType": "uint256",
          "name": "newPrice",
          "type": "uint256"
        },
        {
          "indexed": false,
          "internalType": "address",
          "name": "oldToken",
          "type": "address"
        },
        {
          "indexed": false,
          "internalType": "address",
          "name": "newToken",
          "type": "address"
        }
      ],
      "name": "ListingPriceChanged",
      "type": "event"
    },
    {
      "anonymous": false,
      "inputs": [
        {
          "indexed": true,
          "internalType": "uint256",
          "name": "tokenId",
          "type": "uint256"
        },
        {
          "indexed": false,
          "internalType": "uint256",
          "name": "newPrice",
          "type": "uint256"
        },
        {
          "indexed": false,
          "internalType": "address",
          "name": "newPaymentToken",
          "type": "address"
        }
      ],
      "name": "ListingUpdated",
      "type": "event"
    },
    {
      "anonymous": false,
      "inputs": [
        {
          "indexed": true,
          "internalType": "address",
          "name": "multiSigOperator",
          "type": "address"
        },
        {
          "indexed": true,
          "internalType": "address",
          "name": "admin",
          "type": "address"
        }
      ],
      "name": "MultiSigOperatorSet",
      "type": "event"
    },
    {
      "anonymous": false,
      "inputs": [
        {
          "indexed": true,
          "internalType": "uint256",
          "name": "tokenId",
          "type": "uint256"
        },
        {
          "indexed": true,
          "internalType": "address",
          "name": "seller",
          "type": "address"
        },
        {
          "indexed": false,
          "internalType": "uint256",
          "name": "price",
          "type": "uint256"
        },
        {
          "indexed": false,
          "internalType": "address",
          "name": "paymentToken",
          "type": "address"
        }
      ],
      "name": "NewListing",
      "type": "event"
    },
    {
      "anonymous": false,
      "inputs": [
        {
          "indexed": false,
          "internalType": "address",
          "name": "account",
          "type": "address"
        }
      ],
      "name": "Paused",
      "type": "event"
    },
    {
      "anonymous": false,
      "inputs": [
        {
          "indexed": true,
          "internalType": "address",
          "name": "seller",
          "type": "address"
        },
        {
          "indexed": true,
          "internalType": "address",
          "name": "buyer",
          "type": "address"
        },
        {
          "indexed": false,
          "internalType": "uint256",
          "name": "amount",
          "type": "uint256"
        },
        {
          "indexed": false,
          "internalType": "uint256",
          "name": "fees",
          "type": "uint256"
        },
        {
          "indexed": false,
          "internalType": "address",
          "name": "paymentToken",
          "type": "address"
        }
      ],
      "name": "PaymentProcessed",
      "type": "event"
    },
    {
      "anonymous": false,
      "inputs": [
        {
          "indexed": true,
          "internalType": "address",
          "name": "token",
          "type": "address"
        },
        {
          "indexed": true,
          "internalType": "address",
          "name": "operator",
          "type": "address"
        }
      ],
      "name": "PaymentTokenAdded",
      "type": "event"
    },
    {
      "anonymous": false,
      "inputs": [
        {
          "indexed": true,
          "internalType": "address",
          "name": "token",
          "type": "address"
        },
        {
          "indexed": true,
          "internalType": "address",
          "name": "operator",
          "type": "address"
        }
      ],
      "name": "PaymentTokenRemoved",
      "type": "event"
    },
    {
      "anonymous": false,
      "inputs": [
        {
          "indexed": true,
          "internalType": "uint256",
          "name": "tokenId",
          "type": "uint256"
        },
        {
          "indexed": false,
          "internalType": "address",
          "name": "buyer",
          "type": "address"
        },
        {
          "indexed": false,
          "internalType": "uint256",
          "name": "price",
          "type": "uint256"
        },
        {
          "indexed": false,
          "internalType": "address",
          "name": "paymentToken",
          "type": "address"
        }
      ],
      "name": "PropertySold",
      "type": "event"
    },
    {
      "anonymous": false,
      "inputs": [
        {
          "indexed": false,
          "internalType": "uint256",
          "name": "oldBaseRate",
          "type": "uint256"
        },
        {
          "indexed": false,
          "internalType": "uint256",
          "name": "newBaseRate",
          "type": "uint256"
        },
        {
          "indexed": false,
          "internalType": "uint256",
          "name": "oldMultiplier",
          "type": "uint256"
        },
        {
          "indexed": false,
          "internalType": "uint256",
          "name": "newMultiplier",
          "type": "uint256"
        },
        {
          "indexed": true,
          "internalType": "address",
          "name": "admin",
          "type": "address"
        }
      ],
      "name": "RewardParametersUpdated",
      "type": "event"
    },
    {
      "anonymous": false,
      "inputs": [
        {
          "indexed": true,
          "internalType": "bytes32",
          "name": "role",
          "type": "bytes32"
        },
        {
          "indexed": true,
          "internalType": "bytes32",
          "name": "previousAdminRole",
          "type": "bytes32"
        },
        {
          "indexed": true,
          "internalType": "bytes32",
          "name": "newAdminRole",
          "type": "bytes32"
        }
      ],
      "name": "RoleAdminChanged",
      "type": "event"
    },
    {
      "anonymous": false,
      "inputs": [
        {
          "indexed": true,
          "internalType": "bytes32",
          "name": "role",
          "type": "bytes32"
        },
        {
          "indexed": true,
          "internalType": "address",
          "name": "account",
          "type": "address"
        },
        {
          "indexed": true,
          "internalType": "address",
          "name": "sender",
          "type": "address"
        }
      ],
      "name": "RoleGranted",
      "type": "event"
    },
    {
      "anonymous": false,
      "inputs": [
        {
          "indexed": true,
          "internalType": "bytes32",
          "name": "role",
          "type": "bytes32"
        },
        {
          "indexed": true,
          "internalType": "address",
          "name": "account",
          "type": "address"
        },
        {
          "indexed": true,
          "internalType": "address",
          "name": "sender",
          "type": "address"
        }
      ],
      "name": "RoleRevoked",
      "type": "event"
    },
    {
      "anonymous": false,
      "inputs": [
        {
          "indexed": false,
          "internalType": "bool",
          "name": "enabled",
          "type": "bool"
        },
        {
          "indexed": true,
          "internalType": "address",
          "name": "admin",
          "type": "address"
        }
      ],
      "name": "TimelockEnabledChanged",
      "type": "event"
    },
    {
      "anonymous": false,
      "inputs": [
        {
          "indexed": true,
          "internalType": "address",
          "name": "timelock",
          "type": "address"
        },
        {
          "indexed": true,
          "internalType": "address",
          "name": "admin",
          "type": "address"
        }
      ],
      "name": "TimelockSet",
      "type": "event"
    },
    {
      "anonymous": false,
      "inputs": [
        {
          "indexed": false,
          "internalType": "address",
          "name": "account",
          "type": "address"
        }
      ],
      "name": "Unpaused",
      "type": "event"
    },
    {
      "anonymous": false,
      "inputs": [
        {
          "indexed": false,
          "internalType": "bool",
          "name": "enabled",
          "type": "bool"
        },
        {
          "indexed": true,
          "internalType": "address",
          "name": "operator",
          "type": "address"
        }
      ],
      "name": "WhitelistStatusChanged",
      "type": "event"
    },
    {
      "inputs": [],
      "name": "BASIS_POINTS",
      "outputs": [
        {
          "internalType": "uint256",
          "name": "",
          "type": "uint256"
        }
      ],
      "stateMutability": "view",
      "type": "function"
    },
    {
      "inputs": [],
      "name": "DEFAULT_ADMIN_ROLE",
      "outputs": [
        {
          "internalType": "bytes32",
          "name": "",
          "type": "bytes32"
        }
      ],
      "stateMutability": "view",
      "type": "function"
    },
    {
      "inputs": [],
      "name": "LEGAL_ROLE",
      "outputs": [
        {
          "internalType": "bytes32",
          "name": "",
          "type": "bytes32"
        }
      ],
      "stateMutability": "view",
      "type": "function"
    },
    {
      "inputs": [],
      "name": "MAX_BIDS_BEFORE_CLEANUP",
      "outputs": [
        {
          "internalType": "uint256",
          "name": "",
          "type": "uint256"
        }
      ],
      "stateMutability": "view",
      "type": "function"
    },
    {
      "inputs": [],
      "name": "MIN_BID_INCREMENT_PERCENT",
      "outputs": [
        {
          "internalType": "uint256",
          "name": "",
          "type": "uint256"
        }
      ],
      "stateMutability": "view",
      "type": "function"
    },
    {
      "inputs": [],
      "name": "OPERATOR_ROLE",
      "outputs": [
        {
          "internalType": "bytes32",
          "name": "",
          "type": "bytes32"
        }
      ],
      "stateMutability": "view",
      "type": "function"
    },
    {
      "inputs": [],
      "name": "PERCENTAGE_BASE",
      "outputs": [
        {
          "internalType": "uint256",
          "name": "",
          "type": "uint256"
        }
      ],
      "stateMutability": "view",
      "type": "function"
    },
    {
      "inputs": [],
      "name": "REWARD_MANAGER",
      "outputs": [
        {
          "internalType": "bytes32",
          "name": "",
          "type": "bytes32"
        }
      ],
      "stateMutability": "view",
      "type": "function"
    },
    {
      "inputs": [
        {
          "internalType": "uint256",
          "name": "tokenId",
          "type": "uint256"
        },
        {
          "internalType": "uint256",
          "name": "bidIndex",
          "type": "uint256"
        },
        {
          "internalType": "address",
          "name": "expectedBidder",
          "type": "address"
        },
        {
          "internalType": "uint256",
          "name": "expectedAmount",
          "type": "uint256"
        },
        {
          "internalType": "address",
          "name": "expectedPaymentToken",
          "type": "address"
        }
      ],
      "name": "acceptBid",
      "outputs": [],
      "stateMutability": "nonpayable",
      "type": "function"
    },
    {
      "inputs": [
        {
          "internalType": "address",
          "name": "token",
          "type": "address"
        }
      ],
      "name": "addAllowedToken",
      "outputs": [],
      "stateMutability": "nonpayable",
      "type": "function"
    },
    {
      "inputs": [
        {
          "internalType": "address",
          "name": "",
          "type": "address"
        }
      ],
      "name": "allowedPaymentTokens",
      "outputs": [
        {
          "internalType": "bool",
          "name": "",
          "type": "bool"
        }
      ],
      "stateMutability": "view",
      "type": "function"
    },
    {
      "inputs": [
        {
          "internalType": "address[]",
          "name": "accounts",
          "type": "address[]"
        },
        {
          "internalType": "bool",
          "name": "approved",
          "type": "bool"
        }
      ],
      "name": "batchApproveKYC",
      "outputs": [],
      "stateMutability": "nonpayable",
      "type": "function"
    },
    {
      "inputs": [
        {
          "internalType": "address",
          "name": "",
          "type": "address"
        },
        {
          "internalType": "uint256",
          "name": "",
          "type": "uint256"
        }
      ],
      "name": "bidIndexByBidder",
      "outputs": [
        {
          "internalType": "uint256",
          "name": "",
          "type": "uint256"
        }
      ],
      "stateMutability": "view",
      "type": "function"
    },
    {
      "inputs": [
        {
          "internalType": "uint256",
          "name": "",
          "type": "uint256"
        },
        {
          "internalType": "uint256",
          "name": "",
          "type": "uint256"
        }
      ],
      "name": "bidsForToken",
      "outputs": [
        {
          "internalType": "uint256",
          "name": "tokenId",
          "type": "uint256"
        },
        {
          "internalType": "address",
          "name": "bidder",
          "type": "address"
        },
        {
          "internalType": "uint256",
          "name": "amount",
          "type": "uint256"
        },
        {
          "internalType": "address",
          "name": "paymentToken",
          "type": "address"
        },
        {
          "internalType": "uint256",
          "name": "bidTimestamp",
          "type": "uint256"
        },
        {
          "internalType": "bool",
          "name": "isActive",
          "type": "bool"
        }
      ],
      "stateMutability": "view",
      "type": "function"
    },
    {
      "inputs": [
        {
          "internalType": "address",
          "name": "user",
          "type": "address"
        },
        {
          "internalType": "uint256",
          "name": "baseAmount",
          "type": "uint256"
        }
      ],
      "name": "calculateRewards",
      "outputs": [
        {
          "internalType": "uint256",
          "name": "",
          "type": "uint256"
        }
      ],
      "stateMutability": "view",
      "type": "function"
    },
    {
      "inputs": [
        {
          "internalType": "uint256",
          "name": "tokenId",
          "type": "uint256"
        }
      ],
      "name": "cancelBid",
      "outputs": [],
      "stateMutability": "nonpayable",
      "type": "function"
    },
    {
      "inputs": [
        {
          "internalType": "uint256",
          "name": "tokenId",
          "type": "uint256"
        }
      ],
      "name": "cleanupInactiveBids",
      "outputs": [],
      "stateMutability": "nonpayable",
      "type": "function"
    },
    {
      "inputs": [
        {
          "internalType": "address",
          "name": "",
          "type": "address"
        }
      ],
      "name": "communityScores",
      "outputs": [
        {
          "internalType": "uint256",
          "name": "",
          "type": "uint256"
        }
      ],
      "stateMutability": "view",
      "type": "function"
    },
    {
      "inputs": [
        {
          "internalType": "uint256",
          "name": "tokenId",
          "type": "uint256"
        }
      ],
      "name": "completeBidPayment",
      "outputs": [],
      "stateMutability": "payable",
      "type": "function"
    },
    {
      "inputs": [
        {
          "internalType": "uint256",
          "name": "newBaseRate",
          "type": "uint256"
        },
        {
          "internalType": "uint256",
          "name": "newMultiplier",
          "type": "uint256"
        },
        {
          "internalType": "uint256",
          "name": "newLeaseBonus",
          "type": "uint256"
        }
      ],
      "name": "configureRewards",
      "outputs": [],
      "stateMutability": "nonpayable",
      "type": "function"
    },
    {
      "inputs": [
        {
          "internalType": "uint256",
          "name": "functionId",
          "type": "uint256"
        },
        {
          "internalType": "bool",
          "name": "paused",
          "type": "bool"
        }
      ],
      "name": "emergencyPauseFunction",
      "outputs": [],
      "stateMutability": "nonpayable",
      "type": "function"
    },
    {
      "inputs": [
        {
          "internalType": "uint256",
          "name": "amount",
          "type": "uint256"
        },
        {
          "internalType": "address payable",
          "name": "recipient",
          "type": "address"
        }
      ],
      "name": "emergencyWithdrawETH",
      "outputs": [],
      "stateMutability": "nonpayable",
      "type": "function"
    },
    {
      "inputs": [
        {
          "internalType": "address",
          "name": "token",
          "type": "address"
        },
        {
          "internalType": "uint256",
          "name": "amount",
          "type": "uint256"
        },
        {
          "internalType": "address",
          "name": "recipient",
          "type": "address"
        }
      ],
      "name": "emergencyWithdrawToken",
      "outputs": [],
      "stateMutability": "nonpayable",
      "type": "function"
    },
    {
      "inputs": [
        {
          "internalType": "uint256",
          "name": "",
          "type": "uint256"
        },
        {
          "internalType": "address",
          "name": "",
          "type": "address"
        }
      ],
      "name": "ethBidDeposits",
      "outputs": [
        {
          "internalType": "uint256",
          "name": "",
          "type": "uint256"
        }
      ],
      "stateMutability": "view",
      "type": "function"
    },
    {
      "inputs": [],
      "name": "feeConfig",
      "outputs": [
        {
          "internalType": "uint256",
          "name": "baseFee",
          "type": "uint256"
        },
        {
          "internalType": "uint256",
          "name": "maxFee",
          "type": "uint256"
        },
        {
          "internalType": "address",
          "name": "feeCollector",
          "type": "address"
        }
      ],
      "stateMutability": "view",
      "type": "function"
    },
    {
      "inputs": [
        {
          "internalType": "uint256",
          "name": "",
          "type": "uint256"
        }
      ],
      "name": "functionPaused",
      "outputs": [
        {
          "internalType": "bool",
          "name": "",
          "type": "bool"
        }
      ],
      "stateMutability": "view",
      "type": "function"
    },
    {
      "inputs": [
        {
          "internalType": "uint256",
          "name": "tokenId",
          "type": "uint256"
        }
      ],
      "name": "getActiveBidsForToken",
      "outputs": [
        {
          "components": [
            {
              "internalType": "uint256",
              "name": "tokenId",
              "type": "uint256"
            },
            {
              "internalType": "address",
              "name": "bidder",
              "type": "address"
            },
            {
              "internalType": "uint256",
              "name": "amount",
              "type": "uint256"
            },
            {
              "internalType": "address",
              "name": "paymentToken",
              "type": "address"
            },
            {
              "internalType": "uint256",
              "name": "bidTimestamp",
              "type": "uint256"
            },
            {
              "internalType": "bool",
              "name": "isActive",
              "type": "bool"
            }
          ],
          "internalType": "struct PropertyMarket.Bid[]",
          "name": "activeBids",
          "type": "tuple[]"
        }
      ],
      "stateMutability": "view",
      "type": "function"
    },
    {
      "inputs": [
        {
          "internalType": "uint256",
          "name": "tokenId",
          "type": "uint256"
        },
        {
          "internalType": "uint256",
          "name": "offset",
          "type": "uint256"
        },
        {
          "internalType": "uint256",
          "name": "limit",
          "type": "uint256"
        }
      ],
      "name": "getActiveBidsForTokenPaginated",
      "outputs": [
        {
          "components": [
            {
              "internalType": "uint256",
              "name": "tokenId",
              "type": "uint256"
            },
            {
              "internalType": "address",
              "name": "bidder",
              "type": "address"
            },
            {
              "internalType": "uint256",
              "name": "amount",
              "type": "uint256"
            },
            {
              "internalType": "address",
              "name": "paymentToken",
              "type": "address"
            },
            {
              "internalType": "uint256",
              "name": "bidTimestamp",
              "type": "uint256"
            },
            {
              "internalType": "bool",
              "name": "isActive",
              "type": "bool"
            }
          ],
          "internalType": "struct PropertyMarket.Bid[]",
          "name": "activeBids",
          "type": "tuple[]"
        },
        {
          "internalType": "uint256",
          "name": "totalCount",
          "type": "uint256"
        }
      ],
      "stateMutability": "view",
      "type": "function"
    },
    {
      "inputs": [
        {
          "internalType": "uint256",
          "name": "tokenId",
          "type": "uint256"
        },
        {
          "internalType": "address",
          "name": "bidder",
          "type": "address"
        }
      ],
      "name": "getBidFromBidder",
      "outputs": [
        {
          "components": [
            {
              "internalType": "uint256",
              "name": "tokenId",
              "type": "uint256"
            },
            {
              "internalType": "address",
              "name": "bidder",
              "type": "address"
            },
            {
              "internalType": "uint256",
              "name": "amount",
              "type": "uint256"
            },
            {
              "internalType": "address",
              "name": "paymentToken",
              "type": "address"
            },
            {
              "internalType": "uint256",
              "name": "bidTimestamp",
              "type": "uint256"
            },
            {
              "internalType": "bool",
              "name": "isActive",
              "type": "bool"
            }
          ],
          "internalType": "struct PropertyMarket.Bid",
          "name": "",
          "type": "tuple"
        }
      ],
      "stateMutability": "view",
      "type": "function"
    },
    {
      "inputs": [],
      "name": "getCurrentFee",
      "outputs": [
        {
          "internalType": "uint256",
          "name": "",
          "type": "uint256"
        }
      ],
      "stateMutability": "view",
      "type": "function"
    },
    {
      "inputs": [
        {
          "internalType": "uint256",
          "name": "tokenId",
          "type": "uint256"
        }
      ],
      "name": "getListingDetails",
      "outputs": [
        {
          "internalType": "address",
          "name": "seller",
          "type": "address"
        },
        {
          "internalType": "uint256",
          "name": "price",
          "type": "uint256"
        },
        {
          "internalType": "address",
          "name": "paymentToken",
          "type": "address"
        },
        {
          "internalType": "enum PropertyMarket.PropertyStatus",
          "name": "status",
          "type": "uint8"
        },
        {
          "internalType": "uint256",
          "name": "listTimestamp",
          "type": "uint256"
        }
      ],
      "stateMutability": "view",
      "type": "function"
    },
    {
      "inputs": [
        {
          "internalType": "bytes32",
          "name": "role",
          "type": "bytes32"
        }
      ],
      "name": "getRoleAdmin",
      "outputs": [
        {
          "internalType": "bytes32",
          "name": "",
          "type": "bytes32"
        }
      ],
      "stateMutability": "view",
      "type": "function"
    },
    {
      "inputs": [],
      "name": "globalPause",
      "outputs": [],
      "stateMutability": "nonpayable",
      "type": "function"
    },
    {
      "inputs": [],
      "name": "globalUnpause",
      "outputs": [],
      "stateMutability": "nonpayable",
      "type": "function"
    },
    {
      "inputs": [
        {
          "internalType": "bytes32",
          "name": "role",
          "type": "bytes32"
        },
        {
          "internalType": "address",
          "name": "account",
          "type": "address"
        }
      ],
      "name": "grantRole",
      "outputs": [],
      "stateMutability": "nonpayable",
      "type": "function"
    },
    {
      "inputs": [
        {
          "internalType": "bytes32",
          "name": "role",
          "type": "bytes32"
        },
        {
          "internalType": "address",
          "name": "account",
          "type": "address"
        }
      ],
      "name": "hasRole",
      "outputs": [
        {
          "internalType": "bool",
          "name": "",
          "type": "bool"
        }
      ],
      "stateMutability": "view",
      "type": "function"
    },
    {
      "inputs": [
        {
          "internalType": "address",
          "name": "account",
          "type": "address"
        }
      ],
      "name": "isKYCVerified",
      "outputs": [
        {
          "internalType": "bool",
          "name": "",
          "type": "bool"
        }
      ],
      "stateMutability": "view",
      "type": "function"
    },
    {
      "inputs": [
        {
          "internalType": "address",
          "name": "token",
          "type": "address"
        }
      ],
      "name": "isTokenAllowed",
      "outputs": [
        {
          "internalType": "bool",
          "name": "",
          "type": "bool"
        }
      ],
      "stateMutability": "view",
      "type": "function"
    },
    {
      "inputs": [
        {
          "internalType": "uint256",
          "name": "tokenId",
          "type": "uint256"
        },
        {
          "internalType": "uint256",
          "name": "price",
          "type": "uint256"
        },
        {
          "internalType": "address",
          "name": "paymentToken",
          "type": "address"
        }
      ],
      "name": "listProperty",
      "outputs": [],
      "stateMutability": "nonpayable",
      "type": "function"
    },
    {
      "inputs": [
        {
          "internalType": "uint256",
          "name": "",
          "type": "uint256"
        }
      ],
      "name": "listings",
      "outputs": [
        {
          "internalType": "uint256",
          "name": "tokenId",
          "type": "uint256"
        },
        {
          "internalType": "address",
          "name": "seller",
          "type": "address"
        },
        {
          "internalType": "uint256",
          "name": "price",
          "type": "uint256"
        },
        {
          "internalType": "address",
          "name": "paymentToken",
          "type": "address"
        },
        {
          "internalType": "enum PropertyMarket.PropertyStatus",
          "name": "status",
          "type": "uint8"
        },
        {
          "internalType": "uint256",
          "name": "listTimestamp",
          "type": "uint256"
        },
        {
          "internalType": "uint256",
          "name": "lastRenewed",
          "type": "uint256"
        }
      ],
      "stateMutability": "view",
      "type": "function"
    },
    {
      "inputs": [],
      "name": "multiSigOperator",
      "outputs": [
        {
          "internalType": "contract MultiSigOperator",
          "name": "",
          "type": "address"
        }
      ],
      "stateMutability": "view",
      "type": "function"
    },
    {
      "inputs": [],
      "name": "nftiContract",
      "outputs": [
        {
          "internalType": "contract IERC721",
          "name": "",
          "type": "address"
        }
      ],
      "stateMutability": "view",
      "type": "function"
    },
    {
      "inputs": [],
      "name": "nftmContract",
      "outputs": [
        {
          "internalType": "contract IERC721",
          "name": "",
          "type": "address"
        }
      ],
      "stateMutability": "view",
      "type": "function"
    },
    {
      "inputs": [],
      "name": "paused",
      "outputs": [
        {
          "internalType": "bool",
          "name": "",
          "type": "bool"
        }
      ],
      "stateMutability": "view",
      "type": "function"
    },
    {
      "inputs": [
        {
          "internalType": "uint256",
          "name": "tokenId",
          "type": "uint256"
        },
        {
          "internalType": "uint256",
          "name": "bidAmount",
          "type": "uint256"
        },
        {
          "internalType": "address",
          "name": "paymentToken",
          "type": "address"
        }
      ],
      "name": "placeBid",
      "outputs": [],
      "stateMutability": "payable",
      "type": "function"
    },
    {
      "inputs": [
        {
          "internalType": "uint256",
          "name": "tokenId",
          "type": "uint256"
        },
        {
          "internalType": "uint256",
          "name": "bidAmount",
          "type": "uint256"
        },
        {
          "internalType": "address",
          "name": "paymentToken",
          "type": "address"
        }
      ],
      "name": "placeBidSecure",
      "outputs": [],
      "stateMutability": "payable",
      "type": "function"
    },
    {
      "inputs": [
        {
          "internalType": "uint256",
          "name": "tokenId",
          "type": "uint256"
        },
        {
          "internalType": "uint256",
          "name": "offerPrice",
          "type": "uint256"
        }
      ],
      "name": "purchaseProperty",
      "outputs": [],
      "stateMutability": "payable",
      "type": "function"
    },
    {
      "inputs": [
        {
          "internalType": "address",
          "name": "token",
          "type": "address"
        }
      ],
      "name": "removeAllowedToken",
      "outputs": [],
      "stateMutability": "nonpayable",
      "type": "function"
    },
    {
      "inputs": [
        {
          "internalType": "bytes32",
          "name": "role",
          "type": "bytes32"
        },
        {
          "internalType": "address",
          "name": "account",
          "type": "address"
        }
      ],
      "name": "renounceRole",
      "outputs": [],
      "stateMutability": "nonpayable",
      "type": "function"
    },
    {
      "inputs": [
        {
          "internalType": "bytes32",
          "name": "role",
          "type": "bytes32"
        },
        {
          "internalType": "address",
          "name": "account",
          "type": "address"
        }
      ],
      "name": "revokeRole",
      "outputs": [],
      "stateMutability": "nonpayable",
      "type": "function"
    },
    {
      "inputs": [],
      "name": "rewardParams",
      "outputs": [
        {
          "internalType": "uint256",
          "name": "baseRate",
          "type": "uint256"
        },
        {
          "internalType": "uint256",
          "name": "communityMultiplier",
          "type": "uint256"
        },
        {
          "internalType": "uint256",
          "name": "maxLeaseBonus",
          "type": "uint256"
        },
        {
          "internalType": "address",
          "name": "rewardsVault",
          "type": "address"
        }
      ],
      "stateMutability": "view",
      "type": "function"
    },
    {
      "inputs": [
        {
          "internalType": "address",
          "name": "_multiSigOperator",
          "type": "address"
        }
      ],
      "name": "setMultiSigOperator",
      "outputs": [],
      "stateMutability": "nonpayable",
      "type": "function"
    },
    {
      "inputs": [
        {
          "internalType": "address",
          "name": "_timelock",
          "type": "address"
        }
      ],
      "name": "setTimelock",
      "outputs": [],
      "stateMutability": "nonpayable",
      "type": "function"
    },
    {
      "inputs": [
        {
          "internalType": "bool",
          "name": "enabled",
          "type": "bool"
        }
      ],
      "name": "setTimelockEnabled",
      "outputs": [],
      "stateMutability": "nonpayable",
      "type": "function"
    },
    {
      "inputs": [
        {
          "internalType": "bool",
          "name": "enabled",
          "type": "bool"
        }
      ],
      "name": "setWhitelistEnabled",
      "outputs": [],
      "stateMutability": "nonpayable",
      "type": "function"
    },
    {
      "inputs": [
        {
          "internalType": "bytes4",
          "name": "interfaceId",
          "type": "bytes4"
        }
      ],
      "name": "supportsInterface",
      "outputs": [
        {
          "internalType": "bool",
          "name": "",
          "type": "bool"
        }
      ],
      "stateMutability": "view",
      "type": "function"
    },
    {
      "inputs": [],
      "name": "timelock",
      "outputs": [
        {
          "internalType": "contract PropertyMarketTimelock",
          "name": "",
          "type": "address"
        }
      ],
      "stateMutability": "view",
      "type": "function"
    },
    {
      "inputs": [],
      "name": "timelockEnabled",
      "outputs": [
        {
          "internalType": "bool",
          "name": "",
          "type": "bool"
        }
      ],
      "stateMutability": "view",
      "type": "function"
    },
    {
      "inputs": [
        {
          "internalType": "address",
          "name": "user",
          "type": "address"
        },
        {
          "internalType": "uint256",
          "name": "scoreDelta",
          "type": "uint256"
        },
        {
          "internalType": "bool",
          "name": "isAddition",
          "type": "bool"
        }
      ],
      "name": "updateCommunityScore",
      "outputs": [],
      "stateMutability": "nonpayable",
      "type": "function"
    },
    {
      "inputs": [
        {
          "internalType": "uint256",
          "name": "newBaseFee",
          "type": "uint256"
        },
        {
          "internalType": "address",
          "name": "newCollector",
          "type": "address"
        }
      ],
      "name": "updateFeeConfig",
      "outputs": [],
      "stateMutability": "nonpayable",
      "type": "function"
    },
    {
      "inputs": [
        {
          "internalType": "uint256",
          "name": "tokenId",
          "type": "uint256"
        },
        {
          "internalType": "uint256",
          "name": "newPrice",
          "type": "uint256"
        },
        {
          "internalType": "address",
          "name": "newPaymentToken",
          "type": "address"
        }
      ],
      "name": "updateListing",
      "outputs": [],
      "stateMutability": "nonpayable",
      "type": "function"
    },
    {
      "inputs": [
        {
          "internalType": "uint256",
          "name": "tokenId",
          "type": "uint256"
        },
        {
          "internalType": "uint256",
          "name": "newPrice",
          "type": "uint256"
        },
        {
          "internalType": "address",
          "name": "newPaymentToken",
          "type": "address"
        }
      ],
      "name": "updateListingBySeller",
      "outputs": [],
      "stateMutability": "nonpayable",
      "type": "function"
    },
    {
      "inputs": [],
      "name": "whitelistEnabled",
      "outputs": [
        {
          "internalType": "bool",
          "name": "",
          "type": "bool"
        }
      ],
      "stateMutability": "view",
      "type": "function"
    }
  ],
  "bytecode": "0x60c0604052600f805460ff60a01b1916600160a01b1790556011805460ff191660011790553480156200003157600080fd5b50604051620070763803806200707683398101604081905262000054916200041d565b60016000556002805460ff191690558282826001600160a01b038216620000c25760405162461bcd60e51b815260206004820152601d60248201527f496e76616c69642066656520636f6c6c6563746f72206164647265737300000060448201526064015b60405180910390fd5b6001600160a01b0381166200011a5760405162461bcd60e51b815260206004820152601d60248201527f496e76616c69642072657761726473207661756c7420616464726573730000006044820152606401620000b9565b6001600160a01b038316620001725760405162461bcd60e51b815260206004820152601560248201527f496e76616c69642061646d696e206164647265737300000000000000000000006044820152606401620000b9565b6200017d83620002e3565b604080516060808201835260c88083526103e860208085018290526001600160a01b039788169486018590526003929092556004818155600580546001600160a01b0319908116909617905585516080810187528281526107d081850181905261012c828901819052988a16919095018190526006929092556007939093556008959095556009805490931690941790915581518083019092528152634530303160e01b91810191909152915086166200024c5760405162461bcd60e51b8152600401620000b991906200048d565b506040805180820190915260048152634530303160e01b60208201526001600160a01b038516620002925760405162461bcd60e51b8152600401620000b991906200048d565b505060008052505060106020527f6e0956cda88cad152e89927e53611735b61a5c762d1428573c6931b0a5efcb01805460ff191660011790556001600160a01b039182166080521660a052620004dd565b620002f060008262000377565b6200031c7f97667070c54ef182b0f5858b034beac1b6f3089aa2d3188bb1e8929f4fa9b9298262000377565b620003487fb9f13ecb5e7f0f859c44b76b3a163e504787b446da95a26bf75e53e1ff4a1e0e8262000377565b620003747f6393fa734211156fcc8c7dda6b0650f5c731d4c838c1db43445a149aa2f5b6fe8262000377565b50565b60008281526001602090815260408083206001600160a01b038516845290915290205460ff16620003fc5760008281526001602081815260408084206001600160a01b0386168086529252808420805460ff19169093179092559051339285917f2f8788117e7eff1d82e926ec794901d17c78024a50270940304540a733656f0d9190a45b5050565b80516001600160a01b03811681146200041857600080fd5b919050565b600080600080600060a086880312156200043657600080fd5b620004418662000400565b9450620004516020870162000400565b9350620004616040870162000400565b9250620004716060870162000400565b9150620004816080870162000400565b90509295509295909350565b600060208083528351808285015260005b81811015620004bc578581018301518582016040015282016200049e565b506000604082860101526040601f19601f8301168501019250505092915050565b60805160a051616b3b6200053b600039600061096e01526000818161051d01528181610fd101528181611576015281816120e1015281816127e101528181613465015281816141530152818161459301526148370152616b3b6000f3fe6080604052600436106102c85760003560e01c806301ffc9a7146102cd578063052d9e7e146103025780630720cb42146103245780631276291c1461033757806315945006146103645780631e5eb1d0146103845780631fb4d31c146103bb578063248a9ca3146103db5780632b212e06146104095780632f2ff15d1461041e57806330cc50e71461043e57806336568abe1461045e5780634178617f1461047e5780634a277ec51461049e5780634f843494146104be57806351fb012d146104d157806354b7636e146104eb578063592eb9241461050b5780635932fdba1461054c5780635c975abb1461056e5780635dda3e011461058657806365e64a05146105a6578063697d312a146105c657806369fcc649146105f657806373c250c61461062e578063763469141461065b57806379cef8bd146106b057806383509080146106dd57806386aa217e146106fd57806387c139431461071d578063887f495a1461073357806388f0bc73146107535780638e7579a11461077357806390469a9d1461079557806391d14854146107b55780639703ef35146107d5578063a217fddf146107f5578063a33b2d3f1461080a578063ad6561ec1461082a578063b10e26a91461083d578063b320f6a91461086b578063bb06ffaa1461088c578063bc996819146108ac578063bdacb303146108c1578063beb8314c146108e1578063c7921a7c14610901578063cbb9c9a41461095c578063ce19057814610990578063cf23913b146109a5578063d33219b4146109c5578063d547741f146109e5578063ddd1a5bf14610a05578063de74e57b14610a3d578063e1f1c4a71461071d578063e4e1c3fe14610ab7578063e58a7b3114610ad7578063e737220914610af7578063ee5b8e0e14610b0a578063f12d54d814610b3a578063f5b541a614610b4f578063f70d936214610b71578063f9eaee0d14610b86578063fb05da2e14610ba6575b600080fd5b3480156102d957600080fd5b506102ed6102e83660046161c3565b610c14565b60405190151581526020015b60405180910390f35b34801561030e57600080fd5b5061032261031d3660046161fb565b610c4b565b005b610322610332366004616218565b610d67565b34801561034357600080fd5b50610357610352366004616218565b61113c565b6040516102f991906162c0565b34801561037057600080fd5b5061032261037f3660046162e8565b6112db565b34801561039057600080fd5b506003546004546005546103ac9291906001600160a01b031683565b6040516102f993929190616318565b3480156103c757600080fd5b506103226103d6366004616337565b611463565b3480156103e757600080fd5b506103fb6103f6366004616218565b611717565b6040519081526020016102f9565b34801561041557600080fd5b506103fb606481565b34801561042a57600080fd5b506103226104393660046162e8565b61172d565b34801561044a57600080fd5b50610322610459366004616218565b611786565b34801561046a57600080fd5b506103226104793660046162e8565b611b43565b34801561048a57600080fd5b50610322610499366004616370565b611bc1565b3480156104aa57600080fd5b506103226104b936600461638d565b611d1c565b6103226104cc3660046163b9565b611eae565b3480156104dd57600080fd5b506011546102ed9060ff1681565b3480156104f757600080fd5b506102ed610506366004616370565b612205565b34801561051757600080fd5b5061053f7f000000000000000000000000000000000000000000000000000000000000000081565b6040516102f991906163db565b34801561055857600080fd5b506103fb600080516020616a2683398151915281565b34801561057a57600080fd5b5060025460ff166102ed565b34801561059257600080fd5b506103226105a13660046163ef565b612212565b3480156105b257600080fd5b506103226105c13660046161fb565b6122db565b3480156105d257600080fd5b506102ed6105e1366004616370565b60106020526000908152604090205460ff1681565b34801561060257600080fd5b506103fb610611366004616469565b601560209081526000928352604080842090915290825290205481565b34801561063a57600080fd5b506103fb610649366004616370565b600c6020526000908152604090205481565b34801561066757600080fd5b50600654600754600854600954610687939291906001600160a01b031684565b604080519485526020850193909352918301526001600160a01b031660608201526080016102f9565b3480156106bc57600080fd5b506106d06106cb3660046162e8565b612341565b6040516102f99190616495565b3480156106e957600080fd5b506103226106f83660046164a3565b61244b565b34801561070957600080fd5b50610322610718366004616337565b612692565b34801561072957600080fd5b506103fb61271081565b34801561073f57600080fd5b5061032261074e366004616337565b612a44565b34801561075f57600080fd5b5061032261076e3660046162e8565b612c53565b34801561077f57600080fd5b506103fb600080516020616aa683398151915281565b3480156107a157600080fd5b506103226107b0366004616370565b612d75565b3480156107c157600080fd5b506102ed6107d03660046162e8565b612ecd565b3480156107e157600080fd5b506103226107f0366004616218565b612ef8565b34801561080157600080fd5b506103fb600081565b34801561081657600080fd5b506103226108253660046164da565b613200565b610322610838366004616337565b6132b1565b34801561084957600080fd5b5061085d61085836600461638d565b613b5e565b6040516102f9929190616511565b34801561087757600080fd5b50600f546102ed90600160a01b900460ff1681565b34801561089857600080fd5b50600f5461053f906001600160a01b031681565b3480156108b857600080fd5b506103fb600581565b3480156108cd57600080fd5b506103226108dc366004616370565b613da7565b3480156108ed57600080fd5b506103fb6108fc366004616469565b613e8a565b34801561090d57600080fd5b5061092161091c3660046163b9565b613ee1565b604080519687526001600160a01b039586166020880152860193909352921660608401526080830191909152151560a082015260c0016102f9565b34801561096857600080fd5b5061053f7f000000000000000000000000000000000000000000000000000000000000000081565b34801561099c57600080fd5b50610322613f44565b3480156109b157600080fd5b506103226109c0366004616533565b613f57565b3480156109d157600080fd5b50600e5461053f906001600160a01b031681565b3480156109f157600080fd5b50610322610a003660046162e8565b613f83565b348015610a1157600080fd5b506103fb610a203660046162e8565b601460209081526000928352604080842090915290825290205481565b348015610a4957600080fd5b50610aa4610a58366004616218565b60126020526000908152604090208054600182015460028301546003840154600485015460059095015493946001600160a01b03938416949293821692600160a01b90920460ff169187565b6040516102f99796959493929190616590565b348015610ac357600080fd5b50610322610ad2366004616370565b613fdc565b348015610ae357600080fd5b50610322610af23660046165d7565b6140bf565b610322610b05366004616337565b614683565b348015610b1657600080fd5b506102ed610b25366004616218565b600d6020526000908152604090205460ff1681565b348015610b4657600080fd5b50610322614c7b565b348015610b5b57600080fd5b506103fb600080516020616a8683398151915281565b348015610b7d57600080fd5b506003546103fb565b348015610b9257600080fd5b506102ed610ba1366004616370565b614c8e565b348015610bb257600080fd5b50610c03610bc1366004616218565b60009081526012602052604090206001810154600282015460038301546004909301546001600160a01b0392831694919392831692600160a01b900460ff1691565b6040516102f995949392919061662d565b60006001600160e01b03198216637965db0b60e01b1480610c4557506301ffc9a760e01b6001600160e01b03198316145b92915050565b600f54600160a01b900460ff168015610c6e5750600e546001600160a01b031615155b15610cc957600e546040805180820190915260048152634536303160e01b6020820152906001600160a01b03163314610cc35760405162461bcd60e51b8152600401610cba919061668d565b60405180910390fd5b50610d1e565b610ce1600080516020616a8683398151915233612ecd565b60405180604001604052806004815260200163229a181960e11b81525090610d1c5760405162461bcd60e51b8152600401610cba919061668d565b505b6011805460ff191682151590811790915560405190815233907f49d3b7603127f47657003ec050b7aeb0d61d8261082d7807be013894e89373fd9060200160405180910390a250565b610d6f614cc2565b600081815260126020526040902060046003820154600160a01b900460ff166004811115610d9f57610d9f616558565b1460405180604001604052806004815260200163114d4c0d60e21b81525090610ddb5760405162461bcd60e51b8152600401610cba919061668d565b5033600090815260156020908152604080832085845290915290205480610e3a5760405162461bcd60e51b8152602060048201526013602482015272139bc81858dd1a5d9948189a5908199bdd5b99606a1b6044820152606401610cba565b6000838152601360205260408120610e536001846166d6565b81548110610e6357610e636166e9565b60009182526020909120600690910201600581015490915060ff16610ebe5760405162461bcd60e51b8152602060048201526011602482015270426964206973206e6f742061637469766560781b6044820152606401610cba565b60018101546001600160a01b03163314610f095760405162461bcd60e51b815260206004820152600c60248201526b139bdd081e5bdd5c88189a5960a21b6044820152606401610cba565b60038101546001600160a01b031615610f555760405162461bcd60e51b815260206004820152600e60248201526d139bdd08185b8811551208189a5960921b6044820152606401610cba565b8060020154341015610f795760405162461bcd60e51b8152600401610cba906166ff565b6003838101805460ff60a01b1916600160a11b1790556001840154600283015491830154610fb5926001600160a01b0392831692339216614d1b565b6001830154604051635c46a7ef60e11b81526001600160a01b037f000000000000000000000000000000000000000000000000000000000000000081169263b88d4fde9261100e9291909116903390899060040161672e565b600060405180830381600087803b15801561102857600080fd5b505af115801561103c573d6000803e3d6000fd5b50505050600081600201543461105291906166d6565b905080156110e457604051600090339083908381818185875af1925050503d806000811461109c576040519150601f19603f3d011682016040523d82523d6000602084013e6110a1565b606091505b505090508060405180604001604052806004815260200163114ccc0d60e21b815250906110e15760405162461bcd60e51b8152600401610cba919061668d565b50505b60018401546002830154600384015460405133936001600160a01b03908116938a93600080516020616ae6833981519152936111239390911690616761565b60405180910390a4505050506111396001600055565b50565b6000818152601360205260408120805460609290815b818110156111975783818154811061116c5761116c6166e9565b600091825260209091206005600690920201015460ff161561118f578260010192505b600101611152565b50816001600160401b038111156111b0576111b0616778565b6040519080825280602002602001820160405280156111e957816020015b6111d661610b565b8152602001906001900390816111ce5790505b5093506000805b828110156112d15784818154811061120a5761120a6166e9565b600091825260209091206005600690920201015460ff16156112c957848181548110611238576112386166e9565b60009182526020918290206040805160c08101825260069093029091018054835260018101546001600160a01b0390811694840194909452600281015491830191909152600381015490921660608201526004820154608082015260059091015460ff16151560a082015286518790849081106112b7576112b76166e9565b60200260200101819052508160010191505b6001016111f0565b5050505050919050565b6112e6600033612ecd565b6113025760405162461bcd60e51b8152600401610cba9061678e565b6001600160a01b0381166113285760405162461bcd60e51b8152600401610cba906167cf565b478211156113785760405162461bcd60e51b815260206004820152601d60248201527f496e73756666696369656e7420636f6e74726163742062616c616e63650000006044820152606401610cba565b6000816001600160a01b03168360405160006040518083038185875af1925050503d80600081146113c5576040519150601f19603f3d011682016040523d82523d6000602084013e6113ca565b606091505b50509050806114115760405162461bcd60e51b8152602060048201526013602482015272115512081d1c985b9cd9995c8819985a5b1959606a1b6044820152606401610cba565b816001600160a01b0316336001600160a01b03167f873da158b95a7e5e83e2f84a94eeadadc115c324112605ca1819b276b3b035fa8542604051611456929190616802565b60405180910390a3505050565b8160008111604051806040016040528060048152602001634530303360e01b815250906114a35760405162461bcd60e51b8152600401610cba919061668d565b50816114ae81614c8e565b604051806040016040528060048152602001634533303160e01b815250906114e95760405162461bcd60e51b8152600401610cba919061668d565b506000858152601260205260408120906003820154600160a01b900460ff16600481111561151957611519616558565b14604051806040016040528060048152602001634531303360e01b815250906115555760405162461bcd60e51b8152600401610cba919061668d565b506040516331a9108f60e11b81526004810187905233906001600160a01b037f00000000000000000000000000000000000000000000000000000000000000001690636352211e90602401602060405180830381865afa1580156115bd573d6000803e3d6000fd5b505050506040513d601f19601f820116820180604052508101906115e19190616810565b6001600160a01b031614604051806040016040528060048152602001634531303560e01b815250906116265760405162461bcd60e51b8152600401610cba919061668d565b50600181015433906001600160a01b0316811461165b576001820180546001600160a01b0319166001600160a01b0383161790555b600282018054600384018054928990556001600160a01b038881166001600160a01b0319851617909155426005860155604051919216908990600080516020616ac6833981519152906116b1908b908b90616761565b60405180910390a260408051838152602081018a90526001600160a01b03838116828401528916606082015290518a917f365e79fa1534844b39f485cadfcee4d3132fe10f0ed8c862d07affd19ec72597919081900360800190a2505050505050505050565b6000908152600160208190526040909120015490565b61173682611717565b61173f81614d52565b6117498383614d5c565b60405133906001600160a01b0384169085907fb754d28367d5b086c81243c886ead0839c92cb5f281e492d7159800bc57d3c1790600090a4505050565b6000818152601360205260408120805490918190036117a457505050565b6000805b828110156117fe578381815481106117c2576117c26166e9565b600091825260209091206005600690920201015460ff16156117ec57816117e88161682d565b9250505b806117f68161682d565b9150506117a8565b5081810361180c5750505050565b6000816001600160401b0381111561182657611826616778565b60405190808252806020026020018201604052801561185f57816020015b61184c61610b565b8152602001906001900390816118445790505b5090506000805b84811015611a0857858181548110611880576118806166e9565b600091825260209091206005600690920201015460ff16156119a4578581815481106118ae576118ae6166e9565b60009182526020918290206040805160c08101825260069093029091018054835260018101546001600160a01b0390811694840194909452600281015491830191909152600381015490921660608201526004820154608082015260059091015460ff16151560a0820152835184908490811061192d5761192d6166e9565b6020908102919091010152611943826001616846565b60156000888481548110611959576119596166e9565b60009182526020808320600160069093020191909101546001600160a01b0316835282810193909352604091820181208b82529092529020558161199c8161682d565b9250506119f6565b6000601560008884815481106119bc576119bc6166e9565b60009182526020808320600160069093020191909101546001600160a01b0316835282810193909352604091820181208b82529092529020555b80611a008161682d565b915050611866565b506000868152601360205260408120611a2091616155565b60005b83811015611af15760008781526013602052604090208351849083908110611a4d57611a4d6166e9565b60209081029190910181015182546001818101855560009485529383902082516006909202019081559181015192820180546001600160a01b039485166001600160a01b031991821617909155604082015160028401556060820151600384018054919095169116179092556080820151600482015560a0909101516005909101805491151560ff1990921691909117905580611ae98161682d565b915050611a23565b506000611afe84866166d6565b9050867fb20e831eea4dfd173b84e018d72b80e43743f15bb8bf203ccfb5a93c775e83cd8286604051611b32929190616802565b60405180910390a250505050505050565b6001600160a01b0381163314611bb35760405162461bcd60e51b815260206004820152602f60248201527f416363657373436f6e74726f6c3a2063616e206f6e6c792072656e6f756e636560448201526e103937b632b9903337b91039b2b63360891b6064820152608401610cba565b611bbd8282614d78565b5050565b600f54600160a01b900460ff168015611be45750600e546001600160a01b031615155b15611c3657600e546040805180820190915260048152634536303160e01b6020820152906001600160a01b03163314611c305760405162461bcd60e51b8152600401610cba919061668d565b50611c8b565b611c4e600080516020616a8683398151915233612ecd565b60405180604001604052806004815260200163229a181960e11b81525090611c895760405162461bcd60e51b8152600401610cba919061668d565b505b6040805180820190915260048152634530303160e01b60208201526001600160a01b038216611ccd5760405162461bcd60e51b8152600401610cba919061668d565b506001600160a01b038116600081815260106020526040808220805460ff19166001179055513392917fb96e353e41685d2c0c71657628655373417f3980dc2e6244ef705db758401d5391a350565b600080516020616a26833981519152611d3481614d52565b6009546001600160a01b0316611d845760405162461bcd60e51b815260206004820152601560248201527414995dd85c991cc81d985d5b1d081b9bdd081cd95d605a1b6044820152606401610cba565b6107d0841115611dc75760405162461bcd60e51b815260206004820152600e60248201526d426173652072617465203e32302560901b6044820152606401610cba565b6107d0831115611e0b5760405162461bcd60e51b815260206004820152600f60248201526e4d756c7469706c696572203e32302560881b6044820152606401610cba565b6101f4821115611e4f5760405162461bcd60e51b815260206004820152600f60248201526e4c6561736520626f6e7573203e352560881b6044820152606401610cba565b600680546007805492879055859055600884905560405190919033907fdf3827857cf8ac45829164bd76e2950687437e15ff8543f477ae73691ee013b190611e9e9085908a9086908b90616859565b60405180910390a2505050505050565b611eb6614cc2565b604051632a5bb1b760e11b815230906354b7636e90611ed99033906004016163db565b602060405180830381865afa158015611ef6573d6000803e3d6000fd5b505050506040513d601f19601f82011682018060405250810190611f1a9190616874565b604051806040016040528060048152602001634534303360e01b81525090611f555760405162461bcd60e51b8152600401610cba919061668d565b508060008111604051806040016040528060048152602001634530303360e01b81525090611f965760405162461bcd60e51b8152600401610cba919061668d565b506000838152601260205260408120906003820154600160a01b900460ff166004811115611fc657611fc6616558565b14604051806040016040528060048152602001634531303160e01b815250906120025760405162461bcd60e51b8152600401610cba919061668d565b5060028101546003820154612023919085906001600160a01b031687614ddf565b604051806040016040528060048152602001634530303560e01b8152509061205e5760405162461bcd60e51b8152600401610cba919061668d565b50600061206a85614e51565b9050600080821161207f578260020154612081565b845b60038401805460ff60a01b1916600160a11b17905590506120a186614f0a565b600183015460038401546120c5916001600160a01b03908116913391859116614d1b565b6001830154604051635c46a7ef60e11b81526001600160a01b037f000000000000000000000000000000000000000000000000000000000000000081169263b88d4fde9261211e92919091169033908b9060040161672e565b600060405180830381600087803b15801561213857600080fd5b505af115801561214c573d6000803e3d6000fd5b50505050600383015460408051338152602081018490526001600160a01b039092169082015286907f5be1cef2101afbbf72fccd811a15ccfdedc8c44b5f50934100f262ffcd9a1f069060600160405180910390a281156121f7576003830154604051339188917faeec2844d1a6cc8e3d3b4b8a9e49ccfbc8ca21f8adb0ee9ec0e022df0f04a837916121ee91869188916001600160a01b0390911690616318565b60405180910390a35b50505050611bbd6001600055565b6000610c45600a8361508e565b600080516020616aa683398151915261222a81614d52565b8260005b818110156122d357600086868381811061224a5761224a6166e9565b905060200201602081019061225f9190616370565b9050841561227857612272600a826150aa565b50612285565b612283600a826150bf565b505b806001600160a01b03167f2df1cad2a2659e001c3804c872f69655356013e35c18c2e77a5d568078ab788f866040516122c2911515815260200190565b60405180910390a25060010161222e565b505050505050565b60006122e681614d52565b600f8054831515600160a01b0260ff60a01b1990911617905560405133907f6b7186792d5e895ec121b3a1454de4f60b0c25e482b951b875ab0d2be6eee9ed9061233590851515815260200190565b60405180910390a25050565b61234961610b565b6001600160a01b0382166000908152601560209081526040808320868452909152812054908190036123ae5750506040805160c081018252600080825260208201819052918101829052606081018290526080810182905260a0810191909152610c45565b60008481526013602052604090206123c76001836166d6565b815481106123d7576123d76166e9565b60009182526020918290206040805160c08101825260069093029091018054835260018101546001600160a01b0390811694840194909452600281015491830191909152600381015490921660608201526004820154608082015260059091015460ff16151560a082015291505092915050565b612456600033612ecd565b6124725760405162461bcd60e51b8152600401610cba9061678e565b6001600160a01b0383166124c05760405162461bcd60e51b8152602060048201526015602482015274496e76616c696420746f6b656e206164647265737360581b6044820152606401610cba565b6001600160a01b0381166124e65760405162461bcd60e51b8152600401610cba906167cf565b6040516370a0823160e01b815283906001600160a01b038216906370a08231906125149030906004016163db565b602060405180830381865afa158015612531573d6000803e3d6000fd5b505050506040513d601f19601f820116820180604052508101906125559190616891565b8311156125a15760405162461bcd60e51b815260206004820152601a602482015279496e73756666696369656e7420746f6b656e2062616c616e636560301b6044820152606401610cba565b60405163a9059cbb60e01b81526000906001600160a01b0383169063a9059cbb906125d290869088906004016168aa565b6020604051808303816000875af11580156125f1573d6000803e3d6000fd5b505050506040513d601f19601f820116820180604052508101906126159190616874565b9050806126345760405162461bcd60e51b8152600401610cba906168c3565b826001600160a01b0316856001600160a01b0316336001600160a01b03167f697199019ab5f64598c01f2d56c602bfcbd573ec78f7b903d5fc64c2e63b3c878742604051612683929190616802565b60405180910390a45050505050565b61269a614cc2565b604051632a5bb1b760e11b815230906354b7636e906126bd9033906004016163db565b602060405180830381865afa1580156126da573d6000803e3d6000fd5b505050506040513d601f19601f820116820180604052508101906126fe9190616874565b604051806040016040528060048152602001634534303360e01b815250906127395760405162461bcd60e51b8152600401610cba919061668d565b508061274481614c8e565b604051806040016040528060048152602001634533303160e01b8152509061277f5760405162461bcd60e51b8152600401610cba919061668d565b508260008111604051806040016040528060048152602001634530303360e01b815250906127c05760405162461bcd60e51b8152600401610cba919061668d565b506040516331a9108f60e11b81526004810186905233906001600160a01b037f00000000000000000000000000000000000000000000000000000000000000001690636352211e90602401602060405180830381865afa158015612828573d6000803e3d6000fd5b505050506040513d601f19601f8201168201806040525081019061284c9190616810565b6001600160a01b031614604051806040016040528060048152602001634531303560e01b815250906128915760405162461bcd60e51b8152600401610cba919061668d565b506000858152601260205260409020600101546001600160a01b031615806128e5575060008086815260126020526040902060030154600160a01b900460ff1660048111156128e2576128e2616558565b14155b604051806040016040528060048152602001632298981960e11b815250906129205760405162461bcd60e51b8152600401610cba919061668d565b506040805160e0810182528681523360208083019182528284018881526001600160a01b03888116606086019081526000608087018181524260a0890181905260c08901528d82526012909552969096208551815593516001850180549183166001600160a01b0319928316179055915160028501559451600384018054919096169181168217865591519394929392916001600160a81b03191617600160a01b8360048111156129d3576129d3616558565b021790555060a0820151816004015560c08201518160050155905050336001600160a01b0316857f2c6c7576542d9307c65e21c836da28fc580279667ba9e8d5fe56dca491d598038686604051612a2b929190616761565b60405180910390a35050612a3f6001600055565b505050565b600f54600160a01b900460ff168015612a675750600e546001600160a01b031615155b15612ab957600e546040805180820190915260048152634536303160e01b6020820152906001600160a01b03163314612ab35760405162461bcd60e51b8152600401610cba919061668d565b50612b0e565b612ad1600080516020616a8683398151915233612ecd565b60405180604001604052806004815260200163229a181960e11b81525090612b0c5760405162461bcd60e51b8152600401610cba919061668d565b505b6000838152601260205260408120906003820154600160a01b900460ff166004811115612b3d57612b3d616558565b14604051806040016040528060048152602001634531303360e01b81525090612b795760405162461bcd60e51b8152600401610cba919061668d565b50604080518082019091526004815263114c4c0d60e21b602082015283612bb35760405162461bcd60e51b8152600401610cba919061668d565b50612bbd82614c8e565b604051806040016040528060048152602001634533303160e01b81525090612bf85760405162461bcd60e51b8152600401610cba919061668d565b50600281018390556003810180546001600160a01b0319166001600160a01b0384161790554260058201556040518490600080516020616ac683398151915290612c459086908690616761565b60405180910390a250505050565b600080516020616a86833981519152612c6b81614d52565b6001600160a01b038216612cc15760405162461bcd60e51b815260206004820152601d60248201527f496e76616c69642066656520636f6c6c6563746f7220616464726573730000006044820152606401610cba565b600454831115612d055760405162461bcd60e51b815260206004820152600f60248201526e45786365656473206d61782066656560881b6044820152606401610cba565b6003805460045491859055600580546001600160a01b0319166001600160a01b03861617905560405190919033907f7c08ec61bfdc4469c5f8ec2332c513ac1e0980475856efedf21da7493348544790612d66908590899086908190616859565b60405180910390a25050505050565b600f54600160a01b900460ff168015612d985750600e546001600160a01b031615155b15612dea57600e546040805180820190915260048152634536303160e01b6020820152906001600160a01b03163314612de45760405162461bcd60e51b8152600401610cba919061668d565b50612e3f565b612e02600080516020616a8683398151915233612ecd565b60405180604001604052806004815260200163229a181960e11b81525090612e3d5760405162461bcd60e51b8152600401610cba919061668d565b505b6040805180820190915260048152634530303160e01b60208201526001600160a01b038216612e815760405162461bcd60e51b8152600401610cba919061668d565b506001600160a01b038116600081815260106020526040808220805460ff19169055513392917ff26a45171a2cee53dc4409f66880ab4bd14f52dc6412965780895ca64abfa92391a350565b60009182526001602090815260408084206001600160a01b0393909316845291905290205460ff1690565b612f00614cc2565b33600090815260156020908152604080832084845282529182902054825180840190935260048352634532303160e01b918301919091529081612f565760405162461bcd60e51b8152600401610cba919061668d565b506000828152601360205260408120612f706001846166d6565b81548110612f8057612f806166e9565b906000526020600020906006020190508060050160009054906101000a900460ff16604051806040016040528060048152602001632299181960e11b81525090612fdd5760405162461bcd60e51b8152600401610cba919061668d565b5060018101546040805180820190915260048152634532303360e01b6020820152906001600160a01b031633146130275760405162461bcd60e51b8152600401610cba919061668d565b506002810154600382015460058301805460ff191690553360009081526015602090815260408083208884529091528120556001600160a01b0316806130f557604051600090339084908381818185875af1925050503d80600081146130a9576040519150601f19603f3d011682016040523d82523d6000602084013e6130ae565b606091505b5050905080604051806040016040528060048152602001634533303360e01b815250906130ee5760405162461bcd60e51b8152600401610cba919061668d565b50506131ad565b60405163a9059cbb60e01b815281906000906001600160a01b0383169063a9059cbb9061312890339088906004016168aa565b6020604051808303816000875af1158015613147573d6000803e3d6000fd5b505050506040513d601f19601f8201168201806040525081019061316b9190616874565b90508060405180604001604052806004815260200163114c0c0d60e21b815250906131a95760405162461bcd60e51b8152600401610cba919061668d565b5050505b600085815260136020526040902054606410156131cd576131cd856150d4565b60405182815233908690600080516020616a068339815191529060200160405180910390a3505050506111396001600055565b600080516020616a8683398151915261321881614d52565b6001600160a01b0384166000908152600c6020526040812054908315613249576132428583616846565b9050613264565b848211613257576000613261565b61326185836166d6565b90505b6001600160a01b0386166000818152600c602052604090819020839055517f7681c9bc4703daadfdfbfae0bd1c828b4619e58101f0e8a5404f70e93c62866390611e9e9085908590616802565b6132b9614cc2565b604051632a5bb1b760e11b815230906354b7636e906132dc9033906004016163db565b602060405180830381865afa1580156132f9573d6000803e3d6000fd5b505050506040513d601f19601f8201168201806040525081019061331d9190616874565b604051806040016040528060048152602001634534303360e01b815250906133585760405162461bcd60e51b8152600401610cba919061668d565b508061336381614c8e565b604051806040016040528060048152602001634533303160e01b8152509061339e5760405162461bcd60e51b8152600401610cba919061668d565b508260008111604051806040016040528060048152602001634530303360e01b815250906133df5760405162461bcd60e51b8152600401610cba919061668d565b506000858152601260205260408120906003820154600160a01b900460ff16600481111561340f5761340f616558565b14604051806040016040528060048152602001634531303360e01b8152509061344b5760405162461bcd60e51b8152600401610cba919061668d565b506040516331a9108f60e11b8152600481018790526000907f00000000000000000000000000000000000000000000000000000000000000006001600160a01b031690636352211e90602401602060405180830381865afa1580156134b4573d6000803e3d6000fd5b505050506040513d601f19601f820116820180604052508101906134d89190616810565b6040805180820190915260048152632298181960e11b60208201529091506001600160a01b038216330361351f5760405162461bcd60e51b8152600401610cba919061668d565b503360009081526015602090815260408083208a84529091529020546001600160a01b03861661358a576040805180820190915260048152634532303760e01b60208201523488146135845760405162461bcd60e51b8152600401610cba919061668d565b506136d3565b604051636eb1769f60e11b8152869088906001600160a01b0383169063dd62ed3e906135bc90339030906004016168f2565b602060405180830381865afa1580156135d9573d6000803e3d6000fd5b505050506040513d601f19601f820116820180604052508101906135fd9190616891565b10156040518060400160405280600481526020016308a6460760e31b8152509061363a5760405162461bcd60e51b8152600401610cba919061668d565b506040516323b872dd60e01b81526000906001600160a01b038316906323b872dd9061366e90339030908e9060040161690c565b6020604051808303816000875af115801561368d573d6000803e3d6000fd5b505050506040513d601f19601f820116820180604052508101906136b19190616874565b9050806136d05760405162461bcd60e51b8152600401610cba906168c3565b50505b8260020154871015604051806040016040528060048152602001632299181b60e11b815250906137165760405162461bcd60e51b8152600401610cba919061668d565b506000888152601360205260408120815b81548110156137c557818181548110613742576137426166e9565b600091825260209091206005600690920201015460ff168015613787575082828281548110613773576137736166e9565b906000526020600020906006020160020154115b156137b35781818154811061379e5761379e6166e9565b90600052602060002090600602016002015492505b806137bd8161682d565b915050613727565b50811561383357600060646137db600582616846565b6137e59085616930565b6137ef9190616947565b9050808a1015604051806040016040528060048152602001634532303560e01b815250906138305760405162461bcd60e51b8152600401610cba919061668d565b50505b821561398b5760008a81526013602052604081206138526001866166d6565b81548110613862576138626166e9565b906000526020600020906006020190508060050160009054906101000a900460ff16604051806040016040528060048152602001632299181960e11b815250906138bf5760405162461bcd60e51b8152600401610cba919061668d565b5060038101546040805180820190915260048152632299981960e11b6020820152906001600160a01b038b811691161461390c5760405162461bcd60e51b8152600401610cba919061668d565b506000606461391c600582616846565b836002015461392b9190616930565b6139359190616947565b9050808b1015604051806040016040528060048152602001634532303560e01b815250906139765760405162461bcd60e51b8152600401610cba919061668d565b5050600281018a905542600490910155613afb565b60006040518060c001604052808c8152602001336001600160a01b031681526020018b81526020018a6001600160a01b03168152602001428152602001600115158152509050601360008c81526020019081526020016000208190806001815401808255809150506001900390600052602060002090600602016000909190919091506000820151816000015560208201518160010160006101000a8154816001600160a01b0302191690836001600160a01b031602179055506040820151816002015560608201518160030160006101000a8154816001600160a01b0302191690836001600160a01b031602179055506080820151816004015560a08201518160050160006101000a81548160ff0219169083151502179055505050601360008c81526020019081526020016000208054905060156000336001600160a01b03166001600160a01b0316815260200190815260200160002060008d815260200190815260200160002081905550505b60008a81526013602052604090205460641015613b1b57613b1b8a6150d4565b336001600160a01b03168a600080516020616a468339815191528b8b604051613b45929190616761565b60405180910390a350505050505050612a3f6001600055565b600083815260136020526040812060609190815b8154811015613bc957818181548110613b8d57613b8d6166e9565b600091825260209091206005600690920201015460ff1615613bb75782613bb38161682d565b9350505b80613bc18161682d565b915050613b72565b5083828610613c0d576040805160008082526020820190925290613c03565b613bf061610b565b815260200190600190039081613be85790505b5093505050613d9f565b82613c188688616846565b1115613c2b57613c2886846166d6565b90505b806001600160401b03811115613c4357613c43616778565b604051908082528060200260200182016040528015613c7c57816020015b613c6961610b565b815260200190600190039081613c615790505b50935060008060005b845481108015613c9457508382105b15613d9957848181548110613cab57613cab6166e9565b600091825260209091206005600690920201015460ff1615613d8757888310613d7957848181548110613ce057613ce06166e9565b60009182526020918290206040805160c08101825260069093029091018054835260018101546001600160a01b0390811694840194909452600281015491830191909152600381015490921660608201526004820154608082015260059091015460ff16151560a08201528751889084908110613d5f57613d5f6166e9565b60200260200101819052508180613d759061682d565b9250505b82613d838161682d565b9350505b80613d918161682d565b915050613c85565b50505050505b935093915050565b6000613db281614d52565b6040805180820190915260048152634536303360e01b60208201526001600160a01b038316613df45760405162461bcd60e51b8152600401610cba919061668d565b50600e546040805180820190915260048152634536303160e01b6020820152906001600160a01b031615613e3b5760405162461bcd60e51b8152600401610cba919061668d565b50600e80546001600160a01b0319166001600160a01b0384169081179091556040513391907fb4fc4300b631bd1445d18184e73a1ecd94175d060825df1e146d0911c42acb0a90600090a35050565b600080613e9660085490565b90506000613ea38561543f565b90506127108183600660000154613eba9190616846565b613ec49190616846565b613ece9086616930565b613ed89190616947565b95945050505050565b60136020528160005260406000208181548110613efd57600080fd5b60009182526020909120600690910201805460018201546002830154600384015460048501546005909501549396506001600160a01b039283169550909391169160ff1686565b6000613f4f81614d52565b611139615471565b6000613f6281614d52565b506000918252600d6020526040909120805460ff1916911515919091179055565b613f8c82611717565b613f9581614d52565b613f9f83836154bd565b60405133906001600160a01b0384169085907f77a3124d5a7fb118ef3bd073fd7ee2c762b24256db96ace524ecd6b6cf11415c90600090a4505050565b6000613fe781614d52565b604080518082019091526004815263114d8c0d60e21b60208201526001600160a01b0383166140295760405162461bcd60e51b8152600401610cba919061668d565b50600f54604080518082019091526004815263229b181960e11b6020820152906001600160a01b0316156140705760405162461bcd60e51b8152600401610cba919061668d565b50600f80546001600160a01b0319166001600160a01b0384169081179091556040513391907fe1eede6bce3720ed4c962837ca0dd532e60f714cea94bf6a692aae7d8336f22490600090a35050565b6140c7614cc2565b6000858152601260205260408120906003820154600160a01b900460ff1660048111156140f6576140f6616558565b14604051806040016040528060048152602001634531303360e01b815250906141325760405162461bcd60e51b8152600401610cba919061668d565b506040516331a9108f60e11b81526004810187905233906001600160a01b037f00000000000000000000000000000000000000000000000000000000000000001690636352211e90602401602060405180830381865afa15801561419a573d6000803e3d6000fd5b505050506040513d601f19601f820116820180604052508101906141be9190616810565b6001600160a01b031614604051806040016040528060048152602001634531303560e01b815250906142035760405162461bcd60e51b8152600401610cba919061668d565b5060018101546001600160a01b0316331461422d576001810180546001600160a01b031916331790555b604080518082019091526004815263229a981960e11b6020820152856142665760405162461bcd60e51b8152600401610cba919061668d565b506000868152601360209081526040918290205482518084019093526004835263229a981960e11b918301919091528611156142b55760405162461bcd60e51b8152600401610cba919061668d565b506000868152601360209081526040918290205482518084019093526004835263114d4c0d60e21b918301919091526143015760405162461bcd60e51b8152600401610cba919061668d565b50600086815260136020526040812061431b6001886166d6565b8154811061432b5761432b6166e9565b906000526020600020906006020190508060050160009054906101000a900460ff16604051806040016040528060048152602001632299181960e11b815250906143885760405162461bcd60e51b8152600401610cba919061668d565b5060018101546040805180820190915260048152634535303160e01b6020820152906001600160a01b038781169116146143d55760405162461bcd60e51b8152600401610cba919061668d565b5083816002015414604051806040016040528060048152602001634535303160e01b815250906144185760405162461bcd60e51b8152600401610cba919061668d565b5060038101546040805180820190915260048152632299981960e11b6020820152906001600160a01b038581169116146144655760405162461bcd60e51b8152600401610cba919061668d565b5060038201805460ff60a01b1916600160a11b17905560058101805460ff1916905560018101546001600160a01b031660009081526015602090815260408083208a84529091528120556144b887614f0a565b60038101546001600160a01b0316614544576003828101805460ff60a01b1916600160a21b179055600182810154908401546002840154928401546040516001600160a01b0393841694928416938c937f959a0ee0f64c2f8cf395aa31d965f60b69bc277acc7ef191c73a891ed3fa8c72936145379391921690616761565b60405180910390a4614650565b6001808301549082015460028301546003840154614572936001600160a01b03908116938116929116614d1b565b60018083015490820154604051635c46a7ef60e11b81526001600160a01b037f000000000000000000000000000000000000000000000000000000000000000081169363b88d4fde936145cf939183169216908c9060040161672e565b600060405180830381600087803b1580156145e957600080fd5b505af11580156145fd573d6000803e3d6000fd5b50505060018083015490840154600284015460038501546040516001600160a01b039485169550928416938c93600080516020616ae6833981519152936146479390921690616761565b60405180910390a45b6000878152601360205260409020546064101561467057614670876150d4565b505061467c6001600055565b5050505050565b61468b614cc2565b604051632a5bb1b760e11b815230906354b7636e906146ae9033906004016163db565b602060405180830381865afa1580156146cb573d6000803e3d6000fd5b505050506040513d601f19601f820116820180604052508101906146ef9190616874565b604051806040016040528060048152602001634534303360e01b8152509061472a5760405162461bcd60e51b8152600401610cba919061668d565b508061473581614c8e565b604051806040016040528060048152602001634533303160e01b815250906147705760405162461bcd60e51b8152600401610cba919061668d565b508260008111604051806040016040528060048152602001634530303360e01b815250906147b15760405162461bcd60e51b8152600401610cba919061668d565b506000858152601260205260408120906003820154600160a01b900460ff1660048111156147e1576147e1616558565b14604051806040016040528060048152602001634531303360e01b8152509061481d5760405162461bcd60e51b8152600401610cba919061668d565b506040516331a9108f60e11b8152600481018790526000907f00000000000000000000000000000000000000000000000000000000000000006001600160a01b031690636352211e90602401602060405180830381865afa158015614886573d6000803e3d6000fd5b505050506040513d601f19601f820116820180604052508101906148aa9190616810565b6040805180820190915260048152632298181960e11b60208201529091506001600160a01b03821633036148f15760405162461bcd60e51b8152600401610cba919061668d565b508160020154861015604051806040016040528060048152602001632299181b60e11b815250906149355760405162461bcd60e51b8152600401610cba919061668d565b503360009081526015602090815260408083208a84529091529020546001600160a01b0386166149a0576040805180820190915260048152634532303760e01b602082015234881461499a5760405162461bcd60e51b8152600401610cba919061668d565b50614ae9565b604051636eb1769f60e11b8152869088906001600160a01b0383169063dd62ed3e906149d290339030906004016168f2565b602060405180830381865afa1580156149ef573d6000803e3d6000fd5b505050506040513d601f19601f82011682018060405250810190614a139190616891565b10156040518060400160405280600481526020016308a6460760e31b81525090614a505760405162461bcd60e51b8152600401610cba919061668d565b506040516323b872dd60e01b81526000906001600160a01b038316906323b872dd90614a8490339030908e9060040161690c565b6020604051808303816000875af1158015614aa3573d6000803e3d6000fd5b505050506040513d601f19601f82011682018060405250810190614ac79190616874565b905080614ae65760405162461bcd60e51b8152600401610cba906168c3565b50505b6000614af489614e51565b90508015614b4c576000614b08828a6154d9565b905080891015604051806040016040528060048152602001634532303560e01b81525090614b495760405162461bcd60e51b8152600401610cba919061668d565b50505b8115614b6357614b5e89838a8a615576565b614c39565b614c398989896040805160c0810182528481523360208083018281528385019687526001600160a01b03958616606085019081524260808601908152600160a0870181815260008c815260138752898120805480850182558183528883209a516006909102909a01998a5595519289018054938c166001600160a01b03199485161790559a516002890155925160038801805491909a169116179097559551600485015594516005909301805493151560ff19909416939093179092559254928452601581528184209484529390935291902055565b336001600160a01b031689600080516020616a468339815191528a8a604051614c63929190616761565b60405180910390a3505050505050612a3f6001600055565b6000614c8681614d52565b6111396156b1565b60115460009060ff16614ca357506001919050565b506001600160a01b031660009081526010602052604090205460ff1690565b600260005403614d145760405162461bcd60e51b815260206004820152601f60248201527f5265656e7472616e637947756172643a207265656e7472616e742063616c6c006044820152606401610cba565b6002600055565b6040805160608101825260035481526005546001600160a01b031660208201526127109181019190915261467c81868686866156ee565b61113981336157ac565b614d6582611717565b614d6e81614d52565b612a3f8383615805565b614d828282612ecd565b15611bbd5760008281526001602090815260408083206001600160a01b0385168085529252808320805460ff1916905551339285917ff6391f5c32d9c69d2a47ea670b442974b53935d1edc7fd64eb21e047a839171b9190a45050565b6000614dea83614c8e565b614df657506000614e49565b6000614e0183614e51565b90506000808211614e125786614e14565b815b90506001600160a01b038516614e3d57803410158015614e345750808610155b92505050614e49565b8510159150614e499050565b949350505050565b60008181526013602052604081208190815b8154811015614f0157818181548110614e7e57614e7e6166e9565b600091825260209091206005600690920201015460ff168015614ec3575082828281548110614eaf57614eaf6166e9565b906000526020600020906006020160020154115b15614eef57818181548110614eda57614eda6166e9565b90600052602060002090600602016002015492505b80614ef98161682d565b915050614e63565b50909392505050565b6000818152601360205260408120905b8154811015612a3f57818181548110614f3557614f356166e9565b600091825260209091206005600690920201015460ff161561507c576000828281548110614f6557614f656166e9565b6000918252602082206001600690920201015484546001600160a01b039091169250849084908110614f9957614f996166e9565b90600052602060002090600602016002015490506000848481548110614fc157614fc16166e9565b6000918252602082206003600690920201015486546001600160a01b039091169250869086908110614ff557614ff56166e9565b60009182526020808320600692909202909101600501805460ff1916931515939093179092556001600160a01b03851681526015825260408082208983529092529081205561504683838389615870565b826001600160a01b031686600080516020616a068339815191528460405161507091815260200190565b60405180910390a35050505b806150868161682d565b915050614f1a565b60006150a3836001600160a01b0384166159ca565b9392505050565b60006150a3836001600160a01b0384166159e2565b60006150a3836001600160a01b038416615a2c565b6000818152601360205260408120805490918190036150f257505050565b6000805b8281101561514c57838181548110615110576151106166e9565b600091825260209091206005600690920201015460ff161561513a57816151368161682d565b9250505b806151448161682d565b9150506150f6565b5081810361515a5750505050565b6000816001600160401b0381111561517457615174616778565b6040519080825280602002602001820160405280156151ad57816020015b61519a61610b565b8152602001906001900390816151925790505b5090506000805b84811015615356578581815481106151ce576151ce6166e9565b600091825260209091206005600690920201015460ff16156152f2578581815481106151fc576151fc6166e9565b60009182526020918290206040805160c08101825260069093029091018054835260018101546001600160a01b0390811694840194909452600281015491830191909152600381015490921660608201526004820154608082015260059091015460ff16151560a0820152835184908490811061527b5761527b6166e9565b6020908102919091010152615291826001616846565b601560008884815481106152a7576152a76166e9565b60009182526020808320600160069093020191909101546001600160a01b0316835282810193909352604091820181208b8252909252902055816152ea8161682d565b925050615344565b60006015600088848154811061530a5761530a6166e9565b60009182526020808320600160069093020191909101546001600160a01b0316835282810193909352604091820181208b82529092529020555b8061534e8161682d565b9150506151b4565b50600086815260136020526040812061536e91616155565b60005b83811015611af1576000878152601360205260409020835184908390811061539b5761539b6166e9565b60209081029190910181015182546001818101855560009485529383902082516006909202019081559181015192820180546001600160a01b039485166001600160a01b031991821617909155604082015160028401556060820151600384018054919095169116179092556080820151600482015560a0909101516005909101805491151560ff19909216919091179055806154378161682d565b915050615371565b6001600160a01b0381166000908152600c6020526040812054600754811161546757806150a3565b6007549392505050565b615479615b1f565b6002805460ff191690557f5db9ee0a495bf2e6ff9c91a7834c1ba4fdd244a5e8aa4e537bd38aeae4b073aa335b6040516154b391906163db565b60405180910390a1565b6154c682611717565b6154cf81614d52565b612a3f8383614d78565b600080670de0b6b3a76400008410156154f45750600a615510565b678ac7230489e8000084101561550c57506005615510565b5060025b600061551d826064616846565b905061552b81600019616947565b85111560405180604001604052806004815260200163229a981960e11b815250906155695760405162461bcd60e51b8152600401610cba919061668d565b506064613ece8287616930565b600084815260136020526040812061558f6001866166d6565b8154811061559f5761559f6166e9565b906000526020600020906006020190508060050160009054906101000a900460ff16604051806040016040528060048152602001632299181960e11b815250906155fc5760405162461bcd60e51b8152600401610cba919061668d565b5060038101546040805180820190915260048152632299981960e11b6020820152906001600160a01b038481169116146156495760405162461bcd60e51b8152600401610cba919061668d565b50600061565a8260020154856154d9565b905080841015604051806040016040528060048152602001634532303560e01b8152509061569b5760405162461bcd60e51b8152600401610cba919061668d565b5050600281019290925550426004909101555050565b6156b9615b6a565b6002805460ff191660011790557f62e78cea01bee320cd4e420270b5ea74000d11b0c9f74754ebdbfc544b05a2586154a63390565b60408501518551600091906157039085616930565b61570d9190616947565b9050600061571b82856166d6565b90506001600160a01b0383166157425761573d86886020015183858989615bb0565b615754565b6157548386888a602001518587615de3565b846001600160a01b0316866001600160a01b03167fa496c08b103292578a04c9879f2740638414c311180dffa9d1436d3c9711992386858760405161579b93929190616318565b60405180910390a350505050505050565b6157b68282612ecd565b611bbd576157c381615f5e565b6157ce836020615f70565b6040516020016157df929190616969565b60408051601f198184030181529082905262461bcd60e51b8252610cba9160040161668d565b61580f8282612ecd565b611bbd5760008281526001602081815260408084206001600160a01b0386168086529252808420805460ff19169093179092559051339285917f2f8788117e7eff1d82e926ec794901d17c78024a50270940304540a733656f0d9190a45050565b6001600160a01b038216615912576000846001600160a01b03168460405160006040518083038185875af1925050503d80600081146158cb576040519150601f19603f3d011682016040523d82523d6000602084013e6158d0565b606091505b505090508061590c57846001600160a01b031682600080516020616a668339815191528660405161590391815260200190565b60405180910390a35b506159c4565b60405163a9059cbb60e01b815282906000906001600160a01b0383169063a9059cbb9061594590899089906004016168aa565b6020604051808303816000875af1158015615964573d6000803e3d6000fd5b505050506040513d601f19601f820116820180604052508101906159889190616874565b9050806122d357856001600160a01b031683600080516020616a66833981519152876040516159b991815260200190565b60405180910390a350505b50505050565b60009081526001919091016020526040902054151590565b60006159ee83836159ca565b615a2457508154600181810184556000848152602080822090930184905584548482528286019093526040902091909155610c45565b506000610c45565b60008181526001830160205260408120548015615b15576000615a506001836166d6565b8554909150600090615a64906001906166d6565b9050818114615ac9576000866000018281548110615a8457615a846166e9565b9060005260206000200154905080876000018481548110615aa757615aa76166e9565b6000918252602080832090910192909255918252600188019052604090208390555b8554869080615ada57615ada6169d8565b600190038181906000526020600020016000905590558560010160008681526020019081526020016000206000905560019350505050610c45565b6000915050610c45565b60025460ff16615b685760405162461bcd60e51b815260206004820152601460248201527314185d5cd8589b194e881b9bdd081c185d5cd95960621b6044820152606401610cba565b565b60025460ff1615615b685760405162461bcd60e51b815260206004820152601060248201526f14185d5cd8589b194e881c185d5cd95960821b6044820152606401610cba565b80341015615bd05760405162461bcd60e51b8152600401610cba906166ff565b6000866001600160a01b03168560405160006040518083038185875af1925050503d8060008114615c1d576040519150601f19603f3d011682016040523d82523d6000602084013e615c22565b606091505b5050905080615c6e5760405162461bcd60e51b815260206004820152601860248201527714185e5b595b9d081d1bc81cd95b1b195c8819985a5b195960421b6044820152606401610cba565b6000866001600160a01b03168560405160006040518083038185875af1925050503d8060008114615cbb576040519150601f19603f3d011682016040523d82523d6000602084013e615cc0565b606091505b5050905080615d065760405162461bcd60e51b8152602060048201526012602482015271119959481c185e5b595b9d0819985a5b195960721b6044820152606401610cba565b6000615d1284346166d6565b90508015615dd8576000856001600160a01b03168261271090604051600060405180830381858888f193505050503d8060008114615d6c576040519150601f19603f3d011682016040523d82523d6000602084013e615d71565b606091505b5050905080615dd65760405162461bcd60e51b815260206004820152602b60248201527f526566756e64206661696c6564202d20636f6e7369646572207573696e67207060448201526a3ab636103830ba3a32b93760a91b6064820152608401610cba565b505b505050505050505050565b6040516323b872dd60e01b815286906001600160a01b038216906323b872dd90615e159089908990889060040161690c565b6020604051808303816000875af1158015615e34573d6000803e3d6000fd5b505050506040513d601f19601f82011682018060405250810190615e589190616874565b615ea05760405162461bcd60e51b8152602060048201526019602482015278151c985b9cd9995c881d1bc81cd95b1b195c8819985a5b1959603a1b6044820152606401610cba565b6040516323b872dd60e01b81526001600160a01b038216906323b872dd90615ed09089908890879060040161690c565b6020604051808303816000875af1158015615eef573d6000803e3d6000fd5b505050506040513d601f19601f82011682018060405250810190615f139190616874565b615f555760405162461bcd60e51b8152602060048201526013602482015272119959481d1c985b9cd9995c8819985a5b1959606a1b6044820152606401610cba565b50505050505050565b6060610c456001600160a01b03831660145b60606000615f7f836002616930565b615f8a906002616846565b6001600160401b03811115615fa157615fa1616778565b6040519080825280601f01601f191660200182016040528015615fcb576020820181803683370190505b509050600360fc1b81600081518110615fe657615fe66166e9565b60200101906001600160f81b031916908160001a905350600f60fb1b81600181518110616015576160156166e9565b60200101906001600160f81b031916908160001a9053506000616039846002616930565b616044906001616846565b90505b60018111156160bc576f181899199a1a9b1b9c1cb0b131b232b360811b85600f1660108110616078576160786166e9565b1a60f81b82828151811061608e5761608e6166e9565b60200101906001600160f81b031916908160001a90535060049490941c936160b5816169ee565b9050616047565b5083156150a35760405162461bcd60e51b815260206004820181905260248201527f537472696e67733a20686578206c656e67746820696e73756666696369656e746044820152606401610cba565b6040518060c001604052806000815260200160006001600160a01b031681526020016000815260200160006001600160a01b03168152602001600081526020016000151581525090565b508054600082556006029060005260206000209081019061113991905b808211156161bf5760008082556001820180546001600160a01b0319908116909155600283018290556003830180549091169055600482015560058101805460ff19169055600601616172565b5090565b6000602082840312156161d557600080fd5b81356001600160e01b0319811681146150a357600080fd5b801515811461113957600080fd5b60006020828403121561620d57600080fd5b81356150a3816161ed565b60006020828403121561622a57600080fd5b5035919050565b80518252602081015160018060a01b0380821660208501526040830151604085015280606084015116606085015250506080810151608083015260a0810151151560a08301525050565b600081518084526020808501945080840160005b838110156162b5576162a2878351616231565b60c096909601959082019060010161628f565b509495945050505050565b6020815260006150a3602083018461627b565b6001600160a01b038116811461113957600080fd5b600080604083850312156162fb57600080fd5b82359150602083013561630d816162d3565b809150509250929050565b92835260208301919091526001600160a01b0316604082015260600190565b60008060006060848603121561634c57600080fd5b83359250602084013591506040840135616365816162d3565b809150509250925092565b60006020828403121561638257600080fd5b81356150a3816162d3565b6000806000606084860312156163a257600080fd5b505081359360208301359350604090920135919050565b600080604083850312156163cc57600080fd5b50508035926020909101359150565b6001600160a01b0391909116815260200190565b60008060006040848603121561640457600080fd5b83356001600160401b038082111561641b57600080fd5b818601915086601f83011261642f57600080fd5b81358181111561643e57600080fd5b8760208260051b850101111561645357600080fd5b60209283019550935050840135616365816161ed565b6000806040838503121561647c57600080fd5b8235616487816162d3565b946020939093013593505050565b60c08101610c458284616231565b6000806000606084860312156164b857600080fd5b83356164c3816162d3565b9250602084013591506040840135616365816162d3565b6000806000606084860312156164ef57600080fd5b83356164fa816162d3565b9250602084013591506040840135616365816161ed565b604081526000616524604083018561627b565b90508260208301529392505050565b6000806040838503121561654657600080fd5b82359150602083013561630d816161ed565b634e487b7160e01b600052602160045260246000fd5b6005811061658c57634e487b7160e01b600052602160045260246000fd5b9052565b8781526001600160a01b038781166020830152604082018790528516606082015260e081016165c2608083018661656e565b60a082019390935260c0015295945050505050565b600080600080600060a086880312156165ef57600080fd5b85359450602086013593506040860135616608816162d3565b925060608601359150608086013561661f816162d3565b809150509295509295909350565b6001600160a01b038681168252602082018690528416604082015260a08101616659606083018561656e565b8260808301529695505050505050565b60005b8381101561668457818101518382015260200161666c565b50506000910152565b60208152600082518060208401526166ac816040850160208701616669565b601f01601f19169190910160400192915050565b634e487b7160e01b600052601160045260246000fd5b81810381811115610c4557610c456166c0565b634e487b7160e01b600052603260045260246000fd5b602080825260159082015274125b9cdd59999a58da595b9d08115512081cd95b9d605a1b604082015260600190565b6001600160a01b039384168152919092166020820152604081019190915260806060820181905260009082015260a00190565b9182526001600160a01b0316602082015260400190565b634e487b7160e01b600052604160045260246000fd5b60208082526021908201527f556e617574686f72697a65643a2061646d696e20726f6c6520726571756972656040820152601960fa1b606082015260800190565b602080825260199082015278496e76616c696420726563697069656e74206164647265737360381b604082015260600190565b918252602082015260400190565b60006020828403121561682257600080fd5b81516150a3816162d3565b60006001820161683f5761683f6166c0565b5060010190565b80820180821115610c4557610c456166c0565b93845260208401929092526040830152606082015260800190565b60006020828403121561688657600080fd5b81516150a3816161ed565b6000602082840312156168a357600080fd5b5051919050565b6001600160a01b03929092168252602082015260400190565b602080825260159082015274151bdad95b881d1c985b9cd9995c8819985a5b1959605a1b604082015260600190565b6001600160a01b0392831681529116602082015260400190565b6001600160a01b039384168152919092166020820152604081019190915260600190565b8082028115828204841417610c4557610c456166c0565b60008261696457634e487b7160e01b600052601260045260246000fd5b500490565b76020b1b1b2b9b9a1b7b73a3937b61d1030b1b1b7bab73a1604d1b81526000835161699b816017850160208801616669565b7001034b99036b4b9b9b4b733903937b6329607d1b60179184019182015283516169cc816028840160208801616669565b01602801949350505050565b634e487b7160e01b600052603160045260246000fd5b6000816169fd576169fd6166c0565b50600019019056feaf2f02012ea1953fe9293dd4a8bb5194c96792324f9385297c991c2cfeade3d96393fa734211156fcc8c7dda6b0650f5c731d4c838c1db43445a149aa2f5b6fee30abccebb20a387be8e75e927d7e06ce1bf9d77bb3888516663bdc8995fb33476dcf7f6501ec52bd675dfb131e8d2d099a40be2f4c2523b37b95d9208e83f5b97667070c54ef182b0f5858b034beac1b6f3089aa2d3188bb1e8929f4fa9b929b9f13ecb5e7f0f859c44b76b3a163e504787b446da95a26bf75e53e1ff4a1e0eb82cb8d1ee5aa2af90399f2b0ece446b81a5f1e601da16a2a2b62dfcc8bb4ba3fd9d7289c0b47546fff41663663c2372aa45809b7ab87d908e443a3821cb5b4ea2646970667358221220538617db85dbae36cd7416796e03144f01eeb87e7b99834280e30b9abf288fca64736f6c63430008140033",
  "linkReferences": {},
  "deployedLinkReferences": {}
}