{
  "_format": "hh-sol-artifact-1",
  "contractName": "PropertyMarket",
  "sourceName": "contracts/market/PropertyMarket.sol",
  "abi": [
    {
      "inputs": [
        {
          "internalType": "address",
          "name": "_nftiAddress",
          "type": "address"
        },
        {
          "internalType": "address",
          "name": "_nftmAddress",
          "type": "address"
        },
        {
          "internalType": "address",
          "name": "initialAdmin",
          "type": "address"
        },
        {
          "internalType": "address",
          "name": "feeCollector",
          "type": "address"
        },
        {
          "internalType": "address",
          "name": "rewardsVault",
          "type": "address"
        }
      ],
      "stateMutability": "nonpayable",
      "type": "constructor"
    },
    {
      "anonymous": false,
      "inputs": [
        {
          "indexed": true,
          "internalType": "bytes32",
          "name": "role",
          "type": "bytes32"
        },
        {
          "indexed": true,
          "internalType": "address",
          "name": "account",
          "type": "address"
        },
        {
          "indexed": true,
          "internalType": "address",
          "name": "admin",
          "type": "address"
        }
      ],
      "name": "AdminRoleGranted",
      "type": "event"
    },
    {
      "anonymous": false,
      "inputs": [
        {
          "indexed": true,
          "internalType": "bytes32",
          "name": "role",
          "type": "bytes32"
        },
        {
          "indexed": true,
          "internalType": "address",
          "name": "account",
          "type": "address"
        },
        {
          "indexed": true,
          "internalType": "address",
          "name": "admin",
          "type": "address"
        }
      ],
      "name": "AdminRoleRevoked",
      "type": "event"
    },
    {
      "anonymous": false,
      "inputs": [
        {
          "indexed": true,
          "internalType": "uint256",
          "name": "tokenId",
          "type": "uint256"
        },
        {
          "indexed": true,
          "internalType": "address",
          "name": "seller",
          "type": "address"
        },
        {
          "indexed": true,
          "internalType": "address",
          "name": "bidder",
          "type": "address"
        },
        {
          "indexed": false,
          "internalType": "uint256",
          "name": "amount",
          "type": "uint256"
        },
        {
          "indexed": false,
          "internalType": "address",
          "name": "paymentToken",
          "type": "address"
        }
      ],
      "name": "BidAccepted",
      "type": "event"
    },
    {
      "anonymous": false,
      "inputs": [
        {
          "indexed": true,
          "internalType": "uint256",
          "name": "tokenId",
          "type": "uint256"
        },
        {
          "indexed": true,
          "internalType": "address",
          "name": "bidder",
          "type": "address"
        },
        {
          "indexed": false,
          "internalType": "uint256",
          "name": "amount",
          "type": "uint256"
        }
      ],
      "name": "BidCancelled",
      "type": "event"
    },
    {
      "anonymous": false,
      "inputs": [
        {
          "indexed": true,
          "internalType": "uint256",
          "name": "tokenId",
          "type": "uint256"
        },
        {
          "indexed": true,
          "internalType": "address",
          "name": "bidder",
          "type": "address"
        },
        {
          "indexed": false,
          "internalType": "uint256",
          "name": "amount",
          "type": "uint256"
        },
        {
          "indexed": false,
          "internalType": "address",
          "name": "paymentToken",
          "type": "address"
        }
      ],
      "name": "BidPlaced",
      "type": "event"
    },
    {
      "anonymous": false,
      "inputs": [
        {
          "indexed": true,
          "internalType": "address",
          "name": "account",
          "type": "address"
        },
        {
          "indexed": false,
          "internalType": "uint256",
          "name": "oldScore",
          "type": "uint256"
        },
        {
          "indexed": false,
          "internalType": "uint256",
          "name": "newScore",
          "type": "uint256"
        }
      ],
      "name": "CommunityScoreUpdated",
      "type": "event"
    },
    {
      "anonymous": false,
      "inputs": [
        {
          "indexed": true,
          "internalType": "address",
          "name": "oldCollector",
          "type": "address"
        },
        {
          "indexed": true,
          "internalType": "address",
          "name": "newCollector",
          "type": "address"
        }
      ],
      "name": "FeeCollectorUpdated",
      "type": "event"
    },
    {
      "anonymous": false,
      "inputs": [
        {
          "indexed": false,
          "internalType": "uint256",
          "name": "oldBaseFee",
          "type": "uint256"
        },
        {
          "indexed": false,
          "internalType": "uint256",
          "name": "newBaseFee",
          "type": "uint256"
        },
        {
          "indexed": false,
          "internalType": "uint256",
          "name": "oldMaxFee",
          "type": "uint256"
        },
        {
          "indexed": false,
          "internalType": "uint256",
          "name": "newMaxFee",
          "type": "uint256"
        },
        {
          "indexed": false,
          "internalType": "uint256",
          "name": "oldMinFee",
          "type": "uint256"
        },
        {
          "indexed": false,
          "internalType": "uint256",
          "name": "newMinFee",
          "type": "uint256"
        },
        {
          "indexed": true,
          "internalType": "address",
          "name": "admin",
          "type": "address"
        }
      ],
      "name": "FeeConfigUpdated",
      "type": "event"
    },
    {
      "anonymous": false,
      "inputs": [
        {
          "indexed": true,
          "internalType": "address",
          "name": "account",
          "type": "address"
        },
        {
          "indexed": false,
          "internalType": "bool",
          "name": "status",
          "type": "bool"
        },
        {
          "indexed": true,
          "internalType": "address",
          "name": "operator",
          "type": "address"
        }
      ],
      "name": "KYCStatusUpdated",
      "type": "event"
    },
    {
      "anonymous": false,
      "inputs": [
        {
          "indexed": true,
          "internalType": "uint256",
          "name": "tokenId",
          "type": "uint256"
        },
        {
          "indexed": false,
          "internalType": "uint256",
          "name": "newPrice",
          "type": "uint256"
        },
        {
          "indexed": false,
          "internalType": "address",
          "name": "newPaymentToken",
          "type": "address"
        }
      ],
      "name": "ListingUpdated",
      "type": "event"
    },
    {
      "anonymous": false,
      "inputs": [
        {
          "indexed": true,
          "internalType": "uint256",
          "name": "tokenId",
          "type": "uint256"
        },
        {
          "indexed": true,
          "internalType": "address",
          "name": "seller",
          "type": "address"
        },
        {
          "indexed": false,
          "internalType": "uint256",
          "name": "price",
          "type": "uint256"
        },
        {
          "indexed": false,
          "internalType": "address",
          "name": "paymentToken",
          "type": "address"
        }
      ],
      "name": "NewListing",
      "type": "event"
    },
    {
      "anonymous": false,
      "inputs": [
        {
          "indexed": false,
          "internalType": "address",
          "name": "account",
          "type": "address"
        }
      ],
      "name": "Paused",
      "type": "event"
    },
    {
      "anonymous": false,
      "inputs": [
        {
          "indexed": true,
          "internalType": "address",
          "name": "token",
          "type": "address"
        },
        {
          "indexed": true,
          "internalType": "address",
          "name": "operator",
          "type": "address"
        }
      ],
      "name": "PaymentTokenAdded",
      "type": "event"
    },
    {
      "anonymous": false,
      "inputs": [
        {
          "indexed": true,
          "internalType": "address",
          "name": "token",
          "type": "address"
        },
        {
          "indexed": true,
          "internalType": "address",
          "name": "operator",
          "type": "address"
        }
      ],
      "name": "PaymentTokenRemoved",
      "type": "event"
    },
    {
      "anonymous": false,
      "inputs": [
        {
          "indexed": true,
          "internalType": "uint256",
          "name": "tokenId",
          "type": "uint256"
        },
        {
          "indexed": false,
          "internalType": "address",
          "name": "buyer",
          "type": "address"
        },
        {
          "indexed": false,
          "internalType": "uint256",
          "name": "price",
          "type": "uint256"
        },
        {
          "indexed": false,
          "internalType": "address",
          "name": "paymentToken",
          "type": "address"
        }
      ],
      "name": "PropertySold",
      "type": "event"
    },
    {
      "anonymous": false,
      "inputs": [
        {
          "indexed": false,
          "internalType": "uint256",
          "name": "oldBaseRate",
          "type": "uint256"
        },
        {
          "indexed": false,
          "internalType": "uint256",
          "name": "newBaseRate",
          "type": "uint256"
        },
        {
          "indexed": false,
          "internalType": "uint256",
          "name": "oldMultiplier",
          "type": "uint256"
        },
        {
          "indexed": false,
          "internalType": "uint256",
          "name": "newMultiplier",
          "type": "uint256"
        },
        {
          "indexed": false,
          "internalType": "uint256",
          "name": "oldCap",
          "type": "uint256"
        },
        {
          "indexed": false,
          "internalType": "uint256",
          "name": "newCap",
          "type": "uint256"
        },
        {
          "indexed": true,
          "internalType": "address",
          "name": "admin",
          "type": "address"
        }
      ],
      "name": "RewardParametersUpdated",
      "type": "event"
    },
    {
      "anonymous": false,
      "inputs": [
        {
          "indexed": true,
          "internalType": "address",
          "name": "oldVault",
          "type": "address"
        },
        {
          "indexed": true,
          "internalType": "address",
          "name": "newVault",
          "type": "address"
        }
      ],
      "name": "RewardsVaultUpdated",
      "type": "event"
    },
    {
      "anonymous": false,
      "inputs": [
        {
          "indexed": true,
          "internalType": "bytes32",
          "name": "role",
          "type": "bytes32"
        },
        {
          "indexed": true,
          "internalType": "bytes32",
          "name": "previousAdminRole",
          "type": "bytes32"
        },
        {
          "indexed": true,
          "internalType": "bytes32",
          "name": "newAdminRole",
          "type": "bytes32"
        }
      ],
      "name": "RoleAdminChanged",
      "type": "event"
    },
    {
      "anonymous": false,
      "inputs": [
        {
          "indexed": true,
          "internalType": "bytes32",
          "name": "role",
          "type": "bytes32"
        },
        {
          "indexed": true,
          "internalType": "address",
          "name": "account",
          "type": "address"
        },
        {
          "indexed": true,
          "internalType": "address",
          "name": "sender",
          "type": "address"
        }
      ],
      "name": "RoleGranted",
      "type": "event"
    },
    {
      "anonymous": false,
      "inputs": [
        {
          "indexed": true,
          "internalType": "bytes32",
          "name": "role",
          "type": "bytes32"
        },
        {
          "indexed": true,
          "internalType": "address",
          "name": "account",
          "type": "address"
        },
        {
          "indexed": true,
          "internalType": "address",
          "name": "sender",
          "type": "address"
        }
      ],
      "name": "RoleRevoked",
      "type": "event"
    },
    {
      "anonymous": false,
      "inputs": [
        {
          "indexed": false,
          "internalType": "address",
          "name": "account",
          "type": "address"
        }
      ],
      "name": "Unpaused",
      "type": "event"
    },
    {
      "anonymous": false,
      "inputs": [
        {
          "indexed": false,
          "internalType": "bool",
          "name": "enabled",
          "type": "bool"
        },
        {
          "indexed": true,
          "internalType": "address",
          "name": "operator",
          "type": "address"
        }
      ],
      "name": "WhitelistStatusChanged",
      "type": "event"
    },
    {
      "inputs": [],
      "name": "BID_PERCENTAGE_MULTIPLIER",
      "outputs": [
        {
          "internalType": "uint256",
          "name": "",
          "type": "uint256"
        }
      ],
      "stateMutability": "view",
      "type": "function"
    },
    {
      "inputs": [],
      "name": "DEFAULT_ADMIN_ROLE",
      "outputs": [
        {
          "internalType": "bytes32",
          "name": "",
          "type": "bytes32"
        }
      ],
      "stateMutability": "view",
      "type": "function"
    },
    {
      "inputs": [],
      "name": "EMERGENCY_ADMIN",
      "outputs": [
        {
          "internalType": "bytes32",
          "name": "",
          "type": "bytes32"
        }
      ],
      "stateMutability": "view",
      "type": "function"
    },
    {
      "inputs": [],
      "name": "LEGAL_ROLE",
      "outputs": [
        {
          "internalType": "bytes32",
          "name": "",
          "type": "bytes32"
        }
      ],
      "stateMutability": "view",
      "type": "function"
    },
    {
      "inputs": [],
      "name": "MAX_BASE_RATE",
      "outputs": [
        {
          "internalType": "uint256",
          "name": "",
          "type": "uint256"
        }
      ],
      "stateMutability": "view",
      "type": "function"
    },
    {
      "inputs": [],
      "name": "MAX_COMMUNITY_SCORE",
      "outputs": [
        {
          "internalType": "uint256",
          "name": "",
          "type": "uint256"
        }
      ],
      "stateMutability": "view",
      "type": "function"
    },
    {
      "inputs": [],
      "name": "MAX_FEE",
      "outputs": [
        {
          "internalType": "uint256",
          "name": "",
          "type": "uint256"
        }
      ],
      "stateMutability": "view",
      "type": "function"
    },
    {
      "inputs": [],
      "name": "MAX_MULTIPLIER",
      "outputs": [
        {
          "internalType": "uint256",
          "name": "",
          "type": "uint256"
        }
      ],
      "stateMutability": "view",
      "type": "function"
    },
    {
      "inputs": [],
      "name": "MIN_BASE_RATE",
      "outputs": [
        {
          "internalType": "uint256",
          "name": "",
          "type": "uint256"
        }
      ],
      "stateMutability": "view",
      "type": "function"
    },
    {
      "inputs": [],
      "name": "MIN_BID_INCREMENT_PERCENT",
      "outputs": [
        {
          "internalType": "uint256",
          "name": "",
          "type": "uint256"
        }
      ],
      "stateMutability": "view",
      "type": "function"
    },
    {
      "inputs": [],
      "name": "MIN_MULTIPLIER",
      "outputs": [
        {
          "internalType": "uint256",
          "name": "",
          "type": "uint256"
        }
      ],
      "stateMutability": "view",
      "type": "function"
    },
    {
      "inputs": [],
      "name": "MIN_UPDATE_INTERVAL",
      "outputs": [
        {
          "internalType": "uint256",
          "name": "",
          "type": "uint256"
        }
      ],
      "stateMutability": "view",
      "type": "function"
    },
    {
      "inputs": [],
      "name": "OPERATOR_ROLE",
      "outputs": [
        {
          "internalType": "bytes32",
          "name": "",
          "type": "bytes32"
        }
      ],
      "stateMutability": "view",
      "type": "function"
    },
    {
      "inputs": [],
      "name": "PAUSER_ROLE",
      "outputs": [
        {
          "internalType": "bytes32",
          "name": "",
          "type": "bytes32"
        }
      ],
      "stateMutability": "view",
      "type": "function"
    },
    {
      "inputs": [],
      "name": "PERCENTAGE_BASE",
      "outputs": [
        {
          "internalType": "uint256",
          "name": "",
          "type": "uint256"
        }
      ],
      "stateMutability": "view",
      "type": "function"
    },
    {
      "inputs": [],
      "name": "REWARD_MANAGER",
      "outputs": [
        {
          "internalType": "bytes32",
          "name": "",
          "type": "bytes32"
        }
      ],
      "stateMutability": "view",
      "type": "function"
    },
    {
      "inputs": [
        {
          "internalType": "uint256",
          "name": "tokenId",
          "type": "uint256"
        },
        {
          "internalType": "uint256",
          "name": "bidIndex",
          "type": "uint256"
        },
        {
          "internalType": "address",
          "name": "expectedBidder",
          "type": "address"
        },
        {
          "internalType": "uint256",
          "name": "expectedAmount",
          "type": "uint256"
        },
        {
          "internalType": "address",
          "name": "expectedPaymentToken",
          "type": "address"
        }
      ],
      "name": "acceptBid",
      "outputs": [],
      "stateMutability": "nonpayable",
      "type": "function"
    },
    {
      "inputs": [
        {
          "internalType": "address",
          "name": "token",
          "type": "address"
        }
      ],
      "name": "addAllowedToken",
      "outputs": [],
      "stateMutability": "nonpayable",
      "type": "function"
    },
    {
      "inputs": [
        {
          "internalType": "address",
          "name": "",
          "type": "address"
        }
      ],
      "name": "allowedPaymentTokens",
      "outputs": [
        {
          "internalType": "bool",
          "name": "",
          "type": "bool"
        }
      ],
      "stateMutability": "view",
      "type": "function"
    },
    {
      "inputs": [
        {
          "internalType": "address",
          "name": "",
          "type": "address"
        },
        {
          "internalType": "uint256",
          "name": "",
          "type": "uint256"
        }
      ],
      "name": "bidIndexByBidder",
      "outputs": [
        {
          "internalType": "uint256",
          "name": "",
          "type": "uint256"
        }
      ],
      "stateMutability": "view",
      "type": "function"
    },
    {
      "inputs": [
        {
          "internalType": "uint256",
          "name": "",
          "type": "uint256"
        },
        {
          "internalType": "uint256",
          "name": "",
          "type": "uint256"
        }
      ],
      "name": "bidsForToken",
      "outputs": [
        {
          "internalType": "uint256",
          "name": "tokenId",
          "type": "uint256"
        },
        {
          "internalType": "address",
          "name": "bidder",
          "type": "address"
        },
        {
          "internalType": "uint256",
          "name": "amount",
          "type": "uint256"
        },
        {
          "internalType": "address",
          "name": "paymentToken",
          "type": "address"
        },
        {
          "internalType": "uint256",
          "name": "bidTimestamp",
          "type": "uint256"
        },
        {
          "internalType": "bool",
          "name": "isActive",
          "type": "bool"
        }
      ],
      "stateMutability": "view",
      "type": "function"
    },
    {
      "inputs": [
        {
          "internalType": "uint256",
          "name": "tokenId",
          "type": "uint256"
        }
      ],
      "name": "cancelBid",
      "outputs": [],
      "stateMutability": "nonpayable",
      "type": "function"
    },
    {
      "inputs": [
        {
          "internalType": "address",
          "name": "",
          "type": "address"
        }
      ],
      "name": "communityScores",
      "outputs": [
        {
          "internalType": "uint256",
          "name": "",
          "type": "uint256"
        }
      ],
      "stateMutability": "view",
      "type": "function"
    },
    {
      "inputs": [
        {
          "internalType": "uint256",
          "name": "",
          "type": "uint256"
        },
        {
          "internalType": "address",
          "name": "",
          "type": "address"
        }
      ],
      "name": "ethBidDeposits",
      "outputs": [
        {
          "internalType": "uint256",
          "name": "",
          "type": "uint256"
        }
      ],
      "stateMutability": "view",
      "type": "function"
    },
    {
      "inputs": [],
      "name": "feeConfig",
      "outputs": [
        {
          "internalType": "uint256",
          "name": "baseFee",
          "type": "uint256"
        },
        {
          "internalType": "uint256",
          "name": "maxFee",
          "type": "uint256"
        },
        {
          "internalType": "uint256",
          "name": "minFee",
          "type": "uint256"
        },
        {
          "internalType": "address",
          "name": "feeCollector",
          "type": "address"
        },
        {
          "internalType": "uint256",
          "name": "lastUpdateTime",
          "type": "uint256"
        }
      ],
      "stateMutability": "view",
      "type": "function"
    },
    {
      "inputs": [
        {
          "internalType": "uint256",
          "name": "tokenId",
          "type": "uint256"
        }
      ],
      "name": "getActiveBidsForToken",
      "outputs": [
        {
          "components": [
            {
              "internalType": "uint256",
              "name": "tokenId",
              "type": "uint256"
            },
            {
              "internalType": "address",
              "name": "bidder",
              "type": "address"
            },
            {
              "internalType": "uint256",
              "name": "amount",
              "type": "uint256"
            },
            {
              "internalType": "address",
              "name": "paymentToken",
              "type": "address"
            },
            {
              "internalType": "uint256",
              "name": "bidTimestamp",
              "type": "uint256"
            },
            {
              "internalType": "bool",
              "name": "isActive",
              "type": "bool"
            }
          ],
          "internalType": "struct PropertyMarket.Bid[]",
          "name": "",
          "type": "tuple[]"
        }
      ],
      "stateMutability": "view",
      "type": "function"
    },
    {
      "inputs": [
        {
          "internalType": "uint256",
          "name": "tokenId",
          "type": "uint256"
        },
        {
          "internalType": "address",
          "name": "bidder",
          "type": "address"
        }
      ],
      "name": "getBidFromBidder",
      "outputs": [
        {
          "components": [
            {
              "internalType": "uint256",
              "name": "tokenId",
              "type": "uint256"
            },
            {
              "internalType": "address",
              "name": "bidder",
              "type": "address"
            },
            {
              "internalType": "uint256",
              "name": "amount",
              "type": "uint256"
            },
            {
              "internalType": "address",
              "name": "paymentToken",
              "type": "address"
            },
            {
              "internalType": "uint256",
              "name": "bidTimestamp",
              "type": "uint256"
            },
            {
              "internalType": "bool",
              "name": "isActive",
              "type": "bool"
            }
          ],
          "internalType": "struct PropertyMarket.Bid",
          "name": "",
          "type": "tuple"
        }
      ],
      "stateMutability": "view",
      "type": "function"
    },
    {
      "inputs": [],
      "name": "getFeeConfig",
      "outputs": [
        {
          "internalType": "uint256",
          "name": "baseFee",
          "type": "uint256"
        },
        {
          "internalType": "uint256",
          "name": "maxFee",
          "type": "uint256"
        },
        {
          "internalType": "uint256",
          "name": "minFee",
          "type": "uint256"
        },
        {
          "internalType": "address",
          "name": "collector",
          "type": "address"
        },
        {
          "internalType": "uint256",
          "name": "lastUpdate",
          "type": "uint256"
        }
      ],
      "stateMutability": "view",
      "type": "function"
    },
    {
      "inputs": [
        {
          "internalType": "uint256",
          "name": "tokenId",
          "type": "uint256"
        }
      ],
      "name": "getListingDetails",
      "outputs": [
        {
          "internalType": "address",
          "name": "seller",
          "type": "address"
        },
        {
          "internalType": "uint256",
          "name": "price",
          "type": "uint256"
        },
        {
          "internalType": "address",
          "name": "paymentToken",
          "type": "address"
        },
        {
          "internalType": "enum PropertyMarket.PropertyStatus",
          "name": "status",
          "type": "uint8"
        },
        {
          "internalType": "uint256",
          "name": "listTimestamp",
          "type": "uint256"
        }
      ],
      "stateMutability": "view",
      "type": "function"
    },
    {
      "inputs": [],
      "name": "getRewardParameters",
      "outputs": [
        {
          "internalType": "uint256",
          "name": "baseRate",
          "type": "uint256"
        },
        {
          "internalType": "uint256",
          "name": "multiplier",
          "type": "uint256"
        },
        {
          "internalType": "uint256",
          "name": "rewardsCap",
          "type": "uint256"
        },
        {
          "internalType": "address",
          "name": "vault",
          "type": "address"
        },
        {
          "internalType": "uint256",
          "name": "lastUpdate",
          "type": "uint256"
        }
      ],
      "stateMutability": "view",
      "type": "function"
    },
    {
      "inputs": [
        {
          "internalType": "bytes32",
          "name": "role",
          "type": "bytes32"
        }
      ],
      "name": "getRoleAdmin",
      "outputs": [
        {
          "internalType": "bytes32",
          "name": "",
          "type": "bytes32"
        }
      ],
      "stateMutability": "view",
      "type": "function"
    },
    {
      "inputs": [
        {
          "internalType": "bytes32",
          "name": "role",
          "type": "bytes32"
        },
        {
          "internalType": "address",
          "name": "account",
          "type": "address"
        }
      ],
      "name": "grantRole",
      "outputs": [],
      "stateMutability": "nonpayable",
      "type": "function"
    },
    {
      "inputs": [
        {
          "internalType": "bytes32",
          "name": "role",
          "type": "bytes32"
        },
        {
          "internalType": "address",
          "name": "account",
          "type": "address"
        }
      ],
      "name": "hasRole",
      "outputs": [
        {
          "internalType": "bool",
          "name": "",
          "type": "bool"
        }
      ],
      "stateMutability": "view",
      "type": "function"
    },
    {
      "inputs": [
        {
          "internalType": "address",
          "name": "account",
          "type": "address"
        }
      ],
      "name": "isKYCVerified",
      "outputs": [
        {
          "internalType": "bool",
          "name": "",
          "type": "bool"
        }
      ],
      "stateMutability": "view",
      "type": "function"
    },
    {
      "inputs": [
        {
          "internalType": "address",
          "name": "token",
          "type": "address"
        }
      ],
      "name": "isTokenAllowed",
      "outputs": [
        {
          "internalType": "bool",
          "name": "",
          "type": "bool"
        }
      ],
      "stateMutability": "view",
      "type": "function"
    },
    {
      "inputs": [
        {
          "internalType": "address",
          "name": "",
          "type": "address"
        },
        {
          "internalType": "uint256",
          "name": "",
          "type": "uint256"
        }
      ],
      "name": "leaseTerms",
      "outputs": [
        {
          "internalType": "uint256",
          "name": "",
          "type": "uint256"
        }
      ],
      "stateMutability": "view",
      "type": "function"
    },
    {
      "inputs": [
        {
          "internalType": "uint256",
          "name": "tokenId",
          "type": "uint256"
        },
        {
          "internalType": "uint256",
          "name": "price",
          "type": "uint256"
        },
        {
          "internalType": "address",
          "name": "paymentToken",
          "type": "address"
        }
      ],
      "name": "listProperty",
      "outputs": [],
      "stateMutability": "nonpayable",
      "type": "function"
    },
    {
      "inputs": [
        {
          "internalType": "uint256",
          "name": "",
          "type": "uint256"
        }
      ],
      "name": "listings",
      "outputs": [
        {
          "internalType": "uint256",
          "name": "tokenId",
          "type": "uint256"
        },
        {
          "internalType": "address",
          "name": "seller",
          "type": "address"
        },
        {
          "internalType": "uint256",
          "name": "price",
          "type": "uint256"
        },
        {
          "internalType": "address",
          "name": "paymentToken",
          "type": "address"
        },
        {
          "internalType": "enum PropertyMarket.PropertyStatus",
          "name": "status",
          "type": "uint8"
        },
        {
          "internalType": "uint256",
          "name": "listTimestamp",
          "type": "uint256"
        },
        {
          "internalType": "uint256",
          "name": "lastRenewed",
          "type": "uint256"
        }
      ],
      "stateMutability": "view",
      "type": "function"
    },
    {
      "inputs": [],
      "name": "nftiContract",
      "outputs": [
        {
          "internalType": "contract IERC721",
          "name": "",
          "type": "address"
        }
      ],
      "stateMutability": "view",
      "type": "function"
    },
    {
      "inputs": [],
      "name": "nftmContract",
      "outputs": [
        {
          "internalType": "contract IERC721",
          "name": "",
          "type": "address"
        }
      ],
      "stateMutability": "view",
      "type": "function"
    },
    {
      "inputs": [],
      "name": "pause",
      "outputs": [],
      "stateMutability": "nonpayable",
      "type": "function"
    },
    {
      "inputs": [],
      "name": "paused",
      "outputs": [
        {
          "internalType": "bool",
          "name": "",
          "type": "bool"
        }
      ],
      "stateMutability": "view",
      "type": "function"
    },
    {
      "inputs": [
        {
          "internalType": "uint256",
          "name": "tokenId",
          "type": "uint256"
        },
        {
          "internalType": "uint256",
          "name": "bidAmount",
          "type": "uint256"
        },
        {
          "internalType": "address",
          "name": "paymentToken",
          "type": "address"
        }
      ],
      "name": "placeBid",
      "outputs": [],
      "stateMutability": "payable",
      "type": "function"
    },
    {
      "inputs": [
        {
          "internalType": "uint256",
          "name": "tokenId",
          "type": "uint256"
        },
        {
          "internalType": "uint256",
          "name": "offerPrice",
          "type": "uint256"
        }
      ],
      "name": "purchaseProperty",
      "outputs": [],
      "stateMutability": "payable",
      "type": "function"
    },
    {
      "inputs": [
        {
          "internalType": "address",
          "name": "token",
          "type": "address"
        }
      ],
      "name": "removeAllowedToken",
      "outputs": [],
      "stateMutability": "nonpayable",
      "type": "function"
    },
    {
      "inputs": [
        {
          "internalType": "bytes32",
          "name": "role",
          "type": "bytes32"
        },
        {
          "internalType": "address",
          "name": "account",
          "type": "address"
        }
      ],
      "name": "renounceRole",
      "outputs": [],
      "stateMutability": "nonpayable",
      "type": "function"
    },
    {
      "inputs": [
        {
          "internalType": "bytes32",
          "name": "role",
          "type": "bytes32"
        },
        {
          "internalType": "address",
          "name": "account",
          "type": "address"
        }
      ],
      "name": "revokeRole",
      "outputs": [],
      "stateMutability": "nonpayable",
      "type": "function"
    },
    {
      "inputs": [],
      "name": "rewardParams",
      "outputs": [
        {
          "internalType": "uint256",
          "name": "baseRate",
          "type": "uint256"
        },
        {
          "internalType": "uint256",
          "name": "multiplier",
          "type": "uint256"
        },
        {
          "internalType": "uint256",
          "name": "rewardsCap",
          "type": "uint256"
        },
        {
          "internalType": "uint256",
          "name": "lastUpdateTime",
          "type": "uint256"
        },
        {
          "internalType": "address",
          "name": "rewardsVault",
          "type": "address"
        }
      ],
      "stateMutability": "view",
      "type": "function"
    },
    {
      "inputs": [
        {
          "internalType": "bool",
          "name": "enabled",
          "type": "bool"
        }
      ],
      "name": "setWhitelistEnabled",
      "outputs": [],
      "stateMutability": "nonpayable",
      "type": "function"
    },
    {
      "inputs": [
        {
          "internalType": "bytes4",
          "name": "interfaceId",
          "type": "bytes4"
        }
      ],
      "name": "supportsInterface",
      "outputs": [
        {
          "internalType": "bool",
          "name": "",
          "type": "bool"
        }
      ],
      "stateMutability": "view",
      "type": "function"
    },
    {
      "inputs": [],
      "name": "unpause",
      "outputs": [],
      "stateMutability": "nonpayable",
      "type": "function"
    },
    {
      "inputs": [
        {
          "internalType": "address",
          "name": "account",
          "type": "address"
        },
        {
          "internalType": "uint256",
          "name": "newScore",
          "type": "uint256"
        }
      ],
      "name": "updateCommunityScore",
      "outputs": [],
      "stateMutability": "nonpayable",
      "type": "function"
    },
    {
      "inputs": [
        {
          "internalType": "address",
          "name": "newCollector",
          "type": "address"
        }
      ],
      "name": "updateFeeCollector",
      "outputs": [],
      "stateMutability": "nonpayable",
      "type": "function"
    },
    {
      "inputs": [
        {
          "internalType": "uint256",
          "name": "newBaseFee",
          "type": "uint256"
        },
        {
          "internalType": "uint256",
          "name": "newMaxFee",
          "type": "uint256"
        },
        {
          "internalType": "uint256",
          "name": "newMinFee",
          "type": "uint256"
        }
      ],
      "name": "updateFeeConfig",
      "outputs": [],
      "stateMutability": "nonpayable",
      "type": "function"
    },
    {
      "inputs": [
        {
          "internalType": "address",
          "name": "account",
          "type": "address"
        },
        {
          "internalType": "bool",
          "name": "status",
          "type": "bool"
        }
      ],
      "name": "updateKYCStatus",
      "outputs": [],
      "stateMutability": "nonpayable",
      "type": "function"
    },
    {
      "inputs": [
        {
          "internalType": "uint256",
          "name": "tokenId",
          "type": "uint256"
        },
        {
          "internalType": "uint256",
          "name": "newPrice",
          "type": "uint256"
        },
        {
          "internalType": "address",
          "name": "newPaymentToken",
          "type": "address"
        }
      ],
      "name": "updateListing",
      "outputs": [],
      "stateMutability": "nonpayable",
      "type": "function"
    },
    {
      "inputs": [
        {
          "internalType": "uint256",
          "name": "newBaseRate",
          "type": "uint256"
        },
        {
          "internalType": "uint256",
          "name": "newMultiplier",
          "type": "uint256"
        },
        {
          "internalType": "uint256",
          "name": "newRewardsCap",
          "type": "uint256"
        }
      ],
      "name": "updateRewardParameters",
      "outputs": [],
      "stateMutability": "nonpayable",
      "type": "function"
    },
    {
      "inputs": [
        {
          "internalType": "address",
          "name": "newVault",
          "type": "address"
        }
      ],
      "name": "updateRewardsVault",
      "outputs": [],
      "stateMutability": "nonpayable",
      "type": "function"
    },
    {
      "inputs": [],
      "name": "whitelistEnabled",
      "outputs": [
        {
          "internalType": "bool",
          "name": "",
          "type": "bool"
        }
      ],
      "stateMutability": "view",
      "type": "function"
    }
  ],
  "bytecode": "0x60c06040526001601060006101000a81548160ff0219169083151502179055503480156200002c57600080fd5b506040516200923b3803806200923b8339818101604052810190620000529190620007e4565b828282600180819055506000600260006101000a81548160ff021916908315150217905550600073ffffffffffffffffffffffffffffffffffffffff168373ffffffffffffffffffffffffffffffffffffffff1603620000e9576040517f08c379a0000000000000000000000000000000000000000000000000000000008152600401620000e090620008cd565b60405180910390fd5b600073ffffffffffffffffffffffffffffffffffffffff168273ffffffffffffffffffffffffffffffffffffffff16036200015b576040517f08c379a000000000000000000000000000000000000000000000000000000000815260040162000152906200093f565b60405180910390fd5b600073ffffffffffffffffffffffffffffffffffffffff168173ffffffffffffffffffffffffffffffffffffffff1603620001cd576040517f08c379a0000000000000000000000000000000000000000000000000000000008152600401620001c490620009b1565b60405180910390fd5b620001e26000801b846200060160201b60201c565b620002147f97667070c54ef182b0f5858b034beac1b6f3089aa2d3188bb1e8929f4fa9b929846200060160201b60201c565b620002467fb9f13ecb5e7f0f859c44b76b3a163e504787b446da95a26bf75e53e1ff4a1e0e846200060160201b60201c565b620002787f6393fa734211156fcc8c7dda6b0650f5c731d4c838c1db43445a149aa2f5b6fe846200060160201b60201c565b620002aa7f5c91514091af31f62f596a314af7d5be40146b2f2355969392f055e12e0982fb846200060160201b60201c565b620002dc7f65d7a28e3265b37a6474929f336521b332c1681b933f6cb9f3376673440d862a846200060160201b60201c565b6040518060a0016040528060fa81526020016101f48152602001606481526020018373ffffffffffffffffffffffffffffffffffffffff16815260200142815250600360008201518160000155602082015181600101556040820151816002015560608201518160030160006101000a81548173ffffffffffffffffffffffffffffffffffffffff021916908373ffffffffffffffffffffffffffffffffffffffff160217905550608082015181600401559050506040518060a001604052806103e8815260200160c8815260200169d3c21bcecceda100000081526020014281526020018273ffffffffffffffffffffffffffffffffffffffff1681525060086000820151816000015560208201518160010155604082015181600201556060820151816003015560808201518160040160006101000a81548173ffffffffffffffffffffffffffffffffffffffff021916908373ffffffffffffffffffffffffffffffffffffffff160217905550905050505050600073ffffffffffffffffffffffffffffffffffffffff168573ffffffffffffffffffffffffffffffffffffffff1603620004c4576040517f08c379a0000000000000000000000000000000000000000000000000000000008152600401620004bb9062000a23565b60405180910390fd5b600073ffffffffffffffffffffffffffffffffffffffff168473ffffffffffffffffffffffffffffffffffffffff160362000536576040517f08c379a00000000000000000000000000000000000000000000000000000000081526004016200052d9062000a95565b60405180910390fd5b6001600f60008073ffffffffffffffffffffffffffffffffffffffff1673ffffffffffffffffffffffffffffffffffffffff16815260200190815260200160002060006101000a81548160ff0219169083151502179055508473ffffffffffffffffffffffffffffffffffffffff1660808173ffffffffffffffffffffffffffffffffffffffff16815250508373ffffffffffffffffffffffffffffffffffffffff1660a08173ffffffffffffffffffffffffffffffffffffffff1681525050505050505062000ab7565b6200061382826200061760201b60201c565b5050565b6200062982826200070860201b60201c565b6200070457600160008084815260200190815260200160002060000160008373ffffffffffffffffffffffffffffffffffffffff1673ffffffffffffffffffffffffffffffffffffffff16815260200190815260200160002060006101000a81548160ff021916908315150217905550620006a96200077260201b60201c565b73ffffffffffffffffffffffffffffffffffffffff168173ffffffffffffffffffffffffffffffffffffffff16837f2f8788117e7eff1d82e926ec794901d17c78024a50270940304540a733656f0d60405160405180910390a45b5050565b600080600084815260200190815260200160002060000160008373ffffffffffffffffffffffffffffffffffffffff1673ffffffffffffffffffffffffffffffffffffffff16815260200190815260200160002060009054906101000a900460ff16905092915050565b600033905090565b600080fd5b600073ffffffffffffffffffffffffffffffffffffffff82169050919050565b6000620007ac826200077f565b9050919050565b620007be816200079f565b8114620007ca57600080fd5b50565b600081519050620007de81620007b3565b92915050565b600080600080600060a086880312156200080357620008026200077a565b5b60006200081388828901620007cd565b95505060206200082688828901620007cd565b94505060406200083988828901620007cd565b93505060606200084c88828901620007cd565b92505060806200085f88828901620007cd565b9150509295509295909350565b600082825260208201905092915050565b7f496e76616c69642061646d696e20616464726573730000000000000000000000600082015250565b6000620008b56015836200086c565b9150620008c2826200087d565b602082019050919050565b60006020820190508181036000830152620008e881620008a6565b9050919050565b7f496e76616c69642066656520636f6c6c6563746f720000000000000000000000600082015250565b6000620009276015836200086c565b91506200093482620008ef565b602082019050919050565b600060208201905081810360008301526200095a8162000918565b9050919050565b7f496e76616c69642072657761726473207661756c740000000000000000000000600082015250565b6000620009996015836200086c565b9150620009a68262000961565b602082019050919050565b60006020820190508181036000830152620009cc816200098a565b9050919050565b7f496e76616c6964204e46546920636f6e74726163742061646472657373000000600082015250565b600062000a0b601d836200086c565b915062000a1882620009d3565b602082019050919050565b6000602082019050818103600083015262000a3e81620009fc565b9050919050565b7f496e76616c6964204e46546d20636f6e74726163742061646472657373000000600082015250565b600062000a7d601d836200086c565b915062000a8a8262000a45565b602082019050919050565b6000602082019050818103600083015262000ab08162000a6e565b9050919050565b60805160a05161874262000af96000396000613f4201526000818161180b01528181611afc015281816122b00152818161464e0152614cd301526187426000f3fe60806040526004361061038c5760003560e01c806386aa217e116101dc578063bf534d6311610102578063ddd1a5bf116100a0578063ed03e78c1161006f578063ed03e78c14610d6d578063f5b541a614610d98578063f9eaee0d14610dc3578063fb05da2e14610e005761038c565b8063ddd1a5bf14610c99578063de74e57b14610cd6578063e58a7b3114610d19578063e63ab1e914610d425761038c565b8063cbb9c9a4116100dc578063cbb9c9a414610bf1578063d2c35ce814610c1c578063d547741f14610c45578063d6585ecf14610c6e5761038c565b8063bf534d6314610b5b578063c7921a7c14610b84578063c9bf852214610bc65761038c565b80639a03911e1161017a578063b74b9fd911610149578063b74b9fd914610aab578063bc063e1a14610ada578063bc99681914610b05578063bd3be27c14610b305761038c565b80639a03911e146109fe578063a217fddf14610a27578063ad6561ec14610a52578063ad7bbd5a14610a6e5761038c565b80638e7579a1116101b65780638e7579a11461094457806390469a9d1461096f57806391d14854146109985780639703ef35146109d55761038c565b806386aa217e146108c757806387c13943146108f0578063887f495a1461091b5761038c565b806354b7636e116102c157806360d03f261161025f578063763469141161022e578063763469141461081957806379cef8bd146108485780637bf96014146108855780638456cb59146108b05761038c565b806360d03f2614610739578063697d312a1461076257806369fcc6491461079f57806373c250c6146107dc5761038c565b80635c975abb1161029b5780635c975abb1461068b5780635d6a618d146106b65780635e67ab76146106e15780635fbbc0d21461070a5761038c565b806354b7636e146105f8578063592eb924146106355780635932fdba146106605761038c565b806336568abe1161032e5780634178617f116103085780634178617f1461055f5780634f8434941461058857806351fb012d146105a457806353df9d76146105cf5761038c565b806336568abe146104f4578063388da3c51461051d5780633f4ba83a146105485761038c565b80631e5eb1d01161036a5780631e5eb1d014610434578063248a9ca3146104635780632f2ff15d146104a0578063352fbf99146104c95761038c565b806301ffc9a714610391578063052d9e7e146103ce5780631276291c146103f7575b600080fd5b34801561039d57600080fd5b506103b860048036038101906103b3919061600d565b610e41565b6040516103c59190616055565b60405180910390f35b3480156103da57600080fd5b506103f560048036038101906103f0919061609c565b610ebb565b005b34801561040357600080fd5b5061041e600480360381019061041991906160ff565b610f95565b60405161042b91906162b5565b60405180910390f35b34801561044057600080fd5b50610449611215565b60405161045a9594939291906162f5565b60405180910390f35b34801561046f57600080fd5b5061048a6004803603810190610485919061637e565b611259565b60405161049791906163ba565b60405180910390f35b3480156104ac57600080fd5b506104c760048036038101906104c29190616401565b611278565b005b3480156104d557600080fd5b506104de611365565b6040516104eb9190616441565b60405180910390f35b34801561050057600080fd5b5061051b60048036038101906105169190616401565b61136a565b005b34801561052957600080fd5b506105326113ed565b60405161053f9190616441565b60405180910390f35b34801561055457600080fd5b5061055d6113f2565b005b34801561056b57600080fd5b506105866004803603810190610581919061645c565b611427565b005b6105a2600480360381019061059d9190616489565b6115ba565b005b3480156105b057600080fd5b506105b961192d565b6040516105c69190616055565b60405180910390f35b3480156105db57600080fd5b506105f660048036038101906105f191906164c9565b611940565b005b34801561060457600080fd5b5061061f600480360381019061061a919061645c565b611aa4565b60405161062c9190616055565b60405180910390f35b34801561064157600080fd5b5061064a611afa565b6040516106579190616568565b60405180910390f35b34801561066c57600080fd5b50610675611b1e565b60405161068291906163ba565b60405180910390f35b34801561069757600080fd5b506106a0611b42565b6040516106ad9190616055565b60405180910390f35b3480156106c257600080fd5b506106cb611b59565b6040516106d89190616441565b60405180910390f35b3480156106ed57600080fd5b5061070860048036038101906107039190616583565b611b5f565b005b34801561071657600080fd5b5061071f611d8f565b6040516107309594939291906162f5565b60405180910390f35b34801561074557600080fd5b50610760600480360381019061075b91906165d6565b611de5565b005b34801561076e57600080fd5b506107896004803603810190610784919061645c565b611fab565b6040516107969190616055565b60405180910390f35b3480156107ab57600080fd5b506107c660048036038101906107c191906165d6565b611fcb565b6040516107d39190616441565b60405180910390f35b3480156107e857600080fd5b5061080360048036038101906107fe919061645c565b611ff0565b6040516108109190616441565b60405180910390f35b34801561082557600080fd5b5061082e612008565b60405161083f959493929190616616565b60405180910390f35b34801561085457600080fd5b5061086f600480360381019061086a9190616669565b61204c565b60405161087c9190616724565b60405180910390f35b34801561089157600080fd5b5061089a612253565b6040516108a79190616441565b60405180910390f35b3480156108bc57600080fd5b506108c561225a565b005b3480156108d357600080fd5b506108ee60048036038101906108e9919061673f565b61228f565b005b3480156108fc57600080fd5b506109056126ae565b6040516109129190616441565b60405180910390f35b34801561092757600080fd5b50610942600480360381019061093d919061673f565b6126b4565b005b34801561095057600080fd5b506109596128d2565b60405161096691906163ba565b60405180910390f35b34801561097b57600080fd5b506109966004803603810190610991919061645c565b6128f6565b005b3480156109a457600080fd5b506109bf60048036038101906109ba9190616401565b612a89565b6040516109cc9190616055565b60405180910390f35b3480156109e157600080fd5b506109fc60048036038101906109f791906160ff565b612af3565b005b348015610a0a57600080fd5b50610a256004803603810190610a20919061645c565b612f85565b005b348015610a3357600080fd5b50610a3c6130d0565b604051610a4991906163ba565b60405180910390f35b610a6c6004803603810190610a67919061673f565b6130d7565b005b348015610a7a57600080fd5b50610a956004803603810190610a9091906165d6565b613c1e565b604051610aa29190616441565b60405180910390f35b348015610ab757600080fd5b50610ac0613c43565b604051610ad19594939291906162f5565b60405180910390f35b348015610ae657600080fd5b50610aef613c9a565b604051610afc9190616441565b60405180910390f35b348015610b1157600080fd5b50610b1a613ca0565b604051610b279190616441565b60405180910390f35b348015610b3c57600080fd5b50610b45613ca5565b604051610b529190616441565b60405180910390f35b348015610b6757600080fd5b50610b826004803603810190610b7d9190616583565b613cac565b005b348015610b9057600080fd5b50610bab6004803603810190610ba69190616489565b613e94565b604051610bbd96959493929190616792565b60405180910390f35b348015610bd257600080fd5b50610bdb613f3a565b604051610be89190616441565b60405180910390f35b348015610bfd57600080fd5b50610c06613f40565b604051610c139190616568565b60405180910390f35b348015610c2857600080fd5b50610c436004803603810190610c3e919061645c565b613f64565b005b348015610c5157600080fd5b50610c6c6004803603810190610c679190616401565b6140ad565b005b348015610c7a57600080fd5b50610c8361419a565b604051610c9091906163ba565b60405180910390f35b348015610ca557600080fd5b50610cc06004803603810190610cbb9190616669565b6141be565b604051610ccd9190616441565b60405180910390f35b348015610ce257600080fd5b50610cfd6004803603810190610cf891906160ff565b6141e3565b604051610d10979695949392919061686a565b60405180910390f35b348015610d2557600080fd5b50610d406004803603810190610d3b91906168d9565b614272565b005b348015610d4e57600080fd5b50610d57614e63565b604051610d6491906163ba565b60405180910390f35b348015610d7957600080fd5b50610d82614e87565b604051610d8f9190616441565b60405180910390f35b348015610da457600080fd5b50610dad614e8c565b604051610dba91906163ba565b60405180910390f35b348015610dcf57600080fd5b50610dea6004803603810190610de5919061645c565b614eb0565b604051610df79190616055565b60405180910390f35b348015610e0c57600080fd5b50610e276004803603810190610e2291906160ff565b614f24565b604051610e38959493929190616954565b60405180910390f35b60007f7965db0b000000000000000000000000000000000000000000000000000000007bffffffffffffffffffffffffffffffffffffffffffffffffffffffff1916827bffffffffffffffffffffffffffffffffffffffffffffffffffffffff19161480610eb45750610eb382614fbc565b5b9050919050565b60007f97667070c54ef182b0f5858b034beac1b6f3089aa2d3188bb1e8929f4fa9b9299050610eea8133612a89565b610f29576040517f08c379a0000000000000000000000000000000000000000000000000000000008152600401610f2090616a04565b60405180910390fd5b81601060006101000a81548160ff0219169083151502179055503373ffffffffffffffffffffffffffffffffffffffff167f49d3b7603127f47657003ec050b7aeb0d61d8261082d7807be013894e89373fd83604051610f899190616055565b60405180910390a25050565b606060006013600084815260200190815260200160002090506000805b828054905081101561101757828181548110610fd157610fd0616a24565b5b906000526020600020906006020160050160009054906101000a900460ff161561100457818061100090616a82565b9250505b808061100f90616a82565b915050610fb2565b5060008167ffffffffffffffff81111561103457611033616aca565b5b60405190808252806020026020018201604052801561106d57816020015b61105a615f4c565b8152602001906001900390816110525790505b5090506000805b84805490508110156112085784818154811061109357611092616a24565b5b906000526020600020906006020160050160009054906101000a900460ff16156111f5578481815481106110ca576110c9616a24565b5b90600052602060002090600602016040518060c0016040529081600082015481526020016001820160009054906101000a900473ffffffffffffffffffffffffffffffffffffffff1673ffffffffffffffffffffffffffffffffffffffff1673ffffffffffffffffffffffffffffffffffffffff168152602001600282015481526020016003820160009054906101000a900473ffffffffffffffffffffffffffffffffffffffff1673ffffffffffffffffffffffffffffffffffffffff1673ffffffffffffffffffffffffffffffffffffffff168152602001600482015481526020016005820160009054906101000a900460ff1615151515815250508383815181106111db576111da616a24565b5b602002602001018190525081806111f190616a82565b9250505b808061120090616a82565b915050611074565b5081945050505050919050565b60038060000154908060010154908060020154908060030160009054906101000a900473ffffffffffffffffffffffffffffffffffffffff16908060040154905085565b6000806000838152602001908152602001600020600101549050919050565b61128182611259565b61128a81615026565b81600073ffffffffffffffffffffffffffffffffffffffff168173ffffffffffffffffffffffffffffffffffffffff16036112fa576040517f08c379a00000000000000000000000000000000000000000000000000000000081526004016112f190616b45565b60405180910390fd5b611304848461503a565b3373ffffffffffffffffffffffffffffffffffffffff168373ffffffffffffffffffffffffffffffffffffffff16857fb754d28367d5b086c81243c886ead0839c92cb5f281e492d7159800bc57d3c1760405160405180910390a450505050565b606481565b61137261505b565b73ffffffffffffffffffffffffffffffffffffffff168173ffffffffffffffffffffffffffffffffffffffff16146113df576040517f08c379a00000000000000000000000000000000000000000000000000000000081526004016113d690616bd7565b60405180910390fd5b6113e98282615063565b5050565b606481565b7f5c91514091af31f62f596a314af7d5be40146b2f2355969392f055e12e0982fb61141c81615026565b611424615144565b50565b60007f97667070c54ef182b0f5858b034beac1b6f3089aa2d3188bb1e8929f4fa9b92990506114568133612a89565b611495576040517f08c379a000000000000000000000000000000000000000000000000000000000815260040161148c90616a04565b60405180910390fd5b600073ffffffffffffffffffffffffffffffffffffffff168273ffffffffffffffffffffffffffffffffffffffff1603611504576040517f08c379a00000000000000000000000000000000000000000000000000000000081526004016114fb90616c43565b60405180910390fd5b6001600f60008473ffffffffffffffffffffffffffffffffffffffff1673ffffffffffffffffffffffffffffffffffffffff16815260200190815260200160002060006101000a81548160ff0219169083151502179055503373ffffffffffffffffffffffffffffffffffffffff168273ffffffffffffffffffffffffffffffffffffffff167fb96e353e41685d2c0c71657628655373417f3980dc2e6244ef705db758401d5360405160405180910390a35050565b6115c26151a7565b6000601160008481526020019081526020016000209050600060038111156115ed576115ec6167f3565b5b8160030160149054906101000a900460ff166003811115611611576116106167f3565b5b14611651576040517f08c379a000000000000000000000000000000000000000000000000000000000815260040161164890616caf565b60405180910390fd5b3073ffffffffffffffffffffffffffffffffffffffff166354b7636e336040518263ffffffff1660e01b815260040161168a9190616ccf565b602060405180830381865afa1580156116a7573d6000803e3d6000fd5b505050506040513d601f19601f820116820180604052508101906116cb9190616cff565b61170a576040517f08c379a000000000000000000000000000000000000000000000000000000000815260040161170190616d78565b60405180910390fd5b61173d8160020154838360030160009054906101000a900473ffffffffffffffffffffffffffffffffffffffff166151f6565b61177c576040517f08c379a000000000000000000000000000000000000000000000000000000000815260040161177390616de4565b60405180910390fd5b60028160030160146101000a81548160ff021916908360038111156117a4576117a36167f3565b5b02179055506117b283615265565b6118098160010160009054906101000a900473ffffffffffffffffffffffffffffffffffffffff1682600201548360030160009054906101000a900473ffffffffffffffffffffffffffffffffffffffff16615469565b7f000000000000000000000000000000000000000000000000000000000000000073ffffffffffffffffffffffffffffffffffffffff1663b88d4fde8260010160009054906101000a900473ffffffffffffffffffffffffffffffffffffffff1633866040518463ffffffff1660e01b815260040161188a93929190616e3b565b600060405180830381600087803b1580156118a457600080fd5b505af11580156118b8573d6000803e3d6000fd5b50505050827f5be1cef2101afbbf72fccd811a15ccfdedc8c44b5f50934100f262ffcd9a1f063383600201548460030160009054906101000a900473ffffffffffffffffffffffffffffffffffffffff1660405161191893929190616e85565b60405180910390a250611929615904565b5050565b601060009054906101000a900460ff1681565b7fb9f13ecb5e7f0f859c44b76b3a163e504787b446da95a26bf75e53e1ff4a1e0e61196a81615026565b61197261590d565b82600073ffffffffffffffffffffffffffffffffffffffff168173ffffffffffffffffffffffffffffffffffffffff16036119e2576040517f08c379a00000000000000000000000000000000000000000000000000000000081526004016119d990616b45565b60405180910390fd5b82600d60008673ffffffffffffffffffffffffffffffffffffffff1673ffffffffffffffffffffffffffffffffffffffff16815260200190815260200160002060006101000a81548160ff0219169083151502179055503373ffffffffffffffffffffffffffffffffffffffff168473ffffffffffffffffffffffffffffffffffffffff167f24a8961e762fdb5b58e46e6d14dd1b5c261b610bf3bf440130bdabbfc699116a85604051611a969190616055565b60405180910390a350505050565b6000600d60008373ffffffffffffffffffffffffffffffffffffffff1673ffffffffffffffffffffffffffffffffffffffff16815260200190815260200160002060009054906101000a900460ff169050919050565b7f000000000000000000000000000000000000000000000000000000000000000081565b7f6393fa734211156fcc8c7dda6b0650f5c731d4c838c1db43445a149aa2f5b6fe81565b6000600260009054906101000a900460ff16905090565b61271081565b7f6393fa734211156fcc8c7dda6b0650f5c731d4c838c1db43445a149aa2f5b6fe611b8981615026565b611b9161590d565b62015180600360040154611ba59190616ebc565b421015611be7576040517f08c379a0000000000000000000000000000000000000000000000000000000008152600401611bde90616f3c565b60405180910390fd5b6064841015611c2b576040517f08c379a0000000000000000000000000000000000000000000000000000000008152600401611c2290616fa8565b60405180910390fd5b620f4240841115611c71576040517f08c379a0000000000000000000000000000000000000000000000000000000008152600401611c6890617014565b60405180910390fd5b6064831015611cb5576040517f08c379a0000000000000000000000000000000000000000000000000000000008152600401611cac90617080565b60405180910390fd5b612710831115611cfa576040517f08c379a0000000000000000000000000000000000000000000000000000000008152600401611cf1906170ec565b60405180910390fd5b3373ffffffffffffffffffffffffffffffffffffffff167f0e9e404729dbeee37a908f95a230168e5a74924f4dd32bbd8ec55fbfe7a066ca600860000154866008600101548760086002015488604051611d599695949392919061710c565b60405180910390a28360086000018190555082600860010181905550816008600201819055504260086003018190555050505050565b60008060008060006003600001546003600101546003600201546003800160009054906101000a900473ffffffffffffffffffffffffffffffffffffffff16600360040154945094509450945094509091929394565b7f97667070c54ef182b0f5858b034beac1b6f3089aa2d3188bb1e8929f4fa9b929611e0f81615026565b611e1761590d565b82600073ffffffffffffffffffffffffffffffffffffffff168173ffffffffffffffffffffffffffffffffffffffff1603611e87576040517f08c379a0000000000000000000000000000000000000000000000000000000008152600401611e7e90616b45565b60405180910390fd5b612710831115611ecc576040517f08c379a0000000000000000000000000000000000000000000000000000000008152600401611ec3906171b9565b60405180910390fd5b6000600e60008673ffffffffffffffffffffffffffffffffffffffff1673ffffffffffffffffffffffffffffffffffffffff16815260200190815260200160002054905083600e60008773ffffffffffffffffffffffffffffffffffffffff1673ffffffffffffffffffffffffffffffffffffffff168152602001908152602001600020819055508473ffffffffffffffffffffffffffffffffffffffff167f7681c9bc4703daadfdfbfae0bd1c828b4619e58101f0e8a5404f70e93c6286638286604051611f9c9291906171d9565b60405180910390a25050505050565b600f6020528060005260406000206000915054906101000a900460ff1681565b6015602052816000526040600020602052806000526040600020600091509150505481565b600e6020528060005260406000206000915090505481565b60088060000154908060010154908060020154908060030154908060040160009054906101000a900473ffffffffffffffffffffffffffffffffffffffff16905085565b612054615f4c565b6000601560008473ffffffffffffffffffffffffffffffffffffffff1673ffffffffffffffffffffffffffffffffffffffff16815260200190815260200160002060008581526020019081526020016000205490506000810361211a576040518060c0016040528060008152602001600073ffffffffffffffffffffffffffffffffffffffff16815260200160008152602001600073ffffffffffffffffffffffffffffffffffffffff168152602001600081526020016000151581525091505061224d565b6013600085815260200190815260200160002060018261213a9190617202565b8154811061214b5761214a616a24565b5b90600052602060002090600602016040518060c0016040529081600082015481526020016001820160009054906101000a900473ffffffffffffffffffffffffffffffffffffffff1673ffffffffffffffffffffffffffffffffffffffff1673ffffffffffffffffffffffffffffffffffffffff168152602001600282015481526020016003820160009054906101000a900473ffffffffffffffffffffffffffffffffffffffff1673ffffffffffffffffffffffffffffffffffffffff1673ffffffffffffffffffffffffffffffffffffffff168152602001600482015481526020016005820160009054906101000a900460ff1615151515815250509150505b92915050565b620f424081565b7f5c91514091af31f62f596a314af7d5be40146b2f2355969392f055e12e0982fb61228481615026565b61228c615957565b50565b6122976151a7565b3373ffffffffffffffffffffffffffffffffffffffff167f000000000000000000000000000000000000000000000000000000000000000073ffffffffffffffffffffffffffffffffffffffff16636352211e856040518263ffffffff1660e01b81526004016123079190616441565b602060405180830381865afa158015612324573d6000803e3d6000fd5b505050506040513d601f19601f82011682018060405250810190612348919061724b565b73ffffffffffffffffffffffffffffffffffffffff161461239e576040517f08c379a0000000000000000000000000000000000000000000000000000000008152600401612395906172c4565b60405180910390fd5b3073ffffffffffffffffffffffffffffffffffffffff166354b7636e336040518263ffffffff1660e01b81526004016123d79190616ccf565b602060405180830381865afa1580156123f4573d6000803e3d6000fd5b505050506040513d601f19601f820116820180604052508101906124189190616cff565b612457576040517f08c379a000000000000000000000000000000000000000000000000000000000815260040161244e90616d78565b60405180910390fd5b6000821161249a576040517f08c379a000000000000000000000000000000000000000000000000000000000815260040161249190617330565b60405180910390fd5b6124a381614eb0565b6124e2576040517f08c379a00000000000000000000000000000000000000000000000000000000081526004016124d99061739c565b60405180910390fd5b6040518060e001604052808481526020013373ffffffffffffffffffffffffffffffffffffffff1681526020018381526020018273ffffffffffffffffffffffffffffffffffffffff16815260200160006003811115612545576125446167f3565b5b815260200142815260200142815250601160008581526020019081526020016000206000820151816000015560208201518160010160006101000a81548173ffffffffffffffffffffffffffffffffffffffff021916908373ffffffffffffffffffffffffffffffffffffffff1602179055506040820151816002015560608201518160030160006101000a81548173ffffffffffffffffffffffffffffffffffffffff021916908373ffffffffffffffffffffffffffffffffffffffff16021790555060808201518160030160146101000a81548160ff02191690836003811115612634576126336167f3565b5b021790555060a0820151816004015560c082015181600501559050503373ffffffffffffffffffffffffffffffffffffffff16837f2c6c7576542d9307c65e21c836da28fc580279667ba9e8d5fe56dca491d5980384846040516126999291906173bc565b60405180910390a36126a9615904565b505050565b61271081565b60007f97667070c54ef182b0f5858b034beac1b6f3089aa2d3188bb1e8929f4fa9b92990506126e38133612a89565b612722576040517f08c379a000000000000000000000000000000000000000000000000000000000815260040161271990616a04565b60405180910390fd5b60006011600086815260200190815260200160002090506000600381111561274d5761274c6167f3565b5b8160030160149054906101000a900460ff166003811115612771576127706167f3565b5b146127b1576040517f08c379a00000000000000000000000000000000000000000000000000000000081526004016127a890617431565b60405180910390fd5b600084116127f4576040517f08c379a00000000000000000000000000000000000000000000000000000000081526004016127eb90617330565b60405180910390fd5b6127fd83614eb0565b61283c576040517f08c379a00000000000000000000000000000000000000000000000000000000081526004016128339061739c565b60405180910390fd5b838160020181905550828160030160006101000a81548173ffffffffffffffffffffffffffffffffffffffff021916908373ffffffffffffffffffffffffffffffffffffffff160217905550428160050181905550847fb82cb8d1ee5aa2af90399f2b0ece446b81a5f1e601da16a2a2b62dfcc8bb4ba385856040516128c39291906173bc565b60405180910390a25050505050565b7fb9f13ecb5e7f0f859c44b76b3a163e504787b446da95a26bf75e53e1ff4a1e0e81565b60007f97667070c54ef182b0f5858b034beac1b6f3089aa2d3188bb1e8929f4fa9b92990506129258133612a89565b612964576040517f08c379a000000000000000000000000000000000000000000000000000000000815260040161295b90616a04565b60405180910390fd5b600073ffffffffffffffffffffffffffffffffffffffff168273ffffffffffffffffffffffffffffffffffffffff16036129d3576040517f08c379a00000000000000000000000000000000000000000000000000000000081526004016129ca906174c3565b60405180910390fd5b6000600f60008473ffffffffffffffffffffffffffffffffffffffff1673ffffffffffffffffffffffffffffffffffffffff16815260200190815260200160002060006101000a81548160ff0219169083151502179055503373ffffffffffffffffffffffffffffffffffffffff168273ffffffffffffffffffffffffffffffffffffffff167ff26a45171a2cee53dc4409f66880ab4bd14f52dc6412965780895ca64abfa92360405160405180910390a35050565b600080600084815260200190815260200160002060000160008373ffffffffffffffffffffffffffffffffffffffff1673ffffffffffffffffffffffffffffffffffffffff16815260200190815260200160002060009054906101000a900460ff16905092915050565b612afb6151a7565b6000601560003373ffffffffffffffffffffffffffffffffffffffff1673ffffffffffffffffffffffffffffffffffffffff168152602001908152602001600020600083815260200190815260200160002054905060008111612b93576040517f08c379a0000000000000000000000000000000000000000000000000000000008152600401612b8a9061752f565b60405180910390fd5b600060136000848152602001908152602001600020600183612bb59190617202565b81548110612bc657612bc5616a24565b5b906000526020600020906006020190508060050160009054906101000a900460ff16612c27576040517f08c379a0000000000000000000000000000000000000000000000000000000008152600401612c1e9061759b565b60405180910390fd5b3373ffffffffffffffffffffffffffffffffffffffff168160010160009054906101000a900473ffffffffffffffffffffffffffffffffffffffff1673ffffffffffffffffffffffffffffffffffffffff1614612cb9576040517f08c379a0000000000000000000000000000000000000000000000000000000008152600401612cb090617607565b60405180910390fd5b60008160050160006101000a81548160ff0219169083151502179055506000601560003373ffffffffffffffffffffffffffffffffffffffff1673ffffffffffffffffffffffffffffffffffffffff168152602001908152602001600020600085815260200190815260200160002081905550600073ffffffffffffffffffffffffffffffffffffffff168160030160009054906101000a900473ffffffffffffffffffffffffffffffffffffffff1673ffffffffffffffffffffffffffffffffffffffff1603612f255760006014600085815260200190815260200160002060003373ffffffffffffffffffffffffffffffffffffffff1673ffffffffffffffffffffffffffffffffffffffff1681526020019081526020016000205490508160020154811015612e20576040517f08c379a0000000000000000000000000000000000000000000000000000000008152600401612e1790617673565b60405180910390fd5b60006014600086815260200190815260200160002060003373ffffffffffffffffffffffffffffffffffffffff1673ffffffffffffffffffffffffffffffffffffffff1681526020019081526020016000208190555060003373ffffffffffffffffffffffffffffffffffffffff1682604051612e9c906176c1565b60006040518083038185875af1925050503d8060008114612ed9576040519150601f19603f3d011682016040523d82523d6000602084013e612ede565b606091505b5050905080612f22576040517f08c379a0000000000000000000000000000000000000000000000000000000008152600401612f1990617722565b60405180910390fd5b50505b3373ffffffffffffffffffffffffffffffffffffffff16837faf2f02012ea1953fe9293dd4a8bb5194c96792324f9385297c991c2cfeade3d98360020154604051612f709190616441565b60405180910390a35050612f82615904565b50565b6000801b612f9281615026565b81600073ffffffffffffffffffffffffffffffffffffffff168173ffffffffffffffffffffffffffffffffffffffff1603613002576040517f08c379a0000000000000000000000000000000000000000000000000000000008152600401612ff990616b45565b60405180910390fd5b6000600860040160009054906101000a900473ffffffffffffffffffffffffffffffffffffffff16905083600860040160006101000a81548173ffffffffffffffffffffffffffffffffffffffff021916908373ffffffffffffffffffffffffffffffffffffffff1602179055508373ffffffffffffffffffffffffffffffffffffffff168173ffffffffffffffffffffffffffffffffffffffff167ff2ce85500052e4bce5775e8ae4c693f7306abf01169eb3a48860dce05cb91c3160405160405180910390a350505050565b6000801b81565b6130df6151a7565b60006011600085815260200190815260200160002090506000600381111561310a576131096167f3565b5b8160030160149054906101000a900460ff16600381111561312e5761312d6167f3565b5b1461316e576040517f08c379a00000000000000000000000000000000000000000000000000000000081526004016131659061778e565b60405180910390fd5b3373ffffffffffffffffffffffffffffffffffffffff168160010160009054906101000a900473ffffffffffffffffffffffffffffffffffffffff1673ffffffffffffffffffffffffffffffffffffffff1603613200576040517f08c379a00000000000000000000000000000000000000000000000000000000081526004016131f7906177fa565b60405180910390fd5b60008311613243576040517f08c379a000000000000000000000000000000000000000000000000000000000815260040161323a9061788c565b60405180910390fd5b3073ffffffffffffffffffffffffffffffffffffffff166354b7636e336040518263ffffffff1660e01b815260040161327c9190616ccf565b602060405180830381865afa158015613299573d6000803e3d6000fd5b505050506040513d601f19601f820116820180604052508101906132bd9190616cff565b6132fc576040517f08c379a00000000000000000000000000000000000000000000000000000000081526004016132f390616d78565b60405180910390fd5b61330582614eb0565b613344576040517f08c379a000000000000000000000000000000000000000000000000000000000815260040161333b9061739c565b60405180910390fd5b6000601560003373ffffffffffffffffffffffffffffffffffffffff1673ffffffffffffffffffffffffffffffffffffffff1681526020019081526020016000206000868152602001908152602001600020549050600073ffffffffffffffffffffffffffffffffffffffff168373ffffffffffffffffffffffffffffffffffffffff16036135da5783341461340f576040517f08c379a0000000000000000000000000000000000000000000000000000000008152600401613406906178f8565b60405180910390fd5b600081111561357f5760006014600087815260200190815260200160002060003373ffffffffffffffffffffffffffffffffffffffff1673ffffffffffffffffffffffffffffffffffffffff168152602001908152602001600020549050346014600088815260200190815260200160002060003373ffffffffffffffffffffffffffffffffffffffff1673ffffffffffffffffffffffffffffffffffffffff1681526020019081526020016000208190555060008111156135795760003373ffffffffffffffffffffffffffffffffffffffff16826040516134f1906176c1565b60006040518083038185875af1925050503d806000811461352e576040519150601f19603f3d011682016040523d82523d6000602084013e613533565b606091505b5050905080613577576040517f08c379a000000000000000000000000000000000000000000000000000000000815260040161356e90617964565b60405180910390fd5b505b506135d5565b346014600087815260200190815260200160002060003373ffffffffffffffffffffffffffffffffffffffff1673ffffffffffffffffffffffffffffffffffffffff168152602001908152602001600020819055505b6136a5565b600083905060008173ffffffffffffffffffffffffffffffffffffffff1663dd62ed3e33306040518363ffffffff1660e01b815260040161361c929190617984565b602060405180830381865afa158015613639573d6000803e3d6000fd5b505050506040513d601f19601f8201168201806040525081019061365d91906179c2565b9050858110156136a2576040517f08c379a000000000000000000000000000000000000000000000000000000000815260040161369990617a3b565b60405180910390fd5b50505b81600201548410156136ec576040517f08c379a00000000000000000000000000000000000000000000000000000000081526004016136e390617aa7565b60405180910390fd5b60008060136000888152602001908152602001600020905060005b81805490508110156137b45781818154811061372657613725616a24565b5b906000526020600020906006020160050160009054906101000a900460ff1680156137745750828282815481106137605761375f616a24565b5b906000526020600020906006020160020154115b156137a15781818154811061378c5761378b616a24565b5b90600052602060002090600602016002015492505b80806137ac90616a82565b915050613707565b50600082111561382c5760006064600560646137d09190616ebc565b846137db9190617ac7565b6137e59190617b38565b90508087101561382a576040517f08c379a000000000000000000000000000000000000000000000000000000000815260040161382190617bdb565b60405180910390fd5b505b60008311156139e4576000601360008981526020019081526020016000206001856138579190617202565b8154811061386857613867616a24565b5b906000526020600020906006020190508060050160009054906101000a900460ff166138c9576040517f08c379a00000000000000000000000000000000000000000000000000000000081526004016138c090617c47565b60405180910390fd5b8573ffffffffffffffffffffffffffffffffffffffff168160030160009054906101000a900473ffffffffffffffffffffffffffffffffffffffff1673ffffffffffffffffffffffffffffffffffffffff161461395b576040517f08c379a000000000000000000000000000000000000000000000000000000000815260040161395290617cb3565b60405180910390fd5b600060646005606461396d9190616ebc565b836002015461397c9190617ac7565b6139869190617b38565b9050808810156139cb576040517f08c379a00000000000000000000000000000000000000000000000000000000081526004016139c290617d45565b60405180910390fd5b8782600201819055504282600401819055505050613bbc565b60006040518060c001604052808981526020013373ffffffffffffffffffffffffffffffffffffffff1681526020018881526020018773ffffffffffffffffffffffffffffffffffffffff168152602001428152602001600115158152509050601360008981526020019081526020016000208190806001815401808255809150506001900390600052602060002090600602016000909190919091506000820151816000015560208201518160010160006101000a81548173ffffffffffffffffffffffffffffffffffffffff021916908373ffffffffffffffffffffffffffffffffffffffff1602179055506040820151816002015560608201518160030160006101000a81548173ffffffffffffffffffffffffffffffffffffffff021916908373ffffffffffffffffffffffffffffffffffffffff1602179055506080820151816004015560a08201518160050160006101000a81548160ff02191690831515021790555050506013600089815260200190815260200160002080549050601560003373ffffffffffffffffffffffffffffffffffffffff1673ffffffffffffffffffffffffffffffffffffffff16815260200190815260200160002060008a815260200190815260200160002081905550505b3373ffffffffffffffffffffffffffffffffffffffff16877fe30abccebb20a387be8e75e927d7e06ce1bf9d77bb3888516663bdc8995fb3348888604051613c059291906173bc565b60405180910390a350505050613c19615904565b505050565b6012602052816000526040600020602052806000526040600020600091509150505481565b6000806000806000600860000154600860010154600860020154600860040160009054906101000a900473ffffffffffffffffffffffffffffffffffffffff16600860030154945094509450945094509091929394565b6103e881565b600581565b6201518081565b7f97667070c54ef182b0f5858b034beac1b6f3089aa2d3188bb1e8929f4fa9b929613cd681615026565b613cde61590d565b62015180600360040154613cf29190616ebc565b421015613d34576040517f08c379a0000000000000000000000000000000000000000000000000000000008152600401613d2b90616f3c565b60405180910390fd5b83821115613d77576040517f08c379a0000000000000000000000000000000000000000000000000000000008152600401613d6e90617db1565b60405180910390fd5b82841115613dba576040517f08c379a0000000000000000000000000000000000000000000000000000000008152600401613db190617e1d565b60405180910390fd5b6103e8831115613dff576040517f08c379a0000000000000000000000000000000000000000000000000000000008152600401613df690617e89565b60405180910390fd5b3373ffffffffffffffffffffffffffffffffffffffff167f4fd952b4a4b8a6db26b29134c94b61c25b74b0f857c3685e527c9e43f1d6d1cd600360000154866003600101548760036002015488604051613e5e9695949392919061710c565b60405180910390a28360036000018190555082600360010181905550816003600201819055504260036004018190555050505050565b60136020528160005260406000208181548110613eb057600080fd5b9060005260206000209060060201600091509150508060000154908060010160009054906101000a900473ffffffffffffffffffffffffffffffffffffffff16908060020154908060030160009054906101000a900473ffffffffffffffffffffffffffffffffffffffff16908060040154908060050160009054906101000a900460ff16905086565b61271081565b7f000000000000000000000000000000000000000000000000000000000000000081565b6000801b613f7181615026565b81600073ffffffffffffffffffffffffffffffffffffffff168173ffffffffffffffffffffffffffffffffffffffff1603613fe1576040517f08c379a0000000000000000000000000000000000000000000000000000000008152600401613fd890616b45565b60405180910390fd5b60006003800160009054906101000a900473ffffffffffffffffffffffffffffffffffffffff169050836003800160006101000a81548173ffffffffffffffffffffffffffffffffffffffff021916908373ffffffffffffffffffffffffffffffffffffffff1602179055508373ffffffffffffffffffffffffffffffffffffffff168173ffffffffffffffffffffffffffffffffffffffff167f5d16ad41baeb009cd23eb8f6c7cde5c2e0cd5acf4a33926ab488875c37c37f3860405160405180910390a350505050565b6140b682611259565b6140bf81615026565b81600073ffffffffffffffffffffffffffffffffffffffff168173ffffffffffffffffffffffffffffffffffffffff160361412f576040517f08c379a000000000000000000000000000000000000000000000000000000000815260040161412690616b45565b60405180910390fd5b61413984846159ba565b3373ffffffffffffffffffffffffffffffffffffffff168373ffffffffffffffffffffffffffffffffffffffff16857f77a3124d5a7fb118ef3bd073fd7ee2c762b24256db96ace524ecd6b6cf11415c60405160405180910390a450505050565b7f5c91514091af31f62f596a314af7d5be40146b2f2355969392f055e12e0982fb81565b6014602052816000526040600020602052806000526040600020600091509150505481565b60116020528060005260406000206000915090508060000154908060010160009054906101000a900473ffffffffffffffffffffffffffffffffffffffff16908060020154908060030160009054906101000a900473ffffffffffffffffffffffffffffffffffffffff16908060030160149054906101000a900460ff16908060040154908060050154905087565b61427a6151a7565b6000601160008781526020019081526020016000209050600060038111156142a5576142a46167f3565b5b8160030160149054906101000a900460ff1660038111156142c9576142c86167f3565b5b14614309576040517f08c379a00000000000000000000000000000000000000000000000000000000081526004016143009061778e565b60405180910390fd5b3373ffffffffffffffffffffffffffffffffffffffff168160010160009054906101000a900473ffffffffffffffffffffffffffffffffffffffff1673ffffffffffffffffffffffffffffffffffffffff161461439b576040517f08c379a000000000000000000000000000000000000000000000000000000000815260040161439290617ef5565b60405180910390fd5b600085116143de576040517f08c379a00000000000000000000000000000000000000000000000000000000081526004016143d590617f61565b60405180910390fd5b8460136000888152602001908152602001600020805490501015614437576040517f08c379a000000000000000000000000000000000000000000000000000000000815260040161442e90617f61565b60405180910390fd5b6000601360008881526020019081526020016000206001876144599190617202565b8154811061446a57614469616a24565b5b906000526020600020906006020190508060050160009054906101000a900460ff166144cb576040517f08c379a00000000000000000000000000000000000000000000000000000000081526004016144c290617c47565b60405180910390fd5b8473ffffffffffffffffffffffffffffffffffffffff168160010160009054906101000a900473ffffffffffffffffffffffffffffffffffffffff1673ffffffffffffffffffffffffffffffffffffffff161461455d576040517f08c379a000000000000000000000000000000000000000000000000000000000815260040161455490617fcd565b60405180910390fd5b838160020154146145a3576040517f08c379a000000000000000000000000000000000000000000000000000000000815260040161459a90618039565b60405180910390fd5b8273ffffffffffffffffffffffffffffffffffffffff168160030160009054906101000a900473ffffffffffffffffffffffffffffffffffffffff1673ffffffffffffffffffffffffffffffffffffffff1614614635576040517f08c379a000000000000000000000000000000000000000000000000000000000815260040161462c906180a5565b60405180910390fd5b3373ffffffffffffffffffffffffffffffffffffffff167f000000000000000000000000000000000000000000000000000000000000000073ffffffffffffffffffffffffffffffffffffffff16636352211e896040518263ffffffff1660e01b81526004016146a59190616441565b602060405180830381865afa1580156146c2573d6000803e3d6000fd5b505050506040513d601f19601f820116820180604052508101906146e6919061724b565b73ffffffffffffffffffffffffffffffffffffffff161461473c576040517f08c379a000000000000000000000000000000000000000000000000000000000815260040161473390618111565b60405180910390fd5b60028260030160146101000a81548160ff02191690836003811115614764576147636167f3565b5b021790555060008160050160006101000a81548160ff0219169083151502179055506000600360000154905060006003800160009054906101000a900473ffffffffffffffffffffffffffffffffffffffff16905060006127108385600201546147ce9190617ac7565b6147d89190617b38565b905060008185600201546147ec9190617202565b9050600073ffffffffffffffffffffffffffffffffffffffff168560030160009054906101000a900473ffffffffffffffffffffffffffffffffffffffff1673ffffffffffffffffffffffffffffffffffffffff1603614ae0576000601460008d815260200190815260200160002060008760010160009054906101000a900473ffffffffffffffffffffffffffffffffffffffff1673ffffffffffffffffffffffffffffffffffffffff1673ffffffffffffffffffffffffffffffffffffffff1681526020019081526020016000205490508560020154811015614906576040517f08c379a00000000000000000000000000000000000000000000000000000000081526004016148fd90617673565b60405180910390fd5b6000601460008e815260200190815260200160002060008860010160009054906101000a900473ffffffffffffffffffffffffffffffffffffffff1673ffffffffffffffffffffffffffffffffffffffff1673ffffffffffffffffffffffffffffffffffffffff1681526020019081526020016000208190555060003373ffffffffffffffffffffffffffffffffffffffff16836040516149a6906176c1565b60006040518083038185875af1925050503d80600081146149e3576040519150601f19603f3d011682016040523d82523d6000602084013e6149e8565b606091505b5050905080614a2c576040517f08c379a0000000000000000000000000000000000000000000000000000000008152600401614a239061817d565b60405180910390fd5b60008573ffffffffffffffffffffffffffffffffffffffff1685604051614a52906176c1565b60006040518083038185875af1925050503d8060008114614a8f576040519150601f19603f3d011682016040523d82523d6000602084013e614a94565b606091505b5050905080614ad8576040517f08c379a0000000000000000000000000000000000000000000000000000000008152600401614acf906181e9565b60405180910390fd5b505050614cd1565b60008560030160009054906101000a900473ffffffffffffffffffffffffffffffffffffffff1690508073ffffffffffffffffffffffffffffffffffffffff166323b872dd8760010160009054906101000a900473ffffffffffffffffffffffffffffffffffffffff1633856040518463ffffffff1660e01b8152600401614b6a93929190618209565b6020604051808303816000875af1158015614b89573d6000803e3d6000fd5b505050506040513d601f19601f82011682018060405250810190614bad9190616cff565b614bec576040517f08c379a0000000000000000000000000000000000000000000000000000000008152600401614be39061828c565b60405180910390fd5b8073ffffffffffffffffffffffffffffffffffffffff166323b872dd8760010160009054906101000a900473ffffffffffffffffffffffffffffffffffffffff1686866040518463ffffffff1660e01b8152600401614c4d93929190618209565b6020604051808303816000875af1158015614c6c573d6000803e3d6000fd5b505050506040513d601f19601f82011682018060405250810190614c909190616cff565b614ccf576040517f08c379a0000000000000000000000000000000000000000000000000000000008152600401614cc6906181e9565b60405180910390fd5b505b7f000000000000000000000000000000000000000000000000000000000000000073ffffffffffffffffffffffffffffffffffffffff1663b88d4fde338760010160009054906101000a900473ffffffffffffffffffffffffffffffffffffffff168e6040518463ffffffff1660e01b8152600401614d5293929190616e3b565b600060405180830381600087803b158015614d6c57600080fd5b505af1158015614d80573d6000803e3d6000fd5b50505050614d9a8b60018c614d959190617202565b6159db565b8460010160009054906101000a900473ffffffffffffffffffffffffffffffffffffffff1673ffffffffffffffffffffffffffffffffffffffff163373ffffffffffffffffffffffffffffffffffffffff168c7ffd9d7289c0b47546fff41663663c2372aa45809b7ab87d908e443a3821cb5b4e88600201548960030160009054906101000a900473ffffffffffffffffffffffffffffffffffffffff16604051614e469291906173bc565b60405180910390a4505050505050614e5c615904565b5050505050565b7f65d7a28e3265b37a6474929f336521b332c1681b933f6cb9f3376673440d862a81565b606481565b7f97667070c54ef182b0f5858b034beac1b6f3089aa2d3188bb1e8929f4fa9b92981565b6000601060009054906101000a900460ff16614ecf5760019050614f1f565b600f60008373ffffffffffffffffffffffffffffffffffffffff1673ffffffffffffffffffffffffffffffffffffffff16815260200190815260200160002060009054906101000a900460ff1690505b919050565b6000806000806000806011600088815260200190815260200160002090508060010160009054906101000a900473ffffffffffffffffffffffffffffffffffffffff1681600201548260030160009054906101000a900473ffffffffffffffffffffffffffffffffffffffff168360030160149054906101000a900460ff168460040154955095509550955095505091939590929450565b60007f01ffc9a7000000000000000000000000000000000000000000000000000000007bffffffffffffffffffffffffffffffffffffffffffffffffffffffff1916827bffffffffffffffffffffffffffffffffffffffffffffffffffffffff1916149050919050565b6150378161503261505b565b615b35565b50565b61504382611259565b61504c81615026565b6150568383615bba565b505050565b600033905090565b61506d8282612a89565b1561514057600080600084815260200190815260200160002060000160008373ffffffffffffffffffffffffffffffffffffffff1673ffffffffffffffffffffffffffffffffffffffff16815260200190815260200160002060006101000a81548160ff0219169083151502179055506150e561505b565b73ffffffffffffffffffffffffffffffffffffffff168173ffffffffffffffffffffffffffffffffffffffff16837ff6391f5c32d9c69d2a47ea670b442974b53935d1edc7fd64eb21e047a839171b60405160405180910390a45b5050565b61514c615c9a565b6000600260006101000a81548160ff0219169083151502179055507f5db9ee0a495bf2e6ff9c91a7834c1ba4fdd244a5e8aa4e537bd38aeae4b073aa61519061505b565b60405161519d9190616ccf565b60405180910390a1565b6002600154036151ec576040517f08c379a00000000000000000000000000000000000000000000000000000000081526004016151e3906182f8565b60405180910390fd5b6002600181905550565b600061520182614eb0565b61520e576000905061525e565b600073ffffffffffffffffffffffffffffffffffffffff168273ffffffffffffffffffffffffffffffffffffffff16036152585783341015801561525157508383145b905061525e565b83831490505b9392505050565b600060136000838152602001908152602001600020905060005b81805490508110156154645781818154811061529e5761529d616a24565b5b906000526020600020906006020160050160009054906101000a900460ff16156154515760008282815481106152d7576152d6616a24565b5b906000526020600020906006020160050160006101000a81548160ff02191690831515021790555060006015600084848154811061531857615317616a24565b5b906000526020600020906006020160010160009054906101000a900473ffffffffffffffffffffffffffffffffffffffff1673ffffffffffffffffffffffffffffffffffffffff1673ffffffffffffffffffffffffffffffffffffffff1681526020019081526020016000206000858152602001908152602001600020819055508181815481106153ac576153ab616a24565b5b906000526020600020906006020160010160009054906101000a900473ffffffffffffffffffffffffffffffffffffffff1673ffffffffffffffffffffffffffffffffffffffff16837faf2f02012ea1953fe9293dd4a8bb5194c96792324f9385297c991c2cfeade3d984848154811061542957615428616a24565b5b9060005260206000209060060201600201546040516154489190616441565b60405180910390a35b808061545c90616a82565b91505061527f565b505050565b6000600360000154905060006003800160009054906101000a900473ffffffffffffffffffffffffffffffffffffffff169050600061271083866154ad9190617ac7565b6154b79190617b38565b9050600081866154c79190617202565b9050600073ffffffffffffffffffffffffffffffffffffffff168573ffffffffffffffffffffffffffffffffffffffff16036157765785341015615540576040517f08c379a000000000000000000000000000000000000000000000000000000000815260040161553790618364565b60405180910390fd5b600086341161555057600061555d565b863461555c9190617202565b5b905060008111156156165760003373ffffffffffffffffffffffffffffffffffffffff168260405161558e906176c1565b60006040518083038185875af1925050503d80600081146155cb576040519150601f19603f3d011682016040523d82523d6000602084013e6155d0565b606091505b5050905080615614576040517f08c379a000000000000000000000000000000000000000000000000000000000815260040161560b90617964565b60405180910390fd5b505b60008873ffffffffffffffffffffffffffffffffffffffff168360405161563c906176c1565b60006040518083038185875af1925050503d8060008114615679576040519150601f19603f3d011682016040523d82523d6000602084013e61567e565b606091505b50509050806156c2576040517f08c379a00000000000000000000000000000000000000000000000000000000081526004016156b99061817d565b60405180910390fd5b60008573ffffffffffffffffffffffffffffffffffffffff16856040516156e8906176c1565b60006040518083038185875af1925050503d8060008114615725576040519150601f19603f3d011682016040523d82523d6000602084013e61572a565b606091505b505090508061576e576040517f08c379a0000000000000000000000000000000000000000000000000000000008152600401615765906181e9565b60405180910390fd5b5050506158fb565b60008590508073ffffffffffffffffffffffffffffffffffffffff166323b872dd338a856040518463ffffffff1660e01b81526004016157b893929190618209565b6020604051808303816000875af11580156157d7573d6000803e3d6000fd5b505050506040513d601f19601f820116820180604052508101906157fb9190616cff565b61583a576040517f08c379a0000000000000000000000000000000000000000000000000000000008152600401615831906183d0565b60405180910390fd5b8073ffffffffffffffffffffffffffffffffffffffff166323b872dd3386866040518463ffffffff1660e01b815260040161587793929190618209565b6020604051808303816000875af1158015615896573d6000803e3d6000fd5b505050506040513d601f19601f820116820180604052508101906158ba9190616cff565b6158f9576040517f08c379a00000000000000000000000000000000000000000000000000000000081526004016158f0906181e9565b60405180910390fd5b505b50505050505050565b60018081905550565b615915611b42565b15615955576040517f08c379a000000000000000000000000000000000000000000000000000000000815260040161594c9061843c565b60405180910390fd5b565b61595f61590d565b6001600260006101000a81548160ff0219169083151502179055507f62e78cea01bee320cd4e420270b5ea74000d11b0c9f74754ebdbfc544b05a2586159a361505b565b6040516159b09190616ccf565b60405180910390a1565b6159c382611259565b6159cc81615026565b6159d68383615063565b505050565b600060136000848152602001908152602001600020905060005b8180549050811015615b2f57828114158015615a3f5750818181548110615a1f57615a1e616a24565b5b906000526020600020906006020160050160009054906101000a900460ff165b15615b1c576000828281548110615a5957615a58616a24565b5b906000526020600020906006020160050160006101000a81548160ff021916908315150217905550600060156000848481548110615a9a57615a99616a24565b5b906000526020600020906006020160010160009054906101000a900473ffffffffffffffffffffffffffffffffffffffff1673ffffffffffffffffffffffffffffffffffffffff1673ffffffffffffffffffffffffffffffffffffffff1681526020019081526020016000206000868152602001908152602001600020819055505b8080615b2790616a82565b9150506159f5565b50505050565b615b3f8282612a89565b615bb657615b4c81615ce3565b615b5a8360001c6020615d10565b604051602001615b6b929190618565565b6040516020818303038152906040526040517f08c379a0000000000000000000000000000000000000000000000000000000008152600401615bad91906185e9565b60405180910390fd5b5050565b615bc48282612a89565b615c9657600160008084815260200190815260200160002060000160008373ffffffffffffffffffffffffffffffffffffffff1673ffffffffffffffffffffffffffffffffffffffff16815260200190815260200160002060006101000a81548160ff021916908315150217905550615c3b61505b565b73ffffffffffffffffffffffffffffffffffffffff168173ffffffffffffffffffffffffffffffffffffffff16837f2f8788117e7eff1d82e926ec794901d17c78024a50270940304540a733656f0d60405160405180910390a45b5050565b615ca2611b42565b615ce1576040517f08c379a0000000000000000000000000000000000000000000000000000000008152600401615cd890618657565b60405180910390fd5b565b6060615d098273ffffffffffffffffffffffffffffffffffffffff16601460ff16615d10565b9050919050565b606060006002836002615d239190617ac7565b615d2d9190616ebc565b67ffffffffffffffff811115615d4657615d45616aca565b5b6040519080825280601f01601f191660200182016040528015615d785781602001600182028036833780820191505090505b5090507f300000000000000000000000000000000000000000000000000000000000000081600081518110615db057615daf616a24565b5b60200101907effffffffffffffffffffffffffffffffffffffffffffffffffffffffffffff1916908160001a9053507f780000000000000000000000000000000000000000000000000000000000000081600181518110615e1457615e13616a24565b5b60200101907effffffffffffffffffffffffffffffffffffffffffffffffffffffffffffff1916908160001a90535060006001846002615e549190617ac7565b615e5e9190616ebc565b90505b6001811115615efe577f3031323334353637383961626364656600000000000000000000000000000000600f861660108110615ea057615e9f616a24565b5b1a60f81b828281518110615eb757615eb6616a24565b5b60200101907effffffffffffffffffffffffffffffffffffffffffffffffffffffffffffff1916908160001a905350600485901c945080615ef790618677565b9050615e61565b5060008414615f42576040517f08c379a0000000000000000000000000000000000000000000000000000000008152600401615f39906186ec565b60405180910390fd5b8091505092915050565b6040518060c0016040528060008152602001600073ffffffffffffffffffffffffffffffffffffffff16815260200160008152602001600073ffffffffffffffffffffffffffffffffffffffff168152602001600081526020016000151581525090565b600080fd5b60007fffffffff0000000000000000000000000000000000000000000000000000000082169050919050565b615fea81615fb5565b8114615ff557600080fd5b50565b60008135905061600781615fe1565b92915050565b60006020828403121561602357616022615fb0565b5b600061603184828501615ff8565b91505092915050565b60008115159050919050565b61604f8161603a565b82525050565b600060208201905061606a6000830184616046565b92915050565b6160798161603a565b811461608457600080fd5b50565b60008135905061609681616070565b92915050565b6000602082840312156160b2576160b1615fb0565b5b60006160c084828501616087565b91505092915050565b6000819050919050565b6160dc816160c9565b81146160e757600080fd5b50565b6000813590506160f9816160d3565b92915050565b60006020828403121561611557616114615fb0565b5b6000616123848285016160ea565b91505092915050565b600081519050919050565b600082825260208201905092915050565b6000819050602082019050919050565b616161816160c9565b82525050565b600073ffffffffffffffffffffffffffffffffffffffff82169050919050565b600061619282616167565b9050919050565b6161a281616187565b82525050565b6161b18161603a565b82525050565b60c0820160008201516161cd6000850182616158565b5060208201516161e06020850182616199565b5060408201516161f36040850182616158565b5060608201516162066060850182616199565b5060808201516162196080850182616158565b5060a082015161622c60a08501826161a8565b50505050565b600061623e83836161b7565b60c08301905092915050565b6000602082019050919050565b60006162628261612c565b61626c8185616137565b935061627783616148565b8060005b838110156162a857815161628f8882616232565b975061629a8361624a565b92505060018101905061627b565b5085935050505092915050565b600060208201905081810360008301526162cf8184616257565b905092915050565b6162e0816160c9565b82525050565b6162ef81616187565b82525050565b600060a08201905061630a60008301886162d7565b61631760208301876162d7565b61632460408301866162d7565b61633160608301856162e6565b61633e60808301846162d7565b9695505050505050565b6000819050919050565b61635b81616348565b811461636657600080fd5b50565b60008135905061637881616352565b92915050565b60006020828403121561639457616393615fb0565b5b60006163a284828501616369565b91505092915050565b6163b481616348565b82525050565b60006020820190506163cf60008301846163ab565b92915050565b6163de81616187565b81146163e957600080fd5b50565b6000813590506163fb816163d5565b92915050565b6000806040838503121561641857616417615fb0565b5b600061642685828601616369565b9250506020616437858286016163ec565b9150509250929050565b600060208201905061645660008301846162d7565b92915050565b60006020828403121561647257616471615fb0565b5b6000616480848285016163ec565b91505092915050565b600080604083850312156164a05761649f615fb0565b5b60006164ae858286016160ea565b92505060206164bf858286016160ea565b9150509250929050565b600080604083850312156164e0576164df615fb0565b5b60006164ee858286016163ec565b92505060206164ff85828601616087565b9150509250929050565b6000819050919050565b600061652e61652961652484616167565b616509565b616167565b9050919050565b600061654082616513565b9050919050565b600061655282616535565b9050919050565b61656281616547565b82525050565b600060208201905061657d6000830184616559565b92915050565b60008060006060848603121561659c5761659b615fb0565b5b60006165aa868287016160ea565b93505060206165bb868287016160ea565b92505060406165cc868287016160ea565b9150509250925092565b600080604083850312156165ed576165ec615fb0565b5b60006165fb858286016163ec565b925050602061660c858286016160ea565b9150509250929050565b600060a08201905061662b60008301886162d7565b61663860208301876162d7565b61664560408301866162d7565b61665260608301856162d7565b61665f60808301846162e6565b9695505050505050565b600080604083850312156166805761667f615fb0565b5b600061668e858286016160ea565b925050602061669f858286016163ec565b9150509250929050565b60c0820160008201516166bf6000850182616158565b5060208201516166d26020850182616199565b5060408201516166e56040850182616158565b5060608201516166f86060850182616199565b50608082015161670b6080850182616158565b5060a082015161671e60a08501826161a8565b50505050565b600060c08201905061673960008301846166a9565b92915050565b60008060006060848603121561675857616757615fb0565b5b6000616766868287016160ea565b9350506020616777868287016160ea565b9250506040616788868287016163ec565b9150509250925092565b600060c0820190506167a760008301896162d7565b6167b460208301886162e6565b6167c160408301876162d7565b6167ce60608301866162e6565b6167db60808301856162d7565b6167e860a0830184616046565b979650505050505050565b7f4e487b7100000000000000000000000000000000000000000000000000000000600052602160045260246000fd5b60048110616833576168326167f3565b5b50565b600081905061684482616822565b919050565b600061685482616836565b9050919050565b61686481616849565b82525050565b600060e08201905061687f600083018a6162d7565b61688c60208301896162e6565b61689960408301886162d7565b6168a660608301876162e6565b6168b3608083018661685b565b6168c060a08301856162d7565b6168cd60c08301846162d7565b98975050505050505050565b600080600080600060a086880312156168f5576168f4615fb0565b5b6000616903888289016160ea565b9550506020616914888289016160ea565b9450506040616925888289016163ec565b9350506060616936888289016160ea565b9250506080616947888289016163ec565b9150509295509295909350565b600060a08201905061696960008301886162e6565b61697660208301876162d7565b61698360408301866162e6565b616990606083018561685b565b61699d60808301846162d7565b9695505050505050565b600082825260208201905092915050565b7f4f70657261746f72207265717569726564000000000000000000000000000000600082015250565b60006169ee6011836169a7565b91506169f9826169b8565b602082019050919050565b60006020820190508181036000830152616a1d816169e1565b9050919050565b7f4e487b7100000000000000000000000000000000000000000000000000000000600052603260045260246000fd5b7f4e487b7100000000000000000000000000000000000000000000000000000000600052601160045260246000fd5b6000616a8d826160c9565b91507fffffffffffffffffffffffffffffffffffffffffffffffffffffffffffffffff8203616abf57616abe616a53565b5b600182019050919050565b7f4e487b7100000000000000000000000000000000000000000000000000000000600052604160045260246000fd5b7f496e76616c696420616464726573730000000000000000000000000000000000600082015250565b6000616b2f600f836169a7565b9150616b3a82616af9565b602082019050919050565b60006020820190508181036000830152616b5e81616b22565b9050919050565b7f416363657373436f6e74726f6c3a2063616e206f6e6c792072656e6f756e636560008201527f20726f6c657320666f722073656c660000000000000000000000000000000000602082015250565b6000616bc1602f836169a7565b9150616bcc82616b65565b604082019050919050565b60006020820190508181036000830152616bf081616bb4565b9050919050565b7f45544820697320616c6c6f7765642062792064656661756c7400000000000000600082015250565b6000616c2d6019836169a7565b9150616c3882616bf7565b602082019050919050565b60006020820190508181036000830152616c5c81616c20565b9050919050565b7f4e6f7420617661696c61626c6500000000000000000000000000000000000000600082015250565b6000616c99600d836169a7565b9150616ca482616c63565b602082019050919050565b60006020820190508181036000830152616cc881616c8c565b9050919050565b6000602082019050616ce460008301846162e6565b92915050565b600081519050616cf981616070565b92915050565b600060208284031215616d1557616d14615fb0565b5b6000616d2384828501616cea565b91505092915050565b7f4b59432072657175697265640000000000000000000000000000000000000000600082015250565b6000616d62600c836169a7565b9150616d6d82616d2c565b602082019050919050565b60006020820190508181036000830152616d9181616d55565b9050919050565b7f5061796d656e74206661696c6564000000000000000000000000000000000000600082015250565b6000616dce600e836169a7565b9150616dd982616d98565b602082019050919050565b60006020820190508181036000830152616dfd81616dc1565b9050919050565b600082825260208201905092915050565b50565b6000616e25600083616e04565b9150616e3082616e15565b600082019050919050565b6000608082019050616e5060008301866162e6565b616e5d60208301856162e6565b616e6a60408301846162d7565b8181036060830152616e7b81616e18565b9050949350505050565b6000606082019050616e9a60008301866162e6565b616ea760208301856162d7565b616eb460408301846162e6565b949350505050565b6000616ec7826160c9565b9150616ed2836160c9565b9250828201905080821115616eea57616ee9616a53565b5b92915050565b7f55706461746520696e74657276616c206e6f7420656c61707365640000000000600082015250565b6000616f26601b836169a7565b9150616f3182616ef0565b602082019050919050565b60006020820190508181036000830152616f5581616f19565b9050919050565b7f42617365207261746520746f6f206c6f77000000000000000000000000000000600082015250565b6000616f926011836169a7565b9150616f9d82616f5c565b602082019050919050565b60006020820190508181036000830152616fc181616f85565b9050919050565b7f42617365207261746520746f6f20686967680000000000000000000000000000600082015250565b6000616ffe6012836169a7565b915061700982616fc8565b602082019050919050565b6000602082019050818103600083015261702d81616ff1565b9050919050565b7f4d756c7469706c69657220746f6f206c6f770000000000000000000000000000600082015250565b600061706a6012836169a7565b915061707582617034565b602082019050919050565b600060208201905081810360008301526170998161705d565b9050919050565b7f4d756c7469706c69657220746f6f206869676800000000000000000000000000600082015250565b60006170d66013836169a7565b91506170e1826170a0565b602082019050919050565b60006020820190508181036000830152617105816170c9565b9050919050565b600060c08201905061712160008301896162d7565b61712e60208301886162d7565b61713b60408301876162d7565b61714860608301866162d7565b61715560808301856162d7565b61716260a08301846162d7565b979650505050505050565b7f53636f72652065786365656473206d6178696d756d0000000000000000000000600082015250565b60006171a36015836169a7565b91506171ae8261716d565b602082019050919050565b600060208201905081810360008301526171d281617196565b9050919050565b60006040820190506171ee60008301856162d7565b6171fb60208301846162d7565b9392505050565b600061720d826160c9565b9150617218836160c9565b92508282039050818111156172305761722f616a53565b5b92915050565b600081519050617245816163d5565b92915050565b60006020828403121561726157617260615fb0565b5b600061726f84828501617236565b91505092915050565b7f4e6f74204e465469206f776e6572000000000000000000000000000000000000600082015250565b60006172ae600e836169a7565b91506172b982617278565b602082019050919050565b600060208201905081810360008301526172dd816172a1565b9050919050565b7f496e76616c696420707269636500000000000000000000000000000000000000600082015250565b600061731a600d836169a7565b9150617325826172e4565b602082019050919050565b600060208201905081810360008301526173498161730d565b9050919050565b7f5061796d656e7420746f6b656e206e6f7420616c6c6f77656400000000000000600082015250565b60006173866019836169a7565b915061739182617350565b602082019050919050565b600060208201905081810360008301526173b581617379565b9050919050565b60006040820190506173d160008301856162d7565b6173de60208301846162e6565b9392505050565b7f4e6f7420616374697665206c697374696e670000000000000000000000000000600082015250565b600061741b6012836169a7565b9150617426826173e5565b602082019050919050565b6000602082019050818103600083015261744a8161740e565b9050919050565b7f43616e6e6f742072656d6f766520455448206173207061796d656e74206d657460008201527f686f640000000000000000000000000000000000000000000000000000000000602082015250565b60006174ad6023836169a7565b91506174b882617451565b604082019050919050565b600060208201905081810360008301526174dc816174a0565b9050919050565b7f4e6f206163746976652062696400000000000000000000000000000000000000600082015250565b6000617519600d836169a7565b9150617524826174e3565b602082019050919050565b600060208201905081810360008301526175488161750c565b9050919050565b7f42696420616c726561647920696e616374697665000000000000000000000000600082015250565b60006175856014836169a7565b91506175908261754f565b602082019050919050565b600060208201905081810360008301526175b481617578565b9050919050565b7f4e6f742074686520626964646572000000000000000000000000000000000000600082015250565b60006175f1600e836169a7565b91506175fc826175bb565b602082019050919050565b60006020820190508181036000830152617620816175e4565b9050919050565b7f496e73756666696369656e742045544820657363726f77000000000000000000600082015250565b600061765d6017836169a7565b915061766882617627565b602082019050919050565b6000602082019050818103600083015261768c81617650565b9050919050565b600081905092915050565b60006176ab600083617693565b91506176b682616e15565b600082019050919050565b60006176cc8261769e565b9150819050919050565b7f42696420726566756e64206661696c6564000000000000000000000000000000600082015250565b600061770c6011836169a7565b9150617717826176d6565b602082019050919050565b6000602082019050818103600083015261773b816176ff565b9050919050565b7f50726f7065727479206e6f74206c697374656400000000000000000000000000600082015250565b60006177786013836169a7565b915061778382617742565b602082019050919050565b600060208201905081810360008301526177a78161776b565b9050919050565b7f43616e6e6f7420626964206f6e20796f7572206f776e206c697374696e670000600082015250565b60006177e4601e836169a7565b91506177ef826177ae565b602082019050919050565b60006020820190508181036000830152617813816177d7565b9050919050565b7f42696420616d6f756e74206d7573742062652067726561746572207468616e2060008201527f3000000000000000000000000000000000000000000000000000000000000000602082015250565b60006178766021836169a7565b91506178818261781a565b604082019050919050565b600060208201905081810360008301526178a581617869565b9050919050565b7f45544820616d6f756e74206d69736d6174636800000000000000000000000000600082015250565b60006178e26013836169a7565b91506178ed826178ac565b602082019050919050565b60006020820190508181036000830152617911816178d5565b9050919050565b7f45544820726566756e64206661696c6564000000000000000000000000000000600082015250565b600061794e6011836169a7565b915061795982617918565b602082019050919050565b6000602082019050818103600083015261797d81617941565b9050919050565b600060408201905061799960008301856162e6565b6179a660208301846162e6565b9392505050565b6000815190506179bc816160d3565b92915050565b6000602082840312156179d8576179d7615fb0565b5b60006179e6848285016179ad565b91505092915050565b7f496e73756666696369656e7420746f6b656e20616c6c6f77616e636500000000600082015250565b6000617a25601c836169a7565b9150617a30826179ef565b602082019050919050565b60006020820190508181036000830152617a5481617a18565b9050919050565b7f426964206d757374206d656574206c697374696e672070726963650000000000600082015250565b6000617a91601b836169a7565b9150617a9c82617a5b565b602082019050919050565b60006020820190508181036000830152617ac081617a84565b9050919050565b6000617ad2826160c9565b9150617add836160c9565b9250828202617aeb816160c9565b91508282048414831517617b0257617b01616a53565b5b5092915050565b7f4e487b7100000000000000000000000000000000000000000000000000000000600052601260045260246000fd5b6000617b43826160c9565b9150617b4e836160c9565b925082617b5e57617b5d617b09565b5b828204905092915050565b7f426964206d75737420626520352520686967686572207468616e20637572726560008201527f6e74206869676865737400000000000000000000000000000000000000000000602082015250565b6000617bc5602a836169a7565b9150617bd082617b69565b604082019050919050565b60006020820190508181036000830152617bf481617bb8565b9050919050565b7f426964206973206e6f7420616374697665000000000000000000000000000000600082015250565b6000617c316011836169a7565b9150617c3c82617bfb565b602082019050919050565b60006020820190508181036000830152617c6081617c24565b9050919050565b7f43616e6e6f74206368616e6765207061796d656e7420746f6b656e0000000000600082015250565b6000617c9d601b836169a7565b9150617ca882617c67565b602082019050919050565b60006020820190508181036000830152617ccc81617c90565b9050919050565b7f426964206d75737420626520352520686967686572207468616e20707265766960008201527f6f75730000000000000000000000000000000000000000000000000000000000602082015250565b6000617d2f6023836169a7565b9150617d3a82617cd3565b604082019050919050565b60006020820190508181036000830152617d5e81617d22565b9050919050565b7f4d696e2066656520657863656564732062617365206665650000000000000000600082015250565b6000617d9b6018836169a7565b9150617da682617d65565b602082019050919050565b60006020820190508181036000830152617dca81617d8e565b9050919050565b7f42617365206665652065786365656473206d6178206665650000000000000000600082015250565b6000617e076018836169a7565b9150617e1282617dd1565b602082019050919050565b60006020820190508181036000830152617e3681617dfa565b9050919050565b7f4d61782066656520746f6f206869676800000000000000000000000000000000600082015250565b6000617e736010836169a7565b9150617e7e82617e3d565b602082019050919050565b60006020820190508181036000830152617ea281617e66565b9050919050565b7f4e6f74207468652073656c6c6572000000000000000000000000000000000000600082015250565b6000617edf600e836169a7565b9150617eea82617ea9565b602082019050919050565b60006020820190508181036000830152617f0e81617ed2565b9050919050565b7f496e76616c69642062696420696e646578000000000000000000000000000000600082015250565b6000617f4b6011836169a7565b9150617f5682617f15565b602082019050919050565b60006020820190508181036000830152617f7a81617f3e565b9050919050565b7f426964646572206d69736d617463680000000000000000000000000000000000600082015250565b6000617fb7600f836169a7565b9150617fc282617f81565b602082019050919050565b60006020820190508181036000830152617fe681617faa565b9050919050565b7f416d6f756e74206d69736d617463680000000000000000000000000000000000600082015250565b6000618023600f836169a7565b915061802e82617fed565b602082019050919050565b6000602082019050818103600083015261805281618016565b9050919050565b7f546f6b656e206d69736d61746368000000000000000000000000000000000000600082015250565b600061808f600e836169a7565b915061809a82618059565b602082019050919050565b600060208201905081810360008301526180be81618082565b9050919050565b7f4e6f74204e4654206f776e657200000000000000000000000000000000000000600082015250565b60006180fb600d836169a7565b9150618106826180c5565b602082019050919050565b6000602082019050818103600083015261812a816180ee565b9050919050565b7f53656c6c6572207472616e73666572206661696c656400000000000000000000600082015250565b60006181676016836169a7565b915061817282618131565b602082019050919050565b600060208201905081810360008301526181968161815a565b9050919050565b7f466565207472616e73666572206661696c656400000000000000000000000000600082015250565b60006181d36013836169a7565b91506181de8261819d565b602082019050919050565b60006020820190508181036000830152618202816181c6565b9050919050565b600060608201905061821e60008301866162e6565b61822b60208301856162e6565b61823860408301846162d7565b949350505050565b7f5472616e7366657220746f2073656c6c6572206661696c656400000000000000600082015250565b60006182766019836169a7565b915061828182618240565b602082019050919050565b600060208201905081810360008301526182a581618269565b9050919050565b7f5265656e7472616e637947756172643a207265656e7472616e742063616c6c00600082015250565b60006182e2601f836169a7565b91506182ed826182ac565b602082019050919050565b60006020820190508181036000830152618311816182d5565b9050919050565b7f496e73756666696369656e742045544800000000000000000000000000000000600082015250565b600061834e6010836169a7565b915061835982618318565b602082019050919050565b6000602082019050818103600083015261837d81618341565b9050919050565b7f5472616e73666572206661696c65640000000000000000000000000000000000600082015250565b60006183ba600f836169a7565b91506183c582618384565b602082019050919050565b600060208201905081810360008301526183e9816183ad565b9050919050565b7f5061757361626c653a2070617573656400000000000000000000000000000000600082015250565b60006184266010836169a7565b9150618431826183f0565b602082019050919050565b6000602082019050818103600083015261845581618419565b9050919050565b600081905092915050565b7f416363657373436f6e74726f6c3a206163636f756e7420000000000000000000600082015250565b600061849d60178361845c565b91506184a882618467565b601782019050919050565b600081519050919050565b60005b838110156184dc5780820151818401526020810190506184c1565b60008484015250505050565b60006184f3826184b3565b6184fd818561845c565b935061850d8185602086016184be565b80840191505092915050565b7f206973206d697373696e6720726f6c6520000000000000000000000000000000600082015250565b600061854f60118361845c565b915061855a82618519565b601182019050919050565b600061857082618490565b915061857c82856184e8565b915061858782618542565b915061859382846184e8565b91508190509392505050565b6000601f19601f8301169050919050565b60006185bb826184b3565b6185c581856169a7565b93506185d58185602086016184be565b6185de8161859f565b840191505092915050565b6000602082019050818103600083015261860381846185b0565b905092915050565b7f5061757361626c653a206e6f7420706175736564000000000000000000000000600082015250565b60006186416014836169a7565b915061864c8261860b565b602082019050919050565b6000602082019050818103600083015261867081618634565b9050919050565b6000618682826160c9565b91506000820361869557618694616a53565b5b600182039050919050565b7f537472696e67733a20686578206c656e67746820696e73756666696369656e74600082015250565b60006186d66020836169a7565b91506186e1826186a0565b602082019050919050565b60006020820190508181036000830152618705816186c9565b905091905056fea26469706673582212204240a9eac987c265acc90ac6269f13c9f1736314b58933340851a02f89ee502964736f6c63430008140033",
  "linkReferences": {},
  "deployedLinkReferences": {}
}