{
  "_format": "hh-sol-artifact-1",
  "contractName": "PropertyMarket",
  "sourceName": "contracts/market/PropertyMarket.sol",
  "abi": [
    {
      "inputs": [
        {
          "internalType": "address",
          "name": "_nftiAddress",
          "type": "address"
        },
        {
          "internalType": "address",
          "name": "_nftmAddress",
          "type": "address"
        },
        {
          "internalType": "address",
          "name": "initialAdmin",
          "type": "address"
        },
        {
          "internalType": "address",
          "name": "feeCollector",
          "type": "address"
        },
        {
          "internalType": "address",
          "name": "rewardsVault",
          "type": "address"
        }
      ],
      "stateMutability": "nonpayable",
      "type": "constructor"
    },
    {
      "anonymous": false,
      "inputs": [
        {
          "indexed": true,
          "internalType": "bytes32",
          "name": "role",
          "type": "bytes32"
        },
        {
          "indexed": true,
          "internalType": "address",
          "name": "account",
          "type": "address"
        },
        {
          "indexed": true,
          "internalType": "address",
          "name": "sender",
          "type": "address"
        }
      ],
      "name": "AdminRoleGranted",
      "type": "event"
    },
    {
      "anonymous": false,
      "inputs": [
        {
          "indexed": true,
          "internalType": "bytes32",
          "name": "role",
          "type": "bytes32"
        },
        {
          "indexed": true,
          "internalType": "address",
          "name": "account",
          "type": "address"
        },
        {
          "indexed": true,
          "internalType": "address",
          "name": "sender",
          "type": "address"
        }
      ],
      "name": "AdminRoleRevoked",
      "type": "event"
    },
    {
      "anonymous": false,
      "inputs": [
        {
          "indexed": true,
          "internalType": "uint256",
          "name": "tokenId",
          "type": "uint256"
        },
        {
          "indexed": true,
          "internalType": "address",
          "name": "seller",
          "type": "address"
        },
        {
          "indexed": true,
          "internalType": "address",
          "name": "bidder",
          "type": "address"
        },
        {
          "indexed": false,
          "internalType": "uint256",
          "name": "amount",
          "type": "uint256"
        },
        {
          "indexed": false,
          "internalType": "address",
          "name": "paymentToken",
          "type": "address"
        }
      ],
      "name": "BidAccepted",
      "type": "event"
    },
    {
      "anonymous": false,
      "inputs": [
        {
          "indexed": true,
          "internalType": "uint256",
          "name": "tokenId",
          "type": "uint256"
        },
        {
          "indexed": true,
          "internalType": "address",
          "name": "seller",
          "type": "address"
        },
        {
          "indexed": true,
          "internalType": "address",
          "name": "bidder",
          "type": "address"
        },
        {
          "indexed": false,
          "internalType": "uint256",
          "name": "amount",
          "type": "uint256"
        },
        {
          "indexed": false,
          "internalType": "address",
          "name": "paymentToken",
          "type": "address"
        }
      ],
      "name": "BidAcceptedPendingPayment",
      "type": "event"
    },
    {
      "anonymous": false,
      "inputs": [
        {
          "indexed": true,
          "internalType": "uint256",
          "name": "tokenId",
          "type": "uint256"
        },
        {
          "indexed": true,
          "internalType": "address",
          "name": "bidder",
          "type": "address"
        },
        {
          "indexed": false,
          "internalType": "uint256",
          "name": "amount",
          "type": "uint256"
        }
      ],
      "name": "BidCancelled",
      "type": "event"
    },
    {
      "anonymous": false,
      "inputs": [
        {
          "indexed": true,
          "internalType": "uint256",
          "name": "tokenId",
          "type": "uint256"
        },
        {
          "indexed": true,
          "internalType": "address",
          "name": "bidder",
          "type": "address"
        },
        {
          "indexed": false,
          "internalType": "uint256",
          "name": "amount",
          "type": "uint256"
        },
        {
          "indexed": false,
          "internalType": "address",
          "name": "paymentToken",
          "type": "address"
        }
      ],
      "name": "BidPlaced",
      "type": "event"
    },
    {
      "anonymous": false,
      "inputs": [
        {
          "indexed": true,
          "internalType": "uint256",
          "name": "tokenId",
          "type": "uint256"
        },
        {
          "indexed": true,
          "internalType": "address",
          "name": "bidder",
          "type": "address"
        },
        {
          "indexed": false,
          "internalType": "uint256",
          "name": "amount",
          "type": "uint256"
        }
      ],
      "name": "BidRefundFailed",
      "type": "event"
    },
    {
      "anonymous": false,
      "inputs": [
        {
          "indexed": true,
          "internalType": "uint256",
          "name": "tokenId",
          "type": "uint256"
        },
        {
          "indexed": false,
          "internalType": "uint256",
          "name": "removedCount",
          "type": "uint256"
        },
        {
          "indexed": false,
          "internalType": "uint256",
          "name": "remainingCount",
          "type": "uint256"
        }
      ],
      "name": "BidsCleanedUp",
      "type": "event"
    },
    {
      "anonymous": false,
      "inputs": [
        {
          "indexed": true,
          "internalType": "address",
          "name": "user",
          "type": "address"
        },
        {
          "indexed": false,
          "internalType": "uint256",
          "name": "oldScore",
          "type": "uint256"
        },
        {
          "indexed": false,
          "internalType": "uint256",
          "name": "newScore",
          "type": "uint256"
        }
      ],
      "name": "CommunityScoreUpdated",
      "type": "event"
    },
    {
      "anonymous": false,
      "inputs": [
        {
          "indexed": true,
          "internalType": "uint256",
          "name": "tokenId",
          "type": "uint256"
        },
        {
          "indexed": true,
          "internalType": "address",
          "name": "buyer",
          "type": "address"
        },
        {
          "indexed": false,
          "internalType": "uint256",
          "name": "purchasePrice",
          "type": "uint256"
        },
        {
          "indexed": false,
          "internalType": "uint256",
          "name": "highestBidOutbid",
          "type": "uint256"
        },
        {
          "indexed": false,
          "internalType": "address",
          "name": "paymentToken",
          "type": "address"
        }
      ],
      "name": "CompetitivePurchase",
      "type": "event"
    },
    {
      "anonymous": false,
      "inputs": [
        {
          "indexed": true,
          "internalType": "address",
          "name": "admin",
          "type": "address"
        },
        {
          "indexed": true,
          "internalType": "address",
          "name": "token",
          "type": "address"
        },
        {
          "indexed": true,
          "internalType": "address",
          "name": "recipient",
          "type": "address"
        },
        {
          "indexed": false,
          "internalType": "uint256",
          "name": "amount",
          "type": "uint256"
        },
        {
          "indexed": false,
          "internalType": "uint256",
          "name": "timestamp",
          "type": "uint256"
        }
      ],
      "name": "EmergencyTokenWithdrawal",
      "type": "event"
    },
    {
      "anonymous": false,
      "inputs": [
        {
          "indexed": true,
          "internalType": "address",
          "name": "admin",
          "type": "address"
        },
        {
          "indexed": true,
          "internalType": "address",
          "name": "recipient",
          "type": "address"
        },
        {
          "indexed": false,
          "internalType": "uint256",
          "name": "amount",
          "type": "uint256"
        },
        {
          "indexed": false,
          "internalType": "uint256",
          "name": "timestamp",
          "type": "uint256"
        }
      ],
      "name": "EmergencyWithdrawal",
      "type": "event"
    },
    {
      "anonymous": false,
      "inputs": [
        {
          "indexed": false,
          "internalType": "uint256",
          "name": "oldBaseFee",
          "type": "uint256"
        },
        {
          "indexed": false,
          "internalType": "uint256",
          "name": "newBaseFee",
          "type": "uint256"
        },
        {
          "indexed": false,
          "internalType": "uint256",
          "name": "oldMaxFee",
          "type": "uint256"
        },
        {
          "indexed": false,
          "internalType": "uint256",
          "name": "newMaxFee",
          "type": "uint256"
        },
        {
          "indexed": true,
          "internalType": "address",
          "name": "admin",
          "type": "address"
        }
      ],
      "name": "FeeConfigUpdated",
      "type": "event"
    },
    {
      "anonymous": false,
      "inputs": [
        {
          "indexed": true,
          "internalType": "address",
          "name": "account",
          "type": "address"
        },
        {
          "indexed": false,
          "internalType": "bool",
          "name": "approved",
          "type": "bool"
        }
      ],
      "name": "KYCStatusUpdated",
      "type": "event"
    },
    {
      "anonymous": false,
      "inputs": [
        {
          "indexed": true,
          "internalType": "uint256",
          "name": "tokenId",
          "type": "uint256"
        },
        {
          "indexed": false,
          "internalType": "uint256",
          "name": "oldPrice",
          "type": "uint256"
        },
        {
          "indexed": false,
          "internalType": "uint256",
          "name": "newPrice",
          "type": "uint256"
        },
        {
          "indexed": false,
          "internalType": "address",
          "name": "oldToken",
          "type": "address"
        },
        {
          "indexed": false,
          "internalType": "address",
          "name": "newToken",
          "type": "address"
        }
      ],
      "name": "ListingPriceChanged",
      "type": "event"
    },
    {
      "anonymous": false,
      "inputs": [
        {
          "indexed": true,
          "internalType": "uint256",
          "name": "tokenId",
          "type": "uint256"
        },
        {
          "indexed": false,
          "internalType": "uint256",
          "name": "newPrice",
          "type": "uint256"
        },
        {
          "indexed": false,
          "internalType": "address",
          "name": "newPaymentToken",
          "type": "address"
        }
      ],
      "name": "ListingUpdated",
      "type": "event"
    },
    {
      "anonymous": false,
      "inputs": [
        {
          "indexed": true,
          "internalType": "address",
          "name": "multiSigOperator",
          "type": "address"
        },
        {
          "indexed": true,
          "internalType": "address",
          "name": "admin",
          "type": "address"
        }
      ],
      "name": "MultiSigOperatorSet",
      "type": "event"
    },
    {
      "anonymous": false,
      "inputs": [
        {
          "indexed": true,
          "internalType": "uint256",
          "name": "tokenId",
          "type": "uint256"
        },
        {
          "indexed": true,
          "internalType": "address",
          "name": "seller",
          "type": "address"
        },
        {
          "indexed": false,
          "internalType": "uint256",
          "name": "price",
          "type": "uint256"
        },
        {
          "indexed": false,
          "internalType": "address",
          "name": "paymentToken",
          "type": "address"
        }
      ],
      "name": "NewListing",
      "type": "event"
    },
    {
      "anonymous": false,
      "inputs": [
        {
          "indexed": false,
          "internalType": "address",
          "name": "account",
          "type": "address"
        }
      ],
      "name": "Paused",
      "type": "event"
    },
    {
      "anonymous": false,
      "inputs": [
        {
          "indexed": true,
          "internalType": "address",
          "name": "seller",
          "type": "address"
        },
        {
          "indexed": true,
          "internalType": "address",
          "name": "buyer",
          "type": "address"
        },
        {
          "indexed": false,
          "internalType": "uint256",
          "name": "amount",
          "type": "uint256"
        },
        {
          "indexed": false,
          "internalType": "uint256",
          "name": "fees",
          "type": "uint256"
        },
        {
          "indexed": false,
          "internalType": "address",
          "name": "paymentToken",
          "type": "address"
        }
      ],
      "name": "PaymentProcessed",
      "type": "event"
    },
    {
      "anonymous": false,
      "inputs": [
        {
          "indexed": true,
          "internalType": "address",
          "name": "token",
          "type": "address"
        },
        {
          "indexed": true,
          "internalType": "address",
          "name": "operator",
          "type": "address"
        }
      ],
      "name": "PaymentTokenAdded",
      "type": "event"
    },
    {
      "anonymous": false,
      "inputs": [
        {
          "indexed": true,
          "internalType": "address",
          "name": "token",
          "type": "address"
        },
        {
          "indexed": true,
          "internalType": "address",
          "name": "operator",
          "type": "address"
        }
      ],
      "name": "PaymentTokenRemoved",
      "type": "event"
    },
    {
      "anonymous": false,
      "inputs": [
        {
          "indexed": true,
          "internalType": "uint256",
          "name": "tokenId",
          "type": "uint256"
        },
        {
          "indexed": false,
          "internalType": "address",
          "name": "buyer",
          "type": "address"
        },
        {
          "indexed": false,
          "internalType": "uint256",
          "name": "price",
          "type": "uint256"
        },
        {
          "indexed": false,
          "internalType": "address",
          "name": "paymentToken",
          "type": "address"
        }
      ],
      "name": "PropertySold",
      "type": "event"
    },
    {
      "anonymous": false,
      "inputs": [
        {
          "indexed": true,
          "internalType": "uint256",
          "name": "tokenId",
          "type": "uint256"
        },
        {
          "indexed": true,
          "internalType": "address",
          "name": "seller",
          "type": "address"
        },
        {
          "indexed": true,
          "internalType": "address",
          "name": "buyer",
          "type": "address"
        },
        {
          "indexed": false,
          "internalType": "uint256",
          "name": "finalPrice",
          "type": "uint256"
        },
        {
          "indexed": false,
          "internalType": "address",
          "name": "paymentToken",
          "type": "address"
        }
      ],
      "name": "PurchaseConfirmed",
      "type": "event"
    },
    {
      "anonymous": false,
      "inputs": [
        {
          "indexed": true,
          "internalType": "uint256",
          "name": "tokenId",
          "type": "uint256"
        },
        {
          "indexed": true,
          "internalType": "address",
          "name": "buyer",
          "type": "address"
        },
        {
          "indexed": false,
          "internalType": "uint256",
          "name": "offerPrice",
          "type": "uint256"
        },
        {
          "indexed": false,
          "internalType": "address",
          "name": "paymentToken",
          "type": "address"
        }
      ],
      "name": "PurchaseExpired",
      "type": "event"
    },
    {
      "anonymous": false,
      "inputs": [
        {
          "indexed": true,
          "internalType": "uint256",
          "name": "tokenId",
          "type": "uint256"
        },
        {
          "indexed": true,
          "internalType": "address",
          "name": "seller",
          "type": "address"
        },
        {
          "indexed": true,
          "internalType": "address",
          "name": "buyer",
          "type": "address"
        },
        {
          "indexed": false,
          "internalType": "uint256",
          "name": "offerPrice",
          "type": "uint256"
        },
        {
          "indexed": false,
          "internalType": "address",
          "name": "paymentToken",
          "type": "address"
        }
      ],
      "name": "PurchaseRejected",
      "type": "event"
    },
    {
      "anonymous": false,
      "inputs": [
        {
          "indexed": true,
          "internalType": "uint256",
          "name": "tokenId",
          "type": "uint256"
        },
        {
          "indexed": true,
          "internalType": "address",
          "name": "buyer",
          "type": "address"
        },
        {
          "indexed": false,
          "internalType": "uint256",
          "name": "offerPrice",
          "type": "uint256"
        },
        {
          "indexed": false,
          "internalType": "address",
          "name": "paymentToken",
          "type": "address"
        },
        {
          "indexed": false,
          "internalType": "uint256",
          "name": "confirmationDeadline",
          "type": "uint256"
        }
      ],
      "name": "PurchaseRequested",
      "type": "event"
    },
    {
      "anonymous": false,
      "inputs": [
        {
          "indexed": false,
          "internalType": "uint256",
          "name": "oldBaseRate",
          "type": "uint256"
        },
        {
          "indexed": false,
          "internalType": "uint256",
          "name": "newBaseRate",
          "type": "uint256"
        },
        {
          "indexed": false,
          "internalType": "uint256",
          "name": "oldMultiplier",
          "type": "uint256"
        },
        {
          "indexed": false,
          "internalType": "uint256",
          "name": "newMultiplier",
          "type": "uint256"
        },
        {
          "indexed": true,
          "internalType": "address",
          "name": "admin",
          "type": "address"
        }
      ],
      "name": "RewardParametersUpdated",
      "type": "event"
    },
    {
      "anonymous": false,
      "inputs": [
        {
          "indexed": true,
          "internalType": "bytes32",
          "name": "role",
          "type": "bytes32"
        },
        {
          "indexed": true,
          "internalType": "bytes32",
          "name": "previousAdminRole",
          "type": "bytes32"
        },
        {
          "indexed": true,
          "internalType": "bytes32",
          "name": "newAdminRole",
          "type": "bytes32"
        }
      ],
      "name": "RoleAdminChanged",
      "type": "event"
    },
    {
      "anonymous": false,
      "inputs": [
        {
          "indexed": true,
          "internalType": "bytes32",
          "name": "role",
          "type": "bytes32"
        },
        {
          "indexed": true,
          "internalType": "address",
          "name": "account",
          "type": "address"
        },
        {
          "indexed": true,
          "internalType": "address",
          "name": "sender",
          "type": "address"
        }
      ],
      "name": "RoleGranted",
      "type": "event"
    },
    {
      "anonymous": false,
      "inputs": [
        {
          "indexed": true,
          "internalType": "bytes32",
          "name": "role",
          "type": "bytes32"
        },
        {
          "indexed": true,
          "internalType": "address",
          "name": "account",
          "type": "address"
        },
        {
          "indexed": true,
          "internalType": "address",
          "name": "sender",
          "type": "address"
        }
      ],
      "name": "RoleRevoked",
      "type": "event"
    },
    {
      "anonymous": false,
      "inputs": [
        {
          "indexed": false,
          "internalType": "bool",
          "name": "enabled",
          "type": "bool"
        },
        {
          "indexed": true,
          "internalType": "address",
          "name": "admin",
          "type": "address"
        }
      ],
      "name": "TimelockEnabledChanged",
      "type": "event"
    },
    {
      "anonymous": false,
      "inputs": [
        {
          "indexed": true,
          "internalType": "address",
          "name": "timelock",
          "type": "address"
        },
        {
          "indexed": true,
          "internalType": "address",
          "name": "admin",
          "type": "address"
        }
      ],
      "name": "TimelockSet",
      "type": "event"
    },
    {
      "anonymous": false,
      "inputs": [
        {
          "indexed": false,
          "internalType": "address",
          "name": "account",
          "type": "address"
        }
      ],
      "name": "Unpaused",
      "type": "event"
    },
    {
      "anonymous": false,
      "inputs": [
        {
          "indexed": false,
          "internalType": "bool",
          "name": "enabled",
          "type": "bool"
        },
        {
          "indexed": true,
          "internalType": "address",
          "name": "operator",
          "type": "address"
        }
      ],
      "name": "WhitelistStatusChanged",
      "type": "event"
    },
    {
      "inputs": [],
      "name": "BASIS_POINTS",
      "outputs": [
        {
          "internalType": "uint256",
          "name": "",
          "type": "uint256"
        }
      ],
      "stateMutability": "view",
      "type": "function"
    },
    {
      "inputs": [],
      "name": "DEFAULT_ADMIN_ROLE",
      "outputs": [
        {
          "internalType": "bytes32",
          "name": "",
          "type": "bytes32"
        }
      ],
      "stateMutability": "view",
      "type": "function"
    },
    {
      "inputs": [],
      "name": "DEFAULT_CONFIRMATION_PERIOD",
      "outputs": [
        {
          "internalType": "uint256",
          "name": "",
          "type": "uint256"
        }
      ],
      "stateMutability": "view",
      "type": "function"
    },
    {
      "inputs": [],
      "name": "LEGAL_ROLE",
      "outputs": [
        {
          "internalType": "bytes32",
          "name": "",
          "type": "bytes32"
        }
      ],
      "stateMutability": "view",
      "type": "function"
    },
    {
      "inputs": [],
      "name": "MAX_BIDS_BEFORE_CLEANUP",
      "outputs": [
        {
          "internalType": "uint256",
          "name": "",
          "type": "uint256"
        }
      ],
      "stateMutability": "view",
      "type": "function"
    },
    {
      "inputs": [],
      "name": "OPERATOR_ROLE",
      "outputs": [
        {
          "internalType": "bytes32",
          "name": "",
          "type": "bytes32"
        }
      ],
      "stateMutability": "view",
      "type": "function"
    },
    {
      "inputs": [],
      "name": "PERCENTAGE_BASE",
      "outputs": [
        {
          "internalType": "uint256",
          "name": "",
          "type": "uint256"
        }
      ],
      "stateMutability": "view",
      "type": "function"
    },
    {
      "inputs": [],
      "name": "REWARD_MANAGER",
      "outputs": [
        {
          "internalType": "bytes32",
          "name": "",
          "type": "bytes32"
        }
      ],
      "stateMutability": "view",
      "type": "function"
    },
    {
      "inputs": [
        {
          "internalType": "uint256",
          "name": "tokenId",
          "type": "uint256"
        },
        {
          "internalType": "uint256",
          "name": "bidIndex",
          "type": "uint256"
        },
        {
          "internalType": "address",
          "name": "expectedBidder",
          "type": "address"
        },
        {
          "internalType": "uint256",
          "name": "expectedAmount",
          "type": "uint256"
        },
        {
          "internalType": "address",
          "name": "expectedPaymentToken",
          "type": "address"
        }
      ],
      "name": "acceptBid",
      "outputs": [],
      "stateMutability": "nonpayable",
      "type": "function"
    },
    {
      "inputs": [
        {
          "internalType": "address",
          "name": "token",
          "type": "address"
        }
      ],
      "name": "addAllowedToken",
      "outputs": [],
      "stateMutability": "nonpayable",
      "type": "function"
    },
    {
      "inputs": [
        {
          "internalType": "address",
          "name": "",
          "type": "address"
        }
      ],
      "name": "allowedPaymentTokens",
      "outputs": [
        {
          "internalType": "bool",
          "name": "",
          "type": "bool"
        }
      ],
      "stateMutability": "view",
      "type": "function"
    },
    {
      "inputs": [
        {
          "internalType": "address[]",
          "name": "accounts",
          "type": "address[]"
        },
        {
          "internalType": "bool",
          "name": "approved",
          "type": "bool"
        }
      ],
      "name": "batchApproveKYC",
      "outputs": [],
      "stateMutability": "nonpayable",
      "type": "function"
    },
    {
      "inputs": [
        {
          "internalType": "address",
          "name": "",
          "type": "address"
        },
        {
          "internalType": "uint256",
          "name": "",
          "type": "uint256"
        }
      ],
      "name": "bidIndexByBidder",
      "outputs": [
        {
          "internalType": "uint256",
          "name": "",
          "type": "uint256"
        }
      ],
      "stateMutability": "view",
      "type": "function"
    },
    {
      "inputs": [
        {
          "internalType": "uint256",
          "name": "",
          "type": "uint256"
        },
        {
          "internalType": "uint256",
          "name": "",
          "type": "uint256"
        }
      ],
      "name": "bidsForToken",
      "outputs": [
        {
          "internalType": "uint256",
          "name": "tokenId",
          "type": "uint256"
        },
        {
          "internalType": "address",
          "name": "bidder",
          "type": "address"
        },
        {
          "internalType": "uint256",
          "name": "amount",
          "type": "uint256"
        },
        {
          "internalType": "address",
          "name": "paymentToken",
          "type": "address"
        },
        {
          "internalType": "uint256",
          "name": "bidTimestamp",
          "type": "uint256"
        },
        {
          "internalType": "bool",
          "name": "isActive",
          "type": "bool"
        }
      ],
      "stateMutability": "view",
      "type": "function"
    },
    {
      "inputs": [
        {
          "internalType": "address",
          "name": "user",
          "type": "address"
        },
        {
          "internalType": "uint256",
          "name": "baseAmount",
          "type": "uint256"
        }
      ],
      "name": "calculateRewards",
      "outputs": [
        {
          "internalType": "uint256",
          "name": "",
          "type": "uint256"
        }
      ],
      "stateMutability": "view",
      "type": "function"
    },
    {
      "inputs": [
        {
          "internalType": "uint256",
          "name": "tokenId",
          "type": "uint256"
        }
      ],
      "name": "cancelBid",
      "outputs": [],
      "stateMutability": "nonpayable",
      "type": "function"
    },
    {
      "inputs": [
        {
          "internalType": "uint256",
          "name": "tokenId",
          "type": "uint256"
        }
      ],
      "name": "cancelExpiredPurchase",
      "outputs": [],
      "stateMutability": "nonpayable",
      "type": "function"
    },
    {
      "inputs": [
        {
          "internalType": "uint256",
          "name": "tokenId",
          "type": "uint256"
        }
      ],
      "name": "cleanupInactiveBids",
      "outputs": [],
      "stateMutability": "nonpayable",
      "type": "function"
    },
    {
      "inputs": [
        {
          "internalType": "address",
          "name": "",
          "type": "address"
        }
      ],
      "name": "communityScores",
      "outputs": [
        {
          "internalType": "uint256",
          "name": "",
          "type": "uint256"
        }
      ],
      "stateMutability": "view",
      "type": "function"
    },
    {
      "inputs": [
        {
          "internalType": "uint256",
          "name": "tokenId",
          "type": "uint256"
        }
      ],
      "name": "completeBidPayment",
      "outputs": [],
      "stateMutability": "payable",
      "type": "function"
    },
    {
      "inputs": [
        {
          "internalType": "uint256",
          "name": "newBaseRate",
          "type": "uint256"
        },
        {
          "internalType": "uint256",
          "name": "newMultiplier",
          "type": "uint256"
        },
        {
          "internalType": "uint256",
          "name": "newLeaseBonus",
          "type": "uint256"
        }
      ],
      "name": "configureRewards",
      "outputs": [],
      "stateMutability": "nonpayable",
      "type": "function"
    },
    {
      "inputs": [
        {
          "internalType": "uint256",
          "name": "tokenId",
          "type": "uint256"
        }
      ],
      "name": "confirmPurchase",
      "outputs": [],
      "stateMutability": "nonpayable",
      "type": "function"
    },
    {
      "inputs": [
        {
          "internalType": "uint256",
          "name": "functionId",
          "type": "uint256"
        },
        {
          "internalType": "bool",
          "name": "paused",
          "type": "bool"
        }
      ],
      "name": "emergencyPauseFunction",
      "outputs": [],
      "stateMutability": "nonpayable",
      "type": "function"
    },
    {
      "inputs": [
        {
          "internalType": "uint256",
          "name": "amount",
          "type": "uint256"
        },
        {
          "internalType": "address payable",
          "name": "recipient",
          "type": "address"
        }
      ],
      "name": "emergencyWithdrawETH",
      "outputs": [],
      "stateMutability": "nonpayable",
      "type": "function"
    },
    {
      "inputs": [
        {
          "internalType": "address",
          "name": "token",
          "type": "address"
        },
        {
          "internalType": "uint256",
          "name": "amount",
          "type": "uint256"
        },
        {
          "internalType": "address",
          "name": "recipient",
          "type": "address"
        }
      ],
      "name": "emergencyWithdrawToken",
      "outputs": [],
      "stateMutability": "nonpayable",
      "type": "function"
    },
    {
      "inputs": [
        {
          "internalType": "uint256",
          "name": "",
          "type": "uint256"
        },
        {
          "internalType": "address",
          "name": "",
          "type": "address"
        }
      ],
      "name": "ethBidDeposits",
      "outputs": [
        {
          "internalType": "uint256",
          "name": "",
          "type": "uint256"
        }
      ],
      "stateMutability": "view",
      "type": "function"
    },
    {
      "inputs": [],
      "name": "feeConfig",
      "outputs": [
        {
          "internalType": "uint256",
          "name": "baseFee",
          "type": "uint256"
        },
        {
          "internalType": "uint256",
          "name": "maxFee",
          "type": "uint256"
        },
        {
          "internalType": "address",
          "name": "feeCollector",
          "type": "address"
        }
      ],
      "stateMutability": "view",
      "type": "function"
    },
    {
      "inputs": [
        {
          "internalType": "uint256",
          "name": "",
          "type": "uint256"
        }
      ],
      "name": "functionPaused",
      "outputs": [
        {
          "internalType": "bool",
          "name": "",
          "type": "bool"
        }
      ],
      "stateMutability": "view",
      "type": "function"
    },
    {
      "inputs": [
        {
          "internalType": "uint256",
          "name": "tokenId",
          "type": "uint256"
        }
      ],
      "name": "getActiveBidsForToken",
      "outputs": [
        {
          "components": [
            {
              "internalType": "uint256",
              "name": "tokenId",
              "type": "uint256"
            },
            {
              "internalType": "address",
              "name": "bidder",
              "type": "address"
            },
            {
              "internalType": "uint256",
              "name": "amount",
              "type": "uint256"
            },
            {
              "internalType": "address",
              "name": "paymentToken",
              "type": "address"
            },
            {
              "internalType": "uint256",
              "name": "bidTimestamp",
              "type": "uint256"
            },
            {
              "internalType": "bool",
              "name": "isActive",
              "type": "bool"
            }
          ],
          "internalType": "struct PropertyMarket.Bid[]",
          "name": "activeBids",
          "type": "tuple[]"
        }
      ],
      "stateMutability": "view",
      "type": "function"
    },
    {
      "inputs": [
        {
          "internalType": "uint256",
          "name": "tokenId",
          "type": "uint256"
        },
        {
          "internalType": "uint256",
          "name": "offset",
          "type": "uint256"
        },
        {
          "internalType": "uint256",
          "name": "limit",
          "type": "uint256"
        }
      ],
      "name": "getActiveBidsForTokenPaginated",
      "outputs": [
        {
          "components": [
            {
              "internalType": "uint256",
              "name": "tokenId",
              "type": "uint256"
            },
            {
              "internalType": "address",
              "name": "bidder",
              "type": "address"
            },
            {
              "internalType": "uint256",
              "name": "amount",
              "type": "uint256"
            },
            {
              "internalType": "address",
              "name": "paymentToken",
              "type": "address"
            },
            {
              "internalType": "uint256",
              "name": "bidTimestamp",
              "type": "uint256"
            },
            {
              "internalType": "bool",
              "name": "isActive",
              "type": "bool"
            }
          ],
          "internalType": "struct PropertyMarket.Bid[]",
          "name": "activeBids",
          "type": "tuple[]"
        },
        {
          "internalType": "uint256",
          "name": "totalCount",
          "type": "uint256"
        }
      ],
      "stateMutability": "view",
      "type": "function"
    },
    {
      "inputs": [
        {
          "internalType": "uint256",
          "name": "tokenId",
          "type": "uint256"
        },
        {
          "internalType": "address",
          "name": "bidder",
          "type": "address"
        }
      ],
      "name": "getBidFromBidder",
      "outputs": [
        {
          "components": [
            {
              "internalType": "uint256",
              "name": "tokenId",
              "type": "uint256"
            },
            {
              "internalType": "address",
              "name": "bidder",
              "type": "address"
            },
            {
              "internalType": "uint256",
              "name": "amount",
              "type": "uint256"
            },
            {
              "internalType": "address",
              "name": "paymentToken",
              "type": "address"
            },
            {
              "internalType": "uint256",
              "name": "bidTimestamp",
              "type": "uint256"
            },
            {
              "internalType": "bool",
              "name": "isActive",
              "type": "bool"
            }
          ],
          "internalType": "struct PropertyMarket.Bid",
          "name": "",
          "type": "tuple"
        }
      ],
      "stateMutability": "view",
      "type": "function"
    },
    {
      "inputs": [],
      "name": "getCurrentFee",
      "outputs": [
        {
          "internalType": "uint256",
          "name": "",
          "type": "uint256"
        }
      ],
      "stateMutability": "view",
      "type": "function"
    },
    {
      "inputs": [
        {
          "internalType": "uint256",
          "name": "tokenId",
          "type": "uint256"
        }
      ],
      "name": "getListingDetails",
      "outputs": [
        {
          "internalType": "address",
          "name": "seller",
          "type": "address"
        },
        {
          "internalType": "uint256",
          "name": "price",
          "type": "uint256"
        },
        {
          "internalType": "address",
          "name": "paymentToken",
          "type": "address"
        },
        {
          "internalType": "enum PropertyMarket.PropertyStatus",
          "name": "status",
          "type": "uint8"
        },
        {
          "internalType": "uint256",
          "name": "listTimestamp",
          "type": "uint256"
        },
        {
          "internalType": "uint256",
          "name": "confirmationPeriod",
          "type": "uint256"
        }
      ],
      "stateMutability": "view",
      "type": "function"
    },
    {
      "inputs": [
        {
          "internalType": "uint256",
          "name": "tokenId",
          "type": "uint256"
        }
      ],
      "name": "getPendingPurchaseDetails",
      "outputs": [
        {
          "internalType": "address",
          "name": "buyer",
          "type": "address"
        },
        {
          "internalType": "uint256",
          "name": "offerPrice",
          "type": "uint256"
        },
        {
          "internalType": "address",
          "name": "paymentToken",
          "type": "address"
        },
        {
          "internalType": "uint256",
          "name": "purchaseTimestamp",
          "type": "uint256"
        },
        {
          "internalType": "uint256",
          "name": "confirmationDeadline",
          "type": "uint256"
        },
        {
          "internalType": "bool",
          "name": "isActive",
          "type": "bool"
        },
        {
          "internalType": "bool",
          "name": "isExpired",
          "type": "bool"
        }
      ],
      "stateMutability": "view",
      "type": "function"
    },
    {
      "inputs": [
        {
          "internalType": "bytes32",
          "name": "role",
          "type": "bytes32"
        }
      ],
      "name": "getRoleAdmin",
      "outputs": [
        {
          "internalType": "bytes32",
          "name": "",
          "type": "bytes32"
        }
      ],
      "stateMutability": "view",
      "type": "function"
    },
    {
      "inputs": [],
      "name": "globalPause",
      "outputs": [],
      "stateMutability": "nonpayable",
      "type": "function"
    },
    {
      "inputs": [],
      "name": "globalUnpause",
      "outputs": [],
      "stateMutability": "nonpayable",
      "type": "function"
    },
    {
      "inputs": [
        {
          "internalType": "bytes32",
          "name": "role",
          "type": "bytes32"
        },
        {
          "internalType": "address",
          "name": "account",
          "type": "address"
        }
      ],
      "name": "grantRole",
      "outputs": [],
      "stateMutability": "nonpayable",
      "type": "function"
    },
    {
      "inputs": [
        {
          "internalType": "bytes32",
          "name": "role",
          "type": "bytes32"
        },
        {
          "internalType": "address",
          "name": "account",
          "type": "address"
        }
      ],
      "name": "hasRole",
      "outputs": [
        {
          "internalType": "bool",
          "name": "",
          "type": "bool"
        }
      ],
      "stateMutability": "view",
      "type": "function"
    },
    {
      "inputs": [
        {
          "internalType": "address",
          "name": "account",
          "type": "address"
        }
      ],
      "name": "isKYCVerified",
      "outputs": [
        {
          "internalType": "bool",
          "name": "",
          "type": "bool"
        }
      ],
      "stateMutability": "view",
      "type": "function"
    },
    {
      "inputs": [
        {
          "internalType": "address",
          "name": "token",
          "type": "address"
        }
      ],
      "name": "isTokenAllowed",
      "outputs": [
        {
          "internalType": "bool",
          "name": "",
          "type": "bool"
        }
      ],
      "stateMutability": "view",
      "type": "function"
    },
    {
      "inputs": [
        {
          "internalType": "uint256",
          "name": "tokenId",
          "type": "uint256"
        },
        {
          "internalType": "uint256",
          "name": "price",
          "type": "uint256"
        },
        {
          "internalType": "address",
          "name": "paymentToken",
          "type": "address"
        }
      ],
      "name": "listProperty",
      "outputs": [],
      "stateMutability": "nonpayable",
      "type": "function"
    },
    {
      "inputs": [
        {
          "internalType": "uint256",
          "name": "tokenId",
          "type": "uint256"
        },
        {
          "internalType": "uint256",
          "name": "price",
          "type": "uint256"
        },
        {
          "internalType": "address",
          "name": "paymentToken",
          "type": "address"
        },
        {
          "internalType": "uint256",
          "name": "confirmationPeriod",
          "type": "uint256"
        }
      ],
      "name": "listPropertyWithConfirmation",
      "outputs": [],
      "stateMutability": "nonpayable",
      "type": "function"
    },
    {
      "inputs": [
        {
          "internalType": "uint256",
          "name": "",
          "type": "uint256"
        }
      ],
      "name": "listings",
      "outputs": [
        {
          "internalType": "uint256",
          "name": "tokenId",
          "type": "uint256"
        },
        {
          "internalType": "address",
          "name": "seller",
          "type": "address"
        },
        {
          "internalType": "uint256",
          "name": "price",
          "type": "uint256"
        },
        {
          "internalType": "address",
          "name": "paymentToken",
          "type": "address"
        },
        {
          "internalType": "enum PropertyMarket.PropertyStatus",
          "name": "status",
          "type": "uint8"
        },
        {
          "internalType": "uint256",
          "name": "listTimestamp",
          "type": "uint256"
        },
        {
          "internalType": "uint256",
          "name": "lastRenewed",
          "type": "uint256"
        },
        {
          "internalType": "uint256",
          "name": "confirmationPeriod",
          "type": "uint256"
        }
      ],
      "stateMutability": "view",
      "type": "function"
    },
    {
      "inputs": [],
      "name": "multiSigOperator",
      "outputs": [
        {
          "internalType": "contract MultiSigOperator",
          "name": "",
          "type": "address"
        }
      ],
      "stateMutability": "view",
      "type": "function"
    },
    {
      "inputs": [],
      "name": "nftiContract",
      "outputs": [
        {
          "internalType": "contract IERC721",
          "name": "",
          "type": "address"
        }
      ],
      "stateMutability": "view",
      "type": "function"
    },
    {
      "inputs": [],
      "name": "nftmContract",
      "outputs": [
        {
          "internalType": "contract IERC721",
          "name": "",
          "type": "address"
        }
      ],
      "stateMutability": "view",
      "type": "function"
    },
    {
      "inputs": [],
      "name": "paused",
      "outputs": [
        {
          "internalType": "bool",
          "name": "",
          "type": "bool"
        }
      ],
      "stateMutability": "view",
      "type": "function"
    },
    {
      "inputs": [
        {
          "internalType": "uint256",
          "name": "",
          "type": "uint256"
        }
      ],
      "name": "pendingPurchases",
      "outputs": [
        {
          "internalType": "uint256",
          "name": "tokenId",
          "type": "uint256"
        },
        {
          "internalType": "address",
          "name": "buyer",
          "type": "address"
        },
        {
          "internalType": "uint256",
          "name": "offerPrice",
          "type": "uint256"
        },
        {
          "internalType": "address",
          "name": "paymentToken",
          "type": "address"
        },
        {
          "internalType": "uint256",
          "name": "purchaseTimestamp",
          "type": "uint256"
        },
        {
          "internalType": "uint256",
          "name": "confirmationDeadline",
          "type": "uint256"
        },
        {
          "internalType": "bool",
          "name": "isActive",
          "type": "bool"
        }
      ],
      "stateMutability": "view",
      "type": "function"
    },
    {
      "inputs": [
        {
          "internalType": "uint256",
          "name": "tokenId",
          "type": "uint256"
        },
        {
          "internalType": "uint256",
          "name": "bidAmount",
          "type": "uint256"
        },
        {
          "internalType": "address",
          "name": "paymentToken",
          "type": "address"
        }
      ],
      "name": "placeBid",
      "outputs": [],
      "stateMutability": "payable",
      "type": "function"
    },
    {
      "inputs": [
        {
          "internalType": "uint256",
          "name": "tokenId",
          "type": "uint256"
        },
        {
          "internalType": "uint256",
          "name": "bidAmount",
          "type": "uint256"
        },
        {
          "internalType": "address",
          "name": "paymentToken",
          "type": "address"
        }
      ],
      "name": "placeBidSecure",
      "outputs": [],
      "stateMutability": "payable",
      "type": "function"
    },
    {
      "inputs": [
        {
          "internalType": "uint256",
          "name": "tokenId",
          "type": "uint256"
        },
        {
          "internalType": "uint256",
          "name": "offerPrice",
          "type": "uint256"
        }
      ],
      "name": "purchaseProperty",
      "outputs": [],
      "stateMutability": "payable",
      "type": "function"
    },
    {
      "inputs": [
        {
          "internalType": "uint256",
          "name": "tokenId",
          "type": "uint256"
        }
      ],
      "name": "rejectPurchase",
      "outputs": [],
      "stateMutability": "nonpayable",
      "type": "function"
    },
    {
      "inputs": [
        {
          "internalType": "address",
          "name": "token",
          "type": "address"
        }
      ],
      "name": "removeAllowedToken",
      "outputs": [],
      "stateMutability": "nonpayable",
      "type": "function"
    },
    {
      "inputs": [
        {
          "internalType": "bytes32",
          "name": "role",
          "type": "bytes32"
        },
        {
          "internalType": "address",
          "name": "account",
          "type": "address"
        }
      ],
      "name": "renounceRole",
      "outputs": [],
      "stateMutability": "nonpayable",
      "type": "function"
    },
    {
      "inputs": [
        {
          "internalType": "uint256",
          "name": "tokenId",
          "type": "uint256"
        }
      ],
      "name": "requiresSellerConfirmation",
      "outputs": [
        {
          "internalType": "bool",
          "name": "",
          "type": "bool"
        }
      ],
      "stateMutability": "view",
      "type": "function"
    },
    {
      "inputs": [
        {
          "internalType": "bytes32",
          "name": "role",
          "type": "bytes32"
        },
        {
          "internalType": "address",
          "name": "account",
          "type": "address"
        }
      ],
      "name": "revokeRole",
      "outputs": [],
      "stateMutability": "nonpayable",
      "type": "function"
    },
    {
      "inputs": [],
      "name": "rewardParams",
      "outputs": [
        {
          "internalType": "uint256",
          "name": "baseRate",
          "type": "uint256"
        },
        {
          "internalType": "uint256",
          "name": "communityMultiplier",
          "type": "uint256"
        },
        {
          "internalType": "uint256",
          "name": "maxLeaseBonus",
          "type": "uint256"
        },
        {
          "internalType": "address",
          "name": "rewardsVault",
          "type": "address"
        }
      ],
      "stateMutability": "view",
      "type": "function"
    },
    {
      "inputs": [
        {
          "internalType": "address",
          "name": "_multiSigOperator",
          "type": "address"
        }
      ],
      "name": "setMultiSigOperator",
      "outputs": [],
      "stateMutability": "nonpayable",
      "type": "function"
    },
    {
      "inputs": [
        {
          "internalType": "address",
          "name": "_timelock",
          "type": "address"
        }
      ],
      "name": "setTimelock",
      "outputs": [],
      "stateMutability": "nonpayable",
      "type": "function"
    },
    {
      "inputs": [
        {
          "internalType": "bool",
          "name": "enabled",
          "type": "bool"
        }
      ],
      "name": "setTimelockEnabled",
      "outputs": [],
      "stateMutability": "nonpayable",
      "type": "function"
    },
    {
      "inputs": [
        {
          "internalType": "bool",
          "name": "enabled",
          "type": "bool"
        }
      ],
      "name": "setWhitelistEnabled",
      "outputs": [],
      "stateMutability": "nonpayable",
      "type": "function"
    },
    {
      "inputs": [
        {
          "internalType": "bytes4",
          "name": "interfaceId",
          "type": "bytes4"
        }
      ],
      "name": "supportsInterface",
      "outputs": [
        {
          "internalType": "bool",
          "name": "",
          "type": "bool"
        }
      ],
      "stateMutability": "view",
      "type": "function"
    },
    {
      "inputs": [],
      "name": "timelock",
      "outputs": [
        {
          "internalType": "contract PropertyMarketTimelock",
          "name": "",
          "type": "address"
        }
      ],
      "stateMutability": "view",
      "type": "function"
    },
    {
      "inputs": [],
      "name": "timelockEnabled",
      "outputs": [
        {
          "internalType": "bool",
          "name": "",
          "type": "bool"
        }
      ],
      "stateMutability": "view",
      "type": "function"
    },
    {
      "inputs": [
        {
          "internalType": "address",
          "name": "user",
          "type": "address"
        },
        {
          "internalType": "uint256",
          "name": "scoreDelta",
          "type": "uint256"
        },
        {
          "internalType": "bool",
          "name": "isAddition",
          "type": "bool"
        }
      ],
      "name": "updateCommunityScore",
      "outputs": [],
      "stateMutability": "nonpayable",
      "type": "function"
    },
    {
      "inputs": [
        {
          "internalType": "uint256",
          "name": "newBaseFee",
          "type": "uint256"
        },
        {
          "internalType": "address",
          "name": "newCollector",
          "type": "address"
        }
      ],
      "name": "updateFeeConfig",
      "outputs": [],
      "stateMutability": "nonpayable",
      "type": "function"
    },
    {
      "inputs": [
        {
          "internalType": "uint256",
          "name": "tokenId",
          "type": "uint256"
        },
        {
          "internalType": "uint256",
          "name": "newPrice",
          "type": "uint256"
        },
        {
          "internalType": "address",
          "name": "newPaymentToken",
          "type": "address"
        }
      ],
      "name": "updateListing",
      "outputs": [],
      "stateMutability": "nonpayable",
      "type": "function"
    },
    {
      "inputs": [
        {
          "internalType": "uint256",
          "name": "tokenId",
          "type": "uint256"
        },
        {
          "internalType": "uint256",
          "name": "newPrice",
          "type": "uint256"
        },
        {
          "internalType": "address",
          "name": "newPaymentToken",
          "type": "address"
        }
      ],
      "name": "updateListingBySeller",
      "outputs": [],
      "stateMutability": "nonpayable",
      "type": "function"
    },
    {
      "inputs": [],
      "name": "whitelistEnabled",
      "outputs": [
        {
          "internalType": "bool",
          "name": "",
          "type": "bool"
        }
      ],
      "stateMutability": "view",
      "type": "function"
    }
  ],
  "bytecode": "0x60c0604052600f805460ff60a01b1916600160a01b1790556011805460ff191660011790553480156200003157600080fd5b50604051620081043803806200810483398101604081905262000054916200041d565b60016000556002805460ff191690558282826001600160a01b038216620000c25760405162461bcd60e51b815260206004820152601d60248201527f496e76616c69642066656520636f6c6c6563746f72206164647265737300000060448201526064015b60405180910390fd5b6001600160a01b0381166200011a5760405162461bcd60e51b815260206004820152601d60248201527f496e76616c69642072657761726473207661756c7420616464726573730000006044820152606401620000b9565b6001600160a01b038316620001725760405162461bcd60e51b815260206004820152601560248201527f496e76616c69642061646d696e206164647265737300000000000000000000006044820152606401620000b9565b6200017d83620002e3565b604080516060808201835260c88083526103e860208085018290526001600160a01b039788169486018590526003929092556004818155600580546001600160a01b0319908116909617905585516080810187528281526107d081850181905261012c828901819052988a16919095018190526006929092556007939093556008959095556009805490931690941790915581518083019092528152634530303160e01b91810191909152915086166200024c5760405162461bcd60e51b8152600401620000b991906200048d565b506040805180820190915260048152634530303160e01b60208201526001600160a01b038516620002925760405162461bcd60e51b8152600401620000b991906200048d565b505060008052505060106020527f6e0956cda88cad152e89927e53611735b61a5c762d1428573c6931b0a5efcb01805460ff191660011790556001600160a01b039182166080521660a052620004dd565b620002f060008262000377565b6200031c7f97667070c54ef182b0f5858b034beac1b6f3089aa2d3188bb1e8929f4fa9b9298262000377565b620003487fb9f13ecb5e7f0f859c44b76b3a163e504787b446da95a26bf75e53e1ff4a1e0e8262000377565b620003747f6393fa734211156fcc8c7dda6b0650f5c731d4c838c1db43445a149aa2f5b6fe8262000377565b50565b60008281526001602090815260408083206001600160a01b038516845290915290205460ff16620003fc5760008281526001602081815260408084206001600160a01b0386168086529252808420805460ff19169093179092559051339285917f2f8788117e7eff1d82e926ec794901d17c78024a50270940304540a733656f0d9190a45b5050565b80516001600160a01b03811681146200041857600080fd5b919050565b600080600080600060a086880312156200043657600080fd5b620004418662000400565b9450620004516020870162000400565b9350620004616040870162000400565b9250620004716060870162000400565b9150620004816080870162000400565b90509295509295909350565b600060208083528351808285015260005b81811015620004bc578581018301518582016040015282016200049e565b506000604082860101526040601f19601f8301168501019250505092915050565b60805160a051617bb4620005506000396000610ca501526000818161081a0152818161137e0152818161195b01528181612065015281816125a10152818161272001528181613c680152818161492501528181614d660152818161501601528181615e420152615fbe0152617bb46000f3fe6080604052600436106104055760003560e01c8063887f495a11610213578063cf23913b11610123578063e58a7b31116100ab578063f2e44b181161007a578063f2e44b1814610ed5578063f5b541a614610ef5578063f70d936214610f17578063f9eaee0d14610f2c578063fb05da2e14610f4c57600080fd5b8063e58a7b3114610e5d578063e737220914610e7d578063ee5b8e0e14610e90578063f12d54d814610ec057600080fd5b8063da99baa5116100f2578063da99baa514610d53578063ddd1a5bf14610d85578063de74e57b14610dbd578063e1f1c4a714610a57578063e4e1c3fe14610e3d57600080fd5b8063cf23913b14610cdc578063d33219b414610cfc578063d547741f14610d1c578063da6ea30714610d3c57600080fd5b8063ad6561ec116101a6578063bdacb30311610175578063bdacb30314610bf8578063beb8314c14610c18578063c7921a7c14610c38578063cbb9c9a414610c93578063ce19057814610cc757600080fd5b8063ad6561ec14610b76578063b10e26a914610b89578063b320f6a914610bb7578063bb06ffaa14610bd857600080fd5b806391d14854116101e257806391d1485414610b015780639703ef3514610b21578063a217fddf14610b41578063a33b2d3f14610b5657600080fd5b8063887f495a14610a6d57806388f0bc7314610a8d5780638e7579a114610aad57806390469a9d14610ae157600080fd5b80634d24e9021161031957806365e64a05116102a15780637634691411610270578063763469141461099557806379cef8bd146109ea5780638350908014610a1757806386aa217e14610a3757806387c1394314610a5757600080fd5b806365e64a05146108e0578063697d312a1461090057806369fcc6491461093057806373c250c61461096857600080fd5b8063592eb924116102e8578063592eb924146108085780635932fdba146108545780635c975abb146108885780635dda3e01146108a05780635fa57f22146108c057600080fd5b80634d24e9021461079b5780634f843494146107bb57806351fb012d146107ce57806354b7636e146107e857600080fd5b8063248a9ca31161039c57806336568abe1161036b57806336568abe1461067257806336de0f14146106925780633b5342c31461073b5780634178617f1461075b5780634a277ec51461077b57600080fd5b8063248a9ca3146105de5780632b212e061461061d5780632f2ff15d1461063257806330cc50e71461065257600080fd5b80631276291c116103d85780631276291c1461052557806315945006146105525780631e5eb1d0146105725780631fb4d31c146105be57600080fd5b806301ffc9a71461040a578063021274151461043f578063052d9e7e146104f05780630720cb4214610512575b600080fd5b34801561041657600080fd5b5061042a610425366004617346565b610fc1565b60405190151581526020015b60405180910390f35b34801561044b57600080fd5b506104a861045a366004617370565b6000908152601360205260409020600181015460028201546003830154600484015460058501546006909501546001600160a01b0394851696939594909216939092909160ff169042831090565b604080516001600160a01b0398891681526020810197909752949096169385019390935260608401919091526080830152151560a082015290151560c082015260e001610436565b3480156104fc57600080fd5b5061051061050b366004617397565b610ff8565b005b610510610520366004617370565b611114565b34801561053157600080fd5b50610545610540366004617370565b6114fc565b6040516104369190617443565b34801561055e57600080fd5b5061051061056d36600461746b565b61169c565b34801561057e57600080fd5b5060035460045460055461059a9291906001600160a01b031683565b6040805193845260208401929092526001600160a01b031690820152606001610436565b3480156105ca57600080fd5b506105106105d936600461749b565b611848565b3480156105ea57600080fd5b5061060f6105f9366004617370565b6000908152600160208190526040909120015490565b604051908152602001610436565b34801561062957600080fd5b5061060f606481565b34801561063e57600080fd5b5061051061064d36600461746b565b611b20565b34801561065e57600080fd5b5061051061066d366004617370565b611b83565b34801561067e57600080fd5b5061051061068d36600461746b565b611f43565b34801561069e57600080fd5b506106f96106ad366004617370565b601360205260009081526040902080546001820154600283015460038401546004850154600586015460069096015494956001600160a01b039485169593949092169290919060ff1687565b604080519788526001600160a01b039687166020890152870194909452939091166060850152608084015260a0830191909152151560c082015260e001610436565b34801561074757600080fd5b50610510610756366004617370565b611fc1565b34801561076757600080fd5b506105106107763660046174d4565b6121f3565b34801561078757600080fd5b506105106107963660046174f1565b61234e565b3480156107a757600080fd5b506105106107b6366004617370565b6124fd565b6105106107c936600461751d565b61284f565b3480156107da57600080fd5b5060115461042a9060ff1681565b3480156107f457600080fd5b5061042a6108033660046174d4565b612a74565b34801561081457600080fd5b5061083c7f000000000000000000000000000000000000000000000000000000000000000081565b6040516001600160a01b039091168152602001610436565b34801561086057600080fd5b5061060f7f6393fa734211156fcc8c7dda6b0650f5c731d4c838c1db43445a149aa2f5b6fe81565b34801561089457600080fd5b5060025460ff1661042a565b3480156108ac57600080fd5b506105106108bb36600461753f565b612a81565b3480156108cc57600080fd5b506105106108db3660046175ba565b612b5c565b3480156108ec57600080fd5b506105106108fb366004617397565b612cf7565b34801561090c57600080fd5b5061042a61091b3660046174d4565b60106020526000908152604090205460ff1681565b34801561093c57600080fd5b5061060f61094b3660046175f9565b601660209081526000928352604080842090915290825290205481565b34801561097457600080fd5b5061060f6109833660046174d4565b600c6020526000908152604090205481565b3480156109a157600080fd5b506006546007546008546009546109c1939291906001600160a01b031684565b604080519485526020850193909352918301526001600160a01b03166060820152608001610436565b3480156109f657600080fd5b50610a0a610a0536600461746b565b612d5d565b6040516104369190617625565b348015610a2357600080fd5b50610510610a32366004617633565b612e67565b348015610a4357600080fd5b50610510610a5236600461749b565b6130ce565b348015610a6357600080fd5b5061060f61271081565b348015610a7957600080fd5b50610510610a8836600461749b565b613216565b348015610a9957600080fd5b50610510610aa836600461746b565b61343a565b348015610ab957600080fd5b5061060f7fb9f13ecb5e7f0f859c44b76b3a163e504787b446da95a26bf75e53e1ff4a1e0e81565b348015610aed57600080fd5b50610510610afc3660046174d4565b613566565b348015610b0d57600080fd5b5061042a610b1c36600461746b565b6136be565b348015610b2d57600080fd5b50610510610b3c366004617370565b6136e9565b348015610b4d57600080fd5b5061060f600081565b348015610b6257600080fd5b50610510610b7136600461766a565b613a03565b610510610b8436600461749b565b613ab9565b348015610b9557600080fd5b50610ba9610ba43660046174f1565b614325565b6040516104369291906176a1565b348015610bc357600080fd5b50600f5461042a90600160a01b900460ff1681565b348015610be457600080fd5b50600f5461083c906001600160a01b031681565b348015610c0457600080fd5b50610510610c133660046174d4565b61456f565b348015610c2457600080fd5b5061060f610c333660046175f9565b614652565b348015610c4457600080fd5b50610c58610c5336600461751d565b6146a9565b604080519687526001600160a01b039586166020880152860193909352921660608401526080830191909152151560a082015260c001610436565b348015610c9f57600080fd5b5061083c7f000000000000000000000000000000000000000000000000000000000000000081565b348015610cd357600080fd5b5061051061470c565b348015610ce857600080fd5b50610510610cf73660046176c3565b61471f565b348015610d0857600080fd5b50600e5461083c906001600160a01b031681565b348015610d2857600080fd5b50610510610d3736600461746b565b61474b565b348015610d4857600080fd5b5061060f6201518081565b348015610d5f57600080fd5b5061042a610d6e366004617370565b600090815260126020526040902060060154151590565b348015610d9157600080fd5b5061060f610da036600461746b565b601560209081526000928352604080842090915290825290205481565b348015610dc957600080fd5b50610e29610dd8366004617370565b601260205260009081526040902080546001820154600283015460038401546004850154600586015460069096015494956001600160a01b03948516959394831693600160a01b90930460ff169288565b604051610436989796959493929190617720565b348015610e4957600080fd5b50610510610e583660046174d4565b6147ae565b348015610e6957600080fd5b50610510610e78366004617772565b614891565b610510610e8b36600461749b565b614e67565b348015610e9c57600080fd5b5061042a610eab366004617370565b600d6020526000908152604090205460ff1681565b348015610ecc57600080fd5b5061051061546c565b348015610ee157600080fd5b50610510610ef0366004617370565b61547f565b348015610f0157600080fd5b5061060f600080516020617b5f83398151915281565b348015610f2357600080fd5b5060035461060f565b348015610f3857600080fd5b5061042a610f473660046174d4565b6155dc565b348015610f5857600080fd5b50610faf610f67366004617370565b600090815260126020526040902060018101546002820154600383015460048401546006909401546001600160a01b0393841695929493821693600160a01b90920460ff1692565b604051610436969594939291906177c8565b60006001600160e01b03198216637965db0b60e01b1480610ff257506301ffc9a760e01b6001600160e01b03198316145b92915050565b600f54600160a01b900460ff16801561101b5750600e546001600160a01b031615155b1561107657600e546040805180820190915260048152634536303160e01b6020820152906001600160a01b031633146110705760405162461bcd60e51b8152600401611067919061782c565b60405180910390fd5b506110cb565b61108e600080516020617b5f833981519152336136be565b60405180604001604052806004815260200163229a181960e11b815250906110c95760405162461bcd60e51b8152600401611067919061782c565b505b6011805460ff191682151590811790915560405190815233907f49d3b7603127f47657003ec050b7aeb0d61d8261082d7807be013894e89373fd9060200160405180910390a250565b61111c615610565b600081815260126020526040902060046003820154600160a01b900460ff16600581111561114c5761114c6176e8565b1460405180604001604052806004815260200163114d4c0d60e21b815250906111885760405162461bcd60e51b8152600401611067919061782c565b50336000908152601660209081526040808320858452909152902054806111e75760405162461bcd60e51b8152602060048201526013602482015272139bc81858dd1a5d9948189a5908199bdd5b99606a1b6044820152606401611067565b6000838152601460205260408120611200600184617875565b8154811061121057611210617888565b60009182526020909120600690910201600581015490915060ff1661126b5760405162461bcd60e51b8152602060048201526011602482015270426964206973206e6f742061637469766560781b6044820152606401611067565b60018101546001600160a01b031633146112b65760405162461bcd60e51b815260206004820152600c60248201526b139bdd081e5bdd5c88189a5960a21b6044820152606401611067565b60038101546001600160a01b0316156113025760405162461bcd60e51b815260206004820152600e60248201526d139bdd08185b8811551208189a5960921b6044820152606401611067565b80600201543410156113265760405162461bcd60e51b81526004016110679061789e565b6003838101805460ff60a01b1916600160a11b1790556001840154600283015491830154611362926001600160a01b0392831692339216615669565b6001830154604051635c46a7ef60e11b81526001600160a01b037f000000000000000000000000000000000000000000000000000000000000000081169263b88d4fde926113bb929190911690339089906004016178cd565b600060405180830381600087803b1580156113d557600080fd5b505af11580156113e9573d6000803e3d6000fd5b5050505060008160020154346113ff9190617875565b9050801561149157604051600090339083908381818185875af1925050503d8060008114611449576040519150601f19603f3d011682016040523d82523d6000602084013e61144e565b606091505b505090508060405180604001604052806004815260200163114ccc0d60e21b8152509061148e5760405162461bcd60e51b8152600401611067919061782c565b50505b600184015460028301546003840154604080519283526001600160a01b0391821660208401523393919091169188917ffd9d7289c0b47546fff41663663c2372aa45809b7ab87d908e443a3821cb5b4e910160405180910390a4505050506114f96001600055565b50565b6000818152601460205260408120805460609290815b818110156115575783818154811061152c5761152c617888565b600091825260209091206005600690920201015460ff161561154f578260010192505b600101611512565b508167ffffffffffffffff81111561157157611571617900565b6040519080825280602002602001820160405280156115aa57816020015b61159761728e565b81526020019060019003908161158f5790505b5093506000805b82811015611692578481815481106115cb576115cb617888565b600091825260209091206005600690920201015460ff161561168a578481815481106115f9576115f9617888565b60009182526020918290206040805160c08101825260069093029091018054835260018101546001600160a01b0390811694840194909452600281015491830191909152600381015490921660608201526004820154608082015260059091015460ff16151560a0820152865187908490811061167857611678617888565b60200260200101819052508160010191505b6001016115b1565b5050505050919050565b6116a76000336136be565b6116c35760405162461bcd60e51b815260040161106790617916565b6001600160a01b0381166117155760405162461bcd60e51b8152602060048201526019602482015278496e76616c696420726563697069656e74206164647265737360381b6044820152606401611067565b478211156117655760405162461bcd60e51b815260206004820152601d60248201527f496e73756666696369656e7420636f6e74726163742062616c616e63650000006044820152606401611067565b6000816001600160a01b03168360405160006040518083038185875af1925050503d80600081146117b2576040519150601f19603f3d011682016040523d82523d6000602084013e6117b7565b606091505b50509050806117fe5760405162461bcd60e51b8152602060048201526013602482015272115512081d1c985b9cd9995c8819985a5b1959606a1b6044820152606401611067565b604080518481524260208201526001600160a01b0384169133917f873da158b95a7e5e83e2f84a94eeadadc115c324112605ca1819b276b3b035fa910160405180910390a3505050565b8160008111604051806040016040528060048152602001634530303360e01b815250906118885760405162461bcd60e51b8152600401611067919061782c565b5081611893816155dc565b604051806040016040528060048152602001634533303160e01b815250906118ce5760405162461bcd60e51b8152600401611067919061782c565b506000858152601260205260408120906003820154600160a01b900460ff1660058111156118fe576118fe6176e8565b14604051806040016040528060048152602001634531303360e01b8152509061193a5760405162461bcd60e51b8152600401611067919061782c565b506040516331a9108f60e11b81526004810187905233906001600160a01b037f00000000000000000000000000000000000000000000000000000000000000001690636352211e90602401602060405180830381865afa1580156119a2573d6000803e3d6000fd5b505050506040513d601f19601f820116820180604052508101906119c69190617957565b6001600160a01b031614604051806040016040528060048152602001634531303560e01b81525090611a0b5760405162461bcd60e51b8152600401611067919061782c565b50600181015433906001600160a01b03168114611a40576001820180546001600160a01b0319166001600160a01b0383161790555b600282018054600384018054928990556001600160a01b038881166001600160a01b03198516179091554260058601556040519192169089907fb82cb8d1ee5aa2af90399f2b0ece446b81a5f1e601da16a2a2b62dfcc8bb4ba390611aba908b908b909182526001600160a01b0316602082015260400190565b60405180910390a260408051838152602081018a90526001600160a01b03838116828401528916606082015290518a917f365e79fa1534844b39f485cadfcee4d3132fe10f0ed8c862d07affd19ec72597919081900360800190a2505050505050505050565b60008281526001602081905260409091200154611b3c816156a0565b611b4683836156aa565b60405133906001600160a01b0384169085907fb754d28367d5b086c81243c886ead0839c92cb5f281e492d7159800bc57d3c1790600090a4505050565b600081815260146020526040812080549091819003611ba157505050565b6000805b82811015611bfb57838181548110611bbf57611bbf617888565b600091825260209091206005600690920201015460ff1615611be95781611be581617974565b9250505b80611bf381617974565b915050611ba5565b50818103611c095750505050565b60008167ffffffffffffffff811115611c2457611c24617900565b604051908082528060200260200182016040528015611c5d57816020015b611c4a61728e565b815260200190600190039081611c425790505b5090506000805b84811015611e0657858181548110611c7e57611c7e617888565b600091825260209091206005600690920201015460ff1615611da257858181548110611cac57611cac617888565b60009182526020918290206040805160c08101825260069093029091018054835260018101546001600160a01b0390811694840194909452600281015491830191909152600381015490921660608201526004820154608082015260059091015460ff16151560a08201528351849084908110611d2b57611d2b617888565b6020908102919091010152611d4182600161798d565b60166000888481548110611d5757611d57617888565b60009182526020808320600160069093020191909101546001600160a01b0316835282810193909352604091820181208b825290925290205581611d9a81617974565b925050611df4565b600060166000888481548110611dba57611dba617888565b60009182526020808320600160069093020191909101546001600160a01b0316835282810193909352604091820181208b82529092529020555b80611dfe81617974565b915050611c64565b506000868152601460205260408120611e1e916172d8565b60005b83811015611eef5760008781526014602052604090208351849083908110611e4b57611e4b617888565b60209081029190910181015182546001818101855560009485529383902082516006909202019081559181015192820180546001600160a01b039485166001600160a01b031991821617909155604082015160028401556060820151600384018054919095169116179092556080820151600482015560a0909101516005909101805491151560ff1990921691909117905580611ee781617974565b915050611e21565b506000611efc8486617875565b604080518281526020810187905291925088917fb20e831eea4dfd173b84e018d72b80e43743f15bb8bf203ccfb5a93c775e83cd910160405180910390a250505050505050565b6001600160a01b0381163314611fb35760405162461bcd60e51b815260206004820152602f60248201527f416363657373436f6e74726f6c3a2063616e206f6e6c792072656e6f756e636560448201526e103937b632b9903337b91039b2b63360891b6064820152608401611067565b611fbd82826156d0565b5050565b611fc9615610565b6000818152601260209081526040808320601390925290912060056003830154600160a01b900460ff166005811115612004576120046176e8565b146120215760405162461bcd60e51b8152600401611067906179a0565b600681015460ff166120455760405162461bcd60e51b8152600401611067906179cd565b6040516331a9108f60e11b81526004810184905233906001600160a01b037f00000000000000000000000000000000000000000000000000000000000000001690636352211e90602401602060405180830381865afa1580156120ac573d6000803e3d6000fd5b505050506040513d601f19601f820116820180604052508101906120d09190617957565b6001600160a01b0316146121175760405162461bcd60e51b815260206004820152600e60248201526d2737ba103a34329039b2b63632b960911b6044820152606401611067565b806005015442111561216b5760405162461bcd60e51b815260206004820152601b60248201527f436f6e6669726d6174696f6e20706572696f64206578706972656400000000006044820152606401611067565b61217483615737565b60068101805460ff191690556003828101805460ff60a01b191690556001820154600283015491830154604080519384526001600160a01b039182166020850152911691339186917f169f4a3ba12c6cb7dd9ca078caa865c56a1c042ccf0771ae9cf33bbfb2b3699c910160405180910390a450506114f96001600055565b600f54600160a01b900460ff1680156122165750600e546001600160a01b031615155b1561226857600e546040805180820190915260048152634536303160e01b6020820152906001600160a01b031633146122625760405162461bcd60e51b8152600401611067919061782c565b506122bd565b612280600080516020617b5f833981519152336136be565b60405180604001604052806004815260200163229a181960e11b815250906122bb5760405162461bcd60e51b8152600401611067919061782c565b505b6040805180820190915260048152634530303160e01b60208201526001600160a01b0382166122ff5760405162461bcd60e51b8152600401611067919061782c565b506001600160a01b038116600081815260106020526040808220805460ff19166001179055513392917fb96e353e41685d2c0c71657628655373417f3980dc2e6244ef705db758401d5391a350565b7f6393fa734211156fcc8c7dda6b0650f5c731d4c838c1db43445a149aa2f5b6fe612378816156a0565b6009546001600160a01b03166123c85760405162461bcd60e51b815260206004820152601560248201527414995dd85c991cc81d985d5b1d081b9bdd081cd95d605a1b6044820152606401611067565b6107d084111561240b5760405162461bcd60e51b815260206004820152600e60248201526d426173652072617465203e32302560901b6044820152606401611067565b6107d083111561244f5760405162461bcd60e51b815260206004820152600f60248201526e4d756c7469706c696572203e32302560881b6044820152606401611067565b6101f48211156124935760405162461bcd60e51b815260206004820152600f60248201526e4c6561736520626f6e7573203e352560881b6044820152606401611067565b600680546007805492879055859055600884905560408051828152602081018890529081018390526060810186905290919033907fdf3827857cf8ac45829164bd76e2950687437e15ff8543f477ae73691ee013b1906080015b60405180910390a2505050505050565b612505615610565b6000818152601260209081526040808320601390925290912060056003830154600160a01b900460ff166005811115612540576125406176e8565b1461255d5760405162461bcd60e51b8152600401611067906179a0565b600681015460ff166125815760405162461bcd60e51b8152600401611067906179cd565b6040516331a9108f60e11b81526004810184905233906001600160a01b037f00000000000000000000000000000000000000000000000000000000000000001690636352211e90602401602060405180830381865afa1580156125e8573d6000803e3d6000fd5b505050506040513d601f19601f8201168201806040525081019061260c9190617957565b6001600160a01b0316146126535760405162461bcd60e51b815260206004820152600e60248201526d2737ba103a34329039b2b63632b960911b6044820152606401611067565b80600501544211156126a75760405162461bcd60e51b815260206004820152601b60248201527f436f6e6669726d6174696f6e20706572696f64206578706972656400000000006044820152606401611067565b60068101805460ff1916905560038201805460ff60a01b1916600160a11b1790556126d1836158bb565b60018083015490820154600283015460038401546126ff936001600160a01b03908116938116929116615669565b60018083015490820154604051635c46a7ef60e11b81526001600160a01b037f000000000000000000000000000000000000000000000000000000000000000081169363b88d4fde9361275c9391831692169088906004016178cd565b600060405180830381600087803b15801561277657600080fd5b505af115801561278a573d6000803e3d6000fd5b50505050600181015460028201546003830154604080519283526001600160a01b039182166020840152921691339186917fc4d8fb2275c93c56fd522198d6aafa5d878346cfddb3fe34a028a115f965fea7910160405180910390a4600181015460028201546003830154604080516001600160a01b0394851681526020810193909352921681830152905184917f5be1cef2101afbbf72fccd811a15ccfdedc8c44b5f50934100f262ffcd9a1f06919081900360600190a250506114f96001600055565b612857615610565b604051632a5bb1b760e11b815233600482015230906354b7636e90602401602060405180830381865afa158015612892573d6000803e3d6000fd5b505050506040513d601f19601f820116820180604052508101906128b691906179fa565b604051806040016040528060048152602001634534303360e01b815250906128f15760405162461bcd60e51b8152600401611067919061782c565b508060008111604051806040016040528060048152602001634530303360e01b815250906129325760405162461bcd60e51b8152600401611067919061782c565b506000838152601260205260408120906003820154600160a01b900460ff166005811115612962576129626176e8565b14604051806040016040528060048152602001634531303160e01b8152509061299e5760405162461bcd60e51b8152600401611067919061782c565b50600281015460038201546129bf919085906001600160a01b031687615a51565b604051806040016040528060048152602001634530303560e01b815250906129fa5760405162461bcd60e51b8152600401611067919061782c565b506000612a0685615ac3565b90506000808211612a1b578260020154612a1d565b845b600684015490915015612a4a576003830154612a4590879083906001600160a01b0316615b7c565b612a66565b6003830154612a6690879083906001600160a01b031685615de0565b50505050611fbd6001600055565b6000610ff2600a83615f4f565b7fb9f13ecb5e7f0f859c44b76b3a163e504787b446da95a26bf75e53e1ff4a1e0e612aab816156a0565b8260005b81811015612b54576000868683818110612acb57612acb617888565b9050602002016020810190612ae091906174d4565b90508415612af957612af3600a82615f74565b50612b06565b612b04600a82615f89565b505b806001600160a01b03167f2df1cad2a2659e001c3804c872f69655356013e35c18c2e77a5d568078ab788f86604051612b43911515815260200190565b60405180910390a250600101612aaf565b505050505050565b612b64615610565b604051632a5bb1b760e11b815233600482015230906354b7636e90602401602060405180830381865afa158015612b9f573d6000803e3d6000fd5b505050506040513d601f19601f82011682018060405250810190612bc391906179fa565b604051806040016040528060048152602001634534303360e01b81525090612bfe5760405162461bcd60e51b8152600401611067919061782c565b5081612c09816155dc565b604051806040016040528060048152602001634533303160e01b81525090612c445760405162461bcd60e51b8152600401611067919061782c565b508360008111604051806040016040528060048152602001634530303360e01b81525090612c855760405162461bcd60e51b8152600401611067919061782c565b5062093a80831115612cd95760405162461bcd60e51b815260206004820152601c60248201527f436f6e6669726d6174696f6e20706572696f6420746f6f206c6f6e67000000006044820152606401611067565b612ce586868686615f9e565b5050612cf16001600055565b50505050565b6000612d02816156a0565b600f8054831515600160a01b0260ff60a01b1990911617905560405133907f6b7186792d5e895ec121b3a1454de4f60b0c25e482b951b875ab0d2be6eee9ed90612d5190851515815260200190565b60405180910390a25050565b612d6561728e565b6001600160a01b038216600090815260166020908152604080832086845290915281205490819003612dca5750506040805160c081018252600080825260208201819052918101829052606081018290526080810182905260a0810191909152610ff2565b6000848152601460205260409020612de3600183617875565b81548110612df357612df3617888565b60009182526020918290206040805160c08101825260069093029091018054835260018101546001600160a01b0390811694840194909452600281015491830191909152600381015490921660608201526004820154608082015260059091015460ff16151560a082015291505092915050565b612e726000336136be565b612e8e5760405162461bcd60e51b815260040161106790617916565b6001600160a01b038316612edc5760405162461bcd60e51b8152602060048201526015602482015274496e76616c696420746f6b656e206164647265737360581b6044820152606401611067565b6001600160a01b038116612f2e5760405162461bcd60e51b8152602060048201526019602482015278496e76616c696420726563697069656e74206164647265737360381b6044820152606401611067565b6040516370a0823160e01b815230600482015283906001600160a01b038216906370a0823190602401602060405180830381865afa158015612f74573d6000803e3d6000fd5b505050506040513d601f19601f82011682018060405250810190612f989190617a17565b831115612fe75760405162461bcd60e51b815260206004820152601a60248201527f496e73756666696369656e7420746f6b656e2062616c616e63650000000000006044820152606401611067565b60405163a9059cbb60e01b81526001600160a01b038381166004830152602482018590526000919083169063a9059cbb906044016020604051808303816000875af115801561303a573d6000803e3d6000fd5b505050506040513d601f19601f8201168201806040525081019061305e91906179fa565b90508061307d5760405162461bcd60e51b815260040161106790617a30565b604080518581524260208201526001600160a01b03808616929088169133917f697199019ab5f64598c01f2d56c602bfcbd573ec78f7b903d5fc64c2e63b3c87910160405180910390a45050505050565b6130d6615610565b604051632a5bb1b760e11b815233600482015230906354b7636e90602401602060405180830381865afa158015613111573d6000803e3d6000fd5b505050506040513d601f19601f8201168201806040525081019061313591906179fa565b604051806040016040528060048152602001634534303360e01b815250906131705760405162461bcd60e51b8152600401611067919061782c565b508061317b816155dc565b604051806040016040528060048152602001634533303160e01b815250906131b65760405162461bcd60e51b8152600401611067919061782c565b508260008111604051806040016040528060048152602001634530303360e01b815250906131f75760405162461bcd60e51b8152600401611067919061782c565b506132058585856000615f9e565b50506132116001600055565b505050565b600f54600160a01b900460ff1680156132395750600e546001600160a01b031615155b1561328b57600e546040805180820190915260048152634536303160e01b6020820152906001600160a01b031633146132855760405162461bcd60e51b8152600401611067919061782c565b506132e0565b6132a3600080516020617b5f833981519152336136be565b60405180604001604052806004815260200163229a181960e11b815250906132de5760405162461bcd60e51b8152600401611067919061782c565b505b6000838152601260205260408120906003820154600160a01b900460ff16600581111561330f5761330f6176e8565b14604051806040016040528060048152602001634531303360e01b8152509061334b5760405162461bcd60e51b8152600401611067919061782c565b50604080518082019091526004815263114c4c0d60e21b6020820152836133855760405162461bcd60e51b8152600401611067919061782c565b5061338f826155dc565b604051806040016040528060048152602001634533303160e01b815250906133ca5760405162461bcd60e51b8152600401611067919061782c565b50600281018390556003810180546001600160a01b0319166001600160a01b03841690811790915542600583015560408051858152602081019290925285917fb82cb8d1ee5aa2af90399f2b0ece446b81a5f1e601da16a2a2b62dfcc8bb4ba3910160405180910390a250505050565b600080516020617b5f833981519152613452816156a0565b6001600160a01b0382166134a85760405162461bcd60e51b815260206004820152601d60248201527f496e76616c69642066656520636f6c6c6563746f7220616464726573730000006044820152606401611067565b6004548311156134ec5760405162461bcd60e51b815260206004820152600f60248201526e45786365656473206d61782066656560881b6044820152606401611067565b6003805460045491859055600580546001600160a01b0319166001600160a01b03861617905560408051828152602081018790529081018390526060810183905290919033907f7c08ec61bfdc4469c5f8ec2332c513ac1e0980475856efedf21da749334854479060800160405180910390a25050505050565b600f54600160a01b900460ff1680156135895750600e546001600160a01b031615155b156135db57600e546040805180820190915260048152634536303160e01b6020820152906001600160a01b031633146135d55760405162461bcd60e51b8152600401611067919061782c565b50613630565b6135f3600080516020617b5f833981519152336136be565b60405180604001604052806004815260200163229a181960e11b8152509061362e5760405162461bcd60e51b8152600401611067919061782c565b505b6040805180820190915260048152634530303160e01b60208201526001600160a01b0382166136725760405162461bcd60e51b8152600401611067919061782c565b506001600160a01b038116600081815260106020526040808220805460ff19169055513392917ff26a45171a2cee53dc4409f66880ab4bd14f52dc6412965780895ca64abfa92391a350565b60009182526001602090815260408084206001600160a01b0393909316845291905290205460ff1690565b6136f1615610565b33600090815260166020908152604080832084845282529182902054825180840190935260048352634532303160e01b9183019190915290816137475760405162461bcd60e51b8152600401611067919061782c565b506000828152601460205260408120613761600184617875565b8154811061377157613771617888565b906000526020600020906006020190508060050160009054906101000a900460ff16604051806040016040528060048152602001632299181960e11b815250906137ce5760405162461bcd60e51b8152600401611067919061782c565b5060018101546040805180820190915260048152634532303360e01b6020820152906001600160a01b031633146138185760405162461bcd60e51b8152600401611067919061782c565b506002810154600382015460058301805460ff191690553360009081526016602090815260408083208884529091528120556001600160a01b0316806138e657604051600090339084908381818185875af1925050503d806000811461389a576040519150601f19603f3d011682016040523d82523d6000602084013e61389f565b606091505b5050905080604051806040016040528060048152602001634533303360e01b815250906138df5760405162461bcd60e51b8152600401611067919061782c565b505061399e565b60405163a9059cbb60e01b81523360048201526024810183905281906000906001600160a01b0383169063a9059cbb906044016020604051808303816000875af1158015613938573d6000803e3d6000fd5b505050506040513d601f19601f8201168201806040525081019061395c91906179fa565b90508060405180604001604052806004815260200163114c0c0d60e21b8152509061399a5760405162461bcd60e51b8152600401611067919061782c565b5050505b600085815260146020526040902054606410156139be576139be85616228565b604051828152339086907faf2f02012ea1953fe9293dd4a8bb5194c96792324f9385297c991c2cfeade3d99060200160405180910390a3505050506114f96001600055565b600080516020617b5f833981519152613a1b816156a0565b6001600160a01b0384166000908152600c6020526040812054908315613a4c57613a45858361798d565b9050613a67565b848211613a5a576000613a64565b613a648583617875565b90505b6001600160a01b0386166000818152600c602090815260409182902084905581518581529081018490527f7681c9bc4703daadfdfbfae0bd1c828b4619e58101f0e8a5404f70e93c62866391016124ed565b613ac1615610565b604051632a5bb1b760e11b815233600482015230906354b7636e90602401602060405180830381865afa158015613afc573d6000803e3d6000fd5b505050506040513d601f19601f82011682018060405250810190613b2091906179fa565b604051806040016040528060048152602001634534303360e01b81525090613b5b5760405162461bcd60e51b8152600401611067919061782c565b5080613b66816155dc565b604051806040016040528060048152602001634533303160e01b81525090613ba15760405162461bcd60e51b8152600401611067919061782c565b508260008111604051806040016040528060048152602001634530303360e01b81525090613be25760405162461bcd60e51b8152600401611067919061782c565b506000858152601260205260408120906003820154600160a01b900460ff166005811115613c1257613c126176e8565b14604051806040016040528060048152602001634531303360e01b81525090613c4e5760405162461bcd60e51b8152600401611067919061782c565b506040516331a9108f60e11b8152600481018790526000907f00000000000000000000000000000000000000000000000000000000000000006001600160a01b031690636352211e90602401602060405180830381865afa158015613cb7573d6000803e3d6000fd5b505050506040513d601f19601f82011682018060405250810190613cdb9190617957565b6040805180820190915260048152632298181960e11b60208201529091506001600160a01b0382163303613d225760405162461bcd60e51b8152600401611067919061782c565b503360009081526016602090815260408083208a84529091529020546001600160a01b038616613d8d576040805180820190915260048152634532303760e01b6020820152348814613d875760405162461bcd60e51b8152600401611067919061782c565b50613ed5565b604051636eb1769f60e11b8152336004820152306024820152869088906001600160a01b0383169063dd62ed3e90604401602060405180830381865afa158015613ddb573d6000803e3d6000fd5b505050506040513d601f19601f82011682018060405250810190613dff9190617a17565b10156040518060400160405280600481526020016308a6460760e31b81525090613e3c5760405162461bcd60e51b8152600401611067919061782c565b506040516323b872dd60e01b81526000906001600160a01b038316906323b872dd90613e7090339030908e90600401617a5f565b6020604051808303816000875af1158015613e8f573d6000803e3d6000fd5b505050506040513d601f19601f82011682018060405250810190613eb391906179fa565b905080613ed25760405162461bcd60e51b815260040161106790617a30565b50505b8260020154871015604051806040016040528060048152602001632299181b60e11b81525090613f185760405162461bcd60e51b8152600401611067919061782c565b506000888152601460205260408120815b8154811015613fc757818181548110613f4457613f44617888565b600091825260209091206005600690920201015460ff168015613f89575082828281548110613f7557613f75617888565b906000526020600020906006020160020154115b15613fb557818181548110613fa057613fa0617888565b90600052602060002090600602016002015492505b80613fbf81617974565b915050613f29565b50811561400f576040805180820190915260048152634532303560e01b60208201528290818b101561400c5760405162461bcd60e51b8152600401611067919061782c565b50505b821561413f5760008a815260146020526040812061402e600186617875565b8154811061403e5761403e617888565b906000526020600020906006020190508060050160009054906101000a900460ff16604051806040016040528060048152602001632299181960e11b8152509061409b5760405162461bcd60e51b8152600401611067919061782c565b5060038101546040805180820190915260048152632299981960e11b6020820152906001600160a01b038b81169116146140e85760405162461bcd60e51b8152600401611067919061782c565b5060028101546040805180820190915260048152634532303560e01b6020820152818c101561412a5760405162461bcd60e51b8152600401611067919061782c565b5050600281018a9055426004909101556142af565b60006040518060c001604052808c8152602001336001600160a01b031681526020018b81526020018a6001600160a01b03168152602001428152602001600115158152509050601460008c81526020019081526020016000208190806001815401808255809150506001900390600052602060002090600602016000909190919091506000820151816000015560208201518160010160006101000a8154816001600160a01b0302191690836001600160a01b031602179055506040820151816002015560608201518160030160006101000a8154816001600160a01b0302191690836001600160a01b031602179055506080820151816004015560a08201518160050160006101000a81548160ff0219169083151502179055505050601460008c81526020019081526020016000208054905060166000336001600160a01b03166001600160a01b0316815260200190815260200160002060008d815260200190815260200160002081905550505b60008a815260146020526040902054606410156142cf576142cf8a616228565b604080518a81526001600160a01b038a16602082015233918c917fe30abccebb20a387be8e75e927d7e06ce1bf9d77bb3888516663bdc8995fb334910160405180910390a3505050505050506132116001600055565b600083815260146020526040812060609190815b81548110156143905781818154811061435457614354617888565b600091825260209091206005600690920201015460ff161561437e578261437a81617974565b9350505b8061438881617974565b915050614339565b50838286106143d45760408051600080825260208201909252906143ca565b6143b761728e565b8152602001906001900390816143af5790505b5093505050614567565b826143df868861798d565b11156143f2576143ef8684617875565b90505b8067ffffffffffffffff81111561440b5761440b617900565b60405190808252806020026020018201604052801561444457816020015b61443161728e565b8152602001906001900390816144295790505b50935060008060005b84548110801561445c57508382105b156145615784818154811061447357614473617888565b600091825260209091206005600690920201015460ff161561454f57888310614541578481815481106144a8576144a8617888565b60009182526020918290206040805160c08101825260069093029091018054835260018101546001600160a01b0390811694840194909452600281015491830191909152600381015490921660608201526004820154608082015260059091015460ff16151560a0820152875188908490811061452757614527617888565b6020026020010181905250818061453d90617974565b9250505b8261454b81617974565b9350505b8061455981617974565b91505061444d565b50505050505b935093915050565b600061457a816156a0565b6040805180820190915260048152634536303360e01b60208201526001600160a01b0383166145bc5760405162461bcd60e51b8152600401611067919061782c565b50600e546040805180820190915260048152634536303160e01b6020820152906001600160a01b0316156146035760405162461bcd60e51b8152600401611067919061782c565b50600e80546001600160a01b0319166001600160a01b0384169081179091556040513391907fb4fc4300b631bd1445d18184e73a1ecd94175d060825df1e146d0911c42acb0a90600090a35050565b60008061465e60085490565b9050600061466b85616594565b90506127108183600660000154614682919061798d565b61468c919061798d565b6146969086617a83565b6146a09190617a9a565b95945050505050565b601460205281600052604060002081815481106146c557600080fd5b60009182526020909120600690910201805460018201546002830154600384015460048501546005909501549396506001600160a01b039283169550909391169160ff1686565b6000614717816156a0565b6114f96165c6565b600061472a816156a0565b506000918252600d6020526040909120805460ff1916911515919091179055565b60008281526001602081905260409091200154614767816156a0565b6147718383616618565b60405133906001600160a01b0384169085907f77a3124d5a7fb118ef3bd073fd7ee2c762b24256db96ace524ecd6b6cf11415c90600090a4505050565b60006147b9816156a0565b604080518082019091526004815263114d8c0d60e21b60208201526001600160a01b0383166147fb5760405162461bcd60e51b8152600401611067919061782c565b50600f54604080518082019091526004815263229b181960e11b6020820152906001600160a01b0316156148425760405162461bcd60e51b8152600401611067919061782c565b50600f80546001600160a01b0319166001600160a01b0384169081179091556040513391907fe1eede6bce3720ed4c962837ca0dd532e60f714cea94bf6a692aae7d8336f22490600090a35050565b614899615610565b6000858152601260205260408120906003820154600160a01b900460ff1660058111156148c8576148c86176e8565b14604051806040016040528060048152602001634531303360e01b815250906149045760405162461bcd60e51b8152600401611067919061782c565b506040516331a9108f60e11b81526004810187905233906001600160a01b037f00000000000000000000000000000000000000000000000000000000000000001690636352211e90602401602060405180830381865afa15801561496c573d6000803e3d6000fd5b505050506040513d601f19601f820116820180604052508101906149909190617957565b6001600160a01b031614604051806040016040528060048152602001634531303560e01b815250906149d55760405162461bcd60e51b8152600401611067919061782c565b5060018101546001600160a01b031633146149ff576001810180546001600160a01b031916331790555b604080518082019091526004815263229a981960e11b602082015285614a385760405162461bcd60e51b8152600401611067919061782c565b506000868152601460209081526040918290205482518084019093526004835263229a981960e11b91830191909152861115614a875760405162461bcd60e51b8152600401611067919061782c565b506000868152601460209081526040918290205482518084019093526004835263114d4c0d60e21b91830191909152614ad35760405162461bcd60e51b8152600401611067919061782c565b506000868152601460205260408120614aed600188617875565b81548110614afd57614afd617888565b906000526020600020906006020190508060050160009054906101000a900460ff16604051806040016040528060048152602001632299181960e11b81525090614b5a5760405162461bcd60e51b8152600401611067919061782c565b5060018101546040805180820190915260048152634535303160e01b6020820152906001600160a01b03878116911614614ba75760405162461bcd60e51b8152600401611067919061782c565b5083816002015414604051806040016040528060048152602001634535303160e01b81525090614bea5760405162461bcd60e51b8152600401611067919061782c565b5060038101546040805180820190915260048152632299981960e11b6020820152906001600160a01b03858116911614614c375760405162461bcd60e51b8152600401611067919061782c565b5060038201805460ff60a01b1916600160a11b17905560058101805460ff1916905560018101546001600160a01b031660009081526016602090815260408083208a8452909152812055614c8a876158bb565b60038101546001600160a01b0316614d175760038281018054600160a21b60ff60a01b1990911617905560018281015490840154600284015492840154604080519485526001600160a01b039182166020860152928116939116918a917f959a0ee0f64c2f8cf395aa31d965f60b69bc277acc7ef191c73a891ed3fa8c72910160405180910390a4614e34565b6001808301549082015460028301546003840154614d45936001600160a01b03908116938116929116615669565b60018083015490820154604051635c46a7ef60e11b81526001600160a01b037f000000000000000000000000000000000000000000000000000000000000000081169363b88d4fde93614da2939183169216908c906004016178cd565b600060405180830381600087803b158015614dbc57600080fd5b505af1158015614dd0573d6000803e3d6000fd5b505050506001818101549083015460028301546003840154604080519283526001600160a01b039182166020840152938116939216918a917ffd9d7289c0b47546fff41663663c2372aa45809b7ab87d908e443a3821cb5b4e910160405180910390a45b60008781526014602052604090205460641015614e5457614e5487616228565b5050614e606001600055565b5050505050565b614e6f615610565b604051632a5bb1b760e11b815233600482015230906354b7636e90602401602060405180830381865afa158015614eaa573d6000803e3d6000fd5b505050506040513d601f19601f82011682018060405250810190614ece91906179fa565b604051806040016040528060048152602001634534303360e01b81525090614f095760405162461bcd60e51b8152600401611067919061782c565b5080614f14816155dc565b604051806040016040528060048152602001634533303160e01b81525090614f4f5760405162461bcd60e51b8152600401611067919061782c565b508260008111604051806040016040528060048152602001634530303360e01b81525090614f905760405162461bcd60e51b8152600401611067919061782c565b506000858152601260205260408120906003820154600160a01b900460ff166005811115614fc057614fc06176e8565b14604051806040016040528060048152602001634531303360e01b81525090614ffc5760405162461bcd60e51b8152600401611067919061782c565b506040516331a9108f60e11b8152600481018790526000907f00000000000000000000000000000000000000000000000000000000000000006001600160a01b031690636352211e90602401602060405180830381865afa158015615065573d6000803e3d6000fd5b505050506040513d601f19601f820116820180604052508101906150899190617957565b6040805180820190915260048152632298181960e11b60208201529091506001600160a01b03821633036150d05760405162461bcd60e51b8152600401611067919061782c565b508160020154861015604051806040016040528060048152602001632299181b60e11b815250906151145760405162461bcd60e51b8152600401611067919061782c565b503360009081526016602090815260408083208a84529091529020546001600160a01b03861661517f576040805180820190915260048152634532303760e01b60208201523488146151795760405162461bcd60e51b8152600401611067919061782c565b506152c7565b604051636eb1769f60e11b8152336004820152306024820152869088906001600160a01b0383169063dd62ed3e90604401602060405180830381865afa1580156151cd573d6000803e3d6000fd5b505050506040513d601f19601f820116820180604052508101906151f19190617a17565b10156040518060400160405280600481526020016308a6460760e31b8152509061522e5760405162461bcd60e51b8152600401611067919061782c565b506040516323b872dd60e01b81526000906001600160a01b038316906323b872dd9061526290339030908e90600401617a5f565b6020604051808303816000875af1158015615281573d6000803e3d6000fd5b505050506040513d601f19601f820116820180604052508101906152a591906179fa565b9050806152c45760405162461bcd60e51b815260040161106790617a30565b50505b60006152d289615ac3565b9050801561532a5760006152e6828a61663e565b905080891015604051806040016040528060048152602001634532303560e01b815250906153275760405162461bcd60e51b8152600401611067919061782c565b50505b81156153415761533c89838a8a6166db565b615417565b6154178989896040805160c0810182528481523360208083018281528385019687526001600160a01b03958616606085019081524260808601908152600160a0870181815260008c815260148752898120805480850182558183528883209a516006909102909a01998a5595519289018054938c166001600160a01b03199485161790559a516002890155925160038801805491909a169116179097559551600485015594516005909301805493151560ff19909416939093179092559254928452601681528184209484529390935291902055565b604080518981526001600160a01b038916602082015233918b917fe30abccebb20a387be8e75e927d7e06ce1bf9d77bb3888516663bdc8995fb334910160405180910390a35050505050506132116001600055565b6000615477816156a0565b6114f9616816565b615487615610565b6000818152601260209081526040808320601390925290912060056003830154600160a01b900460ff1660058111156154c2576154c26176e8565b146154df5760405162461bcd60e51b8152600401611067906179a0565b600681015460ff166155035760405162461bcd60e51b8152600401611067906179cd565b806005015442116155565760405162461bcd60e51b815260206004820152601f60248201527f436f6e6669726d6174696f6e20706572696f64206e6f742065787069726564006044820152606401611067565b61555f83615737565b60068101805460ff191690556003828101805460ff60a01b191690556001820154600283015491830154604080519384526001600160a01b03918216602085015291169185917fbe8251910ea488ea710963e46d6125213f572b38d7b96660db2a8bd1cb597cbf910160405180910390a350506114f96001600055565b60115460009060ff166155f157506001919050565b506001600160a01b031660009081526010602052604090205460ff1690565b6002600054036156625760405162461bcd60e51b815260206004820152601f60248201527f5265656e7472616e637947756172643a207265656e7472616e742063616c6c006044820152606401611067565b6002600055565b6040805160608101825260035481526005546001600160a01b0316602082015261271091810191909152614e608186868686616853565b6114f98133616913565b600082815260016020819052604090912001546156c6816156a0565b613211838361696c565b6156da82826136be565b15611fbd5760008281526001602090815260408083206001600160a01b0385168085529252808320805460ff1916905551339285917ff6391f5c32d9c69d2a47ea670b442974b53935d1edc7fd64eb21e047a839171b9190a45050565b600081815260136020526040902060038101546001600160a01b03166157f457600181015460028201546040516000926001600160a01b031691908381818185875af1925050503d80600081146157aa576040519150601f19603f3d011682016040523d82523d6000602084013e6157af565b606091505b50509050806132115760405162461bcd60e51b8152602060048201526011602482015270115512081c99599d5b990819985a5b1959607a1b6044820152606401611067565b60038101546001820154600283015460405163a9059cbb60e01b81526001600160a01b0392831660048201526024810191909152911690819063a9059cbb906044016020604051808303816000875af1158015615855573d6000803e3d6000fd5b505050506040513d601f19601f8201168201806040525081019061587991906179fa565b6132115760405162461bcd60e51b8152602060048201526013602482015272151bdad95b881c99599d5b990819985a5b1959606a1b6044820152606401611067565b6000818152601460205260408120905b8154811015613211578181815481106158e6576158e6617888565b600091825260209091206005600690920201015460ff1615615a3f57600082828154811061591657615916617888565b6000918252602082206001600690920201015484546001600160a01b03909116925084908490811061594a5761594a617888565b9060005260206000209060060201600201549050600084848154811061597257615972617888565b6000918252602082206003600690920201015486546001600160a01b0390911692508690869081106159a6576159a6617888565b60009182526020808320600692909202909101600501805460ff1916931515939093179092556001600160a01b0385168152601682526040808220898352909252908120556159f7838383896169d7565b826001600160a01b0316867faf2f02012ea1953fe9293dd4a8bb5194c96792324f9385297c991c2cfeade3d984604051615a3391815260200190565b60405180910390a35050505b80615a4981617974565b9150506158cb565b6000615a5c836155dc565b615a6857506000615abb565b6000615a7383615ac3565b90506000808211615a845786615a86565b815b90506001600160a01b038516615aaf57803410158015615aa65750808610155b92505050615abb565b8510159150615abb9050565b949350505050565b60008181526014602052604081208190815b8154811015615b7357818181548110615af057615af0617888565b600091825260209091206005600690920201015460ff168015615b35575082828281548110615b2157615b21617888565b906000526020600020906006020160020154115b15615b6157818181548110615b4c57615b4c617888565b90600052602060002090600602016002015492505b80615b6b81617974565b915050615ad5565b50909392505050565b60008381526012602052604090206001600160a01b038216615bbd5782341015615bb85760405162461bcd60e51b81526004016110679061789e565b615c50565b6040516323b872dd60e01b815282906001600160a01b038216906323b872dd90615bef90339030908990600401617a5f565b6020604051808303816000875af1158015615c0e573d6000803e3d6000fd5b505050506040513d601f19601f82011682018060405250810190615c3291906179fa565b615c4e5760405162461bcd60e51b815260040161106790617a30565b505b60038101805460ff60a01b1916600560a01b1790556006810154600090615c77904261798d565b90506040518060e00160405280868152602001336001600160a01b03168152602001858152602001846001600160a01b0316815260200142815260200182815260200160011515815250601360008781526020019081526020016000206000820151816000015560208201518160010160006101000a8154816001600160a01b0302191690836001600160a01b031602179055506040820151816002015560608201518160030160006101000a8154816001600160a01b0302191690836001600160a01b031602179055506080820151816004015560a0820151816005015560c08201518160060160006101000a81548160ff021916908315150217905550905050336001600160a01b0316857f0ede9658efe21e4a2018f9e29ffcd04fecf00cb040fd6d2597265b2f6eb0aa69868685604051615dd1939291909283526001600160a01b03919091166020830152604082015260600190565b60405180910390a35050505050565b600084815260126020526040902060038101805460ff60a01b1916600160a11b179055615e0c856158bb565b6001810154615e26906001600160a01b0316338686615669565b6001810154604051635c46a7ef60e11b81526001600160a01b037f000000000000000000000000000000000000000000000000000000000000000081169263b88d4fde92615e7f92919091169033908a906004016178cd565b600060405180830381600087803b158015615e9957600080fd5b505af1158015615ead573d6000803e3d6000fd5b505060408051338152602081018890526001600160a01b0387168183015290518893507f5be1cef2101afbbf72fccd811a15ccfdedc8c44b5f50934100f262ffcd9a1f0692509081900360600190a28115614e605760408051858152602081018490526001600160a01b03851691810191909152339086907faeec2844d1a6cc8e3d3b4b8a9e49ccfbc8ca21f8adb0ee9ec0e022df0f04a83790606001615dd1565b6001600160a01b038116600090815260018301602052604081205415155b9392505050565b6000615f6d836001600160a01b038416616b56565b6000615f6d836001600160a01b038416616ba5565b6040516331a9108f60e11b81526004810185905233906001600160a01b037f00000000000000000000000000000000000000000000000000000000000000001690636352211e90602401602060405180830381865afa158015616005573d6000803e3d6000fd5b505050506040513d601f19601f820116820180604052508101906160299190617957565b6001600160a01b031614604051806040016040528060048152602001634531303560e01b8152509061606e5760405162461bcd60e51b8152600401611067919061782c565b506000848152601260205260409020600101546001600160a01b031615806160c2575060008085815260126020526040902060030154600160a01b900460ff1660058111156160bf576160bf6176e8565b14155b604051806040016040528060048152602001632298981960e11b815250906160fd5760405162461bcd60e51b8152600401611067919061782c565b5060408051610100810182528581523360208083019182528284018781526001600160a01b03878116606086019081526000608087018181524260a0890181905260c089015260e088018a90528c82526012909552969096208551815593516001850180549183166001600160a01b0319928316179055915160028501559451600384018054919096169181168217865591519394929392916001600160a81b03191617600160a01b8360058111156161b8576161b86176e8565b021790555060a0820151600482015560c0820151600582015560e090910151600690910155604080518481526001600160a01b0384166020820152339186917f2c6c7576542d9307c65e21c836da28fc580279667ba9e8d5fe56dca491d59803910160405180910390a350505050565b60008181526014602052604081208054909181900361624657505050565b6000805b828110156162a05783818154811061626457616264617888565b600091825260209091206005600690920201015460ff161561628e578161628a81617974565b9250505b8061629881617974565b91505061624a565b508181036162ae5750505050565b60008167ffffffffffffffff8111156162c9576162c9617900565b60405190808252806020026020018201604052801561630257816020015b6162ef61728e565b8152602001906001900390816162e75790505b5090506000805b848110156164ab5785818154811061632357616323617888565b600091825260209091206005600690920201015460ff16156164475785818154811061635157616351617888565b60009182526020918290206040805160c08101825260069093029091018054835260018101546001600160a01b0390811694840194909452600281015491830191909152600381015490921660608201526004820154608082015260059091015460ff16151560a082015283518490849081106163d0576163d0617888565b60209081029190910101526163e682600161798d565b601660008884815481106163fc576163fc617888565b60009182526020808320600160069093020191909101546001600160a01b0316835282810193909352604091820181208b82529092529020558161643f81617974565b925050616499565b60006016600088848154811061645f5761645f617888565b60009182526020808320600160069093020191909101546001600160a01b0316835282810193909352604091820181208b82529092529020555b806164a381617974565b915050616309565b5060008681526014602052604081206164c3916172d8565b60005b83811015611eef57600087815260146020526040902083518490839081106164f0576164f0617888565b60209081029190910181015182546001818101855560009485529383902082516006909202019081559181015192820180546001600160a01b039485166001600160a01b031991821617909155604082015160028401556060820151600384018054919095169116179092556080820151600482015560a0909101516005909101805491151560ff199092169190911790558061658c81617974565b9150506164c6565b6001600160a01b0381166000908152600c602052604081205460075481116165bc5780615f6d565b6007549392505050565b6165ce616c98565b6002805460ff191690557f5db9ee0a495bf2e6ff9c91a7834c1ba4fdd244a5e8aa4e537bd38aeae4b073aa335b6040516001600160a01b03909116815260200160405180910390a1565b60008281526001602081905260409091200154616634816156a0565b61321183836156d0565b600080670de0b6b3a76400008410156166595750600a616675565b678ac7230489e8000084101561667157506005616675565b5060025b600061668282606461798d565b905061669081600019617a9a565b85111560405180604001604052806004815260200163229a981960e11b815250906166ce5760405162461bcd60e51b8152600401611067919061782c565b5060646146968287617a83565b60008481526014602052604081206166f4600186617875565b8154811061670457616704617888565b906000526020600020906006020190508060050160009054906101000a900460ff16604051806040016040528060048152602001632299181960e11b815250906167615760405162461bcd60e51b8152600401611067919061782c565b5060038101546040805180820190915260048152632299981960e11b6020820152906001600160a01b038481169116146167ae5760405162461bcd60e51b8152600401611067919061782c565b5060006167bf82600201548561663e565b905080841015604051806040016040528060048152602001634532303560e01b815250906168005760405162461bcd60e51b8152600401611067919061782c565b5050600281019290925550426004909101555050565b61681e616ce3565b6002805460ff191660011790557f62e78cea01bee320cd4e420270b5ea74000d11b0c9f74754ebdbfc544b05a2586165fb3390565b60408501518551600091906168689085617a83565b6168729190617a9a565b905060006168808285617875565b90506001600160a01b0383166168a7576168a286886020015183858989616d29565b6168b9565b6168b98386888a602001518587616f61565b60408051858152602081018490526001600160a01b03858116828401529151878316928916917fa496c08b103292578a04c9879f2740638414c311180dffa9d1436d3c97119923919081900360600190a350505050505050565b61691d82826136be565b611fbd5761692a816170e0565b6169358360206170f2565b604051602001616946929190617abc565b60408051601f198184030181529082905262461bcd60e51b82526110679160040161782c565b61697682826136be565b611fbd5760008281526001602081815260408084206001600160a01b0386168086529252808420805460ff19169093179092559051339285917f2f8788117e7eff1d82e926ec794901d17c78024a50270940304540a733656f0d9190a45050565b6001600160a01b038216616a8b576000846001600160a01b03168460405160006040518083038185875af1925050503d8060008114616a32576040519150601f19603f3d011682016040523d82523d6000602084013e616a37565b606091505b5050905080616a8557846001600160a01b0316827f76dcf7f6501ec52bd675dfb131e8d2d099a40be2f4c2523b37b95d9208e83f5b86604051616a7c91815260200190565b60405180910390a35b50612cf1565b60405163a9059cbb60e01b81526001600160a01b03858116600483015260248201859052839160009183169063a9059cbb906044016020604051808303816000875af1158015616adf573d6000803e3d6000fd5b505050506040513d601f19601f82011682018060405250810190616b0391906179fa565b905080612b5457856001600160a01b0316837f76dcf7f6501ec52bd675dfb131e8d2d099a40be2f4c2523b37b95d9208e83f5b87604051616b4691815260200190565b60405180910390a3505050505050565b6000818152600183016020526040812054616b9d57508154600181810184556000848152602080822090930184905584548482528286019093526040902091909155610ff2565b506000610ff2565b60008181526001830160205260408120548015616c8e576000616bc9600183617875565b8554909150600090616bdd90600190617875565b9050818114616c42576000866000018281548110616bfd57616bfd617888565b9060005260206000200154905080876000018481548110616c2057616c20617888565b6000918252602080832090910192909255918252600188019052604090208390555b8554869080616c5357616c53617b31565b600190038181906000526020600020016000905590558560010160008681526020019081526020016000206000905560019350505050610ff2565b6000915050610ff2565b60025460ff16616ce15760405162461bcd60e51b815260206004820152601460248201527314185d5cd8589b194e881b9bdd081c185d5cd95960621b6044820152606401611067565b565b60025460ff1615616ce15760405162461bcd60e51b815260206004820152601060248201526f14185d5cd8589b194e881c185d5cd95960821b6044820152606401611067565b80341015616d495760405162461bcd60e51b81526004016110679061789e565b6000866001600160a01b03168560405160006040518083038185875af1925050503d8060008114616d96576040519150601f19603f3d011682016040523d82523d6000602084013e616d9b565b606091505b5050905080616dec5760405162461bcd60e51b815260206004820152601860248201527f5061796d656e7420746f2073656c6c6572206661696c656400000000000000006044820152606401611067565b6000866001600160a01b03168560405160006040518083038185875af1925050503d8060008114616e39576040519150601f19603f3d011682016040523d82523d6000602084013e616e3e565b606091505b5050905080616e845760405162461bcd60e51b8152602060048201526012602482015271119959481c185e5b595b9d0819985a5b195960721b6044820152606401611067565b6000616e908434617875565b90508015616f56576000856001600160a01b03168261271090604051600060405180830381858888f193505050503d8060008114616eea576040519150601f19603f3d011682016040523d82523d6000602084013e616eef565b606091505b5050905080616f545760405162461bcd60e51b815260206004820152602b60248201527f526566756e64206661696c6564202d20636f6e7369646572207573696e67207060448201526a3ab636103830ba3a32b93760a91b6064820152608401611067565b505b505050505050505050565b6040516323b872dd60e01b815286906001600160a01b038216906323b872dd90616f9390899089908890600401617a5f565b6020604051808303816000875af1158015616fb2573d6000803e3d6000fd5b505050506040513d601f19601f82011682018060405250810190616fd691906179fa565b6170225760405162461bcd60e51b815260206004820152601960248201527f5472616e7366657220746f2073656c6c6572206661696c6564000000000000006044820152606401611067565b6040516323b872dd60e01b81526001600160a01b038216906323b872dd9061705290899088908790600401617a5f565b6020604051808303816000875af1158015617071573d6000803e3d6000fd5b505050506040513d601f19601f8201168201806040525081019061709591906179fa565b6170d75760405162461bcd60e51b8152602060048201526013602482015272119959481d1c985b9cd9995c8819985a5b1959606a1b6044820152606401611067565b50505050505050565b6060610ff26001600160a01b03831660145b60606000617101836002617a83565b61710c90600261798d565b67ffffffffffffffff81111561712457617124617900565b6040519080825280601f01601f19166020018201604052801561714e576020820181803683370190505b509050600360fc1b8160008151811061716957617169617888565b60200101906001600160f81b031916908160001a905350600f60fb1b8160018151811061719857617198617888565b60200101906001600160f81b031916908160001a90535060006171bc846002617a83565b6171c790600161798d565b90505b600181111561723f576f181899199a1a9b1b9c1cb0b131b232b360811b85600f16601081106171fb576171fb617888565b1a60f81b82828151811061721157617211617888565b60200101906001600160f81b031916908160001a90535060049490941c9361723881617b47565b90506171ca565b508315615f6d5760405162461bcd60e51b815260206004820181905260248201527f537472696e67733a20686578206c656e67746820696e73756666696369656e746044820152606401611067565b6040518060c001604052806000815260200160006001600160a01b031681526020016000815260200160006001600160a01b03168152602001600081526020016000151581525090565b50805460008255600602906000526020600020908101906114f991905b808211156173425760008082556001820180546001600160a01b0319908116909155600283018290556003830180549091169055600482015560058101805460ff191690556006016172f5565b5090565b60006020828403121561735857600080fd5b81356001600160e01b031981168114615f6d57600080fd5b60006020828403121561738257600080fd5b5035919050565b80151581146114f957600080fd5b6000602082840312156173a957600080fd5b8135615f6d81617389565b80518252602081015160018060a01b0380821660208501526040830151604085015280606084015116606085015250506080810151608083015260a0810151151560a08301525050565b600081518084526020808501945080840160005b83811015617438576174258783516173b4565b60c0969096019590820190600101617412565b509495945050505050565b602081526000615f6d60208301846173fe565b6001600160a01b03811681146114f957600080fd5b6000806040838503121561747e57600080fd5b82359150602083013561749081617456565b809150509250929050565b6000806000606084860312156174b057600080fd5b833592506020840135915060408401356174c981617456565b809150509250925092565b6000602082840312156174e657600080fd5b8135615f6d81617456565b60008060006060848603121561750657600080fd5b505081359360208301359350604090920135919050565b6000806040838503121561753057600080fd5b50508035926020909101359150565b60008060006040848603121561755457600080fd5b833567ffffffffffffffff8082111561756c57600080fd5b818601915086601f83011261758057600080fd5b81358181111561758f57600080fd5b8760208260051b85010111156175a457600080fd5b602092830195509350508401356174c981617389565b600080600080608085870312156175d057600080fd5b843593506020850135925060408501356175e981617456565b9396929550929360600135925050565b6000806040838503121561760c57600080fd5b823561761781617456565b946020939093013593505050565b60c08101610ff282846173b4565b60008060006060848603121561764857600080fd5b833561765381617456565b92506020840135915060408401356174c981617456565b60008060006060848603121561767f57600080fd5b833561768a81617456565b92506020840135915060408401356174c981617389565b6040815260006176b460408301856173fe565b90508260208301529392505050565b600080604083850312156176d657600080fd5b82359150602083013561749081617389565b634e487b7160e01b600052602160045260246000fd5b6006811061771c57634e487b7160e01b600052602160045260246000fd5b9052565b8881526001600160a01b0388811660208301526040820188905286166060820152610100810161775360808301876176fe565b8460a08301528360c08301528260e08301529998505050505050505050565b600080600080600060a0868803121561778a57600080fd5b853594506020860135935060408601356177a381617456565b92506060860135915060808601356177ba81617456565b809150509295509295909350565b6001600160a01b038781168252602082018790528516604082015260c081016177f460608301866176fe565b608082019390935260a00152949350505050565b60005b8381101561782357818101518382015260200161780b565b50506000910152565b602081526000825180602084015261784b816040850160208701617808565b601f01601f19169190910160400192915050565b634e487b7160e01b600052601160045260246000fd5b81810381811115610ff257610ff261785f565b634e487b7160e01b600052603260045260246000fd5b602080825260159082015274125b9cdd59999a58da595b9d08115512081cd95b9d605a1b604082015260600190565b6001600160a01b039384168152919092166020820152604081019190915260806060820181905260009082015260a00190565b634e487b7160e01b600052604160045260246000fd5b60208082526021908201527f556e617574686f72697a65643a2061646d696e20726f6c6520726571756972656040820152601960fa1b606082015260800190565b60006020828403121561796957600080fd5b8151615f6d81617456565b6000600182016179865761798661785f565b5060010190565b80820180821115610ff257610ff261785f565b6020808252601390820152724e6f2070656e64696e6720707572636861736560681b604082015260600190565b6020808252601390820152725075726368617365206e6f742061637469766560681b604082015260600190565b600060208284031215617a0c57600080fd5b8151615f6d81617389565b600060208284031215617a2957600080fd5b5051919050565b602080825260159082015274151bdad95b881d1c985b9cd9995c8819985a5b1959605a1b604082015260600190565b6001600160a01b039384168152919092166020820152604081019190915260600190565b8082028115828204841417610ff257610ff261785f565b600082617ab757634e487b7160e01b600052601260045260246000fd5b500490565b7f416363657373436f6e74726f6c3a206163636f756e7420000000000000000000815260008351617af4816017850160208801617808565b7001034b99036b4b9b9b4b733903937b6329607d1b6017918401918201528351617b25816028840160208801617808565b01602801949350505050565b634e487b7160e01b600052603160045260246000fd5b600081617b5657617b5661785f565b50600019019056fe97667070c54ef182b0f5858b034beac1b6f3089aa2d3188bb1e8929f4fa9b929a26469706673582212206984f5e914b5c0bd3af5d7bfad73260486cb943ced60240f3217be49592c945c64736f6c63430008140033",
  "linkReferences": {},
  "deployedLinkReferences": {}
}