{
  "_format": "hh-sol-artifact-1",
  "contractName": "PropertyMarket",
  "sourceName": "contracts/market/PropertyMarket.sol",
  "abi": [
    {
      "inputs": [
        {
          "internalType": "address",
          "name": "_nftiAddress",
          "type": "address"
        },
        {
          "internalType": "address",
          "name": "_nftmAddress",
          "type": "address"
        },
        {
          "internalType": "address",
          "name": "initialAdmin",
          "type": "address"
        },
        {
          "internalType": "address",
          "name": "feeCollector",
          "type": "address"
        },
        {
          "internalType": "address",
          "name": "rewardsVault",
          "type": "address"
        }
      ],
      "stateMutability": "nonpayable",
      "type": "constructor"
    },
    {
      "anonymous": false,
      "inputs": [
        {
          "indexed": true,
          "internalType": "bytes32",
          "name": "role",
          "type": "bytes32"
        },
        {
          "indexed": true,
          "internalType": "address",
          "name": "account",
          "type": "address"
        },
        {
          "indexed": true,
          "internalType": "address",
          "name": "sender",
          "type": "address"
        }
      ],
      "name": "AdminRoleGranted",
      "type": "event"
    },
    {
      "anonymous": false,
      "inputs": [
        {
          "indexed": true,
          "internalType": "bytes32",
          "name": "role",
          "type": "bytes32"
        },
        {
          "indexed": true,
          "internalType": "address",
          "name": "account",
          "type": "address"
        },
        {
          "indexed": true,
          "internalType": "address",
          "name": "sender",
          "type": "address"
        }
      ],
      "name": "AdminRoleRevoked",
      "type": "event"
    },
    {
      "anonymous": false,
      "inputs": [
        {
          "indexed": true,
          "internalType": "uint256",
          "name": "tokenId",
          "type": "uint256"
        },
        {
          "indexed": true,
          "internalType": "address",
          "name": "seller",
          "type": "address"
        },
        {
          "indexed": true,
          "internalType": "address",
          "name": "bidder",
          "type": "address"
        },
        {
          "indexed": false,
          "internalType": "uint256",
          "name": "amount",
          "type": "uint256"
        },
        {
          "indexed": false,
          "internalType": "address",
          "name": "paymentToken",
          "type": "address"
        }
      ],
      "name": "BidAccepted",
      "type": "event"
    },
    {
      "anonymous": false,
      "inputs": [
        {
          "indexed": true,
          "internalType": "uint256",
          "name": "tokenId",
          "type": "uint256"
        },
        {
          "indexed": true,
          "internalType": "address",
          "name": "bidder",
          "type": "address"
        },
        {
          "indexed": false,
          "internalType": "uint256",
          "name": "amount",
          "type": "uint256"
        }
      ],
      "name": "BidCancelled",
      "type": "event"
    },
    {
      "anonymous": false,
      "inputs": [
        {
          "indexed": true,
          "internalType": "uint256",
          "name": "tokenId",
          "type": "uint256"
        },
        {
          "indexed": true,
          "internalType": "address",
          "name": "bidder",
          "type": "address"
        },
        {
          "indexed": false,
          "internalType": "uint256",
          "name": "amount",
          "type": "uint256"
        },
        {
          "indexed": false,
          "internalType": "address",
          "name": "paymentToken",
          "type": "address"
        }
      ],
      "name": "BidPlaced",
      "type": "event"
    },
    {
      "anonymous": false,
      "inputs": [
        {
          "indexed": false,
          "internalType": "uint256",
          "name": "oldBaseFee",
          "type": "uint256"
        },
        {
          "indexed": false,
          "internalType": "uint256",
          "name": "newBaseFee",
          "type": "uint256"
        },
        {
          "indexed": false,
          "internalType": "uint256",
          "name": "oldMaxFee",
          "type": "uint256"
        },
        {
          "indexed": false,
          "internalType": "uint256",
          "name": "newMaxFee",
          "type": "uint256"
        },
        {
          "indexed": true,
          "internalType": "address",
          "name": "admin",
          "type": "address"
        }
      ],
      "name": "FeeConfigUpdated",
      "type": "event"
    },
    {
      "anonymous": false,
      "inputs": [
        {
          "indexed": true,
          "internalType": "address",
          "name": "account",
          "type": "address"
        },
        {
          "indexed": false,
          "internalType": "bool",
          "name": "status",
          "type": "bool"
        }
      ],
      "name": "KYCStatusUpdated",
      "type": "event"
    },
    {
      "anonymous": false,
      "inputs": [
        {
          "indexed": true,
          "internalType": "uint256",
          "name": "tokenId",
          "type": "uint256"
        },
        {
          "indexed": false,
          "internalType": "uint256",
          "name": "newPrice",
          "type": "uint256"
        },
        {
          "indexed": false,
          "internalType": "address",
          "name": "newPaymentToken",
          "type": "address"
        }
      ],
      "name": "ListingUpdated",
      "type": "event"
    },
    {
      "anonymous": false,
      "inputs": [
        {
          "indexed": true,
          "internalType": "uint256",
          "name": "tokenId",
          "type": "uint256"
        },
        {
          "indexed": true,
          "internalType": "address",
          "name": "seller",
          "type": "address"
        },
        {
          "indexed": false,
          "internalType": "uint256",
          "name": "price",
          "type": "uint256"
        },
        {
          "indexed": false,
          "internalType": "address",
          "name": "paymentToken",
          "type": "address"
        }
      ],
      "name": "NewListing",
      "type": "event"
    },
    {
      "anonymous": false,
      "inputs": [
        {
          "indexed": false,
          "internalType": "address",
          "name": "account",
          "type": "address"
        }
      ],
      "name": "Paused",
      "type": "event"
    },
    {
      "anonymous": false,
      "inputs": [
        {
          "indexed": true,
          "internalType": "address",
          "name": "token",
          "type": "address"
        },
        {
          "indexed": true,
          "internalType": "address",
          "name": "operator",
          "type": "address"
        }
      ],
      "name": "PaymentTokenAdded",
      "type": "event"
    },
    {
      "anonymous": false,
      "inputs": [
        {
          "indexed": true,
          "internalType": "address",
          "name": "token",
          "type": "address"
        },
        {
          "indexed": true,
          "internalType": "address",
          "name": "operator",
          "type": "address"
        }
      ],
      "name": "PaymentTokenRemoved",
      "type": "event"
    },
    {
      "anonymous": false,
      "inputs": [
        {
          "indexed": true,
          "internalType": "uint256",
          "name": "tokenId",
          "type": "uint256"
        },
        {
          "indexed": false,
          "internalType": "address",
          "name": "buyer",
          "type": "address"
        },
        {
          "indexed": false,
          "internalType": "uint256",
          "name": "price",
          "type": "uint256"
        },
        {
          "indexed": false,
          "internalType": "address",
          "name": "paymentToken",
          "type": "address"
        }
      ],
      "name": "PropertySold",
      "type": "event"
    },
    {
      "anonymous": false,
      "inputs": [
        {
          "indexed": false,
          "internalType": "uint256",
          "name": "oldBaseRate",
          "type": "uint256"
        },
        {
          "indexed": false,
          "internalType": "uint256",
          "name": "newBaseRate",
          "type": "uint256"
        },
        {
          "indexed": false,
          "internalType": "uint256",
          "name": "oldMultiplier",
          "type": "uint256"
        },
        {
          "indexed": false,
          "internalType": "uint256",
          "name": "newMultiplier",
          "type": "uint256"
        },
        {
          "indexed": true,
          "internalType": "address",
          "name": "admin",
          "type": "address"
        }
      ],
      "name": "RewardParametersUpdated",
      "type": "event"
    },
    {
      "anonymous": false,
      "inputs": [
        {
          "indexed": true,
          "internalType": "bytes32",
          "name": "role",
          "type": "bytes32"
        },
        {
          "indexed": true,
          "internalType": "bytes32",
          "name": "previousAdminRole",
          "type": "bytes32"
        },
        {
          "indexed": true,
          "internalType": "bytes32",
          "name": "newAdminRole",
          "type": "bytes32"
        }
      ],
      "name": "RoleAdminChanged",
      "type": "event"
    },
    {
      "anonymous": false,
      "inputs": [
        {
          "indexed": true,
          "internalType": "bytes32",
          "name": "role",
          "type": "bytes32"
        },
        {
          "indexed": true,
          "internalType": "address",
          "name": "account",
          "type": "address"
        },
        {
          "indexed": true,
          "internalType": "address",
          "name": "sender",
          "type": "address"
        }
      ],
      "name": "RoleGranted",
      "type": "event"
    },
    {
      "anonymous": false,
      "inputs": [
        {
          "indexed": true,
          "internalType": "bytes32",
          "name": "role",
          "type": "bytes32"
        },
        {
          "indexed": true,
          "internalType": "address",
          "name": "account",
          "type": "address"
        },
        {
          "indexed": true,
          "internalType": "address",
          "name": "sender",
          "type": "address"
        }
      ],
      "name": "RoleRevoked",
      "type": "event"
    },
    {
      "anonymous": false,
      "inputs": [
        {
          "indexed": false,
          "internalType": "address",
          "name": "account",
          "type": "address"
        }
      ],
      "name": "Unpaused",
      "type": "event"
    },
    {
      "anonymous": false,
      "inputs": [
        {
          "indexed": false,
          "internalType": "bool",
          "name": "enabled",
          "type": "bool"
        },
        {
          "indexed": true,
          "internalType": "address",
          "name": "operator",
          "type": "address"
        }
      ],
      "name": "WhitelistStatusChanged",
      "type": "event"
    },
    {
      "inputs": [],
      "name": "BASIS_POINTS",
      "outputs": [
        {
          "internalType": "uint256",
          "name": "",
          "type": "uint256"
        }
      ],
      "stateMutability": "view",
      "type": "function"
    },
    {
      "inputs": [],
      "name": "DEFAULT_ADMIN_ROLE",
      "outputs": [
        {
          "internalType": "bytes32",
          "name": "",
          "type": "bytes32"
        }
      ],
      "stateMutability": "view",
      "type": "function"
    },
    {
      "inputs": [],
      "name": "LEGAL_ROLE",
      "outputs": [
        {
          "internalType": "bytes32",
          "name": "",
          "type": "bytes32"
        }
      ],
      "stateMutability": "view",
      "type": "function"
    },
    {
      "inputs": [],
      "name": "MIN_BID_INCREMENT_PERCENT",
      "outputs": [
        {
          "internalType": "uint256",
          "name": "",
          "type": "uint256"
        }
      ],
      "stateMutability": "view",
      "type": "function"
    },
    {
      "inputs": [],
      "name": "OPERATOR_ROLE",
      "outputs": [
        {
          "internalType": "bytes32",
          "name": "",
          "type": "bytes32"
        }
      ],
      "stateMutability": "view",
      "type": "function"
    },
    {
      "inputs": [],
      "name": "PERCENTAGE_BASE",
      "outputs": [
        {
          "internalType": "uint256",
          "name": "",
          "type": "uint256"
        }
      ],
      "stateMutability": "view",
      "type": "function"
    },
    {
      "inputs": [],
      "name": "REWARD_MANAGER",
      "outputs": [
        {
          "internalType": "bytes32",
          "name": "",
          "type": "bytes32"
        }
      ],
      "stateMutability": "view",
      "type": "function"
    },
    {
      "inputs": [
        {
          "internalType": "uint256",
          "name": "tokenId",
          "type": "uint256"
        },
        {
          "internalType": "uint256",
          "name": "bidIndex",
          "type": "uint256"
        },
        {
          "internalType": "address",
          "name": "expectedBidder",
          "type": "address"
        },
        {
          "internalType": "uint256",
          "name": "expectedAmount",
          "type": "uint256"
        },
        {
          "internalType": "address",
          "name": "expectedPaymentToken",
          "type": "address"
        }
      ],
      "name": "acceptBid",
      "outputs": [],
      "stateMutability": "nonpayable",
      "type": "function"
    },
    {
      "inputs": [
        {
          "internalType": "address",
          "name": "token",
          "type": "address"
        }
      ],
      "name": "addAllowedToken",
      "outputs": [],
      "stateMutability": "nonpayable",
      "type": "function"
    },
    {
      "inputs": [
        {
          "internalType": "address",
          "name": "",
          "type": "address"
        }
      ],
      "name": "allowedPaymentTokens",
      "outputs": [
        {
          "internalType": "bool",
          "name": "",
          "type": "bool"
        }
      ],
      "stateMutability": "view",
      "type": "function"
    },
    {
      "inputs": [
        {
          "internalType": "address[]",
          "name": "accounts",
          "type": "address[]"
        },
        {
          "internalType": "bool",
          "name": "approved",
          "type": "bool"
        }
      ],
      "name": "batchApproveKYC",
      "outputs": [],
      "stateMutability": "nonpayable",
      "type": "function"
    },
    {
      "inputs": [
        {
          "internalType": "address",
          "name": "",
          "type": "address"
        },
        {
          "internalType": "uint256",
          "name": "",
          "type": "uint256"
        }
      ],
      "name": "bidIndexByBidder",
      "outputs": [
        {
          "internalType": "uint256",
          "name": "",
          "type": "uint256"
        }
      ],
      "stateMutability": "view",
      "type": "function"
    },
    {
      "inputs": [
        {
          "internalType": "uint256",
          "name": "",
          "type": "uint256"
        },
        {
          "internalType": "uint256",
          "name": "",
          "type": "uint256"
        }
      ],
      "name": "bidsForToken",
      "outputs": [
        {
          "internalType": "uint256",
          "name": "tokenId",
          "type": "uint256"
        },
        {
          "internalType": "address",
          "name": "bidder",
          "type": "address"
        },
        {
          "internalType": "uint256",
          "name": "amount",
          "type": "uint256"
        },
        {
          "internalType": "address",
          "name": "paymentToken",
          "type": "address"
        },
        {
          "internalType": "uint256",
          "name": "bidTimestamp",
          "type": "uint256"
        },
        {
          "internalType": "bool",
          "name": "isActive",
          "type": "bool"
        }
      ],
      "stateMutability": "view",
      "type": "function"
    },
    {
      "inputs": [
        {
          "internalType": "address",
          "name": "user",
          "type": "address"
        },
        {
          "internalType": "uint256",
          "name": "baseAmount",
          "type": "uint256"
        }
      ],
      "name": "calculateRewards",
      "outputs": [
        {
          "internalType": "uint256",
          "name": "",
          "type": "uint256"
        }
      ],
      "stateMutability": "view",
      "type": "function"
    },
    {
      "inputs": [
        {
          "internalType": "uint256",
          "name": "tokenId",
          "type": "uint256"
        }
      ],
      "name": "cancelBid",
      "outputs": [],
      "stateMutability": "nonpayable",
      "type": "function"
    },
    {
      "inputs": [
        {
          "internalType": "address",
          "name": "",
          "type": "address"
        }
      ],
      "name": "communityScores",
      "outputs": [
        {
          "internalType": "uint256",
          "name": "",
          "type": "uint256"
        }
      ],
      "stateMutability": "view",
      "type": "function"
    },
    {
      "inputs": [
        {
          "internalType": "uint256",
          "name": "newBaseRate",
          "type": "uint256"
        },
        {
          "internalType": "uint256",
          "name": "newMultiplier",
          "type": "uint256"
        },
        {
          "internalType": "uint256",
          "name": "newLeaseBonus",
          "type": "uint256"
        }
      ],
      "name": "configureRewards",
      "outputs": [],
      "stateMutability": "nonpayable",
      "type": "function"
    },
    {
      "inputs": [
        {
          "internalType": "uint256",
          "name": "functionId",
          "type": "uint256"
        },
        {
          "internalType": "bool",
          "name": "paused",
          "type": "bool"
        }
      ],
      "name": "emergencyPauseFunction",
      "outputs": [],
      "stateMutability": "nonpayable",
      "type": "function"
    },
    {
      "inputs": [
        {
          "internalType": "uint256",
          "name": "",
          "type": "uint256"
        },
        {
          "internalType": "address",
          "name": "",
          "type": "address"
        }
      ],
      "name": "ethBidDeposits",
      "outputs": [
        {
          "internalType": "uint256",
          "name": "",
          "type": "uint256"
        }
      ],
      "stateMutability": "view",
      "type": "function"
    },
    {
      "inputs": [],
      "name": "feeConfig",
      "outputs": [
        {
          "internalType": "uint256",
          "name": "baseFee",
          "type": "uint256"
        },
        {
          "internalType": "uint256",
          "name": "maxFee",
          "type": "uint256"
        },
        {
          "internalType": "address",
          "name": "feeCollector",
          "type": "address"
        }
      ],
      "stateMutability": "view",
      "type": "function"
    },
    {
      "inputs": [
        {
          "internalType": "uint256",
          "name": "",
          "type": "uint256"
        }
      ],
      "name": "functionPaused",
      "outputs": [
        {
          "internalType": "bool",
          "name": "",
          "type": "bool"
        }
      ],
      "stateMutability": "view",
      "type": "function"
    },
    {
      "inputs": [
        {
          "internalType": "uint256",
          "name": "tokenId",
          "type": "uint256"
        }
      ],
      "name": "getActiveBidsForToken",
      "outputs": [
        {
          "components": [
            {
              "internalType": "uint256",
              "name": "tokenId",
              "type": "uint256"
            },
            {
              "internalType": "address",
              "name": "bidder",
              "type": "address"
            },
            {
              "internalType": "uint256",
              "name": "amount",
              "type": "uint256"
            },
            {
              "internalType": "address",
              "name": "paymentToken",
              "type": "address"
            },
            {
              "internalType": "uint256",
              "name": "bidTimestamp",
              "type": "uint256"
            },
            {
              "internalType": "bool",
              "name": "isActive",
              "type": "bool"
            }
          ],
          "internalType": "struct PropertyMarket.Bid[]",
          "name": "",
          "type": "tuple[]"
        }
      ],
      "stateMutability": "view",
      "type": "function"
    },
    {
      "inputs": [
        {
          "internalType": "uint256",
          "name": "tokenId",
          "type": "uint256"
        },
        {
          "internalType": "address",
          "name": "bidder",
          "type": "address"
        }
      ],
      "name": "getBidFromBidder",
      "outputs": [
        {
          "components": [
            {
              "internalType": "uint256",
              "name": "tokenId",
              "type": "uint256"
            },
            {
              "internalType": "address",
              "name": "bidder",
              "type": "address"
            },
            {
              "internalType": "uint256",
              "name": "amount",
              "type": "uint256"
            },
            {
              "internalType": "address",
              "name": "paymentToken",
              "type": "address"
            },
            {
              "internalType": "uint256",
              "name": "bidTimestamp",
              "type": "uint256"
            },
            {
              "internalType": "bool",
              "name": "isActive",
              "type": "bool"
            }
          ],
          "internalType": "struct PropertyMarket.Bid",
          "name": "",
          "type": "tuple"
        }
      ],
      "stateMutability": "view",
      "type": "function"
    },
    {
      "inputs": [],
      "name": "getCurrentFee",
      "outputs": [
        {
          "internalType": "uint256",
          "name": "",
          "type": "uint256"
        }
      ],
      "stateMutability": "view",
      "type": "function"
    },
    {
      "inputs": [
        {
          "internalType": "uint256",
          "name": "tokenId",
          "type": "uint256"
        }
      ],
      "name": "getListingDetails",
      "outputs": [
        {
          "internalType": "address",
          "name": "seller",
          "type": "address"
        },
        {
          "internalType": "uint256",
          "name": "price",
          "type": "uint256"
        },
        {
          "internalType": "address",
          "name": "paymentToken",
          "type": "address"
        },
        {
          "internalType": "enum PropertyMarket.PropertyStatus",
          "name": "status",
          "type": "uint8"
        },
        {
          "internalType": "uint256",
          "name": "listTimestamp",
          "type": "uint256"
        }
      ],
      "stateMutability": "view",
      "type": "function"
    },
    {
      "inputs": [
        {
          "internalType": "bytes32",
          "name": "role",
          "type": "bytes32"
        }
      ],
      "name": "getRoleAdmin",
      "outputs": [
        {
          "internalType": "bytes32",
          "name": "",
          "type": "bytes32"
        }
      ],
      "stateMutability": "view",
      "type": "function"
    },
    {
      "inputs": [],
      "name": "globalPause",
      "outputs": [],
      "stateMutability": "nonpayable",
      "type": "function"
    },
    {
      "inputs": [],
      "name": "globalUnpause",
      "outputs": [],
      "stateMutability": "nonpayable",
      "type": "function"
    },
    {
      "inputs": [
        {
          "internalType": "bytes32",
          "name": "role",
          "type": "bytes32"
        },
        {
          "internalType": "address",
          "name": "account",
          "type": "address"
        }
      ],
      "name": "grantRole",
      "outputs": [],
      "stateMutability": "nonpayable",
      "type": "function"
    },
    {
      "inputs": [
        {
          "internalType": "bytes32",
          "name": "role",
          "type": "bytes32"
        },
        {
          "internalType": "address",
          "name": "account",
          "type": "address"
        }
      ],
      "name": "hasRole",
      "outputs": [
        {
          "internalType": "bool",
          "name": "",
          "type": "bool"
        }
      ],
      "stateMutability": "view",
      "type": "function"
    },
    {
      "inputs": [
        {
          "internalType": "address",
          "name": "account",
          "type": "address"
        }
      ],
      "name": "isKYCVerified",
      "outputs": [
        {
          "internalType": "bool",
          "name": "",
          "type": "bool"
        }
      ],
      "stateMutability": "view",
      "type": "function"
    },
    {
      "inputs": [
        {
          "internalType": "address",
          "name": "token",
          "type": "address"
        }
      ],
      "name": "isTokenAllowed",
      "outputs": [
        {
          "internalType": "bool",
          "name": "",
          "type": "bool"
        }
      ],
      "stateMutability": "view",
      "type": "function"
    },
    {
      "inputs": [
        {
          "internalType": "address",
          "name": "",
          "type": "address"
        },
        {
          "internalType": "uint256",
          "name": "",
          "type": "uint256"
        }
      ],
      "name": "leaseTerms",
      "outputs": [
        {
          "internalType": "uint256",
          "name": "",
          "type": "uint256"
        }
      ],
      "stateMutability": "view",
      "type": "function"
    },
    {
      "inputs": [
        {
          "internalType": "uint256",
          "name": "tokenId",
          "type": "uint256"
        },
        {
          "internalType": "uint256",
          "name": "price",
          "type": "uint256"
        },
        {
          "internalType": "address",
          "name": "paymentToken",
          "type": "address"
        }
      ],
      "name": "listProperty",
      "outputs": [],
      "stateMutability": "nonpayable",
      "type": "function"
    },
    {
      "inputs": [
        {
          "internalType": "uint256",
          "name": "",
          "type": "uint256"
        }
      ],
      "name": "listings",
      "outputs": [
        {
          "internalType": "uint256",
          "name": "tokenId",
          "type": "uint256"
        },
        {
          "internalType": "address",
          "name": "seller",
          "type": "address"
        },
        {
          "internalType": "uint256",
          "name": "price",
          "type": "uint256"
        },
        {
          "internalType": "address",
          "name": "paymentToken",
          "type": "address"
        },
        {
          "internalType": "enum PropertyMarket.PropertyStatus",
          "name": "status",
          "type": "uint8"
        },
        {
          "internalType": "uint256",
          "name": "listTimestamp",
          "type": "uint256"
        },
        {
          "internalType": "uint256",
          "name": "lastRenewed",
          "type": "uint256"
        }
      ],
      "stateMutability": "view",
      "type": "function"
    },
    {
      "inputs": [],
      "name": "nftiContract",
      "outputs": [
        {
          "internalType": "contract IERC721",
          "name": "",
          "type": "address"
        }
      ],
      "stateMutability": "view",
      "type": "function"
    },
    {
      "inputs": [],
      "name": "nftmContract",
      "outputs": [
        {
          "internalType": "contract IERC721",
          "name": "",
          "type": "address"
        }
      ],
      "stateMutability": "view",
      "type": "function"
    },
    {
      "inputs": [],
      "name": "paused",
      "outputs": [
        {
          "internalType": "bool",
          "name": "",
          "type": "bool"
        }
      ],
      "stateMutability": "view",
      "type": "function"
    },
    {
      "inputs": [
        {
          "internalType": "uint256",
          "name": "tokenId",
          "type": "uint256"
        },
        {
          "internalType": "uint256",
          "name": "bidAmount",
          "type": "uint256"
        },
        {
          "internalType": "address",
          "name": "paymentToken",
          "type": "address"
        }
      ],
      "name": "placeBid",
      "outputs": [],
      "stateMutability": "payable",
      "type": "function"
    },
    {
      "inputs": [
        {
          "internalType": "uint256",
          "name": "tokenId",
          "type": "uint256"
        },
        {
          "internalType": "uint256",
          "name": "offerPrice",
          "type": "uint256"
        }
      ],
      "name": "purchaseProperty",
      "outputs": [],
      "stateMutability": "payable",
      "type": "function"
    },
    {
      "inputs": [
        {
          "internalType": "address",
          "name": "token",
          "type": "address"
        }
      ],
      "name": "removeAllowedToken",
      "outputs": [],
      "stateMutability": "nonpayable",
      "type": "function"
    },
    {
      "inputs": [
        {
          "internalType": "bytes32",
          "name": "role",
          "type": "bytes32"
        },
        {
          "internalType": "address",
          "name": "account",
          "type": "address"
        }
      ],
      "name": "renounceRole",
      "outputs": [],
      "stateMutability": "nonpayable",
      "type": "function"
    },
    {
      "inputs": [
        {
          "internalType": "bytes32",
          "name": "role",
          "type": "bytes32"
        },
        {
          "internalType": "address",
          "name": "account",
          "type": "address"
        }
      ],
      "name": "revokeRole",
      "outputs": [],
      "stateMutability": "nonpayable",
      "type": "function"
    },
    {
      "inputs": [],
      "name": "rewardParams",
      "outputs": [
        {
          "internalType": "uint256",
          "name": "baseRate",
          "type": "uint256"
        },
        {
          "internalType": "uint256",
          "name": "communityMultiplier",
          "type": "uint256"
        },
        {
          "internalType": "uint256",
          "name": "maxLeaseBonus",
          "type": "uint256"
        },
        {
          "internalType": "address",
          "name": "rewardsVault",
          "type": "address"
        }
      ],
      "stateMutability": "view",
      "type": "function"
    },
    {
      "inputs": [
        {
          "internalType": "bool",
          "name": "enabled",
          "type": "bool"
        }
      ],
      "name": "setWhitelistEnabled",
      "outputs": [],
      "stateMutability": "nonpayable",
      "type": "function"
    },
    {
      "inputs": [
        {
          "internalType": "bytes4",
          "name": "interfaceId",
          "type": "bytes4"
        }
      ],
      "name": "supportsInterface",
      "outputs": [
        {
          "internalType": "bool",
          "name": "",
          "type": "bool"
        }
      ],
      "stateMutability": "view",
      "type": "function"
    },
    {
      "inputs": [
        {
          "internalType": "address",
          "name": "user",
          "type": "address"
        },
        {
          "internalType": "uint256",
          "name": "scoreDelta",
          "type": "uint256"
        },
        {
          "internalType": "bool",
          "name": "isAddition",
          "type": "bool"
        }
      ],
      "name": "updateCommunityScore",
      "outputs": [],
      "stateMutability": "nonpayable",
      "type": "function"
    },
    {
      "inputs": [
        {
          "internalType": "uint256",
          "name": "newBaseFee",
          "type": "uint256"
        },
        {
          "internalType": "address",
          "name": "newCollector",
          "type": "address"
        }
      ],
      "name": "updateFeeConfig",
      "outputs": [],
      "stateMutability": "nonpayable",
      "type": "function"
    },
    {
      "inputs": [
        {
          "internalType": "uint256",
          "name": "tokenId",
          "type": "uint256"
        },
        {
          "internalType": "uint256",
          "name": "newPrice",
          "type": "uint256"
        },
        {
          "internalType": "address",
          "name": "newPaymentToken",
          "type": "address"
        }
      ],
      "name": "updateListing",
      "outputs": [],
      "stateMutability": "nonpayable",
      "type": "function"
    },
    {
      "inputs": [],
      "name": "whitelistEnabled",
      "outputs": [
        {
          "internalType": "bool",
          "name": "",
          "type": "bool"
        }
      ],
      "stateMutability": "view",
      "type": "function"
    }
  ],
  "bytecode": "0x60c06040526001600f60006101000a81548160ff0219169083151502179055503480156200002c57600080fd5b506040516200883638038062008836833981810160405281019062000052919062000664565b82828260016000819055506000600260006101000a81548160ff021916908315150217905550600073ffffffffffffffffffffffffffffffffffffffff168273ffffffffffffffffffffffffffffffffffffffff1603620000ea576040517f08c379a0000000000000000000000000000000000000000000000000000000008152600401620000e1906200074d565b60405180910390fd5b600073ffffffffffffffffffffffffffffffffffffffff168173ffffffffffffffffffffffffffffffffffffffff16036200015c576040517f08c379a00000000000000000000000000000000000000000000000000000000081526004016200015390620007bf565b60405180910390fd5b600073ffffffffffffffffffffffffffffffffffffffff168373ffffffffffffffffffffffffffffffffffffffff1603620001ce576040517f08c379a0000000000000000000000000000000000000000000000000000000008152600401620001c59062000831565b60405180910390fd5b620001df83620003e860201b60201c565b604051806060016040528060c881526020016103e881526020018373ffffffffffffffffffffffffffffffffffffffff168152506003600082015181600001556020820151816001015560408201518160020160006101000a81548173ffffffffffffffffffffffffffffffffffffffff021916908373ffffffffffffffffffffffffffffffffffffffff16021790555090505060405180608001604052806103e881526020016107d0815260200161012c81526020018273ffffffffffffffffffffffffffffffffffffffff16815250600660008201518160000155602082015181600101556040820151816002015560608201518160030160006101000a81548173ffffffffffffffffffffffffffffffffffffffff021916908373ffffffffffffffffffffffffffffffffffffffff1602179055509050505050506001600e60008073ffffffffffffffffffffffffffffffffffffffff1673ffffffffffffffffffffffffffffffffffffffff16815260200190815260200160002060006101000a81548160ff0219169083151502179055508473ffffffffffffffffffffffffffffffffffffffff1660808173ffffffffffffffffffffffffffffffffffffffff16815250508373ffffffffffffffffffffffffffffffffffffffff1660a08173ffffffffffffffffffffffffffffffffffffffff1681525050505050505062000853565b620003fd6000801b826200049660201b60201c565b6200042f7f97667070c54ef182b0f5858b034beac1b6f3089aa2d3188bb1e8929f4fa9b929826200049660201b60201c565b620004617fb9f13ecb5e7f0f859c44b76b3a163e504787b446da95a26bf75e53e1ff4a1e0e826200049660201b60201c565b620004937f6393fa734211156fcc8c7dda6b0650f5c731d4c838c1db43445a149aa2f5b6fe826200049660201b60201c565b50565b620004a882826200058760201b60201c565b6200058357600180600084815260200190815260200160002060000160008373ffffffffffffffffffffffffffffffffffffffff1673ffffffffffffffffffffffffffffffffffffffff16815260200190815260200160002060006101000a81548160ff02191690831515021790555062000528620005f260201b60201c565b73ffffffffffffffffffffffffffffffffffffffff168173ffffffffffffffffffffffffffffffffffffffff16837f2f8788117e7eff1d82e926ec794901d17c78024a50270940304540a733656f0d60405160405180910390a45b5050565b60006001600084815260200190815260200160002060000160008373ffffffffffffffffffffffffffffffffffffffff1673ffffffffffffffffffffffffffffffffffffffff16815260200190815260200160002060009054906101000a900460ff16905092915050565b600033905090565b600080fd5b600073ffffffffffffffffffffffffffffffffffffffff82169050919050565b60006200062c82620005ff565b9050919050565b6200063e816200061f565b81146200064a57600080fd5b50565b6000815190506200065e8162000633565b92915050565b600080600080600060a08688031215620006835762000682620005fa565b5b600062000693888289016200064d565b9550506020620006a6888289016200064d565b9450506040620006b9888289016200064d565b9350506060620006cc888289016200064d565b9250506080620006df888289016200064d565b9150509295509295909350565b600082825260208201905092915050565b7f496e76616c69642066656520636f6c6c6563746f722061646472657373000000600082015250565b600062000735601d83620006ec565b91506200074282620006fd565b602082019050919050565b60006020820190508181036000830152620007688162000726565b9050919050565b7f496e76616c69642072657761726473207661756c742061646472657373000000600082015250565b6000620007a7601d83620006ec565b9150620007b4826200076f565b602082019050919050565b60006020820190508181036000830152620007da8162000798565b9050919050565b7f496e76616c69642061646d696e20616464726573730000000000000000000000600082015250565b600062000819601583620006ec565b91506200082682620007e1565b602082019050919050565b600060208201905081810360008301526200084c816200080a565b9050919050565b60805160a051617fa16200089560003960006137fe0152600081816117400152818161189401528181611cfd01528181613d8701526143410152617fa16000f3fe6080604052600436106102c95760003560e01c80638e7579a111610175578063ce190578116100dc578063e58a7b3111610095578063f5b541a61161006f578063f5b541a614610b42578063f70d936214610b6d578063f9eaee0d14610b98578063fb05da2e14610bd5576102c9565b8063e58a7b3114610ac5578063ee5b8e0e14610aee578063f12d54d814610b2b576102c9565b8063ce190578146109b1578063cf23913b146109c8578063d547741f146109f1578063ddd1a5bf14610a1a578063de74e57b14610a57578063e1f1c4a714610a9a576102c9565b8063ad6561ec1161012e578063ad6561ec14610883578063ad7bbd5a1461089f578063bc996819146108dc578063beb8314c14610907578063c7921a7c14610944578063cbb9c9a414610986576102c9565b80638e7579a11461077557806390469a9d146107a057806391d14854146107c95780639703ef3514610806578063a217fddf1461082f578063a33b2d3f1461085a576102c9565b8063592eb9241161023457806373c250c6116101ed57806386aa217e116101c757806386aa217e146106cf57806387c13943146106f8578063887f495a1461072357806388f0bc731461074c576102c9565b806373c250c614610627578063763469141461066457806379cef8bd14610692576102c9565b8063592eb924146105035780635932fdba1461052e5780635c975abb146105595780635dda3e0114610584578063697d312a146105ad57806369fcc649146105ea576102c9565b806336568abe1161028657806336568abe146104045780634178617f1461042d5780634a277ec5146104565780634f8434941461047f57806351fb012d1461049b57806354b7636e146104c6576102c9565b806301ffc9a7146102ce578063052d9e7e1461030b5780631276291c146103345780631e5eb1d014610371578063248a9ca31461039e5780632f2ff15d146103db575b600080fd5b3480156102da57600080fd5b506102f560048036038101906102f09190615944565b610c16565b604051610302919061598c565b60405180910390f35b34801561031757600080fd5b50610332600480360381019061032d91906159d3565b610c90565b005b34801561034057600080fd5b5061035b60048036038101906103569190615a36565b610d6a565b6040516103689190615bec565b60405180910390f35b34801561037d57600080fd5b50610386610fea565b60405161039593929190615c2c565b60405180910390f35b3480156103aa57600080fd5b506103c560048036038101906103c09190615c99565b611022565b6040516103d29190615cd5565b60405180910390f35b3480156103e757600080fd5b5061040260048036038101906103fd9190615d1c565b611042565b005b34801561041057600080fd5b5061042b60048036038101906104269190615d1c565b6110be565b005b34801561043957600080fd5b50610454600480360381019061044f9190615d5c565b611141565b005b34801561046257600080fd5b5061047d60048036038101906104789190615d89565b6112d4565b005b61049960048036038101906104949190615ddc565b6114ef565b005b3480156104a757600080fd5b506104b0611862565b6040516104bd919061598c565b60405180910390f35b3480156104d257600080fd5b506104ed60048036038101906104e89190615d5c565b611875565b6040516104fa919061598c565b60405180910390f35b34801561050f57600080fd5b50610518611892565b6040516105259190615e7b565b60405180910390f35b34801561053a57600080fd5b506105436118b6565b6040516105509190615cd5565b60405180910390f35b34801561056557600080fd5b5061056e6118da565b60405161057b919061598c565b60405180910390f35b34801561059057600080fd5b506105ab60048036038101906105a69190615efb565b6118f1565b005b3480156105b957600080fd5b506105d460048036038101906105cf9190615d5c565b611a3a565b6040516105e1919061598c565b60405180910390f35b3480156105f657600080fd5b50610611600480360381019061060c9190615f5b565b611a5a565b60405161061e9190615f9b565b60405180910390f35b34801561063357600080fd5b5061064e60048036038101906106499190615d5c565b611a7f565b60405161065b9190615f9b565b60405180910390f35b34801561067057600080fd5b50610679611a97565b6040516106899493929190615fb6565b60405180910390f35b34801561069e57600080fd5b506106b960048036038101906106b49190615ffb565b611ad5565b6040516106c691906160b6565b60405180910390f35b3480156106db57600080fd5b506106f660048036038101906106f191906160d1565b611cdc565b005b34801561070457600080fd5b5061070d6120fb565b60405161071a9190615f9b565b60405180910390f35b34801561072f57600080fd5b5061074a600480360381019061074591906160d1565b612101565b005b34801561075857600080fd5b50610773600480360381019061076e9190615ffb565b61231f565b005b34801561078157600080fd5b5061078a6124c2565b6040516107979190615cd5565b60405180910390f35b3480156107ac57600080fd5b506107c760048036038101906107c29190615d5c565b6124e6565b005b3480156107d557600080fd5b506107f060048036038101906107eb9190615d1c565b612679565b6040516107fd919061598c565b60405180910390f35b34801561081257600080fd5b5061082d60048036038101906108289190615a36565b6126e4565b005b34801561083b57600080fd5b50610844612b76565b6040516108519190615cd5565b60405180910390f35b34801561086657600080fd5b50610881600480360381019061087c9190616124565b612b7d565b005b61089d600480360381019061089891906160d1565b612ceb565b005b3480156108ab57600080fd5b506108c660048036038101906108c19190615f5b565b6136d3565b6040516108d39190615f9b565b60405180910390f35b3480156108e857600080fd5b506108f16136f8565b6040516108fe9190615f9b565b60405180910390f35b34801561091357600080fd5b5061092e60048036038101906109299190615f5b565b6136fd565b60405161093b9190615f9b565b60405180910390f35b34801561095057600080fd5b5061096b60048036038101906109669190615ddc565b613756565b60405161097d96959493929190616177565b60405180910390f35b34801561099257600080fd5b5061099b6137fc565b6040516109a89190615e7b565b60405180910390f35b3480156109bd57600080fd5b506109c6613820565b005b3480156109d457600080fd5b506109ef60048036038101906109ea91906161d8565b613838565b005b3480156109fd57600080fd5b50610a186004803603810190610a139190615d1c565b613875565b005b348015610a2657600080fd5b50610a416004803603810190610a3c9190615ffb565b6138f1565b604051610a4e9190615f9b565b60405180910390f35b348015610a6357600080fd5b50610a7e6004803603810190610a799190615a36565b613916565b604051610a91979695949392919061628f565b60405180910390f35b348015610aa657600080fd5b50610aaf6139a5565b604051610abc9190615f9b565b60405180910390f35b348015610ad157600080fd5b50610aec6004803603810190610ae791906162fe565b6139ab565b005b348015610afa57600080fd5b50610b156004803603810190610b109190615a36565b6144d1565b604051610b22919061598c565b60405180910390f35b348015610b3757600080fd5b50610b406144f1565b005b348015610b4e57600080fd5b50610b57614509565b604051610b649190615cd5565b60405180910390f35b348015610b7957600080fd5b50610b8261452d565b604051610b8f9190615f9b565b60405180910390f35b348015610ba457600080fd5b50610bbf6004803603810190610bba9190615d5c565b61453a565b604051610bcc919061598c565b60405180910390f35b348015610be157600080fd5b50610bfc6004803603810190610bf79190615a36565b6145ae565b604051610c0d959493929190616379565b60405180910390f35b60007f7965db0b000000000000000000000000000000000000000000000000000000007bffffffffffffffffffffffffffffffffffffffffffffffffffffffff1916827bffffffffffffffffffffffffffffffffffffffffffffffffffffffff19161480610c895750610c8882614646565b5b9050919050565b60007f97667070c54ef182b0f5858b034beac1b6f3089aa2d3188bb1e8929f4fa9b9299050610cbf8133612679565b610cfe576040517f08c379a0000000000000000000000000000000000000000000000000000000008152600401610cf590616429565b60405180910390fd5b81600f60006101000a81548160ff0219169083151502179055503373ffffffffffffffffffffffffffffffffffffffff167f49d3b7603127f47657003ec050b7aeb0d61d8261082d7807be013894e89373fd83604051610d5e919061598c565b60405180910390a25050565b606060006012600084815260200190815260200160002090506000805b8280549050811015610dec57828181548110610da657610da5616449565b5b906000526020600020906006020160050160009054906101000a900460ff1615610dd9578180610dd5906164a7565b9250505b8080610de4906164a7565b915050610d87565b5060008167ffffffffffffffff811115610e0957610e086164ef565b5b604051908082528060200260200182016040528015610e4257816020015b610e2f61587e565b815260200190600190039081610e275790505b5090506000805b8480549050811015610fdd57848181548110610e6857610e67616449565b5b906000526020600020906006020160050160009054906101000a900460ff1615610fca57848181548110610e9f57610e9e616449565b5b90600052602060002090600602016040518060c0016040529081600082015481526020016001820160009054906101000a900473ffffffffffffffffffffffffffffffffffffffff1673ffffffffffffffffffffffffffffffffffffffff1673ffffffffffffffffffffffffffffffffffffffff168152602001600282015481526020016003820160009054906101000a900473ffffffffffffffffffffffffffffffffffffffff1673ffffffffffffffffffffffffffffffffffffffff1673ffffffffffffffffffffffffffffffffffffffff168152602001600482015481526020016005820160009054906101000a900460ff161515151581525050838381518110610fb057610faf616449565b5b60200260200101819052508180610fc6906164a7565b9250505b8080610fd5906164a7565b915050610e49565b5081945050505050919050565b60038060000154908060010154908060020160009054906101000a900473ffffffffffffffffffffffffffffffffffffffff16905083565b600060016000838152602001908152602001600020600101549050919050565b61104b82611022565b611054816146b0565b61105e83836146c4565b3373ffffffffffffffffffffffffffffffffffffffff168273ffffffffffffffffffffffffffffffffffffffff16847fb754d28367d5b086c81243c886ead0839c92cb5f281e492d7159800bc57d3c1760405160405180910390a4505050565b6110c66146e5565b73ffffffffffffffffffffffffffffffffffffffff168173ffffffffffffffffffffffffffffffffffffffff1614611133576040517f08c379a000000000000000000000000000000000000000000000000000000000815260040161112a90616590565b60405180910390fd5b61113d82826146ed565b5050565b60007f97667070c54ef182b0f5858b034beac1b6f3089aa2d3188bb1e8929f4fa9b92990506111708133612679565b6111af576040517f08c379a00000000000000000000000000000000000000000000000000000000081526004016111a690616429565b60405180910390fd5b600073ffffffffffffffffffffffffffffffffffffffff168273ffffffffffffffffffffffffffffffffffffffff160361121e576040517f08c379a0000000000000000000000000000000000000000000000000000000008152600401611215906165fc565b60405180910390fd5b6001600e60008473ffffffffffffffffffffffffffffffffffffffff1673ffffffffffffffffffffffffffffffffffffffff16815260200190815260200160002060006101000a81548160ff0219169083151502179055503373ffffffffffffffffffffffffffffffffffffffff168273ffffffffffffffffffffffffffffffffffffffff167fb96e353e41685d2c0c71657628655373417f3980dc2e6244ef705db758401d5360405160405180910390a35050565b7f6393fa734211156fcc8c7dda6b0650f5c731d4c838c1db43445a149aa2f5b6fe6112fe816146b0565b600073ffffffffffffffffffffffffffffffffffffffff16600660030160009054906101000a900473ffffffffffffffffffffffffffffffffffffffff1673ffffffffffffffffffffffffffffffffffffffff1603611392576040517f08c379a000000000000000000000000000000000000000000000000000000000815260040161138990616668565b60405180910390fd5b6107d08411156113d7576040517f08c379a00000000000000000000000000000000000000000000000000000000081526004016113ce906166d4565b60405180910390fd5b6107d083111561141c576040517f08c379a000000000000000000000000000000000000000000000000000000000815260040161141390616740565b60405180910390fd5b6101f4821115611461576040517f08c379a0000000000000000000000000000000000000000000000000000000008152600401611458906167ac565b60405180910390fd5b60006006600001549050600060066001015490508560066000018190555084600660010181905550836006600201819055503373ffffffffffffffffffffffffffffffffffffffff167fdf3827857cf8ac45829164bd76e2950687437e15ff8543f477ae73691ee013b1838884896040516114df94939291906167cc565b60405180910390a2505050505050565b6114f76147cf565b60006010600084815260200190815260200160002090506000600381111561152257611521616218565b5b8160030160149054906101000a900460ff16600381111561154657611545616218565b5b14611586576040517f08c379a000000000000000000000000000000000000000000000000000000000815260040161157d9061685d565b60405180910390fd5b3073ffffffffffffffffffffffffffffffffffffffff166354b7636e336040518263ffffffff1660e01b81526004016115bf919061687d565b602060405180830381865afa1580156115dc573d6000803e3d6000fd5b505050506040513d601f19601f8201168201806040525081019061160091906168ad565b61163f576040517f08c379a000000000000000000000000000000000000000000000000000000000815260040161163690616926565b60405180910390fd5b6116728160020154838360030160009054906101000a900473ffffffffffffffffffffffffffffffffffffffff1661481e565b6116b1576040517f08c379a00000000000000000000000000000000000000000000000000000000081526004016116a890616992565b60405180910390fd5b60028160030160146101000a81548160ff021916908360038111156116d9576116d8616218565b5b02179055506116e78361488d565b61173e8160010160009054906101000a900473ffffffffffffffffffffffffffffffffffffffff1682600201548360030160009054906101000a900473ffffffffffffffffffffffffffffffffffffffff16614a91565b7f000000000000000000000000000000000000000000000000000000000000000073ffffffffffffffffffffffffffffffffffffffff1663b88d4fde8260010160009054906101000a900473ffffffffffffffffffffffffffffffffffffffff1633866040518463ffffffff1660e01b81526004016117bf939291906169e9565b600060405180830381600087803b1580156117d957600080fd5b505af11580156117ed573d6000803e3d6000fd5b50505050827f5be1cef2101afbbf72fccd811a15ccfdedc8c44b5f50934100f262ffcd9a1f063383600201548460030160009054906101000a900473ffffffffffffffffffffffffffffffffffffffff1660405161184d93929190616a33565b60405180910390a25061185e614f26565b5050565b600f60009054906101000a900460ff1681565b600061188b82600a614f3090919063ffffffff16565b9050919050565b7f000000000000000000000000000000000000000000000000000000000000000081565b7f6393fa734211156fcc8c7dda6b0650f5c731d4c838c1db43445a149aa2f5b6fe81565b6000600260009054906101000a900460ff16905090565b7fb9f13ecb5e7f0f859c44b76b3a163e504787b446da95a26bf75e53e1ff4a1e0e61191b816146b0565b60005b84849050811015611a33578261196e5761196985858381811061194457611943616449565b5b90506020020160208101906119599190615d5c565b600a614f6090919063ffffffff16565b6119aa565b6119a985858381811061198457611983616449565b5b90506020020160208101906119999190615d5c565b600a614f9090919063ffffffff16565b5b508484828181106119be576119bd616449565b5b90506020020160208101906119d39190615d5c565b73ffffffffffffffffffffffffffffffffffffffff167f2df1cad2a2659e001c3804c872f69655356013e35c18c2e77a5d568078ab788f84604051611a18919061598c565b60405180910390a28080611a2b906164a7565b91505061191e565b5050505050565b600e6020528060005260406000206000915054906101000a900460ff1681565b6014602052816000526040600020602052806000526040600020600091509150505481565b600c6020528060005260406000206000915090505481565b60068060000154908060010154908060020154908060030160009054906101000a900473ffffffffffffffffffffffffffffffffffffffff16905084565b611add61587e565b6000601460008473ffffffffffffffffffffffffffffffffffffffff1673ffffffffffffffffffffffffffffffffffffffff168152602001908152602001600020600085815260200190815260200160002054905060008103611ba3576040518060c0016040528060008152602001600073ffffffffffffffffffffffffffffffffffffffff16815260200160008152602001600073ffffffffffffffffffffffffffffffffffffffff1681526020016000815260200160001515815250915050611cd6565b60126000858152602001908152602001600020600182611bc39190616a6a565b81548110611bd457611bd3616449565b5b90600052602060002090600602016040518060c0016040529081600082015481526020016001820160009054906101000a900473ffffffffffffffffffffffffffffffffffffffff1673ffffffffffffffffffffffffffffffffffffffff1673ffffffffffffffffffffffffffffffffffffffff168152602001600282015481526020016003820160009054906101000a900473ffffffffffffffffffffffffffffffffffffffff1673ffffffffffffffffffffffffffffffffffffffff1673ffffffffffffffffffffffffffffffffffffffff168152602001600482015481526020016005820160009054906101000a900460ff1615151515815250509150505b92915050565b611ce46147cf565b3373ffffffffffffffffffffffffffffffffffffffff167f000000000000000000000000000000000000000000000000000000000000000073ffffffffffffffffffffffffffffffffffffffff16636352211e856040518263ffffffff1660e01b8152600401611d549190615f9b565b602060405180830381865afa158015611d71573d6000803e3d6000fd5b505050506040513d601f19601f82011682018060405250810190611d959190616ab3565b73ffffffffffffffffffffffffffffffffffffffff1614611deb576040517f08c379a0000000000000000000000000000000000000000000000000000000008152600401611de290616b2c565b60405180910390fd5b3073ffffffffffffffffffffffffffffffffffffffff166354b7636e336040518263ffffffff1660e01b8152600401611e24919061687d565b602060405180830381865afa158015611e41573d6000803e3d6000fd5b505050506040513d601f19601f82011682018060405250810190611e6591906168ad565b611ea4576040517f08c379a0000000000000000000000000000000000000000000000000000000008152600401611e9b90616926565b60405180910390fd5b60008211611ee7576040517f08c379a0000000000000000000000000000000000000000000000000000000008152600401611ede90616b98565b60405180910390fd5b611ef08161453a565b611f2f576040517f08c379a0000000000000000000000000000000000000000000000000000000008152600401611f2690616c04565b60405180910390fd5b6040518060e001604052808481526020013373ffffffffffffffffffffffffffffffffffffffff1681526020018381526020018273ffffffffffffffffffffffffffffffffffffffff16815260200160006003811115611f9257611f91616218565b5b815260200142815260200142815250601060008581526020019081526020016000206000820151816000015560208201518160010160006101000a81548173ffffffffffffffffffffffffffffffffffffffff021916908373ffffffffffffffffffffffffffffffffffffffff1602179055506040820151816002015560608201518160030160006101000a81548173ffffffffffffffffffffffffffffffffffffffff021916908373ffffffffffffffffffffffffffffffffffffffff16021790555060808201518160030160146101000a81548160ff0219169083600381111561208157612080616218565b5b021790555060a0820151816004015560c082015181600501559050503373ffffffffffffffffffffffffffffffffffffffff16837f2c6c7576542d9307c65e21c836da28fc580279667ba9e8d5fe56dca491d5980384846040516120e6929190616c24565b60405180910390a36120f6614f26565b505050565b61271081565b60007f97667070c54ef182b0f5858b034beac1b6f3089aa2d3188bb1e8929f4fa9b92990506121308133612679565b61216f576040517f08c379a000000000000000000000000000000000000000000000000000000000815260040161216690616429565b60405180910390fd5b60006010600086815260200190815260200160002090506000600381111561219a57612199616218565b5b8160030160149054906101000a900460ff1660038111156121be576121bd616218565b5b146121fe576040517f08c379a00000000000000000000000000000000000000000000000000000000081526004016121f590616c99565b60405180910390fd5b60008411612241576040517f08c379a000000000000000000000000000000000000000000000000000000000815260040161223890616b98565b60405180910390fd5b61224a8361453a565b612289576040517f08c379a000000000000000000000000000000000000000000000000000000000815260040161228090616c04565b60405180910390fd5b838160020181905550828160030160006101000a81548173ffffffffffffffffffffffffffffffffffffffff021916908373ffffffffffffffffffffffffffffffffffffffff160217905550428160050181905550847fb82cb8d1ee5aa2af90399f2b0ece446b81a5f1e601da16a2a2b62dfcc8bb4ba38585604051612310929190616c24565b60405180910390a25050505050565b7f97667070c54ef182b0f5858b034beac1b6f3089aa2d3188bb1e8929f4fa9b929612349816146b0565b600073ffffffffffffffffffffffffffffffffffffffff168273ffffffffffffffffffffffffffffffffffffffff16036123b8576040517f08c379a00000000000000000000000000000000000000000000000000000000081526004016123af90616d05565b60405180910390fd5b600360010154831115612400576040517f08c379a00000000000000000000000000000000000000000000000000000000081526004016123f790616d71565b60405180910390fd5b60006003600001549050600060036001015490508460036000018190555083600360020160006101000a81548173ffffffffffffffffffffffffffffffffffffffff021916908373ffffffffffffffffffffffffffffffffffffffff1602179055503373ffffffffffffffffffffffffffffffffffffffff167f7c08ec61bfdc4469c5f8ec2332c513ac1e0980475856efedf21da749334854478387846003600101546040516124b394939291906167cc565b60405180910390a25050505050565b7fb9f13ecb5e7f0f859c44b76b3a163e504787b446da95a26bf75e53e1ff4a1e0e81565b60007f97667070c54ef182b0f5858b034beac1b6f3089aa2d3188bb1e8929f4fa9b92990506125158133612679565b612554576040517f08c379a000000000000000000000000000000000000000000000000000000000815260040161254b90616429565b60405180910390fd5b600073ffffffffffffffffffffffffffffffffffffffff168273ffffffffffffffffffffffffffffffffffffffff16036125c3576040517f08c379a00000000000000000000000000000000000000000000000000000000081526004016125ba90616e03565b60405180910390fd5b6000600e60008473ffffffffffffffffffffffffffffffffffffffff1673ffffffffffffffffffffffffffffffffffffffff16815260200190815260200160002060006101000a81548160ff0219169083151502179055503373ffffffffffffffffffffffffffffffffffffffff168273ffffffffffffffffffffffffffffffffffffffff167ff26a45171a2cee53dc4409f66880ab4bd14f52dc6412965780895ca64abfa92360405160405180910390a35050565b60006001600084815260200190815260200160002060000160008373ffffffffffffffffffffffffffffffffffffffff1673ffffffffffffffffffffffffffffffffffffffff16815260200190815260200160002060009054906101000a900460ff16905092915050565b6126ec6147cf565b6000601460003373ffffffffffffffffffffffffffffffffffffffff1673ffffffffffffffffffffffffffffffffffffffff168152602001908152602001600020600083815260200190815260200160002054905060008111612784576040517f08c379a000000000000000000000000000000000000000000000000000000000815260040161277b90616e6f565b60405180910390fd5b6000601260008481526020019081526020016000206001836127a69190616a6a565b815481106127b7576127b6616449565b5b906000526020600020906006020190508060050160009054906101000a900460ff16612818576040517f08c379a000000000000000000000000000000000000000000000000000000000815260040161280f90616edb565b60405180910390fd5b3373ffffffffffffffffffffffffffffffffffffffff168160010160009054906101000a900473ffffffffffffffffffffffffffffffffffffffff1673ffffffffffffffffffffffffffffffffffffffff16146128aa576040517f08c379a00000000000000000000000000000000000000000000000000000000081526004016128a190616f47565b60405180910390fd5b60008160050160006101000a81548160ff0219169083151502179055506000601460003373ffffffffffffffffffffffffffffffffffffffff1673ffffffffffffffffffffffffffffffffffffffff168152602001908152602001600020600085815260200190815260200160002081905550600073ffffffffffffffffffffffffffffffffffffffff168160030160009054906101000a900473ffffffffffffffffffffffffffffffffffffffff1673ffffffffffffffffffffffffffffffffffffffff1603612b165760006013600085815260200190815260200160002060003373ffffffffffffffffffffffffffffffffffffffff1673ffffffffffffffffffffffffffffffffffffffff1681526020019081526020016000205490508160020154811015612a11576040517f08c379a0000000000000000000000000000000000000000000000000000000008152600401612a0890616fb3565b60405180910390fd5b60006013600086815260200190815260200160002060003373ffffffffffffffffffffffffffffffffffffffff1673ffffffffffffffffffffffffffffffffffffffff1681526020019081526020016000208190555060003373ffffffffffffffffffffffffffffffffffffffff1682604051612a8d90617001565b60006040518083038185875af1925050503d8060008114612aca576040519150601f19603f3d011682016040523d82523d6000602084013e612acf565b606091505b5050905080612b13576040517f08c379a0000000000000000000000000000000000000000000000000000000008152600401612b0a90617062565b60405180910390fd5b50505b3373ffffffffffffffffffffffffffffffffffffffff16837faf2f02012ea1953fe9293dd4a8bb5194c96792324f9385297c991c2cfeade3d98360020154604051612b619190615f9b565b60405180910390a35050612b73614f26565b50565b6000801b81565b7f97667070c54ef182b0f5858b034beac1b6f3089aa2d3188bb1e8929f4fa9b929612ba7816146b0565b8115612c085782600c60008673ffffffffffffffffffffffffffffffffffffffff1673ffffffffffffffffffffffffffffffffffffffff1681526020019081526020016000206000828254612bfc9190617082565b92505081905550612ce5565b82600c60008673ffffffffffffffffffffffffffffffffffffffff1673ffffffffffffffffffffffffffffffffffffffff1681526020019081526020016000205411612c55576000612ca1565b82600c60008673ffffffffffffffffffffffffffffffffffffffff1673ffffffffffffffffffffffffffffffffffffffff16815260200190815260200160002054612ca09190616a6a565b5b600c60008673ffffffffffffffffffffffffffffffffffffffff1673ffffffffffffffffffffffffffffffffffffffff168152602001908152602001600020819055505b50505050565b612cf36147cf565b600060106000858152602001908152602001600020905060006003811115612d1e57612d1d616218565b5b8160030160149054906101000a900460ff166003811115612d4257612d41616218565b5b14612d82576040517f08c379a0000000000000000000000000000000000000000000000000000000008152600401612d7990617102565b60405180910390fd5b3373ffffffffffffffffffffffffffffffffffffffff168160010160009054906101000a900473ffffffffffffffffffffffffffffffffffffffff1673ffffffffffffffffffffffffffffffffffffffff1603612e14576040517f08c379a0000000000000000000000000000000000000000000000000000000008152600401612e0b9061716e565b60405180910390fd5b60008311612e57576040517f08c379a0000000000000000000000000000000000000000000000000000000008152600401612e4e90617200565b60405180910390fd5b3073ffffffffffffffffffffffffffffffffffffffff166354b7636e336040518263ffffffff1660e01b8152600401612e90919061687d565b602060405180830381865afa158015612ead573d6000803e3d6000fd5b505050506040513d601f19601f82011682018060405250810190612ed191906168ad565b612f10576040517f08c379a0000000000000000000000000000000000000000000000000000000008152600401612f0790616926565b60405180910390fd5b612f198261453a565b612f58576040517f08c379a0000000000000000000000000000000000000000000000000000000008152600401612f4f90616c04565b60405180910390fd5b6000601460003373ffffffffffffffffffffffffffffffffffffffff1673ffffffffffffffffffffffffffffffffffffffff1681526020019081526020016000206000868152602001908152602001600020549050600073ffffffffffffffffffffffffffffffffffffffff168373ffffffffffffffffffffffffffffffffffffffff160361308f57833414613023576040517f08c379a000000000000000000000000000000000000000000000000000000000815260040161301a9061726c565b60405180910390fd5b346013600087815260200190815260200160002060003373ffffffffffffffffffffffffffffffffffffffff1673ffffffffffffffffffffffffffffffffffffffff16815260200190815260200160002060008282546130839190617082565b9250508190555061315a565b600083905060008173ffffffffffffffffffffffffffffffffffffffff1663dd62ed3e33306040518363ffffffff1660e01b81526004016130d192919061728c565b602060405180830381865afa1580156130ee573d6000803e3d6000fd5b505050506040513d601f19601f8201168201806040525081019061311291906172ca565b905085811015613157576040517f08c379a000000000000000000000000000000000000000000000000000000000815260040161314e90617343565b60405180910390fd5b50505b81600201548410156131a1576040517f08c379a0000000000000000000000000000000000000000000000000000000008152600401613198906173af565b60405180910390fd5b60008060126000888152602001908152602001600020905060005b8180549050811015613269578181815481106131db576131da616449565b5b906000526020600020906006020160050160009054906101000a900460ff16801561322957508282828154811061321557613214616449565b5b906000526020600020906006020160020154115b156132565781818154811061324157613240616449565b5b90600052602060002090600602016002015492505b8080613261906164a7565b9150506131bc565b5060008211156132e15760006064600560646132859190617082565b8461329091906173cf565b61329a9190617440565b9050808710156132df576040517f08c379a00000000000000000000000000000000000000000000000000000000081526004016132d6906174e3565b60405180910390fd5b505b60008311156134995760006012600089815260200190815260200160002060018561330c9190616a6a565b8154811061331d5761331c616449565b5b906000526020600020906006020190508060050160009054906101000a900460ff1661337e576040517f08c379a00000000000000000000000000000000000000000000000000000000081526004016133759061754f565b60405180910390fd5b8573ffffffffffffffffffffffffffffffffffffffff168160030160009054906101000a900473ffffffffffffffffffffffffffffffffffffffff1673ffffffffffffffffffffffffffffffffffffffff1614613410576040517f08c379a0000000000000000000000000000000000000000000000000000000008152600401613407906175bb565b60405180910390fd5b60006064600560646134229190617082565b836002015461343191906173cf565b61343b9190617440565b905080881015613480576040517f08c379a00000000000000000000000000000000000000000000000000000000081526004016134779061764d565b60405180910390fd5b8782600201819055504282600401819055505050613671565b60006040518060c001604052808981526020013373ffffffffffffffffffffffffffffffffffffffff1681526020018881526020018773ffffffffffffffffffffffffffffffffffffffff168152602001428152602001600115158152509050601260008981526020019081526020016000208190806001815401808255809150506001900390600052602060002090600602016000909190919091506000820151816000015560208201518160010160006101000a81548173ffffffffffffffffffffffffffffffffffffffff021916908373ffffffffffffffffffffffffffffffffffffffff1602179055506040820151816002015560608201518160030160006101000a81548173ffffffffffffffffffffffffffffffffffffffff021916908373ffffffffffffffffffffffffffffffffffffffff1602179055506080820151816004015560a08201518160050160006101000a81548160ff02191690831515021790555050506012600089815260200190815260200160002080549050601460003373ffffffffffffffffffffffffffffffffffffffff1673ffffffffffffffffffffffffffffffffffffffff16815260200190815260200160002060008a815260200190815260200160002081905550505b3373ffffffffffffffffffffffffffffffffffffffff16877fe30abccebb20a387be8e75e927d7e06ce1bf9d77bb3888516663bdc8995fb33488886040516136ba929190616c24565b60405180910390a3505050506136ce614f26565b505050565b6011602052816000526040600020602052806000526040600020600091509150505481565b600581565b60008061370984614fc0565b9050600061371685614fcf565b9050612710818360066000015461372d9190617082565b6137379190617082565b8561374291906173cf565b61374c9190617440565b9250505092915050565b6012602052816000526040600020818154811061377257600080fd5b9060005260206000209060060201600091509150508060000154908060010160009054906101000a900473ffffffffffffffffffffffffffffffffffffffff16908060020154908060030160009054906101000a900473ffffffffffffffffffffffffffffffffffffffff16908060040154908060050160009054906101000a900460ff16905086565b7f000000000000000000000000000000000000000000000000000000000000000081565b6000801b61382d816146b0565b613835615035565b50565b6000801b613845816146b0565b81600d600085815260200190815260200160002060006101000a81548160ff021916908315150217905550505050565b61387e82611022565b613887816146b0565b6138918383615098565b3373ffffffffffffffffffffffffffffffffffffffff168273ffffffffffffffffffffffffffffffffffffffff16847f77a3124d5a7fb118ef3bd073fd7ee2c762b24256db96ace524ecd6b6cf11415c60405160405180910390a4505050565b6013602052816000526040600020602052806000526040600020600091509150505481565b60106020528060005260406000206000915090508060000154908060010160009054906101000a900473ffffffffffffffffffffffffffffffffffffffff16908060020154908060030160009054906101000a900473ffffffffffffffffffffffffffffffffffffffff16908060030160149054906101000a900460ff16908060040154908060050154905087565b61271081565b6139b36147cf565b6000601060008781526020019081526020016000209050600060038111156139de576139dd616218565b5b8160030160149054906101000a900460ff166003811115613a0257613a01616218565b5b14613a42576040517f08c379a0000000000000000000000000000000000000000000000000000000008152600401613a3990617102565b60405180910390fd5b3373ffffffffffffffffffffffffffffffffffffffff168160010160009054906101000a900473ffffffffffffffffffffffffffffffffffffffff1673ffffffffffffffffffffffffffffffffffffffff1614613ad4576040517f08c379a0000000000000000000000000000000000000000000000000000000008152600401613acb906176b9565b60405180910390fd5b60008511613b17576040517f08c379a0000000000000000000000000000000000000000000000000000000008152600401613b0e90617725565b60405180910390fd5b8460126000888152602001908152602001600020805490501015613b70576040517f08c379a0000000000000000000000000000000000000000000000000000000008152600401613b6790617725565b60405180910390fd5b600060126000888152602001908152602001600020600187613b929190616a6a565b81548110613ba357613ba2616449565b5b906000526020600020906006020190508060050160009054906101000a900460ff16613c04576040517f08c379a0000000000000000000000000000000000000000000000000000000008152600401613bfb9061754f565b60405180910390fd5b8473ffffffffffffffffffffffffffffffffffffffff168160010160009054906101000a900473ffffffffffffffffffffffffffffffffffffffff1673ffffffffffffffffffffffffffffffffffffffff1614613c96576040517f08c379a0000000000000000000000000000000000000000000000000000000008152600401613c8d90617791565b60405180910390fd5b83816002015414613cdc576040517f08c379a0000000000000000000000000000000000000000000000000000000008152600401613cd3906177fd565b60405180910390fd5b8273ffffffffffffffffffffffffffffffffffffffff168160030160009054906101000a900473ffffffffffffffffffffffffffffffffffffffff1673ffffffffffffffffffffffffffffffffffffffff1614613d6e576040517f08c379a0000000000000000000000000000000000000000000000000000000008152600401613d6590617869565b60405180910390fd5b3373ffffffffffffffffffffffffffffffffffffffff167f000000000000000000000000000000000000000000000000000000000000000073ffffffffffffffffffffffffffffffffffffffff16636352211e896040518263ffffffff1660e01b8152600401613dde9190615f9b565b602060405180830381865afa158015613dfb573d6000803e3d6000fd5b505050506040513d601f19601f82011682018060405250810190613e1f9190616ab3565b73ffffffffffffffffffffffffffffffffffffffff1614613e75576040517f08c379a0000000000000000000000000000000000000000000000000000000008152600401613e6c906178d5565b60405180910390fd5b60028260030160146101000a81548160ff02191690836003811115613e9d57613e9c616218565b5b021790555060008160050160006101000a81548160ff021916908315150217905550600060036000015490506000600360020160009054906101000a900473ffffffffffffffffffffffffffffffffffffffff1690506000612710838560020154613f0891906173cf565b613f129190617440565b90506000818560020154613f269190616a6a565b9050600073ffffffffffffffffffffffffffffffffffffffff168560030160009054906101000a900473ffffffffffffffffffffffffffffffffffffffff1673ffffffffffffffffffffffffffffffffffffffff160361414e576000601360008d815260200190815260200160002060008760010160009054906101000a900473ffffffffffffffffffffffffffffffffffffffff1673ffffffffffffffffffffffffffffffffffffffff1673ffffffffffffffffffffffffffffffffffffffff1681526020019081526020016000205490508560020154811015614040576040517f08c379a000000000000000000000000000000000000000000000000000000000815260040161403790616fb3565b60405180910390fd5b6000601360008e815260200190815260200160002060008860010160009054906101000a900473ffffffffffffffffffffffffffffffffffffffff1673ffffffffffffffffffffffffffffffffffffffff1673ffffffffffffffffffffffffffffffffffffffff168152602001908152602001600020819055503373ffffffffffffffffffffffffffffffffffffffff166108fc839081150290604051600060405180830381858888f19350505050158015614100573d6000803e3d6000fd5b508373ffffffffffffffffffffffffffffffffffffffff166108fc849081150290604051600060405180830381858888f19350505050158015614147573d6000803e3d6000fd5b505061433f565b60008560030160009054906101000a900473ffffffffffffffffffffffffffffffffffffffff1690508073ffffffffffffffffffffffffffffffffffffffff166323b872dd8760010160009054906101000a900473ffffffffffffffffffffffffffffffffffffffff1633856040518463ffffffff1660e01b81526004016141d8939291906178f5565b6020604051808303816000875af11580156141f7573d6000803e3d6000fd5b505050506040513d601f19601f8201168201806040525081019061421b91906168ad565b61425a576040517f08c379a000000000000000000000000000000000000000000000000000000000815260040161425190617978565b60405180910390fd5b8073ffffffffffffffffffffffffffffffffffffffff166323b872dd8760010160009054906101000a900473ffffffffffffffffffffffffffffffffffffffff1686866040518463ffffffff1660e01b81526004016142bb939291906178f5565b6020604051808303816000875af11580156142da573d6000803e3d6000fd5b505050506040513d601f19601f820116820180604052508101906142fe91906168ad565b61433d576040517f08c379a0000000000000000000000000000000000000000000000000000000008152600401614334906179e4565b60405180910390fd5b505b7f000000000000000000000000000000000000000000000000000000000000000073ffffffffffffffffffffffffffffffffffffffff1663b88d4fde338760010160009054906101000a900473ffffffffffffffffffffffffffffffffffffffff168e6040518463ffffffff1660e01b81526004016143c0939291906169e9565b600060405180830381600087803b1580156143da57600080fd5b505af11580156143ee573d6000803e3d6000fd5b505050506144088b60018c6144039190616a6a565b6150b9565b8460010160009054906101000a900473ffffffffffffffffffffffffffffffffffffffff1673ffffffffffffffffffffffffffffffffffffffff163373ffffffffffffffffffffffffffffffffffffffff168c7ffd9d7289c0b47546fff41663663c2372aa45809b7ab87d908e443a3821cb5b4e88600201548960030160009054906101000a900473ffffffffffffffffffffffffffffffffffffffff166040516144b4929190616c24565b60405180910390a45050505050506144ca614f26565b5050505050565b600d6020528060005260406000206000915054906101000a900460ff1681565b6000801b6144fe816146b0565b614506615213565b50565b7f97667070c54ef182b0f5858b034beac1b6f3089aa2d3188bb1e8929f4fa9b92981565b6000600360000154905090565b6000600f60009054906101000a900460ff1661455957600190506145a9565b600e60008373ffffffffffffffffffffffffffffffffffffffff1673ffffffffffffffffffffffffffffffffffffffff16815260200190815260200160002060009054906101000a900460ff1690505b919050565b6000806000806000806010600088815260200190815260200160002090508060010160009054906101000a900473ffffffffffffffffffffffffffffffffffffffff1681600201548260030160009054906101000a900473ffffffffffffffffffffffffffffffffffffffff168360030160149054906101000a900460ff168460040154955095509550955095505091939590929450565b60007f01ffc9a7000000000000000000000000000000000000000000000000000000007bffffffffffffffffffffffffffffffffffffffffffffffffffffffff1916827bffffffffffffffffffffffffffffffffffffffffffffffffffffffff1916149050919050565b6146c1816146bc6146e5565b615276565b50565b6146cd82611022565b6146d6816146b0565b6146e083836152fb565b505050565b600033905090565b6146f78282612679565b156147cb5760006001600084815260200190815260200160002060000160008373ffffffffffffffffffffffffffffffffffffffff1673ffffffffffffffffffffffffffffffffffffffff16815260200190815260200160002060006101000a81548160ff0219169083151502179055506147706146e5565b73ffffffffffffffffffffffffffffffffffffffff168173ffffffffffffffffffffffffffffffffffffffff16837ff6391f5c32d9c69d2a47ea670b442974b53935d1edc7fd64eb21e047a839171b60405160405180910390a45b5050565b600260005403614814576040517f08c379a000000000000000000000000000000000000000000000000000000000815260040161480b90617a50565b60405180910390fd5b6002600081905550565b60006148298261453a565b6148365760009050614886565b600073ffffffffffffffffffffffffffffffffffffffff168273ffffffffffffffffffffffffffffffffffffffff16036148805783341015801561487957508383145b9050614886565b83831490505b9392505050565b600060126000838152602001908152602001600020905060005b8180549050811015614a8c578181815481106148c6576148c5616449565b5b906000526020600020906006020160050160009054906101000a900460ff1615614a795760008282815481106148ff576148fe616449565b5b906000526020600020906006020160050160006101000a81548160ff0219169083151502179055506000601460008484815481106149405761493f616449565b5b906000526020600020906006020160010160009054906101000a900473ffffffffffffffffffffffffffffffffffffffff1673ffffffffffffffffffffffffffffffffffffffff1673ffffffffffffffffffffffffffffffffffffffff1681526020019081526020016000206000858152602001908152602001600020819055508181815481106149d4576149d3616449565b5b906000526020600020906006020160010160009054906101000a900473ffffffffffffffffffffffffffffffffffffffff1673ffffffffffffffffffffffffffffffffffffffff16837faf2f02012ea1953fe9293dd4a8bb5194c96792324f9385297c991c2cfeade3d9848481548110614a5157614a50616449565b5b906000526020600020906006020160020154604051614a709190615f9b565b60405180910390a35b8080614a84906164a7565b9150506148a7565b505050565b600060036000015490506000600360020160009054906101000a900473ffffffffffffffffffffffffffffffffffffffff16905060006127108386614ad691906173cf565b614ae09190617440565b905060008186614af09190616a6a565b9050600073ffffffffffffffffffffffffffffffffffffffff168573ffffffffffffffffffffffffffffffffffffffff1603614d985785341015614b69576040517f08c379a0000000000000000000000000000000000000000000000000000000008152600401614b6090617abc565b60405180910390fd5b85341115614c2f5760003373ffffffffffffffffffffffffffffffffffffffff168734614b969190616a6a565b6108fc90604051614ba690617001565b600060405180830381858888f193505050503d8060008114614be4576040519150601f19603f3d011682016040523d82523d6000602084013e614be9565b606091505b5050905080614c2d576040517f08c379a0000000000000000000000000000000000000000000000000000000008152600401614c2490617b28565b60405180910390fd5b505b60008773ffffffffffffffffffffffffffffffffffffffff16826108fc90604051614c5990617001565b600060405180830381858888f193505050503d8060008114614c97576040519150601f19603f3d011682016040523d82523d6000602084013e614c9c565b606091505b5050905080614ce0576040517f08c379a0000000000000000000000000000000000000000000000000000000008152600401614cd790617b94565b60405180910390fd5b60008473ffffffffffffffffffffffffffffffffffffffff16846108fc90604051614d0a90617001565b600060405180830381858888f193505050503d8060008114614d48576040519150601f19603f3d011682016040523d82523d6000602084013e614d4d565b606091505b5050905080614d91576040517f08c379a0000000000000000000000000000000000000000000000000000000008152600401614d88906179e4565b60405180910390fd5b5050614f1d565b60008590508073ffffffffffffffffffffffffffffffffffffffff166323b872dd338a856040518463ffffffff1660e01b8152600401614dda939291906178f5565b6020604051808303816000875af1158015614df9573d6000803e3d6000fd5b505050506040513d601f19601f82011682018060405250810190614e1d91906168ad565b614e5c576040517f08c379a0000000000000000000000000000000000000000000000000000000008152600401614e5390617c00565b60405180910390fd5b8073ffffffffffffffffffffffffffffffffffffffff166323b872dd3386866040518463ffffffff1660e01b8152600401614e99939291906178f5565b6020604051808303816000875af1158015614eb8573d6000803e3d6000fd5b505050506040513d601f19601f82011682018060405250810190614edc91906168ad565b614f1b576040517f08c379a0000000000000000000000000000000000000000000000000000000008152600401614f12906179e4565b60405180910390fd5b505b50505050505050565b6001600081905550565b6000614f58836000018373ffffffffffffffffffffffffffffffffffffffff1660001b6153db565b905092915050565b6000614f88836000018373ffffffffffffffffffffffffffffffffffffffff1660001b6153fe565b905092915050565b6000614fb8836000018373ffffffffffffffffffffffffffffffffffffffff1660001b615512565b905092915050565b60006006600201549050919050565b600080600c60008473ffffffffffffffffffffffffffffffffffffffff1673ffffffffffffffffffffffffffffffffffffffff1681526020019081526020016000205490506006600101548111615026578061502d565b6006600101545b915050919050565b61503d615582565b6000600260006101000a81548160ff0219169083151502179055507f5db9ee0a495bf2e6ff9c91a7834c1ba4fdd244a5e8aa4e537bd38aeae4b073aa6150816146e5565b60405161508e919061687d565b60405180910390a1565b6150a182611022565b6150aa816146b0565b6150b483836146ed565b505050565b600060126000848152602001908152602001600020905060005b818054905081101561520d5782811415801561511d57508181815481106150fd576150fc616449565b5b906000526020600020906006020160050160009054906101000a900460ff165b156151fa57600082828154811061513757615136616449565b5b906000526020600020906006020160050160006101000a81548160ff02191690831515021790555060006014600084848154811061517857615177616449565b5b906000526020600020906006020160010160009054906101000a900473ffffffffffffffffffffffffffffffffffffffff1673ffffffffffffffffffffffffffffffffffffffff1673ffffffffffffffffffffffffffffffffffffffff1681526020019081526020016000206000868152602001908152602001600020819055505b8080615205906164a7565b9150506150d3565b50505050565b61521b6155cb565b6001600260006101000a81548160ff0219169083151502179055507f62e78cea01bee320cd4e420270b5ea74000d11b0c9f74754ebdbfc544b05a25861525f6146e5565b60405161526c919061687d565b60405180910390a1565b6152808282612679565b6152f75761528d81615615565b61529b8360001c6020615642565b6040516020016152ac929190617d29565b6040516020818303038152906040526040517f08c379a00000000000000000000000000000000000000000000000000000000081526004016152ee9190617dad565b60405180910390fd5b5050565b6153058282612679565b6153d757600180600084815260200190815260200160002060000160008373ffffffffffffffffffffffffffffffffffffffff1673ffffffffffffffffffffffffffffffffffffffff16815260200190815260200160002060006101000a81548160ff02191690831515021790555061537c6146e5565b73ffffffffffffffffffffffffffffffffffffffff168173ffffffffffffffffffffffffffffffffffffffff16837f2f8788117e7eff1d82e926ec794901d17c78024a50270940304540a733656f0d60405160405180910390a45b5050565b600080836001016000848152602001908152602001600020541415905092915050565b600080836001016000848152602001908152602001600020549050600081146155065760006001826154309190616a6a565b90506000600186600001805490506154489190616a6a565b90508181146154b757600086600001828154811061546957615468616449565b5b906000526020600020015490508087600001848154811061548d5761548c616449565b5b90600052602060002001819055508387600101600083815260200190815260200160002081905550505b856000018054806154cb576154ca617dcf565b5b60019003818190600052602060002001600090559055856001016000868152602001908152602001600020600090556001935050505061550c565b60009150505b92915050565b600061551e83836153db565b61557757826000018290806001815401808255809150506001900390600052602060002001600090919091909150558260000180549050836001016000848152602001908152602001600020819055506001905061557c565b600090505b92915050565b61558a6118da565b6155c9576040517f08c379a00000000000000000000000000000000000000000000000000000000081526004016155c090617e4a565b60405180910390fd5b565b6155d36118da565b15615613576040517f08c379a000000000000000000000000000000000000000000000000000000000815260040161560a90617eb6565b60405180910390fd5b565b606061563b8273ffffffffffffffffffffffffffffffffffffffff16601460ff16615642565b9050919050565b60606000600283600261565591906173cf565b61565f9190617082565b67ffffffffffffffff811115615678576156776164ef565b5b6040519080825280601f01601f1916602001820160405280156156aa5781602001600182028036833780820191505090505b5090507f3000000000000000000000000000000000000000000000000000000000000000816000815181106156e2576156e1616449565b5b60200101907effffffffffffffffffffffffffffffffffffffffffffffffffffffffffffff1916908160001a9053507f78000000000000000000000000000000000000000000000000000000000000008160018151811061574657615745616449565b5b60200101907effffffffffffffffffffffffffffffffffffffffffffffffffffffffffffff1916908160001a9053506000600184600261578691906173cf565b6157909190617082565b90505b6001811115615830577f3031323334353637383961626364656600000000000000000000000000000000600f8616601081106157d2576157d1616449565b5b1a60f81b8282815181106157e9576157e8616449565b5b60200101907effffffffffffffffffffffffffffffffffffffffffffffffffffffffffffff1916908160001a905350600485901c94508061582990617ed6565b9050615793565b5060008414615874576040517f08c379a000000000000000000000000000000000000000000000000000000000815260040161586b90617f4b565b60405180910390fd5b8091505092915050565b6040518060c0016040528060008152602001600073ffffffffffffffffffffffffffffffffffffffff16815260200160008152602001600073ffffffffffffffffffffffffffffffffffffffff168152602001600081526020016000151581525090565b600080fd5b600080fd5b60007fffffffff0000000000000000000000000000000000000000000000000000000082169050919050565b615921816158ec565b811461592c57600080fd5b50565b60008135905061593e81615918565b92915050565b60006020828403121561595a576159596158e2565b5b60006159688482850161592f565b91505092915050565b60008115159050919050565b61598681615971565b82525050565b60006020820190506159a1600083018461597d565b92915050565b6159b081615971565b81146159bb57600080fd5b50565b6000813590506159cd816159a7565b92915050565b6000602082840312156159e9576159e86158e2565b5b60006159f7848285016159be565b91505092915050565b6000819050919050565b615a1381615a00565b8114615a1e57600080fd5b50565b600081359050615a3081615a0a565b92915050565b600060208284031215615a4c57615a4b6158e2565b5b6000615a5a84828501615a21565b91505092915050565b600081519050919050565b600082825260208201905092915050565b6000819050602082019050919050565b615a9881615a00565b82525050565b600073ffffffffffffffffffffffffffffffffffffffff82169050919050565b6000615ac982615a9e565b9050919050565b615ad981615abe565b82525050565b615ae881615971565b82525050565b60c082016000820151615b046000850182615a8f565b506020820151615b176020850182615ad0565b506040820151615b2a6040850182615a8f565b506060820151615b3d6060850182615ad0565b506080820151615b506080850182615a8f565b5060a0820151615b6360a0850182615adf565b50505050565b6000615b758383615aee565b60c08301905092915050565b6000602082019050919050565b6000615b9982615a63565b615ba38185615a6e565b9350615bae83615a7f565b8060005b83811015615bdf578151615bc68882615b69565b9750615bd183615b81565b925050600181019050615bb2565b5085935050505092915050565b60006020820190508181036000830152615c068184615b8e565b905092915050565b615c1781615a00565b82525050565b615c2681615abe565b82525050565b6000606082019050615c416000830186615c0e565b615c4e6020830185615c0e565b615c5b6040830184615c1d565b949350505050565b6000819050919050565b615c7681615c63565b8114615c8157600080fd5b50565b600081359050615c9381615c6d565b92915050565b600060208284031215615caf57615cae6158e2565b5b6000615cbd84828501615c84565b91505092915050565b615ccf81615c63565b82525050565b6000602082019050615cea6000830184615cc6565b92915050565b615cf981615abe565b8114615d0457600080fd5b50565b600081359050615d1681615cf0565b92915050565b60008060408385031215615d3357615d326158e2565b5b6000615d4185828601615c84565b9250506020615d5285828601615d07565b9150509250929050565b600060208284031215615d7257615d716158e2565b5b6000615d8084828501615d07565b91505092915050565b600080600060608486031215615da257615da16158e2565b5b6000615db086828701615a21565b9350506020615dc186828701615a21565b9250506040615dd286828701615a21565b9150509250925092565b60008060408385031215615df357615df26158e2565b5b6000615e0185828601615a21565b9250506020615e1285828601615a21565b9150509250929050565b6000819050919050565b6000615e41615e3c615e3784615a9e565b615e1c565b615a9e565b9050919050565b6000615e5382615e26565b9050919050565b6000615e6582615e48565b9050919050565b615e7581615e5a565b82525050565b6000602082019050615e906000830184615e6c565b92915050565b600080fd5b600080fd5b600080fd5b60008083601f840112615ebb57615eba615e96565b5b8235905067ffffffffffffffff811115615ed857615ed7615e9b565b5b602083019150836020820283011115615ef457615ef3615ea0565b5b9250929050565b600080600060408486031215615f1457615f136158e2565b5b600084013567ffffffffffffffff811115615f3257615f316158e7565b5b615f3e86828701615ea5565b93509350506020615f51868287016159be565b9150509250925092565b60008060408385031215615f7257615f716158e2565b5b6000615f8085828601615d07565b9250506020615f9185828601615a21565b9150509250929050565b6000602082019050615fb06000830184615c0e565b92915050565b6000608082019050615fcb6000830187615c0e565b615fd86020830186615c0e565b615fe56040830185615c0e565b615ff26060830184615c1d565b95945050505050565b60008060408385031215616012576160116158e2565b5b600061602085828601615a21565b925050602061603185828601615d07565b9150509250929050565b60c0820160008201516160516000850182615a8f565b5060208201516160646020850182615ad0565b5060408201516160776040850182615a8f565b50606082015161608a6060850182615ad0565b50608082015161609d6080850182615a8f565b5060a08201516160b060a0850182615adf565b50505050565b600060c0820190506160cb600083018461603b565b92915050565b6000806000606084860312156160ea576160e96158e2565b5b60006160f886828701615a21565b935050602061610986828701615a21565b925050604061611a86828701615d07565b9150509250925092565b60008060006060848603121561613d5761613c6158e2565b5b600061614b86828701615d07565b935050602061615c86828701615a21565b925050604061616d868287016159be565b9150509250925092565b600060c08201905061618c6000830189615c0e565b6161996020830188615c1d565b6161a66040830187615c0e565b6161b36060830186615c1d565b6161c06080830185615c0e565b6161cd60a083018461597d565b979650505050505050565b600080604083850312156161ef576161ee6158e2565b5b60006161fd85828601615a21565b925050602061620e858286016159be565b9150509250929050565b7f4e487b7100000000000000000000000000000000000000000000000000000000600052602160045260246000fd5b6004811061625857616257616218565b5b50565b600081905061626982616247565b919050565b60006162798261625b565b9050919050565b6162898161626e565b82525050565b600060e0820190506162a4600083018a615c0e565b6162b16020830189615c1d565b6162be6040830188615c0e565b6162cb6060830187615c1d565b6162d86080830186616280565b6162e560a0830185615c0e565b6162f260c0830184615c0e565b98975050505050505050565b600080600080600060a0868803121561631a576163196158e2565b5b600061632888828901615a21565b955050602061633988828901615a21565b945050604061634a88828901615d07565b935050606061635b88828901615a21565b925050608061636c88828901615d07565b9150509295509295909350565b600060a08201905061638e6000830188615c1d565b61639b6020830187615c0e565b6163a86040830186615c1d565b6163b56060830185616280565b6163c26080830184615c0e565b9695505050505050565b600082825260208201905092915050565b7f4f70657261746f72207265717569726564000000000000000000000000000000600082015250565b60006164136011836163cc565b915061641e826163dd565b602082019050919050565b6000602082019050818103600083015261644281616406565b9050919050565b7f4e487b7100000000000000000000000000000000000000000000000000000000600052603260045260246000fd5b7f4e487b7100000000000000000000000000000000000000000000000000000000600052601160045260246000fd5b60006164b282615a00565b91507fffffffffffffffffffffffffffffffffffffffffffffffffffffffffffffffff82036164e4576164e3616478565b5b600182019050919050565b7f4e487b7100000000000000000000000000000000000000000000000000000000600052604160045260246000fd5b7f416363657373436f6e74726f6c3a2063616e206f6e6c792072656e6f756e636560008201527f20726f6c657320666f722073656c660000000000000000000000000000000000602082015250565b600061657a602f836163cc565b91506165858261651e565b604082019050919050565b600060208201905081810360008301526165a98161656d565b9050919050565b7f45544820697320616c6c6f7765642062792064656661756c7400000000000000600082015250565b60006165e66019836163cc565b91506165f1826165b0565b602082019050919050565b60006020820190508181036000830152616615816165d9565b9050919050565b7f52657761726473207661756c74206e6f74207365740000000000000000000000600082015250565b60006166526015836163cc565b915061665d8261661c565b602082019050919050565b6000602082019050818103600083015261668181616645565b9050919050565b7f426173652072617465203e323025000000000000000000000000000000000000600082015250565b60006166be600e836163cc565b91506166c982616688565b602082019050919050565b600060208201905081810360008301526166ed816166b1565b9050919050565b7f4d756c7469706c696572203e3230250000000000000000000000000000000000600082015250565b600061672a600f836163cc565b9150616735826166f4565b602082019050919050565b600060208201905081810360008301526167598161671d565b9050919050565b7f4c6561736520626f6e7573203e35250000000000000000000000000000000000600082015250565b6000616796600f836163cc565b91506167a182616760565b602082019050919050565b600060208201905081810360008301526167c581616789565b9050919050565b60006080820190506167e16000830187615c0e565b6167ee6020830186615c0e565b6167fb6040830185615c0e565b6168086060830184615c0e565b95945050505050565b7f4e6f7420617661696c61626c6500000000000000000000000000000000000000600082015250565b6000616847600d836163cc565b915061685282616811565b602082019050919050565b600060208201905081810360008301526168768161683a565b9050919050565b60006020820190506168926000830184615c1d565b92915050565b6000815190506168a7816159a7565b92915050565b6000602082840312156168c3576168c26158e2565b5b60006168d184828501616898565b91505092915050565b7f4b59432072657175697265640000000000000000000000000000000000000000600082015250565b6000616910600c836163cc565b915061691b826168da565b602082019050919050565b6000602082019050818103600083015261693f81616903565b9050919050565b7f5061796d656e74206661696c6564000000000000000000000000000000000000600082015250565b600061697c600e836163cc565b915061698782616946565b602082019050919050565b600060208201905081810360008301526169ab8161696f565b9050919050565b600082825260208201905092915050565b50565b60006169d36000836169b2565b91506169de826169c3565b600082019050919050565b60006080820190506169fe6000830186615c1d565b616a0b6020830185615c1d565b616a186040830184615c0e565b8181036060830152616a29816169c6565b9050949350505050565b6000606082019050616a486000830186615c1d565b616a556020830185615c0e565b616a626040830184615c1d565b949350505050565b6000616a7582615a00565b9150616a8083615a00565b9250828203905081811115616a9857616a97616478565b5b92915050565b600081519050616aad81615cf0565b92915050565b600060208284031215616ac957616ac86158e2565b5b6000616ad784828501616a9e565b91505092915050565b7f4e6f74204e465469206f776e6572000000000000000000000000000000000000600082015250565b6000616b16600e836163cc565b9150616b2182616ae0565b602082019050919050565b60006020820190508181036000830152616b4581616b09565b9050919050565b7f496e76616c696420707269636500000000000000000000000000000000000000600082015250565b6000616b82600d836163cc565b9150616b8d82616b4c565b602082019050919050565b60006020820190508181036000830152616bb181616b75565b9050919050565b7f5061796d656e7420746f6b656e206e6f7420616c6c6f77656400000000000000600082015250565b6000616bee6019836163cc565b9150616bf982616bb8565b602082019050919050565b60006020820190508181036000830152616c1d81616be1565b9050919050565b6000604082019050616c396000830185615c0e565b616c466020830184615c1d565b9392505050565b7f4e6f7420616374697665206c697374696e670000000000000000000000000000600082015250565b6000616c836012836163cc565b9150616c8e82616c4d565b602082019050919050565b60006020820190508181036000830152616cb281616c76565b9050919050565b7f496e76616c69642066656520636f6c6c6563746f722061646472657373000000600082015250565b6000616cef601d836163cc565b9150616cfa82616cb9565b602082019050919050565b60006020820190508181036000830152616d1e81616ce2565b9050919050565b7f45786365656473206d6178206665650000000000000000000000000000000000600082015250565b6000616d5b600f836163cc565b9150616d6682616d25565b602082019050919050565b60006020820190508181036000830152616d8a81616d4e565b9050919050565b7f43616e6e6f742072656d6f766520455448206173207061796d656e74206d657460008201527f686f640000000000000000000000000000000000000000000000000000000000602082015250565b6000616ded6023836163cc565b9150616df882616d91565b604082019050919050565b60006020820190508181036000830152616e1c81616de0565b9050919050565b7f4e6f206163746976652062696400000000000000000000000000000000000000600082015250565b6000616e59600d836163cc565b9150616e6482616e23565b602082019050919050565b60006020820190508181036000830152616e8881616e4c565b9050919050565b7f42696420616c726561647920696e616374697665000000000000000000000000600082015250565b6000616ec56014836163cc565b9150616ed082616e8f565b602082019050919050565b60006020820190508181036000830152616ef481616eb8565b9050919050565b7f4e6f742074686520626964646572000000000000000000000000000000000000600082015250565b6000616f31600e836163cc565b9150616f3c82616efb565b602082019050919050565b60006020820190508181036000830152616f6081616f24565b9050919050565b7f496e73756666696369656e742045544820657363726f77000000000000000000600082015250565b6000616f9d6017836163cc565b9150616fa882616f67565b602082019050919050565b60006020820190508181036000830152616fcc81616f90565b9050919050565b600081905092915050565b6000616feb600083616fd3565b9150616ff6826169c3565b600082019050919050565b600061700c82616fde565b9150819050919050565b7f42696420726566756e64206661696c6564000000000000000000000000000000600082015250565b600061704c6011836163cc565b915061705782617016565b602082019050919050565b6000602082019050818103600083015261707b8161703f565b9050919050565b600061708d82615a00565b915061709883615a00565b92508282019050808211156170b0576170af616478565b5b92915050565b7f50726f7065727479206e6f74206c697374656400000000000000000000000000600082015250565b60006170ec6013836163cc565b91506170f7826170b6565b602082019050919050565b6000602082019050818103600083015261711b816170df565b9050919050565b7f43616e6e6f7420626964206f6e20796f7572206f776e206c697374696e670000600082015250565b6000617158601e836163cc565b915061716382617122565b602082019050919050565b600060208201905081810360008301526171878161714b565b9050919050565b7f42696420616d6f756e74206d7573742062652067726561746572207468616e2060008201527f3000000000000000000000000000000000000000000000000000000000000000602082015250565b60006171ea6021836163cc565b91506171f58261718e565b604082019050919050565b60006020820190508181036000830152617219816171dd565b9050919050565b7f45544820616d6f756e74206d69736d6174636800000000000000000000000000600082015250565b60006172566013836163cc565b915061726182617220565b602082019050919050565b6000602082019050818103600083015261728581617249565b9050919050565b60006040820190506172a16000830185615c1d565b6172ae6020830184615c1d565b9392505050565b6000815190506172c481615a0a565b92915050565b6000602082840312156172e0576172df6158e2565b5b60006172ee848285016172b5565b91505092915050565b7f496e73756666696369656e7420746f6b656e20616c6c6f77616e636500000000600082015250565b600061732d601c836163cc565b9150617338826172f7565b602082019050919050565b6000602082019050818103600083015261735c81617320565b9050919050565b7f426964206d757374206d656574206c697374696e672070726963650000000000600082015250565b6000617399601b836163cc565b91506173a482617363565b602082019050919050565b600060208201905081810360008301526173c88161738c565b9050919050565b60006173da82615a00565b91506173e583615a00565b92508282026173f381615a00565b9150828204841483151761740a57617409616478565b5b5092915050565b7f4e487b7100000000000000000000000000000000000000000000000000000000600052601260045260246000fd5b600061744b82615a00565b915061745683615a00565b92508261746657617465617411565b5b828204905092915050565b7f426964206d75737420626520352520686967686572207468616e20637572726560008201527f6e74206869676865737400000000000000000000000000000000000000000000602082015250565b60006174cd602a836163cc565b91506174d882617471565b604082019050919050565b600060208201905081810360008301526174fc816174c0565b9050919050565b7f426964206973206e6f7420616374697665000000000000000000000000000000600082015250565b60006175396011836163cc565b915061754482617503565b602082019050919050565b600060208201905081810360008301526175688161752c565b9050919050565b7f43616e6e6f74206368616e6765207061796d656e7420746f6b656e0000000000600082015250565b60006175a5601b836163cc565b91506175b08261756f565b602082019050919050565b600060208201905081810360008301526175d481617598565b9050919050565b7f426964206d75737420626520352520686967686572207468616e20707265766960008201527f6f75730000000000000000000000000000000000000000000000000000000000602082015250565b60006176376023836163cc565b9150617642826175db565b604082019050919050565b600060208201905081810360008301526176668161762a565b9050919050565b7f4e6f74207468652073656c6c6572000000000000000000000000000000000000600082015250565b60006176a3600e836163cc565b91506176ae8261766d565b602082019050919050565b600060208201905081810360008301526176d281617696565b9050919050565b7f496e76616c69642062696420696e646578000000000000000000000000000000600082015250565b600061770f6011836163cc565b915061771a826176d9565b602082019050919050565b6000602082019050818103600083015261773e81617702565b9050919050565b7f426964646572206d69736d617463680000000000000000000000000000000000600082015250565b600061777b600f836163cc565b915061778682617745565b602082019050919050565b600060208201905081810360008301526177aa8161776e565b9050919050565b7f416d6f756e74206d69736d617463680000000000000000000000000000000000600082015250565b60006177e7600f836163cc565b91506177f2826177b1565b602082019050919050565b60006020820190508181036000830152617816816177da565b9050919050565b7f546f6b656e206d69736d61746368000000000000000000000000000000000000600082015250565b6000617853600e836163cc565b915061785e8261781d565b602082019050919050565b6000602082019050818103600083015261788281617846565b9050919050565b7f4e6f74204e4654206f776e657200000000000000000000000000000000000000600082015250565b60006178bf600d836163cc565b91506178ca82617889565b602082019050919050565b600060208201905081810360008301526178ee816178b2565b9050919050565b600060608201905061790a6000830186615c1d565b6179176020830185615c1d565b6179246040830184615c0e565b949350505050565b7f5472616e7366657220746f2073656c6c6572206661696c656400000000000000600082015250565b60006179626019836163cc565b915061796d8261792c565b602082019050919050565b6000602082019050818103600083015261799181617955565b9050919050565b7f466565207472616e73666572206661696c656400000000000000000000000000600082015250565b60006179ce6013836163cc565b91506179d982617998565b602082019050919050565b600060208201905081810360008301526179fd816179c1565b9050919050565b7f5265656e7472616e637947756172643a207265656e7472616e742063616c6c00600082015250565b6000617a3a601f836163cc565b9150617a4582617a04565b602082019050919050565b60006020820190508181036000830152617a6981617a2d565b9050919050565b7f496e73756666696369656e742045544800000000000000000000000000000000600082015250565b6000617aa66010836163cc565b9150617ab182617a70565b602082019050919050565b60006020820190508181036000830152617ad581617a99565b9050919050565b7f45544820726566756e64206661696c6564000000000000000000000000000000600082015250565b6000617b126011836163cc565b9150617b1d82617adc565b602082019050919050565b60006020820190508181036000830152617b4181617b05565b9050919050565b7f53656c6c6572207472616e73666572206661696c656400000000000000000000600082015250565b6000617b7e6016836163cc565b9150617b8982617b48565b602082019050919050565b60006020820190508181036000830152617bad81617b71565b9050919050565b7f5472616e73666572206661696c65640000000000000000000000000000000000600082015250565b6000617bea600f836163cc565b9150617bf582617bb4565b602082019050919050565b60006020820190508181036000830152617c1981617bdd565b9050919050565b600081905092915050565b7f416363657373436f6e74726f6c3a206163636f756e7420000000000000000000600082015250565b6000617c61601783617c20565b9150617c6c82617c2b565b601782019050919050565b600081519050919050565b60005b83811015617ca0578082015181840152602081019050617c85565b60008484015250505050565b6000617cb782617c77565b617cc18185617c20565b9350617cd1818560208601617c82565b80840191505092915050565b7f206973206d697373696e6720726f6c6520000000000000000000000000000000600082015250565b6000617d13601183617c20565b9150617d1e82617cdd565b601182019050919050565b6000617d3482617c54565b9150617d408285617cac565b9150617d4b82617d06565b9150617d578284617cac565b91508190509392505050565b6000601f19601f8301169050919050565b6000617d7f82617c77565b617d8981856163cc565b9350617d99818560208601617c82565b617da281617d63565b840191505092915050565b60006020820190508181036000830152617dc78184617d74565b905092915050565b7f4e487b7100000000000000000000000000000000000000000000000000000000600052603160045260246000fd5b7f5061757361626c653a206e6f7420706175736564000000000000000000000000600082015250565b6000617e346014836163cc565b9150617e3f82617dfe565b602082019050919050565b60006020820190508181036000830152617e6381617e27565b9050919050565b7f5061757361626c653a2070617573656400000000000000000000000000000000600082015250565b6000617ea06010836163cc565b9150617eab82617e6a565b602082019050919050565b60006020820190508181036000830152617ecf81617e93565b9050919050565b6000617ee182615a00565b915060008203617ef457617ef3616478565b5b600182039050919050565b7f537472696e67733a20686578206c656e67746820696e73756666696369656e74600082015250565b6000617f356020836163cc565b9150617f4082617eff565b602082019050919050565b60006020820190508181036000830152617f6481617f28565b905091905056fea2646970667358221220739e98b1e150af0e0abe0f991c12d16bd14f6731971529237e0b7bccdbee6f0364736f6c63430008140033",
  "linkReferences": {},
  "deployedLinkReferences": {}
}