{
  "_format": "hh-sol-artifact-1",
  "contractName": "PropertyMarket",
  "sourceName": "contracts/market/PropertyMarket.sol",
  "abi": [
    {
      "inputs": [
        {
          "internalType": "address",
          "name": "_nfti",
          "type": "address"
        },
        {
          "internalType": "address",
          "name": "_nftm",
          "type": "address"
        },
        {
          "internalType": "address",
          "name": "admin",
          "type": "address"
        },
        {
          "internalType": "address",
          "name": "fee",
          "type": "address"
        },
        {
          "internalType": "address",
          "name": "vault",
          "type": "address"
        }
      ],
      "stateMutability": "nonpayable",
      "type": "constructor"
    },
    {
      "anonymous": false,
      "inputs": [
        {
          "indexed": true,
          "internalType": "bytes32",
          "name": "role",
          "type": "bytes32"
        },
        {
          "indexed": true,
          "internalType": "address",
          "name": "account",
          "type": "address"
        },
        {
          "indexed": true,
          "internalType": "address",
          "name": "sender",
          "type": "address"
        }
      ],
      "name": "AdminRoleGranted",
      "type": "event"
    },
    {
      "anonymous": false,
      "inputs": [
        {
          "indexed": true,
          "internalType": "bytes32",
          "name": "role",
          "type": "bytes32"
        },
        {
          "indexed": true,
          "internalType": "address",
          "name": "account",
          "type": "address"
        },
        {
          "indexed": true,
          "internalType": "address",
          "name": "sender",
          "type": "address"
        }
      ],
      "name": "AdminRoleRevoked",
      "type": "event"
    },
    {
      "anonymous": false,
      "inputs": [
        {
          "indexed": true,
          "internalType": "uint256",
          "name": "tokenId",
          "type": "uint256"
        },
        {
          "indexed": true,
          "internalType": "address",
          "name": "seller",
          "type": "address"
        },
        {
          "indexed": true,
          "internalType": "address",
          "name": "bidder",
          "type": "address"
        },
        {
          "indexed": false,
          "internalType": "uint256",
          "name": "amount",
          "type": "uint256"
        },
        {
          "indexed": false,
          "internalType": "address",
          "name": "paymentToken",
          "type": "address"
        }
      ],
      "name": "BidAccepted",
      "type": "event"
    },
    {
      "anonymous": false,
      "inputs": [
        {
          "indexed": true,
          "internalType": "uint256",
          "name": "tokenId",
          "type": "uint256"
        },
        {
          "indexed": true,
          "internalType": "address",
          "name": "seller",
          "type": "address"
        },
        {
          "indexed": true,
          "internalType": "address",
          "name": "bidder",
          "type": "address"
        },
        {
          "indexed": false,
          "internalType": "uint256",
          "name": "amount",
          "type": "uint256"
        },
        {
          "indexed": false,
          "internalType": "address",
          "name": "paymentToken",
          "type": "address"
        }
      ],
      "name": "BidAcceptedPendingPayment",
      "type": "event"
    },
    {
      "anonymous": false,
      "inputs": [
        {
          "indexed": true,
          "internalType": "uint256",
          "name": "tokenId",
          "type": "uint256"
        },
        {
          "indexed": true,
          "internalType": "address",
          "name": "bidder",
          "type": "address"
        },
        {
          "indexed": false,
          "internalType": "uint256",
          "name": "amount",
          "type": "uint256"
        }
      ],
      "name": "BidCancelled",
      "type": "event"
    },
    {
      "anonymous": false,
      "inputs": [
        {
          "indexed": true,
          "internalType": "uint256",
          "name": "tokenId",
          "type": "uint256"
        },
        {
          "indexed": true,
          "internalType": "address",
          "name": "bidder",
          "type": "address"
        },
        {
          "indexed": false,
          "internalType": "uint256",
          "name": "amount",
          "type": "uint256"
        },
        {
          "indexed": false,
          "internalType": "address",
          "name": "paymentToken",
          "type": "address"
        }
      ],
      "name": "BidPlaced",
      "type": "event"
    },
    {
      "anonymous": false,
      "inputs": [
        {
          "indexed": true,
          "internalType": "uint256",
          "name": "tokenId",
          "type": "uint256"
        },
        {
          "indexed": true,
          "internalType": "address",
          "name": "bidder",
          "type": "address"
        },
        {
          "indexed": false,
          "internalType": "uint256",
          "name": "amount",
          "type": "uint256"
        }
      ],
      "name": "BidRefundFailed",
      "type": "event"
    },
    {
      "anonymous": false,
      "inputs": [
        {
          "indexed": true,
          "internalType": "address",
          "name": "user",
          "type": "address"
        },
        {
          "indexed": false,
          "internalType": "uint256",
          "name": "oldScore",
          "type": "uint256"
        },
        {
          "indexed": false,
          "internalType": "uint256",
          "name": "newScore",
          "type": "uint256"
        }
      ],
      "name": "CommunityScoreUpdated",
      "type": "event"
    },
    {
      "anonymous": false,
      "inputs": [
        {
          "indexed": true,
          "internalType": "uint256",
          "name": "tokenId",
          "type": "uint256"
        },
        {
          "indexed": true,
          "internalType": "address",
          "name": "buyer",
          "type": "address"
        },
        {
          "indexed": false,
          "internalType": "uint256",
          "name": "purchasePrice",
          "type": "uint256"
        },
        {
          "indexed": false,
          "internalType": "uint256",
          "name": "highestBidOutbid",
          "type": "uint256"
        },
        {
          "indexed": false,
          "internalType": "address",
          "name": "paymentToken",
          "type": "address"
        }
      ],
      "name": "CompetitivePurchase",
      "type": "event"
    },
    {
      "anonymous": false,
      "inputs": [
        {
          "indexed": true,
          "internalType": "address",
          "name": "token",
          "type": "address"
        },
        {
          "indexed": false,
          "internalType": "bool",
          "name": "isDeflationary",
          "type": "bool"
        }
      ],
      "name": "DeflationaryTokenSet",
      "type": "event"
    },
    {
      "anonymous": false,
      "inputs": [
        {
          "indexed": true,
          "internalType": "address",
          "name": "token",
          "type": "address"
        },
        {
          "indexed": true,
          "internalType": "address",
          "name": "recipient",
          "type": "address"
        },
        {
          "indexed": false,
          "internalType": "uint256",
          "name": "amount",
          "type": "uint256"
        }
      ],
      "name": "EmergencyTokenWithdrawal",
      "type": "event"
    },
    {
      "anonymous": false,
      "inputs": [
        {
          "indexed": true,
          "internalType": "address",
          "name": "recipient",
          "type": "address"
        },
        {
          "indexed": false,
          "internalType": "uint256",
          "name": "amount",
          "type": "uint256"
        }
      ],
      "name": "EmergencyWithdrawal",
      "type": "event"
    },
    {
      "anonymous": false,
      "inputs": [
        {
          "indexed": false,
          "internalType": "uint256",
          "name": "oldBaseFee",
          "type": "uint256"
        },
        {
          "indexed": false,
          "internalType": "uint256",
          "name": "newBaseFee",
          "type": "uint256"
        },
        {
          "indexed": false,
          "internalType": "uint256",
          "name": "oldMaxFee",
          "type": "uint256"
        },
        {
          "indexed": false,
          "internalType": "uint256",
          "name": "newMaxFee",
          "type": "uint256"
        },
        {
          "indexed": true,
          "internalType": "address",
          "name": "admin",
          "type": "address"
        }
      ],
      "name": "FeeConfigUpdated",
      "type": "event"
    },
    {
      "anonymous": false,
      "inputs": [
        {
          "indexed": true,
          "internalType": "address",
          "name": "account",
          "type": "address"
        },
        {
          "indexed": false,
          "internalType": "bool",
          "name": "approved",
          "type": "bool"
        }
      ],
      "name": "KYCStatusUpdated",
      "type": "event"
    },
    {
      "anonymous": false,
      "inputs": [
        {
          "indexed": true,
          "internalType": "uint256",
          "name": "tokenId",
          "type": "uint256"
        },
        {
          "indexed": false,
          "internalType": "uint256",
          "name": "newPrice",
          "type": "uint256"
        }
      ],
      "name": "ListingPriceChanged",
      "type": "event"
    },
    {
      "anonymous": false,
      "inputs": [
        {
          "indexed": true,
          "internalType": "uint256",
          "name": "tokenId",
          "type": "uint256"
        },
        {
          "indexed": false,
          "internalType": "uint256",
          "name": "newPrice",
          "type": "uint256"
        },
        {
          "indexed": false,
          "internalType": "address",
          "name": "newPaymentToken",
          "type": "address"
        }
      ],
      "name": "ListingUpdated",
      "type": "event"
    },
    {
      "anonymous": false,
      "inputs": [
        {
          "indexed": true,
          "internalType": "address",
          "name": "multiSigOperator",
          "type": "address"
        }
      ],
      "name": "MultiSigOperatorSet",
      "type": "event"
    },
    {
      "anonymous": false,
      "inputs": [
        {
          "indexed": true,
          "internalType": "uint256",
          "name": "tokenId",
          "type": "uint256"
        },
        {
          "indexed": true,
          "internalType": "address",
          "name": "seller",
          "type": "address"
        },
        {
          "indexed": false,
          "internalType": "uint256",
          "name": "price",
          "type": "uint256"
        },
        {
          "indexed": false,
          "internalType": "address",
          "name": "paymentToken",
          "type": "address"
        }
      ],
      "name": "NewListing",
      "type": "event"
    },
    {
      "anonymous": false,
      "inputs": [
        {
          "indexed": false,
          "internalType": "address",
          "name": "account",
          "type": "address"
        }
      ],
      "name": "Paused",
      "type": "event"
    },
    {
      "anonymous": false,
      "inputs": [
        {
          "indexed": true,
          "internalType": "uint256",
          "name": "tokenId",
          "type": "uint256"
        },
        {
          "indexed": true,
          "internalType": "address",
          "name": "bidder",
          "type": "address"
        },
        {
          "indexed": false,
          "internalType": "uint256",
          "name": "amount",
          "type": "uint256"
        }
      ],
      "name": "PaymentExpired",
      "type": "event"
    },
    {
      "anonymous": false,
      "inputs": [
        {
          "indexed": true,
          "internalType": "address",
          "name": "seller",
          "type": "address"
        },
        {
          "indexed": true,
          "internalType": "address",
          "name": "buyer",
          "type": "address"
        },
        {
          "indexed": false,
          "internalType": "uint256",
          "name": "amount",
          "type": "uint256"
        },
        {
          "indexed": false,
          "internalType": "uint256",
          "name": "fees",
          "type": "uint256"
        },
        {
          "indexed": false,
          "internalType": "address",
          "name": "paymentToken",
          "type": "address"
        }
      ],
      "name": "PaymentProcessed",
      "type": "event"
    },
    {
      "anonymous": false,
      "inputs": [
        {
          "indexed": true,
          "internalType": "address",
          "name": "token",
          "type": "address"
        }
      ],
      "name": "PaymentTokenAdded",
      "type": "event"
    },
    {
      "anonymous": false,
      "inputs": [
        {
          "indexed": true,
          "internalType": "address",
          "name": "token",
          "type": "address"
        }
      ],
      "name": "PaymentTokenRemoved",
      "type": "event"
    },
    {
      "anonymous": false,
      "inputs": [
        {
          "indexed": true,
          "internalType": "uint256",
          "name": "tokenId",
          "type": "uint256"
        },
        {
          "indexed": false,
          "internalType": "address",
          "name": "buyer",
          "type": "address"
        },
        {
          "indexed": false,
          "internalType": "uint256",
          "name": "price",
          "type": "uint256"
        },
        {
          "indexed": false,
          "internalType": "address",
          "name": "paymentToken",
          "type": "address"
        }
      ],
      "name": "PropertySold",
      "type": "event"
    },
    {
      "anonymous": false,
      "inputs": [
        {
          "indexed": true,
          "internalType": "uint256",
          "name": "tokenId",
          "type": "uint256"
        },
        {
          "indexed": true,
          "internalType": "address",
          "name": "seller",
          "type": "address"
        },
        {
          "indexed": true,
          "internalType": "address",
          "name": "buyer",
          "type": "address"
        },
        {
          "indexed": false,
          "internalType": "uint256",
          "name": "finalPrice",
          "type": "uint256"
        },
        {
          "indexed": false,
          "internalType": "address",
          "name": "paymentToken",
          "type": "address"
        }
      ],
      "name": "PurchaseConfirmed",
      "type": "event"
    },
    {
      "anonymous": false,
      "inputs": [
        {
          "indexed": true,
          "internalType": "uint256",
          "name": "tokenId",
          "type": "uint256"
        },
        {
          "indexed": true,
          "internalType": "address",
          "name": "buyer",
          "type": "address"
        },
        {
          "indexed": false,
          "internalType": "uint256",
          "name": "offerPrice",
          "type": "uint256"
        },
        {
          "indexed": false,
          "internalType": "address",
          "name": "paymentToken",
          "type": "address"
        }
      ],
      "name": "PurchaseExpired",
      "type": "event"
    },
    {
      "anonymous": false,
      "inputs": [
        {
          "indexed": true,
          "internalType": "uint256",
          "name": "tokenId",
          "type": "uint256"
        },
        {
          "indexed": true,
          "internalType": "address",
          "name": "seller",
          "type": "address"
        },
        {
          "indexed": true,
          "internalType": "address",
          "name": "buyer",
          "type": "address"
        },
        {
          "indexed": false,
          "internalType": "uint256",
          "name": "offerPrice",
          "type": "uint256"
        },
        {
          "indexed": false,
          "internalType": "address",
          "name": "paymentToken",
          "type": "address"
        }
      ],
      "name": "PurchaseRejected",
      "type": "event"
    },
    {
      "anonymous": false,
      "inputs": [
        {
          "indexed": true,
          "internalType": "uint256",
          "name": "tokenId",
          "type": "uint256"
        },
        {
          "indexed": true,
          "internalType": "address",
          "name": "buyer",
          "type": "address"
        },
        {
          "indexed": false,
          "internalType": "uint256",
          "name": "offerPrice",
          "type": "uint256"
        },
        {
          "indexed": false,
          "internalType": "address",
          "name": "paymentToken",
          "type": "address"
        },
        {
          "indexed": false,
          "internalType": "uint256",
          "name": "confirmationDeadline",
          "type": "uint256"
        }
      ],
      "name": "PurchaseRequested",
      "type": "event"
    },
    {
      "anonymous": false,
      "inputs": [
        {
          "indexed": true,
          "internalType": "address",
          "name": "user",
          "type": "address"
        },
        {
          "indexed": false,
          "internalType": "uint256",
          "name": "amount",
          "type": "uint256"
        }
      ],
      "name": "RefundQueued",
      "type": "event"
    },
    {
      "anonymous": false,
      "inputs": [
        {
          "indexed": true,
          "internalType": "address",
          "name": "user",
          "type": "address"
        },
        {
          "indexed": false,
          "internalType": "uint256",
          "name": "amount",
          "type": "uint256"
        }
      ],
      "name": "RefundWithdrawn",
      "type": "event"
    },
    {
      "anonymous": false,
      "inputs": [
        {
          "indexed": false,
          "internalType": "uint256",
          "name": "oldBaseRate",
          "type": "uint256"
        },
        {
          "indexed": false,
          "internalType": "uint256",
          "name": "newBaseRate",
          "type": "uint256"
        },
        {
          "indexed": false,
          "internalType": "uint256",
          "name": "oldMultiplier",
          "type": "uint256"
        },
        {
          "indexed": false,
          "internalType": "uint256",
          "name": "newMultiplier",
          "type": "uint256"
        },
        {
          "indexed": true,
          "internalType": "address",
          "name": "admin",
          "type": "address"
        }
      ],
      "name": "RewardParametersUpdated",
      "type": "event"
    },
    {
      "anonymous": false,
      "inputs": [
        {
          "indexed": true,
          "internalType": "bytes32",
          "name": "role",
          "type": "bytes32"
        },
        {
          "indexed": true,
          "internalType": "bytes32",
          "name": "previousAdminRole",
          "type": "bytes32"
        },
        {
          "indexed": true,
          "internalType": "bytes32",
          "name": "newAdminRole",
          "type": "bytes32"
        }
      ],
      "name": "RoleAdminChanged",
      "type": "event"
    },
    {
      "anonymous": false,
      "inputs": [
        {
          "indexed": true,
          "internalType": "bytes32",
          "name": "role",
          "type": "bytes32"
        },
        {
          "indexed": true,
          "internalType": "address",
          "name": "account",
          "type": "address"
        },
        {
          "indexed": true,
          "internalType": "address",
          "name": "sender",
          "type": "address"
        }
      ],
      "name": "RoleGranted",
      "type": "event"
    },
    {
      "anonymous": false,
      "inputs": [
        {
          "indexed": true,
          "internalType": "bytes32",
          "name": "role",
          "type": "bytes32"
        },
        {
          "indexed": true,
          "internalType": "address",
          "name": "account",
          "type": "address"
        },
        {
          "indexed": true,
          "internalType": "address",
          "name": "sender",
          "type": "address"
        }
      ],
      "name": "RoleRevoked",
      "type": "event"
    },
    {
      "anonymous": false,
      "inputs": [
        {
          "indexed": false,
          "internalType": "bool",
          "name": "enabled",
          "type": "bool"
        }
      ],
      "name": "TimelockEnabledChanged",
      "type": "event"
    },
    {
      "anonymous": false,
      "inputs": [
        {
          "indexed": true,
          "internalType": "address",
          "name": "timelock",
          "type": "address"
        }
      ],
      "name": "TimelockSet",
      "type": "event"
    },
    {
      "anonymous": false,
      "inputs": [
        {
          "indexed": false,
          "internalType": "address",
          "name": "account",
          "type": "address"
        }
      ],
      "name": "Unpaused",
      "type": "event"
    },
    {
      "anonymous": false,
      "inputs": [
        {
          "indexed": false,
          "internalType": "bool",
          "name": "enabled",
          "type": "bool"
        }
      ],
      "name": "WhitelistStatusChanged",
      "type": "event"
    },
    {
      "inputs": [],
      "name": "BASIS_POINTS",
      "outputs": [
        {
          "internalType": "uint256",
          "name": "",
          "type": "uint256"
        }
      ],
      "stateMutability": "view",
      "type": "function"
    },
    {
      "inputs": [],
      "name": "DEFAULT_ADMIN_ROLE",
      "outputs": [
        {
          "internalType": "bytes32",
          "name": "",
          "type": "bytes32"
        }
      ],
      "stateMutability": "view",
      "type": "function"
    },
    {
      "inputs": [],
      "name": "LEGAL_ROLE",
      "outputs": [
        {
          "internalType": "bytes32",
          "name": "",
          "type": "bytes32"
        }
      ],
      "stateMutability": "view",
      "type": "function"
    },
    {
      "inputs": [],
      "name": "OPERATOR_ROLE",
      "outputs": [
        {
          "internalType": "bytes32",
          "name": "",
          "type": "bytes32"
        }
      ],
      "stateMutability": "view",
      "type": "function"
    },
    {
      "inputs": [],
      "name": "PAYMENT_TIMEOUT",
      "outputs": [
        {
          "internalType": "uint32",
          "name": "",
          "type": "uint32"
        }
      ],
      "stateMutability": "view",
      "type": "function"
    },
    {
      "inputs": [],
      "name": "PERCENTAGE_BASE",
      "outputs": [
        {
          "internalType": "uint256",
          "name": "",
          "type": "uint256"
        }
      ],
      "stateMutability": "view",
      "type": "function"
    },
    {
      "inputs": [],
      "name": "REWARD_MANAGER",
      "outputs": [
        {
          "internalType": "bytes32",
          "name": "",
          "type": "bytes32"
        }
      ],
      "stateMutability": "view",
      "type": "function"
    },
    {
      "inputs": [
        {
          "internalType": "uint256",
          "name": "tokenId",
          "type": "uint256"
        },
        {
          "internalType": "uint256",
          "name": "bidIndex",
          "type": "uint256"
        },
        {
          "internalType": "address",
          "name": "expectedBidder",
          "type": "address"
        },
        {
          "internalType": "uint256",
          "name": "expectedAmount",
          "type": "uint256"
        },
        {
          "internalType": "address",
          "name": "expectedPaymentToken",
          "type": "address"
        }
      ],
      "name": "acceptBid",
      "outputs": [],
      "stateMutability": "nonpayable",
      "type": "function"
    },
    {
      "inputs": [
        {
          "internalType": "address",
          "name": "token",
          "type": "address"
        }
      ],
      "name": "addAllowedToken",
      "outputs": [],
      "stateMutability": "nonpayable",
      "type": "function"
    },
    {
      "inputs": [
        {
          "internalType": "address",
          "name": "",
          "type": "address"
        }
      ],
      "name": "allowedPaymentTokens",
      "outputs": [
        {
          "internalType": "bool",
          "name": "",
          "type": "bool"
        }
      ],
      "stateMutability": "view",
      "type": "function"
    },
    {
      "inputs": [
        {
          "internalType": "address[]",
          "name": "accounts",
          "type": "address[]"
        },
        {
          "internalType": "bool",
          "name": "approved",
          "type": "bool"
        }
      ],
      "name": "batchApproveKYC",
      "outputs": [],
      "stateMutability": "nonpayable",
      "type": "function"
    },
    {
      "inputs": [
        {
          "internalType": "address",
          "name": "",
          "type": "address"
        },
        {
          "internalType": "uint256",
          "name": "",
          "type": "uint256"
        }
      ],
      "name": "bidIndexByBidder",
      "outputs": [
        {
          "internalType": "uint256",
          "name": "",
          "type": "uint256"
        }
      ],
      "stateMutability": "view",
      "type": "function"
    },
    {
      "inputs": [
        {
          "internalType": "uint256",
          "name": "",
          "type": "uint256"
        },
        {
          "internalType": "uint256",
          "name": "",
          "type": "uint256"
        }
      ],
      "name": "bidsForToken",
      "outputs": [
        {
          "internalType": "uint256",
          "name": "tokenId",
          "type": "uint256"
        },
        {
          "internalType": "address",
          "name": "bidder",
          "type": "address"
        },
        {
          "internalType": "uint256",
          "name": "amount",
          "type": "uint256"
        },
        {
          "internalType": "address",
          "name": "paymentToken",
          "type": "address"
        },
        {
          "internalType": "uint256",
          "name": "bidTimestamp",
          "type": "uint256"
        },
        {
          "internalType": "bool",
          "name": "isActive",
          "type": "bool"
        }
      ],
      "stateMutability": "view",
      "type": "function"
    },
    {
      "inputs": [
        {
          "internalType": "address",
          "name": "user",
          "type": "address"
        },
        {
          "internalType": "uint256",
          "name": "baseAmount",
          "type": "uint256"
        }
      ],
      "name": "calculateRewards",
      "outputs": [
        {
          "internalType": "uint256",
          "name": "",
          "type": "uint256"
        }
      ],
      "stateMutability": "view",
      "type": "function"
    },
    {
      "inputs": [
        {
          "internalType": "uint256",
          "name": "tokenId",
          "type": "uint256"
        }
      ],
      "name": "cancelBid",
      "outputs": [],
      "stateMutability": "nonpayable",
      "type": "function"
    },
    {
      "inputs": [
        {
          "internalType": "uint256",
          "name": "tokenId",
          "type": "uint256"
        }
      ],
      "name": "cancelExpiredPayment",
      "outputs": [],
      "stateMutability": "nonpayable",
      "type": "function"
    },
    {
      "inputs": [
        {
          "internalType": "uint256",
          "name": "tokenId",
          "type": "uint256"
        }
      ],
      "name": "cancelExpiredPurchase",
      "outputs": [],
      "stateMutability": "nonpayable",
      "type": "function"
    },
    {
      "inputs": [
        {
          "internalType": "address",
          "name": "",
          "type": "address"
        }
      ],
      "name": "communityScores",
      "outputs": [
        {
          "internalType": "uint256",
          "name": "",
          "type": "uint256"
        }
      ],
      "stateMutability": "view",
      "type": "function"
    },
    {
      "inputs": [
        {
          "internalType": "uint256",
          "name": "tokenId",
          "type": "uint256"
        }
      ],
      "name": "completeBidPayment",
      "outputs": [],
      "stateMutability": "payable",
      "type": "function"
    },
    {
      "inputs": [
        {
          "internalType": "uint256",
          "name": "newBaseRate",
          "type": "uint256"
        },
        {
          "internalType": "uint256",
          "name": "newMultiplier",
          "type": "uint256"
        },
        {
          "internalType": "uint256",
          "name": "newLeaseBonus",
          "type": "uint256"
        }
      ],
      "name": "configureRewards",
      "outputs": [],
      "stateMutability": "nonpayable",
      "type": "function"
    },
    {
      "inputs": [
        {
          "internalType": "uint256",
          "name": "tokenId",
          "type": "uint256"
        }
      ],
      "name": "confirmPurchase",
      "outputs": [],
      "stateMutability": "nonpayable",
      "type": "function"
    },
    {
      "inputs": [
        {
          "internalType": "uint256",
          "name": "functionId",
          "type": "uint256"
        },
        {
          "internalType": "bool",
          "name": "paused",
          "type": "bool"
        }
      ],
      "name": "emergencyPauseFunction",
      "outputs": [],
      "stateMutability": "nonpayable",
      "type": "function"
    },
    {
      "inputs": [
        {
          "internalType": "uint256",
          "name": "amount",
          "type": "uint256"
        },
        {
          "internalType": "address payable",
          "name": "recipient",
          "type": "address"
        }
      ],
      "name": "emergencyWithdrawETH",
      "outputs": [],
      "stateMutability": "nonpayable",
      "type": "function"
    },
    {
      "inputs": [
        {
          "internalType": "address",
          "name": "token",
          "type": "address"
        },
        {
          "internalType": "uint256",
          "name": "amount",
          "type": "uint256"
        },
        {
          "internalType": "address",
          "name": "recipient",
          "type": "address"
        }
      ],
      "name": "emergencyWithdrawToken",
      "outputs": [],
      "stateMutability": "nonpayable",
      "type": "function"
    },
    {
      "inputs": [
        {
          "internalType": "uint256",
          "name": "",
          "type": "uint256"
        },
        {
          "internalType": "address",
          "name": "",
          "type": "address"
        }
      ],
      "name": "ethBidDeposits",
      "outputs": [
        {
          "internalType": "uint256",
          "name": "",
          "type": "uint256"
        }
      ],
      "stateMutability": "view",
      "type": "function"
    },
    {
      "inputs": [],
      "name": "feeConfig",
      "outputs": [
        {
          "internalType": "uint256",
          "name": "baseFee",
          "type": "uint256"
        },
        {
          "internalType": "uint256",
          "name": "maxFee",
          "type": "uint256"
        },
        {
          "internalType": "address",
          "name": "feeCollector",
          "type": "address"
        }
      ],
      "stateMutability": "view",
      "type": "function"
    },
    {
      "inputs": [
        {
          "internalType": "uint256",
          "name": "",
          "type": "uint256"
        }
      ],
      "name": "functionPaused",
      "outputs": [
        {
          "internalType": "bool",
          "name": "",
          "type": "bool"
        }
      ],
      "stateMutability": "view",
      "type": "function"
    },
    {
      "inputs": [],
      "name": "getCurrentFee",
      "outputs": [
        {
          "internalType": "uint256",
          "name": "",
          "type": "uint256"
        }
      ],
      "stateMutability": "view",
      "type": "function"
    },
    {
      "inputs": [
        {
          "internalType": "uint256",
          "name": "tokenId",
          "type": "uint256"
        }
      ],
      "name": "getListingDetails",
      "outputs": [
        {
          "internalType": "address",
          "name": "seller",
          "type": "address"
        },
        {
          "internalType": "uint256",
          "name": "price",
          "type": "uint256"
        },
        {
          "internalType": "address",
          "name": "paymentToken",
          "type": "address"
        },
        {
          "internalType": "enum PropertyMarket.PropertyStatus",
          "name": "status",
          "type": "uint8"
        },
        {
          "internalType": "uint256",
          "name": "listTimestamp",
          "type": "uint256"
        },
        {
          "internalType": "uint256",
          "name": "confirmationPeriod",
          "type": "uint256"
        }
      ],
      "stateMutability": "view",
      "type": "function"
    },
    {
      "inputs": [
        {
          "internalType": "bytes32",
          "name": "role",
          "type": "bytes32"
        }
      ],
      "name": "getRoleAdmin",
      "outputs": [
        {
          "internalType": "bytes32",
          "name": "",
          "type": "bytes32"
        }
      ],
      "stateMutability": "view",
      "type": "function"
    },
    {
      "inputs": [],
      "name": "globalPause",
      "outputs": [],
      "stateMutability": "nonpayable",
      "type": "function"
    },
    {
      "inputs": [],
      "name": "globalUnpause",
      "outputs": [],
      "stateMutability": "nonpayable",
      "type": "function"
    },
    {
      "inputs": [
        {
          "internalType": "bytes32",
          "name": "role",
          "type": "bytes32"
        },
        {
          "internalType": "address",
          "name": "account",
          "type": "address"
        }
      ],
      "name": "grantRole",
      "outputs": [],
      "stateMutability": "nonpayable",
      "type": "function"
    },
    {
      "inputs": [
        {
          "internalType": "bytes32",
          "name": "role",
          "type": "bytes32"
        },
        {
          "internalType": "address",
          "name": "account",
          "type": "address"
        }
      ],
      "name": "hasRole",
      "outputs": [
        {
          "internalType": "bool",
          "name": "",
          "type": "bool"
        }
      ],
      "stateMutability": "view",
      "type": "function"
    },
    {
      "inputs": [
        {
          "internalType": "address",
          "name": "",
          "type": "address"
        }
      ],
      "name": "isDeflationaryToken",
      "outputs": [
        {
          "internalType": "bool",
          "name": "",
          "type": "bool"
        }
      ],
      "stateMutability": "view",
      "type": "function"
    },
    {
      "inputs": [
        {
          "internalType": "address",
          "name": "account",
          "type": "address"
        }
      ],
      "name": "isKYCVerified",
      "outputs": [
        {
          "internalType": "bool",
          "name": "",
          "type": "bool"
        }
      ],
      "stateMutability": "view",
      "type": "function"
    },
    {
      "inputs": [
        {
          "internalType": "uint256",
          "name": "tokenId",
          "type": "uint256"
        },
        {
          "internalType": "uint256",
          "name": "price",
          "type": "uint256"
        },
        {
          "internalType": "address",
          "name": "paymentToken",
          "type": "address"
        }
      ],
      "name": "listProperty",
      "outputs": [],
      "stateMutability": "nonpayable",
      "type": "function"
    },
    {
      "inputs": [
        {
          "internalType": "uint256",
          "name": "tokenId",
          "type": "uint256"
        },
        {
          "internalType": "uint256",
          "name": "price",
          "type": "uint256"
        },
        {
          "internalType": "address",
          "name": "paymentToken",
          "type": "address"
        },
        {
          "internalType": "uint256",
          "name": "period",
          "type": "uint256"
        }
      ],
      "name": "listPropertyWithConfirmation",
      "outputs": [],
      "stateMutability": "nonpayable",
      "type": "function"
    },
    {
      "inputs": [
        {
          "internalType": "uint256",
          "name": "",
          "type": "uint256"
        }
      ],
      "name": "listings",
      "outputs": [
        {
          "internalType": "uint256",
          "name": "tokenId",
          "type": "uint256"
        },
        {
          "internalType": "address",
          "name": "seller",
          "type": "address"
        },
        {
          "internalType": "uint256",
          "name": "price",
          "type": "uint256"
        },
        {
          "internalType": "address",
          "name": "paymentToken",
          "type": "address"
        },
        {
          "internalType": "enum PropertyMarket.PropertyStatus",
          "name": "status",
          "type": "uint8"
        },
        {
          "internalType": "uint256",
          "name": "listTimestamp",
          "type": "uint256"
        },
        {
          "internalType": "uint256",
          "name": "lastRenewed",
          "type": "uint256"
        },
        {
          "internalType": "uint256",
          "name": "confirmationPeriod",
          "type": "uint256"
        }
      ],
      "stateMutability": "view",
      "type": "function"
    },
    {
      "inputs": [],
      "name": "multiSigOperator",
      "outputs": [
        {
          "internalType": "contract MultiSigOperator",
          "name": "",
          "type": "address"
        }
      ],
      "stateMutability": "view",
      "type": "function"
    },
    {
      "inputs": [],
      "name": "nftiContract",
      "outputs": [
        {
          "internalType": "contract IERC721",
          "name": "",
          "type": "address"
        }
      ],
      "stateMutability": "view",
      "type": "function"
    },
    {
      "inputs": [],
      "name": "nftmContract",
      "outputs": [
        {
          "internalType": "contract IERC721",
          "name": "",
          "type": "address"
        }
      ],
      "stateMutability": "view",
      "type": "function"
    },
    {
      "inputs": [],
      "name": "paused",
      "outputs": [
        {
          "internalType": "bool",
          "name": "",
          "type": "bool"
        }
      ],
      "stateMutability": "view",
      "type": "function"
    },
    {
      "inputs": [
        {
          "internalType": "uint256",
          "name": "",
          "type": "uint256"
        }
      ],
      "name": "paymentDeadlines",
      "outputs": [
        {
          "internalType": "uint32",
          "name": "",
          "type": "uint32"
        }
      ],
      "stateMutability": "view",
      "type": "function"
    },
    {
      "inputs": [
        {
          "internalType": "uint256",
          "name": "",
          "type": "uint256"
        }
      ],
      "name": "pendingPurchases",
      "outputs": [
        {
          "internalType": "uint256",
          "name": "tokenId",
          "type": "uint256"
        },
        {
          "internalType": "address",
          "name": "buyer",
          "type": "address"
        },
        {
          "internalType": "uint256",
          "name": "offerPrice",
          "type": "uint256"
        },
        {
          "internalType": "address",
          "name": "paymentToken",
          "type": "address"
        },
        {
          "internalType": "uint256",
          "name": "purchaseTimestamp",
          "type": "uint256"
        },
        {
          "internalType": "uint256",
          "name": "confirmationDeadline",
          "type": "uint256"
        },
        {
          "internalType": "bool",
          "name": "isActive",
          "type": "bool"
        }
      ],
      "stateMutability": "view",
      "type": "function"
    },
    {
      "inputs": [
        {
          "internalType": "address",
          "name": "",
          "type": "address"
        }
      ],
      "name": "pendingRefunds",
      "outputs": [
        {
          "internalType": "uint256",
          "name": "",
          "type": "uint256"
        }
      ],
      "stateMutability": "view",
      "type": "function"
    },
    {
      "inputs": [
        {
          "internalType": "address",
          "name": "",
          "type": "address"
        },
        {
          "internalType": "address",
          "name": "",
          "type": "address"
        }
      ],
      "name": "pendingTokenRefunds",
      "outputs": [
        {
          "internalType": "uint256",
          "name": "",
          "type": "uint256"
        }
      ],
      "stateMutability": "view",
      "type": "function"
    },
    {
      "inputs": [
        {
          "internalType": "uint256",
          "name": "tokenId",
          "type": "uint256"
        },
        {
          "internalType": "uint256",
          "name": "bidAmount",
          "type": "uint256"
        },
        {
          "internalType": "address",
          "name": "paymentToken",
          "type": "address"
        }
      ],
      "name": "placeBid",
      "outputs": [],
      "stateMutability": "payable",
      "type": "function"
    },
    {
      "inputs": [
        {
          "internalType": "uint256",
          "name": "tokenId",
          "type": "uint256"
        },
        {
          "internalType": "uint256",
          "name": "offerPrice",
          "type": "uint256"
        }
      ],
      "name": "purchaseProperty",
      "outputs": [],
      "stateMutability": "payable",
      "type": "function"
    },
    {
      "inputs": [
        {
          "internalType": "uint256",
          "name": "tokenId",
          "type": "uint256"
        }
      ],
      "name": "rejectPurchase",
      "outputs": [],
      "stateMutability": "nonpayable",
      "type": "function"
    },
    {
      "inputs": [
        {
          "internalType": "address",
          "name": "token",
          "type": "address"
        }
      ],
      "name": "removeAllowedToken",
      "outputs": [],
      "stateMutability": "nonpayable",
      "type": "function"
    },
    {
      "inputs": [
        {
          "internalType": "bytes32",
          "name": "role",
          "type": "bytes32"
        },
        {
          "internalType": "address",
          "name": "account",
          "type": "address"
        }
      ],
      "name": "renounceRole",
      "outputs": [],
      "stateMutability": "nonpayable",
      "type": "function"
    },
    {
      "inputs": [
        {
          "internalType": "bytes32",
          "name": "role",
          "type": "bytes32"
        },
        {
          "internalType": "address",
          "name": "account",
          "type": "address"
        }
      ],
      "name": "revokeRole",
      "outputs": [],
      "stateMutability": "nonpayable",
      "type": "function"
    },
    {
      "inputs": [],
      "name": "rewardParams",
      "outputs": [
        {
          "internalType": "uint256",
          "name": "baseRate",
          "type": "uint256"
        },
        {
          "internalType": "uint256",
          "name": "communityMultiplier",
          "type": "uint256"
        },
        {
          "internalType": "uint256",
          "name": "maxLeaseBonus",
          "type": "uint256"
        },
        {
          "internalType": "address",
          "name": "rewardsVault",
          "type": "address"
        }
      ],
      "stateMutability": "view",
      "type": "function"
    },
    {
      "inputs": [
        {
          "internalType": "address",
          "name": "token",
          "type": "address"
        },
        {
          "internalType": "bool",
          "name": "_isDeflationary",
          "type": "bool"
        }
      ],
      "name": "setDeflationaryToken",
      "outputs": [],
      "stateMutability": "nonpayable",
      "type": "function"
    },
    {
      "inputs": [
        {
          "internalType": "address",
          "name": "m",
          "type": "address"
        }
      ],
      "name": "setMultiSigOperator",
      "outputs": [],
      "stateMutability": "nonpayable",
      "type": "function"
    },
    {
      "inputs": [
        {
          "internalType": "address",
          "name": "t",
          "type": "address"
        }
      ],
      "name": "setTimelock",
      "outputs": [],
      "stateMutability": "nonpayable",
      "type": "function"
    },
    {
      "inputs": [
        {
          "internalType": "bool",
          "name": "enabled",
          "type": "bool"
        }
      ],
      "name": "setTimelockEnabled",
      "outputs": [],
      "stateMutability": "nonpayable",
      "type": "function"
    },
    {
      "inputs": [
        {
          "internalType": "bool",
          "name": "enabled",
          "type": "bool"
        }
      ],
      "name": "setWhitelistEnabled",
      "outputs": [],
      "stateMutability": "nonpayable",
      "type": "function"
    },
    {
      "inputs": [
        {
          "internalType": "bytes4",
          "name": "interfaceId",
          "type": "bytes4"
        }
      ],
      "name": "supportsInterface",
      "outputs": [
        {
          "internalType": "bool",
          "name": "",
          "type": "bool"
        }
      ],
      "stateMutability": "view",
      "type": "function"
    },
    {
      "inputs": [],
      "name": "timelock",
      "outputs": [
        {
          "internalType": "contract PropertyMarketTimelock",
          "name": "",
          "type": "address"
        }
      ],
      "stateMutability": "view",
      "type": "function"
    },
    {
      "inputs": [],
      "name": "timelockEnabled",
      "outputs": [
        {
          "internalType": "bool",
          "name": "",
          "type": "bool"
        }
      ],
      "stateMutability": "view",
      "type": "function"
    },
    {
      "inputs": [
        {
          "internalType": "address",
          "name": "user",
          "type": "address"
        },
        {
          "internalType": "uint256",
          "name": "scoreDelta",
          "type": "uint256"
        },
        {
          "internalType": "bool",
          "name": "isAddition",
          "type": "bool"
        }
      ],
      "name": "updateCommunityScore",
      "outputs": [],
      "stateMutability": "nonpayable",
      "type": "function"
    },
    {
      "inputs": [
        {
          "internalType": "uint256",
          "name": "newBaseFee",
          "type": "uint256"
        },
        {
          "internalType": "address",
          "name": "newCollector",
          "type": "address"
        }
      ],
      "name": "updateFeeConfig",
      "outputs": [],
      "stateMutability": "nonpayable",
      "type": "function"
    },
    {
      "inputs": [
        {
          "internalType": "uint256",
          "name": "tokenId",
          "type": "uint256"
        },
        {
          "internalType": "uint256",
          "name": "newPrice",
          "type": "uint256"
        },
        {
          "internalType": "address",
          "name": "newPaymentToken",
          "type": "address"
        }
      ],
      "name": "updateListing",
      "outputs": [],
      "stateMutability": "nonpayable",
      "type": "function"
    },
    {
      "inputs": [
        {
          "internalType": "uint256",
          "name": "tokenId",
          "type": "uint256"
        },
        {
          "internalType": "uint256",
          "name": "newPrice",
          "type": "uint256"
        },
        {
          "internalType": "address",
          "name": "newPaymentToken",
          "type": "address"
        }
      ],
      "name": "updateListingBySeller",
      "outputs": [],
      "stateMutability": "nonpayable",
      "type": "function"
    },
    {
      "inputs": [],
      "name": "whitelistEnabled",
      "outputs": [
        {
          "internalType": "bool",
          "name": "",
          "type": "bool"
        }
      ],
      "stateMutability": "view",
      "type": "function"
    },
    {
      "inputs": [],
      "name": "withdrawPendingRefund",
      "outputs": [],
      "stateMutability": "nonpayable",
      "type": "function"
    },
    {
      "stateMutability": "payable",
      "type": "receive"
    }
  ],
  "bytecode": "0x60c034620004af57601f6200651e38819003918201601f1916830192916001600160401b039182851184861017620004b4578160a09285926040978852833981010312620004af576200005282620004ca565b9060209262000063848201620004ca565b9262000071868301620004ca565b916200008e60806200008660608401620004ca565b9201620004ca565b9160019360009385855560ff1996876002541660025560018060a01b038095169182156200046b578516928315620004275785168015620003e357868052878b528b87208188528b5260ff8c8820541615620003ae575b7f97667070c54ef182b0f5858b034beac1b6f3089aa2d3188bb1e8929f4fa9b929808852888c528c88208289528c5260ff8d892054161562000378575b507fb9f13ecb5e7f0f859c44b76b3a163e504787b446da95a26bf75e53e1ff4a1e0e808852888c528c88208289528c5260ff8d892054161562000342575b507f6393fa734211156fcc8c7dda6b0650f5c731d4c838c1db43445a149aa2f5b6fe90818852888c528c88208189528c5260ff8d89205416156200030c575b50508a516060810181811083821117620002f8578c5260c88082526103e8828d01819052918d018490526003556004819055600580546001600160a01b031990811690941790558b5190916080820190811182821017620002f857928c8c601097948760608b9996859d9c9986528381526107d0809582015261012c809682015201526006556007556008556009541617600955600160a01b60ff60a01b19600f541617600f558688601154161760115516966200026962000260620004df565b89151562000510565b16966200027962000260620004df565b82805252209182541617905560805260a05251615f8390816200057b823960805181818161065501528181610bb701528181610c07015281816113a8015281816120200152818161294d01528181612e71015281816131e10152818161339101528181613a7b01528181613e63015261438f015260a051816110af0152f35b634e487b7160e01b88526041600452602488fd5b818852888c528c88208189528c528c8820898b8254161790553391600080516020620064fe8339815191528980a438806200019f565b808852888c528c88208289528c528c8820898b825416179055813391600080516020620064fe8339815191528a80a43862000160565b808852888c528c88208289528c528c8820898b825416179055813391600080516020620064fe8339815191528a80a43862000122565b868052878b528b87208188528b528b8720888a825416179055338188600080516020620064fe8339815191528180a4620000e5565b8b5162461bcd60e51b8152600481018c9052601560248201527f496e76616c69642061646d696e206164647265737300000000000000000000006044820152606490fd5b8b5162461bcd60e51b8152600481018c9052601d60248201527f496e76616c69642072657761726473207661756c7420616464726573730000006044820152606490fd5b8b5162461bcd60e51b8152600481018c9052601d60248201527f496e76616c69642066656520636f6c6c6563746f7220616464726573730000006044820152606490fd5b600080fd5b634e487b7160e01b600052604160045260246000fd5b51906001600160a01b0382168203620004af57565b60408051919082016001600160401b03811183821017620004b45760405260048252634530303160e01b6020830152565b15620005195750565b6040519062461bcd60e51b82528160208060048301528251908160248401526000935b82851062000560575050604492506000838284010152601f80199101168101030190fd5b84810182015186860160440152938101938593506200053c56fe608080604052600436101561001d575b50361561001b57600080fd5b005b60009060e08235811c91826301ffc9a71461452557508163052d9e7e146144575781630720cb4214614124578163159450061461403c57816315f3923614613ffd5781631e5eb1d014613fc55781631fb4d31c14613de0578163218c4da014613dc25781632326479114613d92578163248a9ca314613d665781632f2ff15d14613c7957816336568abe14613be657816336de0f1414613b6b5781633b5342c3146139e55781634178617f146138ff5781634a277ec5146136005781634ca6fd2c1461353a5781634d24e902146132fe5781634f84349414612f0057816351fb012d14612edd57816354b7636e14612ea0578163592eb92414612e5b5781635932fdba14612e325781635c975abb14612e0f5781635dda3e0114612b495781635fa57f221461287857816365e64a051461280e578163697d312a146127cf57816369fcc6491461278c5781636a2b45451461254557816373c250c61461250c57816376346914146124cd5781637e0e68ec146123d2578163835090801461223457816386aa217e14611f8957816387c1394314610de9578163887f495a14611e3b57816388f0bc7314611d2e5781638e7579a114611d0557816390469a9d14611c2257816391d1485414611bd65781639703ef3514611a58578163a217fddf14611a3c578163a33b2d3f14611983578163ad6561ec146112e1578163b320f6a9146112bb578163b613b11414611282578163bb06ffaa14611259578163bdacb303146111da578163beb8314c14611162578163c7921a7c146110de578163cbb9c9a414611099578163ce19057814611004578163cf23913b14610fc9578163d33219b414610fa0578163d547741f14610f15578163ddd1a5bf14610ece578163de74e57b14610e3d57508063e12aefa714610dee578063e1f1c4a714610de9578063e4e1c3fe14610d59578063e58a7b31146105c9578063ee5b8e0e1461059a578063f12d54d814610506578063f2e44b18146103d6578063f5b541a6146103ad578063f70d93621461038f5763fb05da2e0361000f573461038c57602036600319011261038c57604060c091600435815260126020522060018060a01b038060018301541691610380600282015492600383015490600660048501549401549460405196875260208701528116604086015260ff606086019160a01c1661468a565b608083015260a0820152f35b80fd5b503461038c578060031936011261038c576020600354604051908152f35b503461038c578060031936011261038c576020604051600080516020615eae8339815191528152f35b503461038c57602036600319011261038c576004356103f3614fe5565b808252601260205260408220906013602052600360408420920160ff815460a01c1660068110156104f25761043390600561042c614f4d565b9114614ea9565b6006830161044d60ff825416610447614f0d565b90614ea9565b61047a600585015442116040519061046482614b40565b6004825263229b181b60e11b6020830152614ea9565b6104838361539c565b805460ff19169055805460ff60a01b19169055600182015460028301546003909301546040516001600160a01b03928316947fbe8251910ea488ea710963e46d6125213f572b38d7b96660db2a8bd1cb597cbf93919283926104e892911690836150cd565b0390a36001815580f35b634e487b7160e01b85526021600452602485fd5b503461038c578060031936011261038c5761051f61471e565b60025460ff81166105625760019060ff1916176002557f62e78cea01bee320cd4e420270b5ea74000d11b0c9f74754ebdbfc544b05a2586020604051338152a180f35b60405162461bcd60e51b815260206004820152601060248201526f14185d5cd8589b194e881c185d5cd95960821b6044820152606490fd5b503461038c57602036600319011261038c5760ff60406020926004358152600d84522054166040519015158152f35b503461038c5760a036600319011261038c576105e36145c4565b6084356001600160a01b03811690819003610d5457610600614fe5565b60043583526012602052604083209060038201549060ff8260a01c166006811015610d405761063890610631615b95565b9015614ea9565b6040516331a9108f60e11b815260048035908201526020816024817f00000000000000000000000000000000000000000000000000000000000000006001600160a01b03165afa8015610d35576106aa918791610d06575b50610699615089565b906001600160a01b03163314614ea9565b6001830154336001600160a01b03821603610cef575b506106c9615c6f565b6106d860243591821515614ea9565b600435865260166020526106f56040872054821115610447615c6f565b6004358652601660205261071160408720541515610447615c8f565b60043586526016602052604086206000198201918211610cdb576107739161073891614658565b509461074d60ff600588015416610447615bef565b60018601546001600160a01b0316610763615caf565b916001600160a01b031614614ea9565b610787606435600286015414610447615caf565b60038401546001600160a01b0316906107aa906107a2615c0f565b908314614ea9565b610a97575060038101805460ff60a01b1916600160a21b17905542620151808101908110610a815760043580855260146020526040808620805463ffffffff191663ffffffff9490941693909317909255600192830154928401546002850154600386015493516001600160a01b03928316958316947f959a0ee0f64c2f8cf395aa31d965f60b69bc277acc7ef191c73a891ed3fa8c729391928392610852921690836150cd565b0390a45b6001015460043582526016602052604082206001600160a01b0390911691805b8254811015610a79578060ff60056108916108a49487614658565b5001541680610a58575b6108a9576155bf565b610876565b6108b38185614658565b50600101546001600160a01b031660026108cd8387614658565b5001546108da8387614658565b50600301546001600160a01b031660056108f48589614658565b500160ff198154169055828652601860205260408620600435875260205285604081205580156000146109935750848080808486612710f161093461535d565b501561095c575b604051908152600080516020615d8e833981519152602060043592a36155bf565b818552601960205260408520610973828254614bd8565b905581600080516020615e4e8339815191526020604051848152a261093b565b60405163a9059cbb60e01b8152602081806109b2868860048401615420565b03818a865af1879181610a27575b506109f05750828652601a602052604086209060005260205260406000206109e9828254614bd8565b905561093b565b156109fc575b5061093b565b828652601a60205260408620906000526020526040600020610a1f828254614bd8565b9055386109f6565b610a4a91925060203d602011610a51575b610a428183614b76565b810190614f6d565b90386109c0565b503d610a38565b5084610a648286614658565b50600101546001600160a01b0316141561089b565b506001815580f35b634e487b7160e01b600052601160045260246000fd5b60ff60a01b1916600160a11b1760038281019190915560058301805460ff191690556001838101546001600160a01b03908116865260186020908152604080882060043589529091528620869055908301546002850154858401549354879491939182169290911690610b1a9061271090610b129086614bc5565b048094614da6565b9180610cb2575092808093610b60828080808098610b9a9b5af1610b3c61535d565b5060405190610b4a82614b40565b60048252634539303360e01b6020830152614ea9565b6005546001600160a01b03165af1610b7661535d565b5060405190610b8482614b40565b6004825263114e4c0d60e21b6020830152614ea9565b6001818101549083015484916001600160a01b03908116918116907f0000000000000000000000000000000000000000000000000000000000000000163b15610ca357610c029183916040519384928392635c46a7ef60e11b84526004359160048501615309565b0381837f00000000000000000000000000000000000000000000000000000000000000006001600160a01b03165af18015610ca757610c8f575b505060019081015490820154600283015460038401546040516001600160a01b039384169484169360043593600080516020615f2e833981519152938392610c8792911690836150cd565b0390a4610856565b610c9890614b11565b610ca3578238610c3c565b8280fd5b6040513d84823e3d90fd5b91610cd59450610cc2918361543b565b506005546001600160a01b03169061543b565b50610b9a565b634e487b7160e01b87526011600452602487fd5b6001600160a01b03191633176001840155386106c0565b610d28915060203d602011610d2e575b610d208183614b76565b81019061506a565b38610690565b503d610d16565b6040513d88823e3d90fd5b634e487b7160e01b86526021600452602486fd5b600080fd5b503461038c57602036600319011261038c57610d73614598565b610d7b61471e565b6001600160a01b03908116908190610d9c610d94614f2d565b831515614ea9565b610db4600f5491610dab614f4d565b90831615614ea9565b6001600160a01b03191617600f557f0738a99130da51b302d459ffe22ab719ba31aeb9954ea5ae37cd29605b9b1f2c8280a280f35b61463b565b503461038c57604036600319011261038c57610e08614598565b6040610e126145ae565b9260018060a01b038093168152601a6020522091166000526020526020604060002054604051908152f35b905034610eca576020366003190112610eca57604061010092600435815260126020522080549160018060a01b03918260018201541692610ebb6002830154916003840154906004850154936006600587015496015497604051998a5260208a015260408901528116606088015260ff608088019160a01c1661468a565b60a085015260c0840152820152f35b5080fd5b823461038c57604036600319011261038c576040610eea6145ae565b9160043581526017602052209060018060a01b03166000526020526020604060002054604051908152f35b823461038c57604036600319011261038c57600435610f326145ae565b908083526001602052610f4b60016040852001546149f0565b8083526001602052610f6360016040852001546149f0565b610f6d82826146a8565b33916001600160a01b0316907f77a3124d5a7fb118ef3bd073fd7ee2c762b24256db96ace524ecd6b6cf11415c8480a480f35b823461038c578060031936011261038c57600e546040516001600160a01b039091168152602090f35b823461038c57604036600319011261038c57611001610fe6614589565b610fee61471e565b6004358352600d60205260408320614697565b80f35b823461038c578060031936011261038c5761101d61471e565b60025460ff81161561105d5760ff19166002557f5db9ee0a495bf2e6ff9c91a7834c1ba4fdd244a5e8aa4e537bd38aeae4b073aa6020604051338152a180f35b60405162461bcd60e51b815260206004820152601460248201527314185d5cd8589b194e881b9bdd081c185d5cd95960621b6044820152606490fd5b823461038c578060031936011261038c576040517f00000000000000000000000000000000000000000000000000000000000000006001600160a01b03168152602090f35b823461038c576110ed36614625565b9190815260166020526040812090815483101561038c5760c06111108484614658565b5080549060018060a01b039081600182015416916002820154906003830154169060ff6005600485015494015416936040519586526020860152604085015260608401526080830152151560a0820152f35b823461038c57604036600319011261038c576127106111c96111c16020936111bc61118b614598565b6008546001600160a01b039091168352600c875260409092205460075490818111156111d25750915b600654614bd8565b614bd8565b602435614bc5565b04604051908152f35b9050916111b4565b823461038c57602036600319011261038c576111f4614598565b6111fc61471e565b6001600160a01b03908116908190611215610d94614f0d565b611224600e5491610dab614ecd565b6001600160a01b03191617600e557f7e7ee4175d63f671fac3401d5f401ed18d1f48a586e756f404d5696fc77a70588280a280f35b823461038c578060031936011261038c57600f546040516001600160a01b039091168152602090f35b823461038c57602036600319011261038c576020906040906001600160a01b036112aa614598565b168152601983522054604051908152f35b823461038c578060031936011261038c57602060ff600f5460a01c166040519015158152f35b826112eb366145fb565b6112f6929192614fe5565b604051632a5bb1b760e11b815233600482015260249360209182818781305afa80156119785761133091889161195b575b50610447614f85565b61134461133c8461503b565b610447614fa5565b61135761134f614fc5565b821515614ea9565b809484875260128352604087209260ff600385015460a01c1660068110156119485761138590610631615b95565b6040516331a9108f60e11b8152600481018790526001600160a01b0390828185817f000000000000000000000000000000000000000000000000000000000000000086165afa801561193d57611404918b91611920575b50604051906113ea82614b40565b60048252632298181960e11b858301528316331415614ea9565b338952601882526040808a20888b528352892054938415801591906118365750878a526016835260408a20600019860190868211611823579061144691614658565b5061145a60ff600583015416610447615bef565b60028360038301541691611474858b16938461042c615c0f565b01805461148c8c82611484615c2f565b911015614ea9565b808c11156118095761149e908c614da6565b908261174957506114ce9150604051906114b782614b40565b6004825263229b981b60e11b868301523414614ea9565b6114fc6002809701548a1015604051906114e782614b40565b60048252632299181b60e11b86830152614ea9565b878a526016835260408a2080548b91825b8281106116ed57505050806116d2575b5015611588575060169086895252604087209060001983019283116115765750918561155c600080516020615e6e83398151915295936104e895614658565b50918201556004429101555b6040519182913396836150cd565b634e487b7160e01b8852601160045287fd5b604051919492935090919060c083016001600160401b038111848210176116bd5790899392916040528783528583019033825260408401928a84526060850193828a1685526080860195428752604060a082019860018a528d815260168c5220805490600160401b8210156116a9579061160791600182018155614658565b9990996116975750936104e89997936116709793600080516020615e6e8339815191529c9a97936005975189558260018a019451169360018060a01b03199485825416179055519088015560038701925116908254161790555160048401555115159101614697565b84875260168152604087205490338852601881526040882090868952526040872055611568565b634e487b7160e01b8f5260048f90528efd5b50634e487b7160e01b8f526041600452898ffd5b84634e487b7160e01b60005260416004526000fd5b6116e7906116de615c2f565b908b1015614ea9565b8a61151d565b60ff60056116fb8385614658565b5001541680611733575b611718575b611713906155bf565b61150d565b9250611713896117288584614658565b50015493905061170a565b50838a6117408385614658565b50015411611705565b908c604051636eb1769f60e11b8152878180611769303360048401615bb5565b0381885afa908115610ca75782916117d7575b5060ff9161178f60409285611484615bcf565b61179b84303389615128565b9581526015895220541690816117cd575b506117b9575b50506114ce565b6117c5929a5054614bd8565b978a806117b2565b905082108d6117ac565b809250888092503d8311611802575b6117f08183614b76565b81010312610d5457518d9060ff61177c565b503d6117e6565b50505061181e611817615c4f565b3415614ea9565b6114ce565b634e487b7160e01b8c526011600452858cfd5b878316908161186857505061181e60405161185081614b40565b60048152634532303760e01b858201528a3414614ea9565b604051636eb1769f60e11b8152858180611886303360048401615bb5565b0381865afa8015611915578d906118e6575b6118a6915082611484615bcf565b6118b281303385615128565b918c526015855260ff60408d20541690816118dc575b506118d4575b506114ce565b98508a6118ce565b905081108c6118c8565b508581813d831161190e575b6118fc8183614b76565b81010312610d54576118a69051611898565b503d6118f2565b6040513d8f823e3d90fd5b6119379150843d8611610d2e57610d208183614b76565b8b6113dc565b6040513d8c823e3d90fd5b634e487b7160e01b895260216004528289fd5b6119729150843d8611610a5157610a428183614b76565b88611327565b6040513d89823e3d90fd5b823461038c57606036600319011261038c5761199d614598565b60243590604435908115158203610d54577f7681c9bc4703daadfdfbfae0bd1c828b4619e58101f0e8a5404f70e93c628663916040916119db6148c7565b6001600160a01b0316808652600c602052828620549094909115611a1e57611a039082614bd8565b848652600c602052808387205582519182526020820152a280f35b80821115611a3557611a309082614da6565b611a03565b5084611a03565b823461038c578060031936011261038c57602090604051908152f35b823461038c57602080600319360112610eca57600435611a76614fe5565b338352601882526040832081845282526040832054611ab2604051611a9a81614b40565b60048152634532303160e01b85820152821515614ea9565b81845260168352604084206000198201918211611bc257600080516020615d8e83398151915291611ae291614658565b509260058401805490611aff611af6615bef565b60ff8416614ea9565b60018601546040516001600160a01b0391611b37919083163314611b2282614b40565b60048252634532303360e01b87830152614ea9565b60036002880154970154169160ff1916905533865260188252604086208487528252856040812055848115600014611bb157611ba191508680808093335af1611b7e61535d565b5060405190611b8c82614b40565b60048252634533303360e01b84830152614ea9565b6040519384523393a36001815580f35b611bbc91339061543b565b50611ba1565b634e487b7160e01b85526011600452602485fd5b823461038c57604036600319011261038c576040611bf26145ae565b9160043581526001602052209060018060a01b0316600052602052602060ff604060002054166040519015158152f35b823461038c57602036600319011261038c57611c3c614598565b60ff600f5460a01c1680611cf1575b15611cb757611c6860018060a01b03600e54163314610447614ecd565b6001600160a01b0316611c7c61134f614eed565b808252601060205260408220805460ff191690557f85a3e72f8dd6db3794f93109c3c5f5b79d6112f6979431c45f98b26134b42af28280a280f35b600080516020615eae833981519152825260016020526040822033600052602052611cec60ff60406000205416610447614e89565b611c68565b50600e546001600160a01b03161515611c4b565b823461038c578060031936011261038c576020604051600080516020615ece8339815191528152f35b823461038c57604036600319011261038c57600435611d4b6145ae565b611d536148c7565b6001600160a01b0316908115611df657600454808211611dbf577f7c08ec61bfdc4469c5f8ec2332c513ac1e0980475856efedf21da7493348544791600354938160035560018060a01b03196005541617600555611db982604051938493339785614cf2565b0390a280f35b60405162461bcd60e51b815260206004820152600f60248201526e45786365656473206d61782066656560881b6044820152606490fd5b60405162461bcd60e51b815260206004820152601d60248201527f496e76616c69642066656520636f6c6c6563746f7220616464726573730000006044820152606490fd5b823461038c57611e4a366145fb565b60ff600f949392945460a01c1680611f75575b15611f3b57611e7a60018060a01b03600e54163314610447614ecd565b81835260126020526040832093600385019485549560ff8760a01c16966006881015611f2757611ebd600080516020615f0e833981519152969798610631615b95565b611ee5604051611ecc81614b40565b6004815263114c4c0d60e21b6020820152851515614ea9565b611ef161133c8661503b565b600283018490556001600160a01b0319166001600160a01b03851617905542600590910155604051918291611db99190836150cd565b634e487b7160e01b87526021600452602487fd5b600080516020615eae833981519152835260016020526040832033600052602052611f7060ff60406000205416610447614e89565b611e7a565b50600e546001600160a01b03161515611e5d565b905034610eca57611f99366145fb565b611fa4939193614fe5565b604051632a5bb1b760e11b8152336004820152602091908281602481305afa801561197857611fdc9188916122175750610447614f85565b611fe861133c8261503b565b611ffb611ff3614fc5565b861515614ea9565b6040516331a9108f60e11b8152600481018590526001600160a01b03939083816024817f000000000000000000000000000000000000000000000000000000000000000089165afa801561220b5785916000916121ee575b5016612068612060615089565b338314614ea9565b856000526012845260406000209085600183015416801515806121e4575b156121985750506003015460a01c60ff166006811015612174571561218a575b604051906120b382614b24565b8582528382019333855260408301958887526060840195818616875260808501916000835260a0860198428a52601260c0880196428852880195600087528c6000525260406000209651875581600188019351169260018060a01b0319938482541617905551600287015560038601975116908754161786555191600683101561217457600080516020615dee833981519152966121566006946104e8986150a9565b516004850155516005840155519101556040519182913396836150cd565b634e487b7160e01b600052602160045260246000fd5b612193856155ce565b6120a6565b146121a4575b506120a6565b6003015460a01c60ff166006811015612174576040516121de916121c782614b40565b60048252632298981960e11b868301521515614ea9565b3861219e565b5081811415612086565b6122059150853d8711610d2e57610d208183614b76565b38612053565b6040513d6000823e3d90fd5b61222e9150843d8611610a5157610a428183614b76565b38611327565b823461038c57606036600319011261038c5761224e614598565b6024359061225a6145c4565b8380526020600181526040852033600052815261228160ff60406000205416610447615d4d565b6040516001600160a01b0393841693906122b69061229e81614b40565b60048152634539313560e01b84820152851515614ea9565b8216936122c4611ff3615d6d565b6040516370a0823160e01b8152306004820152928284602481885afa9384156119785787946123a3575b5081839161231e612339966040519061230682614b40565b6004825263229c989b60e11b86830152841115614ea9565b60405163a9059cbb60e01b8152958692839260048401615420565b038189885af1928315610d35577fa4e7b83d59f83358c69c32a951cf5f617e749b38fdb1e2ff13524b83ffd42c999361237c918891612386575b50610447615108565b604051908152a380f35b61239d9150843d8611610a5157610a428183614b76565b88612373565b93508284813d83116123cb575b6123ba8183614b76565b81010312610d5457925192816122ee565b503d6123b0565b823461038c57604036600319011261038c576123ec614598565b7f4025891f0a9626a0ecd47eabf5c4e77ccf799c93ea5f8db1b7ca4c3dc78333d46020612417614589565b9260ff600f5460a01c16806124b9575b156124815761244460018060a01b03600e54163314610447614ecd565b6001600160a01b031692612461612459614eed565b851515614ea9565b838552601582526124758160408720614697565b6040519015158152a280f35b600080516020615eae833981519152855260018252604085203360005282526124b460ff60406000205416610447614e89565b612444565b50600e546001600160a01b03161515612427565b823461038c578060031936011261038c57608060065460075460085460018060a01b036009541691604051938452602084015260408301526060820152f35b823461038c57602036600319011261038c576020906040906001600160a01b03612534614598565b168152600c83522054604051908152f35b823461038c57602080600319360112610eca57600435612563614fe5565b808352601282526003908160408520019260ff80855460a01c166006811015611f27576125ae9060046040519161259983614b40565b81835263229b981960e11b8684015214614ea9565b828652601482526125e763ffffffff6040882054164211604051906125d282614b40565b60048252634537303360e01b85830152614ea9565b859486879285895260168552604089209689918854925b8381106126f4575b50505050612657600080516020615e8e83398151915295969760059260018060a01b03169861265260405161263a81614b40565b60048152634537303160e01b898201528b1515614ea9565b614658565b5001805460ff191690558587526018835260408088208689528452808820889055815460ff60a01b1916909155848752601483528620805463ffffffff19169055858080808489612710f16126aa61535d565b50156126bf575b604051908152a36001815580f35b84865260198252604086206126d5828254614bd8565b905584600080516020615e4e83398151915283604051848152a26126b1565b816005612701838d614658565b500154168061276e575b61271d57612718906155bf565b6125fe565b955050505050600080516020615e8e83398151915293949550600561265783600261276061274b878c614658565b50600101546001600160a01b0316968b614658565b500154949281999897612606565b50612779818b614658565b508301546001600160a01b03161561270b565b823461038c57604036600319011261038c576020906040906001600160a01b036127b4614598565b16815260188352818120602435825283522054604051908152f35b823461038c57602036600319011261038c5760209060ff906040906001600160a01b036127fa614598565b168152601084522054166040519015158152f35b823461038c57602036600319011261038c577f7b843048f98d52e885dc7d86234589dae0058d33c69cccc03b0b18f562a860ab602061284b61457a565b61285361471e565b1515600f5460ff60a01b8260a01b169060ff60a01b191617600f55604051908152a180f35b905034610eca576080366003190112610eca5760043560249182359261289c6145c4565b91606435906128a9614fe5565b604051632a5bb1b760e11b815233600482015260209081818681305afa8015612b3e576128df918a91612b275750610447614f85565b6128eb61133c8661503b565b6128fe6128f6614fc5565b881515614ea9565b61292960405161290d81614b40565b60048152634536303760e01b8382015262093a80851115614ea9565b6040516331a9108f60e11b8152600481018790526001600160a01b039490828183817f00000000000000000000000000000000000000000000000000000000000000008a165afa801561220b578691600091612b0a575b501661298d612060615089565b87600052601283526040600020908660018301541680151580612b00575b15612ab45750506003015460a01c60ff166006811015612a9f5715612a91575b604051946129d886614b24565b87865282860133815260408701908a82526060880192808a168452608089019260008452601260a08b019742895260c08c0199428b528c019a8b528d60005252604060002099518a558160018b019351169260018060a01b031993848254161790555160028a0155600389019351169083541617825551916006831015612a7d575092600692612156600080516020615dee8339815191529896936104e898966150a9565b634e487b7160e01b60009081526021600452fd5b612a9a876155ce565b6129cb565b50634e487b7160e01b60009081526021600452fd5b14612ac0575b506129cb565b6003015460a01c60ff166006811015612a9f57604051612afa91612ae382614b40565b60048252632298981960e11b858301521515614ea9565b38612aba565b50818114156129ab565b612b219150843d8611610d2e57610d208183614b76565b38612980565b61222e9150833d8511610a5157610a428183614b76565b6040513d8b823e3d90fd5b823461038c57604036600319011261038c576004356001600160401b03808211610ca35736602383011215610ca3578160040135908111610ca3576024600591368282851b86010111612e0b57612b9e614589565b3360009081527f6c82a5995c1c664a48f51fee9274aa40cda618694537fd476d48c6e302c8d348602090815260409091205460019691949190600080516020615ece8339815191529060ff1615612c74575092948215159390885b878110612c04578980f35b80821b83018401356001600160a01b0381169190829003612c705789918615612c6157612c3081614d29565b505b7f2df1cad2a2659e001c3804c872f69655356013e35c18c2e77a5d568078ab788f896040518a8152a201612bf9565b612c6a81614db3565b50612c32565b8a80fd5b87838792612c8133614bf6565b909160405192612c9084614b5b565b60428452858401946060368737845115612df657603086538451811015612df657607860218601536041905b808211612d88575050612d5857612d54612d04612d3c6048888888612d2d896040519785600080516020615e0e8339815191528a978801528251928391603789019101614aee565b8401917001034b99036b4b9b9b4b733903937b6329607d1b603784015251809386840190614aee565b01036028810184520182614b76565b60405162461bcd60e51b815291829160048301614b99565b0390fd5b606490856040519162461bcd60e51b8352816004840152820152600080516020615dae8339815191526044820152fd5b9091600f81166010811015612de1576f181899199a1a9b1b9c1cb0b131b232b360811b901a612db78488614be5565b5360041c918015612dcc576000190190612cbc565b83634e487b7160e01b60005260116004526000fd5b84634e487b7160e01b60005260326004526000fd5b82634e487b7160e01b60005260326004526000fd5b8480fd5b823461038c578060031936011261038c57602060ff600254166040519015158152f35b823461038c578060031936011261038c576020604051600080516020615dce8339815191528152f35b823461038c578060031936011261038c576040517f00000000000000000000000000000000000000000000000000000000000000006001600160a01b03168152602090f35b823461038c57602036600319011261038c576001600160a01b03612ec2614598565b16600052600b60205260206040600020541515604051908152f35b823461038c578060031936011261038c57602060ff601154166040519015158152f35b9050612f0b36614625565b91612f14614fe5565b604051632a5bb1b760e11b8152336004820152602093908481602481305afa8015610d3557612f4c9187916132e75750610447614f85565b612f5761134f614fc5565b8285526012845260408520936003850180549260ff8460a01c1660068110156132d357604051612fa091612f8a82614b40565b60048252634531303160e01b8683015215614ea9565b60028701546001600160a01b0394851690612fe2612fc089848685615796565b60405190612fcd82614b40565b60048252634530303560e01b88830152614ea9565b896006612fee8a615ccf565b948515801594906132cb57509a5b01541561319c575050505082905416918585885260128352604088209084156000146131545750600661305a9161303d613034614ecd565b8a341015614ea9565b60038101805460ff60a01b1916600560a01b179055015442614bd8565b60405190948101916001600160401b0383118284101761313e5786868a6006936131029660405283865287860133815260408701918d835260608801928b8452604060808a019542875260a08b0197885260c08b019860018a52815260138d5220985189558160018a019351169260018060a01b0319938482541617905551600289015560038801925116908254161790555160048501555160058401555115159101614697565b60405194855284015260408301527f0ede9658efe21e4a2018f9e29ffcd04fecf00cb040fd6d2597265b2f6eb0aa6960603393a35b6001815580f35b634e487b7160e01b600052604160045260246000fd5b61316081303388615128565b90858a526015855260ff60408b2054169081613192575b50613189575b50600661305a9161303d565b9650600661317d565b9050811038613177565b9350936012919592965087845252600160408320600381018260a11b60ff60a01b198254161790556131cd886155ce565b01906131de85893384865416615804565b807f00000000000000000000000000000000000000000000000000000000000000001691541690803b15610ca3578683916132329383604051809681958294635c46a7ef60e11b8452339060048501615309565b03925af18015610ca7576132b3575b505083600080516020615e2e83398151915260405180613263868a338461533a565b0390a2613274575b50505050613137565b7faeec2844d1a6cc8e3d3b4b8a9e49ccfbc8ca21f8adb0ee9ec0e022df0f04a837916132a76040519283923397846145da565b0390a33880808061326b565b6132bc90614b11565b6132c7578538613241565b8580fd5b90509a612ffc565b634e487b7160e01b89526021600452602489fd5b61222e9150863d8811610a5157610a428183614b76565b823461038c57602080600319360112610eca576004359061331d614fe5565b81600052601281526040600020601382526040600020600382019260ff845460a01c1660068110156121745761335790600561042c614f4d565b600682019283549461337361336a614f0d565b60ff8816614ea9565b6040516331a9108f60e11b8152600481018890526001600160a01b037f00000000000000000000000000000000000000000000000000000000000000008116979096919480866024818c5afa90811561220b576133eb6134149260019860009161351d575b506133e1614f2d565b908b163314614ea9565b6005880154421115634536303560e01b6040519261340884614b40565b60048452830152614ea9565b60ff19169055805460ff60a01b191660a184901b179055613434866155ce565b0192828454169280600184019561345f8288541696600287019660038854910198858a541692615804565b54168186541690833b15610d545761349493600092838a9360405197889586948593635c46a7ef60e11b855260048501615309565b03925af1801561220b57600080516020615e2e8339815191529561350493839261350e575b505416925493541682604051877fc4d8fb2275c93c56fd522198d6aafa5d878346cfddb3fe34a028a115f965fea73392806134f5878b836150cd565b0390a46040519384938461533a565b0390a26001815580f35b61351790614b11565b896134b9565b6135349150833d8511610d2e57610d208183614b76565b8e6133d8565b823461038c578060031936011261038c57613553614fe5565b3381526019602052604081205461358860405161356f81614b40565b6004815263114dcc0d60e21b6020820152821515614ea9565b33825260196020528160408120556135cd8280808085335af16135a961535d565b50604051906135b782614b40565b60048252634537303560e01b6020830152614ea9565b6040519081527f3d97f39b86d061200a7834082f5926e58ec10fd85a9d6930f497729d5e6cc35c60203392a26001815580f35b823461038c57606036600319011261038c573360009081527f93581be3bed347f62d1cd445cada38177f3541353e3f488b22052817d20340fa602090815260409091205460249291833591604480359260043592909190600190600080516020615dce8339815191529060ff16156137bd5750506009546001600160a01b031615613783576107d080841161374f57851161371b576101f484116136e7575050907fdf3827857cf8ac45829164bd76e2950687437e15ff8543f477ae73691ee013b191611db960065494600754938360065581600755600855604051938493339785614cf2565b906e4c6561736520626f6e7573203e352560881b606492600f896040519462461bcd60e51b86526004860152840152820152fd5b906e4d756c7469706c696572203e32302560881b606492600f896040519462461bcd60e51b86526004860152840152820152fd5b60405162461bcd60e51b815260048101849052600e818a01526d426173652072617465203e32302560901b81840152606490fd5b907414995dd85c991cc81d985d5b1d081b9bdd081cd95d605a1b6064926015896040519462461bcd60e51b86526004860152840152820152fd5b886137ca93929333614bf6565b9192604051936137d985614b5b565b604285528685019560603688378551156138ea576030875385518110156138ea57607860218701536041905b80821161387c57505061384d57612d54612d04612d3c6048898989612d2d8a6040519785600080516020615e0e8339815191528a978801528251928391603789019101614aee565b90600080516020615dae833981519152606492876040519362461bcd60e51b8552816004860152840152820152fd5b9091600f811660108110156138d5576f181899199a1a9b1b9c1cb0b131b232b360811b901a6138ab8489614be5565b5360041c9180156138c0576000190190613805565b84634e487b7160e01b60005260116004526000fd5b85634e487b7160e01b60005260326004526000fd5b83634e487b7160e01b60005260326004526000fd5b823461038c57602036600319011261038c57613919614598565b60ff600f5460a01c16806139d1575b156139975761394560018060a01b03600e54163314610447614ecd565b6001600160a01b031661395961134f614eed565b808252601060205260408220805460ff191660011790557fa317c10673baf4f03b3c1041bd5ddbb537d0333a86fec3607c75f9dbb630f48f8280a280f35b600080516020615eae8339815191528252600160205260408220336000526020526139cc60ff60406000205416610447614e89565b613945565b50600e546001600160a01b03161515613928565b823461038c57602080600319360112610eca57600435613a03614fe5565b80600052601282526040600020906013835260036040600020920160ff815460a01c16600681101561217457613a3d90600561042c614f4d565b600683018054613a57613a4e614f0d565b60ff8316614ea9565b6040516331a9108f60e11b8152600481018590526001600160a01b039680826024817f00000000000000000000000000000000000000000000000000000000000000008c165afa91821561220b57613ae592613ac891600091613b4e575b50613abe614f2d565b908a163314614ea9565b6005870154421115634536303560e01b6040519261340884614b40565b60ff19169055613af48261539c565b60ff60a01b1981541690557f169f4a3ba12c6cb7dd9ca078caa865c56a1c042ccf0771ae9cf33bbfb2b3699c613b44846001850154169460036002860154950154166040519182913396836150cd565b0390a46001815580f35b613b659150833d8511610d2e57610d208183614b76565b8b613ab5565b823461038c57602036600319011261038c57604090600435815260136020522080549060018060a01b0390816001820154169160028201549060038301541660048301549160ff600660058601549501541694604051968752602087015260408601526060850152608084015260a0830152151560c0820152f35b823461038c57604036600319011261038c57613c006145ae565b336001600160a01b03821603613c1c57611001906004356146a8565b60405162461bcd60e51b815260206004820152602f60248201527f416363657373436f6e74726f6c3a2063616e206f6e6c792072656e6f756e636560448201526e103937b632b9903337b91039b2b63360891b6064820152608490fd5b823461038c57604036600319011261038c57600435613c966145ae565b81835260016020818152613caf826040872001546149f0565b838552818152613cc4826040872001546149f0565b83855281815260408086206001600160a01b03909416600081815294835293205460ff1615613d19575b505033917fb754d28367d5b086c81243c886ead0839c92cb5f281e492d7159800bc57d3c178480a480f35b8385528181526040852090836000525260406000209060ff198254161790553381837f2f8788117e7eff1d82e926ec794901d17c78024a50270940304540a733656f0d8680a48380613cee565b823461038c57602036600319011261038c57600160406020926004358152828452200154604051908152f35b823461038c57602036600319011261038c5763ffffffff6040602092600435815260148452205416604051908152f35b823461038c578060031936011261038c576020604051620151808152f35b823461038c57613def366145fb565b929190613dfd61134f614fc5565b613e0961133c8561503b565b818352602090601282526040842094600386019586549660ff97888160a01c1660068110156132d357613e3e90610631615b95565b6040516331a9108f60e11b8152600481018890526001600160a01b03919087816024817f000000000000000000000000000000000000000000000000000000000000000087165afa90811561193d5790613eac918b91613fa8575b50613ea2615089565b9084163314614ea9565b6001840180543384821603613f93575b50508185169181168203613f39575b600284018690556001600160a01b031916179055426005909101556040517fa7a6b1a6b3a362239ad511709f897faa363903c4870abb52826d12a10c27783b9392918591600080516020615f0e833981519152918190613f2c9086836150cd565b0390a2604051908152a280f35b87895260168752604089208054909a8a5b828110613f5957505050613ecb565b80613f898b8f6005613f6f613f8e968893614658565b5001541615634539313160e01b6040519261340884614b40565b6155bf565b613f4a565b6001600160a01b031916331790558a80613ebc565b613fbf9150893d8b11610d2e57610d208183614b76565b8c613e99565b823461038c578060031936011261038c57600354600454600554604051928392613ff9926001600160a01b031691846145da565b0390f35b823461038c57602036600319011261038c5760209060ff906040906001600160a01b03614028614598565b168152601584522054166040519015158152f35b823461038c57604036600319011261038c576024356001600160a01b0381169060043590829003610ca35760207f23d6711a1d031134a36921253c75aa59e967d38e369ac625992824315e204f209184805260018252604085203360005282526140b060ff60406000205416610447615d4d565b6140bb612459615d6d565b6140e447821115604051906140cf82614b40565b6004825263114e4c4d60e21b85830152614ea9565b61411a8580808085895af16140f761535d565b506040519061410582614b40565b60048252634539303560e01b85830152614ea9565b604051908152a280f35b82602080600319360112610eca576004359061413e614fe5565b8183526012815260408320916003830180549360ff8560a01c166006811015611f275761416f90600461042c615c8f565b828652601484526141a963ffffffff6040882054164211156040519061419482614b40565b6004825263229c981b60e11b87830152614ea9565b3386526018845260408620838752845260408620546141e56040516141cd81614b40565b60048152634539303760e01b87820152821515614ea9565b83875260168552604087206000198201918211614443579061420691614658565b5060058101805460ff1660405161421c81614b40565b600481526308a7260760e31b8882015261423591614ea9565b60018201546040516001600160a01b039591861633149061425581614b40565b60048152634539303960e01b8982015261426e91614ea9565b6003830197858954161560405161428481614b40565b60048152630453931360e41b8a82015261429d91614ea9565b6142a5615c4f565b6142b0903415614ea9565b600160a11b9060ff60a01b191617905560ff19815416905533875260188552604087208488528552866040812055601485526040872063ffffffff198154169055600201938680808088548180808060035461430c9086614bc5565b6127109004948561431c91614da6565b9a6001019a8c8c54165af161432f61535d565b5060405161433c81614b40565b60048152634536303960e01b8882015261435591614ea9565b87600554165af19061436561535d565b506040519061437382614b40565b600482528101630453631360e41b905261438c91614ea9565b817f0000000000000000000000000000000000000000000000000000000000000000168683835416823b15610eca576143e092869183604051809681958294635c46a7ef60e11b8452339060048501615309565b03925af180156119785761441a575b5081600080516020615f2e83398151915292613b4492541694549554166040519182913397836150cd565b9180613b449297614439600080516020615f2e83398151915295614b11565b97925092506143ef565b634e487b7160e01b88526011600452602488fd5b823461038c57602036600319011261038c577f1cf28b997975c7be355bcef74f2f5019aa48253bc1e54b3c8b002471865fdba8602061449461457a565b60ff600f5460a01c1680614511575b156144db576144c060018060a01b03600e54163314610447614ecd565b151560ff196011541660ff821617601155604051908152a180f35b600080516020615eae83398151915284526001825260408420338552825261450c60ff604086205416610447614e89565b6144c0565b50600e546001600160a01b031615156144a3565b839034610eca576020366003190112610eca5760043563ffffffff60e01b8116809103610ca35760209250637965db0b60e01b8114908115614569575b5015158152f35b6301ffc9a760e01b14905083614562565b600435908115158203610d5457565b602435908115158203610d5457565b600435906001600160a01b0382168203610d5457565b602435906001600160a01b0382168203610d5457565b604435906001600160a01b0382168203610d5457565b90815260208101919091526001600160a01b03909116604082015260600190565b6060906003190112610d545760043590602435906044356001600160a01b0381168103610d545790565b6040906003190112610d54576004359060243590565b34610d54576000366003190112610d545760206040516127108152f35b8054821015614674576000526006602060002091020190600090565b634e487b7160e01b600052603260045260246000fd5b9060068210156121745752565b9060ff801983541691151516179055565b906000918083526001602052604083209160018060a01b03169182845260205260ff6040842054166146d957505050565b8083526001602052604083208284526020526040832060ff1981541690557ff6391f5c32d9c69d2a47ea670b442974b53935d1edc7fd64eb21e047a839171b339380a4565b3360009081527fa6eef7e35abe7026729641147f7915573c7e97b47efa546f5f6e3230263bcb49602090815260408083205490929060019060ff16156147645750505050565b61476d33614bf6565b8285519261477a84614b5b565b604284528584019460603687378451156148b3576030865384518210156148b35790607860218601536041915b8183116148455750505061481557612d049385936147ff936147f0604894612d5499519885600080516020615e0e8339815191528b978801528251928391603789019101614aee565b01036028810185520183614b76565b5162461bcd60e51b815291829160048301614b99565b60648486519062461bcd60e51b82528060048301526024820152600080516020615dae8339815191526044820152fd5b909192600f8116601081101561489f576f181899199a1a9b1b9c1cb0b131b232b360811b901a6148758588614be5565b5360041c92801561488b576000190191906147a7565b634e487b7160e01b82526011600452602482fd5b634e487b7160e01b83526032600452602483fd5b634e487b7160e01b81526032600452602490fd5b3360009081527f31c1e66639f421f1853aeefe8ad6b62a3b96f3287efe23106923cd924aa025c26020908152604080832054909290600190600080516020615eae8339815191529060ff161561491e575050505050565b61492733614bf6565b9085519261493484614b5b565b604284528584019460603687378451156148b3576030865384518210156148b35790607860218601536041915b8183116149aa5750505061481557612d049385936147ff936147f0604894612d5499519885600080516020615e0e8339815191528b978801528251928391603789019101614aee565b909192600f8116601081101561489f576f181899199a1a9b1b9c1cb0b131b232b360811b901a6149da8588614be5565b5360041c92801561488b57600019019190614961565b6000818152600190602091808352604093848320338452845260ff858420541615614a1c575050505050565b614a2533614bf6565b90855192614a3284614b5b565b604284528584019460603687378451156148b3576030865384518210156148b35790607860218601536041915b818311614aa85750505061481557612d049385936147ff936147f0604894612d5499519885600080516020615e0e8339815191528b978801528251928391603789019101614aee565b909192600f8116601081101561489f576f181899199a1a9b1b9c1cb0b131b232b360811b901a614ad88588614be5565b5360041c92801561488b57600019019190614a5f565b60005b838110614b015750506000910152565b8181015183820152602001614af1565b6001600160401b03811161313e57604052565b61010081019081106001600160401b0382111761313e57604052565b604081019081106001600160401b0382111761313e57604052565b608081019081106001600160401b0382111761313e57604052565b601f909101601f19168101906001600160401b0382119082101761313e57604052565b60409160208252614bb98151809281602086015260208686019101614aee565b601f01601f1916010190565b81810292918115918404141715610a8157565b91908201809211610a8157565b908151811015614674570160200190565b60405190606082016001600160401b0381118382101761313e57604052602a82526020820160403682378251156146745760309053815160019081101561467457607860218401536029905b808211614c84575050614c525790565b606460405162461bcd60e51b81526020600482015260206024820152600080516020615dae8339815191526044820152fd5b9091600f81166010811015614cdd576f181899199a1a9b1b9c1cb0b131b232b360811b901a614cb38486614be5565b5360041c918015614cc8576000190190614c42565b60246000634e487b7160e01b81526011600452fd5b60246000634e487b7160e01b81526032600452fd5b9094939260609260808301968352602083015260408201520152565b600a5481101561467457600a60005260206000200190600090565b6000818152600b6020526040812054614da157600a54600160401b811015614d8d579082614d79614d6284600160409601600a55614d0e565b819391549060031b91821b91600019901b19161790565b9055600a54928152600b6020522055600190565b634e487b7160e01b82526041600452602482fd5b905090565b91908203918211610a8157565b6000818152600b60205260408120549091908015614e845760001990808201818111611bc257600a5490838201918211614e7057808203614e3c575b505050600a548015614e2857810190614e0782614d0e565b909182549160031b1b19169055600a558152600b6020526040812055600190565b634e487b7160e01b84526031600452602484fd5b614e5a614e4b614d6293614d0e565b90549060031b1c928392614d0e565b90558452600b6020526040842055388080614def565b634e487b7160e01b86526011600452602486fd5b505090565b60405190614e9682614b40565b6004825263229a181960e11b6020830152565b15614eb15750565b60405162461bcd60e51b8152908190612d549060048301614b99565b60405190614eda82614b40565b60048252634536303160e01b6020830152565b60405190614efa82614b40565b60048252634530303160e01b6020830152565b60405190614f1a82614b40565b60048252634536303360e01b6020830152565b60405190614f3a82614b40565b6004825263114d8c0d60e21b6020830152565b60405190614f5a82614b40565b6004825263229b181960e11b6020830152565b90816020910312610d5457518015158103610d545790565b60405190614f9282614b40565b60048252634534303360e01b6020830152565b60405190614fb282614b40565b60048252634533303160e01b6020830152565b60405190614fd282614b40565b60048252634530303360e01b6020830152565b600260005414614ff6576002600055565b60405162461bcd60e51b815260206004820152601f60248201527f5265656e7472616e637947756172643a207265656e7472616e742063616c6c006044820152606490fd5b60ff6011541615615064576001600160a01b031660009081526010602052604090205460ff1690565b50600190565b90816020910312610d5457516001600160a01b0381168103610d545790565b6040519061509682614b40565b60048252634531303560e01b6020830152565b90600681101561217457815460ff60a01b191660a09190911b60ff60a01b16179055565b9081526001600160a01b03909116602082015260400190565b6001600160a01b03918216815291166020820152604081019190915260600190565b6040519061511582614b40565b60048252634539303160e01b6020830152565b6001600160a01b0390811660008181526015602090815260408083205492989790959394919392899060ff16156152a257508551966370a0823160e01b928389528116938460048a015285896024818a5afa988915615298578b99615267575b509085916151a9895194859384936323b872dd60e01b8552600485016150e6565b03818c895af190811561525d57916151cf6024928695948c916152405750610447615108565b86519586938492835260048301525afa928315615237575085926151fe575b50506151fb929350614da6565b90565b90809250813d8311615230575b6152158183614b76565b8101031261522c576151fb929350518392386151ee565b8380fd5b503d61520b565b513d87823e3d90fd5b6152579150863d8811610a5157610a428183614b76565b38612373565b86513d8b823e3d90fd5b919098508582813d8311615291575b6152808183614b76565b81010312612c705790519785615188565b503d615276565b88513d8d823e3d90fd5b8197906152ca9692935085948851978895869485936323b872dd60e01b8552600485016150e6565b03925af192831561523757506151fb939495926152ec575b5050610447615108565b6153029250803d10610a5157610a428183614b76565b38806152e2565b6001600160a01b03918216815291166020820152604081019190915260806060820181905260009082015260a00190565b6001600160a01b0391821681526020810192909252909116604082015260600190565b3d15615397573d906001600160401b03821161313e576040519161538b601f8201601f191660200184614b76565b82523d6000602084013e565b606090565b600090815260136020526040812060038101546001600160a01b03929190831680615406575081808260026154049660018496015416910154905af16153e061535d565b50604051906153ee82614b40565b6004825263229c981960e11b6020830152614ea9565b565b9150600261541d936001830154169101549161543b565b50565b6001600160a01b039091168152602081019190915260400190565b6001600160a01b0316600081815260156020908152604080832054929695909490939260ff161561559a578451936370a0823160e01b918286523060048701528386602481885afa95861561559057899661555b575b50865163a9059cbb60e01b8152918491839182916154b3919060048401615420565b03818b885af1908115615551578392916154d6918a9161553a5750610447615108565b602486518095819382523060048301525afa938415615237575085936155035750506151fb929350614da6565b9080929350813d8311615533575b61551b8183614b76565b8101031261522c576151fb92935051908392386151ee565b503d615511565b6152579150843d8611610a5157610a428183614b76565b86513d8a823e3d90fd5b9095508381813d8311615589575b6155738183614b76565b810103126155855751946154b3615491565b8880fd5b503d615569565b87513d8b823e3d90fd5b836152ca938392898897985180978195829463a9059cbb60e01b845260048401615420565b6000198114610a815760010190565b6000908082526020906016825260409182842090845b825481101561578e57806155fb6156109285614658565b5060ff60058092015416615615575b506155bf565b6155e4565b85600080516020615d8e833981519152856001615632868a614658565b50818060a01b0391829101541694600261564c888c614658565b50015491600361565c898d614658565b500154169061566b888c614658565b5001805460ff19169055858d52601883528b8d20858e5283528b8d208d9055806156e857508b8080808489612710f16156a261535d565b50156156b5575b8a51908152a33861560a565b848c52601982528a8c206156ca828254614bd8565b905584600080516020615e4e833981519152838d51848152a26156a9565b8b5163a9059cbb60e01b81528d848280615706878c60048401615420565b038184875af190918161576f575b5061573e5750858d52601a83528b8d20908d5282528a8c20615737828254614bd8565b90556156a9565b1561574a575b506156a9565b858d52601a83528b8d20908d5282528a8c20615767828254614bd8565b905538615744565b615787919250853d8711610a5157610a428183614b76565b9038615714565b505050505050565b9091926157a28461503b565b156157fb576157b090615ccf565b9081156157f35750915b6001600160a01b03166157ee578134101591826157e3575b50816157dc575090565b9050341490565b8110159150386157d2565b101590565b9050916157ba565b50505050600090565b6003546005546040805193966001600160a01b0395949093928616606082016001600160401b0381118382101761313e5783528382528260209283810192835201615855612710958683528a614bc5565b9051908115615b7f5704938761586b868b614da6565b928782168c81615a1d57505051168934106159e157888b600080809681948294165af161589661535d565b50156159a2578280808881945af16158ac61535d565b5015615969576158bc8934614da6565b90816158f3575b50505050916158ee9185600080516020615eee8339815191529695945b5195869516981696846145da565b0390a3565b82809281928b8b1690f161590561535d565b5015615913578080806158c3565b608491519062461bcd60e51b82526004820152602b60248201527f526566756e64206661696c6564202d20636f6e7369646572207573696e67207060448201526a3ab636103830ba3a32b93760a91b6064820152fd5b835162461bcd60e51b8152600481018490526012602482015271119959481c185e5b595b9d0819985a5b195960721b6044820152606490fd5b845162461bcd60e51b815260048101859052601860248201527714185e5b595b9d081d1bc81cd95b1b195c8819985a5b195960421b6044820152606490fd5b845162461bcd60e51b8152600481018590526015602482015274125b9cdd59999a58da595b9d08115512081cd95b9d605a1b6044820152606490fd5b91615a4595945092909251169286519485916323b872dd60e01b938484528c600485016150e6565b039385816000968188875af1908115615b75578591615b58575b5015615b185791849189858995615a838a51978896879586948552600485016150e6565b03925af1918215615b0d5791615af0575b5015615ab85750916158ee9185600080516020615eee8339815191529695946158e0565b606491519062461bcd60e51b825260048201526013602482015272119959481d1c985b9cd9995c8819985a5b1959606a1b6044820152fd5b615b079150823d8411610a5157610a428183614b76565b38615a94565b8451903d90823e3d90fd5b855162461bcd60e51b8152600481018690526019602482015278151c985b9cd9995c881d1bc81cd95b1b195c8819985a5b1959603a1b6044820152606490fd5b615b6f9150863d8811610a5157610a428183614b76565b38615a5f565b87513d87823e3d90fd5b634e487b7160e01b600052601260045260246000fd5b60405190615ba282614b40565b60048252634531303360e01b6020830152565b6001600160a01b0391821681529116602082015260400190565b60405190615bdc82614b40565b600482526308a6460760e31b6020830152565b60405190615bfc82614b40565b60048252632299181960e11b6020830152565b60405190615c1c82614b40565b60048252632299981960e11b6020830152565b60405190615c3c82614b40565b60048252634532303560e01b6020830152565b60405190615c5c82614b40565b600482526308a6c60760e31b6020830152565b60405190615c7c82614b40565b6004825263229a981960e11b6020830152565b60405190615c9c82614b40565b6004825263114d4c0d60e21b6020830152565b60405190615cbc82614b40565b60048252634535303160e01b6020830152565b6000908152601660205260408120805490825b828110615cef5750505090565b60ff6005615cfd8385614658565b5001541680615d36575b615d1a575b615d15906155bf565b615ce2565b9250615d156002615d2b8584614658565b500154939050615d0c565b50836002615d448385614658565b50015411615d07565b60405190615d5a82614b40565b6004825263229c989960e11b6020830152565b60405190615d7a82614b40565b60048252634539313360e01b602083015256feaf2f02012ea1953fe9293dd4a8bb5194c96792324f9385297c991c2cfeade3d9537472696e67733a20686578206c656e67746820696e73756666696369656e746393fa734211156fcc8c7dda6b0650f5c731d4c838c1db43445a149aa2f5b6fe2c6c7576542d9307c65e21c836da28fc580279667ba9e8d5fe56dca491d59803416363657373436f6e74726f6c3a206163636f756e74200000000000000000005be1cef2101afbbf72fccd811a15ccfdedc8c44b5f50934100f262ffcd9a1f0603346f418777de37a432a76ace912eeb3d1d63333a4f8c59df9ae07eb0973215e30abccebb20a387be8e75e927d7e06ce1bf9d77bb3888516663bdc8995fb334b3e1dfecf49ceda774b84be714702b63d8c4b746e899fc1fa14dd7d09c616c4c97667070c54ef182b0f5858b034beac1b6f3089aa2d3188bb1e8929f4fa9b929b9f13ecb5e7f0f859c44b76b3a163e504787b446da95a26bf75e53e1ff4a1e0ea496c08b103292578a04c9879f2740638414c311180dffa9d1436d3c97119923b82cb8d1ee5aa2af90399f2b0ece446b81a5f1e601da16a2a2b62dfcc8bb4ba3fd9d7289c0b47546fff41663663c2372aa45809b7ab87d908e443a3821cb5b4ea2646970667358221220dac2a7c9fc06f160b1b41444ba94f91fa6f26c59dcb2ab22a44ba36f5569659664736f6c634300081400332f8788117e7eff1d82e926ec794901d17c78024a50270940304540a733656f0d",
  "linkReferences": {},
  "deployedLinkReferences": {}
}