{
  "_format": "hh-sol-artifact-1",
  "contractName": "BidManagement",
  "sourceName": "contracts/libraries/BidManagement.sol",
  "abi": [
    {
      "inputs": [
        {
          "internalType": "uint256",
          "name": "currentPrice",
          "type": "uint256"
        }
      ],
      "name": "calculateMinimumIncrement",
      "outputs": [
        {
          "internalType": "uint256",
          "name": "increment",
          "type": "uint256"
        }
      ],
      "stateMutability": "pure",
      "type": "function"
    },
    {
      "inputs": [
        {
          "internalType": "uint256",
          "name": "bidAmount",
          "type": "uint256"
        },
        {
          "internalType": "uint256",
          "name": "listingPrice",
          "type": "uint256"
        },
        {
          "internalType": "uint256",
          "name": "highestBid",
          "type": "uint256"
        }
      ],
      "name": "validateBidAmount",
      "outputs": [
        {
          "internalType": "bool",
          "name": "valid",
          "type": "bool"
        }
      ],
      "stateMutability": "pure",
      "type": "function"
    }
  ],
  "bytecode": "0x6080806040523461001c576108c290816100228239308160080152f35b600080fdfe604060808152307f000000000000000000000000000000000000000000000000000000000000000014906004918236101561003957600080fd5b600090813560e01c806311b27ce8146102b257806313969d22146102975780633624d6a1146101f95780634c03f356146101cd57806366c465ca146101945780636f7211ad146100c557638f07c6251461009257600080fd5b6100c25760803660031901126100c257506100bb60209260643590604435906024359035610429565b9051908152f35b80fd5b508390610190576080366003190112610190573590602435926044356064359460018060a01b0380871680970361018c57845b8654811015610188578061010f61012a928961035b565b5060ff600580920154168061016e575b61012f575b50610336565b6100f8565b610139828a61035b565b5001805460ff19169055826001610150838b61035b565b50015416875260208481528688209086895252868681205589610124565b508984600161017d858d61035b565b50015416141561011f565b8580f35b8480fd5b5080fd5b505060203660031901126100c257506101af606092356107fd565b83519283526001600160a01b03909116602083015291810191909152f35b505060603660031901126100c257506101f060209260443590602435903561038d565b90519015158152f35b5092909261029357606036600319011261029357359160243591604435825b855481101561028f578061022f610243928861035b565b5060ff600580920154166102485750610336565b610218565b610252828961035b565b5001805460ff19169055610266818861035b565b50600101546001600160a01b031685526020868152848620848752905283852085905538610124565b8380f35b8280fd5b505060203660031901126100c257506100bb602092356103c0565b50508260206003193601126101905735805490825b8281106102d8576020848651908152f35b60ff60056102e6838561035b565b500154168061031f575b610303575b6102fe90610336565b6102c7565b92506102fe6002610314858461035b565b5001549390506102f5565b5083600261032d838561035b565b500154116102f0565b60001981146103455760010190565b634e487b7160e01b600052601160045260246000fd5b8054821015610377576000526006602060002091020190600090565b634e487b7160e01b600052603260045260246000fd5b919082106103b95780151591826103af575b50506103aa57600190565b600090565b109050388061039f565b5050600090565b670de0b6b3a76400008110156103ea57600581029080820460051490151715610345576064900490565b678ac7230489e8000081101561041457600381029080820460031490151715610345576064900490565b80800460011481151715610345576064900490565b9093926000946000938354928315610793578084111561078b57915b855b838110610721575050501480610718575b610460575050565b80549193909284805b8481106106de575061047a816107d2565b60408051959091601f1990601f01811687016001600160401b038111888210176106ca5783528387526104ac846107d2565b01885b81811061069457505087885b8281106105ea575050505b8554801561051c57600019016104dc818861035b565b610508576005818a809355826001820155826002820155826003820155826004820155015586556104c6565b634e487b7160e01b89526004899052602489fd5b5090929593949194845b84811061053557505050505050565b61053f81836107e9565b518454600160401b8110156105d65761055f60019182810188558761035b565b919091610508576005839260a0926105d196955182558101600180851b03908160208701511690600180871b031991828254161790558986015160028401556003830191606087015116908254161790556080840151600482015501910151151560ff80198354169116179055610336565b610526565b634e487b7160e01b88526041600452602488fd5b6105f4818a61035b565b5060ff8a8160058094015416610616575b50505061061190610336565b6104bb565b9183949161062a6106119561068b9561035b565b509161063461079d565b8354815260018401546001600160a01b03908116602083015260028501548b83015260038501541660608201526004840154608082015292015416151560a0820152610680828c6107e9565b52610124818b6107e9565b9190388a610605565b60209061069f61079d565b8b8152828c818301528c878301528c60608301528c60808301528c60a0830152828b010152016104af565b634e487b7160e01b8a52604160045260248afd5b60ff60056106ec838961035b565b50015416610703575b6106fe90610336565b610469565b906107106106fe91610336565b9190506106f5565b50831515610458565b60ff600561072f838961035b565b5001541615610747575b61074290610336565b610447565b97610783610742916107598b8961035b565b50600101546001600160a01b0316895260208481526040808b20878c529091528920899055610336565b989050610739565b508291610445565b5093955050505050565b6040519060c082016001600160401b038111838210176107bc57604052565b634e487b7160e01b600052604160045260246000fd5b6001600160401b0381116107bc5760051b60200190565b80518210156103775760209160051b010190565b9060005b82548110156108815760ff6005610818838661035b565b5001541680610862575b6108345761082f90610336565b610801565b90600261085983610845818761035b565b50600101546001600160a01b03169561035b565b50015491929190565b5061086d818461035b565b50600301546001600160a01b031615610822565b50600091508190819056fea26469706673582212207d4418d3ee888d272a88fac1b5dcf8b1eb2c40d4098aa29be655d0e728aa2e3764736f6c63430008140033",
  "linkReferences": {},
  "deployedLinkReferences": {}
}