{
  "_format": "hh-sol-artifact-1",
  "contractName": "BaseRewards",
  "sourceName": "contracts/rewards/BaseRewards.sol",
  "abi": [
    {
      "inputs": [
        {
          "internalType": "address",
          "name": "_stakingToken",
          "type": "address"
        },
        {
          "internalType": "address",
          "name": "_rewardsToken",
          "type": "address"
        },
        {
          "internalType": "address",
          "name": "initialOwner",
          "type": "address"
        }
      ],
      "stateMutability": "nonpayable",
      "type": "constructor"
    },
    {
      "anonymous": false,
      "inputs": [
        {
          "indexed": true,
          "internalType": "address",
          "name": "previousOwner",
          "type": "address"
        },
        {
          "indexed": true,
          "internalType": "address",
          "name": "newOwner",
          "type": "address"
        }
      ],
      "name": "OwnershipTransferred",
      "type": "event"
    },
    {
      "anonymous": false,
      "inputs": [
        {
          "indexed": true,
          "internalType": "address",
          "name": "user",
          "type": "address"
        },
        {
          "indexed": false,
          "internalType": "uint256",
          "name": "reward",
          "type": "uint256"
        }
      ],
      "name": "RewardPaid",
      "type": "event"
    },
    {
      "anonymous": false,
      "inputs": [
        {
          "indexed": true,
          "internalType": "address",
          "name": "user",
          "type": "address"
        },
        {
          "indexed": false,
          "internalType": "uint256",
          "name": "amount",
          "type": "uint256"
        }
      ],
      "name": "Staked",
      "type": "event"
    },
    {
      "anonymous": false,
      "inputs": [
        {
          "indexed": true,
          "internalType": "address",
          "name": "user",
          "type": "address"
        },
        {
          "indexed": false,
          "internalType": "uint256",
          "name": "amount",
          "type": "uint256"
        }
      ],
      "name": "Withdrawn",
      "type": "event"
    },
    {
      "inputs": [
        {
          "internalType": "address",
          "name": "account",
          "type": "address"
        }
      ],
      "name": "balanceOf",
      "outputs": [
        {
          "internalType": "uint256",
          "name": "",
          "type": "uint256"
        }
      ],
      "stateMutability": "view",
      "type": "function"
    },
    {
      "inputs": [],
      "name": "claimReward",
      "outputs": [],
      "stateMutability": "nonpayable",
      "type": "function"
    },
    {
      "inputs": [
        {
          "internalType": "address",
          "name": "account",
          "type": "address"
        }
      ],
      "name": "earned",
      "outputs": [
        {
          "internalType": "uint256",
          "name": "",
          "type": "uint256"
        }
      ],
      "stateMutability": "view",
      "type": "function"
    },
    {
      "inputs": [],
      "name": "lastUpdateTime",
      "outputs": [
        {
          "internalType": "uint256",
          "name": "",
          "type": "uint256"
        }
      ],
      "stateMutability": "view",
      "type": "function"
    },
    {
      "inputs": [],
      "name": "owner",
      "outputs": [
        {
          "internalType": "address",
          "name": "",
          "type": "address"
        }
      ],
      "stateMutability": "view",
      "type": "function"
    },
    {
      "inputs": [],
      "name": "renounceOwnership",
      "outputs": [],
      "stateMutability": "nonpayable",
      "type": "function"
    },
    {
      "inputs": [
        {
          "internalType": "address",
          "name": "tokenAddress",
          "type": "address"
        },
        {
          "internalType": "uint256",
          "name": "amount",
          "type": "uint256"
        }
      ],
      "name": "rescueERC20",
      "outputs": [],
      "stateMutability": "nonpayable",
      "type": "function"
    },
    {
      "inputs": [],
      "name": "rewardPerToken",
      "outputs": [
        {
          "internalType": "uint256",
          "name": "",
          "type": "uint256"
        }
      ],
      "stateMutability": "view",
      "type": "function"
    },
    {
      "inputs": [],
      "name": "rewardPerTokenStored",
      "outputs": [
        {
          "internalType": "uint256",
          "name": "",
          "type": "uint256"
        }
      ],
      "stateMutability": "view",
      "type": "function"
    },
    {
      "inputs": [],
      "name": "rewardRate",
      "outputs": [
        {
          "internalType": "uint256",
          "name": "",
          "type": "uint256"
        }
      ],
      "stateMutability": "view",
      "type": "function"
    },
    {
      "inputs": [
        {
          "internalType": "address",
          "name": "",
          "type": "address"
        }
      ],
      "name": "rewards",
      "outputs": [
        {
          "internalType": "uint256",
          "name": "",
          "type": "uint256"
        }
      ],
      "stateMutability": "view",
      "type": "function"
    },
    {
      "inputs": [],
      "name": "rewardsToken",
      "outputs": [
        {
          "internalType": "contract IERC20",
          "name": "",
          "type": "address"
        }
      ],
      "stateMutability": "view",
      "type": "function"
    },
    {
      "inputs": [
        {
          "internalType": "uint256",
          "name": "_rewardRate",
          "type": "uint256"
        }
      ],
      "name": "setRewardRate",
      "outputs": [],
      "stateMutability": "nonpayable",
      "type": "function"
    },
    {
      "inputs": [
        {
          "internalType": "uint256",
          "name": "amount",
          "type": "uint256"
        }
      ],
      "name": "stake",
      "outputs": [],
      "stateMutability": "nonpayable",
      "type": "function"
    },
    {
      "inputs": [],
      "name": "stakingToken",
      "outputs": [
        {
          "internalType": "contract IERC20",
          "name": "",
          "type": "address"
        }
      ],
      "stateMutability": "view",
      "type": "function"
    },
    {
      "inputs": [],
      "name": "totalSupply",
      "outputs": [
        {
          "internalType": "uint256",
          "name": "",
          "type": "uint256"
        }
      ],
      "stateMutability": "view",
      "type": "function"
    },
    {
      "inputs": [
        {
          "internalType": "address",
          "name": "newOwner",
          "type": "address"
        }
      ],
      "name": "transferOwnership",
      "outputs": [],
      "stateMutability": "nonpayable",
      "type": "function"
    },
    {
      "inputs": [
        {
          "internalType": "address",
          "name": "",
          "type": "address"
        }
      ],
      "name": "userRewardPerTokenPaid",
      "outputs": [
        {
          "internalType": "uint256",
          "name": "",
          "type": "uint256"
        }
      ],
      "stateMutability": "view",
      "type": "function"
    },
    {
      "inputs": [
        {
          "internalType": "uint256",
          "name": "amount",
          "type": "uint256"
        }
      ],
      "name": "withdraw",
      "outputs": [],
      "stateMutability": "nonpayable",
      "type": "function"
    }
  ],
  "bytecode": "0x60806040523480156200001157600080fd5b5060405162001a1538038062001a15833981810160405281019062000037919062000230565b620000576200004b620000fa60201b60201c565b6200010260201b60201c565b600180819055506200006f816200010260201b60201c565b82600260006101000a81548173ffffffffffffffffffffffffffffffffffffffff021916908373ffffffffffffffffffffffffffffffffffffffff16021790555081600360006101000a81548173ffffffffffffffffffffffffffffffffffffffff021916908373ffffffffffffffffffffffffffffffffffffffff1602179055505050506200028c565b600033905090565b60008060009054906101000a900473ffffffffffffffffffffffffffffffffffffffff169050816000806101000a81548173ffffffffffffffffffffffffffffffffffffffff021916908373ffffffffffffffffffffffffffffffffffffffff1602179055508173ffffffffffffffffffffffffffffffffffffffff168173ffffffffffffffffffffffffffffffffffffffff167f8be0079c531659141344cd1fd0a4f28419497f9722a3daafe3b4186f6b6457e060405160405180910390a35050565b600080fd5b600073ffffffffffffffffffffffffffffffffffffffff82169050919050565b6000620001f882620001cb565b9050919050565b6200020a81620001eb565b81146200021657600080fd5b50565b6000815190506200022a81620001ff565b92915050565b6000806000606084860312156200024c576200024b620001c6565b5b60006200025c8682870162000219565b93505060206200026f8682870162000219565b9250506040620002828682870162000219565b9150509250925092565b611779806200029c6000396000f3fe608060405234801561001057600080fd5b50600436106101205760003560e01c80638cd4426d116100ad578063c8f33c9111610071578063c8f33c91146102e1578063cd3daf9d146102ff578063d1af0c7d1461031d578063df136d651461033b578063f2fde38b1461035957610120565b80638cd4426d146102655780638da5cb5b146102815780639e447fc61461029f578063a694fc3a146102bb578063b88a802f146102d757610120565b806370a08231116100f457806370a08231146101bf578063715018a6146101ef57806372f702f3146101f95780637b0a47ee146102175780638b8763471461023557610120565b80628cc262146101255780630700037d1461015557806318160ddd146101855780632e1a7d4d146101a3575b600080fd5b61013f600480360381019061013a9190611154565b610375565b60405161014c919061119a565b60405180910390f35b61016f600480360381019061016a9190611154565b610493565b60405161017c919061119a565b60405180910390f35b61018d6104ab565b60405161019a919061119a565b60405180910390f35b6101bd60048036038101906101b891906111e1565b6104b5565b005b6101d960048036038101906101d49190611154565b610747565b6040516101e6919061119a565b60405180910390f35b6101f7610790565b005b6102016107a4565b60405161020e919061126d565b60405180910390f35b61021f6107ca565b60405161022c919061119a565b60405180910390f35b61024f600480360381019061024a9190611154565b6107d0565b60405161025c919061119a565b60405180910390f35b61027f600480360381019061027a9190611288565b6107e8565b005b61028961087a565b60405161029691906112d7565b60405180910390f35b6102b960048036038101906102b491906111e1565b6108a3565b005b6102d560048036038101906102d091906111e1565b6108b5565b005b6102df610b49565b005b6102e9610dbc565b6040516102f6919061119a565b60405180910390f35b610307610dc2565b604051610314919061119a565b60405180910390f35b610325610e48565b604051610332919061126d565b60405180910390f35b610343610e6e565b604051610350919061119a565b60405180910390f35b610373600480360381019061036e9190611154565b610e74565b005b600061048c600860008473ffffffffffffffffffffffffffffffffffffffff1673ffffffffffffffffffffffffffffffffffffffff1681526020019081526020016000205461047e670de0b6b3a7640000610470610422600760008973ffffffffffffffffffffffffffffffffffffffff1673ffffffffffffffffffffffffffffffffffffffff16815260200190815260200160002054610414610dc2565b610ef790919063ffffffff16565b600a60008973ffffffffffffffffffffffffffffffffffffffff1673ffffffffffffffffffffffffffffffffffffffff16815260200190815260200160002054610f0d90919063ffffffff16565b610f2390919063ffffffff16565b610f3990919063ffffffff16565b9050919050565b60086020528060005260406000206000915090505481565b6000600954905090565b6104bd610f4f565b336104c6610dc2565b60068190555042600581905550600073ffffffffffffffffffffffffffffffffffffffff168173ffffffffffffffffffffffffffffffffffffffff161461059a5761051081610375565b600860008373ffffffffffffffffffffffffffffffffffffffff1673ffffffffffffffffffffffffffffffffffffffff16815260200190815260200160002081905550600654600760008373ffffffffffffffffffffffffffffffffffffffff1673ffffffffffffffffffffffffffffffffffffffff168152602001908152602001600020819055505b600082116105dd576040517f08c379a00000000000000000000000000000000000000000000000000000000081526004016105d49061134f565b60405180910390fd5b81600960008282546105ef919061139e565b9250508190555081600a60003373ffffffffffffffffffffffffffffffffffffffff1673ffffffffffffffffffffffffffffffffffffffff1681526020019081526020016000206000828254610645919061139e565b92505081905550600260009054906101000a900473ffffffffffffffffffffffffffffffffffffffff1673ffffffffffffffffffffffffffffffffffffffff1663a9059cbb33846040518363ffffffff1660e01b81526004016106a99291906113d2565b6020604051808303816000875af11580156106c8573d6000803e3d6000fd5b505050506040513d601f19601f820116820180604052508101906106ec9190611433565b503373ffffffffffffffffffffffffffffffffffffffff167f7084f5476618d8e60b11ef0d7d3f06914655adb8793e28ff7f018d4c76d505d583604051610733919061119a565b60405180910390a250610744610f9e565b50565b6000600a60008373ffffffffffffffffffffffffffffffffffffffff1673ffffffffffffffffffffffffffffffffffffffff168152602001908152602001600020549050919050565b610798610fa7565b6107a26000611025565b565b600260009054906101000a900473ffffffffffffffffffffffffffffffffffffffff1681565b60045481565b60076020528060005260406000206000915090505481565b6107f0610fa7565b8173ffffffffffffffffffffffffffffffffffffffff1663a9059cbb61081461087a565b836040518363ffffffff1660e01b81526004016108329291906113d2565b6020604051808303816000875af1158015610851573d6000803e3d6000fd5b505050506040513d601f19601f820116820180604052508101906108759190611433565b505050565b60008060009054906101000a900473ffffffffffffffffffffffffffffffffffffffff16905090565b6108ab610fa7565b8060048190555050565b6108bd610f4f565b336108c6610dc2565b60068190555042600581905550600073ffffffffffffffffffffffffffffffffffffffff168173ffffffffffffffffffffffffffffffffffffffff161461099a5761091081610375565b600860008373ffffffffffffffffffffffffffffffffffffffff1673ffffffffffffffffffffffffffffffffffffffff16815260200190815260200160002081905550600654600760008373ffffffffffffffffffffffffffffffffffffffff1673ffffffffffffffffffffffffffffffffffffffff168152602001908152602001600020819055505b600082116109dd576040517f08c379a00000000000000000000000000000000000000000000000000000000081526004016109d4906114ac565b60405180910390fd5b81600960008282546109ef91906114cc565b9250508190555081600a60003373ffffffffffffffffffffffffffffffffffffffff1673ffffffffffffffffffffffffffffffffffffffff1681526020019081526020016000206000828254610a4591906114cc565b92505081905550600260009054906101000a900473ffffffffffffffffffffffffffffffffffffffff1673ffffffffffffffffffffffffffffffffffffffff166323b872dd3330856040518463ffffffff1660e01b8152600401610aab93929190611500565b6020604051808303816000875af1158015610aca573d6000803e3d6000fd5b505050506040513d601f19601f82011682018060405250810190610aee9190611433565b503373ffffffffffffffffffffffffffffffffffffffff167f9e71bc8eea02a63969f509818f2dafb9254532904319f9dbda79b67bd34a5f3d83604051610b35919061119a565b60405180910390a250610b46610f9e565b50565b610b51610f4f565b33610b5a610dc2565b60068190555042600581905550600073ffffffffffffffffffffffffffffffffffffffff168173ffffffffffffffffffffffffffffffffffffffff1614610c2e57610ba481610375565b600860008373ffffffffffffffffffffffffffffffffffffffff1673ffffffffffffffffffffffffffffffffffffffff16815260200190815260200160002081905550600654600760008373ffffffffffffffffffffffffffffffffffffffff1673ffffffffffffffffffffffffffffffffffffffff168152602001908152602001600020819055505b6000600860003373ffffffffffffffffffffffffffffffffffffffff1673ffffffffffffffffffffffffffffffffffffffff1681526020019081526020016000205490506000811115610db0576000600860003373ffffffffffffffffffffffffffffffffffffffff1673ffffffffffffffffffffffffffffffffffffffff16815260200190815260200160002081905550600360009054906101000a900473ffffffffffffffffffffffffffffffffffffffff1673ffffffffffffffffffffffffffffffffffffffff1663a9059cbb33836040518363ffffffff1660e01b8152600401610d1d9291906113d2565b6020604051808303816000875af1158015610d3c573d6000803e3d6000fd5b505050506040513d601f19601f82011682018060405250810190610d609190611433565b503373ffffffffffffffffffffffffffffffffffffffff167fe2403640ba68fed3a2f88b7557551d1993f84b99bb10ff833f0cf8db0c5e048682604051610da7919061119a565b60405180910390a25b5050610dba610f9e565b565b60055481565b60008060095403610dd7576006549050610e45565b610e42610e31600954610e23670de0b6b3a7640000610e15600454610e0760055442610ef790919063ffffffff16565b610f0d90919063ffffffff16565b610f0d90919063ffffffff16565b610f2390919063ffffffff16565b600654610f3990919063ffffffff16565b90505b90565b600360009054906101000a900473ffffffffffffffffffffffffffffffffffffffff1681565b60065481565b610e7c610fa7565b600073ffffffffffffffffffffffffffffffffffffffff168173ffffffffffffffffffffffffffffffffffffffff1603610eeb576040517f08c379a0000000000000000000000000000000000000000000000000000000008152600401610ee2906115a9565b60405180910390fd5b610ef481611025565b50565b60008183610f05919061139e565b905092915050565b60008183610f1b91906115c9565b905092915050565b60008183610f31919061163a565b905092915050565b60008183610f4791906114cc565b905092915050565b600260015403610f94576040517f08c379a0000000000000000000000000000000000000000000000000000000008152600401610f8b906116b7565b60405180910390fd5b6002600181905550565b60018081905550565b610faf6110e9565b73ffffffffffffffffffffffffffffffffffffffff16610fcd61087a565b73ffffffffffffffffffffffffffffffffffffffff1614611023576040517f08c379a000000000000000000000000000000000000000000000000000000000815260040161101a90611723565b60405180910390fd5b565b60008060009054906101000a900473ffffffffffffffffffffffffffffffffffffffff169050816000806101000a81548173ffffffffffffffffffffffffffffffffffffffff021916908373ffffffffffffffffffffffffffffffffffffffff1602179055508173ffffffffffffffffffffffffffffffffffffffff168173ffffffffffffffffffffffffffffffffffffffff167f8be0079c531659141344cd1fd0a4f28419497f9722a3daafe3b4186f6b6457e060405160405180910390a35050565b600033905090565b600080fd5b600073ffffffffffffffffffffffffffffffffffffffff82169050919050565b6000611121826110f6565b9050919050565b61113181611116565b811461113c57600080fd5b50565b60008135905061114e81611128565b92915050565b60006020828403121561116a576111696110f1565b5b60006111788482850161113f565b91505092915050565b6000819050919050565b61119481611181565b82525050565b60006020820190506111af600083018461118b565b92915050565b6111be81611181565b81146111c957600080fd5b50565b6000813590506111db816111b5565b92915050565b6000602082840312156111f7576111f66110f1565b5b6000611205848285016111cc565b91505092915050565b6000819050919050565b600061123361122e611229846110f6565b61120e565b6110f6565b9050919050565b600061124582611218565b9050919050565b60006112578261123a565b9050919050565b6112678161124c565b82525050565b6000602082019050611282600083018461125e565b92915050565b6000806040838503121561129f5761129e6110f1565b5b60006112ad8582860161113f565b92505060206112be858286016111cc565b9150509250929050565b6112d181611116565b82525050565b60006020820190506112ec60008301846112c8565b92915050565b600082825260208201905092915050565b7f43616e6e6f742077697468647261772030000000000000000000000000000000600082015250565b60006113396011836112f2565b915061134482611303565b602082019050919050565b600060208201905081810360008301526113688161132c565b9050919050565b7f4e487b7100000000000000000000000000000000000000000000000000000000600052601160045260246000fd5b60006113a982611181565b91506113b483611181565b92508282039050818111156113cc576113cb61136f565b5b92915050565b60006040820190506113e760008301856112c8565b6113f4602083018461118b565b9392505050565b60008115159050919050565b611410816113fb565b811461141b57600080fd5b50565b60008151905061142d81611407565b92915050565b600060208284031215611449576114486110f1565b5b60006114578482850161141e565b91505092915050565b7f43616e6e6f74207374616b652030000000000000000000000000000000000000600082015250565b6000611496600e836112f2565b91506114a182611460565b602082019050919050565b600060208201905081810360008301526114c581611489565b9050919050565b60006114d782611181565b91506114e283611181565b92508282019050808211156114fa576114f961136f565b5b92915050565b600060608201905061151560008301866112c8565b61152260208301856112c8565b61152f604083018461118b565b949350505050565b7f4f776e61626c653a206e6577206f776e657220697320746865207a65726f206160008201527f6464726573730000000000000000000000000000000000000000000000000000602082015250565b60006115936026836112f2565b915061159e82611537565b604082019050919050565b600060208201905081810360008301526115c281611586565b9050919050565b60006115d482611181565b91506115df83611181565b92508282026115ed81611181565b915082820484148315176116045761160361136f565b5b5092915050565b7f4e487b7100000000000000000000000000000000000000000000000000000000600052601260045260246000fd5b600061164582611181565b915061165083611181565b9250826116605761165f61160b565b5b828204905092915050565b7f5265656e7472616e637947756172643a207265656e7472616e742063616c6c00600082015250565b60006116a1601f836112f2565b91506116ac8261166b565b602082019050919050565b600060208201905081810360008301526116d081611694565b9050919050565b7f4f776e61626c653a2063616c6c6572206973206e6f7420746865206f776e6572600082015250565b600061170d6020836112f2565b9150611718826116d7565b602082019050919050565b6000602082019050818103600083015261173c81611700565b905091905056fea26469706673582212203357461d3e9835de7dd8fab41d164b6ecbb5563f1acd5ccf70b255c141a4ec9f64736f6c63430008140033",
  "linkReferences": {},
  "deployedLinkReferences": {}
}