{
  "_format": "hh-sol-artifact-1",
  "contractName": "BaseRewards",
  "sourceName": "contracts/rewards/BaseRewards.sol",
  "abi": [
    {
      "inputs": [
        {
          "internalType": "address",
          "name": "_stakingToken",
          "type": "address"
        },
        {
          "internalType": "address",
          "name": "_rewardsToken",
          "type": "address"
        },
        {
          "internalType": "address",
          "name": "initialOwner",
          "type": "address"
        }
      ],
      "stateMutability": "nonpayable",
      "type": "constructor"
    },
    {
      "anonymous": false,
      "inputs": [
        {
          "indexed": true,
          "internalType": "address",
          "name": "previousOwner",
          "type": "address"
        },
        {
          "indexed": true,
          "internalType": "address",
          "name": "newOwner",
          "type": "address"
        }
      ],
      "name": "OwnershipTransferred",
      "type": "event"
    },
    {
      "anonymous": false,
      "inputs": [
        {
          "indexed": true,
          "internalType": "address",
          "name": "user",
          "type": "address"
        },
        {
          "indexed": false,
          "internalType": "uint256",
          "name": "reward",
          "type": "uint256"
        }
      ],
      "name": "RewardPaid",
      "type": "event"
    },
    {
      "anonymous": false,
      "inputs": [
        {
          "indexed": true,
          "internalType": "address",
          "name": "user",
          "type": "address"
        },
        {
          "indexed": false,
          "internalType": "uint256",
          "name": "amount",
          "type": "uint256"
        }
      ],
      "name": "Staked",
      "type": "event"
    },
    {
      "anonymous": false,
      "inputs": [
        {
          "indexed": true,
          "internalType": "address",
          "name": "user",
          "type": "address"
        },
        {
          "indexed": false,
          "internalType": "uint256",
          "name": "amount",
          "type": "uint256"
        }
      ],
      "name": "Withdrawn",
      "type": "event"
    },
    {
      "inputs": [
        {
          "internalType": "address",
          "name": "account",
          "type": "address"
        }
      ],
      "name": "balanceOf",
      "outputs": [
        {
          "internalType": "uint256",
          "name": "",
          "type": "uint256"
        }
      ],
      "stateMutability": "view",
      "type": "function"
    },
    {
      "inputs": [],
      "name": "claimReward",
      "outputs": [],
      "stateMutability": "nonpayable",
      "type": "function"
    },
    {
      "inputs": [
        {
          "internalType": "address",
          "name": "account",
          "type": "address"
        }
      ],
      "name": "earned",
      "outputs": [
        {
          "internalType": "uint256",
          "name": "",
          "type": "uint256"
        }
      ],
      "stateMutability": "view",
      "type": "function"
    },
    {
      "inputs": [],
      "name": "lastUpdateTime",
      "outputs": [
        {
          "internalType": "uint256",
          "name": "",
          "type": "uint256"
        }
      ],
      "stateMutability": "view",
      "type": "function"
    },
    {
      "inputs": [],
      "name": "owner",
      "outputs": [
        {
          "internalType": "address",
          "name": "",
          "type": "address"
        }
      ],
      "stateMutability": "view",
      "type": "function"
    },
    {
      "inputs": [],
      "name": "renounceOwnership",
      "outputs": [],
      "stateMutability": "nonpayable",
      "type": "function"
    },
    {
      "inputs": [],
      "name": "rewardPerToken",
      "outputs": [
        {
          "internalType": "uint256",
          "name": "",
          "type": "uint256"
        }
      ],
      "stateMutability": "view",
      "type": "function"
    },
    {
      "inputs": [],
      "name": "rewardPerTokenStored",
      "outputs": [
        {
          "internalType": "uint256",
          "name": "",
          "type": "uint256"
        }
      ],
      "stateMutability": "view",
      "type": "function"
    },
    {
      "inputs": [],
      "name": "rewardRate",
      "outputs": [
        {
          "internalType": "uint256",
          "name": "",
          "type": "uint256"
        }
      ],
      "stateMutability": "view",
      "type": "function"
    },
    {
      "inputs": [
        {
          "internalType": "address",
          "name": "",
          "type": "address"
        }
      ],
      "name": "rewards",
      "outputs": [
        {
          "internalType": "uint256",
          "name": "",
          "type": "uint256"
        }
      ],
      "stateMutability": "view",
      "type": "function"
    },
    {
      "inputs": [],
      "name": "rewardsToken",
      "outputs": [
        {
          "internalType": "contract IERC20",
          "name": "",
          "type": "address"
        }
      ],
      "stateMutability": "view",
      "type": "function"
    },
    {
      "inputs": [
        {
          "internalType": "uint256",
          "name": "_rewardRate",
          "type": "uint256"
        }
      ],
      "name": "setRewardRate",
      "outputs": [],
      "stateMutability": "nonpayable",
      "type": "function"
    },
    {
      "inputs": [
        {
          "internalType": "uint256",
          "name": "amount",
          "type": "uint256"
        }
      ],
      "name": "stake",
      "outputs": [],
      "stateMutability": "nonpayable",
      "type": "function"
    },
    {
      "inputs": [],
      "name": "stakingToken",
      "outputs": [
        {
          "internalType": "contract IERC20",
          "name": "",
          "type": "address"
        }
      ],
      "stateMutability": "view",
      "type": "function"
    },
    {
      "inputs": [],
      "name": "totalSupply",
      "outputs": [
        {
          "internalType": "uint256",
          "name": "",
          "type": "uint256"
        }
      ],
      "stateMutability": "view",
      "type": "function"
    },
    {
      "inputs": [
        {
          "internalType": "address",
          "name": "newOwner",
          "type": "address"
        }
      ],
      "name": "transferOwnership",
      "outputs": [],
      "stateMutability": "nonpayable",
      "type": "function"
    },
    {
      "inputs": [
        {
          "internalType": "address",
          "name": "",
          "type": "address"
        }
      ],
      "name": "userRewardPerTokenPaid",
      "outputs": [
        {
          "internalType": "uint256",
          "name": "",
          "type": "uint256"
        }
      ],
      "stateMutability": "view",
      "type": "function"
    },
    {
      "inputs": [
        {
          "internalType": "uint256",
          "name": "amount",
          "type": "uint256"
        }
      ],
      "name": "withdraw",
      "outputs": [],
      "stateMutability": "nonpayable",
      "type": "function"
    }
  ],
  "bytecode": "0x608060405234801561001057600080fd5b506040516118683803806118688339818101604052810190610032919061021d565b61004e6100436100ee60201b60201c565b6100f660201b60201c565b6001808190555082600260006101000a81548173ffffffffffffffffffffffffffffffffffffffff021916908373ffffffffffffffffffffffffffffffffffffffff16021790555081600360006101000a81548173ffffffffffffffffffffffffffffffffffffffff021916908373ffffffffffffffffffffffffffffffffffffffff1602179055506100e6816100f660201b60201c565b505050610270565b600033905090565b60008060009054906101000a900473ffffffffffffffffffffffffffffffffffffffff169050816000806101000a81548173ffffffffffffffffffffffffffffffffffffffff021916908373ffffffffffffffffffffffffffffffffffffffff1602179055508173ffffffffffffffffffffffffffffffffffffffff168173ffffffffffffffffffffffffffffffffffffffff167f8be0079c531659141344cd1fd0a4f28419497f9722a3daafe3b4186f6b6457e060405160405180910390a35050565b600080fd5b600073ffffffffffffffffffffffffffffffffffffffff82169050919050565b60006101ea826101bf565b9050919050565b6101fa816101df565b811461020557600080fd5b50565b600081519050610217816101f1565b92915050565b600080600060608486031215610236576102356101ba565b5b600061024486828701610208565b935050602061025586828701610208565b925050604061026686828701610208565b9150509250925092565b6115e98061027f6000396000f3fe608060405234801561001057600080fd5b50600436106101155760003560e01c80638da5cb5b116100a2578063c8f33c9111610071578063c8f33c91146102ba578063cd3daf9d146102d8578063d1af0c7d146102f6578063df136d6514610314578063f2fde38b1461033257610115565b80638da5cb5b1461025a5780639e447fc614610278578063a694fc3a14610294578063b88a802f146102b057610115565b806370a08231116100e957806370a08231146101b4578063715018a6146101e457806372f702f3146101ee5780637b0a47ee1461020c5780638b8763471461022a57610115565b80628cc2621461011a5780630700037d1461014a57806318160ddd1461017a5780632e1a7d4d14610198575b600080fd5b610134600480360381019061012f9190611004565b61034e565b604051610141919061104a565b60405180910390f35b610164600480360381019061015f9190611004565b610450565b604051610171919061104a565b60405180910390f35b610182610468565b60405161018f919061104a565b60405180910390f35b6101b260048036038101906101ad9190611091565b610472565b005b6101ce60048036038101906101c99190611004565b610704565b6040516101db919061104a565b60405180910390f35b6101ec61074d565b005b6101f6610761565b604051610203919061111d565b60405180910390f35b610214610787565b604051610221919061104a565b60405180910390f35b610244600480360381019061023f9190611004565b61078d565b604051610251919061104a565b60405180910390f35b6102626107a5565b60405161026f9190611147565b60405180910390f35b610292600480360381019061028d9190611091565b6107ce565b005b6102ae60048036038101906102a99190611091565b6107e0565b005b6102b8610a74565b005b6102c2610ce7565b6040516102cf919061104a565b60405180910390f35b6102e0610ced565b6040516102ed919061104a565b60405180910390f35b6102fe610d50565b60405161030b919061111d565b60405180910390f35b61031c610d76565b604051610329919061104a565b60405180910390f35b61034c60048036038101906103479190611004565b610d7c565b005b6000600860008373ffffffffffffffffffffffffffffffffffffffff1673ffffffffffffffffffffffffffffffffffffffff16815260200190815260200160002054670de0b6b3a7640000600760008573ffffffffffffffffffffffffffffffffffffffff1673ffffffffffffffffffffffffffffffffffffffff168152602001908152602001600020546103e1610ced565b6103eb9190611191565b600a60008673ffffffffffffffffffffffffffffffffffffffff1673ffffffffffffffffffffffffffffffffffffffff1681526020019081526020016000205461043591906111c5565b61043f9190611236565b6104499190611267565b9050919050565b60086020528060005260406000206000915090505481565b6000600954905090565b61047a610dff565b33610483610ced565b60068190555042600581905550600073ffffffffffffffffffffffffffffffffffffffff168173ffffffffffffffffffffffffffffffffffffffff1614610557576104cd8161034e565b600860008373ffffffffffffffffffffffffffffffffffffffff1673ffffffffffffffffffffffffffffffffffffffff16815260200190815260200160002081905550600654600760008373ffffffffffffffffffffffffffffffffffffffff1673ffffffffffffffffffffffffffffffffffffffff168152602001908152602001600020819055505b6000821161059a576040517f08c379a0000000000000000000000000000000000000000000000000000000008152600401610591906112f8565b60405180910390fd5b81600960008282546105ac9190611191565b9250508190555081600a60003373ffffffffffffffffffffffffffffffffffffffff1673ffffffffffffffffffffffffffffffffffffffff16815260200190815260200160002060008282546106029190611191565b92505081905550600260009054906101000a900473ffffffffffffffffffffffffffffffffffffffff1673ffffffffffffffffffffffffffffffffffffffff1663a9059cbb33846040518363ffffffff1660e01b8152600401610666929190611318565b6020604051808303816000875af1158015610685573d6000803e3d6000fd5b505050506040513d601f19601f820116820180604052508101906106a99190611379565b503373ffffffffffffffffffffffffffffffffffffffff167f7084f5476618d8e60b11ef0d7d3f06914655adb8793e28ff7f018d4c76d505d5836040516106f0919061104a565b60405180910390a250610701610e4e565b50565b6000600a60008373ffffffffffffffffffffffffffffffffffffffff1673ffffffffffffffffffffffffffffffffffffffff168152602001908152602001600020549050919050565b610755610e57565b61075f6000610ed5565b565b600260009054906101000a900473ffffffffffffffffffffffffffffffffffffffff1681565b60045481565b60076020528060005260406000206000915090505481565b60008060009054906101000a900473ffffffffffffffffffffffffffffffffffffffff16905090565b6107d6610e57565b8060048190555050565b6107e8610dff565b336107f1610ced565b60068190555042600581905550600073ffffffffffffffffffffffffffffffffffffffff168173ffffffffffffffffffffffffffffffffffffffff16146108c55761083b8161034e565b600860008373ffffffffffffffffffffffffffffffffffffffff1673ffffffffffffffffffffffffffffffffffffffff16815260200190815260200160002081905550600654600760008373ffffffffffffffffffffffffffffffffffffffff1673ffffffffffffffffffffffffffffffffffffffff168152602001908152602001600020819055505b60008211610908576040517f08c379a00000000000000000000000000000000000000000000000000000000081526004016108ff906113f2565b60405180910390fd5b816009600082825461091a9190611267565b9250508190555081600a60003373ffffffffffffffffffffffffffffffffffffffff1673ffffffffffffffffffffffffffffffffffffffff16815260200190815260200160002060008282546109709190611267565b92505081905550600260009054906101000a900473ffffffffffffffffffffffffffffffffffffffff1673ffffffffffffffffffffffffffffffffffffffff166323b872dd3330856040518463ffffffff1660e01b81526004016109d693929190611412565b6020604051808303816000875af11580156109f5573d6000803e3d6000fd5b505050506040513d601f19601f82011682018060405250810190610a199190611379565b503373ffffffffffffffffffffffffffffffffffffffff167f9e71bc8eea02a63969f509818f2dafb9254532904319f9dbda79b67bd34a5f3d83604051610a60919061104a565b60405180910390a250610a71610e4e565b50565b610a7c610dff565b33610a85610ced565b60068190555042600581905550600073ffffffffffffffffffffffffffffffffffffffff168173ffffffffffffffffffffffffffffffffffffffff1614610b5957610acf8161034e565b600860008373ffffffffffffffffffffffffffffffffffffffff1673ffffffffffffffffffffffffffffffffffffffff16815260200190815260200160002081905550600654600760008373ffffffffffffffffffffffffffffffffffffffff1673ffffffffffffffffffffffffffffffffffffffff168152602001908152602001600020819055505b6000600860003373ffffffffffffffffffffffffffffffffffffffff1673ffffffffffffffffffffffffffffffffffffffff1681526020019081526020016000205490506000811115610cdb576000600860003373ffffffffffffffffffffffffffffffffffffffff1673ffffffffffffffffffffffffffffffffffffffff16815260200190815260200160002081905550600360009054906101000a900473ffffffffffffffffffffffffffffffffffffffff1673ffffffffffffffffffffffffffffffffffffffff1663a9059cbb33836040518363ffffffff1660e01b8152600401610c48929190611318565b6020604051808303816000875af1158015610c67573d6000803e3d6000fd5b505050506040513d601f19601f82011682018060405250810190610c8b9190611379565b503373ffffffffffffffffffffffffffffffffffffffff167fe2403640ba68fed3a2f88b7557551d1993f84b99bb10ff833f0cf8db0c5e048682604051610cd2919061104a565b60405180910390a25b5050610ce5610e4e565b565b60055481565b60008060095403610d02576006549050610d4d565b600954670de0b6b3a764000060045460055442610d1f9190611191565b610d2991906111c5565b610d3391906111c5565b610d3d9190611236565b600654610d4a9190611267565b90505b90565b600360009054906101000a900473ffffffffffffffffffffffffffffffffffffffff1681565b60065481565b610d84610e57565b600073ffffffffffffffffffffffffffffffffffffffff168173ffffffffffffffffffffffffffffffffffffffff1603610df3576040517f08c379a0000000000000000000000000000000000000000000000000000000008152600401610dea906114bb565b60405180910390fd5b610dfc81610ed5565b50565b600260015403610e44576040517f08c379a0000000000000000000000000000000000000000000000000000000008152600401610e3b90611527565b60405180910390fd5b6002600181905550565b60018081905550565b610e5f610f99565b73ffffffffffffffffffffffffffffffffffffffff16610e7d6107a5565b73ffffffffffffffffffffffffffffffffffffffff1614610ed3576040517f08c379a0000000000000000000000000000000000000000000000000000000008152600401610eca90611593565b60405180910390fd5b565b60008060009054906101000a900473ffffffffffffffffffffffffffffffffffffffff169050816000806101000a81548173ffffffffffffffffffffffffffffffffffffffff021916908373ffffffffffffffffffffffffffffffffffffffff1602179055508173ffffffffffffffffffffffffffffffffffffffff168173ffffffffffffffffffffffffffffffffffffffff167f8be0079c531659141344cd1fd0a4f28419497f9722a3daafe3b4186f6b6457e060405160405180910390a35050565b600033905090565b600080fd5b600073ffffffffffffffffffffffffffffffffffffffff82169050919050565b6000610fd182610fa6565b9050919050565b610fe181610fc6565b8114610fec57600080fd5b50565b600081359050610ffe81610fd8565b92915050565b60006020828403121561101a57611019610fa1565b5b600061102884828501610fef565b91505092915050565b6000819050919050565b61104481611031565b82525050565b600060208201905061105f600083018461103b565b92915050565b61106e81611031565b811461107957600080fd5b50565b60008135905061108b81611065565b92915050565b6000602082840312156110a7576110a6610fa1565b5b60006110b58482850161107c565b91505092915050565b6000819050919050565b60006110e36110de6110d984610fa6565b6110be565b610fa6565b9050919050565b60006110f5826110c8565b9050919050565b6000611107826110ea565b9050919050565b611117816110fc565b82525050565b6000602082019050611132600083018461110e565b92915050565b61114181610fc6565b82525050565b600060208201905061115c6000830184611138565b92915050565b7f4e487b7100000000000000000000000000000000000000000000000000000000600052601160045260246000fd5b600061119c82611031565b91506111a783611031565b92508282039050818111156111bf576111be611162565b5b92915050565b60006111d082611031565b91506111db83611031565b92508282026111e981611031565b91508282048414831517611200576111ff611162565b5b5092915050565b7f4e487b7100000000000000000000000000000000000000000000000000000000600052601260045260246000fd5b600061124182611031565b915061124c83611031565b92508261125c5761125b611207565b5b828204905092915050565b600061127282611031565b915061127d83611031565b925082820190508082111561129557611294611162565b5b92915050565b600082825260208201905092915050565b7f43616e6e6f742077697468647261772030000000000000000000000000000000600082015250565b60006112e260118361129b565b91506112ed826112ac565b602082019050919050565b60006020820190508181036000830152611311816112d5565b9050919050565b600060408201905061132d6000830185611138565b61133a602083018461103b565b9392505050565b60008115159050919050565b61135681611341565b811461136157600080fd5b50565b6000815190506113738161134d565b92915050565b60006020828403121561138f5761138e610fa1565b5b600061139d84828501611364565b91505092915050565b7f43616e6e6f74207374616b652030000000000000000000000000000000000000600082015250565b60006113dc600e8361129b565b91506113e7826113a6565b602082019050919050565b6000602082019050818103600083015261140b816113cf565b9050919050565b60006060820190506114276000830186611138565b6114346020830185611138565b611441604083018461103b565b949350505050565b7f4f776e61626c653a206e6577206f776e657220697320746865207a65726f206160008201527f6464726573730000000000000000000000000000000000000000000000000000602082015250565b60006114a560268361129b565b91506114b082611449565b604082019050919050565b600060208201905081810360008301526114d481611498565b9050919050565b7f5265656e7472616e637947756172643a207265656e7472616e742063616c6c00600082015250565b6000611511601f8361129b565b915061151c826114db565b602082019050919050565b6000602082019050818103600083015261154081611504565b9050919050565b7f4f776e61626c653a2063616c6c6572206973206e6f7420746865206f776e6572600082015250565b600061157d60208361129b565b915061158882611547565b602082019050919050565b600060208201905081810360008301526115ac81611570565b905091905056fea2646970667358221220aca7ac219e1503eb7ebfc38af263495429b225851eef15c293960477e446934564736f6c634300081c0033",
  "linkReferences": {},
  "deployedLinkReferences": {}
}