{
  "_format": "hh-sol-artifact-1",
  "contractName": "MultiSigOperator",
  "sourceName": "contracts/governance/MultiSigOperator.sol",
  "abi": [
    {
      "inputs": [
        {
          "internalType": "address",
          "name": "_timelock",
          "type": "address"
        },
        {
          "internalType": "address",
          "name": "_propertyMarket",
          "type": "address"
        },
        {
          "internalType": "address[]",
          "name": "_initialSigners",
          "type": "address[]"
        },
        {
          "internalType": "address",
          "name": "_admin",
          "type": "address"
        }
      ],
      "stateMutability": "nonpayable",
      "type": "constructor"
    },
    {
      "anonymous": false,
      "inputs": [
        {
          "indexed": true,
          "internalType": "bytes32",
          "name": "role",
          "type": "bytes32"
        },
        {
          "indexed": true,
          "internalType": "bytes32",
          "name": "previousAdminRole",
          "type": "bytes32"
        },
        {
          "indexed": true,
          "internalType": "bytes32",
          "name": "newAdminRole",
          "type": "bytes32"
        }
      ],
      "name": "RoleAdminChanged",
      "type": "event"
    },
    {
      "anonymous": false,
      "inputs": [
        {
          "indexed": true,
          "internalType": "bytes32",
          "name": "role",
          "type": "bytes32"
        },
        {
          "indexed": true,
          "internalType": "address",
          "name": "account",
          "type": "address"
        },
        {
          "indexed": true,
          "internalType": "address",
          "name": "sender",
          "type": "address"
        }
      ],
      "name": "RoleGranted",
      "type": "event"
    },
    {
      "anonymous": false,
      "inputs": [
        {
          "indexed": true,
          "internalType": "bytes32",
          "name": "role",
          "type": "bytes32"
        },
        {
          "indexed": true,
          "internalType": "address",
          "name": "account",
          "type": "address"
        },
        {
          "indexed": true,
          "internalType": "address",
          "name": "sender",
          "type": "address"
        }
      ],
      "name": "RoleRevoked",
      "type": "event"
    },
    {
      "anonymous": false,
      "inputs": [
        {
          "indexed": true,
          "internalType": "address",
          "name": "signer",
          "type": "address"
        },
        {
          "indexed": true,
          "internalType": "address",
          "name": "admin",
          "type": "address"
        }
      ],
      "name": "SignerAdded",
      "type": "event"
    },
    {
      "anonymous": false,
      "inputs": [
        {
          "indexed": true,
          "internalType": "address",
          "name": "signer",
          "type": "address"
        },
        {
          "indexed": true,
          "internalType": "address",
          "name": "admin",
          "type": "address"
        }
      ],
      "name": "SignerRemoved",
      "type": "event"
    },
    {
      "anonymous": false,
      "inputs": [
        {
          "indexed": true,
          "internalType": "uint256",
          "name": "txId",
          "type": "uint256"
        },
        {
          "indexed": true,
          "internalType": "address",
          "name": "signer",
          "type": "address"
        }
      ],
      "name": "TransactionConfirmed",
      "type": "event"
    },
    {
      "anonymous": false,
      "inputs": [
        {
          "indexed": true,
          "internalType": "uint256",
          "name": "txId",
          "type": "uint256"
        },
        {
          "indexed": true,
          "internalType": "address",
          "name": "executor",
          "type": "address"
        }
      ],
      "name": "TransactionExecuted",
      "type": "event"
    },
    {
      "anonymous": false,
      "inputs": [
        {
          "indexed": true,
          "internalType": "uint256",
          "name": "txId",
          "type": "uint256"
        },
        {
          "indexed": true,
          "internalType": "address",
          "name": "signer",
          "type": "address"
        }
      ],
      "name": "TransactionRevoked",
      "type": "event"
    },
    {
      "anonymous": false,
      "inputs": [
        {
          "indexed": true,
          "internalType": "uint256",
          "name": "txId",
          "type": "uint256"
        },
        {
          "indexed": true,
          "internalType": "address",
          "name": "submitter",
          "type": "address"
        },
        {
          "indexed": false,
          "internalType": "string",
          "name": "description",
          "type": "string"
        }
      ],
      "name": "TransactionSubmitted",
      "type": "event"
    },
    {
      "inputs": [],
      "name": "DEFAULT_ADMIN_ROLE",
      "outputs": [
        {
          "internalType": "bytes32",
          "name": "",
          "type": "bytes32"
        }
      ],
      "stateMutability": "view",
      "type": "function"
    },
    {
      "inputs": [],
      "name": "MAX_SIGNERS",
      "outputs": [
        {
          "internalType": "uint256",
          "name": "",
          "type": "uint256"
        }
      ],
      "stateMutability": "view",
      "type": "function"
    },
    {
      "inputs": [],
      "name": "REQUIRED_SIGNATURES",
      "outputs": [
        {
          "internalType": "uint256",
          "name": "",
          "type": "uint256"
        }
      ],
      "stateMutability": "view",
      "type": "function"
    },
    {
      "inputs": [],
      "name": "SIGNER_ROLE",
      "outputs": [
        {
          "internalType": "bytes32",
          "name": "",
          "type": "bytes32"
        }
      ],
      "stateMutability": "view",
      "type": "function"
    },
    {
      "inputs": [
        {
          "internalType": "address",
          "name": "signer",
          "type": "address"
        }
      ],
      "name": "addSigner",
      "outputs": [],
      "stateMutability": "nonpayable",
      "type": "function"
    },
    {
      "inputs": [
        {
          "internalType": "uint256",
          "name": "txId",
          "type": "uint256"
        }
      ],
      "name": "confirmTransaction",
      "outputs": [],
      "stateMutability": "nonpayable",
      "type": "function"
    },
    {
      "inputs": [
        {
          "internalType": "uint256",
          "name": "",
          "type": "uint256"
        },
        {
          "internalType": "address",
          "name": "",
          "type": "address"
        }
      ],
      "name": "confirmations",
      "outputs": [
        {
          "internalType": "bool",
          "name": "",
          "type": "bool"
        }
      ],
      "stateMutability": "view",
      "type": "function"
    },
    {
      "inputs": [
        {
          "internalType": "bytes32",
          "name": "role",
          "type": "bytes32"
        }
      ],
      "name": "getRoleAdmin",
      "outputs": [
        {
          "internalType": "bytes32",
          "name": "",
          "type": "bytes32"
        }
      ],
      "stateMutability": "view",
      "type": "function"
    },
    {
      "inputs": [],
      "name": "getSigners",
      "outputs": [
        {
          "internalType": "address[]",
          "name": "",
          "type": "address[]"
        }
      ],
      "stateMutability": "view",
      "type": "function"
    },
    {
      "inputs": [
        {
          "internalType": "uint256",
          "name": "txId",
          "type": "uint256"
        }
      ],
      "name": "getTransaction",
      "outputs": [
        {
          "internalType": "address",
          "name": "target",
          "type": "address"
        },
        {
          "internalType": "uint256",
          "name": "value",
          "type": "uint256"
        },
        {
          "internalType": "bytes",
          "name": "data",
          "type": "bytes"
        },
        {
          "internalType": "bool",
          "name": "executed",
          "type": "bool"
        },
        {
          "internalType": "uint256",
          "name": "confirmationCount",
          "type": "uint256"
        },
        {
          "internalType": "uint256",
          "name": "timestamp",
          "type": "uint256"
        },
        {
          "internalType": "string",
          "name": "description",
          "type": "string"
        }
      ],
      "stateMutability": "view",
      "type": "function"
    },
    {
      "inputs": [
        {
          "internalType": "bytes32",
          "name": "role",
          "type": "bytes32"
        },
        {
          "internalType": "address",
          "name": "account",
          "type": "address"
        }
      ],
      "name": "grantRole",
      "outputs": [],
      "stateMutability": "nonpayable",
      "type": "function"
    },
    {
      "inputs": [
        {
          "internalType": "bytes32",
          "name": "role",
          "type": "bytes32"
        },
        {
          "internalType": "address",
          "name": "account",
          "type": "address"
        }
      ],
      "name": "hasRole",
      "outputs": [
        {
          "internalType": "bool",
          "name": "",
          "type": "bool"
        }
      ],
      "stateMutability": "view",
      "type": "function"
    },
    {
      "inputs": [
        {
          "internalType": "uint256",
          "name": "txId",
          "type": "uint256"
        },
        {
          "internalType": "address",
          "name": "signer",
          "type": "address"
        }
      ],
      "name": "isConfirmedBy",
      "outputs": [
        {
          "internalType": "bool",
          "name": "",
          "type": "bool"
        }
      ],
      "stateMutability": "view",
      "type": "function"
    },
    {
      "inputs": [],
      "name": "nonce",
      "outputs": [
        {
          "internalType": "uint256",
          "name": "",
          "type": "uint256"
        }
      ],
      "stateMutability": "view",
      "type": "function"
    },
    {
      "inputs": [],
      "name": "propertyMarket",
      "outputs": [
        {
          "internalType": "address",
          "name": "",
          "type": "address"
        }
      ],
      "stateMutability": "view",
      "type": "function"
    },
    {
      "inputs": [
        {
          "internalType": "address",
          "name": "signer",
          "type": "address"
        }
      ],
      "name": "removeSigner",
      "outputs": [],
      "stateMutability": "nonpayable",
      "type": "function"
    },
    {
      "inputs": [
        {
          "internalType": "bytes32",
          "name": "role",
          "type": "bytes32"
        },
        {
          "internalType": "address",
          "name": "account",
          "type": "address"
        }
      ],
      "name": "renounceRole",
      "outputs": [],
      "stateMutability": "nonpayable",
      "type": "function"
    },
    {
      "inputs": [
        {
          "internalType": "uint256",
          "name": "txId",
          "type": "uint256"
        }
      ],
      "name": "revokeConfirmation",
      "outputs": [],
      "stateMutability": "nonpayable",
      "type": "function"
    },
    {
      "inputs": [
        {
          "internalType": "bytes32",
          "name": "role",
          "type": "bytes32"
        },
        {
          "internalType": "address",
          "name": "account",
          "type": "address"
        }
      ],
      "name": "revokeRole",
      "outputs": [],
      "stateMutability": "nonpayable",
      "type": "function"
    },
    {
      "inputs": [],
      "name": "signerCount",
      "outputs": [
        {
          "internalType": "uint256",
          "name": "",
          "type": "uint256"
        }
      ],
      "stateMutability": "view",
      "type": "function"
    },
    {
      "inputs": [
        {
          "internalType": "uint256",
          "name": "",
          "type": "uint256"
        }
      ],
      "name": "signers",
      "outputs": [
        {
          "internalType": "address",
          "name": "",
          "type": "address"
        }
      ],
      "stateMutability": "view",
      "type": "function"
    },
    {
      "inputs": [
        {
          "internalType": "address",
          "name": "target",
          "type": "address"
        },
        {
          "internalType": "uint256",
          "name": "value",
          "type": "uint256"
        },
        {
          "internalType": "bytes",
          "name": "data",
          "type": "bytes"
        },
        {
          "internalType": "string",
          "name": "description",
          "type": "string"
        }
      ],
      "name": "submitTransaction",
      "outputs": [
        {
          "internalType": "uint256",
          "name": "txId",
          "type": "uint256"
        }
      ],
      "stateMutability": "nonpayable",
      "type": "function"
    },
    {
      "inputs": [
        {
          "internalType": "bytes4",
          "name": "interfaceId",
          "type": "bytes4"
        }
      ],
      "name": "supportsInterface",
      "outputs": [
        {
          "internalType": "bool",
          "name": "",
          "type": "bool"
        }
      ],
      "stateMutability": "view",
      "type": "function"
    },
    {
      "inputs": [],
      "name": "timelock",
      "outputs": [
        {
          "internalType": "contract PropertyMarketTimelock",
          "name": "",
          "type": "address"
        }
      ],
      "stateMutability": "view",
      "type": "function"
    },
    {
      "inputs": [
        {
          "internalType": "uint256",
          "name": "",
          "type": "uint256"
        }
      ],
      "name": "transactions",
      "outputs": [
        {
          "internalType": "address",
          "name": "target",
          "type": "address"
        },
        {
          "internalType": "uint256",
          "name": "value",
          "type": "uint256"
        },
        {
          "internalType": "bytes",
          "name": "data",
          "type": "bytes"
        },
        {
          "internalType": "bool",
          "name": "executed",
          "type": "bool"
        },
        {
          "internalType": "uint256",
          "name": "confirmations",
          "type": "uint256"
        },
        {
          "internalType": "uint256",
          "name": "timestamp",
          "type": "uint256"
        },
        {
          "internalType": "string",
          "name": "description",
          "type": "string"
        }
      ],
      "stateMutability": "view",
      "type": "function"
    }
  ],
  "bytecode": "0x60c06040523480156200001157600080fd5b50604051620022c7380380620022c7833981016040819052620000349162000431565b600180556001600160a01b038416620000945760405162461bcd60e51b815260206004820152601860248201527f496e76616c69642074696d656c6f636b2061646472657373000000000000000060448201526064015b60405180910390fd5b6001600160a01b038316620000ec5760405162461bcd60e51b815260206004820152601e60248201527f496e76616c69642050726f70657274794d61726b65742061646472657373000060448201526064016200008b565b600382511015620001405760405162461bcd60e51b815260206004820152601a60248201527f4e6f7420656e6f75676820696e697469616c207369676e65727300000000000060448201526064016200008b565b600582511115620001945760405162461bcd60e51b815260206004820152601860248201527f546f6f206d616e7920696e697469616c207369676e657273000000000000000060448201526064016200008b565b6001600160a01b038116620001ec5760405162461bcd60e51b815260206004820152601560248201527f496e76616c69642061646d696e2061646472657373000000000000000000000060448201526064016200008b565b6001600160a01b03808516608052831660a0526200020c6000826200035d565b60005b82518110156200034e5760006001600160a01b03168382815181106200023957620002396200053e565b60200260200101516001600160a01b031603620002995760405162461bcd60e51b815260206004820152601660248201527f496e76616c6964207369676e657220616464726573730000000000000000000060448201526064016200008b565b620002e77fe2f4eaae4a9751e85a3e4a7b9587827a877f29914755229b07a7b2da98285f70848381518110620002d357620002d36200053e565b60200260200101516200035d60201b60201c565b6006838281518110620002fe57620002fe6200053e565b60209081029190910181015182546001810184556000938452919092200180546001600160a01b0319166001600160a01b0390921691909117905580620003458162000554565b9150506200020f565b505051600255506200057c9050565b6000828152602081815260408083206001600160a01b038516845290915290205460ff16620003fa576000828152602081815260408083206001600160a01b03851684529091529020805460ff19166001179055620003b93390565b6001600160a01b0316816001600160a01b0316837f2f8788117e7eff1d82e926ec794901d17c78024a50270940304540a733656f0d60405160405180910390a45b5050565b80516001600160a01b03811681146200041657600080fd5b919050565b634e487b7160e01b600052604160045260246000fd5b600080600080608085870312156200044857600080fd5b6200045385620003fe565b9350602062000464818701620003fe565b60408701519094506001600160401b03808211156200048257600080fd5b818801915088601f8301126200049757600080fd5b815181811115620004ac57620004ac6200041b565b8060051b604051601f19603f83011681018181108582111715620004d457620004d46200041b565b60405291825284820192508381018501918b831115620004f357600080fd5b938501935b828510156200051c576200050c85620003fe565b84529385019392850192620004f8565b8097505050505050506200053360608601620003fe565b905092959194509250565b634e487b7160e01b600052603260045260246000fd5b6000600182016200057557634e487b7160e01b600052601160045260246000fd5b5060010190565b60805160a051611d17620005b06000396000818161026e01526109f5015260008181610353015261139d0152611d176000f3fe608060405234801561001057600080fd5b50600436106101335760003560e01c806301ffc9a7146101385780630e316ab7146101605780632079fb9a1461017557806320ea8d86146101a0578063248a9ca3146101b35780632f2ff15d146101d457806333ea3dc8146101e75780633411c81c1461020d57806336568abe1461023b57806346e24b081461024e57806359ecd6571461026157806366dc71d3146102695780637ca548c6146102905780638a8e784c1461029957806391d14854146102d257806394cf795e146102e55780639ac18b19146102fa5780639ace38c214610302578063a1ebf35d14610315578063a217fddf1461032a578063affed0e014610332578063c01a8c841461033b578063d33219b41461034e578063d547741f14610375578063eb12d61e14610388575b600080fd5b61014b61014636600461165c565b61039b565b60405190151581526020015b60405180910390f35b61017361016e3660046116a2565b6103d2565b005b6101886101833660046116bd565b610603565b6040516001600160a01b039091168152602001610157565b6101736101ae3660046116bd565b61062d565b6101c66101c13660046116bd565b61078f565b604051908152602001610157565b6101736101e23660046116d6565b6107a4565b6101fa6101f53660046116bd565b6107c5565b6040516101579796959493929190611752565b61014b61021b3660046116d6565b600560209081526000928352604080842090915290825290205460ff1681565b6101736102493660046116d6565b61095b565b6101c661025c3660046117f5565b6109d9565b6101c6600581565b6101887f000000000000000000000000000000000000000000000000000000000000000081565b6101c660025481565b61014b6102a73660046116d6565b60009182526005602090815260408084206001600160a01b0393909316845291905290205460ff1690565b61014b6102e03660046116d6565b610c18565b6102ed610c41565b604051610157919061187e565b6101c6600381565b6101fa6103103660046116bd565b610ca3565b6101c6600080516020611cc283398151915281565b6101c6600081565b6101c660035481565b6101736103493660046116bd565b610e01565b6101887f000000000000000000000000000000000000000000000000000000000000000081565b6101736103833660046116d6565b610f02565b6101736103963660046116a2565b610f1e565b60006001600160e01b03198216637965db0b60e01b14806103cc57506301ffc9a760e01b6001600160e01b03198316145b92915050565b60006103dd816110cb565b6103f5600080516020611cc283398151915283610c18565b6104355760405162461bcd60e51b815260206004820152600c60248201526b2737ba10309039b4b3b732b960a11b60448201526064015b60405180910390fd5b6003600254116104935760405162461bcd60e51b815260206004820152602360248201527f43616e6e6f7420676f2062656c6f77207265717569726564207369676e61747560448201526272657360e81b606482015260840161042c565b6104ab600080516020611cc2833981519152836110d8565b60005b6006548110156105b357826001600160a01b0316600682815481106104d5576104d56118cb565b6000918252602090912001546001600160a01b0316036105a157600680546104ff906001906118f7565b8154811061050f5761050f6118cb565b600091825260209091200154600680546001600160a01b03909216918390811061053b5761053b6118cb565b9060005260206000200160006101000a8154816001600160a01b0302191690836001600160a01b03160217905550600680548061057a5761057a61190a565b600082815260209020810160001990810180546001600160a01b03191690550190556105b3565b806105ab81611920565b9150506104ae565b50600280549060006105c483611939565b909155505060405133906001600160a01b038416907f98d1ebbe00ae92a5de96a0f49742a8afa89f42363592bc2e7cfaaed68b45e7a690600090a35050565b6006818154811061061357600080fd5b6000918252602090912001546001600160a01b0316905081565b600080516020611cc2833981519152610645816110cb565b6000828152600460205260409020546001600160a01b03166106795760405162461bcd60e51b815260040161042c90611950565b60008281526004602052604090206003015460ff16156106ab5760405162461bcd60e51b815260040161042c90611984565b600082815260056020908152604080832033845290915290205460ff166107205760405162461bcd60e51b815260206004820152602360248201527f5472616e73616374696f6e206e6f7420636f6e6669726d65642062792073656e6044820152623232b960e91b606482015260840161042c565b60008281526005602090815260408083203384528252808320805460ff1916905584835260049182905282200180549161075983611939565b9091555050604051339083907f4cd471041f6b9ff47536a54a3d3ab62d0fa9dd5e36c0418b294b1673acb3188190600090a35050565b60009081526020819052604090206001015490565b6107ad8261078f565b6107b6816110cb565b6107c0838361113d565b505050565b6000806060600080600060606000600460008a815260200190815260200160002090508060000160009054906101000a90046001600160a01b03168160010154826002018360030160009054906101000a900460ff168460040154856005015486600601848054610835906119ba565b80601f0160208091040260200160405190810160405280929190818152602001828054610861906119ba565b80156108ae5780601f10610883576101008083540402835291602001916108ae565b820191906000526020600020905b81548152906001019060200180831161089157829003601f168201915b505050505094508080546108c1906119ba565b80601f01602080910402602001604051908101604052809291908181526020018280546108ed906119ba565b801561093a5780601f1061090f5761010080835404028352916020019161093a565b820191906000526020600020905b81548152906001019060200180831161091d57829003601f168201915b50505050509050975097509750975097509750975050919395979092949650565b6001600160a01b03811633146109cb5760405162461bcd60e51b815260206004820152602f60248201527f416363657373436f6e74726f6c3a2063616e206f6e6c792072656e6f756e636560448201526e103937b632b9903337b91039b2b63360891b606482015260840161042c565b6109d582826110d8565b5050565b6000600080516020611cc28339815191526109f3816110cb565b7f00000000000000000000000000000000000000000000000000000000000000006001600160a01b0316886001600160a01b031614610a745760405162461bcd60e51b815260206004820152601e60248201527f43616e206f6e6c79207461726765742050726f70657274794d61726b65740000604482015260640161042c565b60038054906000610a8483611920565b9190505591506040518060e00160405280896001600160a01b0316815260200188815260200187878080601f016020809104026020016040519081016040528093929190818152602001838380828437600092018290525093855250505060208083018290526040808401929092524260608401528151601f88018290048202810182019092528682526080909201918790879081908401838280828437600092018290525093909452505084815260046020908152604091829020845181546001600160a01b0319166001600160a01b03909116178155908401516001820155908301519091506002820190610b7b9082611a58565b50606082015160038201805460ff19169115159190911790556080820151600482015560a0820151600582015560c08201516006820190610bbc9082611a58565b50905050336001600160a01b0316827f8fbf4f65d1f3823b3d085c847ec89a63ac3fe7ae0c29bd32f3cb14c6c998009f8686604051610bfc929190611b17565b60405180910390a3610c0d826111c1565b509695505050505050565b6000918252602082815260408084206001600160a01b0393909316845291905290205460ff1690565b60606006805480602002602001604051908101604052809291908181526020018280548015610c9957602002820191906000526020600020905b81546001600160a01b03168152600190910190602001808311610c7b575b5050505050905090565b6004602052600090815260409020805460018201546002830180546001600160a01b03909316939192610cd5906119ba565b80601f0160208091040260200160405190810160405280929190818152602001828054610d01906119ba565b8015610d4e5780601f10610d2357610100808354040283529160200191610d4e565b820191906000526020600020905b815481529060010190602001808311610d3157829003601f168201915b505050600384015460048501546005860154600687018054969760ff9094169692955090935090610d7e906119ba565b80601f0160208091040260200160405190810160405280929190818152602001828054610daa906119ba565b8015610df75780601f10610dcc57610100808354040283529160200191610df7565b820191906000526020600020905b815481529060010190602001808311610dda57829003601f168201915b5050505050905087565b600080516020611cc2833981519152610e19816110cb565b6000828152600460205260409020546001600160a01b0316610e4d5760405162461bcd60e51b815260040161042c90611950565b60008281526004602052604090206003015460ff1615610e7f5760405162461bcd60e51b815260040161042c90611984565b600082815260056020908152604080832033845290915290205460ff1615610ef95760405162461bcd60e51b815260206004820152602760248201527f5472616e73616374696f6e20616c726561647920636f6e6669726d65642062796044820152661039b2b73232b960c91b606482015260840161042c565b6109d5826111c1565b610f0b8261078f565b610f14816110cb565b6107c083836110d8565b6000610f29816110cb565b6001600160a01b038216610f785760405162461bcd60e51b8152602060048201526016602482015275496e76616c6964207369676e6572206164647265737360501b604482015260640161042c565b610f90600080516020611cc283398151915283610c18565b15610fd05760405162461bcd60e51b815260206004820152601060248201526f20b63932b0b23c90309039b4b3b732b960811b604482015260640161042c565b60056002541061101c5760405162461bcd60e51b815260206004820152601760248201527613585e1a5b5d5b481cda59db995c9cc81c995858da1959604a1b604482015260640161042c565b611034600080516020611cc28339815191528361113d565b6006805460018101825560009182527ff652222313e28459528d920b65115c16c04f3efc82aaedc97be59f3f377c0d3f0180546001600160a01b0319166001600160a01b038516179055600280549161108c83611920565b909155505060405133906001600160a01b038416907f12146497b3b826918ec47f0cac7272a09ed06b30c16c030e99ec48ff5dd60b4790600090a35050565b6110d58133611252565b50565b6110e28282610c18565b156109d5576000828152602081815260408083206001600160a01b0385168085529252808320805460ff1916905551339285917ff6391f5c32d9c69d2a47ea670b442974b53935d1edc7fd64eb21e047a839171b9190a45050565b6111478282610c18565b6109d5576000828152602081815260408083206001600160a01b03851684529091529020805460ff1916600117905561117d3390565b6001600160a01b0316816001600160a01b0316837f2f8788117e7eff1d82e926ec794901d17c78024a50270940304540a733656f0d60405160405180910390a45050565b60008181526005602090815260408083203384528252808320805460ff191660011790558383526004918290528220018054916111fd83611920565b9091555050604051339082907f15c2f311c9e0f53b50388279894aeff029a3457884a6601e924fca879e12adcc90600090a3600081815260046020819052604090912001546003116110d5576110d5816112ab565b61125c8282610c18565b6109d5576112698161144f565b611274836020611461565b604051602001611285929190611b46565b60408051601f198184030181529082905262461bcd60e51b825261042c91600401611bb5565b6112b3611603565b600081815260046020819052604090912090810154600311156113135760405162461bcd60e51b81526020600482015260186024820152774e6f7420656e6f75676820636f6e6669726d6174696f6e7360401b604482015260640161042c565b600381015460ff16156113385760405162461bcd60e51b815260040161042c90611984565b60038101805460ff191660011790556040516000906113669084904290602001918252602082015260400190565b60408051601f1981840301815290829052805160209091012083546001850154632d5d9d8160e01b84529193506001600160a01b037f0000000000000000000000000000000000000000000000000000000000000000811693632d5d9d81936113e59390921691906002880190600090889060068b0190600401611c45565b600060405180830381600087803b1580156113ff57600080fd5b505af1158015611413573d6000803e3d6000fd5b50506040513392508591507fefc13bdcf58f184ea7cae26b499fb33b539e01d0197cea456f3ada289b8cf19b90600090a350506110d560018055565b60606103cc6001600160a01b03831660145b60606000611470836002611c97565b61147b906002611cae565b6001600160401b03811115611492576114926119f4565b6040519080825280601f01601f1916602001820160405280156114bc576020820181803683370190505b509050600360fc1b816000815181106114d7576114d76118cb565b60200101906001600160f81b031916908160001a905350600f60fb1b81600181518110611506576115066118cb565b60200101906001600160f81b031916908160001a905350600061152a846002611c97565b611535906001611cae565b90505b60018111156115ad576f181899199a1a9b1b9c1cb0b131b232b360811b85600f1660108110611569576115696118cb565b1a60f81b82828151811061157f5761157f6118cb565b60200101906001600160f81b031916908160001a90535060049490941c936115a681611939565b9050611538565b5083156115fc5760405162461bcd60e51b815260206004820181905260248201527f537472696e67733a20686578206c656e67746820696e73756666696369656e74604482015260640161042c565b9392505050565b6002600154036116555760405162461bcd60e51b815260206004820152601f60248201527f5265656e7472616e637947756172643a207265656e7472616e742063616c6c00604482015260640161042c565b6002600155565b60006020828403121561166e57600080fd5b81356001600160e01b0319811681146115fc57600080fd5b80356001600160a01b038116811461169d57600080fd5b919050565b6000602082840312156116b457600080fd5b6115fc82611686565b6000602082840312156116cf57600080fd5b5035919050565b600080604083850312156116e957600080fd5b823591506116f960208401611686565b90509250929050565b60005b8381101561171d578181015183820152602001611705565b50506000910152565b6000815180845261173e816020860160208601611702565b601f01601f19169290920160200192915050565b60018060a01b038816815286602082015260e06040820152600061177960e0830188611726565b86151560608401528560808401528460a084015282810360c084015261179f8185611726565b9a9950505050505050505050565b60008083601f8401126117bf57600080fd5b5081356001600160401b038111156117d657600080fd5b6020830191508360208285010111156117ee57600080fd5b9250929050565b6000806000806000806080878903121561180e57600080fd5b61181787611686565b95506020870135945060408701356001600160401b038082111561183a57600080fd5b6118468a838b016117ad565b9096509450606089013591508082111561185f57600080fd5b5061186c89828a016117ad565b979a9699509497509295939492505050565b6020808252825182820181905260009190848201906040850190845b818110156118bf5783516001600160a01b03168352928401929184019160010161189a565b50909695505050505050565b634e487b7160e01b600052603260045260246000fd5b634e487b7160e01b600052601160045260246000fd5b818103818111156103cc576103cc6118e1565b634e487b7160e01b600052603160045260246000fd5b600060018201611932576119326118e1565b5060010190565b600081611948576119486118e1565b506000190190565b6020808252601a9082015279151c985b9cd858dd1a5bdb88191bd95cc81b9bdd08195e1a5cdd60321b604082015260600190565b6020808252601c908201527b151c985b9cd858dd1a5bdb88185b1c9958591e48195e1958dd5d195960221b604082015260600190565b600181811c908216806119ce57607f821691505b6020821081036119ee57634e487b7160e01b600052602260045260246000fd5b50919050565b634e487b7160e01b600052604160045260246000fd5b601f8211156107c057600081815260208120601f850160051c81016020861015611a315750805b601f850160051c820191505b81811015611a5057828155600101611a3d565b505050505050565b81516001600160401b03811115611a7157611a716119f4565b611a8581611a7f84546119ba565b84611a0a565b602080601f831160018114611aba5760008415611aa25750858301515b600019600386901b1c1916600185901b178555611a50565b600085815260208120601f198616915b82811015611ae957888601518255948401946001909101908401611aca565b5085821015611b075787850151600019600388901b60f8161c191681555b5050505050600190811b01905550565b60208152816020820152818360408301376000818301604090810191909152601f909201601f19160101919050565b76020b1b1b2b9b9a1b7b73a3937b61d1030b1b1b7bab73a1604d1b815260008351611b78816017850160208801611702565b7001034b99036b4b9b9b4b733903937b6329607d1b6017918401918201528351611ba9816028840160208801611702565b01602801949350505050565b6020815260006115fc6020830184611726565b60008154611bd5816119ba565b808552602060018381168015611bf25760018114611c0c57611c3a565b60ff1985168884015283151560051b880183019550611c3a565b866000528260002060005b85811015611c325781548a8201860152908301908401611c17565b890184019650505b505050505092915050565b60018060a01b038716815285602082015260c060408201526000611c6c60c0830187611bc8565b85606084015284608084015282810360a0840152611c8a8185611bc8565b9998505050505050505050565b80820281158282048414176103cc576103cc6118e1565b808201808211156103cc576103cc6118e156fee2f4eaae4a9751e85a3e4a7b9587827a877f29914755229b07a7b2da98285f70a264697066735822122083b43c38aa31a53bad43fb79fac58bb0fc2e383dd0eb326ac120fdeee59f1b8664736f6c63430008140033",
  "linkReferences": {},
  "deployedLinkReferences": {}
}