{
  "_format": "hh-sol-artifact-1",
  "contractName": "MultiSigOperator",
  "sourceName": "contracts/governance/MultiSigOperator.sol",
  "abi": [
    {
      "inputs": [
        {
          "internalType": "address",
          "name": "_timelock",
          "type": "address"
        },
        {
          "internalType": "address",
          "name": "_propertyMarket",
          "type": "address"
        },
        {
          "internalType": "address[]",
          "name": "_initialSigners",
          "type": "address[]"
        },
        {
          "internalType": "address",
          "name": "_admin",
          "type": "address"
        }
      ],
      "stateMutability": "nonpayable",
      "type": "constructor"
    },
    {
      "anonymous": false,
      "inputs": [
        {
          "indexed": true,
          "internalType": "bytes32",
          "name": "role",
          "type": "bytes32"
        },
        {
          "indexed": true,
          "internalType": "bytes32",
          "name": "previousAdminRole",
          "type": "bytes32"
        },
        {
          "indexed": true,
          "internalType": "bytes32",
          "name": "newAdminRole",
          "type": "bytes32"
        }
      ],
      "name": "RoleAdminChanged",
      "type": "event"
    },
    {
      "anonymous": false,
      "inputs": [
        {
          "indexed": true,
          "internalType": "bytes32",
          "name": "role",
          "type": "bytes32"
        },
        {
          "indexed": true,
          "internalType": "address",
          "name": "account",
          "type": "address"
        },
        {
          "indexed": true,
          "internalType": "address",
          "name": "sender",
          "type": "address"
        }
      ],
      "name": "RoleGranted",
      "type": "event"
    },
    {
      "anonymous": false,
      "inputs": [
        {
          "indexed": true,
          "internalType": "bytes32",
          "name": "role",
          "type": "bytes32"
        },
        {
          "indexed": true,
          "internalType": "address",
          "name": "account",
          "type": "address"
        },
        {
          "indexed": true,
          "internalType": "address",
          "name": "sender",
          "type": "address"
        }
      ],
      "name": "RoleRevoked",
      "type": "event"
    },
    {
      "anonymous": false,
      "inputs": [
        {
          "indexed": true,
          "internalType": "address",
          "name": "signer",
          "type": "address"
        },
        {
          "indexed": true,
          "internalType": "address",
          "name": "admin",
          "type": "address"
        }
      ],
      "name": "SignerAdded",
      "type": "event"
    },
    {
      "anonymous": false,
      "inputs": [
        {
          "indexed": true,
          "internalType": "address",
          "name": "signer",
          "type": "address"
        },
        {
          "indexed": true,
          "internalType": "address",
          "name": "admin",
          "type": "address"
        }
      ],
      "name": "SignerRemoved",
      "type": "event"
    },
    {
      "anonymous": false,
      "inputs": [
        {
          "indexed": true,
          "internalType": "uint256",
          "name": "txId",
          "type": "uint256"
        },
        {
          "indexed": true,
          "internalType": "address",
          "name": "signer",
          "type": "address"
        }
      ],
      "name": "TransactionConfirmed",
      "type": "event"
    },
    {
      "anonymous": false,
      "inputs": [
        {
          "indexed": true,
          "internalType": "uint256",
          "name": "txId",
          "type": "uint256"
        },
        {
          "indexed": true,
          "internalType": "address",
          "name": "executor",
          "type": "address"
        }
      ],
      "name": "TransactionExecuted",
      "type": "event"
    },
    {
      "anonymous": false,
      "inputs": [
        {
          "indexed": true,
          "internalType": "uint256",
          "name": "txId",
          "type": "uint256"
        },
        {
          "indexed": true,
          "internalType": "address",
          "name": "signer",
          "type": "address"
        }
      ],
      "name": "TransactionRevoked",
      "type": "event"
    },
    {
      "anonymous": false,
      "inputs": [
        {
          "indexed": true,
          "internalType": "uint256",
          "name": "txId",
          "type": "uint256"
        },
        {
          "indexed": true,
          "internalType": "address",
          "name": "submitter",
          "type": "address"
        },
        {
          "indexed": false,
          "internalType": "string",
          "name": "description",
          "type": "string"
        }
      ],
      "name": "TransactionSubmitted",
      "type": "event"
    },
    {
      "inputs": [],
      "name": "DEFAULT_ADMIN_ROLE",
      "outputs": [
        {
          "internalType": "bytes32",
          "name": "",
          "type": "bytes32"
        }
      ],
      "stateMutability": "view",
      "type": "function"
    },
    {
      "inputs": [],
      "name": "MAX_SIGNERS",
      "outputs": [
        {
          "internalType": "uint256",
          "name": "",
          "type": "uint256"
        }
      ],
      "stateMutability": "view",
      "type": "function"
    },
    {
      "inputs": [],
      "name": "REQUIRED_SIGNATURES",
      "outputs": [
        {
          "internalType": "uint256",
          "name": "",
          "type": "uint256"
        }
      ],
      "stateMutability": "view",
      "type": "function"
    },
    {
      "inputs": [],
      "name": "SIGNER_ROLE",
      "outputs": [
        {
          "internalType": "bytes32",
          "name": "",
          "type": "bytes32"
        }
      ],
      "stateMutability": "view",
      "type": "function"
    },
    {
      "inputs": [
        {
          "internalType": "address",
          "name": "signer",
          "type": "address"
        }
      ],
      "name": "addSigner",
      "outputs": [],
      "stateMutability": "nonpayable",
      "type": "function"
    },
    {
      "inputs": [
        {
          "internalType": "uint256",
          "name": "txId",
          "type": "uint256"
        }
      ],
      "name": "confirmTransaction",
      "outputs": [],
      "stateMutability": "nonpayable",
      "type": "function"
    },
    {
      "inputs": [
        {
          "internalType": "uint256",
          "name": "",
          "type": "uint256"
        },
        {
          "internalType": "address",
          "name": "",
          "type": "address"
        }
      ],
      "name": "confirmations",
      "outputs": [
        {
          "internalType": "bool",
          "name": "",
          "type": "bool"
        }
      ],
      "stateMutability": "view",
      "type": "function"
    },
    {
      "inputs": [
        {
          "internalType": "bytes32",
          "name": "role",
          "type": "bytes32"
        }
      ],
      "name": "getRoleAdmin",
      "outputs": [
        {
          "internalType": "bytes32",
          "name": "",
          "type": "bytes32"
        }
      ],
      "stateMutability": "view",
      "type": "function"
    },
    {
      "inputs": [],
      "name": "getSigners",
      "outputs": [
        {
          "internalType": "address[]",
          "name": "",
          "type": "address[]"
        }
      ],
      "stateMutability": "view",
      "type": "function"
    },
    {
      "inputs": [
        {
          "internalType": "uint256",
          "name": "txId",
          "type": "uint256"
        }
      ],
      "name": "getTransaction",
      "outputs": [
        {
          "internalType": "address",
          "name": "target",
          "type": "address"
        },
        {
          "internalType": "uint256",
          "name": "value",
          "type": "uint256"
        },
        {
          "internalType": "bytes",
          "name": "data",
          "type": "bytes"
        },
        {
          "internalType": "bool",
          "name": "executed",
          "type": "bool"
        },
        {
          "internalType": "uint256",
          "name": "confirmationCount",
          "type": "uint256"
        },
        {
          "internalType": "uint256",
          "name": "timestamp",
          "type": "uint256"
        },
        {
          "internalType": "string",
          "name": "description",
          "type": "string"
        }
      ],
      "stateMutability": "view",
      "type": "function"
    },
    {
      "inputs": [
        {
          "internalType": "bytes32",
          "name": "role",
          "type": "bytes32"
        },
        {
          "internalType": "address",
          "name": "account",
          "type": "address"
        }
      ],
      "name": "grantRole",
      "outputs": [],
      "stateMutability": "nonpayable",
      "type": "function"
    },
    {
      "inputs": [
        {
          "internalType": "bytes32",
          "name": "role",
          "type": "bytes32"
        },
        {
          "internalType": "address",
          "name": "account",
          "type": "address"
        }
      ],
      "name": "hasRole",
      "outputs": [
        {
          "internalType": "bool",
          "name": "",
          "type": "bool"
        }
      ],
      "stateMutability": "view",
      "type": "function"
    },
    {
      "inputs": [
        {
          "internalType": "uint256",
          "name": "txId",
          "type": "uint256"
        },
        {
          "internalType": "address",
          "name": "signer",
          "type": "address"
        }
      ],
      "name": "isConfirmedBy",
      "outputs": [
        {
          "internalType": "bool",
          "name": "",
          "type": "bool"
        }
      ],
      "stateMutability": "view",
      "type": "function"
    },
    {
      "inputs": [],
      "name": "nonce",
      "outputs": [
        {
          "internalType": "uint256",
          "name": "",
          "type": "uint256"
        }
      ],
      "stateMutability": "view",
      "type": "function"
    },
    {
      "inputs": [],
      "name": "propertyMarket",
      "outputs": [
        {
          "internalType": "address",
          "name": "",
          "type": "address"
        }
      ],
      "stateMutability": "view",
      "type": "function"
    },
    {
      "inputs": [
        {
          "internalType": "address",
          "name": "signer",
          "type": "address"
        }
      ],
      "name": "removeSigner",
      "outputs": [],
      "stateMutability": "nonpayable",
      "type": "function"
    },
    {
      "inputs": [
        {
          "internalType": "bytes32",
          "name": "role",
          "type": "bytes32"
        },
        {
          "internalType": "address",
          "name": "account",
          "type": "address"
        }
      ],
      "name": "renounceRole",
      "outputs": [],
      "stateMutability": "nonpayable",
      "type": "function"
    },
    {
      "inputs": [
        {
          "internalType": "uint256",
          "name": "txId",
          "type": "uint256"
        }
      ],
      "name": "revokeConfirmation",
      "outputs": [],
      "stateMutability": "nonpayable",
      "type": "function"
    },
    {
      "inputs": [
        {
          "internalType": "bytes32",
          "name": "role",
          "type": "bytes32"
        },
        {
          "internalType": "address",
          "name": "account",
          "type": "address"
        }
      ],
      "name": "revokeRole",
      "outputs": [],
      "stateMutability": "nonpayable",
      "type": "function"
    },
    {
      "inputs": [],
      "name": "signerCount",
      "outputs": [
        {
          "internalType": "uint256",
          "name": "",
          "type": "uint256"
        }
      ],
      "stateMutability": "view",
      "type": "function"
    },
    {
      "inputs": [
        {
          "internalType": "uint256",
          "name": "",
          "type": "uint256"
        }
      ],
      "name": "signers",
      "outputs": [
        {
          "internalType": "address",
          "name": "",
          "type": "address"
        }
      ],
      "stateMutability": "view",
      "type": "function"
    },
    {
      "inputs": [
        {
          "internalType": "address",
          "name": "target",
          "type": "address"
        },
        {
          "internalType": "uint256",
          "name": "value",
          "type": "uint256"
        },
        {
          "internalType": "bytes",
          "name": "data",
          "type": "bytes"
        },
        {
          "internalType": "string",
          "name": "description",
          "type": "string"
        }
      ],
      "name": "submitTransaction",
      "outputs": [
        {
          "internalType": "uint256",
          "name": "txId",
          "type": "uint256"
        }
      ],
      "stateMutability": "nonpayable",
      "type": "function"
    },
    {
      "inputs": [
        {
          "internalType": "bytes4",
          "name": "interfaceId",
          "type": "bytes4"
        }
      ],
      "name": "supportsInterface",
      "outputs": [
        {
          "internalType": "bool",
          "name": "",
          "type": "bool"
        }
      ],
      "stateMutability": "view",
      "type": "function"
    },
    {
      "inputs": [],
      "name": "timelock",
      "outputs": [
        {
          "internalType": "contract PropertyMarketTimelock",
          "name": "",
          "type": "address"
        }
      ],
      "stateMutability": "view",
      "type": "function"
    },
    {
      "inputs": [
        {
          "internalType": "uint256",
          "name": "",
          "type": "uint256"
        }
      ],
      "name": "transactions",
      "outputs": [
        {
          "internalType": "address",
          "name": "target",
          "type": "address"
        },
        {
          "internalType": "uint256",
          "name": "value",
          "type": "uint256"
        },
        {
          "internalType": "bytes",
          "name": "data",
          "type": "bytes"
        },
        {
          "internalType": "bool",
          "name": "executed",
          "type": "bool"
        },
        {
          "internalType": "uint256",
          "name": "confirmations",
          "type": "uint256"
        },
        {
          "internalType": "uint256",
          "name": "timestamp",
          "type": "uint256"
        },
        {
          "internalType": "string",
          "name": "description",
          "type": "string"
        }
      ],
      "stateMutability": "view",
      "type": "function"
    }
  ],
  "bytecode": "0x60c06040523480156200001157600080fd5b506040516200235638038062002356833981016040819052620000349162000431565b600180556001600160a01b038416620000945760405162461bcd60e51b815260206004820152601860248201527f496e76616c69642074696d656c6f636b2061646472657373000000000000000060448201526064015b60405180910390fd5b6001600160a01b038316620000ec5760405162461bcd60e51b815260206004820152601e60248201527f496e76616c69642050726f70657274794d61726b65742061646472657373000060448201526064016200008b565b600382511015620001405760405162461bcd60e51b815260206004820152601a60248201527f4e6f7420656e6f75676820696e697469616c207369676e65727300000000000060448201526064016200008b565b600582511115620001945760405162461bcd60e51b815260206004820152601860248201527f546f6f206d616e7920696e697469616c207369676e657273000000000000000060448201526064016200008b565b6001600160a01b038116620001ec5760405162461bcd60e51b815260206004820152601560248201527f496e76616c69642061646d696e2061646472657373000000000000000000000060448201526064016200008b565b6001600160a01b03808516608052831660a0526200020c6000826200035d565b60005b82518110156200034e5760006001600160a01b03168382815181106200023957620002396200053e565b60200260200101516001600160a01b031603620002995760405162461bcd60e51b815260206004820152601660248201527f496e76616c6964207369676e657220616464726573730000000000000000000060448201526064016200008b565b620002e77fe2f4eaae4a9751e85a3e4a7b9587827a877f29914755229b07a7b2da98285f70848381518110620002d357620002d36200053e565b60200260200101516200035d60201b60201c565b6006838281518110620002fe57620002fe6200053e565b60209081029190910181015182546001810184556000938452919092200180546001600160a01b0319166001600160a01b0390921691909117905580620003458162000554565b9150506200020f565b505051600255506200057c9050565b6000828152602081815260408083206001600160a01b038516845290915290205460ff16620003fa576000828152602081815260408083206001600160a01b03851684529091529020805460ff19166001179055620003b93390565b6001600160a01b0316816001600160a01b0316837f2f8788117e7eff1d82e926ec794901d17c78024a50270940304540a733656f0d60405160405180910390a45b5050565b80516001600160a01b03811681146200041657600080fd5b919050565b634e487b7160e01b600052604160045260246000fd5b600080600080608085870312156200044857600080fd5b6200045385620003fe565b9350602062000464818701620003fe565b60408701519094506001600160401b03808211156200048257600080fd5b818801915088601f8301126200049757600080fd5b815181811115620004ac57620004ac6200041b565b8060051b604051601f19603f83011681018181108582111715620004d457620004d46200041b565b60405291825284820192508381018501918b831115620004f357600080fd5b938501935b828510156200051c576200050c85620003fe565b84529385019392850192620004f8565b8097505050505050506200053360608601620003fe565b905092959194509250565b634e487b7160e01b600052603260045260246000fd5b6000600182016200057557634e487b7160e01b600052601160045260246000fd5b5060010190565b60805160a051611da6620005b0600039600081816102be0152610a690152600081816103a301526114550152611da66000f3fe608060405234801561001057600080fd5b50600436106101735760003560e01c80637ca548c6116100de578063a1ebf35d11610097578063c01a8c8411610071578063c01a8c841461038b578063d33219b41461039e578063d547741f146103c5578063eb12d61e146103d857600080fd5b8063a1ebf35d14610365578063a217fddf1461037a578063affed0e01461038257600080fd5b80637ca548c6146102e05780638a8e784c146102e957806391d148541461032257806394cf795e146103355780639ac18b191461034a5780639ace38c21461035257600080fd5b806333ea3dc81161013057806333ea3dc8146102375780633411c81c1461025d57806336568abe1461028b57806346e24b081461029e57806359ecd657146102b157806366dc71d3146102b957600080fd5b806301ffc9a7146101785780630e316ab7146101a05780632079fb9a146101b557806320ea8d86146101e0578063248a9ca3146101f35780632f2ff15d14610224575b600080fd5b61018b610186366004611715565b6103eb565b60405190151581526020015b60405180910390f35b6101b36101ae36600461175b565b610422565b005b6101c86101c3366004611776565b610653565b6040516001600160a01b039091168152602001610197565b6101b36101ee366004611776565b61067d565b610216610201366004611776565b60009081526020819052604090206001015490565b604051908152602001610197565b6101b361023236600461178f565b61080f565b61024a610245366004611776565b610839565b604051610197979695949392919061180b565b61018b61026b36600461178f565b600560209081526000928352604080842090915290825290205460ff1681565b6101b361029936600461178f565b6109cf565b6102166102ac3660046118af565b610a4d565b610216600581565b6101c87f000000000000000000000000000000000000000000000000000000000000000081565b61021660025481565b61018b6102f736600461178f565b60009182526005602090815260408084206001600160a01b0393909316845291905290205460ff1690565b61018b61033036600461178f565b610c8c565b61033d610cb5565b6040516101979190611939565b610216600381565b61024a610360366004611776565b610d17565b610216600080516020611d5183398151915281565b610216600081565b61021660035481565b6101b3610399366004611776565b610e75565b6101c87f000000000000000000000000000000000000000000000000000000000000000081565b6101b36103d336600461178f565b610fa6565b6101b36103e636600461175b565b610fcb565b60006001600160e01b03198216637965db0b60e01b148061041c57506301ffc9a760e01b6001600160e01b03198316145b92915050565b600061042d8161117e565b610445600080516020611d5183398151915283610c8c565b6104855760405162461bcd60e51b815260206004820152600c60248201526b2737ba10309039b4b3b732b960a11b60448201526064015b60405180910390fd5b6003600254116104e35760405162461bcd60e51b815260206004820152602360248201527f43616e6e6f7420676f2062656c6f77207265717569726564207369676e61747560448201526272657360e81b606482015260840161047c565b6104fb600080516020611d518339815191528361118b565b60005b60065481101561060357826001600160a01b03166006828154811061052557610525611986565b6000918252602090912001546001600160a01b0316036105f1576006805461054f906001906119b2565b8154811061055f5761055f611986565b600091825260209091200154600680546001600160a01b03909216918390811061058b5761058b611986565b9060005260206000200160006101000a8154816001600160a01b0302191690836001600160a01b0316021790555060068054806105ca576105ca6119c5565b600082815260209020810160001990810180546001600160a01b0319169055019055610603565b806105fb816119db565b9150506104fe565b5060028054906000610614836119f4565b909155505060405133906001600160a01b038416907f98d1ebbe00ae92a5de96a0f49742a8afa89f42363592bc2e7cfaaed68b45e7a690600090a35050565b6006818154811061066357600080fd5b6000918252602090912001546001600160a01b0316905081565b600080516020611d518339815191526106958161117e565b6000828152600460205260409020546001600160a01b03166106f95760405162461bcd60e51b815260206004820152601a60248201527f5472616e73616374696f6e20646f6573206e6f74206578697374000000000000604482015260640161047c565b60008281526004602052604090206003015460ff161561072b5760405162461bcd60e51b815260040161047c90611a0b565b600082815260056020908152604080832033845290915290205460ff166107a05760405162461bcd60e51b815260206004820152602360248201527f5472616e73616374696f6e206e6f7420636f6e6669726d65642062792073656e6044820152623232b960e91b606482015260840161047c565b60008281526005602090815260408083203384528252808320805460ff191690558483526004918290528220018054916107d9836119f4565b9091555050604051339083907f4cd471041f6b9ff47536a54a3d3ab62d0fa9dd5e36c0418b294b1673acb3188190600090a35050565b60008281526020819052604090206001015461082a8161117e565b61083483836111f0565b505050565b6000806060600080600060606000600460008a815260200190815260200160002090508060000160009054906101000a90046001600160a01b03168160010154826002018360030160009054906101000a900460ff1684600401548560050154866006018480546108a990611a42565b80601f01602080910402602001604051908101604052809291908181526020018280546108d590611a42565b80156109225780601f106108f757610100808354040283529160200191610922565b820191906000526020600020905b81548152906001019060200180831161090557829003601f168201915b5050505050945080805461093590611a42565b80601f016020809104026020016040519081016040528092919081815260200182805461096190611a42565b80156109ae5780601f10610983576101008083540402835291602001916109ae565b820191906000526020600020905b81548152906001019060200180831161099157829003601f168201915b50505050509050975097509750975097509750975050919395979092949650565b6001600160a01b0381163314610a3f5760405162461bcd60e51b815260206004820152602f60248201527f416363657373436f6e74726f6c3a2063616e206f6e6c792072656e6f756e636560448201526e103937b632b9903337b91039b2b63360891b606482015260840161047c565b610a49828261118b565b5050565b6000600080516020611d51833981519152610a678161117e565b7f00000000000000000000000000000000000000000000000000000000000000006001600160a01b0316886001600160a01b031614610ae85760405162461bcd60e51b815260206004820152601e60248201527f43616e206f6e6c79207461726765742050726f70657274794d61726b65740000604482015260640161047c565b60038054906000610af8836119db565b9190505591506040518060e00160405280896001600160a01b0316815260200188815260200187878080601f016020809104026020016040519081016040528093929190818152602001838380828437600092018290525093855250505060208083018290526040808401929092524260608401528151601f88018290048202810182019092528682526080909201918790879081908401838280828437600092018290525093909452505084815260046020908152604091829020845181546001600160a01b0319166001600160a01b03909116178155908401516001820155908301519091506002820190610bef9082611ae0565b50606082015160038201805460ff19169115159190911790556080820151600482015560a0820151600582015560c08201516006820190610c309082611ae0565b50905050336001600160a01b0316827f8fbf4f65d1f3823b3d085c847ec89a63ac3fe7ae0c29bd32f3cb14c6c998009f8686604051610c70929190611ba0565b60405180910390a3610c8182611274565b509695505050505050565b6000918252602082815260408084206001600160a01b0393909316845291905290205460ff1690565b60606006805480602002602001604051908101604052809291908181526020018280548015610d0d57602002820191906000526020600020905b81546001600160a01b03168152600190910190602001808311610cef575b5050505050905090565b6004602052600090815260409020805460018201546002830180546001600160a01b03909316939192610d4990611a42565b80601f0160208091040260200160405190810160405280929190818152602001828054610d7590611a42565b8015610dc25780601f10610d9757610100808354040283529160200191610dc2565b820191906000526020600020905b815481529060010190602001808311610da557829003601f168201915b505050600384015460048501546005860154600687018054969760ff9094169692955090935090610df290611a42565b80601f0160208091040260200160405190810160405280929190818152602001828054610e1e90611a42565b8015610e6b5780601f10610e4057610100808354040283529160200191610e6b565b820191906000526020600020905b815481529060010190602001808311610e4e57829003601f168201915b5050505050905087565b600080516020611d51833981519152610e8d8161117e565b6000828152600460205260409020546001600160a01b0316610ef15760405162461bcd60e51b815260206004820152601a60248201527f5472616e73616374696f6e20646f6573206e6f74206578697374000000000000604482015260640161047c565b60008281526004602052604090206003015460ff1615610f235760405162461bcd60e51b815260040161047c90611a0b565b600082815260056020908152604080832033845290915290205460ff1615610f9d5760405162461bcd60e51b815260206004820152602760248201527f5472616e73616374696f6e20616c726561647920636f6e6669726d65642062796044820152661039b2b73232b960c91b606482015260840161047c565b610a4982611274565b600082815260208190526040902060010154610fc18161117e565b610834838361118b565b6000610fd68161117e565b6001600160a01b0382166110255760405162461bcd60e51b8152602060048201526016602482015275496e76616c6964207369676e6572206164647265737360501b604482015260640161047c565b61103d600080516020611d5183398151915283610c8c565b1561107d5760405162461bcd60e51b815260206004820152601060248201526f20b63932b0b23c90309039b4b3b732b960811b604482015260640161047c565b6005600254106110cf5760405162461bcd60e51b815260206004820152601760248201527f4d6178696d756d207369676e6572732072656163686564000000000000000000604482015260640161047c565b6110e7600080516020611d51833981519152836111f0565b6006805460018101825560009182527ff652222313e28459528d920b65115c16c04f3efc82aaedc97be59f3f377c0d3f0180546001600160a01b0319166001600160a01b038516179055600280549161113f836119db565b909155505060405133906001600160a01b038416907f12146497b3b826918ec47f0cac7272a09ed06b30c16c030e99ec48ff5dd60b4790600090a35050565b6111888133611305565b50565b6111958282610c8c565b15610a49576000828152602081815260408083206001600160a01b0385168085529252808320805460ff1916905551339285917ff6391f5c32d9c69d2a47ea670b442974b53935d1edc7fd64eb21e047a839171b9190a45050565b6111fa8282610c8c565b610a49576000828152602081815260408083206001600160a01b03851684529091529020805460ff191660011790556112303390565b6001600160a01b0316816001600160a01b0316837f2f8788117e7eff1d82e926ec794901d17c78024a50270940304540a733656f0d60405160405180910390a45050565b60008181526005602090815260408083203384528252808320805460ff191660011790558383526004918290528220018054916112b0836119db565b9091555050604051339082907f15c2f311c9e0f53b50388279894aeff029a3457884a6601e924fca879e12adcc90600090a360008181526004602081905260409091200154600311611188576111888161135e565b61130f8282610c8c565b610a495761131c81611507565b611327836020611519565b604051602001611338929190611bcf565b60408051601f198184030181529082905262461bcd60e51b825261047c91600401611c44565b6113666116bc565b600081815260046020819052604090912090810154600311156113cb5760405162461bcd60e51b815260206004820152601860248201527f4e6f7420656e6f75676820636f6e6669726d6174696f6e730000000000000000604482015260640161047c565b600381015460ff16156113f05760405162461bcd60e51b815260040161047c90611a0b565b60038101805460ff1916600117905560405160009061141e9084904290602001918252602082015260400190565b60408051601f1981840301815290829052805160209091012083546001850154632d5d9d8160e01b84529193506001600160a01b037f0000000000000000000000000000000000000000000000000000000000000000811693632d5d9d819361149d9390921691906002880190600090889060068b0190600401611cd4565b600060405180830381600087803b1580156114b757600080fd5b505af11580156114cb573d6000803e3d6000fd5b50506040513392508591507fefc13bdcf58f184ea7cae26b499fb33b539e01d0197cea456f3ada289b8cf19b90600090a3505061118860018055565b606061041c6001600160a01b03831660145b60606000611528836002611d26565b611533906002611d3d565b67ffffffffffffffff81111561154b5761154b611a7c565b6040519080825280601f01601f191660200182016040528015611575576020820181803683370190505b509050600360fc1b8160008151811061159057611590611986565b60200101906001600160f81b031916908160001a905350600f60fb1b816001815181106115bf576115bf611986565b60200101906001600160f81b031916908160001a90535060006115e3846002611d26565b6115ee906001611d3d565b90505b6001811115611666576f181899199a1a9b1b9c1cb0b131b232b360811b85600f166010811061162257611622611986565b1a60f81b82828151811061163857611638611986565b60200101906001600160f81b031916908160001a90535060049490941c9361165f816119f4565b90506115f1565b5083156116b55760405162461bcd60e51b815260206004820181905260248201527f537472696e67733a20686578206c656e67746820696e73756666696369656e74604482015260640161047c565b9392505050565b60026001540361170e5760405162461bcd60e51b815260206004820152601f60248201527f5265656e7472616e637947756172643a207265656e7472616e742063616c6c00604482015260640161047c565b6002600155565b60006020828403121561172757600080fd5b81356001600160e01b0319811681146116b557600080fd5b80356001600160a01b038116811461175657600080fd5b919050565b60006020828403121561176d57600080fd5b6116b58261173f565b60006020828403121561178857600080fd5b5035919050565b600080604083850312156117a257600080fd5b823591506117b26020840161173f565b90509250929050565b60005b838110156117d65781810151838201526020016117be565b50506000910152565b600081518084526117f78160208601602086016117bb565b601f01601f19169290920160200192915050565b60018060a01b038816815286602082015260e06040820152600061183260e08301886117df565b86151560608401528560808401528460a084015282810360c084015261185881856117df565b9a9950505050505050505050565b60008083601f84011261187857600080fd5b50813567ffffffffffffffff81111561189057600080fd5b6020830191508360208285010111156118a857600080fd5b9250929050565b600080600080600080608087890312156118c857600080fd5b6118d18761173f565b955060208701359450604087013567ffffffffffffffff808211156118f557600080fd5b6119018a838b01611866565b9096509450606089013591508082111561191a57600080fd5b5061192789828a01611866565b979a9699509497509295939492505050565b6020808252825182820181905260009190848201906040850190845b8181101561197a5783516001600160a01b031683529284019291840191600101611955565b50909695505050505050565b634e487b7160e01b600052603260045260246000fd5b634e487b7160e01b600052601160045260246000fd5b8181038181111561041c5761041c61199c565b634e487b7160e01b600052603160045260246000fd5b6000600182016119ed576119ed61199c565b5060010190565b600081611a0357611a0361199c565b506000190190565b6020808252601c908201527f5472616e73616374696f6e20616c726561647920657865637574656400000000604082015260600190565b600181811c90821680611a5657607f821691505b602082108103611a7657634e487b7160e01b600052602260045260246000fd5b50919050565b634e487b7160e01b600052604160045260246000fd5b601f82111561083457600081815260208120601f850160051c81016020861015611ab95750805b601f850160051c820191505b81811015611ad857828155600101611ac5565b505050505050565b815167ffffffffffffffff811115611afa57611afa611a7c565b611b0e81611b088454611a42565b84611a92565b602080601f831160018114611b435760008415611b2b5750858301515b600019600386901b1c1916600185901b178555611ad8565b600085815260208120601f198616915b82811015611b7257888601518255948401946001909101908401611b53565b5085821015611b905787850151600019600388901b60f8161c191681555b5050505050600190811b01905550565b60208152816020820152818360408301376000818301604090810191909152601f909201601f19160101919050565b7f416363657373436f6e74726f6c3a206163636f756e7420000000000000000000815260008351611c078160178501602088016117bb565b7001034b99036b4b9b9b4b733903937b6329607d1b6017918401918201528351611c388160288401602088016117bb565b01602801949350505050565b6020815260006116b560208301846117df565b60008154611c6481611a42565b808552602060018381168015611c815760018114611c9b57611cc9565b60ff1985168884015283151560051b880183019550611cc9565b866000528260002060005b85811015611cc15781548a8201860152908301908401611ca6565b890184019650505b505050505092915050565b60018060a01b038716815285602082015260c060408201526000611cfb60c0830187611c57565b85606084015284608084015282810360a0840152611d198185611c57565b9998505050505050505050565b808202811582820484141761041c5761041c61199c565b8082018082111561041c5761041c61199c56fee2f4eaae4a9751e85a3e4a7b9587827a877f29914755229b07a7b2da98285f70a2646970667358221220bae844354482cd263720c2a77c6d2c3d9259f540b6c5de165da62dae592775b364736f6c63430008140033",
  "linkReferences": {},
  "deployedLinkReferences": {}
}