{
  "_format": "hh-sol-artifact-1",
  "contractName": "MockERC721",
  "sourceName": "contracts/mocks/MockERC721.sol",
  "abi": [
    {
      "inputs": [
        {
          "internalType": "string",
          "name": "name",
          "type": "string"
        },
        {
          "internalType": "string",
          "name": "symbol",
          "type": "string"
        }
      ],
      "stateMutability": "nonpayable",
      "type": "constructor"
    },
    {
      "anonymous": false,
      "inputs": [
        {
          "indexed": true,
          "internalType": "address",
          "name": "owner",
          "type": "address"
        },
        {
          "indexed": true,
          "internalType": "address",
          "name": "approved",
          "type": "address"
        },
        {
          "indexed": true,
          "internalType": "uint256",
          "name": "tokenId",
          "type": "uint256"
        }
      ],
      "name": "Approval",
      "type": "event"
    },
    {
      "anonymous": false,
      "inputs": [
        {
          "indexed": true,
          "internalType": "address",
          "name": "owner",
          "type": "address"
        },
        {
          "indexed": true,
          "internalType": "address",
          "name": "operator",
          "type": "address"
        },
        {
          "indexed": false,
          "internalType": "bool",
          "name": "approved",
          "type": "bool"
        }
      ],
      "name": "ApprovalForAll",
      "type": "event"
    },
    {
      "anonymous": false,
      "inputs": [
        {
          "indexed": true,
          "internalType": "address",
          "name": "previousOwner",
          "type": "address"
        },
        {
          "indexed": true,
          "internalType": "address",
          "name": "newOwner",
          "type": "address"
        }
      ],
      "name": "OwnershipTransferred",
      "type": "event"
    },
    {
      "anonymous": false,
      "inputs": [
        {
          "indexed": true,
          "internalType": "address",
          "name": "from",
          "type": "address"
        },
        {
          "indexed": true,
          "internalType": "address",
          "name": "to",
          "type": "address"
        },
        {
          "indexed": true,
          "internalType": "uint256",
          "name": "tokenId",
          "type": "uint256"
        }
      ],
      "name": "Transfer",
      "type": "event"
    },
    {
      "inputs": [
        {
          "internalType": "address",
          "name": "to",
          "type": "address"
        },
        {
          "internalType": "uint256",
          "name": "tokenId",
          "type": "uint256"
        }
      ],
      "name": "approve",
      "outputs": [],
      "stateMutability": "nonpayable",
      "type": "function"
    },
    {
      "inputs": [
        {
          "internalType": "address",
          "name": "owner",
          "type": "address"
        }
      ],
      "name": "balanceOf",
      "outputs": [
        {
          "internalType": "uint256",
          "name": "",
          "type": "uint256"
        }
      ],
      "stateMutability": "view",
      "type": "function"
    },
    {
      "inputs": [
        {
          "internalType": "uint256",
          "name": "tokenId",
          "type": "uint256"
        }
      ],
      "name": "burn",
      "outputs": [],
      "stateMutability": "nonpayable",
      "type": "function"
    },
    {
      "inputs": [
        {
          "internalType": "uint256",
          "name": "tokenId",
          "type": "uint256"
        }
      ],
      "name": "exists",
      "outputs": [
        {
          "internalType": "bool",
          "name": "",
          "type": "bool"
        }
      ],
      "stateMutability": "view",
      "type": "function"
    },
    {
      "inputs": [
        {
          "internalType": "uint256",
          "name": "tokenId",
          "type": "uint256"
        }
      ],
      "name": "getApproved",
      "outputs": [
        {
          "internalType": "address",
          "name": "",
          "type": "address"
        }
      ],
      "stateMutability": "view",
      "type": "function"
    },
    {
      "inputs": [],
      "name": "getCurrentTokenId",
      "outputs": [
        {
          "internalType": "uint256",
          "name": "",
          "type": "uint256"
        }
      ],
      "stateMutability": "view",
      "type": "function"
    },
    {
      "inputs": [
        {
          "internalType": "address",
          "name": "owner",
          "type": "address"
        },
        {
          "internalType": "address",
          "name": "operator",
          "type": "address"
        }
      ],
      "name": "isApprovedForAll",
      "outputs": [
        {
          "internalType": "bool",
          "name": "",
          "type": "bool"
        }
      ],
      "stateMutability": "view",
      "type": "function"
    },
    {
      "inputs": [
        {
          "internalType": "address",
          "name": "to",
          "type": "address"
        }
      ],
      "name": "mint",
      "outputs": [
        {
          "internalType": "uint256",
          "name": "",
          "type": "uint256"
        }
      ],
      "stateMutability": "nonpayable",
      "type": "function"
    },
    {
      "inputs": [
        {
          "internalType": "address",
          "name": "to",
          "type": "address"
        },
        {
          "internalType": "uint256",
          "name": "tokenId",
          "type": "uint256"
        }
      ],
      "name": "mintWithId",
      "outputs": [],
      "stateMutability": "nonpayable",
      "type": "function"
    },
    {
      "inputs": [],
      "name": "name",
      "outputs": [
        {
          "internalType": "string",
          "name": "",
          "type": "string"
        }
      ],
      "stateMutability": "view",
      "type": "function"
    },
    {
      "inputs": [],
      "name": "owner",
      "outputs": [
        {
          "internalType": "address",
          "name": "",
          "type": "address"
        }
      ],
      "stateMutability": "view",
      "type": "function"
    },
    {
      "inputs": [
        {
          "internalType": "uint256",
          "name": "tokenId",
          "type": "uint256"
        }
      ],
      "name": "ownerOf",
      "outputs": [
        {
          "internalType": "address",
          "name": "",
          "type": "address"
        }
      ],
      "stateMutability": "view",
      "type": "function"
    },
    {
      "inputs": [],
      "name": "renounceOwnership",
      "outputs": [],
      "stateMutability": "nonpayable",
      "type": "function"
    },
    {
      "inputs": [
        {
          "internalType": "address",
          "name": "from",
          "type": "address"
        },
        {
          "internalType": "address",
          "name": "to",
          "type": "address"
        },
        {
          "internalType": "uint256",
          "name": "tokenId",
          "type": "uint256"
        }
      ],
      "name": "safeTransferFrom",
      "outputs": [],
      "stateMutability": "nonpayable",
      "type": "function"
    },
    {
      "inputs": [
        {
          "internalType": "address",
          "name": "from",
          "type": "address"
        },
        {
          "internalType": "address",
          "name": "to",
          "type": "address"
        },
        {
          "internalType": "uint256",
          "name": "tokenId",
          "type": "uint256"
        },
        {
          "internalType": "bytes",
          "name": "data",
          "type": "bytes"
        }
      ],
      "name": "safeTransferFrom",
      "outputs": [],
      "stateMutability": "nonpayable",
      "type": "function"
    },
    {
      "inputs": [
        {
          "internalType": "address",
          "name": "operator",
          "type": "address"
        },
        {
          "internalType": "bool",
          "name": "approved",
          "type": "bool"
        }
      ],
      "name": "setApprovalForAll",
      "outputs": [],
      "stateMutability": "nonpayable",
      "type": "function"
    },
    {
      "inputs": [
        {
          "internalType": "bytes4",
          "name": "interfaceId",
          "type": "bytes4"
        }
      ],
      "name": "supportsInterface",
      "outputs": [
        {
          "internalType": "bool",
          "name": "",
          "type": "bool"
        }
      ],
      "stateMutability": "view",
      "type": "function"
    },
    {
      "inputs": [],
      "name": "symbol",
      "outputs": [
        {
          "internalType": "string",
          "name": "",
          "type": "string"
        }
      ],
      "stateMutability": "view",
      "type": "function"
    },
    {
      "inputs": [
        {
          "internalType": "uint256",
          "name": "tokenId",
          "type": "uint256"
        }
      ],
      "name": "tokenURI",
      "outputs": [
        {
          "internalType": "string",
          "name": "",
          "type": "string"
        }
      ],
      "stateMutability": "view",
      "type": "function"
    },
    {
      "inputs": [
        {
          "internalType": "address",
          "name": "from",
          "type": "address"
        },
        {
          "internalType": "address",
          "name": "to",
          "type": "address"
        },
        {
          "internalType": "uint256",
          "name": "tokenId",
          "type": "uint256"
        }
      ],
      "name": "transferFrom",
      "outputs": [],
      "stateMutability": "nonpayable",
      "type": "function"
    },
    {
      "inputs": [
        {
          "internalType": "address",
          "name": "newOwner",
          "type": "address"
        }
      ],
      "name": "transferOwnership",
      "outputs": [],
      "stateMutability": "nonpayable",
      "type": "function"
    }
  ],
  "bytecode": "0x60806040523462000363576200160e803803806200001d8162000368565b9283398101604082820312620003635781516001600160401b0392908381116200036357826200004f9183016200038e565b906020928382015185811162000363576200006b92016200038e565b9281518181116200034d576000938454916001948584811c9416801562000342575b838510146200032e578190601f94858111620002db575b508390858311600114620002775788926200026b575b5050600019600383901b1c191690851b1785555b8551928311620002575783548481811c911680156200024c575b828210146200023857828111620001f0575b50809183116001146200018a57508394829394926200017e575b5050600019600383901b1c191690821b1790555b60068054336001600160a01b031982168117909255604051926001600160a01b03909116907f8be0079c531659141344cd1fd0a4f28419497f9722a3daafe3b4186f6b6457e09080a361120d9081620004018239f35b01519050388062000114565b90601f198316958486528286209286905b888210620001d85750508385969710620001be575b505050811b01905562000128565b015160001960f88460031b161c19169055388080620001b0565b8087859682949686015181550195019301906200019b565b8486528186208380860160051c8201928487106200022e575b0160051c019085905b82811062000222575050620000fa565b87815501859062000212565b9250819262000209565b634e487b7160e01b86526022600452602486fd5b90607f1690620000e8565b634e487b7160e01b85526041600452602485fd5b015190503880620000ba565b8880528489208894509190601f1984168a5b87828210620002c45750508411620002aa575b505050811b018555620000ce565b015160001960f88460031b161c191690553880806200029c565b8385015186558b9790950194938401930162000289565b9091508780528388208580850160051c82019286861062000324575b918991869594930160051c01915b82811062000315575050620000a4565b8a815585945089910162000305565b92508192620002f7565b634e487b7160e01b87526022600452602487fd5b93607f16936200008d565b634e487b7160e01b600052604160045260246000fd5b600080fd5b6040519190601f01601f191682016001600160401b038111838210176200034d57604052565b919080601f84011215620003635782516001600160401b0381116200034d57602090620003c4601f8201601f1916830162000368565b92818452828287010111620003635760005b818110620003ec57508260009394955001015290565b8581018301518482018401528201620003d656fe6080604081815260048036101561001557600080fd5b600092833560e01c90816301ffc9a714610a2d5750806306fdde0314610980578063081812fc14610960578063095ea7b3146107f357806323b872dd146107c957806342842e0e146107a057806342966c68146106ca5780634f558e79146106a157806356189236146106825780636352211e146106515780636a627842146105f257806370a082311461055c578063715018a6146105115780638da5cb5b146104e857806395d89b41146103f0578063a22cb46514610325578063b88d4fde1461029f578063c87b56dd14610245578063cd66439a14610212578063e985e9c5146101c05763f2fde38b1461010a57600080fd5b346101bc5760203660031901126101bc57610123610ad9565b9061012c610bae565b6001600160a01b0391821692831561016a575050600680546001600160a01b031981168417909155166000805160206111988339815191528380a380f35b906020608492519162461bcd60e51b8352820152602660248201527f4f776e61626c653a206e6577206f776e657220697320746865207a65726f206160448201526564647265737360d01b6064820152fd5b8280fd5b50503461020e578060031936011261020e5760ff816020936101e0610ad9565b6101e8610af4565b6001600160a01b0391821683526005875283832091168252855220549151911615158152f35b5080fd5b50503461020e573660031901126102425761023f61022e610ad9565b610236610bae565b602435906110e0565b80f35b80fd5b5091903461020e57602036600319011261020e5761026e61026961029b9435610f5b565b610c06565b81815161027a81610b3f565b5280519161028783610b3f565b825251918291602083526020830190610a99565b0390f35b5090346101bc5760803660031901126101bc576102ba610ad9565b6102c2610af4565b6064359385906001600160401b03861161020e573660238701121561020e57850135946102fa6102f187610b93565b95519586610b70565b858552366024878301011161020e578561023f96602460209301838801378501015260443591610cfc565b5090346101bc57806003193601126101bc5761033f610ad9565b90602435918215158093036103ec576001600160a01b0316923384146103ae5750338452600560205280842083855260205280842060ff1981541660ff8416179055519081527f17307eab39ab6107e8899845ad3d59bd9653f200f220920489ca2b5937696c3160203392a380f35b6020606492519162461bcd60e51b8352820152601960248201527822a9219b99189d1030b8383937bb32903a379031b0b63632b960391b6044820152fd5b8480fd5b5091346102425780600319360112610242578151918160019283549384811c918186169586156104de575b60209687851081146104cb578899509688969785829a5291826000146104a4575050600114610467575b50505061029b9291610458910385610b70565b51928284938452830190610a99565b91908693508083528383205b82841061048c575050508201018161045861029b610445565b8054848a018601528895508794909301928101610473565b60ff19168782015293151560051b86019093019350849250610458915061029b9050610445565b634e487b7160e01b835260228a52602483fd5b92607f169261041b565b50503461020e578160031936011261020e5760065490516001600160a01b039091168152602090f35b833461024257806003193601126102425761052a610bae565b600680546001600160a01b0319811690915581906001600160a01b03166000805160206111988339815191528280a380f35b5082903461020e57602036600319011261020e576001600160a01b03610580610ad9565b1690811561059d5760208480858581526003845220549051908152f35b608490602085519162461bcd60e51b8352820152602960248201527f4552433732313a2061646472657373207a65726f206973206e6f7420612076616044820152683634b21037bbb732b960b91b6064820152fd5b5091903461020e57602036600319011261020e5761060e610ad9565b610616610bae565b60075492600019841461063e57602084846106388286600182016007556110e0565b51908152f35b634e487b7160e01b815260118552602490fd5b509134610242576020366003190112610242575061067160209235610c4d565b90516001600160a01b039091168152f35b50503461020e578160031936011261020e576020906007549051908152f35b50913461024257602036600319011261024257506106c160209235610f5b565b90519015158152f35b5090346101bc5760203660031901126101bc578135916106ea8333610d97565b15610766579083916106fb84610c4d565b5061070584610c4d565b848452602091825282842080546001600160a01b03199081169091556001600160a01b03909116808552600383528385208054600019019055858552600290925291832080549092169091556000805160206111b88339815191528280a480f35b6020606492519162461bcd60e51b835282015260156024820152742737ba1030b8383937bb32b21037b91037bbb732b960591b6044820152fd5b50503461020e5761023f906107b436610b0a565b919251926107c184610b3f565b858452610cfc565b83346102425761023f6107db36610b0a565b916107ee6107e98433610d97565b610c9a565b610e5f565b50346101bc57816003193601126101bc5761080c610ad9565b6024359290916001600160a01b039190828061082787610c4d565b16941693808514610913578033149081156108f4575b501561088c57848652602052842080546001600160a01b0319168317905561086483610c4d565b167f8c5be1e5ebec7d5bd14f71427d1e84f3dd0314c0f7b2291e5b200ac8c7c3b9258480a480f35b6020608492519162461bcd60e51b8352820152603d60248201527f4552433732313a20617070726f76652063616c6c6572206973206e6f7420746f60448201527f6b656e206f776e6572206f7220617070726f76656420666f7220616c6c0000006064820152fd5b90508652600560205281862033875260205260ff82872054163861083d565b506020608492519162461bcd60e51b8352820152602160248201527f4552433732313a20617070726f76616c20746f2063757272656e74206f776e656044820152603960f91b6064820152fd5b509134610242576020366003190112610242575061067160209235610c73565b50913461024257806003193601126102425781519181825492600184811c91818616958615610a23575b60209687851081146104cb578899509688969785829a5291826000146104a45750506001146109e65750505061029b9291610458910385610b70565b91908693508280528383205b828410610a0b575050508201018161045861029b610445565b8054848a0186015288955087949093019281016109f2565b92607f16926109aa565b925050346101bc5760203660031901126101bc573563ffffffff60e01b81168091036101bc57602092506380ac58cd60e01b8114908115610a88575b8115610a77575b5015158152f35b6301ffc9a760e01b14905038610a70565b635b5e139f60e01b81149150610a69565b919082519283825260005b848110610ac5575050826000602080949584010152601f8019910116010190565b602081830181015184830182015201610aa4565b600435906001600160a01b0382168203610aef57565b600080fd5b602435906001600160a01b0382168203610aef57565b6060906003190112610aef576001600160a01b03906004358281168103610aef57916024359081168103610aef579060443590565b602081019081106001600160401b03821117610b5a57604052565b634e487b7160e01b600052604160045260246000fd5b601f909101601f19168101906001600160401b03821190821017610b5a57604052565b6001600160401b038111610b5a57601f01601f191660200190565b6006546001600160a01b03163303610bc257565b606460405162461bcd60e51b815260206004820152602060248201527f4f776e61626c653a2063616c6c6572206973206e6f7420746865206f776e65726044820152fd5b15610c0d57565b60405162461bcd60e51b8152602060048201526018602482015277115490cdcc8c4e881a5b9d985b1a59081d1bdad95b88125160421b6044820152606490fd5b6000908152600260205260409020546001600160a01b0316610c70811515610c06565b90565b610c7f61026982610f5b565b6000908152600460205260409020546001600160a01b031690565b15610ca157565b60405162461bcd60e51b815260206004820152602d60248201527f4552433732313a2063616c6c6572206973206e6f7420746f6b656e206f776e6560448201526c1c881bdc88185c1c1c9bdd9959609a1b6064820152608490fd5b90610d20939291610d106107e98433610d97565b610d1b838383610e5f565b610f78565b15610d2757565b60405162461bcd60e51b815280610d4060048201610d44565b0390fd5b60809060208152603260208201527f4552433732313a207472616e7366657220746f206e6f6e20455243373231526560408201527131b2b4bb32b91034b6b83632b6b2b73a32b960711b60608201520190565b906001600160a01b038080610dab84610c4d565b16931691838314938415610dde575b508315610dc8575b50505090565b610dd491929350610c73565b1614388080610dc2565b909350600052600560205260406000208260005260205260ff604060002054169238610dba565b15610e0c57565b60405162461bcd60e51b815260206004820152602560248201527f4552433732313a207472616e736665722066726f6d20696e636f72726563742060448201526437bbb732b960d91b6064820152608490fd5b90610e8791610e6d84610c4d565b6001600160a01b0393918416928492909183168414610e05565b16918215610f0a5781610ea491610e9d86610c4d565b1614610e05565b6000805160206111b8833981519152600084815260046020526040812060018060a01b03199081815416905583825260036020526040822060001981540190558482526040822060018154019055858252600260205284604083209182541617905580a4565b60405162461bcd60e51b8152602060048201526024808201527f4552433732313a207472616e7366657220746f20746865207a65726f206164646044820152637265737360e01b6064820152608490fd5b6000908152600260205260409020546001600160a01b0316151590565b92939190803b1561108b57610fca946040518092630a85bd0160e11b9485835233600484015260018060a01b03809816602484015260448301526080606483015281806020998a956084830190610a99565b03916000988991165af184918161104b575b5061103a575050503d600014611032573d610ff681610b93565b906110046040519283610b70565b81528091833d92013e5b8051918261102f5760405162461bcd60e51b815280610d4060048201610d44565b01fd5b50606061100e565b6001600160e01b0319161492509050565b9091508581813d8311611084575b6110638183610b70565b810103126103ec57516001600160e01b0319811681036103ec579038610fdc565b503d611059565b5050915050600190565b1561109c57565b60405162461bcd60e51b815260206004820152601c60248201527b115490cdcc8c4e881d1bdad95b88185b1c9958591e481b5a5b9d195960221b6044820152606490fd5b6001600160a01b03168015611153576111016110fb83610f5b565b15611095565b61110d6110fb83610f5b565b6000818152600360209081526040808320805460010190558483526002909152812080546001600160a01b031916831790556000805160206111b88339815191528180a4565b606460405162461bcd60e51b815260206004820152602060248201527f4552433732313a206d696e7420746f20746865207a65726f20616464726573736044820152fdfe8be0079c531659141344cd1fd0a4f28419497f9722a3daafe3b4186f6b6457e0ddf252ad1be2c89b69c2b068fc378daa952ba7f163c4a11628f55a4df523b3efa2646970667358221220bb0c72b6a7a3a7fefe2b94ebfd19a806ac14b432f2d386877ec2e253e147d47d64736f6c63430008140033",
  "linkReferences": {},
  "deployedLinkReferences": {}
}