{
  "_format": "hh-sol-artifact-1",
  "contractName": "MockERC721",
  "sourceName": "contracts/mocks/MockERC721.sol",
  "abi": [
    {
      "inputs": [
        {
          "internalType": "string",
          "name": "name",
          "type": "string"
        },
        {
          "internalType": "string",
          "name": "symbol",
          "type": "string"
        }
      ],
      "stateMutability": "nonpayable",
      "type": "constructor"
    },
    {
      "anonymous": false,
      "inputs": [
        {
          "indexed": true,
          "internalType": "address",
          "name": "owner",
          "type": "address"
        },
        {
          "indexed": true,
          "internalType": "address",
          "name": "approved",
          "type": "address"
        },
        {
          "indexed": true,
          "internalType": "uint256",
          "name": "tokenId",
          "type": "uint256"
        }
      ],
      "name": "Approval",
      "type": "event"
    },
    {
      "anonymous": false,
      "inputs": [
        {
          "indexed": true,
          "internalType": "address",
          "name": "owner",
          "type": "address"
        },
        {
          "indexed": true,
          "internalType": "address",
          "name": "operator",
          "type": "address"
        },
        {
          "indexed": false,
          "internalType": "bool",
          "name": "approved",
          "type": "bool"
        }
      ],
      "name": "ApprovalForAll",
      "type": "event"
    },
    {
      "anonymous": false,
      "inputs": [
        {
          "indexed": true,
          "internalType": "address",
          "name": "previousOwner",
          "type": "address"
        },
        {
          "indexed": true,
          "internalType": "address",
          "name": "newOwner",
          "type": "address"
        }
      ],
      "name": "OwnershipTransferred",
      "type": "event"
    },
    {
      "anonymous": false,
      "inputs": [
        {
          "indexed": true,
          "internalType": "address",
          "name": "from",
          "type": "address"
        },
        {
          "indexed": true,
          "internalType": "address",
          "name": "to",
          "type": "address"
        },
        {
          "indexed": true,
          "internalType": "uint256",
          "name": "tokenId",
          "type": "uint256"
        }
      ],
      "name": "Transfer",
      "type": "event"
    },
    {
      "inputs": [
        {
          "internalType": "address",
          "name": "to",
          "type": "address"
        },
        {
          "internalType": "uint256",
          "name": "tokenId",
          "type": "uint256"
        }
      ],
      "name": "approve",
      "outputs": [],
      "stateMutability": "nonpayable",
      "type": "function"
    },
    {
      "inputs": [
        {
          "internalType": "address",
          "name": "owner",
          "type": "address"
        }
      ],
      "name": "balanceOf",
      "outputs": [
        {
          "internalType": "uint256",
          "name": "",
          "type": "uint256"
        }
      ],
      "stateMutability": "view",
      "type": "function"
    },
    {
      "inputs": [
        {
          "internalType": "uint256",
          "name": "tokenId",
          "type": "uint256"
        }
      ],
      "name": "burn",
      "outputs": [],
      "stateMutability": "nonpayable",
      "type": "function"
    },
    {
      "inputs": [
        {
          "internalType": "uint256",
          "name": "tokenId",
          "type": "uint256"
        }
      ],
      "name": "exists",
      "outputs": [
        {
          "internalType": "bool",
          "name": "",
          "type": "bool"
        }
      ],
      "stateMutability": "view",
      "type": "function"
    },
    {
      "inputs": [
        {
          "internalType": "uint256",
          "name": "tokenId",
          "type": "uint256"
        }
      ],
      "name": "getApproved",
      "outputs": [
        {
          "internalType": "address",
          "name": "",
          "type": "address"
        }
      ],
      "stateMutability": "view",
      "type": "function"
    },
    {
      "inputs": [],
      "name": "getCurrentTokenId",
      "outputs": [
        {
          "internalType": "uint256",
          "name": "",
          "type": "uint256"
        }
      ],
      "stateMutability": "view",
      "type": "function"
    },
    {
      "inputs": [
        {
          "internalType": "address",
          "name": "owner",
          "type": "address"
        },
        {
          "internalType": "address",
          "name": "operator",
          "type": "address"
        }
      ],
      "name": "isApprovedForAll",
      "outputs": [
        {
          "internalType": "bool",
          "name": "",
          "type": "bool"
        }
      ],
      "stateMutability": "view",
      "type": "function"
    },
    {
      "inputs": [
        {
          "internalType": "address",
          "name": "to",
          "type": "address"
        }
      ],
      "name": "mint",
      "outputs": [
        {
          "internalType": "uint256",
          "name": "",
          "type": "uint256"
        }
      ],
      "stateMutability": "nonpayable",
      "type": "function"
    },
    {
      "inputs": [
        {
          "internalType": "address",
          "name": "to",
          "type": "address"
        },
        {
          "internalType": "uint256",
          "name": "tokenId",
          "type": "uint256"
        }
      ],
      "name": "mintWithId",
      "outputs": [],
      "stateMutability": "nonpayable",
      "type": "function"
    },
    {
      "inputs": [],
      "name": "name",
      "outputs": [
        {
          "internalType": "string",
          "name": "",
          "type": "string"
        }
      ],
      "stateMutability": "view",
      "type": "function"
    },
    {
      "inputs": [],
      "name": "owner",
      "outputs": [
        {
          "internalType": "address",
          "name": "",
          "type": "address"
        }
      ],
      "stateMutability": "view",
      "type": "function"
    },
    {
      "inputs": [
        {
          "internalType": "uint256",
          "name": "tokenId",
          "type": "uint256"
        }
      ],
      "name": "ownerOf",
      "outputs": [
        {
          "internalType": "address",
          "name": "",
          "type": "address"
        }
      ],
      "stateMutability": "view",
      "type": "function"
    },
    {
      "inputs": [],
      "name": "renounceOwnership",
      "outputs": [],
      "stateMutability": "nonpayable",
      "type": "function"
    },
    {
      "inputs": [
        {
          "internalType": "address",
          "name": "from",
          "type": "address"
        },
        {
          "internalType": "address",
          "name": "to",
          "type": "address"
        },
        {
          "internalType": "uint256",
          "name": "tokenId",
          "type": "uint256"
        }
      ],
      "name": "safeTransferFrom",
      "outputs": [],
      "stateMutability": "nonpayable",
      "type": "function"
    },
    {
      "inputs": [
        {
          "internalType": "address",
          "name": "from",
          "type": "address"
        },
        {
          "internalType": "address",
          "name": "to",
          "type": "address"
        },
        {
          "internalType": "uint256",
          "name": "tokenId",
          "type": "uint256"
        },
        {
          "internalType": "bytes",
          "name": "data",
          "type": "bytes"
        }
      ],
      "name": "safeTransferFrom",
      "outputs": [],
      "stateMutability": "nonpayable",
      "type": "function"
    },
    {
      "inputs": [
        {
          "internalType": "address",
          "name": "operator",
          "type": "address"
        },
        {
          "internalType": "bool",
          "name": "approved",
          "type": "bool"
        }
      ],
      "name": "setApprovalForAll",
      "outputs": [],
      "stateMutability": "nonpayable",
      "type": "function"
    },
    {
      "inputs": [
        {
          "internalType": "bytes4",
          "name": "interfaceId",
          "type": "bytes4"
        }
      ],
      "name": "supportsInterface",
      "outputs": [
        {
          "internalType": "bool",
          "name": "",
          "type": "bool"
        }
      ],
      "stateMutability": "view",
      "type": "function"
    },
    {
      "inputs": [],
      "name": "symbol",
      "outputs": [
        {
          "internalType": "string",
          "name": "",
          "type": "string"
        }
      ],
      "stateMutability": "view",
      "type": "function"
    },
    {
      "inputs": [
        {
          "internalType": "uint256",
          "name": "tokenId",
          "type": "uint256"
        }
      ],
      "name": "tokenURI",
      "outputs": [
        {
          "internalType": "string",
          "name": "",
          "type": "string"
        }
      ],
      "stateMutability": "view",
      "type": "function"
    },
    {
      "inputs": [
        {
          "internalType": "address",
          "name": "from",
          "type": "address"
        },
        {
          "internalType": "address",
          "name": "to",
          "type": "address"
        },
        {
          "internalType": "uint256",
          "name": "tokenId",
          "type": "uint256"
        }
      ],
      "name": "transferFrom",
      "outputs": [],
      "stateMutability": "nonpayable",
      "type": "function"
    },
    {
      "inputs": [
        {
          "internalType": "address",
          "name": "newOwner",
          "type": "address"
        }
      ],
      "name": "transferOwnership",
      "outputs": [],
      "stateMutability": "nonpayable",
      "type": "function"
    }
  ],
  "bytecode": "0x60806040523480156200001157600080fd5b50604051620018b9380380620018b9833981016040819052620000349162000193565b818160006200004483826200028c565b5060016200005382826200028c565b505050620000706200006a6200007860201b60201c565b6200007c565b505062000358565b3390565b600680546001600160a01b038381166001600160a01b0319831681179093556040519116919082907f8be0079c531659141344cd1fd0a4f28419497f9722a3daafe3b4186f6b6457e090600090a35050565b634e487b7160e01b600052604160045260246000fd5b600082601f830112620000f657600080fd5b81516001600160401b0380821115620001135762000113620000ce565b604051601f8301601f19908116603f011681019082821181831017156200013e576200013e620000ce565b816040528381526020925086838588010111156200015b57600080fd5b600091505b838210156200017f578582018301518183018401529082019062000160565b600093810190920192909252949350505050565b60008060408385031215620001a757600080fd5b82516001600160401b0380821115620001bf57600080fd5b620001cd86838701620000e4565b93506020850151915080821115620001e457600080fd5b50620001f385828601620000e4565b9150509250929050565b600181811c908216806200021257607f821691505b6020821081036200023357634e487b7160e01b600052602260045260246000fd5b50919050565b601f8211156200028757600081815260208120601f850160051c81016020861015620002625750805b601f850160051c820191505b8181101562000283578281556001016200026e565b5050505b505050565b81516001600160401b03811115620002a857620002a8620000ce565b620002c081620002b98454620001fd565b8462000239565b602080601f831160018114620002f85760008415620002df5750858301515b600019600386901b1c1916600185901b17855562000283565b600085815260208120601f198616915b82811015620003295788860151825594840194600190910190840162000308565b5085821015620003485787850151600019600388901b60f8161c191681555b5050505050600190811b01905550565b61155180620003686000396000f3fe608060405234801561001057600080fd5b50600436106101075760003560e01c806301ffc9a71461010c57806306fdde0314610134578063081812fc14610149578063095ea7b31461017457806323b872dd1461018957806342842e0e1461019c57806342966c68146101af5780634f558e79146101c257806356189236146101d55780636352211e146101e75780636a627842146101fa57806370a082311461020d578063715018a6146102205780638da5cb5b1461022857806395d89b4114610230578063a22cb46514610238578063b88d4fde1461024b578063c87b56dd1461025e578063cd66439a14610271578063e985e9c514610284578063f2fde38b14610297575b600080fd5b61011f61011a366004611034565b6102aa565b60405190151581526020015b60405180910390f35b61013c6102fc565b60405161012b91906110a1565b61015c6101573660046110b4565b61038e565b6040516001600160a01b03909116815260200161012b565b6101876101823660046110e4565b6103b5565b005b61018761019736600461110e565b6104cf565b6101876101aa36600461110e565b610501565b6101876101bd3660046110b4565b61051c565b61011f6101d03660046110b4565b610575565b6007545b60405190815260200161012b565b61015c6101f53660046110b4565b610580565b6101d961020836600461114a565b6105b4565b6101d961021b36600461114a565b6105e4565b61018761066a565b61015c61067e565b61013c61068d565b610187610246366004611165565b61069c565b6101876102593660046111b7565b6106ab565b61013c61026c3660046110b4565b6106e3565b61018761027f3660046110e4565b610757565b61011f610292366004611292565b610769565b6101876102a536600461114a565b610797565b60006001600160e01b031982166380ac58cd60e01b14806102db57506001600160e01b03198216635b5e139f60e01b145b806102f657506301ffc9a760e01b6001600160e01b03198316145b92915050565b60606000805461030b906112c5565b80601f0160208091040260200160405190810160405280929190818152602001828054610337906112c5565b80156103845780601f1061035957610100808354040283529160200191610384565b820191906000526020600020905b81548152906001019060200180831161036757829003601f168201915b5050505050905090565b60006103998261080d565b506000908152600460205260409020546001600160a01b031690565b60006103c082610580565b9050806001600160a01b0316836001600160a01b0316036104325760405162461bcd60e51b815260206004820152602160248201527f4552433732313a20617070726f76616c20746f2063757272656e74206f776e656044820152603960f91b60648201526084015b60405180910390fd5b336001600160a01b038216148061044e575061044e8133610769565b6104c05760405162461bcd60e51b815260206004820152603d60248201527f4552433732313a20617070726f76652063616c6c6572206973206e6f7420746f60448201527f6b656e206f776e6572206f7220617070726f76656420666f7220616c6c0000006064820152608401610429565b6104ca8383610832565b505050565b6104da335b826108a0565b6104f65760405162461bcd60e51b8152600401610429906112ff565b6104ca8383836108ff565b6104ca838383604051806020016040528060008152506106ab565b610525336104d4565b6105695760405162461bcd60e51b81526020600482015260156024820152742737ba1030b8383937bb32b21037b91037bbb732b960591b6044820152606401610429565b61057281610a51565b50565b60006102f682610ad4565b60008061058c83610af1565b90506001600160a01b0381166102f65760405162461bcd60e51b81526004016104299061134c565b60006105be610b0c565b60078054600091826105cf8361137e565b9190505590506102f68382610b6b565b919050565b60006001600160a01b03821661064e5760405162461bcd60e51b815260206004820152602960248201527f4552433732313a2061646472657373207a65726f206973206e6f7420612076616044820152683634b21037bbb732b960b91b6064820152608401610429565b506001600160a01b031660009081526003602052604090205490565b610672610b0c565b61067c6000610c66565b565b6006546001600160a01b031690565b60606001805461030b906112c5565b6106a7338383610cb8565b5050565b6106b533836108a0565b6106d15760405162461bcd60e51b8152600401610429906112ff565b6106dd84848484610d82565b50505050565b60606106ee8261080d565b600061070560408051602081019091526000815290565b905060008151116107255760405180602001604052806000815250610750565b8061072f84610db5565b6040516020016107409291906113a5565b6040516020818303038152906040525b9392505050565b61075f610b0c565b6106a78282610b6b565b6001600160a01b03918216600090815260056020908152604080832093909416825291909152205460ff1690565b61079f610b0c565b6001600160a01b0381166108045760405162461bcd60e51b815260206004820152602660248201527f4f776e61626c653a206e6577206f776e657220697320746865207a65726f206160448201526564647265737360d01b6064820152608401610429565b61057281610c66565b61081681610ad4565b6105725760405162461bcd60e51b81526004016104299061134c565b600081815260046020526040902080546001600160a01b0319166001600160a01b038416908117909155819061086782610580565b6001600160a01b03167f8c5be1e5ebec7d5bd14f71427d1e84f3dd0314c0f7b2291e5b200ac8c7c3b92560405160405180910390a45050565b6000806108ac83610580565b9050806001600160a01b0316846001600160a01b031614806108d357506108d38185610769565b806108f75750836001600160a01b03166108ec8461038e565b6001600160a01b0316145b949350505050565b826001600160a01b031661091282610580565b6001600160a01b0316146109385760405162461bcd60e51b8152600401610429906113d4565b6001600160a01b03821661099a5760405162461bcd60e51b8152602060048201526024808201527f4552433732313a207472616e7366657220746f20746865207a65726f206164646044820152637265737360e01b6064820152608401610429565b826001600160a01b03166109ad82610580565b6001600160a01b0316146109d35760405162461bcd60e51b8152600401610429906113d4565b600081815260046020908152604080832080546001600160a01b03199081169091556001600160a01b0387811680865260038552838620805460001901905590871680865283862080546001019055868652600290945282852080549092168417909155905184936000805160206114fc83398151915291a4505050565b6000610a5c82610580565b9050610a6782610580565b600083815260046020908152604080832080546001600160a01b03199081169091556001600160a01b0385168085526003845282852080546000190190558785526002909352818420805490911690555192935084926000805160206114fc833981519152908390a45050565b600080610ae083610af1565b6001600160a01b0316141592915050565b6000908152600260205260409020546001600160a01b031690565b33610b1561067e565b6001600160a01b03161461067c5760405162461bcd60e51b815260206004820181905260248201527f4f776e61626c653a2063616c6c6572206973206e6f7420746865206f776e65726044820152606401610429565b6001600160a01b038216610bc15760405162461bcd60e51b815260206004820181905260248201527f4552433732313a206d696e7420746f20746865207a65726f20616464726573736044820152606401610429565b610bca81610ad4565b15610be75760405162461bcd60e51b815260040161042990611419565b610bf081610ad4565b15610c0d5760405162461bcd60e51b815260040161042990611419565b6001600160a01b038216600081815260036020908152604080832080546001019055848352600290915280822080546001600160a01b0319168417905551839291906000805160206114fc833981519152908290a45050565b600680546001600160a01b038381166001600160a01b0319831681179093556040519116919082907f8be0079c531659141344cd1fd0a4f28419497f9722a3daafe3b4186f6b6457e090600090a35050565b816001600160a01b0316836001600160a01b031603610d155760405162461bcd60e51b815260206004820152601960248201527822a9219b99189d1030b8383937bb32903a379031b0b63632b960391b6044820152606401610429565b6001600160a01b03838116600081815260056020908152604080832094871680845294825291829020805460ff191686151590811790915591519182527f17307eab39ab6107e8899845ad3d59bd9653f200f220920489ca2b5937696c31910160405180910390a3505050565b610d8d8484846108ff565b610d9984848484610e47565b6106dd5760405162461bcd60e51b81526004016104299061144f565b60606000610dc283610f48565b60010190506000816001600160401b03811115610de157610de16111a1565b6040519080825280601f01601f191660200182016040528015610e0b576020820181803683370190505b5090508181016020015b600019016f181899199a1a9b1b9c1cb0b131b232b360811b600a86061a8153600a8504945084610e1557509392505050565b60006001600160a01b0384163b15610f3d57604051630a85bd0160e11b81526001600160a01b0385169063150b7a0290610e8b9033908990889088906004016114a1565b6020604051808303816000875af1925050508015610ec6575060408051601f3d908101601f19168201909252610ec3918101906114de565b60015b610f23573d808015610ef4576040519150601f19603f3d011682016040523d82523d6000602084013e610ef9565b606091505b508051600003610f1b5760405162461bcd60e51b81526004016104299061144f565b805181602001fd5b6001600160e01b031916630a85bd0160e11b1490506108f7565b506001949350505050565b60008072184f03e93ff9f4daa797ed6e38ed64bf6a1f0160401b8310610f875772184f03e93ff9f4daa797ed6e38ed64bf6a1f0160401b830492506040015b6904ee2d6d415b85acef8160201b8310610fb1576904ee2d6d415b85acef8160201b830492506020015b662386f26fc100008310610fcf57662386f26fc10000830492506010015b6305f5e1008310610fe7576305f5e100830492506008015b6127108310610ffb57612710830492506004015b6064831061100d576064830492506002015b600a83106102f65760010192915050565b6001600160e01b03198116811461057257600080fd5b60006020828403121561104657600080fd5b81356107508161101e565b60005b8381101561106c578181015183820152602001611054565b50506000910152565b6000815180845261108d816020860160208601611051565b601f01601f19169290920160200192915050565b6020815260006107506020830184611075565b6000602082840312156110c657600080fd5b5035919050565b80356001600160a01b03811681146105df57600080fd5b600080604083850312156110f757600080fd5b611100836110cd565b946020939093013593505050565b60008060006060848603121561112357600080fd5b61112c846110cd565b925061113a602085016110cd565b9150604084013590509250925092565b60006020828403121561115c57600080fd5b610750826110cd565b6000806040838503121561117857600080fd5b611181836110cd565b91506020830135801515811461119657600080fd5b809150509250929050565b634e487b7160e01b600052604160045260246000fd5b600080600080608085870312156111cd57600080fd5b6111d6856110cd565b93506111e4602086016110cd565b92506040850135915060608501356001600160401b038082111561120757600080fd5b818701915087601f83011261121b57600080fd5b81358181111561122d5761122d6111a1565b604051601f8201601f19908116603f01168101908382118183101715611255576112556111a1565b816040528281528a602084870101111561126e57600080fd5b82602086016020830137600060208483010152809550505050505092959194509250565b600080604083850312156112a557600080fd5b6112ae836110cd565b91506112bc602084016110cd565b90509250929050565b600181811c908216806112d957607f821691505b6020821081036112f957634e487b7160e01b600052602260045260246000fd5b50919050565b6020808252602d908201527f4552433732313a2063616c6c6572206973206e6f7420746f6b656e206f776e6560408201526c1c881bdc88185c1c1c9bdd9959609a1b606082015260800190565b602080825260189082015277115490cdcc8c4e881a5b9d985b1a59081d1bdad95b88125160421b604082015260600190565b60006001820161139e57634e487b7160e01b600052601160045260246000fd5b5060010190565b600083516113b7818460208801611051565b8351908301906113cb818360208801611051565b01949350505050565b60208082526025908201527f4552433732313a207472616e736665722066726f6d20696e636f72726563742060408201526437bbb732b960d91b606082015260800190565b6020808252601c908201527b115490cdcc8c4e881d1bdad95b88185b1c9958591e481b5a5b9d195960221b604082015260600190565b60208082526032908201527f4552433732313a207472616e7366657220746f206e6f6e20455243373231526560408201527131b2b4bb32b91034b6b83632b6b2b73a32b960711b606082015260800190565b6001600160a01b03858116825284166020820152604081018390526080606082018190526000906114d490830184611075565b9695505050505050565b6000602082840312156114f057600080fd5b81516107508161101e56feddf252ad1be2c89b69c2b068fc378daa952ba7f163c4a11628f55a4df523b3efa2646970667358221220a9d005bc7379b1c8f8eee299c4fc23894704810e1a10a15234cecb2cf0b58c1864736f6c63430008140033",
  "linkReferences": {},
  "deployedLinkReferences": {}
}