{
  "_format": "hh-sol-artifact-1",
  "contractName": "PropertyMarketTimelock",
  "sourceName": "contracts/governance/PropertyTimelock.sol",
  "abi": [
    {
      "inputs": [
        {
          "internalType": "address[]",
          "name": "proposers",
          "type": "address[]"
        },
        {
          "internalType": "address[]",
          "name": "executors",
          "type": "address[]"
        },
        {
          "internalType": "address",
          "name": "admin",
          "type": "address"
        }
      ],
      "stateMutability": "nonpayable",
      "type": "constructor"
    },
    {
      "anonymous": false,
      "inputs": [
        {
          "indexed": true,
          "internalType": "bytes32",
          "name": "id",
          "type": "bytes32"
        },
        {
          "indexed": true,
          "internalType": "uint256",
          "name": "index",
          "type": "uint256"
        },
        {
          "indexed": false,
          "internalType": "address",
          "name": "target",
          "type": "address"
        },
        {
          "indexed": false,
          "internalType": "uint256",
          "name": "value",
          "type": "uint256"
        },
        {
          "indexed": false,
          "internalType": "bytes",
          "name": "data",
          "type": "bytes"
        }
      ],
      "name": "CallExecuted",
      "type": "event"
    },
    {
      "anonymous": false,
      "inputs": [
        {
          "indexed": true,
          "internalType": "bytes32",
          "name": "id",
          "type": "bytes32"
        },
        {
          "indexed": false,
          "internalType": "bytes32",
          "name": "salt",
          "type": "bytes32"
        }
      ],
      "name": "CallSalt",
      "type": "event"
    },
    {
      "anonymous": false,
      "inputs": [
        {
          "indexed": true,
          "internalType": "bytes32",
          "name": "id",
          "type": "bytes32"
        },
        {
          "indexed": true,
          "internalType": "uint256",
          "name": "index",
          "type": "uint256"
        },
        {
          "indexed": false,
          "internalType": "address",
          "name": "target",
          "type": "address"
        },
        {
          "indexed": false,
          "internalType": "uint256",
          "name": "value",
          "type": "uint256"
        },
        {
          "indexed": false,
          "internalType": "bytes",
          "name": "data",
          "type": "bytes"
        },
        {
          "indexed": false,
          "internalType": "bytes32",
          "name": "predecessor",
          "type": "bytes32"
        },
        {
          "indexed": false,
          "internalType": "uint256",
          "name": "delay",
          "type": "uint256"
        }
      ],
      "name": "CallScheduled",
      "type": "event"
    },
    {
      "anonymous": false,
      "inputs": [
        {
          "indexed": true,
          "internalType": "bytes32",
          "name": "id",
          "type": "bytes32"
        }
      ],
      "name": "Cancelled",
      "type": "event"
    },
    {
      "anonymous": false,
      "inputs": [
        {
          "indexed": false,
          "internalType": "uint256",
          "name": "oldDuration",
          "type": "uint256"
        },
        {
          "indexed": false,
          "internalType": "uint256",
          "name": "newDuration",
          "type": "uint256"
        }
      ],
      "name": "MinDelayChange",
      "type": "event"
    },
    {
      "anonymous": false,
      "inputs": [
        {
          "indexed": true,
          "internalType": "bytes32",
          "name": "role",
          "type": "bytes32"
        },
        {
          "indexed": true,
          "internalType": "bytes32",
          "name": "previousAdminRole",
          "type": "bytes32"
        },
        {
          "indexed": true,
          "internalType": "bytes32",
          "name": "newAdminRole",
          "type": "bytes32"
        }
      ],
      "name": "RoleAdminChanged",
      "type": "event"
    },
    {
      "anonymous": false,
      "inputs": [
        {
          "indexed": true,
          "internalType": "bytes32",
          "name": "role",
          "type": "bytes32"
        },
        {
          "indexed": true,
          "internalType": "address",
          "name": "account",
          "type": "address"
        },
        {
          "indexed": true,
          "internalType": "address",
          "name": "sender",
          "type": "address"
        }
      ],
      "name": "RoleGranted",
      "type": "event"
    },
    {
      "anonymous": false,
      "inputs": [
        {
          "indexed": true,
          "internalType": "bytes32",
          "name": "role",
          "type": "bytes32"
        },
        {
          "indexed": true,
          "internalType": "address",
          "name": "account",
          "type": "address"
        },
        {
          "indexed": true,
          "internalType": "address",
          "name": "sender",
          "type": "address"
        }
      ],
      "name": "RoleRevoked",
      "type": "event"
    },
    {
      "anonymous": false,
      "inputs": [
        {
          "indexed": true,
          "internalType": "bytes32",
          "name": "id",
          "type": "bytes32"
        },
        {
          "indexed": true,
          "internalType": "address",
          "name": "target",
          "type": "address"
        },
        {
          "indexed": false,
          "internalType": "bytes4",
          "name": "selector",
          "type": "bytes4"
        },
        {
          "indexed": false,
          "internalType": "string",
          "name": "operation",
          "type": "string"
        }
      ],
      "name": "SensitiveOperationExecuted",
      "type": "event"
    },
    {
      "anonymous": false,
      "inputs": [
        {
          "indexed": true,
          "internalType": "bytes32",
          "name": "id",
          "type": "bytes32"
        },
        {
          "indexed": true,
          "internalType": "uint256",
          "name": "delay",
          "type": "uint256"
        },
        {
          "indexed": true,
          "internalType": "address",
          "name": "target",
          "type": "address"
        },
        {
          "indexed": false,
          "internalType": "bytes4",
          "name": "selector",
          "type": "bytes4"
        },
        {
          "indexed": false,
          "internalType": "string",
          "name": "operation",
          "type": "string"
        }
      ],
      "name": "SensitiveOperationScheduled",
      "type": "event"
    },
    {
      "inputs": [],
      "name": "CANCELLER_ROLE",
      "outputs": [
        {
          "internalType": "bytes32",
          "name": "",
          "type": "bytes32"
        }
      ],
      "stateMutability": "view",
      "type": "function"
    },
    {
      "inputs": [],
      "name": "DEFAULT_ADMIN_ROLE",
      "outputs": [
        {
          "internalType": "bytes32",
          "name": "",
          "type": "bytes32"
        }
      ],
      "stateMutability": "view",
      "type": "function"
    },
    {
      "inputs": [],
      "name": "EXECUTOR_ROLE",
      "outputs": [
        {
          "internalType": "bytes32",
          "name": "",
          "type": "bytes32"
        }
      ],
      "stateMutability": "view",
      "type": "function"
    },
    {
      "inputs": [],
      "name": "MIN_DELAY",
      "outputs": [
        {
          "internalType": "uint256",
          "name": "",
          "type": "uint256"
        }
      ],
      "stateMutability": "view",
      "type": "function"
    },
    {
      "inputs": [],
      "name": "PROPOSER_ROLE",
      "outputs": [
        {
          "internalType": "bytes32",
          "name": "",
          "type": "bytes32"
        }
      ],
      "stateMutability": "view",
      "type": "function"
    },
    {
      "inputs": [],
      "name": "TIMELOCK_ADMIN_ROLE",
      "outputs": [
        {
          "internalType": "bytes32",
          "name": "",
          "type": "bytes32"
        }
      ],
      "stateMutability": "view",
      "type": "function"
    },
    {
      "inputs": [
        {
          "internalType": "bytes32",
          "name": "id",
          "type": "bytes32"
        }
      ],
      "name": "cancel",
      "outputs": [],
      "stateMutability": "nonpayable",
      "type": "function"
    },
    {
      "inputs": [
        {
          "internalType": "address",
          "name": "target",
          "type": "address"
        },
        {
          "internalType": "uint256",
          "name": "value",
          "type": "uint256"
        },
        {
          "internalType": "bytes",
          "name": "data",
          "type": "bytes"
        },
        {
          "internalType": "bytes32",
          "name": "predecessor",
          "type": "bytes32"
        },
        {
          "internalType": "bytes32",
          "name": "salt",
          "type": "bytes32"
        }
      ],
      "name": "checkOperationReady",
      "outputs": [
        {
          "internalType": "bool",
          "name": "",
          "type": "bool"
        }
      ],
      "stateMutability": "view",
      "type": "function"
    },
    {
      "inputs": [
        {
          "internalType": "address",
          "name": "target",
          "type": "address"
        },
        {
          "internalType": "uint256",
          "name": "value",
          "type": "uint256"
        },
        {
          "internalType": "bytes",
          "name": "payload",
          "type": "bytes"
        },
        {
          "internalType": "bytes32",
          "name": "predecessor",
          "type": "bytes32"
        },
        {
          "internalType": "bytes32",
          "name": "salt",
          "type": "bytes32"
        }
      ],
      "name": "execute",
      "outputs": [],
      "stateMutability": "payable",
      "type": "function"
    },
    {
      "inputs": [
        {
          "internalType": "address[]",
          "name": "targets",
          "type": "address[]"
        },
        {
          "internalType": "uint256[]",
          "name": "values",
          "type": "uint256[]"
        },
        {
          "internalType": "bytes[]",
          "name": "payloads",
          "type": "bytes[]"
        },
        {
          "internalType": "bytes32",
          "name": "predecessor",
          "type": "bytes32"
        },
        {
          "internalType": "bytes32",
          "name": "salt",
          "type": "bytes32"
        }
      ],
      "name": "executeBatch",
      "outputs": [],
      "stateMutability": "payable",
      "type": "function"
    },
    {
      "inputs": [
        {
          "internalType": "address",
          "name": "target",
          "type": "address"
        },
        {
          "internalType": "uint256",
          "name": "value",
          "type": "uint256"
        },
        {
          "internalType": "bytes",
          "name": "data",
          "type": "bytes"
        },
        {
          "internalType": "bytes32",
          "name": "predecessor",
          "type": "bytes32"
        },
        {
          "internalType": "bytes32",
          "name": "salt",
          "type": "bytes32"
        },
        {
          "internalType": "string",
          "name": "operationName",
          "type": "string"
        }
      ],
      "name": "executeSensitiveOperation",
      "outputs": [],
      "stateMutability": "nonpayable",
      "type": "function"
    },
    {
      "inputs": [],
      "name": "getMinDelay",
      "outputs": [
        {
          "internalType": "uint256",
          "name": "",
          "type": "uint256"
        }
      ],
      "stateMutability": "view",
      "type": "function"
    },
    {
      "inputs": [
        {
          "internalType": "address",
          "name": "target",
          "type": "address"
        },
        {
          "internalType": "uint256",
          "name": "value",
          "type": "uint256"
        },
        {
          "internalType": "bytes",
          "name": "data",
          "type": "bytes"
        },
        {
          "internalType": "bytes32",
          "name": "predecessor",
          "type": "bytes32"
        },
        {
          "internalType": "bytes32",
          "name": "salt",
          "type": "bytes32"
        }
      ],
      "name": "getOperationTimestamp",
      "outputs": [
        {
          "internalType": "uint256",
          "name": "timestamp",
          "type": "uint256"
        }
      ],
      "stateMutability": "view",
      "type": "function"
    },
    {
      "inputs": [
        {
          "internalType": "bytes32",
          "name": "role",
          "type": "bytes32"
        }
      ],
      "name": "getRoleAdmin",
      "outputs": [
        {
          "internalType": "bytes32",
          "name": "",
          "type": "bytes32"
        }
      ],
      "stateMutability": "view",
      "type": "function"
    },
    {
      "inputs": [
        {
          "internalType": "bytes32",
          "name": "id",
          "type": "bytes32"
        }
      ],
      "name": "getTimestamp",
      "outputs": [
        {
          "internalType": "uint256",
          "name": "",
          "type": "uint256"
        }
      ],
      "stateMutability": "view",
      "type": "function"
    },
    {
      "inputs": [
        {
          "internalType": "bytes32",
          "name": "role",
          "type": "bytes32"
        },
        {
          "internalType": "address",
          "name": "account",
          "type": "address"
        }
      ],
      "name": "grantRole",
      "outputs": [],
      "stateMutability": "nonpayable",
      "type": "function"
    },
    {
      "inputs": [
        {
          "internalType": "bytes32",
          "name": "role",
          "type": "bytes32"
        },
        {
          "internalType": "address",
          "name": "account",
          "type": "address"
        }
      ],
      "name": "hasRole",
      "outputs": [
        {
          "internalType": "bool",
          "name": "",
          "type": "bool"
        }
      ],
      "stateMutability": "view",
      "type": "function"
    },
    {
      "inputs": [
        {
          "internalType": "address",
          "name": "target",
          "type": "address"
        },
        {
          "internalType": "uint256",
          "name": "value",
          "type": "uint256"
        },
        {
          "internalType": "bytes",
          "name": "data",
          "type": "bytes"
        },
        {
          "internalType": "bytes32",
          "name": "predecessor",
          "type": "bytes32"
        },
        {
          "internalType": "bytes32",
          "name": "salt",
          "type": "bytes32"
        }
      ],
      "name": "hashOperation",
      "outputs": [
        {
          "internalType": "bytes32",
          "name": "",
          "type": "bytes32"
        }
      ],
      "stateMutability": "pure",
      "type": "function"
    },
    {
      "inputs": [
        {
          "internalType": "address[]",
          "name": "targets",
          "type": "address[]"
        },
        {
          "internalType": "uint256[]",
          "name": "values",
          "type": "uint256[]"
        },
        {
          "internalType": "bytes[]",
          "name": "payloads",
          "type": "bytes[]"
        },
        {
          "internalType": "bytes32",
          "name": "predecessor",
          "type": "bytes32"
        },
        {
          "internalType": "bytes32",
          "name": "salt",
          "type": "bytes32"
        }
      ],
      "name": "hashOperationBatch",
      "outputs": [
        {
          "internalType": "bytes32",
          "name": "",
          "type": "bytes32"
        }
      ],
      "stateMutability": "pure",
      "type": "function"
    },
    {
      "inputs": [
        {
          "internalType": "bytes32",
          "name": "id",
          "type": "bytes32"
        }
      ],
      "name": "isOperation",
      "outputs": [
        {
          "internalType": "bool",
          "name": "",
          "type": "bool"
        }
      ],
      "stateMutability": "view",
      "type": "function"
    },
    {
      "inputs": [
        {
          "internalType": "bytes32",
          "name": "id",
          "type": "bytes32"
        }
      ],
      "name": "isOperationDone",
      "outputs": [
        {
          "internalType": "bool",
          "name": "",
          "type": "bool"
        }
      ],
      "stateMutability": "view",
      "type": "function"
    },
    {
      "inputs": [
        {
          "internalType": "bytes32",
          "name": "id",
          "type": "bytes32"
        }
      ],
      "name": "isOperationPending",
      "outputs": [
        {
          "internalType": "bool",
          "name": "",
          "type": "bool"
        }
      ],
      "stateMutability": "view",
      "type": "function"
    },
    {
      "inputs": [
        {
          "internalType": "bytes32",
          "name": "id",
          "type": "bytes32"
        }
      ],
      "name": "isOperationReady",
      "outputs": [
        {
          "internalType": "bool",
          "name": "",
          "type": "bool"
        }
      ],
      "stateMutability": "view",
      "type": "function"
    },
    {
      "inputs": [
        {
          "internalType": "address",
          "name": "",
          "type": "address"
        },
        {
          "internalType": "address",
          "name": "",
          "type": "address"
        },
        {
          "internalType": "uint256[]",
          "name": "",
          "type": "uint256[]"
        },
        {
          "internalType": "uint256[]",
          "name": "",
          "type": "uint256[]"
        },
        {
          "internalType": "bytes",
          "name": "",
          "type": "bytes"
        }
      ],
      "name": "onERC1155BatchReceived",
      "outputs": [
        {
          "internalType": "bytes4",
          "name": "",
          "type": "bytes4"
        }
      ],
      "stateMutability": "nonpayable",
      "type": "function"
    },
    {
      "inputs": [
        {
          "internalType": "address",
          "name": "",
          "type": "address"
        },
        {
          "internalType": "address",
          "name": "",
          "type": "address"
        },
        {
          "internalType": "uint256",
          "name": "",
          "type": "uint256"
        },
        {
          "internalType": "uint256",
          "name": "",
          "type": "uint256"
        },
        {
          "internalType": "bytes",
          "name": "",
          "type": "bytes"
        }
      ],
      "name": "onERC1155Received",
      "outputs": [
        {
          "internalType": "bytes4",
          "name": "",
          "type": "bytes4"
        }
      ],
      "stateMutability": "nonpayable",
      "type": "function"
    },
    {
      "inputs": [
        {
          "internalType": "address",
          "name": "",
          "type": "address"
        },
        {
          "internalType": "address",
          "name": "",
          "type": "address"
        },
        {
          "internalType": "uint256",
          "name": "",
          "type": "uint256"
        },
        {
          "internalType": "bytes",
          "name": "",
          "type": "bytes"
        }
      ],
      "name": "onERC721Received",
      "outputs": [
        {
          "internalType": "bytes4",
          "name": "",
          "type": "bytes4"
        }
      ],
      "stateMutability": "nonpayable",
      "type": "function"
    },
    {
      "inputs": [
        {
          "internalType": "bytes32",
          "name": "role",
          "type": "bytes32"
        },
        {
          "internalType": "address",
          "name": "account",
          "type": "address"
        }
      ],
      "name": "renounceRole",
      "outputs": [],
      "stateMutability": "nonpayable",
      "type": "function"
    },
    {
      "inputs": [
        {
          "internalType": "bytes32",
          "name": "role",
          "type": "bytes32"
        },
        {
          "internalType": "address",
          "name": "account",
          "type": "address"
        }
      ],
      "name": "revokeRole",
      "outputs": [],
      "stateMutability": "nonpayable",
      "type": "function"
    },
    {
      "inputs": [
        {
          "internalType": "address",
          "name": "target",
          "type": "address"
        },
        {
          "internalType": "uint256",
          "name": "value",
          "type": "uint256"
        },
        {
          "internalType": "bytes",
          "name": "data",
          "type": "bytes"
        },
        {
          "internalType": "bytes32",
          "name": "predecessor",
          "type": "bytes32"
        },
        {
          "internalType": "bytes32",
          "name": "salt",
          "type": "bytes32"
        },
        {
          "internalType": "uint256",
          "name": "delay",
          "type": "uint256"
        }
      ],
      "name": "schedule",
      "outputs": [],
      "stateMutability": "nonpayable",
      "type": "function"
    },
    {
      "inputs": [
        {
          "internalType": "address[]",
          "name": "targets",
          "type": "address[]"
        },
        {
          "internalType": "uint256[]",
          "name": "values",
          "type": "uint256[]"
        },
        {
          "internalType": "bytes[]",
          "name": "payloads",
          "type": "bytes[]"
        },
        {
          "internalType": "bytes32",
          "name": "predecessor",
          "type": "bytes32"
        },
        {
          "internalType": "bytes32",
          "name": "salt",
          "type": "bytes32"
        },
        {
          "internalType": "uint256",
          "name": "delay",
          "type": "uint256"
        }
      ],
      "name": "scheduleBatch",
      "outputs": [],
      "stateMutability": "nonpayable",
      "type": "function"
    },
    {
      "inputs": [
        {
          "internalType": "address",
          "name": "target",
          "type": "address"
        },
        {
          "internalType": "uint256",
          "name": "value",
          "type": "uint256"
        },
        {
          "internalType": "bytes",
          "name": "data",
          "type": "bytes"
        },
        {
          "internalType": "bytes32",
          "name": "predecessor",
          "type": "bytes32"
        },
        {
          "internalType": "bytes32",
          "name": "salt",
          "type": "bytes32"
        },
        {
          "internalType": "string",
          "name": "operationName",
          "type": "string"
        }
      ],
      "name": "scheduleSensitiveOperation",
      "outputs": [],
      "stateMutability": "nonpayable",
      "type": "function"
    },
    {
      "inputs": [
        {
          "internalType": "bytes4",
          "name": "interfaceId",
          "type": "bytes4"
        }
      ],
      "name": "supportsInterface",
      "outputs": [
        {
          "internalType": "bool",
          "name": "",
          "type": "bool"
        }
      ],
      "stateMutability": "view",
      "type": "function"
    },
    {
      "inputs": [
        {
          "internalType": "uint256",
          "name": "newDelay",
          "type": "uint256"
        }
      ],
      "name": "updateDelay",
      "outputs": [],
      "stateMutability": "nonpayable",
      "type": "function"
    },
    {
      "stateMutability": "payable",
      "type": "receive"
    }
  ],
  "bytecode": "0x604060808152346200044657620026b7803803806200001e816200044b565b9283398101606082820312620004465781516001600160401b039290838111620004465782620000509183016200049c565b926020928383015191821162000446576200007386916200007b9385016200049c565b920162000487565b7f5f58e3a2316349923ce3780f8d587db2d72378aed66a8261c916544fa6846ca56000948186528585526001928388882001918383549355837fbd79b86ffe0ab8e8776151514217cd7cacd52c909f66475c3af44e129f0b00ff9381858b80a4848080868b8d887fb09aa5aeb3702cfd50b6b62bc4532604938f21248a27a1d5ca736082b6819cc194859283855284200192848454945580a4868b8d7fd8aa0f3194971a2a116679f7c2090f6939c8d4e01a2a8d7e41d55e5351469e639889835283868385200181815491558b838680a47ffd643c72710c63c0180259aba6b2d05451e3591a24e58b62239378085726f78395869283855284200192848454945580a4868b528b8b20308c528a528a8c60ff98898284205416156200040f575b6001600160a01b03978816918d83620003ba575b509c9b9a999897969583925090505b620002ae575b935087925050505b62000217575b877f11c24f4ead16507c69ac467fbd5e4eed5fb5c699626d2cc6d66421df253886d5818b8a6202a30090816002558351928352820152a1516121379081620005608239f35b909192939495968651821015620002a65750906200026182826200023d88958a62000534565b5116858b528a8a528b8b20818c528a52868c8c205416156200026e575b506200050e565b89979695949392620001cc565b858b528a8a528b8b20818c528a528b8b20805460ff191686179055339086600080516020620026978339815191528d80a4386200025a565b9695620001d2565b8a899a9b9c869798999a9651841015620003ab579083929189620002d76200032a968b62000534565b511686845283835281842081855283528c82852054161562000373575b508962000302858b62000534565b51169187845283815281842083855281528c8285205416156200033a575b505050506200050e565b8b8d9b9a999897969594620001be565b878452838152818420908385525282208760ff198254161790558560008051602062002697833981519152339380a48c388f8e62000320565b8684528383528184208185528352818420805460ff19168a179055339087600080516020620026978339815191528680a438620002f4565b9c509a999897969550620001c4565b8490838252528d81852090848652528d8b8286205416620001af578285528490528084208385528e528320805460ff1916871790553392600080516020620026978339815191529080a48a38808e8d620001af565b808352828d528183203084528d528183208660ff19825416179055333082600080516020620026978339815191528680a46200019b565b600080fd5b6040519190601f01601f191682016001600160401b038111838210176200047157604052565b634e487b7160e01b600052604160045260246000fd5b51906001600160a01b03821682036200044657565b81601f8201121562000446578051916001600160401b03831162000471578260051b6020928380620004d08185016200044b565b80978152019282010192831162000446578301905b828210620004f4575050505090565b838091620005028462000487565b815201910190620004e5565b60001981146200051e5760010190565b634e487b7160e01b600052601160045260246000fd5b8051821015620005495760209160051b010190565b634e487b7160e01b600052603260045260246000fdfe608060405260048036101561001d575b50361561001b57600080fd5b005b600090813560e01c90816301d5062a146110ae57816301ffc9a71461103e57816307bd0265146110155781630d3cf6fc14610fda578163134008d314610f5257816313bc9f2014610f34578163150b7a0214610ede5781631e3dd56114610dc8578163248a9ca314610d9c5781632ab0f52914610d6f5781632d5d9d8114610b8a5781632f2ff15d14610adb57816331d5075014610abd57816332a625d614610a9657816336568abe14610a05578163584b153e146109d857816364d623531461092a5781638065657f146109165781638f2a0bb0146107ed5781638f61f4f5146107c457816391d148541461077b5781639f81aed71461075d578163a217fddf14610741578163b08e51c014610718578163b1c5f427146106ed578163bc197c8114610662578163be60a5c314610630578163c4d252f51461037d578163d45c443514610353578163d547741f14610314578163e38335e51461020f578163f23a6e61146101b1575063f27a0c920361000f57346101ae57806003193601126101ae576020600254604051908152f35b80fd5b90503461020b5760a036600319011261020b576101cc611167565b506101d5611182565b506084356001600160401b038111610207576101f49250369101611282565b5060405163f23a6e6160e01b8152602090f35b8280fd5b5080fd5b8261028260ff604061027b8461022436611363565b92848688849f989c979a9e8f90859f8e899f600080516020612062833981519152909a999a528060205281812081805260205220541615610306575b61026b848314611af5565b610276868314611af5565b61197f565b9788611de0565b875b818110610298578861029589611e76565b80f35b80808960008051602061202283398151915289896102f96102e0868f6102d9828f928f908f6103019f6102ce916102d393611b72565b611b98565b97611b72565b3595611bac565b906102ed82828787611cd2565b60405194859485611cab565b0390a3611b4d565b610284565b61030f3361161f565b610260565b90503461020b57604036600319011261020b576102959035610334611182565b908084528360205261034e60016040862001543390611752565b61185e565b90503461020b57602036600319011261020b57602091604091358152600183522054604051908152f35b90503461020b57602080600319360112610207578135916000805160206120c283398151915280855284835260408520338652835260ff6040862054161561046e57506103d883600052600160205260016040600020541190565b156104125750600190828452528160408120557fbaa1eb22f2a492ba1a5fea61b8df4d27c6c8b5f3971e63bb58fa14ff72eedb708280a280f35b6084916040519162461bcd60e51b8352820152603160248201527f54696d656c6f636b436f6e74726f6c6c65723a206f7065726174696f6e2063616044820152701b9b9bdd0818994818d85b98d95b1b1959607a1b6064820152fd5b8461047833611ea5565b916040519061048682611213565b6042825285820192606036853782511561061d576030845382519060019182101561060a5790607860218501536041915b81831161059f5750505061056f57604493929161053d60486105619360405193849161052e8b8401986000805160206120028339815191528a526105058d825192839160378901910161142a565b8401917001034b99036b4b9b9b4b733903937b6329607d1b60378401525180938684019061142a565b01036028810184520182611244565b60405195869462461bcd60e51b86528501525180928160248601528585019061142a565b601f01601f19168101030190fd5b60648486806040519262461bcd60e51b84528301526024820152600080516020611fc28339815191526044820152fd5b909192600f811660108110156105f7576f181899199a1a9b1b9c1cb0b131b232b360811b901a6105cf8587611e94565b53871c9280156105e4576000190191906104b7565b634e487b7160e01b825260118852602482fd5b634e487b7160e01b835260328952602483fd5b634e487b7160e01b815260328752602490fd5b634e487b7160e01b815260328652602490fd5b82346101ae576020610658610653610647366111c5565b9493909392919261192a565b6118e5565b6040519015158152f35b90503461020b5760a036600319011261020b5761067d611167565b50610686611182565b506001600160401b036044358181116106e9576106a690369084016113c4565b506064358181116106e9576106be90369084016113c4565b50608435908111610207576106d69250369101611282565b5060405163bc197c8160e01b8152602090f35b8380fd5b82346101ae57602061071061070136611363565b9695909594919493929361197f565b604051908152f35b82346101ae57806003193601126101ae5760206040516000805160206120c28339815191528152f35b82346101ae57806003193601126101ae57602090604051908152f35b82346101ae57806003193601126101ae5760206040516202a3008152f35b90503461020b57604036600319011261020b57604060209260ff9261079e611182565b903582528185528282206001600160a01b03909116825284522054604051911615158152f35b82346101ae57806003193601126101ae5760206040516000805160206120428339815191528152f35b90503461020b5760c036600319011261020b576001600160401b039080358281116106e95761081f9036908301611333565b92602435818111610912576108379036908501611333565b91909360443591821161090e5761085384918693369101611333565b6064949194359161087589848489856084359d8e9560a4359b6102603361144d565b98610880858b611bed565b898b5b8281106108b5578c828c80610896578280f35b60206000805160206120e283398151915291604051908152a281808280f35b80610907926000805160206120828339815191528b8b6102f98f8c6108fa8f928e6108f38f8f906108ed6102ce8f8097948195611b72565b99611b72565b3597611bac565b9060405196879687611abd565b8a90610883565b8680fd5b8580fd5b82346101ae576020610710610647366111c5565b90503461020b57602036600319011261020b5780359030330361098057507f11c24f4ead16507c69ac467fbd5e4eed5fb5c699626d2cc6d66421df253886d560406002548151908152836020820152a160025580f35b60849060206040519162461bcd60e51b8352820152602b60248201527f54696d656c6f636b436f6e74726f6c6c65723a2063616c6c6572206d7573742060448201526a62652074696d656c6f636b60a81b6064820152fd5b82346101ae5760203660031901126101ae5760206106588335600052600160205260016040600020541190565b82346101ae5760403660031901126101ae57610a1f611182565b336001600160a01b03821603610a3a5761029591923561185e565b60405162461bcd60e51b8152602081850152602f60248201527f416363657373436f6e74726f6c3a2063616e206f6e6c792072656e6f756e636560448201526e103937b632b9903337b91039b2b63360891b6064820152608490fd5b82346101ae576040602091610aad610647366111c5565b8152600183522054604051908152f35b82346101ae5760203660031901126101ae57602061065883356118d2565b90503461020b57604036600319011261020b5735610af7611182565b81835282602052610b1060016040852001543390611752565b818352602083815260408085206001600160a01b039093168086529290915283205460ff1615610b3e578280f35b818352826020526040832081845260205260408320600160ff1982541617905533917f2f8788117e7eff1d82e926ec794901d17c78024a50270940304540a733656f0d8480a438808280f35b90503461020b57610b9a366112c9565b9093610bac989796989593953361144d565b610bba838783878d8c61192a565b96818911610d6b57610bd9848884888e610bd33361144d565b8661192a565b96610be3886118d2565b610d2157600254996202a3009a8b10610ce0578a420190814211610ccd5750918c9391899384865260016020526040862055604051928392600160a01b60019003169d8e845260208401526040830160a0905260a08301610c44918a611909565b9060608301528b60808301520360008051602061208283398151915291a37fe240a6d96e1255579a0615e21cef0805a588d5677aa1cdcbcef9c56b24ed36cc94610ca79280610cad575b5050604051938493356001600160e01b03191684611fa1565b0390a480f35b60206000805160206120e283398151915291604051908152a23880610c8e565b634e487b7160e01b8e526011905260248dfd5b60849060206040519162461bcd60e51b8352820152602660248201526000805160206120a28339815191526044820152652064656c617960d01b6064820152fd5b60405162461bcd60e51b81526020818c0152602f6024820152600080516020611fe283398151915260448201526e1c9958591e481cd8da19591d5b1959608a1b6064820152608490fd5b8a80fd5b82346101ae5760203660031901126101ae5760206106588335600052600160205260016040600020541490565b90503461020b57602036600319011261020b576040602092600192358152808452200154604051908152f35b90503461020b57610dfb9082610ddd366112c9565b93859a83858380979c959b9a9699610df43361161f565b878c61192a565b99116101ae577fd9de7b4a6557fa15be7db3616bbb6535916e7b3bf31876f111eafaf998ac5d4f976000805160206120228339815191528b84610e9e87610e91610ea69985610e8c9a8f610eca9f610e839060ff60408f60008051602061206283398151915281528060205281812081805260205220541615610ed0575b8c8686868661192a565b9c8d9b8c611de0565b611cd2565b6040519384938d85611cab565b0390a3611e76565b6040516001600160a01b039093169692938493356001600160e01b03191684611fa1565b0390a380f35b610ed93361161f565b610e79565b90503461020b57608036600319011261020b57610ef9611167565b50610f02611182565b506064356001600160401b03811161020757610f219250369101611282565b50604051630a85bd0160e11b8152602090f35b82346101ae5760203660031901126101ae57602061065883356118e5565b82610295610fc082610e9e600080516020612022833981519152610fb7610f78366111c5565b6000805160206120628339815191528a9995979299949394528960205260408a208a805260205260ff60408b20541615610fcc575b888484898961192a565b98899788611de0565b6102ed82828787611cd2565b610fd53361161f565b610fad565b82346101ae57806003193601126101ae5760206040517f5f58e3a2316349923ce3780f8d587db2d72378aed66a8261c916544fa6846ca58152f35b82346101ae57806003193601126101ae5760206040516000805160206120628339815191528152f35b90503461020b57602036600319011261020b573563ffffffff60e01b811680910361020b57602090630271189760e51b8114908115611083575b506040519015158152f35b637965db0b60e01b81149150811561109d575b5082611078565b6301ffc9a760e01b14905082611096565b90503461020b5760c036600319011261020b576110c9611167565b826024356044356001600160401b03811161020757600080516020612082833981519152946110fa91369101611198565b9490916064359461113c6084359660a435906111153361144d565b61112389828c8a898961192a565b998a97611130848a611bed565b60405196879687611abd565b0390a380611148578280f35b60206000805160206120e283398151915291604051908152a238808280f35b600435906001600160a01b038216820361117d57565b600080fd5b602435906001600160a01b038216820361117d57565b9181601f8401121561117d578235916001600160401b03831161117d576020838186019501011161117d57565b60a060031982011261117d576004356001600160a01b038116810361117d579160243591604435906001600160401b03821161117d5761120791600401611198565b90916064359060843590565b608081019081106001600160401b0382111761122e57604052565b634e487b7160e01b600052604160045260246000fd5b601f909101601f19168101906001600160401b0382119082101761122e57604052565b6001600160401b03811161122e57601f01601f191660200190565b81601f8201121561117d5780359061129982611267565b926112a76040519485611244565b8284526020838301011161117d57816000926020809301838601378301015290565b9060c060031983011261117d576004356001600160a01b038116810361117d5791602435916001600160401b0360443581811161117d578361130d91600401611198565b93909392606435926084359260a43591821161117d5761132f91600401611198565b9091565b9181601f8401121561117d578235916001600160401b03831161117d576020808501948460051b01011161117d57565b9060a060031983011261117d576001600160401b0360043581811161117d578361138f91600401611333565b9390939260243583811161117d57826113aa91600401611333565b9390939260443591821161117d5761120791600401611333565b9080601f8301121561117d578135906001600160401b03821161122e578160051b604051936020936113f885840187611244565b8552838086019282010192831161117d578301905b82821061141b575050505090565b8135815290830190830161140d565b60005b83811061143d5750506000910152565b818101518382015260200161142d565b6001600160a01b031660008181527f3412d5605ac6cd444957cedb533e5dacad6378b4bc819ebe3652188a665066d5602090815260408083205490936000805160206120428339815191529160ff16156114a8575050505050565b6114b190611ea5565b908451906114be82611213565b6042825283820194606036873782511561160b576030865382519060019182101561160b5790607860218501536041915b81831161159d5750505061156d5784611549604861056193604497985198899161153a898401986000805160206120028339815191528a52610505815180928d60378901910161142a565b01036028810189520187611244565b5194859362461bcd60e51b855260048501525180928160248601528585019061142a565b60648386519062461bcd60e51b82528060048301526024820152600080516020611fc28339815191526044820152fd5b909192600f811660108110156115f7576f181899199a1a9b1b9c1cb0b131b232b360811b901a6115cd8587611e94565b5360041c9280156115e3576000190191906114ef565b634e487b7160e01b82526011600452602482fd5b634e487b7160e01b83526032600452602483fd5b634e487b7160e01b81526032600452602490fd5b6001600160a01b031660008181527fdae2aa361dfd1ca020a396615627d436107c35eff9fe7738a3512819782d7069602090815260408083205490936000805160206120628339815191529160ff161561167a575050505050565b61168390611ea5565b9084519061169082611213565b6042825283820194606036873782511561160b576030865382519060019182101561160b5790607860218501536041915b81831161170c5750505061156d5784611549604861056193604497985198899161153a898401986000805160206120028339815191528a52610505815180928d60378901910161142a565b909192600f811660108110156115f7576f181899199a1a9b1b9c1cb0b131b232b360811b901a61173c8587611e94565b5360041c9280156115e3576000190191906116c1565b6000908082526020908282526040938484209060018060a01b031690818552835260ff858520541615611786575050505050565b61178f90611ea5565b9084519061179c82611213565b6042825283820194606036873782511561160b576030865382519060019182101561160b5790607860218501536041915b8183116118185750505061156d5784611549604861056193604497985198899161153a898401986000805160206120028339815191528a52610505815180928d60378901910161142a565b909192600f811660108110156115f7576f181899199a1a9b1b9c1cb0b131b232b360811b901a6118488587611e94565b5360041c9280156115e3576000190191906117cd565b9060009180835282602052604083209160018060a01b03169182845260205260ff60408420541661188e57505050565b80835282602052604083208284526020526040832060ff1981541690557ff6391f5c32d9c69d2a47ea670b442974b53935d1edc7fd64eb21e047a839171b339380a4565b6000526001602052604060002054151590565b6000526001602052604060002054600181119081611901575090565b905042101590565b908060209392818452848401376000828201840152601f01601f1916010190565b9461196061197994959293604051968795602087019960018060a01b03168a52604087015260a0606087015260c0860191611909565b91608084015260a083015203601f198101835282611244565b51902090565b969294909695919560405196602091828901998060c08b0160a08d525260e08a01919060005b818110611a9557505050601f19898203810160408b0152888252976001600160fb1b03811161117d579089969495939897929160051b80928a830137019380888601878703606089015252604085019460408260051b82010195836000925b848410611a2c575050505050506119799550608084015260a083015203908101835282611244565b9193969850919398999496603f198282030184528935601e198436030181121561117d5783018681019190356001600160401b03811161117d57803603831361117d57611a7e88928392600195611909565b9b0194019401918b98969394919a9997959a611a04565b90919283359060018060a01b03821680920361117d57908152850192850191906001016119a5565b929093611aeb926080959897969860018060a01b03168552602085015260a0604085015260a0840191611909565b9460608201520152565b15611afc57565b60405162461bcd60e51b815260206004820152602360248201527f54696d656c6f636b436f6e74726f6c6c65723a206c656e677468206d69736d616044820152620e8c6d60eb1b6064820152608490fd5b6000198114611b5c5760010190565b634e487b7160e01b600052601160045260246000fd5b9190811015611b825760051b0190565b634e487b7160e01b600052603260045260246000fd5b356001600160a01b038116810361117d5790565b9190811015611b825760051b81013590601e198136030182121561117d5701803591906001600160401b03831161117d57602001823603811361117d579190565b90611bf7826118d2565b611c60576002548110611c1e57420190814211611b5c576000526001602052604060002055565b60405162461bcd60e51b815260206004820152602660248201526000805160206120a28339815191526044820152652064656c617960d01b6064820152608490fd5b60405162461bcd60e51b815260206004820152602f6024820152600080516020611fe283398151915260448201526e1c9958591e481cd8da19591d5b1959608a1b6064820152608490fd5b611ccf949260609260018060a01b0316825260208201528160408201520191611909565b90565b90926000938493826040519384928337810185815203925af13d15611d7c573d611cfb81611267565b90611d096040519283611244565b8152600060203d92013e5b15611d1b57565b60405162461bcd60e51b815260206004820152603360248201527f54696d656c6f636b436f6e74726f6c6c65723a20756e6465726c79696e6720746044820152721c985b9cd858dd1a5bdb881c995d995c9d1959606a1b6064820152608490fd5b611d14565b15611d8857565b60405162461bcd60e51b815260206004820152602a60248201527f54696d656c6f636b436f6e74726f6c6c65723a206f7065726174696f6e206973604482015269206e6f7420726561647960b01b6064820152608490fd5b611dec611df1916118e5565b611d81565b8015908115611e57575b5015611e0357565b60405162461bcd60e51b815260206004820152602660248201527f54696d656c6f636b436f6e74726f6c6c65723a206d697373696e6720646570656044820152656e64656e637960d01b6064820152608490fd5b611e709150600052600160205260016040600020541490565b38611dfb565b611e82611dec826118e5565b60005260016020526001604060002055565b908151811015611b82570160200190565b60405190606082016001600160401b0381118382101761122e57604052602a8252602082016040368237825115611b8257603090538151600190811015611b8257607860218401536029905b808211611f33575050611f015790565b606460405162461bcd60e51b81526020600482015260206024820152600080516020611fc28339815191526044820152fd5b9091600f81166010811015611f8c576f181899199a1a9b1b9c1cb0b131b232b360811b901a611f628486611e94565b5360041c918015611f77576000190190611ef1565b60246000634e487b7160e01b81526011600452fd5b60246000634e487b7160e01b81526032600452fd5b604090611ccf949263ffffffff60e01b168152816020820152019161190956fe537472696e67733a20686578206c656e67746820696e73756666696369656e7454696d656c6f636b436f6e74726f6c6c65723a206f7065726174696f6e20616c416363657373436f6e74726f6c3a206163636f756e7420000000000000000000c2617efa69bab66782fa219543714338489c4e9e178271560a91b82c3f612b58b09aa5aeb3702cfd50b6b62bc4532604938f21248a27a1d5ca736082b6819cc1d8aa0f3194971a2a116679f7c2090f6939c8d4e01a2a8d7e41d55e5351469e634cf4410cc57040e44862ef0f45f3dd5a5e02db8eb8add648d4b0e236f1d07dca54696d656c6f636b436f6e74726f6c6c65723a20696e73756666696369656e74fd643c72710c63c0180259aba6b2d05451e3591a24e58b62239378085726f78320fda5fd27a1ea7bf5b9567f143ac5470bb059374a27e8f67cb44f946f6d0387a2646970667358221220846ba8ece921e456ed5caa8c2dd160afaadae2e30f88ad0022e1ec80864a6e8464736f6c634300081400332f8788117e7eff1d82e926ec794901d17c78024a50270940304540a733656f0d",
  "linkReferences": {},
  "deployedLinkReferences": {}
}