{
  "_format": "hh-sol-artifact-1",
  "contractName": "PropertyMarketTimelock",
  "sourceName": "contracts/governance/PropertyTimelock.sol",
  "abi": [
    {
      "inputs": [
        {
          "internalType": "address[]",
          "name": "proposers",
          "type": "address[]"
        },
        {
          "internalType": "address[]",
          "name": "executors",
          "type": "address[]"
        },
        {
          "internalType": "address",
          "name": "admin",
          "type": "address"
        }
      ],
      "stateMutability": "nonpayable",
      "type": "constructor"
    },
    {
      "anonymous": false,
      "inputs": [
        {
          "indexed": true,
          "internalType": "bytes32",
          "name": "id",
          "type": "bytes32"
        },
        {
          "indexed": true,
          "internalType": "uint256",
          "name": "index",
          "type": "uint256"
        },
        {
          "indexed": false,
          "internalType": "address",
          "name": "target",
          "type": "address"
        },
        {
          "indexed": false,
          "internalType": "uint256",
          "name": "value",
          "type": "uint256"
        },
        {
          "indexed": false,
          "internalType": "bytes",
          "name": "data",
          "type": "bytes"
        }
      ],
      "name": "CallExecuted",
      "type": "event"
    },
    {
      "anonymous": false,
      "inputs": [
        {
          "indexed": true,
          "internalType": "bytes32",
          "name": "id",
          "type": "bytes32"
        },
        {
          "indexed": false,
          "internalType": "bytes32",
          "name": "salt",
          "type": "bytes32"
        }
      ],
      "name": "CallSalt",
      "type": "event"
    },
    {
      "anonymous": false,
      "inputs": [
        {
          "indexed": true,
          "internalType": "bytes32",
          "name": "id",
          "type": "bytes32"
        },
        {
          "indexed": true,
          "internalType": "uint256",
          "name": "index",
          "type": "uint256"
        },
        {
          "indexed": false,
          "internalType": "address",
          "name": "target",
          "type": "address"
        },
        {
          "indexed": false,
          "internalType": "uint256",
          "name": "value",
          "type": "uint256"
        },
        {
          "indexed": false,
          "internalType": "bytes",
          "name": "data",
          "type": "bytes"
        },
        {
          "indexed": false,
          "internalType": "bytes32",
          "name": "predecessor",
          "type": "bytes32"
        },
        {
          "indexed": false,
          "internalType": "uint256",
          "name": "delay",
          "type": "uint256"
        }
      ],
      "name": "CallScheduled",
      "type": "event"
    },
    {
      "anonymous": false,
      "inputs": [
        {
          "indexed": true,
          "internalType": "bytes32",
          "name": "id",
          "type": "bytes32"
        }
      ],
      "name": "Cancelled",
      "type": "event"
    },
    {
      "anonymous": false,
      "inputs": [
        {
          "indexed": false,
          "internalType": "uint256",
          "name": "oldDuration",
          "type": "uint256"
        },
        {
          "indexed": false,
          "internalType": "uint256",
          "name": "newDuration",
          "type": "uint256"
        }
      ],
      "name": "MinDelayChange",
      "type": "event"
    },
    {
      "anonymous": false,
      "inputs": [
        {
          "indexed": true,
          "internalType": "bytes32",
          "name": "role",
          "type": "bytes32"
        },
        {
          "indexed": true,
          "internalType": "bytes32",
          "name": "previousAdminRole",
          "type": "bytes32"
        },
        {
          "indexed": true,
          "internalType": "bytes32",
          "name": "newAdminRole",
          "type": "bytes32"
        }
      ],
      "name": "RoleAdminChanged",
      "type": "event"
    },
    {
      "anonymous": false,
      "inputs": [
        {
          "indexed": true,
          "internalType": "bytes32",
          "name": "role",
          "type": "bytes32"
        },
        {
          "indexed": true,
          "internalType": "address",
          "name": "account",
          "type": "address"
        },
        {
          "indexed": true,
          "internalType": "address",
          "name": "sender",
          "type": "address"
        }
      ],
      "name": "RoleGranted",
      "type": "event"
    },
    {
      "anonymous": false,
      "inputs": [
        {
          "indexed": true,
          "internalType": "bytes32",
          "name": "role",
          "type": "bytes32"
        },
        {
          "indexed": true,
          "internalType": "address",
          "name": "account",
          "type": "address"
        },
        {
          "indexed": true,
          "internalType": "address",
          "name": "sender",
          "type": "address"
        }
      ],
      "name": "RoleRevoked",
      "type": "event"
    },
    {
      "anonymous": false,
      "inputs": [
        {
          "indexed": true,
          "internalType": "bytes32",
          "name": "id",
          "type": "bytes32"
        },
        {
          "indexed": true,
          "internalType": "address",
          "name": "target",
          "type": "address"
        },
        {
          "indexed": false,
          "internalType": "bytes4",
          "name": "selector",
          "type": "bytes4"
        },
        {
          "indexed": false,
          "internalType": "string",
          "name": "operation",
          "type": "string"
        }
      ],
      "name": "SensitiveOperationExecuted",
      "type": "event"
    },
    {
      "anonymous": false,
      "inputs": [
        {
          "indexed": true,
          "internalType": "bytes32",
          "name": "id",
          "type": "bytes32"
        },
        {
          "indexed": true,
          "internalType": "uint256",
          "name": "delay",
          "type": "uint256"
        },
        {
          "indexed": true,
          "internalType": "address",
          "name": "target",
          "type": "address"
        },
        {
          "indexed": false,
          "internalType": "bytes4",
          "name": "selector",
          "type": "bytes4"
        },
        {
          "indexed": false,
          "internalType": "string",
          "name": "operation",
          "type": "string"
        }
      ],
      "name": "SensitiveOperationScheduled",
      "type": "event"
    },
    {
      "inputs": [],
      "name": "CANCELLER_ROLE",
      "outputs": [
        {
          "internalType": "bytes32",
          "name": "",
          "type": "bytes32"
        }
      ],
      "stateMutability": "view",
      "type": "function"
    },
    {
      "inputs": [],
      "name": "DEFAULT_ADMIN_ROLE",
      "outputs": [
        {
          "internalType": "bytes32",
          "name": "",
          "type": "bytes32"
        }
      ],
      "stateMutability": "view",
      "type": "function"
    },
    {
      "inputs": [],
      "name": "EXECUTOR_ROLE",
      "outputs": [
        {
          "internalType": "bytes32",
          "name": "",
          "type": "bytes32"
        }
      ],
      "stateMutability": "view",
      "type": "function"
    },
    {
      "inputs": [],
      "name": "MIN_DELAY",
      "outputs": [
        {
          "internalType": "uint256",
          "name": "",
          "type": "uint256"
        }
      ],
      "stateMutability": "view",
      "type": "function"
    },
    {
      "inputs": [],
      "name": "PROPOSER_ROLE",
      "outputs": [
        {
          "internalType": "bytes32",
          "name": "",
          "type": "bytes32"
        }
      ],
      "stateMutability": "view",
      "type": "function"
    },
    {
      "inputs": [],
      "name": "TIMELOCK_ADMIN_ROLE",
      "outputs": [
        {
          "internalType": "bytes32",
          "name": "",
          "type": "bytes32"
        }
      ],
      "stateMutability": "view",
      "type": "function"
    },
    {
      "inputs": [
        {
          "internalType": "bytes32",
          "name": "id",
          "type": "bytes32"
        }
      ],
      "name": "cancel",
      "outputs": [],
      "stateMutability": "nonpayable",
      "type": "function"
    },
    {
      "inputs": [
        {
          "internalType": "address",
          "name": "target",
          "type": "address"
        },
        {
          "internalType": "uint256",
          "name": "value",
          "type": "uint256"
        },
        {
          "internalType": "bytes",
          "name": "data",
          "type": "bytes"
        },
        {
          "internalType": "bytes32",
          "name": "predecessor",
          "type": "bytes32"
        },
        {
          "internalType": "bytes32",
          "name": "salt",
          "type": "bytes32"
        }
      ],
      "name": "checkOperationReady",
      "outputs": [
        {
          "internalType": "bool",
          "name": "",
          "type": "bool"
        }
      ],
      "stateMutability": "view",
      "type": "function"
    },
    {
      "inputs": [
        {
          "internalType": "address",
          "name": "target",
          "type": "address"
        },
        {
          "internalType": "uint256",
          "name": "value",
          "type": "uint256"
        },
        {
          "internalType": "bytes",
          "name": "payload",
          "type": "bytes"
        },
        {
          "internalType": "bytes32",
          "name": "predecessor",
          "type": "bytes32"
        },
        {
          "internalType": "bytes32",
          "name": "salt",
          "type": "bytes32"
        }
      ],
      "name": "execute",
      "outputs": [],
      "stateMutability": "payable",
      "type": "function"
    },
    {
      "inputs": [
        {
          "internalType": "address[]",
          "name": "targets",
          "type": "address[]"
        },
        {
          "internalType": "uint256[]",
          "name": "values",
          "type": "uint256[]"
        },
        {
          "internalType": "bytes[]",
          "name": "payloads",
          "type": "bytes[]"
        },
        {
          "internalType": "bytes32",
          "name": "predecessor",
          "type": "bytes32"
        },
        {
          "internalType": "bytes32",
          "name": "salt",
          "type": "bytes32"
        }
      ],
      "name": "executeBatch",
      "outputs": [],
      "stateMutability": "payable",
      "type": "function"
    },
    {
      "inputs": [
        {
          "internalType": "address",
          "name": "target",
          "type": "address"
        },
        {
          "internalType": "uint256",
          "name": "value",
          "type": "uint256"
        },
        {
          "internalType": "bytes",
          "name": "data",
          "type": "bytes"
        },
        {
          "internalType": "bytes32",
          "name": "predecessor",
          "type": "bytes32"
        },
        {
          "internalType": "bytes32",
          "name": "salt",
          "type": "bytes32"
        },
        {
          "internalType": "string",
          "name": "operationName",
          "type": "string"
        }
      ],
      "name": "executeSensitiveOperation",
      "outputs": [],
      "stateMutability": "nonpayable",
      "type": "function"
    },
    {
      "inputs": [],
      "name": "getMinDelay",
      "outputs": [
        {
          "internalType": "uint256",
          "name": "",
          "type": "uint256"
        }
      ],
      "stateMutability": "view",
      "type": "function"
    },
    {
      "inputs": [
        {
          "internalType": "address",
          "name": "target",
          "type": "address"
        },
        {
          "internalType": "uint256",
          "name": "value",
          "type": "uint256"
        },
        {
          "internalType": "bytes",
          "name": "data",
          "type": "bytes"
        },
        {
          "internalType": "bytes32",
          "name": "predecessor",
          "type": "bytes32"
        },
        {
          "internalType": "bytes32",
          "name": "salt",
          "type": "bytes32"
        }
      ],
      "name": "getOperationTimestamp",
      "outputs": [
        {
          "internalType": "uint256",
          "name": "timestamp",
          "type": "uint256"
        }
      ],
      "stateMutability": "view",
      "type": "function"
    },
    {
      "inputs": [
        {
          "internalType": "bytes32",
          "name": "role",
          "type": "bytes32"
        }
      ],
      "name": "getRoleAdmin",
      "outputs": [
        {
          "internalType": "bytes32",
          "name": "",
          "type": "bytes32"
        }
      ],
      "stateMutability": "view",
      "type": "function"
    },
    {
      "inputs": [
        {
          "internalType": "bytes32",
          "name": "id",
          "type": "bytes32"
        }
      ],
      "name": "getTimestamp",
      "outputs": [
        {
          "internalType": "uint256",
          "name": "",
          "type": "uint256"
        }
      ],
      "stateMutability": "view",
      "type": "function"
    },
    {
      "inputs": [
        {
          "internalType": "bytes32",
          "name": "role",
          "type": "bytes32"
        },
        {
          "internalType": "address",
          "name": "account",
          "type": "address"
        }
      ],
      "name": "grantRole",
      "outputs": [],
      "stateMutability": "nonpayable",
      "type": "function"
    },
    {
      "inputs": [
        {
          "internalType": "bytes32",
          "name": "role",
          "type": "bytes32"
        },
        {
          "internalType": "address",
          "name": "account",
          "type": "address"
        }
      ],
      "name": "hasRole",
      "outputs": [
        {
          "internalType": "bool",
          "name": "",
          "type": "bool"
        }
      ],
      "stateMutability": "view",
      "type": "function"
    },
    {
      "inputs": [
        {
          "internalType": "address",
          "name": "target",
          "type": "address"
        },
        {
          "internalType": "uint256",
          "name": "value",
          "type": "uint256"
        },
        {
          "internalType": "bytes",
          "name": "data",
          "type": "bytes"
        },
        {
          "internalType": "bytes32",
          "name": "predecessor",
          "type": "bytes32"
        },
        {
          "internalType": "bytes32",
          "name": "salt",
          "type": "bytes32"
        }
      ],
      "name": "hashOperation",
      "outputs": [
        {
          "internalType": "bytes32",
          "name": "",
          "type": "bytes32"
        }
      ],
      "stateMutability": "pure",
      "type": "function"
    },
    {
      "inputs": [
        {
          "internalType": "address[]",
          "name": "targets",
          "type": "address[]"
        },
        {
          "internalType": "uint256[]",
          "name": "values",
          "type": "uint256[]"
        },
        {
          "internalType": "bytes[]",
          "name": "payloads",
          "type": "bytes[]"
        },
        {
          "internalType": "bytes32",
          "name": "predecessor",
          "type": "bytes32"
        },
        {
          "internalType": "bytes32",
          "name": "salt",
          "type": "bytes32"
        }
      ],
      "name": "hashOperationBatch",
      "outputs": [
        {
          "internalType": "bytes32",
          "name": "",
          "type": "bytes32"
        }
      ],
      "stateMutability": "pure",
      "type": "function"
    },
    {
      "inputs": [
        {
          "internalType": "bytes32",
          "name": "id",
          "type": "bytes32"
        }
      ],
      "name": "isOperation",
      "outputs": [
        {
          "internalType": "bool",
          "name": "",
          "type": "bool"
        }
      ],
      "stateMutability": "view",
      "type": "function"
    },
    {
      "inputs": [
        {
          "internalType": "bytes32",
          "name": "id",
          "type": "bytes32"
        }
      ],
      "name": "isOperationDone",
      "outputs": [
        {
          "internalType": "bool",
          "name": "",
          "type": "bool"
        }
      ],
      "stateMutability": "view",
      "type": "function"
    },
    {
      "inputs": [
        {
          "internalType": "bytes32",
          "name": "id",
          "type": "bytes32"
        }
      ],
      "name": "isOperationPending",
      "outputs": [
        {
          "internalType": "bool",
          "name": "",
          "type": "bool"
        }
      ],
      "stateMutability": "view",
      "type": "function"
    },
    {
      "inputs": [
        {
          "internalType": "bytes32",
          "name": "id",
          "type": "bytes32"
        }
      ],
      "name": "isOperationReady",
      "outputs": [
        {
          "internalType": "bool",
          "name": "",
          "type": "bool"
        }
      ],
      "stateMutability": "view",
      "type": "function"
    },
    {
      "inputs": [
        {
          "internalType": "address",
          "name": "",
          "type": "address"
        },
        {
          "internalType": "address",
          "name": "",
          "type": "address"
        },
        {
          "internalType": "uint256[]",
          "name": "",
          "type": "uint256[]"
        },
        {
          "internalType": "uint256[]",
          "name": "",
          "type": "uint256[]"
        },
        {
          "internalType": "bytes",
          "name": "",
          "type": "bytes"
        }
      ],
      "name": "onERC1155BatchReceived",
      "outputs": [
        {
          "internalType": "bytes4",
          "name": "",
          "type": "bytes4"
        }
      ],
      "stateMutability": "nonpayable",
      "type": "function"
    },
    {
      "inputs": [
        {
          "internalType": "address",
          "name": "",
          "type": "address"
        },
        {
          "internalType": "address",
          "name": "",
          "type": "address"
        },
        {
          "internalType": "uint256",
          "name": "",
          "type": "uint256"
        },
        {
          "internalType": "uint256",
          "name": "",
          "type": "uint256"
        },
        {
          "internalType": "bytes",
          "name": "",
          "type": "bytes"
        }
      ],
      "name": "onERC1155Received",
      "outputs": [
        {
          "internalType": "bytes4",
          "name": "",
          "type": "bytes4"
        }
      ],
      "stateMutability": "nonpayable",
      "type": "function"
    },
    {
      "inputs": [
        {
          "internalType": "address",
          "name": "",
          "type": "address"
        },
        {
          "internalType": "address",
          "name": "",
          "type": "address"
        },
        {
          "internalType": "uint256",
          "name": "",
          "type": "uint256"
        },
        {
          "internalType": "bytes",
          "name": "",
          "type": "bytes"
        }
      ],
      "name": "onERC721Received",
      "outputs": [
        {
          "internalType": "bytes4",
          "name": "",
          "type": "bytes4"
        }
      ],
      "stateMutability": "nonpayable",
      "type": "function"
    },
    {
      "inputs": [
        {
          "internalType": "bytes32",
          "name": "role",
          "type": "bytes32"
        },
        {
          "internalType": "address",
          "name": "account",
          "type": "address"
        }
      ],
      "name": "renounceRole",
      "outputs": [],
      "stateMutability": "nonpayable",
      "type": "function"
    },
    {
      "inputs": [
        {
          "internalType": "bytes32",
          "name": "role",
          "type": "bytes32"
        },
        {
          "internalType": "address",
          "name": "account",
          "type": "address"
        }
      ],
      "name": "revokeRole",
      "outputs": [],
      "stateMutability": "nonpayable",
      "type": "function"
    },
    {
      "inputs": [
        {
          "internalType": "address",
          "name": "target",
          "type": "address"
        },
        {
          "internalType": "uint256",
          "name": "value",
          "type": "uint256"
        },
        {
          "internalType": "bytes",
          "name": "data",
          "type": "bytes"
        },
        {
          "internalType": "bytes32",
          "name": "predecessor",
          "type": "bytes32"
        },
        {
          "internalType": "bytes32",
          "name": "salt",
          "type": "bytes32"
        },
        {
          "internalType": "uint256",
          "name": "delay",
          "type": "uint256"
        }
      ],
      "name": "schedule",
      "outputs": [],
      "stateMutability": "nonpayable",
      "type": "function"
    },
    {
      "inputs": [
        {
          "internalType": "address[]",
          "name": "targets",
          "type": "address[]"
        },
        {
          "internalType": "uint256[]",
          "name": "values",
          "type": "uint256[]"
        },
        {
          "internalType": "bytes[]",
          "name": "payloads",
          "type": "bytes[]"
        },
        {
          "internalType": "bytes32",
          "name": "predecessor",
          "type": "bytes32"
        },
        {
          "internalType": "bytes32",
          "name": "salt",
          "type": "bytes32"
        },
        {
          "internalType": "uint256",
          "name": "delay",
          "type": "uint256"
        }
      ],
      "name": "scheduleBatch",
      "outputs": [],
      "stateMutability": "nonpayable",
      "type": "function"
    },
    {
      "inputs": [
        {
          "internalType": "address",
          "name": "target",
          "type": "address"
        },
        {
          "internalType": "uint256",
          "name": "value",
          "type": "uint256"
        },
        {
          "internalType": "bytes",
          "name": "data",
          "type": "bytes"
        },
        {
          "internalType": "bytes32",
          "name": "predecessor",
          "type": "bytes32"
        },
        {
          "internalType": "bytes32",
          "name": "salt",
          "type": "bytes32"
        },
        {
          "internalType": "string",
          "name": "operationName",
          "type": "string"
        }
      ],
      "name": "scheduleSensitiveOperation",
      "outputs": [],
      "stateMutability": "nonpayable",
      "type": "function"
    },
    {
      "inputs": [
        {
          "internalType": "bytes4",
          "name": "interfaceId",
          "type": "bytes4"
        }
      ],
      "name": "supportsInterface",
      "outputs": [
        {
          "internalType": "bool",
          "name": "",
          "type": "bool"
        }
      ],
      "stateMutability": "view",
      "type": "function"
    },
    {
      "inputs": [
        {
          "internalType": "uint256",
          "name": "newDelay",
          "type": "uint256"
        }
      ],
      "name": "updateDelay",
      "outputs": [],
      "stateMutability": "nonpayable",
      "type": "function"
    },
    {
      "stateMutability": "payable",
      "type": "receive"
    }
  ],
  "bytecode": "0x60806040523480156200001157600080fd5b50604051620026e3380380620026e3833981016040819052620000349162000412565b6202a30083838362000056600080516020620026638339815191528062000237565b62000080600080516020620026838339815191526000805160206200266383398151915262000237565b620000aa600080516020620026a38339815191526000805160206200266383398151915262000237565b620000d4600080516020620026c38339815191526000805160206200266383398151915262000237565b620000ef600080516020620026638339815191523062000282565b6001600160a01b038116156200011a576200011a600080516020620026638339815191528262000282565b60005b8351811015620001a05762000164600080516020620026838339815191528583815181106200015057620001506200048e565b60200260200101516200028260201b60201c565b6200018d600080516020620026c38339815191528583815181106200015057620001506200048e565b6200019881620004a4565b90506200011d565b5060005b8251811015620001ea57620001d7600080516020620026a38339815191528483815181106200015057620001506200048e565b620001e281620004a4565b9050620001a4565b5060028490556040805160008152602081018690527f11c24f4ead16507c69ac467fbd5e4eed5fb5c699626d2cc6d66421df253886d5910160405180910390a150505050505050620004cc565b600082815260208190526040808220600101805490849055905190918391839186917fbd79b86ffe0ab8e8776151514217cd7cacd52c909f66475c3af44e129f0b00ff9190a4505050565b6200028e828262000292565b5050565b6000828152602081815260408083206001600160a01b038516845290915290205460ff166200028e576000828152602081815260408083206001600160a01b03851684529091529020805460ff19166001179055620002ee3390565b6001600160a01b0316816001600160a01b0316837f2f8788117e7eff1d82e926ec794901d17c78024a50270940304540a733656f0d60405160405180910390a45050565b634e487b7160e01b600052604160045260246000fd5b80516001600160a01b03811681146200036057600080fd5b919050565b600082601f8301126200037757600080fd5b815160206001600160401b038083111562000396576200039662000332565b8260051b604051601f19603f83011681018181108482111715620003be57620003be62000332565b604052938452858101830193838101925087851115620003dd57600080fd5b83870191505b848210156200040757620003f78262000348565b83529183019190830190620003e3565b979650505050505050565b6000806000606084860312156200042857600080fd5b83516001600160401b03808211156200044057600080fd5b6200044e8783880162000365565b945060208601519150808211156200046557600080fd5b50620004748682870162000365565b925050620004856040850162000348565b90509250925092565b634e487b7160e01b600052603260045260246000fd5b600060018201620004c557634e487b7160e01b600052601160045260246000fd5b5060010190565b61218780620004dc6000396000f3fe6080604052600436106101f25760003560e01c806364d623531161010d578063b1c5f427116100a0578063d45c44351161006f578063d45c4435146105ff578063d547741f1461062c578063e38335e51461064c578063f23a6e611461065f578063f27a0c921461068b57600080fd5b8063b1c5f42714610573578063bc197c8114610593578063be60a5c3146105bf578063c4d252f5146105df57600080fd5b806391d14854116100dc57806391d14854146104f35780639f81aed714610513578063a217fddf1461052a578063b08e51c01461053f57600080fd5b806364d62353146104715780638065657f146104915780638f2a0bb0146104b15780638f61f4f5146104d157600080fd5b8063248a9ca31161018557806331d507501161015457806331d50750146103f157806332a625d61461041157806336568abe14610431578063584b153e1461045157600080fd5b8063248a9ca3146103505780632ab0f529146103805780632d5d9d81146103b15780632f2ff15d146103d157600080fd5b8063134008d3116101c1578063134008d3146102b957806313bc9f20146102cc578063150b7a02146102ec5780631e3dd5611461033057600080fd5b806301d5062a146101fe57806301ffc9a71461022057806307bd0265146102555780630d3cf6fc1461028557600080fd5b366101f957005b600080fd5b34801561020a57600080fd5b5061021e610219366004611642565b6106a0565b005b34801561022c57600080fd5b5061024061023b3660046116b6565b610764565b60405190151581526020015b60405180910390f35b34801561026157600080fd5b5061027760008051602061213283398151915281565b60405190815260200161024c565b34801561029157600080fd5b506102777f5f58e3a2316349923ce3780f8d587db2d72378aed66a8261c916544fa6846ca581565b61021e6102c73660046116e0565b61078f565b3480156102d857600080fd5b506102406102e736600461174b565b610832565b3480156102f857600080fd5b50610317610307366004611819565b630a85bd0160e11b949350505050565b6040516001600160e01b0319909116815260200161024c565b34801561033c57600080fd5b5061021e61034b366004611880565b610858565b34801561035c57600080fd5b5061027761036b36600461174b565b60009081526020819052604090206001015490565b34801561038c57600080fd5b5061024061039b36600461174b565b6000908152600160208190526040909120541490565b3480156103bd57600080fd5b5061021e6103cc366004611880565b6108fd565b3480156103dd57600080fd5b5061021e6103ec36600461191c565b6109aa565b3480156103fd57600080fd5b5061024061040c36600461174b565b6109d4565b34801561041d57600080fd5b5061027761042c3660046116e0565b6109ed565b34801561043d57600080fd5b5061021e61044c36600461191c565b610a1d565b34801561045d57600080fd5b5061024061046c36600461174b565b610aa0565b34801561047d57600080fd5b5061021e61048c36600461174b565b610ab6565b34801561049d57600080fd5b506102776104ac3660046116e0565b610b5a565b3480156104bd57600080fd5b5061021e6104cc36600461198c565b610b99565b3480156104dd57600080fd5b5061027760008051602061211283398151915281565b3480156104ff57600080fd5b5061024061050e36600461191c565b610d1a565b34801561051f57600080fd5b506102776202a30081565b34801561053657600080fd5b50610277600081565b34801561054b57600080fd5b506102777ffd643c72710c63c0180259aba6b2d05451e3591a24e58b62239378085726f78381565b34801561057f57600080fd5b5061027761058e366004611a3d565b610d43565b34801561059f57600080fd5b506103176105ae366004611b64565b63bc197c8160e01b95945050505050565b3480156105cb57600080fd5b506102406105da3660046116e0565b610d88565b3480156105eb57600080fd5b5061021e6105fa36600461174b565b610da4565b34801561060b57600080fd5b5061027761061a36600461174b565b60009081526001602052604090205490565b34801561063857600080fd5b5061021e61064736600461191c565b610e79565b61021e61065a366004611a3d565b610e9e565b34801561066b57600080fd5b5061031761067a366004611c0d565b63f23a6e6160e01b95945050505050565b34801561069757600080fd5b50600254610277565b6000805160206121128339815191526106b881611016565b60006106c8898989898989610b5a565b90506106d48184611023565b6000817f4cf4410cc57040e44862ef0f45f3dd5a5e02db8eb8add648d4b0e236f1d07dca8b8b8b8b8b8a60405161071096959493929190611c9a565b60405180910390a3831561075957807f20fda5fd27a1ea7bf5b9567f143ac5470bb059374a27e8f67cb44f946f6d03878560405161075091815260200190565b60405180910390a25b505050505050505050565b60006001600160e01b03198216630271189760e51b1480610789575061078982611112565b92915050565b6000805160206121328339815191526107a9816000610d1a565b6107b7576107b78133611147565b60006107c7888888888888610b5a565b90506107d381856111a0565b6107df8888888861123c565b6000817fc2617efa69bab66782fa219543714338489c4e9e178271560a91b82c3f612b588a8a8a8a6040516108179493929190611cd7565b60405180910390a36108288161130f565b5050505050505050565b6000818152600160205260408120546001811180156108515750428111155b9392505050565b60008051602061213283398151915261087081611016565b60006108808a8a8a8a8a8a610b5a565b905060006108916004828a8c611d09565b61089a91611d33565b90506108aa8b8b8b8b8b8b61078f565b8a6001600160a01b0316827fd9de7b4a6557fa15be7db3616bbb6535916e7b3bf31876f111eafaf998ac5d4f8388886040516108e893929190611d63565b60405180910390a35050505050505050505050565b60008051602061211283398151915261091581611016565b60006109258a8a8a8a8a8a610b5a565b905060006109366004828a8c611d09565b61093f91611d33565b90506109538b8b8b8b8b8b6202a3006106a0565b8a6001600160a01b03166202a300837fe240a6d96e1255579a0615e21cef0805a588d5677aa1cdcbcef9c56b24ed36cc84898960405161099593929190611d63565b60405180910390a45050505050505050505050565b6000828152602081905260409020600101546109c581611016565b6109cf8383611348565b505050565b60008181526001602052604081205481905b1192915050565b6000806109fe888888888888610b5a565b6000818152600160205260409020549091505b98975050505050505050565b6001600160a01b0381163314610a925760405162461bcd60e51b815260206004820152602f60248201527f416363657373436f6e74726f6c3a2063616e206f6e6c792072656e6f756e636560448201526e103937b632b9903337b91039b2b63360891b60648201526084015b60405180910390fd5b610a9c82826113cc565b5050565b60008181526001602081905260408220546109e6565b333014610b195760405162461bcd60e51b815260206004820152602b60248201527f54696d656c6f636b436f6e74726f6c6c65723a2063616c6c6572206d7573742060448201526a62652074696d656c6f636b60a81b6064820152608401610a89565b60025460408051918252602082018390527f11c24f4ead16507c69ac467fbd5e4eed5fb5c699626d2cc6d66421df253886d5910160405180910390a1600255565b6000868686868686604051602001610b7796959493929190611c9a565b6040516020818303038152906040528051906020012090509695505050505050565b600080516020612112833981519152610bb181611016565b888714610bd05760405162461bcd60e51b8152600401610a8990611d8f565b888514610bef5760405162461bcd60e51b8152600401610a8990611d8f565b6000610c018b8b8b8b8b8b8b8b610d43565b9050610c0d8184611023565b60005b8a811015610ccb5780827f4cf4410cc57040e44862ef0f45f3dd5a5e02db8eb8add648d4b0e236f1d07dca8e8e85818110610c4d57610c4d611dd2565b9050602002016020810190610c629190611de8565b8d8d86818110610c7457610c74611dd2565b905060200201358c8c87818110610c8d57610c8d611dd2565b9050602002810190610c9f9190611e03565b8c8b604051610cb396959493929190611c9a565b60405180910390a3610cc481611e5f565b9050610c10565b508315610d0d57807f20fda5fd27a1ea7bf5b9567f143ac5470bb059374a27e8f67cb44f946f6d038785604051610d0491815260200190565b60405180910390a25b5050505050505050505050565b6000918252602082815260408084206001600160a01b0393909316845291905290205460ff1690565b60008888888888888888604051602001610d64989796959493929190611f09565b60405160208183030381529060405280519060200120905098975050505050505050565b600080610d99888888888888610b5a565b9050610a1181610832565b7ffd643c72710c63c0180259aba6b2d05451e3591a24e58b62239378085726f783610dce81611016565b610dd782610aa0565b610e3d5760405162461bcd60e51b815260206004820152603160248201527f54696d656c6f636b436f6e74726f6c6c65723a206f7065726174696f6e2063616044820152701b9b9bdd0818994818d85b98d95b1b1959607a1b6064820152608401610a89565b6000828152600160205260408082208290555183917fbaa1eb22f2a492ba1a5fea61b8df4d27c6c8b5f3971e63bb58fa14ff72eedb7091a25050565b600082815260208190526040902060010154610e9481611016565b6109cf83836113cc565b600080516020612132833981519152610eb8816000610d1a565b610ec657610ec68133611147565b878614610ee55760405162461bcd60e51b8152600401610a8990611d8f565b878414610f045760405162461bcd60e51b8152600401610a8990611d8f565b6000610f168a8a8a8a8a8a8a8a610d43565b9050610f2281856111a0565b60005b898110156110005760008b8b83818110610f4157610f41611dd2565b9050602002016020810190610f569190611de8565b905060008a8a84818110610f6c57610f6c611dd2565b9050602002013590503660008a8a86818110610f8a57610f8a611dd2565b9050602002810190610f9c9190611e03565b91509150610fac8484848461123c565b84867fc2617efa69bab66782fa219543714338489c4e9e178271560a91b82c3f612b5886868686604051610fe39493929190611cd7565b60405180910390a35050505080610ff990611e5f565b9050610f25565b5061100a8161130f565b50505050505050505050565b6110208133611147565b50565b61102c826109d4565b156110915760405162461bcd60e51b815260206004820152602f60248201527f54696d656c6f636b436f6e74726f6c6c65723a206f7065726174696f6e20616c60448201526e1c9958591e481cd8da19591d5b1959608a1b6064820152608401610a89565b6002548110156110f25760405162461bcd60e51b815260206004820152602660248201527f54696d656c6f636b436f6e74726f6c6c65723a20696e73756666696369656e746044820152652064656c617960d01b6064820152608401610a89565b6110fc8142611faa565b6000928352600160205260409092209190915550565b60006001600160e01b03198216637965db0b60e01b148061078957506301ffc9a760e01b6001600160e01b0319831614610789565b6111518282610d1a565b610a9c5761115e81611431565b611169836020611443565b60405160200161117a929190611fe1565b60408051601f198184030181529082905262461bcd60e51b8252610a8991600401612056565b6111a982610832565b6111c55760405162461bcd60e51b8152600401610a8990612089565b8015806111e15750600081815260016020819052604090912054145b610a9c5760405162461bcd60e51b815260206004820152602660248201527f54696d656c6f636b436f6e74726f6c6c65723a206d697373696e6720646570656044820152656e64656e637960d01b6064820152608401610a89565b6000846001600160a01b03168484846040516112599291906120d3565b60006040518083038185875af1925050503d8060008114611296576040519150601f19603f3d011682016040523d82523d6000602084013e61129b565b606091505b50509050806113085760405162461bcd60e51b815260206004820152603360248201527f54696d656c6f636b436f6e74726f6c6c65723a20756e6465726c79696e6720746044820152721c985b9cd858dd1a5bdb881c995d995c9d1959606a1b6064820152608401610a89565b5050505050565b61131881610832565b6113345760405162461bcd60e51b8152600401610a8990612089565b600090815260016020819052604090912055565b6113528282610d1a565b610a9c576000828152602081815260408083206001600160a01b03851684529091529020805460ff191660011790556113883390565b6001600160a01b0316816001600160a01b0316837f2f8788117e7eff1d82e926ec794901d17c78024a50270940304540a733656f0d60405160405180910390a45050565b6113d68282610d1a565b15610a9c576000828152602081815260408083206001600160a01b0385168085529252808320805460ff1916905551339285917ff6391f5c32d9c69d2a47ea670b442974b53935d1edc7fd64eb21e047a839171b9190a45050565b60606107896001600160a01b03831660145b606060006114528360026120e3565b61145d906002611faa565b6001600160401b0381111561147457611474611764565b6040519080825280601f01601f19166020018201604052801561149e576020820181803683370190505b509050600360fc1b816000815181106114b9576114b9611dd2565b60200101906001600160f81b031916908160001a905350600f60fb1b816001815181106114e8576114e8611dd2565b60200101906001600160f81b031916908160001a905350600061150c8460026120e3565b611517906001611faa565b90505b600181111561158f576f181899199a1a9b1b9c1cb0b131b232b360811b85600f166010811061154b5761154b611dd2565b1a60f81b82828151811061156157611561611dd2565b60200101906001600160f81b031916908160001a90535060049490941c93611588816120fa565b905061151a565b5083156108515760405162461bcd60e51b815260206004820181905260248201527f537472696e67733a20686578206c656e67746820696e73756666696369656e746044820152606401610a89565b80356001600160a01b03811681146115f557600080fd5b919050565b60008083601f84011261160c57600080fd5b5081356001600160401b0381111561162357600080fd5b60208301915083602082850101111561163b57600080fd5b9250929050565b600080600080600080600060c0888a03121561165d57600080fd5b611666886115de565b96506020880135955060408801356001600160401b0381111561168857600080fd5b6116948a828b016115fa565b989b979a50986060810135976080820135975060a09091013595509350505050565b6000602082840312156116c857600080fd5b81356001600160e01b03198116811461085157600080fd5b60008060008060008060a087890312156116f957600080fd5b611702876115de565b95506020870135945060408701356001600160401b0381111561172457600080fd5b61173089828a016115fa565b979a9699509760608101359660809091013595509350505050565b60006020828403121561175d57600080fd5b5035919050565b634e487b7160e01b600052604160045260246000fd5b604051601f8201601f191681016001600160401b03811182821017156117a2576117a2611764565b604052919050565b600082601f8301126117bb57600080fd5b81356001600160401b038111156117d4576117d4611764565b6117e7601f8201601f191660200161177a565b8181528460208386010111156117fc57600080fd5b816020850160208301376000918101602001919091529392505050565b6000806000806080858703121561182f57600080fd5b611838856115de565b9350611846602086016115de565b92506040850135915060608501356001600160401b0381111561186857600080fd5b611874878288016117aa565b91505092959194509250565b60008060008060008060008060c0898b03121561189c57600080fd5b6118a5896115de565b97506020890135965060408901356001600160401b03808211156118c857600080fd5b6118d48c838d016115fa565b909850965060608b0135955060808b0135945060a08b01359150808211156118fb57600080fd5b506119088b828c016115fa565b999c989b5096995094979396929594505050565b6000806040838503121561192f57600080fd5b8235915061193f602084016115de565b90509250929050565b60008083601f84011261195a57600080fd5b5081356001600160401b0381111561197157600080fd5b6020830191508360208260051b850101111561163b57600080fd5b600080600080600080600080600060c08a8c0312156119aa57600080fd5b89356001600160401b03808211156119c157600080fd5b6119cd8d838e01611948565b909b50995060208c01359150808211156119e657600080fd5b6119f28d838e01611948565b909950975060408c0135915080821115611a0b57600080fd5b50611a188c828d01611948565b9a9d999c50979a969997986060880135976080810135975060a0013595509350505050565b60008060008060008060008060a0898b031215611a5957600080fd5b88356001600160401b0380821115611a7057600080fd5b611a7c8c838d01611948565b909a50985060208b0135915080821115611a9557600080fd5b611aa18c838d01611948565b909850965060408b0135915080821115611aba57600080fd5b50611ac78b828c01611948565b999c989b509699959896976060870135966080013595509350505050565b600082601f830112611af657600080fd5b813560206001600160401b03821115611b1157611b11611764565b8160051b611b2082820161177a565b9283528481018201928281019087851115611b3a57600080fd5b83870192505b84831015611b5957823582529183019190830190611b40565b979650505050505050565b600080600080600060a08688031215611b7c57600080fd5b611b85866115de565b9450611b93602087016115de565b935060408601356001600160401b0380821115611baf57600080fd5b611bbb89838a01611ae5565b94506060880135915080821115611bd157600080fd5b611bdd89838a01611ae5565b93506080880135915080821115611bf357600080fd5b50611c00888289016117aa565b9150509295509295909350565b600080600080600060a08688031215611c2557600080fd5b611c2e866115de565b9450611c3c602087016115de565b9350604086013592506060860135915060808601356001600160401b03811115611c6557600080fd5b611c00888289016117aa565b81835281816020850137506000828201602090810191909152601f909101601f19169091010190565b60018060a01b038716815285602082015260a060408201526000611cc260a083018688611c71565b60608301949094525060800152949350505050565b60018060a01b0385168152836020820152606060408201526000611cff606083018486611c71565b9695505050505050565b60008085851115611d1957600080fd5b83861115611d2657600080fd5b5050820193919092039150565b6001600160e01b03198135818116916004851015611d5b5780818660040360031b1b83161692505b505092915050565b63ffffffff60e01b84168152604060208201526000611d86604083018486611c71565b95945050505050565b60208082526023908201527f54696d656c6f636b436f6e74726f6c6c65723a206c656e677468206d69736d616040820152620e8c6d60eb1b606082015260800190565b634e487b7160e01b600052603260045260246000fd5b600060208284031215611dfa57600080fd5b610851826115de565b6000808335601e19843603018112611e1a57600080fd5b8301803591506001600160401b03821115611e3457600080fd5b60200191503681900382131561163b57600080fd5b634e487b7160e01b600052601160045260246000fd5b600060018201611e7157611e71611e49565b5060010190565b81835260006020808501808196508560051b810191508460005b87811015611efc5782840389528135601e19883603018112611eb357600080fd5b870185810190356001600160401b03811115611ece57600080fd5b803603821315611edd57600080fd5b611ee8868284611c71565b9a87019a9550505090840190600101611e92565b5091979650505050505050565b60a0808252810188905260008960c08301825b8b811015611f4a576001600160a01b03611f35846115de565b16825260209283019290910190600101611f1c565b5083810360208501528881526001600160fb1b03891115611f6a57600080fd5b8860051b9150818a60208301370182810360209081016040850152611f929082018789611e78565b60608401959095525050608001529695505050505050565b8082018082111561078957610789611e49565b60005b83811015611fd8578181015183820152602001611fc0565b50506000910152565b7f416363657373436f6e74726f6c3a206163636f756e7420000000000000000000815260008351612019816017850160208801611fbd565b7001034b99036b4b9b9b4b733903937b6329607d1b601791840191820152835161204a816028840160208801611fbd565b01602801949350505050565b6020815260008251806020840152612075816040850160208701611fbd565b601f01601f19169190910160400192915050565b6020808252602a908201527f54696d656c6f636b436f6e74726f6c6c65723a206f7065726174696f6e206973604082015269206e6f7420726561647960b01b606082015260800190565b8183823760009101908152919050565b808202811582820484141761078957610789611e49565b60008161210957612109611e49565b50600019019056feb09aa5aeb3702cfd50b6b62bc4532604938f21248a27a1d5ca736082b6819cc1d8aa0f3194971a2a116679f7c2090f6939c8d4e01a2a8d7e41d55e5351469e63a2646970667358221220c046c2f64a7459bb8a920d7818cadae94746fc2e1a45d98c34b3162fea8ce45a64736f6c634300081400335f58e3a2316349923ce3780f8d587db2d72378aed66a8261c916544fa6846ca5b09aa5aeb3702cfd50b6b62bc4532604938f21248a27a1d5ca736082b6819cc1d8aa0f3194971a2a116679f7c2090f6939c8d4e01a2a8d7e41d55e5351469e63fd643c72710c63c0180259aba6b2d05451e3591a24e58b62239378085726f783",
  "linkReferences": {},
  "deployedLinkReferences": {}
}