{
  "_format": "hh-sol-artifact-1",
  "contractName": "SimpleMultiSig",
  "sourceName": "contracts/governance/SimpleMultiSig.sol",
  "abi": [
    {
      "inputs": [
        {
          "internalType": "address[]",
          "name": "_owners",
          "type": "address[]"
        },
        {
          "internalType": "uint256",
          "name": "_signaturesRequired",
          "type": "uint256"
        }
      ],
      "stateMutability": "nonpayable",
      "type": "constructor"
    },
    {
      "anonymous": false,
      "inputs": [
        {
          "indexed": true,
          "internalType": "address",
          "name": "owner",
          "type": "address"
        }
      ],
      "name": "OwnerAdded",
      "type": "event"
    },
    {
      "anonymous": false,
      "inputs": [
        {
          "indexed": true,
          "internalType": "address",
          "name": "owner",
          "type": "address"
        }
      ],
      "name": "OwnerRemoved",
      "type": "event"
    },
    {
      "anonymous": false,
      "inputs": [
        {
          "indexed": false,
          "internalType": "uint256",
          "name": "signaturesRequired",
          "type": "uint256"
        }
      ],
      "name": "SignaturesRequiredChanged",
      "type": "event"
    },
    {
      "anonymous": false,
      "inputs": [
        {
          "indexed": true,
          "internalType": "uint256",
          "name": "transactionId",
          "type": "uint256"
        },
        {
          "indexed": true,
          "internalType": "address",
          "name": "owner",
          "type": "address"
        }
      ],
      "name": "TransactionConfirmed",
      "type": "event"
    },
    {
      "anonymous": false,
      "inputs": [
        {
          "indexed": true,
          "internalType": "uint256",
          "name": "transactionId",
          "type": "uint256"
        },
        {
          "indexed": true,
          "internalType": "address",
          "name": "executor",
          "type": "address"
        },
        {
          "indexed": false,
          "internalType": "bool",
          "name": "success",
          "type": "bool"
        }
      ],
      "name": "TransactionExecuted",
      "type": "event"
    },
    {
      "anonymous": false,
      "inputs": [
        {
          "indexed": true,
          "internalType": "uint256",
          "name": "transactionId",
          "type": "uint256"
        },
        {
          "indexed": true,
          "internalType": "address",
          "name": "owner",
          "type": "address"
        }
      ],
      "name": "TransactionRevoked",
      "type": "event"
    },
    {
      "anonymous": false,
      "inputs": [
        {
          "indexed": true,
          "internalType": "uint256",
          "name": "transactionId",
          "type": "uint256"
        },
        {
          "indexed": true,
          "internalType": "address",
          "name": "owner",
          "type": "address"
        },
        {
          "indexed": false,
          "internalType": "string",
          "name": "description",
          "type": "string"
        }
      ],
      "name": "TransactionSubmitted",
      "type": "event"
    },
    {
      "stateMutability": "payable",
      "type": "fallback"
    },
    {
      "inputs": [],
      "name": "DEFAULT_EXPIRY",
      "outputs": [
        {
          "internalType": "uint256",
          "name": "",
          "type": "uint256"
        }
      ],
      "stateMutability": "view",
      "type": "function"
    },
    {
      "inputs": [
        {
          "internalType": "address",
          "name": "owner",
          "type": "address"
        }
      ],
      "name": "addOwner",
      "outputs": [],
      "stateMutability": "nonpayable",
      "type": "function"
    },
    {
      "inputs": [
        {
          "internalType": "uint256",
          "name": "_signaturesRequired",
          "type": "uint256"
        }
      ],
      "name": "changeSignaturesRequired",
      "outputs": [],
      "stateMutability": "nonpayable",
      "type": "function"
    },
    {
      "inputs": [
        {
          "internalType": "uint256",
          "name": "transactionId",
          "type": "uint256"
        }
      ],
      "name": "confirmTransaction",
      "outputs": [],
      "stateMutability": "nonpayable",
      "type": "function"
    },
    {
      "inputs": [
        {
          "internalType": "uint256",
          "name": "",
          "type": "uint256"
        },
        {
          "internalType": "address",
          "name": "",
          "type": "address"
        }
      ],
      "name": "confirmations",
      "outputs": [
        {
          "internalType": "bool",
          "name": "",
          "type": "bool"
        }
      ],
      "stateMutability": "view",
      "type": "function"
    },
    {
      "inputs": [
        {
          "internalType": "uint256",
          "name": "transactionId",
          "type": "uint256"
        }
      ],
      "name": "executeTransaction",
      "outputs": [],
      "stateMutability": "nonpayable",
      "type": "function"
    },
    {
      "inputs": [],
      "name": "getOwnerCount",
      "outputs": [
        {
          "internalType": "uint256",
          "name": "",
          "type": "uint256"
        }
      ],
      "stateMutability": "view",
      "type": "function"
    },
    {
      "inputs": [],
      "name": "getOwners",
      "outputs": [
        {
          "internalType": "address[]",
          "name": "",
          "type": "address[]"
        }
      ],
      "stateMutability": "view",
      "type": "function"
    },
    {
      "inputs": [
        {
          "internalType": "uint256",
          "name": "transactionId",
          "type": "uint256"
        }
      ],
      "name": "getTransaction",
      "outputs": [
        {
          "internalType": "address",
          "name": "to",
          "type": "address"
        },
        {
          "internalType": "uint256",
          "name": "value",
          "type": "uint256"
        },
        {
          "internalType": "bytes",
          "name": "data",
          "type": "bytes"
        },
        {
          "internalType": "bool",
          "name": "executed",
          "type": "bool"
        },
        {
          "internalType": "uint256",
          "name": "confirmationCount",
          "type": "uint256"
        },
        {
          "internalType": "string",
          "name": "description",
          "type": "string"
        },
        {
          "internalType": "uint256",
          "name": "deadline",
          "type": "uint256"
        }
      ],
      "stateMutability": "view",
      "type": "function"
    },
    {
      "inputs": [
        {
          "internalType": "uint256",
          "name": "transactionId",
          "type": "uint256"
        },
        {
          "internalType": "address",
          "name": "owner",
          "type": "address"
        }
      ],
      "name": "isConfirmed",
      "outputs": [
        {
          "internalType": "bool",
          "name": "",
          "type": "bool"
        }
      ],
      "stateMutability": "view",
      "type": "function"
    },
    {
      "inputs": [
        {
          "internalType": "uint256",
          "name": "transactionId",
          "type": "uint256"
        }
      ],
      "name": "isExecutable",
      "outputs": [
        {
          "internalType": "bool",
          "name": "",
          "type": "bool"
        }
      ],
      "stateMutability": "view",
      "type": "function"
    },
    {
      "inputs": [
        {
          "internalType": "uint256",
          "name": "transactionId",
          "type": "uint256"
        }
      ],
      "name": "isExpired",
      "outputs": [
        {
          "internalType": "bool",
          "name": "",
          "type": "bool"
        }
      ],
      "stateMutability": "view",
      "type": "function"
    },
    {
      "inputs": [
        {
          "internalType": "address",
          "name": "",
          "type": "address"
        }
      ],
      "name": "isOwner",
      "outputs": [
        {
          "internalType": "bool",
          "name": "",
          "type": "bool"
        }
      ],
      "stateMutability": "view",
      "type": "function"
    },
    {
      "inputs": [
        {
          "internalType": "uint256",
          "name": "",
          "type": "uint256"
        }
      ],
      "name": "owners",
      "outputs": [
        {
          "internalType": "address",
          "name": "",
          "type": "address"
        }
      ],
      "stateMutability": "view",
      "type": "function"
    },
    {
      "inputs": [
        {
          "internalType": "address",
          "name": "owner",
          "type": "address"
        }
      ],
      "name": "removeOwner",
      "outputs": [],
      "stateMutability": "nonpayable",
      "type": "function"
    },
    {
      "inputs": [
        {
          "internalType": "uint256",
          "name": "transactionId",
          "type": "uint256"
        }
      ],
      "name": "revokeConfirmation",
      "outputs": [],
      "stateMutability": "nonpayable",
      "type": "function"
    },
    {
      "inputs": [],
      "name": "signaturesRequired",
      "outputs": [
        {
          "internalType": "uint256",
          "name": "",
          "type": "uint256"
        }
      ],
      "stateMutability": "view",
      "type": "function"
    },
    {
      "inputs": [
        {
          "internalType": "address",
          "name": "to",
          "type": "address"
        },
        {
          "internalType": "uint256",
          "name": "value",
          "type": "uint256"
        },
        {
          "internalType": "bytes",
          "name": "data",
          "type": "bytes"
        },
        {
          "internalType": "string",
          "name": "description",
          "type": "string"
        }
      ],
      "name": "submitTransaction",
      "outputs": [
        {
          "internalType": "uint256",
          "name": "transactionId",
          "type": "uint256"
        }
      ],
      "stateMutability": "nonpayable",
      "type": "function"
    },
    {
      "inputs": [
        {
          "internalType": "address",
          "name": "to",
          "type": "address"
        },
        {
          "internalType": "uint256",
          "name": "value",
          "type": "uint256"
        },
        {
          "internalType": "bytes",
          "name": "data",
          "type": "bytes"
        },
        {
          "internalType": "string",
          "name": "description",
          "type": "string"
        },
        {
          "internalType": "uint256",
          "name": "deadline",
          "type": "uint256"
        }
      ],
      "name": "submitTransactionWithDeadline",
      "outputs": [
        {
          "internalType": "uint256",
          "name": "transactionId",
          "type": "uint256"
        }
      ],
      "stateMutability": "nonpayable",
      "type": "function"
    },
    {
      "inputs": [],
      "name": "transactionCount",
      "outputs": [
        {
          "internalType": "uint256",
          "name": "",
          "type": "uint256"
        }
      ],
      "stateMutability": "view",
      "type": "function"
    },
    {
      "inputs": [
        {
          "internalType": "uint256",
          "name": "",
          "type": "uint256"
        }
      ],
      "name": "transactions",
      "outputs": [
        {
          "internalType": "address",
          "name": "to",
          "type": "address"
        },
        {
          "internalType": "uint256",
          "name": "value",
          "type": "uint256"
        },
        {
          "internalType": "bytes",
          "name": "data",
          "type": "bytes"
        },
        {
          "internalType": "bool",
          "name": "executed",
          "type": "bool"
        },
        {
          "internalType": "uint256",
          "name": "confirmations",
          "type": "uint256"
        },
        {
          "internalType": "string",
          "name": "description",
          "type": "string"
        },
        {
          "internalType": "uint256",
          "name": "deadline",
          "type": "uint256"
        }
      ],
      "stateMutability": "view",
      "type": "function"
    },
    {
      "stateMutability": "payable",
      "type": "receive"
    }
  ],
  "bytecode": "0x60806040523480156200001157600080fd5b5060405162002061380380620020618339810160408190526200003491620002f2565b600160005581516200008d5760405162461bcd60e51b815260206004820152601760248201527f4e656564206174206c65617374206f6e65206f776e657200000000000000000060448201526064015b60405180910390fd5b6000811180156200009f575081518111155b620000ed5760405162461bcd60e51b815260206004820152601b60248201527f496e76616c6964207369676e6174757265732072657175697265640000000000604482015260640162000084565b60005b82518110156200027e576000838281518110620001115762000111620003cc565b6020026020010151905060006001600160a01b0316816001600160a01b0316036200017f5760405162461bcd60e51b815260206004820152601560248201527f496e76616c6964206f776e657220616464726573730000000000000000000000604482015260640162000084565b6001600160a01b03811660009081526004602052604090205460ff1615620001dc5760405162461bcd60e51b815260206004820152600f60248201526e223ab83634b1b0ba329037bbb732b960891b604482015260640162000084565b6003805460018082019092557fc2575a0e9e593c00f959f8c92f12db2869c3395a3b0502d05e2516446f71f85b0180546001600160a01b0319166001600160a01b038416908117909155600081815260046020526040808220805460ff1916909417909355915190917f994a936646fe87ffe4f1e469d3d6aa417d6b855598397f323de5b449f765f0c391a250806200027581620003e2565b915050620000f0565b5060018190556040518181527f6e78f9709a40d80cb630566b78e588dc218d3e1f648faf3ef910f7d11fa527139060200160405180910390a150506200040a565b634e487b7160e01b600052604160045260246000fd5b80516001600160a01b0381168114620002ed57600080fd5b919050565b600080604083850312156200030657600080fd5b82516001600160401b03808211156200031e57600080fd5b818501915085601f8301126200033357600080fd5b81516020828211156200034a576200034a620002bf565b8160051b604051601f19603f83011681018181108682111715620003725762000372620002bf565b6040529283528183019350848101820192898411156200039157600080fd5b948201945b83861015620003ba57620003aa86620002d5565b8552948201949382019362000396565b97909101519698969750505050505050565b634e487b7160e01b600052603260045260246000fd5b6000600182016200040357634e487b7160e01b600052601160045260246000fd5b5060010190565b611c47806200041a6000396000f3fe6080604052600436106101225760003560e01c80637065cb48116100a5578063b77bf6001161006c578063b77bf600146103a3578063c01a8c84146103b9578063ce757d29146103d9578063d9548e53146103ef578063ee22610b1461040f578063ef18374a1461042f57005b80637065cb48146102db57806380f59a65146102fb57806392bf393f146103415780639ace38c214610361578063a0e67e2b1461038157005b806333ea3dc8116100e957806333ea3dc8146102085780633411c81c1461023b57806346e24b08146102765780634e395e2a146102a457806351761bcc146102c457005b8063025e7c271461012b578063173825d91461016857806320ea8d8614610188578063297b4c2c146101a85780632f54bf6e146101c857005b3661012957005b005b34801561013757600080fd5b5061014b6101463660046115ae565b610444565b6040516001600160a01b0390911681526020015b60405180910390f35b34801561017457600080fd5b506101296101833660046115e3565b61046e565b34801561019457600080fd5b506101296101a33660046115ae565b610686565b3480156101b457600080fd5b506101296101c33660046115ae565b610813565b3480156101d457600080fd5b506101f86101e33660046115e3565b60046020526000908152604090205460ff1681565b604051901515815260200161015f565b34801561021457600080fd5b506102286102233660046115ae565b6108cb565b60405161015f979695949392919061164b565b34801561024757600080fd5b506101f86102563660046116a7565b600660209081526000928352604080842090915290825290205460ff1681565b34801561028257600080fd5b5061029661029136600461171c565b610a52565b60405190815260200161015f565b3480156102b057600080fd5b506101f86102bf3660046115ae565b610aa2565b3480156102d057600080fd5b5061029662093a8081565b3480156102e757600080fd5b506101296102f63660046115e3565b610b09565b34801561030757600080fd5b506101f86103163660046116a7565b60009182526006602090815260408084206001600160a01b0393909316845291905290205460ff1690565b34801561034d57600080fd5b5061029661035c3660046117a6565b610c61565b34801561036d57600080fd5b5061022861037c3660046115ae565b610f6d565b34801561038d57600080fd5b506103966110ca565b60405161015f9190611839565b3480156103af57600080fd5b5061029660025481565b3480156103c557600080fd5b506101296103d43660046115ae565b61112c565b3480156103e557600080fd5b5061029660015481565b3480156103fb57600080fd5b506101f861040a3660046115ae565b6112e0565b34801561041b57600080fd5b5061012961042a3660046115ae565b611306565b34801561043b57600080fd5b50600354610296565b6003818154811061045457600080fd5b6000918252602090912001546001600160a01b0316905081565b3330146104965760405162461bcd60e51b815260040161048d90611886565b60405180910390fd5b6001600160a01b03811660009081526004602052604090205460ff166104ce5760405162461bcd60e51b815260040161048d906118b4565b600154600354116105345760405162461bcd60e51b815260206004820152602a60248201527f43616e6e6f742072656d6f7665206f776e65722c20776f756c6420627265616b604482015269081d1a1c995cda1bdb1960b21b606482015260840161048d565b60005b60035481101561063c57816001600160a01b03166003828154811061055e5761055e6118da565b6000918252602090912001546001600160a01b03160361062a576003805461058890600190611906565b81548110610598576105986118da565b600091825260209091200154600380546001600160a01b0390921691839081106105c4576105c46118da565b9060005260206000200160006101000a8154816001600160a01b0302191690836001600160a01b03160217905550600380548061060357610603611919565b600082815260209020810160001990810180546001600160a01b031916905501905561063c565b806106348161192f565b915050610537565b506001600160a01b038116600081815260046020526040808220805460ff19169055517f58619076adf5bb0943d100ef88d52d7c3fd691b19d3a9071b555b651fbf418da9190a250565b3360009081526004602052604090205460ff166106b55760405162461bcd60e51b815260040161048d906118b4565b8060025481106106d75760405162461bcd60e51b815260040161048d90611948565b6000818152600560205260409020600601544211156107085760405162461bcd60e51b815260040161048d9061197f565b60008281526005602052604090206003015460ff161561073a5760405162461bcd60e51b815260040161048d906119ac565b600082815260066020908152604080832033845290915290205460ff166107a35760405162461bcd60e51b815260206004820152601960248201527f5472616e73616374696f6e206e6f7420636f6e6669726d656400000000000000604482015260640161048d565b60008281526006602090815260408083203384528252808320805460ff19169055848352600590915281206004018054916107dd836119e3565b9091555050604051339083907f4cd471041f6b9ff47536a54a3d3ab62d0fa9dd5e36c0418b294b1673acb3188190600090a35050565b3330146108325760405162461bcd60e51b815260040161048d90611886565b60008111801561084457506003548111155b6108905760405162461bcd60e51b815260206004820152601b60248201527f496e76616c6964207369676e6174757265732072657175697265640000000000604482015260640161048d565b60018190556040518181527f6e78f9709a40d80cb630566b78e588dc218d3e1f648faf3ef910f7d11fa527139060200160405180910390a150565b600081815260056020819052604082208054600182015460038301546004840154600685015460028601805489986060988a9889988b988a9893976001600160a01b03909316969195919460ff909116939290880191859061092c906119fa565b80601f0160208091040260200160405190810160405280929190818152602001828054610958906119fa565b80156109a55780601f1061097a576101008083540402835291602001916109a5565b820191906000526020600020905b81548152906001019060200180831161098857829003601f168201915b505050505094508180546109b8906119fa565b80601f01602080910402602001604051908101604052809291908181526020018280546109e4906119fa565b8015610a315780601f10610a0657610100808354040283529160200191610a31565b820191906000526020600020905b815481529060010190602001808311610a1457829003601f168201915b50505050509150975097509750975097509750975050919395979092949650565b3360009081526004602052604081205460ff16610a815760405162461bcd60e51b815260040161048d906118b4565b610a9787878787878761035c62093a8042611a34565b979650505050505050565b600060025482108015610ac7575060008281526005602052604090206003015460ff16155b8015610ae6575060015460008381526005602052604090206004015410155b8015610b0357506000828152600560205260409020600601544211155b92915050565b333014610b285760405162461bcd60e51b815260040161048d90611886565b6001600160a01b038116610b765760405162461bcd60e51b8152602060048201526015602482015274496e76616c6964206f776e6572206164647265737360581b604482015260640161048d565b6001600160a01b03811660009081526004602052604090205460ff1615610bd25760405162461bcd60e51b815260206004820152601060248201526f20b63932b0b23c9030b71037bbb732b960811b604482015260640161048d565b6003805460018082019092557fc2575a0e9e593c00f959f8c92f12db2869c3395a3b0502d05e2516446f71f85b0180546001600160a01b0319166001600160a01b038416908117909155600081815260046020526040808220805460ff1916909417909355915190917f994a936646fe87ffe4f1e469d3d6aa417d6b855598397f323de5b449f765f0c391a250565b3360009081526004602052604081205460ff16610c905760405162461bcd60e51b815260040161048d906118b4565b6001600160a01b038816610cdf5760405162461bcd60e51b8152602060048201526016602482015275496e76616c696420746172676574206164647265737360501b604482015260640161048d565b82610d2c5760405162461bcd60e51b815260206004820152601b60248201527f4465736372697074696f6e2063616e6e6f7420626520656d7074790000000000604482015260640161048d565b428211610d7b5760405162461bcd60e51b815260206004820152601e60248201527f446561646c696e65206d75737420626520696e20746865206675747572650000604482015260640161048d565b610d884262278d00611a34565b821115610dd75760405162461bcd60e51b815260206004820152601e60248201527f446561646c696e6520746f6f2066617220696e20746865206675747572650000604482015260640161048d565b50600280549081906000610dea8361192f565b91905055506040518060e00160405280896001600160a01b0316815260200188815260200187878080601f016020809104026020016040519081016040528093929190818152602001838380828437600092018290525093855250505060208083018290526040808401929092528151601f880182900482028101820190925286825260609092019187908790819084018382808284376000920182905250938552505050602091820185905283815260058252604090819020835181546001600160a01b0319166001600160a01b039091161781559183015160018301558201516002820190610edb9082611aac565b50606082015160038201805460ff19169115159190911790556080820151600482015560a08201516005820190610f129082611aac565b5060c08201518160060155905050336001600160a01b0316817f8fbf4f65d1f3823b3d085c847ec89a63ac3fe7ae0c29bd32f3cb14c6c998009f8686604051610f5c929190611b6c565b60405180910390a3610a978161112c565b6005602052600090815260409020805460018201546002830180546001600160a01b03909316939192610f9f906119fa565b80601f0160208091040260200160405190810160405280929190818152602001828054610fcb906119fa565b80156110185780601f10610fed57610100808354040283529160200191611018565b820191906000526020600020905b815481529060010190602001808311610ffb57829003601f168201915b5050505060038301546004840154600585018054949560ff9093169491935090611041906119fa565b80601f016020809104026020016040519081016040528092919081815260200182805461106d906119fa565b80156110ba5780601f1061108f576101008083540402835291602001916110ba565b820191906000526020600020905b81548152906001019060200180831161109d57829003601f168201915b5050505050908060060154905087565b6060600380548060200260200160405190810160405280929190818152602001828054801561112257602002820191906000526020600020905b81546001600160a01b03168152600190910190602001808311611104575b5050505050905090565b3360009081526004602052604090205460ff1661115b5760405162461bcd60e51b815260040161048d906118b4565b80600254811061117d5760405162461bcd60e51b815260040161048d90611948565b6000818152600560205260409020600601544211156111ae5760405162461bcd60e51b815260040161048d9061197f565b60008281526005602052604090206003015460ff16156111e05760405162461bcd60e51b815260040161048d906119ac565b600082815260066020908152604080832033845290915290205460ff161561124a5760405162461bcd60e51b815260206004820152601d60248201527f5472616e73616374696f6e20616c726561647920636f6e6669726d6564000000604482015260640161048d565b60008281526006602090815260408083203384528252808320805460ff19166001179055848352600590915281206004018054916112878361192f565b9091555050604051339083907f15c2f311c9e0f53b50388279894aeff029a3457884a6601e924fca879e12adcc90600090a3600154600083815260056020526040902060040154106112dc576112dc82611306565b5050565b600060025482108015610b03575050600090815260056020526040902060060154421190565b61130e611555565b8060025481106113305760405162461bcd60e51b815260040161048d90611948565b6000818152600560205260409020600601544211156113615760405162461bcd60e51b815260040161048d9061197f565b60008281526005602052604090206003015460ff16156113935760405162461bcd60e51b815260040161048d906119ac565b60015460008381526005602052604090206004015410156113f65760405162461bcd60e51b815260206004820152601860248201527f4e6f7420656e6f75676820636f6e6669726d6174696f6e730000000000000000604482015260640161048d565b6000828152600560205260408082208054600182015492519193926001600160a01b039091169161142b906002860190611b9b565b60006040518083038185875af1925050503d8060008114611468576040519150601f19603f3d011682016040523d82523d6000602084013e61146d565b606091505b5050905080156114c55760038201805460ff19166001908117909155604051908152339085907f94f14265a1bda0f8e6a1f3f0ee7928a32c64696e492a36c6a7820ef7ac8fcba99060200160405180910390a3611545565b60405160008152339085907f94f14265a1bda0f8e6a1f3f0ee7928a32c64696e492a36c6a7820ef7ac8fcba99060200160405180910390a360405162461bcd60e51b815260206004820152601c60248201527f5472616e73616374696f6e20657865637574696f6e206661696c656400000000604482015260640161048d565b5050506115526001600055565b50565b6002600054036115a75760405162461bcd60e51b815260206004820152601f60248201527f5265656e7472616e637947756172643a207265656e7472616e742063616c6c00604482015260640161048d565b6002600055565b6000602082840312156115c057600080fd5b5035919050565b80356001600160a01b03811681146115de57600080fd5b919050565b6000602082840312156115f557600080fd5b6115fe826115c7565b9392505050565b6000815180845260005b8181101561162b5760208185018101518683018201520161160f565b506000602082860101526020601f19601f83011685010191505092915050565b60018060a01b038816815286602082015260e06040820152600061167260e0830188611605565b861515606084015285608084015282810360a08401526116928186611605565b9150508260c083015298975050505050505050565b600080604083850312156116ba57600080fd5b823591506116ca602084016115c7565b90509250929050565b60008083601f8401126116e557600080fd5b50813567ffffffffffffffff8111156116fd57600080fd5b60208301915083602082850101111561171557600080fd5b9250929050565b6000806000806000806080878903121561173557600080fd5b61173e876115c7565b955060208701359450604087013567ffffffffffffffff8082111561176257600080fd5b61176e8a838b016116d3565b9096509450606089013591508082111561178757600080fd5b5061179489828a016116d3565b979a9699509497509295939492505050565b600080600080600080600060a0888a0312156117c157600080fd5b6117ca886115c7565b965060208801359550604088013567ffffffffffffffff808211156117ee57600080fd5b6117fa8b838c016116d3565b909750955060608a013591508082111561181357600080fd5b506118208a828b016116d3565b989b979a50959894979596608090950135949350505050565b6020808252825182820181905260009190848201906040850190845b8181101561187a5783516001600160a01b031683529284019291840191600101611855565b50909695505050505050565b60208082526014908201527313db9b1e481dd85b1b195d0818d85b8818d85b1b60621b604082015260600190565b6020808252600c908201526b2737ba1030b71037bbb732b960a11b604082015260600190565b634e487b7160e01b600052603260045260246000fd5b634e487b7160e01b600052601160045260246000fd5b81810381811115610b0357610b036118f0565b634e487b7160e01b600052603160045260246000fd5b600060018201611941576119416118f0565b5060010190565b6020808252601a908201527f5472616e73616374696f6e20646f6573206e6f74206578697374000000000000604082015260600190565b602080825260139082015272151c985b9cd858dd1a5bdb88195e1c1a5c9959606a1b604082015260600190565b6020808252601c908201527f5472616e73616374696f6e20616c726561647920657865637574656400000000604082015260600190565b6000816119f2576119f26118f0565b506000190190565b600181811c90821680611a0e57607f821691505b602082108103611a2e57634e487b7160e01b600052602260045260246000fd5b50919050565b80820180821115610b0357610b036118f0565b634e487b7160e01b600052604160045260246000fd5b601f821115611aa757600081815260208120601f850160051c81016020861015611a845750805b601f850160051c820191505b81811015611aa357828155600101611a90565b5050505b505050565b815167ffffffffffffffff811115611ac657611ac6611a47565b611ada81611ad484546119fa565b84611a5d565b602080601f831160018114611b0f5760008415611af75750858301515b600019600386901b1c1916600185901b178555611aa3565b600085815260208120601f198616915b82811015611b3e57888601518255948401946001909101908401611b1f565b5085821015611b5c5787850151600019600388901b60f8161c191681555b5050505050600190811b01905550565b60208152816020820152818360408301376000818301604090810191909152601f909201601f19160101919050565b6000808354611ba9816119fa565b60018281168015611bc15760018114611bd657611c05565b60ff1984168752821515830287019450611c05565b8760005260208060002060005b85811015611bfc5781548a820152908401908201611be3565b50505082870194505b5092969550505050505056fea264697066735822122007b17662e9eb6d901e42690b61201747db078f578622d3e760ec273b70c3221f64736f6c63430008140033",
  "linkReferences": {},
  "deployedLinkReferences": {}
}