{
  "_format": "hh-sol-artifact-1",
  "contractName": "SimpleMultiSig",
  "sourceName": "contracts/governance/SimpleMultiSig.sol",
  "abi": [
    {
      "inputs": [
        {
          "internalType": "address[]",
          "name": "_owners",
          "type": "address[]"
        },
        {
          "internalType": "uint256",
          "name": "_signaturesRequired",
          "type": "uint256"
        }
      ],
      "stateMutability": "nonpayable",
      "type": "constructor"
    },
    {
      "anonymous": false,
      "inputs": [
        {
          "indexed": true,
          "internalType": "address",
          "name": "owner",
          "type": "address"
        }
      ],
      "name": "OwnerAdded",
      "type": "event"
    },
    {
      "anonymous": false,
      "inputs": [
        {
          "indexed": true,
          "internalType": "address",
          "name": "owner",
          "type": "address"
        }
      ],
      "name": "OwnerRemoved",
      "type": "event"
    },
    {
      "anonymous": false,
      "inputs": [
        {
          "indexed": false,
          "internalType": "uint256",
          "name": "signaturesRequired",
          "type": "uint256"
        }
      ],
      "name": "SignaturesRequiredChanged",
      "type": "event"
    },
    {
      "anonymous": false,
      "inputs": [
        {
          "indexed": true,
          "internalType": "uint256",
          "name": "transactionId",
          "type": "uint256"
        },
        {
          "indexed": true,
          "internalType": "address",
          "name": "owner",
          "type": "address"
        }
      ],
      "name": "TransactionConfirmed",
      "type": "event"
    },
    {
      "anonymous": false,
      "inputs": [
        {
          "indexed": true,
          "internalType": "uint256",
          "name": "transactionId",
          "type": "uint256"
        },
        {
          "indexed": true,
          "internalType": "address",
          "name": "executor",
          "type": "address"
        },
        {
          "indexed": false,
          "internalType": "bool",
          "name": "success",
          "type": "bool"
        }
      ],
      "name": "TransactionExecuted",
      "type": "event"
    },
    {
      "anonymous": false,
      "inputs": [
        {
          "indexed": true,
          "internalType": "uint256",
          "name": "transactionId",
          "type": "uint256"
        },
        {
          "indexed": true,
          "internalType": "address",
          "name": "owner",
          "type": "address"
        }
      ],
      "name": "TransactionRevoked",
      "type": "event"
    },
    {
      "anonymous": false,
      "inputs": [
        {
          "indexed": true,
          "internalType": "uint256",
          "name": "transactionId",
          "type": "uint256"
        },
        {
          "indexed": true,
          "internalType": "address",
          "name": "owner",
          "type": "address"
        },
        {
          "indexed": false,
          "internalType": "string",
          "name": "description",
          "type": "string"
        }
      ],
      "name": "TransactionSubmitted",
      "type": "event"
    },
    {
      "stateMutability": "payable",
      "type": "fallback"
    },
    {
      "inputs": [],
      "name": "DEFAULT_EXPIRY",
      "outputs": [
        {
          "internalType": "uint256",
          "name": "",
          "type": "uint256"
        }
      ],
      "stateMutability": "view",
      "type": "function"
    },
    {
      "inputs": [
        {
          "internalType": "address",
          "name": "owner",
          "type": "address"
        }
      ],
      "name": "addOwner",
      "outputs": [],
      "stateMutability": "nonpayable",
      "type": "function"
    },
    {
      "inputs": [
        {
          "internalType": "uint256",
          "name": "_signaturesRequired",
          "type": "uint256"
        }
      ],
      "name": "changeSignaturesRequired",
      "outputs": [],
      "stateMutability": "nonpayable",
      "type": "function"
    },
    {
      "inputs": [
        {
          "internalType": "uint256",
          "name": "transactionId",
          "type": "uint256"
        }
      ],
      "name": "confirmTransaction",
      "outputs": [],
      "stateMutability": "nonpayable",
      "type": "function"
    },
    {
      "inputs": [
        {
          "internalType": "uint256",
          "name": "",
          "type": "uint256"
        },
        {
          "internalType": "address",
          "name": "",
          "type": "address"
        }
      ],
      "name": "confirmations",
      "outputs": [
        {
          "internalType": "bool",
          "name": "",
          "type": "bool"
        }
      ],
      "stateMutability": "view",
      "type": "function"
    },
    {
      "inputs": [
        {
          "internalType": "uint256",
          "name": "transactionId",
          "type": "uint256"
        }
      ],
      "name": "executeTransaction",
      "outputs": [],
      "stateMutability": "nonpayable",
      "type": "function"
    },
    {
      "inputs": [],
      "name": "getOwnerCount",
      "outputs": [
        {
          "internalType": "uint256",
          "name": "",
          "type": "uint256"
        }
      ],
      "stateMutability": "view",
      "type": "function"
    },
    {
      "inputs": [],
      "name": "getOwners",
      "outputs": [
        {
          "internalType": "address[]",
          "name": "",
          "type": "address[]"
        }
      ],
      "stateMutability": "view",
      "type": "function"
    },
    {
      "inputs": [
        {
          "internalType": "uint256",
          "name": "transactionId",
          "type": "uint256"
        }
      ],
      "name": "getTransaction",
      "outputs": [
        {
          "internalType": "address",
          "name": "to",
          "type": "address"
        },
        {
          "internalType": "uint256",
          "name": "value",
          "type": "uint256"
        },
        {
          "internalType": "bytes",
          "name": "data",
          "type": "bytes"
        },
        {
          "internalType": "bool",
          "name": "executed",
          "type": "bool"
        },
        {
          "internalType": "uint256",
          "name": "confirmationCount",
          "type": "uint256"
        },
        {
          "internalType": "string",
          "name": "description",
          "type": "string"
        },
        {
          "internalType": "uint256",
          "name": "deadline",
          "type": "uint256"
        }
      ],
      "stateMutability": "view",
      "type": "function"
    },
    {
      "inputs": [
        {
          "internalType": "uint256",
          "name": "transactionId",
          "type": "uint256"
        },
        {
          "internalType": "address",
          "name": "owner",
          "type": "address"
        }
      ],
      "name": "isConfirmed",
      "outputs": [
        {
          "internalType": "bool",
          "name": "",
          "type": "bool"
        }
      ],
      "stateMutability": "view",
      "type": "function"
    },
    {
      "inputs": [
        {
          "internalType": "uint256",
          "name": "transactionId",
          "type": "uint256"
        }
      ],
      "name": "isExecutable",
      "outputs": [
        {
          "internalType": "bool",
          "name": "",
          "type": "bool"
        }
      ],
      "stateMutability": "view",
      "type": "function"
    },
    {
      "inputs": [
        {
          "internalType": "uint256",
          "name": "transactionId",
          "type": "uint256"
        }
      ],
      "name": "isExpired",
      "outputs": [
        {
          "internalType": "bool",
          "name": "",
          "type": "bool"
        }
      ],
      "stateMutability": "view",
      "type": "function"
    },
    {
      "inputs": [
        {
          "internalType": "address",
          "name": "",
          "type": "address"
        }
      ],
      "name": "isOwner",
      "outputs": [
        {
          "internalType": "bool",
          "name": "",
          "type": "bool"
        }
      ],
      "stateMutability": "view",
      "type": "function"
    },
    {
      "inputs": [
        {
          "internalType": "uint256",
          "name": "",
          "type": "uint256"
        }
      ],
      "name": "owners",
      "outputs": [
        {
          "internalType": "address",
          "name": "",
          "type": "address"
        }
      ],
      "stateMutability": "view",
      "type": "function"
    },
    {
      "inputs": [
        {
          "internalType": "address",
          "name": "owner",
          "type": "address"
        }
      ],
      "name": "removeOwner",
      "outputs": [],
      "stateMutability": "nonpayable",
      "type": "function"
    },
    {
      "inputs": [
        {
          "internalType": "uint256",
          "name": "transactionId",
          "type": "uint256"
        }
      ],
      "name": "revokeConfirmation",
      "outputs": [],
      "stateMutability": "nonpayable",
      "type": "function"
    },
    {
      "inputs": [],
      "name": "signaturesRequired",
      "outputs": [
        {
          "internalType": "uint256",
          "name": "",
          "type": "uint256"
        }
      ],
      "stateMutability": "view",
      "type": "function"
    },
    {
      "inputs": [
        {
          "internalType": "address",
          "name": "to",
          "type": "address"
        },
        {
          "internalType": "uint256",
          "name": "value",
          "type": "uint256"
        },
        {
          "internalType": "bytes",
          "name": "data",
          "type": "bytes"
        },
        {
          "internalType": "string",
          "name": "description",
          "type": "string"
        }
      ],
      "name": "submitTransaction",
      "outputs": [
        {
          "internalType": "uint256",
          "name": "transactionId",
          "type": "uint256"
        }
      ],
      "stateMutability": "nonpayable",
      "type": "function"
    },
    {
      "inputs": [
        {
          "internalType": "address",
          "name": "to",
          "type": "address"
        },
        {
          "internalType": "uint256",
          "name": "value",
          "type": "uint256"
        },
        {
          "internalType": "bytes",
          "name": "data",
          "type": "bytes"
        },
        {
          "internalType": "string",
          "name": "description",
          "type": "string"
        },
        {
          "internalType": "uint256",
          "name": "deadline",
          "type": "uint256"
        }
      ],
      "name": "submitTransactionWithDeadline",
      "outputs": [
        {
          "internalType": "uint256",
          "name": "transactionId",
          "type": "uint256"
        }
      ],
      "stateMutability": "nonpayable",
      "type": "function"
    },
    {
      "inputs": [],
      "name": "transactionCount",
      "outputs": [
        {
          "internalType": "uint256",
          "name": "",
          "type": "uint256"
        }
      ],
      "stateMutability": "view",
      "type": "function"
    },
    {
      "inputs": [
        {
          "internalType": "uint256",
          "name": "",
          "type": "uint256"
        }
      ],
      "name": "transactions",
      "outputs": [
        {
          "internalType": "address",
          "name": "to",
          "type": "address"
        },
        {
          "internalType": "uint256",
          "name": "value",
          "type": "uint256"
        },
        {
          "internalType": "bytes",
          "name": "data",
          "type": "bytes"
        },
        {
          "internalType": "bool",
          "name": "executed",
          "type": "bool"
        },
        {
          "internalType": "uint256",
          "name": "confirmations",
          "type": "uint256"
        },
        {
          "internalType": "string",
          "name": "description",
          "type": "string"
        },
        {
          "internalType": "uint256",
          "name": "deadline",
          "type": "uint256"
        }
      ],
      "stateMutability": "view",
      "type": "function"
    },
    {
      "stateMutability": "payable",
      "type": "receive"
    }
  ],
  "bytecode": "0x604060808152346200033357620025c990813803806200001f816200034e565b9384398201918181840312620003335780516001600160401b0390818111620003335782019184601f8401121562000333578251918211620003385760059482861b6020948580620000738185016200034e565b809781520192820101928311620003335790858094939201905b8282106200030757505050015190600194600091868355805115620002c35783151580620002b7575b15620002735782875b62000100575b867f6e78f9709a40d80cb630566b78e588dc218d3e1f648faf3ef910f7d11fa527138787808c558351908152a1516122549081620003758239f35b81518110156200026d5780831b82018601516001600160a01b031680156200022957808552600480885260ff8987205416620001f457600380549068010000000000000000821015620001e1578b8201808255821015620001ce5787528887200180546001600160a01b031916831790558186528752878520805460ff19168a1790557f994a936646fe87ffe4f1e469d3d6aa417d6b855598397f323de5b449f765f0c38580a26000198114620001ba57870187620000bf565b634e487b7160e01b84526011600452602484fd5b634e487b7160e01b885260328352602488fd5b634e487b7160e01b885260418352602488fd5b885162461bcd60e51b8152908101889052600f60248201526e223ab83634b1b0ba329037bbb732b960891b6044820152606490fd5b875162461bcd60e51b815260048101889052601560248201527f496e76616c6964206f776e6572206164647265737300000000000000000000006044820152606490fd5b620000c5565b855162461bcd60e51b815260048101869052601b60248201527f496e76616c6964207369676e61747572657320726571756972656400000000006044820152606490fd5b508051841115620000b6565b855162461bcd60e51b815260048101869052601760248201527f4e656564206174206c65617374206f6e65206f776e65720000000000000000006044820152606490fd5b815193945091929091906001600160a01b0381168103620003335781528593929184019084016200008d565b600080fd5b634e487b7160e01b600052604160045260246000fd5b6040519190601f01601f191682016001600160401b03811183821017620003385760405256fe60806040526004361015610018575b361561001657005b005b60003560e01c8063025e7c2714611ccb578063173825d914611b2c57806320ea8d86146119ef578063297b4c2c146119425780632f54bf6e1461190357806333ea3dc8146118775780633411c81c146110aa57806346e24b08146112e35780634e395e2a1461125757806351761bcc146112395780637065cb48146110f757806380f59a65146110aa57806392bf393f146108785780639ace38c2146107e9578063a0e67e2b1461073e578063b77bf60014610720578063c01a8c84146103c7578063ce757d29146103a9578063d9548e5314610362578063ee22610b146101275763ef18374a0361000e5734610122576000366003190112610122576020600354604051908152f35b600080fd5b346101225760208060031936011261012257600435906002600054146103305760026000556101596002548310612025565b816000526005815261017560066040600020015442111561206e565b816000526005815261019260ff60036040600020015416156120b0565b8160005260058152600460406000200154916001928354116102fd578060005260058252604060002060018060a01b03815416848201546002830190604051916000908054906101e182611e27565b918a81169081156102e657506001146102ae575b5050916000939181859403925af13d156102a9573d61021381611f7f565b906102216040519283611f12565b81526000853d92013e5b1561025b57600301805460ff19168417905560405183815233926000805160206121ff83398151915291a3600055005b6064838360405190600082526000805160206121ff833981519152833393a36040519062461bcd60e51b82526004820152601c60248201526000805160206121df8339815191526044820152fd5b61022b565b9091506000528660002087896000925b8484106102d457505050908301905081836101f5565b805484880152019101908989916102be565b60ff191686525050801515028301905081836101f5565b60405162461bcd60e51b815260048101839052601860248201526000805160206121bf8339815191526044820152606490fd5b6064906040519062461bcd60e51b82526004820152601f602482015260008051602061213f8339815191526044820152fd5b346101225760203660031901126101225760043560025481108061038e575b6020906040519015158152f35b50600052600560205260206006604060002001544211610381565b34610122576000366003190112610122576020600154604051908152f35b3461012257602080600319360112610122576004359033600052600481526103f660ff60406000205416611f35565b6104036002548310612025565b8160005260059182825261042160066040600020015442111561206e565b8060005282825261043d60ff60036040600020015416156120b0565b8060005260068252604060002033600052825260ff604060002054166106ed5780600052600682526040600020336000528252604060002060019360ff1991858382541617905582600052808452600460406000200161049d8154611f70565b9055604051338460008051602061217f833981519152600080a383600052818552600460406000200154908654809210156104d457005b6002600054146106bd575060026000556104f16002548510612025565b8360005281855261050c60066040600020015442111561206e565b8360005281855261052860ff60036040600020015416156120b0565b836000528185526004604060002001541061068a57826000528352604060002060018060a01b038154168582015460028301906040519160009080549061056e82611e27565b91888c8216918260001461067657505060011461063e575b5050916000939181859403925af13d15610639573d6105a481611f7f565b906105b26040519283611f12565b81526000863d92013e5b156105eb576003859101918254161790556000805160206121ff833981519152604051928484523393a3600055005b6064848460405190600082526000805160206121ff833981519152833393a36040519062461bcd60e51b82526004820152601c60248201526000805160206121df8339815191526044820152fd5b6105bc565b90915060005287600020888a6000925b8484106106645750505090830190508183610586565b805484880152019101908a8a9161064e565b168652505080151502830190508183610586565b60405162461bcd60e51b815260048101859052601860248201526000805160206121bf8339815191526044820152606490fd5b62461bcd60e51b815260048101869052601f602482015260008051602061213f8339815191526044820152606490fd5b60405162461bcd60e51b815260048101839052601d602482015260008051602061215f8339815191526044820152606490fd5b34610122576000366003190112610122576020600254604051908152f35b346101225760003660031901126101225760405180600354808352602080930180916003600052846000209060005b868282106107cc57868661078382880383611f12565b604051928392818401908285525180915260408401929160005b8281106107ac57505050500390f35b83516001600160a01b03168552869550938101939281019260010161079d565b83546001600160a01b03168552909301926001928301920161076d565b34610122576020366003190112610122576004356000526005602052604060002060018060a01b0381541661087460018301549260405190610839826108328160028501611e61565b0383611f12565b60ff6003820154166004820154906006604051936108658561085e8160058501611e61565b0386611f12565b01549360405197889788611daa565b0390f35b346101225760a036600319011261012257610891611d3e565b6044356001600160401b038111610122576108b0903690600401611dfa565b916064356001600160401b038111610122576108d0903690600401611dfa565b923360005260046020526108eb60ff60406000205416611f35565b6001600160a01b0383161561106c57831561102957426084351115610fe45762278d004201804211610fce5760843511610f895761095a906002549561093087611f70565b6002556040519461094086611ef7565b6001600160a01b0316855260243560208601523691611f9a565b60408301526000606083015260006080830152610978368483611f9a565b60a083015260843560c0830152600084815260056020908152604091829020845181546001600160a01b0319166001600160a01b0391909116178155908401516001820155908301518051919291906001600160401b038211610ef65781906109f1826109e86002880154611e27565b60028801611fd1565b602090601f8311600114610f1757600092610f0c575b50508160011b916000199060031b1c19161760028301555b610a3e60608401511515600384019060ff801983541691151516179055565b6080830151600483015560a08301518051939092906001600160401b038511610ef6578693610a7d86610a746005860154611e27565b60058601611fd1565b602090601f8711600114610e6d57918660008051602061219f833981519152969760c093600695600092610e62575b50508160011b916000199060031b1c19161760058501555b015191015583604051916020835281602084015260408301376000604085830101526040813395601f80199101168101030190a3336000526004602052610b1260ff60406000205416611f35565b610b1f6002548210612025565b806000526005602052610b3c60066040600020015442111561206e565b806000526005602052610b5a60ff60036040600020015416156120b0565b80600052600660205260406000203360005260205260ff60406000205416610e2f578060005260066020526040600020336000526020526040600020600160ff198254161790558060005260056020526004604060002001610bbc8154611f70565b9055604051338260008051602061217f833981519152600080a38160005260056020526004604060002001549060015480921015610c00575b602083604051908152f35b600260005414610dff57506002600055610c1d6002548310612025565b816000526005602052610c3a60066040600020015442111561206e565b816000526005602052610c5860ff60036040600020015416156120b0565b81600052600560205260046040600020015410610dcc57806000526005602052604060002060018060a01b0381541660018201546040519060006002850154610ca081611e27565b9060018116908115610db65750600114610d7e575b50916000939181859403925af13d15610d79573d610cd281611f7f565b90610ce06040519283611f12565b8152600060203d92013e5b15610d295790600360209201600160ff1982541617905560405160018152816000805160206121ff833981519152843393a360016000559082610bf5565b5060405190600082526000805160206121ff83398151915260203393a360405162461bcd60e51b815260206004820152601c60248201526000805160206121df8339815191526044820152606490fd5b610ceb565b90506002850160005260206000206000905b828210610da257505082016000610cb5565b600181602092548488015201910190610d90565b60ff191685525080151502830190506000610cb5565b60405162461bcd60e51b815260206004820152601860248201526000805160206121bf8339815191526044820152606490fd5b62461bcd60e51b815260206004820152601f602482015260008051602061213f8339815191526044820152606490fd5b60405162461bcd60e51b815260206004820152601d602482015260008051602061215f8339815191526044820152606490fd5b015190508b80610aac565b95906005840160005260206000209660005b601f1984168110610edb57508260008051602061219f83398151915297986006959360019360c096601f19811610610ec2575b505050811b016005850155610ac4565b015160001960f88460031b161c191690558b8080610eb2565b8282015189556001909801978a975060209283019201610e7f565b634e487b7160e01b600052604160045260246000fd5b015190508780610a07565b9250600285016000526020600020906000935b601f1984168510610f6e576001945083601f19811610610f55575b505050811b016002830155610a1f565b015160001960f88460031b161c19169055878080610f45565b81810151835560209485019460019093019290910190610f2a565b60405162461bcd60e51b815260206004820152601e60248201527f446561646c696e6520746f6f2066617220696e207468652066757475726500006044820152606490fd5b634e487b7160e01b600052601160045260246000fd5b60405162461bcd60e51b815260206004820152601e60248201527f446561646c696e65206d75737420626520696e207468652066757475726500006044820152606490fd5b60405162461bcd60e51b815260206004820152601b60248201527a4465736372697074696f6e2063616e6e6f7420626520656d70747960281b6044820152606490fd5b60405162461bcd60e51b8152602060048201526016602482015275496e76616c696420746172676574206164647265737360501b6044820152606490fd5b34610122576040366003190112610122576110c3611d54565b600435600052600660205260406000209060018060a01b0316600052602052602060ff604060002054166040519015158152f35b3461012257602036600319011261012257611110611d3e565b61111b3033146120fb565b6001600160a01b0381169081156111fc5781600052600460205260ff604060002054166111c45760035490600160401b821015610ef6576111658260016111849401600355611d0d565b90919082549060031b9160018060a01b03809116831b921b1916179055565b8060005260046020526040600020600160ff198254161790557f994a936646fe87ffe4f1e469d3d6aa417d6b855598397f323de5b449f765f0c3600080a2005b60405162461bcd60e51b815260206004820152601060248201526f20b63932b0b23c9030b71037bbb732b960811b6044820152606490fd5b60405162461bcd60e51b8152602060048201526015602482015274496e76616c6964206f776e6572206164647265737360581b6044820152606490fd5b3461012257600036600319011261012257602060405162093a808152f35b34610122576020366003190112610122576004356002548110806112c7575b806112aa575b8061128e576020906040519015158152f35b5060005260056020526020600660406000200154421115610381565b50806000526005602052600460406000200154600154111561127c565b5080600052600560205260ff6003604060002001541615611276565b34610122576080366003190112610122576112fc611d3e565b6044356001600160401b0381116101225761131b903690600401611dfa565b916064356001600160401b0381116101225761133b903690600401611dfa565b9233600052600460205261135660ff60406000205416611f35565b62093a8042014211610fce5733600052600460205261137c60ff60406000205416611f35565b6001600160a01b0383161561106c578315611029574262093a8042011115610fe45762278d004201804211610fce5762093a80420111610f89576113c7906002549561093087611f70565b604083015260006060830152600060808301526113e5368483611f9a565b60a08301524262093a800160c0830152600084815260056020908152604091829020845181546001600160a01b0319166001600160a01b0391909116178155908401516001820155908301518051919291906001600160401b038211610ef6578190611458826109e86002880154611e27565b602090601f8311600114611805576000926117fa575b50508160011b916000199060031b1c19161760028301555b6114a560608401511515600384019060ff801983541691151516179055565b6080830151600483015560a08301518051939092906001600160401b038511610ef65786936114db86610a746005860154611e27565b602090601f871160011461177157918660008051602061219f833981519152969760c093600695600092611766575b50508160011b916000199060031b1c19161760058501555b015191015583604051916020835281602084015260408301376000604085830101526040813395601f80199101168101030190a333600052600460205261157060ff60406000205416611f35565b61157d6002548210612025565b80600052600560205261159a60066040600020015442111561206e565b8060005260056020526115b860ff60036040600020015416156120b0565b80600052600660205260406000203360005260205260ff60406000205416610e2f578060005260066020526040600020336000526020526040600020600160ff19825416179055806000526005602052600460406000200161161a8154611f70565b9055604051338260008051602061217f833981519152600080a3816000526005602052600460406000200154906001548092101561165d57602083604051908152f35b600260005414610dff5750600260005561167a6002548310612025565b81600052600560205261169760066040600020015442111561206e565b8160005260056020526116b560ff60036040600020015416156120b0565b81600052600560205260046040600020015410610dcc57806000526005602052604060002060018060a01b03815416600182015460405190600060028501546116fd81611e27565b9060018116908115610db6575060011461172e5750916000939181859403925af13d15610d79573d610cd281611f7f565b90506002850160005260206000206000905b82821061175257505082016000610cb5565b600181602092548488015201910190611740565b015190508b8061150a565b95906005840160005260206000209660005b601f19841681106117df57508260008051602061219f83398151915297986006959360019360c096601f198116106117c6575b505050811b016005850155611522565b015160001960f88460031b161c191690558b80806117b6565b8282015189556001909801978a975060209283019201611783565b01519050878061146e565b9250600285016000526020600020906000935b601f198416851061185c576001945083601f19811610611843575b505050811b016002830155611486565b015160001960f88460031b161c19169055878080611833565b81810151835560209485019460019093019290910190611818565b34610122576020366003190112610122576004356000526005602052604060002060018060a01b03815416610874600183015492600560ff6003830154166004830154906006840154936118f7604051916118e0836118d98160028501611e61565b0384611f12565b6118f06040518097819301611e61565b0385611f12565b60405197889788611daa565b34610122576020366003190112610122576001600160a01b03611924611d3e565b166000526004602052602060ff604060002054166040519015158152f35b34610122576020366003190112610122576004356119613033146120fb565b801515806119e3575b156119a0576020817f6e78f9709a40d80cb630566b78e588dc218d3e1f648faf3ef910f7d11fa5271392600155604051908152a1005b60405162461bcd60e51b815260206004820152601b60248201527a125b9d985b1a59081cda59db985d1d5c995cc81c995c5d5a5c9959602a1b6044820152606490fd5b5060035481111561196a565b346101225760208060031936011261012257600435903360005260048152611a1e60ff60406000205416611f35565b611a2b6002548310612025565b8160005260058152611a4760066040600020015442111561206e565b8160005260058152611a6460ff60036040600020015416156120b0565b8160005260068152604060002033600052815260ff6040600020541615611aec5760059082600052600681526040600020336000528152604060002060ff1981541690558260005252600460406000200180548015610fce5760001901905533907f4cd471041f6b9ff47536a54a3d3ab62d0fa9dd5e36c0418b294b1673acb31881600080a3005b6064906040519062461bcd60e51b825260048201526019602482015278151c985b9cd858dd1a5bdb881b9bdd0818dbdb999a5c9b5959603a1b6044820152fd5b3461012257602036600319011261012257611b45611d3e565b611b503033146120fb565b60018060a01b0380911690816000526004602052611b7560ff60406000205416611f35565b60039081549160019283541015611c73576000835b611bcd575b84806000526004602052604060002060ff1981541690557f58619076adf5bb0943d100ef88d52d7c3fd691b19d3a9071b555b651fbf418da600080a2005b815480821015611c6d578584611be284611d0d565b905490861b1c1614611bfe5750611bf890611f70565b83611b8a565b929350909160001991828201918211610fce5761116585611c21611c2e94611d0d565b905490871b1c1691611d0d565b81548015611c57570191611c4183611d0d565b9091825491841b1b191690555581808080611b8f565b634e487b7160e01b600052603160045260246000fd5b50611b8f565b60405162461bcd60e51b815260206004820152602a60248201527f43616e6e6f742072656d6f7665206f776e65722c20776f756c6420627265616b604482015269081d1a1c995cda1bdb1960b21b6064820152608490fd5b346101225760203660031901126101225760043560035481101561012257611cf4602091611d0d565b905460405160039290921b1c6001600160a01b03168152f35b600354811015611d2857600360005260206000200190600090565b634e487b7160e01b600052603260045260246000fd5b600435906001600160a01b038216820361012257565b602435906001600160a01b038216820361012257565b919082519283825260005b848110611d96575050826000602080949584010152601f8019910116010190565b602081830181015184830182015201611d75565b97969591611df59493611ddb9160c0979360018060a01b03168b5260208b015260e060408b015260e08a0190611d6a565b9215156060890152608088015286820360a0880152611d6a565b930152565b9181601f84011215610122578235916001600160401b038311610122576020838186019501011161012257565b90600182811c92168015611e57575b6020831014611e4157565b634e487b7160e01b600052602260045260246000fd5b91607f1691611e36565b9060009291805491611e7283611e27565b918282526001938481169081600014611ed45750600114611e94575b50505050565b90919394506000526020928360002092846000945b838610611ec0575050505001019038808080611e8e565b805485870183015294019385908201611ea9565b9294505050602093945060ff191683830152151560051b01019038808080611e8e565b60e081019081106001600160401b03821117610ef657604052565b601f909101601f19168101906001600160401b03821190821017610ef657604052565b15611f3c57565b60405162461bcd60e51b815260206004820152600c60248201526b2737ba1030b71037bbb732b960a11b6044820152606490fd5b6000198114610fce5760010190565b6001600160401b038111610ef657601f01601f191660200190565b929192611fa682611f7f565b91611fb46040519384611f12565b829481845281830111610122578281602093846000960137010152565b90601f8111611fdf57505050565b600091825260208220906020601f850160051c8301941061201b575b601f0160051c01915b82811061201057505050565b818155600101612004565b9092508290611ffb565b1561202c57565b60405162461bcd60e51b815260206004820152601a602482015279151c985b9cd858dd1a5bdb88191bd95cc81b9bdd08195e1a5cdd60321b6044820152606490fd5b1561207557565b60405162461bcd60e51b8152602060048201526013602482015272151c985b9cd858dd1a5bdb88195e1c1a5c9959606a1b6044820152606490fd5b156120b757565b60405162461bcd60e51b815260206004820152601c60248201527b151c985b9cd858dd1a5bdb88185b1c9958591e48195e1958dd5d195960221b6044820152606490fd5b1561210257565b60405162461bcd60e51b815260206004820152601460248201527313db9b1e481dd85b1b195d0818d85b8818d85b1b60621b6044820152606490fdfe5265656e7472616e637947756172643a207265656e7472616e742063616c6c005472616e73616374696f6e20616c726561647920636f6e6669726d656400000015c2f311c9e0f53b50388279894aeff029a3457884a6601e924fca879e12adcc8fbf4f65d1f3823b3d085c847ec89a63ac3fe7ae0c29bd32f3cb14c6c998009f4e6f7420656e6f75676820636f6e6669726d6174696f6e7300000000000000005472616e73616374696f6e20657865637574696f6e206661696c65640000000094f14265a1bda0f8e6a1f3f0ee7928a32c64696e492a36c6a7820ef7ac8fcba9a264697066735822122025c89737991f0084aad5db7b1983a80375f71709e7cdf5cf70be4fe26f51741e64736f6c63430008140033",
  "linkReferences": {},
  "deployedLinkReferences": {}
}