{
  "_format": "hh-sol-artifact-1",
  "contractName": "PropertyMarket",
  "sourceName": "contracts/market/PropertyMarket.sol",
  "abi": [
    {
      "inputs": [
        {
          "internalType": "address",
          "name": "_adminControl",
          "type": "address"
        },
        {
          "internalType": "address",
          "name": "_nftiAddress",
          "type": "address"
        },
        {
          "internalType": "address",
          "name": "_nftmAddress",
          "type": "address"
        }
      ],
      "stateMutability": "nonpayable",
      "type": "constructor"
    },
    {
      "anonymous": false,
      "inputs": [
        {
          "indexed": true,
          "internalType": "uint256",
          "name": "tokenId",
          "type": "uint256"
        },
        {
          "indexed": false,
          "internalType": "uint256",
          "name": "newPrice",
          "type": "uint256"
        },
        {
          "indexed": false,
          "internalType": "address",
          "name": "newPaymentToken",
          "type": "address"
        }
      ],
      "name": "ListingUpdated",
      "type": "event"
    },
    {
      "anonymous": false,
      "inputs": [
        {
          "indexed": true,
          "internalType": "uint256",
          "name": "tokenId",
          "type": "uint256"
        },
        {
          "indexed": true,
          "internalType": "address",
          "name": "seller",
          "type": "address"
        },
        {
          "indexed": false,
          "internalType": "uint256",
          "name": "price",
          "type": "uint256"
        },
        {
          "indexed": false,
          "internalType": "address",
          "name": "paymentToken",
          "type": "address"
        }
      ],
      "name": "NewListing",
      "type": "event"
    },
    {
      "anonymous": false,
      "inputs": [
        {
          "indexed": true,
          "internalType": "uint256",
          "name": "tokenId",
          "type": "uint256"
        },
        {
          "indexed": false,
          "internalType": "address",
          "name": "buyer",
          "type": "address"
        },
        {
          "indexed": false,
          "internalType": "uint256",
          "name": "price",
          "type": "uint256"
        },
        {
          "indexed": false,
          "internalType": "address",
          "name": "paymentToken",
          "type": "address"
        }
      ],
      "name": "PropertySold",
      "type": "event"
    },
    {
      "inputs": [],
      "name": "adminControl",
      "outputs": [
        {
          "internalType": "contract AdminControl",
          "name": "",
          "type": "address"
        }
      ],
      "stateMutability": "view",
      "type": "function"
    },
    {
      "inputs": [
        {
          "internalType": "uint256",
          "name": "tokenId",
          "type": "uint256"
        }
      ],
      "name": "getListingDetails",
      "outputs": [
        {
          "internalType": "address",
          "name": "seller",
          "type": "address"
        },
        {
          "internalType": "uint256",
          "name": "price",
          "type": "uint256"
        },
        {
          "internalType": "address",
          "name": "paymentToken",
          "type": "address"
        },
        {
          "internalType": "enum PropertyMarket.PropertyStatus",
          "name": "status",
          "type": "uint8"
        },
        {
          "internalType": "uint256",
          "name": "listTimestamp",
          "type": "uint256"
        }
      ],
      "stateMutability": "view",
      "type": "function"
    },
    {
      "inputs": [
        {
          "internalType": "address",
          "name": "",
          "type": "address"
        },
        {
          "internalType": "uint256",
          "name": "",
          "type": "uint256"
        }
      ],
      "name": "leaseTerms",
      "outputs": [
        {
          "internalType": "uint256",
          "name": "",
          "type": "uint256"
        }
      ],
      "stateMutability": "view",
      "type": "function"
    },
    {
      "inputs": [
        {
          "internalType": "uint256",
          "name": "tokenId",
          "type": "uint256"
        },
        {
          "internalType": "uint256",
          "name": "price",
          "type": "uint256"
        },
        {
          "internalType": "address",
          "name": "paymentToken",
          "type": "address"
        }
      ],
      "name": "listProperty",
      "outputs": [],
      "stateMutability": "nonpayable",
      "type": "function"
    },
    {
      "inputs": [
        {
          "internalType": "uint256",
          "name": "",
          "type": "uint256"
        }
      ],
      "name": "listings",
      "outputs": [
        {
          "internalType": "uint256",
          "name": "tokenId",
          "type": "uint256"
        },
        {
          "internalType": "address",
          "name": "seller",
          "type": "address"
        },
        {
          "internalType": "uint256",
          "name": "price",
          "type": "uint256"
        },
        {
          "internalType": "address",
          "name": "paymentToken",
          "type": "address"
        },
        {
          "internalType": "enum PropertyMarket.PropertyStatus",
          "name": "status",
          "type": "uint8"
        },
        {
          "internalType": "uint256",
          "name": "listTimestamp",
          "type": "uint256"
        },
        {
          "internalType": "uint256",
          "name": "lastRenewed",
          "type": "uint256"
        }
      ],
      "stateMutability": "view",
      "type": "function"
    },
    {
      "inputs": [],
      "name": "nftiContract",
      "outputs": [
        {
          "internalType": "contract IERC721",
          "name": "",
          "type": "address"
        }
      ],
      "stateMutability": "view",
      "type": "function"
    },
    {
      "inputs": [],
      "name": "nftmContract",
      "outputs": [
        {
          "internalType": "contract IERC721",
          "name": "",
          "type": "address"
        }
      ],
      "stateMutability": "view",
      "type": "function"
    },
    {
      "inputs": [
        {
          "internalType": "uint256",
          "name": "tokenId",
          "type": "uint256"
        },
        {
          "internalType": "uint256",
          "name": "offerPrice",
          "type": "uint256"
        }
      ],
      "name": "purchaseProperty",
      "outputs": [],
      "stateMutability": "payable",
      "type": "function"
    },
    {
      "inputs": [
        {
          "internalType": "uint256",
          "name": "tokenId",
          "type": "uint256"
        },
        {
          "internalType": "uint256",
          "name": "newPrice",
          "type": "uint256"
        },
        {
          "internalType": "address",
          "name": "newPaymentToken",
          "type": "address"
        }
      ],
      "name": "updateListing",
      "outputs": [],
      "stateMutability": "nonpayable",
      "type": "function"
    }
  ],
  "bytecode": "0x60e060405234801561001057600080fd5b5060405161207038038061207083398181016040528101906100329190610141565b60016000819055508273ffffffffffffffffffffffffffffffffffffffff1660808173ffffffffffffffffffffffffffffffffffffffff16815250508173ffffffffffffffffffffffffffffffffffffffff1660a08173ffffffffffffffffffffffffffffffffffffffff16815250508073ffffffffffffffffffffffffffffffffffffffff1660c08173ffffffffffffffffffffffffffffffffffffffff1681525050505050610194565b600080fd5b600073ffffffffffffffffffffffffffffffffffffffff82169050919050565b600061010e826100e3565b9050919050565b61011e81610103565b811461012957600080fd5b50565b60008151905061013b81610115565b92915050565b60008060006060848603121561015a576101596100de565b5b60006101688682870161012c565b93505060206101798682870161012c565b925050604061018a8682870161012c565b9150509250925092565b60805160a05160c051611e7c6101f46000396000610cbe015260008181610476015281816105eb015261062e0152600081816102d4015281816105c70152818161071e01528181610a0801528181610a990152610eb30152611e7c6000f3fe6080604052600436106100865760003560e01c8063887f495a11610059578063887f495a14610126578063ad7bbd5a1461014f578063cbb9c9a41461018c578063de74e57b146101b7578063fb05da2e146101fa57610086565b80634f8434941461008b578063555d3e63146100a7578063592eb924146100d257806386aa217e146100fd575b600080fd5b6100a560048036038101906100a091906112aa565b61023b565b005b3480156100b357600080fd5b506100bc6105c5565b6040516100c99190611369565b60405180910390f35b3480156100de57600080fd5b506100e76105e9565b6040516100f491906113a5565b60405180910390f35b34801561010957600080fd5b50610124600480360381019061011f91906113fe565b61060d565b005b34801561013257600080fd5b5061014d600480360381019061014891906113fe565b610a04565b005b34801561015b57600080fd5b5061017660048036038101906101719190611451565b610c97565b60405161018391906114a0565b60405180910390f35b34801561019857600080fd5b506101a1610cbc565b6040516101ae91906113a5565b60405180910390f35b3480156101c357600080fd5b506101de60048036038101906101d991906114bb565b610ce0565b6040516101f1979695949392919061156e565b60405180910390f35b34801561020657600080fd5b50610221600480360381019061021c91906114bb565b610d6f565b6040516102329594939291906115dd565b60405180910390f35b610243610e07565b60006001600084815260200190815260200160002090506000600381111561026e5761026d6114f7565b5b8160030160149054906101000a900460ff166003811115610292576102916114f7565b5b146102d2576040517f08c379a00000000000000000000000000000000000000000000000000000000081526004016102c99061168d565b60405180910390fd5b7f000000000000000000000000000000000000000000000000000000000000000073ffffffffffffffffffffffffffffffffffffffff166354b7636e336040518263ffffffff1660e01b815260040161032b91906116ad565b602060405180830381865afa158015610348573d6000803e3d6000fd5b505050506040513d601f19601f8201168201806040525081019061036c9190611700565b6103ab576040517f08c379a00000000000000000000000000000000000000000000000000000000081526004016103a290611779565b60405180910390fd5b6103de8160020154838360030160009054906101000a900473ffffffffffffffffffffffffffffffffffffffff16610e56565b61041d576040517f08c379a0000000000000000000000000000000000000000000000000000000008152600401610414906117e5565b60405180910390fd5b6104748160010160009054906101000a900473ffffffffffffffffffffffffffffffffffffffff1682600201548360030160009054906101000a900473ffffffffffffffffffffffffffffffffffffffff16610eae565b7f000000000000000000000000000000000000000000000000000000000000000073ffffffffffffffffffffffffffffffffffffffff166323b872dd8260010160009054906101000a900473ffffffffffffffffffffffffffffffffffffffff1633866040518463ffffffff1660e01b81526004016104f593929190611805565b600060405180830381600087803b15801561050f57600080fd5b505af1158015610523573d6000803e3d6000fd5b5050505060028160030160146101000a81548160ff0219169083600381111561054f5761054e6114f7565b5b0217905550827f5be1cef2101afbbf72fccd811a15ccfdedc8c44b5f50934100f262ffcd9a1f063383600201548460030160009054906101000a900473ffffffffffffffffffffffffffffffffffffffff166040516105b09392919061183c565b60405180910390a2506105c1611265565b5050565b7f000000000000000000000000000000000000000000000000000000000000000081565b7f000000000000000000000000000000000000000000000000000000000000000081565b610615610e07565b3373ffffffffffffffffffffffffffffffffffffffff167f000000000000000000000000000000000000000000000000000000000000000073ffffffffffffffffffffffffffffffffffffffff16636352211e856040518263ffffffff1660e01b815260040161068591906114a0565b602060405180830381865afa1580156106a2573d6000803e3d6000fd5b505050506040513d601f19601f820116820180604052508101906106c69190611888565b73ffffffffffffffffffffffffffffffffffffffff161461071c576040517f08c379a000000000000000000000000000000000000000000000000000000000815260040161071390611901565b60405180910390fd5b7f000000000000000000000000000000000000000000000000000000000000000073ffffffffffffffffffffffffffffffffffffffff166354b7636e336040518263ffffffff1660e01b815260040161077591906116ad565b602060405180830381865afa158015610792573d6000803e3d6000fd5b505050506040513d601f19601f820116820180604052508101906107b69190611700565b6107f5576040517f08c379a00000000000000000000000000000000000000000000000000000000081526004016107ec90611779565b60405180910390fd5b60008211610838576040517f08c379a000000000000000000000000000000000000000000000000000000000815260040161082f9061196d565b60405180910390fd5b6040518060e001604052808481526020013373ffffffffffffffffffffffffffffffffffffffff1681526020018381526020018273ffffffffffffffffffffffffffffffffffffffff1681526020016000600381111561089b5761089a6114f7565b5b815260200142815260200142815250600160008581526020019081526020016000206000820151816000015560208201518160010160006101000a81548173ffffffffffffffffffffffffffffffffffffffff021916908373ffffffffffffffffffffffffffffffffffffffff1602179055506040820151816002015560608201518160030160006101000a81548173ffffffffffffffffffffffffffffffffffffffff021916908373ffffffffffffffffffffffffffffffffffffffff16021790555060808201518160030160146101000a81548160ff0219169083600381111561098a576109896114f7565b5b021790555060a0820151816004015560c082015181600501559050503373ffffffffffffffffffffffffffffffffffffffff16837f2c6c7576542d9307c65e21c836da28fc580279667ba9e8d5fe56dca491d5980384846040516109ef92919061198d565b60405180910390a36109ff611265565b505050565b60007f000000000000000000000000000000000000000000000000000000000000000073ffffffffffffffffffffffffffffffffffffffff1663f5b541a66040518163ffffffff1660e01b8152600401602060405180830381865afa158015610a71573d6000803e3d6000fd5b505050506040513d601f19601f82011682018060405250810190610a9591906119ec565b90507f000000000000000000000000000000000000000000000000000000000000000073ffffffffffffffffffffffffffffffffffffffff166391d1485482336040518363ffffffff1660e01b8152600401610af2929190611a28565b602060405180830381865afa158015610b0f573d6000803e3d6000fd5b505050506040513d601f19601f82011682018060405250810190610b339190611700565b610b72576040517f08c379a0000000000000000000000000000000000000000000000000000000008152600401610b6990611a9d565b60405180910390fd5b600060016000868152602001908152602001600020905060006003811115610b9d57610b9c6114f7565b5b8160030160149054906101000a900460ff166003811115610bc157610bc06114f7565b5b14610c01576040517f08c379a0000000000000000000000000000000000000000000000000000000008152600401610bf890611b09565b60405180910390fd5b838160020181905550828160030160006101000a81548173ffffffffffffffffffffffffffffffffffffffff021916908373ffffffffffffffffffffffffffffffffffffffff160217905550428160050181905550847fb82cb8d1ee5aa2af90399f2b0ece446b81a5f1e601da16a2a2b62dfcc8bb4ba38585604051610c8892919061198d565b60405180910390a25050505050565b6002602052816000526040600020602052806000526040600020600091509150505481565b7f000000000000000000000000000000000000000000000000000000000000000081565b60016020528060005260406000206000915090508060000154908060010160009054906101000a900473ffffffffffffffffffffffffffffffffffffffff16908060020154908060030160009054906101000a900473ffffffffffffffffffffffffffffffffffffffff16908060030160149054906101000a900460ff16908060040154908060050154905087565b6000806000806000806001600088815260200190815260200160002090508060010160009054906101000a900473ffffffffffffffffffffffffffffffffffffffff1681600201548260030160009054906101000a900473ffffffffffffffffffffffffffffffffffffffff168360030160149054906101000a900460ff168460040154955095509550955095505091939590929450565b600260005403610e4c576040517f08c379a0000000000000000000000000000000000000000000000000000000008152600401610e4390611b75565b60405180910390fd5b6002600081905550565b60008073ffffffffffffffffffffffffffffffffffffffff168273ffffffffffffffffffffffffffffffffffffffff1603610ea157833410158015610e9a57508383145b9050610ea7565b83831490505b9392505050565b6000807f000000000000000000000000000000000000000000000000000000000000000073ffffffffffffffffffffffffffffffffffffffff16631e5eb1d06040518163ffffffff1660e01b8152600401606060405180830381865afa158015610f1c573d6000803e3d6000fd5b505050506040513d601f19601f82011682018060405250810190610f409190611baa565b925050915060006127108386610f569190611c2c565b610f609190611c9d565b905060008186610f709190611cce565b9050600073ffffffffffffffffffffffffffffffffffffffff168573ffffffffffffffffffffffffffffffffffffffff16036110d75785341015610fe9576040517f08c379a0000000000000000000000000000000000000000000000000000000008152600401610fe090611d4e565b60405180910390fd5b85341115611044573373ffffffffffffffffffffffffffffffffffffffff166108fc87346110179190611cce565b9081150290604051600060405180830381858888f19350505050158015611042573d6000803e3d6000fd5b505b8673ffffffffffffffffffffffffffffffffffffffff166108fc829081150290604051600060405180830381858888f1935050505015801561108a573d6000803e3d6000fd5b508273ffffffffffffffffffffffffffffffffffffffff166108fc839081150290604051600060405180830381858888f193505050501580156110d1573d6000803e3d6000fd5b5061125c565b60008590508073ffffffffffffffffffffffffffffffffffffffff166323b872dd338a856040518463ffffffff1660e01b815260040161111993929190611805565b6020604051808303816000875af1158015611138573d6000803e3d6000fd5b505050506040513d601f19601f8201168201806040525081019061115c9190611700565b61119b576040517f08c379a000000000000000000000000000000000000000000000000000000000815260040161119290611dba565b60405180910390fd5b8073ffffffffffffffffffffffffffffffffffffffff166323b872dd3386866040518463ffffffff1660e01b81526004016111d893929190611805565b6020604051808303816000875af11580156111f7573d6000803e3d6000fd5b505050506040513d601f19601f8201168201806040525081019061121b9190611700565b61125a576040517f08c379a000000000000000000000000000000000000000000000000000000000815260040161125190611e26565b60405180910390fd5b505b50505050505050565b6001600081905550565b600080fd5b6000819050919050565b61128781611274565b811461129257600080fd5b50565b6000813590506112a48161127e565b92915050565b600080604083850312156112c1576112c061126f565b5b60006112cf85828601611295565b92505060206112e085828601611295565b9150509250929050565b600073ffffffffffffffffffffffffffffffffffffffff82169050919050565b6000819050919050565b600061132f61132a611325846112ea565b61130a565b6112ea565b9050919050565b600061134182611314565b9050919050565b600061135382611336565b9050919050565b61136381611348565b82525050565b600060208201905061137e600083018461135a565b92915050565b600061138f82611336565b9050919050565b61139f81611384565b82525050565b60006020820190506113ba6000830184611396565b92915050565b60006113cb826112ea565b9050919050565b6113db816113c0565b81146113e657600080fd5b50565b6000813590506113f8816113d2565b92915050565b6000806000606084860312156114175761141661126f565b5b600061142586828701611295565b935050602061143686828701611295565b9250506040611447868287016113e9565b9150509250925092565b600080604083850312156114685761146761126f565b5b6000611476858286016113e9565b925050602061148785828601611295565b9150509250929050565b61149a81611274565b82525050565b60006020820190506114b56000830184611491565b92915050565b6000602082840312156114d1576114d061126f565b5b60006114df84828501611295565b91505092915050565b6114f1816113c0565b82525050565b7f4e487b7100000000000000000000000000000000000000000000000000000000600052602160045260246000fd5b60048110611537576115366114f7565b5b50565b600081905061154882611526565b919050565b60006115588261153a565b9050919050565b6115688161154d565b82525050565b600060e082019050611583600083018a611491565b61159060208301896114e8565b61159d6040830188611491565b6115aa60608301876114e8565b6115b7608083018661155f565b6115c460a0830185611491565b6115d160c0830184611491565b98975050505050505050565b600060a0820190506115f260008301886114e8565b6115ff6020830187611491565b61160c60408301866114e8565b611619606083018561155f565b6116266080830184611491565b9695505050505050565b600082825260208201905092915050565b7f4e6f7420617661696c61626c6500000000000000000000000000000000000000600082015250565b6000611677600d83611630565b915061168282611641565b602082019050919050565b600060208201905081810360008301526116a68161166a565b9050919050565b60006020820190506116c260008301846114e8565b92915050565b60008115159050919050565b6116dd816116c8565b81146116e857600080fd5b50565b6000815190506116fa816116d4565b92915050565b6000602082840312156117165761171561126f565b5b6000611724848285016116eb565b91505092915050565b7f4b59432072657175697265640000000000000000000000000000000000000000600082015250565b6000611763600c83611630565b915061176e8261172d565b602082019050919050565b6000602082019050818103600083015261179281611756565b9050919050565b7f5061796d656e74206661696c6564000000000000000000000000000000000000600082015250565b60006117cf600e83611630565b91506117da82611799565b602082019050919050565b600060208201905081810360008301526117fe816117c2565b9050919050565b600060608201905061181a60008301866114e8565b61182760208301856114e8565b6118346040830184611491565b949350505050565b600060608201905061185160008301866114e8565b61185e6020830185611491565b61186b60408301846114e8565b949350505050565b600081519050611882816113d2565b92915050565b60006020828403121561189e5761189d61126f565b5b60006118ac84828501611873565b91505092915050565b7f4e6f74204e465469206f776e6572000000000000000000000000000000000000600082015250565b60006118eb600e83611630565b91506118f6826118b5565b602082019050919050565b6000602082019050818103600083015261191a816118de565b9050919050565b7f496e76616c696420707269636500000000000000000000000000000000000000600082015250565b6000611957600d83611630565b915061196282611921565b602082019050919050565b600060208201905081810360008301526119868161194a565b9050919050565b60006040820190506119a26000830185611491565b6119af60208301846114e8565b9392505050565b6000819050919050565b6119c9816119b6565b81146119d457600080fd5b50565b6000815190506119e6816119c0565b92915050565b600060208284031215611a0257611a0161126f565b5b6000611a10848285016119d7565b91505092915050565b611a22816119b6565b82525050565b6000604082019050611a3d6000830185611a19565b611a4a60208301846114e8565b9392505050565b7f4f70657261746f72207265717569726564000000000000000000000000000000600082015250565b6000611a87601183611630565b9150611a9282611a51565b602082019050919050565b60006020820190508181036000830152611ab681611a7a565b9050919050565b7f4e6f7420616374697665206c697374696e670000000000000000000000000000600082015250565b6000611af3601283611630565b9150611afe82611abd565b602082019050919050565b60006020820190508181036000830152611b2281611ae6565b9050919050565b7f5265656e7472616e637947756172643a207265656e7472616e742063616c6c00600082015250565b6000611b5f601f83611630565b9150611b6a82611b29565b602082019050919050565b60006020820190508181036000830152611b8e81611b52565b9050919050565b600081519050611ba48161127e565b92915050565b600080600060608486031215611bc357611bc261126f565b5b6000611bd186828701611b95565b9350506020611be286828701611b95565b9250506040611bf386828701611873565b9150509250925092565b7f4e487b7100000000000000000000000000000000000000000000000000000000600052601160045260246000fd5b6000611c3782611274565b9150611c4283611274565b9250828202611c5081611274565b91508282048414831517611c6757611c66611bfd565b5b5092915050565b7f4e487b7100000000000000000000000000000000000000000000000000000000600052601260045260246000fd5b6000611ca882611274565b9150611cb383611274565b925082611cc357611cc2611c6e565b5b828204905092915050565b6000611cd982611274565b9150611ce483611274565b9250828203905081811115611cfc57611cfb611bfd565b5b92915050565b7f496e73756666696369656e742045544800000000000000000000000000000000600082015250565b6000611d38601083611630565b9150611d4382611d02565b602082019050919050565b60006020820190508181036000830152611d6781611d2b565b9050919050565b7f5472616e73666572206661696c65640000000000000000000000000000000000600082015250565b6000611da4600f83611630565b9150611daf82611d6e565b602082019050919050565b60006020820190508181036000830152611dd381611d97565b9050919050565b7f466565207472616e73666572206661696c656400000000000000000000000000600082015250565b6000611e10601383611630565b9150611e1b82611dda565b602082019050919050565b60006020820190508181036000830152611e3f81611e03565b905091905056fea26469706673582212203e94dd205d3f6a4ecf7b1b911eea208041c0b9572a34187b30b0ae640f19098564736f6c634300081c0033",
  "linkReferences": {},
  "deployedLinkReferences": {}
}