{
  "_format": "hh-sol-artifact-1",
  "contractName": "LifeToken",
  "sourceName": "contracts/tokens/LifeToken.sol",
  "abi": [
    {
      "inputs": [
        {
          "internalType": "address",
          "name": "initialOwner_",
          "type": "address"
        }
      ],
      "stateMutability": "nonpayable",
      "type": "constructor"
    },
    {
      "anonymous": false,
      "inputs": [
        {
          "indexed": true,
          "internalType": "address",
          "name": "owner",
          "type": "address"
        },
        {
          "indexed": true,
          "internalType": "address",
          "name": "spender",
          "type": "address"
        },
        {
          "indexed": false,
          "internalType": "uint256",
          "name": "value",
          "type": "uint256"
        }
      ],
      "name": "Approval",
      "type": "event"
    },
    {
      "anonymous": false,
      "inputs": [
        {
          "indexed": true,
          "internalType": "address",
          "name": "account",
          "type": "address"
        },
        {
          "indexed": false,
          "internalType": "uint256",
          "name": "oldAmount",
          "type": "uint256"
        },
        {
          "indexed": false,
          "internalType": "uint256",
          "name": "newAmount",
          "type": "uint256"
        },
        {
          "indexed": false,
          "internalType": "uint256",
          "name": "timestamp",
          "type": "uint256"
        }
      ],
      "name": "BaseBalanceAdjusted",
      "type": "event"
    },
    {
      "anonymous": false,
      "inputs": [
        {
          "indexed": true,
          "internalType": "address",
          "name": "newDistributor",
          "type": "address"
        }
      ],
      "name": "DistributorUpdated",
      "type": "event"
    },
    {
      "anonymous": false,
      "inputs": [
        {
          "indexed": true,
          "internalType": "address",
          "name": "account",
          "type": "address"
        },
        {
          "indexed": false,
          "internalType": "bool",
          "name": "oldExcluded",
          "type": "bool"
        },
        {
          "indexed": false,
          "internalType": "bool",
          "name": "newExcluded",
          "type": "bool"
        }
      ],
      "name": "ExcludedFromRebase",
      "type": "event"
    },
    {
      "anonymous": false,
      "inputs": [
        {
          "indexed": true,
          "internalType": "address",
          "name": "recipient",
          "type": "address"
        },
        {
          "indexed": false,
          "internalType": "uint256",
          "name": "amount",
          "type": "uint256"
        }
      ],
      "name": "Mint",
      "type": "event"
    },
    {
      "anonymous": false,
      "inputs": [
        {
          "indexed": true,
          "internalType": "address",
          "name": "canceledOwner",
          "type": "address"
        }
      ],
      "name": "OwnershipTransferCanceled",
      "type": "event"
    },
    {
      "anonymous": false,
      "inputs": [
        {
          "indexed": true,
          "internalType": "address",
          "name": "pendingOwner",
          "type": "address"
        }
      ],
      "name": "OwnershipTransferStarted",
      "type": "event"
    },
    {
      "anonymous": false,
      "inputs": [
        {
          "indexed": true,
          "internalType": "address",
          "name": "previousOwner",
          "type": "address"
        },
        {
          "indexed": true,
          "internalType": "address",
          "name": "newOwner",
          "type": "address"
        }
      ],
      "name": "OwnershipTransferred",
      "type": "event"
    },
    {
      "anonymous": false,
      "inputs": [
        {
          "indexed": true,
          "internalType": "uint256",
          "name": "epoch",
          "type": "uint256"
        },
        {
          "indexed": false,
          "internalType": "uint256",
          "name": "oldFactor",
          "type": "uint256"
        },
        {
          "indexed": false,
          "internalType": "uint256",
          "name": "newFactor",
          "type": "uint256"
        }
      ],
      "name": "Rebase",
      "type": "event"
    },
    {
      "anonymous": false,
      "inputs": [
        {
          "indexed": true,
          "internalType": "address",
          "name": "newRebaser",
          "type": "address"
        }
      ],
      "name": "RebaserUpdated",
      "type": "event"
    },
    {
      "anonymous": false,
      "inputs": [
        {
          "indexed": true,
          "internalType": "address",
          "name": "from",
          "type": "address"
        },
        {
          "indexed": true,
          "internalType": "address",
          "name": "to",
          "type": "address"
        },
        {
          "indexed": false,
          "internalType": "uint256",
          "name": "value",
          "type": "uint256"
        }
      ],
      "name": "Transfer",
      "type": "event"
    },
    {
      "inputs": [],
      "name": "INITIAL_SUPPLY",
      "outputs": [
        {
          "internalType": "uint256",
          "name": "",
          "type": "uint256"
        }
      ],
      "stateMutability": "view",
      "type": "function"
    },
    {
      "inputs": [],
      "name": "MAX_SUPPLY",
      "outputs": [
        {
          "internalType": "uint256",
          "name": "",
          "type": "uint256"
        }
      ],
      "stateMutability": "view",
      "type": "function"
    },
    {
      "inputs": [],
      "name": "TOKEN_UNIT",
      "outputs": [
        {
          "internalType": "uint256",
          "name": "",
          "type": "uint256"
        }
      ],
      "stateMutability": "view",
      "type": "function"
    },
    {
      "inputs": [],
      "name": "acceptOwnership",
      "outputs": [],
      "stateMutability": "nonpayable",
      "type": "function"
    },
    {
      "inputs": [
        {
          "internalType": "address",
          "name": "owner",
          "type": "address"
        },
        {
          "internalType": "address",
          "name": "spender",
          "type": "address"
        }
      ],
      "name": "allowance",
      "outputs": [
        {
          "internalType": "uint256",
          "name": "",
          "type": "uint256"
        }
      ],
      "stateMutability": "view",
      "type": "function"
    },
    {
      "inputs": [
        {
          "internalType": "address",
          "name": "spender",
          "type": "address"
        },
        {
          "internalType": "uint256",
          "name": "amount",
          "type": "uint256"
        }
      ],
      "name": "approve",
      "outputs": [
        {
          "internalType": "bool",
          "name": "",
          "type": "bool"
        }
      ],
      "stateMutability": "nonpayable",
      "type": "function"
    },
    {
      "inputs": [
        {
          "internalType": "address",
          "name": "account",
          "type": "address"
        }
      ],
      "name": "balanceOf",
      "outputs": [
        {
          "internalType": "uint256",
          "name": "",
          "type": "uint256"
        }
      ],
      "stateMutability": "view",
      "type": "function"
    },
    {
      "inputs": [],
      "name": "cancelOwnershipTransfer",
      "outputs": [],
      "stateMutability": "nonpayable",
      "type": "function"
    },
    {
      "inputs": [],
      "name": "decimals",
      "outputs": [
        {
          "internalType": "uint8",
          "name": "",
          "type": "uint8"
        }
      ],
      "stateMutability": "view",
      "type": "function"
    },
    {
      "inputs": [
        {
          "internalType": "address",
          "name": "spender",
          "type": "address"
        },
        {
          "internalType": "uint256",
          "name": "subtractedValue",
          "type": "uint256"
        }
      ],
      "name": "decreaseAllowance",
      "outputs": [
        {
          "internalType": "bool",
          "name": "",
          "type": "bool"
        }
      ],
      "stateMutability": "nonpayable",
      "type": "function"
    },
    {
      "inputs": [],
      "name": "distributor",
      "outputs": [
        {
          "internalType": "address",
          "name": "",
          "type": "address"
        }
      ],
      "stateMutability": "view",
      "type": "function"
    },
    {
      "inputs": [
        {
          "internalType": "address",
          "name": "account_",
          "type": "address"
        }
      ],
      "name": "excludeFromRebase",
      "outputs": [],
      "stateMutability": "nonpayable",
      "type": "function"
    },
    {
      "inputs": [
        {
          "internalType": "address",
          "name": "account",
          "type": "address"
        }
      ],
      "name": "getBaseBalanceHistory",
      "outputs": [
        {
          "components": [
            {
              "internalType": "uint256",
              "name": "amount",
              "type": "uint256"
            },
            {
              "internalType": "uint256",
              "name": "timestamp",
              "type": "uint256"
            }
          ],
          "internalType": "struct LifeToken.BaseBalanceRecord[]",
          "name": "",
          "type": "tuple[]"
        }
      ],
      "stateMutability": "view",
      "type": "function"
    },
    {
      "inputs": [],
      "name": "getExcludedFromRebaseTotal",
      "outputs": [
        {
          "internalType": "uint256",
          "name": "",
          "type": "uint256"
        }
      ],
      "stateMutability": "view",
      "type": "function"
    },
    {
      "inputs": [
        {
          "internalType": "address",
          "name": "account",
          "type": "address"
        }
      ],
      "name": "includeInRebase",
      "outputs": [],
      "stateMutability": "nonpayable",
      "type": "function"
    },
    {
      "inputs": [
        {
          "internalType": "address",
          "name": "spender",
          "type": "address"
        },
        {
          "internalType": "uint256",
          "name": "addedValue",
          "type": "uint256"
        }
      ],
      "name": "increaseAllowance",
      "outputs": [
        {
          "internalType": "bool",
          "name": "",
          "type": "bool"
        }
      ],
      "stateMutability": "nonpayable",
      "type": "function"
    },
    {
      "inputs": [],
      "name": "initialDistributionDone",
      "outputs": [
        {
          "internalType": "bool",
          "name": "",
          "type": "bool"
        }
      ],
      "stateMutability": "view",
      "type": "function"
    },
    {
      "inputs": [
        {
          "internalType": "address",
          "name": "account",
          "type": "address"
        }
      ],
      "name": "isExcludedFromRebase",
      "outputs": [
        {
          "internalType": "bool",
          "name": "",
          "type": "bool"
        }
      ],
      "stateMutability": "view",
      "type": "function"
    },
    {
      "inputs": [
        {
          "internalType": "address",
          "name": "recipient",
          "type": "address"
        }
      ],
      "name": "mintRemainingSupply",
      "outputs": [],
      "stateMutability": "nonpayable",
      "type": "function"
    },
    {
      "inputs": [],
      "name": "name",
      "outputs": [
        {
          "internalType": "string",
          "name": "",
          "type": "string"
        }
      ],
      "stateMutability": "view",
      "type": "function"
    },
    {
      "inputs": [],
      "name": "owner",
      "outputs": [
        {
          "internalType": "address",
          "name": "",
          "type": "address"
        }
      ],
      "stateMutability": "view",
      "type": "function"
    },
    {
      "inputs": [],
      "name": "ownershipTransferTime",
      "outputs": [
        {
          "internalType": "uint256",
          "name": "",
          "type": "uint256"
        }
      ],
      "stateMutability": "view",
      "type": "function"
    },
    {
      "inputs": [
        {
          "internalType": "uint256",
          "name": "newFactor_",
          "type": "uint256"
        }
      ],
      "name": "rebase",
      "outputs": [],
      "stateMutability": "nonpayable",
      "type": "function"
    },
    {
      "inputs": [],
      "name": "rebaseConfig",
      "outputs": [
        {
          "internalType": "uint256",
          "name": "lastRebaseTime",
          "type": "uint256"
        },
        {
          "internalType": "uint256",
          "name": "minRebaseInterval",
          "type": "uint256"
        },
        {
          "internalType": "uint256",
          "name": "rebaseFactor",
          "type": "uint256"
        }
      ],
      "stateMutability": "view",
      "type": "function"
    },
    {
      "inputs": [],
      "name": "rebaseEpoch",
      "outputs": [
        {
          "internalType": "uint256",
          "name": "",
          "type": "uint256"
        }
      ],
      "stateMutability": "view",
      "type": "function"
    },
    {
      "inputs": [],
      "name": "rebaser",
      "outputs": [
        {
          "internalType": "address",
          "name": "",
          "type": "address"
        }
      ],
      "stateMutability": "view",
      "type": "function"
    },
    {
      "inputs": [],
      "name": "renounceOwnership",
      "outputs": [],
      "stateMutability": "view",
      "type": "function"
    },
    {
      "inputs": [
        {
          "internalType": "address",
          "name": "newDistributor_",
          "type": "address"
        }
      ],
      "name": "setDistributor",
      "outputs": [],
      "stateMutability": "nonpayable",
      "type": "function"
    },
    {
      "inputs": [
        {
          "internalType": "address",
          "name": "newRebaser_",
          "type": "address"
        }
      ],
      "name": "setRebaser",
      "outputs": [],
      "stateMutability": "nonpayable",
      "type": "function"
    },
    {
      "inputs": [],
      "name": "symbol",
      "outputs": [
        {
          "internalType": "string",
          "name": "",
          "type": "string"
        }
      ],
      "stateMutability": "view",
      "type": "function"
    },
    {
      "inputs": [],
      "name": "totalSupply",
      "outputs": [
        {
          "internalType": "uint256",
          "name": "",
          "type": "uint256"
        }
      ],
      "stateMutability": "view",
      "type": "function"
    },
    {
      "inputs": [
        {
          "internalType": "address",
          "name": "to",
          "type": "address"
        },
        {
          "internalType": "uint256",
          "name": "amount",
          "type": "uint256"
        }
      ],
      "name": "transfer",
      "outputs": [
        {
          "internalType": "bool",
          "name": "",
          "type": "bool"
        }
      ],
      "stateMutability": "nonpayable",
      "type": "function"
    },
    {
      "inputs": [
        {
          "internalType": "address",
          "name": "from",
          "type": "address"
        },
        {
          "internalType": "address",
          "name": "to",
          "type": "address"
        },
        {
          "internalType": "uint256",
          "name": "amount",
          "type": "uint256"
        }
      ],
      "name": "transferFrom",
      "outputs": [
        {
          "internalType": "bool",
          "name": "",
          "type": "bool"
        }
      ],
      "stateMutability": "nonpayable",
      "type": "function"
    },
    {
      "inputs": [
        {
          "internalType": "address",
          "name": "newOwner",
          "type": "address"
        }
      ],
      "name": "transferOwnership",
      "outputs": [],
      "stateMutability": "nonpayable",
      "type": "function"
    }
  ],
  "bytecode": "0x60806040523480156200001157600080fd5b50604051620043ca380380620043ca833981810160405281019062000037919062000429565b6040518060400160405280601081526020017f4d616e6167654c69666520546f6b656e000000000000000000000000000000008152506040518060400160405280600481526020017f4c696665000000000000000000000000000000000000000000000000000000008152508160039081620000b49190620006d5565b508060049081620000c69190620006d5565b505050620000e9620000dd620002f160201b60201c565b620002f960201b60201c565b600073ffffffffffffffffffffffffffffffffffffffff168173ffffffffffffffffffffffffffffffffffffffff16036200015b576040517f08c379a000000000000000000000000000000000000000000000000000000000815260040162000152906200081d565b60405180910390fd5b80600760006101000a81548173ffffffffffffffffffffffffffffffffffffffff021916908373ffffffffffffffffffffffffffffffffffffffff16021790555080600860006101000a81548173ffffffffffffffffffffffffffffffffffffffff021916908373ffffffffffffffffffffffffffffffffffffffff160217905550604051806060016040528042815260200162278d008152602001670de0b6b3a764000081525060096000820151816000015560208201518160010155604082015181600201559050506b06765c793fa10079d0000000600d60003073ffffffffffffffffffffffffffffffffffffffff1673ffffffffffffffffffffffffffffffffffffffff168152602001908152602001600020819055503073ffffffffffffffffffffffffffffffffffffffff16600073ffffffffffffffffffffffffffffffffffffffff167fddf252ad1be2c89b69c2b068fc378daa952ba7f163c4a11628f55a4df523b3ef6b06765c793fa10079d0000000604051620002e2919062000850565b60405180910390a3506200086d565b600033905090565b6000600560009054906101000a900473ffffffffffffffffffffffffffffffffffffffff16905081600560006101000a81548173ffffffffffffffffffffffffffffffffffffffff021916908373ffffffffffffffffffffffffffffffffffffffff1602179055508173ffffffffffffffffffffffffffffffffffffffff168173ffffffffffffffffffffffffffffffffffffffff167f8be0079c531659141344cd1fd0a4f28419497f9722a3daafe3b4186f6b6457e060405160405180910390a35050565b600080fd5b600073ffffffffffffffffffffffffffffffffffffffff82169050919050565b6000620003f182620003c4565b9050919050565b6200040381620003e4565b81146200040f57600080fd5b50565b6000815190506200042381620003f8565b92915050565b600060208284031215620004425762000441620003bf565b5b6000620004528482850162000412565b91505092915050565b600081519050919050565b7f4e487b7100000000000000000000000000000000000000000000000000000000600052604160045260246000fd5b7f4e487b7100000000000000000000000000000000000000000000000000000000600052602260045260246000fd5b60006002820490506001821680620004dd57607f821691505b602082108103620004f357620004f262000495565b5b50919050565b60008190508160005260206000209050919050565b60006020601f8301049050919050565b600082821b905092915050565b6000600883026200055d7fffffffffffffffffffffffffffffffffffffffffffffffffffffffffffffffff826200051e565b6200056986836200051e565b95508019841693508086168417925050509392505050565b6000819050919050565b6000819050919050565b6000620005b6620005b0620005aa8462000581565b6200058b565b62000581565b9050919050565b6000819050919050565b620005d28362000595565b620005ea620005e182620005bd565b8484546200052b565b825550505050565b600090565b62000601620005f2565b6200060e818484620005c7565b505050565b5b8181101562000636576200062a600082620005f7565b60018101905062000614565b5050565b601f82111562000685576200064f81620004f9565b6200065a846200050e565b810160208510156200066a578190505b6200068262000679856200050e565b83018262000613565b50505b505050565b600082821c905092915050565b6000620006aa600019846008026200068a565b1980831691505092915050565b6000620006c5838362000697565b9150826002028217905092915050565b620006e0826200045b565b67ffffffffffffffff811115620006fc57620006fb62000466565b5b620007088254620004c4565b620007158282856200063a565b600060209050601f8311600181146200074d576000841562000738578287015190505b620007448582620006b7565b865550620007b4565b601f1984166200075d86620004f9565b60005b82811015620007875784890151825560018201915060208501945060208101905062000760565b86831015620007a75784890151620007a3601f89168262000697565b8355505b6001600288020188555050505b505050505050565b600082825260208201905092915050565b7f5a65726f2061646472657373206e6f7420616c6c6f7765640000000000000000600082015250565b600062000805601883620007bc565b91506200081282620007cd565b602082019050919050565b600060208201905081810360008301526200083881620007f6565b9050919050565b6200084a8162000581565b82525050565b60006020820190506200086760008301846200083f565b92915050565b613b4d806200087d6000396000f3fe608060405234801561001057600080fd5b50600436106102065760003560e01c806379ba50971161011a578063bfe10928116100ad578063dd62ed3e1161007c578063dd62ed3e146105ad578063e46adf62146105dd578063e7d6289b146105f9578063f06d66b814610615578063f2fde38b1461064557610206565b8063bfe1092814610525578063d360127114610543578063d54d97ed14610573578063d55d60f91461058f57610206565b8063a457c2d7116100e9578063a457c2d71461048b578063a5c9cd82146104bb578063a9059cbb146104d9578063bc4f2d6d1461050957610206565b806379ba5097146104275780638da5cb5b1461043157806395d89b411461044f578063a236b83a1461046d57610206565b80632ff2e9dc1161019d5780634d3d05531161016c5780634d3d05531461039357806357b535c0146103b357806370a08231146103d1578063715018a61461040157806375619ab51461040b57610206565b80632ff2e9dc14610309578063313ce5671461032757806332cb6b0c14610345578063395093511461036357610206565b806311fd8a83116101d957806311fd8a831461029357806318160ddd146102b157806323452b9c146102cf57806323b872dd146102d957610206565b80630535ec771461020b57806306fdde0314610229578063095ea7b3146102475780630e23d25c14610277575b600080fd5b610213610661565b6040516102209190612a9c565b60405180910390f35b610231610674565b60405161023e9190612b47565b60405180910390f35b610261600480360381019061025c9190612c02565b610706565b60405161026e9190612a9c565b60405180910390f35b610291600480360381019061028c9190612c42565b610729565b005b61029b610ab1565b6040516102a89190612c7e565b60405180910390f35b6102b9610ad7565b6040516102c69190612ca8565b60405180910390f35b6102d7610b55565b005b6102f360048036038101906102ee9190612cc3565b610c9f565b6040516103009190612a9c565b60405180910390f35b610311610cce565b60405161031e9190612ca8565b60405180910390f35b61032f610cde565b60405161033c9190612d32565b60405180910390f35b61034d610ce7565b60405161035a9190612ca8565b60405180910390f35b61037d60048036038101906103789190612c02565b610cf7565b60405161038a9190612a9c565b60405180910390f35b61039b610d2e565b6040516103aa93929190612d4d565b60405180910390f35b6103bb610d46565b6040516103c89190612ca8565b60405180910390f35b6103eb60048036038101906103e69190612c42565b610d4c565b6040516103f89190612ca8565b60405180910390f35b610409610d94565b005b61042560048036038101906104209190612c42565b610dd7565b005b61042f610eb6565b005b610439611093565b6040516104469190612c7e565b60405180910390f35b6104576110bd565b6040516104649190612b47565b60405180910390f35b61047561114f565b6040516104829190612ca8565b60405180910390f35b6104a560048036038101906104a09190612c02565b611159565b6040516104b29190612a9c565b60405180910390f35b6104c36111d0565b6040516104d09190612ca8565b60405180910390f35b6104f360048036038101906104ee9190612c02565b6111dc565b6040516105009190612a9c565b60405180910390f35b610523600480360381019061051e9190612d84565b6111ff565b005b61052d6113fd565b60405161053a9190612c7e565b60405180910390f35b61055d60048036038101906105589190612c42565b611423565b60405161056a9190612e9e565b60405180910390f35b61058d60048036038101906105889190612c42565b611544565b005b610597611753565b6040516105a49190612ca8565b60405180910390f35b6105c760048036038101906105c29190612ec0565b611759565b6040516105d49190612ca8565b60405180910390f35b6105f760048036038101906105f29190612c42565b6117e0565b005b610613600480360381019061060e9190612c42565b6118de565b005b61062f600480360381019061062a9190612c42565b611aee565b60405161063c9190612a9c565b60405180910390f35b61065f600480360381019061065a9190612c42565b611bb2565b005b600860149054906101000a900460ff1681565b60606003805461068390612f2f565b80601f01602080910402602001604051908101604052809291908181526020018280546106af90612f2f565b80156106fc5780601f106106d1576101008083540402835291602001916106fc565b820191906000526020600020905b8154815290600101906020018083116106df57829003601f168201915b5050505050905090565b600080610711611cc5565b905061071e818585611ccd565b600191505092915050565b610731611e96565b600073ffffffffffffffffffffffffffffffffffffffff168173ffffffffffffffffffffffffffffffffffffffff16036107a0576040517f08c379a000000000000000000000000000000000000000000000000000000000815260040161079790612fac565b60405180910390fd5b60006107aa610ad7565b90506b1027e72f1f1281308800000081106107fa576040517f08c379a00000000000000000000000000000000000000000000000000000000081526004016107f190613018565b60405180910390fd5b6000816b1027e72f1f128130880000006108149190613067565b90506000600c60008573ffffffffffffffffffffffffffffffffffffffff1673ffffffffffffffffffffffffffffffffffffffff16815260200190815260200160002060009054906101000a900460ff166108a05761089b60096002015461088d670de0b6b3a764000085611f1490919063ffffffff16565b611f2a90919063ffffffff16565b6108a2565b815b90506000600d60008673ffffffffffffffffffffffffffffffffffffffff1673ffffffffffffffffffffffffffffffffffffffff16815260200190815260200160002054905081600d60008773ffffffffffffffffffffffffffffffffffffffff1673ffffffffffffffffffffffffffffffffffffffff1681526020019081526020016000206000828254610937919061309b565b92505081905550600c60008673ffffffffffffffffffffffffffffffffffffffff1673ffffffffffffffffffffffffffffffffffffffff16815260200190815260200160002060009054906101000a900460ff16156109ac576109a582600f54611f4090919063ffffffff16565b600f819055505b6109f68582600d60008973ffffffffffffffffffffffffffffffffffffffff1673ffffffffffffffffffffffffffffffffffffffff16815260200190815260200160002054611f56565b8473ffffffffffffffffffffffffffffffffffffffff16600073ffffffffffffffffffffffffffffffffffffffff167fddf252ad1be2c89b69c2b068fc378daa952ba7f163c4a11628f55a4df523b3ef85604051610a549190612ca8565b60405180910390a38473ffffffffffffffffffffffffffffffffffffffff167f0f6798a560793a54c3bcfe86a93cde1e73087d944c0ea20544137d412139688584604051610aa29190612ca8565b60405180910390a25050505050565b600760009054906101000a900473ffffffffffffffffffffffffffffffffffffffff1681565b60008060096002015490506000610b05600f546b06765c793fa10079d000000061204690919063ffffffff16565b90506000610b36670de0b6b3a7640000610b288585611f1490919063ffffffff16565b611f2a90919063ffffffff16565b9050610b4d600f5482611f4090919063ffffffff16565b935050505090565b610b5d611e96565b600073ffffffffffffffffffffffffffffffffffffffff16600660009054906101000a900473ffffffffffffffffffffffffffffffffffffffff1673ffffffffffffffffffffffffffffffffffffffff1603610bee576040517f08c379a0000000000000000000000000000000000000000000000000000000008152600401610be59061311b565b60405180910390fd5b600660009054906101000a900473ffffffffffffffffffffffffffffffffffffffff1673ffffffffffffffffffffffffffffffffffffffff167f6ecd4842251bedd053b09547c0fabaab9ec98506ebf24469e8dd5560412ed37f60405160405180910390a26000600660006101000a81548173ffffffffffffffffffffffffffffffffffffffff021916908373ffffffffffffffffffffffffffffffffffffffff1602179055506000601181905550565b600080610caa611cc5565b9050610cb785828561205c565b610cc28585856120e8565b60019150509392505050565b6b06765c793fa10079d000000081565b60006012905090565b6b1027e72f1f1281308800000081565b600080610d02611cc5565b9050610d23818585610d148589611759565b610d1e919061309b565b611ccd565b600191505092915050565b60098060000154908060010154908060020154905083565b60105481565b60008060008373ffffffffffffffffffffffffffffffffffffffff1673ffffffffffffffffffffffffffffffffffffffff168152602001908152602001600020549050919050565b610d9c611e96565b6040517f08c379a0000000000000000000000000000000000000000000000000000000008152600401610dce90613187565b60405180910390fd5b610ddf611e96565b600860149054906101000a900460ff1615610e2f576040517f08c379a0000000000000000000000000000000000000000000000000000000008152600401610e26906131f3565b60405180910390fd5b80600860006101000a81548173ffffffffffffffffffffffffffffffffffffffff021916908373ffffffffffffffffffffffffffffffffffffffff1602179055508073ffffffffffffffffffffffffffffffffffffffff167fc0ebb188f905d128bcd7e4282dd1f9cf24cd331b69071002e488349aca6a867b60405160405180910390a250565b600073ffffffffffffffffffffffffffffffffffffffff16600660009054906101000a900473ffffffffffffffffffffffffffffffffffffffff1673ffffffffffffffffffffffffffffffffffffffff1603610f47576040517f08c379a0000000000000000000000000000000000000000000000000000000008152600401610f3e9061311b565b60405180910390fd5b601154421015610f8c576040517f08c379a0000000000000000000000000000000000000000000000000000000008152600401610f839061325f565b60405180910390fd5b600660009054906101000a900473ffffffffffffffffffffffffffffffffffffffff1673ffffffffffffffffffffffffffffffffffffffff163373ffffffffffffffffffffffffffffffffffffffff161461101c576040517f08c379a0000000000000000000000000000000000000000000000000000000008152600401611013906132cb565b60405180910390fd5b611047600660009054906101000a900473ffffffffffffffffffffffffffffffffffffffff1661273b565b6000600660006101000a81548173ffffffffffffffffffffffffffffffffffffffff021916908373ffffffffffffffffffffffffffffffffffffffff1602179055506000601181905550565b6000600560009054906101000a900473ffffffffffffffffffffffffffffffffffffffff16905090565b6060600480546110cc90612f2f565b80601f01602080910402602001604051908101604052809291908181526020018280546110f890612f2f565b80156111455780601f1061111a57610100808354040283529160200191611145565b820191906000526020600020905b81548152906001019060200180831161112857829003601f168201915b5050505050905090565b6000600f54905090565b600080611164611cc5565b905060006111728286611759565b9050838110156111b7576040517f08c379a00000000000000000000000000000000000000000000000000000000081526004016111ae9061335d565b60405180910390fd5b6111c48286868403611ccd565b60019250505092915050565b670de0b6b3a764000081565b6000806111e7611cc5565b90506111f48185856120e8565b600191505092915050565b600760009054906101000a900473ffffffffffffffffffffffffffffffffffffffff1673ffffffffffffffffffffffffffffffffffffffff163373ffffffffffffffffffffffffffffffffffffffff161461128f576040517f08c379a0000000000000000000000000000000000000000000000000000000008152600401611286906133c9565b60405180910390fd5b6009600101546009600001546112a5919061309b565b4210156112e7576040517f08c379a00000000000000000000000000000000000000000000000000000000081526004016112de90613435565b60405180910390fd5b6000670de0b6b3a76400006001670de0b6b3a7640000846b06765c793fa10079d00000006113159190613455565b61131f919061309b565b6113299190613067565b61133391906134c6565b90506b1027e72f1f12813088000000811115611384576040517f08c379a000000000000000000000000000000000000000000000000000000000815260040161137b90613543565b60405180910390fd5b6000600960020154905082600960020181905550426009600001819055506001601060008282546113b5919061309b565b925050819055506010547fc6642d24d84e7f3d36ca39f5cce10e75639d9b158d5193aa350e2f900653e4c082856040516113f0929190613563565b60405180910390a2505050565b600860009054906101000a900473ffffffffffffffffffffffffffffffffffffffff1681565b6060600073ffffffffffffffffffffffffffffffffffffffff168273ffffffffffffffffffffffffffffffffffffffff1603611494576040517f08c379a000000000000000000000000000000000000000000000000000000000815260040161148b906135d8565b60405180910390fd5b600e60008373ffffffffffffffffffffffffffffffffffffffff1673ffffffffffffffffffffffffffffffffffffffff168152602001908152602001600020805480602002602001604051908101604052809291908181526020016000905b82821015611539578382906000526020600020906002020160405180604001604052908160008201548152602001600182015481525050815260200190600101906114f3565b505050509050919050565b61154c611e96565b600073ffffffffffffffffffffffffffffffffffffffff168173ffffffffffffffffffffffffffffffffffffffff16036115bb576040517f08c379a00000000000000000000000000000000000000000000000000000000081526004016115b2906135d8565b60405180910390fd5b6000600c60008373ffffffffffffffffffffffffffffffffffffffff1673ffffffffffffffffffffffffffffffffffffffff16815260200190815260200160002060009054906101000a900460ff1690508061164c576040517f08c379a000000000000000000000000000000000000000000000000000000000815260040161164390613644565b60405180910390fd5b6116a0600d60008473ffffffffffffffffffffffffffffffffffffffff1673ffffffffffffffffffffffffffffffffffffffff16815260200190815260200160002054600f5461204690919063ffffffff16565b600f819055506000600c60008473ffffffffffffffffffffffffffffffffffffffff1673ffffffffffffffffffffffffffffffffffffffff16815260200190815260200160002060006101000a81548160ff0219169083151502179055508173ffffffffffffffffffffffffffffffffffffffff167f0ebf4318915b850f5616a5f8a1a5ae6ce4faab31726b6ed1385e582e19c1ba7d826000604051611747929190613664565b60405180910390a25050565b60115481565b6000600160008473ffffffffffffffffffffffffffffffffffffffff1673ffffffffffffffffffffffffffffffffffffffff16815260200190815260200160002060008373ffffffffffffffffffffffffffffffffffffffff1673ffffffffffffffffffffffffffffffffffffffff16815260200190815260200160002054905092915050565b6117e8611e96565b600073ffffffffffffffffffffffffffffffffffffffff168173ffffffffffffffffffffffffffffffffffffffff1603611857576040517f08c379a000000000000000000000000000000000000000000000000000000000815260040161184e906136d9565b60405180910390fd5b80600760006101000a81548173ffffffffffffffffffffffffffffffffffffffff021916908373ffffffffffffffffffffffffffffffffffffffff1602179055508073ffffffffffffffffffffffffffffffffffffffff167f80910f486ec44179623ed755c408902927264bcf6c44b08b8bbd8f6ad283697a60405160405180910390a250565b6118e6611e96565b600073ffffffffffffffffffffffffffffffffffffffff168173ffffffffffffffffffffffffffffffffffffffff1603611955576040517f08c379a000000000000000000000000000000000000000000000000000000000815260040161194c906135d8565b60405180910390fd5b6000600c60008373ffffffffffffffffffffffffffffffffffffffff1673ffffffffffffffffffffffffffffffffffffffff16815260200190815260200160002060009054906101000a900460ff16905080156119e7576040517f08c379a00000000000000000000000000000000000000000000000000000000081526004016119de90613745565b60405180910390fd5b611a3b600d60008473ffffffffffffffffffffffffffffffffffffffff1673ffffffffffffffffffffffffffffffffffffffff16815260200190815260200160002054600f54611f4090919063ffffffff16565b600f819055506001600c60008473ffffffffffffffffffffffffffffffffffffffff1673ffffffffffffffffffffffffffffffffffffffff16815260200190815260200160002060006101000a81548160ff0219169083151502179055508173ffffffffffffffffffffffffffffffffffffffff167f0ebf4318915b850f5616a5f8a1a5ae6ce4faab31726b6ed1385e582e19c1ba7d826001604051611ae2929190613664565b60405180910390a25050565b60008073ffffffffffffffffffffffffffffffffffffffff168273ffffffffffffffffffffffffffffffffffffffff1603611b5e576040517f08c379a0000000000000000000000000000000000000000000000000000000008152600401611b55906135d8565b60405180910390fd5b600c60008373ffffffffffffffffffffffffffffffffffffffff1673ffffffffffffffffffffffffffffffffffffffff16815260200190815260200160002060009054906101000a900460ff169050919050565b611bba611e96565b600073ffffffffffffffffffffffffffffffffffffffff168173ffffffffffffffffffffffffffffffffffffffff1603611c29576040517f08c379a0000000000000000000000000000000000000000000000000000000008152600401611c20906136d9565b60405180910390fd5b80600660006101000a81548173ffffffffffffffffffffffffffffffffffffffff021916908373ffffffffffffffffffffffffffffffffffffffff1602179055506202a30042611c79919061309b565b6011819055508073ffffffffffffffffffffffffffffffffffffffff167fd9be0e8e07417e00f2521db636cb53e316fd288f5051f16d2aa2bf0c3938a87660405160405180910390a250565b600033905090565b600073ffffffffffffffffffffffffffffffffffffffff168373ffffffffffffffffffffffffffffffffffffffff1603611d3c576040517f08c379a0000000000000000000000000000000000000000000000000000000008152600401611d33906137d7565b60405180910390fd5b600073ffffffffffffffffffffffffffffffffffffffff168273ffffffffffffffffffffffffffffffffffffffff1603611dab576040517f08c379a0000000000000000000000000000000000000000000000000000000008152600401611da290613869565b60405180910390fd5b80600160008573ffffffffffffffffffffffffffffffffffffffff1673ffffffffffffffffffffffffffffffffffffffff16815260200190815260200160002060008473ffffffffffffffffffffffffffffffffffffffff1673ffffffffffffffffffffffffffffffffffffffff168152602001908152602001600020819055508173ffffffffffffffffffffffffffffffffffffffff168373ffffffffffffffffffffffffffffffffffffffff167f8c5be1e5ebec7d5bd14f71427d1e84f3dd0314c0f7b2291e5b200ac8c7c3b92583604051611e899190612ca8565b60405180910390a3505050565b611e9e611cc5565b73ffffffffffffffffffffffffffffffffffffffff16611ebc611093565b73ffffffffffffffffffffffffffffffffffffffff1614611f12576040517f08c379a0000000000000000000000000000000000000000000000000000000008152600401611f09906138d5565b60405180910390fd5b565b60008183611f229190613455565b905092915050565b60008183611f3891906134c6565b905092915050565b60008183611f4e919061309b565b905092915050565b6000600e60008573ffffffffffffffffffffffffffffffffffffffff1673ffffffffffffffffffffffffffffffffffffffff1681526020019081526020016000209050806040518060400160405280848152602001428152509080600181540180825580915050600190039060005260206000209060020201600090919091909150600082015181600001556020820151816001015550508373ffffffffffffffffffffffffffffffffffffffff167fd6822a0e90ec13780d19f97be90a3bb74627ab42b26a3df64d69359a01352e2b84844260405161203893929190612d4d565b60405180910390a250505050565b600081836120549190613067565b905092915050565b60006120688484611759565b90507fffffffffffffffffffffffffffffffffffffffffffffffffffffffffffffffff81146120e257818110156120d4576040517f08c379a00000000000000000000000000000000000000000000000000000000081526004016120cb90613941565b60405180910390fd5b6120e18484848403611ccd565b5b50505050565b600073ffffffffffffffffffffffffffffffffffffffff168373ffffffffffffffffffffffffffffffffffffffff1603612157576040517f08c379a000000000000000000000000000000000000000000000000000000000815260040161214e906139d3565b60405180910390fd5b600073ffffffffffffffffffffffffffffffffffffffff168273ffffffffffffffffffffffffffffffffffffffff16036121c6576040517f08c379a00000000000000000000000000000000000000000000000000000000081526004016121bd90613a65565b60405180910390fd5b60006121d184610d4c565b905081811015612216576040517f08c379a000000000000000000000000000000000000000000000000000000000815260040161220d90613af7565b60405180910390fd5b6000600c60008673ffffffffffffffffffffffffffffffffffffffff1673ffffffffffffffffffffffffffffffffffffffff16815260200190815260200160002060009054906101000a900460ff166122a05761229b670de0b6b3a764000061228d60096002015486611f1490919063ffffffff16565b611f2a90919063ffffffff16565b6122a2565b825b90506000600c60008673ffffffffffffffffffffffffffffffffffffffff1673ffffffffffffffffffffffffffffffffffffffff16815260200190815260200160002060009054906101000a900460ff1661232e57612329670de0b6b3a764000061231b60096002015487611f1490919063ffffffff16565b611f2a90919063ffffffff16565b612330565b835b9050600c60008773ffffffffffffffffffffffffffffffffffffffff1673ffffffffffffffffffffffffffffffffffffffff16815260200190815260200160002060009054906101000a900460ff1680156123d55750600c60008673ffffffffffffffffffffffffffffffffffffffff1673ffffffffffffffffffffffffffffffffffffffff16815260200190815260200160002060009054906101000a900460ff16155b156123fa576123ef82600f5461204690919063ffffffff16565b600f81905550612599565b600c60008773ffffffffffffffffffffffffffffffffffffffff1673ffffffffffffffffffffffffffffffffffffffff16815260200190815260200160002060009054906101000a900460ff1615801561249d5750600c60008673ffffffffffffffffffffffffffffffffffffffff1673ffffffffffffffffffffffffffffffffffffffff16815260200190815260200160002060009054906101000a900460ff165b156124c2576124b781600f54611f4090919063ffffffff16565b600f81905550612598565b600c60008773ffffffffffffffffffffffffffffffffffffffff1673ffffffffffffffffffffffffffffffffffffffff16815260200190815260200160002060009054906101000a900460ff1680156125645750600c60008673ffffffffffffffffffffffffffffffffffffffff1673ffffffffffffffffffffffffffffffffffffffff16815260200190815260200160002060009054906101000a900460ff165b15612597576125908161258284600f5461204690919063ffffffff16565b611f4090919063ffffffff16565b600f819055505b5b5b6125a4868686612801565b6125f682600d60008973ffffffffffffffffffffffffffffffffffffffff1673ffffffffffffffffffffffffffffffffffffffff1681526020019081526020016000205461204690919063ffffffff16565b600d60008873ffffffffffffffffffffffffffffffffffffffff1673ffffffffffffffffffffffffffffffffffffffff1681526020019081526020016000208190555061268b81600d60008873ffffffffffffffffffffffffffffffffffffffff1673ffffffffffffffffffffffffffffffffffffffff16815260200190815260200160002054611f4090919063ffffffff16565b600d60008773ffffffffffffffffffffffffffffffffffffffff1673ffffffffffffffffffffffffffffffffffffffff168152602001908152602001600020819055508473ffffffffffffffffffffffffffffffffffffffff168673ffffffffffffffffffffffffffffffffffffffff167fddf252ad1be2c89b69c2b068fc378daa952ba7f163c4a11628f55a4df523b3ef8660405161272b9190612ca8565b60405180910390a3505050505050565b6000600560009054906101000a900473ffffffffffffffffffffffffffffffffffffffff16905081600560006101000a81548173ffffffffffffffffffffffffffffffffffffffff021916908373ffffffffffffffffffffffffffffffffffffffff1602179055508173ffffffffffffffffffffffffffffffffffffffff168173ffffffffffffffffffffffffffffffffffffffff167f8be0079c531659141344cd1fd0a4f28419497f9722a3daafe3b4186f6b6457e060405160405180910390a35050565b600073ffffffffffffffffffffffffffffffffffffffff168373ffffffffffffffffffffffffffffffffffffffff1603612870576040517f08c379a0000000000000000000000000000000000000000000000000000000008152600401612867906139d3565b60405180910390fd5b600073ffffffffffffffffffffffffffffffffffffffff168273ffffffffffffffffffffffffffffffffffffffff16036128df576040517f08c379a00000000000000000000000000000000000000000000000000000000081526004016128d690613a65565b60405180910390fd5b6128ea838383612a77565b60008060008573ffffffffffffffffffffffffffffffffffffffff1673ffffffffffffffffffffffffffffffffffffffff16815260200190815260200160002054905081811015612970576040517f08c379a000000000000000000000000000000000000000000000000000000000815260040161296790613af7565b60405180910390fd5b8181036000808673ffffffffffffffffffffffffffffffffffffffff1673ffffffffffffffffffffffffffffffffffffffff16815260200190815260200160002081905550816000808573ffffffffffffffffffffffffffffffffffffffff1673ffffffffffffffffffffffffffffffffffffffff168152602001908152602001600020600082825401925050819055508273ffffffffffffffffffffffffffffffffffffffff168473ffffffffffffffffffffffffffffffffffffffff167fddf252ad1be2c89b69c2b068fc378daa952ba7f163c4a11628f55a4df523b3ef84604051612a5e9190612ca8565b60405180910390a3612a71848484612a7c565b50505050565b505050565b505050565b60008115159050919050565b612a9681612a81565b82525050565b6000602082019050612ab16000830184612a8d565b92915050565b600081519050919050565b600082825260208201905092915050565b60005b83811015612af1578082015181840152602081019050612ad6565b60008484015250505050565b6000601f19601f8301169050919050565b6000612b1982612ab7565b612b238185612ac2565b9350612b33818560208601612ad3565b612b3c81612afd565b840191505092915050565b60006020820190508181036000830152612b618184612b0e565b905092915050565b600080fd5b600073ffffffffffffffffffffffffffffffffffffffff82169050919050565b6000612b9982612b6e565b9050919050565b612ba981612b8e565b8114612bb457600080fd5b50565b600081359050612bc681612ba0565b92915050565b6000819050919050565b612bdf81612bcc565b8114612bea57600080fd5b50565b600081359050612bfc81612bd6565b92915050565b60008060408385031215612c1957612c18612b69565b5b6000612c2785828601612bb7565b9250506020612c3885828601612bed565b9150509250929050565b600060208284031215612c5857612c57612b69565b5b6000612c6684828501612bb7565b91505092915050565b612c7881612b8e565b82525050565b6000602082019050612c936000830184612c6f565b92915050565b612ca281612bcc565b82525050565b6000602082019050612cbd6000830184612c99565b92915050565b600080600060608486031215612cdc57612cdb612b69565b5b6000612cea86828701612bb7565b9350506020612cfb86828701612bb7565b9250506040612d0c86828701612bed565b9150509250925092565b600060ff82169050919050565b612d2c81612d16565b82525050565b6000602082019050612d476000830184612d23565b92915050565b6000606082019050612d626000830186612c99565b612d6f6020830185612c99565b612d7c6040830184612c99565b949350505050565b600060208284031215612d9a57612d99612b69565b5b6000612da884828501612bed565b91505092915050565b600081519050919050565b600082825260208201905092915050565b6000819050602082019050919050565b612de681612bcc565b82525050565b604082016000820151612e026000850182612ddd565b506020820151612e156020850182612ddd565b50505050565b6000612e278383612dec565b60408301905092915050565b6000602082019050919050565b6000612e4b82612db1565b612e558185612dbc565b9350612e6083612dcd565b8060005b83811015612e91578151612e788882612e1b565b9750612e8383612e33565b925050600181019050612e64565b5085935050505092915050565b60006020820190508181036000830152612eb88184612e40565b905092915050565b60008060408385031215612ed757612ed6612b69565b5b6000612ee585828601612bb7565b9250506020612ef685828601612bb7565b9150509250929050565b7f4e487b7100000000000000000000000000000000000000000000000000000000600052602260045260246000fd5b60006002820490506001821680612f4757607f821691505b602082108103612f5a57612f59612f00565b5b50919050565b7f43616e6e6f74206d696e7420746f207a65726f20616464726573730000000000600082015250565b6000612f96601b83612ac2565b9150612fa182612f60565b602082019050919050565b60006020820190508181036000830152612fc581612f89565b9050919050565b7f4d617820737570706c7920616c7265616479206d696e74656400000000000000600082015250565b6000613002601983612ac2565b915061300d82612fcc565b602082019050919050565b6000602082019050818103600083015261303181612ff5565b9050919050565b7f4e487b7100000000000000000000000000000000000000000000000000000000600052601160045260246000fd5b600061307282612bcc565b915061307d83612bcc565b925082820390508181111561309557613094613038565b5b92915050565b60006130a682612bcc565b91506130b183612bcc565b92508282019050808211156130c9576130c8613038565b5b92915050565b7f4e6f2070656e64696e67207472616e7366657200000000000000000000000000600082015250565b6000613105601383612ac2565b9150613110826130cf565b602082019050919050565b60006020820190508181036000830152613134816130f8565b9050919050565b7f4f776e6572736869702072656e756e63696174696f6e2064697361626c656400600082015250565b6000613171601f83612ac2565b915061317c8261313b565b602082019050919050565b600060208201905081810360008301526131a081613164565b9050919050565b7f446973747269627574696f6e20616c726561647920636f6d706c657465640000600082015250565b60006131dd601e83612ac2565b91506131e8826131a7565b602082019050919050565b6000602082019050818103600083015261320c816131d0565b9050919050565b7f5472616e736665722064656c6179206e6f74206d657400000000000000000000600082015250565b6000613249601683612ac2565b915061325482613213565b602082019050919050565b600060208201905081810360008301526132788161323c565b9050919050565b7f43616c6c6572206e6f742070656e64696e67206f776e65720000000000000000600082015250565b60006132b5601883612ac2565b91506132c08261327f565b602082019050919050565b600060208201905081810360008301526132e4816132a8565b9050919050565b7f45524332303a2064656372656173656420616c6c6f77616e63652062656c6f7760008201527f207a65726f000000000000000000000000000000000000000000000000000000602082015250565b6000613347602583612ac2565b9150613352826132eb565b604082019050919050565b600060208201905081810360008301526133768161333a565b9050919050565b7f43616c6c6572206973206e6f7420746865207265626173657200000000000000600082015250565b60006133b3601983612ac2565b91506133be8261337d565b602082019050919050565b600060208201905081810360008301526133e2816133a6565b9050919050565b7f52656261736520696e74657276616c206e6f7420726561636865640000000000600082015250565b600061341f601b83612ac2565b915061342a826133e9565b602082019050919050565b6000602082019050818103600083015261344e81613412565b9050919050565b600061346082612bcc565b915061346b83612bcc565b925082820261347981612bcc565b915082820484148315176134905761348f613038565b5b5092915050565b7f4e487b7100000000000000000000000000000000000000000000000000000000600052601260045260246000fd5b60006134d182612bcc565b91506134dc83612bcc565b9250826134ec576134eb613497565b5b828204905092915050565b7f52656261736520776f756c6420657863656564204d41585f535550504c590000600082015250565b600061352d601e83612ac2565b9150613538826134f7565b602082019050919050565b6000602082019050818103600083015261355c81613520565b9050919050565b60006040820190506135786000830185612c99565b6135856020830184612c99565b9392505050565b7f5a65726f2061646472657373206e6f7420616c6c6f7765640000000000000000600082015250565b60006135c2601883612ac2565b91506135cd8261358c565b602082019050919050565b600060208201905081810360008301526135f1816135b5565b9050919050565b7f4163636f756e74206e6f74206578636c75646564000000000000000000000000600082015250565b600061362e601483612ac2565b9150613639826135f8565b602082019050919050565b6000602082019050818103600083015261365d81613621565b9050919050565b60006040820190506136796000830185612a8d565b6136866020830184612a8d565b9392505050565b7f496e76616c696420616464726573730000000000000000000000000000000000600082015250565b60006136c3600f83612ac2565b91506136ce8261368d565b602082019050919050565b600060208201905081810360008301526136f2816136b6565b9050919050565b7f4163636f756e7420616c7265616479206578636c756465640000000000000000600082015250565b600061372f601883612ac2565b915061373a826136f9565b602082019050919050565b6000602082019050818103600083015261375e81613722565b9050919050565b7f45524332303a20617070726f76652066726f6d20746865207a65726f2061646460008201527f7265737300000000000000000000000000000000000000000000000000000000602082015250565b60006137c1602483612ac2565b91506137cc82613765565b604082019050919050565b600060208201905081810360008301526137f0816137b4565b9050919050565b7f45524332303a20617070726f766520746f20746865207a65726f20616464726560008201527f7373000000000000000000000000000000000000000000000000000000000000602082015250565b6000613853602283612ac2565b915061385e826137f7565b604082019050919050565b6000602082019050818103600083015261388281613846565b9050919050565b7f4f776e61626c653a2063616c6c6572206973206e6f7420746865206f776e6572600082015250565b60006138bf602083612ac2565b91506138ca82613889565b602082019050919050565b600060208201905081810360008301526138ee816138b2565b9050919050565b7f45524332303a20696e73756666696369656e7420616c6c6f77616e6365000000600082015250565b600061392b601d83612ac2565b9150613936826138f5565b602082019050919050565b6000602082019050818103600083015261395a8161391e565b9050919050565b7f45524332303a207472616e736665722066726f6d20746865207a65726f20616460008201527f6472657373000000000000000000000000000000000000000000000000000000602082015250565b60006139bd602583612ac2565b91506139c882613961565b604082019050919050565b600060208201905081810360008301526139ec816139b0565b9050919050565b7f45524332303a207472616e7366657220746f20746865207a65726f206164647260008201527f6573730000000000000000000000000000000000000000000000000000000000602082015250565b6000613a4f602383612ac2565b9150613a5a826139f3565b604082019050919050565b60006020820190508181036000830152613a7e81613a42565b9050919050565b7f45524332303a207472616e7366657220616d6f756e742065786365656473206260008201527f616c616e63650000000000000000000000000000000000000000000000000000602082015250565b6000613ae1602683612ac2565b9150613aec82613a85565b604082019050919050565b60006020820190508181036000830152613b1081613ad4565b905091905056fea26469706673582212202b9df0fcb68345d117554839e848807f4204e5274a6514979ad2fa550ebe58af64736f6c63430008140033",
  "linkReferences": {},
  "deployedLinkReferences": {}
}