{
  "_format": "hh-sol-artifact-1",
  "contractName": "LifeToken",
  "sourceName": "contracts/tokens/LifeToken.sol",
  "abi": [
    {
      "inputs": [
        {
          "internalType": "address",
          "name": "initialOwner_",
          "type": "address"
        }
      ],
      "stateMutability": "nonpayable",
      "type": "constructor"
    },
    {
      "anonymous": false,
      "inputs": [
        {
          "indexed": true,
          "internalType": "address",
          "name": "owner",
          "type": "address"
        },
        {
          "indexed": true,
          "internalType": "address",
          "name": "spender",
          "type": "address"
        },
        {
          "indexed": false,
          "internalType": "uint256",
          "name": "value",
          "type": "uint256"
        }
      ],
      "name": "Approval",
      "type": "event"
    },
    {
      "anonymous": false,
      "inputs": [
        {
          "indexed": true,
          "internalType": "address",
          "name": "account",
          "type": "address"
        },
        {
          "indexed": false,
          "internalType": "uint256",
          "name": "oldAmount",
          "type": "uint256"
        },
        {
          "indexed": false,
          "internalType": "uint256",
          "name": "newAmount",
          "type": "uint256"
        },
        {
          "indexed": false,
          "internalType": "uint256",
          "name": "timestamp",
          "type": "uint256"
        }
      ],
      "name": "BaseBalanceAdjusted",
      "type": "event"
    },
    {
      "anonymous": false,
      "inputs": [
        {
          "indexed": true,
          "internalType": "address",
          "name": "account",
          "type": "address"
        },
        {
          "indexed": false,
          "internalType": "uint256",
          "name": "oldBaseBalance",
          "type": "uint256"
        },
        {
          "indexed": false,
          "internalType": "uint256",
          "name": "newBaseBalance",
          "type": "uint256"
        },
        {
          "indexed": false,
          "internalType": "string",
          "name": "reason",
          "type": "string"
        }
      ],
      "name": "BaseBalanceUpdated",
      "type": "event"
    },
    {
      "anonymous": false,
      "inputs": [
        {
          "indexed": true,
          "internalType": "address",
          "name": "newDistributor",
          "type": "address"
        }
      ],
      "name": "DistributorUpdated",
      "type": "event"
    },
    {
      "anonymous": false,
      "inputs": [
        {
          "indexed": true,
          "internalType": "address",
          "name": "account",
          "type": "address"
        },
        {
          "indexed": false,
          "internalType": "bool",
          "name": "oldExcluded",
          "type": "bool"
        },
        {
          "indexed": false,
          "internalType": "bool",
          "name": "newExcluded",
          "type": "bool"
        }
      ],
      "name": "ExcludedFromRebase",
      "type": "event"
    },
    {
      "anonymous": false,
      "inputs": [
        {
          "indexed": false,
          "internalType": "uint256",
          "name": "oldTotal",
          "type": "uint256"
        },
        {
          "indexed": false,
          "internalType": "uint256",
          "name": "newTotal",
          "type": "uint256"
        },
        {
          "indexed": true,
          "internalType": "address",
          "name": "triggerAccount",
          "type": "address"
        },
        {
          "indexed": false,
          "internalType": "string",
          "name": "reason",
          "type": "string"
        }
      ],
      "name": "ExcludedTotalUpdated",
      "type": "event"
    },
    {
      "anonymous": false,
      "inputs": [
        {
          "indexed": true,
          "internalType": "address",
          "name": "account",
          "type": "address"
        },
        {
          "indexed": false,
          "internalType": "bool",
          "name": "isExcluded",
          "type": "bool"
        },
        {
          "indexed": false,
          "internalType": "uint256",
          "name": "baseBalance",
          "type": "uint256"
        },
        {
          "indexed": false,
          "internalType": "uint256",
          "name": "tokenBalance",
          "type": "uint256"
        }
      ],
      "name": "ExclusionStatusQueried",
      "type": "event"
    },
    {
      "anonymous": false,
      "inputs": [
        {
          "indexed": true,
          "internalType": "address",
          "name": "recipient",
          "type": "address"
        },
        {
          "indexed": false,
          "internalType": "uint256",
          "name": "amount",
          "type": "uint256"
        }
      ],
      "name": "Mint",
      "type": "event"
    },
    {
      "anonymous": false,
      "inputs": [
        {
          "indexed": true,
          "internalType": "address",
          "name": "canceledOwner",
          "type": "address"
        }
      ],
      "name": "OwnershipTransferCanceled",
      "type": "event"
    },
    {
      "anonymous": false,
      "inputs": [
        {
          "indexed": true,
          "internalType": "address",
          "name": "pendingOwner",
          "type": "address"
        }
      ],
      "name": "OwnershipTransferStarted",
      "type": "event"
    },
    {
      "anonymous": false,
      "inputs": [
        {
          "indexed": true,
          "internalType": "address",
          "name": "previousOwner",
          "type": "address"
        },
        {
          "indexed": true,
          "internalType": "address",
          "name": "newOwner",
          "type": "address"
        }
      ],
      "name": "OwnershipTransferred",
      "type": "event"
    },
    {
      "anonymous": false,
      "inputs": [
        {
          "indexed": true,
          "internalType": "uint256",
          "name": "epoch",
          "type": "uint256"
        },
        {
          "indexed": false,
          "internalType": "uint256",
          "name": "oldFactor",
          "type": "uint256"
        },
        {
          "indexed": false,
          "internalType": "uint256",
          "name": "newFactor",
          "type": "uint256"
        }
      ],
      "name": "Rebase",
      "type": "event"
    },
    {
      "anonymous": false,
      "inputs": [
        {
          "indexed": true,
          "internalType": "uint256",
          "name": "epoch",
          "type": "uint256"
        },
        {
          "indexed": false,
          "internalType": "uint256",
          "name": "oldFactor",
          "type": "uint256"
        },
        {
          "indexed": false,
          "internalType": "uint256",
          "name": "newFactor",
          "type": "uint256"
        },
        {
          "indexed": false,
          "internalType": "uint256",
          "name": "timestamp",
          "type": "uint256"
        }
      ],
      "name": "RebaseFactorChanged",
      "type": "event"
    },
    {
      "anonymous": false,
      "inputs": [
        {
          "indexed": true,
          "internalType": "address",
          "name": "newRebaser",
          "type": "address"
        }
      ],
      "name": "RebaserUpdated",
      "type": "event"
    },
    {
      "anonymous": false,
      "inputs": [
        {
          "indexed": true,
          "internalType": "address",
          "name": "from",
          "type": "address"
        },
        {
          "indexed": true,
          "internalType": "address",
          "name": "to",
          "type": "address"
        },
        {
          "indexed": false,
          "internalType": "uint256",
          "name": "value",
          "type": "uint256"
        }
      ],
      "name": "Transfer",
      "type": "event"
    },
    {
      "inputs": [],
      "name": "INITIAL_SUPPLY",
      "outputs": [
        {
          "internalType": "uint256",
          "name": "",
          "type": "uint256"
        }
      ],
      "stateMutability": "view",
      "type": "function"
    },
    {
      "inputs": [],
      "name": "MAX_REBASE_FACTOR",
      "outputs": [
        {
          "internalType": "uint256",
          "name": "",
          "type": "uint256"
        }
      ],
      "stateMutability": "view",
      "type": "function"
    },
    {
      "inputs": [],
      "name": "MAX_SUPPLY",
      "outputs": [
        {
          "internalType": "uint256",
          "name": "",
          "type": "uint256"
        }
      ],
      "stateMutability": "view",
      "type": "function"
    },
    {
      "inputs": [],
      "name": "MIN_REBASE_INTERVAL_DAYS",
      "outputs": [
        {
          "internalType": "uint256",
          "name": "",
          "type": "uint256"
        }
      ],
      "stateMutability": "view",
      "type": "function"
    },
    {
      "inputs": [],
      "name": "OWNERSHIP_TRANSFER_DELAY_DAYS",
      "outputs": [
        {
          "internalType": "uint256",
          "name": "",
          "type": "uint256"
        }
      ],
      "stateMutability": "view",
      "type": "function"
    },
    {
      "inputs": [],
      "name": "SECONDS_PER_DAY",
      "outputs": [
        {
          "internalType": "uint256",
          "name": "",
          "type": "uint256"
        }
      ],
      "stateMutability": "view",
      "type": "function"
    },
    {
      "inputs": [],
      "name": "TOKEN_UNIT",
      "outputs": [
        {
          "internalType": "uint256",
          "name": "",
          "type": "uint256"
        }
      ],
      "stateMutability": "view",
      "type": "function"
    },
    {
      "inputs": [],
      "name": "acceptOwnership",
      "outputs": [],
      "stateMutability": "nonpayable",
      "type": "function"
    },
    {
      "inputs": [
        {
          "internalType": "address",
          "name": "owner",
          "type": "address"
        },
        {
          "internalType": "address",
          "name": "spender",
          "type": "address"
        }
      ],
      "name": "allowance",
      "outputs": [
        {
          "internalType": "uint256",
          "name": "",
          "type": "uint256"
        }
      ],
      "stateMutability": "view",
      "type": "function"
    },
    {
      "inputs": [
        {
          "internalType": "address",
          "name": "spender",
          "type": "address"
        },
        {
          "internalType": "uint256",
          "name": "amount",
          "type": "uint256"
        }
      ],
      "name": "approve",
      "outputs": [
        {
          "internalType": "bool",
          "name": "",
          "type": "bool"
        }
      ],
      "stateMutability": "nonpayable",
      "type": "function"
    },
    {
      "inputs": [
        {
          "internalType": "address",
          "name": "account",
          "type": "address"
        }
      ],
      "name": "balanceOf",
      "outputs": [
        {
          "internalType": "uint256",
          "name": "",
          "type": "uint256"
        }
      ],
      "stateMutability": "view",
      "type": "function"
    },
    {
      "inputs": [],
      "name": "cancelOwnershipTransfer",
      "outputs": [],
      "stateMutability": "nonpayable",
      "type": "function"
    },
    {
      "inputs": [],
      "name": "decimals",
      "outputs": [
        {
          "internalType": "uint8",
          "name": "",
          "type": "uint8"
        }
      ],
      "stateMutability": "view",
      "type": "function"
    },
    {
      "inputs": [
        {
          "internalType": "address",
          "name": "spender",
          "type": "address"
        },
        {
          "internalType": "uint256",
          "name": "subtractedValue",
          "type": "uint256"
        }
      ],
      "name": "decreaseAllowance",
      "outputs": [
        {
          "internalType": "bool",
          "name": "",
          "type": "bool"
        }
      ],
      "stateMutability": "nonpayable",
      "type": "function"
    },
    {
      "inputs": [],
      "name": "distributor",
      "outputs": [
        {
          "internalType": "address",
          "name": "",
          "type": "address"
        }
      ],
      "stateMutability": "view",
      "type": "function"
    },
    {
      "inputs": [
        {
          "internalType": "address",
          "name": "account_",
          "type": "address"
        }
      ],
      "name": "excludeFromRebase",
      "outputs": [],
      "stateMutability": "nonpayable",
      "type": "function"
    },
    {
      "inputs": [
        {
          "internalType": "address",
          "name": "account",
          "type": "address"
        }
      ],
      "name": "getAccountDetails",
      "outputs": [
        {
          "internalType": "bool",
          "name": "isExcluded",
          "type": "bool"
        },
        {
          "internalType": "uint256",
          "name": "baseBalance",
          "type": "uint256"
        },
        {
          "internalType": "uint256",
          "name": "tokenBalance",
          "type": "uint256"
        },
        {
          "internalType": "uint256",
          "name": "rebaseFactor",
          "type": "uint256"
        }
      ],
      "stateMutability": "nonpayable",
      "type": "function"
    },
    {
      "inputs": [
        {
          "internalType": "address",
          "name": "account",
          "type": "address"
        }
      ],
      "name": "getBaseBalance",
      "outputs": [
        {
          "internalType": "uint256",
          "name": "",
          "type": "uint256"
        }
      ],
      "stateMutability": "view",
      "type": "function"
    },
    {
      "inputs": [
        {
          "internalType": "address",
          "name": "account",
          "type": "address"
        }
      ],
      "name": "getBaseBalanceHistory",
      "outputs": [
        {
          "components": [
            {
              "internalType": "uint256",
              "name": "amount",
              "type": "uint256"
            },
            {
              "internalType": "uint256",
              "name": "timestamp",
              "type": "uint256"
            }
          ],
          "internalType": "struct LifeToken.BaseBalanceRecord[]",
          "name": "",
          "type": "tuple[]"
        }
      ],
      "stateMutability": "view",
      "type": "function"
    },
    {
      "inputs": [],
      "name": "getExcludedFromRebaseTotal",
      "outputs": [
        {
          "internalType": "uint256",
          "name": "",
          "type": "uint256"
        }
      ],
      "stateMutability": "view",
      "type": "function"
    },
    {
      "inputs": [],
      "name": "getRebaseInfo",
      "outputs": [
        {
          "internalType": "uint256",
          "name": "currentFactor",
          "type": "uint256"
        },
        {
          "internalType": "uint256",
          "name": "lastRebaseTime",
          "type": "uint256"
        },
        {
          "internalType": "uint256",
          "name": "minInterval",
          "type": "uint256"
        },
        {
          "internalType": "uint256",
          "name": "epoch",
          "type": "uint256"
        },
        {
          "internalType": "uint256",
          "name": "excludedTotal",
          "type": "uint256"
        },
        {
          "internalType": "uint256",
          "name": "participatingSupply",
          "type": "uint256"
        }
      ],
      "stateMutability": "view",
      "type": "function"
    },
    {
      "inputs": [
        {
          "internalType": "address",
          "name": "account",
          "type": "address"
        }
      ],
      "name": "includeInRebase",
      "outputs": [],
      "stateMutability": "nonpayable",
      "type": "function"
    },
    {
      "inputs": [
        {
          "internalType": "address",
          "name": "spender",
          "type": "address"
        },
        {
          "internalType": "uint256",
          "name": "addedValue",
          "type": "uint256"
        }
      ],
      "name": "increaseAllowance",
      "outputs": [
        {
          "internalType": "bool",
          "name": "",
          "type": "bool"
        }
      ],
      "stateMutability": "nonpayable",
      "type": "function"
    },
    {
      "inputs": [
        {
          "internalType": "address[]",
          "name": "recipients_",
          "type": "address[]"
        },
        {
          "internalType": "uint256[]",
          "name": "amounts_",
          "type": "uint256[]"
        }
      ],
      "name": "initialDistribution",
      "outputs": [],
      "stateMutability": "nonpayable",
      "type": "function"
    },
    {
      "inputs": [],
      "name": "initialDistributionDone",
      "outputs": [
        {
          "internalType": "bool",
          "name": "",
          "type": "bool"
        }
      ],
      "stateMutability": "view",
      "type": "function"
    },
    {
      "inputs": [
        {
          "internalType": "address",
          "name": "account",
          "type": "address"
        }
      ],
      "name": "isExcludedFromRebase",
      "outputs": [
        {
          "internalType": "bool",
          "name": "",
          "type": "bool"
        }
      ],
      "stateMutability": "view",
      "type": "function"
    },
    {
      "inputs": [
        {
          "internalType": "address",
          "name": "recipient",
          "type": "address"
        }
      ],
      "name": "mintRemainingSupply",
      "outputs": [],
      "stateMutability": "nonpayable",
      "type": "function"
    },
    {
      "inputs": [],
      "name": "name",
      "outputs": [
        {
          "internalType": "string",
          "name": "",
          "type": "string"
        }
      ],
      "stateMutability": "view",
      "type": "function"
    },
    {
      "inputs": [],
      "name": "owner",
      "outputs": [
        {
          "internalType": "address",
          "name": "",
          "type": "address"
        }
      ],
      "stateMutability": "view",
      "type": "function"
    },
    {
      "inputs": [],
      "name": "ownershipTransferTime",
      "outputs": [
        {
          "internalType": "uint256",
          "name": "",
          "type": "uint256"
        }
      ],
      "stateMutability": "view",
      "type": "function"
    },
    {
      "inputs": [
        {
          "internalType": "uint256",
          "name": "newFactor_",
          "type": "uint256"
        }
      ],
      "name": "rebase",
      "outputs": [],
      "stateMutability": "nonpayable",
      "type": "function"
    },
    {
      "inputs": [],
      "name": "rebaseConfig",
      "outputs": [
        {
          "internalType": "uint256",
          "name": "lastRebaseTime",
          "type": "uint256"
        },
        {
          "internalType": "uint256",
          "name": "minRebaseInterval",
          "type": "uint256"
        },
        {
          "internalType": "uint256",
          "name": "rebaseFactor",
          "type": "uint256"
        }
      ],
      "stateMutability": "view",
      "type": "function"
    },
    {
      "inputs": [],
      "name": "rebaseEpoch",
      "outputs": [
        {
          "internalType": "uint256",
          "name": "",
          "type": "uint256"
        }
      ],
      "stateMutability": "view",
      "type": "function"
    },
    {
      "inputs": [],
      "name": "rebaser",
      "outputs": [
        {
          "internalType": "address",
          "name": "",
          "type": "address"
        }
      ],
      "stateMutability": "view",
      "type": "function"
    },
    {
      "inputs": [],
      "name": "renounceOwnership",
      "outputs": [],
      "stateMutability": "view",
      "type": "function"
    },
    {
      "inputs": [
        {
          "internalType": "address",
          "name": "newDistributor_",
          "type": "address"
        }
      ],
      "name": "setDistributor",
      "outputs": [],
      "stateMutability": "nonpayable",
      "type": "function"
    },
    {
      "inputs": [
        {
          "internalType": "address",
          "name": "newRebaser_",
          "type": "address"
        }
      ],
      "name": "setRebaser",
      "outputs": [],
      "stateMutability": "nonpayable",
      "type": "function"
    },
    {
      "inputs": [],
      "name": "symbol",
      "outputs": [
        {
          "internalType": "string",
          "name": "",
          "type": "string"
        }
      ],
      "stateMutability": "view",
      "type": "function"
    },
    {
      "inputs": [],
      "name": "totalSupply",
      "outputs": [
        {
          "internalType": "uint256",
          "name": "",
          "type": "uint256"
        }
      ],
      "stateMutability": "view",
      "type": "function"
    },
    {
      "inputs": [
        {
          "internalType": "address",
          "name": "to",
          "type": "address"
        },
        {
          "internalType": "uint256",
          "name": "amount",
          "type": "uint256"
        }
      ],
      "name": "transfer",
      "outputs": [
        {
          "internalType": "bool",
          "name": "",
          "type": "bool"
        }
      ],
      "stateMutability": "nonpayable",
      "type": "function"
    },
    {
      "inputs": [
        {
          "internalType": "address",
          "name": "from",
          "type": "address"
        },
        {
          "internalType": "address",
          "name": "to",
          "type": "address"
        },
        {
          "internalType": "uint256",
          "name": "amount",
          "type": "uint256"
        }
      ],
      "name": "transferFrom",
      "outputs": [
        {
          "internalType": "bool",
          "name": "",
          "type": "bool"
        }
      ],
      "stateMutability": "nonpayable",
      "type": "function"
    },
    {
      "inputs": [
        {
          "internalType": "address",
          "name": "newOwner",
          "type": "address"
        }
      ],
      "name": "transferOwnership",
      "outputs": [],
      "stateMutability": "nonpayable",
      "type": "function"
    }
  ],
  "bytecode": "0x60806040523480156200001157600080fd5b5060405162005e5b38038062005e5b833981810160405281019062000037919062000437565b6040518060400160405280601081526020017f4d616e6167654c69666520546f6b656e000000000000000000000000000000008152506040518060400160405280600481526020017f4c696665000000000000000000000000000000000000000000000000000000008152508160039081620000b49190620006e3565b508060049081620000c69190620006e3565b505050620000e9620000dd620002ff60201b60201c565b6200030760201b60201c565b600073ffffffffffffffffffffffffffffffffffffffff168173ffffffffffffffffffffffffffffffffffffffff16036200015b576040517f08c379a000000000000000000000000000000000000000000000000000000000815260040162000152906200082b565b60405180910390fd5b80600760006101000a81548173ffffffffffffffffffffffffffffffffffffffff021916908373ffffffffffffffffffffffffffffffffffffffff16021790555080600860006101000a81548173ffffffffffffffffffffffffffffffffffffffff021916908373ffffffffffffffffffffffffffffffffffffffff160217905550604051806060016040528042815260200162015180601e6200020091906200087c565b8152602001670de0b6b3a764000081525060096000820151816000015560208201518160010155604082015181600201559050506b06765c793fa10079d0000000600d60003073ffffffffffffffffffffffffffffffffffffffff1673ffffffffffffffffffffffffffffffffffffffff168152602001908152602001600020819055503073ffffffffffffffffffffffffffffffffffffffff16600073ffffffffffffffffffffffffffffffffffffffff167fddf252ad1be2c89b69c2b068fc378daa952ba7f163c4a11628f55a4df523b3ef6b06765c793fa10079d0000000604051620002f09190620008d8565b60405180910390a350620008f5565b600033905090565b6000600560009054906101000a900473ffffffffffffffffffffffffffffffffffffffff16905081600560006101000a81548173ffffffffffffffffffffffffffffffffffffffff021916908373ffffffffffffffffffffffffffffffffffffffff1602179055508173ffffffffffffffffffffffffffffffffffffffff168173ffffffffffffffffffffffffffffffffffffffff167f8be0079c531659141344cd1fd0a4f28419497f9722a3daafe3b4186f6b6457e060405160405180910390a35050565b600080fd5b600073ffffffffffffffffffffffffffffffffffffffff82169050919050565b6000620003ff82620003d2565b9050919050565b6200041181620003f2565b81146200041d57600080fd5b50565b600081519050620004318162000406565b92915050565b60006020828403121562000450576200044f620003cd565b5b6000620004608482850162000420565b91505092915050565b600081519050919050565b7f4e487b7100000000000000000000000000000000000000000000000000000000600052604160045260246000fd5b7f4e487b7100000000000000000000000000000000000000000000000000000000600052602260045260246000fd5b60006002820490506001821680620004eb57607f821691505b602082108103620005015762000500620004a3565b5b50919050565b60008190508160005260206000209050919050565b60006020601f8301049050919050565b600082821b905092915050565b6000600883026200056b7fffffffffffffffffffffffffffffffffffffffffffffffffffffffffffffffff826200052c565b6200057786836200052c565b95508019841693508086168417925050509392505050565b6000819050919050565b6000819050919050565b6000620005c4620005be620005b8846200058f565b62000599565b6200058f565b9050919050565b6000819050919050565b620005e083620005a3565b620005f8620005ef82620005cb565b84845462000539565b825550505050565b600090565b6200060f62000600565b6200061c818484620005d5565b505050565b5b8181101562000644576200063860008262000605565b60018101905062000622565b5050565b601f82111562000693576200065d8162000507565b62000668846200051c565b8101602085101562000678578190505b6200069062000687856200051c565b83018262000621565b50505b505050565b600082821c905092915050565b6000620006b86000198460080262000698565b1980831691505092915050565b6000620006d38383620006a5565b9150826002028217905092915050565b620006ee8262000469565b67ffffffffffffffff8111156200070a576200070962000474565b5b620007168254620004d2565b6200072382828562000648565b600060209050601f8311600181146200075b576000841562000746578287015190505b620007528582620006c5565b865550620007c2565b601f1984166200076b8662000507565b60005b8281101562000795578489015182556001820191506020850194506020810190506200076e565b86831015620007b55784890151620007b1601f891682620006a5565b8355505b6001600288020188555050505b505050505050565b600082825260208201905092915050565b7f5a65726f2061646472657373206e6f7420616c6c6f7765640000000000000000600082015250565b600062000813601883620007ca565b91506200082082620007db565b602082019050919050565b60006020820190508181036000830152620008468162000804565b9050919050565b7f4e487b7100000000000000000000000000000000000000000000000000000000600052601160045260246000fd5b600062000889826200058f565b915062000896836200058f565b9250828202620008a6816200058f565b91508282048414831517620008c057620008bf6200084d565b5b5092915050565b620008d2816200058f565b82525050565b6000602082019050620008ef6000830184620008c7565b92915050565b61555680620009056000396000f3fe608060405234801561001057600080fd5b506004361061025e5760003560e01c8063736a0ea811610146578063bc4f2d6d116100c3578063d55d60f911610087578063d55d60f914610701578063dd62ed3e1461071f578063e46adf621461074f578063e7d6289b1461076b578063f06d66b814610787578063f2fde38b146107b75761025e565b8063bc4f2d6d1461065d578063bfe1092814610679578063c02e4b3814610697578063d3601271146106b5578063d54d97ed146106e55761025e565b806395d89b411161010a57806395d89b41146105a3578063a236b83a146105c1578063a457c2d7146105df578063a5c9cd821461060f578063a9059cbb1461062d5761025e565b8063736a0ea81461052557806374f0314f1461054157806375619ab51461055f57806379ba50971461057b5780638da5cb5b146105855761025e565b80632aceb534116101df57806339509351116101a3578063395093511461045f5780634d3d05531461048f57806357b535c0146104af5780636733ede9146104cd57806370a08231146104eb578063715018a61461051b5761025e565b80632aceb534146103a25780632ecad33b146103d55780632ff2e9dc14610405578063313ce5671461042357806332cb6b0c146104415761025e565b806311fd8a831161022657806311fd8a831461030e57806318160ddd1461032c57806323452b9c1461034a57806323b872dd146103545780632412bfad146103845761025e565b80630535ec771461026357806306fdde031461028157806308acaa721461029f578063095ea7b3146102c25780630e23d25c146102f2575b600080fd5b61026b6107d3565b60405161027891906138fa565b60405180910390f35b6102896107e6565b60405161029691906139a5565b60405180910390f35b6102a7610878565b6040516102b9969594939291906139e0565b60405180910390f35b6102dc60048036038101906102d79190613ad5565b6108c7565b6040516102e991906138fa565b60405180910390f35b61030c60048036038101906103079190613b15565b6108ea565b005b610316610b32565b6040516103239190613b51565b60405180910390f35b610334610b58565b6040516103419190613b6c565b60405180910390f35b610352610bba565b005b61036e60048036038101906103699190613b87565b610d04565b60405161037b91906138fa565b60405180910390f35b61038c610d33565b6040516103999190613b6c565b60405180910390f35b6103bc60048036038101906103b79190613b15565b610d38565b6040516103cc9493929190613bda565b60405180910390f35b6103ef60048036038101906103ea9190613b15565b610eaa565b6040516103fc9190613b6c565b60405180910390f35b61040d610f61565b60405161041a9190613b6c565b60405180910390f35b61042b610f71565b6040516104389190613c3b565b60405180910390f35b610449610f7a565b6040516104569190613b6c565b60405180910390f35b61047960048036038101906104749190613ad5565b610f8a565b60405161048691906138fa565b60405180910390f35b610497610fc1565b6040516104a693929190613c56565b60405180910390f35b6104b7610fd9565b6040516104c49190613b6c565b60405180910390f35b6104d5610fdf565b6040516104e29190613b6c565b60405180910390f35b61050560048036038101906105009190613b15565b610fe4565b6040516105129190613b6c565b60405180910390f35b610523611158565b005b61053f600480360381019061053a9190613d48565b61119b565b005b61054961176b565b6040516105569190613b6c565b60405180910390f35b61057960048036038101906105749190613b15565b611772565b005b610583611851565b005b61058d611a2e565b60405161059a9190613b51565b60405180910390f35b6105ab611a58565b6040516105b891906139a5565b60405180910390f35b6105c9611aea565b6040516105d69190613b6c565b60405180910390f35b6105f960048036038101906105f49190613ad5565b611af4565b60405161060691906138fa565b60405180910390f35b610617611b6b565b6040516106249190613b6c565b60405180910390f35b61064760048036038101906106429190613ad5565b611b77565b60405161065491906138fa565b60405180910390f35b61067760048036038101906106729190613dc9565b611b9a565b005b610681611f2c565b60405161068e9190613b51565b60405180910390f35b61069f611f52565b6040516106ac9190613b6c565b60405180910390f35b6106cf60048036038101906106ca9190613b15565b611f57565b6040516106dc9190613ee3565b60405180910390f35b6106ff60048036038101906106fa9190613b15565b612078565b005b6107096122e0565b6040516107169190613b6c565b60405180910390f35b61073960048036038101906107349190613f05565b6122e6565b6040516107469190613b6c565b60405180910390f35b61076960048036038101906107649190613b15565b61236d565b005b61078560048036038101906107809190613b15565b61246b565b005b6107a1600480360381019061079c9190613b15565b6126d4565b6040516107ae91906138fa565b60405180910390f35b6107d160048036038101906107cc9190613b15565b612798565b005b600860149054906101000a900460ff1681565b6060600380546107f590613f74565b80601f016020809104026020016040519081016040528092919081815260200182805461082190613f74565b801561086e5780601f106108435761010080835404028352916020019161086e565b820191906000526020600020905b81548152906001019060200180831161085157829003601f168201915b5050505050905090565b6000806000806000806009600201549550600960000154945060096001015493506010549250600f549150600f546b06765c793fa10079d00000006108bd9190613fd4565b9050909192939495565b6000806108d26128b7565b90506108df8185856128bf565b600191505092915050565b6108f2612a88565b600073ffffffffffffffffffffffffffffffffffffffff168173ffffffffffffffffffffffffffffffffffffffff1603610961576040517f08c379a000000000000000000000000000000000000000000000000000000000815260040161095890614054565b60405180910390fd5b600061096b610b58565b90506b1027e72f1f1281308800000081106109bb576040517f08c379a00000000000000000000000000000000000000000000000000000000081526004016109b2906140c0565b60405180910390fd5b6000816b1027e72f1f128130880000006109d59190613fd4565b905060008111610a1a576040517f08c379a0000000000000000000000000000000000000000000000000000000008152600401610a119061412c565b60405180910390fd5b60026b1027e72f1f12813088000000610a33919061417b565b811115610a75576040517f08c379a0000000000000000000000000000000000000000000000000000000008152600401610a6c9061421e565b60405180910390fd5b60008183610a83919061423e565b90506b1027e72f1f12813088000000811115610ad4576040517f08c379a0000000000000000000000000000000000000000000000000000000008152600401610acb906142be565b60405180910390fd5b610ade8483612b06565b8373ffffffffffffffffffffffffffffffffffffffff167f0f6798a560793a54c3bcfe86a93cde1e73087d944c0ea20544137d412139688583604051610b249190613b6c565b60405180910390a250505050565b600760009054906101000a900473ffffffffffffffffffffffffffffffffffffffff1681565b60008060096002015490506000600f546b06765c793fa10079d0000000610b7f9190613fd4565b90506000670de0b6b3a76400008383610b9891906142de565b610ba2919061417b565b9050600f5481610bb2919061423e565b935050505090565b610bc2612a88565b600073ffffffffffffffffffffffffffffffffffffffff16600660009054906101000a900473ffffffffffffffffffffffffffffffffffffffff1673ffffffffffffffffffffffffffffffffffffffff1603610c53576040517f08c379a0000000000000000000000000000000000000000000000000000000008152600401610c4a9061436c565b60405180910390fd5b600660009054906101000a900473ffffffffffffffffffffffffffffffffffffffff1673ffffffffffffffffffffffffffffffffffffffff167f6ecd4842251bedd053b09547c0fabaab9ec98506ebf24469e8dd5560412ed37f60405160405180910390a26000600660006101000a81548173ffffffffffffffffffffffffffffffffffffffff021916908373ffffffffffffffffffffffffffffffffffffffff1602179055506000601181905550565b600080610d0f6128b7565b9050610d1c858285613083565b610d2785858561310f565b60019150509392505050565b600281565b600080600080600073ffffffffffffffffffffffffffffffffffffffff168573ffffffffffffffffffffffffffffffffffffffff1603610dad576040517f08c379a0000000000000000000000000000000000000000000000000000000008152600401610da4906143d8565b60405180910390fd5b600c60008673ffffffffffffffffffffffffffffffffffffffff1673ffffffffffffffffffffffffffffffffffffffff16815260200190815260200160002060009054906101000a900460ff169350600d60008673ffffffffffffffffffffffffffffffffffffffff1673ffffffffffffffffffffffffffffffffffffffff168152602001908152602001600020549250610e4785610fe4565b915060096002015490508473ffffffffffffffffffffffffffffffffffffffff167fa282409e70b0974233bd318d18abf0ae45f73b263dc259c97e0919ffccba9c9a858585604051610e9b939291906143f8565b60405180910390a29193509193565b60008073ffffffffffffffffffffffffffffffffffffffff168273ffffffffffffffffffffffffffffffffffffffff1603610f1a576040517f08c379a0000000000000000000000000000000000000000000000000000000008152600401610f11906143d8565b60405180910390fd5b600d60008373ffffffffffffffffffffffffffffffffffffffff1673ffffffffffffffffffffffffffffffffffffffff168152602001908152602001600020549050919050565b6b06765c793fa10079d000000081565b60006012905090565b6b1027e72f1f1281308800000081565b600080610f956128b7565b9050610fb6818585610fa785896122e6565b610fb1919061423e565b6128bf565b600191505092915050565b60098060000154908060010154908060020154905083565b60105481565b601e81565b60008073ffffffffffffffffffffffffffffffffffffffff168273ffffffffffffffffffffffffffffffffffffffff1603611054576040517f08c379a000000000000000000000000000000000000000000000000000000000815260040161104b906143d8565b60405180910390fd5b600c60008373ffffffffffffffffffffffffffffffffffffffff1673ffffffffffffffffffffffffffffffffffffffff16815260200190815260200160002060009054906101000a900460ff16156110ed57600d60008373ffffffffffffffffffffffffffffffffffffffff1673ffffffffffffffffffffffffffffffffffffffff168152602001908152602001600020549050611153565b670de0b6b3a7640000600960020154600d60008573ffffffffffffffffffffffffffffffffffffffff1673ffffffffffffffffffffffffffffffffffffffff1681526020019081526020016000205461114691906142de565b611150919061417b565b90505b919050565b611160612a88565b6040517f08c379a00000000000000000000000000000000000000000000000000000000081526004016111929061447b565b60405180910390fd5b600860009054906101000a900473ffffffffffffffffffffffffffffffffffffffff1673ffffffffffffffffffffffffffffffffffffffff163373ffffffffffffffffffffffffffffffffffffffff161461122b576040517f08c379a0000000000000000000000000000000000000000000000000000000008152600401611222906144e7565b60405180910390fd5b600860149054906101000a900460ff161561127b576040517f08c379a000000000000000000000000000000000000000000000000000000000815260040161127290614553565b60405180910390fd5b8181905084849050146112c3576040517f08c379a00000000000000000000000000000000000000000000000000000000081526004016112ba906145bf565b60405180910390fd5b600080600090505b858590508110156116f957600073ffffffffffffffffffffffffffffffffffffffff16868683818110611301576113006145df565b5b90506020020160208101906113169190613b15565b73ffffffffffffffffffffffffffffffffffffffff160361136c576040517f08c379a00000000000000000000000000000000000000000000000000000000081526004016113639061465a565b60405180910390fd5b6000670de0b6b3a7640000620f424086868581811061138e5761138d6145df565b5b9050602002013561139f91906142de565b6113a991906142de565b90506000600c60008989868181106113c4576113c36145df565b5b90506020020160208101906113d99190613b15565b73ffffffffffffffffffffffffffffffffffffffff1673ffffffffffffffffffffffffffffffffffffffff16815260200190815260200160002060009054906101000a900460ff1661144e57600960020154670de0b6b3a76400008361143f91906142de565b611449919061417b565b611450565b815b905080600d60008a8a8781811061146a576114696145df565b5b905060200201602081019061147f9190613b15565b73ffffffffffffffffffffffffffffffffffffffff1673ffffffffffffffffffffffffffffffffffffffff168152602001908152602001600020546114c4919061423e565b600d60008a8a878181106114db576114da6145df565b5b90506020020160208101906114f09190613b15565b73ffffffffffffffffffffffffffffffffffffffff1673ffffffffffffffffffffffffffffffffffffffff1681526020019081526020016000208190555081600d60003073ffffffffffffffffffffffffffffffffffffffff1673ffffffffffffffffffffffffffffffffffffffff168152602001908152602001600020546115799190613fd4565b600d60003073ffffffffffffffffffffffffffffffffffffffff1673ffffffffffffffffffffffffffffffffffffffff16815260200190815260200160002081905550600c60008989868181106115d3576115d26145df565b5b90506020020160208101906115e89190613b15565b73ffffffffffffffffffffffffffffffffffffffff1673ffffffffffffffffffffffffffffffffffffffff16815260200190815260200160002060009054906101000a900460ff161561164a5780600f54611643919061423e565b600f819055505b8184611656919061423e565b935087878481811061166b5761166a6145df565b5b90506020020160208101906116809190613b15565b73ffffffffffffffffffffffffffffffffffffffff163073ffffffffffffffffffffffffffffffffffffffff167fddf252ad1be2c89b69c2b068fc378daa952ba7f163c4a11628f55a4df523b3ef846040516116dc9190613b6c565b60405180910390a3505080806116f19061467a565b9150506112cb565b506b06765c793fa10079d0000000811115611749576040517f08c379a000000000000000000000000000000000000000000000000000000000815260040161174090614734565b60405180910390fd5b6001600860146101000a81548160ff0219169083151502179055505050505050565b6201518081565b61177a612a88565b600860149054906101000a900460ff16156117ca576040517f08c379a00000000000000000000000000000000000000000000000000000000081526004016117c190614553565b60405180910390fd5b80600860006101000a81548173ffffffffffffffffffffffffffffffffffffffff021916908373ffffffffffffffffffffffffffffffffffffffff1602179055508073ffffffffffffffffffffffffffffffffffffffff167fc0ebb188f905d128bcd7e4282dd1f9cf24cd331b69071002e488349aca6a867b60405160405180910390a250565b600073ffffffffffffffffffffffffffffffffffffffff16600660009054906101000a900473ffffffffffffffffffffffffffffffffffffffff1673ffffffffffffffffffffffffffffffffffffffff16036118e2576040517f08c379a00000000000000000000000000000000000000000000000000000000081526004016118d99061436c565b60405180910390fd5b601154421015611927576040517f08c379a000000000000000000000000000000000000000000000000000000000815260040161191e906147a0565b60405180910390fd5b600660009054906101000a900473ffffffffffffffffffffffffffffffffffffffff1673ffffffffffffffffffffffffffffffffffffffff163373ffffffffffffffffffffffffffffffffffffffff16146119b7576040517f08c379a00000000000000000000000000000000000000000000000000000000081526004016119ae9061480c565b60405180910390fd5b6119e2600660009054906101000a900473ffffffffffffffffffffffffffffffffffffffff16613645565b6000600660006101000a81548173ffffffffffffffffffffffffffffffffffffffff021916908373ffffffffffffffffffffffffffffffffffffffff1602179055506000601181905550565b6000600560009054906101000a900473ffffffffffffffffffffffffffffffffffffffff16905090565b606060048054611a6790613f74565b80601f0160208091040260200160405190810160405280929190818152602001828054611a9390613f74565b8015611ae05780601f10611ab557610100808354040283529160200191611ae0565b820191906000526020600020905b815481529060010190602001808311611ac357829003601f168201915b5050505050905090565b6000600f54905090565b600080611aff6128b7565b90506000611b0d82866122e6565b905083811015611b52576040517f08c379a0000000000000000000000000000000000000000000000000000000008152600401611b499061489e565b60405180910390fd5b611b5f82868684036128bf565b60019250505092915050565b670de0b6b3a764000081565b600080611b826128b7565b9050611b8f81858561310f565b600191505092915050565b600760009054906101000a900473ffffffffffffffffffffffffffffffffffffffff1673ffffffffffffffffffffffffffffffffffffffff163373ffffffffffffffffffffffffffffffffffffffff1614611c2a576040517f08c379a0000000000000000000000000000000000000000000000000000000008152600401611c219061490a565b60405180910390fd5b600960010154600960000154611c40919061423e565b421015611c82576040517f08c379a0000000000000000000000000000000000000000000000000000000008152600401611c7990614976565b60405180910390fd5b60008111611cc5576040517f08c379a0000000000000000000000000000000000000000000000000000000008152600401611cbc906149e2565b60405180910390fd5b670de0b6b3a7640000600a611cda91906142de565b811115611d1c576040517f08c379a0000000000000000000000000000000000000000000000000000000008152600401611d1390614a4e565b60405180910390fd5b6000611d26610b58565b90506000600f5482611d389190613fd4565b9050600a6b1027e72f1f12813088000000611d53919061417b565b811115611d95576040517f08c379a0000000000000000000000000000000000000000000000000000000008152600401611d8c90614ae0565b60405180910390fd5b60006009600201548483611da991906142de565b611db3919061417b565b9050600f546b1027e72f1f12813088000000611dcf9190613fd4565b811115611e11576040517f08c379a0000000000000000000000000000000000000000000000000000000008152600401611e0890614b72565b60405180910390fd5b6000600f5482611e21919061423e565b90506b1027e72f1f12813088000000811115611e72576040517f08c379a0000000000000000000000000000000000000000000000000000000008152600401611e6990614bde565b60405180910390fd5b600060096002015490508560096002018190555042600960000181905550600160106000828254611ea3919061423e565b925050819055506010547fc6642d24d84e7f3d36ca39f5cce10e75639d9b158d5193aa350e2f900653e4c08288604051611ede929190614bfe565b60405180910390a26010547f75effc37511c61c1817f4e341cad14af6857b64fe56f54d597f9f27903be29c3828842604051611f1c93929190613c56565b60405180910390a2505050505050565b600860009054906101000a900473ffffffffffffffffffffffffffffffffffffffff1681565b600a81565b6060600073ffffffffffffffffffffffffffffffffffffffff168273ffffffffffffffffffffffffffffffffffffffff1603611fc8576040517f08c379a0000000000000000000000000000000000000000000000000000000008152600401611fbf906143d8565b60405180910390fd5b600e60008373ffffffffffffffffffffffffffffffffffffffff1673ffffffffffffffffffffffffffffffffffffffff168152602001908152602001600020805480602002602001604051908101604052809291908181526020016000905b8282101561206d57838290600052602060002090600202016040518060400160405290816000820154815260200160018201548152505081526020019060010190612027565b505050509050919050565b612080612a88565b600073ffffffffffffffffffffffffffffffffffffffff168173ffffffffffffffffffffffffffffffffffffffff16036120ef576040517f08c379a00000000000000000000000000000000000000000000000000000000081526004016120e6906143d8565b60405180910390fd5b6000600c60008373ffffffffffffffffffffffffffffffffffffffff1673ffffffffffffffffffffffffffffffffffffffff16815260200190815260200160002060009054906101000a900460ff16905080612180576040517f08c379a000000000000000000000000000000000000000000000000000000000815260040161217790614c73565b60405180910390fd5b6000600d60008473ffffffffffffffffffffffffffffffffffffffff1673ffffffffffffffffffffffffffffffffffffffff1681526020019081526020016000205490506000600f54905081600f546121d99190613fd4565b600f819055506000600c60008673ffffffffffffffffffffffffffffffffffffffff1673ffffffffffffffffffffffffffffffffffffffff16815260200190815260200160002060006101000a81548160ff0219169083151502179055508373ffffffffffffffffffffffffffffffffffffffff167f0ebf4318915b850f5616a5f8a1a5ae6ce4faab31726b6ed1385e582e19c1ba7d846000604051612280929190614c93565b60405180910390a28373ffffffffffffffffffffffffffffffffffffffff167fbc3827b1ba5ca38c9aff86db13d6823d9eae1467113f32bec2beadd184464ced82600f546040516122d2929190614d08565b60405180910390a250505050565b60115481565b6000600160008473ffffffffffffffffffffffffffffffffffffffff1673ffffffffffffffffffffffffffffffffffffffff16815260200190815260200160002060008373ffffffffffffffffffffffffffffffffffffffff1673ffffffffffffffffffffffffffffffffffffffff16815260200190815260200160002054905092915050565b612375612a88565b600073ffffffffffffffffffffffffffffffffffffffff168173ffffffffffffffffffffffffffffffffffffffff16036123e4576040517f08c379a00000000000000000000000000000000000000000000000000000000081526004016123db90614d90565b60405180910390fd5b80600760006101000a81548173ffffffffffffffffffffffffffffffffffffffff021916908373ffffffffffffffffffffffffffffffffffffffff1602179055508073ffffffffffffffffffffffffffffffffffffffff167f80910f486ec44179623ed755c408902927264bcf6c44b08b8bbd8f6ad283697a60405160405180910390a250565b612473612a88565b600073ffffffffffffffffffffffffffffffffffffffff168173ffffffffffffffffffffffffffffffffffffffff16036124e2576040517f08c379a00000000000000000000000000000000000000000000000000000000081526004016124d9906143d8565b60405180910390fd5b6000600c60008373ffffffffffffffffffffffffffffffffffffffff1673ffffffffffffffffffffffffffffffffffffffff16815260200190815260200160002060009054906101000a900460ff1690508015612574576040517f08c379a000000000000000000000000000000000000000000000000000000000815260040161256b90614dfc565b60405180910390fd5b6000600d60008473ffffffffffffffffffffffffffffffffffffffff1673ffffffffffffffffffffffffffffffffffffffff1681526020019081526020016000205490506000600f54905081600f546125cd919061423e565b600f819055506001600c60008673ffffffffffffffffffffffffffffffffffffffff1673ffffffffffffffffffffffffffffffffffffffff16815260200190815260200160002060006101000a81548160ff0219169083151502179055508373ffffffffffffffffffffffffffffffffffffffff167f0ebf4318915b850f5616a5f8a1a5ae6ce4faab31726b6ed1385e582e19c1ba7d846001604051612674929190614c93565b60405180910390a28373ffffffffffffffffffffffffffffffffffffffff167fbc3827b1ba5ca38c9aff86db13d6823d9eae1467113f32bec2beadd184464ced82600f546040516126c6929190614e68565b60405180910390a250505050565b60008073ffffffffffffffffffffffffffffffffffffffff168273ffffffffffffffffffffffffffffffffffffffff1603612744576040517f08c379a000000000000000000000000000000000000000000000000000000000815260040161273b906143d8565b60405180910390fd5b600c60008373ffffffffffffffffffffffffffffffffffffffff1673ffffffffffffffffffffffffffffffffffffffff16815260200190815260200160002060009054906101000a900460ff169050919050565b6127a0612a88565b600073ffffffffffffffffffffffffffffffffffffffff168173ffffffffffffffffffffffffffffffffffffffff160361280f576040517f08c379a000000000000000000000000000000000000000000000000000000000815260040161280690614d90565b60405180910390fd5b80600660006101000a81548173ffffffffffffffffffffffffffffffffffffffff021916908373ffffffffffffffffffffffffffffffffffffffff16021790555062015180600261286091906142de565b4261286b919061423e565b6011819055508073ffffffffffffffffffffffffffffffffffffffff167fd9be0e8e07417e00f2521db636cb53e316fd288f5051f16d2aa2bf0c3938a87660405160405180910390a250565b600033905090565b600073ffffffffffffffffffffffffffffffffffffffff168373ffffffffffffffffffffffffffffffffffffffff160361292e576040517f08c379a000000000000000000000000000000000000000000000000000000000815260040161292590614f16565b60405180910390fd5b600073ffffffffffffffffffffffffffffffffffffffff168273ffffffffffffffffffffffffffffffffffffffff160361299d576040517f08c379a000000000000000000000000000000000000000000000000000000000815260040161299490614fa8565b60405180910390fd5b80600160008573ffffffffffffffffffffffffffffffffffffffff1673ffffffffffffffffffffffffffffffffffffffff16815260200190815260200160002060008473ffffffffffffffffffffffffffffffffffffffff1673ffffffffffffffffffffffffffffffffffffffff168152602001908152602001600020819055508173ffffffffffffffffffffffffffffffffffffffff168373ffffffffffffffffffffffffffffffffffffffff167f8c5be1e5ebec7d5bd14f71427d1e84f3dd0314c0f7b2291e5b200ac8c7c3b92583604051612a7b9190613b6c565b60405180910390a3505050565b612a906128b7565b73ffffffffffffffffffffffffffffffffffffffff16612aae611a2e565b73ffffffffffffffffffffffffffffffffffffffff1614612b04576040517f08c379a0000000000000000000000000000000000000000000000000000000008152600401612afb90615014565b60405180910390fd5b565b600073ffffffffffffffffffffffffffffffffffffffff168273ffffffffffffffffffffffffffffffffffffffff1603612b75576040517f08c379a0000000000000000000000000000000000000000000000000000000008152600401612b6c90615080565b60405180910390fd5b60008111612bb8576040517f08c379a0000000000000000000000000000000000000000000000000000000008152600401612baf906150ec565b60405180910390fd5b6000612bc2610b58565b90506b1027e72f1f128130880000008282612bdd919061423e565b1115612c1e576040517f08c379a0000000000000000000000000000000000000000000000000000000008152600401612c15906142be565b60405180910390fd5b6000600c60008573ffffffffffffffffffffffffffffffffffffffff1673ffffffffffffffffffffffffffffffffffffffff16815260200190815260200160002060009054906101000a900460ff16612c9a57600960020154670de0b6b3a764000084612c8b91906142de565b612c95919061417b565b612c9c565b825b9050600c60008573ffffffffffffffffffffffffffffffffffffffff1673ffffffffffffffffffffffffffffffffffffffff16815260200190815260200160002060009054906101000a900460ff16612d7657600960020154670de0b6b3a76400007fffffffffffffffffffffffffffffffffffffffffffffffffffffffffffffffff612d29919061417b565b612d3391906142de565b831115612d75576040517f08c379a0000000000000000000000000000000000000000000000000000000008152600401612d6c9061517e565b60405180910390fd5b5b6000600d60008673ffffffffffffffffffffffffffffffffffffffff1673ffffffffffffffffffffffffffffffffffffffff168152602001908152602001600020549050817fffffffffffffffffffffffffffffffffffffffffffffffffffffffffffffffff612de69190613fd4565b600d60008773ffffffffffffffffffffffffffffffffffffffff1673ffffffffffffffffffffffffffffffffffffffff168152602001908152602001600020541115612e67576040517f08c379a0000000000000000000000000000000000000000000000000000000008152600401612e5e906151ea565b60405180910390fd5b81600d60008773ffffffffffffffffffffffffffffffffffffffff1673ffffffffffffffffffffffffffffffffffffffff16815260200190815260200160002054612eb2919061423e565b600d60008773ffffffffffffffffffffffffffffffffffffffff1673ffffffffffffffffffffffffffffffffffffffff16815260200190815260200160002081905550600c60008673ffffffffffffffffffffffffffffffffffffffff1673ffffffffffffffffffffffffffffffffffffffff16815260200190815260200160002060009054906101000a900460ff1615612fcc57817fffffffffffffffffffffffffffffffffffffffffffffffffffffffffffffffff612f739190613fd4565b600f541115612fb7576040517f08c379a0000000000000000000000000000000000000000000000000000000008152600401612fae90615256565b60405180910390fd5b81600f54612fc5919061423e565b600f819055505b6130168582600d60008973ffffffffffffffffffffffffffffffffffffffff1673ffffffffffffffffffffffffffffffffffffffff1681526020019081526020016000205461370b565b8473ffffffffffffffffffffffffffffffffffffffff16600073ffffffffffffffffffffffffffffffffffffffff167fddf252ad1be2c89b69c2b068fc378daa952ba7f163c4a11628f55a4df523b3ef866040516130749190613b6c565b60405180910390a35050505050565b600061308f84846122e6565b90507fffffffffffffffffffffffffffffffffffffffffffffffffffffffffffffffff811461310957818110156130fb576040517f08c379a00000000000000000000000000000000000000000000000000000000081526004016130f2906152c2565b60405180910390fd5b61310884848484036128bf565b5b50505050565b600073ffffffffffffffffffffffffffffffffffffffff168373ffffffffffffffffffffffffffffffffffffffff160361317e576040517f08c379a000000000000000000000000000000000000000000000000000000000815260040161317590615354565b60405180910390fd5b600073ffffffffffffffffffffffffffffffffffffffff168273ffffffffffffffffffffffffffffffffffffffff16036131ed576040517f08c379a00000000000000000000000000000000000000000000000000000000081526004016131e4906153e6565b60405180910390fd5b60006131f884610fe4565b90508181101561323d576040517f08c379a000000000000000000000000000000000000000000000000000000000815260040161323490615478565b60405180910390fd5b6000600c60008673ffffffffffffffffffffffffffffffffffffffff1673ffffffffffffffffffffffffffffffffffffffff16815260200190815260200160002060009054906101000a900460ff166132b957600960020154670de0b6b3a7640000846132aa91906142de565b6132b4919061417b565b6132bb565b825b90506000600c60008673ffffffffffffffffffffffffffffffffffffffff1673ffffffffffffffffffffffffffffffffffffffff16815260200190815260200160002060009054906101000a900460ff1661333957600960020154670de0b6b3a76400008561332a91906142de565b613334919061417b565b61333b565b835b9050600c60008773ffffffffffffffffffffffffffffffffffffffff1673ffffffffffffffffffffffffffffffffffffffff16815260200190815260200160002060009054906101000a900460ff1680156133e05750600c60008673ffffffffffffffffffffffffffffffffffffffff1673ffffffffffffffffffffffffffffffffffffffff16815260200190815260200160002060009054906101000a900460ff16155b156133fe5783600f546133f39190613fd4565b600f819055506134bc565b600c60008773ffffffffffffffffffffffffffffffffffffffff1673ffffffffffffffffffffffffffffffffffffffff16815260200190815260200160002060009054906101000a900460ff161580156134a15750600c60008673ffffffffffffffffffffffffffffffffffffffff1673ffffffffffffffffffffffffffffffffffffffff16815260200190815260200160002060009054906101000a900460ff165b156134bb5783600f546134b4919061423e565b600f819055505b5b81600d60008873ffffffffffffffffffffffffffffffffffffffff1673ffffffffffffffffffffffffffffffffffffffff168152602001908152602001600020546135079190613fd4565b600d60008873ffffffffffffffffffffffffffffffffffffffff1673ffffffffffffffffffffffffffffffffffffffff1681526020019081526020016000208190555080600d60008773ffffffffffffffffffffffffffffffffffffffff1673ffffffffffffffffffffffffffffffffffffffff16815260200190815260200160002054613595919061423e565b600d60008773ffffffffffffffffffffffffffffffffffffffff1673ffffffffffffffffffffffffffffffffffffffff168152602001908152602001600020819055508473ffffffffffffffffffffffffffffffffffffffff168673ffffffffffffffffffffffffffffffffffffffff167fddf252ad1be2c89b69c2b068fc378daa952ba7f163c4a11628f55a4df523b3ef866040516136359190613b6c565b60405180910390a3505050505050565b6000600560009054906101000a900473ffffffffffffffffffffffffffffffffffffffff16905081600560006101000a81548173ffffffffffffffffffffffffffffffffffffffff021916908373ffffffffffffffffffffffffffffffffffffffff1602179055508173ffffffffffffffffffffffffffffffffffffffff168173ffffffffffffffffffffffffffffffffffffffff167f8be0079c531659141344cd1fd0a4f28419497f9722a3daafe3b4186f6b6457e060405160405180910390a35050565b8082146138da576000600e60008573ffffffffffffffffffffffffffffffffffffffff1673ffffffffffffffffffffffffffffffffffffffff168152602001908152602001600020905060008180549050148061379c57508181600183805490506137769190613fd4565b81548110613787576137866145df565b5b90600052602060002090600202016000015414155b806137db57504281600183805490506137b59190613fd4565b815481106137c6576137c56145df565b5b90600052602060002090600202016001015414155b156138d857806040518060400160405280848152602001428152509080600181540180825580915050600190039060005260206000209060020201600090919091909150600082015181600001556020820151816001015550508373ffffffffffffffffffffffffffffffffffffffff167fd6822a0e90ec13780d19f97be90a3bb74627ab42b26a3df64d69359a01352e2b84844260405161387f93929190613c56565b60405180910390a28373ffffffffffffffffffffffffffffffffffffffff167fdc6e554b1b6a04557cdf46b2d1c10fbac9eec7b51bb45133d2ef5fa366f9e22884846040516138cf9291906154e4565b60405180910390a25b505b505050565b60008115159050919050565b6138f4816138df565b82525050565b600060208201905061390f60008301846138eb565b92915050565b600081519050919050565b600082825260208201905092915050565b60005b8381101561394f578082015181840152602081019050613934565b60008484015250505050565b6000601f19601f8301169050919050565b600061397782613915565b6139818185613920565b9350613991818560208601613931565b61399a8161395b565b840191505092915050565b600060208201905081810360008301526139bf818461396c565b905092915050565b6000819050919050565b6139da816139c7565b82525050565b600060c0820190506139f560008301896139d1565b613a0260208301886139d1565b613a0f60408301876139d1565b613a1c60608301866139d1565b613a2960808301856139d1565b613a3660a08301846139d1565b979650505050505050565b600080fd5b600080fd5b600073ffffffffffffffffffffffffffffffffffffffff82169050919050565b6000613a7682613a4b565b9050919050565b613a8681613a6b565b8114613a9157600080fd5b50565b600081359050613aa381613a7d565b92915050565b613ab2816139c7565b8114613abd57600080fd5b50565b600081359050613acf81613aa9565b92915050565b60008060408385031215613aec57613aeb613a41565b5b6000613afa85828601613a94565b9250506020613b0b85828601613ac0565b9150509250929050565b600060208284031215613b2b57613b2a613a41565b5b6000613b3984828501613a94565b91505092915050565b613b4b81613a6b565b82525050565b6000602082019050613b666000830184613b42565b92915050565b6000602082019050613b8160008301846139d1565b92915050565b600080600060608486031215613ba057613b9f613a41565b5b6000613bae86828701613a94565b9350506020613bbf86828701613a94565b9250506040613bd086828701613ac0565b9150509250925092565b6000608082019050613bef60008301876138eb565b613bfc60208301866139d1565b613c0960408301856139d1565b613c1660608301846139d1565b95945050505050565b600060ff82169050919050565b613c3581613c1f565b82525050565b6000602082019050613c506000830184613c2c565b92915050565b6000606082019050613c6b60008301866139d1565b613c7860208301856139d1565b613c8560408301846139d1565b949350505050565b600080fd5b600080fd5b600080fd5b60008083601f840112613cb257613cb1613c8d565b5b8235905067ffffffffffffffff811115613ccf57613cce613c92565b5b602083019150836020820283011115613ceb57613cea613c97565b5b9250929050565b60008083601f840112613d0857613d07613c8d565b5b8235905067ffffffffffffffff811115613d2557613d24613c92565b5b602083019150836020820283011115613d4157613d40613c97565b5b9250929050565b60008060008060408587031215613d6257613d61613a41565b5b600085013567ffffffffffffffff811115613d8057613d7f613a46565b5b613d8c87828801613c9c565b9450945050602085013567ffffffffffffffff811115613daf57613dae613a46565b5b613dbb87828801613cf2565b925092505092959194509250565b600060208284031215613ddf57613dde613a41565b5b6000613ded84828501613ac0565b91505092915050565b600081519050919050565b600082825260208201905092915050565b6000819050602082019050919050565b613e2b816139c7565b82525050565b604082016000820151613e476000850182613e22565b506020820151613e5a6020850182613e22565b50505050565b6000613e6c8383613e31565b60408301905092915050565b6000602082019050919050565b6000613e9082613df6565b613e9a8185613e01565b9350613ea583613e12565b8060005b83811015613ed6578151613ebd8882613e60565b9750613ec883613e78565b925050600181019050613ea9565b5085935050505092915050565b60006020820190508181036000830152613efd8184613e85565b905092915050565b60008060408385031215613f1c57613f1b613a41565b5b6000613f2a85828601613a94565b9250506020613f3b85828601613a94565b9150509250929050565b7f4e487b7100000000000000000000000000000000000000000000000000000000600052602260045260246000fd5b60006002820490506001821680613f8c57607f821691505b602082108103613f9f57613f9e613f45565b5b50919050565b7f4e487b7100000000000000000000000000000000000000000000000000000000600052601160045260246000fd5b6000613fdf826139c7565b9150613fea836139c7565b925082820390508181111561400257614001613fa5565b5b92915050565b7f43616e6e6f74206d696e7420746f207a65726f20616464726573730000000000600082015250565b600061403e601b83613920565b915061404982614008565b602082019050919050565b6000602082019050818103600083015261406d81614031565b9050919050565b7f4d617820737570706c7920616c7265616479206d696e74656400000000000000600082015250565b60006140aa601983613920565b91506140b582614074565b602082019050919050565b600060208201905081810360008301526140d98161409d565b9050919050565b7f4e6f2072656d61696e696e6720737570706c7920746f206d696e740000000000600082015250565b6000614116601b83613920565b9150614121826140e0565b602082019050919050565b6000602082019050818103600083015261414581614109565b9050919050565b7f4e487b7100000000000000000000000000000000000000000000000000000000600052601260045260246000fd5b6000614186826139c7565b9150614191836139c7565b9250826141a1576141a061414c565b5b828204905092915050565b7f52656d61696e696e6720737570706c7920746f6f206c6172676520666f72207360008201527f696e676c65206d696e7400000000000000000000000000000000000000000000602082015250565b6000614208602a83613920565b9150614213826141ac565b604082019050919050565b60006020820190508181036000830152614237816141fb565b9050919050565b6000614249826139c7565b9150614254836139c7565b925082820190508082111561426c5761426b613fa5565b5b92915050565b7f4d696e7420776f756c6420657863656564204d41585f535550504c5900000000600082015250565b60006142a8601c83613920565b91506142b382614272565b602082019050919050565b600060208201905081810360008301526142d78161429b565b9050919050565b60006142e9826139c7565b91506142f4836139c7565b9250828202614302816139c7565b9150828204841483151761431957614318613fa5565b5b5092915050565b7f4e6f2070656e64696e67207472616e7366657200000000000000000000000000600082015250565b6000614356601383613920565b915061436182614320565b602082019050919050565b6000602082019050818103600083015261438581614349565b9050919050565b7f5a65726f2061646472657373206e6f7420616c6c6f7765640000000000000000600082015250565b60006143c2601883613920565b91506143cd8261438c565b602082019050919050565b600060208201905081810360008301526143f1816143b5565b9050919050565b600060608201905061440d60008301866138eb565b61441a60208301856139d1565b61442760408301846139d1565b949350505050565b7f4f776e6572736869702072656e756e63696174696f6e2064697361626c656400600082015250565b6000614465601f83613920565b91506144708261442f565b602082019050919050565b6000602082019050818103600083015261449481614458565b9050919050565b7f43616c6c6572206973206e6f7420746865206469737472696275746f72000000600082015250565b60006144d1601d83613920565b91506144dc8261449b565b602082019050919050565b60006020820190508181036000830152614500816144c4565b9050919050565b7f446973747269627574696f6e20616c726561647920636f6d706c657465640000600082015250565b600061453d601e83613920565b915061454882614507565b602082019050919050565b6000602082019050818103600083015261456c81614530565b9050919050565b7f4172726179206c656e677468206d69736d617463680000000000000000000000600082015250565b60006145a9601583613920565b91506145b482614573565b602082019050919050565b600060208201905081810360008301526145d88161459c565b9050919050565b7f4e487b7100000000000000000000000000000000000000000000000000000000600052603260045260246000fd5b7f496e76616c696420726563697069656e74206164647265737300000000000000600082015250565b6000614644601983613920565b915061464f8261460e565b602082019050919050565b6000602082019050818103600083015261467381614637565b9050919050565b6000614685826139c7565b91507fffffffffffffffffffffffffffffffffffffffffffffffffffffffffffffffff82036146b7576146b6613fa5565b5b600182019050919050565b7f446973747269627574696f6e206578636565647320696e697469616c2073757060008201527f706c790000000000000000000000000000000000000000000000000000000000602082015250565b600061471e602383613920565b9150614729826146c2565b604082019050919050565b6000602082019050818103600083015261474d81614711565b9050919050565b7f5472616e736665722064656c6179206e6f74206d657400000000000000000000600082015250565b600061478a601683613920565b915061479582614754565b602082019050919050565b600060208201905081810360008301526147b98161477d565b9050919050565b7f43616c6c6572206e6f742070656e64696e67206f776e65720000000000000000600082015250565b60006147f6601883613920565b9150614801826147c0565b602082019050919050565b60006020820190508181036000830152614825816147e9565b9050919050565b7f45524332303a2064656372656173656420616c6c6f77616e63652062656c6f7760008201527f207a65726f000000000000000000000000000000000000000000000000000000602082015250565b6000614888602583613920565b91506148938261482c565b604082019050919050565b600060208201905081810360008301526148b78161487b565b9050919050565b7f43616c6c6572206973206e6f7420746865207265626173657200000000000000600082015250565b60006148f4601983613920565b91506148ff826148be565b602082019050919050565b60006020820190508181036000830152614923816148e7565b9050919050565b7f52656261736520696e74657276616c206e6f7420726561636865640000000000600082015250565b6000614960601b83613920565b915061496b8261492a565b602082019050919050565b6000602082019050818103600083015261498f81614953565b9050919050565b7f52656261736520666163746f72206d75737420626520706f7369746976650000600082015250565b60006149cc601e83613920565b91506149d782614996565b602082019050919050565b600060208201905081810360008301526149fb816149bf565b9050919050565b7f52656261736520666163746f7220746f6f206c61726765000000000000000000600082015250565b6000614a38601783613920565b9150614a4382614a02565b602082019050919050565b60006020820190508181036000830152614a6781614a2b565b9050919050565b7f43757272656e7420737570706c7920746f6f206c6172676520666f722073616660008201527f65207265626173652063616c63756c6174696f6e000000000000000000000000602082015250565b6000614aca603483613920565b9150614ad582614a6e565b604082019050919050565b60006020820190508181036000830152614af981614abd565b9050919050565b7f5265626173652063616c63756c6174696f6e20776f756c64206361757365206f60008201527f766572666c6f7700000000000000000000000000000000000000000000000000602082015250565b6000614b5c602783613920565b9150614b6782614b00565b604082019050919050565b60006020820190508181036000830152614b8b81614b4f565b9050919050565b7f52656261736520776f756c6420657863656564204d41585f535550504c590000600082015250565b6000614bc8601e83613920565b9150614bd382614b92565b602082019050919050565b60006020820190508181036000830152614bf781614bbb565b9050919050565b6000604082019050614c1360008301856139d1565b614c2060208301846139d1565b9392505050565b7f4163636f756e74206e6f74206578636c75646564000000000000000000000000600082015250565b6000614c5d601483613920565b9150614c6882614c27565b602082019050919050565b60006020820190508181036000830152614c8c81614c50565b9050919050565b6000604082019050614ca860008301856138eb565b614cb560208301846138eb565b9392505050565b7f4163636f756e7420696e636c7564656420696e20726562617365000000000000600082015250565b6000614cf2601a83613920565b9150614cfd82614cbc565b602082019050919050565b6000606082019050614d1d60008301856139d1565b614d2a60208301846139d1565b8181036040830152614d3b81614ce5565b90509392505050565b7f496e76616c696420616464726573730000000000000000000000000000000000600082015250565b6000614d7a600f83613920565b9150614d8582614d44565b602082019050919050565b60006020820190508181036000830152614da981614d6d565b9050919050565b7f4163636f756e7420616c7265616479206578636c756465640000000000000000600082015250565b6000614de6601883613920565b9150614df182614db0565b602082019050919050565b60006020820190508181036000830152614e1581614dd9565b9050919050565b7f4163636f756e74206578636c756465642066726f6d2072656261736500000000600082015250565b6000614e52601c83613920565b9150614e5d82614e1c565b602082019050919050565b6000606082019050614e7d60008301856139d1565b614e8a60208301846139d1565b8181036040830152614e9b81614e45565b90509392505050565b7f45524332303a20617070726f76652066726f6d20746865207a65726f2061646460008201527f7265737300000000000000000000000000000000000000000000000000000000602082015250565b6000614f00602483613920565b9150614f0b82614ea4565b604082019050919050565b60006020820190508181036000830152614f2f81614ef3565b9050919050565b7f45524332303a20617070726f766520746f20746865207a65726f20616464726560008201527f7373000000000000000000000000000000000000000000000000000000000000602082015250565b6000614f92602283613920565b9150614f9d82614f36565b604082019050919050565b60006020820190508181036000830152614fc181614f85565b9050919050565b7f4f776e61626c653a2063616c6c6572206973206e6f7420746865206f776e6572600082015250565b6000614ffe602083613920565b915061500982614fc8565b602082019050919050565b6000602082019050818103600083015261502d81614ff1565b9050919050565b7f45524332303a206d696e7420746f20746865207a65726f206164647265737300600082015250565b600061506a601f83613920565b915061507582615034565b602082019050919050565b600060208201905081810360008301526150998161505d565b9050919050565b7f43616e6e6f74206d696e74207a65726f20616d6f756e74000000000000000000600082015250565b60006150d6601783613920565b91506150e1826150a0565b602082019050919050565b60006020820190508181036000830152615105816150c9565b9050919050565b7f416d6f756e7420746f6f206c6172676520666f7220626173652063616c63756c60008201527f6174696f6e000000000000000000000000000000000000000000000000000000602082015250565b6000615168602583613920565b91506151738261510c565b604082019050919050565b600060208201905081810360008301526151978161515b565b9050919050565b7f42616c616e6365206f766572666c6f7720696e206d696e740000000000000000600082015250565b60006151d4601883613920565b91506151df8261519e565b602082019050919050565b60006020820190508181036000830152615203816151c7565b9050919050565b7f4578636c7564656420746f74616c206f766572666c6f7720696e206d696e7400600082015250565b6000615240601f83613920565b915061524b8261520a565b602082019050919050565b6000602082019050818103600083015261526f81615233565b9050919050565b7f45524332303a20696e73756666696369656e7420616c6c6f77616e6365000000600082015250565b60006152ac601d83613920565b91506152b782615276565b602082019050919050565b600060208201905081810360008301526152db8161529f565b9050919050565b7f45524332303a207472616e736665722066726f6d20746865207a65726f20616460008201527f6472657373000000000000000000000000000000000000000000000000000000602082015250565b600061533e602583613920565b9150615349826152e2565b604082019050919050565b6000602082019050818103600083015261536d81615331565b9050919050565b7f45524332303a207472616e7366657220746f20746865207a65726f206164647260008201527f6573730000000000000000000000000000000000000000000000000000000000602082015250565b60006153d0602383613920565b91506153db82615374565b604082019050919050565b600060208201905081810360008301526153ff816153c3565b9050919050565b7f45524332303a207472616e7366657220616d6f756e742065786365656473206260008201527f616c616e63650000000000000000000000000000000000000000000000000000602082015250565b6000615462602683613920565b915061546d82615406565b604082019050919050565b6000602082019050818103600083015261549181615455565b9050919050565b7f42616c616e6365206368616e6765206c6f676765640000000000000000000000600082015250565b60006154ce601583613920565b91506154d982615498565b602082019050919050565b60006060820190506154f960008301856139d1565b61550660208301846139d1565b8181036040830152615517816154c1565b9050939250505056fea2646970667358221220b26cfd64c09f267bb95eeb2abe3a061f27c97446b64aee3496d1573c56ac35a864736f6c63430008140033",
  "linkReferences": {},
  "deployedLinkReferences": {}
}