{
  "_format": "hh-sol-artifact-1",
  "contractName": "LifeToken",
  "sourceName": "contracts/tokens/LifeToken.sol",
  "abi": [
    {
      "inputs": [
        {
          "internalType": "address",
          "name": "initialOwner_",
          "type": "address"
        }
      ],
      "stateMutability": "nonpayable",
      "type": "constructor"
    },
    {
      "anonymous": false,
      "inputs": [
        {
          "indexed": true,
          "internalType": "address",
          "name": "owner",
          "type": "address"
        },
        {
          "indexed": true,
          "internalType": "address",
          "name": "spender",
          "type": "address"
        },
        {
          "indexed": false,
          "internalType": "uint256",
          "name": "value",
          "type": "uint256"
        }
      ],
      "name": "Approval",
      "type": "event"
    },
    {
      "anonymous": false,
      "inputs": [
        {
          "indexed": true,
          "internalType": "address",
          "name": "account",
          "type": "address"
        },
        {
          "indexed": false,
          "internalType": "uint256",
          "name": "oldAmount",
          "type": "uint256"
        },
        {
          "indexed": false,
          "internalType": "uint256",
          "name": "newAmount",
          "type": "uint256"
        },
        {
          "indexed": false,
          "internalType": "uint256",
          "name": "timestamp",
          "type": "uint256"
        }
      ],
      "name": "BaseBalanceAdjusted",
      "type": "event"
    },
    {
      "anonymous": false,
      "inputs": [
        {
          "indexed": true,
          "internalType": "address",
          "name": "newDistributor",
          "type": "address"
        }
      ],
      "name": "DistributorUpdated",
      "type": "event"
    },
    {
      "anonymous": false,
      "inputs": [
        {
          "indexed": true,
          "internalType": "address",
          "name": "account",
          "type": "address"
        },
        {
          "indexed": false,
          "internalType": "bool",
          "name": "oldExcluded",
          "type": "bool"
        },
        {
          "indexed": false,
          "internalType": "bool",
          "name": "newExcluded",
          "type": "bool"
        }
      ],
      "name": "ExcludedFromRebase",
      "type": "event"
    },
    {
      "anonymous": false,
      "inputs": [
        {
          "indexed": true,
          "internalType": "address",
          "name": "recipient",
          "type": "address"
        },
        {
          "indexed": false,
          "internalType": "uint256",
          "name": "amount",
          "type": "uint256"
        }
      ],
      "name": "Mint",
      "type": "event"
    },
    {
      "anonymous": false,
      "inputs": [
        {
          "indexed": true,
          "internalType": "address",
          "name": "canceledOwner",
          "type": "address"
        }
      ],
      "name": "OwnershipTransferCanceled",
      "type": "event"
    },
    {
      "anonymous": false,
      "inputs": [
        {
          "indexed": true,
          "internalType": "address",
          "name": "pendingOwner",
          "type": "address"
        }
      ],
      "name": "OwnershipTransferStarted",
      "type": "event"
    },
    {
      "anonymous": false,
      "inputs": [
        {
          "indexed": true,
          "internalType": "address",
          "name": "previousOwner",
          "type": "address"
        },
        {
          "indexed": true,
          "internalType": "address",
          "name": "newOwner",
          "type": "address"
        }
      ],
      "name": "OwnershipTransferred",
      "type": "event"
    },
    {
      "anonymous": false,
      "inputs": [
        {
          "indexed": true,
          "internalType": "uint256",
          "name": "epoch",
          "type": "uint256"
        },
        {
          "indexed": false,
          "internalType": "uint256",
          "name": "oldFactor",
          "type": "uint256"
        },
        {
          "indexed": false,
          "internalType": "uint256",
          "name": "newFactor",
          "type": "uint256"
        }
      ],
      "name": "Rebase",
      "type": "event"
    },
    {
      "anonymous": false,
      "inputs": [
        {
          "indexed": true,
          "internalType": "address",
          "name": "newRebaser",
          "type": "address"
        }
      ],
      "name": "RebaserUpdated",
      "type": "event"
    },
    {
      "anonymous": false,
      "inputs": [
        {
          "indexed": true,
          "internalType": "address",
          "name": "from",
          "type": "address"
        },
        {
          "indexed": true,
          "internalType": "address",
          "name": "to",
          "type": "address"
        },
        {
          "indexed": false,
          "internalType": "uint256",
          "name": "value",
          "type": "uint256"
        }
      ],
      "name": "Transfer",
      "type": "event"
    },
    {
      "inputs": [],
      "name": "INITIAL_SUPPLY",
      "outputs": [
        {
          "internalType": "uint256",
          "name": "",
          "type": "uint256"
        }
      ],
      "stateMutability": "view",
      "type": "function"
    },
    {
      "inputs": [],
      "name": "MAX_REBASE_FACTOR",
      "outputs": [
        {
          "internalType": "uint256",
          "name": "",
          "type": "uint256"
        }
      ],
      "stateMutability": "view",
      "type": "function"
    },
    {
      "inputs": [],
      "name": "MAX_SUPPLY",
      "outputs": [
        {
          "internalType": "uint256",
          "name": "",
          "type": "uint256"
        }
      ],
      "stateMutability": "view",
      "type": "function"
    },
    {
      "inputs": [],
      "name": "MIN_SUPPLY",
      "outputs": [
        {
          "internalType": "uint256",
          "name": "",
          "type": "uint256"
        }
      ],
      "stateMutability": "view",
      "type": "function"
    },
    {
      "inputs": [],
      "name": "REBASE_FACTOR_PRECISION",
      "outputs": [
        {
          "internalType": "uint256",
          "name": "",
          "type": "uint256"
        }
      ],
      "stateMutability": "view",
      "type": "function"
    },
    {
      "inputs": [],
      "name": "TOKEN_UNIT",
      "outputs": [
        {
          "internalType": "uint256",
          "name": "",
          "type": "uint256"
        }
      ],
      "stateMutability": "view",
      "type": "function"
    },
    {
      "inputs": [],
      "name": "acceptOwnership",
      "outputs": [],
      "stateMutability": "nonpayable",
      "type": "function"
    },
    {
      "inputs": [
        {
          "internalType": "address",
          "name": "owner",
          "type": "address"
        },
        {
          "internalType": "address",
          "name": "spender",
          "type": "address"
        }
      ],
      "name": "allowance",
      "outputs": [
        {
          "internalType": "uint256",
          "name": "",
          "type": "uint256"
        }
      ],
      "stateMutability": "view",
      "type": "function"
    },
    {
      "inputs": [
        {
          "internalType": "address",
          "name": "spender",
          "type": "address"
        },
        {
          "internalType": "uint256",
          "name": "amount",
          "type": "uint256"
        }
      ],
      "name": "approve",
      "outputs": [
        {
          "internalType": "bool",
          "name": "",
          "type": "bool"
        }
      ],
      "stateMutability": "nonpayable",
      "type": "function"
    },
    {
      "inputs": [
        {
          "internalType": "address",
          "name": "account",
          "type": "address"
        }
      ],
      "name": "balanceOf",
      "outputs": [
        {
          "internalType": "uint256",
          "name": "",
          "type": "uint256"
        }
      ],
      "stateMutability": "view",
      "type": "function"
    },
    {
      "inputs": [],
      "name": "cancelOwnershipTransfer",
      "outputs": [],
      "stateMutability": "nonpayable",
      "type": "function"
    },
    {
      "inputs": [],
      "name": "decimals",
      "outputs": [
        {
          "internalType": "uint8",
          "name": "",
          "type": "uint8"
        }
      ],
      "stateMutability": "view",
      "type": "function"
    },
    {
      "inputs": [
        {
          "internalType": "address",
          "name": "spender",
          "type": "address"
        },
        {
          "internalType": "uint256",
          "name": "subtractedValue",
          "type": "uint256"
        }
      ],
      "name": "decreaseAllowance",
      "outputs": [
        {
          "internalType": "bool",
          "name": "",
          "type": "bool"
        }
      ],
      "stateMutability": "nonpayable",
      "type": "function"
    },
    {
      "inputs": [],
      "name": "distributor",
      "outputs": [
        {
          "internalType": "address",
          "name": "",
          "type": "address"
        }
      ],
      "stateMutability": "view",
      "type": "function"
    },
    {
      "inputs": [
        {
          "internalType": "address",
          "name": "account_",
          "type": "address"
        }
      ],
      "name": "excludeFromRebase",
      "outputs": [],
      "stateMutability": "nonpayable",
      "type": "function"
    },
    {
      "inputs": [
        {
          "internalType": "address",
          "name": "account",
          "type": "address"
        }
      ],
      "name": "getBaseBalanceHistory",
      "outputs": [
        {
          "components": [
            {
              "internalType": "uint256",
              "name": "amount",
              "type": "uint256"
            },
            {
              "internalType": "uint256",
              "name": "timestamp",
              "type": "uint256"
            }
          ],
          "internalType": "struct LifeToken.BaseBalanceRecord[]",
          "name": "",
          "type": "tuple[]"
        }
      ],
      "stateMutability": "view",
      "type": "function"
    },
    {
      "inputs": [],
      "name": "getExcludedFromRebaseTotal",
      "outputs": [
        {
          "internalType": "uint256",
          "name": "",
          "type": "uint256"
        }
      ],
      "stateMutability": "view",
      "type": "function"
    },
    {
      "inputs": [
        {
          "internalType": "address",
          "name": "account",
          "type": "address"
        }
      ],
      "name": "includeInRebase",
      "outputs": [],
      "stateMutability": "nonpayable",
      "type": "function"
    },
    {
      "inputs": [
        {
          "internalType": "address",
          "name": "spender",
          "type": "address"
        },
        {
          "internalType": "uint256",
          "name": "addedValue",
          "type": "uint256"
        }
      ],
      "name": "increaseAllowance",
      "outputs": [
        {
          "internalType": "bool",
          "name": "",
          "type": "bool"
        }
      ],
      "stateMutability": "nonpayable",
      "type": "function"
    },
    {
      "inputs": [],
      "name": "initialDistributionDone",
      "outputs": [
        {
          "internalType": "bool",
          "name": "",
          "type": "bool"
        }
      ],
      "stateMutability": "view",
      "type": "function"
    },
    {
      "inputs": [
        {
          "internalType": "address",
          "name": "account",
          "type": "address"
        }
      ],
      "name": "isExcludedFromRebase",
      "outputs": [
        {
          "internalType": "bool",
          "name": "",
          "type": "bool"
        }
      ],
      "stateMutability": "view",
      "type": "function"
    },
    {
      "inputs": [
        {
          "internalType": "address",
          "name": "recipient",
          "type": "address"
        }
      ],
      "name": "mintRemainingSupply",
      "outputs": [],
      "stateMutability": "nonpayable",
      "type": "function"
    },
    {
      "inputs": [],
      "name": "name",
      "outputs": [
        {
          "internalType": "string",
          "name": "",
          "type": "string"
        }
      ],
      "stateMutability": "view",
      "type": "function"
    },
    {
      "inputs": [],
      "name": "owner",
      "outputs": [
        {
          "internalType": "address",
          "name": "",
          "type": "address"
        }
      ],
      "stateMutability": "view",
      "type": "function"
    },
    {
      "inputs": [],
      "name": "ownershipTransferTime",
      "outputs": [
        {
          "internalType": "uint256",
          "name": "",
          "type": "uint256"
        }
      ],
      "stateMutability": "view",
      "type": "function"
    },
    {
      "inputs": [
        {
          "internalType": "uint256",
          "name": "newRebaseFactor",
          "type": "uint256"
        }
      ],
      "name": "rebase",
      "outputs": [],
      "stateMutability": "nonpayable",
      "type": "function"
    },
    {
      "inputs": [],
      "name": "rebaseConfig",
      "outputs": [
        {
          "internalType": "uint256",
          "name": "lastRebaseTimestamp",
          "type": "uint256"
        },
        {
          "internalType": "uint256",
          "name": "minRebaseInterval",
          "type": "uint256"
        },
        {
          "internalType": "uint256",
          "name": "rebaseFactor",
          "type": "uint256"
        },
        {
          "internalType": "uint256",
          "name": "epoch",
          "type": "uint256"
        }
      ],
      "stateMutability": "view",
      "type": "function"
    },
    {
      "inputs": [],
      "name": "rebaseEpoch",
      "outputs": [
        {
          "internalType": "uint256",
          "name": "",
          "type": "uint256"
        }
      ],
      "stateMutability": "view",
      "type": "function"
    },
    {
      "inputs": [],
      "name": "rebaser",
      "outputs": [
        {
          "internalType": "address",
          "name": "",
          "type": "address"
        }
      ],
      "stateMutability": "view",
      "type": "function"
    },
    {
      "inputs": [],
      "name": "renounceOwnership",
      "outputs": [],
      "stateMutability": "view",
      "type": "function"
    },
    {
      "inputs": [
        {
          "internalType": "address",
          "name": "newDistributor_",
          "type": "address"
        }
      ],
      "name": "setDistributor",
      "outputs": [],
      "stateMutability": "nonpayable",
      "type": "function"
    },
    {
      "inputs": [
        {
          "internalType": "address",
          "name": "newRebaser_",
          "type": "address"
        }
      ],
      "name": "setRebaser",
      "outputs": [],
      "stateMutability": "nonpayable",
      "type": "function"
    },
    {
      "inputs": [],
      "name": "symbol",
      "outputs": [
        {
          "internalType": "string",
          "name": "",
          "type": "string"
        }
      ],
      "stateMutability": "view",
      "type": "function"
    },
    {
      "inputs": [],
      "name": "totalSupply",
      "outputs": [
        {
          "internalType": "uint256",
          "name": "",
          "type": "uint256"
        }
      ],
      "stateMutability": "view",
      "type": "function"
    },
    {
      "inputs": [
        {
          "internalType": "address",
          "name": "to",
          "type": "address"
        },
        {
          "internalType": "uint256",
          "name": "amount",
          "type": "uint256"
        }
      ],
      "name": "transfer",
      "outputs": [
        {
          "internalType": "bool",
          "name": "",
          "type": "bool"
        }
      ],
      "stateMutability": "nonpayable",
      "type": "function"
    },
    {
      "inputs": [
        {
          "internalType": "address",
          "name": "from",
          "type": "address"
        },
        {
          "internalType": "address",
          "name": "to",
          "type": "address"
        },
        {
          "internalType": "uint256",
          "name": "amount",
          "type": "uint256"
        }
      ],
      "name": "transferFrom",
      "outputs": [
        {
          "internalType": "bool",
          "name": "",
          "type": "bool"
        }
      ],
      "stateMutability": "nonpayable",
      "type": "function"
    },
    {
      "inputs": [
        {
          "internalType": "address",
          "name": "newOwner",
          "type": "address"
        }
      ],
      "name": "transferOwnership",
      "outputs": [],
      "stateMutability": "nonpayable",
      "type": "function"
    }
  ],
  "bytecode": "0x60806040523480156200001157600080fd5b5060405162001ffa38038062001ffa833981016040819052620000349162000231565b6040518060400160405280601081526020016f26b0b730b3b2a634b332902a37b5b2b760811b815250604051806040016040528060048152602001634c69666560e01b81525081600390816200008b919062000308565b5060046200009a828262000308565b505050620000b7620000b1620001db60201b60201c565b620001df565b6001600160a01b038116620001125760405162461bcd60e51b815260206004820152601860248201527f5a65726f2061646472657373206e6f7420616c6c6f7765640000000000000000604482015260640160405180910390fd5b600780546001600160a01b0383166001600160a01b03199182168117909255600880549091169091179055604080516080810182524280825262278d006020808401829052670de0b6b3a764000084860181905260006060909501859052600993909355600a91909155600b91909155600c82905530808352600e82528383206b06765c793fa10079d0000000908190559351938452927fddf252ad1be2c89b69c2b068fc378daa952ba7f163c4a11628f55a4df523b3ef910160405180910390a350620003d4565b3390565b600580546001600160a01b038381166001600160a01b0319831681179093556040519116919082907f8be0079c531659141344cd1fd0a4f28419497f9722a3daafe3b4186f6b6457e090600090a35050565b6000602082840312156200024457600080fd5b81516001600160a01b03811681146200025c57600080fd5b9392505050565b634e487b7160e01b600052604160045260246000fd5b600181811c908216806200028e57607f821691505b602082108103620002af57634e487b7160e01b600052602260045260246000fd5b50919050565b601f8211156200030357600081815260208120601f850160051c81016020861015620002de5750805b601f850160051c820191505b81811015620002ff57828155600101620002ea565b5050505b505050565b81516001600160401b0381111562000324576200032462000263565b6200033c8162000335845462000279565b84620002b5565b602080601f8311600181146200037457600084156200035b5750858301515b600019600386901b1c1916600185901b178555620002ff565b600085815260208120601f198616915b82811015620003a55788860151825594840194600190910190840162000384565b5085821015620003c45787850151600019600388901b60f8161c191681555b5050505050600190811b01905550565b611c1680620003e46000396000f3fe608060405234801561001057600080fd5b50600436106102275760003560e01c806379ba509711610130578063bfe10928116100b8578063dd62ed3e1161007c578063dd62ed3e14610499578063e46adf62146104ac578063e7d6289b146104bf578063f06d66b8146104d2578063f2fde38b146104e557600080fd5b8063bfe109281461043b578063c02e4b381461044e578063d36012711461045d578063d54d97ed1461047d578063d55d60f91461049057600080fd5b8063a457c2d7116100ff578063a457c2d7146103f3578063a5c9cd8214610406578063a9059cbb14610415578063b48ca72014610406578063bc4f2d6d1461042857600080fd5b806379ba5097146103ca5780638da5cb5b146103d257806395d89b41146103e3578063a236b83a146103eb57600080fd5b8063313ce567116101b35780634d3d0553116101825780634d3d05531461034757806357b535c01461037d57806370a0823114610386578063715018a6146103af57806375619ab5146103b757600080fd5b8063313ce5671461030157806332cb6b0c1461031057806335917c6414610323578063395093511461033457600080fd5b806311fd8a83116101fa57806311fd8a831461029257806318160ddd146102bd57806323452b9c146102d357806323b872dd146102db5780632ff2e9dc146102ee57600080fd5b80630535ec771461022c57806306fdde0314610255578063095ea7b31461026a5780630e23d25c1461027d575b600080fd5b60085461024090600160a01b900460ff1681565b60405190151581526020015b60405180910390f35b61025d6104f8565b60405161024c919061195b565b6102406102783660046119c5565b61058a565b61029061028b3660046119ef565b6105a4565b005b6007546102a5906001600160a01b031681565b6040516001600160a01b03909116815260200161024c565b6102c56107e1565b60405190815260200161024c565b61029061082d565b6102406102e9366004611a0a565b6108d2565b6102c56b06765c793fa10079d000000081565b6040516012815260200161024c565b6102c56b1027e72f1f1281308800000081565b6102c569d3c21bcecceda100000081565b6102406103423660046119c5565b6108f6565b600954600a54600b54600c5461035d9392919084565b60408051948552602085019390935291830152606082015260800161024c565b6102c560125481565b6102c56103943660046119ef565b6001600160a01b031660009081526020819052604090205490565b610290610918565b6102906103c53660046119ef565b610968565b610290610a14565b6005546001600160a01b03166102a5565b61025d610b33565b6011546102c5565b6102406104013660046119c5565b610b42565b6102c5670de0b6b3a764000081565b6102406104233660046119c5565b610bbd565b610290610436366004611a46565b610bcb565b6008546102a5906001600160a01b031681565b6102c5678ac7230489e8000081565b61047061046b3660046119ef565b610e4a565b60405161024c9190611a5f565b61029061048b3660046119ef565b610ef6565b6102c560135481565b6102c56104a7366004611aae565b61100d565b6102906104ba3660046119ef565b611038565b6102906104cd3660046119ef565b6110d2565b6102406104e03660046119ef565b6111ef565b6102906104f33660046119ef565b611236565b60606003805461050790611ae1565b80601f016020809104026020016040519081016040528092919081815260200182805461053390611ae1565b80156105805780601f1061055557610100808354040283529160200191610580565b820191906000526020600020905b81548152906001019060200180831161056357829003601f168201915b5050505050905090565b6000336105988185856112e8565b60019150505b92915050565b6105ac61140c565b6001600160a01b0381166106075760405162461bcd60e51b815260206004820152601b60248201527f43616e6e6f74206d696e7420746f207a65726f2061646472657373000000000060448201526064015b60405180910390fd5b60006106116107e1565b90506b1027e72f1f12813088000000811061066e5760405162461bcd60e51b815260206004820152601960248201527f4d617820737570706c7920616c7265616479206d696e7465640000000000000060448201526064016105fe565b6000610686826b1027e72f1f12813088000000611b31565b6001600160a01b0384166000908152600d60205260408120549192509060ff166106ce57600b546106c9906106c384670de0b6b3a7640000611468565b9061147b565b6106d0565b815b6001600160a01b0385166000908152600e60205260408120805492935083916106f98385611b44565b90915550506001600160a01b0385166000908152600d602052604090205460ff16156107305760115461072c9083611487565b6011555b6001600160a01b0385166000908152600e60205260409020546107569086908390611493565b6040518381526001600160a01b038616906000907fddf252ad1be2c89b69c2b068fc378daa952ba7f163c4a11628f55a4df523b3ef9060200160405180910390a3846001600160a01b03167f0f6798a560793a54c3bcfe86a93cde1e73087d944c0ea20544137d4121396885846040516107d291815260200190565b60405180910390a25050505050565b600080670de0b6b3a76400006009600201546011546010546108039190611b31565b61080d9190611b57565b6108179190611b6e565b9050601154816108279190611b44565b91505090565b61083561140c565b6006546001600160a01b03166108835760405162461bcd60e51b81526020600482015260136024820152722737903832b73234b733903a3930b739b332b960691b60448201526064016105fe565b6006546040516001600160a01b03909116907f6ecd4842251bedd053b09547c0fabaab9ec98506ebf24469e8dd5560412ed37f90600090a2600680546001600160a01b03191690556000601355565b6000336108e0858285611528565b6108eb8585856115a2565b506001949350505050565b600033610598818585610909838361100d565b6109139190611b44565b6112e8565b61092061140c565b60405162461bcd60e51b815260206004820152601f60248201527f4f776e6572736869702072656e756e63696174696f6e2064697361626c65640060448201526064016105fe565b61097061140c565b600854600160a01b900460ff16156109ca5760405162461bcd60e51b815260206004820152601e60248201527f446973747269627574696f6e20616c726561647920636f6d706c65746564000060448201526064016105fe565b600880546001600160a01b0319166001600160a01b0383169081179091556040517fc0ebb188f905d128bcd7e4282dd1f9cf24cd331b69071002e488349aca6a867b90600090a250565b6006546001600160a01b0316610a625760405162461bcd60e51b81526020600482015260136024820152722737903832b73234b733903a3930b739b332b960691b60448201526064016105fe565b601354421015610aad5760405162461bcd60e51b8152602060048201526016602482015275151c985b9cd9995c8819195b185e481b9bdd081b595d60521b60448201526064016105fe565b6006546001600160a01b03163314610b075760405162461bcd60e51b815260206004820152601860248201527f43616c6c6572206e6f742070656e64696e67206f776e6572000000000000000060448201526064016105fe565b600654610b1c906001600160a01b03166118fd565b600680546001600160a01b03191690556000601355565b60606004805461050790611ae1565b60003381610b50828661100d565b905083811015610bb05760405162461bcd60e51b815260206004820152602560248201527f45524332303a2064656372656173656420616c6c6f77616e63652062656c6f77604482015264207a65726f60d81b60648201526084016105fe565b6108eb82868684036112e8565b6000336105988185856115a2565b6007546001600160a01b03163314610c255760405162461bcd60e51b815260206004820152601960248201527f43616c6c6572206973206e6f742074686520726562617365720000000000000060448201526064016105fe565b600a54600954610c359190611b44565b421015610c845760405162461bcd60e51b815260206004820152601760248201527f52656261736520696e74657276616c206e6f74206d657400000000000000000060448201526064016105fe565b6000670de0b6b3a764000082601054610c9d9190611b57565b610ca79190611b6e565b90506b1027e72f1f12813088000000811115610cfe5760405162461bcd60e51b8152602060048201526016602482015275537570706c792065786365656473206d6178696d756d60501b60448201526064016105fe565b69d3c21bcecceda1000000811015610d4f5760405162461bcd60e51b8152602060048201526014602482015273537570706c792062656c6f77206d696e696d756d60601b60448201526064016105fe565b60008211610d975760405162461bcd60e51b815260206004820152601560248201527424b73b30b634b2103932b130b9b2903330b1ba37b960591b60448201526064016105fe565b678ac7230489e80000821115610de85760405162461bcd60e51b81526020600482015260166024820152750a4cac4c2e6ca40ccc2c6e8dee440e8dede40d0d2ced60531b60448201526064016105fe565b600b80549083905542600955600c8054906000610e0483611b90565b9091555050600c5460408051838152602081018690527fc6642d24d84e7f3d36ca39f5cce10e75639d9b158d5193aa350e2f900653e4c0910160405180910390a2505050565b60606001600160a01b038216610e725760405162461bcd60e51b81526004016105fe90611ba9565b6001600160a01b0382166000908152600f6020908152604080832080548251818502810185019093528083529193909284015b82821015610eeb57838290600052602060002090600202016040518060400160405290816000820154815260200160018201548152505081526020019060010190610ea5565b505050509050919050565b610efe61140c565b6001600160a01b038116610f245760405162461bcd60e51b81526004016105fe90611ba9565b6001600160a01b0381166000908152600d602052604090205460ff1680610f845760405162461bcd60e51b81526020600482015260146024820152731058d8dbdd5b9d081b9bdd08195e18db1d59195960621b60448201526064016105fe565b6001600160a01b0382166000908152600e6020526040902054601154610fa99161194f565b6011556001600160a01b0382166000818152600d60209081526040808320805460ff1916905580518515158152918201929092527f0ebf4318915b850f5616a5f8a1a5ae6ce4faab31726b6ed1385e582e19c1ba7d91015b60405180910390a25050565b6001600160a01b03918216600090815260016020908152604080832093909416825291909152205490565b61104061140c565b6001600160a01b0381166110885760405162461bcd60e51b815260206004820152600f60248201526e496e76616c6964206164647265737360881b60448201526064016105fe565b600780546001600160a01b0319166001600160a01b0383169081179091556040517f80910f486ec44179623ed755c408902927264bcf6c44b08b8bbd8f6ad283697a90600090a250565b6110da61140c565b6001600160a01b0381166111005760405162461bcd60e51b81526004016105fe90611ba9565b6001600160a01b0381166000908152600d602052604090205460ff16801561116a5760405162461bcd60e51b815260206004820152601860248201527f4163636f756e7420616c7265616479206578636c75646564000000000000000060448201526064016105fe565b6001600160a01b0382166000908152600e602052604090205460115461118f91611487565b6011556001600160a01b0382166000818152600d6020908152604091829020805460ff1916600190811790915582518515158152918201527f0ebf4318915b850f5616a5f8a1a5ae6ce4faab31726b6ed1385e582e19c1ba7d9101611001565b60006001600160a01b0382166112175760405162461bcd60e51b81526004016105fe90611ba9565b506001600160a01b03166000908152600d602052604090205460ff1690565b61123e61140c565b6001600160a01b0381166112865760405162461bcd60e51b815260206004820152600f60248201526e496e76616c6964206164647265737360881b60448201526064016105fe565b600680546001600160a01b0319166001600160a01b0383161790556112ae6202a30042611b44565b6013556040516001600160a01b038216907fd9be0e8e07417e00f2521db636cb53e316fd288f5051f16d2aa2bf0c3938a87690600090a250565b6001600160a01b03831661134a5760405162461bcd60e51b8152602060048201526024808201527f45524332303a20617070726f76652066726f6d20746865207a65726f206164646044820152637265737360e01b60648201526084016105fe565b6001600160a01b0382166113ab5760405162461bcd60e51b815260206004820152602260248201527f45524332303a20617070726f766520746f20746865207a65726f206164647265604482015261737360f01b60648201526084016105fe565b6001600160a01b0383811660008181526001602090815260408083209487168084529482529182902085905590518481527f8c5be1e5ebec7d5bd14f71427d1e84f3dd0314c0f7b2291e5b200ac8c7c3b925910160405180910390a3505050565b6005546001600160a01b031633146114665760405162461bcd60e51b815260206004820181905260248201527f4f776e61626c653a2063616c6c6572206973206e6f7420746865206f776e657260448201526064016105fe565b565b60006114748284611b57565b9392505050565b60006114748284611b6e565b60006114748284611b44565b6001600160a01b0383166000818152600f6020908152604080832081518083018352868152428185018181528354600180820186558589529787902093516002909102909301928355519190950155815187815292830186905282820193909352519192917fd6822a0e90ec13780d19f97be90a3bb74627ab42b26a3df64d69359a01352e2b9181900360600190a250505050565b6000611534848461100d565b9050600019811461159c578181101561158f5760405162461bcd60e51b815260206004820152601d60248201527f45524332303a20696e73756666696369656e7420616c6c6f77616e636500000060448201526064016105fe565b61159c84848484036112e8565b50505050565b6001600160a01b0383166115f85760405162461bcd60e51b815260206004820152601a60248201527f5472616e736665722066726f6d207a65726f206164647265737300000000000060448201526064016105fe565b6001600160a01b03821661164e5760405162461bcd60e51b815260206004820152601860248201527f5472616e7366657220746f207a65726f2061646472657373000000000000000060448201526064016105fe565b6001600160a01b0383166000908152600d602052604081205460ff1615611676575080611698565b600b5461168b670de0b6b3a764000084611b57565b6116959190611b6e565b90505b6001600160a01b0384166000908152600e60205260409020548111156116f75760405162461bcd60e51b8152602060048201526014602482015273496e73756666696369656e742062616c616e636560601b60448201526064016105fe565b6001600160a01b0384166000908152600e60205260408120805483929061171f908490611b31565b90915550506001600160a01b0383166000908152600e60205260408120805483929061174c908490611b44565b90915550506001600160a01b0384166000908152600d602052604090205460ff16801561179257506001600160a01b0383166000908152600d602052604090205460ff16155b156117b45780601160008282546117a99190611b31565b909155506118129050565b6001600160a01b0384166000908152600d602052604090205460ff161580156117f557506001600160a01b0383166000908152600d602052604090205460ff165b1561181257806011600082825461180c9190611b44565b90915550505b6001600160a01b0384166000908152600d602052604081205460ff1661185857600b54670de0b6b3a7640000906118499084611b57565b6118539190611b6e565b61185a565b825b6001600160a01b0385166000908152600d60205260408120549192509060ff166118a457600b54670de0b6b3a7640000906118959085611b57565b61189f9190611b6e565b6118a6565b835b9050846001600160a01b0316866001600160a01b03167fddf252ad1be2c89b69c2b068fc378daa952ba7f163c4a11628f55a4df523b3ef866040516118ed91815260200190565b60405180910390a3505050505050565b600580546001600160a01b038381166001600160a01b0319831681179093556040519116919082907f8be0079c531659141344cd1fd0a4f28419497f9722a3daafe3b4186f6b6457e090600090a35050565b60006114748284611b31565b600060208083528351808285015260005b818110156119885785810183015185820160400152820161196c565b506000604082860101526040601f19601f8301168501019250505092915050565b80356001600160a01b03811681146119c057600080fd5b919050565b600080604083850312156119d857600080fd5b6119e1836119a9565b946020939093013593505050565b600060208284031215611a0157600080fd5b611474826119a9565b600080600060608486031215611a1f57600080fd5b611a28846119a9565b9250611a36602085016119a9565b9150604084013590509250925092565b600060208284031215611a5857600080fd5b5035919050565b602080825282518282018190526000919060409081850190868401855b82811015611aa157815180518552860151868501529284019290850190600101611a7c565b5091979650505050505050565b60008060408385031215611ac157600080fd5b611aca836119a9565b9150611ad8602084016119a9565b90509250929050565b600181811c90821680611af557607f821691505b602082108103611b1557634e487b7160e01b600052602260045260246000fd5b50919050565b634e487b7160e01b600052601160045260246000fd5b8181038181111561059e5761059e611b1b565b8082018082111561059e5761059e611b1b565b808202811582820484141761059e5761059e611b1b565b600082611b8b57634e487b7160e01b600052601260045260246000fd5b500490565b600060018201611ba257611ba2611b1b565b5060010190565b60208082526018908201527f5a65726f2061646472657373206e6f7420616c6c6f776564000000000000000060408201526060019056fea2646970667358221220786934527518883a91c3e6707c139dfbeb56b3d41079347821d85127a433662c64736f6c63430008140033",
  "linkReferences": {},
  "deployedLinkReferences": {}
}