{
  "_format": "hh-sol-artifact-1",
  "contractName": "AdminControl",
  "sourceName": "contracts/governance/AdminControl.sol",
  "abi": [
    {
      "inputs": [
        {
          "internalType": "address",
          "name": "initialAdmin",
          "type": "address"
        },
        {
          "internalType": "address",
          "name": "feeCollector",
          "type": "address"
        },
        {
          "internalType": "address",
          "name": "rewardsVault",
          "type": "address"
        }
      ],
      "stateMutability": "nonpayable",
      "type": "constructor"
    },
    {
      "anonymous": false,
      "inputs": [
        {
          "indexed": true,
          "internalType": "bytes32",
          "name": "role",
          "type": "bytes32"
        },
        {
          "indexed": true,
          "internalType": "address",
          "name": "account",
          "type": "address"
        },
        {
          "indexed": true,
          "internalType": "address",
          "name": "sender",
          "type": "address"
        }
      ],
      "name": "AdminRoleGranted",
      "type": "event"
    },
    {
      "anonymous": false,
      "inputs": [
        {
          "indexed": true,
          "internalType": "bytes32",
          "name": "role",
          "type": "bytes32"
        },
        {
          "indexed": true,
          "internalType": "address",
          "name": "account",
          "type": "address"
        },
        {
          "indexed": true,
          "internalType": "address",
          "name": "sender",
          "type": "address"
        }
      ],
      "name": "AdminRoleRevoked",
      "type": "event"
    },
    {
      "anonymous": false,
      "inputs": [
        {
          "indexed": true,
          "internalType": "address",
          "name": "user",
          "type": "address"
        },
        {
          "indexed": false,
          "internalType": "uint256",
          "name": "oldScore",
          "type": "uint256"
        },
        {
          "indexed": false,
          "internalType": "uint256",
          "name": "newScore",
          "type": "uint256"
        }
      ],
      "name": "CommunityScoreUpdated",
      "type": "event"
    },
    {
      "anonymous": false,
      "inputs": [
        {
          "indexed": false,
          "internalType": "uint256",
          "name": "oldBaseFee",
          "type": "uint256"
        },
        {
          "indexed": false,
          "internalType": "uint256",
          "name": "newBaseFee",
          "type": "uint256"
        },
        {
          "indexed": false,
          "internalType": "uint256",
          "name": "oldMaxFee",
          "type": "uint256"
        },
        {
          "indexed": false,
          "internalType": "uint256",
          "name": "newMaxFee",
          "type": "uint256"
        },
        {
          "indexed": true,
          "internalType": "address",
          "name": "admin",
          "type": "address"
        }
      ],
      "name": "FeeConfigUpdated",
      "type": "event"
    },
    {
      "anonymous": false,
      "inputs": [
        {
          "indexed": true,
          "internalType": "address",
          "name": "account",
          "type": "address"
        },
        {
          "indexed": false,
          "internalType": "bool",
          "name": "approved",
          "type": "bool"
        }
      ],
      "name": "KYCStatusUpdated",
      "type": "event"
    },
    {
      "anonymous": false,
      "inputs": [
        {
          "indexed": false,
          "internalType": "address",
          "name": "account",
          "type": "address"
        }
      ],
      "name": "Paused",
      "type": "event"
    },
    {
      "anonymous": false,
      "inputs": [
        {
          "indexed": false,
          "internalType": "uint256",
          "name": "oldBaseRate",
          "type": "uint256"
        },
        {
          "indexed": false,
          "internalType": "uint256",
          "name": "newBaseRate",
          "type": "uint256"
        },
        {
          "indexed": false,
          "internalType": "uint256",
          "name": "oldMultiplier",
          "type": "uint256"
        },
        {
          "indexed": false,
          "internalType": "uint256",
          "name": "newMultiplier",
          "type": "uint256"
        },
        {
          "indexed": true,
          "internalType": "address",
          "name": "admin",
          "type": "address"
        }
      ],
      "name": "RewardParametersUpdated",
      "type": "event"
    },
    {
      "anonymous": false,
      "inputs": [
        {
          "indexed": true,
          "internalType": "bytes32",
          "name": "role",
          "type": "bytes32"
        },
        {
          "indexed": true,
          "internalType": "bytes32",
          "name": "previousAdminRole",
          "type": "bytes32"
        },
        {
          "indexed": true,
          "internalType": "bytes32",
          "name": "newAdminRole",
          "type": "bytes32"
        }
      ],
      "name": "RoleAdminChanged",
      "type": "event"
    },
    {
      "anonymous": false,
      "inputs": [
        {
          "indexed": true,
          "internalType": "bytes32",
          "name": "role",
          "type": "bytes32"
        },
        {
          "indexed": true,
          "internalType": "address",
          "name": "account",
          "type": "address"
        },
        {
          "indexed": true,
          "internalType": "address",
          "name": "sender",
          "type": "address"
        }
      ],
      "name": "RoleGranted",
      "type": "event"
    },
    {
      "anonymous": false,
      "inputs": [
        {
          "indexed": true,
          "internalType": "bytes32",
          "name": "role",
          "type": "bytes32"
        },
        {
          "indexed": true,
          "internalType": "address",
          "name": "account",
          "type": "address"
        },
        {
          "indexed": true,
          "internalType": "address",
          "name": "sender",
          "type": "address"
        }
      ],
      "name": "RoleRevoked",
      "type": "event"
    },
    {
      "anonymous": false,
      "inputs": [
        {
          "indexed": false,
          "internalType": "address",
          "name": "account",
          "type": "address"
        }
      ],
      "name": "Unpaused",
      "type": "event"
    },
    {
      "inputs": [],
      "name": "BASIS_POINTS",
      "outputs": [
        {
          "internalType": "uint256",
          "name": "",
          "type": "uint256"
        }
      ],
      "stateMutability": "view",
      "type": "function"
    },
    {
      "inputs": [],
      "name": "DEFAULT_ADMIN_ROLE",
      "outputs": [
        {
          "internalType": "bytes32",
          "name": "",
          "type": "bytes32"
        }
      ],
      "stateMutability": "view",
      "type": "function"
    },
    {
      "inputs": [],
      "name": "KYC_ROLE",
      "outputs": [
        {
          "internalType": "bytes32",
          "name": "",
          "type": "bytes32"
        }
      ],
      "stateMutability": "view",
      "type": "function"
    },
    {
      "inputs": [],
      "name": "NFT_PROPERTY_MANAGER_ROLE",
      "outputs": [
        {
          "internalType": "bytes32",
          "name": "",
          "type": "bytes32"
        }
      ],
      "stateMutability": "view",
      "type": "function"
    },
    {
      "inputs": [],
      "name": "PROTOCOL_PARAM_MANAGER_ROLE",
      "outputs": [
        {
          "internalType": "bytes32",
          "name": "",
          "type": "bytes32"
        }
      ],
      "stateMutability": "view",
      "type": "function"
    },
    {
      "inputs": [],
      "name": "REWARD_MANAGER_ROLE",
      "outputs": [
        {
          "internalType": "bytes32",
          "name": "",
          "type": "bytes32"
        }
      ],
      "stateMutability": "view",
      "type": "function"
    },
    {
      "inputs": [
        {
          "internalType": "address[]",
          "name": "accounts",
          "type": "address[]"
        },
        {
          "internalType": "bool",
          "name": "approved",
          "type": "bool"
        }
      ],
      "name": "batchApproveKYC",
      "outputs": [],
      "stateMutability": "nonpayable",
      "type": "function"
    },
    {
      "inputs": [
        {
          "internalType": "address",
          "name": "user",
          "type": "address"
        },
        {
          "internalType": "uint256",
          "name": "baseAmount",
          "type": "uint256"
        }
      ],
      "name": "calculateRewards",
      "outputs": [
        {
          "internalType": "uint256",
          "name": "",
          "type": "uint256"
        }
      ],
      "stateMutability": "view",
      "type": "function"
    },
    {
      "inputs": [
        {
          "internalType": "address",
          "name": "",
          "type": "address"
        }
      ],
      "name": "communityScores",
      "outputs": [
        {
          "internalType": "uint256",
          "name": "",
          "type": "uint256"
        }
      ],
      "stateMutability": "view",
      "type": "function"
    },
    {
      "inputs": [
        {
          "internalType": "uint256",
          "name": "newBaseRate",
          "type": "uint256"
        },
        {
          "internalType": "uint256",
          "name": "newMultiplier",
          "type": "uint256"
        },
        {
          "internalType": "uint256",
          "name": "newLeaseBonus",
          "type": "uint256"
        }
      ],
      "name": "configureRewards",
      "outputs": [],
      "stateMutability": "nonpayable",
      "type": "function"
    },
    {
      "inputs": [
        {
          "internalType": "uint256",
          "name": "functionId",
          "type": "uint256"
        },
        {
          "internalType": "bool",
          "name": "paused",
          "type": "bool"
        }
      ],
      "name": "emergencyPauseFunction",
      "outputs": [],
      "stateMutability": "nonpayable",
      "type": "function"
    },
    {
      "inputs": [],
      "name": "feeConfig",
      "outputs": [
        {
          "internalType": "uint256",
          "name": "baseFee",
          "type": "uint256"
        },
        {
          "internalType": "uint256",
          "name": "maxFee",
          "type": "uint256"
        },
        {
          "internalType": "address",
          "name": "feeCollector",
          "type": "address"
        }
      ],
      "stateMutability": "view",
      "type": "function"
    },
    {
      "inputs": [
        {
          "internalType": "uint256",
          "name": "",
          "type": "uint256"
        }
      ],
      "name": "functionPaused",
      "outputs": [
        {
          "internalType": "bool",
          "name": "",
          "type": "bool"
        }
      ],
      "stateMutability": "view",
      "type": "function"
    },
    {
      "inputs": [],
      "name": "getCurrentFee",
      "outputs": [
        {
          "internalType": "uint256",
          "name": "",
          "type": "uint256"
        }
      ],
      "stateMutability": "view",
      "type": "function"
    },
    {
      "inputs": [
        {
          "internalType": "bytes32",
          "name": "role",
          "type": "bytes32"
        }
      ],
      "name": "getRoleAdmin",
      "outputs": [
        {
          "internalType": "bytes32",
          "name": "",
          "type": "bytes32"
        }
      ],
      "stateMutability": "view",
      "type": "function"
    },
    {
      "inputs": [],
      "name": "globalPause",
      "outputs": [],
      "stateMutability": "nonpayable",
      "type": "function"
    },
    {
      "inputs": [],
      "name": "globalUnpause",
      "outputs": [],
      "stateMutability": "nonpayable",
      "type": "function"
    },
    {
      "inputs": [
        {
          "internalType": "bytes32",
          "name": "role",
          "type": "bytes32"
        },
        {
          "internalType": "address",
          "name": "account",
          "type": "address"
        }
      ],
      "name": "grantRole",
      "outputs": [],
      "stateMutability": "nonpayable",
      "type": "function"
    },
    {
      "inputs": [
        {
          "internalType": "bytes32",
          "name": "role",
          "type": "bytes32"
        },
        {
          "internalType": "address",
          "name": "account",
          "type": "address"
        }
      ],
      "name": "hasRole",
      "outputs": [
        {
          "internalType": "bool",
          "name": "",
          "type": "bool"
        }
      ],
      "stateMutability": "view",
      "type": "function"
    },
    {
      "inputs": [
        {
          "internalType": "address",
          "name": "account",
          "type": "address"
        }
      ],
      "name": "isKYCVerified",
      "outputs": [
        {
          "internalType": "bool",
          "name": "",
          "type": "bool"
        }
      ],
      "stateMutability": "view",
      "type": "function"
    },
    {
      "inputs": [],
      "name": "paused",
      "outputs": [
        {
          "internalType": "bool",
          "name": "",
          "type": "bool"
        }
      ],
      "stateMutability": "view",
      "type": "function"
    },
    {
      "inputs": [
        {
          "internalType": "bytes32",
          "name": "role",
          "type": "bytes32"
        },
        {
          "internalType": "address",
          "name": "account",
          "type": "address"
        }
      ],
      "name": "renounceRole",
      "outputs": [],
      "stateMutability": "nonpayable",
      "type": "function"
    },
    {
      "inputs": [
        {
          "internalType": "bytes32",
          "name": "role",
          "type": "bytes32"
        },
        {
          "internalType": "address",
          "name": "account",
          "type": "address"
        }
      ],
      "name": "revokeRole",
      "outputs": [],
      "stateMutability": "nonpayable",
      "type": "function"
    },
    {
      "inputs": [],
      "name": "rewardParams",
      "outputs": [
        {
          "internalType": "uint256",
          "name": "baseRate",
          "type": "uint256"
        },
        {
          "internalType": "uint256",
          "name": "communityMultiplier",
          "type": "uint256"
        },
        {
          "internalType": "uint256",
          "name": "maxLeaseBonus",
          "type": "uint256"
        },
        {
          "internalType": "address",
          "name": "rewardsVault",
          "type": "address"
        }
      ],
      "stateMutability": "view",
      "type": "function"
    },
    {
      "inputs": [
        {
          "internalType": "bytes4",
          "name": "interfaceId",
          "type": "bytes4"
        }
      ],
      "name": "supportsInterface",
      "outputs": [
        {
          "internalType": "bool",
          "name": "",
          "type": "bool"
        }
      ],
      "stateMutability": "view",
      "type": "function"
    },
    {
      "inputs": [
        {
          "internalType": "address",
          "name": "user",
          "type": "address"
        },
        {
          "internalType": "uint256",
          "name": "scoreDelta",
          "type": "uint256"
        },
        {
          "internalType": "bool",
          "name": "isAddition",
          "type": "bool"
        }
      ],
      "name": "updateCommunityScore",
      "outputs": [],
      "stateMutability": "nonpayable",
      "type": "function"
    },
    {
      "inputs": [
        {
          "internalType": "uint256",
          "name": "newBaseFee",
          "type": "uint256"
        },
        {
          "internalType": "address",
          "name": "newCollector",
          "type": "address"
        }
      ],
      "name": "updateFeeConfig",
      "outputs": [],
      "stateMutability": "nonpayable",
      "type": "function"
    }
  ],
  "bytecode": "0x6080346200045157601f62001d3138819003918201601f1916830192916001600160401b03918285118486101762000456578160609285926040978852833981010312620004515762000052826200046c565b9160206200006f85620000678385016200046c565b93016200046c565b6001805460ff1990811682556001600160a01b03948516959094909286156200040d578116968715620003c9571680156200038557600094858052858552888620828752855260ff89872054161562000350575b7fd5bbaff5d3a5605ab3e541c2459b13fa60df5ebf29dc3e3edc16397321648650808752868652898720838852865260ff8a88205416156200031a575b507fdb11624602202c396fa347735a55e345a3aeb3e60f8885e1a71f1bf8d5886db7808752868652898720838852865260ff8a8820541615620002e4575b507f0f51adb3f49e4a9bbb17b3783f025995eaf8c24be2c8eefff214bdfda05ef94d808752868652898720838852865260ff8a8820541615620002ae575b507f1d351b91d9c5038d4ed0c7b0e0d03c431f7287309e06182ed1d110f70fcf356492838752868652898720838852865260ff8a882054161562000277575b5050505085519060608201828110828211176200026357875260c8825284876103e8938486820152015260c86002558160035560018060a01b0319948560045416176004558651936080850191858310908311176200024f575086528083526107d0809284015284606061012c948589820152015260055560065560075560085416176008555161188f9081620004828239f35b634e487b7160e01b81526041600452602490fd5b634e487b7160e01b85526041600452602485fd5b838752868652898720838852865289872091825416179055339160008051602062001d118339815191528680a438808080620001bb565b8087528686528987208388528652898720848382541617905582339160008051602062001d118339815191528980a4386200017c565b8087528686528987208388528652898720848382541617905582339160008051602062001d118339815191528980a4386200013e565b8087528686528987208388528652898720848382541617905582339160008051602062001d118339815191528980a43862000100565b8580528585528886208287528552888620838282541617905533828760008051602062001d118339815191528180a4620000c3565b875162461bcd60e51b815260048101859052601560248201527f496e76616c69642061646d696e206164647265737300000000000000000000006044820152606490fd5b885162461bcd60e51b815260048101869052601d60248201527f496e76616c69642072657761726473207661756c7420616464726573730000006044820152606490fd5b885162461bcd60e51b815260048101869052601d60248201527f496e76616c69642066656520636f6c6c6563746f7220616464726573730000006044820152606490fd5b600080fd5b634e487b7160e01b600052604160045260246000fd5b51906001600160a01b0382168203620004515756fe608060408181526004918236101561001657600080fd5b600092833560e01c91826301ffc9a714610fb7575081630d35d27514610f7c5781631e5eb1d014610f44578163248a9ca314610f1a5781632f2ff15d14610e7157816335595ee514610e3657816336568abe14610da45781634a277ec514610adb57816354b7636e14610aa15781635c975abb14610a7d5781635dda3e01146107945781636d750d801461075957816373c250c61461072157816376346914146106e057816388f0bc73146105b757816391d1485414610571578163a217fddf14610556578163a33b2d3f1461043a578163beb8314c1461039f578163ce19057814610309578163cf23913b146102c9578163d547741f1461028b578163e1f1c4a71461026e578163ee5b8e0e14610241578163f12d54d8146101a957508063f70d93621461018b5763f9c8dec31461014e57600080fd5b34610187578160031936011261018757602090517fdb11624602202c396fa347735a55e345a3aeb3e60f8885e1a71f1bf8d5886db78152f35b5080fd5b50346101875781600319360112610187576020906002549051908152f35b90503461023d578260031936011261023d576101c3611233565b6001549060ff821661020757507f62e78cea01bee320cd4e420270b5ea74000d11b0c9f74754ebdbfc544b05a25891600160209260ff19161760015551338152a180f35b606490602084519162461bcd60e51b8352820152601060248201526f14185d5cd8589b194e881c185d5cd95960821b6044820152fd5b8280fd5b90503461023d57602036600319011261023d578160209360ff92358152600c855220541690519015158152f35b505034610187578160031936011261018757602090516127108152f35b9190503461023d578060031936011261023d576102c691356102c160016102b061100a565b938387528660205286200154611359565b6114db565b80f35b9190503461023d578060031936011261023d576102e461103b565b916102ed611233565b358352600c60205282209060ff80198354169115151617905580f35b90503461023d578260031936011261023d57610323611233565b6001549060ff821615610365575060ff1916600155513381527f5db9ee0a495bf2e6ff9c91a7834c1ba4fdd244a5e8aa4e537bd38aeae4b073aa90602090a180f35b606490602084519162461bcd60e51b8352820152601460248201527314185d5cd8589b194e881b9bdd081c185d5cd95960621b6044820152fd5b905082346104375782600319360112610437576103ba611025565b6007546001600160a01b039091168252600b6020528382205460065460243594926103fd9290916103f8918181111561042f5750915b60055461154f565b61154f565b9283810293818504149015171561041c57602083612710865191048152f35b634e487b7160e01b825260119052602490fd5b9050916103f0565b80fd5b8391503461018757606036600319011261018757610456611025565b92602435936044359081151582036105525761047061104a565b6001600160a01b0316808552600b6020528285205490939091156104d757506104bc7f7681c9bc4703daadfdfbfae0bd1c828b4619e58101f0e8a5404f70e93c6286639394958261154f565b848652600b602052808387205582519182526020820152a280f35b9480821115610526578103818111610513577f7681c9bc4703daadfdfbfae0bd1c828b4619e58101f0e8a5404f70e93c628663939495506104bc565b634e487b7160e01b855260118652602485fd5b50837f7681c9bc4703daadfdfbfae0bd1c828b4619e58101f0e8a5404f70e93c628663939495506104bc565b8480fd5b50503461018757816003193601126101875751908152602090f35b90503461023d578160031936011261023d578160209360ff9261059261100a565b903582528186528282206001600160a01b039091168252855220549151911615158152f35b839150346101875782600319360112610187578035906105d561100a565b6105dd61104a565b6001600160a01b031691821561069d576003549182821161066857827f7c08ec61bfdc4469c5f8ec2332c513ac1e0980475856efedf21da749334854479495966106629260025497856002556bffffffffffffffffffffffff60a01b825416179055519384933397859094939260609260808301968352602083015260408201520152565b0390a280f35b606490602087519162461bcd60e51b8352820152600f60248201526e45786365656473206d61782066656560881b6044820152fd5b845162461bcd60e51b8152602081840152601d60248201527f496e76616c69642066656520636f6c6c6563746f7220616464726573730000006044820152606490fd5b50503461018757816003193601126101875760809060055490600654906007549060018060a01b036008541692815194855260208501528301526060820152f35b5050346101875760203660031901126101875760209181906001600160a01b03610749611025565b168152600b845220549051908152f35b505034610187578160031936011261018757602090517f0f51adb3f49e4a9bbb17b3783f025995eaf8c24be2c8eefff214bdfda05ef94d8152f35b9190503461023d578060031936011261023d5781359067ffffffffffffffff90818311610552573660238401121561055257828401359182116105525760059260243684861b8301820111610a79576107eb61103b565b917fdb11624602202c396fa347735a55e345a3aeb3e60f8885e1a71f1bf8d5886db796878952602097898952858a20338b52895260ff868b205416156108b0575094958315159550885b878110610840578980f35b80821b83018401356001600160a01b03811691908290036108ac57600191861561089d5761086d816116cd565b505b7f2df1cad2a2659e001c3804c872f69655356013e35c18c2e77a5d568078ab788f8b89518b8152a201610835565b6108a68161174f565b5061086f565b8a80fd5b9083868b8b946108bf33611599565b8351916108cb83611487565b60428352878301936060368637835115610a675760308553835190600191821015610a555790607860218601536041915b8183116109ec575050506109be578361098f6048896109b09660449a99966109806109579776020b1b1b2b9b9a1b7b73a3937b61d1030b1b1b7bab73a1604d1b9b5198858a9687019d8e528251928391603789019101611464565b8401917001034b99036b4b9b9b4b733903937b6329607d1b603784015251809386840190611464565b010360288101855201836114b9565b5196879562461bcd60e51b8752860152519283809286015285850190611464565b601f01601f19168101030190fd5b60648688878188519362461bcd60e51b855284015282015260008051602061183a8339815191526044820152fd5b909192600f81166010811015610a43576f181899199a1a9b1b9c1cb0b131b232b360811b901a610a1c8588611572565b53891c928015610a31576000190191906108fc565b634e487b7160e01b825260118a528882fd5b634e487b7160e01b835260328b528983fd5b634e487b7160e01b8152603289528790fd5b634e487b7160e01b8152603288528690fd5b8680fd5b50503461018757816003193601126101875760209060ff6001541690519015158152f35b5050346101875760203660031901126101875760209181906001600160a01b03610ac9611025565b168152600a8452205415159051908152f35b90503461023d57606036600319011261023d57803560249182359060448035947f0f51adb3f49e4a9bbb17b3783f025995eaf8c24be2c8eefff214bdfda05ef94d808952602090898252888a20338b52825260ff898b20541615610c8e57506008546001600160a01b031615610c57576107d0808711610c25578511610bf4576101f48711610bc35788887fdf3827857cf8ac45829164bd76e2950687437e15ff8543f477ae73691ee013b189896106628a60055495600654948460055582600655600755519384933397859094939260609260808301968352602083015260408201520152565b875162461bcd60e51b815293840152600f908301526e4c6561736520626f6e7573203e352560881b90820152606490fd5b875162461bcd60e51b815293840152600f908301526e4d756c7469706c696572203e32302560881b90820152606490fd5b885162461bcd60e51b8152808601839052600e818501526d426173652072617465203e32302560901b81860152606490fd5b875162461bcd60e51b8152938401526015908301527414995dd85c991cc81d985d5b1d081b9bdd081cd95d605a1b90820152606490fd5b84838a8c8794610c9d33611599565b835191610ca983611487565b60428352888301936060368637835115610a675760308553835190600191821015610a555790607860218601536041915b818311610d5f57505050610d32579261098f60488976020b1b1b2b9b9a1b7b73a3937b61d1030b1b1b7bab73a1604d1b9795610957956109806109b099875198858a9687019d8e528251928391603789019101611464565b60648660008051602061183a833981519152898b89818a519562461bcd60e51b8752860152840152820152fd5b909192600f81166010811015610a43576f181899199a1a9b1b9c1cb0b131b232b360811b901a610d8f8588611572565b53891c928015610a3157600019019190610cda565b83915034610187578260031936011261018757610dbf61100a565b90336001600160a01b03831603610ddb57906102c691356114db565b608490602085519162461bcd60e51b8352820152602f60248201527f416363657373436f6e74726f6c3a2063616e206f6e6c792072656e6f756e636560448201526e103937b632b9903337b91039b2b63360891b6064820152fd5b505034610187578160031936011261018757602090517f1d351b91d9c5038d4ed0c7b0e0d03c431f7287309e06182ed1d110f70fcf35648152f35b90503461023d578160031936011261023d573590610e8d61100a565b9082845283602052610ea460018286200154611359565b82845260208481528185206001600160a01b039093168086529290528084205460ff1615610ed0578380f35b828452836020528084208285526020528320600160ff1982541617905533917f2f8788117e7eff1d82e926ec794901d17c78024a50270940304540a733656f0d8480a43880808380f35b90503461023d57602036600319011261023d57816020936001923581528085522001549051908152f35b90503461023d578260031936011261023d5760609250600254916003549160018060a01b039054169181519384526020840152820152f35b505034610187578160031936011261018757602090517fd5bbaff5d3a5605ab3e541c2459b13fa60df5ebf29dc3e3edc163973216486508152f35b84913461023d57602036600319011261023d573563ffffffff60e01b811680910361023d5760209250637965db0b60e01b8114908115610ff9575b5015158152f35b6301ffc9a760e01b14905083610ff2565b602435906001600160a01b038216820361102057565b600080fd5b600435906001600160a01b038216820361102057565b60243590811515820361102057565b3360009081527f22148425086a9e03bc10035b17c4ce3a4d33dd4e7b3433bccf22ac78a64339b06020908152604080832054909291907fd5bbaff5d3a5605ab3e541c2459b13fa60df5ebf29dc3e3edc163973216486509060ff16156110b05750505050565b6110b933611599565b908451906110c682611487565b6042825283820194606036873782511561121f576030865382519060019182101561121f5790607860218501536041915b8183116111b157505050611181578461115d60486109b093604497985198899161114e8984019876020b1b1b2b9b9a1b7b73a3937b61d1030b1b1b7bab73a1604d1b8a52610957815180928d603789019101611464565b010360288101895201876114b9565b5194859362461bcd60e51b8552600485015251809281602486015285850190611464565b60648386519062461bcd60e51b8252806004830152602482015260008051602061183a8339815191526044820152fd5b909192600f8116601081101561120b576f181899199a1a9b1b9c1cb0b131b232b360811b901a6111e18587611572565b5360041c9280156111f7576000190191906110f7565b634e487b7160e01b82526011600452602482fd5b634e487b7160e01b83526032600452602483fd5b634e487b7160e01b81526032600452602490fd5b3360009081527fad3228b676f7d3cd4284a5443f17f1962b36e491b30a40b2405849e597ba5fb560209081526040808320549092919060ff161561127657505050565b61127f33611599565b83518361128b82611487565b6042825283820194606036873782511561121f576030865382519060019182101561121f5790607860218501536041915b81831161131357505050611181578461115d60486109b093604497985198899161114e8984019876020b1b1b2b9b9a1b7b73a3937b61d1030b1b1b7bab73a1604d1b8a52610957815180928d603789019101611464565b909192600f8116601081101561120b576f181899199a1a9b1b9c1cb0b131b232b360811b901a6113438587611572565b5360041c9280156111f7576000190191906112bc565b60008181526020818152604092838320338452825260ff8484205416156113805750505050565b61138933611599565b9084519061139682611487565b6042825283820194606036873782511561121f576030865382519060019182101561121f5790607860218501536041915b81831161141e57505050611181578461115d60486109b093604497985198899161114e8984019876020b1b1b2b9b9a1b7b73a3937b61d1030b1b1b7bab73a1604d1b8a52610957815180928d603789019101611464565b909192600f8116601081101561120b576f181899199a1a9b1b9c1cb0b131b232b360811b901a61144e8587611572565b5360041c9280156111f7576000190191906113c7565b60005b8381106114775750506000910152565b8181015183820152602001611467565b6080810190811067ffffffffffffffff8211176114a357604052565b634e487b7160e01b600052604160045260246000fd5b90601f8019910116810190811067ffffffffffffffff8211176114a357604052565b9060009180835282602052604083209160018060a01b03169182845260205260ff60408420541661150b57505050565b80835282602052604083208284526020526040832060ff1981541690557ff6391f5c32d9c69d2a47ea670b442974b53935d1edc7fd64eb21e047a839171b339380a4565b9190820180921161155c57565b634e487b7160e01b600052601160045260246000fd5b908151811015611583570160200190565b634e487b7160e01b600052603260045260246000fd5b604051906060820182811067ffffffffffffffff8211176114a357604052602a82526020820160403682378251156115835760309053815160019081101561158357607860218401536029905b8082116116285750506115f65790565b606460405162461bcd60e51b8152602060048201526020602482015260008051602061183a8339815191526044820152fd5b9091600f81166010811015611681576f181899199a1a9b1b9c1cb0b131b232b360811b901a6116578486611572565b5360041c91801561166c5760001901906115e6565b60246000634e487b7160e01b81526011600452fd5b60246000634e487b7160e01b81526032600452fd5b6009548110156115835760096000527f6e1540171b6c0c960b71a7020d9f60077f6af931a8bbf590da0223dacf75c7af0190600090565b6000818152600a602052604081205461174a576009546801000000000000000081101561173657908261172261170b84600160409601600955611696565b819391549060031b91821b91600019901b19161790565b9055600954928152600a6020522055600190565b634e487b7160e01b82526041600452602482fd5b905090565b6000818152600a602052604081205490919080156118345760001990808201818111611820576009549083820191821161180c578082036117d8575b50505060095480156117c4578101906117a382611696565b909182549160031b1b191690556009558152600a6020526040812055600190565b634e487b7160e01b84526031600452602484fd5b6117f66117e761170b93611696565b90549060031b1c928392611696565b90558452600a602052604084205538808061178b565b634e487b7160e01b86526011600452602486fd5b634e487b7160e01b85526011600452602485fd5b50509056fe537472696e67733a20686578206c656e67746820696e73756666696369656e74a26469706673582212205a027ca92eb41f987eea8ba97e1a664301547bcea524bdec91bc6e98ae0a2af464736f6c634300081400332f8788117e7eff1d82e926ec794901d17c78024a50270940304540a733656f0d",
  "linkReferences": {},
  "deployedLinkReferences": {}
}