{
  "_format": "hh-sol-artifact-1",
  "contractName": "BaseRewards",
  "sourceName": "contracts/rewards/BaseRewards.sol",
  "abi": [
    {
      "inputs": [
        {
          "internalType": "address",
          "name": "_stakingToken",
          "type": "address"
        },
        {
          "internalType": "address",
          "name": "_rewardsToken",
          "type": "address"
        },
        {
          "internalType": "address",
          "name": "initialOwner",
          "type": "address"
        }
      ],
      "stateMutability": "nonpayable",
      "type": "constructor"
    },
    {
      "anonymous": false,
      "inputs": [
        {
          "indexed": false,
          "internalType": "uint256",
          "name": "newPeriod",
          "type": "uint256"
        }
      ],
      "name": "MinStakingPeriodUpdated",
      "type": "event"
    },
    {
      "anonymous": false,
      "inputs": [
        {
          "indexed": true,
          "internalType": "address",
          "name": "previousOwner",
          "type": "address"
        },
        {
          "indexed": true,
          "internalType": "address",
          "name": "newOwner",
          "type": "address"
        }
      ],
      "name": "OwnershipTransferred",
      "type": "event"
    },
    {
      "anonymous": false,
      "inputs": [
        {
          "indexed": true,
          "internalType": "address",
          "name": "user",
          "type": "address"
        },
        {
          "indexed": false,
          "internalType": "uint256",
          "name": "amount",
          "type": "uint256"
        }
      ],
      "name": "RewardExpired",
      "type": "event"
    },
    {
      "anonymous": false,
      "inputs": [
        {
          "indexed": true,
          "internalType": "address",
          "name": "user",
          "type": "address"
        },
        {
          "indexed": false,
          "internalType": "uint256",
          "name": "reward",
          "type": "uint256"
        }
      ],
      "name": "RewardPaid",
      "type": "event"
    },
    {
      "anonymous": false,
      "inputs": [
        {
          "indexed": false,
          "internalType": "uint256",
          "name": "oldRate",
          "type": "uint256"
        },
        {
          "indexed": false,
          "internalType": "uint256",
          "name": "newRate",
          "type": "uint256"
        },
        {
          "indexed": true,
          "internalType": "address",
          "name": "admin",
          "type": "address"
        }
      ],
      "name": "RewardRateUpdated",
      "type": "event"
    },
    {
      "anonymous": false,
      "inputs": [
        {
          "indexed": true,
          "internalType": "address",
          "name": "user",
          "type": "address"
        },
        {
          "indexed": false,
          "internalType": "uint256",
          "name": "amount",
          "type": "uint256"
        }
      ],
      "name": "Staked",
      "type": "event"
    },
    {
      "anonymous": false,
      "inputs": [
        {
          "indexed": true,
          "internalType": "address",
          "name": "token",
          "type": "address"
        },
        {
          "indexed": false,
          "internalType": "uint256",
          "name": "amount",
          "type": "uint256"
        },
        {
          "indexed": true,
          "internalType": "address",
          "name": "admin",
          "type": "address"
        }
      ],
      "name": "TokensRescued",
      "type": "event"
    },
    {
      "anonymous": false,
      "inputs": [
        {
          "indexed": true,
          "internalType": "address",
          "name": "user",
          "type": "address"
        },
        {
          "indexed": false,
          "internalType": "uint256",
          "name": "amount",
          "type": "uint256"
        }
      ],
      "name": "Withdrawn",
      "type": "event"
    },
    {
      "inputs": [],
      "name": "BASIS_POINTS",
      "outputs": [
        {
          "internalType": "uint256",
          "name": "",
          "type": "uint256"
        }
      ],
      "stateMutability": "view",
      "type": "function"
    },
    {
      "inputs": [],
      "name": "MAX_CLAIM_PERIOD",
      "outputs": [
        {
          "internalType": "uint256",
          "name": "",
          "type": "uint256"
        }
      ],
      "stateMutability": "view",
      "type": "function"
    },
    {
      "inputs": [],
      "name": "MAX_PERIODS_PROCESSED",
      "outputs": [
        {
          "internalType": "uint256",
          "name": "",
          "type": "uint256"
        }
      ],
      "stateMutability": "view",
      "type": "function"
    },
    {
      "inputs": [],
      "name": "MAX_REWARD_AMOUNT",
      "outputs": [
        {
          "internalType": "uint256",
          "name": "",
          "type": "uint256"
        }
      ],
      "stateMutability": "view",
      "type": "function"
    },
    {
      "inputs": [],
      "name": "MAX_REWARD_RATE",
      "outputs": [
        {
          "internalType": "uint256",
          "name": "",
          "type": "uint256"
        }
      ],
      "stateMutability": "view",
      "type": "function"
    },
    {
      "inputs": [],
      "name": "MAX_STAKING_DAYS",
      "outputs": [
        {
          "internalType": "uint256",
          "name": "",
          "type": "uint256"
        }
      ],
      "stateMutability": "view",
      "type": "function"
    },
    {
      "inputs": [],
      "name": "MIN_STAKING_PERIOD",
      "outputs": [
        {
          "internalType": "uint256",
          "name": "",
          "type": "uint256"
        }
      ],
      "stateMutability": "view",
      "type": "function"
    },
    {
      "inputs": [],
      "name": "RATE_CHANGE_COOLDOWN",
      "outputs": [
        {
          "internalType": "uint256",
          "name": "",
          "type": "uint256"
        }
      ],
      "stateMutability": "view",
      "type": "function"
    },
    {
      "inputs": [
        {
          "internalType": "uint256",
          "name": "stakingAmount",
          "type": "uint256"
        },
        {
          "internalType": "uint256",
          "name": "baseRate",
          "type": "uint256"
        },
        {
          "internalType": "uint256",
          "name": "timeMultiplier",
          "type": "uint256"
        }
      ],
      "name": "_safeCalculateBaseReward",
      "outputs": [
        {
          "internalType": "uint256",
          "name": "result",
          "type": "uint256"
        }
      ],
      "stateMutability": "pure",
      "type": "function"
    },
    {
      "inputs": [],
      "name": "adminControl",
      "outputs": [
        {
          "internalType": "contract IAdminControl",
          "name": "",
          "type": "address"
        }
      ],
      "stateMutability": "view",
      "type": "function"
    },
    {
      "inputs": [
        {
          "internalType": "address",
          "name": "account",
          "type": "address"
        }
      ],
      "name": "balanceOf",
      "outputs": [
        {
          "internalType": "uint256",
          "name": "",
          "type": "uint256"
        }
      ],
      "stateMutability": "view",
      "type": "function"
    },
    {
      "inputs": [
        {
          "internalType": "address",
          "name": "user",
          "type": "address"
        },
        {
          "internalType": "uint256",
          "name": "stakingAmount",
          "type": "uint256"
        },
        {
          "internalType": "uint256",
          "name": "stakingDuration",
          "type": "uint256"
        }
      ],
      "name": "calculateRewards",
      "outputs": [
        {
          "internalType": "uint256",
          "name": "totalReward",
          "type": "uint256"
        }
      ],
      "stateMutability": "view",
      "type": "function"
    },
    {
      "inputs": [],
      "name": "claimReward",
      "outputs": [],
      "stateMutability": "nonpayable",
      "type": "function"
    },
    {
      "inputs": [
        {
          "internalType": "address",
          "name": "account",
          "type": "address"
        }
      ],
      "name": "clearExpiredRewards",
      "outputs": [],
      "stateMutability": "nonpayable",
      "type": "function"
    },
    {
      "inputs": [
        {
          "internalType": "address",
          "name": "account",
          "type": "address"
        }
      ],
      "name": "earned",
      "outputs": [
        {
          "internalType": "uint256",
          "name": "",
          "type": "uint256"
        }
      ],
      "stateMutability": "view",
      "type": "function"
    },
    {
      "inputs": [],
      "name": "lastRateChange",
      "outputs": [
        {
          "internalType": "uint256",
          "name": "",
          "type": "uint256"
        }
      ],
      "stateMutability": "view",
      "type": "function"
    },
    {
      "inputs": [],
      "name": "lastUpdateTime",
      "outputs": [
        {
          "internalType": "uint256",
          "name": "",
          "type": "uint256"
        }
      ],
      "stateMutability": "view",
      "type": "function"
    },
    {
      "inputs": [],
      "name": "minStakingPeriod",
      "outputs": [
        {
          "internalType": "uint256",
          "name": "",
          "type": "uint256"
        }
      ],
      "stateMutability": "view",
      "type": "function"
    },
    {
      "inputs": [],
      "name": "owner",
      "outputs": [
        {
          "internalType": "address",
          "name": "",
          "type": "address"
        }
      ],
      "stateMutability": "view",
      "type": "function"
    },
    {
      "inputs": [],
      "name": "pauseRateChanges",
      "outputs": [],
      "stateMutability": "nonpayable",
      "type": "function"
    },
    {
      "inputs": [],
      "name": "rateChangePaused",
      "outputs": [
        {
          "internalType": "bool",
          "name": "",
          "type": "bool"
        }
      ],
      "stateMutability": "view",
      "type": "function"
    },
    {
      "inputs": [],
      "name": "renounceOwnership",
      "outputs": [],
      "stateMutability": "nonpayable",
      "type": "function"
    },
    {
      "inputs": [
        {
          "internalType": "address",
          "name": "token",
          "type": "address"
        },
        {
          "internalType": "uint256",
          "name": "amount",
          "type": "uint256"
        }
      ],
      "name": "rescueTokens",
      "outputs": [],
      "stateMutability": "nonpayable",
      "type": "function"
    },
    {
      "inputs": [],
      "name": "rewardConfig",
      "outputs": [
        {
          "internalType": "uint256",
          "name": "baseRewardRate",
          "type": "uint256"
        },
        {
          "internalType": "uint256",
          "name": "communityBonusRate",
          "type": "uint256"
        },
        {
          "internalType": "uint256",
          "name": "leaseBonusRate",
          "type": "uint256"
        }
      ],
      "stateMutability": "view",
      "type": "function"
    },
    {
      "inputs": [
        {
          "internalType": "address",
          "name": "",
          "type": "address"
        }
      ],
      "name": "rewardExpirationTimestamps",
      "outputs": [
        {
          "internalType": "uint256",
          "name": "",
          "type": "uint256"
        }
      ],
      "stateMutability": "view",
      "type": "function"
    },
    {
      "inputs": [],
      "name": "rewardPerToken",
      "outputs": [
        {
          "internalType": "uint256",
          "name": "",
          "type": "uint256"
        }
      ],
      "stateMutability": "view",
      "type": "function"
    },
    {
      "inputs": [],
      "name": "rewardPerTokenStored",
      "outputs": [
        {
          "internalType": "uint256",
          "name": "",
          "type": "uint256"
        }
      ],
      "stateMutability": "view",
      "type": "function"
    },
    {
      "inputs": [
        {
          "internalType": "uint256",
          "name": "",
          "type": "uint256"
        }
      ],
      "name": "rewardPeriods",
      "outputs": [
        {
          "internalType": "uint256",
          "name": "rate",
          "type": "uint256"
        },
        {
          "internalType": "uint256",
          "name": "startTime",
          "type": "uint256"
        },
        {
          "internalType": "uint256",
          "name": "endTime",
          "type": "uint256"
        }
      ],
      "stateMutability": "view",
      "type": "function"
    },
    {
      "inputs": [
        {
          "internalType": "address",
          "name": "",
          "type": "address"
        }
      ],
      "name": "rewards",
      "outputs": [
        {
          "internalType": "uint256",
          "name": "",
          "type": "uint256"
        }
      ],
      "stateMutability": "view",
      "type": "function"
    },
    {
      "inputs": [],
      "name": "rewardsToken",
      "outputs": [
        {
          "internalType": "contract ERC20",
          "name": "",
          "type": "address"
        }
      ],
      "stateMutability": "view",
      "type": "function"
    },
    {
      "inputs": [],
      "name": "rewardsTokenUnit",
      "outputs": [
        {
          "internalType": "uint256",
          "name": "",
          "type": "uint256"
        }
      ],
      "stateMutability": "view",
      "type": "function"
    },
    {
      "inputs": [
        {
          "internalType": "uint256",
          "name": "period",
          "type": "uint256"
        }
      ],
      "name": "setMinStakingPeriod",
      "outputs": [],
      "stateMutability": "nonpayable",
      "type": "function"
    },
    {
      "inputs": [
        {
          "internalType": "uint256",
          "name": "_rewardRate",
          "type": "uint256"
        }
      ],
      "name": "setRewardRate",
      "outputs": [],
      "stateMutability": "nonpayable",
      "type": "function"
    },
    {
      "inputs": [
        {
          "internalType": "uint256",
          "name": "amount",
          "type": "uint256"
        }
      ],
      "name": "stake",
      "outputs": [],
      "stateMutability": "nonpayable",
      "type": "function"
    },
    {
      "inputs": [],
      "name": "stakingToken",
      "outputs": [
        {
          "internalType": "contract ERC20",
          "name": "",
          "type": "address"
        }
      ],
      "stateMutability": "view",
      "type": "function"
    },
    {
      "inputs": [],
      "name": "stakingTokenUnit",
      "outputs": [
        {
          "internalType": "uint256",
          "name": "",
          "type": "uint256"
        }
      ],
      "stateMutability": "view",
      "type": "function"
    },
    {
      "inputs": [],
      "name": "totalSupply",
      "outputs": [
        {
          "internalType": "uint256",
          "name": "",
          "type": "uint256"
        }
      ],
      "stateMutability": "view",
      "type": "function"
    },
    {
      "inputs": [
        {
          "internalType": "address",
          "name": "newOwner",
          "type": "address"
        }
      ],
      "name": "transferOwnership",
      "outputs": [],
      "stateMutability": "nonpayable",
      "type": "function"
    },
    {
      "inputs": [],
      "name": "unpauseRateChanges",
      "outputs": [],
      "stateMutability": "nonpayable",
      "type": "function"
    },
    {
      "inputs": [
        {
          "internalType": "address",
          "name": "",
          "type": "address"
        }
      ],
      "name": "userRewardPerTokenPaid",
      "outputs": [
        {
          "internalType": "uint256",
          "name": "",
          "type": "uint256"
        }
      ],
      "stateMutability": "view",
      "type": "function"
    },
    {
      "inputs": [
        {
          "internalType": "uint256",
          "name": "amount",
          "type": "uint256"
        }
      ],
      "name": "withdraw",
      "outputs": [],
      "stateMutability": "nonpayable",
      "type": "function"
    }
  ],
  "bytecode": "0x610100604090808252346200029f576060816200226d8038038091620000268285620002a4565b8339810103126200029f576200003c81620002de565b6020620000588462000050838601620002de565b9401620002de565b92620000643362000333565b6001805562093a806012556001600160a01b039283169081156200025b578316801562000217578160c05260e0526000855190838260048163313ce56760e01b968782525afa909181620001f3575b50620001de5750670de0b6b3a7640000915b808460e0511692600488518095819382525afa918291600093620001a8575b5050620001935750670de0b6b3a7640000905b60805260a0528116801515908162000187575b5062000175575b5051611ef290816200037b82396080518181816115a70152611bb7015260a0518181816106bb0152611cc1015260c051818181610a4d015281816111070152818161136501526116e2015260e0518181816105ef015281816107540152610a140152f35b620001809062000333565b3862000111565b9050331415386200010a565b60ff620001a191166200030e565b90620000f7565b620001cd929350803d10620001d6575b620001c48183620002a4565b810190620002f3565b903880620000e4565b503d620001b8565b60ff620001ec91166200030e565b91620000c5565b6200020f919250843d8611620001d657620001c48183620002a4565b9038620000b3565b855162461bcd60e51b815260048101849052601d60248201527f496e76616c6964207265776172647320746f6b656e20616464726573730000006044820152606490fd5b855162461bcd60e51b815260048101849052601d60248201527f496e76616c6964207374616b696e6720746f6b656e20616464726573730000006044820152606490fd5b600080fd5b601f909101601f19168101906001600160401b03821190821017620002c857604052565b634e487b7160e01b600052604160045260246000fd5b51906001600160a01b03821682036200029f57565b908160209103126200029f575160ff811681036200029f5790565b604d81116200031d57600a0a90565b634e487b7160e01b600052601160045260246000fd5b600080546001600160a01b039283166001600160a01b03198216811783559216907f8be0079c531659141344cd1fd0a4f28419497f9722a3daafe3b4186f6b6457e09080a356fe6040608081526004908136101561001557600080fd5b600091823560e01c80628cc2621461191d57806305cb614114611900578063069c34f6146118e15780630700037d146118a957806313f522351461188057806318160ddd146118615780632e1a7d4d1461162057806330568c8c1461160257806342364b4f146115ca57806348e0dc121461158f5780634e94c2851461155d57806353809b57146114a3578063539f1f3414611487578063555d3e631461145e5780635737619814611330578063633ebde91461120a5780636eaa7ba2146111ec57806370a08231146111b4578063715018a61461115a578063718dc3c31461113657806372f702f3146110f25780638252097d146110a057806388ee6a43146110535780638b8763471461101b5780638da5cb5b14610ff35780639e447fc614610d6b578063a04f6b4b14610d43578063a694fc3a146109b3578063b88a802f146106de578063be0eac0c146106a3578063c743dabb14610685578063c8f33c9114610666578063c9d3d16d14610642578063cd3daf9d1461061e578063d1af0c7d146105da578063d72b08c614610330578063da71ae7914610311578063df136d65146102f2578063e1f1c4a7146102d1578063ef0e7417146102a85763f2fde38b146101e357600080fd5b346102a45760203660031901126102a4576101fc611943565b906102056119af565b6001600160a01b0391821692831561025257505082546001600160a01b0319811683178455167f8be0079c531659141344cd1fd0a4f28419497f9722a3daafe3b4186f6b6457e08380a380f35b906020608492519162461bcd60e51b8352820152602660248201527f4f776e61626c653a206e6577206f776e657220697320746865207a65726f206160448201526564647265737360d01b6064820152fd5b8280fd5b83346102ce57806003193601126102ce576102c16119af565b60ff19600d5416600d5580f35b80fd5b5050346102ee57816003193601126102ee57602090516127108152f35b5080fd5b5050346102ee57816003193601126102ee576020906007549051908152f35b5050346102ee57816003193601126102ee57602090600c549051908152f35b5082346102ce5760603660031901126102ce5761034b611943565b604480359490926024929083356001600160a01b038316156105a257610372811515611d2e565b87156105615760035497881561052057620151809004610e4281116104df57845163633ebde960e01b815288810192835260208381019a909a52604083019190915291908890839081906060010381305afa909182826104ad575b5050610412576064867f42617365207265776172642063616c63756c6174696f6e206f766572666c6f77878a888189519562461bcd60e51b8752860152840152820152fd5b86935085909161042c836104268184611db5565b92611e78565b9281198111610496579061043f91611a07565b908219821161047957509061045391611a07565b906c0c9f2c9cd04674edea40000000808311610471575b5051908152f35b91508361046a565b835162461bcd60e51b8152908190610492908201611d73565b0390fd5b845162461bcd60e51b815280610492818601611d73565b909192508882813d83116104d8575b6104c68183611a5c565b810103126102ce5750519088806103cd565b503d6104bc565b845162461bcd60e51b81526020818a01526019818801527f5374616b696e67206475726174696f6e20746f6f206c6f6e670000000000000081890152606490fd5b845162461bcd60e51b81526020818a01526018818801527f42617365207265776172642072617465206e6f7420736574000000000000000081890152606490fd5b835162461bcd60e51b81526020818901526018818701527f496e76616c6964207374616b696e67206475726174696f6e000000000000000081880152606490fd5b835162461bcd60e51b815260208189015260148187015273496e76616c69642075736572206164647265737360601b81880152606490fd5b5050346102ee57816003193601126102ee57517f00000000000000000000000000000000000000000000000000000000000000006001600160a01b03168152602090f35b5050346102ee57816003193601126102ee5760209061063b611bfe565b9051908152f35b5050346102ee57816003193601126102ee5760209060ff600d541690519015158152f35b5050346102ee57816003193601126102ee576020906008549051908152f35b5050346102ee57816003193601126102ee576020905162093a808152f35b5050346102ee57816003193601126102ee57602090517f00000000000000000000000000000000000000000000000000000000000000008152f35b5090346102a457826003193601126102a4576106f8611ae7565b610700611bfe565b806007554260085533610951575b50338352602090600b825280842054421161091057338452600a8252808420928484549485610740575b506001805580f35b5581516370a0823160e01b815230828201527f00000000000000000000000000000000000000000000000000000000000000006001600160a01b0316908481602481855afa9081156109065790869188916108d1575b501061088557825163a9059cbb60e01b815233838201908152602081018790529091859183919082908a90829060400103925af190811561087b57869161084e575b50156108145750907fe2403640ba68fed3a2f88b7557551d1993f84b99bb10ff833f0cf8db0c5e048691519283523392a2388080808481610738565b82606492519162461bcd60e51b8352820152601660248201527514995dd85c99081d1c985b9cd9995c8819985a5b195960521b6044820152fd5b61086e9150843d8611610874575b6108668183611a5c565b810190611a7e565b386107d8565b503d61085c565b83513d88823e3d90fd5b5082608492519162461bcd60e51b8352820152602160248201527f496e73756666696369656e742072657761726420746f6b656e2062616c616e636044820152606560f81b6064820152fd5b809250868092503d83116108ff575b6108ea8183611a5c565b810103126108fb5785905138610796565b8680fd5b503d6108e0565b84513d89823e3d90fd5b5162461bcd60e51b815291820152601b60248201527f52657761726420636c61696d20706572696f6420657870697265640000000000604482015260649150fd5b61095a33611b70565b338552600a60205282852055600960205281842055600f6020528083205460116020528184205562278d0042018042116109a057338452600b602052818420553861070e565b634e487b7160e01b845260118352602484fd5b5090346102a45760209081600319360112610d3f578235926109d3611ae7565b6109db611bfe565b806007554260085533610ce2575b508315610cb05781516370a0823160e01b80825230838301526024916001600160a01b0390868185817f000000000000000000000000000000000000000000000000000000000000000086165afa908115610c3f578991610c83575b5015610c49577f00000000000000000000000000000000000000000000000000000000000000001690845190808252308583015286828581865afa918215610c3f578992610c0c575b5085516323b872dd60e01b8152338682015230858201526044810189905287816064818d885af1908115610c0257889291610ad0918c91610be5575b50611a96565b84875180958193825230898301525afa8015610bdb578890610ba8575b610af79250611ada565b948503610b68575050907f9e71bc8eea02a63969f509818f2dafb9254532904319f9dbda79b67bd34a5f3d91610b2f84600e54611a07565b600e55338552600f8252610b468482872054611a07565b338652600f835281862055601082524281862055519283523392a26001805580f35b60649360199293519362461bcd60e51b85528401528201527f496e636f727265637420616d6f756e74207265636569766564000000000000006044820152fd5b508582813d8311610bd4575b610bbe8183611a5c565b81010312610bd057610af79151610aed565b8780fd5b503d610bb4565b85513d8a823e3d90fd5b610bfc9150843d8611610874576108668183611a5c565b38610aca565b87513d8c823e3d90fd5b9091508681813d8311610c38575b610c248183611a5c565b81010312610c3457519038610a8e565b8880fd5b503d610c1a565b86513d8b823e3d90fd5b845162461bcd60e51b8152808501879052601581850152745265776172647320706f6f6c20697320656d70747960581b6044820152606490fd5b90508681813d8311610ca9575b610c9a8183611a5c565b81010312610c34575138610a45565b503d610c90565b82606492519162461bcd60e51b8352820152600e60248201526d043616e6e6f74207374616b6520360941b6044820152fd5b610ceb33611b70565b338752600a8552838720556009845282862055600f835281852054601184528286205562278d004201804211610d2c57338652600b845282862055386109e9565b634e487b7160e01b865260118252602486fd5b8380fd5b5050346102ee57816003193601126102ee57602090516c0c9f2c9cd04674edea400000008152f35b509190346102ee57602090816003193601126102a4578335610d8b6119af565b610d93611bfe565b6007554260085560ff600d5416610f9c5768056bc75e2d631000008111610f5957600c54620151808101809111610f46574210610f035760065480158015949190610efc576000198101818111610ee957610ded9061195e565b5054945b610eab575b508251610e0281611a2a565b82815281810142815284820190600019825260065468010000000000000000811015610e9857806001610e38920160065561195e565b939093610e86575183555160018301555160029091015542600c55825193845283015291925033917f32191e98bcd46ebeb00f4196390aa79d479294b3b08655329c4d2647030b77da91a280f35b634e487b7160e01b8952888a52602489fd5b634e487b7160e01b895260418a52602489fd5b6000198101908111610ed657610ec260029161195e565b50014281541115610df65742905538610df6565b634e487b7160e01b865260118752602486fd5b634e487b7160e01b875260118852602487fd5b8594610df1565b815162461bcd60e51b8152808601849052601b60248201527f52617465206368616e676520636f6f6c646f776e2061637469766500000000006044820152606490fd5b634e487b7160e01b855260118652602485fd5b815162461bcd60e51b8152808601849052601b60248201527f52657761726420726174652065786365656473206d6178696d756d00000000006044820152606490fd5b815162461bcd60e51b8152808601849052602b60248201527f4369726375697420627265616b6572206163746976653a20726174652063686160448201526a1b99d95cc81c185d5cd95960aa1b6064820152608490fd5b5050346102ee57816003193601126102ee57905490516001600160a01b039091168152602090f35b5050346102ee5760203660031901126102ee5760209181906001600160a01b03611043611943565b1681526009845220549051908152f35b50346102a45760203660031901126102a4577f8114637a99d6dbde6e7e5125969a8ecbe5d143eedc597560c9c79a8cb9a6b5d09160209135906110946119af565b8160125551908152a180f35b508290346102ee5760203660031901126102ee5735906006548210156102ce57506110ca9061195e565b5080546001820154600290920154925190815260208101919091526040810191909152606090f35b5050346102ee57816003193601126102ee57517f00000000000000000000000000000000000000000000000000000000000000006001600160a01b03168152602090f35b5050346102ee57816003193601126102ee576020905168056bc75e2d631000008152f35b83346102ce57806003193601126102ce576111736119af565b80546001600160a01b03198116825581906001600160a01b03167f8be0079c531659141344cd1fd0a4f28419497f9722a3daafe3b4186f6b6457e08280a380f35b5050346102ee5760203660031901126102ee5760209181906001600160a01b036111dc611943565b168152600f845220549051908152f35b5050346102ee57816003193601126102ee5760209051620151808152f35b5082346102ce5760603660031901126102ce57506044356024358235611231811515611d2e565b81156112f95782156112b6579161124e6112539261271094611b3d565b611b3d565b04906c0c9f2c9cd04674edea400000008211611273575060209151908152f35b606490602084519162461bcd60e51b8352820152601d60248201527f526573756c742065786365656473206d6178696d756d207265776172640000006044820152fd5b845162461bcd60e51b8152602081860152601760248201527f496e76616c69642074696d65206d756c7469706c6965720000000000000000006044820152606490fd5b845162461bcd60e51b81526020818601526011602482015270496e76616c69642062617365207261746560781b6044820152606490fd5b5090346102a457806003193601126102a45761134a611943565b90602435926113576119af565b6001600160a01b03928316927f000000000000000000000000000000000000000000000000000000000000000016831461141c57815163a9059cbb60e01b8152339181019182526020828101869052909182908190604001038188875af190811561141257906113cd9186916113fa5750611a96565b519182527ffb475a842bad10d3800b61bd1a92e716051afba979b124b583bd99a2d1d7bfd560203393a380f35b610bfc915060203d8111610874576108668183611a5c565b82513d87823e3d90fd5b6020606492519162461bcd60e51b8352820152601b60248201527f43616e6e6f7420726573637565207374616b696e6720746f6b656e00000000006044820152fd5b5050346102ee57816003193601126102ee5760025490516001600160a01b039091168152602090f35b5050346102ee57816003193601126102ee576020905160648152f35b5090346102a45760203660031901126102a4576114be611943565b6114c6611ae7565b6001600160a01b0316808452600b60205281842054909290421115611526575060207f6424bfe05f4bf0bb8ed07ffc754f2c4ed6ca4ef02134180b34899ab61d998e0291838552600a825280852090858254925551908152a26001805580f35b6020606492519162461bcd60e51b8352820152601260248201527114995dd85c99081b9bdd08195e1c1a5c995960721b6044820152fd5b5082346102ce57806003193601126102ce57506003549054600554925191825260208201526040810191909152606090f35b5050346102ee57816003193601126102ee57602090517f00000000000000000000000000000000000000000000000000000000000000008152f35b5050346102ee5760203660031901126102ee5760209181906001600160a01b036115f2611943565b168152600b845220549051908152f35b5050346102ee57816003193601126102ee576020905162278d008152f35b50346102a457602080600319360112610d3f5781359161163e611ae7565b611646611bfe565b806007554260085533611817575b503385526010825261166c8486205460125490611a07565b42106117d65782156117a157338552600f82528385205483811061175f57836116dd9261169a828694611ada565b338952600f8452878920556116b182600e54611ada565b600e55865163a9059cbb60e01b8152339181019182526020820192909252909283918291604090910190565b0381887f00000000000000000000000000000000000000000000000000000000000000006001600160a01b03165af1908115611755577f7084f5476618d8e60b11ef0d7d3f06914655adb8793e28ff7f018d4c76d505d5939491611747918791610be55750611a96565b519283523392a26001805580f35b84513d87823e3d90fd5b5060649184519162461bcd60e51b8352820152601b60248201527f496e73756666696369656e74207374616b65642062616c616e636500000000006044820152fd5b60649184519162461bcd60e51b83528201526011602482015270043616e6e6f74207769746864726177203607c1b6044820152fd5b60649184519162461bcd60e51b8352820152601e60248201527f4d696e696d756d207374616b696e6720706572696f64206e6f74206d657400006044820152fd5b61182033611b70565b338752600a8452858720556009835284862055600f825283852054601183528486205562278d004201804211610d2c57338652600b83528486205538611654565b5050346102ee57816003193601126102ee57602090600e549051908152f35b83346102ce57806003193601126102ce576118996119af565b600160ff19600d541617600d5580f35b5050346102ee5760203660031901126102ee5760209181906001600160a01b036118d1611943565b168152600a845220549051908152f35b5050346102ee57816003193601126102ee576020906012549051908152f35b5050346102ee57816003193601126102ee5760209051610e428152f35b5050346102ee5760203660031901126102ee5760209061063b61193e611943565b611b70565b600435906001600160a01b038216820361195957565b600080fd5b600654811015611999576003906006600052027ff652222313e28459528d920b65115c16c04f3efc82aaedc97be59f3f377c0d3f0190600090565b634e487b7160e01b600052603260045260246000fd5b6000546001600160a01b031633036119c357565b606460405162461bcd60e51b815260206004820152602060248201527f4f776e61626c653a2063616c6c6572206973206e6f7420746865206f776e65726044820152fd5b91908201809211611a1457565b634e487b7160e01b600052601160045260246000fd5b6060810190811067ffffffffffffffff821117611a4657604052565b634e487b7160e01b600052604160045260246000fd5b90601f8019910116810190811067ffffffffffffffff821117611a4657604052565b90816020910312611959575180151581036119595790565b15611a9d57565b60405162461bcd60e51b8152602060048201526015602482015274151bdad95b881d1c985b9cd9995c8819985a5b1959605a1b6044820152606490fd5b91908203918211611a1457565b600260015414611af8576002600155565b60405162461bcd60e51b815260206004820152601f60248201527f5265656e7472616e637947756172643a207265656e7472616e742063616c6c006044820152606490fd5b81810292918115918404141715611a1457565b8115611b5a570490565b634e487b7160e01b600052601260045260246000fd5b611bec9060018060a01b0316604060008281526011602052611bdc611bb583832054611baf611b9d611bfe565b87865260096020528686205490611ada565b90611b3d565b7f000000000000000000000000000000000000000000000000000000000000000090611b50565b928152600a602052205490611a07565b90565b6000198114611a145760010190565b600e5480158015611d24575b611d1d57600060065491819082600854905b858110611c35575b50505050611bec9150600754611a07565b611c3e8161195e565b506040805191611c4d83611a2a565b80548352600260018201549182602086015201548092840152848211611c7f575b505050611c7a90611bef565b611c1c565b84811115611d1557905b42811015611d0e575b81811115611c6e5785611ce6611cbf611cf195611cb8611cf7989b9c96611ceb96611ada565b9051611b3d565b7f000000000000000000000000000000000000000000000000000000000000000090611b3d565b611b50565b90611a07565b94611bef565b926064841015611d0957388080611c6e565b611c24565b5042611c92565b508390611c89565b5060075490565b5060085415611c0a565b15611d3557565b60405162461bcd60e51b8152602060048201526016602482015275125b9d985b1a59081cdd185ada5b99c8185b5bdd5b9d60521b6044820152606490fd5b60809060208152602160208201527f546f74616c207265776172642063616c63756c6174696f6e206f766572666c6f6040820152607760f81b60608201520190565b60025460405163d636b87f60e01b81526001600160a01b0392831660048201529160209183916024918391165afa908115611e6c57600091611e3b575b508015611e34576004548015611e2c5780600019048311611e1857620f42409202020490565b5050506c0c9f2c9cd04674edea4000000090565b505050600090565b5050600090565b906020823d8211611e64575b81611e5460209383611a5c565b810103126102ce57505138611df2565b3d9150611e47565b6040513d6000823e3d90fd5b6001600160a01b031615611eb6576005548015611e345780600019048211611ea35761271091020490565b50506c0c9f2c9cd04674edea4000000090565b5060009056fea26469706673582212203c8abe96c4518529afd5f048efc1f52034fba68c2a5584d62d948ee32aef381f64736f6c63430008140033",
  "linkReferences": {},
  "deployedLinkReferences": {}
}