{
  "_format": "hh-sol-artifact-1",
  "contractName": "LifeToken",
  "sourceName": "contracts/tokens/LifeToken.sol",
  "abi": [
    {
      "inputs": [
        {
          "internalType": "address",
          "name": "initialMintDestination_",
          "type": "address"
        },
        {
          "internalType": "string",
          "name": "name_",
          "type": "string"
        },
        {
          "internalType": "string",
          "name": "symbol_",
          "type": "string"
        }
      ],
      "stateMutability": "nonpayable",
      "type": "constructor"
    },
    {
      "inputs": [],
      "name": "InvalidShortString",
      "type": "error"
    },
    {
      "inputs": [
        {
          "internalType": "string",
          "name": "str",
          "type": "string"
        }
      ],
      "name": "StringTooLong",
      "type": "error"
    },
    {
      "anonymous": false,
      "inputs": [
        {
          "indexed": true,
          "internalType": "address",
          "name": "owner",
          "type": "address"
        },
        {
          "indexed": true,
          "internalType": "address",
          "name": "spender",
          "type": "address"
        },
        {
          "indexed": false,
          "internalType": "uint256",
          "name": "value",
          "type": "uint256"
        }
      ],
      "name": "Approval",
      "type": "event"
    },
    {
      "anonymous": false,
      "inputs": [
        {
          "indexed": true,
          "internalType": "address",
          "name": "delegator",
          "type": "address"
        },
        {
          "indexed": true,
          "internalType": "address",
          "name": "fromDelegate",
          "type": "address"
        },
        {
          "indexed": true,
          "internalType": "address",
          "name": "toDelegate",
          "type": "address"
        }
      ],
      "name": "DelegateChanged",
      "type": "event"
    },
    {
      "anonymous": false,
      "inputs": [
        {
          "indexed": true,
          "internalType": "address",
          "name": "delegate",
          "type": "address"
        },
        {
          "indexed": false,
          "internalType": "uint256",
          "name": "previousBalance",
          "type": "uint256"
        },
        {
          "indexed": false,
          "internalType": "uint256",
          "name": "newBalance",
          "type": "uint256"
        }
      ],
      "name": "DelegateVotesChanged",
      "type": "event"
    },
    {
      "anonymous": false,
      "inputs": [],
      "name": "EIP712DomainChanged",
      "type": "event"
    },
    {
      "anonymous": false,
      "inputs": [
        {
          "indexed": true,
          "internalType": "address",
          "name": "from",
          "type": "address"
        },
        {
          "indexed": true,
          "internalType": "address",
          "name": "to",
          "type": "address"
        },
        {
          "indexed": false,
          "internalType": "uint256",
          "name": "value",
          "type": "uint256"
        }
      ],
      "name": "Transfer",
      "type": "event"
    },
    {
      "inputs": [],
      "name": "CLOCK_MODE",
      "outputs": [
        {
          "internalType": "string",
          "name": "",
          "type": "string"
        }
      ],
      "stateMutability": "view",
      "type": "function"
    },
    {
      "inputs": [],
      "name": "DOMAIN_SEPARATOR",
      "outputs": [
        {
          "internalType": "bytes32",
          "name": "",
          "type": "bytes32"
        }
      ],
      "stateMutability": "view",
      "type": "function"
    },
    {
      "inputs": [],
      "name": "MAX_SUPPLY",
      "outputs": [
        {
          "internalType": "uint256",
          "name": "",
          "type": "uint256"
        }
      ],
      "stateMutability": "view",
      "type": "function"
    },
    {
      "inputs": [
        {
          "internalType": "address",
          "name": "owner",
          "type": "address"
        },
        {
          "internalType": "address",
          "name": "spender",
          "type": "address"
        }
      ],
      "name": "allowance",
      "outputs": [
        {
          "internalType": "uint256",
          "name": "",
          "type": "uint256"
        }
      ],
      "stateMutability": "view",
      "type": "function"
    },
    {
      "inputs": [
        {
          "internalType": "address",
          "name": "spender",
          "type": "address"
        },
        {
          "internalType": "uint256",
          "name": "amount",
          "type": "uint256"
        }
      ],
      "name": "approve",
      "outputs": [
        {
          "internalType": "bool",
          "name": "",
          "type": "bool"
        }
      ],
      "stateMutability": "nonpayable",
      "type": "function"
    },
    {
      "inputs": [
        {
          "internalType": "address",
          "name": "account",
          "type": "address"
        }
      ],
      "name": "balanceOf",
      "outputs": [
        {
          "internalType": "uint256",
          "name": "",
          "type": "uint256"
        }
      ],
      "stateMutability": "view",
      "type": "function"
    },
    {
      "inputs": [
        {
          "internalType": "address",
          "name": "account",
          "type": "address"
        },
        {
          "internalType": "uint32",
          "name": "pos",
          "type": "uint32"
        }
      ],
      "name": "checkpoints",
      "outputs": [
        {
          "components": [
            {
              "internalType": "uint32",
              "name": "fromBlock",
              "type": "uint32"
            },
            {
              "internalType": "uint224",
              "name": "votes",
              "type": "uint224"
            }
          ],
          "internalType": "struct ERC20Votes.Checkpoint",
          "name": "",
          "type": "tuple"
        }
      ],
      "stateMutability": "view",
      "type": "function"
    },
    {
      "inputs": [],
      "name": "clock",
      "outputs": [
        {
          "internalType": "uint48",
          "name": "",
          "type": "uint48"
        }
      ],
      "stateMutability": "view",
      "type": "function"
    },
    {
      "inputs": [],
      "name": "decimals",
      "outputs": [
        {
          "internalType": "uint8",
          "name": "",
          "type": "uint8"
        }
      ],
      "stateMutability": "view",
      "type": "function"
    },
    {
      "inputs": [
        {
          "internalType": "address",
          "name": "spender",
          "type": "address"
        },
        {
          "internalType": "uint256",
          "name": "subtractedValue",
          "type": "uint256"
        }
      ],
      "name": "decreaseAllowance",
      "outputs": [
        {
          "internalType": "bool",
          "name": "",
          "type": "bool"
        }
      ],
      "stateMutability": "nonpayable",
      "type": "function"
    },
    {
      "inputs": [
        {
          "internalType": "address",
          "name": "delegatee",
          "type": "address"
        }
      ],
      "name": "delegate",
      "outputs": [],
      "stateMutability": "nonpayable",
      "type": "function"
    },
    {
      "inputs": [
        {
          "internalType": "address",
          "name": "delegatee",
          "type": "address"
        },
        {
          "internalType": "uint256",
          "name": "nonce",
          "type": "uint256"
        },
        {
          "internalType": "uint256",
          "name": "expiry",
          "type": "uint256"
        },
        {
          "internalType": "uint8",
          "name": "v",
          "type": "uint8"
        },
        {
          "internalType": "bytes32",
          "name": "r",
          "type": "bytes32"
        },
        {
          "internalType": "bytes32",
          "name": "s",
          "type": "bytes32"
        }
      ],
      "name": "delegateBySig",
      "outputs": [],
      "stateMutability": "nonpayable",
      "type": "function"
    },
    {
      "inputs": [
        {
          "internalType": "address",
          "name": "account",
          "type": "address"
        }
      ],
      "name": "delegates",
      "outputs": [
        {
          "internalType": "address",
          "name": "",
          "type": "address"
        }
      ],
      "stateMutability": "view",
      "type": "function"
    },
    {
      "inputs": [],
      "name": "eip712Domain",
      "outputs": [
        {
          "internalType": "bytes1",
          "name": "fields",
          "type": "bytes1"
        },
        {
          "internalType": "string",
          "name": "name",
          "type": "string"
        },
        {
          "internalType": "string",
          "name": "version",
          "type": "string"
        },
        {
          "internalType": "uint256",
          "name": "chainId",
          "type": "uint256"
        },
        {
          "internalType": "address",
          "name": "verifyingContract",
          "type": "address"
        },
        {
          "internalType": "bytes32",
          "name": "salt",
          "type": "bytes32"
        },
        {
          "internalType": "uint256[]",
          "name": "extensions",
          "type": "uint256[]"
        }
      ],
      "stateMutability": "view",
      "type": "function"
    },
    {
      "inputs": [
        {
          "internalType": "uint256",
          "name": "timepoint",
          "type": "uint256"
        }
      ],
      "name": "getPastTotalSupply",
      "outputs": [
        {
          "internalType": "uint256",
          "name": "",
          "type": "uint256"
        }
      ],
      "stateMutability": "view",
      "type": "function"
    },
    {
      "inputs": [
        {
          "internalType": "address",
          "name": "account",
          "type": "address"
        },
        {
          "internalType": "uint256",
          "name": "timepoint",
          "type": "uint256"
        }
      ],
      "name": "getPastVotes",
      "outputs": [
        {
          "internalType": "uint256",
          "name": "",
          "type": "uint256"
        }
      ],
      "stateMutability": "view",
      "type": "function"
    },
    {
      "inputs": [
        {
          "internalType": "address",
          "name": "account",
          "type": "address"
        }
      ],
      "name": "getVotes",
      "outputs": [
        {
          "internalType": "uint256",
          "name": "",
          "type": "uint256"
        }
      ],
      "stateMutability": "view",
      "type": "function"
    },
    {
      "inputs": [
        {
          "internalType": "address",
          "name": "spender",
          "type": "address"
        },
        {
          "internalType": "uint256",
          "name": "addedValue",
          "type": "uint256"
        }
      ],
      "name": "increaseAllowance",
      "outputs": [
        {
          "internalType": "bool",
          "name": "",
          "type": "bool"
        }
      ],
      "stateMutability": "nonpayable",
      "type": "function"
    },
    {
      "inputs": [],
      "name": "name",
      "outputs": [
        {
          "internalType": "string",
          "name": "",
          "type": "string"
        }
      ],
      "stateMutability": "view",
      "type": "function"
    },
    {
      "inputs": [
        {
          "internalType": "address",
          "name": "owner",
          "type": "address"
        }
      ],
      "name": "nonces",
      "outputs": [
        {
          "internalType": "uint256",
          "name": "",
          "type": "uint256"
        }
      ],
      "stateMutability": "view",
      "type": "function"
    },
    {
      "inputs": [
        {
          "internalType": "address",
          "name": "account",
          "type": "address"
        }
      ],
      "name": "numCheckpoints",
      "outputs": [
        {
          "internalType": "uint32",
          "name": "",
          "type": "uint32"
        }
      ],
      "stateMutability": "view",
      "type": "function"
    },
    {
      "inputs": [
        {
          "internalType": "address",
          "name": "owner",
          "type": "address"
        },
        {
          "internalType": "address",
          "name": "spender",
          "type": "address"
        },
        {
          "internalType": "uint256",
          "name": "value",
          "type": "uint256"
        },
        {
          "internalType": "uint256",
          "name": "deadline",
          "type": "uint256"
        },
        {
          "internalType": "uint8",
          "name": "v",
          "type": "uint8"
        },
        {
          "internalType": "bytes32",
          "name": "r",
          "type": "bytes32"
        },
        {
          "internalType": "bytes32",
          "name": "s",
          "type": "bytes32"
        }
      ],
      "name": "permit",
      "outputs": [],
      "stateMutability": "nonpayable",
      "type": "function"
    },
    {
      "inputs": [],
      "name": "symbol",
      "outputs": [
        {
          "internalType": "string",
          "name": "",
          "type": "string"
        }
      ],
      "stateMutability": "view",
      "type": "function"
    },
    {
      "inputs": [],
      "name": "totalSupply",
      "outputs": [
        {
          "internalType": "uint256",
          "name": "",
          "type": "uint256"
        }
      ],
      "stateMutability": "view",
      "type": "function"
    },
    {
      "inputs": [
        {
          "internalType": "address",
          "name": "to",
          "type": "address"
        },
        {
          "internalType": "uint256",
          "name": "amount",
          "type": "uint256"
        }
      ],
      "name": "transfer",
      "outputs": [
        {
          "internalType": "bool",
          "name": "",
          "type": "bool"
        }
      ],
      "stateMutability": "nonpayable",
      "type": "function"
    },
    {
      "inputs": [
        {
          "internalType": "address",
          "name": "from",
          "type": "address"
        },
        {
          "internalType": "address",
          "name": "to",
          "type": "address"
        },
        {
          "internalType": "uint256",
          "name": "amount",
          "type": "uint256"
        }
      ],
      "name": "transferFrom",
      "outputs": [
        {
          "internalType": "bool",
          "name": "",
          "type": "bool"
        }
      ],
      "stateMutability": "nonpayable",
      "type": "function"
    }
  ],
  "bytecode": "0x6101608060405234620000dd57620031e180380380916200002082620000f8565b833960608183019112620000dd578151906001600160a01b0382168203620000dd57610180516001600160401b039390848111620000dd57826200006691830162000176565b916101a051948511620000dd576200008b9462000084920162000176565b91620001dc565b6040516120d79081620010ea823960805181611adf015260a05181611b9a015260c05181611aa9015260e05181611b2e01526101005181611b540152610120518161083b015261014051816108640152f35b600080fd5b634e487b7160e01b600052604160045260246000fd5b601f01601f1916610160908101906001600160401b038211908210176200011e57604052565b620000e2565b604081019081106001600160401b038211176200011e57604052565b604051906200014f8262000124565b565b60005b838110620001655750506000910152565b818101518382015260200162000154565b81601f82011215620000dd5780516001600160401b03928382116200011e5760405193601f8301601f19908116603f01168501908111858210176200011e5760405281845260208284010111620000dd57620001d9916020808501910162000151565b90565b909291604051620001ed8162000124565b600194858252602080830193603160f81b855282519760018060401b0389116200011e5762000229896200022360035462000347565b62000384565b82601f8a11600114620002b9579880806200026594936200014f9b9c600093620002ad575b501b916000199060031b1c191617600355620004e8565b6200027082620005db565b610120526200027f83620006eb565b61014052815191012060e052519020610100524660a052620002a06200086a565b6080523060c0526200093c565b8801519250386200024e565b600360005298601f1981167fc2575a0e9e593c00f959f8c92f12db2869c3395a3b0502d05e2516446f71f85b9060005b818110620003315750906200014f9a9b8362000265969594931062000317575b5050811b01600355620004e8565b87015160001960f88460031b161c19169055388062000309565b878d015183559b86019b918401918601620002e9565b90600182811c9216801562000379575b60208310146200036357565b634e487b7160e01b600052602260045260246000fd5b91607f169162000357565b601f811162000391575050565b6000906003825260208220906020601f850160051c83019410620003d2575b601f0160051c01915b828110620003c657505050565b818155600101620003b9565b9092508290620003b0565b601f8111620003ea575050565b6000906004825260208220906020601f850160051c830194106200042b575b601f0160051c01915b8281106200041f57505050565b81815560010162000412565b909250829062000409565b601f811162000443575050565b6000906005825260208220906020601f850160051c8301941062000484575b601f0160051c01915b8281106200047857505050565b8181556001016200046b565b909250829062000462565b601f81116200049c575050565b6000906006825260208220906020601f850160051c83019410620004dd575b601f0160051c01915b828110620004d157505050565b818155600101620004c4565b9092508290620004bb565b80519091906001600160401b0381116200011e5762000514816200050e60045462000347565b620003dd565b602080601f831160011462000553575081929360009262000547575b50508160011b916000199060031b1c191617600455565b01519050388062000530565b6004600052601f198316949091907f8a35acfbc15ff81a39ae7d344fd709f28e8600b4aa8c65c6b64bfe7fe36bd19b926000905b878210620005c2575050836001959610620005a8575b505050811b01600455565b015160001960f88460031b161c191690553880806200059d565b8060018596829496860151815501950193019062000587565b9081516020808210600014620005f957505090620001d990620007fb565b6001600160401b0382116200011e5762000620826200061a60055462000347565b62000436565b80601f831160011462000660575081929360009262000654575b50508160011b916000199060031b1c19161760055560ff90565b0151905038806200063a565b6005600052601f198316949091907f036b6384b5eca791c62761152d0c79bb0604c104a5fb6f4eb0703f3154bb3db0926000905b878210620006d2575050836001959610620006b8575b505050811b0160055560ff90565b015160001960f88460031b161c19169055388080620006aa565b8060018596829496860151815501950193019062000694565b90815160208082106000146200070957505090620001d990620007fb565b6001600160401b0382116200011e5762000730826200072a60065462000347565b6200048f565b80601f831160011462000770575081929360009262000764575b50508160011b916000199060031b1c19161760065560ff90565b0151905038806200074a565b6006600052601f198316949091907ff652222313e28459528d920b65115c16c04f3efc82aaedc97be59f3f377c0d3f926000905b878210620007e2575050836001959610620007c8575b505050811b0160065560ff90565b015160001960f88460031b161c19169055388080620007ba565b80600185968294968601518155019501930190620007a4565b601f8151116200082957602081519101516020821062000819571790565b6000198260200360031b1b161790565b6044604051809263305a27a960e01b8252602060048301526200085c815180928160248601526020868601910162000151565b601f01601f19168101030190fd5b60e051610100516040519060208201927f8b73c3c69bb8fe3d512ecc4cf759cc79239f7b179b0ffacaa9a75d522b39400f8452604083015260608201524660808201523060a082015260a0815260c0810181811060018060401b038211176200011e5760405251902090565b15620008de57565b60405162461bcd60e51b815260206004820152603060248201527f4552433230566f7465733a20746f74616c20737570706c79207269736b73206f60448201526f766572666c6f77696e6720766f74657360801b6064820152608490fd5b6001600160a01b03811690811562000a0d57600254916b1027e72f1f1281308800000080840180941162000a075762000978620009e194600255565b6001600160a01b038316600090815260208190526040902090815401905560007fddf252ad1be2c89b69c2b068fc378daa952ba7f163c4a11628f55a4df523b3ef60405180620009d881906b1027e72f1f12813088000000602083019252565b0390a362000fbb565b600254620009f9906001600160e01b031015620008d6565b62000a0362000b72565b5050565b62000a52565b60405162461bcd60e51b815260206004820152601f60248201527f45524332303a206d696e7420746f20746865207a65726f2061646472657373006044820152606490fd5b634e487b7160e01b600052601160045260246000fd5b604080519192919081016001600160401b038111828210176200011e57604052602081935463ffffffff81168352811c910152565b600b5490680100000000000000008210156200011e576001820180600b5582101562000b0b57600b600052805160209182015190911b63ffffffff191663ffffffff91909116177f0175b7a638427703f0dbe7bb9bbf987a2551717b34e79f33b5b1008d1fa01db990910155565b634e487b7160e01b600052603260045260246000fd5b908154680100000000000000008110156200011e576001810180845581101562000b0b57600092835260209283902082519284015190931b63ffffffff191663ffffffff9290921691909117910155565b600b5490811590811562000cb95762000b8a62000140565b6000815260006020820152925b602084015162000bb7906001600160e01b03165b6001600160e01b031690565b9362000bc385620010b4565b9315908162000c92575b501562000c2a576200014f9062000c1362000be88562000e83565b600b600052917f0175b7a638427703f0dbe7bb9bbf987a2551717b34e79f33b5b1008d1fa01db80190565b9063ffffffff82549181199060201b169116179055565b506200014f62000c5362000c4d62000c424362000eed565b65ffffffffffff1690565b62000f55565b62000c8c62000c628562000e83565b62000c7c62000c7062000140565b63ffffffff9094168452565b6001600160e01b03166020830152565b62000a9d565b5163ffffffff16905063ffffffff62000caf62000c424362000eed565b9116143862000bcd565b600b60005262000cf17f0175b7a638427703f0dbe7bb9bbf987a2551717b34e79f33b5b1008d1fa01db8840162000a68565b62000a68565b9262000b97565b805491821591821562000df85762000d0f62000140565b6000815260006020820152935b602085015162000d35906001600160e01b031662000bab565b9462000d4186620010ce565b9415908162000dd1575b501562000d785762000c136200014f9262000d668662000e83565b92600019019060005260206000200190565b506200014f9062000d9162000c4d62000c424362000eed565b9062000dcb62000da18662000e83565b62000dbb62000daf62000140565b63ffffffff9095168552565b6001600160e01b03166020840152565b62000b21565b5163ffffffff16905063ffffffff62000dee62000c424362000eed565b9116143862000d4b565b62000e1262000ceb60001986018360005260206000200190565b9362000d1c565b805491821591821562000e625762000e3062000140565b6000815260006020820152935b602085015162000e56906001600160e01b031662000bab565b9462000d4186620010b4565b62000e7c62000ceb60001986018360005260206000200190565b9362000e3d565b6001600160e01b039081811162000e98571690565b60405162461bcd60e51b815260206004820152602760248201527f53616665436173743a2076616c756520646f65736e27742066697420696e20326044820152663234206269747360c81b6064820152608490fd5b65ffffffffffff9081811162000f01571690565b60405162461bcd60e51b815260206004820152602660248201527f53616665436173743a2076616c756520646f65736e27742066697420696e203460448201526538206269747360d01b6064820152608490fd5b63ffffffff9081811162000f67571690565b60405162461bcd60e51b815260206004820152602660248201527f53616665436173743a2076616c756520646f65736e27742066697420696e203360448201526532206269747360d01b6064820152608490fd5b60096020527fec8156718a8372b1db44bb411437d0870f3e3790d4a08526d024ce1b0b668f6b546001600160a01b0391821660009081526040812054831692909116908183141580620010ab575b6200101357505050565b816200106c575b505080620010255750565b6001600160a01b0381166000908152600a60205260409020600080516020620031c183398151915290620010599062000e19565b60408051928352602083019190915290a2565b6200109260408284600080516020620031c18339815191529452600a6020522062000cf8565b60408051928352602083019190915290a238806200101a565b50600162001009565b6b1027e72f1f12813088000000810180911162000a075790565b6b1027e72f1f12813087ffffff19810190811162000a07579056fe6080604052600436101561001257600080fd5b60003560e01c806306fdde03146101b7578063095ea7b3146101b257806318160ddd146101ad57806323b872dd146101a8578063313ce567146101a357806332cb6b0c1461019e5780633644e5151461019957806339509351146101945780633a46b1a81461018f5780634bf5d7e91461018a578063587cde1e146101855780635c19a95c146101805780636fcfff451461017b57806370a08231146101765780637ecebe001461017157806384b0196e1461016c5780638e539e8c1461016757806391ddadf41461016257806395d89b411461015d5780639ab24eb014610158578063a457c2d714610153578063a9059cbb1461014e578063c3cda52014610149578063d505accf14610144578063dd62ed3e1461013f5763f1127ed81461013a57600080fd5b610f63565b610f0b565b610dc5565b610c9a565b610c54565b610ba6565b610b44565b610a9d565b610a71565b610918565b610820565b6107e6565b6107ac565b610764565b610740565b610705565b610653565b6104fe565b6104a6565b610483565b61045c565b610440565b610375565b610357565b610326565b610210565b919082519283825260005b8481106101e8575050826000602080949584010152601f8019910116010190565b6020818301810151848301820152016101c7565b90602061020d9281815201906101bc565b90565b346102f5576000806003193601126102f257604051908060035461023381610fea565b808552916001918083169081156102c8575060011461026d575b6102698561025d81870382611093565b604051918291826101fc565b0390f35b9250600383527fc2575a0e9e593c00f959f8c92f12db2869c3395a3b0502d05e2516446f71f85b5b8284106102b057505050810160200161025d8261026961024d565b80546020858701810191909152909301928101610295565b8695506102699693506020925061025d94915060ff191682840152151560051b820101929361024d565b80fd5b600080fd5b600435906001600160a01b03821682036102f557565b602435906001600160a01b03821682036102f557565b346102f55760403660031901126102f55761034c6103426102fa565b602435903361129a565b602060405160018152f35b346102f55760003660031901126102f5576020600254604051908152f35b346102f55760603660031901126102f55761038e6102fa565b610396610310565b6001600160a01b0382166000908152600160209081526040808320338452909152902060443591905492600184016103df575b6103d3935061118c565b60405160018152602090f35b8284106103fb576103f6836103d39503338361129a565b6103c9565b60405162461bcd60e51b815260206004820152601d60248201527f45524332303a20696e73756666696369656e7420616c6c6f77616e63650000006044820152606490fd5b346102f55760003660031901126102f557602060405160128152f35b346102f55760003660031901126102f55760206040516b1027e72f1f128130880000008152f35b346102f55760003660031901126102f557602061049e611aa6565b604051908152f35b346102f55760403660031901126102f5576104bf6102fa565b3360009081526001602090815260408083206001600160a01b038516845290915290205460243581018091116104f95761034c913361129a565b6110b5565b346102f55760403660031901126102f5576105176102fa565b6024359061053665ffffffffffff61052e43611f89565b168310611473565b6001600160a01b03166000908152600a6020526040812080549290918360058111610602575b50905b8382106105ad57505081610586575050602060005b6040516001600160e01b039091168152f35b6105a16105a891602093600019019060005260206000200190565b5460201c90565b610574565b90926105b98185611db9565b90818363ffffffff6105df6105d5848960005260206000200190565b5463ffffffff1690565b1611156105f0575050925b9061055f565b9094506105fd91506110cb565b6105ea565b8061061261061892969396611dce565b906114bf565b908263ffffffff6106336105d5858860005260206000200190565b1611156106435750925b3861055c565b935061064e906110cb565b61063d565b346102f55760003660031901126102f5574365ffffffffffff61067543611f89565b16036106c05761026960405161068a8161103a565b601d81527f6d6f64653d626c6f636b6e756d6265722666726f6d3d64656661756c740000006020820152604051918291826101fc565b60405162461bcd60e51b815260206004820152601d60248201527f4552433230566f7465733a2062726f6b656e20636c6f636b206d6f64650000006044820152606490fd5b346102f55760203660031901126102f55760206001600160a01b03806107296102fa565b166000526009825260406000205416604051908152f35b346102f55760203660031901126102f55761076261075c6102fa565b33611518565b005b346102f55760203660031901126102f5576001600160a01b036107856102fa565b16600052600a602052602061079e604060002054611ff0565b63ffffffff60405191168152f35b346102f55760203660031901126102f5576001600160a01b036107cd6102fa565b1660005260006020526020604060002054604051908152f35b346102f55760203660031901126102f5576001600160a01b036108076102fa565b1660005260076020526020604060002054604051908152f35b346102f5576000806003193601126102f2576108ca9061085f7f0000000000000000000000000000000000000000000000000000000000000000611be6565b6108887f0000000000000000000000000000000000000000000000000000000000000000611cdf565b91604051916108968361105b565b818352604051948594600f60f81b86526108bc60209360e08589015260e08801906101bc565b9086820360408801526101bc565b904660608601523060808601528260a086015284820360c08601528080855193848152019401925b82811061090157505050500390f35b8351855286955093810193928101926001016108f2565b346102f55760203660031901126102f55760043561094765ffffffffffff61093f43611f89565b168210611473565b600b549060008260058111610a0a575b50905b8282106109a7578280610974575060405160008152602090f35b600b6000526020906105a8907f0175b7a638427703f0dbe7bb9bbf987a2551717b34e79f33b5b1008d1fa01db8016105a1565b90916109b38184611db9565b600b600052908263ffffffff6109ea7f0175b7a638427703f0dbe7bb9bbf987a2551717b34e79f33b5b1008d1fa01db985016105d5565b1611156109fa5750915b9061095a565b9250610a05906110cb565b6109f4565b80610612610a1a92959395611dce565b600b600052908263ffffffff610a517f0175b7a638427703f0dbe7bb9bbf987a2551717b34e79f33b5b1008d1fa01db985016105d5565b161115610a615750915b38610957565b9250610a6c906110cb565b610a5b565b346102f55760003660031901126102f5576020610a8d43611f89565b65ffffffffffff60405191168152f35b346102f5576000806003193601126102f2576040519080600454610ac081610fea565b808552916001918083169081156102c85750600114610ae9576102698561025d81870382611093565b9250600483527f8a35acfbc15ff81a39ae7d344fd709f28e8600b4aa8c65c6b64bfe7fe36bd19b5b828410610b2c57505050810160200161025d8261026961024d565b80546020858701810191909152909301928101610b11565b346102f55760203660031901126102f5576001600160a01b03610b656102fa565b16600052600a602052604060002080548015600014610b8c57505060405160008152602090f35b602091610b9d916000190190611423565b5054811c610574565b346102f55760403660031901126102f557610bbf6102fa565b60243590336000526001602052610bec8160406000209060018060a01b0316600052602052604060002090565b5491808310610c01576103d39203903361129a565b60405162461bcd60e51b815260206004820152602560248201527f45524332303a2064656372656173656420616c6c6f77616e63652062656c6f77604482015264207a65726f60d81b6064820152608490fd5b346102f55760403660031901126102f55761034c610c706102fa565b602435903361118c565b6064359060ff821682036102f557565b6084359060ff821682036102f557565b346102f55760c03660031901126102f557610cb36102fa565b60443590602435610cc2610c7a565b92804211610d8057610d52610d7b916107629560405190610d3a82610d2c6020820195898b8860609194939260808201957fe48329057bfd03d55e49b547132e39cffd9c1820ad7b9d4c5307691425d15adf835260018060a01b0316602083015260408201520152565b03601f198101845283611093565b610d4d60a4359360843593519020611bc0565b6118c0565b6001600160a01b03811660009081526007602052604090208054600181019091559092146114cc565b611518565b60405162461bcd60e51b815260206004820152601d60248201527f4552433230566f7465733a207369676e617475726520657870697265640000006044820152606490fd5b346102f55760e03660031901126102f557610dde6102fa565b610de6610310565b6044359060643592610df6610c8a565b93804211610ec657610eae610ec191610d2c61076297610e9b610e348760018060a01b03166000526007602052604060002090815491600183019055565b604080517f6e71edae12b1b97f4d1f60370fef10105fa2faae0126114a169c64845d6126c9602082019081526001600160a01b03808c1693830193909352918b166060820152608081018c905260a081019290925260c082019590955292839060e0820190565b610d4d60c4359360a43593519020611bc0565b6001600160a01b038381169116146113ca565b61129a565b60405162461bcd60e51b815260206004820152601d60248201527f45524332305065726d69743a206578706972656420646561646c696e650000006044820152606490fd5b346102f55760403660031901126102f5576020610f5a610f296102fa565b610f31610310565b6001600160a01b0391821660009081526001855260408082209290931681526020919091522090565b54604051908152f35b346102f55760403660031901126102f557610f7c6102fa565b63ffffffff60243581811681036102f557610fc6610fcc91604094600060208751610fa68161103a565b82815201526001600160a01b03166000908152600a602052859020611423565b50611451565b8251815190921682526020908101516001600160e01b031690820152f35b90600182811c9216801561101a575b602083101461100457565b634e487b7160e01b600052602260045260246000fd5b91607f1691610ff9565b634e487b7160e01b600052604160045260246000fd5b6040810190811067ffffffffffffffff82111761105657604052565b611024565b6020810190811067ffffffffffffffff82111761105657604052565b60c0810190811067ffffffffffffffff82111761105657604052565b90601f8019910116810190811067ffffffffffffffff82111761105657604052565b634e487b7160e01b600052601160045260246000fd5b90600182018092116104f957565b156110e057565b60405162461bcd60e51b815260206004820152602360248201527f45524332303a207472616e7366657220746f20746865207a65726f206164647260448201526265737360e81b6064820152608490fd5b1561113857565b60405162461bcd60e51b815260206004820152602660248201527f45524332303a207472616e7366657220616d6f756e7420657863656564732062604482015265616c616e636560d01b6064820152608490fd5b6001600160a01b03929190838116801561124757611245948316906111b28215156110d9565b6001600160a01b03831660009081526020819052604090208590546111d982821015611131565b036111f68460018060a01b03166000526000602052604060002090565b556001600160a01b0384166000908152602081815260409182902080548801905590518681527fddf252ad1be2c89b69c2b068fc378daa952ba7f163c4a11628f55a4df523b3ef9190a3612055565b565b60405162461bcd60e51b815260206004820152602560248201527f45524332303a207472616e736665722066726f6d20746865207a65726f206164604482015264647265737360d81b6064820152608490fd5b6001600160a01b03808216929190831561137957821693841561132957806113137f8c5be1e5ebec7d5bd14f71427d1e84f3dd0314c0f7b2291e5b200ac8c7c3b925946112fc6113249560018060a01b03166000526001602052604060002090565b9060018060a01b0316600052602052604060002090565b556040519081529081906020820190565b0390a3565b60405162461bcd60e51b815260206004820152602260248201527f45524332303a20617070726f766520746f20746865207a65726f206164647265604482015261737360f01b6064820152608490fd5b60405162461bcd60e51b8152602060048201526024808201527f45524332303a20617070726f76652066726f6d20746865207a65726f206164646044820152637265737360e01b6064820152608490fd5b156113d157565b60405162461bcd60e51b815260206004820152601e60248201527f45524332305065726d69743a20696e76616c6964207369676e617475726500006044820152606490fd5b604051906112458261103a565b805482101561143b5760005260206000200190600090565b634e487b7160e01b600052603260045260246000fd5b9060405161145e8161103a565b602081935463ffffffff81168352811c910152565b1561147a57565b60405162461bcd60e51b815260206004820152601960248201527f4552433230566f7465733a20667574757265206c6f6f6b7570000000000000006044820152606490fd5b919082039182116104f957565b156114d357565b60405162461bcd60e51b815260206004820152601960248201527f4552433230566f7465733a20696e76616c6964206e6f6e6365000000000000006044820152606490fd5b6112459160018060a01b038092166000928184526009602052806040852054168092856020527f3134e8a2e6d97e929a7e54011ea5485d7d196dd5f0ba4d4ef95803e8e3fc257f60408720549660096020526040812094871694856bffffffffffffffffffffffff60a01b82541617905580a45b6001600160a01b0380831693929116808414158061179f575b6115b0575b50505050565b8061161e575b50826115c3575b806115aa565b6001600160a01b03166000908152600a602052604090207fdec2bacdd2f05b59de34da9b523dff8be42e5e38e818c82fdb0bae774387a7249161160591611807565b60408051928352602083019190915290a23880806115bd565b80600052600a6020527fdec2bacdd2f05b59de34da9b523dff8be42e5e38e818c82fdb0bae774387a724604060002080548015918260001461177c57611662611416565b6000815260006020820152915b602083015161168e906001600160e01b03165b6001600160e01b031690565b926116998985612087565b94159081611759575b50156116f7576116ca6116e1926116b886611f20565b92600019019060005260206000200190565b9063ffffffff82549181199060201b169116179055565b604080519182526020820192909252a2386115b6565b506117549061171b61171661170b43611f89565b65ffffffffffff1690565b611ff0565b9061174f61172886611f20565b61173f611733611416565b63ffffffff9095168552565b6001600160e01b03166020840152565b6117a8565b6116e1565b5163ffffffff16905063ffffffff61177361170b43611f89565b911614386116a2565b61179961179460001984018360005260206000200190565b611451565b9161166f565b508215156115a5565b805468010000000000000000811015611056576117ca91600182018155611423565b6117f157815160209283015190921b63ffffffff191663ffffffff92909216919091179055565b634e487b7160e01b600052600060045260246000fd5b9091815491821592836000146118a35761181f611416565b60008152600060208201525b602081015161184d90611846906001600160e01b0316611682565b9687612094565b94159081611880575b501561186c576116ca611245926116b886611f20565b506112459061171b61171661170b43611f89565b5163ffffffff16905063ffffffff61189a61170b43611f89565b91161438611856565b6118bb61179460001983018460005260206000200190565b61182b565b9161020d93916118cf93611a17565b9190916118f7565b600511156118e157565b634e487b7160e01b600052602160045260246000fd5b611900816118d7565b806119085750565b611911816118d7565b6001810361195e5760405162461bcd60e51b815260206004820152601860248201527f45434453413a20696e76616c6964207369676e617475726500000000000000006044820152606490fd5b611967816118d7565b600281036119b45760405162461bcd60e51b815260206004820152601f60248201527f45434453413a20696e76616c6964207369676e6174757265206c656e677468006044820152606490fd5b806119c06003926118d7565b146119c757565b60405162461bcd60e51b815260206004820152602260248201527f45434453413a20696e76616c6964207369676e6174757265202773272076616c604482015261756560f01b6064820152608490fd5b9291907f7fffffffffffffffffffffffffffffff5d576e7357a4501ddfe92f46681b20a08311611a9a5791608094939160ff602094604051948552168484015260408301526060820152600093849182805260015afa15611a8d5781516001600160a01b03811615611a87579190565b50600190565b50604051903d90823e3d90fd5b50505050600090600390565b307f00000000000000000000000000000000000000000000000000000000000000006001600160a01b03161480611b97575b15611b01577f000000000000000000000000000000000000000000000000000000000000000090565b60405160208101907f8b73c3c69bb8fe3d512ecc4cf759cc79239f7b179b0ffacaa9a75d522b39400f82527f000000000000000000000000000000000000000000000000000000000000000060408201527f000000000000000000000000000000000000000000000000000000000000000060608201524660808201523060a082015260a08152611b9181611077565b51902090565b507f00000000000000000000000000000000000000000000000000000000000000004614611ad8565b604290611bcb611aa6565b906040519161190160f01b8352600283015260228201522090565b60ff8114611c245760ff811690601f8211611c125760405191611c088361103a565b8252602082015290565b604051632cd44ac360e21b8152600490fd5b50604051600554816000611c3783610fea565b80835292600190818116908115611cbd5750600114611c5e575b5061020d92500382611093565b6005600090815291507f036b6384b5eca791c62761152d0c79bb0604c104a5fb6f4eb0703f3154bb3db05b848310611ca2575061020d935050810160200138611c51565b81935090816020925483858901015201910190918492611c89565b90506020925061020d94915060ff191682840152151560051b82010138611c51565b60ff8114611d015760ff811690601f8211611c125760405191611c088361103a565b50604051600654816000611d1483610fea565b80835292600190818116908115611cbd5750600114611d3a575061020d92500382611093565b6006600090815291507ff652222313e28459528d920b65115c16c04f3efc82aaedc97be59f3f377c0d3f5b848310611d7e575061020d935050810160200138611c51565b81935090816020925483858901015201910190918492611d65565b8115611da3570490565b634e487b7160e01b600052601260045260246000fd5b90808216911860011c81018091116104f95790565b8015611f085780611ea1611e9a611e90611e86611e7c611e72611e68611e5e600161020d9a6000908b60801c80611efc575b508060401c80611eef575b508060201c80611ee2575b508060101c80611ed5575b508060081c80611ec8575b508060041c80611ebb575b508060021c80611eae575b50821c611ea7575b811c1b611e57818b611d99565b0160011c90565b611e57818a611d99565b611e578189611d99565b611e578188611d99565b611e578187611d99565b611e578186611d99565b611e578185611d99565b8092611d99565b90611f0e565b8101611e4a565b6002915091019038611e42565b6004915091019038611e37565b6008915091019038611e2c565b6010915091019038611e21565b6020915091019038611e16565b6040915091019038611e0b565b91505060809038611e00565b50600090565b9080821015611f1b575090565b905090565b6001600160e01b0390818111611f34571690565b60405162461bcd60e51b815260206004820152602760248201527f53616665436173743a2076616c756520646f65736e27742066697420696e20326044820152663234206269747360c81b6064820152608490fd5b65ffffffffffff90818111611f9c571690565b60405162461bcd60e51b815260206004820152602660248201527f53616665436173743a2076616c756520646f65736e27742066697420696e203460448201526538206269747360d01b6064820152608490fd5b63ffffffff90818111612001571690565b60405162461bcd60e51b815260206004820152602660248201527f53616665436173743a2076616c756520646f65736e27742066697420696e203360448201526532206269747360d01b6064820152608490fd5b6001600160a01b039081166000908152600960205260408082205493831682529020546112459392908216911661158c565b9081039081116104f95790565b9081018091116104f9579056fea2646970667358221220b16d6e1517aa679dd164097677a137b59abff27e07ca251f0de8494c1bdde5e064736f6c63430008140033dec2bacdd2f05b59de34da9b523dff8be42e5e38e818c82fdb0bae774387a724",
  "linkReferences": {},
  "deployedLinkReferences": {}
}