{
  "_format": "hh-sol-artifact-1",
  "contractName": "ManageLifePropertyNFTController",
  "sourceName": "contracts/nft/ManageLifePropertyNFTController.sol",
  "abi": [
    {
      "inputs": [
        {
          "internalType": "contract IAdminControl",
          "name": "_adminControlAddress",
          "type": "address"
        },
        {
          "internalType": "contract IManageLifePropertyNFT",
          "name": "_manageLifePropertiesNftContract",
          "type": "address"
        }
      ],
      "stateMutability": "nonpayable",
      "type": "constructor"
    },
    {
      "inputs": [],
      "name": "InvalidBatchDataInputs",
      "type": "error"
    },
    {
      "inputs": [
        {
          "internalType": "uint256",
          "name": "batchSize",
          "type": "uint256"
        },
        {
          "internalType": "uint256",
          "name": "maxBatchSize",
          "type": "uint256"
        }
      ],
      "name": "InvalidBatchSize",
      "type": "error"
    },
    {
      "inputs": [],
      "name": "NotAdmin",
      "type": "error"
    },
    {
      "inputs": [],
      "name": "NotNftPropertyManager",
      "type": "error"
    },
    {
      "inputs": [],
      "name": "ZeroAddress",
      "type": "error"
    },
    {
      "inputs": [
        {
          "internalType": "address",
          "name": "adminControllerOnNftContract",
          "type": "address"
        },
        {
          "internalType": "address",
          "name": "currentAdminController",
          "type": "address"
        }
      ],
      "name": "newNFTContractHasDifferentAdminController",
      "type": "error"
    },
    {
      "inputs": [
        {
          "internalType": "address",
          "name": "controllerOnNftContract",
          "type": "address"
        }
      ],
      "name": "newNFTContractHasDifferentController",
      "type": "error"
    },
    {
      "anonymous": false,
      "inputs": [
        {
          "indexed": false,
          "internalType": "address",
          "name": "oldAdminController",
          "type": "address"
        },
        {
          "indexed": false,
          "internalType": "address",
          "name": "newAdminController",
          "type": "address"
        }
      ],
      "name": "AdminControllerUpdated",
      "type": "event"
    },
    {
      "anonymous": false,
      "inputs": [
        {
          "indexed": false,
          "internalType": "address",
          "name": "oldPropertyNFTContract",
          "type": "address"
        },
        {
          "indexed": false,
          "internalType": "address",
          "name": "newPropertyNFTContract",
          "type": "address"
        }
      ],
      "name": "ManageLifePropertyNFTContractUpdated",
      "type": "event"
    },
    {
      "anonymous": false,
      "inputs": [
        {
          "indexed": true,
          "internalType": "address",
          "name": "to",
          "type": "address"
        },
        {
          "indexed": false,
          "internalType": "uint256",
          "name": "tokenId",
          "type": "uint256"
        },
        {
          "indexed": true,
          "internalType": "address",
          "name": "caller",
          "type": "address"
        }
      ],
      "name": "PropertyMinted",
      "type": "event"
    },
    {
      "inputs": [],
      "name": "MAX_BATCH_SIZE",
      "outputs": [
        {
          "internalType": "uint256",
          "name": "",
          "type": "uint256"
        }
      ],
      "stateMutability": "view",
      "type": "function"
    },
    {
      "inputs": [],
      "name": "adminController",
      "outputs": [
        {
          "internalType": "contract IAdminControl",
          "name": "",
          "type": "address"
        }
      ],
      "stateMutability": "view",
      "type": "function"
    },
    {
      "inputs": [],
      "name": "manageLifePropertiesNftContract",
      "outputs": [
        {
          "internalType": "contract IManageLifePropertyNFT",
          "name": "",
          "type": "address"
        }
      ],
      "stateMutability": "view",
      "type": "function"
    },
    {
      "inputs": [
        {
          "internalType": "address",
          "name": "to",
          "type": "address"
        },
        {
          "internalType": "bool",
          "name": "deedHeldAtManageLife",
          "type": "bool"
        }
      ],
      "name": "mint",
      "outputs": [
        {
          "internalType": "uint256",
          "name": "",
          "type": "uint256"
        }
      ],
      "stateMutability": "nonpayable",
      "type": "function"
    },
    {
      "inputs": [
        {
          "internalType": "address[]",
          "name": "recipients",
          "type": "address[]"
        },
        {
          "internalType": "bool[]",
          "name": "deedHeldAtManageLife",
          "type": "bool[]"
        }
      ],
      "name": "mintBatch",
      "outputs": [
        {
          "internalType": "uint256[]",
          "name": "",
          "type": "uint256[]"
        }
      ],
      "stateMutability": "nonpayable",
      "type": "function"
    },
    {
      "inputs": [
        {
          "internalType": "contract IAdminControl",
          "name": "newController",
          "type": "address"
        }
      ],
      "name": "setAdminController",
      "outputs": [],
      "stateMutability": "nonpayable",
      "type": "function"
    },
    {
      "inputs": [
        {
          "internalType": "uint256",
          "name": "tokenId",
          "type": "uint256"
        },
        {
          "internalType": "bool",
          "name": "deedHeldAtManageLife",
          "type": "bool"
        }
      ],
      "name": "setDeedHeldAtManageLife",
      "outputs": [],
      "stateMutability": "nonpayable",
      "type": "function"
    },
    {
      "inputs": [
        {
          "internalType": "contract IManageLifePropertyNFT",
          "name": "newPropertyNFTContract",
          "type": "address"
        }
      ],
      "name": "setManageLifePropertyNFTContract",
      "outputs": [],
      "stateMutability": "nonpayable",
      "type": "function"
    }
  ],
  "bytecode": "0x60a0604090808252346200023557818162000fb980380380916200002482856200023a565b83398101031262000235576200003a8162000274565b6020918201516001600160a01b0380821693929091849003620002355760196080528116908115620002245783156200022457600080546001600160a01b0319908116841782558651636b50165d60e11b808252919592919083816004818b5afa9081156200021a578391620001f8575b5084309116036200017e5750865163950c5d0360e01b81529082826004818a5afa928315620001725781936200012e575b505050169080820362000111575050600154161760015551610d0e9081620002ab823960805181818161042701526106ab0152f35b6044925084519163defaa33b60e01b835260048301526024820152fd5b9091809350813d83116200016a575b6200014981836200023a565b810103126200016757506200015e9062000274565b388080620000dc565b80fd5b503d6200013d565b508751903d90823e3d90fd5b838888858094600484518094819382525afa938415620001ee5760249594620001b8575b5050516340eaa3bb60e01b815291166004820152fd5b620001dd929450803d10620001e6575b620001d481836200023a565b81019062000289565b918480620001a2565b503d620001c8565b82513d87823e3d90fd5b620002139150843d8611620001e657620001d481836200023a565b38620000ab565b89513d85823e3d90fd5b845163d92e233d60e01b8152600490fd5b600080fd5b601f909101601f19168101906001600160401b038211908210176200025e57604052565b634e487b7160e01b600052604160045260246000fd5b51906001600160a01b03821682036200023557565b908160209103126200023557516001600160a01b038116810362000235579056fe608060408181526004908136101561001657600080fd5b600092833560e01c9081632097d3fb146109f4575080632d14e7fb1461089b5780632e24c7bb1461071f5780636afb309f146106f6578063950c5d03146106ce578063cfdbf25414610693578063dc32e9f6146103605763e568658f1461007c57600080fd5b3461035c57602080600319360112610358576001600160a01b03928035848116929190839003610354578486541691845163a217fddf60e01b815281818481875afa80156102345782908990610320575b8751632474521560e21b81528581019182523360208301529250829081906040015b0381875afa9081156102345788916102f3575b50156102e45783156102d5578451636b50165d60e11b8082529082818581895afa9081156102cb5789916102ae575b50873091160361023e5750845163950c5d0360e01b815281818481885afa918215610234579087929189926101f6575b505016918083036101c957600180546001600160a01b03198116861790915585516001600160a01b0391881682168152908516602082015287907f7f052eee547c67487327f78efc2a1408325571b994adb845d4d49def631140639080604081015b0390a180f35b845163defaa33b60e01b81526001600160a01b039384169281019283529216602082015281906040010390fd5b8193508092503d831161022d575b61020e8183610c03565b81010312610229575185811681036102295785903880610161565b8680fd5b503d610204565b86513d8a823e3d90fd5b859350828297959396518094819382525afa9485156102a45760249695610275575b5050516340eaa3bb60e01b8152921690820152fd5b610295929550803d1061029d575b61028d8183610c03565b810190610cb9565b923880610260565b503d610283565b82513d88823e3d90fd5b6102c59150833d851161029d5761028d8183610c03565b38610131565b87513d8b823e3d90fd5b50835163d92e233d60e01b8152fd5b508351637bfa4b9f60e01b8152fd5b6103139150823d8411610319575b61030b8183610c03565b810190610c3b565b38610102565b503d610301565b5081813d831161034d575b6103358183610c03565b8101031261034857816100ef91516100cd565b600080fd5b503d61032b565b8580fd5b8380fd5b8280fd5b5091903461068f578260031936011261068f5767ffffffffffffffff8135818111610358576103929036908401610bd2565b93909160243590811161068f576103ac9036908501610bd2565b825487516335595ee560e01b815291966020956001600160a01b0394939192909190851687828a81845afa80156106855788918a918990610651575b8d51632474521560e21b81529283019081523360208201529193508391829081906040015b03915afa90811561064757869161062a575b5015610617577f00000000000000000000000000000000000000000000000000000000000000008083116105fb57508782036105eb5761046482999897959699610c53565b9461047189519687610c03565b82865261047d83610c53565b868b019890601f1901368a37875b8481106104d4575050505050505083519485948186019282875251809352850193925b8281106104bd57505050500390f35b8351855286955093810193928101926001016104ae565b60019b9897999a9b90878254166104f46104ef838989610c6b565b610c91565b9061050083868b610c6b565b359182151583036105e7578f516303625d1360e31b81526001600160a01b039091168782019081529215156020840152918c91839182908e90829060400103925af19081156105dd578a916105b0575b5061055b828d610ca5565b528a8d610576836105706104ef828c8c610c6b565b93610ca5565b5190519081527f97703a723780778cb7bde5dd9ba5f2cf2565567b49137c613092f233f229564e8c8b33941692a3019a999896979a61048b565b90508a81813d83116105d6575b6105c78183610c03565b81010312610348575138610550565b503d6105bd565b8e513d8c823e3d90fd5b8b80fd5b8851631458293f60e11b81528790fd5b87604491848c51926325128c9560e01b84528301526024820152fd5b8851600162169f5160e11b031981528790fd5b6106419150873d89116103195761030b8183610c03565b3861041f565b8a513d88823e3d90fd5b5091905082813d831161067e575b6106698183610c03565b810103126103485788889161040d93516103e8565b503d61065f565b8b513d89823e3d90fd5b5080fd5b83823461068f578160031936011261068f57602090517f00000000000000000000000000000000000000000000000000000000000000008152f35b83823461068f578160031936011261068f57905490516001600160a01b039091168152602090f35b83823461068f578160031936011261068f5760015490516001600160a01b039091168152602090f35b5082903461068f578060031936011261068f5761073a610bc3565b825482516335595ee560e01b81526001600160a01b039592916020919087169082818681855afa908115610891579083918891610860575b508651632474521560e21b8152868101918252336020830152928391829081906040015b03915afa918215610856578692610839575b50501561082757839460015416803b15610823576044859285519687938492632e24c7bb60e01b8452873588850152151560248401525af18015610819576107ee578380f35b67ffffffffffffffff83116108065750528180808380f35b634e487b7160e01b845260419052602483fd5b82513d86823e3d90fd5b8480fd5b509051600162169f5160e11b03198152fd5b61084f9250803d106103195761030b8183610c03565b86806107a8565b85513d88823e3d90fd5b82819392503d831161088a575b6108778183610c03565b8101031261022957518290610796610772565b503d61086d565b86513d89823e3d90fd5b5091903461068f5760208060031936011261035c576001600160a01b038235818116939084900361082357845491821692865163a217fddf60e01b815281818481885afa80156109bb57829088906109c5575b8951632474521560e21b81528581019182523360208301529250829081906040015b0381885afa9182156109bb57879261099e575b50501561099057831561098257506001600160a01b0319168217835592516001600160a01b03938416815292166020830152907f235c5fcdf99cab4b2eb17130894ba3caa52a06bf5e6d2b0e03abfb94c04febb09080604081016101c3565b855163d92e233d60e01b8152fd5b8551637bfa4b9f60e01b8152fd5b6109b49250803d106103195761030b8183610c03565b3880610923565b88513d89823e3d90fd5b5081813d83116109ed575b6109da8183610c03565b81010312610229578161091091516108ee565b503d6109d0565b8483853461035c578160031936011261035c576001600160a01b038135818116929083810361035457610a25610bc3565b92808754166335595ee560e01b895260209889818681855afa908115610bb957908a918a91610b84575b508851632474521560e21b8152868101918252336020830152928391829081906040015b03915afa908115610b7a578891610b5d575b5015610b4a5760015486516303625d1360e31b81526001600160a01b03939093169383019384529315156020840152909287928492908390036040019183918991165af1938415610b3f578094610b0a575b50508151908382527f97703a723780778cb7bde5dd9ba5f2cf2565567b49137c613092f233f229564e853393a351908152f35b909193508482813d8311610b38575b610b238183610c03565b81010312610b35575051918480610ad7565b80fd5b503d610b19565b8351903d90823e3d90fd5b8551600162169f5160e11b031981528390fd5b610b749150893d8b116103195761030b8183610c03565b89610a85565b87513d8a823e3d90fd5b82819392503d8311610bb2575b610b9b8183610c03565b81010312610bae57518990610a73610a4f565b8880fd5b503d610b91565b88513d8b823e3d90fd5b60243590811515820361034857565b9181601f840112156103485782359167ffffffffffffffff8311610348576020808501948460051b01011161034857565b90601f8019910116810190811067ffffffffffffffff821117610c2557604052565b634e487b7160e01b600052604160045260246000fd5b90816020910312610348575180151581036103485790565b67ffffffffffffffff8111610c255760051b60200190565b9190811015610c7b5760051b0190565b634e487b7160e01b600052603260045260246000fd5b356001600160a01b03811681036103485790565b8051821015610c7b5760209160051b010190565b9081602091031261034857516001600160a01b0381168103610348579056fea26469706673582212207da22177b8f012ca47eb0f12d2c61d16ff4992105aa7f9b91a2c763884bafb9564736f6c63430008140033",
  "linkReferences": {},
  "deployedLinkReferences": {}
}