{
  "_format": "hh-sol-artifact-1",
  "contractName": "ManageLifePropertyNFT",
  "sourceName": "contracts/nft/ManageLifePropertyNFT.sol",
  "abi": [
    {
      "inputs": [
        {
          "internalType": "string",
          "name": "name",
          "type": "string"
        },
        {
          "internalType": "string",
          "name": "symbol",
          "type": "string"
        },
        {
          "internalType": "contract IAdminControl",
          "name": "adminControlAddress",
          "type": "address"
        },
        {
          "internalType": "string",
          "name": "_baseUri",
          "type": "string"
        },
        {
          "internalType": "address",
          "name": "_controllerContract",
          "type": "address"
        }
      ],
      "stateMutability": "nonpayable",
      "type": "constructor"
    },
    {
      "inputs": [],
      "name": "EmptyMetadataURI",
      "type": "error"
    },
    {
      "inputs": [],
      "name": "NotAdmin",
      "type": "error"
    },
    {
      "inputs": [],
      "name": "NotController",
      "type": "error"
    },
    {
      "inputs": [],
      "name": "ZeroAddress",
      "type": "error"
    },
    {
      "anonymous": false,
      "inputs": [
        {
          "indexed": false,
          "internalType": "address",
          "name": "oldAdminContract",
          "type": "address"
        },
        {
          "indexed": false,
          "internalType": "address",
          "name": "newAdminContract",
          "type": "address"
        }
      ],
      "name": "AdminContractUpdated",
      "type": "event"
    },
    {
      "anonymous": false,
      "inputs": [
        {
          "indexed": true,
          "internalType": "address",
          "name": "owner",
          "type": "address"
        },
        {
          "indexed": true,
          "internalType": "address",
          "name": "approved",
          "type": "address"
        },
        {
          "indexed": true,
          "internalType": "uint256",
          "name": "tokenId",
          "type": "uint256"
        }
      ],
      "name": "Approval",
      "type": "event"
    },
    {
      "anonymous": false,
      "inputs": [
        {
          "indexed": true,
          "internalType": "address",
          "name": "owner",
          "type": "address"
        },
        {
          "indexed": true,
          "internalType": "address",
          "name": "operator",
          "type": "address"
        },
        {
          "indexed": false,
          "internalType": "bool",
          "name": "approved",
          "type": "bool"
        }
      ],
      "name": "ApprovalForAll",
      "type": "event"
    },
    {
      "anonymous": false,
      "inputs": [
        {
          "indexed": true,
          "internalType": "string",
          "name": "baseTokenURI",
          "type": "string"
        }
      ],
      "name": "BaseTokenURISet",
      "type": "event"
    },
    {
      "anonymous": false,
      "inputs": [
        {
          "indexed": false,
          "internalType": "address",
          "name": "oldController",
          "type": "address"
        },
        {
          "indexed": false,
          "internalType": "address",
          "name": "newController",
          "type": "address"
        }
      ],
      "name": "ControllerContractUpdated",
      "type": "event"
    },
    {
      "anonymous": false,
      "inputs": [
        {
          "indexed": true,
          "internalType": "uint256",
          "name": "tokenId",
          "type": "uint256"
        },
        {
          "indexed": false,
          "internalType": "bool",
          "name": "deedHeldAtManageLife",
          "type": "bool"
        }
      ],
      "name": "DeedHeldAtManageLifeUpdated",
      "type": "event"
    },
    {
      "anonymous": false,
      "inputs": [
        {
          "indexed": true,
          "internalType": "address",
          "name": "from",
          "type": "address"
        },
        {
          "indexed": true,
          "internalType": "address",
          "name": "to",
          "type": "address"
        },
        {
          "indexed": true,
          "internalType": "uint256",
          "name": "tokenId",
          "type": "uint256"
        }
      ],
      "name": "Transfer",
      "type": "event"
    },
    {
      "inputs": [],
      "name": "adminController",
      "outputs": [
        {
          "internalType": "contract IAdminControl",
          "name": "",
          "type": "address"
        }
      ],
      "stateMutability": "view",
      "type": "function"
    },
    {
      "inputs": [
        {
          "internalType": "address",
          "name": "to",
          "type": "address"
        },
        {
          "internalType": "uint256",
          "name": "tokenId",
          "type": "uint256"
        }
      ],
      "name": "approve",
      "outputs": [],
      "stateMutability": "nonpayable",
      "type": "function"
    },
    {
      "inputs": [
        {
          "internalType": "address",
          "name": "owner",
          "type": "address"
        }
      ],
      "name": "balanceOf",
      "outputs": [
        {
          "internalType": "uint256",
          "name": "",
          "type": "uint256"
        }
      ],
      "stateMutability": "view",
      "type": "function"
    },
    {
      "inputs": [],
      "name": "baseTokenURI",
      "outputs": [
        {
          "internalType": "string",
          "name": "",
          "type": "string"
        }
      ],
      "stateMutability": "view",
      "type": "function"
    },
    {
      "inputs": [
        {
          "internalType": "uint256",
          "name": "",
          "type": "uint256"
        }
      ],
      "name": "deedHeldAtManageLife",
      "outputs": [
        {
          "internalType": "bool",
          "name": "",
          "type": "bool"
        }
      ],
      "stateMutability": "view",
      "type": "function"
    },
    {
      "inputs": [
        {
          "internalType": "uint256",
          "name": "tokenId",
          "type": "uint256"
        }
      ],
      "name": "getApproved",
      "outputs": [
        {
          "internalType": "address",
          "name": "",
          "type": "address"
        }
      ],
      "stateMutability": "view",
      "type": "function"
    },
    {
      "inputs": [
        {
          "internalType": "address",
          "name": "owner",
          "type": "address"
        },
        {
          "internalType": "address",
          "name": "operator",
          "type": "address"
        }
      ],
      "name": "isApprovedForAll",
      "outputs": [
        {
          "internalType": "bool",
          "name": "",
          "type": "bool"
        }
      ],
      "stateMutability": "view",
      "type": "function"
    },
    {
      "inputs": [
        {
          "internalType": "address",
          "name": "to",
          "type": "address"
        },
        {
          "internalType": "bool",
          "name": "_deedHeldAtManageLife",
          "type": "bool"
        }
      ],
      "name": "mintPropertyNFT",
      "outputs": [
        {
          "internalType": "uint256",
          "name": "newTokenId",
          "type": "uint256"
        }
      ],
      "stateMutability": "nonpayable",
      "type": "function"
    },
    {
      "inputs": [],
      "name": "name",
      "outputs": [
        {
          "internalType": "string",
          "name": "",
          "type": "string"
        }
      ],
      "stateMutability": "view",
      "type": "function"
    },
    {
      "inputs": [
        {
          "internalType": "uint256",
          "name": "tokenId",
          "type": "uint256"
        }
      ],
      "name": "ownerOf",
      "outputs": [
        {
          "internalType": "address",
          "name": "",
          "type": "address"
        }
      ],
      "stateMutability": "view",
      "type": "function"
    },
    {
      "inputs": [],
      "name": "propertyControllerContract",
      "outputs": [
        {
          "internalType": "address",
          "name": "",
          "type": "address"
        }
      ],
      "stateMutability": "view",
      "type": "function"
    },
    {
      "inputs": [
        {
          "internalType": "address",
          "name": "from",
          "type": "address"
        },
        {
          "internalType": "address",
          "name": "to",
          "type": "address"
        },
        {
          "internalType": "uint256",
          "name": "tokenId",
          "type": "uint256"
        }
      ],
      "name": "safeTransferFrom",
      "outputs": [],
      "stateMutability": "nonpayable",
      "type": "function"
    },
    {
      "inputs": [
        {
          "internalType": "address",
          "name": "from",
          "type": "address"
        },
        {
          "internalType": "address",
          "name": "to",
          "type": "address"
        },
        {
          "internalType": "uint256",
          "name": "tokenId",
          "type": "uint256"
        },
        {
          "internalType": "bytes",
          "name": "data",
          "type": "bytes"
        }
      ],
      "name": "safeTransferFrom",
      "outputs": [],
      "stateMutability": "nonpayable",
      "type": "function"
    },
    {
      "inputs": [
        {
          "internalType": "address",
          "name": "newAdminController",
          "type": "address"
        }
      ],
      "name": "setAdminController",
      "outputs": [],
      "stateMutability": "nonpayable",
      "type": "function"
    },
    {
      "inputs": [
        {
          "internalType": "address",
          "name": "operator",
          "type": "address"
        },
        {
          "internalType": "bool",
          "name": "approved",
          "type": "bool"
        }
      ],
      "name": "setApprovalForAll",
      "outputs": [],
      "stateMutability": "nonpayable",
      "type": "function"
    },
    {
      "inputs": [
        {
          "internalType": "string",
          "name": "_baseUri",
          "type": "string"
        }
      ],
      "name": "setBaseTokenURI",
      "outputs": [],
      "stateMutability": "nonpayable",
      "type": "function"
    },
    {
      "inputs": [
        {
          "internalType": "uint256",
          "name": "tokenId",
          "type": "uint256"
        },
        {
          "internalType": "bool",
          "name": "_deedHeldAtManageLife",
          "type": "bool"
        }
      ],
      "name": "setDeedHeldAtManageLife",
      "outputs": [],
      "stateMutability": "nonpayable",
      "type": "function"
    },
    {
      "inputs": [
        {
          "internalType": "address",
          "name": "newPropertyController",
          "type": "address"
        }
      ],
      "name": "setPropertyControllerContract",
      "outputs": [],
      "stateMutability": "nonpayable",
      "type": "function"
    },
    {
      "inputs": [
        {
          "internalType": "bytes4",
          "name": "interfaceId",
          "type": "bytes4"
        }
      ],
      "name": "supportsInterface",
      "outputs": [
        {
          "internalType": "bool",
          "name": "",
          "type": "bool"
        }
      ],
      "stateMutability": "view",
      "type": "function"
    },
    {
      "inputs": [],
      "name": "symbol",
      "outputs": [
        {
          "internalType": "string",
          "name": "",
          "type": "string"
        }
      ],
      "stateMutability": "view",
      "type": "function"
    },
    {
      "inputs": [
        {
          "internalType": "uint256",
          "name": "tokenId",
          "type": "uint256"
        }
      ],
      "name": "tokenURI",
      "outputs": [
        {
          "internalType": "string",
          "name": "uri",
          "type": "string"
        }
      ],
      "stateMutability": "view",
      "type": "function"
    },
    {
      "inputs": [],
      "name": "totalSupply",
      "outputs": [
        {
          "internalType": "uint256",
          "name": "supply",
          "type": "uint256"
        }
      ],
      "stateMutability": "view",
      "type": "function"
    },
    {
      "inputs": [
        {
          "internalType": "address",
          "name": "from",
          "type": "address"
        },
        {
          "internalType": "address",
          "name": "to",
          "type": "address"
        },
        {
          "internalType": "uint256",
          "name": "tokenId",
          "type": "uint256"
        }
      ],
      "name": "transferFrom",
      "outputs": [],
      "stateMutability": "nonpayable",
      "type": "function"
    }
  ],
  "bytecode": "0x608060409080825234620005115762002567803803809162000022828562000516565b8339810160a082820312620005115781516001600160401b039190828111620005115781620000539185016200057b565b9060209384810151848111620005115782620000719183016200057b565b868201516001600160a01b03808216949293929091859003620005115760608301518781116200051157608091620000ab9185016200057b565b9201519081168091036200051157845193868511620004fb576000938454956001978888811c98168015620004f0575b8b891014620003f65781908b601f998a81116200049a575b50508b908983116001146200043557889262000429575b5050600019600383901b1c191690881b1785555b805190888211620004155787548881811c911680156200040a575b8b821014620003f657908188849311620003a3575b508a908883116001146200033e57879262000332575b5050600019600383901b1c191690871b1786555b8251156200032157801562000310578115620003105790620001b5929160018060a01b0319908160085416176008556009541617600955620005f0565b908151948511620002fc576007548481811c91168015620002f1575b87821014620002dd5783811162000294575b50859285116001146200022b5793945084929190836200021f575b50501b916000199060031b1c1916176007555b51611dff9081620007688239f35b015192503880620001fe565b6007815285812093958591601f198316915b888383106200027957505050106200025f575b505050811b0160075562000211565b015160001960f88460031b161c1916905538808062000250565b8587015188559096019594850194879350908101906200023d565b600782528682208480880160051c820192898910620002d3575b0160051c019085905b828110620002c7575050620001e3565b838155018590620002b7565b92508192620002ae565b634e487b7160e01b82526022600452602482fd5b90607f1690620001d1565b634e487b7160e01b81526041600452602490fd5b885163d92e233d60e01b8152600490fd5b885163128e0ec160e11b8152600490fd5b01519050388062000164565b8988528b88208a94509190601f198416898e5b8282106200038b575050841162000371575b505050811b01865562000178565b015160001960f88460031b161c1916905538808062000363565b8385015186558d979095019493840193018e62000351565b9091508887528a87208880850160051c8201928d8610620003ec575b918b91869594930160051c01915b828110620003dd5750506200014e565b8981558594508b9101620003cd565b92508192620003bf565b634e487b7160e01b87526022600452602487fd5b90607f169062000139565b634e487b7160e01b86526041600452602486fd5b0151905038806200010a565b8880528c89208b94509190601f1984168a8f5b82821062000482575050841162000468575b505050811b0185556200011e565b015160001960f88460031b161c191690553880806200045a565b8385015186558e979095019493840193018f62000448565b9091925088805289828a209181860160051c8301938610620004e6575b918c91869594930160051c01915b828110620004d757508d9150620000f3565b8a81558594508c9101620004c5565b92508192620004b7565b97607f1697620000db565b634e487b7160e01b600052604160045260246000fd5b600080fd5b601f909101601f19168101906001600160401b03821190821017620004fb57604052565b6001600160401b038111620004fb57601f01601f191660200190565b60005b8381106200056a5750506000910152565b818101518382015260200162000559565b81601f820112156200051157805162000594816200053a565b92620005a4604051948562000516565b818452602082840101116200051157620005c5916020808501910162000556565b90565b908151811015620005da570160200190565b634e487b7160e01b600052603260045260246000fd5b8051801562000763575b801515806200071b575b15620006145760001901620005fa565b908115620006eb5762000627826200053a565b9162000637604051938462000516565b80835262000645816200053a565b602084019290601f1901368437600090815b8381106200069e575050505060216200068392620005c592604051948592518092602085019062000556565b8101602f60f81b602082015203600181018452018262000516565b6001600160f81b0319620006b38284620005c8565b5116831a620006c38288620005c8565b536000198114620006d75760010162000657565b634e487b7160e01b83526011600452602483fd5b5050604080519081016001600160401b03811182821017620004fb5760405260018152602f60f81b602082015290565b5060001981018181116200074e57602f60f81b906001600160f81b031990620007459085620005c8565b51161462000604565b60246000634e487b7160e01b81526011600452fd5b509056fe608060408181526004918236101561001657600080fd5b600092833560e01c91826301ffc9a71461137d5750816306fdde03146112d5578163081812fc146112b5578163095ea7b31461114757816318160ddd146111285781631b12e89814610fa35781631eae943314610f7657816323b872dd14610f515781632d14e7fb14610d935781632e24c7bb14610ce257816330176e1314610a2b57816342842e0e146109f75781636352211e146109c357816370a082311461092d578163950c5d031461090457816395d89b411461085c578163a22cb4651461078a578163b88d4fde146106fc578163c64e506114610477578163c87b56dd1461027057508063d547cfb71461019a578063d6a02cba146101725763e985e9c51461012257600080fd5b3461016e578060031936011261016e5760ff81602093610140611430565b61014861144b565b6001600160a01b0391821683526005875283832091168252855220549151911615158152f35b5080fd5b503461016e578160031936011261016e5760095490516001600160a01b039091168152602090f35b503461016e578160031936011261016e57805190826007546101bb816115be565b8085529160019180831690811561024857506001146101fd575b5050506101e7826101f99403836114d7565b5191829160208352602083019061140b565b0390f35b945060078552600080516020611daa8339815191525b828610610230575050506101e78260206101f995820101946101d5565b80546020878701810191909152909501948101610213565b6101f99750869350602092506101e794915060ff191682840152151560051b820101946101d5565b905034610473576020918260031936011261046f5781356000818152600260205260409020549092906102b2906001600160a01b03161515611aff565b611aff565b82839186947a184f03e93ff9f4daa797ed6e38ed64bf6a1f0100000000000000009081811015610460575b5050856d04ee2d6d415b85acef810000000080851015610452575b5050662386f26fc1000080841015610443575b506305f5e10080841015610434575b5061271080841015610426575b50506064821015610416575b600a8092101561040c575b60019081602181870196610369610354896114f9565b9861036189519a8b6114d7565b808a526114f9565b888a019a90601f1901368c3750870101905b6103d6575b505050506103c760056101f99383519687916103ac6103a0898501611b42565b928392519384916113e8565b0164173539b7b760d91b815203601a198101875201856114d7565b5192828493845283019061140b565b600019019083906f181899199a1a9b1b9c1cb0b131b232b360811b8282061a8353049182156104075791908261037b565b610380565b926001019261033e565b9290606460029104910192610333565b940193909104903880610327565b6008919593049201933861031a565b6010919593049201933861030b565b9501949092049185386102f8565b949550859404925038806102dd565b8380fd5b8280fd5b905034610473576020908160031936011261046f57610494611430565b600854845163a217fddf60e01b81526001600160a01b0394918516919081818681865afa80156105fa57829089906106c9575b8851632474521560e21b81528781019182523360208301529250829081906040015b0381865afa9081156105fa57889161069c575b501561068c5784831693841561067e578651636afb309f60e01b815282818381895afa90811561067457899161063a575b50863091160361060457818751809263950c5d0360e01b825281885afa9182156105fa5792867f0d8ff93c45daabccf0c67a2b31c8c7639aae955b3aa46d128cd2bb4d98a686c1989361058f936105c797968c926105cd575b50501614611bf6565b600980546001600160a01b031981169095179055516001600160a01b0394909316841683529290921660208201529081906040820190565b0390a180f35b6105ec9250803d106105f3575b6105e481836114d7565b810190611bd7565b3880610586565b503d6105da565b87513d8a823e3d90fd5b60649187519162461bcd60e51b83528201526012602482015271086a8a4985a7c9c8ca840dad2e6dac2e8c6d60731b6044820152fd5b90508281813d831161066d575b61065181836114d7565b8101031261066957518681168103610669573861052d565b8880fd5b503d610647565b88513d8b823e3d90fd5b865163d92e233d60e01b8152fd5b8551637bfa4b9f60e01b81528490fd5b6106bc9150823d84116106c2575b6106b481836114d7565b810190611bbf565b386104fc565b503d6106aa565b5081813d83116106f5575b6106de81836114d7565b810103126106f157816104e991516104c7565b8780fd5b503d6106d4565b83903461016e57608036600319011261016e57610717611430565b9061072061144b565b916044356064359367ffffffffffffffff851161078657366023860112156107865761075b61077e9486602461078398369301359101611515565b9261076e610769843361170f565b611636565b6107798383836117d7565b611a07565b6116eb565b80f35b8580fd5b919050346104735780600319360112610473576107a5611430565b906107ae611461565b6001600160a01b039092169233841461081a575033845260056020528084208385526020526107eb828286209060ff801983541691151516179055565b5190151581527f17307eab39ab6107e8899845ad3d59bd9653f200f220920489ca2b5937696c3160203392a380f35b6020606492519162461bcd60e51b8352820152601960248201527f4552433732313a20617070726f766520746f2063616c6c6572000000000000006044820152fd5b50503461016e578160031936011261016e57805190826001805491610880836115be565b8086529282811690811561024857506001146108a8575050506101e7826101f99403836114d7565b94508085527fb10e2d527612073b26eecdfd717e6a320cf44b4afac2b0732d9fcbe2b7fa0cf65b8286106108ec575050506101e78260206101f995820101946101d5565b805460208787018101919091529095019481016108cf565b50503461016e578160031936011261016e5760085490516001600160a01b039091168152602090f35b8391503461016e57602036600319011261016e576001600160a01b03610951611430565b1690811561096e5760208480858581526003845220549051908152f35b608490602085519162461bcd60e51b8352820152602960248201527f4552433732313a2061646472657373207a65726f206973206e6f7420612076616044820152683634b21037bbb732b960b91b6064820152fd5b8284346109f45760203660031901126109f457506109e360209235611598565b90516001600160a01b039091168152f35b80fd5b50503461016e5761077e61078391610a0e36611470565b91925192610a1b846114a5565b86845261076e610769843361170f565b83833461016e576020806003193601126104735767ffffffffffffffff908435828111610cde5736602382011215610cde57610a709036906024818901359101611515565b600854845163a217fddf60e01b81526001600160a01b039091169083818981855afa908115610cd457849189918991610c9b575b508751632474521560e21b815291820190815233602082015290928391829081906040015b03915afa908115610c91578691610c74575b5015610c6457805115610c5457610af190611c5f565b948551928311610c415750610b076007546115be565b601f8111610bf1575b5080601f8311600114610b7f5750839482939492610b74575b50508160011b916000199060031b1c1916176007555b5180610b4a81611b42565b0390207f2e9b34e5ec7377754a85ec13c1e9a442a00db0c46dbdefbb143dd0371fd20c1c8280a280f35b015190508480610b29565b60078552601f19831695600080516020611daa833981519152929186905b888210610bd957505083600195969710610bc0575b505050811b01600755610b3f565b015160001960f88460031b161c19169055848080610bb2565b80600185968294968601518155019501930190610b9d565b60078552600080516020611daa833981519152601f840160051c810191838510610c37575b601f0160051c01905b818110610c2c5750610b10565b858155600101610c1f565b9091508190610c16565b634e487b7160e01b855260419052602484fd5b835163128e0ec160e11b81528690fd5b8351637bfa4b9f60e01b81528690fd5b610c8b9150833d85116106c2576106b481836114d7565b87610adb565b85513d88823e3d90fd5b928092508391503d8311610ccd575b610cb481836114d7565b81010312610cc9575183908890610ac9610aa4565b8680fd5b503d610caa565b86513d89823e3d90fd5b8480fd5b905034610473578160031936011261047357803591610cff611461565b6009549092906001600160a01b03163303610d8557507fe282aeed18d4a503e7e30a2be6b475f94bf43312786aaf553a51affb36c0689291602091610d5c6102ad86600052600260205260018060a01b0360406000205416151590565b848652600a8352610d7b828288209060ff801983541691151516179055565b519015158152a280f35b90516323019e6760e01b8152fd5b9050346104735760208060031936011261046f57610daf611430565b9160085460018060a01b0380821693865163a217fddf60e01b815281818681895afa80156106745782908a90610f22575b8951632474521560e21b81528781019182523360208301529250829081906040015b0381895afa908115610674578991610f05575b5015610ef557818616938415610ee757826009541680610e84575b505050506001600160a01b0319161760085591516001600160a01b039283168152911660208201527f19622260694ca9aa3e09ee0782a067421880df57b25bdb045c40fa5e743747849080604081016105c7565b829089519283809263950c5d0360e01b82525afa918215610674579480937f19622260694ca9aa3e09ee0782a067421880df57b25bdb045c40fa5e74374784999593610edd936105c7988d926105cd5750501614611bf6565b9195819338610e30565b875163d92e233d60e01b8152fd5b8651637bfa4b9f60e01b81528490fd5b610f1c9150823d84116106c2576106b481836114d7565b38610e15565b5081813d8311610f4a575b610f3781836114d7565b810103126106695781610e029151610de0565b503d610f2d565b83346109f457610783610f6336611470565b91610f71610769843361170f565b6117d7565b905034610473576020366003190112610473578160209360ff92358152600a855220541690519015158152f35b83833461016e578060031936011261016e57610fbd611430565b92610fc6611461565b60095490946001600160a01b039290918316330361111a57610fe9600654611a8e565b948560065585815261100f602097600a89528683209060ff801983541691151516179055565b84519361101b856114a5565b81855283169182156110d9575061077e92866110d39593819361105c61105684600052600260205260018060a01b0360406000205416151590565b15611ab3565b60008381526002602052604090205461107f906001600160a01b03161515611056565b81815260038b528881208054600101905582815260028b5288812080546001600160a01b031916831790557fddf252ad1be2c89b69c2b068fc378daa952ba7f163c4a11628f55a4df523b3ef8180a46118ed565b51908152f35b606490888088519262461bcd60e51b845283015260248201527f4552433732313a206d696e7420746f20746865207a65726f20616464726573736044820152fd5b83516323019e6760e01b8152fd5b50503461016e578160031936011261016e576020906006549051908152f35b905034610473578160031936011261047357611161611430565b6024359290916001600160a01b039190828061117c87611598565b1694169380851461126857803314908115611249575b50156111e157848652602052842080546001600160a01b031916831790556111b983611598565b167f8c5be1e5ebec7d5bd14f71427d1e84f3dd0314c0f7b2291e5b200ac8c7c3b9258480a480f35b6020608492519162461bcd60e51b8352820152603d60248201527f4552433732313a20617070726f76652063616c6c6572206973206e6f7420746f60448201527f6b656e206f776e6572206f7220617070726f76656420666f7220616c6c0000006064820152fd5b90508652600560205281862033875260205260ff828720541638611192565b506020608492519162461bcd60e51b8352820152602160248201527f4552433732313a20617070726f76616c20746f2063757272656e74206f776e656044820152603960f91b6064820152fd5b8284346109f45760203660031901126109f457506109e3602092356115f8565b50503461016e578160031936011261016e578051908280546112f6816115be565b808552916001918083169081156102485750600114611321575050506101e7826101f99403836114d7565b80809650527f290decd9548b62a8d60345a988386fc84ba6bc95484008f6362f93160ef3e5635b828610611365575050506101e78260206101f995820101946101d5565b80546020878701810191909152909501948101611348565b849134610473576020366003190112610473573563ffffffff60e01b811680910361047357602092506380ac58cd60e01b81149081156113d7575b81156113c6575b5015158152f35b6301ffc9a760e01b149050836113bf565b635b5e139f60e01b811491506113b8565b60005b8381106113fb5750506000910152565b81810151838201526020016113eb565b90602091611424815180928185528580860191016113e8565b601f01601f1916010190565b600435906001600160a01b038216820361144657565b600080fd5b602435906001600160a01b038216820361144657565b60243590811515820361144657565b6060906003190112611446576001600160a01b0390600435828116810361144657916024359081168103611446579060443590565b6020810190811067ffffffffffffffff8211176114c157604052565b634e487b7160e01b600052604160045260246000fd5b90601f8019910116810190811067ffffffffffffffff8211176114c157604052565b67ffffffffffffffff81116114c157601f01601f191660200190565b929192611521826114f9565b9161152f60405193846114d7565b829481845281830111611446578281602093846000960137010152565b1561155357565b60405162461bcd60e51b815260206004820152601860248201527f4552433732313a20696e76616c696420746f6b656e20494400000000000000006044820152606490fd5b6000908152600260205260409020546001600160a01b03166115bb81151561154c565b90565b90600182811c921680156115ee575b60208310146115d857565b634e487b7160e01b600052602260045260246000fd5b91607f16916115cd565b60008181526002602052604090205461161b906001600160a01b0316151561154c565b6000908152600460205260409020546001600160a01b031690565b1561163d57565b60405162461bcd60e51b815260206004820152602d60248201527f4552433732313a2063616c6c6572206973206e6f7420746f6b656e206f776e6560448201526c1c881bdc88185c1c1c9bdd9959609a1b6064820152608490fd5b60809060208152603260208201527f4552433732313a207472616e7366657220746f206e6f6e20455243373231526560408201527131b2b4bb32b91034b6b83632b6b2b73a32b960711b60608201520190565b156116f257565b60405162461bcd60e51b81528061170b60048201611698565b0390fd5b906001600160a01b03808061172384611598565b16931691838314938415611756575b508315611740575b50505090565b61174c919293506115f8565b161438808061173a565b909350600052600560205260406000208260005260205260ff604060002054169238611732565b1561178457565b60405162461bcd60e51b815260206004820152602560248201527f4552433732313a207472616e736665722066726f6d20696e636f72726563742060448201526437bbb732b960d91b6064820152608490fd5b906117ff916117e584611598565b6001600160a01b039391841692849290918316841461177d565b1691821561189c578161181c9161181586611598565b161461177d565b7fddf252ad1be2c89b69c2b068fc378daa952ba7f163c4a11628f55a4df523b3ef60008481526004602052604081206bffffffffffffffffffffffff60a01b9081815416905583825260036020526040822060001981540190558482526040822060018154019055858252600260205284604083209182541617905580a4565b60405162461bcd60e51b8152602060048201526024808201527f4552433732313a207472616e7366657220746f20746865207a65726f206164646044820152637265737360e01b6064820152608490fd5b91929091803b156119fe5761193a936040519081630a85bd0160e11b9384825233600483015260009687602484015260448301526080606483015281878160209a8b96608483019061140b565b03926001600160a01b03165af18491816119be575b506119ad575050503d6000146119a5573d611969816114f9565b9061197760405192836114d7565b81528091833d92013e5b805191826119a25760405162461bcd60e51b81528061170b60048201611698565b01fd5b506060611981565b6001600160e01b0319161492509050565b9091508581813d83116119f7575b6119d681836114d7565b81010312610cde57516001600160e01b031981168103610cde57903861194f565b503d6119cc565b50915050600190565b92939190803b15611a8457611a59946040518092630a85bd0160e11b9485835233600484015260018060a01b03809816602484015260448301526080606483015281806020998a95608483019061140b565b03916000988991165af18491816119be57506119ad575050503d6000146119a5573d611969816114f9565b5050915050600190565b6000198114611a9d5760010190565b634e487b7160e01b600052601160045260246000fd5b15611aba57565b60405162461bcd60e51b815260206004820152601c60248201527f4552433732313a20746f6b656e20616c7265616479206d696e746564000000006044820152606490fd5b15611b0657565b60405162461bcd60e51b8152602060048201526014602482015273151bdad95b88191bd95cc81b9bdd08195e1a5cdd60621b6044820152606490fd5b60075460009291611b52826115be565b91600190818116908115611bac5750600114611b6d57505050565b90919293506007600052600080516020611daa833981519152906000915b848310611b99575050500190565b8181602092548587015201920191611b8b565b60ff191683525050811515909102019150565b90816020910312611446575180151581036114465790565b9081602091031261144657516001600160a01b03811681036114465790565b15611bfd57565b60405162461bcd60e51b8152602060048201526013602482015272086a8a49840c2c8dad2dc40dad2e6dac2e8c6d606b1b6044820152606490fd5b908151811015611c49570160200190565b634e487b7160e01b600052603260045260246000fd5b80518015611da5575b80151580611d61575b15611c7f5760001901611c68565b9190918015611d3057611c91816114f9565b90611c9f60405192836114d7565b808252611cab816114f9565b602083019190601f19013683376000805b828110611d0057505050611ce69293506115bb9160219160405194859251809260208501906113e8565b8101602f60f81b60208201520360018101845201826114d7565b611d2b906001600160f81b0319611d17828a611c38565b5116831a611d258288611c38565b53611a8e565b611cbc565b5090506040516040810181811067ffffffffffffffff8211176114c15760405260018152602f60f81b602082015290565b506000198101818111611d9057602f60f81b906001600160f81b031990611d889085611c38565b511614611c71565b60246000634e487b7160e01b81526011600452fd5b509056fea66cc928b5edb82af9bd49922954155ab7b0942694bea4ce44661d9a8736c688a26469706673582212201badec26c7da5e0cf642d08c31dd1de7b9372c7437f9d3371d61164c355ceaa764736f6c63430008140033",
  "linkReferences": {},
  "deployedLinkReferences": {}
}