{
  "_format": "hh-sol-artifact-1",
  "contractName": "PropertyMarketOptimized",
  "sourceName": "contracts/market/PropertyMarketOptimized.sol",
  "abi": [
    {
      "inputs": [
        {
          "internalType": "address",
          "name": "_nfti",
          "type": "address"
        },
        {
          "internalType": "address",
          "name": "_nftm",
          "type": "address"
        },
        {
          "internalType": "contract AdminControl",
          "name": "_adminControl",
          "type": "address"
        },
        {
          "internalType": "address",
          "name": "_governanceExecutor",
          "type": "address"
        }
      ],
      "stateMutability": "nonpayable",
      "type": "constructor"
    },
    {
      "inputs": [],
      "name": "DirectEthTransferNotAllowed",
      "type": "error"
    },
    {
      "inputs": [],
      "name": "InvalidInput",
      "type": "error"
    },
    {
      "anonymous": false,
      "inputs": [
        {
          "indexed": true,
          "internalType": "uint256",
          "name": "tokenId",
          "type": "uint256"
        },
        {
          "indexed": true,
          "internalType": "address",
          "name": "bidder",
          "type": "address"
        },
        {
          "indexed": false,
          "internalType": "uint256",
          "name": "amount",
          "type": "uint256"
        }
      ],
      "name": "BidCancelled",
      "type": "event"
    },
    {
      "anonymous": false,
      "inputs": [
        {
          "indexed": true,
          "internalType": "uint256",
          "name": "tokenId",
          "type": "uint256"
        },
        {
          "indexed": true,
          "internalType": "address",
          "name": "bidder",
          "type": "address"
        },
        {
          "indexed": false,
          "internalType": "uint256",
          "name": "amount",
          "type": "uint256"
        },
        {
          "indexed": false,
          "internalType": "address",
          "name": "paymentToken",
          "type": "address"
        }
      ],
      "name": "BidPlaced",
      "type": "event"
    },
    {
      "anonymous": false,
      "inputs": [
        {
          "indexed": true,
          "internalType": "address",
          "name": "token",
          "type": "address"
        },
        {
          "indexed": true,
          "internalType": "address",
          "name": "recipient",
          "type": "address"
        },
        {
          "indexed": false,
          "internalType": "uint256",
          "name": "amount",
          "type": "uint256"
        }
      ],
      "name": "EmergencyTokenWithdrawal",
      "type": "event"
    },
    {
      "anonymous": false,
      "inputs": [
        {
          "indexed": true,
          "internalType": "uint256",
          "name": "tokenId",
          "type": "uint256"
        },
        {
          "indexed": true,
          "internalType": "address",
          "name": "seller",
          "type": "address"
        },
        {
          "indexed": false,
          "internalType": "uint256",
          "name": "price",
          "type": "uint256"
        },
        {
          "indexed": false,
          "internalType": "address",
          "name": "paymentToken",
          "type": "address"
        },
        {
          "indexed": false,
          "internalType": "uint8",
          "name": "eventType",
          "type": "uint8"
        }
      ],
      "name": "ListingEvent",
      "type": "event"
    },
    {
      "anonymous": false,
      "inputs": [
        {
          "indexed": true,
          "internalType": "address",
          "name": "seller",
          "type": "address"
        },
        {
          "indexed": true,
          "internalType": "address",
          "name": "buyer",
          "type": "address"
        },
        {
          "indexed": false,
          "internalType": "uint256",
          "name": "amount",
          "type": "uint256"
        },
        {
          "indexed": false,
          "internalType": "uint256",
          "name": "fees",
          "type": "uint256"
        },
        {
          "indexed": false,
          "internalType": "address",
          "name": "paymentToken",
          "type": "address"
        }
      ],
      "name": "PaymentProcessed",
      "type": "event"
    },
    {
      "anonymous": false,
      "inputs": [
        {
          "indexed": true,
          "internalType": "address",
          "name": "token",
          "type": "address"
        },
        {
          "indexed": false,
          "internalType": "bool",
          "name": "allowed",
          "type": "bool"
        }
      ],
      "name": "PaymentTokenUpdated",
      "type": "event"
    },
    {
      "anonymous": false,
      "inputs": [
        {
          "indexed": true,
          "internalType": "uint256",
          "name": "tokenId",
          "type": "uint256"
        },
        {
          "indexed": true,
          "internalType": "address",
          "name": "buyer",
          "type": "address"
        },
        {
          "indexed": false,
          "internalType": "uint256",
          "name": "price",
          "type": "uint256"
        },
        {
          "indexed": false,
          "internalType": "address",
          "name": "paymentToken",
          "type": "address"
        },
        {
          "indexed": false,
          "internalType": "bool",
          "name": "wasCompetitive",
          "type": "bool"
        }
      ],
      "name": "PropertySold",
      "type": "event"
    },
    {
      "anonymous": false,
      "inputs": [
        {
          "indexed": true,
          "internalType": "uint256",
          "name": "tokenId",
          "type": "uint256"
        },
        {
          "indexed": true,
          "internalType": "address",
          "name": "buyer",
          "type": "address"
        },
        {
          "indexed": false,
          "internalType": "uint256",
          "name": "offerPrice",
          "type": "uint256"
        },
        {
          "indexed": false,
          "internalType": "address",
          "name": "paymentToken",
          "type": "address"
        },
        {
          "indexed": false,
          "internalType": "uint64",
          "name": "deadline",
          "type": "uint64"
        },
        {
          "indexed": false,
          "internalType": "uint8",
          "name": "statusType",
          "type": "uint8"
        }
      ],
      "name": "PurchaseStatusChanged",
      "type": "event"
    },
    {
      "inputs": [],
      "name": "FN_ACCEPT_BID",
      "outputs": [
        {
          "internalType": "uint256",
          "name": "",
          "type": "uint256"
        }
      ],
      "stateMutability": "view",
      "type": "function"
    },
    {
      "inputs": [],
      "name": "FN_ADMIN_UPDATE_LISTING",
      "outputs": [
        {
          "internalType": "uint256",
          "name": "",
          "type": "uint256"
        }
      ],
      "stateMutability": "view",
      "type": "function"
    },
    {
      "inputs": [],
      "name": "FN_ALLOWED_TOKEN_UPDATE",
      "outputs": [
        {
          "internalType": "uint256",
          "name": "",
          "type": "uint256"
        }
      ],
      "stateMutability": "view",
      "type": "function"
    },
    {
      "inputs": [],
      "name": "FN_BID",
      "outputs": [
        {
          "internalType": "uint256",
          "name": "",
          "type": "uint256"
        }
      ],
      "stateMutability": "view",
      "type": "function"
    },
    {
      "inputs": [],
      "name": "FN_CANCEL_BID",
      "outputs": [
        {
          "internalType": "uint256",
          "name": "",
          "type": "uint256"
        }
      ],
      "stateMutability": "view",
      "type": "function"
    },
    {
      "inputs": [],
      "name": "FN_CANCEL_EXPIRED",
      "outputs": [
        {
          "internalType": "uint256",
          "name": "",
          "type": "uint256"
        }
      ],
      "stateMutability": "view",
      "type": "function"
    },
    {
      "inputs": [],
      "name": "FN_CONFIRM",
      "outputs": [
        {
          "internalType": "uint256",
          "name": "",
          "type": "uint256"
        }
      ],
      "stateMutability": "view",
      "type": "function"
    },
    {
      "inputs": [],
      "name": "FN_LIST",
      "outputs": [
        {
          "internalType": "uint256",
          "name": "",
          "type": "uint256"
        }
      ],
      "stateMutability": "view",
      "type": "function"
    },
    {
      "inputs": [],
      "name": "FN_PURCHASE",
      "outputs": [
        {
          "internalType": "uint256",
          "name": "",
          "type": "uint256"
        }
      ],
      "stateMutability": "view",
      "type": "function"
    },
    {
      "inputs": [],
      "name": "FN_REJECT",
      "outputs": [
        {
          "internalType": "uint256",
          "name": "",
          "type": "uint256"
        }
      ],
      "stateMutability": "view",
      "type": "function"
    },
    {
      "inputs": [],
      "name": "PERCENTAGE_BASE",
      "outputs": [
        {
          "internalType": "uint256",
          "name": "",
          "type": "uint256"
        }
      ],
      "stateMutability": "view",
      "type": "function"
    },
    {
      "inputs": [
        {
          "internalType": "uint256",
          "name": "tokenId",
          "type": "uint256"
        },
        {
          "internalType": "uint256",
          "name": "bidIndex",
          "type": "uint256"
        },
        {
          "internalType": "address",
          "name": "expectedBidder",
          "type": "address"
        },
        {
          "internalType": "uint256",
          "name": "expectedAmount",
          "type": "uint256"
        },
        {
          "internalType": "address",
          "name": "expectedPaymentToken",
          "type": "address"
        }
      ],
      "name": "acceptBid",
      "outputs": [],
      "stateMutability": "nonpayable",
      "type": "function"
    },
    {
      "inputs": [
        {
          "internalType": "address",
          "name": "token",
          "type": "address"
        }
      ],
      "name": "addAllowedToken",
      "outputs": [],
      "stateMutability": "nonpayable",
      "type": "function"
    },
    {
      "inputs": [],
      "name": "adminControl",
      "outputs": [
        {
          "internalType": "contract AdminControl",
          "name": "",
          "type": "address"
        }
      ],
      "stateMutability": "view",
      "type": "function"
    },
    {
      "inputs": [
        {
          "internalType": "address",
          "name": "",
          "type": "address"
        }
      ],
      "name": "allowedPaymentTokens",
      "outputs": [
        {
          "internalType": "bool",
          "name": "",
          "type": "bool"
        }
      ],
      "stateMutability": "view",
      "type": "function"
    },
    {
      "inputs": [
        {
          "internalType": "address",
          "name": "",
          "type": "address"
        },
        {
          "internalType": "uint256",
          "name": "",
          "type": "uint256"
        }
      ],
      "name": "bidIndexByBidder",
      "outputs": [
        {
          "internalType": "uint256",
          "name": "",
          "type": "uint256"
        }
      ],
      "stateMutability": "view",
      "type": "function"
    },
    {
      "inputs": [
        {
          "internalType": "uint256",
          "name": "",
          "type": "uint256"
        },
        {
          "internalType": "uint256",
          "name": "",
          "type": "uint256"
        }
      ],
      "name": "bidsForToken",
      "outputs": [
        {
          "internalType": "uint256",
          "name": "tokenId",
          "type": "uint256"
        },
        {
          "internalType": "address",
          "name": "bidder",
          "type": "address"
        },
        {
          "internalType": "uint256",
          "name": "amount",
          "type": "uint256"
        },
        {
          "internalType": "address",
          "name": "paymentToken",
          "type": "address"
        },
        {
          "internalType": "uint64",
          "name": "bidTimestamp",
          "type": "uint64"
        },
        {
          "internalType": "bool",
          "name": "isActive",
          "type": "bool"
        }
      ],
      "stateMutability": "view",
      "type": "function"
    },
    {
      "inputs": [
        {
          "internalType": "uint256",
          "name": "tokenId",
          "type": "uint256"
        }
      ],
      "name": "cancelBid",
      "outputs": [],
      "stateMutability": "nonpayable",
      "type": "function"
    },
    {
      "inputs": [
        {
          "internalType": "uint256",
          "name": "tokenId",
          "type": "uint256"
        },
        {
          "internalType": "uint256",
          "name": "start",
          "type": "uint256"
        },
        {
          "internalType": "uint256",
          "name": "count",
          "type": "uint256"
        }
      ],
      "name": "cancelBidsBatch",
      "outputs": [],
      "stateMutability": "nonpayable",
      "type": "function"
    },
    {
      "inputs": [
        {
          "internalType": "uint256",
          "name": "tokenId",
          "type": "uint256"
        }
      ],
      "name": "cancelExpiredPurchase",
      "outputs": [],
      "stateMutability": "nonpayable",
      "type": "function"
    },
    {
      "inputs": [
        {
          "internalType": "address",
          "name": "paymentToken",
          "type": "address"
        }
      ],
      "name": "claimRefund",
      "outputs": [],
      "stateMutability": "nonpayable",
      "type": "function"
    },
    {
      "inputs": [
        {
          "internalType": "uint256",
          "name": "tokenId",
          "type": "uint256"
        }
      ],
      "name": "confirmPurchase",
      "outputs": [],
      "stateMutability": "nonpayable",
      "type": "function"
    },
    {
      "inputs": [
        {
          "internalType": "address",
          "name": "token",
          "type": "address"
        },
        {
          "internalType": "uint256",
          "name": "amount",
          "type": "uint256"
        },
        {
          "internalType": "address",
          "name": "recipient",
          "type": "address"
        }
      ],
      "name": "emergencyWithdrawToken",
      "outputs": [],
      "stateMutability": "nonpayable",
      "type": "function"
    },
    {
      "inputs": [
        {
          "internalType": "uint256",
          "name": "tokenId",
          "type": "uint256"
        }
      ],
      "name": "getHighestBid",
      "outputs": [
        {
          "internalType": "uint256",
          "name": "",
          "type": "uint256"
        }
      ],
      "stateMutability": "view",
      "type": "function"
    },
    {
      "inputs": [
        {
          "internalType": "uint256",
          "name": "tokenId",
          "type": "uint256"
        }
      ],
      "name": "getListingDetails",
      "outputs": [
        {
          "internalType": "address",
          "name": "seller",
          "type": "address"
        },
        {
          "internalType": "uint256",
          "name": "price",
          "type": "uint256"
        },
        {
          "internalType": "address",
          "name": "paymentToken",
          "type": "address"
        },
        {
          "internalType": "uint8",
          "name": "status",
          "type": "uint8"
        },
        {
          "internalType": "uint64",
          "name": "listTimestamp",
          "type": "uint64"
        },
        {
          "internalType": "uint32",
          "name": "confirmationPeriod",
          "type": "uint32"
        }
      ],
      "stateMutability": "view",
      "type": "function"
    },
    {
      "inputs": [],
      "name": "governanceExecutor",
      "outputs": [
        {
          "internalType": "address",
          "name": "",
          "type": "address"
        }
      ],
      "stateMutability": "view",
      "type": "function"
    },
    {
      "inputs": [
        {
          "internalType": "uint256",
          "name": "tokenId",
          "type": "uint256"
        },
        {
          "internalType": "uint256",
          "name": "price",
          "type": "uint256"
        },
        {
          "internalType": "address",
          "name": "paymentToken",
          "type": "address"
        }
      ],
      "name": "listProperty",
      "outputs": [],
      "stateMutability": "nonpayable",
      "type": "function"
    },
    {
      "inputs": [
        {
          "internalType": "uint256",
          "name": "tokenId",
          "type": "uint256"
        },
        {
          "internalType": "uint256",
          "name": "price",
          "type": "uint256"
        },
        {
          "internalType": "address",
          "name": "paymentToken",
          "type": "address"
        },
        {
          "internalType": "uint256",
          "name": "period",
          "type": "uint256"
        }
      ],
      "name": "listPropertyWithConfirmation",
      "outputs": [],
      "stateMutability": "nonpayable",
      "type": "function"
    },
    {
      "inputs": [
        {
          "internalType": "uint256",
          "name": "",
          "type": "uint256"
        }
      ],
      "name": "listings",
      "outputs": [
        {
          "internalType": "address",
          "name": "seller",
          "type": "address"
        },
        {
          "internalType": "address",
          "name": "paymentToken",
          "type": "address"
        },
        {
          "internalType": "uint256",
          "name": "price",
          "type": "uint256"
        },
        {
          "internalType": "uint256",
          "name": "tokenId",
          "type": "uint256"
        },
        {
          "internalType": "uint64",
          "name": "listTimestamp",
          "type": "uint64"
        },
        {
          "internalType": "uint64",
          "name": "lastRenewed",
          "type": "uint64"
        },
        {
          "internalType": "uint32",
          "name": "confirmationPeriod",
          "type": "uint32"
        },
        {
          "internalType": "uint8",
          "name": "status",
          "type": "uint8"
        }
      ],
      "stateMutability": "view",
      "type": "function"
    },
    {
      "inputs": [],
      "name": "nftiContract",
      "outputs": [
        {
          "internalType": "contract IERC721",
          "name": "",
          "type": "address"
        }
      ],
      "stateMutability": "view",
      "type": "function"
    },
    {
      "inputs": [],
      "name": "nftmContract",
      "outputs": [
        {
          "internalType": "contract IERC721",
          "name": "",
          "type": "address"
        }
      ],
      "stateMutability": "view",
      "type": "function"
    },
    {
      "inputs": [
        {
          "internalType": "uint256",
          "name": "",
          "type": "uint256"
        }
      ],
      "name": "pendingPurchases",
      "outputs": [
        {
          "internalType": "address",
          "name": "buyer",
          "type": "address"
        },
        {
          "internalType": "address",
          "name": "paymentToken",
          "type": "address"
        },
        {
          "internalType": "uint256",
          "name": "offerPrice",
          "type": "uint256"
        },
        {
          "internalType": "uint256",
          "name": "tokenId",
          "type": "uint256"
        },
        {
          "internalType": "uint64",
          "name": "purchaseTimestamp",
          "type": "uint64"
        },
        {
          "internalType": "uint64",
          "name": "confirmationDeadline",
          "type": "uint64"
        },
        {
          "internalType": "bool",
          "name": "isActive",
          "type": "bool"
        }
      ],
      "stateMutability": "view",
      "type": "function"
    },
    {
      "inputs": [
        {
          "internalType": "uint256",
          "name": "tokenId",
          "type": "uint256"
        },
        {
          "internalType": "uint256",
          "name": "bidAmount",
          "type": "uint256"
        },
        {
          "internalType": "address",
          "name": "paymentToken",
          "type": "address"
        }
      ],
      "name": "placeBid",
      "outputs": [],
      "stateMutability": "nonpayable",
      "type": "function"
    },
    {
      "inputs": [
        {
          "internalType": "uint256",
          "name": "tokenId",
          "type": "uint256"
        },
        {
          "internalType": "uint256",
          "name": "offerPrice",
          "type": "uint256"
        }
      ],
      "name": "purchaseProperty",
      "outputs": [],
      "stateMutability": "nonpayable",
      "type": "function"
    },
    {
      "inputs": [
        {
          "internalType": "address",
          "name": "",
          "type": "address"
        },
        {
          "internalType": "address",
          "name": "",
          "type": "address"
        }
      ],
      "name": "refundableBalances",
      "outputs": [
        {
          "internalType": "uint256",
          "name": "",
          "type": "uint256"
        }
      ],
      "stateMutability": "view",
      "type": "function"
    },
    {
      "inputs": [
        {
          "internalType": "uint256",
          "name": "tokenId",
          "type": "uint256"
        }
      ],
      "name": "rejectPurchase",
      "outputs": [],
      "stateMutability": "nonpayable",
      "type": "function"
    },
    {
      "inputs": [
        {
          "internalType": "address",
          "name": "token",
          "type": "address"
        }
      ],
      "name": "removeAllowedToken",
      "outputs": [],
      "stateMutability": "nonpayable",
      "type": "function"
    },
    {
      "inputs": [
        {
          "internalType": "uint256",
          "name": "tokenId",
          "type": "uint256"
        },
        {
          "internalType": "uint256",
          "name": "newPrice",
          "type": "uint256"
        },
        {
          "internalType": "address",
          "name": "newPaymentToken",
          "type": "address"
        }
      ],
      "name": "updateListing",
      "outputs": [],
      "stateMutability": "nonpayable",
      "type": "function"
    },
    {
      "inputs": [
        {
          "internalType": "uint256",
          "name": "tokenId",
          "type": "uint256"
        },
        {
          "internalType": "uint256",
          "name": "newPrice",
          "type": "uint256"
        },
        {
          "internalType": "address",
          "name": "newPaymentToken",
          "type": "address"
        }
      ],
      "name": "updateListingBySeller",
      "outputs": [],
      "stateMutability": "nonpayable",
      "type": "function"
    },
    {
      "stateMutability": "payable",
      "type": "receive"
    }
  ],
  "bytecode": "0x61010034620001db57601f62003f5438819003918201601f19168301916001600160401b03831184841017620001e057808492608094604052833981010312620001db576200004e81620001f6565b906200005d60208201620001f6565b6040820151916001600160a01b03919082841690818503620001db57620000886060859201620001f6565b95600160005516908115908115620001cf575b8115620001c5575b508015620001ba575b620001a8576080521660a05260c05260e052604051613d4890816200020c823960805181818161068a0152818161096b0152818161126701528181611cc0015281816122f0015281816123dc0152818161289501528181612b5401528181612c930152818161305f0152613397015260a05181610ac3015260c0518181816102b1015281816104cb01528181610ca501528181610e7f0152818161138701528181611579015281816117a701528181611a2901528181611fd4015281816124210152818161247701528181612a4001528181612d4601528181612efc015281816131e20152613c17015260e0518181816117260152611dc60152f35b60405163b4fa3fb360e01b8152600490fd5b5082851615620000ac565b90501538620000a3565b8385161591506200009b565b600080fd5b634e487b7160e01b600052604160045260246000fd5b51906001600160a01b0382168203620001db5756fe608080604052600436101561002d575b50361561001b57600080fd5b604051630b0d078360e11b8152600490fd5b600090813560e01c9081630f145f451461344d575080631a5fda36146134315780631fb4d31c146131b457806324b0c5731461319857806336de0f14146131145780633a64ff14146130f85780633b5342c314612ec55780633ecdb4d814612ea95780634178617f14612d145780634d24e90214612a095780634f84349414612450578063555d3e631461240b578063592eb924146123c65780635fa57f2214611fa3578063676b13f114611f87578063697d312a14611f4857806369fcc64914611f055780636d07baaf14611ee95780638350908014611d8557806386aa217e146119f457806387c13943146119d7578063887f495a146117865780638f288644146117555780638fc983861461171057806390469a9d146115475780639703ef3514611350578063ad6561ec14610e4a578063bd63687414610c6e578063bd8112b714610c52578063bffa55d514610bce578063c059083d14610b7a578063c7921a7c14610af2578063cbb9c9a414610aad578063de74e57b14610a1b578063e58a7b3114610486578063e965abba1461046a578063f2e44b181461027c578063fb05da2e146102015763fb1454d00361000f57346101fe57806003193601126101fe57602060405160078152f35b80fd5b50346101fe5760203660031901126101fe57604060c091600435815260026020522063ffffffff60018060a01b0380835416926004600282015492600183015416910154916040519485526020850152604084015260ff8160a01c1660608401526001600160401b038116608084015260801c1660a0820152f35b50346101fe576020806003193601126104665760043561029a6136d4565b604051635c975abb60e01b81526001600160a01b037f000000000000000000000000000000000000000000000000000000000000000081168483600481845afa90811561045b576102f78692602495899161043e575b5015613589565b60405163772dc70760e11b81526008600482015293849182905afa9081156104335761033d608092600080516020613cd3833981519152948891610406575b50156135c5565b838652600285526040862094600381526004604088209601600360ff825460a01c1614806103f6575b806103dd575b61037e90610378613b06565b9061366c565b6004870160ff851b19815416905560ff60a01b19815416905560018601918080845416976103b78282541699600283019a8b5491613b26565b541696549254169060405192835282015285604082015260036060820152a36001815580f35b50600487015460401c6001600160401b0316421161036c565b5060ff6004880154851c16610366565b6104269150873d891161042c575b61041e8183613550565b810190613571565b38610336565b503d610414565b6040513d87823e3d90fd5b6104559150843d861161042c5761041e8183613550565b386102f0565b6040513d88823e3d90fd5b5080fd5b50346101fe57806003193601126101fe57602060405160038152f35b50346101fe5760a03660031901126101fe576104a061347e565b608435906001600160a01b0382168203610a16576104bc6136d4565b604051635c975abb60e01b81527f00000000000000000000000000000000000000000000000000000000000000006001600160a01b0316602082600481845afa9182156104335760209261051791879161043e575015613589565b6040519182809263772dc70760e11b825260048083015260249485915afa80156104335761054c9186916109fd5750156135c5565b60043584526002602052604084209160048301549160ff8360a01c16158061094e575b80610944575b8061092c575b61058790610378613694565b8354336001600160a01b03821603610918575b50600435865260046020526040862081359160001983019283116109065750916105ca61061292889695946134d4565b509560038701549060ff8260e01c1692836108eb575b50826108db575b826108c4575b5050604051906105fc82613535565b60048252634535303160e01b602083015261366c565b60ff60a01b1916600160a01b1760048281019190915560038401805460ff60e01b1916815560018501546001600160a01b0390811685526005602090815260408087209435875293905291842084905582546002860154915461067a93908116929116613bf7565b5460018301546001600160a01b037f00000000000000000000000000000000000000000000000000000000000000008116929181169116823b156108c057604051635c46a7ef60e11b81526001600160a01b03918216600480830191909152929091166024820152903560448201526080606482015260006084820152908290829060a490829084905af180156108b5576108a1575b50506001818101546002830154600390930154604080519485526001600160a01b03918216602086015284019290925216908190600435907f33cf38d14091c190e5fa63ee59cd2646a4b9c317e312b6058ca56fbb981d0b9c90606090a36004358252600460205260408220805491835b83811061079057846001815580f35b8060ff60036107a26107b894876134d4565b50015460e01c1680610880575b6107bd57613766565b610781565b6107c781856134d4565b50600101546001600160a01b031660026107e183876134d4565b5001546107ee83876134d4565b506003908101546001600160a01b03169061080985896134d4565b5001805460ff60e01b191690556001600160a01b03831660008181526005602090815260408083206004358e528252808d208d9055928252600690522090600052602052604060002061085d82825461378b565b9055604051908152600080516020613cb3833981519152602060043592a3613766565b508261088c82866134d4565b50600101546001600160a01b031614156107af565b6108aa90613506565b610466578138610710565b6040513d84823e3d90fd5b8380fd5b6001600160a01b03918216911614905038806105ed565b60028801546064351492506105e7565b60018901546001600160a01b039182169116149250386105e0565b634e487b7160e01b8852601160045287fd5b6001600160a01b031916331784553861059a565b5060048035875260205260408620548135111561057b565b5080351515610575565b506040516331a9108f60e11b8152600480359082015260208183817f00000000000000000000000000000000000000000000000000000000000000006001600160a01b03165afa9081156109f25787916109b4575b506001600160a01b0316331461056f565b90506020813d6020116109ea575b816109cf60209383613550565b810103126109e6576109e09061372a565b386109a3565b8680fd5b3d91506109c2565b6040513d89823e3d90fd5b610426915060203d60201161042c5761041e8183613550565b600080fd5b50346101fe5760203660031901126101fe57604061010091600435815260026020522060ff60018060a01b0391828154169260018201541690600281015460046003830154920154926040519586526020860152604085015260608401526001600160401b0380821660808501528160401c1660a084015263ffffffff8160801c1660c084015260a01c1660e0820152f35b50346101fe57806003193601126101fe576040517f00000000000000000000000000000000000000000000000000000000000000006001600160a01b03168152602090f35b50346101fe57610b01366134be565b919081526004602052604081209081548310156101fe5760c0610b2484846134d4565b5060ff81549160018060a01b038060018301541691600360028201549101549260405195865260208601526040850152811660608401526001600160401b038160a01c16608084015260e01c16151560a0820152f35b50346101fe5760403660031901126101fe57610b94613468565b6024356001600160a01b038181169391849003610a1657604092168152600660205220906000526020526020604060002054604051908152f35b50346101fe5760203660031901126101fe57610c4b610beb613468565b610bf36136d4565b3383526006602052604083209060018060a01b0316908160005260205260406000205490610c2a610c22613694565b83151561366c565b33845260066020526040842081600052602052836040600020553390613b26565b6001815580f35b50346101fe57806003193601126101fe57602060405160028152f35b50346101fe5760603660031901126101fe57602435600435610c8e6136d4565b604051635c975abb60e01b81526001600160a01b037f000000000000000000000000000000000000000000000000000000000000000081169291602091908281600481885afa80156109f257610ceb91889161043e575015613589565b60405163772dc70760e11b815282816024816003988960048301525afa80156109f257610d1f918891610e335750156135c5565b8286526004825260408620805495610d40610d38613694565b88831061366c565b610d4c6044358261378b565b96808811610e2b575b505b868110610d6657876001815580f35b8060ff87610d77610d8794866134d4565b50015460e01c16610d8c57613766565b610d57565b8886600080516020613cb383398151915287868b60408a6001610daf8a866134d4565b50015416968b83610dcf8b6002610dc6828a6134d4565b500154976134d4565b5001541692610dde8a8d6134d4565b500160ff60e01b198154169055878152600585528181208782528552808281205587815260068552209060005282526040600020610e1d82825461378b565b9055604051908152a3613766565b965038610d55565b6104269150843d861161042c5761041e8183613550565b50346101fe57610e5936613494565b610e649291926136d4565b604051635c975abb60e01b81526020916001600160a01b03917f00000000000000000000000000000000000000000000000000000000000000008316908481600481855afa801561132e57610ec0918991611339575015613589565b60405163772dc70760e11b81526003600482015260249185828481845afa9081156112dd57610ef9879285948c91610e335750156135c5565b604051632a5bb1b760e11b815233600482015292839182905afa801561132e57610f2d918991611311575b506103786136b4565b8487526002845260408720861515806112fa575b806112e8575b8061124c575b610f5990610378613694565b85885260048552610f91600260408a2092015488101560405190610f7c82613535565b60048252632299181b60e11b8883015261366c565b610f9a81613886565b80611231575b50336000908152600560205260409020868952855260408820549182156110c95760001983019283116110b7575061107f91610fdb916134d4565b5086846110586002600385019461102e8a8754611005610ff9613b82565b60ff8360e01c1661366c565b868b16968791632299981960e11b6040519461102086613535565b60048652850152161461366c565b019161104e8354611048611040613ba2565b82881161366c565b85613b75565b90309033906138fb565b55805467ffffffffffffffff60a01b19164260a01b67ffffffffffffffff60a01b16179055565b60405194855216908301527fe30abccebb20a387be8e75e927d7e06ce1bf9d77bb3888516663bdc8995fb33460403393a36001815580f35b634e487b7160e01b8952601160045288fd5b909150838316906110dc883033856138fb565b604051906001600160401b039060c083018281118482101761121c5760405288835287830133815260408401918b8352606085019586526080850192844216845260a0860195600187528854680100000000000000008110156112085780600161114992018b558a6134d4565b9390936111f7575051825591516001820180546001600160a01b031916918b1691909117905590516002820155935160039094018054915167ffffffffffffffff60a01b19958916959095166001600160e01b0319909216919091179390911660a01b67ffffffffffffffff60a01b1692909217825551815460ff60e01b191690151560e01b60ff60e01b16179055543360009081526005602052604090208588528452604087205561107f565b8f634e487b7160e01b815280600452fd5b50634e487b7160e01b8f526041600452828ffd5b50634e487b7160e01b60009081526041600452fd5b6112469061123d613ba2565b9089101561366c565b38610fa0565b506040516331a9108f60e11b815260048101879052858184817f000000000000000000000000000000000000000000000000000000000000000089165afa80156112dd5789906112a3575b85163314159050610f4d565b508581813d83116112d6575b6112b98183613550565b810103126112d2576112cd610f599161372a565b611297565b8880fd5b503d6112af565b6040513d8b823e3d90fd5b5060ff600482015460a01c1615610f47565b5083831688526001855260ff604089205416610f41565b6113289150863d881161042c5761041e8183613550565b38610f24565b6040513d8a823e3d90fd5b6104559150863d881161042c5761041e8183613550565b50346101fe576020806003193601126104665760043561136e6136d4565b604051635c975abb60e01b81526001600160a01b0392907f000000000000000000000000000000000000000000000000000000000000000084168282600481845afa90811561045b576113cc8492602494899161043e575015613589565b60405163772dc70760e11b81526005600482015292839182905afa8015610433576113fe9186916115305750156135c5565b818452600481526040808520336000908152600560205282902084875283528186205491516114489061143081613535565b60048152634532303160e01b8582015283151561366c565b600019820191821161151c57600080516020613cb3833981519152929161146e916134d4565b5060038101946002865492611490611484613b82565b60ff8660e01c1661366c565b6114be338460018401541614604051906114a982613535565b60048252634532303360e01b8883015261366c565b015460ff60e01b1983169096553360009081526005602052604090208588528352604080882088905533600090815260066020522091166000528152604060002061150a85825461378b565b90556040519384523393a36001815580f35b634e487b7160e01b86526011600452602486fd5b6104269150833d851161042c5761041e8183613550565b50346101fe5760208060031936011261046657611562613468565b604051635c975abb60e01b81526001600160a01b037f000000000000000000000000000000000000000000000000000000000000000081169290918481600481875afa801561045b576115bc918791611339575015613589565b60405163772dc70760e11b8152606560048201528481602481875afa801561045b576115ef9187916116f95750156135c5565b60405163a217fddf60e01b81528481600481875afa801561045b57859187916116c8575b50604051632474521560e21b815260048101919091523360248201529384908180604481015b03915afa928315610433577f19c6e2fbd27c3204efb106f0081d2d7ffaf44da224ca04fbc0d8a262ba40f5559361167a9187916116ab575b50610378613603565b169161168f611687613694565b84151561366c565b828452600181526040808520805460ff1916905551848152a280f35b6116c29150863d881161042c5761041e8183613550565b38611671565b82819392503d83116116f2575b6116df8183613550565b81010312610a1657518490611639611613565b503d6116d5565b6104269150863d881161042c5761041e8183613550565b50346101fe57806003193601126101fe576040517f00000000000000000000000000000000000000000000000000000000000000006001600160a01b03168152602090f35b50346101fe5760203660031901126101fe5761177e604060209260043581526004845220613886565b604051908152f35b50346101fe5761179536613494565b604051635c975abb60e01b81529092917f00000000000000000000000000000000000000000000000000000000000000006001600160a01b031691602081600481865afa801561045b576117f09187916119be575015613589565b60405163772dc70760e11b815260646004820152602081602481865afa801561045b576118249187916109fd5750156135c5565b60405163a217fddf60e01b8152602081600481865afa90811561045b57869161198a575b50604051632474521560e21b815260048101919091523360248201529160209083908180604481015b03915afa908115610433576118a1606092600080516020613cf38339815191529488916119715750610378613603565b83865260026020526040862060ff600482015460a01c161580611968575b80611949575b6040516118eb916118d582613535565b60048252634531303360e01b602083015261366c565b600281018290556001810180546001600160a01b0319166001600160a01b039097169687179055611928426001600160401b03166004830161373e565b60018060a01b0390541694604051918252602082015260016040820152a380f35b506001600160a01b03861687526001602052604087205460ff166118c5565b508115156118bf565b6116c2915060203d60201161042c5761041e8183613550565b90506020813d6020116119b6575b816119a560209383613550565b81010312610a165751611871611848565b3d9150611998565b610455915060203d60201161042c5761041e8183613550565b50346101fe57806003193601126101fe5760206040516127108152f35b50346101fe57611a0336613494565b611a0e9291926136d4565b604051635c975abb60e01b81526020906001600160a01b03907f00000000000000000000000000000000000000000000000000000000000000008216908381600481855afa801561132e57611a6a918991611d6e575015613589565b60405163772dc70760e11b815260016004820152908382602481845afa90811561132e57611aa385926024948b91610e335750156135c5565b604051632a5bb1b760e11b815233600482015292839182905afa80156109f257611ad6918891611d5757506103786136b4565b84151580611d3e575b80611ca4575b611af190610378613694565b836000526002825260406000208181541680151580611c9a575b80611c88575b15611c445750508360005260048252611b2e846040600020613798565b6001600160401b03908142169360405192611b4884613519565b338452828585019216958683528160408601958a8752606081018a8152608082019784895260a0830194855260c08301966000885260e084019860008a528d60005260028c52806040600020955116906001600160601b0360a01b918287541617865560018601925116908254161790555160028301555160038201556004019551166001600160401b03198654161785555116611be6908461373e565b518254915164ffffffffff60801b1990921660809190911b63ffffffff60801b161760a09190911b60ff60a01b16179055604051938452830152604082016000905233916060600080516020613cf383398151915291a36001815580f35b3314611c51575b50611b2e565b60040154604051611c829160a01c60ff161515611c6d82613535565b60048252632298981960e11b8583015261366c565b38611c4b565b5060ff600483015460a01c1615611b11565b5033811415611b0b565b506040516331a9108f60e11b81526004810185905282816024817f000000000000000000000000000000000000000000000000000000000000000086165afa8015611d3257600090611cfc575b821633149050611ae5565b8382813d8311611d2b575b611d118183613550565b810103126101fe5750611d26611af19161372a565b611cf1565b503d611d07565b6040513d6000823e3d90fd5b508083166000526001825260ff60406000205416611adf565b6113289150843d861161042c5761041e8183613550565b6104559150853d871161042c5761041e8183613550565b50346101fe5760603660031901126101fe57611d9f613468565b611ded60243591611dae61347e565b90611db7613603565b6001600160a01b0393849291337f000000000000000000000000000000000000000000000000000000000000000085161461366c565b16918215159081611edd575b611e20604051611e0881613535565b60048152602093634539313560e01b8583015261366c565b6040516370a0823160e01b8152306004820152928284602481885afa9384156109f2578794611eac575b50611e957fa4e7b83d59f83358c69c32a951cf5f617e749b38fdb1e2ff13524b83ffd42c999460405190611e7d82613535565b6004825263229c989b60e11b8683015288111561366c565b611ea0868287613b26565b6040519586521693a380f35b93508284813d8311611ed6575b611ec38183613550565b810103126109e657925192611e95611e4a565b503d611eb9565b82811615159150611df9565b50346101fe57806003193601126101fe57602060405160018152f35b50346101fe5760403660031901126101fe576020906040906001600160a01b03611f2d613468565b16815260058352818120602435825283522054604051908152f35b50346101fe5760203660031901126101fe5760209060ff906040906001600160a01b03611f73613468565b168152600184522054166040519015158152f35b50346101fe57806003193601126101fe57602060405160648152f35b50346101fe5760803660031901126101fe57611fbd61347e565b611fc56136d4565b604051635c975abb60e01b81527f00000000000000000000000000000000000000000000000000000000000000006001600160a01b031690602081600481855afa80156123bb5761201d9185916119be575015613589565b60405163772dc70760e11b81526001600482015290602082602481845afa9081156123bb576120586020926024948791610e335750156135c5565b604051632a5bb1b760e11b815233600482015292839182905afa80156123b05761208b91849161239757506103786136b4565b6120b960405161209a81613535565b60048152634536303760e01b602082015262093a80606435111561366c565b6024359081151580612375575b806122d2575b6120d890610378613694565b600435600090815260026020526040902080546001600160a01b0316801515806122c8575b806122b6575b1561227157505060043560005260046020526121256004356040600020613798565b6122406040519161213583613519565b33835260018060a01b03169182602082015283604082015260043560608201526001600160401b034216608082015260ff60a082016001600160401b034216815260c0830163ffffffff60643516815261220e6001600160401b0360e08601936000855260043560005260026020528160806004604060002060018060a01b038b51166001600160601b0360a01b908183541617825560018201908c602060018060a01b03910151169082541617905560408b0151600282015560608b015160038201550198015116821988541617875551168561373e565b518354915164ffffffffff60801b1990921660809190911b63ffffffff60801b1617911660a01b60ff60a01b16179055565b6040519182526020820152600060408201523390600080516020613cf3833981519152606060043592a36001815580f35b331461227e575b50612125565b600401546040516122b09160a01c60ff16151561229a82613535565b60048252632298981960e11b602083015261366c565b38612278565b5060ff600483015460a01c1615612103565b50338114156120fd565b506040516331a9108f60e11b815260048035908201526020816024817f00000000000000000000000000000000000000000000000000000000000000006001600160a01b03165afa8015611d325760009061233a575b6001600160a01b0316331490506120cc565b6020823d60201161236d575b8161235360209383613550565b810103126101fe57506123686120d89161372a565b612328565b3d9150612346565b506001600160a01b03811660009081526001602052604090205460ff166120c6565b611328915060203d60201161042c5761041e8183613550565b6040513d85823e3d90fd5b6040513d86823e3d90fd5b50346101fe57806003193601126101fe576040517f00000000000000000000000000000000000000000000000000000000000000006001600160a01b03168152602090f35b50346101fe57806003193601126101fe576040517f00000000000000000000000000000000000000000000000000000000000000006001600160a01b03168152602090f35b50346101fe5761245f366134be565b906124686136d4565b604051635c975abb60e01b81527f00000000000000000000000000000000000000000000000000000000000000006001600160a01b03169290602081600481875afa8015610433576124c19186916119be575015613589565b60405163772dc70760e11b815260026004820152602081602481875afa8015610433576124f59186916109fd5750156135c5565b604051632a5bb1b760e11b8152336004820152602081602481875afa80156104335761252a91869161239757506103786136b4565b81845260026020526040842092811515806129f7575b61254c90610378613694565b828552600460205261256060408620613886565b801580159391906129ec575b811015806129ca575b60405161259b9161258582613535565b60048252634530303560e01b602083015261366c565b82156129be57935b600481019263ffffffff9283855460801c1615156000146127585750506001808060a01b0391015416915460801c1682855260026020526004604086206125ec863033876138fb565b01600360a01b60ff60a01b198254161790556001600160401b034216016001600160401b038111612744576040519160e08301928084106001600160401b0385111761272e576001600160401b03936040523381528160208201528560408201528460608201528342166080820152866126e18560a0840181871681528160806004604060c0890197600189528d815260036020522060018060a01b038951166001600160601b0360a01b9081835416178255600182019060018060a01b0360208c0151169082541617905560408901516002820155606089015160038201550196015116821986541617855551168361373e565b51151581549060ff60801b9060801b169060ff60801b19161790556040519485526020850152166040830152826060830152600080516020613cd383398151915260803393a36001815580f35b634e487b7160e01b600052604160045260246000fd5b634e487b7160e01b85526011600452602485fd5b925092506001808060a01b039101541690838652600260205260046040872091818301600160a01b60ff60a01b198254161790558160205261279d8660408a20613798565b82546040516301e5eb1d60e41b8152926001600160a01b0390911691606091849182905afa91821561132e5788908993612988575b506040518060608101106001600160401b0360608301111761297457604081606061281993018252838152602081019560018060a01b031686520191612710835289613be4565b905190811561296057906128529104809361284b612837838c613b75565b91516001600160a01b03169185338a6138fb565b33876138fb565b6040519187835260208301528360408301527fa496c08b103292578a04c9879f2740638414c311180dffa9d1436d3c9711992360603393a3546001600160a01b037f0000000000000000000000000000000000000000000000000000000000000000811691879116823b1561046657604051635c46a7ef60e11b81526001600160a01b0391909116600482015233602482015260448101869052608060648201526000608482015291829060a490829084905af1801561045b5761294d575b50604051938452602084015260408301527f33cf38d14091c190e5fa63ee59cd2646a4b9c317e312b6058ca56fbb981d0b9c60603393a3610c4b565b61295990959195613506565b9338612911565b634e487b7160e01b8a52601260045260248afd5b634e487b7160e01b8a52604160045260248afd5b90506129ad91925060603d6060116129b7575b6129a58183613550565b810190613bc2565b92919050386127d2565b503d61299b565b506002840154936125a3565b506001858101546001600160a01b03168752602052604086205460ff16612575565b50600285015461256c565b50600484015460a01c60ff1615612540565b50346101fe5760208060031936011261046657600435612a276136d4565b604051635c975abb60e01b81526001600160a01b0392907f000000000000000000000000000000000000000000000000000000000000000084168282600481845afa90811561045b57612a858492602494899161043e575015613589565b60405163772dc70760e11b81526006600482015292839182905afa801561043357612ab79186916115305750156135c5565b8382855260028252604085209160038152604086209160048401600360ff825460a01c161480612d03575b80612c77575b80612c5d575b612afa90610378613b06565b6004848101805460ff60801b19169055815460ff60a01b1916600160a01b17909155858852825260408720612b30908690613798565b85845416916002840196612b4f88549460018701958387541691613bf7565b8881807f0000000000000000000000000000000000000000000000000000000000000000169754168287541697803b15612c5957604051635c46a7ef60e11b81526001600160a01b039283166004820152989091166024890152604488018990526080606489015260006084890152879060a490829084905af19485156112dd577f33cf38d14091c190e5fa63ee59cd2646a4b9c317e312b6058ca56fbb981d0b9c96606096612c46575b50819054169754935416908787600080516020613cd38339815191526080604051888152868682015287604082015260018a820152a36040519384528301526040820152a36001815580f35b612c51919450613506565b889281612bfa565b8280fd5b50600484015460401c6001600160401b0316421115612aee565b506040516331a9108f60e11b81526004810187905283816024817f00000000000000000000000000000000000000000000000000000000000000008c165afa9081156112dd578991612cce575b5087163314612ae8565b90508381813d8311612cfc575b612ce58183613550565b810103126112d257612cf69061372a565b38612cc4565b503d612cdb565b5060ff600485015460801c16612ae2565b50346101fe5760208060031936011261046657612d2f613468565b604051635c975abb60e01b81526001600160a01b037f000000000000000000000000000000000000000000000000000000000000000081169290918481600481875afa801561045b57612d89918791611339575015613589565b60405163772dc70760e11b8152606560048201528481602481875afa801561045b57612dbc9187916116f95750156135c5565b60405163a217fddf60e01b81528481600481875afa801561045b5785918791612e74575b50604051632474521560e21b815260048101919091523360248201529384908180604481015b03915afa928315610433577f19c6e2fbd27c3204efb106f0081d2d7ffaf44da224ca04fbc0d8a262ba40f55593612e469187916116ab5750610378613603565b1691612e53611687613694565b8284526001815260408420600160ff1982541617905560405160018152a280f35b82819392503d8311612ea2575b612e8b8183613550565b81010312612e9e57518490612e06612de0565b8580fd5b503d612e81565b50346101fe57806003193601126101fe57602060405160658152f35b50346101fe5760208060031936011261046657600435612ee36136d4565b604051635c975abb60e01b81526001600160a01b0392907f000000000000000000000000000000000000000000000000000000000000000084168282600481845afa90811561045b57612f418492602494899161043e575015613589565b60405163772dc70760e11b81526007600482015292839182905afa801561043357612f739186916115305750156135c5565b81845260028152604084209260038252600460408620940191600360ff845460a01c1614806130e7575b80613043575b600080516020613cd383398151915293608093929180613029575b612fca90610378613b06565b6004870160ff851b19815416905560ff60a01b19815416905560018601918080845416976130038282541699600283019a8b5491613b26565b541696549254169060405192835282015285604082015260026060820152a36001815580f35b50600487015460401c6001600160401b0316421115612fbe565b506040516331a9108f60e11b81526004810185905281816024817f000000000000000000000000000000000000000000000000000000000000000087165afa9081156109f257879161309a575b5082163314612fa3565b929180915083813d83116130e0575b6130b38183613550565b810103126109e657600080516020613cd3833981519152936130d660809461372a565b9192935093613090565b503d6130a9565b5060ff600486015460801c16612f9d565b50346101fe57806003193601126101fe57602060405160048152f35b50346101fe5760203660031901126101fe57604060e091600435815260036020522060ff60018060a01b0391828154169260018201541690600281015460046003830154920154926040519586526020860152604085015260608401526001600160401b0380821660808501528160401c1660a084015260801c16151560c0820152f35b50346101fe57806003193601126101fe57602060405160068152f35b50346101fe576131c336613494565b604051635c975abb60e01b8152909392906001600160a01b03906020907f00000000000000000000000000000000000000000000000000000000000000008316908281600481855afa9081156109f2579161322984926024948a9161043e575015613589565b60405163772dc70760e11b81526001600482015292839182905afa90811561045b579061325d9187916115305750156135c5565b82855260028152604085208415158061341a575b80613408575b8061337b575b61328990610378613694565b80543384821603613367575b5060018101838154981693881684036132fd575b600282018690556001600160a01b03198816841790556132d690426001600160401b03169060040161373e565b60405193845283015260016040830152600080516020613cf383398151915260603393a380f35b8487526004835260408720978854885b81811061331d57505097506132a9565b8061335d60ff60036133338f95613362966134d4565b50015460e01c16156040519061334882613535565b60048252634539313160e01b8a83015261366c565b613766565b61330d565b6001600160a01b0319163317815538613295565b506040516331a9108f60e11b81526004810185905282816024817f000000000000000000000000000000000000000000000000000000000000000088165afa80156109f25787906133d2575b84163314905061327d565b508281813d8311613401575b6133e88183613550565b810103126109e6576133fc6132899161372a565b6133c7565b503d6133de565b5060ff600482015460a01c1615613277565b5082871686526001825260ff604087205416613271565b50346101fe57806003193601126101fe57602060405160088152f35b90503461046657816003193601126104665780600560209252f35b600435906001600160a01b0382168203610a1657565b604435906001600160a01b0382168203610a1657565b6060906003190112610a165760043590602435906044356001600160a01b0381168103610a165790565b6040906003190112610a16576004359060243590565b80548210156134f05760005260206000209060021b0190600090565b634e487b7160e01b600052603260045260246000fd5b6001600160401b03811161272e57604052565b61010081019081106001600160401b0382111761272e57604052565b604081019081106001600160401b0382111761272e57604052565b90601f801991011681019081106001600160401b0382111761272e57604052565b90816020910312610a1657518015158103610a165790565b1561359057565b60405162461bcd60e51b815260206004820152600d60248201526c11db1bd8985b081c185d5cd959609a1b6044820152606490fd5b156135cc57565b60405162461bcd60e51b815260206004820152600f60248201526e119d5b98dd1a5bdb881c185d5cd959608a1b6044820152606490fd5b6040519061361082613535565b60048252634534303160e01b6020830152565b6020808252825181830181905290939260005b82811061365857505060409293506000838284010152601f8019910116010190565b818101860151848201604001528501613636565b156136745750565b60405162461bcd60e51b81529081906136909060048301613623565b0390fd5b604051906136a182613535565b60048252634530303160e01b6020830152565b604051906136c182613535565b60048252634534303360e01b6020830152565b6002600054146136e5576002600055565b60405162461bcd60e51b815260206004820152601f60248201527f5265656e7472616e637947756172643a207265656e7472616e742063616c6c006044820152606490fd5b51906001600160a01b0382168203610a1657565b9067ffffffffffffffff60401b82549160401b169067ffffffffffffffff60401b1916179055565b60001981146137755760010190565b634e487b7160e01b600052601160045260246000fd5b9190820180921161377557565b80549160005b8381106137ab5750505050565b806137b96137d392856134d4565b508360ff60038093015460e01c166137d8575b5050613766565b61379e565b600080516020613cb38339815191526001926137f485896134d4565b50848060a01b0394859101541693600261380e878b6134d4565b500154908261381d888c6134d4565b500154169161382c878b6134d4565b500160ff60e01b1981541690558460005260209160058352604090816000208660005284526000828120558660005260068452816000209060005283528060002061387883825461378b565b905551908152a338836137cc565b805460009291835b82811061389a57505050565b60ff60036138a883856134d4565b50015460e01c16806138e4575b6138c8575b6138c390613766565b61388e565b93506138c360026138d986846134d4565b5001549490506138ba565b508460026138f283856134d4565b500154116138b5565b6040516323b872dd60e01b60208201526001600160a01b03928316602482015292909116604483015260648083019390935291815260a08101918183106001600160401b0384111761272e5761395392604052613955565b565b6040516001600160a01b0390911692919061396f81613535565b6020918282527f5361666545524332303a206c6f772d6c6576656c2063616c6c206661696c6564838301526000808285829451910182895af13d15613a85573d956001600160401b038711613a71576139e9949596604051906139db88601f19601f8401160183613550565b81528093873d92013e613a91565b805190828215928315613a59575b50505015613a025750565b6084906040519062461bcd60e51b82526004820152602a60248201527f5361666545524332303a204552433230206f7065726174696f6e20646964206e6044820152691bdd081cdd58d8d9595960b21b6064820152fd5b613a699350820181019101613571565b3882816139f7565b634e487b7160e01b83526041600452602483fd5b6139e993949591506060915b91929015613af35750815115613aa5575090565b3b15613aae5790565b60405162461bcd60e51b815260206004820152601d60248201527f416464726573733a2063616c6c20746f206e6f6e2d636f6e74726163740000006044820152606490fd5b8251909150156136745750805190602001fd5b60405190613b1382613535565b6004825263229b181960e11b6020830152565b60405163a9059cbb60e01b60208201526001600160a01b03909216602483015260448083019390935291815260808101916001600160401b0383118284101761272e5761395392604052613955565b9190820391821161377557565b60405190613b8f82613535565b60048252632299181960e11b6020830152565b60405190613baf82613535565b60048252634532303560e01b6020830152565b90816060910312610a1657805191613be160406020840151930161372a565b90565b8181029291811591840414171561377557565b6040516301e5eb1d60e41b81526001600160a01b039390916060836004817f000000000000000000000000000000000000000000000000000000000000000089165afa918215611d3257613953956000948594613c7b575b50613c6d612710613c65613c7695969789613be4565b048097613b75565b91169283613b26565b613b26565b613c659550613c76939450612710613ca3613c6d9260603d81116129b7576129a58183613550565b98919050979695505050613c4f56feaf2f02012ea1953fe9293dd4a8bb5194c96792324f9385297c991c2cfeade3d9fb6f353b2eed27c88cc7877d18044a7cedea763b6e5237a2829fb078493fb4b8d4e8f04e88cf92face47e1670d6cccdfaf5bfeba57b313c689ae828f509379f2a26469706673582212208a46a98e9385c6b13bcf1ddae8ece8b9d095e376eb6c420561fba9d1b8df0c9764736f6c63430008140033",
  "linkReferences": {},
  "deployedLinkReferences": {}
}