{
  "_format": "hh-sol-artifact-1",
  "contractName": "RewardsManager",
  "sourceName": "contracts/rewards/RewardsManager.sol",
  "abi": [
    {
      "inputs": [
        {
          "internalType": "address",
          "name": "_lifeToken",
          "type": "address"
        },
        {
          "internalType": "address",
          "name": "admin",
          "type": "address"
        }
      ],
      "stateMutability": "nonpayable",
      "type": "constructor"
    },
    {
      "anonymous": false,
      "inputs": [
        {
          "indexed": true,
          "internalType": "address",
          "name": "buyer",
          "type": "address"
        },
        {
          "indexed": true,
          "internalType": "bytes32",
          "name": "purchaseId",
          "type": "bytes32"
        },
        {
          "indexed": false,
          "internalType": "uint256",
          "name": "purchasePrice",
          "type": "uint256"
        },
        {
          "indexed": false,
          "internalType": "uint256",
          "name": "purchaseReward",
          "type": "uint256"
        },
        {
          "indexed": false,
          "internalType": "uint256",
          "name": "txRebate",
          "type": "uint256"
        }
      ],
      "name": "BuyerRewardAwarded",
      "type": "event"
    },
    {
      "anonymous": false,
      "inputs": [
        {
          "indexed": true,
          "internalType": "address",
          "name": "user",
          "type": "address"
        },
        {
          "indexed": true,
          "internalType": "bytes32",
          "name": "engagementId",
          "type": "bytes32"
        },
        {
          "indexed": false,
          "internalType": "uint256",
          "name": "baseAmount",
          "type": "uint256"
        },
        {
          "indexed": false,
          "internalType": "uint16",
          "name": "bps",
          "type": "uint16"
        },
        {
          "indexed": false,
          "internalType": "uint256",
          "name": "reward",
          "type": "uint256"
        }
      ],
      "name": "EngagementAwarded",
      "type": "event"
    },
    {
      "anonymous": false,
      "inputs": [
        {
          "indexed": true,
          "internalType": "address",
          "name": "homeowner",
          "type": "address"
        },
        {
          "indexed": false,
          "internalType": "uint256",
          "name": "monthIndex",
          "type": "uint256"
        },
        {
          "indexed": false,
          "internalType": "uint256",
          "name": "amount",
          "type": "uint256"
        }
      ],
      "name": "GasRebateAwarded",
      "type": "event"
    },
    {
      "anonymous": false,
      "inputs": [
        {
          "indexed": true,
          "internalType": "address",
          "name": "owner",
          "type": "address"
        },
        {
          "indexed": true,
          "internalType": "bytes32",
          "name": "paymentId",
          "type": "bytes32"
        },
        {
          "indexed": false,
          "internalType": "bool",
          "name": "contributed",
          "type": "bool"
        },
        {
          "indexed": false,
          "internalType": "uint256",
          "name": "rentAmount",
          "type": "uint256"
        },
        {
          "indexed": false,
          "internalType": "uint256",
          "name": "reward",
          "type": "uint256"
        }
      ],
      "name": "OwnerRentTopUpAwarded",
      "type": "event"
    },
    {
      "anonymous": false,
      "inputs": [
        {
          "components": [
            {
              "internalType": "uint16",
              "name": "renterCashbackBps",
              "type": "uint16"
            },
            {
              "internalType": "uint16",
              "name": "ownerRentTopUpBps",
              "type": "uint16"
            },
            {
              "internalType": "uint16",
              "name": "ownerContribTopUpBps",
              "type": "uint16"
            },
            {
              "internalType": "uint16",
              "name": "buyerPurchaseRewardBps",
              "type": "uint16"
            },
            {
              "internalType": "uint16",
              "name": "buyerTxRebateBps",
              "type": "uint16"
            },
            {
              "internalType": "uint16",
              "name": "referralMinBps",
              "type": "uint16"
            },
            {
              "internalType": "uint16",
              "name": "referralMaxBps",
              "type": "uint16"
            },
            {
              "internalType": "uint256",
              "name": "monthlyGasRebate",
              "type": "uint256"
            }
          ],
          "indexed": false,
          "internalType": "struct RewardsManager.Rates",
          "name": "newRates",
          "type": "tuple"
        }
      ],
      "name": "RatesUpdated",
      "type": "event"
    },
    {
      "anonymous": false,
      "inputs": [
        {
          "indexed": true,
          "internalType": "address",
          "name": "referrer",
          "type": "address"
        },
        {
          "indexed": true,
          "internalType": "bytes32",
          "name": "referralId",
          "type": "bytes32"
        },
        {
          "indexed": false,
          "internalType": "uint256",
          "name": "baseAmount",
          "type": "uint256"
        },
        {
          "indexed": false,
          "internalType": "uint16",
          "name": "bps",
          "type": "uint16"
        },
        {
          "indexed": false,
          "internalType": "uint256",
          "name": "reward",
          "type": "uint256"
        }
      ],
      "name": "ReferralAwarded",
      "type": "event"
    },
    {
      "anonymous": false,
      "inputs": [
        {
          "indexed": true,
          "internalType": "address",
          "name": "renter",
          "type": "address"
        },
        {
          "indexed": true,
          "internalType": "bytes32",
          "name": "paymentId",
          "type": "bytes32"
        },
        {
          "indexed": false,
          "internalType": "uint256",
          "name": "rentPaid",
          "type": "uint256"
        },
        {
          "indexed": false,
          "internalType": "uint256",
          "name": "reward",
          "type": "uint256"
        }
      ],
      "name": "RenterCashbackAwarded",
      "type": "event"
    },
    {
      "anonymous": false,
      "inputs": [
        {
          "indexed": true,
          "internalType": "bytes32",
          "name": "role",
          "type": "bytes32"
        },
        {
          "indexed": true,
          "internalType": "bytes32",
          "name": "previousAdminRole",
          "type": "bytes32"
        },
        {
          "indexed": true,
          "internalType": "bytes32",
          "name": "newAdminRole",
          "type": "bytes32"
        }
      ],
      "name": "RoleAdminChanged",
      "type": "event"
    },
    {
      "anonymous": false,
      "inputs": [
        {
          "indexed": true,
          "internalType": "bytes32",
          "name": "role",
          "type": "bytes32"
        },
        {
          "indexed": true,
          "internalType": "address",
          "name": "account",
          "type": "address"
        },
        {
          "indexed": true,
          "internalType": "address",
          "name": "sender",
          "type": "address"
        }
      ],
      "name": "RoleGranted",
      "type": "event"
    },
    {
      "anonymous": false,
      "inputs": [
        {
          "indexed": true,
          "internalType": "bytes32",
          "name": "role",
          "type": "bytes32"
        },
        {
          "indexed": true,
          "internalType": "address",
          "name": "account",
          "type": "address"
        },
        {
          "indexed": true,
          "internalType": "address",
          "name": "sender",
          "type": "address"
        }
      ],
      "name": "RoleRevoked",
      "type": "event"
    },
    {
      "anonymous": false,
      "inputs": [
        {
          "indexed": true,
          "internalType": "address",
          "name": "from",
          "type": "address"
        },
        {
          "indexed": false,
          "internalType": "uint256",
          "name": "amount",
          "type": "uint256"
        }
      ],
      "name": "TokensFunded",
      "type": "event"
    },
    {
      "anonymous": false,
      "inputs": [
        {
          "indexed": true,
          "internalType": "address",
          "name": "to",
          "type": "address"
        },
        {
          "indexed": false,
          "internalType": "uint256",
          "name": "amount",
          "type": "uint256"
        }
      ],
      "name": "TokensRescued",
      "type": "event"
    },
    {
      "inputs": [],
      "name": "BPS_DENOMINATOR",
      "outputs": [
        {
          "internalType": "uint256",
          "name": "",
          "type": "uint256"
        }
      ],
      "stateMutability": "view",
      "type": "function"
    },
    {
      "inputs": [],
      "name": "DEFAULT_ADMIN_ROLE",
      "outputs": [
        {
          "internalType": "bytes32",
          "name": "",
          "type": "bytes32"
        }
      ],
      "stateMutability": "view",
      "type": "function"
    },
    {
      "inputs": [],
      "name": "MONTH_SECONDS",
      "outputs": [
        {
          "internalType": "uint256",
          "name": "",
          "type": "uint256"
        }
      ],
      "stateMutability": "view",
      "type": "function"
    },
    {
      "inputs": [],
      "name": "REWARD_MANAGER",
      "outputs": [
        {
          "internalType": "bytes32",
          "name": "",
          "type": "bytes32"
        }
      ],
      "stateMutability": "view",
      "type": "function"
    },
    {
      "inputs": [
        {
          "internalType": "address",
          "name": "buyer",
          "type": "address"
        },
        {
          "internalType": "uint256",
          "name": "purchasePrice",
          "type": "uint256"
        },
        {
          "internalType": "uint256",
          "name": "txCost",
          "type": "uint256"
        },
        {
          "internalType": "bool",
          "name": "mLifeUsed",
          "type": "bool"
        },
        {
          "internalType": "bytes32",
          "name": "purchaseId",
          "type": "bytes32"
        }
      ],
      "name": "awardBuyerPurchaseReward",
      "outputs": [],
      "stateMutability": "nonpayable",
      "type": "function"
    },
    {
      "inputs": [
        {
          "internalType": "address",
          "name": "user",
          "type": "address"
        },
        {
          "internalType": "uint256",
          "name": "baseAmount",
          "type": "uint256"
        },
        {
          "internalType": "uint16",
          "name": "bps",
          "type": "uint16"
        },
        {
          "internalType": "bytes32",
          "name": "engagementId",
          "type": "bytes32"
        }
      ],
      "name": "awardEngagement",
      "outputs": [],
      "stateMutability": "nonpayable",
      "type": "function"
    },
    {
      "inputs": [
        {
          "internalType": "address",
          "name": "homeowner",
          "type": "address"
        }
      ],
      "name": "awardHomeownerGasRebate",
      "outputs": [],
      "stateMutability": "nonpayable",
      "type": "function"
    },
    {
      "inputs": [
        {
          "internalType": "address",
          "name": "owner",
          "type": "address"
        },
        {
          "internalType": "uint256",
          "name": "rentAmount",
          "type": "uint256"
        },
        {
          "internalType": "bool",
          "name": "contributed",
          "type": "bool"
        },
        {
          "internalType": "bytes32",
          "name": "paymentId",
          "type": "bytes32"
        }
      ],
      "name": "awardOwnerRentTopUp",
      "outputs": [],
      "stateMutability": "nonpayable",
      "type": "function"
    },
    {
      "inputs": [
        {
          "internalType": "address",
          "name": "referrer",
          "type": "address"
        },
        {
          "internalType": "uint256",
          "name": "amount",
          "type": "uint256"
        },
        {
          "internalType": "uint16",
          "name": "bps",
          "type": "uint16"
        },
        {
          "internalType": "bytes32",
          "name": "referralId",
          "type": "bytes32"
        }
      ],
      "name": "awardReferral",
      "outputs": [],
      "stateMutability": "nonpayable",
      "type": "function"
    },
    {
      "inputs": [
        {
          "internalType": "address",
          "name": "renter",
          "type": "address"
        },
        {
          "internalType": "uint256",
          "name": "rentPaid",
          "type": "uint256"
        },
        {
          "internalType": "bytes32",
          "name": "paymentId",
          "type": "bytes32"
        }
      ],
      "name": "awardRenterRentCashback",
      "outputs": [],
      "stateMutability": "nonpayable",
      "type": "function"
    },
    {
      "inputs": [
        {
          "internalType": "bytes32",
          "name": "",
          "type": "bytes32"
        }
      ],
      "name": "claimUsed",
      "outputs": [
        {
          "internalType": "bool",
          "name": "",
          "type": "bool"
        }
      ],
      "stateMutability": "view",
      "type": "function"
    },
    {
      "inputs": [
        {
          "internalType": "uint256",
          "name": "amount",
          "type": "uint256"
        }
      ],
      "name": "fund",
      "outputs": [],
      "stateMutability": "nonpayable",
      "type": "function"
    },
    {
      "inputs": [
        {
          "internalType": "bytes32",
          "name": "role",
          "type": "bytes32"
        }
      ],
      "name": "getRoleAdmin",
      "outputs": [
        {
          "internalType": "bytes32",
          "name": "",
          "type": "bytes32"
        }
      ],
      "stateMutability": "view",
      "type": "function"
    },
    {
      "inputs": [
        {
          "internalType": "bytes32",
          "name": "role",
          "type": "bytes32"
        },
        {
          "internalType": "address",
          "name": "account",
          "type": "address"
        }
      ],
      "name": "grantRole",
      "outputs": [],
      "stateMutability": "nonpayable",
      "type": "function"
    },
    {
      "inputs": [
        {
          "internalType": "bytes32",
          "name": "role",
          "type": "bytes32"
        },
        {
          "internalType": "address",
          "name": "account",
          "type": "address"
        }
      ],
      "name": "hasRole",
      "outputs": [
        {
          "internalType": "bool",
          "name": "",
          "type": "bool"
        }
      ],
      "stateMutability": "view",
      "type": "function"
    },
    {
      "inputs": [
        {
          "internalType": "address",
          "name": "",
          "type": "address"
        }
      ],
      "name": "lastGasRebateMonth",
      "outputs": [
        {
          "internalType": "uint64",
          "name": "",
          "type": "uint64"
        }
      ],
      "stateMutability": "view",
      "type": "function"
    },
    {
      "inputs": [],
      "name": "lifeToken",
      "outputs": [
        {
          "internalType": "contract IERC20",
          "name": "",
          "type": "address"
        }
      ],
      "stateMutability": "view",
      "type": "function"
    },
    {
      "inputs": [],
      "name": "rates",
      "outputs": [
        {
          "internalType": "uint16",
          "name": "renterCashbackBps",
          "type": "uint16"
        },
        {
          "internalType": "uint16",
          "name": "ownerRentTopUpBps",
          "type": "uint16"
        },
        {
          "internalType": "uint16",
          "name": "ownerContribTopUpBps",
          "type": "uint16"
        },
        {
          "internalType": "uint16",
          "name": "buyerPurchaseRewardBps",
          "type": "uint16"
        },
        {
          "internalType": "uint16",
          "name": "buyerTxRebateBps",
          "type": "uint16"
        },
        {
          "internalType": "uint16",
          "name": "referralMinBps",
          "type": "uint16"
        },
        {
          "internalType": "uint16",
          "name": "referralMaxBps",
          "type": "uint16"
        },
        {
          "internalType": "uint256",
          "name": "monthlyGasRebate",
          "type": "uint256"
        }
      ],
      "stateMutability": "view",
      "type": "function"
    },
    {
      "inputs": [
        {
          "internalType": "bytes32",
          "name": "role",
          "type": "bytes32"
        },
        {
          "internalType": "address",
          "name": "account",
          "type": "address"
        }
      ],
      "name": "renounceRole",
      "outputs": [],
      "stateMutability": "nonpayable",
      "type": "function"
    },
    {
      "inputs": [
        {
          "internalType": "address",
          "name": "to",
          "type": "address"
        },
        {
          "internalType": "uint256",
          "name": "amount",
          "type": "uint256"
        }
      ],
      "name": "rescue",
      "outputs": [],
      "stateMutability": "nonpayable",
      "type": "function"
    },
    {
      "inputs": [
        {
          "internalType": "bytes32",
          "name": "role",
          "type": "bytes32"
        },
        {
          "internalType": "address",
          "name": "account",
          "type": "address"
        }
      ],
      "name": "revokeRole",
      "outputs": [],
      "stateMutability": "nonpayable",
      "type": "function"
    },
    {
      "inputs": [
        {
          "components": [
            {
              "internalType": "uint16",
              "name": "renterCashbackBps",
              "type": "uint16"
            },
            {
              "internalType": "uint16",
              "name": "ownerRentTopUpBps",
              "type": "uint16"
            },
            {
              "internalType": "uint16",
              "name": "ownerContribTopUpBps",
              "type": "uint16"
            },
            {
              "internalType": "uint16",
              "name": "buyerPurchaseRewardBps",
              "type": "uint16"
            },
            {
              "internalType": "uint16",
              "name": "buyerTxRebateBps",
              "type": "uint16"
            },
            {
              "internalType": "uint16",
              "name": "referralMinBps",
              "type": "uint16"
            },
            {
              "internalType": "uint16",
              "name": "referralMaxBps",
              "type": "uint16"
            },
            {
              "internalType": "uint256",
              "name": "monthlyGasRebate",
              "type": "uint256"
            }
          ],
          "internalType": "struct RewardsManager.Rates",
          "name": "newRates",
          "type": "tuple"
        }
      ],
      "name": "setRates",
      "outputs": [],
      "stateMutability": "nonpayable",
      "type": "function"
    },
    {
      "inputs": [
        {
          "internalType": "bytes4",
          "name": "interfaceId",
          "type": "bytes4"
        }
      ],
      "name": "supportsInterface",
      "outputs": [
        {
          "internalType": "bool",
          "name": "",
          "type": "bool"
        }
      ],
      "stateMutability": "view",
      "type": "function"
    }
  ],
  "bytecode": "0x60a034620002905762001f166001600160401b03601f38839003908101601f19168401908282118583101762000295578085916040958694855283398101031262000290576200004f83620002ab565b926200005f6020809201620002ab565b600180556001600160a01b03948516949085156200025c57169384156200022857608052600093848052848252838520818652825260ff848620541615620001f0575b7f6393fa734211156fcc8c7dda6b0650f5c731d4c838c1db43445a149aa2f5b6fe90818652858352848620818752835260ff858720541615620001b7575b5050825191610100830190811183821017620001a35783526103e8808352908201526105dc818301526064606082018190526080820181905260a082015260c860c082015268056bc75e2d6310000060e091909101819052600280546001600160701b0319166cc800640064006405dc03e803e817905560035551611c35915081620002c18239608051818181610273015281816103ff015281816105af0152818161065101528181610aa201528181610c6901528181610f7001526110770152f35b634e487b7160e01b85526041600452602485fd5b8186528583528486208187528352848620805460ff19166001179055339160008051602062001ef68339815191528780a43880620000e0565b8480528482528385208186528252838520805460ff1916600117905533818660008051602062001ef68339815191528180a4620000a2565b835162461bcd60e51b815260048101839052600d60248201526c24b73b30b634b21030b236b4b760991b6044820152606490fd5b845162461bcd60e51b815260048101849052600d60248201526c24b73b30b634b2103a37b5b2b760991b6044820152606490fd5b600080fd5b634e487b7160e01b600052604160045260246000fd5b51906001600160a01b0382168203620002905756fe6080604081815260048036101561001557600080fd5b600092833560e01c90816301ffc9a71461110e57508063147c64d014610fcb5780631f2ab3a414610e98578063248a9ca314610e6f578063276e41d414610d405780632f2ff15d14610c9857806330037c1414610c5457806336568abe14610bc257806343f48fbd14610b54578063523b907e14610b135780635932fdba14610ad85780637a4e4ecf14610a5257806391d1485414610a0d57806399e2dd5814610700578063a217fddf146106e5578063c401d1a9146106b9578063ca1d209d146105ee578063ce923852146104f5578063d547741f146104b8578063e1a452181461049b578063eaa3f52f146102ee578063f4a814fd146102cc5763f5d30aeb1461012057600080fd5b346102c85760a03660031901126102c857610139611162565b90602435906064359384151585036102c457608435946101576111cc565b61015f611906565b815160208101907feeccd0cdb44235955432f589255f62b95683f64165b40b022d338b8009cf79b68252878482015283815261019a81611631565b5190209485885260056020526101b660ff848a20541615611b92565b6001600160a01b03811695861515806102bb575b6101d390611bc8565b88526005602052828820600160ff198254161790556002546127109061ffff82610202828460301c168a611741565b0494156102b15761021891861c16604435611741565b04935b8483019081841161029e5750917f457708147d833d4642e85f5f2445de20fd796678c0de422ac520d963c2a57e65959391836060969461026d575b505081519384526020840152820152a36001805580f35b610297917f0000000000000000000000000000000000000000000000000000000000000000611b40565b3880610256565b634e487b7160e01b8a5260119052602489fd5b505050879361021b565b508515156101ca565b8580fd5b8280fd5b5050346102ea57816003193601126102ea576020905162278d008152f35b5080fd5b508290346102ea576102ff36611193565b939261030c9291926111cc565b610314611906565b865160208101907f4af58918e2c6f17f8b6da7260d8669fa63150ffd279395662a723476f776f76a8252868982015288815261034f81611631565b51902093848752600560205261036b60ff898920541615611b92565b6001600160a01b0382169485151580610492575b61038890611bc8565b6002549161ffff9283871693808260501c168510159182610482575b50501561044c575091886104236127106103fa610442957fcd08aa2eb4f2e0f98ff27e475f2d1d447ecbe8a09d9ddd7b083ce9d06336a60e9998978d526005602052848d20600160ff1982541617905587611741565b0480937f0000000000000000000000000000000000000000000000000000000000000000611b40565b519384938461ffff604092959493606083019683521660208201520152565b0390a36001805580f35b60649060208b519162461bcd60e51b8352820152601060248201526f627073206f7574206f662072616e676560801b6044820152fd5b60601c1684111590508b806103a4565b5083151561037f565b5050346102ea57816003193601126102ea57602090516127108152f35b5090346102c857806003193601126102c8576104f291356104ed60016104dc61117d565b938387528660205286200154611505565b6116cd565b80f35b5050346102ea5760603660031901126102ea57610510611162565b7fe4ab20f13bae99365c2c383ea31fb5cd0649c4f98ec7d1ab2b6bc7de74d3ee9f60243592604435936105416111cc565b610549611906565b848652600560205261056160ff838820541615611b92565b6001600160a01b03841693841515806105e5575b61057e90611bc8565b8587526005602052828720600160ff198254161790556105d36127106105aa61ffff6002541685611741565b0480927f0000000000000000000000000000000000000000000000000000000000000000611b40565b82519182526020820152a36001805580f35b50811515610575565b509190346102ea5760203660031901126102ea5782359061060d611906565b80516323b872dd60e01b60208201523360248201523060448201526064808201849052815260a0810167ffffffffffffffff8111828210176106a6578252610675907f000000000000000000000000000000000000000000000000000000000000000061195c565b519081527f663f69b96687304e9083dd91fbd2465d22ff0878c23f10318085f276d32fc63360203392a26001805580f35b634e487b7160e01b855260418652602485fd5b50346102c85760203660031901126102c8578160209360ff923581526005855220541690519015158152f35b5050346102ea57816003193601126102ea5751908152602090f35b50346102c8576101009081600319360112610a095761071d6113e1565b61072561188f565b9261ffff9384806107346118a0565b169116116109d65761271080856107496118b1565b16116109a65780856107596118c2565b16116109775780856107696118d3565b16116109405780856107796118e4565b161161091157846107886118f5565b16116108e557836107976118b1565b166002549063ffff00006107a96118c2565b60101b166107b56118d3565b67ffff0000000000006107c66118e4565b60301b169065ffff0000000069ffff00000000000000006107e56118f5565b881b169361ffff60501b6107f761188f565b60501b169561ffff60601b61080a6118a0565b60601b16976dffffffffffffffffffffffffffff191617179160201b16171717171760025560e4359081600355805192358581168091036108e15783526024358581168091036108e1576020840152604435908582168092036108e1578301526064358481168091036102c45760608301526084358481168091036102c457608083015260a4358481168091036102c45760a083015260c4359384168094036108dd577f04adad6d03e6092f075454f33a19c86d4829c4706daa49c22c1dcf1290b2f8599360c083015260e0820152a180f35b8480fd5b8680fd5b906020606492519162461bcd60e51b8352820152600660248201526574782062707360d01b6044820152fd5b815162461bcd60e51b8152602081850152600960248201526862757965722062707360b81b6044820152606490fd5b815162461bcd60e51b815260208185015260116024820152706f776e657220636f6e747269622062707360781b6044820152606490fd5b815162461bcd60e51b815260208185015260096024820152686f776e65722062707360b81b6044820152606490fd5b815162461bcd60e51b8152602081850152600a60248201526972656e7465722062707360b01b6044820152606490fd5b906020606492519162461bcd60e51b8352820152600d60248201526c726566206270732072616e676560981b6044820152fd5b8380fd5b50346102c857816003193601126102c8578160209360ff92610a2d61117d565b903582528186528282206001600160a01b039091168252855220549151911615158152f35b5050346102ea57806003193601126102ea577f68f67de89e96b13a3ea058af5fd44cc125efceb528482d539c7b43db2faa066e6020610a8f611162565b60243593610a9b6113e1565b610ac685837f0000000000000000000000000000000000000000000000000000000000000000611b40565b519384526001600160a01b031692a280f35b5050346102ea57816003193601126102ea57602090517f6393fa734211156fcc8c7dda6b0650f5c731d4c838c1db43445a149aa2f5b6fe8152f35b50346102c85760203660031901126102c85760209267ffffffffffffffff918391906001600160a01b03610b45611162565b16825285522054169051908152f35b5050346102ea57816003193601126102ea5761010090600254600354908083519361ffff9283918282168752828260101c166020880152828260201c1681880152828260301c1660608801521c166080850152818160501c1660a085015260601c1660c083015260e0820152f35b508290346102ea57826003193601126102ea57610bdd61117d565b90336001600160a01b03831603610bf957906104f291356116cd565b608490602085519162461bcd60e51b8352820152602f60248201527f416363657373436f6e74726f6c3a2063616e206f6e6c792072656e6f756e636560448201526e103937b632b9903337b91039b2b63360891b6064820152fd5b5050346102ea57816003193601126102ea57517f00000000000000000000000000000000000000000000000000000000000000006001600160a01b03168152602090f35b50346102c857816003193601126102c8573590610cb361117d565b9082845283602052610cca60018286200154611505565b82845260208481528185206001600160a01b039093168086529290528084205460ff1615610cf6578380f35b828452836020528084208285526020528320600160ff1982541617905533917f2f8788117e7eff1d82e926ec794901d17c78024a50270940304540a733656f0d8480a43880808380f35b508290346102ea57610d5136611193565b9392610d5e9291926111cc565b610d66611906565b865160208101907f9360f466c20ebbc2ec6afaf5899a0d3ffc354a99ee09648dbb24eb86aebeb3bf82528689820152888152610da181611631565b519020938487526005602052610dbd60ff898920541615611b92565b6001600160a01b0382169485151580610e66575b610dda90611bc8565b61ffff85169061271092838311610e385750610423610442936103fa7f8db8ff546542122882fa16785ed58ed49a8066d8c4343cbc400163ad62257512989796948d948d526005602052848d20600160ff1982541617905587611741565b60649060208c519162461bcd60e51b835282015260086024820152670c4e0e640d0d2ced60c31b6044820152fd5b50831515610dd1565b50346102c85760203660031901126102c857816020936001923581528085522001549051908152f35b5050346102ea5760803660031901126102ea57610eb3611162565b9060243591604435918215158084036102c4577f66d59e6b24c8d43b3e4b087dcbdd2b1a2792230ece7047f6fe3ece5a4687a7959260609260643596610ef76111cc565b610eff611906565b8789526005602052610f1760ff838b20541615611b92565b6001600160a01b0383169687151580610fc2575b610f3490611bc8565b888a526005602052828a20805460ff1916600117905515610fa957610f94612710610f6b61ffff8060025460201c165b1684611741565b0480947f0000000000000000000000000000000000000000000000000000000000000000611b40565b81519384526020840152820152a36001805580f35b610f94612710610f6b61ffff8060025460101c16610f64565b50811515610f2b565b509190346102ea57602090816003193601126102c857610fe9611162565b93610ff26111cc565b610ffa611906565b6001600160a01b0385169283156110e25767ffffffffffffffff918262278d004204168093868852828452858820541610156110af57859661109b91867fa1741b7033e1df702b38bd268c58a6a314df46e81433ed349a4f8e72acdb9f5997985283528488208467ffffffffffffffff19825416179055600354907f0000000000000000000000000000000000000000000000000000000000000000611b40565b600354908351928352820152a26001805580f35b60649184519162461bcd60e51b8352820152600f60248201526e185b1c9958591e4818db185a5b5959608a1b6044820152fd5b606492519162461bcd60e51b835282015260096024820152683d32b9379030b2323960b91b6044820152fd5b925050346102c85760203660031901126102c8573563ffffffff60e01b81168091036102c85760209250637965db0b60e01b8114908115611151575b5015158152f35b6301ffc9a760e01b1490503861114a565b600435906001600160a01b038216820361117857565b600080fd5b602435906001600160a01b038216820361117857565b6080906003190112611178576004356001600160a01b038116810361117857906024359060443561ffff81168103611178579060643590565b3360009081527ebe5eba7a054496bec43e02beb5f3aa0464f0a7ef5f913ef8844994b81149ba60209081526040808320549092907f6393fa734211156fcc8c7dda6b0650f5c731d4c838c1db43445a149aa2f5b6fe9060ff16156112305750505050565b61123933611791565b84519161124583611663565b604283528483019360603686378351156113cd57603085538351906001918210156113cd5790607860218601536041915b81831161135f5750505061131d576112cb938593611303936112f46048946113199951988576020b1b1b2b9b9a1b7b73a3937b61d1030b1b1b7bab73a1604d1b8b97880152825192839160378901910161160e565b8401917001034b99036b4b9b9b4b733903937b6329607d1b60378401525180938684019061160e565b0103602881018552018361167f565b5162461bcd60e51b8152918291600483016116a1565b0390fd5b60648486519062461bcd60e51b825280600483015260248201527f537472696e67733a20686578206c656e67746820696e73756666696369656e746044820152fd5b909192600f811660108110156113b9576f181899199a1a9b1b9c1cb0b131b232b360811b901a61138f858861176a565b5360041c9280156113a557600019019190611276565b634e487b7160e01b82526011600452602482fd5b634e487b7160e01b83526032600452602483fd5b634e487b7160e01b81526032600452602490fd5b3360009081527fad3228b676f7d3cd4284a5443f17f1962b36e491b30a40b2405849e597ba5fb5602090815260408083205490929060ff161561142357505050565b61142c33611791565b8351908261143983611663565b604283528483019360603686378351156113cd57603085538351906001918210156113cd5790607860218601536041915b8183116114bf5750505061131d576112cb938593611303936112f46048946113199951988576020b1b1b2b9b9a1b7b73a3937b61d1030b1b1b7bab73a1604d1b8b97880152825192839160378901910161160e565b909192600f811660108110156113b9576f181899199a1a9b1b9c1cb0b131b232b360811b901a6114ef858861176a565b5360041c9280156113a55760001901919061146a565b6000818152602090808252604092838220338352835260ff84832054161561152d5750505050565b61153633611791565b84519161154283611663565b604283528483019360603686378351156113cd57603085538351906001918210156113cd5790607860218601536041915b8183116115c85750505061131d576112cb938593611303936112f46048946113199951988576020b1b1b2b9b9a1b7b73a3937b61d1030b1b1b7bab73a1604d1b8b97880152825192839160378901910161160e565b909192600f811660108110156113b9576f181899199a1a9b1b9c1cb0b131b232b360811b901a6115f8858861176a565b5360041c9280156113a557600019019190611573565b60005b8381106116215750506000910152565b8181015183820152602001611611565b6060810190811067ffffffffffffffff82111761164d57604052565b634e487b7160e01b600052604160045260246000fd5b6080810190811067ffffffffffffffff82111761164d57604052565b90601f8019910116810190811067ffffffffffffffff82111761164d57604052565b604091602082526116c1815180928160208601526020868601910161160e565b601f01601f1916010190565b9060009180835282602052604083209160018060a01b03169182845260205260ff6040842054166116fd57505050565b80835282602052604083208284526020526040832060ff1981541690557ff6391f5c32d9c69d2a47ea670b442974b53935d1edc7fd64eb21e047a839171b339380a4565b8181029291811591840414171561175457565b634e487b7160e01b600052601160045260246000fd5b90815181101561177b570160200190565b634e487b7160e01b600052603260045260246000fd5b6040519061179e82611631565b602a825260208201604036823782511561177b5760309053815160019081101561177b57607860218401536029905b8082116118215750506117dd5790565b606460405162461bcd60e51b815260206004820152602060248201527f537472696e67733a20686578206c656e67746820696e73756666696369656e746044820152fd5b9091600f8116601081101561187a576f181899199a1a9b1b9c1cb0b131b232b360811b901a611850848661176a565b5360041c9180156118655760001901906117cd565b60246000634e487b7160e01b81526011600452fd5b60246000634e487b7160e01b81526032600452fd5b60a43561ffff811681036111785790565b60c43561ffff811681036111785790565b60043561ffff811681036111785790565b60243561ffff811681036111785790565b60443561ffff811681036111785790565b60643561ffff811681036111785790565b60843561ffff811681036111785790565b600260015414611917576002600155565b60405162461bcd60e51b815260206004820152601f60248201527f5265656e7472616e637947756172643a207265656e7472616e742063616c6c006044820152606490fd5b60018060a01b0316906040516040810167ffffffffffffffff908281108282111761164d576040526020938483527f5361666545524332303a206c6f772d6c6576656c2063616c6c206661696c6564858401526000808587829751910182855af1903d15611aa4573d928311611a9057906119f7939291604051926119ea88601f19601f840116018561167f565b83523d868885013e611aaf565b805191821591848315611a69575b505050905015611a125750565b6084906040519062461bcd60e51b82526004820152602a60248201527f5361666545524332303a204552433230206f7065726174696f6e20646964206e6044820152691bdd081cdd58d8d9595960b21b6064820152fd5b9193818094500103126102ea57820151908115158203611a8d575080388084611a05565b80fd5b634e487b7160e01b85526041600452602485fd5b906119f79392506060915b91929015611b115750815115611ac3575090565b3b15611acc5790565b60405162461bcd60e51b815260206004820152601d60248201527f416464726573733a2063616c6c20746f206e6f6e2d636f6e74726163740000006044820152606490fd5b825190915015611b245750805190602001fd5b60405162461bcd60e51b815290819061131990600483016116a1565b60405163a9059cbb60e01b60208201526001600160a01b039092166024830152604480830193909352918152608081019167ffffffffffffffff83118284101761164d57611b909260405261195c565b565b15611b9957565b60405162461bcd60e51b815260206004820152600760248201526618db185a5b595960ca1b6044820152606490fd5b15611bcf57565b60405162461bcd60e51b8152602060048201526008602482015267626164206172677360c01b6044820152606490fdfea2646970667358221220ecde840d1f45a0dc75aaa9476369478d87e42bc7e975dc9bd97544a45c9940f164736f6c634300081400332f8788117e7eff1d82e926ec794901d17c78024a50270940304540a733656f0d",
  "linkReferences": {},
  "deployedLinkReferences": {}
}