{
  "_format": "hh-sol-artifact-1",
  "contractName": "NFTm",
  "sourceName": "contracts/nft/NFTm.sol",
  "abi": [
    {
      "inputs": [
        {
          "internalType": "address",
          "name": "adminControlAddress",
          "type": "address"
        },
        {
          "internalType": "address",
          "name": "initialOwner",
          "type": "address"
        }
      ],
      "stateMutability": "nonpayable",
      "type": "constructor"
    },
    {
      "anonymous": false,
      "inputs": [
        {
          "indexed": true,
          "internalType": "address",
          "name": "owner",
          "type": "address"
        },
        {
          "indexed": true,
          "internalType": "address",
          "name": "approved",
          "type": "address"
        },
        {
          "indexed": true,
          "internalType": "uint256",
          "name": "tokenId",
          "type": "uint256"
        }
      ],
      "name": "Approval",
      "type": "event"
    },
    {
      "anonymous": false,
      "inputs": [
        {
          "indexed": true,
          "internalType": "address",
          "name": "owner",
          "type": "address"
        },
        {
          "indexed": true,
          "internalType": "address",
          "name": "operator",
          "type": "address"
        },
        {
          "indexed": false,
          "internalType": "bool",
          "name": "approved",
          "type": "bool"
        }
      ],
      "name": "ApprovalForAll",
      "type": "event"
    },
    {
      "anonymous": false,
      "inputs": [
        {
          "indexed": false,
          "internalType": "address",
          "name": "newController",
          "type": "address"
        }
      ],
      "name": "ControllershipTransferred",
      "type": "event"
    },
    {
      "anonymous": false,
      "inputs": [
        {
          "indexed": true,
          "internalType": "uint256",
          "name": "tokenId",
          "type": "uint256"
        }
      ],
      "name": "LegalRecordUpdated",
      "type": "event"
    },
    {
      "anonymous": false,
      "inputs": [
        {
          "indexed": true,
          "internalType": "uint256",
          "name": "tokenId",
          "type": "uint256"
        }
      ],
      "name": "MetadataUpdated",
      "type": "event"
    },
    {
      "anonymous": false,
      "inputs": [
        {
          "indexed": true,
          "internalType": "address",
          "name": "previousOwner",
          "type": "address"
        },
        {
          "indexed": true,
          "internalType": "address",
          "name": "newOwner",
          "type": "address"
        }
      ],
      "name": "OwnershipTransferred",
      "type": "event"
    },
    {
      "anonymous": false,
      "inputs": [
        {
          "indexed": true,
          "internalType": "address",
          "name": "from",
          "type": "address"
        },
        {
          "indexed": true,
          "internalType": "address",
          "name": "to",
          "type": "address"
        },
        {
          "indexed": true,
          "internalType": "uint256",
          "name": "tokenId",
          "type": "uint256"
        }
      ],
      "name": "Transfer",
      "type": "event"
    },
    {
      "inputs": [
        {
          "internalType": "address",
          "name": "minter",
          "type": "address"
        }
      ],
      "name": "addApprovedMinter",
      "outputs": [],
      "stateMutability": "nonpayable",
      "type": "function"
    },
    {
      "inputs": [],
      "name": "adminController",
      "outputs": [
        {
          "internalType": "contract IAdminControl",
          "name": "",
          "type": "address"
        }
      ],
      "stateMutability": "view",
      "type": "function"
    },
    {
      "inputs": [
        {
          "internalType": "address",
          "name": "to",
          "type": "address"
        },
        {
          "internalType": "uint256",
          "name": "tokenId",
          "type": "uint256"
        }
      ],
      "name": "approve",
      "outputs": [],
      "stateMutability": "nonpayable",
      "type": "function"
    },
    {
      "inputs": [
        {
          "internalType": "address",
          "name": "owner",
          "type": "address"
        }
      ],
      "name": "balanceOf",
      "outputs": [
        {
          "internalType": "uint256",
          "name": "",
          "type": "uint256"
        }
      ],
      "stateMutability": "view",
      "type": "function"
    },
    {
      "inputs": [
        {
          "internalType": "uint256",
          "name": "tokenId",
          "type": "uint256"
        }
      ],
      "name": "getApproved",
      "outputs": [
        {
          "internalType": "address",
          "name": "",
          "type": "address"
        }
      ],
      "stateMutability": "view",
      "type": "function"
    },
    {
      "inputs": [
        {
          "internalType": "address",
          "name": "owner",
          "type": "address"
        },
        {
          "internalType": "address",
          "name": "operator",
          "type": "address"
        }
      ],
      "name": "isApprovedForAll",
      "outputs": [
        {
          "internalType": "bool",
          "name": "",
          "type": "bool"
        }
      ],
      "stateMutability": "view",
      "type": "function"
    },
    {
      "inputs": [
        {
          "internalType": "address",
          "name": "account",
          "type": "address"
        }
      ],
      "name": "isApprovedMinter",
      "outputs": [
        {
          "internalType": "bool",
          "name": "",
          "type": "bool"
        }
      ],
      "stateMutability": "view",
      "type": "function"
    },
    {
      "inputs": [
        {
          "internalType": "uint256",
          "name": "",
          "type": "uint256"
        }
      ],
      "name": "legalRecords",
      "outputs": [
        {
          "internalType": "string",
          "name": "LLCNumber",
          "type": "string"
        },
        {
          "internalType": "string",
          "name": "jurisdiction",
          "type": "string"
        },
        {
          "internalType": "uint256",
          "name": "registryDate",
          "type": "uint256"
        }
      ],
      "stateMutability": "view",
      "type": "function"
    },
    {
      "inputs": [
        {
          "internalType": "address",
          "name": "to",
          "type": "address"
        },
        {
          "internalType": "string",
          "name": "tokenURI_",
          "type": "string"
        },
        {
          "components": [
            {
              "internalType": "string",
              "name": "LLCNumber",
              "type": "string"
            },
            {
              "internalType": "string",
              "name": "jurisdiction",
              "type": "string"
            },
            {
              "internalType": "uint256",
              "name": "registryDate",
              "type": "uint256"
            }
          ],
          "internalType": "struct NFTm.LegalInfo",
          "name": "legalInfo",
          "type": "tuple"
        }
      ],
      "name": "mintPropertyNFT",
      "outputs": [
        {
          "internalType": "uint256",
          "name": "",
          "type": "uint256"
        }
      ],
      "stateMutability": "nonpayable",
      "type": "function"
    },
    {
      "inputs": [],
      "name": "name",
      "outputs": [
        {
          "internalType": "string",
          "name": "",
          "type": "string"
        }
      ],
      "stateMutability": "view",
      "type": "function"
    },
    {
      "inputs": [],
      "name": "owner",
      "outputs": [
        {
          "internalType": "address",
          "name": "",
          "type": "address"
        }
      ],
      "stateMutability": "view",
      "type": "function"
    },
    {
      "inputs": [
        {
          "internalType": "uint256",
          "name": "tokenId",
          "type": "uint256"
        }
      ],
      "name": "ownerOf",
      "outputs": [
        {
          "internalType": "address",
          "name": "",
          "type": "address"
        }
      ],
      "stateMutability": "view",
      "type": "function"
    },
    {
      "inputs": [],
      "name": "renounceOwnership",
      "outputs": [],
      "stateMutability": "nonpayable",
      "type": "function"
    },
    {
      "inputs": [
        {
          "internalType": "address",
          "name": "minter",
          "type": "address"
        }
      ],
      "name": "revokeMinter",
      "outputs": [],
      "stateMutability": "nonpayable",
      "type": "function"
    },
    {
      "inputs": [
        {
          "internalType": "address",
          "name": "from",
          "type": "address"
        },
        {
          "internalType": "address",
          "name": "to",
          "type": "address"
        },
        {
          "internalType": "uint256",
          "name": "tokenId",
          "type": "uint256"
        }
      ],
      "name": "safeTransferFrom",
      "outputs": [],
      "stateMutability": "nonpayable",
      "type": "function"
    },
    {
      "inputs": [
        {
          "internalType": "address",
          "name": "from",
          "type": "address"
        },
        {
          "internalType": "address",
          "name": "to",
          "type": "address"
        },
        {
          "internalType": "uint256",
          "name": "tokenId",
          "type": "uint256"
        },
        {
          "internalType": "bytes",
          "name": "data",
          "type": "bytes"
        }
      ],
      "name": "safeTransferFrom",
      "outputs": [],
      "stateMutability": "nonpayable",
      "type": "function"
    },
    {
      "inputs": [
        {
          "internalType": "address",
          "name": "newController",
          "type": "address"
        }
      ],
      "name": "setAdminController",
      "outputs": [],
      "stateMutability": "nonpayable",
      "type": "function"
    },
    {
      "inputs": [
        {
          "internalType": "address",
          "name": "operator",
          "type": "address"
        },
        {
          "internalType": "bool",
          "name": "approved",
          "type": "bool"
        }
      ],
      "name": "setApprovalForAll",
      "outputs": [],
      "stateMutability": "nonpayable",
      "type": "function"
    },
    {
      "inputs": [
        {
          "internalType": "bytes4",
          "name": "interfaceId",
          "type": "bytes4"
        }
      ],
      "name": "supportsInterface",
      "outputs": [
        {
          "internalType": "bool",
          "name": "",
          "type": "bool"
        }
      ],
      "stateMutability": "view",
      "type": "function"
    },
    {
      "inputs": [],
      "name": "symbol",
      "outputs": [
        {
          "internalType": "string",
          "name": "",
          "type": "string"
        }
      ],
      "stateMutability": "view",
      "type": "function"
    },
    {
      "inputs": [
        {
          "internalType": "uint256",
          "name": "tokenId",
          "type": "uint256"
        }
      ],
      "name": "tokenURI",
      "outputs": [
        {
          "internalType": "string",
          "name": "",
          "type": "string"
        }
      ],
      "stateMutability": "view",
      "type": "function"
    },
    {
      "inputs": [],
      "name": "totalSupply",
      "outputs": [
        {
          "internalType": "uint256",
          "name": "",
          "type": "uint256"
        }
      ],
      "stateMutability": "view",
      "type": "function"
    },
    {
      "inputs": [
        {
          "internalType": "address",
          "name": "from",
          "type": "address"
        },
        {
          "internalType": "address",
          "name": "to",
          "type": "address"
        },
        {
          "internalType": "uint256",
          "name": "tokenId",
          "type": "uint256"
        }
      ],
      "name": "transferFrom",
      "outputs": [],
      "stateMutability": "nonpayable",
      "type": "function"
    },
    {
      "inputs": [
        {
          "internalType": "address",
          "name": "newOwner",
          "type": "address"
        }
      ],
      "name": "transferOwnership",
      "outputs": [],
      "stateMutability": "nonpayable",
      "type": "function"
    },
    {
      "inputs": [
        {
          "internalType": "uint256",
          "name": "tokenId",
          "type": "uint256"
        },
        {
          "components": [
            {
              "internalType": "string",
              "name": "LLCNumber",
              "type": "string"
            },
            {
              "internalType": "string",
              "name": "jurisdiction",
              "type": "string"
            },
            {
              "internalType": "uint256",
              "name": "registryDate",
              "type": "uint256"
            }
          ],
          "internalType": "struct NFTm.LegalInfo",
          "name": "newInfo",
          "type": "tuple"
        }
      ],
      "name": "updateLegalRecord",
      "outputs": [],
      "stateMutability": "nonpayable",
      "type": "function"
    }
  ],
  "bytecode": "0x60806040523480156200001157600080fd5b506040516200440838038062004408833981810160405281019062000037919062000283565b6040518060400160405280600d81526020017f5265616c4573746174654e4654000000000000000000000000000000000000008152506040518060400160405280600481526020017f524e4654000000000000000000000000000000000000000000000000000000008152508160009081620000b4919062000544565b508060019081620000c6919062000544565b505050620000e9620000dd6200014b60201b60201c565b6200015360201b60201c565b600160078190555062000102816200015360201b60201c565b81600960006101000a81548173ffffffffffffffffffffffffffffffffffffffff021916908373ffffffffffffffffffffffffffffffffffffffff16021790555050506200062b565b600033905090565b6000600660009054906101000a900473ffffffffffffffffffffffffffffffffffffffff16905081600660006101000a81548173ffffffffffffffffffffffffffffffffffffffff021916908373ffffffffffffffffffffffffffffffffffffffff1602179055508173ffffffffffffffffffffffffffffffffffffffff168173ffffffffffffffffffffffffffffffffffffffff167f8be0079c531659141344cd1fd0a4f28419497f9722a3daafe3b4186f6b6457e060405160405180910390a35050565b600080fd5b600073ffffffffffffffffffffffffffffffffffffffff82169050919050565b60006200024b826200021e565b9050919050565b6200025d816200023e565b81146200026957600080fd5b50565b6000815190506200027d8162000252565b92915050565b600080604083850312156200029d576200029c62000219565b5b6000620002ad858286016200026c565b9250506020620002c0858286016200026c565b9150509250929050565b600081519050919050565b7f4e487b7100000000000000000000000000000000000000000000000000000000600052604160045260246000fd5b7f4e487b7100000000000000000000000000000000000000000000000000000000600052602260045260246000fd5b600060028204905060018216806200034c57607f821691505b60208210810362000362576200036162000304565b5b50919050565b60008190508160005260206000209050919050565b60006020601f8301049050919050565b600082821b905092915050565b600060088302620003cc7fffffffffffffffffffffffffffffffffffffffffffffffffffffffffffffffff826200038d565b620003d886836200038d565b95508019841693508086168417925050509392505050565b6000819050919050565b6000819050919050565b6000620004256200041f6200041984620003f0565b620003fa565b620003f0565b9050919050565b6000819050919050565b620004418362000404565b6200045962000450826200042c565b8484546200039a565b825550505050565b600090565b6200047062000461565b6200047d81848462000436565b505050565b5b81811015620004a5576200049960008262000466565b60018101905062000483565b5050565b601f821115620004f457620004be8162000368565b620004c9846200037d565b81016020851015620004d9578190505b620004f1620004e8856200037d565b83018262000482565b50505b505050565b600082821c905092915050565b60006200051960001984600802620004f9565b1980831691505092915050565b600062000534838362000506565b9150826002028217905092915050565b6200054f82620002ca565b67ffffffffffffffff8111156200056b576200056a620002d5565b5b62000577825462000333565b62000584828285620004a9565b600060209050601f831160018114620005bc5760008415620005a7578287015190505b620005b3858262000526565b86555062000623565b601f198416620005cc8662000368565b60005b82811015620005f657848901518255600182019150602085019450602081019050620005cf565b8683101562000616578489015162000612601f89168262000506565b8355505b6001600288020188555050505b505050505050565b613dcd806200063b6000396000f3fe608060405234801561001057600080fd5b50600436106101735760003560e01c80638da5cb5b116100de578063bee4d10611610097578063d1d4123911610071578063d1d4123914610448578063e985e9c51461047a578063f2fde38b146104aa578063f7e9e1ac146104c657610173565b8063bee4d106146103e0578063c87b56dd146103fc578063cfbd48851461042c57610173565b80638da5cb5b1461031e578063950c5d031461033c57806395d89b411461035a5780639962e99114610378578063a22cb465146103a8578063b88d4fde146103c457610173565b80632d14e7fb116101305780632d14e7fb1461024c5780633a3d146f1461026857806342842e0e146102985780636352211e146102b457806370a08231146102e4578063715018a61461031457610173565b806301ffc9a71461017857806306fdde03146101a8578063081812fc146101c6578063095ea7b3146101f657806318160ddd1461021257806323b872dd14610230575b600080fd5b610192600480360381019061018d9190612362565b6104e2565b60405161019f91906123aa565b60405180910390f35b6101b06105c4565b6040516101bd9190612455565b60405180910390f35b6101e060048036038101906101db91906124ad565b610656565b6040516101ed919061251b565b60405180910390f35b610210600480360381019061020b9190612562565b61069c565b005b61021a6107b3565b60405161022791906125b1565b60405180910390f35b61024a600480360381019061024591906125cc565b6107c4565b005b6102666004803603810190610261919061261f565b610824565b005b610282600480360381019061027d919061261f565b6108a7565b60405161028f91906123aa565b60405180910390f35b6102b260048036038101906102ad91906125cc565b6108fd565b005b6102ce60048036038101906102c991906124ad565b61091d565b6040516102db919061251b565b60405180910390f35b6102fe60048036038101906102f9919061261f565b6109a3565b60405161030b91906125b1565b60405180910390f35b61031c610a5a565b005b610326610a6e565b604051610333919061251b565b60405180910390f35b610344610a98565b60405161035191906126ab565b60405180910390f35b610362610abe565b60405161036f9190612455565b60405180910390f35b610392600480360381019061038d919061281f565b610b50565b60405161039f91906125b1565b60405180910390f35b6103c260048036038101906103bd91906128d6565b610d5f565b005b6103de60048036038101906103d991906129b7565b610d75565b005b6103fa60048036038101906103f5919061261f565b610dd7565b005b610416600480360381019061041191906124ad565b610f0d565b6040516104239190612455565b60405180910390f35b6104466004803603810190610441919061261f565b610f90565b005b610462600480360381019061045d91906124ad565b6110bd565b60405161047193929190612a3a565b60405180910390f35b610494600480360381019061048f9190612a7f565b6111f7565b6040516104a191906123aa565b60405180910390f35b6104c460048036038101906104bf919061261f565b61128b565b005b6104e060048036038101906104db9190612abf565b61130e565b005b60007f80ac58cd000000000000000000000000000000000000000000000000000000007bffffffffffffffffffffffffffffffffffffffffffffffffffffffff1916827bffffffffffffffffffffffffffffffffffffffffffffffffffffffff191614806105ad57507f5b5e139f000000000000000000000000000000000000000000000000000000007bffffffffffffffffffffffffffffffffffffffffffffffffffffffff1916827bffffffffffffffffffffffffffffffffffffffffffffffffffffffff1916145b806105bd57506105bc82611446565b5b9050919050565b6060600080546105d390612b4a565b80601f01602080910402602001604051908101604052809291908181526020018280546105ff90612b4a565b801561064c5780601f106106215761010080835404028352916020019161064c565b820191906000526020600020905b81548152906001019060200180831161062f57829003601f168201915b5050505050905090565b6000610661826114b0565b6004600083815260200190815260200160002060009054906101000a900473ffffffffffffffffffffffffffffffffffffffff169050919050565b60006106a78261091d565b90508073ffffffffffffffffffffffffffffffffffffffff168373ffffffffffffffffffffffffffffffffffffffff1603610717576040517f08c379a000000000000000000000000000000000000000000000000000000000815260040161070e90612bed565b60405180910390fd5b8073ffffffffffffffffffffffffffffffffffffffff166107366114fb565b73ffffffffffffffffffffffffffffffffffffffff16148061076557506107648161075f6114fb565b6111f7565b5b6107a4576040517f08c379a000000000000000000000000000000000000000000000000000000000815260040161079b90612c7f565b60405180910390fd5b6107ae8383611503565b505050565b60006107bf60086115bc565b905090565b6107d56107cf6114fb565b826115ca565b610814576040517f08c379a000000000000000000000000000000000000000000000000000000000815260040161080b90612d11565b60405180910390fd5b61081f83838361165f565b505050565b61082c611958565b80600960006101000a81548173ffffffffffffffffffffffffffffffffffffffff021916908373ffffffffffffffffffffffffffffffffffffffff1602179055507f7d88dd45d25950332b9522f79190bd739a55136ebdb98da8d4420fb2a2bd86e08160405161089c919061251b565b60405180910390a150565b6000600c60008373ffffffffffffffffffffffffffffffffffffffff1673ffffffffffffffffffffffffffffffffffffffff16815260200190815260200160002060009054906101000a900460ff169050919050565b61091883838360405180602001604052806000815250610d75565b505050565b600080610929836119d6565b9050600073ffffffffffffffffffffffffffffffffffffffff168173ffffffffffffffffffffffffffffffffffffffff160361099a576040517f08c379a000000000000000000000000000000000000000000000000000000000815260040161099190612d7d565b60405180910390fd5b80915050919050565b60008073ffffffffffffffffffffffffffffffffffffffff168273ffffffffffffffffffffffffffffffffffffffff1603610a13576040517f08c379a0000000000000000000000000000000000000000000000000000000008152600401610a0a90612e0f565b60405180910390fd5b600360008373ffffffffffffffffffffffffffffffffffffffff1673ffffffffffffffffffffffffffffffffffffffff168152602001908152602001600020549050919050565b610a62611958565b610a6c6000611a13565b565b6000600660009054906101000a900473ffffffffffffffffffffffffffffffffffffffff16905090565b600960009054906101000a900473ffffffffffffffffffffffffffffffffffffffff1681565b606060018054610acd90612b4a565b80601f0160208091040260200160405190810160405280929190818152602001828054610af990612b4a565b8015610b465780601f10610b1b57610100808354040283529160200191610b46565b820191906000526020600020905b815481529060010190602001808311610b2957829003601f168201915b5050505050905090565b6000610b5a611ad9565b600c60003373ffffffffffffffffffffffffffffffffffffffff1673ffffffffffffffffffffffffffffffffffffffff16815260200190815260200160002060009054906101000a900460ff1680610c6d5750600960009054906101000a900473ffffffffffffffffffffffffffffffffffffffff1673ffffffffffffffffffffffffffffffffffffffff1663570ca7356040518163ffffffff1660e01b8152600401602060405180830381865afa158015610c1a573d6000803e3d6000fd5b505050506040513d601f19601f82011682018060405250810190610c3e9190612e44565b73ffffffffffffffffffffffffffffffffffffffff163373ffffffffffffffffffffffffffffffffffffffff16145b610cac576040517f08c379a0000000000000000000000000000000000000000000000000000000008152600401610ca390612ebd565b60405180910390fd5b610cbe82610cb990612f83565b611b28565b610cfd576040517f08c379a0000000000000000000000000000000000000000000000000000000008152600401610cf490612fe2565b60405180910390fd5b610d076008611b5f565b6000610d1360086115bc565b9050610d1f8582611b75565b610d298185611b93565b82600b60008381526020019081526020016000208181610d4991906133f0565b90505080915050610d58611c29565b9392505050565b610d71610d6a6114fb565b8383611c33565b5050565b610d86610d806114fb565b836115ca565b610dc5576040517f08c379a0000000000000000000000000000000000000000000000000000000008152600401610dbc90612d11565b60405180910390fd5b610dd184848484611d9f565b50505050565b600960009054906101000a900473ffffffffffffffffffffffffffffffffffffffff1673ffffffffffffffffffffffffffffffffffffffff166324d7806c336040518263ffffffff1660e01b8152600401610e32919061251b565b602060405180830381865afa158015610e4f573d6000803e3d6000fd5b505050506040513d601f19601f82011682018060405250810190610e739190613413565b610eb2576040517f08c379a0000000000000000000000000000000000000000000000000000000008152600401610ea99061348c565b60405180910390fd5b6001600c60008373ffffffffffffffffffffffffffffffffffffffff1673ffffffffffffffffffffffffffffffffffffffff16815260200190815260200160002060006101000a81548160ff02191690831515021790555050565b6060610f1882611dfb565b610f57576040517f08c379a0000000000000000000000000000000000000000000000000000000008152600401610f4e9061351e565b60405180910390fd5b600a6000838152602001908152602001600020604051602001610f7a9190613618565b6040516020818303038152906040529050919050565b600960009054906101000a900473ffffffffffffffffffffffffffffffffffffffff1673ffffffffffffffffffffffffffffffffffffffff166324d7806c336040518263ffffffff1660e01b8152600401610feb919061251b565b602060405180830381865afa158015611008573d6000803e3d6000fd5b505050506040513d601f19601f8201168201806040525081019061102c9190613413565b61106b576040517f08c379a00000000000000000000000000000000000000000000000000000000081526004016110629061348c565b60405180910390fd5b600c60008273ffffffffffffffffffffffffffffffffffffffff1673ffffffffffffffffffffffffffffffffffffffff16815260200190815260200160002060006101000a81549060ff021916905550565b600b6020528060005260406000206000915090508060000180546110e090612b4a565b80601f016020809104026020016040519081016040528092919081815260200182805461110c90612b4a565b80156111595780601f1061112e57610100808354040283529160200191611159565b820191906000526020600020905b81548152906001019060200180831161113c57829003601f168201915b50505050509080600101805461116e90612b4a565b80601f016020809104026020016040519081016040528092919081815260200182805461119a90612b4a565b80156111e75780601f106111bc576101008083540402835291602001916111e7565b820191906000526020600020905b8154815290600101906020018083116111ca57829003601f168201915b5050505050908060020154905083565b6000600560008473ffffffffffffffffffffffffffffffffffffffff1673ffffffffffffffffffffffffffffffffffffffff16815260200190815260200160002060008373ffffffffffffffffffffffffffffffffffffffff1673ffffffffffffffffffffffffffffffffffffffff16815260200190815260200160002060009054906101000a900460ff16905092915050565b611293611958565b600073ffffffffffffffffffffffffffffffffffffffff168173ffffffffffffffffffffffffffffffffffffffff1603611302576040517f08c379a00000000000000000000000000000000000000000000000000000000081526004016112f9906136ac565b60405180910390fd5b61130b81611a13565b50565b600960009054906101000a900473ffffffffffffffffffffffffffffffffffffffff1673ffffffffffffffffffffffffffffffffffffffff16630d0606fa336040518263ffffffff1660e01b8152600401611369919061251b565b602060405180830381865afa158015611386573d6000803e3d6000fd5b505050506040513d601f19601f820116820180604052508101906113aa9190613413565b6113e9576040517f08c379a00000000000000000000000000000000000000000000000000000000081526004016113e090613718565b60405180910390fd5b6113f282611e3c565b80600b6000848152602001908152602001600020818161141291906133f0565b905050817f7d6bd56f8f050884f12c4276a008b12a967e49ad0d851a9dab61040641634f6e60405160405180910390a25050565b60007f01ffc9a7000000000000000000000000000000000000000000000000000000007bffffffffffffffffffffffffffffffffffffffffffffffffffffffff1916827bffffffffffffffffffffffffffffffffffffffffffffffffffffffff1916149050919050565b6114b981611e87565b6114f8576040517f08c379a00000000000000000000000000000000000000000000000000000000081526004016114ef90612d7d565b60405180910390fd5b50565b600033905090565b816004600083815260200190815260200160002060006101000a81548173ffffffffffffffffffffffffffffffffffffffff021916908373ffffffffffffffffffffffffffffffffffffffff160217905550808273ffffffffffffffffffffffffffffffffffffffff166115768361091d565b73ffffffffffffffffffffffffffffffffffffffff167f8c5be1e5ebec7d5bd14f71427d1e84f3dd0314c0f7b2291e5b200ac8c7c3b92560405160405180910390a45050565b600081600001549050919050565b6000806115d68361091d565b90508073ffffffffffffffffffffffffffffffffffffffff168473ffffffffffffffffffffffffffffffffffffffff161480611618575061161781856111f7565b5b8061165657508373ffffffffffffffffffffffffffffffffffffffff1661163e84610656565b73ffffffffffffffffffffffffffffffffffffffff16145b91505092915050565b8273ffffffffffffffffffffffffffffffffffffffff1661167f8261091d565b73ffffffffffffffffffffffffffffffffffffffff16146116d5576040517f08c379a00000000000000000000000000000000000000000000000000000000081526004016116cc906137aa565b60405180910390fd5b600073ffffffffffffffffffffffffffffffffffffffff168273ffffffffffffffffffffffffffffffffffffffff1603611744576040517f08c379a000000000000000000000000000000000000000000000000000000000815260040161173b9061383c565b60405180910390fd5b6117518383836001611ec8565b8273ffffffffffffffffffffffffffffffffffffffff166117718261091d565b73ffffffffffffffffffffffffffffffffffffffff16146117c7576040517f08c379a00000000000000000000000000000000000000000000000000000000081526004016117be906137aa565b60405180910390fd5b6004600082815260200190815260200160002060006101000a81549073ffffffffffffffffffffffffffffffffffffffff02191690556001600360008573ffffffffffffffffffffffffffffffffffffffff1673ffffffffffffffffffffffffffffffffffffffff168152602001908152602001600020600082825403925050819055506001600360008473ffffffffffffffffffffffffffffffffffffffff1673ffffffffffffffffffffffffffffffffffffffff16815260200190815260200160002060008282540192505081905550816002600083815260200190815260200160002060006101000a81548173ffffffffffffffffffffffffffffffffffffffff021916908373ffffffffffffffffffffffffffffffffffffffff160217905550808273ffffffffffffffffffffffffffffffffffffffff168473ffffffffffffffffffffffffffffffffffffffff167fddf252ad1be2c89b69c2b068fc378daa952ba7f163c4a11628f55a4df523b3ef60405160405180910390a46119538383836001611ece565b505050565b6119606114fb565b73ffffffffffffffffffffffffffffffffffffffff1661197e610a6e565b73ffffffffffffffffffffffffffffffffffffffff16146119d4576040517f08c379a00000000000000000000000000000000000000000000000000000000081526004016119cb906138a8565b60405180910390fd5b565b60006002600083815260200190815260200160002060009054906101000a900473ffffffffffffffffffffffffffffffffffffffff169050919050565b6000600660009054906101000a900473ffffffffffffffffffffffffffffffffffffffff16905081600660006101000a81548173ffffffffffffffffffffffffffffffffffffffff021916908373ffffffffffffffffffffffffffffffffffffffff1602179055508173ffffffffffffffffffffffffffffffffffffffff168173ffffffffffffffffffffffffffffffffffffffff167f8be0079c531659141344cd1fd0a4f28419497f9722a3daafe3b4186f6b6457e060405160405180910390a35050565b600260075403611b1e576040517f08c379a0000000000000000000000000000000000000000000000000000000008152600401611b1590613914565b60405180910390fd5b6002600781905550565b6000600582600001515110158015611b4557506002826020015151145b8015611b585750635fee66008260400151115b9050919050565b6001816000016000828254019250508190555050565b611b8f828260405180602001604052806000815250611ed4565b5050565b6000815111611bd7576040517f08c379a0000000000000000000000000000000000000000000000000000000008152600401611bce90613980565b60405180910390fd5b80600a60008481526020019081526020016000209081611bf791906139a0565b50817f9428dcbe773ffde983d366e27dc72d5f9be6e309154036dd48f60fbc0784be6860405160405180910390a25050565b6001600781905550565b8173ffffffffffffffffffffffffffffffffffffffff168373ffffffffffffffffffffffffffffffffffffffff1603611ca1576040517f08c379a0000000000000000000000000000000000000000000000000000000008152600401611c9890613abe565b60405180910390fd5b80600560008573ffffffffffffffffffffffffffffffffffffffff1673ffffffffffffffffffffffffffffffffffffffff16815260200190815260200160002060008473ffffffffffffffffffffffffffffffffffffffff1673ffffffffffffffffffffffffffffffffffffffff16815260200190815260200160002060006101000a81548160ff0219169083151502179055508173ffffffffffffffffffffffffffffffffffffffff168373ffffffffffffffffffffffffffffffffffffffff167f17307eab39ab6107e8899845ad3d59bd9653f200f220920489ca2b5937696c3183604051611d9291906123aa565b60405180910390a3505050565b611daa84848461165f565b611db684848484611f2f565b611df5576040517f08c379a0000000000000000000000000000000000000000000000000000000008152600401611dec90613b50565b60405180910390fd5b50505050565b60008073ffffffffffffffffffffffffffffffffffffffff16611e1d836119d6565b73ffffffffffffffffffffffffffffffffffffffff1614159050919050565b611e4581611dfb565b611e84576040517f08c379a0000000000000000000000000000000000000000000000000000000008152600401611e7b90613bbc565b60405180910390fd5b50565b60008073ffffffffffffffffffffffffffffffffffffffff16611ea9836119d6565b73ffffffffffffffffffffffffffffffffffffffff1614159050919050565b50505050565b50505050565b611ede83836120b6565b611eeb6000848484611f2f565b611f2a576040517f08c379a0000000000000000000000000000000000000000000000000000000008152600401611f2190613b50565b60405180910390fd5b505050565b6000611f508473ffffffffffffffffffffffffffffffffffffffff166122d3565b156120a9578373ffffffffffffffffffffffffffffffffffffffff1663150b7a02611f796114fb565b8786866040518563ffffffff1660e01b8152600401611f9b9493929190613c31565b6020604051808303816000875af1925050508015611fd757506040513d601f19601f82011682018060405250810190611fd49190613c92565b60015b612059573d8060008114612007576040519150601f19603f3d011682016040523d82523d6000602084013e61200c565b606091505b506000815103612051576040517f08c379a000000000000000000000000000000000000000000000000000000000815260040161204890613b50565b60405180910390fd5b805181602001fd5b63150b7a0260e01b7bffffffffffffffffffffffffffffffffffffffffffffffffffffffff1916817bffffffffffffffffffffffffffffffffffffffffffffffffffffffff1916149150506120ae565b600190505b949350505050565b600073ffffffffffffffffffffffffffffffffffffffff168273ffffffffffffffffffffffffffffffffffffffff1603612125576040517f08c379a000000000000000000000000000000000000000000000000000000000815260040161211c90613d0b565b60405180910390fd5b61212e81611e87565b1561216e576040517f08c379a000000000000000000000000000000000000000000000000000000000815260040161216590613d77565b60405180910390fd5b61217c600083836001611ec8565b61218581611e87565b156121c5576040517f08c379a00000000000000000000000000000000000000000000000000000000081526004016121bc90613d77565b60405180910390fd5b6001600360008473ffffffffffffffffffffffffffffffffffffffff1673ffffffffffffffffffffffffffffffffffffffff16815260200190815260200160002060008282540192505081905550816002600083815260200190815260200160002060006101000a81548173ffffffffffffffffffffffffffffffffffffffff021916908373ffffffffffffffffffffffffffffffffffffffff160217905550808273ffffffffffffffffffffffffffffffffffffffff16600073ffffffffffffffffffffffffffffffffffffffff167fddf252ad1be2c89b69c2b068fc378daa952ba7f163c4a11628f55a4df523b3ef60405160405180910390a46122cf600083836001611ece565b5050565b6000808273ffffffffffffffffffffffffffffffffffffffff163b119050919050565b6000604051905090565b600080fd5b600080fd5b60007fffffffff0000000000000000000000000000000000000000000000000000000082169050919050565b61233f8161230a565b811461234a57600080fd5b50565b60008135905061235c81612336565b92915050565b60006020828403121561237857612377612300565b5b60006123868482850161234d565b91505092915050565b60008115159050919050565b6123a48161238f565b82525050565b60006020820190506123bf600083018461239b565b92915050565b600081519050919050565b600082825260208201905092915050565b60005b838110156123ff5780820151818401526020810190506123e4565b60008484015250505050565b6000601f19601f8301169050919050565b6000612427826123c5565b61243181856123d0565b93506124418185602086016123e1565b61244a8161240b565b840191505092915050565b6000602082019050818103600083015261246f818461241c565b905092915050565b6000819050919050565b61248a81612477565b811461249557600080fd5b50565b6000813590506124a781612481565b92915050565b6000602082840312156124c3576124c2612300565b5b60006124d184828501612498565b91505092915050565b600073ffffffffffffffffffffffffffffffffffffffff82169050919050565b6000612505826124da565b9050919050565b612515816124fa565b82525050565b6000602082019050612530600083018461250c565b92915050565b61253f816124fa565b811461254a57600080fd5b50565b60008135905061255c81612536565b92915050565b6000806040838503121561257957612578612300565b5b60006125878582860161254d565b925050602061259885828601612498565b9150509250929050565b6125ab81612477565b82525050565b60006020820190506125c660008301846125a2565b92915050565b6000806000606084860312156125e5576125e4612300565b5b60006125f38682870161254d565b93505060206126048682870161254d565b925050604061261586828701612498565b9150509250925092565b60006020828403121561263557612634612300565b5b60006126438482850161254d565b91505092915050565b6000819050919050565b600061267161266c612667846124da565b61264c565b6124da565b9050919050565b600061268382612656565b9050919050565b600061269582612678565b9050919050565b6126a58161268a565b82525050565b60006020820190506126c0600083018461269c565b92915050565b600080fd5b600080fd5b7f4e487b7100000000000000000000000000000000000000000000000000000000600052604160045260246000fd5b6127088261240b565b810181811067ffffffffffffffff82111715612727576127266126d0565b5b80604052505050565b600061273a6122f6565b905061274682826126ff565b919050565b600067ffffffffffffffff821115612766576127656126d0565b5b61276f8261240b565b9050602081019050919050565b82818337600083830152505050565b600061279e6127998461274b565b612730565b9050828152602081018484840111156127ba576127b96126cb565b5b6127c584828561277c565b509392505050565b600082601f8301126127e2576127e16126c6565b5b81356127f284826020860161278b565b91505092915050565b600080fd5b600060608284031215612816576128156127fb565b5b81905092915050565b60008060006060848603121561283857612837612300565b5b60006128468682870161254d565b935050602084013567ffffffffffffffff81111561286757612866612305565b5b612873868287016127cd565b925050604084013567ffffffffffffffff81111561289457612893612305565b5b6128a086828701612800565b9150509250925092565b6128b38161238f565b81146128be57600080fd5b50565b6000813590506128d0816128aa565b92915050565b600080604083850312156128ed576128ec612300565b5b60006128fb8582860161254d565b925050602061290c858286016128c1565b9150509250929050565b600067ffffffffffffffff821115612931576129306126d0565b5b61293a8261240b565b9050602081019050919050565b600061295a61295584612916565b612730565b905082815260208101848484011115612976576129756126cb565b5b61298184828561277c565b509392505050565b600082601f83011261299e5761299d6126c6565b5b81356129ae848260208601612947565b91505092915050565b600080600080608085870312156129d1576129d0612300565b5b60006129df8782880161254d565b94505060206129f08782880161254d565b9350506040612a0187828801612498565b925050606085013567ffffffffffffffff811115612a2257612a21612305565b5b612a2e87828801612989565b91505092959194509250565b60006060820190508181036000830152612a54818661241c565b90508181036020830152612a68818561241c565b9050612a7760408301846125a2565b949350505050565b60008060408385031215612a9657612a95612300565b5b6000612aa48582860161254d565b9250506020612ab58582860161254d565b9150509250929050565b60008060408385031215612ad657612ad5612300565b5b6000612ae485828601612498565b925050602083013567ffffffffffffffff811115612b0557612b04612305565b5b612b1185828601612800565b9150509250929050565b7f4e487b7100000000000000000000000000000000000000000000000000000000600052602260045260246000fd5b60006002820490506001821680612b6257607f821691505b602082108103612b7557612b74612b1b565b5b50919050565b7f4552433732313a20617070726f76616c20746f2063757272656e74206f776e6560008201527f7200000000000000000000000000000000000000000000000000000000000000602082015250565b6000612bd76021836123d0565b9150612be282612b7b565b604082019050919050565b60006020820190508181036000830152612c0681612bca565b9050919050565b7f4552433732313a20617070726f76652063616c6c6572206973206e6f7420746f60008201527f6b656e206f776e6572206f7220617070726f76656420666f7220616c6c000000602082015250565b6000612c69603d836123d0565b9150612c7482612c0d565b604082019050919050565b60006020820190508181036000830152612c9881612c5c565b9050919050565b7f4552433732313a2063616c6c6572206973206e6f7420746f6b656e206f776e6560008201527f72206f7220617070726f76656400000000000000000000000000000000000000602082015250565b6000612cfb602d836123d0565b9150612d0682612c9f565b604082019050919050565b60006020820190508181036000830152612d2a81612cee565b9050919050565b7f4552433732313a20696e76616c696420746f6b656e2049440000000000000000600082015250565b6000612d676018836123d0565b9150612d7282612d31565b602082019050919050565b60006020820190508181036000830152612d9681612d5a565b9050919050565b7f4552433732313a2061646472657373207a65726f206973206e6f74206120766160008201527f6c6964206f776e65720000000000000000000000000000000000000000000000602082015250565b6000612df96029836123d0565b9150612e0482612d9d565b604082019050919050565b60006020820190508181036000830152612e2881612dec565b9050919050565b600081519050612e3e81612536565b92915050565b600060208284031215612e5a57612e59612300565b5b6000612e6884828501612e2f565b91505092915050565b7f4d696e74657220417574686f72697a6174696f6e205265717569726564000000600082015250565b6000612ea7601d836123d0565b9150612eb282612e71565b602082019050919050565b60006020820190508181036000830152612ed681612e9a565b9050919050565b600080fd5b600080fd5b600060608284031215612efd57612efc612edd565b5b612f076060612730565b9050600082013567ffffffffffffffff811115612f2757612f26612ee2565b5b612f33848285016127cd565b600083015250602082013567ffffffffffffffff811115612f5757612f56612ee2565b5b612f63848285016127cd565b6020830152506040612f7784828501612498565b60408301525092915050565b6000612f8f3683612ee7565b9050919050565b7f496e76616c6964206c6567616c20646174610000000000000000000000000000600082015250565b6000612fcc6012836123d0565b9150612fd782612f96565b602082019050919050565b60006020820190508181036000830152612ffb81612fbf565b9050919050565b600080fd5b600080fd5b600080fd5b6000808335600160200384360303811261302e5761302d613002565b5b80840192508235915067ffffffffffffffff8211156130505761304f613007565b5b60208301925060018202360383131561306c5761306b61300c565b5b509250929050565b600082905092915050565b60008190508160005260206000209050919050565b60006020601f8301049050919050565b600082821b905092915050565b6000600883026130e17fffffffffffffffffffffffffffffffffffffffffffffffffffffffffffffffff826130a4565b6130eb86836130a4565b95508019841693508086168417925050509392505050565b600061311e61311961311484612477565b61264c565b612477565b9050919050565b6000819050919050565b61313883613103565b61314c61314482613125565b8484546130b1565b825550505050565b600090565b613161613154565b61316c81848461312f565b505050565b5b8181101561319057613185600082613159565b600181019050613172565b5050565b601f8211156131d5576131a68161307f565b6131af84613094565b810160208510156131be578190505b6131d26131ca85613094565b830182613171565b50505b505050565b600082821c905092915050565b60006131f8600019846008026131da565b1980831691505092915050565b600061321183836131e7565b9150826002028217905092915050565b61322b8383613074565b67ffffffffffffffff811115613244576132436126d0565b5b61324e8254612b4a565b613259828285613194565b6000601f8311600181146132885760008415613276578287013590505b6132808582613205565b8655506132e8565b601f1984166132968661307f565b60005b828110156132be57848901358255600182019150602085019450602081019050613299565b868310156132db57848901356132d7601f8916826131e7565b8355505b6001600288020188555050505b50505050505050565b6132fc838383613221565b505050565b6000813561330e81612481565b80915050919050565b60008160001b9050919050565b60007fffffffffffffffffffffffffffffffffffffffffffffffffffffffffffffffff61335084613317565b9350801983169250808416831791505092915050565b61336f82613103565b61338261337b82613125565b8354613324565b8255505050565b600081016000830161339b8185613011565b6133a68183866132f1565b5050505060018101602083016133bc8185613011565b6133c78183866132f1565b505050506002810160408301806133dd81613301565b90506133e98184613366565b5050505050565b6133fa8282613389565b5050565b60008151905061340d816128aa565b92915050565b60006020828403121561342957613428612300565b5b6000613437848285016133fe565b91505092915050565b7f41646d696e2050726976696c6567652052657175697265640000000000000000600082015250565b60006134766018836123d0565b915061348182613440565b602082019050919050565b600060208201905081810360008301526134a581613469565b9050919050565b7f4552433732314d657461646174613a2055524920717565727920666f72206e6f60008201527f6e6578697374656e7420746f6b656e0000000000000000000000000000000000602082015250565b6000613508602f836123d0565b9150613513826134ac565b604082019050919050565b60006020820190508181036000830152613537816134fb565b9050919050565b600081905092915050565b6000815461355681612b4a565b613560818661353e565b9450600182166000811461357b5760018114613590576135c3565b60ff19831686528115158202860193506135c3565b6135998561307f565b60005b838110156135bb5781548189015260018201915060208101905061359c565b838801955050505b50505092915050565b7f2f6d657461646174612e6a736f6e000000000000000000000000000000000000600082015250565b6000613602600e8361353e565b915061360d826135cc565b600e82019050919050565b60006136248284613549565b915061362f826135f5565b915081905092915050565b7f4f776e61626c653a206e6577206f776e657220697320746865207a65726f206160008201527f6464726573730000000000000000000000000000000000000000000000000000602082015250565b60006136966026836123d0565b91506136a18261363a565b604082019050919050565b600060208201905081810360008301526136c581613689565b9050919050565b7f4c6567616c20417574686f726974792052657175697265640000000000000000600082015250565b60006137026018836123d0565b915061370d826136cc565b602082019050919050565b60006020820190508181036000830152613731816136f5565b9050919050565b7f4552433732313a207472616e736665722066726f6d20696e636f72726563742060008201527f6f776e6572000000000000000000000000000000000000000000000000000000602082015250565b60006137946025836123d0565b915061379f82613738565b604082019050919050565b600060208201905081810360008301526137c381613787565b9050919050565b7f4552433732313a207472616e7366657220746f20746865207a65726f2061646460008201527f7265737300000000000000000000000000000000000000000000000000000000602082015250565b60006138266024836123d0565b9150613831826137ca565b604082019050919050565b6000602082019050818103600083015261385581613819565b9050919050565b7f4f776e61626c653a2063616c6c6572206973206e6f7420746865206f776e6572600082015250565b60006138926020836123d0565b915061389d8261385c565b602082019050919050565b600060208201905081810360008301526138c181613885565b9050919050565b7f5265656e7472616e637947756172643a207265656e7472616e742063616c6c00600082015250565b60006138fe601f836123d0565b9150613909826138c8565b602082019050919050565b6000602082019050818103600083015261392d816138f1565b9050919050565b7f456d707479204d65746164617461205552490000000000000000000000000000600082015250565b600061396a6012836123d0565b915061397582613934565b602082019050919050565b600060208201905081810360008301526139998161395d565b9050919050565b6139a9826123c5565b67ffffffffffffffff8111156139c2576139c16126d0565b5b6139cc8254612b4a565b6139d7828285613194565b600060209050601f831160018114613a0a57600084156139f8578287015190505b613a028582613205565b865550613a6a565b601f198416613a188661307f565b60005b82811015613a4057848901518255600182019150602085019450602081019050613a1b565b86831015613a5d5784890151613a59601f8916826131e7565b8355505b6001600288020188555050505b505050505050565b7f4552433732313a20617070726f766520746f2063616c6c657200000000000000600082015250565b6000613aa86019836123d0565b9150613ab382613a72565b602082019050919050565b60006020820190508181036000830152613ad781613a9b565b9050919050565b7f4552433732313a207472616e7366657220746f206e6f6e20455243373231526560008201527f63656976657220696d706c656d656e7465720000000000000000000000000000602082015250565b6000613b3a6032836123d0565b9150613b4582613ade565b604082019050919050565b60006020820190508181036000830152613b6981613b2d565b9050919050565b7f546f6b656e20446f6573204e6f74204578697374000000000000000000000000600082015250565b6000613ba66014836123d0565b9150613bb182613b70565b602082019050919050565b60006020820190508181036000830152613bd581613b99565b9050919050565b600081519050919050565b600082825260208201905092915050565b6000613c0382613bdc565b613c0d8185613be7565b9350613c1d8185602086016123e1565b613c268161240b565b840191505092915050565b6000608082019050613c46600083018761250c565b613c53602083018661250c565b613c6060408301856125a2565b8181036060830152613c728184613bf8565b905095945050505050565b600081519050613c8c81612336565b92915050565b600060208284031215613ca857613ca7612300565b5b6000613cb684828501613c7d565b91505092915050565b7f4552433732313a206d696e7420746f20746865207a65726f2061646472657373600082015250565b6000613cf56020836123d0565b9150613d0082613cbf565b602082019050919050565b60006020820190508181036000830152613d2481613ce8565b9050919050565b7f4552433732313a20746f6b656e20616c7265616479206d696e74656400000000600082015250565b6000613d61601c836123d0565b9150613d6c82613d2b565b602082019050919050565b60006020820190508181036000830152613d9081613d54565b905091905056fea2646970667358221220c6352f0139baaf727b874303963d18be31dc1f00a63895db6c1e78b4955f62c764736f6c63430008140033",
  "linkReferences": {},
  "deployedLinkReferences": {}
}