{
  "_format": "hh-sol-artifact-1",
  "contractName": "GnosisStyleMultiSig",
  "sourceName": "contracts/governance/GnosisStyleMultiSig.sol",
  "abi": [
    {
      "inputs": [
        {
          "internalType": "address[]",
          "name": "_owners",
          "type": "address[]"
        },
        {
          "internalType": "uint256",
          "name": "_threshold",
          "type": "uint256"
        }
      ],
      "stateMutability": "nonpayable",
      "type": "constructor"
    },
    {
      "inputs": [],
      "name": "DuplicateOwner",
      "type": "error"
    },
    {
      "inputs": [],
      "name": "InvalidOwner",
      "type": "error"
    },
    {
      "inputs": [],
      "name": "InvalidSignature",
      "type": "error"
    },
    {
      "inputs": [],
      "name": "InvalidThreshold",
      "type": "error"
    },
    {
      "inputs": [],
      "name": "NotEnoughOwners",
      "type": "error"
    },
    {
      "inputs": [],
      "name": "TransactionFailed",
      "type": "error"
    },
    {
      "inputs": [],
      "name": "Unauthorized",
      "type": "error"
    },
    {
      "anonymous": false,
      "inputs": [
        {
          "indexed": true,
          "internalType": "bytes32",
          "name": "txHash",
          "type": "bytes32"
        },
        {
          "indexed": false,
          "internalType": "uint256",
          "name": "payment",
          "type": "uint256"
        }
      ],
      "name": "ExecutionFailure",
      "type": "event"
    },
    {
      "anonymous": false,
      "inputs": [
        {
          "indexed": true,
          "internalType": "bytes32",
          "name": "txHash",
          "type": "bytes32"
        },
        {
          "indexed": false,
          "internalType": "uint256",
          "name": "payment",
          "type": "uint256"
        }
      ],
      "name": "ExecutionSuccess",
      "type": "event"
    },
    {
      "anonymous": false,
      "inputs": [
        {
          "indexed": true,
          "internalType": "address",
          "name": "owner",
          "type": "address"
        }
      ],
      "name": "OwnerAdded",
      "type": "event"
    },
    {
      "anonymous": false,
      "inputs": [
        {
          "indexed": true,
          "internalType": "address",
          "name": "owner",
          "type": "address"
        }
      ],
      "name": "OwnerRemoved",
      "type": "event"
    },
    {
      "anonymous": false,
      "inputs": [
        {
          "indexed": false,
          "internalType": "uint256",
          "name": "threshold",
          "type": "uint256"
        }
      ],
      "name": "ThresholdChanged",
      "type": "event"
    },
    {
      "stateMutability": "payable",
      "type": "fallback"
    },
    {
      "inputs": [],
      "name": "DOMAIN_SEPARATOR",
      "outputs": [
        {
          "internalType": "bytes32",
          "name": "",
          "type": "bytes32"
        }
      ],
      "stateMutability": "view",
      "type": "function"
    },
    {
      "inputs": [],
      "name": "TRANSACTION_TYPEHASH",
      "outputs": [
        {
          "internalType": "bytes32",
          "name": "",
          "type": "bytes32"
        }
      ],
      "stateMutability": "view",
      "type": "function"
    },
    {
      "inputs": [
        {
          "internalType": "address",
          "name": "owner",
          "type": "address"
        },
        {
          "internalType": "uint256",
          "name": "_threshold",
          "type": "uint256"
        }
      ],
      "name": "addOwnerWithThreshold",
      "outputs": [],
      "stateMutability": "nonpayable",
      "type": "function"
    },
    {
      "inputs": [
        {
          "internalType": "uint256",
          "name": "_threshold",
          "type": "uint256"
        }
      ],
      "name": "changeThreshold",
      "outputs": [],
      "stateMutability": "nonpayable",
      "type": "function"
    },
    {
      "inputs": [
        {
          "internalType": "bytes32",
          "name": "txHash",
          "type": "bytes32"
        },
        {
          "internalType": "bytes",
          "name": "signatures",
          "type": "bytes"
        }
      ],
      "name": "checkSignatures",
      "outputs": [
        {
          "internalType": "bool",
          "name": "",
          "type": "bool"
        }
      ],
      "stateMutability": "view",
      "type": "function"
    },
    {
      "inputs": [
        {
          "internalType": "address",
          "name": "to",
          "type": "address"
        },
        {
          "internalType": "uint256",
          "name": "value",
          "type": "uint256"
        },
        {
          "internalType": "bytes",
          "name": "data",
          "type": "bytes"
        },
        {
          "internalType": "bytes",
          "name": "signatures",
          "type": "bytes"
        }
      ],
      "name": "execTransaction",
      "outputs": [
        {
          "internalType": "bool",
          "name": "success",
          "type": "bool"
        }
      ],
      "stateMutability": "payable",
      "type": "function"
    },
    {
      "inputs": [],
      "name": "getOwnerCount",
      "outputs": [
        {
          "internalType": "uint256",
          "name": "",
          "type": "uint256"
        }
      ],
      "stateMutability": "view",
      "type": "function"
    },
    {
      "inputs": [],
      "name": "getOwners",
      "outputs": [
        {
          "internalType": "address[]",
          "name": "",
          "type": "address[]"
        }
      ],
      "stateMutability": "view",
      "type": "function"
    },
    {
      "inputs": [
        {
          "internalType": "address",
          "name": "to",
          "type": "address"
        },
        {
          "internalType": "uint256",
          "name": "value",
          "type": "uint256"
        },
        {
          "internalType": "bytes",
          "name": "data",
          "type": "bytes"
        },
        {
          "internalType": "uint256",
          "name": "_nonce",
          "type": "uint256"
        }
      ],
      "name": "getTransactionHash",
      "outputs": [
        {
          "internalType": "bytes32",
          "name": "",
          "type": "bytes32"
        }
      ],
      "stateMutability": "view",
      "type": "function"
    },
    {
      "inputs": [
        {
          "internalType": "address",
          "name": "",
          "type": "address"
        }
      ],
      "name": "isOwner",
      "outputs": [
        {
          "internalType": "bool",
          "name": "",
          "type": "bool"
        }
      ],
      "stateMutability": "view",
      "type": "function"
    },
    {
      "inputs": [],
      "name": "nonce",
      "outputs": [
        {
          "internalType": "uint256",
          "name": "",
          "type": "uint256"
        }
      ],
      "stateMutability": "view",
      "type": "function"
    },
    {
      "inputs": [
        {
          "internalType": "uint256",
          "name": "",
          "type": "uint256"
        }
      ],
      "name": "owners",
      "outputs": [
        {
          "internalType": "address",
          "name": "",
          "type": "address"
        }
      ],
      "stateMutability": "view",
      "type": "function"
    },
    {
      "inputs": [
        {
          "internalType": "address",
          "name": "",
          "type": "address"
        },
        {
          "internalType": "address",
          "name": "owner",
          "type": "address"
        },
        {
          "internalType": "uint256",
          "name": "_threshold",
          "type": "uint256"
        }
      ],
      "name": "removeOwner",
      "outputs": [],
      "stateMutability": "nonpayable",
      "type": "function"
    },
    {
      "inputs": [],
      "name": "threshold",
      "outputs": [
        {
          "internalType": "uint256",
          "name": "",
          "type": "uint256"
        }
      ],
      "stateMutability": "view",
      "type": "function"
    },
    {
      "inputs": [
        {
          "internalType": "bytes32",
          "name": "txHash",
          "type": "bytes32"
        },
        {
          "internalType": "bytes",
          "name": "signatures",
          "type": "bytes"
        }
      ],
      "name": "validateSignatures",
      "outputs": [],
      "stateMutability": "view",
      "type": "function"
    },
    {
      "stateMutability": "payable",
      "type": "receive"
    }
  ],
  "bytecode": "0x60a06040818152346200034f5762001519803803809162000021828662000386565b843982019181818403126200034f5780516001600160401b0393908481116200034f5782019381601f860112156200034f57845192818411620003545760059284841b865197602096620000788884018b62000386565b895286808a01928201019283116200034f5790868094939201905b828210620003235750505001519160019560009287845581511562000312578415801562000307575b620002f6576013868851620000d1816200036a565b828152017f476e6f7369735374796c654d756c746953696700000000000000000000000000815220908387895162000109816200036a565b82815201640312e302e360dc1b81522090885191888301937f8b73c3c69bb8fe3d512ecc4cf759cc79239f7b179b0ffacaa9a75d522b39400f85528a84015260608301524660808301523060a083015260a0825260c082019082821090821117620002e257885251902060805282875b620001ca575b867f6c4ce60fd690e1216286a10b875c5662555f10774484e58142cedd7a90781baa8787808c558351908152a15161116e9081620003ab82396080518181816103570152610f670152f35b8151811015620002dc5780831b82018601516001600160a01b031680158015620002c7575b620002b657600380549068010000000000000000821015620002a2578a82018082558210156200028e5786528786200180546001600160a01b0319168217905580855260048752878520805460ff19168a1790557f994a936646fe87ffe4f1e469d3d6aa417d6b855598397f323de5b449f765f0c38580a260001981146200027a5787018762000179565b634e487b7160e01b84526011600452602484fd5b634e487b7160e01b87526032600452602487fd5b634e487b7160e01b87526041600452602487fd5b87516349e27cff60e01b8152600490fd5b508085526004875260ff8886205416620001ef565b6200017f565b634e487b7160e01b86526041600452602486fd5b865163aabd5a0960e01b8152600490fd5b5081518511620000bc565b865163a45fb11d60e01b8152600490fd5b815193945091929091906001600160a01b03811681036200034f57815286939291840190840162000093565b600080fd5b634e487b7160e01b600052604160045260246000fd5b604081019081106001600160401b038211176200035457604052565b601f909101601f19168101906001600160401b03821190821017620003545760405256fe60806040526004361015610018575b361561001657005b005b60003560e01c8063025e7c27146101085780630d582f13146101035780632f54bf6e146100fe5780633644e515146100f957806342cde4e8146100f4578063694e80c3146100ef57806388633b7b146100ea578063a0e67e2b146100e5578063affed0e0146100e0578063b98a34de146100db578063d01aa318146100d6578063d78575c5146100d1578063ed516d51146100cc578063ef18374a146100c75763f8dc5dd90361000e57610774565b610756565b610733565b61070f565b610564565b610510565b6104c5565b610419565b6103f0565b610398565b61037a565b61033f565b6102f5565b6101bd565b610143565b634e487b7160e01b600052603260045260246000fd5b60035481101561013e57600360005260206000200190600090565b61010d565b3461018c57602036600319011261018c5760043560035481101561018c5760036000526000805160206110d983398151915201546040516001600160a01b039091168152602090f35b600080fd5b600435906001600160a01b038216820361018c57565b602435906001600160a01b038216820361018c57565b3461018c57604036600319011261018c576101d6610191565b6024353033036102ca576001600160a01b038216801580156102b1575b61029f578115801561028c575b61027a576102356102288461022360008051602061111983398151915296610fa3565b6102db565b805460ff19166001179055565b61023e82600155565b6102756040519283927f994a936646fe87ffe4f1e469d3d6aa417d6b855598397f323de5b449f765f0c3600080a282526020820190565b0390a1005b60405163aabd5a0960e01b8152600490fd5b50610298600354610e05565b8211610200565b6040516349e27cff60e01b8152600490fd5b506102c56102be846102db565b5460ff1690565b6101f3565b6040516282b42960e81b8152600490fd5b6001600160a01b0316600090815260046020526040902090565b3461018c57602036600319011261018c576001600160a01b03610316610191565b166000526004602052602060ff604060002054166040519015158152f35b600091031261018c57565b3461018c57600036600319011261018c5760206040517f00000000000000000000000000000000000000000000000000000000000000008152f35b3461018c57600036600319011261018c576020600154604051908152f35b3461018c57602036600319011261018c576004353033036102ca57801580156103e5575b61027a576001819055604051908152600080516020611119833981519152908060208101610275565b5060035481116103bc565b3461018c57600036600319011261018c5760206040516000805160206110f98339815191528152f35b3461018c576000806003193601126104c257604051809160035490818352602080930180926003835284832090835b8181106104a5575050508461045e910385610976565b60405193838594850191818652518092526040850193925b82811061048557505050500390f35b83516001600160a01b031685528695509381019392810192600101610476565b82546001600160a01b031684529286019260019283019201610448565b80fd5b3461018c57600036600319011261018c576020600254604051908152f35b9181601f8401121561018c578235916001600160401b03831161018c576020838186019501011161018c57565b3461018c57608036600319011261018c57610529610191565b6044356001600160401b03811161018c5760209161054e61055c9236906004016104e3565b906064359260243590610ef1565b604051908152f35b608036600319011261018c57610578610191565b602435906001600160401b0360443581811161018c5761059c9036906004016104e3565b9160643590811161018c576105b59036906004016104e3565b92909460009460028654146106975761060a869485946106036105fd6106639b600289556002549a6105f36105ed8d87898d8d610ef1565b9c6108fe565b6002553691610999565b89610aba565b3691610999565b91602083519301915af19182156106675760207f442e715f626346e8c54381002da614f62bee8d27386535b2521ec8540898556e91604051908152a25b6106516001600055565b60405190151581529081906020820190565b0390f35b60207f23428b18acfb3ea64b08dc0c1d296ea9c09702c09083ca5272e64d115b687d2391604051908152a2610647565b60405162461bcd60e51b815260206004820152601f60248201527f5265656e7472616e637947756172643a207265656e7472616e742063616c6c006044820152606490fd5b90604060031983011261018c5760043591602435906001600160401b03821161018c5761070b916004016104e3565b9091565b3461018c5761001661072d610723366106dc565b9291923691610999565b90610aba565b3461018c57602061074c610746366106dc565b9161105c565b6040519015158152f35b3461018c57600036600319011261018c576020600354604051908152f35b3461018c57606036600319011261018c5761078d610191565b506107966101a7565b6044353033036102ca576107b36107af6102be846102db565b1590565b61029f576003816107c48254610ff5565b1061027a57916001600160a01b03808216919060005b8554808210156108c85784836108076107f285610123565b905460039190911b1c6001600160a01b031690565b161461081c5750610817906108fe565b6107da565b600080516020611119833981519152965061087e925061088893916108576108516107f261084c61087695610ff5565b610123565b91610123565b90919082549060031b9160018060a01b03809116831b921b1916179055565b610223611004565b805460ff19169055565b61089182600155565b6102756040519283927f58619076adf5bb0943d100ef88d52d7c3fd691b19d3a9071b555b651fbf418da600080a282526020820190565b505050600080516020611119833981519152935061087e610888916102db565b634e487b7160e01b600052601160045260246000fd5b600019811461090d5760010190565b6108e8565b634e487b7160e01b600052604160045260246000fd5b6001600160401b03811161093b57604052565b610912565b60c081019081106001600160401b0382111761093b57604052565b608081019081106001600160401b0382111761093b57604052565b601f909101601f19168101906001600160401b0382119082101761093b57604052565b9192916001600160401b03821161093b57604051916109c2601f8201601f191660200184610976565b82948184528183011161018c578281602093846000960137010152565b6001600160401b03811161093b5760051b60200190565b90610a00826109df565b610a0d6040519182610976565b8281528092610a1e601f19916109df565b0190602036910137565b15610a2f57565b60405162461bcd60e51b815260206004820152600d60248201526c24b73b30b634b21037bbb732b960991b6044820152606490fd5b805182101561013e5760209160051b010190565b15610a7f57565b60405162461bcd60e51b81526020600482015260136024820152724475706c6963617465207369676e617475726560681b6044820152606490fd5b6041825104906001548210610bbc57610ad2826109f6565b90600093845b848110610ae757505050505050565b610b2b610af48284610e54565b610b26857b0ca2ba3432b932bab69029b4b3b732b21026b2b9b9b0b3b29d05199960211b600052601c52603c60002090565b610bf9565b610b3f610b3a6102be836102db565b610a28565b6001600160a01b038116875b838110610b7f57505090610b75610b7a92610b668388610a64565b6001600160a01b039091169052565b6108fe565b610ad8565b80610b7583610bb0610ba4610b97610bb7968d610a64565b516001600160a01b031690565b6001600160a01b031690565b1415610a78565b610b4b565b60405162461bcd60e51b81526020600482015260156024820152744e6f7420656e6f756768207369676e61747572657360581b6044820152606490fd5b610c0e91610c0691610d4c565b919091610c31565b90565b60051115610c1b57565b634e487b7160e01b600052602160045260246000fd5b610c3a81610c11565b80610c425750565b610c4b81610c11565b60018103610c935760405162461bcd60e51b815260206004820152601860248201527745434453413a20696e76616c6964207369676e617475726560401b6044820152606490fd5b610c9c81610c11565b60028103610ce95760405162461bcd60e51b815260206004820152601f60248201527f45434453413a20696e76616c6964207369676e6174757265206c656e677468006044820152606490fd5b80610cf5600392610c11565b14610cfc57565b60405162461bcd60e51b815260206004820152602260248201527f45434453413a20696e76616c6964207369676e6174757265202773272076616c604482015261756560f01b6064820152608490fd5b906041815114600014610d765761070b916020820151906060604084015193015160001a90610d80565b5050600090600290565b9291906fa2a8918ca85bafe22016d0b997e4df60600160ff1b038311610df95791608094939160ff602094604051948552168484015260408301526060820152600093849182805260015afa15610dec5781516001600160a01b03811615610de6579190565b50600190565b50604051903d90823e3d90fd5b50505050600090600390565b906001820180921161090d57565b9060418202918083046041149015171561090d57565b60405190608082016001600160401b0381118382101761093b57604052604182526060366020840137565b9190918051600184019081851161090d5760418202918083046041149015171561090d5710610eb257606090610e91610e8b610e29565b94610e13565b016020810151602085015260408101516040850152015160001a6060830153565b60405162461bcd60e51b8152602060048201526017602482015276092dcecc2d8d2c840e6d2cedcc2e8eae4ca40d2dcc8caf604b1b6044820152606490fd5b9391610eff91933691610999565b602081519101206040519260208401946000805160206110f9833981519152865260018060a01b031660408501526060840152608083015260a082015260a08152610f4981610940565b5190206040516020810191601960f81b8352600160f81b60218301527f00000000000000000000000000000000000000000000000000000000000000006022830152604282015260428152610f9d8161095b565b51902090565b600354600160401b81101561093b57600181018060035581101561013e5760036000526000805160206110d98339815191520180546001600160a01b0319166001600160a01b03909216919091179055565b60001981019190821161090d57565b600354801561104657600019818101918083101561013e576003600081905291016000805160206110d98339815191520180546001600160a01b031916905555565b634e487b7160e01b600052603160045260246000fd5b90303b1561018c57606460009284604051958694859363d78575c560e01b8552600485015260406024850152816044850152848401378181018301859052601f01601f19168101030181305afa90816110bf575b506110ba57600090565b600190565b806110cc6110d292610928565b80610334565b386110b056fec2575a0e9e593c00f959f8c92f12db2869c3395a3b0502d05e2516446f71f85b840997b6f4374e4577fea5fb3db0ff865257d07b88c2c6e15ec156a0be4776cb6c4ce60fd690e1216286a10b875c5662555f10774484e58142cedd7a90781baaa26469706673582212202e999e1fea665e641eddda3020220471e79ae6546f1fc03fd14c00da306f187564736f6c63430008140033",
  "linkReferences": {},
  "deployedLinkReferences": {}
}