{
  "_format": "hh-sol-artifact-1",
  "contractName": "GnosisStyleMultiSig",
  "sourceName": "contracts/governance/GnosisStyleMultiSig.sol",
  "abi": [
    {
      "inputs": [
        {
          "internalType": "address[]",
          "name": "_owners",
          "type": "address[]"
        },
        {
          "internalType": "uint256",
          "name": "_threshold",
          "type": "uint256"
        }
      ],
      "stateMutability": "nonpayable",
      "type": "constructor"
    },
    {
      "inputs": [],
      "name": "DuplicateOwner",
      "type": "error"
    },
    {
      "inputs": [],
      "name": "InvalidOwner",
      "type": "error"
    },
    {
      "inputs": [],
      "name": "InvalidSignature",
      "type": "error"
    },
    {
      "inputs": [],
      "name": "InvalidThreshold",
      "type": "error"
    },
    {
      "inputs": [],
      "name": "NotEnoughOwners",
      "type": "error"
    },
    {
      "inputs": [],
      "name": "TransactionFailed",
      "type": "error"
    },
    {
      "inputs": [],
      "name": "Unauthorized",
      "type": "error"
    },
    {
      "anonymous": false,
      "inputs": [
        {
          "indexed": true,
          "internalType": "bytes32",
          "name": "txHash",
          "type": "bytes32"
        },
        {
          "indexed": false,
          "internalType": "uint256",
          "name": "payment",
          "type": "uint256"
        }
      ],
      "name": "ExecutionFailure",
      "type": "event"
    },
    {
      "anonymous": false,
      "inputs": [
        {
          "indexed": true,
          "internalType": "bytes32",
          "name": "txHash",
          "type": "bytes32"
        },
        {
          "indexed": false,
          "internalType": "uint256",
          "name": "payment",
          "type": "uint256"
        }
      ],
      "name": "ExecutionSuccess",
      "type": "event"
    },
    {
      "anonymous": false,
      "inputs": [
        {
          "indexed": true,
          "internalType": "address",
          "name": "owner",
          "type": "address"
        }
      ],
      "name": "OwnerAdded",
      "type": "event"
    },
    {
      "anonymous": false,
      "inputs": [
        {
          "indexed": true,
          "internalType": "address",
          "name": "owner",
          "type": "address"
        }
      ],
      "name": "OwnerRemoved",
      "type": "event"
    },
    {
      "anonymous": false,
      "inputs": [
        {
          "indexed": false,
          "internalType": "uint256",
          "name": "threshold",
          "type": "uint256"
        }
      ],
      "name": "ThresholdChanged",
      "type": "event"
    },
    {
      "stateMutability": "payable",
      "type": "fallback"
    },
    {
      "inputs": [],
      "name": "DOMAIN_SEPARATOR",
      "outputs": [
        {
          "internalType": "bytes32",
          "name": "",
          "type": "bytes32"
        }
      ],
      "stateMutability": "view",
      "type": "function"
    },
    {
      "inputs": [],
      "name": "TRANSACTION_TYPEHASH",
      "outputs": [
        {
          "internalType": "bytes32",
          "name": "",
          "type": "bytes32"
        }
      ],
      "stateMutability": "view",
      "type": "function"
    },
    {
      "inputs": [
        {
          "internalType": "address",
          "name": "owner",
          "type": "address"
        },
        {
          "internalType": "uint256",
          "name": "_threshold",
          "type": "uint256"
        }
      ],
      "name": "addOwnerWithThreshold",
      "outputs": [],
      "stateMutability": "nonpayable",
      "type": "function"
    },
    {
      "inputs": [
        {
          "internalType": "uint256",
          "name": "_threshold",
          "type": "uint256"
        }
      ],
      "name": "changeThreshold",
      "outputs": [],
      "stateMutability": "nonpayable",
      "type": "function"
    },
    {
      "inputs": [
        {
          "internalType": "bytes32",
          "name": "txHash",
          "type": "bytes32"
        },
        {
          "internalType": "bytes",
          "name": "signatures",
          "type": "bytes"
        }
      ],
      "name": "checkSignatures",
      "outputs": [
        {
          "internalType": "bool",
          "name": "",
          "type": "bool"
        }
      ],
      "stateMutability": "view",
      "type": "function"
    },
    {
      "inputs": [
        {
          "internalType": "address",
          "name": "to",
          "type": "address"
        },
        {
          "internalType": "uint256",
          "name": "value",
          "type": "uint256"
        },
        {
          "internalType": "bytes",
          "name": "data",
          "type": "bytes"
        },
        {
          "internalType": "bytes",
          "name": "signatures",
          "type": "bytes"
        }
      ],
      "name": "execTransaction",
      "outputs": [
        {
          "internalType": "bool",
          "name": "success",
          "type": "bool"
        }
      ],
      "stateMutability": "payable",
      "type": "function"
    },
    {
      "inputs": [],
      "name": "getOwnerCount",
      "outputs": [
        {
          "internalType": "uint256",
          "name": "",
          "type": "uint256"
        }
      ],
      "stateMutability": "view",
      "type": "function"
    },
    {
      "inputs": [],
      "name": "getOwners",
      "outputs": [
        {
          "internalType": "address[]",
          "name": "",
          "type": "address[]"
        }
      ],
      "stateMutability": "view",
      "type": "function"
    },
    {
      "inputs": [
        {
          "internalType": "address",
          "name": "to",
          "type": "address"
        },
        {
          "internalType": "uint256",
          "name": "value",
          "type": "uint256"
        },
        {
          "internalType": "bytes",
          "name": "data",
          "type": "bytes"
        },
        {
          "internalType": "uint256",
          "name": "_nonce",
          "type": "uint256"
        }
      ],
      "name": "getTransactionHash",
      "outputs": [
        {
          "internalType": "bytes32",
          "name": "",
          "type": "bytes32"
        }
      ],
      "stateMutability": "view",
      "type": "function"
    },
    {
      "inputs": [
        {
          "internalType": "address",
          "name": "",
          "type": "address"
        }
      ],
      "name": "isOwner",
      "outputs": [
        {
          "internalType": "bool",
          "name": "",
          "type": "bool"
        }
      ],
      "stateMutability": "view",
      "type": "function"
    },
    {
      "inputs": [],
      "name": "nonce",
      "outputs": [
        {
          "internalType": "uint256",
          "name": "",
          "type": "uint256"
        }
      ],
      "stateMutability": "view",
      "type": "function"
    },
    {
      "inputs": [
        {
          "internalType": "uint256",
          "name": "",
          "type": "uint256"
        }
      ],
      "name": "owners",
      "outputs": [
        {
          "internalType": "address",
          "name": "",
          "type": "address"
        }
      ],
      "stateMutability": "view",
      "type": "function"
    },
    {
      "inputs": [
        {
          "internalType": "address",
          "name": "prevOwner",
          "type": "address"
        },
        {
          "internalType": "address",
          "name": "owner",
          "type": "address"
        },
        {
          "internalType": "uint256",
          "name": "_threshold",
          "type": "uint256"
        }
      ],
      "name": "removeOwner",
      "outputs": [],
      "stateMutability": "nonpayable",
      "type": "function"
    },
    {
      "inputs": [],
      "name": "threshold",
      "outputs": [
        {
          "internalType": "uint256",
          "name": "",
          "type": "uint256"
        }
      ],
      "stateMutability": "view",
      "type": "function"
    },
    {
      "inputs": [
        {
          "internalType": "bytes32",
          "name": "txHash",
          "type": "bytes32"
        },
        {
          "internalType": "bytes",
          "name": "signatures",
          "type": "bytes"
        }
      ],
      "name": "validateSignatures",
      "outputs": [],
      "stateMutability": "view",
      "type": "function"
    },
    {
      "stateMutability": "payable",
      "type": "receive"
    }
  ],
  "bytecode": "0x60a06040523480156200001157600080fd5b506040516200185538038062001855833981016040819052620000349162000315565b60016000908155825190036200005d5760405163a45fb11d60e01b815260040160405180910390fd5b8015806200006b5750815181115b156200008a5760405163aabd5a0960e01b815260040160405180910390fd5b604080518082018252601381527f476e6f7369735374796c654d756c7469536967000000000000000000000000006020918201528151808301835260058152640312e302e360dc1b9082015281517f8b73c3c69bb8fe3d512ecc4cf759cc79239f7b179b0ffacaa9a75d522b39400f918101919091527f974941b9378e620c3dc3a10c8b6f08585bcf53b0d17115667d1084bfdcfbcf90918101919091527f06c015bd22b4c69690933c1058878ebdfef31f9aaae40bbe86d8a09fe1b2972c60608201524660808201523060a082015260c00160408051601f19818403018152919052805160209091012060805260005b8251811015620002a15760008382815181106200019c576200019c620003ef565b6020026020010151905060006001600160a01b0316816001600160a01b03161480620001e057506001600160a01b03811660009081526004602052604090205460ff165b15620001ff576040516349e27cff60e01b815260040160405180910390fd5b6003805460018082019092557fc2575a0e9e593c00f959f8c92f12db2869c3395a3b0502d05e2516446f71f85b0180546001600160a01b0319166001600160a01b038416908117909155600081815260046020526040808220805460ff1916909417909355915190917f994a936646fe87ffe4f1e469d3d6aa417d6b855598397f323de5b449f765f0c391a25080620002988162000405565b9150506200017b565b5060018190556040518181527f6c4ce60fd690e1216286a10b875c5662555f10774484e58142cedd7a90781baa9060200160405180910390a150506200042d565b634e487b7160e01b600052604160045260246000fd5b80516001600160a01b03811681146200031057600080fd5b919050565b600080604083850312156200032957600080fd5b82516001600160401b03808211156200034157600080fd5b818501915085601f8301126200035657600080fd5b81516020828211156200036d576200036d620002e2565b8160051b604051601f19603f83011681018181108682111715620003955762000395620002e2565b604052928352818301935084810182019289841115620003b457600080fd5b948201945b83861015620003dd57620003cd86620002f8565b85529482019493820193620003b9565b97909101519698969750505050505050565b634e487b7160e01b600052603260045260246000fd5b6000600182016200042657634e487b7160e01b600052601160045260246000fd5b5060010190565b6080516114056200045060003960008181610171015261053c01526114056000f3fe6080604052600436106100b95760003560e01c8063025e7c27146100c25780630d582f13146100ff5780632f54bf6e1461011f5780633644e5151461015f57806342cde4e8146101a1578063694e80c3146101b757806388633b7b146101d7578063a0e67e2b146101f9578063affed0e01461021b578063b98a34de14610231578063d01aa31814610251578063d78575c514610264578063ed516d5114610284578063ef18374a146102a4578063f8dc5dd9146102b957005b366100c057005b005b3480156100ce57600080fd5b506100e26100dd366004610fea565b6102d9565b6040516001600160a01b0390911681526020015b60405180910390f35b34801561010b57600080fd5b506100c061011a36600461101f565b610303565b34801561012b57600080fd5b5061014f61013a366004611049565b60046020526000908152604090205460ff1681565b60405190151581526020016100f6565b34801561016b57600080fd5b506101937f000000000000000000000000000000000000000000000000000000000000000081565b6040519081526020016100f6565b3480156101ad57600080fd5b5061019360015481565b3480156101c357600080fd5b506100c06101d2366004610fea565b610458565b3480156101e357600080fd5b5061019360008051602061139083398151915281565b34801561020557600080fd5b5061020e6104cc565b6040516100f69190611064565b34801561022757600080fd5b5061019360025481565b34801561023d57600080fd5b5061019361024c3660046110f2565b61052e565b61014f61025f366004611153565b610620565b34801561027057600080fd5b506100c061027f3660046111dc565b61076c565b34801561029057600080fd5b5061014f61029f3660046111dc565b6107b1565b3480156102b057600080fd5b50600354610193565b3480156102c557600080fd5b506100c06102d4366004611227565b61081b565b600381815481106102e957600080fd5b6000918252602090912001546001600160a01b0316905081565b333014610322576040516282b42960e81b815260040160405180910390fd5b6001600160a01b038216158061035057506001600160a01b03821660009081526004602052604090205460ff165b1561036e576040516349e27cff60e01b815260040160405180910390fd5b8015806103875750600354610384906001611279565b81115b156103a55760405163aabd5a0960e01b815260040160405180910390fd5b6003805460018082019092557fc2575a0e9e593c00f959f8c92f12db2869c3395a3b0502d05e2516446f71f85b0180546001600160a01b0319166001600160a01b038516908117909155600081815260046020526040808220805460ff19168517905592849055915190917f994a936646fe87ffe4f1e469d3d6aa417d6b855598397f323de5b449f765f0c391a26040518181526000805160206113b08339815191529060200160405180910390a15050565b333014610477576040516282b42960e81b815260040160405180910390fd5b801580610485575060035481115b156104a35760405163aabd5a0960e01b815260040160405180910390fd5b60018190556040518181526000805160206113b08339815191529060200160405180910390a150565b6060600380548060200260200160405190810160405280929190818152602001828054801561052457602002820191906000526020600020905b81546001600160a01b03168152600190910190602001808311610506575b5050505050905090565b6000601960f81b600160f81b7f00000000000000000000000000000000000000000000000000000000000000006000805160206113908339815191528989898960405161057c92919061128c565b6040519081900381206105bd949392918a906020019485526001600160a01b0393909316602085015260408401919091526060830152608082015260a00190565b60408051808303601f190181529082905280516020918201206001600160f81b0319958616918301919091529290931660218401526022830152604282015260620160405160208183030381529060405280519060200120905095945050505050565b600061062a610a1d565b600061063b8888888860025461052e565b60028054919250600061064d8361129c565b91905055506106928185858080601f016020809104026020016040519081016040528093929190818152602001838380828437600092019190915250610a7b92505050565b6106d3888888888080601f016020809104026020016040519081016040528093929190818152602001838380828437600092019190915250610ca692505050565b9150811561071b57807f442e715f626346e8c54381002da614f62bee8d27386535b2521ec8540898556e600060405161070e91815260200190565b60405180910390a2610757565b807f23428b18acfb3ea64b08dc0c1d296ea9c09702c09083ca5272e64d115b687d23600060405161074e91815260200190565b60405180910390a25b506107626001600055565b9695505050505050565b6107ac8383838080601f016020809104026020016040519081016040528093929190818152602001838380828437600092019190915250610a7b92505050565b505050565b60405163d78575c560e01b8152600090309063d78575c5906107db908790879087906004016112b5565b60006040518083038186803b1580156107f357600080fd5b505afa925050508015610804575060015b61081057506000610814565b5060015b9392505050565b33301461083a576040516282b42960e81b815260040160405180910390fd5b6001600160a01b03821660009081526004602052604090205460ff16610873576040516349e27cff60e01b815260040160405180910390fd5b6003548190610884906001906112eb565b10156108a35760405163aabd5a0960e01b815260040160405180910390fd5b60005b6003548110156109ab57826001600160a01b0316600382815481106108cd576108cd6112fe565b6000918252602090912001546001600160a01b03160361099957600380546108f7906001906112eb565b81548110610907576109076112fe565b600091825260209091200154600380546001600160a01b039092169183908110610933576109336112fe565b9060005260206000200160006101000a8154816001600160a01b0302191690836001600160a01b03160217905550600380548061097257610972611314565b600082815260209020810160001990810180546001600160a01b03191690550190556109ab565b806109a38161129c565b9150506108a6565b506001600160a01b038216600081815260046020526040808220805460ff191690556001849055517f58619076adf5bb0943d100ef88d52d7c3fd691b19d3a9071b555b651fbf418da9190a26040518181526000805160206113b08339815191529060200160405180910390a1505050565b600260005403610a745760405162461bcd60e51b815260206004820152601f60248201527f5265656e7472616e637947756172643a207265656e7472616e742063616c6c0060448201526064015b60405180910390fd5b6002600055565b600060418251610a8b919061132a565b9050600154811015610ad75760405162461bcd60e51b81526020600482015260156024820152744e6f7420656e6f756768207369676e61747572657360581b6044820152606401610a6b565b6000816001600160401b03811115610af157610af161134c565b604051908082528060200260200182016040528015610b1a578160200160208202803683370190505b5090506000805b83811015610c9e576000610b358683610cbd565b9050610b7781610b71897b0ca2ba3432b932bab69029b4b3b732b21026b2b9b9b0b3b29d05199960211b6000908152601c91909152603c902090565b90610d7d565b6001600160a01b03811660009081526004602052604090205490935060ff16610bd25760405162461bcd60e51b815260206004820152600d60248201526c24b73b30b634b21037bbb732b960991b6044820152606401610a6b565b60005b82811015610c5f57836001600160a01b0316858281518110610bf957610bf96112fe565b60200260200101516001600160a01b031603610c4d5760405162461bcd60e51b81526020600482015260136024820152724475706c6963617465207369676e617475726560681b6044820152606401610a6b565b80610c578161129c565b915050610bd5565b5082848381518110610c7357610c736112fe565b6001600160a01b03909216602092830291909101909101525080610c968161129c565b915050610b21565b505050505050565b600080600083516020850186885af1949350505050565b60606041610ccc836001611279565b610cd69190611362565b83511015610d205760405162461bcd60e51b8152602060048201526017602482015276092dcecc2d8d2c840e6d2cedcc2e8eae4ca40d2dcc8caf604b1b6044820152606401610a6b565b60408051604180825260808201909252906020820181803683370190505090506000610d4d604184611362565b9050806020850101602083018151815260208201516020820152604082015160001a604082015350505092915050565b6000806000610d8c8585610da3565b91509150610d9981610de8565b5090505b92915050565b6000808251604103610dd95760208301516040840151606085015160001a610dcd87828585610f30565b94509450505050610de1565b506000905060025b9250929050565b6000816004811115610dfc57610dfc611379565b03610e045750565b6001816004811115610e1857610e18611379565b03610e605760405162461bcd60e51b815260206004820152601860248201527745434453413a20696e76616c6964207369676e617475726560401b6044820152606401610a6b565b6002816004811115610e7457610e74611379565b03610ec15760405162461bcd60e51b815260206004820152601f60248201527f45434453413a20696e76616c6964207369676e6174757265206c656e677468006044820152606401610a6b565b6003816004811115610ed557610ed5611379565b03610f2d5760405162461bcd60e51b815260206004820152602260248201527f45434453413a20696e76616c6964207369676e6174757265202773272076616c604482015261756560f01b6064820152608401610a6b565b50565b6000806fa2a8918ca85bafe22016d0b997e4df60600160ff1b03831115610f5d5750600090506003610fe1565b6040805160008082526020820180845289905260ff881692820192909252606081018690526080810185905260019060a0016020604051602081039080840390855afa158015610fb1573d6000803e3d6000fd5b5050604051601f1901519150506001600160a01b038116610fda57600060019250925050610fe1565b9150600090505b94509492505050565b600060208284031215610ffc57600080fd5b5035919050565b80356001600160a01b038116811461101a57600080fd5b919050565b6000806040838503121561103257600080fd5b61103b83611003565b946020939093013593505050565b60006020828403121561105b57600080fd5b61081482611003565b6020808252825182820181905260009190848201906040850190845b818110156110a55783516001600160a01b031683529284019291840191600101611080565b50909695505050505050565b60008083601f8401126110c357600080fd5b5081356001600160401b038111156110da57600080fd5b602083019150836020828501011115610de157600080fd5b60008060008060006080868803121561110a57600080fd5b61111386611003565b94506020860135935060408601356001600160401b0381111561113557600080fd5b611141888289016110b1565b96999598509660600135949350505050565b6000806000806000806080878903121561116c57600080fd5b61117587611003565b95506020870135945060408701356001600160401b038082111561119857600080fd5b6111a48a838b016110b1565b909650945060608901359150808211156111bd57600080fd5b506111ca89828a016110b1565b979a9699509497509295939492505050565b6000806000604084860312156111f157600080fd5b8335925060208401356001600160401b0381111561120e57600080fd5b61121a868287016110b1565b9497909650939450505050565b60008060006060848603121561123c57600080fd5b61124584611003565b925061125360208501611003565b9150604084013590509250925092565b634e487b7160e01b600052601160045260246000fd5b80820180821115610d9d57610d9d611263565b8183823760009101908152919050565b6000600182016112ae576112ae611263565b5060010190565b83815260406020820152816040820152818360608301376000818301606090810191909152601f909201601f1916010192915050565b81810381811115610d9d57610d9d611263565b634e487b7160e01b600052603260045260246000fd5b634e487b7160e01b600052603160045260246000fd5b60008261134757634e487b7160e01b600052601260045260246000fd5b500490565b634e487b7160e01b600052604160045260246000fd5b8082028115828204841417610d9d57610d9d611263565b634e487b7160e01b600052602160045260246000fdfe840997b6f4374e4577fea5fb3db0ff865257d07b88c2c6e15ec156a0be4776cb6c4ce60fd690e1216286a10b875c5662555f10774484e58142cedd7a90781baaa2646970667358221220781a36b571a7f54f69b76a819062cffc25a5af265eebc0e1179d844a234a872964736f6c63430008140033",
  "linkReferences": {},
  "deployedLinkReferences": {}
}