{
	"contracts/rewards/DynamicRewards.sol": {
		"DynamicRewards": {
			"abi": [
				{
					"inputs": [
						{
							"internalType": "address",
							"name": "_stakingToken",
							"type": "address"
						},
						{
							"internalType": "address",
							"name": "admin",
							"type": "address"
						}
					],
					"stateMutability": "nonpayable",
					"type": "constructor"
				},
				{
					"inputs": [],
					"name": "AccessControlBadConfirmation",
					"type": "error"
				},
				{
					"inputs": [
						{
							"internalType": "address",
							"name": "account",
							"type": "address"
						},
						{
							"internalType": "bytes32",
							"name": "neededRole",
							"type": "bytes32"
						}
					],
					"name": "AccessControlUnauthorizedAccount",
					"type": "error"
				},
				{
					"anonymous": false,
					"inputs": [
						{
							"indexed": true,
							"internalType": "address",
							"name": "user",
							"type": "address"
						},
						{
							"indexed": false,
							"internalType": "uint256",
							"name": "amount",
							"type": "uint256"
						},
						{
							"indexed": false,
							"internalType": "address",
							"name": "token",
							"type": "address"
						}
					],
					"name": "RewardClaimed",
					"type": "event"
				},
				{
					"anonymous": false,
					"inputs": [
						{
							"indexed": false,
							"internalType": "uint256",
							"name": "scheduleId",
							"type": "uint256"
						}
					],
					"name": "RewardScheduleAdded",
					"type": "event"
				},
				{
					"anonymous": false,
					"inputs": [
						{
							"indexed": true,
							"internalType": "bytes32",
							"name": "role",
							"type": "bytes32"
						},
						{
							"indexed": true,
							"internalType": "bytes32",
							"name": "previousAdminRole",
							"type": "bytes32"
						},
						{
							"indexed": true,
							"internalType": "bytes32",
							"name": "newAdminRole",
							"type": "bytes32"
						}
					],
					"name": "RoleAdminChanged",
					"type": "event"
				},
				{
					"anonymous": false,
					"inputs": [
						{
							"indexed": true,
							"internalType": "bytes32",
							"name": "role",
							"type": "bytes32"
						},
						{
							"indexed": true,
							"internalType": "address",
							"name": "account",
							"type": "address"
						},
						{
							"indexed": true,
							"internalType": "address",
							"name": "sender",
							"type": "address"
						}
					],
					"name": "RoleGranted",
					"type": "event"
				},
				{
					"anonymous": false,
					"inputs": [
						{
							"indexed": true,
							"internalType": "bytes32",
							"name": "role",
							"type": "bytes32"
						},
						{
							"indexed": true,
							"internalType": "address",
							"name": "account",
							"type": "address"
						},
						{
							"indexed": true,
							"internalType": "address",
							"name": "sender",
							"type": "address"
						}
					],
					"name": "RoleRevoked",
					"type": "event"
				},
				{
					"anonymous": false,
					"inputs": [
						{
							"indexed": true,
							"internalType": "address",
							"name": "user",
							"type": "address"
						},
						{
							"indexed": false,
							"internalType": "uint256",
							"name": "amount",
							"type": "uint256"
						}
					],
					"name": "Staked",
					"type": "event"
				},
				{
					"anonymous": false,
					"inputs": [
						{
							"indexed": true,
							"internalType": "address",
							"name": "user",
							"type": "address"
						},
						{
							"indexed": false,
							"internalType": "uint256",
							"name": "amount",
							"type": "uint256"
						}
					],
					"name": "Withdrawn",
					"type": "event"
				},
				{
					"inputs": [],
					"name": "DEFAULT_ADMIN_ROLE",
					"outputs": [
						{
							"internalType": "bytes32",
							"name": "",
							"type": "bytes32"
						}
					],
					"stateMutability": "view",
					"type": "function"
				},
				{
					"inputs": [],
					"name": "REWARD_MANAGER",
					"outputs": [
						{
							"internalType": "bytes32",
							"name": "",
							"type": "bytes32"
						}
					],
					"stateMutability": "view",
					"type": "function"
				},
				{
					"inputs": [
						{
							"internalType": "uint256",
							"name": "startTime",
							"type": "uint256"
						},
						{
							"internalType": "uint256",
							"name": "duration",
							"type": "uint256"
						},
						{
							"internalType": "uint256",
							"name": "totalReward",
							"type": "uint256"
						},
						{
							"internalType": "address",
							"name": "rewardsToken",
							"type": "address"
						}
					],
					"name": "addRewardSchedule",
					"outputs": [],
					"stateMutability": "nonpayable",
					"type": "function"
				},
				{
					"inputs": [
						{
							"internalType": "address",
							"name": "account",
							"type": "address"
						}
					],
					"name": "balanceOf",
					"outputs": [
						{
							"internalType": "uint256",
							"name": "",
							"type": "uint256"
						}
					],
					"stateMutability": "view",
					"type": "function"
				},
				{
					"inputs": [],
					"name": "claimRewards",
					"outputs": [],
					"stateMutability": "nonpayable",
					"type": "function"
				},
				{
					"inputs": [],
					"name": "currentScheduleId",
					"outputs": [
						{
							"internalType": "uint256",
							"name": "",
							"type": "uint256"
						}
					],
					"stateMutability": "view",
					"type": "function"
				},
				{
					"inputs": [
						{
							"internalType": "address",
							"name": "account",
							"type": "address"
						}
					],
					"name": "earned",
					"outputs": [
						{
							"internalType": "uint256",
							"name": "total",
							"type": "uint256"
						}
					],
					"stateMutability": "view",
					"type": "function"
				},
				{
					"inputs": [],
					"name": "getActiveSchedules",
					"outputs": [
						{
							"internalType": "uint256[]",
							"name": "",
							"type": "uint256[]"
						}
					],
					"stateMutability": "view",
					"type": "function"
				},
				{
					"inputs": [
						{
							"internalType": "bytes32",
							"name": "role",
							"type": "bytes32"
						}
					],
					"name": "getRoleAdmin",
					"outputs": [
						{
							"internalType": "bytes32",
							"name": "",
							"type": "bytes32"
						}
					],
					"stateMutability": "view",
					"type": "function"
				},
				{
					"inputs": [
						{
							"internalType": "bytes32",
							"name": "role",
							"type": "bytes32"
						},
						{
							"internalType": "address",
							"name": "account",
							"type": "address"
						}
					],
					"name": "grantRole",
					"outputs": [],
					"stateMutability": "nonpayable",
					"type": "function"
				},
				{
					"inputs": [
						{
							"internalType": "bytes32",
							"name": "role",
							"type": "bytes32"
						},
						{
							"internalType": "address",
							"name": "account",
							"type": "address"
						}
					],
					"name": "hasRole",
					"outputs": [
						{
							"internalType": "bool",
							"name": "",
							"type": "bool"
						}
					],
					"stateMutability": "view",
					"type": "function"
				},
				{
					"inputs": [
						{
							"internalType": "bytes32",
							"name": "role",
							"type": "bytes32"
						},
						{
							"internalType": "address",
							"name": "callerConfirmation",
							"type": "address"
						}
					],
					"name": "renounceRole",
					"outputs": [],
					"stateMutability": "nonpayable",
					"type": "function"
				},
				{
					"inputs": [
						{
							"internalType": "bytes32",
							"name": "role",
							"type": "bytes32"
						},
						{
							"internalType": "address",
							"name": "account",
							"type": "address"
						}
					],
					"name": "revokeRole",
					"outputs": [],
					"stateMutability": "nonpayable",
					"type": "function"
				},
				{
					"inputs": [
						{
							"internalType": "uint256",
							"name": "",
							"type": "uint256"
						}
					],
					"name": "rewardSchedules",
					"outputs": [
						{
							"internalType": "uint256",
							"name": "startTime",
							"type": "uint256"
						},
						{
							"internalType": "uint256",
							"name": "endTime",
							"type": "uint256"
						},
						{
							"internalType": "uint256",
							"name": "totalRewards",
							"type": "uint256"
						},
						{
							"internalType": "uint256",
							"name": "claimedRewards",
							"type": "uint256"
						},
						{
							"internalType": "address",
							"name": "rewardsToken",
							"type": "address"
						}
					],
					"stateMutability": "view",
					"type": "function"
				},
				{
					"inputs": [
						{
							"internalType": "uint256",
							"name": "amount",
							"type": "uint256"
						}
					],
					"name": "stake",
					"outputs": [],
					"stateMutability": "nonpayable",
					"type": "function"
				},
				{
					"inputs": [],
					"name": "stakingToken",
					"outputs": [
						{
							"internalType": "contract IERC20",
							"name": "",
							"type": "address"
						}
					],
					"stateMutability": "view",
					"type": "function"
				},
				{
					"inputs": [
						{
							"internalType": "bytes4",
							"name": "interfaceId",
							"type": "bytes4"
						}
					],
					"name": "supportsInterface",
					"outputs": [
						{
							"internalType": "bool",
							"name": "",
							"type": "bool"
						}
					],
					"stateMutability": "view",
					"type": "function"
				},
				{
					"inputs": [],
					"name": "totalStaked",
					"outputs": [
						{
							"internalType": "uint256",
							"name": "",
							"type": "uint256"
						}
					],
					"stateMutability": "view",
					"type": "function"
				},
				{
					"inputs": [
						{
							"internalType": "uint256",
							"name": "amount",
							"type": "uint256"
						}
					],
					"name": "withdraw",
					"outputs": [],
					"stateMutability": "nonpayable",
					"type": "function"
				}
			],
			"devdoc": {
				"errors": {
					"AccessControlBadConfirmation()": [
						{
							"details": "The caller of a function is not the expected one. NOTE: Don't confuse with {AccessControlUnauthorizedAccount}."
						}
					],
					"AccessControlUnauthorizedAccount(address,bytes32)": [
						{
							"details": "The `account` is missing a role."
						}
					]
				},
				"events": {
					"RoleAdminChanged(bytes32,bytes32,bytes32)": {
						"details": "Emitted when `newAdminRole` is set as ``role``'s admin role, replacing `previousAdminRole` `DEFAULT_ADMIN_ROLE` is the starting admin for all roles, despite {RoleAdminChanged} not being emitted signaling this."
					},
					"RoleGranted(bytes32,address,address)": {
						"details": "Emitted when `account` is granted `role`. `sender` is the account that originated the contract call. This account bears the admin role (for the granted role). Expected in cases where the role was granted using the internal {AccessControl-_grantRole}."
					},
					"RoleRevoked(bytes32,address,address)": {
						"details": "Emitted when `account` is revoked `role`. `sender` is the account that originated the contract call:   - if using `revokeRole`, it is the admin role bearer   - if using `renounceRole`, it is the role bearer (i.e. `account`)"
					}
				},
				"kind": "dev",
				"methods": {
					"getRoleAdmin(bytes32)": {
						"details": "Returns the admin role that controls `role`. See {grantRole} and {revokeRole}. To change a role's admin, use {_setRoleAdmin}."
					},
					"grantRole(bytes32,address)": {
						"details": "Grants `role` to `account`. If `account` had not been already granted `role`, emits a {RoleGranted} event. Requirements: - the caller must have ``role``'s admin role. May emit a {RoleGranted} event."
					},
					"hasRole(bytes32,address)": {
						"details": "Returns `true` if `account` has been granted `role`."
					},
					"renounceRole(bytes32,address)": {
						"details": "Revokes `role` from the calling account. Roles are often managed via {grantRole} and {revokeRole}: this function's purpose is to provide a mechanism for accounts to lose their privileges if they are compromised (such as when a trusted device is misplaced). If the calling account had been revoked `role`, emits a {RoleRevoked} event. Requirements: - the caller must be `callerConfirmation`. May emit a {RoleRevoked} event."
					},
					"revokeRole(bytes32,address)": {
						"details": "Revokes `role` from `account`. If `account` had been granted `role`, emits a {RoleRevoked} event. Requirements: - the caller must have ``role``'s admin role. May emit a {RoleRevoked} event."
					},
					"supportsInterface(bytes4)": {
						"details": "See {IERC165-supportsInterface}."
					}
				},
				"version": 1
			},
			"evm": {
				"assembly": "    /* \"contracts/rewards/DynamicRewards.sol\":304:7135  contract DynamicRewards is AccessControl, ReentrancyGuard {... */\n  mstore(0x40, 0xa0)\n    /* \"contracts/rewards/DynamicRewards.sol\":1259:1538  constructor(address _stakingToken, address admin) {... */\n  callvalue\n  dup1\n  iszero\n  tag_1\n  jumpi\n  0x00\n  dup1\n  revert\ntag_1:\n  pop\n  mload(0x40)\n  sub(codesize, bytecodeSize)\n  dup1\n  bytecodeSize\n  dup4\n  codecopy\n  dup2\n  dup2\n  add\n  0x40\n  mstore\n  dup2\n  add\n  swap1\n  tag_2\n  swap2\n  swap1\n  tag_3\n  jump\t// in\ntag_2:\n    /* \"@openzeppelin/contracts/security/ReentrancyGuard.sol\":1716:1717  1 */\n  0x01\n    /* \"@openzeppelin/contracts/security/ReentrancyGuard.sol\":1821:1828  _status */\n  dup1\n    /* \"@openzeppelin/contracts/security/ReentrancyGuard.sol\":1821:1843  _status = _NOT_ENTERED */\n  dup2\n  swap1\n  sstore\n  pop\n    /* \"contracts/rewards/DynamicRewards.sol\":1353:1354  0 */\n  0x00\n    /* \"contracts/rewards/DynamicRewards.sol\":1328:1355  _stakingToken != address(0) */\n  0xffffffffffffffffffffffffffffffffffffffff\n  and\n    /* \"contracts/rewards/DynamicRewards.sol\":1328:1341  _stakingToken */\n  dup3\n    /* \"contracts/rewards/DynamicRewards.sol\":1328:1355  _stakingToken != address(0) */\n  0xffffffffffffffffffffffffffffffffffffffff\n  and\n  sub\n    /* \"contracts/rewards/DynamicRewards.sol\":1320:1381  require(_stakingToken != address(0), \"Invalid staking token\") */\n  tag_8\n  jumpi\n  mload(0x40)\n  0x08c379a000000000000000000000000000000000000000000000000000000000\n  dup2\n  mstore\n  0x04\n  add\n  tag_9\n  swap1\n  tag_10\n  jump\t// in\ntag_9:\n  mload(0x40)\n  dup1\n  swap2\n  sub\n  swap1\n  revert\ntag_8:\n    /* \"contracts/rewards/DynamicRewards.sol\":1414:1427  _stakingToken */\n  dup2\n    /* \"contracts/rewards/DynamicRewards.sol\":1392:1428  stakingToken = IERC20(_stakingToken) */\n  0xffffffffffffffffffffffffffffffffffffffff\n  and\n  0x80\n  dup2\n  0xffffffffffffffffffffffffffffffffffffffff\n  and\n  dup2\n  mstore\n  pop\n  pop\n    /* \"contracts/rewards/DynamicRewards.sol\":1449:1486  _grantRole(DEFAULT_ADMIN_ROLE, admin) */\n  tag_11\n    /* \"@openzeppelin/contracts/access/AccessControl.sol\":2232:2236  0x00 */\n  0x00\n    /* \"contracts/rewards/DynamicRewards.sol\":1460:1478  DEFAULT_ADMIN_ROLE */\n  dup1\n  shl\n    /* \"contracts/rewards/DynamicRewards.sol\":1480:1485  admin */\n  dup3\n    /* \"contracts/rewards/DynamicRewards.sol\":1449:1459  _grantRole */\n  shl(0x20, tag_12)\n    /* \"contracts/rewards/DynamicRewards.sol\":1449:1486  _grantRole(DEFAULT_ADMIN_ROLE, admin) */\n  0x20\n  shr\n  jump\t// in\ntag_11:\n  pop\n    /* \"contracts/rewards/DynamicRewards.sol\":1497:1530  _grantRole(REWARD_MANAGER, admin) */\n  tag_13\n    /* \"contracts/rewards/DynamicRewards.sol\":445:472  keccak256(\"REWARD_MANAGER\") */\n  0x6393fa734211156fcc8c7dda6b0650f5c731d4c838c1db43445a149aa2f5b6fe\n    /* \"contracts/rewards/DynamicRewards.sol\":1524:1529  admin */\n  dup3\n    /* \"contracts/rewards/DynamicRewards.sol\":1497:1507  _grantRole */\n  shl(0x20, tag_12)\n    /* \"contracts/rewards/DynamicRewards.sol\":1497:1530  _grantRole(REWARD_MANAGER, admin) */\n  0x20\n  shr\n  jump\t// in\ntag_13:\n  pop\n    /* \"contracts/rewards/DynamicRewards.sol\":1259:1538  constructor(address _stakingToken, address admin) {... */\n  pop\n  pop\n    /* \"contracts/rewards/DynamicRewards.sol\":304:7135  contract DynamicRewards is AccessControl, ReentrancyGuard {... */\n  jump(tag_14)\n    /* \"@openzeppelin/contracts/access/AccessControl.sol\":6179:6495  function _grantRole(bytes32 role, address account) internal virtual returns (bool) {... */\ntag_12:\n    /* \"@openzeppelin/contracts/access/AccessControl.sol\":6256:6260  bool */\n  0x00\n    /* \"@openzeppelin/contracts/access/AccessControl.sol\":6277:6299  hasRole(role, account) */\n  tag_16\n    /* \"@openzeppelin/contracts/access/AccessControl.sol\":6285:6289  role */\n  dup4\n    /* \"@openzeppelin/contracts/access/AccessControl.sol\":6291:6298  account */\n  dup4\n    /* \"@openzeppelin/contracts/access/AccessControl.sol\":6277:6284  hasRole */\n  shl(0x20, tag_17)\n    /* \"@openzeppelin/contracts/access/AccessControl.sol\":6277:6299  hasRole(role, account) */\n  0x20\n  shr\n  jump\t// in\ntag_16:\n    /* \"@openzeppelin/contracts/access/AccessControl.sol\":6272:6489  if (!hasRole(role, account)) {... */\n  tag_18\n  jumpi\n    /* \"@openzeppelin/contracts/access/AccessControl.sol\":6347:6351  true */\n  0x01\n    /* \"@openzeppelin/contracts/access/AccessControl.sol\":6315:6321  _roles */\n  0x00\n    /* \"@openzeppelin/contracts/access/AccessControl.sol\":6315:6327  _roles[role] */\n  dup1\n    /* \"@openzeppelin/contracts/access/AccessControl.sol\":6322:6326  role */\n  dup6\n    /* \"@openzeppelin/contracts/access/AccessControl.sol\":6315:6327  _roles[role] */\n  dup2\n  mstore\n  0x20\n  add\n  swap1\n  dup2\n  mstore\n  0x20\n  add\n  0x00\n  keccak256\n    /* \"@openzeppelin/contracts/access/AccessControl.sol\":6315:6335  _roles[role].hasRole */\n  0x00\n  add\n    /* \"@openzeppelin/contracts/access/AccessControl.sol\":6315:6344  _roles[role].hasRole[account] */\n  0x00\n    /* \"@openzeppelin/contracts/access/AccessControl.sol\":6336:6343  account */\n  dup5\n    /* \"@openzeppelin/contracts/access/AccessControl.sol\":6315:6344  _roles[role].hasRole[account] */\n  0xffffffffffffffffffffffffffffffffffffffff\n  and\n  0xffffffffffffffffffffffffffffffffffffffff\n  and\n  dup2\n  mstore\n  0x20\n  add\n  swap1\n  dup2\n  mstore\n  0x20\n  add\n  0x00\n  keccak256\n  0x00\n    /* \"@openzeppelin/contracts/access/AccessControl.sol\":6315:6351  _roles[role].hasRole[account] = true */\n  0x0100\n  exp\n  dup2\n  sload\n  dup2\n  0xff\n  mul\n  not\n  and\n  swap1\n  dup4\n  iszero\n  iszero\n  mul\n  or\n  swap1\n  sstore\n  pop\n    /* \"@openzeppelin/contracts/access/AccessControl.sol\":6397:6409  _msgSender() */\n  tag_19\n    /* \"@openzeppelin/contracts/access/AccessControl.sol\":6397:6407  _msgSender */\n  shl(0x20, tag_20)\n    /* \"@openzeppelin/contracts/access/AccessControl.sol\":6397:6409  _msgSender() */\n  0x20\n  shr\n  jump\t// in\ntag_19:\n    /* \"@openzeppelin/contracts/access/AccessControl.sol\":6370:6410  RoleGranted(role, account, _msgSender()) */\n  0xffffffffffffffffffffffffffffffffffffffff\n  and\n    /* \"@openzeppelin/contracts/access/AccessControl.sol\":6388:6395  account */\n  dup3\n    /* \"@openzeppelin/contracts/access/AccessControl.sol\":6370:6410  RoleGranted(role, account, _msgSender()) */\n  0xffffffffffffffffffffffffffffffffffffffff\n  and\n    /* \"@openzeppelin/contracts/access/AccessControl.sol\":6382:6386  role */\n  dup5\n    /* \"@openzeppelin/contracts/access/AccessControl.sol\":6370:6410  RoleGranted(role, account, _msgSender()) */\n  0x2f8788117e7eff1d82e926ec794901d17c78024a50270940304540a733656f0d\n  mload(0x40)\n  mload(0x40)\n  dup1\n  swap2\n  sub\n  swap1\n  log4\n    /* \"@openzeppelin/contracts/access/AccessControl.sol\":6431:6435  true */\n  0x01\n    /* \"@openzeppelin/contracts/access/AccessControl.sol\":6424:6435  return true */\n  swap1\n  pop\n  jump(tag_15)\n    /* \"@openzeppelin/contracts/access/AccessControl.sol\":6272:6489  if (!hasRole(role, account)) {... */\ntag_18:\n    /* \"@openzeppelin/contracts/access/AccessControl.sol\":6473:6478  false */\n  0x00\n    /* \"@openzeppelin/contracts/access/AccessControl.sol\":6466:6478  return false */\n  swap1\n  pop\n    /* \"@openzeppelin/contracts/access/AccessControl.sol\":6179:6495  function _grantRole(bytes32 role, address account) internal virtual returns (bool) {... */\ntag_15:\n  swap3\n  swap2\n  pop\n  pop\n  jump\t// out\n    /* \"@openzeppelin/contracts/access/AccessControl.sol\":2854:2990  function hasRole(bytes32 role, address account) public view virtual returns (bool) {... */\ntag_17:\n    /* \"@openzeppelin/contracts/access/AccessControl.sol\":2931:2935  bool */\n  0x00\n    /* \"@openzeppelin/contracts/access/AccessControl.sol\":2954:2960  _roles */\n  dup1\n    /* \"@openzeppelin/contracts/access/AccessControl.sol\":2954:2966  _roles[role] */\n  0x00\n    /* \"@openzeppelin/contracts/access/AccessControl.sol\":2961:2965  role */\n  dup5\n    /* \"@openzeppelin/contracts/access/AccessControl.sol\":2954:2966  _roles[role] */\n  dup2\n  mstore\n  0x20\n  add\n  swap1\n  dup2\n  mstore\n  0x20\n  add\n  0x00\n  keccak256\n    /* \"@openzeppelin/contracts/access/AccessControl.sol\":2954:2974  _roles[role].hasRole */\n  0x00\n  add\n    /* \"@openzeppelin/contracts/access/AccessControl.sol\":2954:2983  _roles[role].hasRole[account] */\n  0x00\n    /* \"@openzeppelin/contracts/access/AccessControl.sol\":2975:2982  account */\n  dup4\n    /* \"@openzeppelin/contracts/access/AccessControl.sol\":2954:2983  _roles[role].hasRole[account] */\n  0xffffffffffffffffffffffffffffffffffffffff\n  and\n  0xffffffffffffffffffffffffffffffffffffffff\n  and\n  dup2\n  mstore\n  0x20\n  add\n  swap1\n  dup2\n  mstore\n  0x20\n  add\n  0x00\n  keccak256\n  0x00\n  swap1\n  sload\n  swap1\n  0x0100\n  exp\n  swap1\n  div\n  0xff\n  and\n    /* \"@openzeppelin/contracts/access/AccessControl.sol\":2947:2983  return _roles[role].hasRole[account] */\n  swap1\n  pop\n    /* \"@openzeppelin/contracts/access/AccessControl.sol\":2854:2990  function hasRole(bytes32 role, address account) public view virtual returns (bool) {... */\n  swap3\n  swap2\n  pop\n  pop\n  jump\t// out\n    /* \"@openzeppelin/contracts/utils/Context.sol\":656:752  function _msgSender() internal view virtual returns (address) {... */\ntag_20:\n    /* \"@openzeppelin/contracts/utils/Context.sol\":709:716  address */\n  0x00\n    /* \"@openzeppelin/contracts/utils/Context.sol\":735:745  msg.sender */\n  caller\n    /* \"@openzeppelin/contracts/utils/Context.sol\":728:745  return msg.sender */\n  swap1\n  pop\n    /* \"@openzeppelin/contracts/utils/Context.sol\":656:752  function _msgSender() internal view virtual returns (address) {... */\n  swap1\n  jump\t// out\n    /* \"#utility.yul\":88:205   */\ntag_25:\n    /* \"#utility.yul\":197:198   */\n  0x00\n    /* \"#utility.yul\":194:195   */\n  dup1\n    /* \"#utility.yul\":187:199   */\n  revert\n    /* \"#utility.yul\":334:460   */\ntag_27:\n    /* \"#utility.yul\":371:378   */\n  0x00\n    /* \"#utility.yul\":411:453   */\n  0xffffffffffffffffffffffffffffffffffffffff\n    /* \"#utility.yul\":404:409   */\n  dup3\n    /* \"#utility.yul\":400:454   */\n  and\n    /* \"#utility.yul\":389:454   */\n  swap1\n  pop\n    /* \"#utility.yul\":334:460   */\n  swap2\n  swap1\n  pop\n  jump\t// out\n    /* \"#utility.yul\":466:562   */\ntag_28:\n    /* \"#utility.yul\":503:510   */\n  0x00\n    /* \"#utility.yul\":532:556   */\n  tag_40\n    /* \"#utility.yul\":550:555   */\n  dup3\n    /* \"#utility.yul\":532:556   */\n  tag_27\n  jump\t// in\ntag_40:\n    /* \"#utility.yul\":521:556   */\n  swap1\n  pop\n    /* \"#utility.yul\":466:562   */\n  swap2\n  swap1\n  pop\n  jump\t// out\n    /* \"#utility.yul\":568:690   */\ntag_29:\n    /* \"#utility.yul\":641:665   */\n  tag_42\n    /* \"#utility.yul\":659:664   */\n  dup2\n    /* \"#utility.yul\":641:665   */\n  tag_28\n  jump\t// in\ntag_42:\n    /* \"#utility.yul\":634:639   */\n  dup2\n    /* \"#utility.yul\":631:666   */\n  eq\n    /* \"#utility.yul\":621:684   */\n  tag_43\n  jumpi\n    /* \"#utility.yul\":680:681   */\n  0x00\n    /* \"#utility.yul\":677:678   */\n  dup1\n    /* \"#utility.yul\":670:682   */\n  revert\n    /* \"#utility.yul\":621:684   */\ntag_43:\n    /* \"#utility.yul\":568:690   */\n  pop\n  jump\t// out\n    /* \"#utility.yul\":696:839   */\ntag_30:\n    /* \"#utility.yul\":753:758   */\n  0x00\n    /* \"#utility.yul\":784:790   */\n  dup2\n    /* \"#utility.yul\":778:791   */\n  mload\n    /* \"#utility.yul\":769:791   */\n  swap1\n  pop\n    /* \"#utility.yul\":800:833   */\n  tag_45\n    /* \"#utility.yul\":827:832   */\n  dup2\n    /* \"#utility.yul\":800:833   */\n  tag_29\n  jump\t// in\ntag_45:\n    /* \"#utility.yul\":696:839   */\n  swap3\n  swap2\n  pop\n  pop\n  jump\t// out\n    /* \"#utility.yul\":845:1352   */\ntag_3:\n    /* \"#utility.yul\":924:930   */\n  0x00\n    /* \"#utility.yul\":932:938   */\n  dup1\n    /* \"#utility.yul\":981:983   */\n  0x40\n    /* \"#utility.yul\":969:978   */\n  dup4\n    /* \"#utility.yul\":960:967   */\n  dup6\n    /* \"#utility.yul\":956:979   */\n  sub\n    /* \"#utility.yul\":952:984   */\n  slt\n    /* \"#utility.yul\":949:1068   */\n  iszero\n  tag_47\n  jumpi\n    /* \"#utility.yul\":987:1066   */\n  tag_48\n  tag_25\n  jump\t// in\ntag_48:\n    /* \"#utility.yul\":949:1068   */\ntag_47:\n    /* \"#utility.yul\":1107:1108   */\n  0x00\n    /* \"#utility.yul\":1132:1196   */\n  tag_49\n    /* \"#utility.yul\":1188:1195   */\n  dup6\n    /* \"#utility.yul\":1179:1185   */\n  dup3\n    /* \"#utility.yul\":1168:1177   */\n  dup7\n    /* \"#utility.yul\":1164:1186   */\n  add\n    /* \"#utility.yul\":1132:1196   */\n  tag_30\n  jump\t// in\ntag_49:\n    /* \"#utility.yul\":1122:1196   */\n  swap3\n  pop\n    /* \"#utility.yul\":1078:1206   */\n  pop\n    /* \"#utility.yul\":1245:1247   */\n  0x20\n    /* \"#utility.yul\":1271:1335   */\n  tag_50\n    /* \"#utility.yul\":1327:1334   */\n  dup6\n    /* \"#utility.yul\":1318:1324   */\n  dup3\n    /* \"#utility.yul\":1307:1316   */\n  dup7\n    /* \"#utility.yul\":1303:1325   */\n  add\n    /* \"#utility.yul\":1271:1335   */\n  tag_30\n  jump\t// in\ntag_50:\n    /* \"#utility.yul\":1261:1335   */\n  swap2\n  pop\n    /* \"#utility.yul\":1216:1345   */\n  pop\n    /* \"#utility.yul\":845:1352   */\n  swap3\n  pop\n  swap3\n  swap1\n  pop\n  jump\t// out\n    /* \"#utility.yul\":1358:1527   */\ntag_31:\n    /* \"#utility.yul\":1442:1453   */\n  0x00\n    /* \"#utility.yul\":1476:1482   */\n  dup3\n    /* \"#utility.yul\":1471:1474   */\n  dup3\n    /* \"#utility.yul\":1464:1483   */\n  mstore\n    /* \"#utility.yul\":1516:1520   */\n  0x20\n    /* \"#utility.yul\":1511:1514   */\n  dup3\n    /* \"#utility.yul\":1507:1521   */\n  add\n    /* \"#utility.yul\":1492:1521   */\n  swap1\n  pop\n    /* \"#utility.yul\":1358:1527   */\n  swap3\n  swap2\n  pop\n  pop\n  jump\t// out\n    /* \"#utility.yul\":1533:1704   */\ntag_32:\n    /* \"#utility.yul\":1673:1696   */\n  0x496e76616c6964207374616b696e6720746f6b656e0000000000000000000000\n    /* \"#utility.yul\":1669:1670   */\n  0x00\n    /* \"#utility.yul\":1661:1667   */\n  dup3\n    /* \"#utility.yul\":1657:1671   */\n  add\n    /* \"#utility.yul\":1650:1697   */\n  mstore\n    /* \"#utility.yul\":1533:1704   */\n  pop\n  jump\t// out\n    /* \"#utility.yul\":1710:2076   */\ntag_33:\n    /* \"#utility.yul\":1852:1855   */\n  0x00\n    /* \"#utility.yul\":1873:1940   */\n  tag_54\n    /* \"#utility.yul\":1937:1939   */\n  0x15\n    /* \"#utility.yul\":1932:1935   */\n  dup4\n    /* \"#utility.yul\":1873:1940   */\n  tag_31\n  jump\t// in\ntag_54:\n    /* \"#utility.yul\":1866:1940   */\n  swap2\n  pop\n    /* \"#utility.yul\":1949:2042   */\n  tag_55\n    /* \"#utility.yul\":2038:2041   */\n  dup3\n    /* \"#utility.yul\":1949:2042   */\n  tag_32\n  jump\t// in\ntag_55:\n    /* \"#utility.yul\":2067:2069   */\n  0x20\n    /* \"#utility.yul\":2062:2065   */\n  dup3\n    /* \"#utility.yul\":2058:2070   */\n  add\n    /* \"#utility.yul\":2051:2070   */\n  swap1\n  pop\n    /* \"#utility.yul\":1710:2076   */\n  swap2\n  swap1\n  pop\n  jump\t// out\n    /* \"#utility.yul\":2082:2501   */\ntag_10:\n    /* \"#utility.yul\":2248:2252   */\n  0x00\n    /* \"#utility.yul\":2286:2288   */\n  0x20\n    /* \"#utility.yul\":2275:2284   */\n  dup3\n    /* \"#utility.yul\":2271:2289   */\n  add\n    /* \"#utility.yul\":2263:2289   */\n  swap1\n  pop\n    /* \"#utility.yul\":2335:2344   */\n  dup2\n    /* \"#utility.yul\":2329:2333   */\n  dup2\n    /* \"#utility.yul\":2325:2345   */\n  sub\n    /* \"#utility.yul\":2321:2322   */\n  0x00\n    /* \"#utility.yul\":2310:2319   */\n  dup4\n    /* \"#utility.yul\":2306:2323   */\n  add\n    /* \"#utility.yul\":2299:2346   */\n  mstore\n    /* \"#utility.yul\":2363:2494   */\n  tag_57\n    /* \"#utility.yul\":2489:2493   */\n  dup2\n    /* \"#utility.yul\":2363:2494   */\n  tag_33\n  jump\t// in\ntag_57:\n    /* \"#utility.yul\":2355:2494   */\n  swap1\n  pop\n    /* \"#utility.yul\":2082:2501   */\n  swap2\n  swap1\n  pop\n  jump\t// out\n    /* \"contracts/rewards/DynamicRewards.sol\":304:7135  contract DynamicRewards is AccessControl, ReentrancyGuard {... */\ntag_14:\n  mload(0x80)\n  codecopy(0x00, dataOffset(sub_0), dataSize(sub_0))\n  0x00\n  assignImmutable(\"0xa2d428e9c4facd0743249251fe9c0ddba9cd5b0a11e24507191ed7e4f89daaf2\")\n  return(0x00, dataSize(sub_0))\nstop\n\nsub_0: assembly {\n        /* \"contracts/rewards/DynamicRewards.sol\":304:7135  contract DynamicRewards is AccessControl, ReentrancyGuard {... */\n      mstore(0x40, 0x80)\n      callvalue\n      dup1\n      iszero\n      tag_1\n      jumpi\n      0x00\n      dup1\n      revert\n    tag_1:\n      pop\n      jumpi(tag_2, lt(calldatasize, 0x04))\n      shr(0xe0, calldataload(0x00))\n      dup1\n      0x5932fdba\n      gt\n      tag_22\n      jumpi\n      dup1\n      0x91d14854\n      gt\n      tag_23\n      jumpi\n      dup1\n      0x91d14854\n      eq\n      tag_17\n      jumpi\n      dup1\n      0xa217fddf\n      eq\n      tag_18\n      jumpi\n      dup1\n      0xa694fc3a\n      eq\n      tag_19\n      jumpi\n      dup1\n      0xd547741f\n      eq\n      tag_20\n      jumpi\n      dup1\n      0xe075d82c\n      eq\n      tag_21\n      jumpi\n      jump(tag_2)\n    tag_23:\n      dup1\n      0x5932fdba\n      eq\n      tag_12\n      jumpi\n      dup1\n      0x70a08231\n      eq\n      tag_13\n      jumpi\n      dup1\n      0x72f702f3\n      eq\n      tag_14\n      jumpi\n      dup1\n      0x817b1cd2\n      eq\n      tag_15\n      jumpi\n      dup1\n      0x85ecdd93\n      eq\n      tag_16\n      jumpi\n      jump(tag_2)\n    tag_22:\n      dup1\n      0x248a9ca3\n      gt\n      tag_24\n      jumpi\n      dup1\n      0x248a9ca3\n      eq\n      tag_7\n      jumpi\n      dup1\n      0x2e1a7d4d\n      eq\n      tag_8\n      jumpi\n      dup1\n      0x2f2ff15d\n      eq\n      tag_9\n      jumpi\n      dup1\n      0x36568abe\n      eq\n      tag_10\n      jumpi\n      dup1\n      0x372500ab\n      eq\n      tag_11\n      jumpi\n      jump(tag_2)\n    tag_24:\n      dup1\n      0x8cc262\n      eq\n      tag_3\n      jumpi\n      dup1\n      0x01ffc9a7\n      eq\n      tag_4\n      jumpi\n      dup1\n      0x0b35a4b0\n      eq\n      tag_5\n      jumpi\n      dup1\n      0x1c1121c5\n      eq\n      tag_6\n      jumpi\n    tag_2:\n      0x00\n      dup1\n      revert\n        /* \"contracts/rewards/DynamicRewards.sol\":3628:3840  function earned(address account) public view returns (uint256 total) {... */\n    tag_3:\n      tag_25\n      0x04\n      dup1\n      calldatasize\n      sub\n      dup2\n      add\n      swap1\n      tag_26\n      swap2\n      swap1\n      tag_27\n      jump\t// in\n    tag_26:\n      tag_28\n      jump\t// in\n    tag_25:\n      mload(0x40)\n      tag_29\n      swap2\n      swap1\n      tag_30\n      jump\t// in\n    tag_29:\n      mload(0x40)\n      dup1\n      swap2\n      sub\n      swap1\n      return\n        /* \"@openzeppelin/contracts/access/AccessControl.sol\":2565:2767  function supportsInterface(bytes4 interfaceId) public view virtual override returns (bool) {... */\n    tag_4:\n      tag_31\n      0x04\n      dup1\n      calldatasize\n      sub\n      dup2\n      add\n      swap1\n      tag_32\n      swap2\n      swap1\n      tag_33\n      jump\t// in\n    tag_32:\n      tag_34\n      jump\t// in\n    tag_31:\n      mload(0x40)\n      tag_35\n      swap2\n      swap1\n      tag_36\n      jump\t// in\n    tag_35:\n      mload(0x40)\n      dup1\n      swap2\n      sub\n      swap1\n      return\n        /* \"contracts/rewards/DynamicRewards.sol\":6550:7132  function getActiveSchedules() public view returns (uint256[] memory) {... */\n    tag_5:\n      tag_37\n      tag_38\n      jump\t// in\n    tag_37:\n      mload(0x40)\n      tag_39\n      swap2\n      swap1\n      tag_40\n      jump\t// in\n    tag_39:\n      mload(0x40)\n      dup1\n      swap2\n      sub\n      swap1\n      return\n        /* \"contracts/rewards/DynamicRewards.sol\":829:886  mapping(uint256 => RewardSchedule) public rewardSchedules */\n    tag_6:\n      tag_41\n      0x04\n      dup1\n      calldatasize\n      sub\n      dup2\n      add\n      swap1\n      tag_42\n      swap2\n      swap1\n      tag_43\n      jump\t// in\n    tag_42:\n      tag_44\n      jump\t// in\n    tag_41:\n      mload(0x40)\n      tag_45\n      swap6\n      swap5\n      swap4\n      swap3\n      swap2\n      swap1\n      tag_46\n      jump\t// in\n    tag_45:\n      mload(0x40)\n      dup1\n      swap2\n      sub\n      swap1\n      return\n        /* \"@openzeppelin/contracts/access/AccessControl.sol\":3810:3930  function getRoleAdmin(bytes32 role) public view virtual returns (bytes32) {... */\n    tag_7:\n      tag_47\n      0x04\n      dup1\n      calldatasize\n      sub\n      dup2\n      add\n      swap1\n      tag_48\n      swap2\n      swap1\n      tag_49\n      jump\t// in\n    tag_48:\n      tag_50\n      jump\t// in\n    tag_47:\n      mload(0x40)\n      tag_51\n      swap2\n      swap1\n      tag_52\n      jump\t// in\n    tag_51:\n      mload(0x40)\n      dup1\n      swap2\n      sub\n      swap1\n      return\n        /* \"contracts/rewards/DynamicRewards.sol\":2075:2599  function withdraw(uint256 amount) external nonReentrant {... */\n    tag_8:\n      tag_53\n      0x04\n      dup1\n      calldatasize\n      sub\n      dup2\n      add\n      swap1\n      tag_54\n      swap2\n      swap1\n      tag_43\n      jump\t// in\n    tag_54:\n      tag_55\n      jump\t// in\n    tag_53:\n      stop\n        /* \"@openzeppelin/contracts/access/AccessControl.sol\":4226:4362  function grantRole(bytes32 role, address account) public virtual onlyRole(getRoleAdmin(role)) {... */\n    tag_9:\n      tag_56\n      0x04\n      dup1\n      calldatasize\n      sub\n      dup2\n      add\n      swap1\n      tag_57\n      swap2\n      swap1\n      tag_58\n      jump\t// in\n    tag_57:\n      tag_59\n      jump\t// in\n    tag_56:\n      stop\n        /* \"@openzeppelin/contracts/access/AccessControl.sol\":5328:5573  function renounceRole(bytes32 role, address callerConfirmation) public virtual {... */\n    tag_10:\n      tag_60\n      0x04\n      dup1\n      calldatasize\n      sub\n      dup2\n      add\n      swap1\n      tag_61\n      swap2\n      swap1\n      tag_58\n      jump\t// in\n    tag_61:\n      tag_62\n      jump\t// in\n    tag_60:\n      stop\n        /* \"contracts/rewards/DynamicRewards.sol\":4681:5637  function claimRewards() external nonReentrant {... */\n    tag_11:\n      tag_63\n      tag_64\n      jump\t// in\n    tag_63:\n      stop\n        /* \"contracts/rewards/DynamicRewards.sol\":404:472  bytes32 public constant REWARD_MANAGER = keccak256(\"REWARD_MANAGER\") */\n    tag_12:\n      tag_65\n      tag_66\n      jump\t// in\n    tag_65:\n      mload(0x40)\n      tag_67\n      swap2\n      swap1\n      tag_52\n      jump\t// in\n    tag_67:\n      mload(0x40)\n      dup1\n      swap2\n      sub\n      swap1\n      return\n        /* \"contracts/rewards/DynamicRewards.sol\":6333:6443  function balanceOf(address account) public view returns (uint256) {... */\n    tag_13:\n      tag_68\n      0x04\n      dup1\n      calldatasize\n      sub\n      dup2\n      add\n      swap1\n      tag_69\n      swap2\n      swap1\n      tag_27\n      jump\t// in\n    tag_69:\n      tag_70\n      jump\t// in\n    tag_68:\n      mload(0x40)\n      tag_71\n      swap2\n      swap1\n      tag_30\n      jump\t// in\n    tag_71:\n      mload(0x40)\n      dup1\n      swap2\n      sub\n      swap1\n      return\n        /* \"contracts/rewards/DynamicRewards.sol\":697:733  IERC20 public immutable stakingToken */\n    tag_14:\n      tag_72\n      tag_73\n      jump\t// in\n    tag_72:\n      mload(0x40)\n      tag_74\n      swap2\n      swap1\n      tag_75\n      jump\t// in\n    tag_74:\n      mload(0x40)\n      dup1\n      swap2\n      sub\n      swap1\n      return\n        /* \"contracts/rewards/DynamicRewards.sol\":6451:6542  function totalStaked() public view returns (uint256) {... */\n    tag_15:\n      tag_76\n      tag_77\n      jump\t// in\n    tag_76:\n      mload(0x40)\n      tag_78\n      swap2\n      swap1\n      tag_30\n      jump\t// in\n    tag_78:\n      mload(0x40)\n      dup1\n      swap2\n      sub\n      swap1\n      return\n        /* \"contracts/rewards/DynamicRewards.sol\":893:925  uint256 public currentScheduleId */\n    tag_16:\n      tag_79\n      tag_80\n      jump\t// in\n    tag_79:\n      mload(0x40)\n      tag_81\n      swap2\n      swap1\n      tag_30\n      jump\t// in\n    tag_81:\n      mload(0x40)\n      dup1\n      swap2\n      sub\n      swap1\n      return\n        /* \"@openzeppelin/contracts/access/AccessControl.sol\":2854:2990  function hasRole(bytes32 role, address account) public view virtual returns (bool) {... */\n    tag_17:\n      tag_82\n      0x04\n      dup1\n      calldatasize\n      sub\n      dup2\n      add\n      swap1\n      tag_83\n      swap2\n      swap1\n      tag_58\n      jump\t// in\n    tag_83:\n      tag_84\n      jump\t// in\n    tag_82:\n      mload(0x40)\n      tag_85\n      swap2\n      swap1\n      tag_36\n      jump\t// in\n    tag_85:\n      mload(0x40)\n      dup1\n      swap2\n      sub\n      swap1\n      return\n        /* \"@openzeppelin/contracts/access/AccessControl.sol\":2187:2236  bytes32 public constant DEFAULT_ADMIN_ROLE = 0x00 */\n    tag_18:\n      tag_86\n      tag_87\n      jump\t// in\n    tag_86:\n      mload(0x40)\n      tag_88\n      swap2\n      swap1\n      tag_52\n      jump\t// in\n    tag_88:\n      mload(0x40)\n      dup1\n      swap2\n      sub\n      swap1\n      return\n        /* \"contracts/rewards/DynamicRewards.sol\":1605:2067  function stake(uint256 amount) external nonReentrant {... */\n    tag_19:\n      tag_89\n      0x04\n      dup1\n      calldatasize\n      sub\n      dup2\n      add\n      swap1\n      tag_90\n      swap2\n      swap1\n      tag_43\n      jump\t// in\n    tag_90:\n      tag_91\n      jump\t// in\n    tag_89:\n      stop\n        /* \"@openzeppelin/contracts/access/AccessControl.sol\":4642:4780  function revokeRole(bytes32 role, address account) public virtual onlyRole(getRoleAdmin(role)) {... */\n    tag_20:\n      tag_92\n      0x04\n      dup1\n      calldatasize\n      sub\n      dup2\n      add\n      swap1\n      tag_93\n      swap2\n      swap1\n      tag_58\n      jump\t// in\n    tag_93:\n      tag_94\n      jump\t// in\n    tag_92:\n      stop\n        /* \"contracts/rewards/DynamicRewards.sol\":2666:3561  function addRewardSchedule(... */\n    tag_21:\n      tag_95\n      0x04\n      dup1\n      calldatasize\n      sub\n      dup2\n      add\n      swap1\n      tag_96\n      swap2\n      swap1\n      tag_97\n      jump\t// in\n    tag_96:\n      tag_98\n      jump\t// in\n    tag_95:\n      stop\n        /* \"contracts/rewards/DynamicRewards.sol\":3628:3840  function earned(address account) public view returns (uint256 total) {... */\n    tag_28:\n        /* \"contracts/rewards/DynamicRewards.sol\":3682:3695  uint256 total */\n      0x00\n        /* \"contracts/rewards/DynamicRewards.sol\":3713:3722  uint256 i */\n      dup1\n        /* \"contracts/rewards/DynamicRewards.sol\":3725:3726  1 */\n      0x01\n        /* \"contracts/rewards/DynamicRewards.sol\":3713:3726  uint256 i = 1 */\n      swap1\n      pop\n        /* \"contracts/rewards/DynamicRewards.sol\":3708:3833  for (uint256 i = 1; i <= currentScheduleId; i++) {... */\n    tag_100:\n        /* \"contracts/rewards/DynamicRewards.sol\":3733:3750  currentScheduleId */\n      sload(0x05)\n        /* \"contracts/rewards/DynamicRewards.sol\":3728:3729  i */\n      dup2\n        /* \"contracts/rewards/DynamicRewards.sol\":3728:3750  i <= currentScheduleId */\n      gt\n        /* \"contracts/rewards/DynamicRewards.sol\":3708:3833  for (uint256 i = 1; i <= currentScheduleId; i++) {... */\n      tag_101\n      jumpi\n        /* \"contracts/rewards/DynamicRewards.sol\":3780:3821  total.add(_earnedPerSchedule(account, i)) */\n      tag_103\n        /* \"contracts/rewards/DynamicRewards.sol\":3790:3820  _earnedPerSchedule(account, i) */\n      tag_104\n        /* \"contracts/rewards/DynamicRewards.sol\":3809:3816  account */\n      dup5\n        /* \"contracts/rewards/DynamicRewards.sol\":3818:3819  i */\n      dup4\n        /* \"contracts/rewards/DynamicRewards.sol\":3790:3808  _earnedPerSchedule */\n      tag_105\n        /* \"contracts/rewards/DynamicRewards.sol\":3790:3820  _earnedPerSchedule(account, i) */\n      jump\t// in\n    tag_104:\n        /* \"contracts/rewards/DynamicRewards.sol\":3780:3785  total */\n      dup4\n        /* \"contracts/rewards/DynamicRewards.sol\":3780:3789  total.add */\n      tag_106\n      swap1\n        /* \"contracts/rewards/DynamicRewards.sol\":3780:3821  total.add(_earnedPerSchedule(account, i)) */\n      swap2\n      swap1\n      0xffffffff\n      and\n      jump\t// in\n    tag_103:\n        /* \"contracts/rewards/DynamicRewards.sol\":3772:3821  total = total.add(_earnedPerSchedule(account, i)) */\n      swap2\n      pop\n        /* \"contracts/rewards/DynamicRewards.sol\":3752:3755  i++ */\n      dup1\n      dup1\n      tag_107\n      swap1\n      tag_108\n      jump\t// in\n    tag_107:\n      swap2\n      pop\n      pop\n        /* \"contracts/rewards/DynamicRewards.sol\":3708:3833  for (uint256 i = 1; i <= currentScheduleId; i++) {... */\n      jump(tag_100)\n    tag_101:\n      pop\n        /* \"contracts/rewards/DynamicRewards.sol\":3628:3840  function earned(address account) public view returns (uint256 total) {... */\n      swap2\n      swap1\n      pop\n      jump\t// out\n        /* \"@openzeppelin/contracts/access/AccessControl.sol\":2565:2767  function supportsInterface(bytes4 interfaceId) public view virtual override returns (bool) {... */\n    tag_34:\n        /* \"@openzeppelin/contracts/access/AccessControl.sol\":2650:2654  bool */\n      0x00\n        /* \"@openzeppelin/contracts/access/AccessControl.sol\":2688:2720  type(IAccessControl).interfaceId */\n      0x7965db0b00000000000000000000000000000000000000000000000000000000\n        /* \"@openzeppelin/contracts/access/AccessControl.sol\":2673:2720  interfaceId == type(IAccessControl).interfaceId */\n      not(0xffffffffffffffffffffffffffffffffffffffffffffffffffffffff)\n      and\n        /* \"@openzeppelin/contracts/access/AccessControl.sol\":2673:2684  interfaceId */\n      dup3\n        /* \"@openzeppelin/contracts/access/AccessControl.sol\":2673:2720  interfaceId == type(IAccessControl).interfaceId */\n      not(0xffffffffffffffffffffffffffffffffffffffffffffffffffffffff)\n      and\n      eq\n        /* \"@openzeppelin/contracts/access/AccessControl.sol\":2673:2760  interfaceId == type(IAccessControl).interfaceId || super.supportsInterface(interfaceId) */\n      dup1\n      tag_110\n      jumpi\n      pop\n        /* \"@openzeppelin/contracts/access/AccessControl.sol\":2724:2760  super.supportsInterface(interfaceId) */\n      tag_111\n        /* \"@openzeppelin/contracts/access/AccessControl.sol\":2748:2759  interfaceId */\n      dup3\n        /* \"@openzeppelin/contracts/access/AccessControl.sol\":2724:2747  super.supportsInterface */\n      tag_112\n        /* \"@openzeppelin/contracts/access/AccessControl.sol\":2724:2760  super.supportsInterface(interfaceId) */\n      jump\t// in\n    tag_111:\n        /* \"@openzeppelin/contracts/access/AccessControl.sol\":2673:2760  interfaceId == type(IAccessControl).interfaceId || super.supportsInterface(interfaceId) */\n    tag_110:\n        /* \"@openzeppelin/contracts/access/AccessControl.sol\":2666:2760  return interfaceId == type(IAccessControl).interfaceId || super.supportsInterface(interfaceId) */\n      swap1\n      pop\n        /* \"@openzeppelin/contracts/access/AccessControl.sol\":2565:2767  function supportsInterface(bytes4 interfaceId) public view virtual override returns (bool) {... */\n      swap2\n      swap1\n      pop\n      jump\t// out\n        /* \"contracts/rewards/DynamicRewards.sol\":6550:7132  function getActiveSchedules() public view returns (uint256[] memory) {... */\n    tag_38:\n        /* \"contracts/rewards/DynamicRewards.sol\":6601:6617  uint256[] memory */\n      0x60\n        /* \"contracts/rewards/DynamicRewards.sol\":6630:6643  uint256 count */\n      0x00\n        /* \"contracts/rewards/DynamicRewards.sol\":6663:6672  uint256 i */\n      dup1\n        /* \"contracts/rewards/DynamicRewards.sol\":6675:6676  1 */\n      0x01\n        /* \"contracts/rewards/DynamicRewards.sol\":6663:6676  uint256 i = 1 */\n      swap1\n      pop\n        /* \"contracts/rewards/DynamicRewards.sol\":6658:6825  for (uint256 i = 1; i <= currentScheduleId; i++) {... */\n    tag_114:\n        /* \"contracts/rewards/DynamicRewards.sol\":6683:6700  currentScheduleId */\n      sload(0x05)\n        /* \"contracts/rewards/DynamicRewards.sol\":6678:6679  i */\n      dup2\n        /* \"contracts/rewards/DynamicRewards.sol\":6678:6700  i <= currentScheduleId */\n      gt\n        /* \"contracts/rewards/DynamicRewards.sol\":6658:6825  for (uint256 i = 1; i <= currentScheduleId; i++) {... */\n      tag_115\n      jumpi\n        /* \"contracts/rewards/DynamicRewards.sol\":6744:6759  rewardSchedules */\n      0x04\n        /* \"contracts/rewards/DynamicRewards.sol\":6744:6762  rewardSchedules[i] */\n      0x00\n        /* \"contracts/rewards/DynamicRewards.sol\":6760:6761  i */\n      dup3\n        /* \"contracts/rewards/DynamicRewards.sol\":6744:6762  rewardSchedules[i] */\n      dup2\n      mstore\n      0x20\n      add\n      swap1\n      dup2\n      mstore\n      0x20\n      add\n      0x00\n      keccak256\n        /* \"contracts/rewards/DynamicRewards.sol\":6744:6770  rewardSchedules[i].endTime */\n      0x01\n      add\n      sload\n        /* \"contracts/rewards/DynamicRewards.sol\":6726:6741  block.timestamp */\n      timestamp\n        /* \"contracts/rewards/DynamicRewards.sol\":6726:6770  block.timestamp < rewardSchedules[i].endTime */\n      lt\n        /* \"contracts/rewards/DynamicRewards.sol\":6722:6814  if (block.timestamp < rewardSchedules[i].endTime) {... */\n      iszero\n      tag_117\n      jumpi\n        /* \"contracts/rewards/DynamicRewards.sol\":6791:6798  count++ */\n      dup2\n      dup1\n      tag_118\n      swap1\n      tag_108\n      jump\t// in\n    tag_118:\n      swap3\n      pop\n      pop\n        /* \"contracts/rewards/DynamicRewards.sol\":6722:6814  if (block.timestamp < rewardSchedules[i].endTime) {... */\n    tag_117:\n        /* \"contracts/rewards/DynamicRewards.sol\":6702:6705  i++ */\n      dup1\n      dup1\n      tag_119\n      swap1\n      tag_108\n      jump\t// in\n    tag_119:\n      swap2\n      pop\n      pop\n        /* \"contracts/rewards/DynamicRewards.sol\":6658:6825  for (uint256 i = 1; i <= currentScheduleId; i++) {... */\n      jump(tag_114)\n    tag_115:\n      pop\n        /* \"contracts/rewards/DynamicRewards.sol\":6837:6860  uint256[] memory active */\n      0x00\n        /* \"contracts/rewards/DynamicRewards.sol\":6877:6882  count */\n      dup2\n        /* \"contracts/rewards/DynamicRewards.sol\":6863:6883  new uint256[](count) */\n      0xffffffffffffffff\n      dup2\n      gt\n      iszero\n      tag_120\n      jumpi\n      tag_121\n      tag_122\n      jump\t// in\n    tag_121:\n    tag_120:\n      mload(0x40)\n      swap1\n      dup1\n      dup3\n      mstore\n      dup1\n      0x20\n      mul\n      0x20\n      add\n      dup3\n      add\n      0x40\n      mstore\n      dup1\n      iszero\n      tag_123\n      jumpi\n      dup2\n      0x20\n      add\n      0x20\n      dup3\n      mul\n      dup1\n      calldatasize\n      dup4\n      calldatacopy\n      dup1\n      dup3\n      add\n      swap2\n      pop\n      pop\n      swap1\n      pop\n    tag_123:\n      pop\n        /* \"contracts/rewards/DynamicRewards.sol\":6837:6883  uint256[] memory active = new uint256[](count) */\n      swap1\n      pop\n        /* \"contracts/rewards/DynamicRewards.sol\":6894:6907  uint256 index */\n      0x00\n        /* \"contracts/rewards/DynamicRewards.sol\":6927:6936  uint256 i */\n      dup1\n        /* \"contracts/rewards/DynamicRewards.sol\":6939:6940  1 */\n      0x01\n        /* \"contracts/rewards/DynamicRewards.sol\":6927:6940  uint256 i = 1 */\n      swap1\n      pop\n        /* \"contracts/rewards/DynamicRewards.sol\":6922:7101  for (uint256 i = 1; i <= currentScheduleId; i++) {... */\n    tag_124:\n        /* \"contracts/rewards/DynamicRewards.sol\":6947:6964  currentScheduleId */\n      sload(0x05)\n        /* \"contracts/rewards/DynamicRewards.sol\":6942:6943  i */\n      dup2\n        /* \"contracts/rewards/DynamicRewards.sol\":6942:6964  i <= currentScheduleId */\n      gt\n        /* \"contracts/rewards/DynamicRewards.sol\":6922:7101  for (uint256 i = 1; i <= currentScheduleId; i++) {... */\n      tag_125\n      jumpi\n        /* \"contracts/rewards/DynamicRewards.sol\":7008:7023  rewardSchedules */\n      0x04\n        /* \"contracts/rewards/DynamicRewards.sol\":7008:7026  rewardSchedules[i] */\n      0x00\n        /* \"contracts/rewards/DynamicRewards.sol\":7024:7025  i */\n      dup3\n        /* \"contracts/rewards/DynamicRewards.sol\":7008:7026  rewardSchedules[i] */\n      dup2\n      mstore\n      0x20\n      add\n      swap1\n      dup2\n      mstore\n      0x20\n      add\n      0x00\n      keccak256\n        /* \"contracts/rewards/DynamicRewards.sol\":7008:7034  rewardSchedules[i].endTime */\n      0x01\n      add\n      sload\n        /* \"contracts/rewards/DynamicRewards.sol\":6990:7005  block.timestamp */\n      timestamp\n        /* \"contracts/rewards/DynamicRewards.sol\":6990:7034  block.timestamp < rewardSchedules[i].endTime */\n      lt\n        /* \"contracts/rewards/DynamicRewards.sol\":6986:7090  if (block.timestamp < rewardSchedules[i].endTime) {... */\n      iszero\n      tag_127\n      jumpi\n        /* \"contracts/rewards/DynamicRewards.sol\":7073:7074  i */\n      dup1\n        /* \"contracts/rewards/DynamicRewards.sol\":7055:7061  active */\n      dup4\n        /* \"contracts/rewards/DynamicRewards.sol\":7062:7069  index++ */\n      dup4\n      dup1\n      tag_128\n      swap1\n      tag_108\n      jump\t// in\n    tag_128:\n      swap5\n      pop\n        /* \"contracts/rewards/DynamicRewards.sol\":7055:7070  active[index++] */\n      dup2\n      mload\n      dup2\n      lt\n      tag_129\n      jumpi\n      tag_130\n      tag_131\n      jump\t// in\n    tag_130:\n    tag_129:\n      0x20\n      mul\n      0x20\n      add\n      add\n        /* \"contracts/rewards/DynamicRewards.sol\":7055:7074  active[index++] = i */\n      dup2\n      dup2\n      mstore\n      pop\n      pop\n        /* \"contracts/rewards/DynamicRewards.sol\":6986:7090  if (block.timestamp < rewardSchedules[i].endTime) {... */\n    tag_127:\n        /* \"contracts/rewards/DynamicRewards.sol\":6966:6969  i++ */\n      dup1\n      dup1\n      tag_132\n      swap1\n      tag_108\n      jump\t// in\n    tag_132:\n      swap2\n      pop\n      pop\n        /* \"contracts/rewards/DynamicRewards.sol\":6922:7101  for (uint256 i = 1; i <= currentScheduleId; i++) {... */\n      jump(tag_124)\n    tag_125:\n      pop\n        /* \"contracts/rewards/DynamicRewards.sol\":7118:7124  active */\n      dup2\n        /* \"contracts/rewards/DynamicRewards.sol\":7111:7124  return active */\n      swap4\n      pop\n      pop\n      pop\n      pop\n        /* \"contracts/rewards/DynamicRewards.sol\":6550:7132  function getActiveSchedules() public view returns (uint256[] memory) {... */\n      swap1\n      jump\t// out\n        /* \"contracts/rewards/DynamicRewards.sol\":829:886  mapping(uint256 => RewardSchedule) public rewardSchedules */\n    tag_44:\n      mstore(0x20, 0x04)\n      dup1\n      0x00\n      mstore\n      keccak256(0x00, 0x40)\n      0x00\n      swap2\n      pop\n      swap1\n      pop\n      dup1\n      0x00\n      add\n      sload\n      swap1\n      dup1\n      0x01\n      add\n      sload\n      swap1\n      dup1\n      0x02\n      add\n      sload\n      swap1\n      dup1\n      0x03\n      add\n      sload\n      swap1\n      dup1\n      0x04\n      add\n      0x00\n      swap1\n      sload\n      swap1\n      0x0100\n      exp\n      swap1\n      div\n      0xffffffffffffffffffffffffffffffffffffffff\n      and\n      swap1\n      pop\n      dup6\n      jump\t// out\n        /* \"@openzeppelin/contracts/access/AccessControl.sol\":3810:3930  function getRoleAdmin(bytes32 role) public view virtual returns (bytes32) {... */\n    tag_50:\n        /* \"@openzeppelin/contracts/access/AccessControl.sol\":3875:3882  bytes32 */\n      0x00\n        /* \"@openzeppelin/contracts/access/AccessControl.sol\":3901:3907  _roles */\n      dup1\n        /* \"@openzeppelin/contracts/access/AccessControl.sol\":3901:3913  _roles[role] */\n      0x00\n        /* \"@openzeppelin/contracts/access/AccessControl.sol\":3908:3912  role */\n      dup4\n        /* \"@openzeppelin/contracts/access/AccessControl.sol\":3901:3913  _roles[role] */\n      dup2\n      mstore\n      0x20\n      add\n      swap1\n      dup2\n      mstore\n      0x20\n      add\n      0x00\n      keccak256\n        /* \"@openzeppelin/contracts/access/AccessControl.sol\":3901:3923  _roles[role].adminRole */\n      0x01\n      add\n      sload\n        /* \"@openzeppelin/contracts/access/AccessControl.sol\":3894:3923  return _roles[role].adminRole */\n      swap1\n      pop\n        /* \"@openzeppelin/contracts/access/AccessControl.sol\":3810:3930  function getRoleAdmin(bytes32 role) public view virtual returns (bytes32) {... */\n      swap2\n      swap1\n      pop\n      jump\t// out\n        /* \"contracts/rewards/DynamicRewards.sol\":2075:2599  function withdraw(uint256 amount) external nonReentrant {... */\n    tag_55:\n        /* \"@openzeppelin/contracts/security/ReentrancyGuard.sol\":2261:2282  _nonReentrantBefore() */\n      tag_135\n        /* \"@openzeppelin/contracts/security/ReentrancyGuard.sol\":2261:2280  _nonReentrantBefore */\n      tag_136\n        /* \"@openzeppelin/contracts/security/ReentrancyGuard.sol\":2261:2282  _nonReentrantBefore() */\n      jump\t// in\n    tag_135:\n        /* \"contracts/rewards/DynamicRewards.sol\":2159:2160  0 */\n      0x00\n        /* \"contracts/rewards/DynamicRewards.sol\":2150:2156  amount */\n      dup2\n        /* \"contracts/rewards/DynamicRewards.sol\":2150:2160  amount > 0 */\n      gt\n        /* \"contracts/rewards/DynamicRewards.sol\":2142:2183  require(amount > 0, \"Amount must be > 0\") */\n      tag_138\n      jumpi\n      mload(0x40)\n      0x08c379a000000000000000000000000000000000000000000000000000000000\n      dup2\n      mstore\n      0x04\n      add\n      tag_139\n      swap1\n      tag_140\n      jump\t// in\n    tag_139:\n      mload(0x40)\n      dup1\n      swap2\n      sub\n      swap1\n      revert\n    tag_138:\n        /* \"contracts/rewards/DynamicRewards.sol\":2227:2233  amount */\n      dup1\n        /* \"contracts/rewards/DynamicRewards.sol\":2202:2211  _balances */\n      0x03\n        /* \"contracts/rewards/DynamicRewards.sol\":2202:2223  _balances[msg.sender] */\n      0x00\n        /* \"contracts/rewards/DynamicRewards.sol\":2212:2222  msg.sender */\n      caller\n        /* \"contracts/rewards/DynamicRewards.sol\":2202:2223  _balances[msg.sender] */\n      0xffffffffffffffffffffffffffffffffffffffff\n      and\n      0xffffffffffffffffffffffffffffffffffffffff\n      and\n      dup2\n      mstore\n      0x20\n      add\n      swap1\n      dup2\n      mstore\n      0x20\n      add\n      0x00\n      keccak256\n      sload\n        /* \"contracts/rewards/DynamicRewards.sol\":2202:2233  _balances[msg.sender] >= amount */\n      lt\n      iszero\n        /* \"contracts/rewards/DynamicRewards.sol\":2194:2258  require(_balances[msg.sender] >= amount, \"Insufficient balance\") */\n      tag_141\n      jumpi\n      mload(0x40)\n      0x08c379a000000000000000000000000000000000000000000000000000000000\n      dup2\n      mstore\n      0x04\n      add\n      tag_142\n      swap1\n      tag_143\n      jump\t// in\n    tag_142:\n      mload(0x40)\n      dup1\n      swap2\n      sub\n      swap1\n      revert\n    tag_141:\n        /* \"contracts/rewards/DynamicRewards.sol\":2279:2305  _updateRewards(msg.sender) */\n      tag_144\n        /* \"contracts/rewards/DynamicRewards.sol\":2294:2304  msg.sender */\n      caller\n        /* \"contracts/rewards/DynamicRewards.sol\":2279:2293  _updateRewards */\n      tag_145\n        /* \"contracts/rewards/DynamicRewards.sol\":2279:2305  _updateRewards(msg.sender) */\n      jump\t// in\n    tag_144:\n        /* \"contracts/rewards/DynamicRewards.sol\":2331:2355  _totalSupply.sub(amount) */\n      tag_146\n        /* \"contracts/rewards/DynamicRewards.sol\":2348:2354  amount */\n      dup2\n        /* \"contracts/rewards/DynamicRewards.sol\":2331:2343  _totalSupply */\n      sload(0x02)\n        /* \"contracts/rewards/DynamicRewards.sol\":2331:2347  _totalSupply.sub */\n      tag_147\n      swap1\n        /* \"contracts/rewards/DynamicRewards.sol\":2331:2355  _totalSupply.sub(amount) */\n      swap2\n      swap1\n      0xffffffff\n      and\n      jump\t// in\n    tag_146:\n        /* \"contracts/rewards/DynamicRewards.sol\":2316:2328  _totalSupply */\n      0x02\n        /* \"contracts/rewards/DynamicRewards.sol\":2316:2355  _totalSupply = _totalSupply.sub(amount) */\n      dup2\n      swap1\n      sstore\n      pop\n        /* \"contracts/rewards/DynamicRewards.sol\":2390:2423  _balances[msg.sender].sub(amount) */\n      tag_148\n        /* \"contracts/rewards/DynamicRewards.sol\":2416:2422  amount */\n      dup2\n        /* \"contracts/rewards/DynamicRewards.sol\":2390:2399  _balances */\n      0x03\n        /* \"contracts/rewards/DynamicRewards.sol\":2390:2411  _balances[msg.sender] */\n      0x00\n        /* \"contracts/rewards/DynamicRewards.sol\":2400:2410  msg.sender */\n      caller\n        /* \"contracts/rewards/DynamicRewards.sol\":2390:2411  _balances[msg.sender] */\n      0xffffffffffffffffffffffffffffffffffffffff\n      and\n      0xffffffffffffffffffffffffffffffffffffffff\n      and\n      dup2\n      mstore\n      0x20\n      add\n      swap1\n      dup2\n      mstore\n      0x20\n      add\n      0x00\n      keccak256\n      sload\n        /* \"contracts/rewards/DynamicRewards.sol\":2390:2415  _balances[msg.sender].sub */\n      tag_147\n      swap1\n        /* \"contracts/rewards/DynamicRewards.sol\":2390:2423  _balances[msg.sender].sub(amount) */\n      swap2\n      swap1\n      0xffffffff\n      and\n      jump\t// in\n    tag_148:\n        /* \"contracts/rewards/DynamicRewards.sol\":2366:2375  _balances */\n      0x03\n        /* \"contracts/rewards/DynamicRewards.sol\":2366:2387  _balances[msg.sender] */\n      0x00\n        /* \"contracts/rewards/DynamicRewards.sol\":2376:2386  msg.sender */\n      caller\n        /* \"contracts/rewards/DynamicRewards.sol\":2366:2387  _balances[msg.sender] */\n      0xffffffffffffffffffffffffffffffffffffffff\n      and\n      0xffffffffffffffffffffffffffffffffffffffff\n      and\n      dup2\n      mstore\n      0x20\n      add\n      swap1\n      dup2\n      mstore\n      0x20\n      add\n      0x00\n      keccak256\n        /* \"contracts/rewards/DynamicRewards.sol\":2366:2423  _balances[msg.sender] = _balances[msg.sender].sub(amount) */\n      dup2\n      swap1\n      sstore\n      pop\n        /* \"contracts/rewards/DynamicRewards.sol\":2444:2456  bool success */\n      0x00\n        /* \"contracts/rewards/DynamicRewards.sol\":2459:2471  stakingToken */\n      immutable(\"0xa2d428e9c4facd0743249251fe9c0ddba9cd5b0a11e24507191ed7e4f89daaf2\")\n        /* \"contracts/rewards/DynamicRewards.sol\":2459:2480  stakingToken.transfer */\n      0xffffffffffffffffffffffffffffffffffffffff\n      and\n      0xa9059cbb\n        /* \"contracts/rewards/DynamicRewards.sol\":2481:2491  msg.sender */\n      caller\n        /* \"contracts/rewards/DynamicRewards.sol\":2493:2499  amount */\n      dup5\n        /* \"contracts/rewards/DynamicRewards.sol\":2459:2500  stakingToken.transfer(msg.sender, amount) */\n      mload(0x40)\n      dup4\n      0xffffffff\n      and\n      0xe0\n      shl\n      dup2\n      mstore\n      0x04\n      add\n      tag_149\n      swap3\n      swap2\n      swap1\n      tag_150\n      jump\t// in\n    tag_149:\n      0x20\n      mload(0x40)\n      dup1\n      dup4\n      sub\n      dup2\n      0x00\n      dup8\n      gas\n      call\n      iszero\n      dup1\n      iszero\n      tag_152\n      jumpi\n      returndatasize\n      0x00\n      dup1\n      returndatacopy\n      revert(0x00, returndatasize)\n    tag_152:\n      pop\n      pop\n      pop\n      pop\n      mload(0x40)\n      returndatasize\n      not(0x1f)\n      0x1f\n      dup3\n      add\n      and\n      dup3\n      add\n      dup1\n      0x40\n      mstore\n      pop\n      dup2\n      add\n      swap1\n      tag_153\n      swap2\n      swap1\n      tag_154\n      jump\t// in\n    tag_153:\n        /* \"contracts/rewards/DynamicRewards.sol\":2444:2500  bool success = stakingToken.transfer(msg.sender, amount) */\n      swap1\n      pop\n        /* \"contracts/rewards/DynamicRewards.sol\":2519:2526  success */\n      dup1\n        /* \"contracts/rewards/DynamicRewards.sol\":2511:2546  require(success, \"Transfer failed\") */\n      tag_155\n      jumpi\n      mload(0x40)\n      0x08c379a000000000000000000000000000000000000000000000000000000000\n      dup2\n      mstore\n      0x04\n      add\n      tag_156\n      swap1\n      tag_157\n      jump\t// in\n    tag_156:\n      mload(0x40)\n      dup1\n      swap2\n      sub\n      swap1\n      revert\n    tag_155:\n        /* \"contracts/rewards/DynamicRewards.sol\":2572:2582  msg.sender */\n      caller\n        /* \"contracts/rewards/DynamicRewards.sol\":2562:2591  Withdrawn(msg.sender, amount) */\n      0xffffffffffffffffffffffffffffffffffffffff\n      and\n      0x7084f5476618d8e60b11ef0d7d3f06914655adb8793e28ff7f018d4c76d505d5\n        /* \"contracts/rewards/DynamicRewards.sol\":2584:2590  amount */\n      dup4\n        /* \"contracts/rewards/DynamicRewards.sol\":2562:2591  Withdrawn(msg.sender, amount) */\n      mload(0x40)\n      tag_158\n      swap2\n      swap1\n      tag_30\n      jump\t// in\n    tag_158:\n      mload(0x40)\n      dup1\n      swap2\n      sub\n      swap1\n      log2\n        /* \"contracts/rewards/DynamicRewards.sol\":2131:2599  {... */\n      pop\n        /* \"@openzeppelin/contracts/security/ReentrancyGuard.sol\":2303:2323  _nonReentrantAfter() */\n      tag_159\n        /* \"@openzeppelin/contracts/security/ReentrancyGuard.sol\":2303:2321  _nonReentrantAfter */\n      tag_160\n        /* \"@openzeppelin/contracts/security/ReentrancyGuard.sol\":2303:2323  _nonReentrantAfter() */\n      jump\t// in\n    tag_159:\n        /* \"contracts/rewards/DynamicRewards.sol\":2075:2599  function withdraw(uint256 amount) external nonReentrant {... */\n      pop\n      jump\t// out\n        /* \"@openzeppelin/contracts/access/AccessControl.sol\":4226:4362  function grantRole(bytes32 role, address account) public virtual onlyRole(getRoleAdmin(role)) {... */\n    tag_59:\n        /* \"@openzeppelin/contracts/access/AccessControl.sol\":4300:4318  getRoleAdmin(role) */\n      tag_161\n        /* \"@openzeppelin/contracts/access/AccessControl.sol\":4313:4317  role */\n      dup3\n        /* \"@openzeppelin/contracts/access/AccessControl.sol\":4300:4312  getRoleAdmin */\n      tag_50\n        /* \"@openzeppelin/contracts/access/AccessControl.sol\":4300:4318  getRoleAdmin(role) */\n      jump\t// in\n    tag_161:\n        /* \"@openzeppelin/contracts/access/AccessControl.sol\":2464:2480  _checkRole(role) */\n      tag_163\n        /* \"@openzeppelin/contracts/access/AccessControl.sol\":2475:2479  role */\n      dup2\n        /* \"@openzeppelin/contracts/access/AccessControl.sol\":2464:2474  _checkRole */\n      tag_164\n        /* \"@openzeppelin/contracts/access/AccessControl.sol\":2464:2480  _checkRole(role) */\n      jump\t// in\n    tag_163:\n        /* \"@openzeppelin/contracts/access/AccessControl.sol\":4330:4355  _grantRole(role, account) */\n      tag_166\n        /* \"@openzeppelin/contracts/access/AccessControl.sol\":4341:4345  role */\n      dup4\n        /* \"@openzeppelin/contracts/access/AccessControl.sol\":4347:4354  account */\n      dup4\n        /* \"@openzeppelin/contracts/access/AccessControl.sol\":4330:4340  _grantRole */\n      tag_167\n        /* \"@openzeppelin/contracts/access/AccessControl.sol\":4330:4355  _grantRole(role, account) */\n      jump\t// in\n    tag_166:\n      pop\n        /* \"@openzeppelin/contracts/access/AccessControl.sol\":4226:4362  function grantRole(bytes32 role, address account) public virtual onlyRole(getRoleAdmin(role)) {... */\n      pop\n      pop\n      pop\n      jump\t// out\n        /* \"@openzeppelin/contracts/access/AccessControl.sol\":5328:5573  function renounceRole(bytes32 role, address callerConfirmation) public virtual {... */\n    tag_62:\n        /* \"@openzeppelin/contracts/access/AccessControl.sol\":5443:5455  _msgSender() */\n      tag_169\n        /* \"@openzeppelin/contracts/access/AccessControl.sol\":5443:5453  _msgSender */\n      tag_170\n        /* \"@openzeppelin/contracts/access/AccessControl.sol\":5443:5455  _msgSender() */\n      jump\t// in\n    tag_169:\n        /* \"@openzeppelin/contracts/access/AccessControl.sol\":5421:5455  callerConfirmation != _msgSender() */\n      0xffffffffffffffffffffffffffffffffffffffff\n      and\n        /* \"@openzeppelin/contracts/access/AccessControl.sol\":5421:5439  callerConfirmation */\n      dup2\n        /* \"@openzeppelin/contracts/access/AccessControl.sol\":5421:5455  callerConfirmation != _msgSender() */\n      0xffffffffffffffffffffffffffffffffffffffff\n      and\n      eq\n        /* \"@openzeppelin/contracts/access/AccessControl.sol\":5417:5519  if (callerConfirmation != _msgSender()) {... */\n      tag_171\n      jumpi\n        /* \"@openzeppelin/contracts/access/AccessControl.sol\":5478:5508  AccessControlBadConfirmation() */\n      mload(0x40)\n      0x6697b23200000000000000000000000000000000000000000000000000000000\n      dup2\n      mstore\n      0x04\n      add\n      mload(0x40)\n      dup1\n      swap2\n      sub\n      swap1\n      revert\n        /* \"@openzeppelin/contracts/access/AccessControl.sol\":5417:5519  if (callerConfirmation != _msgSender()) {... */\n    tag_171:\n        /* \"@openzeppelin/contracts/access/AccessControl.sol\":5529:5566  _revokeRole(role, callerConfirmation) */\n      tag_172\n        /* \"@openzeppelin/contracts/access/AccessControl.sol\":5541:5545  role */\n      dup3\n        /* \"@openzeppelin/contracts/access/AccessControl.sol\":5547:5565  callerConfirmation */\n      dup3\n        /* \"@openzeppelin/contracts/access/AccessControl.sol\":5529:5540  _revokeRole */\n      tag_173\n        /* \"@openzeppelin/contracts/access/AccessControl.sol\":5529:5566  _revokeRole(role, callerConfirmation) */\n      jump\t// in\n    tag_172:\n      pop\n        /* \"@openzeppelin/contracts/access/AccessControl.sol\":5328:5573  function renounceRole(bytes32 role, address callerConfirmation) public virtual {... */\n      pop\n      pop\n      jump\t// out\n        /* \"contracts/rewards/DynamicRewards.sol\":4681:5637  function claimRewards() external nonReentrant {... */\n    tag_64:\n        /* \"@openzeppelin/contracts/security/ReentrancyGuard.sol\":2261:2282  _nonReentrantBefore() */\n      tag_175\n        /* \"@openzeppelin/contracts/security/ReentrancyGuard.sol\":2261:2280  _nonReentrantBefore */\n      tag_136\n        /* \"@openzeppelin/contracts/security/ReentrancyGuard.sol\":2261:2282  _nonReentrantBefore() */\n      jump\t// in\n    tag_175:\n        /* \"contracts/rewards/DynamicRewards.sol\":4738:4764  _updateRewards(msg.sender) */\n      tag_177\n        /* \"contracts/rewards/DynamicRewards.sol\":4753:4763  msg.sender */\n      caller\n        /* \"contracts/rewards/DynamicRewards.sol\":4738:4752  _updateRewards */\n      tag_145\n        /* \"contracts/rewards/DynamicRewards.sol\":4738:4764  _updateRewards(msg.sender) */\n      jump\t// in\n    tag_177:\n        /* \"contracts/rewards/DynamicRewards.sol\":4785:4805  uint256 totalClaimed */\n      0x00\n        /* \"contracts/rewards/DynamicRewards.sol\":4825:4834  uint256 i */\n      dup1\n        /* \"contracts/rewards/DynamicRewards.sol\":4837:4838  1 */\n      0x01\n        /* \"contracts/rewards/DynamicRewards.sol\":4825:4838  uint256 i = 1 */\n      swap1\n      pop\n        /* \"contracts/rewards/DynamicRewards.sol\":4820:5500  for (uint256 i = 1; i <= currentScheduleId; i++) {... */\n    tag_178:\n        /* \"contracts/rewards/DynamicRewards.sol\":4845:4862  currentScheduleId */\n      sload(0x05)\n        /* \"contracts/rewards/DynamicRewards.sol\":4840:4841  i */\n      dup2\n        /* \"contracts/rewards/DynamicRewards.sol\":4840:4862  i <= currentScheduleId */\n      gt\n        /* \"contracts/rewards/DynamicRewards.sol\":4820:5500  for (uint256 i = 1; i <= currentScheduleId; i++) {... */\n      tag_179\n      jumpi\n        /* \"contracts/rewards/DynamicRewards.sol\":4884:4915  RewardSchedule storage schedule */\n      0x00\n        /* \"contracts/rewards/DynamicRewards.sol\":4918:4933  rewardSchedules */\n      0x04\n        /* \"contracts/rewards/DynamicRewards.sol\":4918:4936  rewardSchedules[i] */\n      0x00\n        /* \"contracts/rewards/DynamicRewards.sol\":4934:4935  i */\n      dup4\n        /* \"contracts/rewards/DynamicRewards.sol\":4918:4936  rewardSchedules[i] */\n      dup2\n      mstore\n      0x20\n      add\n      swap1\n      dup2\n      mstore\n      0x20\n      add\n      0x00\n      keccak256\n        /* \"contracts/rewards/DynamicRewards.sol\":4884:4936  RewardSchedule storage schedule = rewardSchedules[i] */\n      swap1\n      pop\n        /* \"contracts/rewards/DynamicRewards.sol\":4951:4965  uint256 amount */\n      0x00\n        /* \"contracts/rewards/DynamicRewards.sol\":4968:4980  _userAccrued */\n      0x06\n        /* \"contracts/rewards/DynamicRewards.sol\":4968:4992  _userAccrued[msg.sender] */\n      0x00\n        /* \"contracts/rewards/DynamicRewards.sol\":4981:4991  msg.sender */\n      caller\n        /* \"contracts/rewards/DynamicRewards.sol\":4968:4992  _userAccrued[msg.sender] */\n      0xffffffffffffffffffffffffffffffffffffffff\n      and\n      0xffffffffffffffffffffffffffffffffffffffff\n      and\n      dup2\n      mstore\n      0x20\n      add\n      swap1\n      dup2\n      mstore\n      0x20\n      add\n      0x00\n      keccak256\n        /* \"contracts/rewards/DynamicRewards.sol\":4968:4995  _userAccrued[msg.sender][i] */\n      0x00\n        /* \"contracts/rewards/DynamicRewards.sol\":4993:4994  i */\n      dup5\n        /* \"contracts/rewards/DynamicRewards.sol\":4968:4995  _userAccrued[msg.sender][i] */\n      dup2\n      mstore\n      0x20\n      add\n      swap1\n      dup2\n      mstore\n      0x20\n      add\n      0x00\n      keccak256\n      sload\n        /* \"contracts/rewards/DynamicRewards.sol\":4951:4995  uint256 amount = _userAccrued[msg.sender][i] */\n      swap1\n      pop\n        /* \"contracts/rewards/DynamicRewards.sol\":5024:5025  0 */\n      0x00\n        /* \"contracts/rewards/DynamicRewards.sol\":5014:5020  amount */\n      dup2\n        /* \"contracts/rewards/DynamicRewards.sol\":5014:5025  amount == 0 */\n      sub\n        /* \"contracts/rewards/DynamicRewards.sol\":5010:5035  if (amount == 0) continue */\n      tag_181\n      jumpi\n        /* \"contracts/rewards/DynamicRewards.sol\":5027:5035  continue */\n      pop\n      pop\n      jump(tag_180)\n        /* \"contracts/rewards/DynamicRewards.sol\":5010:5035  if (amount == 0) continue */\n    tag_181:\n        /* \"contracts/rewards/DynamicRewards.sol\":5146:5154  schedule */\n      dup2\n        /* \"contracts/rewards/DynamicRewards.sol\":5146:5167  schedule.totalRewards */\n      0x02\n      add\n      sload\n        /* \"contracts/rewards/DynamicRewards.sol\":5107:5142  schedule.claimedRewards.add(amount) */\n      tag_182\n        /* \"contracts/rewards/DynamicRewards.sol\":5135:5141  amount */\n      dup3\n        /* \"contracts/rewards/DynamicRewards.sol\":5107:5115  schedule */\n      dup5\n        /* \"contracts/rewards/DynamicRewards.sol\":5107:5130  schedule.claimedRewards */\n      0x03\n      add\n      sload\n        /* \"contracts/rewards/DynamicRewards.sol\":5107:5134  schedule.claimedRewards.add */\n      tag_106\n      swap1\n        /* \"contracts/rewards/DynamicRewards.sol\":5107:5142  schedule.claimedRewards.add(amount) */\n      swap2\n      swap1\n      0xffffffff\n      and\n      jump\t// in\n    tag_182:\n        /* \"contracts/rewards/DynamicRewards.sol\":5107:5167  schedule.claimedRewards.add(amount) <= schedule.totalRewards */\n      gt\n      iszero\n        /* \"contracts/rewards/DynamicRewards.sol\":5081:5215  require(... */\n      tag_183\n      jumpi\n      mload(0x40)\n      0x08c379a000000000000000000000000000000000000000000000000000000000\n      dup2\n      mstore\n      0x04\n      add\n      tag_184\n      swap1\n      tag_185\n      jump\t// in\n    tag_184:\n      mload(0x40)\n      dup1\n      swap2\n      sub\n      swap1\n      revert\n    tag_183:\n        /* \"contracts/rewards/DynamicRewards.sol\":5274:5275  0 */\n      0x00\n        /* \"contracts/rewards/DynamicRewards.sol\":5244:5256  _userAccrued */\n      0x06\n        /* \"contracts/rewards/DynamicRewards.sol\":5244:5268  _userAccrued[msg.sender] */\n      0x00\n        /* \"contracts/rewards/DynamicRewards.sol\":5257:5267  msg.sender */\n      caller\n        /* \"contracts/rewards/DynamicRewards.sol\":5244:5268  _userAccrued[msg.sender] */\n      0xffffffffffffffffffffffffffffffffffffffff\n      and\n      0xffffffffffffffffffffffffffffffffffffffff\n      and\n      dup2\n      mstore\n      0x20\n      add\n      swap1\n      dup2\n      mstore\n      0x20\n      add\n      0x00\n      keccak256\n        /* \"contracts/rewards/DynamicRewards.sol\":5244:5271  _userAccrued[msg.sender][i] */\n      0x00\n        /* \"contracts/rewards/DynamicRewards.sol\":5269:5270  i */\n      dup6\n        /* \"contracts/rewards/DynamicRewards.sol\":5244:5271  _userAccrued[msg.sender][i] */\n      dup2\n      mstore\n      0x20\n      add\n      swap1\n      dup2\n      mstore\n      0x20\n      add\n      0x00\n      keccak256\n        /* \"contracts/rewards/DynamicRewards.sol\":5244:5275  _userAccrued[msg.sender][i] = 0 */\n      dup2\n      swap1\n      sstore\n      pop\n        /* \"contracts/rewards/DynamicRewards.sol\":5316:5351  schedule.claimedRewards.add(amount) */\n      tag_186\n        /* \"contracts/rewards/DynamicRewards.sol\":5344:5350  amount */\n      dup2\n        /* \"contracts/rewards/DynamicRewards.sol\":5316:5324  schedule */\n      dup4\n        /* \"contracts/rewards/DynamicRewards.sol\":5316:5339  schedule.claimedRewards */\n      0x03\n      add\n      sload\n        /* \"contracts/rewards/DynamicRewards.sol\":5316:5343  schedule.claimedRewards.add */\n      tag_106\n      swap1\n        /* \"contracts/rewards/DynamicRewards.sol\":5316:5351  schedule.claimedRewards.add(amount) */\n      swap2\n      swap1\n      0xffffffff\n      and\n      jump\t// in\n    tag_186:\n        /* \"contracts/rewards/DynamicRewards.sol\":5290:5298  schedule */\n      dup3\n        /* \"contracts/rewards/DynamicRewards.sol\":5290:5313  schedule.claimedRewards */\n      0x03\n      add\n        /* \"contracts/rewards/DynamicRewards.sol\":5290:5351  schedule.claimedRewards = schedule.claimedRewards.add(amount) */\n      dup2\n      swap1\n      sstore\n      pop\n        /* \"contracts/rewards/DynamicRewards.sol\":5380:5434  _sendReward(schedule.rewardsToken, msg.sender, amount) */\n      tag_187\n        /* \"contracts/rewards/DynamicRewards.sol\":5392:5400  schedule */\n      dup3\n        /* \"contracts/rewards/DynamicRewards.sol\":5392:5413  schedule.rewardsToken */\n      0x04\n      add\n      0x00\n      swap1\n      sload\n      swap1\n      0x0100\n      exp\n      swap1\n      div\n      0xffffffffffffffffffffffffffffffffffffffff\n      and\n        /* \"contracts/rewards/DynamicRewards.sol\":5415:5425  msg.sender */\n      caller\n        /* \"contracts/rewards/DynamicRewards.sol\":5427:5433  amount */\n      dup4\n        /* \"contracts/rewards/DynamicRewards.sol\":5380:5391  _sendReward */\n      tag_188\n        /* \"contracts/rewards/DynamicRewards.sol\":5380:5434  _sendReward(schedule.rewardsToken, msg.sender, amount) */\n      jump\t// in\n    tag_187:\n        /* \"contracts/rewards/DynamicRewards.sol\":5464:5488  totalClaimed.add(amount) */\n      tag_189\n        /* \"contracts/rewards/DynamicRewards.sol\":5481:5487  amount */\n      dup2\n        /* \"contracts/rewards/DynamicRewards.sol\":5464:5476  totalClaimed */\n      dup6\n        /* \"contracts/rewards/DynamicRewards.sol\":5464:5480  totalClaimed.add */\n      tag_106\n      swap1\n        /* \"contracts/rewards/DynamicRewards.sol\":5464:5488  totalClaimed.add(amount) */\n      swap2\n      swap1\n      0xffffffff\n      and\n      jump\t// in\n    tag_189:\n        /* \"contracts/rewards/DynamicRewards.sol\":5449:5488  totalClaimed = totalClaimed.add(amount) */\n      swap4\n      pop\n        /* \"contracts/rewards/DynamicRewards.sol\":4869:5500  {... */\n      pop\n      pop\n        /* \"contracts/rewards/DynamicRewards.sol\":4820:5500  for (uint256 i = 1; i <= currentScheduleId; i++) {... */\n    tag_180:\n        /* \"contracts/rewards/DynamicRewards.sol\":4864:4867  i++ */\n      dup1\n      dup1\n      tag_190\n      swap1\n      tag_108\n      jump\t// in\n    tag_190:\n      swap2\n      pop\n      pop\n        /* \"contracts/rewards/DynamicRewards.sol\":4820:5500  for (uint256 i = 1; i <= currentScheduleId; i++) {... */\n      jump(tag_178)\n    tag_179:\n      pop\n        /* \"contracts/rewards/DynamicRewards.sol\":5535:5536  0 */\n      0x00\n        /* \"contracts/rewards/DynamicRewards.sol\":5520:5532  totalClaimed */\n      dup2\n        /* \"contracts/rewards/DynamicRewards.sol\":5520:5536  totalClaimed > 0 */\n      gt\n        /* \"contracts/rewards/DynamicRewards.sol\":5512:5551  require(totalClaimed > 0, \"No rewards\") */\n      tag_191\n      jumpi\n      mload(0x40)\n      0x08c379a000000000000000000000000000000000000000000000000000000000\n      dup2\n      mstore\n      0x04\n      add\n      tag_192\n      swap1\n      tag_193\n      jump\t// in\n    tag_192:\n      mload(0x40)\n      dup1\n      swap2\n      sub\n      swap1\n      revert\n    tag_191:\n        /* \"contracts/rewards/DynamicRewards.sol\":5581:5591  msg.sender */\n      caller\n        /* \"contracts/rewards/DynamicRewards.sol\":5567:5629  RewardClaimed(msg.sender, totalClaimed, address(stakingToken)) */\n      0xffffffffffffffffffffffffffffffffffffffff\n      and\n      0xf80b6d248ca65e589d3f24c7ce36e2df22ba16ba4e7656aad67e114abbe971d2\n        /* \"contracts/rewards/DynamicRewards.sol\":5593:5605  totalClaimed */\n      dup3\n        /* \"contracts/rewards/DynamicRewards.sol\":5615:5627  stakingToken */\n      immutable(\"0xa2d428e9c4facd0743249251fe9c0ddba9cd5b0a11e24507191ed7e4f89daaf2\")\n        /* \"contracts/rewards/DynamicRewards.sol\":5567:5629  RewardClaimed(msg.sender, totalClaimed, address(stakingToken)) */\n      mload(0x40)\n      tag_194\n      swap3\n      swap2\n      swap1\n      tag_195\n      jump\t// in\n    tag_194:\n      mload(0x40)\n      dup1\n      swap2\n      sub\n      swap1\n      log2\n        /* \"contracts/rewards/DynamicRewards.sol\":4727:5637  {... */\n      pop\n        /* \"@openzeppelin/contracts/security/ReentrancyGuard.sol\":2303:2323  _nonReentrantAfter() */\n      tag_196\n        /* \"@openzeppelin/contracts/security/ReentrancyGuard.sol\":2303:2321  _nonReentrantAfter */\n      tag_160\n        /* \"@openzeppelin/contracts/security/ReentrancyGuard.sol\":2303:2323  _nonReentrantAfter() */\n      jump\t// in\n    tag_196:\n        /* \"contracts/rewards/DynamicRewards.sol\":4681:5637  function claimRewards() external nonReentrant {... */\n      jump\t// out\n        /* \"contracts/rewards/DynamicRewards.sol\":404:472  bytes32 public constant REWARD_MANAGER = keccak256(\"REWARD_MANAGER\") */\n    tag_66:\n        /* \"contracts/rewards/DynamicRewards.sol\":445:472  keccak256(\"REWARD_MANAGER\") */\n      0x6393fa734211156fcc8c7dda6b0650f5c731d4c838c1db43445a149aa2f5b6fe\n        /* \"contracts/rewards/DynamicRewards.sol\":404:472  bytes32 public constant REWARD_MANAGER = keccak256(\"REWARD_MANAGER\") */\n      dup2\n      jump\t// out\n        /* \"contracts/rewards/DynamicRewards.sol\":6333:6443  function balanceOf(address account) public view returns (uint256) {... */\n    tag_70:\n        /* \"contracts/rewards/DynamicRewards.sol\":6390:6397  uint256 */\n      0x00\n        /* \"contracts/rewards/DynamicRewards.sol\":6417:6426  _balances */\n      0x03\n        /* \"contracts/rewards/DynamicRewards.sol\":6417:6435  _balances[account] */\n      0x00\n        /* \"contracts/rewards/DynamicRewards.sol\":6427:6434  account */\n      dup4\n        /* \"contracts/rewards/DynamicRewards.sol\":6417:6435  _balances[account] */\n      0xffffffffffffffffffffffffffffffffffffffff\n      and\n      0xffffffffffffffffffffffffffffffffffffffff\n      and\n      dup2\n      mstore\n      0x20\n      add\n      swap1\n      dup2\n      mstore\n      0x20\n      add\n      0x00\n      keccak256\n      sload\n        /* \"contracts/rewards/DynamicRewards.sol\":6410:6435  return _balances[account] */\n      swap1\n      pop\n        /* \"contracts/rewards/DynamicRewards.sol\":6333:6443  function balanceOf(address account) public view returns (uint256) {... */\n      swap2\n      swap1\n      pop\n      jump\t// out\n        /* \"contracts/rewards/DynamicRewards.sol\":697:733  IERC20 public immutable stakingToken */\n    tag_73:\n      immutable(\"0xa2d428e9c4facd0743249251fe9c0ddba9cd5b0a11e24507191ed7e4f89daaf2\")\n      dup2\n      jump\t// out\n        /* \"contracts/rewards/DynamicRewards.sol\":6451:6542  function totalStaked() public view returns (uint256) {... */\n    tag_77:\n        /* \"contracts/rewards/DynamicRewards.sol\":6495:6502  uint256 */\n      0x00\n        /* \"contracts/rewards/DynamicRewards.sol\":6522:6534  _totalSupply */\n      sload(0x02)\n        /* \"contracts/rewards/DynamicRewards.sol\":6515:6534  return _totalSupply */\n      swap1\n      pop\n        /* \"contracts/rewards/DynamicRewards.sol\":6451:6542  function totalStaked() public view returns (uint256) {... */\n      swap1\n      jump\t// out\n        /* \"contracts/rewards/DynamicRewards.sol\":893:925  uint256 public currentScheduleId */\n    tag_80:\n      sload(0x05)\n      dup2\n      jump\t// out\n        /* \"@openzeppelin/contracts/access/AccessControl.sol\":2854:2990  function hasRole(bytes32 role, address account) public view virtual returns (bool) {... */\n    tag_84:\n        /* \"@openzeppelin/contracts/access/AccessControl.sol\":2931:2935  bool */\n      0x00\n        /* \"@openzeppelin/contracts/access/AccessControl.sol\":2954:2960  _roles */\n      dup1\n        /* \"@openzeppelin/contracts/access/AccessControl.sol\":2954:2966  _roles[role] */\n      0x00\n        /* \"@openzeppelin/contracts/access/AccessControl.sol\":2961:2965  role */\n      dup5\n        /* \"@openzeppelin/contracts/access/AccessControl.sol\":2954:2966  _roles[role] */\n      dup2\n      mstore\n      0x20\n      add\n      swap1\n      dup2\n      mstore\n      0x20\n      add\n      0x00\n      keccak256\n        /* \"@openzeppelin/contracts/access/AccessControl.sol\":2954:2974  _roles[role].hasRole */\n      0x00\n      add\n        /* \"@openzeppelin/contracts/access/AccessControl.sol\":2954:2983  _roles[role].hasRole[account] */\n      0x00\n        /* \"@openzeppelin/contracts/access/AccessControl.sol\":2975:2982  account */\n      dup4\n        /* \"@openzeppelin/contracts/access/AccessControl.sol\":2954:2983  _roles[role].hasRole[account] */\n      0xffffffffffffffffffffffffffffffffffffffff\n      and\n      0xffffffffffffffffffffffffffffffffffffffff\n      and\n      dup2\n      mstore\n      0x20\n      add\n      swap1\n      dup2\n      mstore\n      0x20\n      add\n      0x00\n      keccak256\n      0x00\n      swap1\n      sload\n      swap1\n      0x0100\n      exp\n      swap1\n      div\n      0xff\n      and\n        /* \"@openzeppelin/contracts/access/AccessControl.sol\":2947:2983  return _roles[role].hasRole[account] */\n      swap1\n      pop\n        /* \"@openzeppelin/contracts/access/AccessControl.sol\":2854:2990  function hasRole(bytes32 role, address account) public view virtual returns (bool) {... */\n      swap3\n      swap2\n      pop\n      pop\n      jump\t// out\n        /* \"@openzeppelin/contracts/access/AccessControl.sol\":2187:2236  bytes32 public constant DEFAULT_ADMIN_ROLE = 0x00 */\n    tag_87:\n        /* \"@openzeppelin/contracts/access/AccessControl.sol\":2232:2236  0x00 */\n      0x00\n        /* \"@openzeppelin/contracts/access/AccessControl.sol\":2187:2236  bytes32 public constant DEFAULT_ADMIN_ROLE = 0x00 */\n      dup1\n      shl\n      dup2\n      jump\t// out\n        /* \"contracts/rewards/DynamicRewards.sol\":1605:2067  function stake(uint256 amount) external nonReentrant {... */\n    tag_91:\n        /* \"@openzeppelin/contracts/security/ReentrancyGuard.sol\":2261:2282  _nonReentrantBefore() */\n      tag_201\n        /* \"@openzeppelin/contracts/security/ReentrancyGuard.sol\":2261:2280  _nonReentrantBefore */\n      tag_136\n        /* \"@openzeppelin/contracts/security/ReentrancyGuard.sol\":2261:2282  _nonReentrantBefore() */\n      jump\t// in\n    tag_201:\n        /* \"contracts/rewards/DynamicRewards.sol\":1686:1687  0 */\n      0x00\n        /* \"contracts/rewards/DynamicRewards.sol\":1677:1683  amount */\n      dup2\n        /* \"contracts/rewards/DynamicRewards.sol\":1677:1687  amount > 0 */\n      gt\n        /* \"contracts/rewards/DynamicRewards.sol\":1669:1710  require(amount > 0, \"Amount must be > 0\") */\n      tag_203\n      jumpi\n      mload(0x40)\n      0x08c379a000000000000000000000000000000000000000000000000000000000\n      dup2\n      mstore\n      0x04\n      add\n      tag_204\n      swap1\n      tag_140\n      jump\t// in\n    tag_204:\n      mload(0x40)\n      dup1\n      swap2\n      sub\n      swap1\n      revert\n    tag_203:\n        /* \"contracts/rewards/DynamicRewards.sol\":1721:1747  _updateRewards(msg.sender) */\n      tag_205\n        /* \"contracts/rewards/DynamicRewards.sol\":1736:1746  msg.sender */\n      caller\n        /* \"contracts/rewards/DynamicRewards.sol\":1721:1735  _updateRewards */\n      tag_145\n        /* \"contracts/rewards/DynamicRewards.sol\":1721:1747  _updateRewards(msg.sender) */\n      jump\t// in\n    tag_205:\n        /* \"contracts/rewards/DynamicRewards.sol\":1783:1807  _totalSupply.add(amount) */\n      tag_206\n        /* \"contracts/rewards/DynamicRewards.sol\":1800:1806  amount */\n      dup2\n        /* \"contracts/rewards/DynamicRewards.sol\":1783:1795  _totalSupply */\n      sload(0x02)\n        /* \"contracts/rewards/DynamicRewards.sol\":1783:1799  _totalSupply.add */\n      tag_106\n      swap1\n        /* \"contracts/rewards/DynamicRewards.sol\":1783:1807  _totalSupply.add(amount) */\n      swap2\n      swap1\n      0xffffffff\n      and\n      jump\t// in\n    tag_206:\n        /* \"contracts/rewards/DynamicRewards.sol\":1768:1780  _totalSupply */\n      0x02\n        /* \"contracts/rewards/DynamicRewards.sol\":1768:1807  _totalSupply = _totalSupply.add(amount) */\n      dup2\n      swap1\n      sstore\n      pop\n        /* \"contracts/rewards/DynamicRewards.sol\":1842:1875  _balances[msg.sender].add(amount) */\n      tag_207\n        /* \"contracts/rewards/DynamicRewards.sol\":1868:1874  amount */\n      dup2\n        /* \"contracts/rewards/DynamicRewards.sol\":1842:1851  _balances */\n      0x03\n        /* \"contracts/rewards/DynamicRewards.sol\":1842:1863  _balances[msg.sender] */\n      0x00\n        /* \"contracts/rewards/DynamicRewards.sol\":1852:1862  msg.sender */\n      caller\n        /* \"contracts/rewards/DynamicRewards.sol\":1842:1863  _balances[msg.sender] */\n      0xffffffffffffffffffffffffffffffffffffffff\n      and\n      0xffffffffffffffffffffffffffffffffffffffff\n      and\n      dup2\n      mstore\n      0x20\n      add\n      swap1\n      dup2\n      mstore\n      0x20\n      add\n      0x00\n      keccak256\n      sload\n        /* \"contracts/rewards/DynamicRewards.sol\":1842:1867  _balances[msg.sender].add */\n      tag_106\n      swap1\n        /* \"contracts/rewards/DynamicRewards.sol\":1842:1875  _balances[msg.sender].add(amount) */\n      swap2\n      swap1\n      0xffffffff\n      and\n      jump\t// in\n    tag_207:\n        /* \"contracts/rewards/DynamicRewards.sol\":1818:1827  _balances */\n      0x03\n        /* \"contracts/rewards/DynamicRewards.sol\":1818:1839  _balances[msg.sender] */\n      0x00\n        /* \"contracts/rewards/DynamicRewards.sol\":1828:1838  msg.sender */\n      caller\n        /* \"contracts/rewards/DynamicRewards.sol\":1818:1839  _balances[msg.sender] */\n      0xffffffffffffffffffffffffffffffffffffffff\n      and\n      0xffffffffffffffffffffffffffffffffffffffff\n      and\n      dup2\n      mstore\n      0x20\n      add\n      swap1\n      dup2\n      mstore\n      0x20\n      add\n      0x00\n      keccak256\n        /* \"contracts/rewards/DynamicRewards.sol\":1818:1875  _balances[msg.sender] = _balances[msg.sender].add(amount) */\n      dup2\n      swap1\n      sstore\n      pop\n        /* \"contracts/rewards/DynamicRewards.sol\":1896:1908  bool success */\n      0x00\n        /* \"contracts/rewards/DynamicRewards.sol\":1911:1923  stakingToken */\n      immutable(\"0xa2d428e9c4facd0743249251fe9c0ddba9cd5b0a11e24507191ed7e4f89daaf2\")\n        /* \"contracts/rewards/DynamicRewards.sol\":1911:1936  stakingToken.transferFrom */\n      0xffffffffffffffffffffffffffffffffffffffff\n      and\n      0x23b872dd\n        /* \"contracts/rewards/DynamicRewards.sol\":1937:1947  msg.sender */\n      caller\n        /* \"contracts/rewards/DynamicRewards.sol\":1957:1961  this */\n      address\n        /* \"contracts/rewards/DynamicRewards.sol\":1964:1970  amount */\n      dup6\n        /* \"contracts/rewards/DynamicRewards.sol\":1911:1971  stakingToken.transferFrom(msg.sender, address(this), amount) */\n      mload(0x40)\n      dup5\n      0xffffffff\n      and\n      0xe0\n      shl\n      dup2\n      mstore\n      0x04\n      add\n      tag_208\n      swap4\n      swap3\n      swap2\n      swap1\n      tag_209\n      jump\t// in\n    tag_208:\n      0x20\n      mload(0x40)\n      dup1\n      dup4\n      sub\n      dup2\n      0x00\n      dup8\n      gas\n      call\n      iszero\n      dup1\n      iszero\n      tag_211\n      jumpi\n      returndatasize\n      0x00\n      dup1\n      returndatacopy\n      revert(0x00, returndatasize)\n    tag_211:\n      pop\n      pop\n      pop\n      pop\n      mload(0x40)\n      returndatasize\n      not(0x1f)\n      0x1f\n      dup3\n      add\n      and\n      dup3\n      add\n      dup1\n      0x40\n      mstore\n      pop\n      dup2\n      add\n      swap1\n      tag_212\n      swap2\n      swap1\n      tag_154\n      jump\t// in\n    tag_212:\n        /* \"contracts/rewards/DynamicRewards.sol\":1896:1971  bool success = stakingToken.transferFrom(msg.sender, address(this), amount) */\n      swap1\n      pop\n        /* \"contracts/rewards/DynamicRewards.sol\":1990:1997  success */\n      dup1\n        /* \"contracts/rewards/DynamicRewards.sol\":1982:2017  require(success, \"Transfer failed\") */\n      tag_213\n      jumpi\n      mload(0x40)\n      0x08c379a000000000000000000000000000000000000000000000000000000000\n      dup2\n      mstore\n      0x04\n      add\n      tag_214\n      swap1\n      tag_157\n      jump\t// in\n    tag_214:\n      mload(0x40)\n      dup1\n      swap2\n      sub\n      swap1\n      revert\n    tag_213:\n        /* \"contracts/rewards/DynamicRewards.sol\":2040:2050  msg.sender */\n      caller\n        /* \"contracts/rewards/DynamicRewards.sol\":2033:2059  Staked(msg.sender, amount) */\n      0xffffffffffffffffffffffffffffffffffffffff\n      and\n      0x9e71bc8eea02a63969f509818f2dafb9254532904319f9dbda79b67bd34a5f3d\n        /* \"contracts/rewards/DynamicRewards.sol\":2052:2058  amount */\n      dup4\n        /* \"contracts/rewards/DynamicRewards.sol\":2033:2059  Staked(msg.sender, amount) */\n      mload(0x40)\n      tag_215\n      swap2\n      swap1\n      tag_30\n      jump\t// in\n    tag_215:\n      mload(0x40)\n      dup1\n      swap2\n      sub\n      swap1\n      log2\n        /* \"contracts/rewards/DynamicRewards.sol\":1658:2067  {... */\n      pop\n        /* \"@openzeppelin/contracts/security/ReentrancyGuard.sol\":2303:2323  _nonReentrantAfter() */\n      tag_216\n        /* \"@openzeppelin/contracts/security/ReentrancyGuard.sol\":2303:2321  _nonReentrantAfter */\n      tag_160\n        /* \"@openzeppelin/contracts/security/ReentrancyGuard.sol\":2303:2323  _nonReentrantAfter() */\n      jump\t// in\n    tag_216:\n        /* \"contracts/rewards/DynamicRewards.sol\":1605:2067  function stake(uint256 amount) external nonReentrant {... */\n      pop\n      jump\t// out\n        /* \"@openzeppelin/contracts/access/AccessControl.sol\":4642:4780  function revokeRole(bytes32 role, address account) public virtual onlyRole(getRoleAdmin(role)) {... */\n    tag_94:\n        /* \"@openzeppelin/contracts/access/AccessControl.sol\":4717:4735  getRoleAdmin(role) */\n      tag_217\n        /* \"@openzeppelin/contracts/access/AccessControl.sol\":4730:4734  role */\n      dup3\n        /* \"@openzeppelin/contracts/access/AccessControl.sol\":4717:4729  getRoleAdmin */\n      tag_50\n        /* \"@openzeppelin/contracts/access/AccessControl.sol\":4717:4735  getRoleAdmin(role) */\n      jump\t// in\n    tag_217:\n        /* \"@openzeppelin/contracts/access/AccessControl.sol\":2464:2480  _checkRole(role) */\n      tag_219\n        /* \"@openzeppelin/contracts/access/AccessControl.sol\":2475:2479  role */\n      dup2\n        /* \"@openzeppelin/contracts/access/AccessControl.sol\":2464:2474  _checkRole */\n      tag_164\n        /* \"@openzeppelin/contracts/access/AccessControl.sol\":2464:2480  _checkRole(role) */\n      jump\t// in\n    tag_219:\n        /* \"@openzeppelin/contracts/access/AccessControl.sol\":4747:4773  _revokeRole(role, account) */\n      tag_221\n        /* \"@openzeppelin/contracts/access/AccessControl.sol\":4759:4763  role */\n      dup4\n        /* \"@openzeppelin/contracts/access/AccessControl.sol\":4765:4772  account */\n      dup4\n        /* \"@openzeppelin/contracts/access/AccessControl.sol\":4747:4758  _revokeRole */\n      tag_173\n        /* \"@openzeppelin/contracts/access/AccessControl.sol\":4747:4773  _revokeRole(role, account) */\n      jump\t// in\n    tag_221:\n      pop\n        /* \"@openzeppelin/contracts/access/AccessControl.sol\":4642:4780  function revokeRole(bytes32 role, address account) public virtual onlyRole(getRoleAdmin(role)) {... */\n      pop\n      pop\n      pop\n      jump\t// out\n        /* \"contracts/rewards/DynamicRewards.sol\":2666:3561  function addRewardSchedule(... */\n    tag_98:\n        /* \"contracts/rewards/DynamicRewards.sol\":445:472  keccak256(\"REWARD_MANAGER\") */\n      0x6393fa734211156fcc8c7dda6b0650f5c731d4c838c1db43445a149aa2f5b6fe\n        /* \"@openzeppelin/contracts/access/AccessControl.sol\":2464:2480  _checkRole(role) */\n      tag_223\n        /* \"@openzeppelin/contracts/access/AccessControl.sol\":2475:2479  role */\n      dup2\n        /* \"@openzeppelin/contracts/access/AccessControl.sol\":2464:2474  _checkRole */\n      tag_164\n        /* \"@openzeppelin/contracts/access/AccessControl.sol\":2464:2480  _checkRole(role) */\n      jump\t// in\n    tag_223:\n        /* \"contracts/rewards/DynamicRewards.sol\":2882:2897  block.timestamp */\n      timestamp\n        /* \"contracts/rewards/DynamicRewards.sol\":2869:2878  startTime */\n      dup6\n        /* \"contracts/rewards/DynamicRewards.sol\":2869:2897  startTime >= block.timestamp */\n      lt\n      iszero\n        /* \"contracts/rewards/DynamicRewards.sol\":2861:2920  require(startTime >= block.timestamp, \"Start time in past\") */\n      tag_225\n      jumpi\n      mload(0x40)\n      0x08c379a000000000000000000000000000000000000000000000000000000000\n      dup2\n      mstore\n      0x04\n      add\n      tag_226\n      swap1\n      tag_227\n      jump\t// in\n    tag_226:\n      mload(0x40)\n      dup1\n      swap2\n      sub\n      swap1\n      revert\n    tag_225:\n        /* \"contracts/rewards/DynamicRewards.sol\":2950:2951  0 */\n      0x00\n        /* \"contracts/rewards/DynamicRewards.sol\":2939:2947  duration */\n      dup5\n        /* \"contracts/rewards/DynamicRewards.sol\":2939:2951  duration > 0 */\n      gt\n        /* \"contracts/rewards/DynamicRewards.sol\":2931:2972  require(duration > 0, \"Invalid duration\") */\n      tag_228\n      jumpi\n      mload(0x40)\n      0x08c379a000000000000000000000000000000000000000000000000000000000\n      dup2\n      mstore\n      0x04\n      add\n      tag_229\n      swap1\n      tag_230\n      jump\t// in\n    tag_229:\n      mload(0x40)\n      dup1\n      swap2\n      sub\n      swap1\n      revert\n    tag_228:\n        /* \"contracts/rewards/DynamicRewards.sol\":3005:3006  0 */\n      0x00\n        /* \"contracts/rewards/DynamicRewards.sol\":2991:3002  totalReward */\n      dup4\n        /* \"contracts/rewards/DynamicRewards.sol\":2991:3006  totalReward > 0 */\n      gt\n        /* \"contracts/rewards/DynamicRewards.sol\":2983:3032  require(totalReward > 0, \"Invalid reward amount\") */\n      tag_231\n      jumpi\n      mload(0x40)\n      0x08c379a000000000000000000000000000000000000000000000000000000000\n      dup2\n      mstore\n      0x04\n      add\n      tag_232\n      swap1\n      tag_233\n      jump\t// in\n    tag_232:\n      mload(0x40)\n      dup1\n      swap2\n      sub\n      swap1\n      revert\n    tag_231:\n        /* \"contracts/rewards/DynamicRewards.sol\":3053:3068  uint256 balance */\n      0x00\n        /* \"contracts/rewards/DynamicRewards.sol\":3078:3090  rewardsToken */\n      dup3\n        /* \"contracts/rewards/DynamicRewards.sol\":3071:3101  IERC20(rewardsToken).balanceOf */\n      0xffffffffffffffffffffffffffffffffffffffff\n      and\n      0x70a08231\n        /* \"contracts/rewards/DynamicRewards.sol\":3110:3114  this */\n      address\n        /* \"contracts/rewards/DynamicRewards.sol\":3071:3116  IERC20(rewardsToken).balanceOf(address(this)) */\n      mload(0x40)\n      dup3\n      0xffffffff\n      and\n      0xe0\n      shl\n      dup2\n      mstore\n      0x04\n      add\n      tag_234\n      swap2\n      swap1\n      tag_235\n      jump\t// in\n    tag_234:\n      0x20\n      mload(0x40)\n      dup1\n      dup4\n      sub\n      dup2\n      dup7\n      gas\n      staticcall\n      iszero\n      dup1\n      iszero\n      tag_237\n      jumpi\n      returndatasize\n      0x00\n      dup1\n      returndatacopy\n      revert(0x00, returndatasize)\n    tag_237:\n      pop\n      pop\n      pop\n      pop\n      mload(0x40)\n      returndatasize\n      not(0x1f)\n      0x1f\n      dup3\n      add\n      and\n      dup3\n      add\n      dup1\n      0x40\n      mstore\n      pop\n      dup2\n      add\n      swap1\n      tag_238\n      swap2\n      swap1\n      tag_239\n      jump\t// in\n    tag_238:\n        /* \"contracts/rewards/DynamicRewards.sol\":3053:3116  uint256 balance = IERC20(rewardsToken).balanceOf(address(this)) */\n      swap1\n      pop\n        /* \"contracts/rewards/DynamicRewards.sol\":3146:3157  totalReward */\n      dup4\n        /* \"contracts/rewards/DynamicRewards.sol\":3135:3142  balance */\n      dup2\n        /* \"contracts/rewards/DynamicRewards.sol\":3135:3157  balance >= totalReward */\n      lt\n      iszero\n        /* \"contracts/rewards/DynamicRewards.sol\":3127:3188  require(balance >= totalReward, \"Insufficient reward tokens\") */\n      tag_240\n      jumpi\n      mload(0x40)\n      0x08c379a000000000000000000000000000000000000000000000000000000000\n      dup2\n      mstore\n      0x04\n      add\n      tag_241\n      swap1\n      tag_242\n      jump\t// in\n    tag_241:\n      mload(0x40)\n      dup1\n      swap2\n      sub\n      swap1\n      revert\n    tag_240:\n        /* \"contracts/rewards/DynamicRewards.sol\":3201:3219  uint256 scheduleId */\n      0x00\n        /* \"contracts/rewards/DynamicRewards.sol\":3224:3241  currentScheduleId */\n      0x05\n      0x00\n        /* \"contracts/rewards/DynamicRewards.sol\":3222:3241  ++currentScheduleId */\n      dup2\n      sload\n      tag_243\n      swap1\n      tag_108\n      jump\t// in\n    tag_243:\n      swap2\n      swap1\n      pop\n      dup2\n      swap1\n      sstore\n        /* \"contracts/rewards/DynamicRewards.sol\":3201:3241  uint256 scheduleId = ++currentScheduleId */\n      swap1\n      pop\n        /* \"contracts/rewards/DynamicRewards.sol\":3282:3504  RewardSchedule({... */\n      mload(0x40)\n      dup1\n      0xa0\n      add\n      0x40\n      mstore\n      dup1\n        /* \"contracts/rewards/DynamicRewards.sol\":3323:3332  startTime */\n      dup9\n        /* \"contracts/rewards/DynamicRewards.sol\":3282:3504  RewardSchedule({... */\n      dup2\n      mstore\n      0x20\n      add\n        /* \"contracts/rewards/DynamicRewards.sol\":3356:3379  startTime.add(duration) */\n      tag_244\n        /* \"contracts/rewards/DynamicRewards.sol\":3370:3378  duration */\n      dup9\n        /* \"contracts/rewards/DynamicRewards.sol\":3356:3365  startTime */\n      dup11\n        /* \"contracts/rewards/DynamicRewards.sol\":3356:3369  startTime.add */\n      tag_106\n      swap1\n        /* \"contracts/rewards/DynamicRewards.sol\":3356:3379  startTime.add(duration) */\n      swap2\n      swap1\n      0xffffffff\n      and\n      jump\t// in\n    tag_244:\n        /* \"contracts/rewards/DynamicRewards.sol\":3282:3504  RewardSchedule({... */\n      dup2\n      mstore\n      0x20\n      add\n        /* \"contracts/rewards/DynamicRewards.sol\":3408:3419  totalReward */\n      dup7\n        /* \"contracts/rewards/DynamicRewards.sol\":3282:3504  RewardSchedule({... */\n      dup2\n      mstore\n      0x20\n      add\n        /* \"contracts/rewards/DynamicRewards.sol\":3450:3451  0 */\n      0x00\n        /* \"contracts/rewards/DynamicRewards.sol\":3282:3504  RewardSchedule({... */\n      dup2\n      mstore\n      0x20\n      add\n        /* \"contracts/rewards/DynamicRewards.sol\":3480:3492  rewardsToken */\n      dup6\n        /* \"contracts/rewards/DynamicRewards.sol\":3282:3504  RewardSchedule({... */\n      0xffffffffffffffffffffffffffffffffffffffff\n      and\n      dup2\n      mstore\n      pop\n        /* \"contracts/rewards/DynamicRewards.sol\":3252:3267  rewardSchedules */\n      0x04\n        /* \"contracts/rewards/DynamicRewards.sol\":3252:3279  rewardSchedules[scheduleId] */\n      0x00\n        /* \"contracts/rewards/DynamicRewards.sol\":3268:3278  scheduleId */\n      dup4\n        /* \"contracts/rewards/DynamicRewards.sol\":3252:3279  rewardSchedules[scheduleId] */\n      dup2\n      mstore\n      0x20\n      add\n      swap1\n      dup2\n      mstore\n      0x20\n      add\n      0x00\n      keccak256\n        /* \"contracts/rewards/DynamicRewards.sol\":3252:3504  rewardSchedules[scheduleId] = RewardSchedule({... */\n      0x00\n      dup3\n      add\n      mload\n      dup2\n      0x00\n      add\n      sstore\n      0x20\n      dup3\n      add\n      mload\n      dup2\n      0x01\n      add\n      sstore\n      0x40\n      dup3\n      add\n      mload\n      dup2\n      0x02\n      add\n      sstore\n      0x60\n      dup3\n      add\n      mload\n      dup2\n      0x03\n      add\n      sstore\n      0x80\n      dup3\n      add\n      mload\n      dup2\n      0x04\n      add\n      exp(0x0100, 0x00)\n      dup2\n      sload\n      dup2\n      0xffffffffffffffffffffffffffffffffffffffff\n      mul\n      not\n      and\n      swap1\n      dup4\n      0xffffffffffffffffffffffffffffffffffffffff\n      and\n      mul\n      or\n      swap1\n      sstore\n      pop\n      swap1\n      pop\n      pop\n        /* \"contracts/rewards/DynamicRewards.sol\":3522:3553  RewardScheduleAdded(scheduleId) */\n      0x85396969f10b93e89b84ce058bbce90a809c86067bb94a5f0243dfe9f9868943\n        /* \"contracts/rewards/DynamicRewards.sol\":3542:3552  scheduleId */\n      dup2\n        /* \"contracts/rewards/DynamicRewards.sol\":3522:3553  RewardScheduleAdded(scheduleId) */\n      mload(0x40)\n      tag_245\n      swap2\n      swap1\n      tag_30\n      jump\t// in\n    tag_245:\n      mload(0x40)\n      dup1\n      swap2\n      sub\n      swap1\n      log1\n        /* \"contracts/rewards/DynamicRewards.sol\":2850:3561  {... */\n      pop\n      pop\n        /* \"contracts/rewards/DynamicRewards.sol\":2666:3561  function addRewardSchedule(... */\n      pop\n      pop\n      pop\n      pop\n      pop\n      jump\t// out\n        /* \"contracts/rewards/DynamicRewards.sol\":3848:4614  function _earnedPerSchedule(address account, uint256 scheduleId) private view returns (uint256) {... */\n    tag_105:\n        /* \"contracts/rewards/DynamicRewards.sol\":3935:3942  uint256 */\n      0x00\n        /* \"contracts/rewards/DynamicRewards.sol\":3955:3986  RewardSchedule storage schedule */\n      dup1\n        /* \"contracts/rewards/DynamicRewards.sol\":3989:4004  rewardSchedules */\n      0x04\n        /* \"contracts/rewards/DynamicRewards.sol\":3989:4016  rewardSchedules[scheduleId] */\n      0x00\n        /* \"contracts/rewards/DynamicRewards.sol\":4005:4015  scheduleId */\n      dup5\n        /* \"contracts/rewards/DynamicRewards.sol\":3989:4016  rewardSchedules[scheduleId] */\n      dup2\n      mstore\n      0x20\n      add\n      swap1\n      dup2\n      mstore\n      0x20\n      add\n      0x00\n      keccak256\n        /* \"contracts/rewards/DynamicRewards.sol\":3955:4016  RewardSchedule storage schedule = rewardSchedules[scheduleId] */\n      swap1\n      pop\n        /* \"contracts/rewards/DynamicRewards.sol\":4053:4054  0 */\n      0x00\n        /* \"contracts/rewards/DynamicRewards.sol\":4031:4040  _balances */\n      0x03\n        /* \"contracts/rewards/DynamicRewards.sol\":4031:4049  _balances[account] */\n      0x00\n        /* \"contracts/rewards/DynamicRewards.sol\":4041:4048  account */\n      dup7\n        /* \"contracts/rewards/DynamicRewards.sol\":4031:4049  _balances[account] */\n      0xffffffffffffffffffffffffffffffffffffffff\n      and\n      0xffffffffffffffffffffffffffffffffffffffff\n      and\n      dup2\n      mstore\n      0x20\n      add\n      swap1\n      dup2\n      mstore\n      0x20\n      add\n      0x00\n      keccak256\n      sload\n        /* \"contracts/rewards/DynamicRewards.sol\":4031:4054  _balances[account] == 0 */\n      eq\n        /* \"contracts/rewards/DynamicRewards.sol\":4031:4094  _balances[account] == 0 || block.timestamp < schedule.startTime */\n      dup1\n      tag_247\n      jumpi\n      pop\n        /* \"contracts/rewards/DynamicRewards.sol\":4076:4084  schedule */\n      dup1\n        /* \"contracts/rewards/DynamicRewards.sol\":4076:4094  schedule.startTime */\n      0x00\n      add\n      sload\n        /* \"contracts/rewards/DynamicRewards.sol\":4058:4073  block.timestamp */\n      timestamp\n        /* \"contracts/rewards/DynamicRewards.sol\":4058:4094  block.timestamp < schedule.startTime */\n      lt\n        /* \"contracts/rewards/DynamicRewards.sol\":4031:4094  _balances[account] == 0 || block.timestamp < schedule.startTime */\n    tag_247:\n        /* \"contracts/rewards/DynamicRewards.sol\":4027:4104  if (_balances[account] == 0 || block.timestamp < schedule.startTime) return 0 */\n      iszero\n      tag_248\n      jumpi\n        /* \"contracts/rewards/DynamicRewards.sol\":4103:4104  0 */\n      0x00\n        /* \"contracts/rewards/DynamicRewards.sol\":4096:4104  return 0 */\n      swap2\n      pop\n      pop\n      jump(tag_246)\n        /* \"contracts/rewards/DynamicRewards.sol\":4027:4104  if (_balances[account] == 0 || block.timestamp < schedule.startTime) return 0 */\n    tag_248:\n        /* \"contracts/rewards/DynamicRewards.sol\":4117:4136  uint256 timeElapsed */\n      0x00\n        /* \"contracts/rewards/DynamicRewards.sol\":4139:4178  block.timestamp.sub(schedule.startTime) */\n      tag_249\n        /* \"contracts/rewards/DynamicRewards.sol\":4159:4167  schedule */\n      dup3\n        /* \"contracts/rewards/DynamicRewards.sol\":4159:4177  schedule.startTime */\n      0x00\n      add\n      sload\n        /* \"contracts/rewards/DynamicRewards.sol\":4139:4154  block.timestamp */\n      timestamp\n        /* \"contracts/rewards/DynamicRewards.sol\":4139:4158  block.timestamp.sub */\n      tag_147\n      swap1\n        /* \"contracts/rewards/DynamicRewards.sol\":4139:4178  block.timestamp.sub(schedule.startTime) */\n      swap2\n      swap1\n      0xffffffff\n      and\n      jump\t// in\n    tag_249:\n        /* \"contracts/rewards/DynamicRewards.sol\":4117:4178  uint256 timeElapsed = block.timestamp.sub(schedule.startTime) */\n      swap1\n      pop\n        /* \"contracts/rewards/DynamicRewards.sol\":4189:4210  uint256 totalDuration */\n      0x00\n        /* \"contracts/rewards/DynamicRewards.sol\":4213:4253  schedule.endTime.sub(schedule.startTime) */\n      tag_250\n        /* \"contracts/rewards/DynamicRewards.sol\":4234:4242  schedule */\n      dup4\n        /* \"contracts/rewards/DynamicRewards.sol\":4234:4252  schedule.startTime */\n      0x00\n      add\n      sload\n        /* \"contracts/rewards/DynamicRewards.sol\":4213:4221  schedule */\n      dup5\n        /* \"contracts/rewards/DynamicRewards.sol\":4213:4229  schedule.endTime */\n      0x01\n      add\n      sload\n        /* \"contracts/rewards/DynamicRewards.sol\":4213:4233  schedule.endTime.sub */\n      tag_147\n      swap1\n        /* \"contracts/rewards/DynamicRewards.sol\":4213:4253  schedule.endTime.sub(schedule.startTime) */\n      swap2\n      swap1\n      0xffffffff\n      and\n      jump\t// in\n    tag_250:\n        /* \"contracts/rewards/DynamicRewards.sol\":4189:4253  uint256 totalDuration = schedule.endTime.sub(schedule.startTime) */\n      swap1\n      pop\n        /* \"contracts/rewards/DynamicRewards.sol\":4264:4282  uint256 multiplier */\n      0x00\n        /* \"contracts/rewards/DynamicRewards.sol\":4285:4325  timeElapsed.mul(1e18).div(totalDuration) */\n      tag_251\n        /* \"contracts/rewards/DynamicRewards.sol\":4311:4324  totalDuration */\n      dup3\n        /* \"contracts/rewards/DynamicRewards.sol\":4285:4306  timeElapsed.mul(1e18) */\n      tag_252\n        /* \"contracts/rewards/DynamicRewards.sol\":4301:4305  1e18 */\n      0x0de0b6b3a7640000\n        /* \"contracts/rewards/DynamicRewards.sol\":4285:4296  timeElapsed */\n      dup7\n        /* \"contracts/rewards/DynamicRewards.sol\":4285:4300  timeElapsed.mul */\n      tag_253\n      swap1\n        /* \"contracts/rewards/DynamicRewards.sol\":4285:4306  timeElapsed.mul(1e18) */\n      swap2\n      swap1\n      0xffffffff\n      and\n      jump\t// in\n    tag_252:\n        /* \"contracts/rewards/DynamicRewards.sol\":4285:4310  timeElapsed.mul(1e18).div */\n      tag_254\n      swap1\n        /* \"contracts/rewards/DynamicRewards.sol\":4285:4325  timeElapsed.mul(1e18).div(totalDuration) */\n      swap2\n      swap1\n      0xffffffff\n      and\n      jump\t// in\n    tag_251:\n        /* \"contracts/rewards/DynamicRewards.sol\":4264:4325  uint256 multiplier = timeElapsed.mul(1e18).div(totalDuration) */\n      swap1\n      pop\n        /* \"contracts/rewards/DynamicRewards.sol\":4338:4362  uint256 availableRewards */\n      0x00\n        /* \"contracts/rewards/DynamicRewards.sol\":4365:4415  schedule.totalRewards.sub(schedule.claimedRewards) */\n      tag_255\n        /* \"contracts/rewards/DynamicRewards.sol\":4391:4399  schedule */\n      dup6\n        /* \"contracts/rewards/DynamicRewards.sol\":4391:4414  schedule.claimedRewards */\n      0x03\n      add\n      sload\n        /* \"contracts/rewards/DynamicRewards.sol\":4365:4373  schedule */\n      dup7\n        /* \"contracts/rewards/DynamicRewards.sol\":4365:4386  schedule.totalRewards */\n      0x02\n      add\n      sload\n        /* \"contracts/rewards/DynamicRewards.sol\":4365:4390  schedule.totalRewards.sub */\n      tag_147\n      swap1\n        /* \"contracts/rewards/DynamicRewards.sol\":4365:4415  schedule.totalRewards.sub(schedule.claimedRewards) */\n      swap2\n      swap1\n      0xffffffff\n      and\n      jump\t// in\n    tag_255:\n        /* \"contracts/rewards/DynamicRewards.sol\":4338:4415  uint256 availableRewards = schedule.totalRewards.sub(schedule.claimedRewards) */\n      swap1\n      pop\n        /* \"contracts/rewards/DynamicRewards.sol\":4426:4443  uint256 userShare */\n      0x00\n        /* \"contracts/rewards/DynamicRewards.sol\":4446:4498  _balances[account].mul(multiplier).div(_totalSupply) */\n      tag_256\n        /* \"contracts/rewards/DynamicRewards.sol\":4485:4497  _totalSupply */\n      sload(0x02)\n        /* \"contracts/rewards/DynamicRewards.sol\":4446:4480  _balances[account].mul(multiplier) */\n      tag_257\n        /* \"contracts/rewards/DynamicRewards.sol\":4469:4479  multiplier */\n      dup6\n        /* \"contracts/rewards/DynamicRewards.sol\":4446:4455  _balances */\n      0x03\n        /* \"contracts/rewards/DynamicRewards.sol\":4446:4464  _balances[account] */\n      0x00\n        /* \"contracts/rewards/DynamicRewards.sol\":4456:4463  account */\n      dup15\n        /* \"contracts/rewards/DynamicRewards.sol\":4446:4464  _balances[account] */\n      0xffffffffffffffffffffffffffffffffffffffff\n      and\n      0xffffffffffffffffffffffffffffffffffffffff\n      and\n      dup2\n      mstore\n      0x20\n      add\n      swap1\n      dup2\n      mstore\n      0x20\n      add\n      0x00\n      keccak256\n      sload\n        /* \"contracts/rewards/DynamicRewards.sol\":4446:4468  _balances[account].mul */\n      tag_253\n      swap1\n        /* \"contracts/rewards/DynamicRewards.sol\":4446:4480  _balances[account].mul(multiplier) */\n      swap2\n      swap1\n      0xffffffff\n      and\n      jump\t// in\n    tag_257:\n        /* \"contracts/rewards/DynamicRewards.sol\":4446:4484  _balances[account].mul(multiplier).div */\n      tag_254\n      swap1\n        /* \"contracts/rewards/DynamicRewards.sol\":4446:4498  _balances[account].mul(multiplier).div(_totalSupply) */\n      swap2\n      swap1\n      0xffffffff\n      and\n      jump\t// in\n    tag_256:\n        /* \"contracts/rewards/DynamicRewards.sol\":4426:4498  uint256 userShare = _balances[account].mul(multiplier).div(_totalSupply) */\n      swap1\n      pop\n        /* \"contracts/rewards/DynamicRewards.sol\":4526:4606  availableRewards.mul(userShare).div(1e18).sub(_userAccrued[account][scheduleId]) */\n      tag_258\n        /* \"contracts/rewards/DynamicRewards.sol\":4572:4584  _userAccrued */\n      0x06\n        /* \"contracts/rewards/DynamicRewards.sol\":4572:4593  _userAccrued[account] */\n      0x00\n        /* \"contracts/rewards/DynamicRewards.sol\":4585:4592  account */\n      dup12\n        /* \"contracts/rewards/DynamicRewards.sol\":4572:4593  _userAccrued[account] */\n      0xffffffffffffffffffffffffffffffffffffffff\n      and\n      0xffffffffffffffffffffffffffffffffffffffff\n      and\n      dup2\n      mstore\n      0x20\n      add\n      swap1\n      dup2\n      mstore\n      0x20\n      add\n      0x00\n      keccak256\n        /* \"contracts/rewards/DynamicRewards.sol\":4572:4605  _userAccrued[account][scheduleId] */\n      0x00\n        /* \"contracts/rewards/DynamicRewards.sol\":4594:4604  scheduleId */\n      dup11\n        /* \"contracts/rewards/DynamicRewards.sol\":4572:4605  _userAccrued[account][scheduleId] */\n      dup2\n      mstore\n      0x20\n      add\n      swap1\n      dup2\n      mstore\n      0x20\n      add\n      0x00\n      keccak256\n      sload\n        /* \"contracts/rewards/DynamicRewards.sol\":4526:4567  availableRewards.mul(userShare).div(1e18) */\n      tag_259\n        /* \"contracts/rewards/DynamicRewards.sol\":4562:4566  1e18 */\n      0x0de0b6b3a7640000\n        /* \"contracts/rewards/DynamicRewards.sol\":4526:4557  availableRewards.mul(userShare) */\n      tag_260\n        /* \"contracts/rewards/DynamicRewards.sol\":4547:4556  userShare */\n      dup6\n        /* \"contracts/rewards/DynamicRewards.sol\":4526:4542  availableRewards */\n      dup8\n        /* \"contracts/rewards/DynamicRewards.sol\":4526:4546  availableRewards.mul */\n      tag_253\n      swap1\n        /* \"contracts/rewards/DynamicRewards.sol\":4526:4557  availableRewards.mul(userShare) */\n      swap2\n      swap1\n      0xffffffff\n      and\n      jump\t// in\n    tag_260:\n        /* \"contracts/rewards/DynamicRewards.sol\":4526:4561  availableRewards.mul(userShare).div */\n      tag_254\n      swap1\n        /* \"contracts/rewards/DynamicRewards.sol\":4526:4567  availableRewards.mul(userShare).div(1e18) */\n      swap2\n      swap1\n      0xffffffff\n      and\n      jump\t// in\n    tag_259:\n        /* \"contracts/rewards/DynamicRewards.sol\":4526:4571  availableRewards.mul(userShare).div(1e18).sub */\n      tag_147\n      swap1\n        /* \"contracts/rewards/DynamicRewards.sol\":4526:4606  availableRewards.mul(userShare).div(1e18).sub(_userAccrued[account][scheduleId]) */\n      swap2\n      swap1\n      0xffffffff\n      and\n      jump\t// in\n    tag_258:\n        /* \"contracts/rewards/DynamicRewards.sol\":4519:4606  return availableRewards.mul(userShare).div(1e18).sub(_userAccrued[account][scheduleId]) */\n      swap7\n      pop\n      pop\n      pop\n      pop\n      pop\n      pop\n      pop\n        /* \"contracts/rewards/DynamicRewards.sol\":3848:4614  function _earnedPerSchedule(address account, uint256 scheduleId) private view returns (uint256) {... */\n    tag_246:\n      swap3\n      swap2\n      pop\n      pop\n      jump\t// out\n        /* \"@openzeppelin/contracts/utils/math/SafeMath.sol\":2755:2851  function add(uint256 a, uint256 b) internal pure returns (uint256) {... */\n    tag_106:\n        /* \"@openzeppelin/contracts/utils/math/SafeMath.sol\":2813:2820  uint256 */\n      0x00\n        /* \"@openzeppelin/contracts/utils/math/SafeMath.sol\":2843:2844  b */\n      dup2\n        /* \"@openzeppelin/contracts/utils/math/SafeMath.sol\":2839:2840  a */\n      dup4\n        /* \"@openzeppelin/contracts/utils/math/SafeMath.sol\":2839:2844  a + b */\n      tag_262\n      swap2\n      swap1\n      tag_263\n      jump\t// in\n    tag_262:\n        /* \"@openzeppelin/contracts/utils/math/SafeMath.sol\":2832:2844  return a + b */\n      swap1\n      pop\n        /* \"@openzeppelin/contracts/utils/math/SafeMath.sol\":2755:2851  function add(uint256 a, uint256 b) internal pure returns (uint256) {... */\n      swap3\n      swap2\n      pop\n      pop\n      jump\t// out\n        /* \"@openzeppelin/contracts/utils/introspection/ERC165.sol\":763:909  function supportsInterface(bytes4 interfaceId) public view virtual returns (bool) {... */\n    tag_112:\n        /* \"@openzeppelin/contracts/utils/introspection/ERC165.sol\":839:843  bool */\n      0x00\n        /* \"@openzeppelin/contracts/utils/introspection/ERC165.sol\":877:902  type(IERC165).interfaceId */\n      0x01ffc9a700000000000000000000000000000000000000000000000000000000\n        /* \"@openzeppelin/contracts/utils/introspection/ERC165.sol\":862:902  interfaceId == type(IERC165).interfaceId */\n      not(0xffffffffffffffffffffffffffffffffffffffffffffffffffffffff)\n      and\n        /* \"@openzeppelin/contracts/utils/introspection/ERC165.sol\":862:873  interfaceId */\n      dup3\n        /* \"@openzeppelin/contracts/utils/introspection/ERC165.sol\":862:902  interfaceId == type(IERC165).interfaceId */\n      not(0xffffffffffffffffffffffffffffffffffffffffffffffffffffffff)\n      and\n      eq\n        /* \"@openzeppelin/contracts/utils/introspection/ERC165.sol\":855:902  return interfaceId == type(IERC165).interfaceId */\n      swap1\n      pop\n        /* \"@openzeppelin/contracts/utils/introspection/ERC165.sol\":763:909  function supportsInterface(bytes4 interfaceId) public view virtual returns (bool) {... */\n      swap2\n      swap1\n      pop\n      jump\t// out\n        /* \"@openzeppelin/contracts/security/ReentrancyGuard.sol\":2336:2623  function _nonReentrantBefore() private {... */\n    tag_136:\n        /* \"@openzeppelin/contracts/security/ReentrancyGuard.sol\":1759:1760  2 */\n      0x02\n        /* \"@openzeppelin/contracts/security/ReentrancyGuard.sol\":2468:2475  _status */\n      sload(0x01)\n        /* \"@openzeppelin/contracts/security/ReentrancyGuard.sol\":2468:2487  _status != _ENTERED */\n      sub\n        /* \"@openzeppelin/contracts/security/ReentrancyGuard.sol\":2460:2523  require(_status != _ENTERED, \"ReentrancyGuard: reentrant call\") */\n      tag_266\n      jumpi\n      mload(0x40)\n      0x08c379a000000000000000000000000000000000000000000000000000000000\n      dup2\n      mstore\n      0x04\n      add\n      tag_267\n      swap1\n      tag_268\n      jump\t// in\n    tag_267:\n      mload(0x40)\n      dup1\n      swap2\n      sub\n      swap1\n      revert\n    tag_266:\n        /* \"@openzeppelin/contracts/security/ReentrancyGuard.sol\":1759:1760  2 */\n      0x02\n        /* \"@openzeppelin/contracts/security/ReentrancyGuard.sol\":2598:2605  _status */\n      0x01\n        /* \"@openzeppelin/contracts/security/ReentrancyGuard.sol\":2598:2616  _status = _ENTERED */\n      dup2\n      swap1\n      sstore\n      pop\n        /* \"@openzeppelin/contracts/security/ReentrancyGuard.sol\":2336:2623  function _nonReentrantBefore() private {... */\n      jump\t// out\n        /* \"contracts/rewards/DynamicRewards.sol\":5704:5935  function _updateRewards(address account) internal {... */\n    tag_145:\n        /* \"contracts/rewards/DynamicRewards.sol\":5770:5779  uint256 i */\n      0x00\n        /* \"contracts/rewards/DynamicRewards.sol\":5782:5783  1 */\n      0x01\n        /* \"contracts/rewards/DynamicRewards.sol\":5770:5783  uint256 i = 1 */\n      swap1\n      pop\n        /* \"contracts/rewards/DynamicRewards.sol\":5765:5928  for (uint256 i = 1; i <= currentScheduleId; i++) {... */\n    tag_270:\n        /* \"contracts/rewards/DynamicRewards.sol\":5790:5807  currentScheduleId */\n      sload(0x05)\n        /* \"contracts/rewards/DynamicRewards.sol\":5785:5786  i */\n      dup2\n        /* \"contracts/rewards/DynamicRewards.sol\":5785:5807  i <= currentScheduleId */\n      gt\n        /* \"contracts/rewards/DynamicRewards.sol\":5765:5928  for (uint256 i = 1; i <= currentScheduleId; i++) {... */\n      tag_271\n      jumpi\n        /* \"contracts/rewards/DynamicRewards.sol\":5856:5916  _userAccrued[account][i].add(_earnedPerSchedule(account, i)) */\n      tag_273\n        /* \"contracts/rewards/DynamicRewards.sol\":5885:5915  _earnedPerSchedule(account, i) */\n      tag_274\n        /* \"contracts/rewards/DynamicRewards.sol\":5904:5911  account */\n      dup4\n        /* \"contracts/rewards/DynamicRewards.sol\":5913:5914  i */\n      dup4\n        /* \"contracts/rewards/DynamicRewards.sol\":5885:5903  _earnedPerSchedule */\n      tag_105\n        /* \"contracts/rewards/DynamicRewards.sol\":5885:5915  _earnedPerSchedule(account, i) */\n      jump\t// in\n    tag_274:\n        /* \"contracts/rewards/DynamicRewards.sol\":5856:5868  _userAccrued */\n      0x06\n        /* \"contracts/rewards/DynamicRewards.sol\":5856:5877  _userAccrued[account] */\n      0x00\n        /* \"contracts/rewards/DynamicRewards.sol\":5869:5876  account */\n      dup6\n        /* \"contracts/rewards/DynamicRewards.sol\":5856:5877  _userAccrued[account] */\n      0xffffffffffffffffffffffffffffffffffffffff\n      and\n      0xffffffffffffffffffffffffffffffffffffffff\n      and\n      dup2\n      mstore\n      0x20\n      add\n      swap1\n      dup2\n      mstore\n      0x20\n      add\n      0x00\n      keccak256\n        /* \"contracts/rewards/DynamicRewards.sol\":5856:5880  _userAccrued[account][i] */\n      0x00\n        /* \"contracts/rewards/DynamicRewards.sol\":5878:5879  i */\n      dup5\n        /* \"contracts/rewards/DynamicRewards.sol\":5856:5880  _userAccrued[account][i] */\n      dup2\n      mstore\n      0x20\n      add\n      swap1\n      dup2\n      mstore\n      0x20\n      add\n      0x00\n      keccak256\n      sload\n        /* \"contracts/rewards/DynamicRewards.sol\":5856:5884  _userAccrued[account][i].add */\n      tag_106\n      swap1\n        /* \"contracts/rewards/DynamicRewards.sol\":5856:5916  _userAccrued[account][i].add(_earnedPerSchedule(account, i)) */\n      swap2\n      swap1\n      0xffffffff\n      and\n      jump\t// in\n    tag_273:\n        /* \"contracts/rewards/DynamicRewards.sol\":5829:5841  _userAccrued */\n      0x06\n        /* \"contracts/rewards/DynamicRewards.sol\":5829:5850  _userAccrued[account] */\n      0x00\n        /* \"contracts/rewards/DynamicRewards.sol\":5842:5849  account */\n      dup5\n        /* \"contracts/rewards/DynamicRewards.sol\":5829:5850  _userAccrued[account] */\n      0xffffffffffffffffffffffffffffffffffffffff\n      and\n      0xffffffffffffffffffffffffffffffffffffffff\n      and\n      dup2\n      mstore\n      0x20\n      add\n      swap1\n      dup2\n      mstore\n      0x20\n      add\n      0x00\n      keccak256\n        /* \"contracts/rewards/DynamicRewards.sol\":5829:5853  _userAccrued[account][i] */\n      0x00\n        /* \"contracts/rewards/DynamicRewards.sol\":5851:5852  i */\n      dup4\n        /* \"contracts/rewards/DynamicRewards.sol\":5829:5853  _userAccrued[account][i] */\n      dup2\n      mstore\n      0x20\n      add\n      swap1\n      dup2\n      mstore\n      0x20\n      add\n      0x00\n      keccak256\n        /* \"contracts/rewards/DynamicRewards.sol\":5829:5916  _userAccrued[account][i] = _userAccrued[account][i].add(_earnedPerSchedule(account, i)) */\n      dup2\n      swap1\n      sstore\n      pop\n        /* \"contracts/rewards/DynamicRewards.sol\":5809:5812  i++ */\n      dup1\n      dup1\n      tag_275\n      swap1\n      tag_108\n      jump\t// in\n    tag_275:\n      swap2\n      pop\n      pop\n        /* \"contracts/rewards/DynamicRewards.sol\":5765:5928  for (uint256 i = 1; i <= currentScheduleId; i++) {... */\n      jump(tag_270)\n    tag_271:\n      pop\n        /* \"contracts/rewards/DynamicRewards.sol\":5704:5935  function _updateRewards(address account) internal {... */\n      pop\n      jump\t// out\n        /* \"@openzeppelin/contracts/utils/math/SafeMath.sol\":3122:3218  function sub(uint256 a, uint256 b) internal pure returns (uint256) {... */\n    tag_147:\n        /* \"@openzeppelin/contracts/utils/math/SafeMath.sol\":3180:3187  uint256 */\n      0x00\n        /* \"@openzeppelin/contracts/utils/math/SafeMath.sol\":3210:3211  b */\n      dup2\n        /* \"@openzeppelin/contracts/utils/math/SafeMath.sol\":3206:3207  a */\n      dup4\n        /* \"@openzeppelin/contracts/utils/math/SafeMath.sol\":3206:3211  a - b */\n      tag_277\n      swap2\n      swap1\n      tag_278\n      jump\t// in\n    tag_277:\n        /* \"@openzeppelin/contracts/utils/math/SafeMath.sol\":3199:3211  return a - b */\n      swap1\n      pop\n        /* \"@openzeppelin/contracts/utils/math/SafeMath.sol\":3122:3218  function sub(uint256 a, uint256 b) internal pure returns (uint256) {... */\n      swap3\n      swap2\n      pop\n      pop\n      jump\t// out\n        /* \"@openzeppelin/contracts/security/ReentrancyGuard.sol\":2629:2838  function _nonReentrantAfter() private {... */\n    tag_160:\n        /* \"@openzeppelin/contracts/security/ReentrancyGuard.sol\":1716:1717  1 */\n      0x01\n        /* \"@openzeppelin/contracts/security/ReentrancyGuard.sol\":2809:2816  _status */\n      dup1\n        /* \"@openzeppelin/contracts/security/ReentrancyGuard.sol\":2809:2831  _status = _NOT_ENTERED */\n      dup2\n      swap1\n      sstore\n      pop\n        /* \"@openzeppelin/contracts/security/ReentrancyGuard.sol\":2629:2838  function _nonReentrantAfter() private {... */\n      jump\t// out\n        /* \"@openzeppelin/contracts/access/AccessControl.sol\":3199:3302  function _checkRole(bytes32 role) internal view virtual {... */\n    tag_164:\n        /* \"@openzeppelin/contracts/access/AccessControl.sol\":3265:3295  _checkRole(role, _msgSender()) */\n      tag_281\n        /* \"@openzeppelin/contracts/access/AccessControl.sol\":3276:3280  role */\n      dup2\n        /* \"@openzeppelin/contracts/access/AccessControl.sol\":3282:3294  _msgSender() */\n      tag_282\n        /* \"@openzeppelin/contracts/access/AccessControl.sol\":3282:3292  _msgSender */\n      tag_170\n        /* \"@openzeppelin/contracts/access/AccessControl.sol\":3282:3294  _msgSender() */\n      jump\t// in\n    tag_282:\n        /* \"@openzeppelin/contracts/access/AccessControl.sol\":3265:3275  _checkRole */\n      tag_283\n        /* \"@openzeppelin/contracts/access/AccessControl.sol\":3265:3295  _checkRole(role, _msgSender()) */\n      jump\t// in\n    tag_281:\n        /* \"@openzeppelin/contracts/access/AccessControl.sol\":3199:3302  function _checkRole(bytes32 role) internal view virtual {... */\n      pop\n      jump\t// out\n        /* \"@openzeppelin/contracts/access/AccessControl.sol\":6179:6495  function _grantRole(bytes32 role, address account) internal virtual returns (bool) {... */\n    tag_167:\n        /* \"@openzeppelin/contracts/access/AccessControl.sol\":6256:6260  bool */\n      0x00\n        /* \"@openzeppelin/contracts/access/AccessControl.sol\":6277:6299  hasRole(role, account) */\n      tag_285\n        /* \"@openzeppelin/contracts/access/AccessControl.sol\":6285:6289  role */\n      dup4\n        /* \"@openzeppelin/contracts/access/AccessControl.sol\":6291:6298  account */\n      dup4\n        /* \"@openzeppelin/contracts/access/AccessControl.sol\":6277:6284  hasRole */\n      tag_84\n        /* \"@openzeppelin/contracts/access/AccessControl.sol\":6277:6299  hasRole(role, account) */\n      jump\t// in\n    tag_285:\n        /* \"@openzeppelin/contracts/access/AccessControl.sol\":6272:6489  if (!hasRole(role, account)) {... */\n      tag_286\n      jumpi\n        /* \"@openzeppelin/contracts/access/AccessControl.sol\":6347:6351  true */\n      0x01\n        /* \"@openzeppelin/contracts/access/AccessControl.sol\":6315:6321  _roles */\n      0x00\n        /* \"@openzeppelin/contracts/access/AccessControl.sol\":6315:6327  _roles[role] */\n      dup1\n        /* \"@openzeppelin/contracts/access/AccessControl.sol\":6322:6326  role */\n      dup6\n        /* \"@openzeppelin/contracts/access/AccessControl.sol\":6315:6327  _roles[role] */\n      dup2\n      mstore\n      0x20\n      add\n      swap1\n      dup2\n      mstore\n      0x20\n      add\n      0x00\n      keccak256\n        /* \"@openzeppelin/contracts/access/AccessControl.sol\":6315:6335  _roles[role].hasRole */\n      0x00\n      add\n        /* \"@openzeppelin/contracts/access/AccessControl.sol\":6315:6344  _roles[role].hasRole[account] */\n      0x00\n        /* \"@openzeppelin/contracts/access/AccessControl.sol\":6336:6343  account */\n      dup5\n        /* \"@openzeppelin/contracts/access/AccessControl.sol\":6315:6344  _roles[role].hasRole[account] */\n      0xffffffffffffffffffffffffffffffffffffffff\n      and\n      0xffffffffffffffffffffffffffffffffffffffff\n      and\n      dup2\n      mstore\n      0x20\n      add\n      swap1\n      dup2\n      mstore\n      0x20\n      add\n      0x00\n      keccak256\n      0x00\n        /* \"@openzeppelin/contracts/access/AccessControl.sol\":6315:6351  _roles[role].hasRole[account] = true */\n      0x0100\n      exp\n      dup2\n      sload\n      dup2\n      0xff\n      mul\n      not\n      and\n      swap1\n      dup4\n      iszero\n      iszero\n      mul\n      or\n      swap1\n      sstore\n      pop\n        /* \"@openzeppelin/contracts/access/AccessControl.sol\":6397:6409  _msgSender() */\n      tag_287\n        /* \"@openzeppelin/contracts/access/AccessControl.sol\":6397:6407  _msgSender */\n      tag_170\n        /* \"@openzeppelin/contracts/access/AccessControl.sol\":6397:6409  _msgSender() */\n      jump\t// in\n    tag_287:\n        /* \"@openzeppelin/contracts/access/AccessControl.sol\":6370:6410  RoleGranted(role, account, _msgSender()) */\n      0xffffffffffffffffffffffffffffffffffffffff\n      and\n        /* \"@openzeppelin/contracts/access/AccessControl.sol\":6388:6395  account */\n      dup3\n        /* \"@openzeppelin/contracts/access/AccessControl.sol\":6370:6410  RoleGranted(role, account, _msgSender()) */\n      0xffffffffffffffffffffffffffffffffffffffff\n      and\n        /* \"@openzeppelin/contracts/access/AccessControl.sol\":6382:6386  role */\n      dup5\n        /* \"@openzeppelin/contracts/access/AccessControl.sol\":6370:6410  RoleGranted(role, account, _msgSender()) */\n      0x2f8788117e7eff1d82e926ec794901d17c78024a50270940304540a733656f0d\n      mload(0x40)\n      mload(0x40)\n      dup1\n      swap2\n      sub\n      swap1\n      log4\n        /* \"@openzeppelin/contracts/access/AccessControl.sol\":6431:6435  true */\n      0x01\n        /* \"@openzeppelin/contracts/access/AccessControl.sol\":6424:6435  return true */\n      swap1\n      pop\n      jump(tag_284)\n        /* \"@openzeppelin/contracts/access/AccessControl.sol\":6272:6489  if (!hasRole(role, account)) {... */\n    tag_286:\n        /* \"@openzeppelin/contracts/access/AccessControl.sol\":6473:6478  false */\n      0x00\n        /* \"@openzeppelin/contracts/access/AccessControl.sol\":6466:6478  return false */\n      swap1\n      pop\n        /* \"@openzeppelin/contracts/access/AccessControl.sol\":6179:6495  function _grantRole(bytes32 role, address account) internal virtual returns (bool) {... */\n    tag_284:\n      swap3\n      swap2\n      pop\n      pop\n      jump\t// out\n        /* \"@openzeppelin/contracts/utils/Context.sol\":656:752  function _msgSender() internal view virtual returns (address) {... */\n    tag_170:\n        /* \"@openzeppelin/contracts/utils/Context.sol\":709:716  address */\n      0x00\n        /* \"@openzeppelin/contracts/utils/Context.sol\":735:745  msg.sender */\n      caller\n        /* \"@openzeppelin/contracts/utils/Context.sol\":728:745  return msg.sender */\n      swap1\n      pop\n        /* \"@openzeppelin/contracts/utils/Context.sol\":656:752  function _msgSender() internal view virtual returns (address) {... */\n      swap1\n      jump\t// out\n        /* \"@openzeppelin/contracts/access/AccessControl.sol\":6730:7047  function _revokeRole(bytes32 role, address account) internal virtual returns (bool) {... */\n    tag_173:\n        /* \"@openzeppelin/contracts/access/AccessControl.sol\":6808:6812  bool */\n      0x00\n        /* \"@openzeppelin/contracts/access/AccessControl.sol\":6828:6850  hasRole(role, account) */\n      tag_291\n        /* \"@openzeppelin/contracts/access/AccessControl.sol\":6836:6840  role */\n      dup4\n        /* \"@openzeppelin/contracts/access/AccessControl.sol\":6842:6849  account */\n      dup4\n        /* \"@openzeppelin/contracts/access/AccessControl.sol\":6828:6835  hasRole */\n      tag_84\n        /* \"@openzeppelin/contracts/access/AccessControl.sol\":6828:6850  hasRole(role, account) */\n      jump\t// in\n    tag_291:\n        /* \"@openzeppelin/contracts/access/AccessControl.sol\":6824:7041  if (hasRole(role, account)) {... */\n      iszero\n      tag_292\n      jumpi\n        /* \"@openzeppelin/contracts/access/AccessControl.sol\":6898:6903  false */\n      0x00\n        /* \"@openzeppelin/contracts/access/AccessControl.sol\":6866:6872  _roles */\n      dup1\n        /* \"@openzeppelin/contracts/access/AccessControl.sol\":6866:6878  _roles[role] */\n      0x00\n        /* \"@openzeppelin/contracts/access/AccessControl.sol\":6873:6877  role */\n      dup6\n        /* \"@openzeppelin/contracts/access/AccessControl.sol\":6866:6878  _roles[role] */\n      dup2\n      mstore\n      0x20\n      add\n      swap1\n      dup2\n      mstore\n      0x20\n      add\n      0x00\n      keccak256\n        /* \"@openzeppelin/contracts/access/AccessControl.sol\":6866:6886  _roles[role].hasRole */\n      0x00\n      add\n        /* \"@openzeppelin/contracts/access/AccessControl.sol\":6866:6895  _roles[role].hasRole[account] */\n      0x00\n        /* \"@openzeppelin/contracts/access/AccessControl.sol\":6887:6894  account */\n      dup5\n        /* \"@openzeppelin/contracts/access/AccessControl.sol\":6866:6895  _roles[role].hasRole[account] */\n      0xffffffffffffffffffffffffffffffffffffffff\n      and\n      0xffffffffffffffffffffffffffffffffffffffff\n      and\n      dup2\n      mstore\n      0x20\n      add\n      swap1\n      dup2\n      mstore\n      0x20\n      add\n      0x00\n      keccak256\n      0x00\n        /* \"@openzeppelin/contracts/access/AccessControl.sol\":6866:6903  _roles[role].hasRole[account] = false */\n      0x0100\n      exp\n      dup2\n      sload\n      dup2\n      0xff\n      mul\n      not\n      and\n      swap1\n      dup4\n      iszero\n      iszero\n      mul\n      or\n      swap1\n      sstore\n      pop\n        /* \"@openzeppelin/contracts/access/AccessControl.sol\":6949:6961  _msgSender() */\n      tag_293\n        /* \"@openzeppelin/contracts/access/AccessControl.sol\":6949:6959  _msgSender */\n      tag_170\n        /* \"@openzeppelin/contracts/access/AccessControl.sol\":6949:6961  _msgSender() */\n      jump\t// in\n    tag_293:\n        /* \"@openzeppelin/contracts/access/AccessControl.sol\":6922:6962  RoleRevoked(role, account, _msgSender()) */\n      0xffffffffffffffffffffffffffffffffffffffff\n      and\n        /* \"@openzeppelin/contracts/access/AccessControl.sol\":6940:6947  account */\n      dup3\n        /* \"@openzeppelin/contracts/access/AccessControl.sol\":6922:6962  RoleRevoked(role, account, _msgSender()) */\n      0xffffffffffffffffffffffffffffffffffffffff\n      and\n        /* \"@openzeppelin/contracts/access/AccessControl.sol\":6934:6938  role */\n      dup5\n        /* \"@openzeppelin/contracts/access/AccessControl.sol\":6922:6962  RoleRevoked(role, account, _msgSender()) */\n      0xf6391f5c32d9c69d2a47ea670b442974b53935d1edc7fd64eb21e047a839171b\n      mload(0x40)\n      mload(0x40)\n      dup1\n      swap2\n      sub\n      swap1\n      log4\n        /* \"@openzeppelin/contracts/access/AccessControl.sol\":6983:6987  true */\n      0x01\n        /* \"@openzeppelin/contracts/access/AccessControl.sol\":6976:6987  return true */\n      swap1\n      pop\n      jump(tag_290)\n        /* \"@openzeppelin/contracts/access/AccessControl.sol\":6824:7041  if (hasRole(role, account)) {... */\n    tag_292:\n        /* \"@openzeppelin/contracts/access/AccessControl.sol\":7025:7030  false */\n      0x00\n        /* \"@openzeppelin/contracts/access/AccessControl.sol\":7018:7030  return false */\n      swap1\n      pop\n        /* \"@openzeppelin/contracts/access/AccessControl.sol\":6730:7047  function _revokeRole(bytes32 role, address account) internal virtual returns (bool) {... */\n    tag_290:\n      swap3\n      swap2\n      pop\n      pop\n      jump\t// out\n        /* \"contracts/rewards/DynamicRewards.sol\":5943:6266  function _sendReward(address token, address to, uint256 amount) internal {... */\n    tag_188:\n        /* \"contracts/rewards/DynamicRewards.sol\":6091:6097  amount */\n      dup1\n        /* \"contracts/rewards/DynamicRewards.sol\":6056:6061  token */\n      dup4\n        /* \"contracts/rewards/DynamicRewards.sol\":6049:6072  IERC20(token).balanceOf */\n      0xffffffffffffffffffffffffffffffffffffffff\n      and\n      0x70a08231\n        /* \"contracts/rewards/DynamicRewards.sol\":6081:6085  this */\n      address\n        /* \"contracts/rewards/DynamicRewards.sol\":6049:6087  IERC20(token).balanceOf(address(this)) */\n      mload(0x40)\n      dup3\n      0xffffffff\n      and\n      0xe0\n      shl\n      dup2\n      mstore\n      0x04\n      add\n      tag_296\n      swap2\n      swap1\n      tag_235\n      jump\t// in\n    tag_296:\n      0x20\n      mload(0x40)\n      dup1\n      dup4\n      sub\n      dup2\n      dup7\n      gas\n      staticcall\n      iszero\n      dup1\n      iszero\n      tag_298\n      jumpi\n      returndatasize\n      0x00\n      dup1\n      returndatacopy\n      revert(0x00, returndatasize)\n    tag_298:\n      pop\n      pop\n      pop\n      pop\n      mload(0x40)\n      returndatasize\n      not(0x1f)\n      0x1f\n      dup3\n      add\n      and\n      dup3\n      add\n      dup1\n      0x40\n      mstore\n      pop\n      dup2\n      add\n      swap1\n      tag_299\n      swap2\n      swap1\n      tag_239\n      jump\t// in\n    tag_299:\n        /* \"contracts/rewards/DynamicRewards.sol\":6049:6097  IERC20(token).balanceOf(address(this)) >= amount */\n      lt\n      iszero\n        /* \"contracts/rewards/DynamicRewards.sol\":6027:6152  require(... */\n      tag_300\n      jumpi\n      mload(0x40)\n      0x08c379a000000000000000000000000000000000000000000000000000000000\n      dup2\n      mstore\n      0x04\n      add\n      tag_301\n      swap1\n      tag_302\n      jump\t// in\n    tag_301:\n      mload(0x40)\n      dup1\n      swap2\n      sub\n      swap1\n      revert\n    tag_300:\n        /* \"contracts/rewards/DynamicRewards.sol\":6163:6175  bool success */\n      0x00\n        /* \"contracts/rewards/DynamicRewards.sol\":6185:6190  token */\n      dup4\n        /* \"contracts/rewards/DynamicRewards.sol\":6178:6200  IERC20(token).transfer */\n      0xffffffffffffffffffffffffffffffffffffffff\n      and\n      0xa9059cbb\n        /* \"contracts/rewards/DynamicRewards.sol\":6201:6203  to */\n      dup5\n        /* \"contracts/rewards/DynamicRewards.sol\":6205:6211  amount */\n      dup5\n        /* \"contracts/rewards/DynamicRewards.sol\":6178:6212  IERC20(token).transfer(to, amount) */\n      mload(0x40)\n      dup4\n      0xffffffff\n      and\n      0xe0\n      shl\n      dup2\n      mstore\n      0x04\n      add\n      tag_303\n      swap3\n      swap2\n      swap1\n      tag_150\n      jump\t// in\n    tag_303:\n      0x20\n      mload(0x40)\n      dup1\n      dup4\n      sub\n      dup2\n      0x00\n      dup8\n      gas\n      call\n      iszero\n      dup1\n      iszero\n      tag_305\n      jumpi\n      returndatasize\n      0x00\n      dup1\n      returndatacopy\n      revert(0x00, returndatasize)\n    tag_305:\n      pop\n      pop\n      pop\n      pop\n      mload(0x40)\n      returndatasize\n      not(0x1f)\n      0x1f\n      dup3\n      add\n      and\n      dup3\n      add\n      dup1\n      0x40\n      mstore\n      pop\n      dup2\n      add\n      swap1\n      tag_306\n      swap2\n      swap1\n      tag_154\n      jump\t// in\n    tag_306:\n        /* \"contracts/rewards/DynamicRewards.sol\":6163:6212  bool success = IERC20(token).transfer(to, amount) */\n      swap1\n      pop\n        /* \"contracts/rewards/DynamicRewards.sol\":6231:6238  success */\n      dup1\n        /* \"contracts/rewards/DynamicRewards.sol\":6223:6258  require(success, \"Transfer failed\") */\n      tag_307\n      jumpi\n      mload(0x40)\n      0x08c379a000000000000000000000000000000000000000000000000000000000\n      dup2\n      mstore\n      0x04\n      add\n      tag_308\n      swap1\n      tag_157\n      jump\t// in\n    tag_308:\n      mload(0x40)\n      dup1\n      swap2\n      sub\n      swap1\n      revert\n    tag_307:\n        /* \"contracts/rewards/DynamicRewards.sol\":6016:6266  {... */\n      pop\n        /* \"contracts/rewards/DynamicRewards.sol\":5943:6266  function _sendReward(address token, address to, uint256 amount) internal {... */\n      pop\n      pop\n      pop\n      jump\t// out\n        /* \"@openzeppelin/contracts/utils/math/SafeMath.sol\":3465:3561  function mul(uint256 a, uint256 b) internal pure returns (uint256) {... */\n    tag_253:\n        /* \"@openzeppelin/contracts/utils/math/SafeMath.sol\":3523:3530  uint256 */\n      0x00\n        /* \"@openzeppelin/contracts/utils/math/SafeMath.sol\":3553:3554  b */\n      dup2\n        /* \"@openzeppelin/contracts/utils/math/SafeMath.sol\":3549:3550  a */\n      dup4\n        /* \"@openzeppelin/contracts/utils/math/SafeMath.sol\":3549:3554  a * b */\n      tag_310\n      swap2\n      swap1\n      tag_311\n      jump\t// in\n    tag_310:\n        /* \"@openzeppelin/contracts/utils/math/SafeMath.sol\":3542:3554  return a * b */\n      swap1\n      pop\n        /* \"@openzeppelin/contracts/utils/math/SafeMath.sol\":3465:3561  function mul(uint256 a, uint256 b) internal pure returns (uint256) {... */\n      swap3\n      swap2\n      pop\n      pop\n      jump\t// out\n        /* \"@openzeppelin/contracts/utils/math/SafeMath.sol\":3850:3946  function div(uint256 a, uint256 b) internal pure returns (uint256) {... */\n    tag_254:\n        /* \"@openzeppelin/contracts/utils/math/SafeMath.sol\":3908:3915  uint256 */\n      0x00\n        /* \"@openzeppelin/contracts/utils/math/SafeMath.sol\":3938:3939  b */\n      dup2\n        /* \"@openzeppelin/contracts/utils/math/SafeMath.sol\":3934:3935  a */\n      dup4\n        /* \"@openzeppelin/contracts/utils/math/SafeMath.sol\":3934:3939  a / b */\n      tag_313\n      swap2\n      swap1\n      tag_314\n      jump\t// in\n    tag_313:\n        /* \"@openzeppelin/contracts/utils/math/SafeMath.sol\":3927:3939  return a / b */\n      swap1\n      pop\n        /* \"@openzeppelin/contracts/utils/math/SafeMath.sol\":3850:3946  function div(uint256 a, uint256 b) internal pure returns (uint256) {... */\n      swap3\n      swap2\n      pop\n      pop\n      jump\t// out\n        /* \"@openzeppelin/contracts/access/AccessControl.sol\":3432:3629  function _checkRole(bytes32 role, address account) internal view virtual {... */\n    tag_283:\n        /* \"@openzeppelin/contracts/access/AccessControl.sol\":3520:3542  hasRole(role, account) */\n      tag_316\n        /* \"@openzeppelin/contracts/access/AccessControl.sol\":3528:3532  role */\n      dup3\n        /* \"@openzeppelin/contracts/access/AccessControl.sol\":3534:3541  account */\n      dup3\n        /* \"@openzeppelin/contracts/access/AccessControl.sol\":3520:3527  hasRole */\n      tag_84\n        /* \"@openzeppelin/contracts/access/AccessControl.sol\":3520:3542  hasRole(role, account) */\n      jump\t// in\n    tag_316:\n        /* \"@openzeppelin/contracts/access/AccessControl.sol\":3515:3623  if (!hasRole(role, account)) {... */\n      tag_317\n      jumpi\n        /* \"@openzeppelin/contracts/access/AccessControl.sol\":3598:3605  account */\n      dup1\n        /* \"@openzeppelin/contracts/access/AccessControl.sol\":3607:3611  role */\n      dup3\n        /* \"@openzeppelin/contracts/access/AccessControl.sol\":3565:3612  AccessControlUnauthorizedAccount(account, role) */\n      mload(0x40)\n      0xe2517d3f00000000000000000000000000000000000000000000000000000000\n      dup2\n      mstore\n      0x04\n      add\n      tag_318\n      swap3\n      swap2\n      swap1\n      tag_319\n      jump\t// in\n    tag_318:\n      mload(0x40)\n      dup1\n      swap2\n      sub\n      swap1\n      revert\n        /* \"@openzeppelin/contracts/access/AccessControl.sol\":3515:3623  if (!hasRole(role, account)) {... */\n    tag_317:\n        /* \"@openzeppelin/contracts/access/AccessControl.sol\":3432:3629  function _checkRole(bytes32 role, address account) internal view virtual {... */\n      pop\n      pop\n      jump\t// out\n        /* \"#utility.yul\":88:205   */\n    tag_321:\n        /* \"#utility.yul\":197:198   */\n      0x00\n        /* \"#utility.yul\":194:195   */\n      dup1\n        /* \"#utility.yul\":187:199   */\n      revert\n        /* \"#utility.yul\":334:460   */\n    tag_323:\n        /* \"#utility.yul\":371:378   */\n      0x00\n        /* \"#utility.yul\":411:453   */\n      0xffffffffffffffffffffffffffffffffffffffff\n        /* \"#utility.yul\":404:409   */\n      dup3\n        /* \"#utility.yul\":400:454   */\n      and\n        /* \"#utility.yul\":389:454   */\n      swap1\n      pop\n        /* \"#utility.yul\":334:460   */\n      swap2\n      swap1\n      pop\n      jump\t// out\n        /* \"#utility.yul\":466:562   */\n    tag_324:\n        /* \"#utility.yul\":503:510   */\n      0x00\n        /* \"#utility.yul\":532:556   */\n      tag_387\n        /* \"#utility.yul\":550:555   */\n      dup3\n        /* \"#utility.yul\":532:556   */\n      tag_323\n      jump\t// in\n    tag_387:\n        /* \"#utility.yul\":521:556   */\n      swap1\n      pop\n        /* \"#utility.yul\":466:562   */\n      swap2\n      swap1\n      pop\n      jump\t// out\n        /* \"#utility.yul\":568:690   */\n    tag_325:\n        /* \"#utility.yul\":641:665   */\n      tag_389\n        /* \"#utility.yul\":659:664   */\n      dup2\n        /* \"#utility.yul\":641:665   */\n      tag_324\n      jump\t// in\n    tag_389:\n        /* \"#utility.yul\":634:639   */\n      dup2\n        /* \"#utility.yul\":631:666   */\n      eq\n        /* \"#utility.yul\":621:684   */\n      tag_390\n      jumpi\n        /* \"#utility.yul\":680:681   */\n      0x00\n        /* \"#utility.yul\":677:678   */\n      dup1\n        /* \"#utility.yul\":670:682   */\n      revert\n        /* \"#utility.yul\":621:684   */\n    tag_390:\n        /* \"#utility.yul\":568:690   */\n      pop\n      jump\t// out\n        /* \"#utility.yul\":696:835   */\n    tag_326:\n        /* \"#utility.yul\":742:747   */\n      0x00\n        /* \"#utility.yul\":780:786   */\n      dup2\n        /* \"#utility.yul\":767:787   */\n      calldataload\n        /* \"#utility.yul\":758:787   */\n      swap1\n      pop\n        /* \"#utility.yul\":796:829   */\n      tag_392\n        /* \"#utility.yul\":823:828   */\n      dup2\n        /* \"#utility.yul\":796:829   */\n      tag_325\n      jump\t// in\n    tag_392:\n        /* \"#utility.yul\":696:835   */\n      swap3\n      swap2\n      pop\n      pop\n      jump\t// out\n        /* \"#utility.yul\":841:1170   */\n    tag_27:\n        /* \"#utility.yul\":900:906   */\n      0x00\n        /* \"#utility.yul\":949:951   */\n      0x20\n        /* \"#utility.yul\":937:946   */\n      dup3\n        /* \"#utility.yul\":928:935   */\n      dup5\n        /* \"#utility.yul\":924:947   */\n      sub\n        /* \"#utility.yul\":920:952   */\n      slt\n        /* \"#utility.yul\":917:1036   */\n      iszero\n      tag_394\n      jumpi\n        /* \"#utility.yul\":955:1034   */\n      tag_395\n      tag_321\n      jump\t// in\n    tag_395:\n        /* \"#utility.yul\":917:1036   */\n    tag_394:\n        /* \"#utility.yul\":1075:1076   */\n      0x00\n        /* \"#utility.yul\":1100:1153   */\n      tag_396\n        /* \"#utility.yul\":1145:1152   */\n      dup5\n        /* \"#utility.yul\":1136:1142   */\n      dup3\n        /* \"#utility.yul\":1125:1134   */\n      dup6\n        /* \"#utility.yul\":1121:1143   */\n      add\n        /* \"#utility.yul\":1100:1153   */\n      tag_326\n      jump\t// in\n    tag_396:\n        /* \"#utility.yul\":1090:1153   */\n      swap2\n      pop\n        /* \"#utility.yul\":1046:1163   */\n      pop\n        /* \"#utility.yul\":841:1170   */\n      swap3\n      swap2\n      pop\n      pop\n      jump\t// out\n        /* \"#utility.yul\":1176:1253   */\n    tag_327:\n        /* \"#utility.yul\":1213:1220   */\n      0x00\n        /* \"#utility.yul\":1242:1247   */\n      dup2\n        /* \"#utility.yul\":1231:1247   */\n      swap1\n      pop\n        /* \"#utility.yul\":1176:1253   */\n      swap2\n      swap1\n      pop\n      jump\t// out\n        /* \"#utility.yul\":1259:1377   */\n    tag_328:\n        /* \"#utility.yul\":1346:1370   */\n      tag_399\n        /* \"#utility.yul\":1364:1369   */\n      dup2\n        /* \"#utility.yul\":1346:1370   */\n      tag_327\n      jump\t// in\n    tag_399:\n        /* \"#utility.yul\":1341:1344   */\n      dup3\n        /* \"#utility.yul\":1334:1371   */\n      mstore\n        /* \"#utility.yul\":1259:1377   */\n      pop\n      pop\n      jump\t// out\n        /* \"#utility.yul\":1383:1605   */\n    tag_30:\n        /* \"#utility.yul\":1476:1480   */\n      0x00\n        /* \"#utility.yul\":1514:1516   */\n      0x20\n        /* \"#utility.yul\":1503:1512   */\n      dup3\n        /* \"#utility.yul\":1499:1517   */\n      add\n        /* \"#utility.yul\":1491:1517   */\n      swap1\n      pop\n        /* \"#utility.yul\":1527:1598   */\n      tag_401\n        /* \"#utility.yul\":1595:1596   */\n      0x00\n        /* \"#utility.yul\":1584:1593   */\n      dup4\n        /* \"#utility.yul\":1580:1597   */\n      add\n        /* \"#utility.yul\":1571:1577   */\n      dup5\n        /* \"#utility.yul\":1527:1598   */\n      tag_328\n      jump\t// in\n    tag_401:\n        /* \"#utility.yul\":1383:1605   */\n      swap3\n      swap2\n      pop\n      pop\n      jump\t// out\n        /* \"#utility.yul\":1611:1760   */\n    tag_329:\n        /* \"#utility.yul\":1647:1654   */\n      0x00\n        /* \"#utility.yul\":1687:1753   */\n      0xffffffff00000000000000000000000000000000000000000000000000000000\n        /* \"#utility.yul\":1680:1685   */\n      dup3\n        /* \"#utility.yul\":1676:1754   */\n      and\n        /* \"#utility.yul\":1665:1754   */\n      swap1\n      pop\n        /* \"#utility.yul\":1611:1760   */\n      swap2\n      swap1\n      pop\n      jump\t// out\n        /* \"#utility.yul\":1766:1886   */\n    tag_330:\n        /* \"#utility.yul\":1838:1861   */\n      tag_404\n        /* \"#utility.yul\":1855:1860   */\n      dup2\n        /* \"#utility.yul\":1838:1861   */\n      tag_329\n      jump\t// in\n    tag_404:\n        /* \"#utility.yul\":1831:1836   */\n      dup2\n        /* \"#utility.yul\":1828:1862   */\n      eq\n        /* \"#utility.yul\":1818:1880   */\n      tag_405\n      jumpi\n        /* \"#utility.yul\":1876:1877   */\n      0x00\n        /* \"#utility.yul\":1873:1874   */\n      dup1\n        /* \"#utility.yul\":1866:1878   */\n      revert\n        /* \"#utility.yul\":1818:1880   */\n    tag_405:\n        /* \"#utility.yul\":1766:1886   */\n      pop\n      jump\t// out\n        /* \"#utility.yul\":1892:2029   */\n    tag_331:\n        /* \"#utility.yul\":1937:1942   */\n      0x00\n        /* \"#utility.yul\":1975:1981   */\n      dup2\n        /* \"#utility.yul\":1962:1982   */\n      calldataload\n        /* \"#utility.yul\":1953:1982   */\n      swap1\n      pop\n        /* \"#utility.yul\":1991:2023   */\n      tag_407\n        /* \"#utility.yul\":2017:2022   */\n      dup2\n        /* \"#utility.yul\":1991:2023   */\n      tag_330\n      jump\t// in\n    tag_407:\n        /* \"#utility.yul\":1892:2029   */\n      swap3\n      swap2\n      pop\n      pop\n      jump\t// out\n        /* \"#utility.yul\":2035:2362   */\n    tag_33:\n        /* \"#utility.yul\":2093:2099   */\n      0x00\n        /* \"#utility.yul\":2142:2144   */\n      0x20\n        /* \"#utility.yul\":2130:2139   */\n      dup3\n        /* \"#utility.yul\":2121:2128   */\n      dup5\n        /* \"#utility.yul\":2117:2140   */\n      sub\n        /* \"#utility.yul\":2113:2145   */\n      slt\n        /* \"#utility.yul\":2110:2229   */\n      iszero\n      tag_409\n      jumpi\n        /* \"#utility.yul\":2148:2227   */\n      tag_410\n      tag_321\n      jump\t// in\n    tag_410:\n        /* \"#utility.yul\":2110:2229   */\n    tag_409:\n        /* \"#utility.yul\":2268:2269   */\n      0x00\n        /* \"#utility.yul\":2293:2345   */\n      tag_411\n        /* \"#utility.yul\":2337:2344   */\n      dup5\n        /* \"#utility.yul\":2328:2334   */\n      dup3\n        /* \"#utility.yul\":2317:2326   */\n      dup6\n        /* \"#utility.yul\":2313:2335   */\n      add\n        /* \"#utility.yul\":2293:2345   */\n      tag_331\n      jump\t// in\n    tag_411:\n        /* \"#utility.yul\":2283:2345   */\n      swap2\n      pop\n        /* \"#utility.yul\":2239:2355   */\n      pop\n        /* \"#utility.yul\":2035:2362   */\n      swap3\n      swap2\n      pop\n      pop\n      jump\t// out\n        /* \"#utility.yul\":2368:2458   */\n    tag_332:\n        /* \"#utility.yul\":2402:2409   */\n      0x00\n        /* \"#utility.yul\":2445:2450   */\n      dup2\n        /* \"#utility.yul\":2438:2451   */\n      iszero\n        /* \"#utility.yul\":2431:2452   */\n      iszero\n        /* \"#utility.yul\":2420:2452   */\n      swap1\n      pop\n        /* \"#utility.yul\":2368:2458   */\n      swap2\n      swap1\n      pop\n      jump\t// out\n        /* \"#utility.yul\":2464:2573   */\n    tag_333:\n        /* \"#utility.yul\":2545:2566   */\n      tag_414\n        /* \"#utility.yul\":2560:2565   */\n      dup2\n        /* \"#utility.yul\":2545:2566   */\n      tag_332\n      jump\t// in\n    tag_414:\n        /* \"#utility.yul\":2540:2543   */\n      dup3\n        /* \"#utility.yul\":2533:2567   */\n      mstore\n        /* \"#utility.yul\":2464:2573   */\n      pop\n      pop\n      jump\t// out\n        /* \"#utility.yul\":2579:2789   */\n    tag_36:\n        /* \"#utility.yul\":2666:2670   */\n      0x00\n        /* \"#utility.yul\":2704:2706   */\n      0x20\n        /* \"#utility.yul\":2693:2702   */\n      dup3\n        /* \"#utility.yul\":2689:2707   */\n      add\n        /* \"#utility.yul\":2681:2707   */\n      swap1\n      pop\n        /* \"#utility.yul\":2717:2782   */\n      tag_416\n        /* \"#utility.yul\":2779:2780   */\n      0x00\n        /* \"#utility.yul\":2768:2777   */\n      dup4\n        /* \"#utility.yul\":2764:2781   */\n      add\n        /* \"#utility.yul\":2755:2761   */\n      dup5\n        /* \"#utility.yul\":2717:2782   */\n      tag_333\n      jump\t// in\n    tag_416:\n        /* \"#utility.yul\":2579:2789   */\n      swap3\n      swap2\n      pop\n      pop\n      jump\t// out\n        /* \"#utility.yul\":2795:2909   */\n    tag_334:\n        /* \"#utility.yul\":2862:2868   */\n      0x00\n        /* \"#utility.yul\":2896:2901   */\n      dup2\n        /* \"#utility.yul\":2890:2902   */\n      mload\n        /* \"#utility.yul\":2880:2902   */\n      swap1\n      pop\n        /* \"#utility.yul\":2795:2909   */\n      swap2\n      swap1\n      pop\n      jump\t// out\n        /* \"#utility.yul\":2915:3099   */\n    tag_335:\n        /* \"#utility.yul\":3014:3025   */\n      0x00\n        /* \"#utility.yul\":3048:3054   */\n      dup3\n        /* \"#utility.yul\":3043:3046   */\n      dup3\n        /* \"#utility.yul\":3036:3055   */\n      mstore\n        /* \"#utility.yul\":3088:3092   */\n      0x20\n        /* \"#utility.yul\":3083:3086   */\n      dup3\n        /* \"#utility.yul\":3079:3093   */\n      add\n        /* \"#utility.yul\":3064:3093   */\n      swap1\n      pop\n        /* \"#utility.yul\":2915:3099   */\n      swap3\n      swap2\n      pop\n      pop\n      jump\t// out\n        /* \"#utility.yul\":3105:3237   */\n    tag_336:\n        /* \"#utility.yul\":3172:3176   */\n      0x00\n        /* \"#utility.yul\":3195:3198   */\n      dup2\n        /* \"#utility.yul\":3187:3198   */\n      swap1\n      pop\n        /* \"#utility.yul\":3225:3229   */\n      0x20\n        /* \"#utility.yul\":3220:3223   */\n      dup3\n        /* \"#utility.yul\":3216:3230   */\n      add\n        /* \"#utility.yul\":3208:3230   */\n      swap1\n      pop\n        /* \"#utility.yul\":3105:3237   */\n      swap2\n      swap1\n      pop\n      jump\t// out\n        /* \"#utility.yul\":3243:3351   */\n    tag_337:\n        /* \"#utility.yul\":3320:3344   */\n      tag_421\n        /* \"#utility.yul\":3338:3343   */\n      dup2\n        /* \"#utility.yul\":3320:3344   */\n      tag_327\n      jump\t// in\n    tag_421:\n        /* \"#utility.yul\":3315:3318   */\n      dup3\n        /* \"#utility.yul\":3308:3345   */\n      mstore\n        /* \"#utility.yul\":3243:3351   */\n      pop\n      pop\n      jump\t// out\n        /* \"#utility.yul\":3357:3536   */\n    tag_338:\n        /* \"#utility.yul\":3426:3436   */\n      0x00\n        /* \"#utility.yul\":3447:3493   */\n      tag_423\n        /* \"#utility.yul\":3489:3492   */\n      dup4\n        /* \"#utility.yul\":3481:3487   */\n      dup4\n        /* \"#utility.yul\":3447:3493   */\n      tag_337\n      jump\t// in\n    tag_423:\n        /* \"#utility.yul\":3525:3529   */\n      0x20\n        /* \"#utility.yul\":3520:3523   */\n      dup4\n        /* \"#utility.yul\":3516:3530   */\n      add\n        /* \"#utility.yul\":3502:3530   */\n      swap1\n      pop\n        /* \"#utility.yul\":3357:3536   */\n      swap3\n      swap2\n      pop\n      pop\n      jump\t// out\n        /* \"#utility.yul\":3542:3655   */\n    tag_339:\n        /* \"#utility.yul\":3612:3616   */\n      0x00\n        /* \"#utility.yul\":3644:3648   */\n      0x20\n        /* \"#utility.yul\":3639:3642   */\n      dup3\n        /* \"#utility.yul\":3635:3649   */\n      add\n        /* \"#utility.yul\":3627:3649   */\n      swap1\n      pop\n        /* \"#utility.yul\":3542:3655   */\n      swap2\n      swap1\n      pop\n      jump\t// out\n        /* \"#utility.yul\":3691:4423   */\n    tag_340:\n        /* \"#utility.yul\":3810:3813   */\n      0x00\n        /* \"#utility.yul\":3839:3893   */\n      tag_426\n        /* \"#utility.yul\":3887:3892   */\n      dup3\n        /* \"#utility.yul\":3839:3893   */\n      tag_334\n      jump\t// in\n    tag_426:\n        /* \"#utility.yul\":3909:3995   */\n      tag_427\n        /* \"#utility.yul\":3988:3994   */\n      dup2\n        /* \"#utility.yul\":3983:3986   */\n      dup6\n        /* \"#utility.yul\":3909:3995   */\n      tag_335\n      jump\t// in\n    tag_427:\n        /* \"#utility.yul\":3902:3995   */\n      swap4\n      pop\n        /* \"#utility.yul\":4019:4075   */\n      tag_428\n        /* \"#utility.yul\":4069:4074   */\n      dup4\n        /* \"#utility.yul\":4019:4075   */\n      tag_336\n      jump\t// in\n    tag_428:\n        /* \"#utility.yul\":4098:4105   */\n      dup1\n        /* \"#utility.yul\":4129:4130   */\n      0x00\n        /* \"#utility.yul\":4114:4398   */\n    tag_429:\n        /* \"#utility.yul\":4139:4145   */\n      dup4\n        /* \"#utility.yul\":4136:4137   */\n      dup2\n        /* \"#utility.yul\":4133:4146   */\n      lt\n        /* \"#utility.yul\":4114:4398   */\n      iszero\n      tag_431\n      jumpi\n        /* \"#utility.yul\":4215:4221   */\n      dup2\n        /* \"#utility.yul\":4209:4222   */\n      mload\n        /* \"#utility.yul\":4242:4305   */\n      tag_432\n        /* \"#utility.yul\":4301:4304   */\n      dup9\n        /* \"#utility.yul\":4286:4299   */\n      dup3\n        /* \"#utility.yul\":4242:4305   */\n      tag_338\n      jump\t// in\n    tag_432:\n        /* \"#utility.yul\":4235:4305   */\n      swap8\n      pop\n        /* \"#utility.yul\":4328:4388   */\n      tag_433\n        /* \"#utility.yul\":4381:4387   */\n      dup4\n        /* \"#utility.yul\":4328:4388   */\n      tag_339\n      jump\t// in\n    tag_433:\n        /* \"#utility.yul\":4318:4388   */\n      swap3\n      pop\n        /* \"#utility.yul\":4174:4398   */\n      pop\n        /* \"#utility.yul\":4161:4162   */\n      0x01\n        /* \"#utility.yul\":4158:4159   */\n      dup2\n        /* \"#utility.yul\":4154:4163   */\n      add\n        /* \"#utility.yul\":4149:4163   */\n      swap1\n      pop\n        /* \"#utility.yul\":4114:4398   */\n      jump(tag_429)\n    tag_431:\n        /* \"#utility.yul\":4118:4132   */\n      pop\n        /* \"#utility.yul\":4414:4417   */\n      dup6\n        /* \"#utility.yul\":4407:4417   */\n      swap4\n      pop\n        /* \"#utility.yul\":3815:4423   */\n      pop\n      pop\n      pop\n        /* \"#utility.yul\":3691:4423   */\n      swap3\n      swap2\n      pop\n      pop\n      jump\t// out\n        /* \"#utility.yul\":4429:4802   */\n    tag_40:\n        /* \"#utility.yul\":4572:4576   */\n      0x00\n        /* \"#utility.yul\":4610:4612   */\n      0x20\n        /* \"#utility.yul\":4599:4608   */\n      dup3\n        /* \"#utility.yul\":4595:4613   */\n      add\n        /* \"#utility.yul\":4587:4613   */\n      swap1\n      pop\n        /* \"#utility.yul\":4659:4668   */\n      dup2\n        /* \"#utility.yul\":4653:4657   */\n      dup2\n        /* \"#utility.yul\":4649:4669   */\n      sub\n        /* \"#utility.yul\":4645:4646   */\n      0x00\n        /* \"#utility.yul\":4634:4643   */\n      dup4\n        /* \"#utility.yul\":4630:4647   */\n      add\n        /* \"#utility.yul\":4623:4670   */\n      mstore\n        /* \"#utility.yul\":4687:4795   */\n      tag_435\n        /* \"#utility.yul\":4790:4794   */\n      dup2\n        /* \"#utility.yul\":4781:4787   */\n      dup5\n        /* \"#utility.yul\":4687:4795   */\n      tag_340\n      jump\t// in\n    tag_435:\n        /* \"#utility.yul\":4679:4795   */\n      swap1\n      pop\n        /* \"#utility.yul\":4429:4802   */\n      swap3\n      swap2\n      pop\n      pop\n      jump\t// out\n        /* \"#utility.yul\":4808:4930   */\n    tag_341:\n        /* \"#utility.yul\":4881:4905   */\n      tag_437\n        /* \"#utility.yul\":4899:4904   */\n      dup2\n        /* \"#utility.yul\":4881:4905   */\n      tag_327\n      jump\t// in\n    tag_437:\n        /* \"#utility.yul\":4874:4879   */\n      dup2\n        /* \"#utility.yul\":4871:4906   */\n      eq\n        /* \"#utility.yul\":4861:4924   */\n      tag_438\n      jumpi\n        /* \"#utility.yul\":4920:4921   */\n      0x00\n        /* \"#utility.yul\":4917:4918   */\n      dup1\n        /* \"#utility.yul\":4910:4922   */\n      revert\n        /* \"#utility.yul\":4861:4924   */\n    tag_438:\n        /* \"#utility.yul\":4808:4930   */\n      pop\n      jump\t// out\n        /* \"#utility.yul\":4936:5075   */\n    tag_342:\n        /* \"#utility.yul\":4982:4987   */\n      0x00\n        /* \"#utility.yul\":5020:5026   */\n      dup2\n        /* \"#utility.yul\":5007:5027   */\n      calldataload\n        /* \"#utility.yul\":4998:5027   */\n      swap1\n      pop\n        /* \"#utility.yul\":5036:5069   */\n      tag_440\n        /* \"#utility.yul\":5063:5068   */\n      dup2\n        /* \"#utility.yul\":5036:5069   */\n      tag_341\n      jump\t// in\n    tag_440:\n        /* \"#utility.yul\":4936:5075   */\n      swap3\n      swap2\n      pop\n      pop\n      jump\t// out\n        /* \"#utility.yul\":5081:5410   */\n    tag_43:\n        /* \"#utility.yul\":5140:5146   */\n      0x00\n        /* \"#utility.yul\":5189:5191   */\n      0x20\n        /* \"#utility.yul\":5177:5186   */\n      dup3\n        /* \"#utility.yul\":5168:5175   */\n      dup5\n        /* \"#utility.yul\":5164:5187   */\n      sub\n        /* \"#utility.yul\":5160:5192   */\n      slt\n        /* \"#utility.yul\":5157:5276   */\n      iszero\n      tag_442\n      jumpi\n        /* \"#utility.yul\":5195:5274   */\n      tag_443\n      tag_321\n      jump\t// in\n    tag_443:\n        /* \"#utility.yul\":5157:5276   */\n    tag_442:\n        /* \"#utility.yul\":5315:5316   */\n      0x00\n        /* \"#utility.yul\":5340:5393   */\n      tag_444\n        /* \"#utility.yul\":5385:5392   */\n      dup5\n        /* \"#utility.yul\":5376:5382   */\n      dup3\n        /* \"#utility.yul\":5365:5374   */\n      dup6\n        /* \"#utility.yul\":5361:5383   */\n      add\n        /* \"#utility.yul\":5340:5393   */\n      tag_342\n      jump\t// in\n    tag_444:\n        /* \"#utility.yul\":5330:5393   */\n      swap2\n      pop\n        /* \"#utility.yul\":5286:5403   */\n      pop\n        /* \"#utility.yul\":5081:5410   */\n      swap3\n      swap2\n      pop\n      pop\n      jump\t// out\n        /* \"#utility.yul\":5416:5534   */\n    tag_343:\n        /* \"#utility.yul\":5503:5527   */\n      tag_446\n        /* \"#utility.yul\":5521:5526   */\n      dup2\n        /* \"#utility.yul\":5503:5527   */\n      tag_324\n      jump\t// in\n    tag_446:\n        /* \"#utility.yul\":5498:5501   */\n      dup3\n        /* \"#utility.yul\":5491:5528   */\n      mstore\n        /* \"#utility.yul\":5416:5534   */\n      pop\n      pop\n      jump\t// out\n        /* \"#utility.yul\":5540:6204   */\n    tag_46:\n        /* \"#utility.yul\":5745:5749   */\n      0x00\n        /* \"#utility.yul\":5783:5786   */\n      0xa0\n        /* \"#utility.yul\":5772:5781   */\n      dup3\n        /* \"#utility.yul\":5768:5787   */\n      add\n        /* \"#utility.yul\":5760:5787   */\n      swap1\n      pop\n        /* \"#utility.yul\":5797:5868   */\n      tag_448\n        /* \"#utility.yul\":5865:5866   */\n      0x00\n        /* \"#utility.yul\":5854:5863   */\n      dup4\n        /* \"#utility.yul\":5850:5867   */\n      add\n        /* \"#utility.yul\":5841:5847   */\n      dup9\n        /* \"#utility.yul\":5797:5868   */\n      tag_328\n      jump\t// in\n    tag_448:\n        /* \"#utility.yul\":5878:5950   */\n      tag_449\n        /* \"#utility.yul\":5946:5948   */\n      0x20\n        /* \"#utility.yul\":5935:5944   */\n      dup4\n        /* \"#utility.yul\":5931:5949   */\n      add\n        /* \"#utility.yul\":5922:5928   */\n      dup8\n        /* \"#utility.yul\":5878:5950   */\n      tag_328\n      jump\t// in\n    tag_449:\n        /* \"#utility.yul\":5960:6032   */\n      tag_450\n        /* \"#utility.yul\":6028:6030   */\n      0x40\n        /* \"#utility.yul\":6017:6026   */\n      dup4\n        /* \"#utility.yul\":6013:6031   */\n      add\n        /* \"#utility.yul\":6004:6010   */\n      dup7\n        /* \"#utility.yul\":5960:6032   */\n      tag_328\n      jump\t// in\n    tag_450:\n        /* \"#utility.yul\":6042:6114   */\n      tag_451\n        /* \"#utility.yul\":6110:6112   */\n      0x60\n        /* \"#utility.yul\":6099:6108   */\n      dup4\n        /* \"#utility.yul\":6095:6113   */\n      add\n        /* \"#utility.yul\":6086:6092   */\n      dup6\n        /* \"#utility.yul\":6042:6114   */\n      tag_328\n      jump\t// in\n    tag_451:\n        /* \"#utility.yul\":6124:6197   */\n      tag_452\n        /* \"#utility.yul\":6192:6195   */\n      0x80\n        /* \"#utility.yul\":6181:6190   */\n      dup4\n        /* \"#utility.yul\":6177:6196   */\n      add\n        /* \"#utility.yul\":6168:6174   */\n      dup5\n        /* \"#utility.yul\":6124:6197   */\n      tag_343\n      jump\t// in\n    tag_452:\n        /* \"#utility.yul\":5540:6204   */\n      swap7\n      swap6\n      pop\n      pop\n      pop\n      pop\n      pop\n      pop\n      jump\t// out\n        /* \"#utility.yul\":6210:6287   */\n    tag_344:\n        /* \"#utility.yul\":6247:6254   */\n      0x00\n        /* \"#utility.yul\":6276:6281   */\n      dup2\n        /* \"#utility.yul\":6265:6281   */\n      swap1\n      pop\n        /* \"#utility.yul\":6210:6287   */\n      swap2\n      swap1\n      pop\n      jump\t// out\n        /* \"#utility.yul\":6293:6415   */\n    tag_345:\n        /* \"#utility.yul\":6366:6390   */\n      tag_455\n        /* \"#utility.yul\":6384:6389   */\n      dup2\n        /* \"#utility.yul\":6366:6390   */\n      tag_344\n      jump\t// in\n    tag_455:\n        /* \"#utility.yul\":6359:6364   */\n      dup2\n        /* \"#utility.yul\":6356:6391   */\n      eq\n        /* \"#utility.yul\":6346:6409   */\n      tag_456\n      jumpi\n        /* \"#utility.yul\":6405:6406   */\n      0x00\n        /* \"#utility.yul\":6402:6403   */\n      dup1\n        /* \"#utility.yul\":6395:6407   */\n      revert\n        /* \"#utility.yul\":6346:6409   */\n    tag_456:\n        /* \"#utility.yul\":6293:6415   */\n      pop\n      jump\t// out\n        /* \"#utility.yul\":6421:6560   */\n    tag_346:\n        /* \"#utility.yul\":6467:6472   */\n      0x00\n        /* \"#utility.yul\":6505:6511   */\n      dup2\n        /* \"#utility.yul\":6492:6512   */\n      calldataload\n        /* \"#utility.yul\":6483:6512   */\n      swap1\n      pop\n        /* \"#utility.yul\":6521:6554   */\n      tag_458\n        /* \"#utility.yul\":6548:6553   */\n      dup2\n        /* \"#utility.yul\":6521:6554   */\n      tag_345\n      jump\t// in\n    tag_458:\n        /* \"#utility.yul\":6421:6560   */\n      swap3\n      swap2\n      pop\n      pop\n      jump\t// out\n        /* \"#utility.yul\":6566:6895   */\n    tag_49:\n        /* \"#utility.yul\":6625:6631   */\n      0x00\n        /* \"#utility.yul\":6674:6676   */\n      0x20\n        /* \"#utility.yul\":6662:6671   */\n      dup3\n        /* \"#utility.yul\":6653:6660   */\n      dup5\n        /* \"#utility.yul\":6649:6672   */\n      sub\n        /* \"#utility.yul\":6645:6677   */\n      slt\n        /* \"#utility.yul\":6642:6761   */\n      iszero\n      tag_460\n      jumpi\n        /* \"#utility.yul\":6680:6759   */\n      tag_461\n      tag_321\n      jump\t// in\n    tag_461:\n        /* \"#utility.yul\":6642:6761   */\n    tag_460:\n        /* \"#utility.yul\":6800:6801   */\n      0x00\n        /* \"#utility.yul\":6825:6878   */\n      tag_462\n        /* \"#utility.yul\":6870:6877   */\n      dup5\n        /* \"#utility.yul\":6861:6867   */\n      dup3\n        /* \"#utility.yul\":6850:6859   */\n      dup6\n        /* \"#utility.yul\":6846:6868   */\n      add\n        /* \"#utility.yul\":6825:6878   */\n      tag_346\n      jump\t// in\n    tag_462:\n        /* \"#utility.yul\":6815:6878   */\n      swap2\n      pop\n        /* \"#utility.yul\":6771:6888   */\n      pop\n        /* \"#utility.yul\":6566:6895   */\n      swap3\n      swap2\n      pop\n      pop\n      jump\t// out\n        /* \"#utility.yul\":6901:7019   */\n    tag_347:\n        /* \"#utility.yul\":6988:7012   */\n      tag_464\n        /* \"#utility.yul\":7006:7011   */\n      dup2\n        /* \"#utility.yul\":6988:7012   */\n      tag_344\n      jump\t// in\n    tag_464:\n        /* \"#utility.yul\":6983:6986   */\n      dup3\n        /* \"#utility.yul\":6976:7013   */\n      mstore\n        /* \"#utility.yul\":6901:7019   */\n      pop\n      pop\n      jump\t// out\n        /* \"#utility.yul\":7025:7247   */\n    tag_52:\n        /* \"#utility.yul\":7118:7122   */\n      0x00\n        /* \"#utility.yul\":7156:7158   */\n      0x20\n        /* \"#utility.yul\":7145:7154   */\n      dup3\n        /* \"#utility.yul\":7141:7159   */\n      add\n        /* \"#utility.yul\":7133:7159   */\n      swap1\n      pop\n        /* \"#utility.yul\":7169:7240   */\n      tag_466\n        /* \"#utility.yul\":7237:7238   */\n      0x00\n        /* \"#utility.yul\":7226:7235   */\n      dup4\n        /* \"#utility.yul\":7222:7239   */\n      add\n        /* \"#utility.yul\":7213:7219   */\n      dup5\n        /* \"#utility.yul\":7169:7240   */\n      tag_347\n      jump\t// in\n    tag_466:\n        /* \"#utility.yul\":7025:7247   */\n      swap3\n      swap2\n      pop\n      pop\n      jump\t// out\n        /* \"#utility.yul\":7253:7727   */\n    tag_58:\n        /* \"#utility.yul\":7321:7327   */\n      0x00\n        /* \"#utility.yul\":7329:7335   */\n      dup1\n        /* \"#utility.yul\":7378:7380   */\n      0x40\n        /* \"#utility.yul\":7366:7375   */\n      dup4\n        /* \"#utility.yul\":7357:7364   */\n      dup6\n        /* \"#utility.yul\":7353:7376   */\n      sub\n        /* \"#utility.yul\":7349:7381   */\n      slt\n        /* \"#utility.yul\":7346:7465   */\n      iszero\n      tag_468\n      jumpi\n        /* \"#utility.yul\":7384:7463   */\n      tag_469\n      tag_321\n      jump\t// in\n    tag_469:\n        /* \"#utility.yul\":7346:7465   */\n    tag_468:\n        /* \"#utility.yul\":7504:7505   */\n      0x00\n        /* \"#utility.yul\":7529:7582   */\n      tag_470\n        /* \"#utility.yul\":7574:7581   */\n      dup6\n        /* \"#utility.yul\":7565:7571   */\n      dup3\n        /* \"#utility.yul\":7554:7563   */\n      dup7\n        /* \"#utility.yul\":7550:7572   */\n      add\n        /* \"#utility.yul\":7529:7582   */\n      tag_346\n      jump\t// in\n    tag_470:\n        /* \"#utility.yul\":7519:7582   */\n      swap3\n      pop\n        /* \"#utility.yul\":7475:7592   */\n      pop\n        /* \"#utility.yul\":7631:7633   */\n      0x20\n        /* \"#utility.yul\":7657:7710   */\n      tag_471\n        /* \"#utility.yul\":7702:7709   */\n      dup6\n        /* \"#utility.yul\":7693:7699   */\n      dup3\n        /* \"#utility.yul\":7682:7691   */\n      dup7\n        /* \"#utility.yul\":7678:7700   */\n      add\n        /* \"#utility.yul\":7657:7710   */\n      tag_326\n      jump\t// in\n    tag_471:\n        /* \"#utility.yul\":7647:7710   */\n      swap2\n      pop\n        /* \"#utility.yul\":7602:7720   */\n      pop\n        /* \"#utility.yul\":7253:7727   */\n      swap3\n      pop\n      swap3\n      swap1\n      pop\n      jump\t// out\n        /* \"#utility.yul\":7733:7793   */\n    tag_348:\n        /* \"#utility.yul\":7761:7764   */\n      0x00\n        /* \"#utility.yul\":7782:7787   */\n      dup2\n        /* \"#utility.yul\":7775:7787   */\n      swap1\n      pop\n        /* \"#utility.yul\":7733:7793   */\n      swap2\n      swap1\n      pop\n      jump\t// out\n        /* \"#utility.yul\":7799:7941   */\n    tag_349:\n        /* \"#utility.yul\":7849:7858   */\n      0x00\n        /* \"#utility.yul\":7882:7935   */\n      tag_474\n        /* \"#utility.yul\":7900:7934   */\n      tag_475\n        /* \"#utility.yul\":7909:7933   */\n      tag_476\n        /* \"#utility.yul\":7927:7932   */\n      dup5\n        /* \"#utility.yul\":7909:7933   */\n      tag_323\n      jump\t// in\n    tag_476:\n        /* \"#utility.yul\":7900:7934   */\n      tag_348\n      jump\t// in\n    tag_475:\n        /* \"#utility.yul\":7882:7935   */\n      tag_323\n      jump\t// in\n    tag_474:\n        /* \"#utility.yul\":7869:7935   */\n      swap1\n      pop\n        /* \"#utility.yul\":7799:7941   */\n      swap2\n      swap1\n      pop\n      jump\t// out\n        /* \"#utility.yul\":7947:8073   */\n    tag_350:\n        /* \"#utility.yul\":7997:8006   */\n      0x00\n        /* \"#utility.yul\":8030:8067   */\n      tag_478\n        /* \"#utility.yul\":8061:8066   */\n      dup3\n        /* \"#utility.yul\":8030:8067   */\n      tag_349\n      jump\t// in\n    tag_478:\n        /* \"#utility.yul\":8017:8067   */\n      swap1\n      pop\n        /* \"#utility.yul\":7947:8073   */\n      swap2\n      swap1\n      pop\n      jump\t// out\n        /* \"#utility.yul\":8079:8219   */\n    tag_351:\n        /* \"#utility.yul\":8143:8152   */\n      0x00\n        /* \"#utility.yul\":8176:8213   */\n      tag_480\n        /* \"#utility.yul\":8207:8212   */\n      dup3\n        /* \"#utility.yul\":8176:8213   */\n      tag_350\n      jump\t// in\n    tag_480:\n        /* \"#utility.yul\":8163:8213   */\n      swap1\n      pop\n        /* \"#utility.yul\":8079:8219   */\n      swap2\n      swap1\n      pop\n      jump\t// out\n        /* \"#utility.yul\":8225:8384   */\n    tag_352:\n        /* \"#utility.yul\":8326:8377   */\n      tag_482\n        /* \"#utility.yul\":8371:8376   */\n      dup2\n        /* \"#utility.yul\":8326:8377   */\n      tag_351\n      jump\t// in\n    tag_482:\n        /* \"#utility.yul\":8321:8324   */\n      dup3\n        /* \"#utility.yul\":8314:8378   */\n      mstore\n        /* \"#utility.yul\":8225:8384   */\n      pop\n      pop\n      jump\t// out\n        /* \"#utility.yul\":8390:8640   */\n    tag_75:\n        /* \"#utility.yul\":8497:8501   */\n      0x00\n        /* \"#utility.yul\":8535:8537   */\n      0x20\n        /* \"#utility.yul\":8524:8533   */\n      dup3\n        /* \"#utility.yul\":8520:8538   */\n      add\n        /* \"#utility.yul\":8512:8538   */\n      swap1\n      pop\n        /* \"#utility.yul\":8548:8633   */\n      tag_484\n        /* \"#utility.yul\":8630:8631   */\n      0x00\n        /* \"#utility.yul\":8619:8628   */\n      dup4\n        /* \"#utility.yul\":8615:8632   */\n      add\n        /* \"#utility.yul\":8606:8612   */\n      dup5\n        /* \"#utility.yul\":8548:8633   */\n      tag_352\n      jump\t// in\n    tag_484:\n        /* \"#utility.yul\":8390:8640   */\n      swap3\n      swap2\n      pop\n      pop\n      jump\t// out\n        /* \"#utility.yul\":8646:9411   */\n    tag_97:\n        /* \"#utility.yul\":8732:8738   */\n      0x00\n        /* \"#utility.yul\":8740:8746   */\n      dup1\n        /* \"#utility.yul\":8748:8754   */\n      0x00\n        /* \"#utility.yul\":8756:8762   */\n      dup1\n        /* \"#utility.yul\":8805:8808   */\n      0x80\n        /* \"#utility.yul\":8793:8802   */\n      dup6\n        /* \"#utility.yul\":8784:8791   */\n      dup8\n        /* \"#utility.yul\":8780:8803   */\n      sub\n        /* \"#utility.yul\":8776:8809   */\n      slt\n        /* \"#utility.yul\":8773:8893   */\n      iszero\n      tag_486\n      jumpi\n        /* \"#utility.yul\":8812:8891   */\n      tag_487\n      tag_321\n      jump\t// in\n    tag_487:\n        /* \"#utility.yul\":8773:8893   */\n    tag_486:\n        /* \"#utility.yul\":8932:8933   */\n      0x00\n        /* \"#utility.yul\":8957:9010   */\n      tag_488\n        /* \"#utility.yul\":9002:9009   */\n      dup8\n        /* \"#utility.yul\":8993:8999   */\n      dup3\n        /* \"#utility.yul\":8982:8991   */\n      dup9\n        /* \"#utility.yul\":8978:9000   */\n      add\n        /* \"#utility.yul\":8957:9010   */\n      tag_342\n      jump\t// in\n    tag_488:\n        /* \"#utility.yul\":8947:9010   */\n      swap5\n      pop\n        /* \"#utility.yul\":8903:9020   */\n      pop\n        /* \"#utility.yul\":9059:9061   */\n      0x20\n        /* \"#utility.yul\":9085:9138   */\n      tag_489\n        /* \"#utility.yul\":9130:9137   */\n      dup8\n        /* \"#utility.yul\":9121:9127   */\n      dup3\n        /* \"#utility.yul\":9110:9119   */\n      dup9\n        /* \"#utility.yul\":9106:9128   */\n      add\n        /* \"#utility.yul\":9085:9138   */\n      tag_342\n      jump\t// in\n    tag_489:\n        /* \"#utility.yul\":9075:9138   */\n      swap4\n      pop\n        /* \"#utility.yul\":9030:9148   */\n      pop\n        /* \"#utility.yul\":9187:9189   */\n      0x40\n        /* \"#utility.yul\":9213:9266   */\n      tag_490\n        /* \"#utility.yul\":9258:9265   */\n      dup8\n        /* \"#utility.yul\":9249:9255   */\n      dup3\n        /* \"#utility.yul\":9238:9247   */\n      dup9\n        /* \"#utility.yul\":9234:9256   */\n      add\n        /* \"#utility.yul\":9213:9266   */\n      tag_342\n      jump\t// in\n    tag_490:\n        /* \"#utility.yul\":9203:9266   */\n      swap3\n      pop\n        /* \"#utility.yul\":9158:9276   */\n      pop\n        /* \"#utility.yul\":9315:9317   */\n      0x60\n        /* \"#utility.yul\":9341:9394   */\n      tag_491\n        /* \"#utility.yul\":9386:9393   */\n      dup8\n        /* \"#utility.yul\":9377:9383   */\n      dup3\n        /* \"#utility.yul\":9366:9375   */\n      dup9\n        /* \"#utility.yul\":9362:9384   */\n      add\n        /* \"#utility.yul\":9341:9394   */\n      tag_326\n      jump\t// in\n    tag_491:\n        /* \"#utility.yul\":9331:9394   */\n      swap2\n      pop\n        /* \"#utility.yul\":9286:9404   */\n      pop\n        /* \"#utility.yul\":8646:9411   */\n      swap3\n      swap6\n      swap2\n      swap5\n      pop\n      swap3\n      pop\n      jump\t// out\n        /* \"#utility.yul\":9417:9597   */\n    tag_353:\n        /* \"#utility.yul\":9465:9542   */\n      0x4e487b7100000000000000000000000000000000000000000000000000000000\n        /* \"#utility.yul\":9462:9463   */\n      0x00\n        /* \"#utility.yul\":9455:9543   */\n      mstore\n        /* \"#utility.yul\":9562:9566   */\n      0x11\n        /* \"#utility.yul\":9559:9560   */\n      0x04\n        /* \"#utility.yul\":9552:9567   */\n      mstore\n        /* \"#utility.yul\":9586:9590   */\n      0x24\n        /* \"#utility.yul\":9583:9584   */\n      0x00\n        /* \"#utility.yul\":9576:9591   */\n      revert\n        /* \"#utility.yul\":9603:9836   */\n    tag_108:\n        /* \"#utility.yul\":9642:9645   */\n      0x00\n        /* \"#utility.yul\":9665:9689   */\n      tag_494\n        /* \"#utility.yul\":9683:9688   */\n      dup3\n        /* \"#utility.yul\":9665:9689   */\n      tag_327\n      jump\t// in\n    tag_494:\n        /* \"#utility.yul\":9656:9689   */\n      swap2\n      pop\n        /* \"#utility.yul\":9711:9777   */\n      0xffffffffffffffffffffffffffffffffffffffffffffffffffffffffffffffff\n        /* \"#utility.yul\":9704:9709   */\n      dup3\n        /* \"#utility.yul\":9701:9778   */\n      sub\n        /* \"#utility.yul\":9698:9801   */\n      tag_495\n      jumpi\n        /* \"#utility.yul\":9781:9799   */\n      tag_496\n      tag_353\n      jump\t// in\n    tag_496:\n        /* \"#utility.yul\":9698:9801   */\n    tag_495:\n        /* \"#utility.yul\":9828:9829   */\n      0x01\n        /* \"#utility.yul\":9821:9826   */\n      dup3\n        /* \"#utility.yul\":9817:9830   */\n      add\n        /* \"#utility.yul\":9810:9830   */\n      swap1\n      pop\n        /* \"#utility.yul\":9603:9836   */\n      swap2\n      swap1\n      pop\n      jump\t// out\n        /* \"#utility.yul\":9842:10022   */\n    tag_122:\n        /* \"#utility.yul\":9890:9967   */\n      0x4e487b7100000000000000000000000000000000000000000000000000000000\n        /* \"#utility.yul\":9887:9888   */\n      0x00\n        /* \"#utility.yul\":9880:9968   */\n      mstore\n        /* \"#utility.yul\":9987:9991   */\n      0x41\n        /* \"#utility.yul\":9984:9985   */\n      0x04\n        /* \"#utility.yul\":9977:9992   */\n      mstore\n        /* \"#utility.yul\":10011:10015   */\n      0x24\n        /* \"#utility.yul\":10008:10009   */\n      0x00\n        /* \"#utility.yul\":10001:10016   */\n      revert\n        /* \"#utility.yul\":10028:10208   */\n    tag_131:\n        /* \"#utility.yul\":10076:10153   */\n      0x4e487b7100000000000000000000000000000000000000000000000000000000\n        /* \"#utility.yul\":10073:10074   */\n      0x00\n        /* \"#utility.yul\":10066:10154   */\n      mstore\n        /* \"#utility.yul\":10173:10177   */\n      0x32\n        /* \"#utility.yul\":10170:10171   */\n      0x04\n        /* \"#utility.yul\":10163:10178   */\n      mstore\n        /* \"#utility.yul\":10197:10201   */\n      0x24\n        /* \"#utility.yul\":10194:10195   */\n      0x00\n        /* \"#utility.yul\":10187:10202   */\n      revert\n        /* \"#utility.yul\":10214:10383   */\n    tag_354:\n        /* \"#utility.yul\":10298:10309   */\n      0x00\n        /* \"#utility.yul\":10332:10338   */\n      dup3\n        /* \"#utility.yul\":10327:10330   */\n      dup3\n        /* \"#utility.yul\":10320:10339   */\n      mstore\n        /* \"#utility.yul\":10372:10376   */\n      0x20\n        /* \"#utility.yul\":10367:10370   */\n      dup3\n        /* \"#utility.yul\":10363:10377   */\n      add\n        /* \"#utility.yul\":10348:10377   */\n      swap1\n      pop\n        /* \"#utility.yul\":10214:10383   */\n      swap3\n      swap2\n      pop\n      pop\n      jump\t// out\n        /* \"#utility.yul\":10389:10557   */\n    tag_355:\n        /* \"#utility.yul\":10529:10549   */\n      0x416d6f756e74206d757374206265203e20300000000000000000000000000000\n        /* \"#utility.yul\":10525:10526   */\n      0x00\n        /* \"#utility.yul\":10517:10523   */\n      dup3\n        /* \"#utility.yul\":10513:10527   */\n      add\n        /* \"#utility.yul\":10506:10550   */\n      mstore\n        /* \"#utility.yul\":10389:10557   */\n      pop\n      jump\t// out\n        /* \"#utility.yul\":10563:10929   */\n    tag_356:\n        /* \"#utility.yul\":10705:10708   */\n      0x00\n        /* \"#utility.yul\":10726:10793   */\n      tag_502\n        /* \"#utility.yul\":10790:10792   */\n      0x12\n        /* \"#utility.yul\":10785:10788   */\n      dup4\n        /* \"#utility.yul\":10726:10793   */\n      tag_354\n      jump\t// in\n    tag_502:\n        /* \"#utility.yul\":10719:10793   */\n      swap2\n      pop\n        /* \"#utility.yul\":10802:10895   */\n      tag_503\n        /* \"#utility.yul\":10891:10894   */\n      dup3\n        /* \"#utility.yul\":10802:10895   */\n      tag_355\n      jump\t// in\n    tag_503:\n        /* \"#utility.yul\":10920:10922   */\n      0x20\n        /* \"#utility.yul\":10915:10918   */\n      dup3\n        /* \"#utility.yul\":10911:10923   */\n      add\n        /* \"#utility.yul\":10904:10923   */\n      swap1\n      pop\n        /* \"#utility.yul\":10563:10929   */\n      swap2\n      swap1\n      pop\n      jump\t// out\n        /* \"#utility.yul\":10935:11354   */\n    tag_140:\n        /* \"#utility.yul\":11101:11105   */\n      0x00\n        /* \"#utility.yul\":11139:11141   */\n      0x20\n        /* \"#utility.yul\":11128:11137   */\n      dup3\n        /* \"#utility.yul\":11124:11142   */\n      add\n        /* \"#utility.yul\":11116:11142   */\n      swap1\n      pop\n        /* \"#utility.yul\":11188:11197   */\n      dup2\n        /* \"#utility.yul\":11182:11186   */\n      dup2\n        /* \"#utility.yul\":11178:11198   */\n      sub\n        /* \"#utility.yul\":11174:11175   */\n      0x00\n        /* \"#utility.yul\":11163:11172   */\n      dup4\n        /* \"#utility.yul\":11159:11176   */\n      add\n        /* \"#utility.yul\":11152:11199   */\n      mstore\n        /* \"#utility.yul\":11216:11347   */\n      tag_505\n        /* \"#utility.yul\":11342:11346   */\n      dup2\n        /* \"#utility.yul\":11216:11347   */\n      tag_356\n      jump\t// in\n    tag_505:\n        /* \"#utility.yul\":11208:11347   */\n      swap1\n      pop\n        /* \"#utility.yul\":10935:11354   */\n      swap2\n      swap1\n      pop\n      jump\t// out\n        /* \"#utility.yul\":11360:11530   */\n    tag_357:\n        /* \"#utility.yul\":11500:11522   */\n      0x496e73756666696369656e742062616c616e6365000000000000000000000000\n        /* \"#utility.yul\":11496:11497   */\n      0x00\n        /* \"#utility.yul\":11488:11494   */\n      dup3\n        /* \"#utility.yul\":11484:11498   */\n      add\n        /* \"#utility.yul\":11477:11523   */\n      mstore\n        /* \"#utility.yul\":11360:11530   */\n      pop\n      jump\t// out\n        /* \"#utility.yul\":11536:11902   */\n    tag_358:\n        /* \"#utility.yul\":11678:11681   */\n      0x00\n        /* \"#utility.yul\":11699:11766   */\n      tag_508\n        /* \"#utility.yul\":11763:11765   */\n      0x14\n        /* \"#utility.yul\":11758:11761   */\n      dup4\n        /* \"#utility.yul\":11699:11766   */\n      tag_354\n      jump\t// in\n    tag_508:\n        /* \"#utility.yul\":11692:11766   */\n      swap2\n      pop\n        /* \"#utility.yul\":11775:11868   */\n      tag_509\n        /* \"#utility.yul\":11864:11867   */\n      dup3\n        /* \"#utility.yul\":11775:11868   */\n      tag_357\n      jump\t// in\n    tag_509:\n        /* \"#utility.yul\":11893:11895   */\n      0x20\n        /* \"#utility.yul\":11888:11891   */\n      dup3\n        /* \"#utility.yul\":11884:11896   */\n      add\n        /* \"#utility.yul\":11877:11896   */\n      swap1\n      pop\n        /* \"#utility.yul\":11536:11902   */\n      swap2\n      swap1\n      pop\n      jump\t// out\n        /* \"#utility.yul\":11908:12327   */\n    tag_143:\n        /* \"#utility.yul\":12074:12078   */\n      0x00\n        /* \"#utility.yul\":12112:12114   */\n      0x20\n        /* \"#utility.yul\":12101:12110   */\n      dup3\n        /* \"#utility.yul\":12097:12115   */\n      add\n        /* \"#utility.yul\":12089:12115   */\n      swap1\n      pop\n        /* \"#utility.yul\":12161:12170   */\n      dup2\n        /* \"#utility.yul\":12155:12159   */\n      dup2\n        /* \"#utility.yul\":12151:12171   */\n      sub\n        /* \"#utility.yul\":12147:12148   */\n      0x00\n        /* \"#utility.yul\":12136:12145   */\n      dup4\n        /* \"#utility.yul\":12132:12149   */\n      add\n        /* \"#utility.yul\":12125:12172   */\n      mstore\n        /* \"#utility.yul\":12189:12320   */\n      tag_511\n        /* \"#utility.yul\":12315:12319   */\n      dup2\n        /* \"#utility.yul\":12189:12320   */\n      tag_358\n      jump\t// in\n    tag_511:\n        /* \"#utility.yul\":12181:12320   */\n      swap1\n      pop\n        /* \"#utility.yul\":11908:12327   */\n      swap2\n      swap1\n      pop\n      jump\t// out\n        /* \"#utility.yul\":12333:12665   */\n    tag_150:\n        /* \"#utility.yul\":12454:12458   */\n      0x00\n        /* \"#utility.yul\":12492:12494   */\n      0x40\n        /* \"#utility.yul\":12481:12490   */\n      dup3\n        /* \"#utility.yul\":12477:12495   */\n      add\n        /* \"#utility.yul\":12469:12495   */\n      swap1\n      pop\n        /* \"#utility.yul\":12505:12576   */\n      tag_513\n        /* \"#utility.yul\":12573:12574   */\n      0x00\n        /* \"#utility.yul\":12562:12571   */\n      dup4\n        /* \"#utility.yul\":12558:12575   */\n      add\n        /* \"#utility.yul\":12549:12555   */\n      dup6\n        /* \"#utility.yul\":12505:12576   */\n      tag_343\n      jump\t// in\n    tag_513:\n        /* \"#utility.yul\":12586:12658   */\n      tag_514\n        /* \"#utility.yul\":12654:12656   */\n      0x20\n        /* \"#utility.yul\":12643:12652   */\n      dup4\n        /* \"#utility.yul\":12639:12657   */\n      add\n        /* \"#utility.yul\":12630:12636   */\n      dup5\n        /* \"#utility.yul\":12586:12658   */\n      tag_328\n      jump\t// in\n    tag_514:\n        /* \"#utility.yul\":12333:12665   */\n      swap4\n      swap3\n      pop\n      pop\n      pop\n      jump\t// out\n        /* \"#utility.yul\":12671:12787   */\n    tag_359:\n        /* \"#utility.yul\":12741:12762   */\n      tag_516\n        /* \"#utility.yul\":12756:12761   */\n      dup2\n        /* \"#utility.yul\":12741:12762   */\n      tag_332\n      jump\t// in\n    tag_516:\n        /* \"#utility.yul\":12734:12739   */\n      dup2\n        /* \"#utility.yul\":12731:12763   */\n      eq\n        /* \"#utility.yul\":12721:12781   */\n      tag_517\n      jumpi\n        /* \"#utility.yul\":12777:12778   */\n      0x00\n        /* \"#utility.yul\":12774:12775   */\n      dup1\n        /* \"#utility.yul\":12767:12779   */\n      revert\n        /* \"#utility.yul\":12721:12781   */\n    tag_517:\n        /* \"#utility.yul\":12671:12787   */\n      pop\n      jump\t// out\n        /* \"#utility.yul\":12793:12930   */\n    tag_360:\n        /* \"#utility.yul\":12847:12852   */\n      0x00\n        /* \"#utility.yul\":12878:12884   */\n      dup2\n        /* \"#utility.yul\":12872:12885   */\n      mload\n        /* \"#utility.yul\":12863:12885   */\n      swap1\n      pop\n        /* \"#utility.yul\":12894:12924   */\n      tag_519\n        /* \"#utility.yul\":12918:12923   */\n      dup2\n        /* \"#utility.yul\":12894:12924   */\n      tag_359\n      jump\t// in\n    tag_519:\n        /* \"#utility.yul\":12793:12930   */\n      swap3\n      swap2\n      pop\n      pop\n      jump\t// out\n        /* \"#utility.yul\":12936:13281   */\n    tag_154:\n        /* \"#utility.yul\":13003:13009   */\n      0x00\n        /* \"#utility.yul\":13052:13054   */\n      0x20\n        /* \"#utility.yul\":13040:13049   */\n      dup3\n        /* \"#utility.yul\":13031:13038   */\n      dup5\n        /* \"#utility.yul\":13027:13050   */\n      sub\n        /* \"#utility.yul\":13023:13055   */\n      slt\n        /* \"#utility.yul\":13020:13139   */\n      iszero\n      tag_521\n      jumpi\n        /* \"#utility.yul\":13058:13137   */\n      tag_522\n      tag_321\n      jump\t// in\n    tag_522:\n        /* \"#utility.yul\":13020:13139   */\n    tag_521:\n        /* \"#utility.yul\":13178:13179   */\n      0x00\n        /* \"#utility.yul\":13203:13264   */\n      tag_523\n        /* \"#utility.yul\":13256:13263   */\n      dup5\n        /* \"#utility.yul\":13247:13253   */\n      dup3\n        /* \"#utility.yul\":13236:13245   */\n      dup6\n        /* \"#utility.yul\":13232:13254   */\n      add\n        /* \"#utility.yul\":13203:13264   */\n      tag_360\n      jump\t// in\n    tag_523:\n        /* \"#utility.yul\":13193:13264   */\n      swap2\n      pop\n        /* \"#utility.yul\":13149:13274   */\n      pop\n        /* \"#utility.yul\":12936:13281   */\n      swap3\n      swap2\n      pop\n      pop\n      jump\t// out\n        /* \"#utility.yul\":13287:13452   */\n    tag_361:\n        /* \"#utility.yul\":13427:13444   */\n      0x5472616e73666572206661696c65640000000000000000000000000000000000\n        /* \"#utility.yul\":13423:13424   */\n      0x00\n        /* \"#utility.yul\":13415:13421   */\n      dup3\n        /* \"#utility.yul\":13411:13425   */\n      add\n        /* \"#utility.yul\":13404:13445   */\n      mstore\n        /* \"#utility.yul\":13287:13452   */\n      pop\n      jump\t// out\n        /* \"#utility.yul\":13458:13824   */\n    tag_362:\n        /* \"#utility.yul\":13600:13603   */\n      0x00\n        /* \"#utility.yul\":13621:13688   */\n      tag_526\n        /* \"#utility.yul\":13685:13687   */\n      0x0f\n        /* \"#utility.yul\":13680:13683   */\n      dup4\n        /* \"#utility.yul\":13621:13688   */\n      tag_354\n      jump\t// in\n    tag_526:\n        /* \"#utility.yul\":13614:13688   */\n      swap2\n      pop\n        /* \"#utility.yul\":13697:13790   */\n      tag_527\n        /* \"#utility.yul\":13786:13789   */\n      dup3\n        /* \"#utility.yul\":13697:13790   */\n      tag_361\n      jump\t// in\n    tag_527:\n        /* \"#utility.yul\":13815:13817   */\n      0x20\n        /* \"#utility.yul\":13810:13813   */\n      dup3\n        /* \"#utility.yul\":13806:13818   */\n      add\n        /* \"#utility.yul\":13799:13818   */\n      swap1\n      pop\n        /* \"#utility.yul\":13458:13824   */\n      swap2\n      swap1\n      pop\n      jump\t// out\n        /* \"#utility.yul\":13830:14249   */\n    tag_157:\n        /* \"#utility.yul\":13996:14000   */\n      0x00\n        /* \"#utility.yul\":14034:14036   */\n      0x20\n        /* \"#utility.yul\":14023:14032   */\n      dup3\n        /* \"#utility.yul\":14019:14037   */\n      add\n        /* \"#utility.yul\":14011:14037   */\n      swap1\n      pop\n        /* \"#utility.yul\":14083:14092   */\n      dup2\n        /* \"#utility.yul\":14077:14081   */\n      dup2\n        /* \"#utility.yul\":14073:14093   */\n      sub\n        /* \"#utility.yul\":14069:14070   */\n      0x00\n        /* \"#utility.yul\":14058:14067   */\n      dup4\n        /* \"#utility.yul\":14054:14071   */\n      add\n        /* \"#utility.yul\":14047:14094   */\n      mstore\n        /* \"#utility.yul\":14111:14242   */\n      tag_529\n        /* \"#utility.yul\":14237:14241   */\n      dup2\n        /* \"#utility.yul\":14111:14242   */\n      tag_362\n      jump\t// in\n    tag_529:\n        /* \"#utility.yul\":14103:14242   */\n      swap1\n      pop\n        /* \"#utility.yul\":13830:14249   */\n      swap2\n      swap1\n      pop\n      jump\t// out\n        /* \"#utility.yul\":14255:14417   */\n    tag_363:\n        /* \"#utility.yul\":14395:14409   */\n      0x4f76657220636c61696d65640000000000000000000000000000000000000000\n        /* \"#utility.yul\":14391:14392   */\n      0x00\n        /* \"#utility.yul\":14383:14389   */\n      dup3\n        /* \"#utility.yul\":14379:14393   */\n      add\n        /* \"#utility.yul\":14372:14410   */\n      mstore\n        /* \"#utility.yul\":14255:14417   */\n      pop\n      jump\t// out\n        /* \"#utility.yul\":14423:14789   */\n    tag_364:\n        /* \"#utility.yul\":14565:14568   */\n      0x00\n        /* \"#utility.yul\":14586:14653   */\n      tag_532\n        /* \"#utility.yul\":14650:14652   */\n      0x0c\n        /* \"#utility.yul\":14645:14648   */\n      dup4\n        /* \"#utility.yul\":14586:14653   */\n      tag_354\n      jump\t// in\n    tag_532:\n        /* \"#utility.yul\":14579:14653   */\n      swap2\n      pop\n        /* \"#utility.yul\":14662:14755   */\n      tag_533\n        /* \"#utility.yul\":14751:14754   */\n      dup3\n        /* \"#utility.yul\":14662:14755   */\n      tag_363\n      jump\t// in\n    tag_533:\n        /* \"#utility.yul\":14780:14782   */\n      0x20\n        /* \"#utility.yul\":14775:14778   */\n      dup3\n        /* \"#utility.yul\":14771:14783   */\n      add\n        /* \"#utility.yul\":14764:14783   */\n      swap1\n      pop\n        /* \"#utility.yul\":14423:14789   */\n      swap2\n      swap1\n      pop\n      jump\t// out\n        /* \"#utility.yul\":14795:15214   */\n    tag_185:\n        /* \"#utility.yul\":14961:14965   */\n      0x00\n        /* \"#utility.yul\":14999:15001   */\n      0x20\n        /* \"#utility.yul\":14988:14997   */\n      dup3\n        /* \"#utility.yul\":14984:15002   */\n      add\n        /* \"#utility.yul\":14976:15002   */\n      swap1\n      pop\n        /* \"#utility.yul\":15048:15057   */\n      dup2\n        /* \"#utility.yul\":15042:15046   */\n      dup2\n        /* \"#utility.yul\":15038:15058   */\n      sub\n        /* \"#utility.yul\":15034:15035   */\n      0x00\n        /* \"#utility.yul\":15023:15032   */\n      dup4\n        /* \"#utility.yul\":15019:15036   */\n      add\n        /* \"#utility.yul\":15012:15059   */\n      mstore\n        /* \"#utility.yul\":15076:15207   */\n      tag_535\n        /* \"#utility.yul\":15202:15206   */\n      dup2\n        /* \"#utility.yul\":15076:15207   */\n      tag_364\n      jump\t// in\n    tag_535:\n        /* \"#utility.yul\":15068:15207   */\n      swap1\n      pop\n        /* \"#utility.yul\":14795:15214   */\n      swap2\n      swap1\n      pop\n      jump\t// out\n        /* \"#utility.yul\":15220:15380   */\n    tag_365:\n        /* \"#utility.yul\":15360:15372   */\n      0x4e6f207265776172647300000000000000000000000000000000000000000000\n        /* \"#utility.yul\":15356:15357   */\n      0x00\n        /* \"#utility.yul\":15348:15354   */\n      dup3\n        /* \"#utility.yul\":15344:15358   */\n      add\n        /* \"#utility.yul\":15337:15373   */\n      mstore\n        /* \"#utility.yul\":15220:15380   */\n      pop\n      jump\t// out\n        /* \"#utility.yul\":15386:15752   */\n    tag_366:\n        /* \"#utility.yul\":15528:15531   */\n      0x00\n        /* \"#utility.yul\":15549:15616   */\n      tag_538\n        /* \"#utility.yul\":15613:15615   */\n      0x0a\n        /* \"#utility.yul\":15608:15611   */\n      dup4\n        /* \"#utility.yul\":15549:15616   */\n      tag_354\n      jump\t// in\n    tag_538:\n        /* \"#utility.yul\":15542:15616   */\n      swap2\n      pop\n        /* \"#utility.yul\":15625:15718   */\n      tag_539\n        /* \"#utility.yul\":15714:15717   */\n      dup3\n        /* \"#utility.yul\":15625:15718   */\n      tag_365\n      jump\t// in\n    tag_539:\n        /* \"#utility.yul\":15743:15745   */\n      0x20\n        /* \"#utility.yul\":15738:15741   */\n      dup3\n        /* \"#utility.yul\":15734:15746   */\n      add\n        /* \"#utility.yul\":15727:15746   */\n      swap1\n      pop\n        /* \"#utility.yul\":15386:15752   */\n      swap2\n      swap1\n      pop\n      jump\t// out\n        /* \"#utility.yul\":15758:16177   */\n    tag_193:\n        /* \"#utility.yul\":15924:15928   */\n      0x00\n        /* \"#utility.yul\":15962:15964   */\n      0x20\n        /* \"#utility.yul\":15951:15960   */\n      dup3\n        /* \"#utility.yul\":15947:15965   */\n      add\n        /* \"#utility.yul\":15939:15965   */\n      swap1\n      pop\n        /* \"#utility.yul\":16011:16020   */\n      dup2\n        /* \"#utility.yul\":16005:16009   */\n      dup2\n        /* \"#utility.yul\":16001:16021   */\n      sub\n        /* \"#utility.yul\":15997:15998   */\n      0x00\n        /* \"#utility.yul\":15986:15995   */\n      dup4\n        /* \"#utility.yul\":15982:15999   */\n      add\n        /* \"#utility.yul\":15975:16022   */\n      mstore\n        /* \"#utility.yul\":16039:16170   */\n      tag_541\n        /* \"#utility.yul\":16165:16169   */\n      dup2\n        /* \"#utility.yul\":16039:16170   */\n      tag_366\n      jump\t// in\n    tag_541:\n        /* \"#utility.yul\":16031:16170   */\n      swap1\n      pop\n        /* \"#utility.yul\":15758:16177   */\n      swap2\n      swap1\n      pop\n      jump\t// out\n        /* \"#utility.yul\":16183:16515   */\n    tag_195:\n        /* \"#utility.yul\":16304:16308   */\n      0x00\n        /* \"#utility.yul\":16342:16344   */\n      0x40\n        /* \"#utility.yul\":16331:16340   */\n      dup3\n        /* \"#utility.yul\":16327:16345   */\n      add\n        /* \"#utility.yul\":16319:16345   */\n      swap1\n      pop\n        /* \"#utility.yul\":16355:16426   */\n      tag_543\n        /* \"#utility.yul\":16423:16424   */\n      0x00\n        /* \"#utility.yul\":16412:16421   */\n      dup4\n        /* \"#utility.yul\":16408:16425   */\n      add\n        /* \"#utility.yul\":16399:16405   */\n      dup6\n        /* \"#utility.yul\":16355:16426   */\n      tag_328\n      jump\t// in\n    tag_543:\n        /* \"#utility.yul\":16436:16508   */\n      tag_544\n        /* \"#utility.yul\":16504:16506   */\n      0x20\n        /* \"#utility.yul\":16493:16502   */\n      dup4\n        /* \"#utility.yul\":16489:16507   */\n      add\n        /* \"#utility.yul\":16480:16486   */\n      dup5\n        /* \"#utility.yul\":16436:16508   */\n      tag_343\n      jump\t// in\n    tag_544:\n        /* \"#utility.yul\":16183:16515   */\n      swap4\n      swap3\n      pop\n      pop\n      pop\n      jump\t// out\n        /* \"#utility.yul\":16521:16963   */\n    tag_209:\n        /* \"#utility.yul\":16670:16674   */\n      0x00\n        /* \"#utility.yul\":16708:16710   */\n      0x60\n        /* \"#utility.yul\":16697:16706   */\n      dup3\n        /* \"#utility.yul\":16693:16711   */\n      add\n        /* \"#utility.yul\":16685:16711   */\n      swap1\n      pop\n        /* \"#utility.yul\":16721:16792   */\n      tag_546\n        /* \"#utility.yul\":16789:16790   */\n      0x00\n        /* \"#utility.yul\":16778:16787   */\n      dup4\n        /* \"#utility.yul\":16774:16791   */\n      add\n        /* \"#utility.yul\":16765:16771   */\n      dup7\n        /* \"#utility.yul\":16721:16792   */\n      tag_343\n      jump\t// in\n    tag_546:\n        /* \"#utility.yul\":16802:16874   */\n      tag_547\n        /* \"#utility.yul\":16870:16872   */\n      0x20\n        /* \"#utility.yul\":16859:16868   */\n      dup4\n        /* \"#utility.yul\":16855:16873   */\n      add\n        /* \"#utility.yul\":16846:16852   */\n      dup6\n        /* \"#utility.yul\":16802:16874   */\n      tag_343\n      jump\t// in\n    tag_547:\n        /* \"#utility.yul\":16884:16956   */\n      tag_548\n        /* \"#utility.yul\":16952:16954   */\n      0x40\n        /* \"#utility.yul\":16941:16950   */\n      dup4\n        /* \"#utility.yul\":16937:16955   */\n      add\n        /* \"#utility.yul\":16928:16934   */\n      dup5\n        /* \"#utility.yul\":16884:16956   */\n      tag_328\n      jump\t// in\n    tag_548:\n        /* \"#utility.yul\":16521:16963   */\n      swap5\n      swap4\n      pop\n      pop\n      pop\n      pop\n      jump\t// out\n        /* \"#utility.yul\":16969:17137   */\n    tag_367:\n        /* \"#utility.yul\":17109:17129   */\n      0x53746172742074696d6520696e20706173740000000000000000000000000000\n        /* \"#utility.yul\":17105:17106   */\n      0x00\n        /* \"#utility.yul\":17097:17103   */\n      dup3\n        /* \"#utility.yul\":17093:17107   */\n      add\n        /* \"#utility.yul\":17086:17130   */\n      mstore\n        /* \"#utility.yul\":16969:17137   */\n      pop\n      jump\t// out\n        /* \"#utility.yul\":17143:17509   */\n    tag_368:\n        /* \"#utility.yul\":17285:17288   */\n      0x00\n        /* \"#utility.yul\":17306:17373   */\n      tag_551\n        /* \"#utility.yul\":17370:17372   */\n      0x12\n        /* \"#utility.yul\":17365:17368   */\n      dup4\n        /* \"#utility.yul\":17306:17373   */\n      tag_354\n      jump\t// in\n    tag_551:\n        /* \"#utility.yul\":17299:17373   */\n      swap2\n      pop\n        /* \"#utility.yul\":17382:17475   */\n      tag_552\n        /* \"#utility.yul\":17471:17474   */\n      dup3\n        /* \"#utility.yul\":17382:17475   */\n      tag_367\n      jump\t// in\n    tag_552:\n        /* \"#utility.yul\":17500:17502   */\n      0x20\n        /* \"#utility.yul\":17495:17498   */\n      dup3\n        /* \"#utility.yul\":17491:17503   */\n      add\n        /* \"#utility.yul\":17484:17503   */\n      swap1\n      pop\n        /* \"#utility.yul\":17143:17509   */\n      swap2\n      swap1\n      pop\n      jump\t// out\n        /* \"#utility.yul\":17515:17934   */\n    tag_227:\n        /* \"#utility.yul\":17681:17685   */\n      0x00\n        /* \"#utility.yul\":17719:17721   */\n      0x20\n        /* \"#utility.yul\":17708:17717   */\n      dup3\n        /* \"#utility.yul\":17704:17722   */\n      add\n        /* \"#utility.yul\":17696:17722   */\n      swap1\n      pop\n        /* \"#utility.yul\":17768:17777   */\n      dup2\n        /* \"#utility.yul\":17762:17766   */\n      dup2\n        /* \"#utility.yul\":17758:17778   */\n      sub\n        /* \"#utility.yul\":17754:17755   */\n      0x00\n        /* \"#utility.yul\":17743:17752   */\n      dup4\n        /* \"#utility.yul\":17739:17756   */\n      add\n        /* \"#utility.yul\":17732:17779   */\n      mstore\n        /* \"#utility.yul\":17796:17927   */\n      tag_554\n        /* \"#utility.yul\":17922:17926   */\n      dup2\n        /* \"#utility.yul\":17796:17927   */\n      tag_368\n      jump\t// in\n    tag_554:\n        /* \"#utility.yul\":17788:17927   */\n      swap1\n      pop\n        /* \"#utility.yul\":17515:17934   */\n      swap2\n      swap1\n      pop\n      jump\t// out\n        /* \"#utility.yul\":17940:18106   */\n    tag_369:\n        /* \"#utility.yul\":18080:18098   */\n      0x496e76616c6964206475726174696f6e00000000000000000000000000000000\n        /* \"#utility.yul\":18076:18077   */\n      0x00\n        /* \"#utility.yul\":18068:18074   */\n      dup3\n        /* \"#utility.yul\":18064:18078   */\n      add\n        /* \"#utility.yul\":18057:18099   */\n      mstore\n        /* \"#utility.yul\":17940:18106   */\n      pop\n      jump\t// out\n        /* \"#utility.yul\":18112:18478   */\n    tag_370:\n        /* \"#utility.yul\":18254:18257   */\n      0x00\n        /* \"#utility.yul\":18275:18342   */\n      tag_557\n        /* \"#utility.yul\":18339:18341   */\n      0x10\n        /* \"#utility.yul\":18334:18337   */\n      dup4\n        /* \"#utility.yul\":18275:18342   */\n      tag_354\n      jump\t// in\n    tag_557:\n        /* \"#utility.yul\":18268:18342   */\n      swap2\n      pop\n        /* \"#utility.yul\":18351:18444   */\n      tag_558\n        /* \"#utility.yul\":18440:18443   */\n      dup3\n        /* \"#utility.yul\":18351:18444   */\n      tag_369\n      jump\t// in\n    tag_558:\n        /* \"#utility.yul\":18469:18471   */\n      0x20\n        /* \"#utility.yul\":18464:18467   */\n      dup3\n        /* \"#utility.yul\":18460:18472   */\n      add\n        /* \"#utility.yul\":18453:18472   */\n      swap1\n      pop\n        /* \"#utility.yul\":18112:18478   */\n      swap2\n      swap1\n      pop\n      jump\t// out\n        /* \"#utility.yul\":18484:18903   */\n    tag_230:\n        /* \"#utility.yul\":18650:18654   */\n      0x00\n        /* \"#utility.yul\":18688:18690   */\n      0x20\n        /* \"#utility.yul\":18677:18686   */\n      dup3\n        /* \"#utility.yul\":18673:18691   */\n      add\n        /* \"#utility.yul\":18665:18691   */\n      swap1\n      pop\n        /* \"#utility.yul\":18737:18746   */\n      dup2\n        /* \"#utility.yul\":18731:18735   */\n      dup2\n        /* \"#utility.yul\":18727:18747   */\n      sub\n        /* \"#utility.yul\":18723:18724   */\n      0x00\n        /* \"#utility.yul\":18712:18721   */\n      dup4\n        /* \"#utility.yul\":18708:18725   */\n      add\n        /* \"#utility.yul\":18701:18748   */\n      mstore\n        /* \"#utility.yul\":18765:18896   */\n      tag_560\n        /* \"#utility.yul\":18891:18895   */\n      dup2\n        /* \"#utility.yul\":18765:18896   */\n      tag_370\n      jump\t// in\n    tag_560:\n        /* \"#utility.yul\":18757:18896   */\n      swap1\n      pop\n        /* \"#utility.yul\":18484:18903   */\n      swap2\n      swap1\n      pop\n      jump\t// out\n        /* \"#utility.yul\":18909:19080   */\n    tag_371:\n        /* \"#utility.yul\":19049:19072   */\n      0x496e76616c69642072657761726420616d6f756e740000000000000000000000\n        /* \"#utility.yul\":19045:19046   */\n      0x00\n        /* \"#utility.yul\":19037:19043   */\n      dup3\n        /* \"#utility.yul\":19033:19047   */\n      add\n        /* \"#utility.yul\":19026:19073   */\n      mstore\n        /* \"#utility.yul\":18909:19080   */\n      pop\n      jump\t// out\n        /* \"#utility.yul\":19086:19452   */\n    tag_372:\n        /* \"#utility.yul\":19228:19231   */\n      0x00\n        /* \"#utility.yul\":19249:19316   */\n      tag_563\n        /* \"#utility.yul\":19313:19315   */\n      0x15\n        /* \"#utility.yul\":19308:19311   */\n      dup4\n        /* \"#utility.yul\":19249:19316   */\n      tag_354\n      jump\t// in\n    tag_563:\n        /* \"#utility.yul\":19242:19316   */\n      swap2\n      pop\n        /* \"#utility.yul\":19325:19418   */\n      tag_564\n        /* \"#utility.yul\":19414:19417   */\n      dup3\n        /* \"#utility.yul\":19325:19418   */\n      tag_371\n      jump\t// in\n    tag_564:\n        /* \"#utility.yul\":19443:19445   */\n      0x20\n        /* \"#utility.yul\":19438:19441   */\n      dup3\n        /* \"#utility.yul\":19434:19446   */\n      add\n        /* \"#utility.yul\":19427:19446   */\n      swap1\n      pop\n        /* \"#utility.yul\":19086:19452   */\n      swap2\n      swap1\n      pop\n      jump\t// out\n        /* \"#utility.yul\":19458:19877   */\n    tag_233:\n        /* \"#utility.yul\":19624:19628   */\n      0x00\n        /* \"#utility.yul\":19662:19664   */\n      0x20\n        /* \"#utility.yul\":19651:19660   */\n      dup3\n        /* \"#utility.yul\":19647:19665   */\n      add\n        /* \"#utility.yul\":19639:19665   */\n      swap1\n      pop\n        /* \"#utility.yul\":19711:19720   */\n      dup2\n        /* \"#utility.yul\":19705:19709   */\n      dup2\n        /* \"#utility.yul\":19701:19721   */\n      sub\n        /* \"#utility.yul\":19697:19698   */\n      0x00\n        /* \"#utility.yul\":19686:19695   */\n      dup4\n        /* \"#utility.yul\":19682:19699   */\n      add\n        /* \"#utility.yul\":19675:19722   */\n      mstore\n        /* \"#utility.yul\":19739:19870   */\n      tag_566\n        /* \"#utility.yul\":19865:19869   */\n      dup2\n        /* \"#utility.yul\":19739:19870   */\n      tag_372\n      jump\t// in\n    tag_566:\n        /* \"#utility.yul\":19731:19870   */\n      swap1\n      pop\n        /* \"#utility.yul\":19458:19877   */\n      swap2\n      swap1\n      pop\n      jump\t// out\n        /* \"#utility.yul\":19883:20105   */\n    tag_235:\n        /* \"#utility.yul\":19976:19980   */\n      0x00\n        /* \"#utility.yul\":20014:20016   */\n      0x20\n        /* \"#utility.yul\":20003:20012   */\n      dup3\n        /* \"#utility.yul\":19999:20017   */\n      add\n        /* \"#utility.yul\":19991:20017   */\n      swap1\n      pop\n        /* \"#utility.yul\":20027:20098   */\n      tag_568\n        /* \"#utility.yul\":20095:20096   */\n      0x00\n        /* \"#utility.yul\":20084:20093   */\n      dup4\n        /* \"#utility.yul\":20080:20097   */\n      add\n        /* \"#utility.yul\":20071:20077   */\n      dup5\n        /* \"#utility.yul\":20027:20098   */\n      tag_343\n      jump\t// in\n    tag_568:\n        /* \"#utility.yul\":19883:20105   */\n      swap3\n      swap2\n      pop\n      pop\n      jump\t// out\n        /* \"#utility.yul\":20111:20254   */\n    tag_373:\n        /* \"#utility.yul\":20168:20173   */\n      0x00\n        /* \"#utility.yul\":20199:20205   */\n      dup2\n        /* \"#utility.yul\":20193:20206   */\n      mload\n        /* \"#utility.yul\":20184:20206   */\n      swap1\n      pop\n        /* \"#utility.yul\":20215:20248   */\n      tag_570\n        /* \"#utility.yul\":20242:20247   */\n      dup2\n        /* \"#utility.yul\":20215:20248   */\n      tag_341\n      jump\t// in\n    tag_570:\n        /* \"#utility.yul\":20111:20254   */\n      swap3\n      swap2\n      pop\n      pop\n      jump\t// out\n        /* \"#utility.yul\":20260:20611   */\n    tag_239:\n        /* \"#utility.yul\":20330:20336   */\n      0x00\n        /* \"#utility.yul\":20379:20381   */\n      0x20\n        /* \"#utility.yul\":20367:20376   */\n      dup3\n        /* \"#utility.yul\":20358:20365   */\n      dup5\n        /* \"#utility.yul\":20354:20377   */\n      sub\n        /* \"#utility.yul\":20350:20382   */\n      slt\n        /* \"#utility.yul\":20347:20466   */\n      iszero\n      tag_572\n      jumpi\n        /* \"#utility.yul\":20385:20464   */\n      tag_573\n      tag_321\n      jump\t// in\n    tag_573:\n        /* \"#utility.yul\":20347:20466   */\n    tag_572:\n        /* \"#utility.yul\":20505:20506   */\n      0x00\n        /* \"#utility.yul\":20530:20594   */\n      tag_574\n        /* \"#utility.yul\":20586:20593   */\n      dup5\n        /* \"#utility.yul\":20577:20583   */\n      dup3\n        /* \"#utility.yul\":20566:20575   */\n      dup6\n        /* \"#utility.yul\":20562:20584   */\n      add\n        /* \"#utility.yul\":20530:20594   */\n      tag_373\n      jump\t// in\n    tag_574:\n        /* \"#utility.yul\":20520:20594   */\n      swap2\n      pop\n        /* \"#utility.yul\":20476:20604   */\n      pop\n        /* \"#utility.yul\":20260:20611   */\n      swap3\n      swap2\n      pop\n      pop\n      jump\t// out\n        /* \"#utility.yul\":20617:20793   */\n    tag_374:\n        /* \"#utility.yul\":20757:20785   */\n      0x496e73756666696369656e742072657761726420746f6b656e73000000000000\n        /* \"#utility.yul\":20753:20754   */\n      0x00\n        /* \"#utility.yul\":20745:20751   */\n      dup3\n        /* \"#utility.yul\":20741:20755   */\n      add\n        /* \"#utility.yul\":20734:20786   */\n      mstore\n        /* \"#utility.yul\":20617:20793   */\n      pop\n      jump\t// out\n        /* \"#utility.yul\":20799:21165   */\n    tag_375:\n        /* \"#utility.yul\":20941:20944   */\n      0x00\n        /* \"#utility.yul\":20962:21029   */\n      tag_577\n        /* \"#utility.yul\":21026:21028   */\n      0x1a\n        /* \"#utility.yul\":21021:21024   */\n      dup4\n        /* \"#utility.yul\":20962:21029   */\n      tag_354\n      jump\t// in\n    tag_577:\n        /* \"#utility.yul\":20955:21029   */\n      swap2\n      pop\n        /* \"#utility.yul\":21038:21131   */\n      tag_578\n        /* \"#utility.yul\":21127:21130   */\n      dup3\n        /* \"#utility.yul\":21038:21131   */\n      tag_374\n      jump\t// in\n    tag_578:\n        /* \"#utility.yul\":21156:21158   */\n      0x20\n        /* \"#utility.yul\":21151:21154   */\n      dup3\n        /* \"#utility.yul\":21147:21159   */\n      add\n        /* \"#utility.yul\":21140:21159   */\n      swap1\n      pop\n        /* \"#utility.yul\":20799:21165   */\n      swap2\n      swap1\n      pop\n      jump\t// out\n        /* \"#utility.yul\":21171:21590   */\n    tag_242:\n        /* \"#utility.yul\":21337:21341   */\n      0x00\n        /* \"#utility.yul\":21375:21377   */\n      0x20\n        /* \"#utility.yul\":21364:21373   */\n      dup3\n        /* \"#utility.yul\":21360:21378   */\n      add\n        /* \"#utility.yul\":21352:21378   */\n      swap1\n      pop\n        /* \"#utility.yul\":21424:21433   */\n      dup2\n        /* \"#utility.yul\":21418:21422   */\n      dup2\n        /* \"#utility.yul\":21414:21434   */\n      sub\n        /* \"#utility.yul\":21410:21411   */\n      0x00\n        /* \"#utility.yul\":21399:21408   */\n      dup4\n        /* \"#utility.yul\":21395:21412   */\n      add\n        /* \"#utility.yul\":21388:21435   */\n      mstore\n        /* \"#utility.yul\":21452:21583   */\n      tag_580\n        /* \"#utility.yul\":21578:21582   */\n      dup2\n        /* \"#utility.yul\":21452:21583   */\n      tag_375\n      jump\t// in\n    tag_580:\n        /* \"#utility.yul\":21444:21583   */\n      swap1\n      pop\n        /* \"#utility.yul\":21171:21590   */\n      swap2\n      swap1\n      pop\n      jump\t// out\n        /* \"#utility.yul\":21596:21787   */\n    tag_263:\n        /* \"#utility.yul\":21636:21639   */\n      0x00\n        /* \"#utility.yul\":21655:21675   */\n      tag_582\n        /* \"#utility.yul\":21673:21674   */\n      dup3\n        /* \"#utility.yul\":21655:21675   */\n      tag_327\n      jump\t// in\n    tag_582:\n        /* \"#utility.yul\":21650:21675   */\n      swap2\n      pop\n        /* \"#utility.yul\":21689:21709   */\n      tag_583\n        /* \"#utility.yul\":21707:21708   */\n      dup4\n        /* \"#utility.yul\":21689:21709   */\n      tag_327\n      jump\t// in\n    tag_583:\n        /* \"#utility.yul\":21684:21709   */\n      swap3\n      pop\n        /* \"#utility.yul\":21732:21733   */\n      dup3\n        /* \"#utility.yul\":21729:21730   */\n      dup3\n        /* \"#utility.yul\":21725:21734   */\n      add\n        /* \"#utility.yul\":21718:21734   */\n      swap1\n      pop\n        /* \"#utility.yul\":21753:21756   */\n      dup1\n        /* \"#utility.yul\":21750:21751   */\n      dup3\n        /* \"#utility.yul\":21747:21757   */\n      gt\n        /* \"#utility.yul\":21744:21780   */\n      iszero\n      tag_584\n      jumpi\n        /* \"#utility.yul\":21760:21778   */\n      tag_585\n      tag_353\n      jump\t// in\n    tag_585:\n        /* \"#utility.yul\":21744:21780   */\n    tag_584:\n        /* \"#utility.yul\":21596:21787   */\n      swap3\n      swap2\n      pop\n      pop\n      jump\t// out\n        /* \"#utility.yul\":21793:21974   */\n    tag_376:\n        /* \"#utility.yul\":21933:21966   */\n      0x5265656e7472616e637947756172643a207265656e7472616e742063616c6c00\n        /* \"#utility.yul\":21929:21930   */\n      0x00\n        /* \"#utility.yul\":21921:21927   */\n      dup3\n        /* \"#utility.yul\":21917:21931   */\n      add\n        /* \"#utility.yul\":21910:21967   */\n      mstore\n        /* \"#utility.yul\":21793:21974   */\n      pop\n      jump\t// out\n        /* \"#utility.yul\":21980:22346   */\n    tag_377:\n        /* \"#utility.yul\":22122:22125   */\n      0x00\n        /* \"#utility.yul\":22143:22210   */\n      tag_588\n        /* \"#utility.yul\":22207:22209   */\n      0x1f\n        /* \"#utility.yul\":22202:22205   */\n      dup4\n        /* \"#utility.yul\":22143:22210   */\n      tag_354\n      jump\t// in\n    tag_588:\n        /* \"#utility.yul\":22136:22210   */\n      swap2\n      pop\n        /* \"#utility.yul\":22219:22312   */\n      tag_589\n        /* \"#utility.yul\":22308:22311   */\n      dup3\n        /* \"#utility.yul\":22219:22312   */\n      tag_376\n      jump\t// in\n    tag_589:\n        /* \"#utility.yul\":22337:22339   */\n      0x20\n        /* \"#utility.yul\":22332:22335   */\n      dup3\n        /* \"#utility.yul\":22328:22340   */\n      add\n        /* \"#utility.yul\":22321:22340   */\n      swap1\n      pop\n        /* \"#utility.yul\":21980:22346   */\n      swap2\n      swap1\n      pop\n      jump\t// out\n        /* \"#utility.yul\":22352:22771   */\n    tag_268:\n        /* \"#utility.yul\":22518:22522   */\n      0x00\n        /* \"#utility.yul\":22556:22558   */\n      0x20\n        /* \"#utility.yul\":22545:22554   */\n      dup3\n        /* \"#utility.yul\":22541:22559   */\n      add\n        /* \"#utility.yul\":22533:22559   */\n      swap1\n      pop\n        /* \"#utility.yul\":22605:22614   */\n      dup2\n        /* \"#utility.yul\":22599:22603   */\n      dup2\n        /* \"#utility.yul\":22595:22615   */\n      sub\n        /* \"#utility.yul\":22591:22592   */\n      0x00\n        /* \"#utility.yul\":22580:22589   */\n      dup4\n        /* \"#utility.yul\":22576:22593   */\n      add\n        /* \"#utility.yul\":22569:22616   */\n      mstore\n        /* \"#utility.yul\":22633:22764   */\n      tag_591\n        /* \"#utility.yul\":22759:22763   */\n      dup2\n        /* \"#utility.yul\":22633:22764   */\n      tag_377\n      jump\t// in\n    tag_591:\n        /* \"#utility.yul\":22625:22764   */\n      swap1\n      pop\n        /* \"#utility.yul\":22352:22771   */\n      swap2\n      swap1\n      pop\n      jump\t// out\n        /* \"#utility.yul\":22777:22971   */\n    tag_278:\n        /* \"#utility.yul\":22817:22821   */\n      0x00\n        /* \"#utility.yul\":22837:22857   */\n      tag_593\n        /* \"#utility.yul\":22855:22856   */\n      dup3\n        /* \"#utility.yul\":22837:22857   */\n      tag_327\n      jump\t// in\n    tag_593:\n        /* \"#utility.yul\":22832:22857   */\n      swap2\n      pop\n        /* \"#utility.yul\":22871:22891   */\n      tag_594\n        /* \"#utility.yul\":22889:22890   */\n      dup4\n        /* \"#utility.yul\":22871:22891   */\n      tag_327\n      jump\t// in\n    tag_594:\n        /* \"#utility.yul\":22866:22891   */\n      swap3\n      pop\n        /* \"#utility.yul\":22915:22916   */\n      dup3\n        /* \"#utility.yul\":22912:22913   */\n      dup3\n        /* \"#utility.yul\":22908:22917   */\n      sub\n        /* \"#utility.yul\":22900:22917   */\n      swap1\n      pop\n        /* \"#utility.yul\":22939:22940   */\n      dup2\n        /* \"#utility.yul\":22933:22937   */\n      dup2\n        /* \"#utility.yul\":22930:22941   */\n      gt\n        /* \"#utility.yul\":22927:22964   */\n      iszero\n      tag_595\n      jumpi\n        /* \"#utility.yul\":22944:22962   */\n      tag_596\n      tag_353\n      jump\t// in\n    tag_596:\n        /* \"#utility.yul\":22927:22964   */\n    tag_595:\n        /* \"#utility.yul\":22777:22971   */\n      swap3\n      swap2\n      pop\n      pop\n      jump\t// out\n        /* \"#utility.yul\":22977:23154   */\n    tag_378:\n        /* \"#utility.yul\":23117:23146   */\n      0x496e73756666696369656e74207265776172642062616c616e63650000000000\n        /* \"#utility.yul\":23113:23114   */\n      0x00\n        /* \"#utility.yul\":23105:23111   */\n      dup3\n        /* \"#utility.yul\":23101:23115   */\n      add\n        /* \"#utility.yul\":23094:23147   */\n      mstore\n        /* \"#utility.yul\":22977:23154   */\n      pop\n      jump\t// out\n        /* \"#utility.yul\":23160:23526   */\n    tag_379:\n        /* \"#utility.yul\":23302:23305   */\n      0x00\n        /* \"#utility.yul\":23323:23390   */\n      tag_599\n        /* \"#utility.yul\":23387:23389   */\n      0x1b\n        /* \"#utility.yul\":23382:23385   */\n      dup4\n        /* \"#utility.yul\":23323:23390   */\n      tag_354\n      jump\t// in\n    tag_599:\n        /* \"#utility.yul\":23316:23390   */\n      swap2\n      pop\n        /* \"#utility.yul\":23399:23492   */\n      tag_600\n        /* \"#utility.yul\":23488:23491   */\n      dup3\n        /* \"#utility.yul\":23399:23492   */\n      tag_378\n      jump\t// in\n    tag_600:\n        /* \"#utility.yul\":23517:23519   */\n      0x20\n        /* \"#utility.yul\":23512:23515   */\n      dup3\n        /* \"#utility.yul\":23508:23520   */\n      add\n        /* \"#utility.yul\":23501:23520   */\n      swap1\n      pop\n        /* \"#utility.yul\":23160:23526   */\n      swap2\n      swap1\n      pop\n      jump\t// out\n        /* \"#utility.yul\":23532:23951   */\n    tag_302:\n        /* \"#utility.yul\":23698:23702   */\n      0x00\n        /* \"#utility.yul\":23736:23738   */\n      0x20\n        /* \"#utility.yul\":23725:23734   */\n      dup3\n        /* \"#utility.yul\":23721:23739   */\n      add\n        /* \"#utility.yul\":23713:23739   */\n      swap1\n      pop\n        /* \"#utility.yul\":23785:23794   */\n      dup2\n        /* \"#utility.yul\":23779:23783   */\n      dup2\n        /* \"#utility.yul\":23775:23795   */\n      sub\n        /* \"#utility.yul\":23771:23772   */\n      0x00\n        /* \"#utility.yul\":23760:23769   */\n      dup4\n        /* \"#utility.yul\":23756:23773   */\n      add\n        /* \"#utility.yul\":23749:23796   */\n      mstore\n        /* \"#utility.yul\":23813:23944   */\n      tag_602\n        /* \"#utility.yul\":23939:23943   */\n      dup2\n        /* \"#utility.yul\":23813:23944   */\n      tag_379\n      jump\t// in\n    tag_602:\n        /* \"#utility.yul\":23805:23944   */\n      swap1\n      pop\n        /* \"#utility.yul\":23532:23951   */\n      swap2\n      swap1\n      pop\n      jump\t// out\n        /* \"#utility.yul\":23957:24367   */\n    tag_311:\n        /* \"#utility.yul\":23997:24004   */\n      0x00\n        /* \"#utility.yul\":24020:24040   */\n      tag_604\n        /* \"#utility.yul\":24038:24039   */\n      dup3\n        /* \"#utility.yul\":24020:24040   */\n      tag_327\n      jump\t// in\n    tag_604:\n        /* \"#utility.yul\":24015:24040   */\n      swap2\n      pop\n        /* \"#utility.yul\":24054:24074   */\n      tag_605\n        /* \"#utility.yul\":24072:24073   */\n      dup4\n        /* \"#utility.yul\":24054:24074   */\n      tag_327\n      jump\t// in\n    tag_605:\n        /* \"#utility.yul\":24049:24074   */\n      swap3\n      pop\n        /* \"#utility.yul\":24109:24110   */\n      dup3\n        /* \"#utility.yul\":24106:24107   */\n      dup3\n        /* \"#utility.yul\":24102:24111   */\n      mul\n        /* \"#utility.yul\":24131:24161   */\n      tag_606\n        /* \"#utility.yul\":24149:24160   */\n      dup2\n        /* \"#utility.yul\":24131:24161   */\n      tag_327\n      jump\t// in\n    tag_606:\n        /* \"#utility.yul\":24120:24161   */\n      swap2\n      pop\n        /* \"#utility.yul\":24310:24311   */\n      dup3\n        /* \"#utility.yul\":24301:24308   */\n      dup3\n        /* \"#utility.yul\":24297:24312   */\n      div\n        /* \"#utility.yul\":24294:24295   */\n      dup5\n        /* \"#utility.yul\":24291:24313   */\n      eq\n        /* \"#utility.yul\":24271:24272   */\n      dup4\n        /* \"#utility.yul\":24264:24273   */\n      iszero\n        /* \"#utility.yul\":24244:24327   */\n      or\n        /* \"#utility.yul\":24221:24360   */\n      tag_607\n      jumpi\n        /* \"#utility.yul\":24340:24358   */\n      tag_608\n      tag_353\n      jump\t// in\n    tag_608:\n        /* \"#utility.yul\":24221:24360   */\n    tag_607:\n        /* \"#utility.yul\":24005:24367   */\n      pop\n        /* \"#utility.yul\":23957:24367   */\n      swap3\n      swap2\n      pop\n      pop\n      jump\t// out\n        /* \"#utility.yul\":24373:24553   */\n    tag_380:\n        /* \"#utility.yul\":24421:24498   */\n      0x4e487b7100000000000000000000000000000000000000000000000000000000\n        /* \"#utility.yul\":24418:24419   */\n      0x00\n        /* \"#utility.yul\":24411:24499   */\n      mstore\n        /* \"#utility.yul\":24518:24522   */\n      0x12\n        /* \"#utility.yul\":24515:24516   */\n      0x04\n        /* \"#utility.yul\":24508:24523   */\n      mstore\n        /* \"#utility.yul\":24542:24546   */\n      0x24\n        /* \"#utility.yul\":24539:24540   */\n      0x00\n        /* \"#utility.yul\":24532:24547   */\n      revert\n        /* \"#utility.yul\":24559:24744   */\n    tag_314:\n        /* \"#utility.yul\":24599:24600   */\n      0x00\n        /* \"#utility.yul\":24616:24636   */\n      tag_611\n        /* \"#utility.yul\":24634:24635   */\n      dup3\n        /* \"#utility.yul\":24616:24636   */\n      tag_327\n      jump\t// in\n    tag_611:\n        /* \"#utility.yul\":24611:24636   */\n      swap2\n      pop\n        /* \"#utility.yul\":24650:24670   */\n      tag_612\n        /* \"#utility.yul\":24668:24669   */\n      dup4\n        /* \"#utility.yul\":24650:24670   */\n      tag_327\n      jump\t// in\n    tag_612:\n        /* \"#utility.yul\":24645:24670   */\n      swap3\n      pop\n        /* \"#utility.yul\":24689:24690   */\n      dup3\n        /* \"#utility.yul\":24679:24714   */\n      tag_613\n      jumpi\n        /* \"#utility.yul\":24694:24712   */\n      tag_614\n      tag_380\n      jump\t// in\n    tag_614:\n        /* \"#utility.yul\":24679:24714   */\n    tag_613:\n        /* \"#utility.yul\":24736:24737   */\n      dup3\n        /* \"#utility.yul\":24733:24734   */\n      dup3\n        /* \"#utility.yul\":24729:24738   */\n      div\n        /* \"#utility.yul\":24724:24738   */\n      swap1\n      pop\n        /* \"#utility.yul\":24559:24744   */\n      swap3\n      swap2\n      pop\n      pop\n      jump\t// out\n        /* \"#utility.yul\":24750:25082   */\n    tag_319:\n        /* \"#utility.yul\":24871:24875   */\n      0x00\n        /* \"#utility.yul\":24909:24911   */\n      0x40\n        /* \"#utility.yul\":24898:24907   */\n      dup3\n        /* \"#utility.yul\":24894:24912   */\n      add\n        /* \"#utility.yul\":24886:24912   */\n      swap1\n      pop\n        /* \"#utility.yul\":24922:24993   */\n      tag_616\n        /* \"#utility.yul\":24990:24991   */\n      0x00\n        /* \"#utility.yul\":24979:24988   */\n      dup4\n        /* \"#utility.yul\":24975:24992   */\n      add\n        /* \"#utility.yul\":24966:24972   */\n      dup6\n        /* \"#utility.yul\":24922:24993   */\n      tag_343\n      jump\t// in\n    tag_616:\n        /* \"#utility.yul\":25003:25075   */\n      tag_617\n        /* \"#utility.yul\":25071:25073   */\n      0x20\n        /* \"#utility.yul\":25060:25069   */\n      dup4\n        /* \"#utility.yul\":25056:25074   */\n      add\n        /* \"#utility.yul\":25047:25053   */\n      dup5\n        /* \"#utility.yul\":25003:25075   */\n      tag_347\n      jump\t// in\n    tag_617:\n        /* \"#utility.yul\":24750:25082   */\n      swap4\n      swap3\n      pop\n      pop\n      pop\n      jump\t// out\n\n    auxdata: 0xa264697066735822122004a0b4bd7a4c667a33618748745d0ef84ee37ebf247e825679e1e4c97118385064736f6c63430008180033\n}\n",
				"bytecode": {
					"linkReferences": {},
					"object": "60a060405234801562000010575f80fd5b50604051620029fa380380620029fa8339818101604052810190620000369190620002fc565b600180819055505f73ffffffffffffffffffffffffffffffffffffffff168273ffffffffffffffffffffffffffffffffffffffff1603620000ae576040517f08c379a0000000000000000000000000000000000000000000000000000000008152600401620000a5906200039f565b60405180910390fd5b8173ffffffffffffffffffffffffffffffffffffffff1660808173ffffffffffffffffffffffffffffffffffffffff1681525050620000f65f801b826200013260201b60201c565b50620001297f6393fa734211156fcc8c7dda6b0650f5c731d4c838c1db43445a149aa2f5b6fe826200013260201b60201c565b505050620003bf565b5f6200014583836200022d60201b60201c565b620002235760015f808581526020019081526020015f205f015f8473ffffffffffffffffffffffffffffffffffffffff1673ffffffffffffffffffffffffffffffffffffffff1681526020019081526020015f205f6101000a81548160ff021916908315150217905550620001bf6200029060201b60201c565b73ffffffffffffffffffffffffffffffffffffffff168273ffffffffffffffffffffffffffffffffffffffff16847f2f8788117e7eff1d82e926ec794901d17c78024a50270940304540a733656f0d60405160405180910390a46001905062000227565b5f90505b92915050565b5f805f8481526020019081526020015f205f015f8373ffffffffffffffffffffffffffffffffffffffff1673ffffffffffffffffffffffffffffffffffffffff1681526020019081526020015f205f9054906101000a900460ff16905092915050565b5f33905090565b5f80fd5b5f73ffffffffffffffffffffffffffffffffffffffff82169050919050565b5f620002c6826200029b565b9050919050565b620002d881620002ba565b8114620002e3575f80fd5b50565b5f81519050620002f681620002cd565b92915050565b5f806040838503121562000315576200031462000297565b5b5f6200032485828601620002e6565b92505060206200033785828601620002e6565b9150509250929050565b5f82825260208201905092915050565b7f496e76616c6964207374616b696e6720746f6b656e00000000000000000000005f82015250565b5f6200038760158362000341565b9150620003948262000351565b602082019050919050565b5f6020820190508181035f830152620003b88162000379565b9050919050565b60805161260d620003ed5f395f818161076e01528181610b7701528181610c230152610dbf015261260d5ff3fe608060405234801561000f575f80fd5b506004361061011e575f3560e01c80635932fdba116100ab57806391d148541161006f57806391d148541461030a578063a217fddf1461033a578063a694fc3a14610358578063d547741f14610374578063e075d82c146103905761011e565b80635932fdba1461026257806370a082311461028057806372f702f3146102b0578063817b1cd2146102ce57806385ecdd93146102ec5761011e565b8063248a9ca3116100f2578063248a9ca3146101d45780632e1a7d4d146102045780632f2ff15d1461022057806336568abe1461023c578063372500ab146102585761011e565b80628cc2621461012257806301ffc9a7146101525780630b35a4b0146101825780631c1121c5146101a0575b5f80fd5b61013c600480360381019061013791906119ef565b6103ac565b6040516101499190611a32565b60405180910390f35b61016c60048036038101906101679190611aa0565b6103f3565b6040516101799190611ae5565b60405180910390f35b61018a61046c565b6040516101979190611bb5565b60405180910390f35b6101ba60048036038101906101b59190611bff565b61057f565b6040516101cb959493929190611c39565b60405180910390f35b6101ee60048036038101906101e99190611cbd565b6105d0565b6040516101fb9190611cf7565b60405180910390f35b61021e60048036038101906102199190611bff565b6105ec565b005b61023a60048036038101906102359190611d10565b6108a3565b005b61025660048036038101906102519190611d10565b6108c5565b005b610260610940565b005b61026a610bb7565b6040516102779190611cf7565b60405180910390f35b61029a600480360381019061029591906119ef565b610bdb565b6040516102a79190611a32565b60405180910390f35b6102b8610c21565b6040516102c59190611da9565b60405180910390f35b6102d6610c45565b6040516102e39190611a32565b60405180910390f35b6102f4610c4e565b6040516103019190611a32565b60405180910390f35b610324600480360381019061031f9190611d10565b610c54565b6040516103319190611ae5565b60405180910390f35b610342610cb7565b60405161034f9190611cf7565b60405180910390f35b610372600480360381019061036d9190611bff565b610cbd565b005b61038e60048036038101906103899190611d10565b610ef6565b005b6103aa60048036038101906103a59190611dc2565b610f18565b005b5f80600190505b60055481116103ed576103d86103c984836111ed565b836113e290919063ffffffff16565b915080806103e590611e53565b9150506103b3565b50919050565b5f7f7965db0b000000000000000000000000000000000000000000000000000000007bffffffffffffffffffffffffffffffffffffffffffffffffffffffff1916827bffffffffffffffffffffffffffffffffffffffffffffffffffffffff191614806104655750610464826113f7565b5b9050919050565b60605f80600190505b60055481116104bc5760045f8281526020019081526020015f20600101544210156104a95781806104a590611e53565b9250505b80806104b490611e53565b915050610475565b505f8167ffffffffffffffff8111156104d8576104d7611e9a565b5b6040519080825280602002602001820160405280156105065781602001602082028036833780820191505090505b5090505f80600190505b60055481116105755760045f8281526020019081526020015f2060010154421015610562578083838061054290611e53565b94508151811061055557610554611ec7565b5b6020026020010181815250505b808061056d90611e53565b915050610510565b5081935050505090565b6004602052805f5260405f205f91509050805f015490806001015490806002015490806003015490806004015f9054906101000a900473ffffffffffffffffffffffffffffffffffffffff16905085565b5f805f8381526020019081526020015f20600101549050919050565b6105f4611460565b5f8111610636576040517f08c379a000000000000000000000000000000000000000000000000000000000815260040161062d90611f4e565b60405180910390fd5b8060035f3373ffffffffffffffffffffffffffffffffffffffff1673ffffffffffffffffffffffffffffffffffffffff1681526020019081526020015f205410156106b6576040517f08c379a00000000000000000000000000000000000000000000000000000000081526004016106ad90611fb6565b60405180910390fd5b6106bf336114af565b6106d48160025461158d90919063ffffffff16565b60028190555061072a8160035f3373ffffffffffffffffffffffffffffffffffffffff1673ffffffffffffffffffffffffffffffffffffffff1681526020019081526020015f205461158d90919063ffffffff16565b60035f3373ffffffffffffffffffffffffffffffffffffffff1673ffffffffffffffffffffffffffffffffffffffff1681526020019081526020015f20819055505f7f000000000000000000000000000000000000000000000000000000000000000073ffffffffffffffffffffffffffffffffffffffff1663a9059cbb33846040518363ffffffff1660e01b81526004016107c7929190611fd4565b6020604051808303815f875af11580156107e3573d5f803e3d5ffd5b505050506040513d601f19601f820116820180604052508101906108079190612025565b905080610849576040517f08c379a00000000000000000000000000000000000000000000000000000000081526004016108409061209a565b60405180910390fd5b3373ffffffffffffffffffffffffffffffffffffffff167f7084f5476618d8e60b11ef0d7d3f06914655adb8793e28ff7f018d4c76d505d58360405161088f9190611a32565b60405180910390a2506108a06115a2565b50565b6108ac826105d0565b6108b5816115ab565b6108bf83836115bf565b50505050565b6108cd6116a8565b73ffffffffffffffffffffffffffffffffffffffff168173ffffffffffffffffffffffffffffffffffffffff1614610931576040517f6697b23200000000000000000000000000000000000000000000000000000000815260040160405180910390fd5b61093b82826116af565b505050565b610948611460565b610951336114af565b5f80600190505b6005548111610af9575f60045f8381526020019081526020015f2090505f60065f3373ffffffffffffffffffffffffffffffffffffffff1673ffffffffffffffffffffffffffffffffffffffff1681526020019081526020015f205f8481526020019081526020015f205490505f81036109d3575050610ae6565b81600201546109ef8284600301546113e290919063ffffffff16565b1115610a30576040517f08c379a0000000000000000000000000000000000000000000000000000000008152600401610a2790612102565b60405180910390fd5b5f60065f3373ffffffffffffffffffffffffffffffffffffffff1673ffffffffffffffffffffffffffffffffffffffff1681526020019081526020015f205f8581526020019081526020015f2081905550610a988183600301546113e290919063ffffffff16565b8260030181905550610ace826004015f9054906101000a900473ffffffffffffffffffffffffffffffffffffffff163383611798565b610ae181856113e290919063ffffffff16565b935050505b8080610af190611e53565b915050610958565b505f8111610b3c576040517f08c379a0000000000000000000000000000000000000000000000000000000008152600401610b339061216a565b60405180910390fd5b3373ffffffffffffffffffffffffffffffffffffffff167ff80b6d248ca65e589d3f24c7ce36e2df22ba16ba4e7656aad67e114abbe971d2827f0000000000000000000000000000000000000000000000000000000000000000604051610ba4929190612188565b60405180910390a250610bb56115a2565b565b7f6393fa734211156fcc8c7dda6b0650f5c731d4c838c1db43445a149aa2f5b6fe81565b5f60035f8373ffffffffffffffffffffffffffffffffffffffff1673ffffffffffffffffffffffffffffffffffffffff1681526020019081526020015f20549050919050565b7f000000000000000000000000000000000000000000000000000000000000000081565b5f600254905090565b60055481565b5f805f8481526020019081526020015f205f015f8373ffffffffffffffffffffffffffffffffffffffff1673ffffffffffffffffffffffffffffffffffffffff1681526020019081526020015f205f9054906101000a900460ff16905092915050565b5f801b81565b610cc5611460565b5f8111610d07576040517f08c379a0000000000000000000000000000000000000000000000000000000008152600401610cfe90611f4e565b60405180910390fd5b610d10336114af565b610d25816002546113e290919063ffffffff16565b600281905550610d7b8160035f3373ffffffffffffffffffffffffffffffffffffffff1673ffffffffffffffffffffffffffffffffffffffff1681526020019081526020015f20546113e290919063ffffffff16565b60035f3373ffffffffffffffffffffffffffffffffffffffff1673ffffffffffffffffffffffffffffffffffffffff1681526020019081526020015f20819055505f7f000000000000000000000000000000000000000000000000000000000000000073ffffffffffffffffffffffffffffffffffffffff166323b872dd3330856040518463ffffffff1660e01b8152600401610e1a939291906121af565b6020604051808303815f875af1158015610e36573d5f803e3d5ffd5b505050506040513d601f19601f82011682018060405250810190610e5a9190612025565b905080610e9c576040517f08c379a0000000000000000000000000000000000000000000000000000000008152600401610e939061209a565b60405180910390fd5b3373ffffffffffffffffffffffffffffffffffffffff167f9e71bc8eea02a63969f509818f2dafb9254532904319f9dbda79b67bd34a5f3d83604051610ee29190611a32565b60405180910390a250610ef36115a2565b50565b610eff826105d0565b610f08816115ab565b610f1283836116af565b50505050565b7f6393fa734211156fcc8c7dda6b0650f5c731d4c838c1db43445a149aa2f5b6fe610f42816115ab565b42851015610f85576040517f08c379a0000000000000000000000000000000000000000000000000000000008152600401610f7c9061222e565b60405180910390fd5b5f8411610fc7576040517f08c379a0000000000000000000000000000000000000000000000000000000008152600401610fbe90612296565b60405180910390fd5b5f8311611009576040517f08c379a0000000000000000000000000000000000000000000000000000000008152600401611000906122fe565b60405180910390fd5b5f8273ffffffffffffffffffffffffffffffffffffffff166370a08231306040518263ffffffff1660e01b8152600401611043919061231c565b602060405180830381865afa15801561105e573d5f803e3d5ffd5b505050506040513d601f19601f820116820180604052508101906110829190612349565b9050838110156110c7576040517f08c379a00000000000000000000000000000000000000000000000000000000081526004016110be906123be565b60405180910390fd5b5f60055f81546110d690611e53565b91905081905590506040518060a00160405280888152602001611102888a6113e290919063ffffffff16565b81526020018681526020015f81526020018573ffffffffffffffffffffffffffffffffffffffff1681525060045f8381526020019081526020015f205f820151815f01556020820151816001015560408201518160020155606082015181600301556080820151816004015f6101000a81548173ffffffffffffffffffffffffffffffffffffffff021916908373ffffffffffffffffffffffffffffffffffffffff1602179055509050507f85396969f10b93e89b84ce058bbce90a809c86067bb94a5f0243dfe9f9868943816040516111dc9190611a32565b60405180910390a150505050505050565b5f8060045f8481526020019081526020015f2090505f60035f8673ffffffffffffffffffffffffffffffffffffffff1673ffffffffffffffffffffffffffffffffffffffff1681526020019081526020015f2054148061124f5750805f015442105b1561125d575f9150506113dc565b5f611274825f01544261158d90919063ffffffff16565b90505f611291835f0154846001015461158d90919063ffffffff16565b90505f6112c1826112b3670de0b6b3a76400008661191690919063ffffffff16565b61192b90919063ffffffff16565b90505f6112df8560030154866002015461158d90919063ffffffff16565b90505f6113466002546113388560035f8e73ffffffffffffffffffffffffffffffffffffffff1673ffffffffffffffffffffffffffffffffffffffff1681526020019081526020015f205461191690919063ffffffff16565b61192b90919063ffffffff16565b90506113d360065f8b73ffffffffffffffffffffffffffffffffffffffff1673ffffffffffffffffffffffffffffffffffffffff1681526020019081526020015f205f8a81526020019081526020015f20546113c5670de0b6b3a76400006113b7858761191690919063ffffffff16565b61192b90919063ffffffff16565b61158d90919063ffffffff16565b96505050505050505b92915050565b5f81836113ef91906123dc565b905092915050565b5f7f01ffc9a7000000000000000000000000000000000000000000000000000000007bffffffffffffffffffffffffffffffffffffffffffffffffffffffff1916827bffffffffffffffffffffffffffffffffffffffffffffffffffffffff1916149050919050565b6002600154036114a5576040517f08c379a000000000000000000000000000000000000000000000000000000000815260040161149c90612459565b60405180910390fd5b6002600181905550565b5f600190505b6005548111611589576115266114cb83836111ed565b60065f8573ffffffffffffffffffffffffffffffffffffffff1673ffffffffffffffffffffffffffffffffffffffff1681526020019081526020015f205f8481526020019081526020015f20546113e290919063ffffffff16565b60065f8473ffffffffffffffffffffffffffffffffffffffff1673ffffffffffffffffffffffffffffffffffffffff1681526020019081526020015f205f8381526020019081526020015f2081905550808061158190611e53565b9150506114b5565b5050565b5f818361159a9190612477565b905092915050565b60018081905550565b6115bc816115b76116a8565b611940565b50565b5f6115ca8383610c54565b61169e5760015f808581526020019081526020015f205f015f8473ffffffffffffffffffffffffffffffffffffffff1673ffffffffffffffffffffffffffffffffffffffff1681526020019081526020015f205f6101000a81548160ff02191690831515021790555061163b6116a8565b73ffffffffffffffffffffffffffffffffffffffff168273ffffffffffffffffffffffffffffffffffffffff16847f2f8788117e7eff1d82e926ec794901d17c78024a50270940304540a733656f0d60405160405180910390a4600190506116a2565b5f90505b92915050565b5f33905090565b5f6116ba8383610c54565b1561178e575f805f8581526020019081526020015f205f015f8473ffffffffffffffffffffffffffffffffffffffff1673ffffffffffffffffffffffffffffffffffffffff1681526020019081526020015f205f6101000a81548160ff02191690831515021790555061172b6116a8565b73ffffffffffffffffffffffffffffffffffffffff168273ffffffffffffffffffffffffffffffffffffffff16847ff6391f5c32d9c69d2a47ea670b442974b53935d1edc7fd64eb21e047a839171b60405160405180910390a460019050611792565b5f90505b92915050565b808373ffffffffffffffffffffffffffffffffffffffff166370a08231306040518263ffffffff1660e01b81526004016117d2919061231c565b602060405180830381865afa1580156117ed573d5f803e3d5ffd5b505050506040513d601f19601f820116820180604052508101906118119190612349565b1015611852576040517f08c379a0000000000000000000000000000000000000000000000000000000008152600401611849906124f4565b60405180910390fd5b5f8373ffffffffffffffffffffffffffffffffffffffff1663a9059cbb84846040518363ffffffff1660e01b815260040161188e929190611fd4565b6020604051808303815f875af11580156118aa573d5f803e3d5ffd5b505050506040513d601f19601f820116820180604052508101906118ce9190612025565b905080611910576040517f08c379a00000000000000000000000000000000000000000000000000000000081526004016119079061209a565b60405180910390fd5b50505050565b5f81836119239190612512565b905092915050565b5f81836119389190612580565b905092915050565b61194a8282610c54565b61198d5780826040517fe2517d3f0000000000000000000000000000000000000000000000000000000081526004016119849291906125b0565b60405180910390fd5b5050565b5f80fd5b5f73ffffffffffffffffffffffffffffffffffffffff82169050919050565b5f6119be82611995565b9050919050565b6119ce816119b4565b81146119d8575f80fd5b50565b5f813590506119e9816119c5565b92915050565b5f60208284031215611a0457611a03611991565b5b5f611a11848285016119db565b91505092915050565b5f819050919050565b611a2c81611a1a565b82525050565b5f602082019050611a455f830184611a23565b92915050565b5f7fffffffff0000000000000000000000000000000000000000000000000000000082169050919050565b611a7f81611a4b565b8114611a89575f80fd5b50565b5f81359050611a9a81611a76565b92915050565b5f60208284031215611ab557611ab4611991565b5b5f611ac284828501611a8c565b91505092915050565b5f8115159050919050565b611adf81611acb565b82525050565b5f602082019050611af85f830184611ad6565b92915050565b5f81519050919050565b5f82825260208201905092915050565b5f819050602082019050919050565b611b3081611a1a565b82525050565b5f611b418383611b27565b60208301905092915050565b5f602082019050919050565b5f611b6382611afe565b611b6d8185611b08565b9350611b7883611b18565b805f5b83811015611ba8578151611b8f8882611b36565b9750611b9a83611b4d565b925050600181019050611b7b565b5085935050505092915050565b5f6020820190508181035f830152611bcd8184611b59565b905092915050565b611bde81611a1a565b8114611be8575f80fd5b50565b5f81359050611bf981611bd5565b92915050565b5f60208284031215611c1457611c13611991565b5b5f611c2184828501611beb565b91505092915050565b611c33816119b4565b82525050565b5f60a082019050611c4c5f830188611a23565b611c596020830187611a23565b611c666040830186611a23565b611c736060830185611a23565b611c806080830184611c2a565b9695505050505050565b5f819050919050565b611c9c81611c8a565b8114611ca6575f80fd5b50565b5f81359050611cb781611c93565b92915050565b5f60208284031215611cd257611cd1611991565b5b5f611cdf84828501611ca9565b91505092915050565b611cf181611c8a565b82525050565b5f602082019050611d0a5f830184611ce8565b92915050565b5f8060408385031215611d2657611d25611991565b5b5f611d3385828601611ca9565b9250506020611d44858286016119db565b9150509250929050565b5f819050919050565b5f611d71611d6c611d6784611995565b611d4e565b611995565b9050919050565b5f611d8282611d57565b9050919050565b5f611d9382611d78565b9050919050565b611da381611d89565b82525050565b5f602082019050611dbc5f830184611d9a565b92915050565b5f805f8060808587031215611dda57611dd9611991565b5b5f611de787828801611beb565b9450506020611df887828801611beb565b9350506040611e0987828801611beb565b9250506060611e1a878288016119db565b91505092959194509250565b7f4e487b71000000000000000000000000000000000000000000000000000000005f52601160045260245ffd5b5f611e5d82611a1a565b91507fffffffffffffffffffffffffffffffffffffffffffffffffffffffffffffffff8203611e8f57611e8e611e26565b5b600182019050919050565b7f4e487b71000000000000000000000000000000000000000000000000000000005f52604160045260245ffd5b7f4e487b71000000000000000000000000000000000000000000000000000000005f52603260045260245ffd5b5f82825260208201905092915050565b7f416d6f756e74206d757374206265203e203000000000000000000000000000005f82015250565b5f611f38601283611ef4565b9150611f4382611f04565b602082019050919050565b5f6020820190508181035f830152611f6581611f2c565b9050919050565b7f496e73756666696369656e742062616c616e63650000000000000000000000005f82015250565b5f611fa0601483611ef4565b9150611fab82611f6c565b602082019050919050565b5f6020820190508181035f830152611fcd81611f94565b9050919050565b5f604082019050611fe75f830185611c2a565b611ff46020830184611a23565b9392505050565b61200481611acb565b811461200e575f80fd5b50565b5f8151905061201f81611ffb565b92915050565b5f6020828403121561203a57612039611991565b5b5f61204784828501612011565b91505092915050565b7f5472616e73666572206661696c656400000000000000000000000000000000005f82015250565b5f612084600f83611ef4565b915061208f82612050565b602082019050919050565b5f6020820190508181035f8301526120b181612078565b9050919050565b7f4f76657220636c61696d656400000000000000000000000000000000000000005f82015250565b5f6120ec600c83611ef4565b91506120f7826120b8565b602082019050919050565b5f6020820190508181035f830152612119816120e0565b9050919050565b7f4e6f2072657761726473000000000000000000000000000000000000000000005f82015250565b5f612154600a83611ef4565b915061215f82612120565b602082019050919050565b5f6020820190508181035f83015261218181612148565b9050919050565b5f60408201905061219b5f830185611a23565b6121a86020830184611c2a565b9392505050565b5f6060820190506121c25f830186611c2a565b6121cf6020830185611c2a565b6121dc6040830184611a23565b949350505050565b7f53746172742074696d6520696e207061737400000000000000000000000000005f82015250565b5f612218601283611ef4565b9150612223826121e4565b602082019050919050565b5f6020820190508181035f8301526122458161220c565b9050919050565b7f496e76616c6964206475726174696f6e000000000000000000000000000000005f82015250565b5f612280601083611ef4565b915061228b8261224c565b602082019050919050565b5f6020820190508181035f8301526122ad81612274565b9050919050565b7f496e76616c69642072657761726420616d6f756e7400000000000000000000005f82015250565b5f6122e8601583611ef4565b91506122f3826122b4565b602082019050919050565b5f6020820190508181035f830152612315816122dc565b9050919050565b5f60208201905061232f5f830184611c2a565b92915050565b5f8151905061234381611bd5565b92915050565b5f6020828403121561235e5761235d611991565b5b5f61236b84828501612335565b91505092915050565b7f496e73756666696369656e742072657761726420746f6b656e730000000000005f82015250565b5f6123a8601a83611ef4565b91506123b382612374565b602082019050919050565b5f6020820190508181035f8301526123d58161239c565b9050919050565b5f6123e682611a1a565b91506123f183611a1a565b925082820190508082111561240957612408611e26565b5b92915050565b7f5265656e7472616e637947756172643a207265656e7472616e742063616c6c005f82015250565b5f612443601f83611ef4565b915061244e8261240f565b602082019050919050565b5f6020820190508181035f83015261247081612437565b9050919050565b5f61248182611a1a565b915061248c83611a1a565b92508282039050818111156124a4576124a3611e26565b5b92915050565b7f496e73756666696369656e74207265776172642062616c616e636500000000005f82015250565b5f6124de601b83611ef4565b91506124e9826124aa565b602082019050919050565b5f6020820190508181035f83015261250b816124d2565b9050919050565b5f61251c82611a1a565b915061252783611a1a565b925082820261253581611a1a565b9150828204841483151761254c5761254b611e26565b5b5092915050565b7f4e487b71000000000000000000000000000000000000000000000000000000005f52601260045260245ffd5b5f61258a82611a1a565b915061259583611a1a565b9250826125a5576125a4612553565b5b828204905092915050565b5f6040820190506125c35f830185611c2a565b6125d06020830184611ce8565b939250505056fea264697066735822122004a0b4bd7a4c667a33618748745d0ef84ee37ebf247e825679e1e4c97118385064736f6c63430008180033",
					"opcodes": "PUSH1 0xA0 PUSH1 0x40 MSTORE CALLVALUE DUP1 ISZERO PUSH3 0x10 JUMPI PUSH0 DUP1 REVERT JUMPDEST POP PUSH1 0x40 MLOAD PUSH3 0x29FA CODESIZE SUB DUP1 PUSH3 0x29FA DUP4 CODECOPY DUP2 DUP2 ADD PUSH1 0x40 MSTORE DUP2 ADD SWAP1 PUSH3 0x36 SWAP2 SWAP1 PUSH3 0x2FC JUMP JUMPDEST PUSH1 0x1 DUP1 DUP2 SWAP1 SSTORE POP PUSH0 PUSH20 0xFFFFFFFFFFFFFFFFFFFFFFFFFFFFFFFFFFFFFFFF AND DUP3 PUSH20 0xFFFFFFFFFFFFFFFFFFFFFFFFFFFFFFFFFFFFFFFF AND SUB PUSH3 0xAE JUMPI PUSH1 0x40 MLOAD PUSH32 0x8C379A000000000000000000000000000000000000000000000000000000000 DUP2 MSTORE PUSH1 0x4 ADD PUSH3 0xA5 SWAP1 PUSH3 0x39F JUMP JUMPDEST PUSH1 0x40 MLOAD DUP1 SWAP2 SUB SWAP1 REVERT JUMPDEST DUP2 PUSH20 0xFFFFFFFFFFFFFFFFFFFFFFFFFFFFFFFFFFFFFFFF AND PUSH1 0x80 DUP2 PUSH20 0xFFFFFFFFFFFFFFFFFFFFFFFFFFFFFFFFFFFFFFFF AND DUP2 MSTORE POP POP PUSH3 0xF6 PUSH0 DUP1 SHL DUP3 PUSH3 0x132 PUSH1 0x20 SHL PUSH1 0x20 SHR JUMP JUMPDEST POP PUSH3 0x129 PUSH32 0x6393FA734211156FCC8C7DDA6B0650F5C731D4C838C1DB43445A149AA2F5B6FE DUP3 PUSH3 0x132 PUSH1 0x20 SHL PUSH1 0x20 SHR JUMP JUMPDEST POP POP POP PUSH3 0x3BF JUMP JUMPDEST PUSH0 PUSH3 0x145 DUP4 DUP4 PUSH3 0x22D PUSH1 0x20 SHL PUSH1 0x20 SHR JUMP JUMPDEST PUSH3 0x223 JUMPI PUSH1 0x1 PUSH0 DUP1 DUP6 DUP2 MSTORE PUSH1 0x20 ADD SWAP1 DUP2 MSTORE PUSH1 0x20 ADD PUSH0 KECCAK256 PUSH0 ADD PUSH0 DUP5 PUSH20 0xFFFFFFFFFFFFFFFFFFFFFFFFFFFFFFFFFFFFFFFF AND PUSH20 0xFFFFFFFFFFFFFFFFFFFFFFFFFFFFFFFFFFFFFFFF AND DUP2 MSTORE PUSH1 0x20 ADD SWAP1 DUP2 MSTORE PUSH1 0x20 ADD PUSH0 KECCAK256 PUSH0 PUSH2 0x100 EXP DUP2 SLOAD DUP2 PUSH1 0xFF MUL NOT AND SWAP1 DUP4 ISZERO ISZERO MUL OR SWAP1 SSTORE POP PUSH3 0x1BF PUSH3 0x290 PUSH1 0x20 SHL PUSH1 0x20 SHR JUMP JUMPDEST PUSH20 0xFFFFFFFFFFFFFFFFFFFFFFFFFFFFFFFFFFFFFFFF AND DUP3 PUSH20 0xFFFFFFFFFFFFFFFFFFFFFFFFFFFFFFFFFFFFFFFF AND DUP5 PUSH32 0x2F8788117E7EFF1D82E926EC794901D17C78024A50270940304540A733656F0D PUSH1 0x40 MLOAD PUSH1 0x40 MLOAD DUP1 SWAP2 SUB SWAP1 LOG4 PUSH1 0x1 SWAP1 POP PUSH3 0x227 JUMP JUMPDEST PUSH0 SWAP1 POP JUMPDEST SWAP3 SWAP2 POP POP JUMP JUMPDEST PUSH0 DUP1 PUSH0 DUP5 DUP2 MSTORE PUSH1 0x20 ADD SWAP1 DUP2 MSTORE PUSH1 0x20 ADD PUSH0 KECCAK256 PUSH0 ADD PUSH0 DUP4 PUSH20 0xFFFFFFFFFFFFFFFFFFFFFFFFFFFFFFFFFFFFFFFF AND PUSH20 0xFFFFFFFFFFFFFFFFFFFFFFFFFFFFFFFFFFFFFFFF AND DUP2 MSTORE PUSH1 0x20 ADD SWAP1 DUP2 MSTORE PUSH1 0x20 ADD PUSH0 KECCAK256 PUSH0 SWAP1 SLOAD SWAP1 PUSH2 0x100 EXP SWAP1 DIV PUSH1 0xFF AND SWAP1 POP SWAP3 SWAP2 POP POP JUMP JUMPDEST PUSH0 CALLER SWAP1 POP SWAP1 JUMP JUMPDEST PUSH0 DUP1 REVERT JUMPDEST PUSH0 PUSH20 0xFFFFFFFFFFFFFFFFFFFFFFFFFFFFFFFFFFFFFFFF DUP3 AND SWAP1 POP SWAP2 SWAP1 POP JUMP JUMPDEST PUSH0 PUSH3 0x2C6 DUP3 PUSH3 0x29B JUMP JUMPDEST SWAP1 POP SWAP2 SWAP1 POP JUMP JUMPDEST PUSH3 0x2D8 DUP2 PUSH3 0x2BA JUMP JUMPDEST DUP2 EQ PUSH3 0x2E3 JUMPI PUSH0 DUP1 REVERT JUMPDEST POP JUMP JUMPDEST PUSH0 DUP2 MLOAD SWAP1 POP PUSH3 0x2F6 DUP2 PUSH3 0x2CD JUMP JUMPDEST SWAP3 SWAP2 POP POP JUMP JUMPDEST PUSH0 DUP1 PUSH1 0x40 DUP4 DUP6 SUB SLT ISZERO PUSH3 0x315 JUMPI PUSH3 0x314 PUSH3 0x297 JUMP JUMPDEST JUMPDEST PUSH0 PUSH3 0x324 DUP6 DUP3 DUP7 ADD PUSH3 0x2E6 JUMP JUMPDEST SWAP3 POP POP PUSH1 0x20 PUSH3 0x337 DUP6 DUP3 DUP7 ADD PUSH3 0x2E6 JUMP JUMPDEST SWAP2 POP POP SWAP3 POP SWAP3 SWAP1 POP JUMP JUMPDEST PUSH0 DUP3 DUP3 MSTORE PUSH1 0x20 DUP3 ADD SWAP1 POP SWAP3 SWAP2 POP POP JUMP JUMPDEST PUSH32 0x496E76616C6964207374616B696E6720746F6B656E0000000000000000000000 PUSH0 DUP3 ADD MSTORE POP JUMP JUMPDEST PUSH0 PUSH3 0x387 PUSH1 0x15 DUP4 PUSH3 0x341 JUMP JUMPDEST SWAP2 POP PUSH3 0x394 DUP3 PUSH3 0x351 JUMP JUMPDEST PUSH1 0x20 DUP3 ADD SWAP1 POP SWAP2 SWAP1 POP JUMP JUMPDEST PUSH0 PUSH1 0x20 DUP3 ADD SWAP1 POP DUP2 DUP2 SUB PUSH0 DUP4 ADD MSTORE PUSH3 0x3B8 DUP2 PUSH3 0x379 JUMP JUMPDEST SWAP1 POP SWAP2 SWAP1 POP JUMP JUMPDEST PUSH1 0x80 MLOAD PUSH2 0x260D PUSH3 0x3ED PUSH0 CODECOPY PUSH0 DUP2 DUP2 PUSH2 0x76E ADD MSTORE DUP2 DUP2 PUSH2 0xB77 ADD MSTORE DUP2 DUP2 PUSH2 0xC23 ADD MSTORE PUSH2 0xDBF ADD MSTORE PUSH2 0x260D PUSH0 RETURN INVALID PUSH1 0x80 PUSH1 0x40 MSTORE CALLVALUE DUP1 ISZERO PUSH2 0xF JUMPI PUSH0 DUP1 REVERT JUMPDEST POP PUSH1 0x4 CALLDATASIZE LT PUSH2 0x11E JUMPI PUSH0 CALLDATALOAD PUSH1 0xE0 SHR DUP1 PUSH4 0x5932FDBA GT PUSH2 0xAB JUMPI DUP1 PUSH4 0x91D14854 GT PUSH2 0x6F JUMPI DUP1 PUSH4 0x91D14854 EQ PUSH2 0x30A JUMPI DUP1 PUSH4 0xA217FDDF EQ PUSH2 0x33A JUMPI DUP1 PUSH4 0xA694FC3A EQ PUSH2 0x358 JUMPI DUP1 PUSH4 0xD547741F EQ PUSH2 0x374 JUMPI DUP1 PUSH4 0xE075D82C EQ PUSH2 0x390 JUMPI PUSH2 0x11E JUMP JUMPDEST DUP1 PUSH4 0x5932FDBA EQ PUSH2 0x262 JUMPI DUP1 PUSH4 0x70A08231 EQ PUSH2 0x280 JUMPI DUP1 PUSH4 0x72F702F3 EQ PUSH2 0x2B0 JUMPI DUP1 PUSH4 0x817B1CD2 EQ PUSH2 0x2CE JUMPI DUP1 PUSH4 0x85ECDD93 EQ PUSH2 0x2EC JUMPI PUSH2 0x11E JUMP JUMPDEST DUP1 PUSH4 0x248A9CA3 GT PUSH2 0xF2 JUMPI DUP1 PUSH4 0x248A9CA3 EQ PUSH2 0x1D4 JUMPI DUP1 PUSH4 0x2E1A7D4D EQ PUSH2 0x204 JUMPI DUP1 PUSH4 0x2F2FF15D EQ PUSH2 0x220 JUMPI DUP1 PUSH4 0x36568ABE EQ PUSH2 0x23C JUMPI DUP1 PUSH4 0x372500AB EQ PUSH2 0x258 JUMPI PUSH2 0x11E JUMP JUMPDEST DUP1 PUSH3 0x8CC262 EQ PUSH2 0x122 JUMPI DUP1 PUSH4 0x1FFC9A7 EQ PUSH2 0x152 JUMPI DUP1 PUSH4 0xB35A4B0 EQ PUSH2 0x182 JUMPI DUP1 PUSH4 0x1C1121C5 EQ PUSH2 0x1A0 JUMPI JUMPDEST PUSH0 DUP1 REVERT JUMPDEST PUSH2 0x13C PUSH1 0x4 DUP1 CALLDATASIZE SUB DUP2 ADD SWAP1 PUSH2 0x137 SWAP2 SWAP1 PUSH2 0x19EF JUMP JUMPDEST PUSH2 0x3AC JUMP JUMPDEST PUSH1 0x40 MLOAD PUSH2 0x149 SWAP2 SWAP1 PUSH2 0x1A32 JUMP JUMPDEST PUSH1 0x40 MLOAD DUP1 SWAP2 SUB SWAP1 RETURN JUMPDEST PUSH2 0x16C PUSH1 0x4 DUP1 CALLDATASIZE SUB DUP2 ADD SWAP1 PUSH2 0x167 SWAP2 SWAP1 PUSH2 0x1AA0 JUMP JUMPDEST PUSH2 0x3F3 JUMP JUMPDEST PUSH1 0x40 MLOAD PUSH2 0x179 SWAP2 SWAP1 PUSH2 0x1AE5 JUMP JUMPDEST PUSH1 0x40 MLOAD DUP1 SWAP2 SUB SWAP1 RETURN JUMPDEST PUSH2 0x18A PUSH2 0x46C JUMP JUMPDEST PUSH1 0x40 MLOAD PUSH2 0x197 SWAP2 SWAP1 PUSH2 0x1BB5 JUMP JUMPDEST PUSH1 0x40 MLOAD DUP1 SWAP2 SUB SWAP1 RETURN JUMPDEST PUSH2 0x1BA PUSH1 0x4 DUP1 CALLDATASIZE SUB DUP2 ADD SWAP1 PUSH2 0x1B5 SWAP2 SWAP1 PUSH2 0x1BFF JUMP JUMPDEST PUSH2 0x57F JUMP JUMPDEST PUSH1 0x40 MLOAD PUSH2 0x1CB SWAP6 SWAP5 SWAP4 SWAP3 SWAP2 SWAP1 PUSH2 0x1C39 JUMP JUMPDEST PUSH1 0x40 MLOAD DUP1 SWAP2 SUB SWAP1 RETURN JUMPDEST PUSH2 0x1EE PUSH1 0x4 DUP1 CALLDATASIZE SUB DUP2 ADD SWAP1 PUSH2 0x1E9 SWAP2 SWAP1 PUSH2 0x1CBD JUMP JUMPDEST PUSH2 0x5D0 JUMP JUMPDEST PUSH1 0x40 MLOAD PUSH2 0x1FB SWAP2 SWAP1 PUSH2 0x1CF7 JUMP JUMPDEST PUSH1 0x40 MLOAD DUP1 SWAP2 SUB SWAP1 RETURN JUMPDEST PUSH2 0x21E PUSH1 0x4 DUP1 CALLDATASIZE SUB DUP2 ADD SWAP1 PUSH2 0x219 SWAP2 SWAP1 PUSH2 0x1BFF JUMP JUMPDEST PUSH2 0x5EC JUMP JUMPDEST STOP JUMPDEST PUSH2 0x23A PUSH1 0x4 DUP1 CALLDATASIZE SUB DUP2 ADD SWAP1 PUSH2 0x235 SWAP2 SWAP1 PUSH2 0x1D10 JUMP JUMPDEST PUSH2 0x8A3 JUMP JUMPDEST STOP JUMPDEST PUSH2 0x256 PUSH1 0x4 DUP1 CALLDATASIZE SUB DUP2 ADD SWAP1 PUSH2 0x251 SWAP2 SWAP1 PUSH2 0x1D10 JUMP JUMPDEST PUSH2 0x8C5 JUMP JUMPDEST STOP JUMPDEST PUSH2 0x260 PUSH2 0x940 JUMP JUMPDEST STOP JUMPDEST PUSH2 0x26A PUSH2 0xBB7 JUMP JUMPDEST PUSH1 0x40 MLOAD PUSH2 0x277 SWAP2 SWAP1 PUSH2 0x1CF7 JUMP JUMPDEST PUSH1 0x40 MLOAD DUP1 SWAP2 SUB SWAP1 RETURN JUMPDEST PUSH2 0x29A PUSH1 0x4 DUP1 CALLDATASIZE SUB DUP2 ADD SWAP1 PUSH2 0x295 SWAP2 SWAP1 PUSH2 0x19EF JUMP JUMPDEST PUSH2 0xBDB JUMP JUMPDEST PUSH1 0x40 MLOAD PUSH2 0x2A7 SWAP2 SWAP1 PUSH2 0x1A32 JUMP JUMPDEST PUSH1 0x40 MLOAD DUP1 SWAP2 SUB SWAP1 RETURN JUMPDEST PUSH2 0x2B8 PUSH2 0xC21 JUMP JUMPDEST PUSH1 0x40 MLOAD PUSH2 0x2C5 SWAP2 SWAP1 PUSH2 0x1DA9 JUMP JUMPDEST PUSH1 0x40 MLOAD DUP1 SWAP2 SUB SWAP1 RETURN JUMPDEST PUSH2 0x2D6 PUSH2 0xC45 JUMP JUMPDEST PUSH1 0x40 MLOAD PUSH2 0x2E3 SWAP2 SWAP1 PUSH2 0x1A32 JUMP JUMPDEST PUSH1 0x40 MLOAD DUP1 SWAP2 SUB SWAP1 RETURN JUMPDEST PUSH2 0x2F4 PUSH2 0xC4E JUMP JUMPDEST PUSH1 0x40 MLOAD PUSH2 0x301 SWAP2 SWAP1 PUSH2 0x1A32 JUMP JUMPDEST PUSH1 0x40 MLOAD DUP1 SWAP2 SUB SWAP1 RETURN JUMPDEST PUSH2 0x324 PUSH1 0x4 DUP1 CALLDATASIZE SUB DUP2 ADD SWAP1 PUSH2 0x31F SWAP2 SWAP1 PUSH2 0x1D10 JUMP JUMPDEST PUSH2 0xC54 JUMP JUMPDEST PUSH1 0x40 MLOAD PUSH2 0x331 SWAP2 SWAP1 PUSH2 0x1AE5 JUMP JUMPDEST PUSH1 0x40 MLOAD DUP1 SWAP2 SUB SWAP1 RETURN JUMPDEST PUSH2 0x342 PUSH2 0xCB7 JUMP JUMPDEST PUSH1 0x40 MLOAD PUSH2 0x34F SWAP2 SWAP1 PUSH2 0x1CF7 JUMP JUMPDEST PUSH1 0x40 MLOAD DUP1 SWAP2 SUB SWAP1 RETURN JUMPDEST PUSH2 0x372 PUSH1 0x4 DUP1 CALLDATASIZE SUB DUP2 ADD SWAP1 PUSH2 0x36D SWAP2 SWAP1 PUSH2 0x1BFF JUMP JUMPDEST PUSH2 0xCBD JUMP JUMPDEST STOP JUMPDEST PUSH2 0x38E PUSH1 0x4 DUP1 CALLDATASIZE SUB DUP2 ADD SWAP1 PUSH2 0x389 SWAP2 SWAP1 PUSH2 0x1D10 JUMP JUMPDEST PUSH2 0xEF6 JUMP JUMPDEST STOP JUMPDEST PUSH2 0x3AA PUSH1 0x4 DUP1 CALLDATASIZE SUB DUP2 ADD SWAP1 PUSH2 0x3A5 SWAP2 SWAP1 PUSH2 0x1DC2 JUMP JUMPDEST PUSH2 0xF18 JUMP JUMPDEST STOP JUMPDEST PUSH0 DUP1 PUSH1 0x1 SWAP1 POP JUMPDEST PUSH1 0x5 SLOAD DUP2 GT PUSH2 0x3ED JUMPI PUSH2 0x3D8 PUSH2 0x3C9 DUP5 DUP4 PUSH2 0x11ED JUMP JUMPDEST DUP4 PUSH2 0x13E2 SWAP1 SWAP2 SWAP1 PUSH4 0xFFFFFFFF AND JUMP JUMPDEST SWAP2 POP DUP1 DUP1 PUSH2 0x3E5 SWAP1 PUSH2 0x1E53 JUMP JUMPDEST SWAP2 POP POP PUSH2 0x3B3 JUMP JUMPDEST POP SWAP2 SWAP1 POP JUMP JUMPDEST PUSH0 PUSH32 0x7965DB0B00000000000000000000000000000000000000000000000000000000 PUSH28 0xFFFFFFFFFFFFFFFFFFFFFFFFFFFFFFFFFFFFFFFFFFFFFFFFFFFFFFFF NOT AND DUP3 PUSH28 0xFFFFFFFFFFFFFFFFFFFFFFFFFFFFFFFFFFFFFFFFFFFFFFFFFFFFFFFF NOT AND EQ DUP1 PUSH2 0x465 JUMPI POP PUSH2 0x464 DUP3 PUSH2 0x13F7 JUMP JUMPDEST JUMPDEST SWAP1 POP SWAP2 SWAP1 POP JUMP JUMPDEST PUSH1 0x60 PUSH0 DUP1 PUSH1 0x1 SWAP1 POP JUMPDEST PUSH1 0x5 SLOAD DUP2 GT PUSH2 0x4BC JUMPI PUSH1 0x4 PUSH0 DUP3 DUP2 MSTORE PUSH1 0x20 ADD SWAP1 DUP2 MSTORE PUSH1 0x20 ADD PUSH0 KECCAK256 PUSH1 0x1 ADD SLOAD TIMESTAMP LT ISZERO PUSH2 0x4A9 JUMPI DUP2 DUP1 PUSH2 0x4A5 SWAP1 PUSH2 0x1E53 JUMP JUMPDEST SWAP3 POP POP JUMPDEST DUP1 DUP1 PUSH2 0x4B4 SWAP1 PUSH2 0x1E53 JUMP JUMPDEST SWAP2 POP POP PUSH2 0x475 JUMP JUMPDEST POP PUSH0 DUP2 PUSH8 0xFFFFFFFFFFFFFFFF DUP2 GT ISZERO PUSH2 0x4D8 JUMPI PUSH2 0x4D7 PUSH2 0x1E9A JUMP JUMPDEST JUMPDEST PUSH1 0x40 MLOAD SWAP1 DUP1 DUP3 MSTORE DUP1 PUSH1 0x20 MUL PUSH1 0x20 ADD DUP3 ADD PUSH1 0x40 MSTORE DUP1 ISZERO PUSH2 0x506 JUMPI DUP2 PUSH1 0x20 ADD PUSH1 0x20 DUP3 MUL DUP1 CALLDATASIZE DUP4 CALLDATACOPY DUP1 DUP3 ADD SWAP2 POP POP SWAP1 POP JUMPDEST POP SWAP1 POP PUSH0 DUP1 PUSH1 0x1 SWAP1 POP JUMPDEST PUSH1 0x5 SLOAD DUP2 GT PUSH2 0x575 JUMPI PUSH1 0x4 PUSH0 DUP3 DUP2 MSTORE PUSH1 0x20 ADD SWAP1 DUP2 MSTORE PUSH1 0x20 ADD PUSH0 KECCAK256 PUSH1 0x1 ADD SLOAD TIMESTAMP LT ISZERO PUSH2 0x562 JUMPI DUP1 DUP4 DUP4 DUP1 PUSH2 0x542 SWAP1 PUSH2 0x1E53 JUMP JUMPDEST SWAP5 POP DUP2 MLOAD DUP2 LT PUSH2 0x555 JUMPI PUSH2 0x554 PUSH2 0x1EC7 JUMP JUMPDEST JUMPDEST PUSH1 0x20 MUL PUSH1 0x20 ADD ADD DUP2 DUP2 MSTORE POP POP JUMPDEST DUP1 DUP1 PUSH2 0x56D SWAP1 PUSH2 0x1E53 JUMP JUMPDEST SWAP2 POP POP PUSH2 0x510 JUMP JUMPDEST POP DUP2 SWAP4 POP POP POP POP SWAP1 JUMP JUMPDEST PUSH1 0x4 PUSH1 0x20 MSTORE DUP1 PUSH0 MSTORE PUSH1 0x40 PUSH0 KECCAK256 PUSH0 SWAP2 POP SWAP1 POP DUP1 PUSH0 ADD SLOAD SWAP1 DUP1 PUSH1 0x1 ADD SLOAD SWAP1 DUP1 PUSH1 0x2 ADD SLOAD SWAP1 DUP1 PUSH1 0x3 ADD SLOAD SWAP1 DUP1 PUSH1 0x4 ADD PUSH0 SWAP1 SLOAD SWAP1 PUSH2 0x100 EXP SWAP1 DIV PUSH20 0xFFFFFFFFFFFFFFFFFFFFFFFFFFFFFFFFFFFFFFFF AND SWAP1 POP DUP6 JUMP JUMPDEST PUSH0 DUP1 PUSH0 DUP4 DUP2 MSTORE PUSH1 0x20 ADD SWAP1 DUP2 MSTORE PUSH1 0x20 ADD PUSH0 KECCAK256 PUSH1 0x1 ADD SLOAD SWAP1 POP SWAP2 SWAP1 POP JUMP JUMPDEST PUSH2 0x5F4 PUSH2 0x1460 JUMP JUMPDEST PUSH0 DUP2 GT PUSH2 0x636 JUMPI PUSH1 0x40 MLOAD PUSH32 0x8C379A000000000000000000000000000000000000000000000000000000000 DUP2 MSTORE PUSH1 0x4 ADD PUSH2 0x62D SWAP1 PUSH2 0x1F4E JUMP JUMPDEST PUSH1 0x40 MLOAD DUP1 SWAP2 SUB SWAP1 REVERT JUMPDEST DUP1 PUSH1 0x3 PUSH0 CALLER PUSH20 0xFFFFFFFFFFFFFFFFFFFFFFFFFFFFFFFFFFFFFFFF AND PUSH20 0xFFFFFFFFFFFFFFFFFFFFFFFFFFFFFFFFFFFFFFFF AND DUP2 MSTORE PUSH1 0x20 ADD SWAP1 DUP2 MSTORE PUSH1 0x20 ADD PUSH0 KECCAK256 SLOAD LT ISZERO PUSH2 0x6B6 JUMPI PUSH1 0x40 MLOAD PUSH32 0x8C379A000000000000000000000000000000000000000000000000000000000 DUP2 MSTORE PUSH1 0x4 ADD PUSH2 0x6AD SWAP1 PUSH2 0x1FB6 JUMP JUMPDEST PUSH1 0x40 MLOAD DUP1 SWAP2 SUB SWAP1 REVERT JUMPDEST PUSH2 0x6BF CALLER PUSH2 0x14AF JUMP JUMPDEST PUSH2 0x6D4 DUP2 PUSH1 0x2 SLOAD PUSH2 0x158D SWAP1 SWAP2 SWAP1 PUSH4 0xFFFFFFFF AND JUMP JUMPDEST PUSH1 0x2 DUP2 SWAP1 SSTORE POP PUSH2 0x72A DUP2 PUSH1 0x3 PUSH0 CALLER PUSH20 0xFFFFFFFFFFFFFFFFFFFFFFFFFFFFFFFFFFFFFFFF AND PUSH20 0xFFFFFFFFFFFFFFFFFFFFFFFFFFFFFFFFFFFFFFFF AND DUP2 MSTORE PUSH1 0x20 ADD SWAP1 DUP2 MSTORE PUSH1 0x20 ADD PUSH0 KECCAK256 SLOAD PUSH2 0x158D SWAP1 SWAP2 SWAP1 PUSH4 0xFFFFFFFF AND JUMP JUMPDEST PUSH1 0x3 PUSH0 CALLER PUSH20 0xFFFFFFFFFFFFFFFFFFFFFFFFFFFFFFFFFFFFFFFF AND PUSH20 0xFFFFFFFFFFFFFFFFFFFFFFFFFFFFFFFFFFFFFFFF AND DUP2 MSTORE PUSH1 0x20 ADD SWAP1 DUP2 MSTORE PUSH1 0x20 ADD PUSH0 KECCAK256 DUP2 SWAP1 SSTORE POP PUSH0 PUSH32 0x0 PUSH20 0xFFFFFFFFFFFFFFFFFFFFFFFFFFFFFFFFFFFFFFFF AND PUSH4 0xA9059CBB CALLER DUP5 PUSH1 0x40 MLOAD DUP4 PUSH4 0xFFFFFFFF AND PUSH1 0xE0 SHL DUP2 MSTORE PUSH1 0x4 ADD PUSH2 0x7C7 SWAP3 SWAP2 SWAP1 PUSH2 0x1FD4 JUMP JUMPDEST PUSH1 0x20 PUSH1 0x40 MLOAD DUP1 DUP4 SUB DUP2 PUSH0 DUP8 GAS CALL ISZERO DUP1 ISZERO PUSH2 0x7E3 JUMPI RETURNDATASIZE PUSH0 DUP1 RETURNDATACOPY RETURNDATASIZE PUSH0 REVERT JUMPDEST POP POP POP POP PUSH1 0x40 MLOAD RETURNDATASIZE PUSH1 0x1F NOT PUSH1 0x1F DUP3 ADD AND DUP3 ADD DUP1 PUSH1 0x40 MSTORE POP DUP2 ADD SWAP1 PUSH2 0x807 SWAP2 SWAP1 PUSH2 0x2025 JUMP JUMPDEST SWAP1 POP DUP1 PUSH2 0x849 JUMPI PUSH1 0x40 MLOAD PUSH32 0x8C379A000000000000000000000000000000000000000000000000000000000 DUP2 MSTORE PUSH1 0x4 ADD PUSH2 0x840 SWAP1 PUSH2 0x209A JUMP JUMPDEST PUSH1 0x40 MLOAD DUP1 SWAP2 SUB SWAP1 REVERT JUMPDEST CALLER PUSH20 0xFFFFFFFFFFFFFFFFFFFFFFFFFFFFFFFFFFFFFFFF AND PUSH32 0x7084F5476618D8E60B11EF0D7D3F06914655ADB8793E28FF7F018D4C76D505D5 DUP4 PUSH1 0x40 MLOAD PUSH2 0x88F SWAP2 SWAP1 PUSH2 0x1A32 JUMP JUMPDEST PUSH1 0x40 MLOAD DUP1 SWAP2 SUB SWAP1 LOG2 POP PUSH2 0x8A0 PUSH2 0x15A2 JUMP JUMPDEST POP JUMP JUMPDEST PUSH2 0x8AC DUP3 PUSH2 0x5D0 JUMP JUMPDEST PUSH2 0x8B5 DUP2 PUSH2 0x15AB JUMP JUMPDEST PUSH2 0x8BF DUP4 DUP4 PUSH2 0x15BF JUMP JUMPDEST POP POP POP POP JUMP JUMPDEST PUSH2 0x8CD PUSH2 0x16A8 JUMP JUMPDEST PUSH20 0xFFFFFFFFFFFFFFFFFFFFFFFFFFFFFFFFFFFFFFFF AND DUP2 PUSH20 0xFFFFFFFFFFFFFFFFFFFFFFFFFFFFFFFFFFFFFFFF AND EQ PUSH2 0x931 JUMPI PUSH1 0x40 MLOAD PUSH32 0x6697B23200000000000000000000000000000000000000000000000000000000 DUP2 MSTORE PUSH1 0x4 ADD PUSH1 0x40 MLOAD DUP1 SWAP2 SUB SWAP1 REVERT JUMPDEST PUSH2 0x93B DUP3 DUP3 PUSH2 0x16AF JUMP JUMPDEST POP POP POP JUMP JUMPDEST PUSH2 0x948 PUSH2 0x1460 JUMP JUMPDEST PUSH2 0x951 CALLER PUSH2 0x14AF JUMP JUMPDEST PUSH0 DUP1 PUSH1 0x1 SWAP1 POP JUMPDEST PUSH1 0x5 SLOAD DUP2 GT PUSH2 0xAF9 JUMPI PUSH0 PUSH1 0x4 PUSH0 DUP4 DUP2 MSTORE PUSH1 0x20 ADD SWAP1 DUP2 MSTORE PUSH1 0x20 ADD PUSH0 KECCAK256 SWAP1 POP PUSH0 PUSH1 0x6 PUSH0 CALLER PUSH20 0xFFFFFFFFFFFFFFFFFFFFFFFFFFFFFFFFFFFFFFFF AND PUSH20 0xFFFFFFFFFFFFFFFFFFFFFFFFFFFFFFFFFFFFFFFF AND DUP2 MSTORE PUSH1 0x20 ADD SWAP1 DUP2 MSTORE PUSH1 0x20 ADD PUSH0 KECCAK256 PUSH0 DUP5 DUP2 MSTORE PUSH1 0x20 ADD SWAP1 DUP2 MSTORE PUSH1 0x20 ADD PUSH0 KECCAK256 SLOAD SWAP1 POP PUSH0 DUP2 SUB PUSH2 0x9D3 JUMPI POP POP PUSH2 0xAE6 JUMP JUMPDEST DUP2 PUSH1 0x2 ADD SLOAD PUSH2 0x9EF DUP3 DUP5 PUSH1 0x3 ADD SLOAD PUSH2 0x13E2 SWAP1 SWAP2 SWAP1 PUSH4 0xFFFFFFFF AND JUMP JUMPDEST GT ISZERO PUSH2 0xA30 JUMPI PUSH1 0x40 MLOAD PUSH32 0x8C379A000000000000000000000000000000000000000000000000000000000 DUP2 MSTORE PUSH1 0x4 ADD PUSH2 0xA27 SWAP1 PUSH2 0x2102 JUMP JUMPDEST PUSH1 0x40 MLOAD DUP1 SWAP2 SUB SWAP1 REVERT JUMPDEST PUSH0 PUSH1 0x6 PUSH0 CALLER PUSH20 0xFFFFFFFFFFFFFFFFFFFFFFFFFFFFFFFFFFFFFFFF AND PUSH20 0xFFFFFFFFFFFFFFFFFFFFFFFFFFFFFFFFFFFFFFFF AND DUP2 MSTORE PUSH1 0x20 ADD SWAP1 DUP2 MSTORE PUSH1 0x20 ADD PUSH0 KECCAK256 PUSH0 DUP6 DUP2 MSTORE PUSH1 0x20 ADD SWAP1 DUP2 MSTORE PUSH1 0x20 ADD PUSH0 KECCAK256 DUP2 SWAP1 SSTORE POP PUSH2 0xA98 DUP2 DUP4 PUSH1 0x3 ADD SLOAD PUSH2 0x13E2 SWAP1 SWAP2 SWAP1 PUSH4 0xFFFFFFFF AND JUMP JUMPDEST DUP3 PUSH1 0x3 ADD DUP2 SWAP1 SSTORE POP PUSH2 0xACE DUP3 PUSH1 0x4 ADD PUSH0 SWAP1 SLOAD SWAP1 PUSH2 0x100 EXP SWAP1 DIV PUSH20 0xFFFFFFFFFFFFFFFFFFFFFFFFFFFFFFFFFFFFFFFF AND CALLER DUP4 PUSH2 0x1798 JUMP JUMPDEST PUSH2 0xAE1 DUP2 DUP6 PUSH2 0x13E2 SWAP1 SWAP2 SWAP1 PUSH4 0xFFFFFFFF AND JUMP JUMPDEST SWAP4 POP POP POP JUMPDEST DUP1 DUP1 PUSH2 0xAF1 SWAP1 PUSH2 0x1E53 JUMP JUMPDEST SWAP2 POP POP PUSH2 0x958 JUMP JUMPDEST POP PUSH0 DUP2 GT PUSH2 0xB3C JUMPI PUSH1 0x40 MLOAD PUSH32 0x8C379A000000000000000000000000000000000000000000000000000000000 DUP2 MSTORE PUSH1 0x4 ADD PUSH2 0xB33 SWAP1 PUSH2 0x216A JUMP JUMPDEST PUSH1 0x40 MLOAD DUP1 SWAP2 SUB SWAP1 REVERT JUMPDEST CALLER PUSH20 0xFFFFFFFFFFFFFFFFFFFFFFFFFFFFFFFFFFFFFFFF AND PUSH32 0xF80B6D248CA65E589D3F24C7CE36E2DF22BA16BA4E7656AAD67E114ABBE971D2 DUP3 PUSH32 0x0 PUSH1 0x40 MLOAD PUSH2 0xBA4 SWAP3 SWAP2 SWAP1 PUSH2 0x2188 JUMP JUMPDEST PUSH1 0x40 MLOAD DUP1 SWAP2 SUB SWAP1 LOG2 POP PUSH2 0xBB5 PUSH2 0x15A2 JUMP JUMPDEST JUMP JUMPDEST PUSH32 0x6393FA734211156FCC8C7DDA6B0650F5C731D4C838C1DB43445A149AA2F5B6FE DUP2 JUMP JUMPDEST PUSH0 PUSH1 0x3 PUSH0 DUP4 PUSH20 0xFFFFFFFFFFFFFFFFFFFFFFFFFFFFFFFFFFFFFFFF AND PUSH20 0xFFFFFFFFFFFFFFFFFFFFFFFFFFFFFFFFFFFFFFFF AND DUP2 MSTORE PUSH1 0x20 ADD SWAP1 DUP2 MSTORE PUSH1 0x20 ADD PUSH0 KECCAK256 SLOAD SWAP1 POP SWAP2 SWAP1 POP JUMP JUMPDEST PUSH32 0x0 DUP2 JUMP JUMPDEST PUSH0 PUSH1 0x2 SLOAD SWAP1 POP SWAP1 JUMP JUMPDEST PUSH1 0x5 SLOAD DUP2 JUMP JUMPDEST PUSH0 DUP1 PUSH0 DUP5 DUP2 MSTORE PUSH1 0x20 ADD SWAP1 DUP2 MSTORE PUSH1 0x20 ADD PUSH0 KECCAK256 PUSH0 ADD PUSH0 DUP4 PUSH20 0xFFFFFFFFFFFFFFFFFFFFFFFFFFFFFFFFFFFFFFFF AND PUSH20 0xFFFFFFFFFFFFFFFFFFFFFFFFFFFFFFFFFFFFFFFF AND DUP2 MSTORE PUSH1 0x20 ADD SWAP1 DUP2 MSTORE PUSH1 0x20 ADD PUSH0 KECCAK256 PUSH0 SWAP1 SLOAD SWAP1 PUSH2 0x100 EXP SWAP1 DIV PUSH1 0xFF AND SWAP1 POP SWAP3 SWAP2 POP POP JUMP JUMPDEST PUSH0 DUP1 SHL DUP2 JUMP JUMPDEST PUSH2 0xCC5 PUSH2 0x1460 JUMP JUMPDEST PUSH0 DUP2 GT PUSH2 0xD07 JUMPI PUSH1 0x40 MLOAD PUSH32 0x8C379A000000000000000000000000000000000000000000000000000000000 DUP2 MSTORE PUSH1 0x4 ADD PUSH2 0xCFE SWAP1 PUSH2 0x1F4E JUMP JUMPDEST PUSH1 0x40 MLOAD DUP1 SWAP2 SUB SWAP1 REVERT JUMPDEST PUSH2 0xD10 CALLER PUSH2 0x14AF JUMP JUMPDEST PUSH2 0xD25 DUP2 PUSH1 0x2 SLOAD PUSH2 0x13E2 SWAP1 SWAP2 SWAP1 PUSH4 0xFFFFFFFF AND JUMP JUMPDEST PUSH1 0x2 DUP2 SWAP1 SSTORE POP PUSH2 0xD7B DUP2 PUSH1 0x3 PUSH0 CALLER PUSH20 0xFFFFFFFFFFFFFFFFFFFFFFFFFFFFFFFFFFFFFFFF AND PUSH20 0xFFFFFFFFFFFFFFFFFFFFFFFFFFFFFFFFFFFFFFFF AND DUP2 MSTORE PUSH1 0x20 ADD SWAP1 DUP2 MSTORE PUSH1 0x20 ADD PUSH0 KECCAK256 SLOAD PUSH2 0x13E2 SWAP1 SWAP2 SWAP1 PUSH4 0xFFFFFFFF AND JUMP JUMPDEST PUSH1 0x3 PUSH0 CALLER PUSH20 0xFFFFFFFFFFFFFFFFFFFFFFFFFFFFFFFFFFFFFFFF AND PUSH20 0xFFFFFFFFFFFFFFFFFFFFFFFFFFFFFFFFFFFFFFFF AND DUP2 MSTORE PUSH1 0x20 ADD SWAP1 DUP2 MSTORE PUSH1 0x20 ADD PUSH0 KECCAK256 DUP2 SWAP1 SSTORE POP PUSH0 PUSH32 0x0 PUSH20 0xFFFFFFFFFFFFFFFFFFFFFFFFFFFFFFFFFFFFFFFF AND PUSH4 0x23B872DD CALLER ADDRESS DUP6 PUSH1 0x40 MLOAD DUP5 PUSH4 0xFFFFFFFF AND PUSH1 0xE0 SHL DUP2 MSTORE PUSH1 0x4 ADD PUSH2 0xE1A SWAP4 SWAP3 SWAP2 SWAP1 PUSH2 0x21AF JUMP JUMPDEST PUSH1 0x20 PUSH1 0x40 MLOAD DUP1 DUP4 SUB DUP2 PUSH0 DUP8 GAS CALL ISZERO DUP1 ISZERO PUSH2 0xE36 JUMPI RETURNDATASIZE PUSH0 DUP1 RETURNDATACOPY RETURNDATASIZE PUSH0 REVERT JUMPDEST POP POP POP POP PUSH1 0x40 MLOAD RETURNDATASIZE PUSH1 0x1F NOT PUSH1 0x1F DUP3 ADD AND DUP3 ADD DUP1 PUSH1 0x40 MSTORE POP DUP2 ADD SWAP1 PUSH2 0xE5A SWAP2 SWAP1 PUSH2 0x2025 JUMP JUMPDEST SWAP1 POP DUP1 PUSH2 0xE9C JUMPI PUSH1 0x40 MLOAD PUSH32 0x8C379A000000000000000000000000000000000000000000000000000000000 DUP2 MSTORE PUSH1 0x4 ADD PUSH2 0xE93 SWAP1 PUSH2 0x209A JUMP JUMPDEST PUSH1 0x40 MLOAD DUP1 SWAP2 SUB SWAP1 REVERT JUMPDEST CALLER PUSH20 0xFFFFFFFFFFFFFFFFFFFFFFFFFFFFFFFFFFFFFFFF AND PUSH32 0x9E71BC8EEA02A63969F509818F2DAFB9254532904319F9DBDA79B67BD34A5F3D DUP4 PUSH1 0x40 MLOAD PUSH2 0xEE2 SWAP2 SWAP1 PUSH2 0x1A32 JUMP JUMPDEST PUSH1 0x40 MLOAD DUP1 SWAP2 SUB SWAP1 LOG2 POP PUSH2 0xEF3 PUSH2 0x15A2 JUMP JUMPDEST POP JUMP JUMPDEST PUSH2 0xEFF DUP3 PUSH2 0x5D0 JUMP JUMPDEST PUSH2 0xF08 DUP2 PUSH2 0x15AB JUMP JUMPDEST PUSH2 0xF12 DUP4 DUP4 PUSH2 0x16AF JUMP JUMPDEST POP POP POP POP JUMP JUMPDEST PUSH32 0x6393FA734211156FCC8C7DDA6B0650F5C731D4C838C1DB43445A149AA2F5B6FE PUSH2 0xF42 DUP2 PUSH2 0x15AB JUMP JUMPDEST TIMESTAMP DUP6 LT ISZERO PUSH2 0xF85 JUMPI PUSH1 0x40 MLOAD PUSH32 0x8C379A000000000000000000000000000000000000000000000000000000000 DUP2 MSTORE PUSH1 0x4 ADD PUSH2 0xF7C SWAP1 PUSH2 0x222E JUMP JUMPDEST PUSH1 0x40 MLOAD DUP1 SWAP2 SUB SWAP1 REVERT JUMPDEST PUSH0 DUP5 GT PUSH2 0xFC7 JUMPI PUSH1 0x40 MLOAD PUSH32 0x8C379A000000000000000000000000000000000000000000000000000000000 DUP2 MSTORE PUSH1 0x4 ADD PUSH2 0xFBE SWAP1 PUSH2 0x2296 JUMP JUMPDEST PUSH1 0x40 MLOAD DUP1 SWAP2 SUB SWAP1 REVERT JUMPDEST PUSH0 DUP4 GT PUSH2 0x1009 JUMPI PUSH1 0x40 MLOAD PUSH32 0x8C379A000000000000000000000000000000000000000000000000000000000 DUP2 MSTORE PUSH1 0x4 ADD PUSH2 0x1000 SWAP1 PUSH2 0x22FE JUMP JUMPDEST PUSH1 0x40 MLOAD DUP1 SWAP2 SUB SWAP1 REVERT JUMPDEST PUSH0 DUP3 PUSH20 0xFFFFFFFFFFFFFFFFFFFFFFFFFFFFFFFFFFFFFFFF AND PUSH4 0x70A08231 ADDRESS PUSH1 0x40 MLOAD DUP3 PUSH4 0xFFFFFFFF AND PUSH1 0xE0 SHL DUP2 MSTORE PUSH1 0x4 ADD PUSH2 0x1043 SWAP2 SWAP1 PUSH2 0x231C JUMP JUMPDEST PUSH1 0x20 PUSH1 0x40 MLOAD DUP1 DUP4 SUB DUP2 DUP7 GAS STATICCALL ISZERO DUP1 ISZERO PUSH2 0x105E JUMPI RETURNDATASIZE PUSH0 DUP1 RETURNDATACOPY RETURNDATASIZE PUSH0 REVERT JUMPDEST POP POP POP POP PUSH1 0x40 MLOAD RETURNDATASIZE PUSH1 0x1F NOT PUSH1 0x1F DUP3 ADD AND DUP3 ADD DUP1 PUSH1 0x40 MSTORE POP DUP2 ADD SWAP1 PUSH2 0x1082 SWAP2 SWAP1 PUSH2 0x2349 JUMP JUMPDEST SWAP1 POP DUP4 DUP2 LT ISZERO PUSH2 0x10C7 JUMPI PUSH1 0x40 MLOAD PUSH32 0x8C379A000000000000000000000000000000000000000000000000000000000 DUP2 MSTORE PUSH1 0x4 ADD PUSH2 0x10BE SWAP1 PUSH2 0x23BE JUMP JUMPDEST PUSH1 0x40 MLOAD DUP1 SWAP2 SUB SWAP1 REVERT JUMPDEST PUSH0 PUSH1 0x5 PUSH0 DUP2 SLOAD PUSH2 0x10D6 SWAP1 PUSH2 0x1E53 JUMP JUMPDEST SWAP2 SWAP1 POP DUP2 SWAP1 SSTORE SWAP1 POP PUSH1 0x40 MLOAD DUP1 PUSH1 0xA0 ADD PUSH1 0x40 MSTORE DUP1 DUP9 DUP2 MSTORE PUSH1 0x20 ADD PUSH2 0x1102 DUP9 DUP11 PUSH2 0x13E2 SWAP1 SWAP2 SWAP1 PUSH4 0xFFFFFFFF AND JUMP JUMPDEST DUP2 MSTORE PUSH1 0x20 ADD DUP7 DUP2 MSTORE PUSH1 0x20 ADD PUSH0 DUP2 MSTORE PUSH1 0x20 ADD DUP6 PUSH20 0xFFFFFFFFFFFFFFFFFFFFFFFFFFFFFFFFFFFFFFFF AND DUP2 MSTORE POP PUSH1 0x4 PUSH0 DUP4 DUP2 MSTORE PUSH1 0x20 ADD SWAP1 DUP2 MSTORE PUSH1 0x20 ADD PUSH0 KECCAK256 PUSH0 DUP3 ADD MLOAD DUP2 PUSH0 ADD SSTORE PUSH1 0x20 DUP3 ADD MLOAD DUP2 PUSH1 0x1 ADD SSTORE PUSH1 0x40 DUP3 ADD MLOAD DUP2 PUSH1 0x2 ADD SSTORE PUSH1 0x60 DUP3 ADD MLOAD DUP2 PUSH1 0x3 ADD SSTORE PUSH1 0x80 DUP3 ADD MLOAD DUP2 PUSH1 0x4 ADD PUSH0 PUSH2 0x100 EXP DUP2 SLOAD DUP2 PUSH20 0xFFFFFFFFFFFFFFFFFFFFFFFFFFFFFFFFFFFFFFFF MUL NOT AND SWAP1 DUP4 PUSH20 0xFFFFFFFFFFFFFFFFFFFFFFFFFFFFFFFFFFFFFFFF AND MUL OR SWAP1 SSTORE POP SWAP1 POP POP PUSH32 0x85396969F10B93E89B84CE058BBCE90A809C86067BB94A5F0243DFE9F9868943 DUP2 PUSH1 0x40 MLOAD PUSH2 0x11DC SWAP2 SWAP1 PUSH2 0x1A32 JUMP JUMPDEST PUSH1 0x40 MLOAD DUP1 SWAP2 SUB SWAP1 LOG1 POP POP POP POP POP POP POP JUMP JUMPDEST PUSH0 DUP1 PUSH1 0x4 PUSH0 DUP5 DUP2 MSTORE PUSH1 0x20 ADD SWAP1 DUP2 MSTORE PUSH1 0x20 ADD PUSH0 KECCAK256 SWAP1 POP PUSH0 PUSH1 0x3 PUSH0 DUP7 PUSH20 0xFFFFFFFFFFFFFFFFFFFFFFFFFFFFFFFFFFFFFFFF AND PUSH20 0xFFFFFFFFFFFFFFFFFFFFFFFFFFFFFFFFFFFFFFFF AND DUP2 MSTORE PUSH1 0x20 ADD SWAP1 DUP2 MSTORE PUSH1 0x20 ADD PUSH0 KECCAK256 SLOAD EQ DUP1 PUSH2 0x124F JUMPI POP DUP1 PUSH0 ADD SLOAD TIMESTAMP LT JUMPDEST ISZERO PUSH2 0x125D JUMPI PUSH0 SWAP2 POP POP PUSH2 0x13DC JUMP JUMPDEST PUSH0 PUSH2 0x1274 DUP3 PUSH0 ADD SLOAD TIMESTAMP PUSH2 0x158D SWAP1 SWAP2 SWAP1 PUSH4 0xFFFFFFFF AND JUMP JUMPDEST SWAP1 POP PUSH0 PUSH2 0x1291 DUP4 PUSH0 ADD SLOAD DUP5 PUSH1 0x1 ADD SLOAD PUSH2 0x158D SWAP1 SWAP2 SWAP1 PUSH4 0xFFFFFFFF AND JUMP JUMPDEST SWAP1 POP PUSH0 PUSH2 0x12C1 DUP3 PUSH2 0x12B3 PUSH8 0xDE0B6B3A7640000 DUP7 PUSH2 0x1916 SWAP1 SWAP2 SWAP1 PUSH4 0xFFFFFFFF AND JUMP JUMPDEST PUSH2 0x192B SWAP1 SWAP2 SWAP1 PUSH4 0xFFFFFFFF AND JUMP JUMPDEST SWAP1 POP PUSH0 PUSH2 0x12DF DUP6 PUSH1 0x3 ADD SLOAD DUP7 PUSH1 0x2 ADD SLOAD PUSH2 0x158D SWAP1 SWAP2 SWAP1 PUSH4 0xFFFFFFFF AND JUMP JUMPDEST SWAP1 POP PUSH0 PUSH2 0x1346 PUSH1 0x2 SLOAD PUSH2 0x1338 DUP6 PUSH1 0x3 PUSH0 DUP15 PUSH20 0xFFFFFFFFFFFFFFFFFFFFFFFFFFFFFFFFFFFFFFFF AND PUSH20 0xFFFFFFFFFFFFFFFFFFFFFFFFFFFFFFFFFFFFFFFF AND DUP2 MSTORE PUSH1 0x20 ADD SWAP1 DUP2 MSTORE PUSH1 0x20 ADD PUSH0 KECCAK256 SLOAD PUSH2 0x1916 SWAP1 SWAP2 SWAP1 PUSH4 0xFFFFFFFF AND JUMP JUMPDEST PUSH2 0x192B SWAP1 SWAP2 SWAP1 PUSH4 0xFFFFFFFF AND JUMP JUMPDEST SWAP1 POP PUSH2 0x13D3 PUSH1 0x6 PUSH0 DUP12 PUSH20 0xFFFFFFFFFFFFFFFFFFFFFFFFFFFFFFFFFFFFFFFF AND PUSH20 0xFFFFFFFFFFFFFFFFFFFFFFFFFFFFFFFFFFFFFFFF AND DUP2 MSTORE PUSH1 0x20 ADD SWAP1 DUP2 MSTORE PUSH1 0x20 ADD PUSH0 KECCAK256 PUSH0 DUP11 DUP2 MSTORE PUSH1 0x20 ADD SWAP1 DUP2 MSTORE PUSH1 0x20 ADD PUSH0 KECCAK256 SLOAD PUSH2 0x13C5 PUSH8 0xDE0B6B3A7640000 PUSH2 0x13B7 DUP6 DUP8 PUSH2 0x1916 SWAP1 SWAP2 SWAP1 PUSH4 0xFFFFFFFF AND JUMP JUMPDEST PUSH2 0x192B SWAP1 SWAP2 SWAP1 PUSH4 0xFFFFFFFF AND JUMP JUMPDEST PUSH2 0x158D SWAP1 SWAP2 SWAP1 PUSH4 0xFFFFFFFF AND JUMP JUMPDEST SWAP7 POP POP POP POP POP POP POP JUMPDEST SWAP3 SWAP2 POP POP JUMP JUMPDEST PUSH0 DUP2 DUP4 PUSH2 0x13EF SWAP2 SWAP1 PUSH2 0x23DC JUMP JUMPDEST SWAP1 POP SWAP3 SWAP2 POP POP JUMP JUMPDEST PUSH0 PUSH32 0x1FFC9A700000000000000000000000000000000000000000000000000000000 PUSH28 0xFFFFFFFFFFFFFFFFFFFFFFFFFFFFFFFFFFFFFFFFFFFFFFFFFFFFFFFF NOT AND DUP3 PUSH28 0xFFFFFFFFFFFFFFFFFFFFFFFFFFFFFFFFFFFFFFFFFFFFFFFFFFFFFFFF NOT AND EQ SWAP1 POP SWAP2 SWAP1 POP JUMP JUMPDEST PUSH1 0x2 PUSH1 0x1 SLOAD SUB PUSH2 0x14A5 JUMPI PUSH1 0x40 MLOAD PUSH32 0x8C379A000000000000000000000000000000000000000000000000000000000 DUP2 MSTORE PUSH1 0x4 ADD PUSH2 0x149C SWAP1 PUSH2 0x2459 JUMP JUMPDEST PUSH1 0x40 MLOAD DUP1 SWAP2 SUB SWAP1 REVERT JUMPDEST PUSH1 0x2 PUSH1 0x1 DUP2 SWAP1 SSTORE POP JUMP JUMPDEST PUSH0 PUSH1 0x1 SWAP1 POP JUMPDEST PUSH1 0x5 SLOAD DUP2 GT PUSH2 0x1589 JUMPI PUSH2 0x1526 PUSH2 0x14CB DUP4 DUP4 PUSH2 0x11ED JUMP JUMPDEST PUSH1 0x6 PUSH0 DUP6 PUSH20 0xFFFFFFFFFFFFFFFFFFFFFFFFFFFFFFFFFFFFFFFF AND PUSH20 0xFFFFFFFFFFFFFFFFFFFFFFFFFFFFFFFFFFFFFFFF AND DUP2 MSTORE PUSH1 0x20 ADD SWAP1 DUP2 MSTORE PUSH1 0x20 ADD PUSH0 KECCAK256 PUSH0 DUP5 DUP2 MSTORE PUSH1 0x20 ADD SWAP1 DUP2 MSTORE PUSH1 0x20 ADD PUSH0 KECCAK256 SLOAD PUSH2 0x13E2 SWAP1 SWAP2 SWAP1 PUSH4 0xFFFFFFFF AND JUMP JUMPDEST PUSH1 0x6 PUSH0 DUP5 PUSH20 0xFFFFFFFFFFFFFFFFFFFFFFFFFFFFFFFFFFFFFFFF AND PUSH20 0xFFFFFFFFFFFFFFFFFFFFFFFFFFFFFFFFFFFFFFFF AND DUP2 MSTORE PUSH1 0x20 ADD SWAP1 DUP2 MSTORE PUSH1 0x20 ADD PUSH0 KECCAK256 PUSH0 DUP4 DUP2 MSTORE PUSH1 0x20 ADD SWAP1 DUP2 MSTORE PUSH1 0x20 ADD PUSH0 KECCAK256 DUP2 SWAP1 SSTORE POP DUP1 DUP1 PUSH2 0x1581 SWAP1 PUSH2 0x1E53 JUMP JUMPDEST SWAP2 POP POP PUSH2 0x14B5 JUMP JUMPDEST POP POP JUMP JUMPDEST PUSH0 DUP2 DUP4 PUSH2 0x159A SWAP2 SWAP1 PUSH2 0x2477 JUMP JUMPDEST SWAP1 POP SWAP3 SWAP2 POP POP JUMP JUMPDEST PUSH1 0x1 DUP1 DUP2 SWAP1 SSTORE POP JUMP JUMPDEST PUSH2 0x15BC DUP2 PUSH2 0x15B7 PUSH2 0x16A8 JUMP JUMPDEST PUSH2 0x1940 JUMP JUMPDEST POP JUMP JUMPDEST PUSH0 PUSH2 0x15CA DUP4 DUP4 PUSH2 0xC54 JUMP JUMPDEST PUSH2 0x169E JUMPI PUSH1 0x1 PUSH0 DUP1 DUP6 DUP2 MSTORE PUSH1 0x20 ADD SWAP1 DUP2 MSTORE PUSH1 0x20 ADD PUSH0 KECCAK256 PUSH0 ADD PUSH0 DUP5 PUSH20 0xFFFFFFFFFFFFFFFFFFFFFFFFFFFFFFFFFFFFFFFF AND PUSH20 0xFFFFFFFFFFFFFFFFFFFFFFFFFFFFFFFFFFFFFFFF AND DUP2 MSTORE PUSH1 0x20 ADD SWAP1 DUP2 MSTORE PUSH1 0x20 ADD PUSH0 KECCAK256 PUSH0 PUSH2 0x100 EXP DUP2 SLOAD DUP2 PUSH1 0xFF MUL NOT AND SWAP1 DUP4 ISZERO ISZERO MUL OR SWAP1 SSTORE POP PUSH2 0x163B PUSH2 0x16A8 JUMP JUMPDEST PUSH20 0xFFFFFFFFFFFFFFFFFFFFFFFFFFFFFFFFFFFFFFFF AND DUP3 PUSH20 0xFFFFFFFFFFFFFFFFFFFFFFFFFFFFFFFFFFFFFFFF AND DUP5 PUSH32 0x2F8788117E7EFF1D82E926EC794901D17C78024A50270940304540A733656F0D PUSH1 0x40 MLOAD PUSH1 0x40 MLOAD DUP1 SWAP2 SUB SWAP1 LOG4 PUSH1 0x1 SWAP1 POP PUSH2 0x16A2 JUMP JUMPDEST PUSH0 SWAP1 POP JUMPDEST SWAP3 SWAP2 POP POP JUMP JUMPDEST PUSH0 CALLER SWAP1 POP SWAP1 JUMP JUMPDEST PUSH0 PUSH2 0x16BA DUP4 DUP4 PUSH2 0xC54 JUMP JUMPDEST ISZERO PUSH2 0x178E JUMPI PUSH0 DUP1 PUSH0 DUP6 DUP2 MSTORE PUSH1 0x20 ADD SWAP1 DUP2 MSTORE PUSH1 0x20 ADD PUSH0 KECCAK256 PUSH0 ADD PUSH0 DUP5 PUSH20 0xFFFFFFFFFFFFFFFFFFFFFFFFFFFFFFFFFFFFFFFF AND PUSH20 0xFFFFFFFFFFFFFFFFFFFFFFFFFFFFFFFFFFFFFFFF AND DUP2 MSTORE PUSH1 0x20 ADD SWAP1 DUP2 MSTORE PUSH1 0x20 ADD PUSH0 KECCAK256 PUSH0 PUSH2 0x100 EXP DUP2 SLOAD DUP2 PUSH1 0xFF MUL NOT AND SWAP1 DUP4 ISZERO ISZERO MUL OR SWAP1 SSTORE POP PUSH2 0x172B PUSH2 0x16A8 JUMP JUMPDEST PUSH20 0xFFFFFFFFFFFFFFFFFFFFFFFFFFFFFFFFFFFFFFFF AND DUP3 PUSH20 0xFFFFFFFFFFFFFFFFFFFFFFFFFFFFFFFFFFFFFFFF AND DUP5 PUSH32 0xF6391F5C32D9C69D2A47EA670B442974B53935D1EDC7FD64EB21E047A839171B PUSH1 0x40 MLOAD PUSH1 0x40 MLOAD DUP1 SWAP2 SUB SWAP1 LOG4 PUSH1 0x1 SWAP1 POP PUSH2 0x1792 JUMP JUMPDEST PUSH0 SWAP1 POP JUMPDEST SWAP3 SWAP2 POP POP JUMP JUMPDEST DUP1 DUP4 PUSH20 0xFFFFFFFFFFFFFFFFFFFFFFFFFFFFFFFFFFFFFFFF AND PUSH4 0x70A08231 ADDRESS PUSH1 0x40 MLOAD DUP3 PUSH4 0xFFFFFFFF AND PUSH1 0xE0 SHL DUP2 MSTORE PUSH1 0x4 ADD PUSH2 0x17D2 SWAP2 SWAP1 PUSH2 0x231C JUMP JUMPDEST PUSH1 0x20 PUSH1 0x40 MLOAD DUP1 DUP4 SUB DUP2 DUP7 GAS STATICCALL ISZERO DUP1 ISZERO PUSH2 0x17ED JUMPI RETURNDATASIZE PUSH0 DUP1 RETURNDATACOPY RETURNDATASIZE PUSH0 REVERT JUMPDEST POP POP POP POP PUSH1 0x40 MLOAD RETURNDATASIZE PUSH1 0x1F NOT PUSH1 0x1F DUP3 ADD AND DUP3 ADD DUP1 PUSH1 0x40 MSTORE POP DUP2 ADD SWAP1 PUSH2 0x1811 SWAP2 SWAP1 PUSH2 0x2349 JUMP JUMPDEST LT ISZERO PUSH2 0x1852 JUMPI PUSH1 0x40 MLOAD PUSH32 0x8C379A000000000000000000000000000000000000000000000000000000000 DUP2 MSTORE PUSH1 0x4 ADD PUSH2 0x1849 SWAP1 PUSH2 0x24F4 JUMP JUMPDEST PUSH1 0x40 MLOAD DUP1 SWAP2 SUB SWAP1 REVERT JUMPDEST PUSH0 DUP4 PUSH20 0xFFFFFFFFFFFFFFFFFFFFFFFFFFFFFFFFFFFFFFFF AND PUSH4 0xA9059CBB DUP5 DUP5 PUSH1 0x40 MLOAD DUP4 PUSH4 0xFFFFFFFF AND PUSH1 0xE0 SHL DUP2 MSTORE PUSH1 0x4 ADD PUSH2 0x188E SWAP3 SWAP2 SWAP1 PUSH2 0x1FD4 JUMP JUMPDEST PUSH1 0x20 PUSH1 0x40 MLOAD DUP1 DUP4 SUB DUP2 PUSH0 DUP8 GAS CALL ISZERO DUP1 ISZERO PUSH2 0x18AA JUMPI RETURNDATASIZE PUSH0 DUP1 RETURNDATACOPY RETURNDATASIZE PUSH0 REVERT JUMPDEST POP POP POP POP PUSH1 0x40 MLOAD RETURNDATASIZE PUSH1 0x1F NOT PUSH1 0x1F DUP3 ADD AND DUP3 ADD DUP1 PUSH1 0x40 MSTORE POP DUP2 ADD SWAP1 PUSH2 0x18CE SWAP2 SWAP1 PUSH2 0x2025 JUMP JUMPDEST SWAP1 POP DUP1 PUSH2 0x1910 JUMPI PUSH1 0x40 MLOAD PUSH32 0x8C379A000000000000000000000000000000000000000000000000000000000 DUP2 MSTORE PUSH1 0x4 ADD PUSH2 0x1907 SWAP1 PUSH2 0x209A JUMP JUMPDEST PUSH1 0x40 MLOAD DUP1 SWAP2 SUB SWAP1 REVERT JUMPDEST POP POP POP POP JUMP JUMPDEST PUSH0 DUP2 DUP4 PUSH2 0x1923 SWAP2 SWAP1 PUSH2 0x2512 JUMP JUMPDEST SWAP1 POP SWAP3 SWAP2 POP POP JUMP JUMPDEST PUSH0 DUP2 DUP4 PUSH2 0x1938 SWAP2 SWAP1 PUSH2 0x2580 JUMP JUMPDEST SWAP1 POP SWAP3 SWAP2 POP POP JUMP JUMPDEST PUSH2 0x194A DUP3 DUP3 PUSH2 0xC54 JUMP JUMPDEST PUSH2 0x198D JUMPI DUP1 DUP3 PUSH1 0x40 MLOAD PUSH32 0xE2517D3F00000000000000000000000000000000000000000000000000000000 DUP2 MSTORE PUSH1 0x4 ADD PUSH2 0x1984 SWAP3 SWAP2 SWAP1 PUSH2 0x25B0 JUMP JUMPDEST PUSH1 0x40 MLOAD DUP1 SWAP2 SUB SWAP1 REVERT JUMPDEST POP POP JUMP JUMPDEST PUSH0 DUP1 REVERT JUMPDEST PUSH0 PUSH20 0xFFFFFFFFFFFFFFFFFFFFFFFFFFFFFFFFFFFFFFFF DUP3 AND SWAP1 POP SWAP2 SWAP1 POP JUMP JUMPDEST PUSH0 PUSH2 0x19BE DUP3 PUSH2 0x1995 JUMP JUMPDEST SWAP1 POP SWAP2 SWAP1 POP JUMP JUMPDEST PUSH2 0x19CE DUP2 PUSH2 0x19B4 JUMP JUMPDEST DUP2 EQ PUSH2 0x19D8 JUMPI PUSH0 DUP1 REVERT JUMPDEST POP JUMP JUMPDEST PUSH0 DUP2 CALLDATALOAD SWAP1 POP PUSH2 0x19E9 DUP2 PUSH2 0x19C5 JUMP JUMPDEST SWAP3 SWAP2 POP POP JUMP JUMPDEST PUSH0 PUSH1 0x20 DUP3 DUP5 SUB SLT ISZERO PUSH2 0x1A04 JUMPI PUSH2 0x1A03 PUSH2 0x1991 JUMP JUMPDEST JUMPDEST PUSH0 PUSH2 0x1A11 DUP5 DUP3 DUP6 ADD PUSH2 0x19DB JUMP JUMPDEST SWAP2 POP POP SWAP3 SWAP2 POP POP JUMP JUMPDEST PUSH0 DUP2 SWAP1 POP SWAP2 SWAP1 POP JUMP JUMPDEST PUSH2 0x1A2C DUP2 PUSH2 0x1A1A JUMP JUMPDEST DUP3 MSTORE POP POP JUMP JUMPDEST PUSH0 PUSH1 0x20 DUP3 ADD SWAP1 POP PUSH2 0x1A45 PUSH0 DUP4 ADD DUP5 PUSH2 0x1A23 JUMP JUMPDEST SWAP3 SWAP2 POP POP JUMP JUMPDEST PUSH0 PUSH32 0xFFFFFFFF00000000000000000000000000000000000000000000000000000000 DUP3 AND SWAP1 POP SWAP2 SWAP1 POP JUMP JUMPDEST PUSH2 0x1A7F DUP2 PUSH2 0x1A4B JUMP JUMPDEST DUP2 EQ PUSH2 0x1A89 JUMPI PUSH0 DUP1 REVERT JUMPDEST POP JUMP JUMPDEST PUSH0 DUP2 CALLDATALOAD SWAP1 POP PUSH2 0x1A9A DUP2 PUSH2 0x1A76 JUMP JUMPDEST SWAP3 SWAP2 POP POP JUMP JUMPDEST PUSH0 PUSH1 0x20 DUP3 DUP5 SUB SLT ISZERO PUSH2 0x1AB5 JUMPI PUSH2 0x1AB4 PUSH2 0x1991 JUMP JUMPDEST JUMPDEST PUSH0 PUSH2 0x1AC2 DUP5 DUP3 DUP6 ADD PUSH2 0x1A8C JUMP JUMPDEST SWAP2 POP POP SWAP3 SWAP2 POP POP JUMP JUMPDEST PUSH0 DUP2 ISZERO ISZERO SWAP1 POP SWAP2 SWAP1 POP JUMP JUMPDEST PUSH2 0x1ADF DUP2 PUSH2 0x1ACB JUMP JUMPDEST DUP3 MSTORE POP POP JUMP JUMPDEST PUSH0 PUSH1 0x20 DUP3 ADD SWAP1 POP PUSH2 0x1AF8 PUSH0 DUP4 ADD DUP5 PUSH2 0x1AD6 JUMP JUMPDEST SWAP3 SWAP2 POP POP JUMP JUMPDEST PUSH0 DUP2 MLOAD SWAP1 POP SWAP2 SWAP1 POP JUMP JUMPDEST PUSH0 DUP3 DUP3 MSTORE PUSH1 0x20 DUP3 ADD SWAP1 POP SWAP3 SWAP2 POP POP JUMP JUMPDEST PUSH0 DUP2 SWAP1 POP PUSH1 0x20 DUP3 ADD SWAP1 POP SWAP2 SWAP1 POP JUMP JUMPDEST PUSH2 0x1B30 DUP2 PUSH2 0x1A1A JUMP JUMPDEST DUP3 MSTORE POP POP JUMP JUMPDEST PUSH0 PUSH2 0x1B41 DUP4 DUP4 PUSH2 0x1B27 JUMP JUMPDEST PUSH1 0x20 DUP4 ADD SWAP1 POP SWAP3 SWAP2 POP POP JUMP JUMPDEST PUSH0 PUSH1 0x20 DUP3 ADD SWAP1 POP SWAP2 SWAP1 POP JUMP JUMPDEST PUSH0 PUSH2 0x1B63 DUP3 PUSH2 0x1AFE JUMP JUMPDEST PUSH2 0x1B6D DUP2 DUP6 PUSH2 0x1B08 JUMP JUMPDEST SWAP4 POP PUSH2 0x1B78 DUP4 PUSH2 0x1B18 JUMP JUMPDEST DUP1 PUSH0 JUMPDEST DUP4 DUP2 LT ISZERO PUSH2 0x1BA8 JUMPI DUP2 MLOAD PUSH2 0x1B8F DUP9 DUP3 PUSH2 0x1B36 JUMP JUMPDEST SWAP8 POP PUSH2 0x1B9A DUP4 PUSH2 0x1B4D JUMP JUMPDEST SWAP3 POP POP PUSH1 0x1 DUP2 ADD SWAP1 POP PUSH2 0x1B7B JUMP JUMPDEST POP DUP6 SWAP4 POP POP POP POP SWAP3 SWAP2 POP POP JUMP JUMPDEST PUSH0 PUSH1 0x20 DUP3 ADD SWAP1 POP DUP2 DUP2 SUB PUSH0 DUP4 ADD MSTORE PUSH2 0x1BCD DUP2 DUP5 PUSH2 0x1B59 JUMP JUMPDEST SWAP1 POP SWAP3 SWAP2 POP POP JUMP JUMPDEST PUSH2 0x1BDE DUP2 PUSH2 0x1A1A JUMP JUMPDEST DUP2 EQ PUSH2 0x1BE8 JUMPI PUSH0 DUP1 REVERT JUMPDEST POP JUMP JUMPDEST PUSH0 DUP2 CALLDATALOAD SWAP1 POP PUSH2 0x1BF9 DUP2 PUSH2 0x1BD5 JUMP JUMPDEST SWAP3 SWAP2 POP POP JUMP JUMPDEST PUSH0 PUSH1 0x20 DUP3 DUP5 SUB SLT ISZERO PUSH2 0x1C14 JUMPI PUSH2 0x1C13 PUSH2 0x1991 JUMP JUMPDEST JUMPDEST PUSH0 PUSH2 0x1C21 DUP5 DUP3 DUP6 ADD PUSH2 0x1BEB JUMP JUMPDEST SWAP2 POP POP SWAP3 SWAP2 POP POP JUMP JUMPDEST PUSH2 0x1C33 DUP2 PUSH2 0x19B4 JUMP JUMPDEST DUP3 MSTORE POP POP JUMP JUMPDEST PUSH0 PUSH1 0xA0 DUP3 ADD SWAP1 POP PUSH2 0x1C4C PUSH0 DUP4 ADD DUP9 PUSH2 0x1A23 JUMP JUMPDEST PUSH2 0x1C59 PUSH1 0x20 DUP4 ADD DUP8 PUSH2 0x1A23 JUMP JUMPDEST PUSH2 0x1C66 PUSH1 0x40 DUP4 ADD DUP7 PUSH2 0x1A23 JUMP JUMPDEST PUSH2 0x1C73 PUSH1 0x60 DUP4 ADD DUP6 PUSH2 0x1A23 JUMP JUMPDEST PUSH2 0x1C80 PUSH1 0x80 DUP4 ADD DUP5 PUSH2 0x1C2A JUMP JUMPDEST SWAP7 SWAP6 POP POP POP POP POP POP JUMP JUMPDEST PUSH0 DUP2 SWAP1 POP SWAP2 SWAP1 POP JUMP JUMPDEST PUSH2 0x1C9C DUP2 PUSH2 0x1C8A JUMP JUMPDEST DUP2 EQ PUSH2 0x1CA6 JUMPI PUSH0 DUP1 REVERT JUMPDEST POP JUMP JUMPDEST PUSH0 DUP2 CALLDATALOAD SWAP1 POP PUSH2 0x1CB7 DUP2 PUSH2 0x1C93 JUMP JUMPDEST SWAP3 SWAP2 POP POP JUMP JUMPDEST PUSH0 PUSH1 0x20 DUP3 DUP5 SUB SLT ISZERO PUSH2 0x1CD2 JUMPI PUSH2 0x1CD1 PUSH2 0x1991 JUMP JUMPDEST JUMPDEST PUSH0 PUSH2 0x1CDF DUP5 DUP3 DUP6 ADD PUSH2 0x1CA9 JUMP JUMPDEST SWAP2 POP POP SWAP3 SWAP2 POP POP JUMP JUMPDEST PUSH2 0x1CF1 DUP2 PUSH2 0x1C8A JUMP JUMPDEST DUP3 MSTORE POP POP JUMP JUMPDEST PUSH0 PUSH1 0x20 DUP3 ADD SWAP1 POP PUSH2 0x1D0A PUSH0 DUP4 ADD DUP5 PUSH2 0x1CE8 JUMP JUMPDEST SWAP3 SWAP2 POP POP JUMP JUMPDEST PUSH0 DUP1 PUSH1 0x40 DUP4 DUP6 SUB SLT ISZERO PUSH2 0x1D26 JUMPI PUSH2 0x1D25 PUSH2 0x1991 JUMP JUMPDEST JUMPDEST PUSH0 PUSH2 0x1D33 DUP6 DUP3 DUP7 ADD PUSH2 0x1CA9 JUMP JUMPDEST SWAP3 POP POP PUSH1 0x20 PUSH2 0x1D44 DUP6 DUP3 DUP7 ADD PUSH2 0x19DB JUMP JUMPDEST SWAP2 POP POP SWAP3 POP SWAP3 SWAP1 POP JUMP JUMPDEST PUSH0 DUP2 SWAP1 POP SWAP2 SWAP1 POP JUMP JUMPDEST PUSH0 PUSH2 0x1D71 PUSH2 0x1D6C PUSH2 0x1D67 DUP5 PUSH2 0x1995 JUMP JUMPDEST PUSH2 0x1D4E JUMP JUMPDEST PUSH2 0x1995 JUMP JUMPDEST SWAP1 POP SWAP2 SWAP1 POP JUMP JUMPDEST PUSH0 PUSH2 0x1D82 DUP3 PUSH2 0x1D57 JUMP JUMPDEST SWAP1 POP SWAP2 SWAP1 POP JUMP JUMPDEST PUSH0 PUSH2 0x1D93 DUP3 PUSH2 0x1D78 JUMP JUMPDEST SWAP1 POP SWAP2 SWAP1 POP JUMP JUMPDEST PUSH2 0x1DA3 DUP2 PUSH2 0x1D89 JUMP JUMPDEST DUP3 MSTORE POP POP JUMP JUMPDEST PUSH0 PUSH1 0x20 DUP3 ADD SWAP1 POP PUSH2 0x1DBC PUSH0 DUP4 ADD DUP5 PUSH2 0x1D9A JUMP JUMPDEST SWAP3 SWAP2 POP POP JUMP JUMPDEST PUSH0 DUP1 PUSH0 DUP1 PUSH1 0x80 DUP6 DUP8 SUB SLT ISZERO PUSH2 0x1DDA JUMPI PUSH2 0x1DD9 PUSH2 0x1991 JUMP JUMPDEST JUMPDEST PUSH0 PUSH2 0x1DE7 DUP8 DUP3 DUP9 ADD PUSH2 0x1BEB JUMP JUMPDEST SWAP5 POP POP PUSH1 0x20 PUSH2 0x1DF8 DUP8 DUP3 DUP9 ADD PUSH2 0x1BEB JUMP JUMPDEST SWAP4 POP POP PUSH1 0x40 PUSH2 0x1E09 DUP8 DUP3 DUP9 ADD PUSH2 0x1BEB JUMP JUMPDEST SWAP3 POP POP PUSH1 0x60 PUSH2 0x1E1A DUP8 DUP3 DUP9 ADD PUSH2 0x19DB JUMP JUMPDEST SWAP2 POP POP SWAP3 SWAP6 SWAP2 SWAP5 POP SWAP3 POP JUMP JUMPDEST PUSH32 0x4E487B7100000000000000000000000000000000000000000000000000000000 PUSH0 MSTORE PUSH1 0x11 PUSH1 0x4 MSTORE PUSH1 0x24 PUSH0 REVERT JUMPDEST PUSH0 PUSH2 0x1E5D DUP3 PUSH2 0x1A1A JUMP JUMPDEST SWAP2 POP PUSH32 0xFFFFFFFFFFFFFFFFFFFFFFFFFFFFFFFFFFFFFFFFFFFFFFFFFFFFFFFFFFFFFFFF DUP3 SUB PUSH2 0x1E8F JUMPI PUSH2 0x1E8E PUSH2 0x1E26 JUMP JUMPDEST JUMPDEST PUSH1 0x1 DUP3 ADD SWAP1 POP SWAP2 SWAP1 POP JUMP JUMPDEST PUSH32 0x4E487B7100000000000000000000000000000000000000000000000000000000 PUSH0 MSTORE PUSH1 0x41 PUSH1 0x4 MSTORE PUSH1 0x24 PUSH0 REVERT JUMPDEST PUSH32 0x4E487B7100000000000000000000000000000000000000000000000000000000 PUSH0 MSTORE PUSH1 0x32 PUSH1 0x4 MSTORE PUSH1 0x24 PUSH0 REVERT JUMPDEST PUSH0 DUP3 DUP3 MSTORE PUSH1 0x20 DUP3 ADD SWAP1 POP SWAP3 SWAP2 POP POP JUMP JUMPDEST PUSH32 0x416D6F756E74206D757374206265203E20300000000000000000000000000000 PUSH0 DUP3 ADD MSTORE POP JUMP JUMPDEST PUSH0 PUSH2 0x1F38 PUSH1 0x12 DUP4 PUSH2 0x1EF4 JUMP JUMPDEST SWAP2 POP PUSH2 0x1F43 DUP3 PUSH2 0x1F04 JUMP JUMPDEST PUSH1 0x20 DUP3 ADD SWAP1 POP SWAP2 SWAP1 POP JUMP JUMPDEST PUSH0 PUSH1 0x20 DUP3 ADD SWAP1 POP DUP2 DUP2 SUB PUSH0 DUP4 ADD MSTORE PUSH2 0x1F65 DUP2 PUSH2 0x1F2C JUMP JUMPDEST SWAP1 POP SWAP2 SWAP1 POP JUMP JUMPDEST PUSH32 0x496E73756666696369656E742062616C616E6365000000000000000000000000 PUSH0 DUP3 ADD MSTORE POP JUMP JUMPDEST PUSH0 PUSH2 0x1FA0 PUSH1 0x14 DUP4 PUSH2 0x1EF4 JUMP JUMPDEST SWAP2 POP PUSH2 0x1FAB DUP3 PUSH2 0x1F6C JUMP JUMPDEST PUSH1 0x20 DUP3 ADD SWAP1 POP SWAP2 SWAP1 POP JUMP JUMPDEST PUSH0 PUSH1 0x20 DUP3 ADD SWAP1 POP DUP2 DUP2 SUB PUSH0 DUP4 ADD MSTORE PUSH2 0x1FCD DUP2 PUSH2 0x1F94 JUMP JUMPDEST SWAP1 POP SWAP2 SWAP1 POP JUMP JUMPDEST PUSH0 PUSH1 0x40 DUP3 ADD SWAP1 POP PUSH2 0x1FE7 PUSH0 DUP4 ADD DUP6 PUSH2 0x1C2A JUMP JUMPDEST PUSH2 0x1FF4 PUSH1 0x20 DUP4 ADD DUP5 PUSH2 0x1A23 JUMP JUMPDEST SWAP4 SWAP3 POP POP POP JUMP JUMPDEST PUSH2 0x2004 DUP2 PUSH2 0x1ACB JUMP JUMPDEST DUP2 EQ PUSH2 0x200E JUMPI PUSH0 DUP1 REVERT JUMPDEST POP JUMP JUMPDEST PUSH0 DUP2 MLOAD SWAP1 POP PUSH2 0x201F DUP2 PUSH2 0x1FFB JUMP JUMPDEST SWAP3 SWAP2 POP POP JUMP JUMPDEST PUSH0 PUSH1 0x20 DUP3 DUP5 SUB SLT ISZERO PUSH2 0x203A JUMPI PUSH2 0x2039 PUSH2 0x1991 JUMP JUMPDEST JUMPDEST PUSH0 PUSH2 0x2047 DUP5 DUP3 DUP6 ADD PUSH2 0x2011 JUMP JUMPDEST SWAP2 POP POP SWAP3 SWAP2 POP POP JUMP JUMPDEST PUSH32 0x5472616E73666572206661696C65640000000000000000000000000000000000 PUSH0 DUP3 ADD MSTORE POP JUMP JUMPDEST PUSH0 PUSH2 0x2084 PUSH1 0xF DUP4 PUSH2 0x1EF4 JUMP JUMPDEST SWAP2 POP PUSH2 0x208F DUP3 PUSH2 0x2050 JUMP JUMPDEST PUSH1 0x20 DUP3 ADD SWAP1 POP SWAP2 SWAP1 POP JUMP JUMPDEST PUSH0 PUSH1 0x20 DUP3 ADD SWAP1 POP DUP2 DUP2 SUB PUSH0 DUP4 ADD MSTORE PUSH2 0x20B1 DUP2 PUSH2 0x2078 JUMP JUMPDEST SWAP1 POP SWAP2 SWAP1 POP JUMP JUMPDEST PUSH32 0x4F76657220636C61696D65640000000000000000000000000000000000000000 PUSH0 DUP3 ADD MSTORE POP JUMP JUMPDEST PUSH0 PUSH2 0x20EC PUSH1 0xC DUP4 PUSH2 0x1EF4 JUMP JUMPDEST SWAP2 POP PUSH2 0x20F7 DUP3 PUSH2 0x20B8 JUMP JUMPDEST PUSH1 0x20 DUP3 ADD SWAP1 POP SWAP2 SWAP1 POP JUMP JUMPDEST PUSH0 PUSH1 0x20 DUP3 ADD SWAP1 POP DUP2 DUP2 SUB PUSH0 DUP4 ADD MSTORE PUSH2 0x2119 DUP2 PUSH2 0x20E0 JUMP JUMPDEST SWAP1 POP SWAP2 SWAP1 POP JUMP JUMPDEST PUSH32 0x4E6F207265776172647300000000000000000000000000000000000000000000 PUSH0 DUP3 ADD MSTORE POP JUMP JUMPDEST PUSH0 PUSH2 0x2154 PUSH1 0xA DUP4 PUSH2 0x1EF4 JUMP JUMPDEST SWAP2 POP PUSH2 0x215F DUP3 PUSH2 0x2120 JUMP JUMPDEST PUSH1 0x20 DUP3 ADD SWAP1 POP SWAP2 SWAP1 POP JUMP JUMPDEST PUSH0 PUSH1 0x20 DUP3 ADD SWAP1 POP DUP2 DUP2 SUB PUSH0 DUP4 ADD MSTORE PUSH2 0x2181 DUP2 PUSH2 0x2148 JUMP JUMPDEST SWAP1 POP SWAP2 SWAP1 POP JUMP JUMPDEST PUSH0 PUSH1 0x40 DUP3 ADD SWAP1 POP PUSH2 0x219B PUSH0 DUP4 ADD DUP6 PUSH2 0x1A23 JUMP JUMPDEST PUSH2 0x21A8 PUSH1 0x20 DUP4 ADD DUP5 PUSH2 0x1C2A JUMP JUMPDEST SWAP4 SWAP3 POP POP POP JUMP JUMPDEST PUSH0 PUSH1 0x60 DUP3 ADD SWAP1 POP PUSH2 0x21C2 PUSH0 DUP4 ADD DUP7 PUSH2 0x1C2A JUMP JUMPDEST PUSH2 0x21CF PUSH1 0x20 DUP4 ADD DUP6 PUSH2 0x1C2A JUMP JUMPDEST PUSH2 0x21DC PUSH1 0x40 DUP4 ADD DUP5 PUSH2 0x1A23 JUMP JUMPDEST SWAP5 SWAP4 POP POP POP POP JUMP JUMPDEST PUSH32 0x53746172742074696D6520696E20706173740000000000000000000000000000 PUSH0 DUP3 ADD MSTORE POP JUMP JUMPDEST PUSH0 PUSH2 0x2218 PUSH1 0x12 DUP4 PUSH2 0x1EF4 JUMP JUMPDEST SWAP2 POP PUSH2 0x2223 DUP3 PUSH2 0x21E4 JUMP JUMPDEST PUSH1 0x20 DUP3 ADD SWAP1 POP SWAP2 SWAP1 POP JUMP JUMPDEST PUSH0 PUSH1 0x20 DUP3 ADD SWAP1 POP DUP2 DUP2 SUB PUSH0 DUP4 ADD MSTORE PUSH2 0x2245 DUP2 PUSH2 0x220C JUMP JUMPDEST SWAP1 POP SWAP2 SWAP1 POP JUMP JUMPDEST PUSH32 0x496E76616C6964206475726174696F6E00000000000000000000000000000000 PUSH0 DUP3 ADD MSTORE POP JUMP JUMPDEST PUSH0 PUSH2 0x2280 PUSH1 0x10 DUP4 PUSH2 0x1EF4 JUMP JUMPDEST SWAP2 POP PUSH2 0x228B DUP3 PUSH2 0x224C JUMP JUMPDEST PUSH1 0x20 DUP3 ADD SWAP1 POP SWAP2 SWAP1 POP JUMP JUMPDEST PUSH0 PUSH1 0x20 DUP3 ADD SWAP1 POP DUP2 DUP2 SUB PUSH0 DUP4 ADD MSTORE PUSH2 0x22AD DUP2 PUSH2 0x2274 JUMP JUMPDEST SWAP1 POP SWAP2 SWAP1 POP JUMP JUMPDEST PUSH32 0x496E76616C69642072657761726420616D6F756E740000000000000000000000 PUSH0 DUP3 ADD MSTORE POP JUMP JUMPDEST PUSH0 PUSH2 0x22E8 PUSH1 0x15 DUP4 PUSH2 0x1EF4 JUMP JUMPDEST SWAP2 POP PUSH2 0x22F3 DUP3 PUSH2 0x22B4 JUMP JUMPDEST PUSH1 0x20 DUP3 ADD SWAP1 POP SWAP2 SWAP1 POP JUMP JUMPDEST PUSH0 PUSH1 0x20 DUP3 ADD SWAP1 POP DUP2 DUP2 SUB PUSH0 DUP4 ADD MSTORE PUSH2 0x2315 DUP2 PUSH2 0x22DC JUMP JUMPDEST SWAP1 POP SWAP2 SWAP1 POP JUMP JUMPDEST PUSH0 PUSH1 0x20 DUP3 ADD SWAP1 POP PUSH2 0x232F PUSH0 DUP4 ADD DUP5 PUSH2 0x1C2A JUMP JUMPDEST SWAP3 SWAP2 POP POP JUMP JUMPDEST PUSH0 DUP2 MLOAD SWAP1 POP PUSH2 0x2343 DUP2 PUSH2 0x1BD5 JUMP JUMPDEST SWAP3 SWAP2 POP POP JUMP JUMPDEST PUSH0 PUSH1 0x20 DUP3 DUP5 SUB SLT ISZERO PUSH2 0x235E JUMPI PUSH2 0x235D PUSH2 0x1991 JUMP JUMPDEST JUMPDEST PUSH0 PUSH2 0x236B DUP5 DUP3 DUP6 ADD PUSH2 0x2335 JUMP JUMPDEST SWAP2 POP POP SWAP3 SWAP2 POP POP JUMP JUMPDEST PUSH32 0x496E73756666696369656E742072657761726420746F6B656E73000000000000 PUSH0 DUP3 ADD MSTORE POP JUMP JUMPDEST PUSH0 PUSH2 0x23A8 PUSH1 0x1A DUP4 PUSH2 0x1EF4 JUMP JUMPDEST SWAP2 POP PUSH2 0x23B3 DUP3 PUSH2 0x2374 JUMP JUMPDEST PUSH1 0x20 DUP3 ADD SWAP1 POP SWAP2 SWAP1 POP JUMP JUMPDEST PUSH0 PUSH1 0x20 DUP3 ADD SWAP1 POP DUP2 DUP2 SUB PUSH0 DUP4 ADD MSTORE PUSH2 0x23D5 DUP2 PUSH2 0x239C JUMP JUMPDEST SWAP1 POP SWAP2 SWAP1 POP JUMP JUMPDEST PUSH0 PUSH2 0x23E6 DUP3 PUSH2 0x1A1A JUMP JUMPDEST SWAP2 POP PUSH2 0x23F1 DUP4 PUSH2 0x1A1A JUMP JUMPDEST SWAP3 POP DUP3 DUP3 ADD SWAP1 POP DUP1 DUP3 GT ISZERO PUSH2 0x2409 JUMPI PUSH2 0x2408 PUSH2 0x1E26 JUMP JUMPDEST JUMPDEST SWAP3 SWAP2 POP POP JUMP JUMPDEST PUSH32 0x5265656E7472616E637947756172643A207265656E7472616E742063616C6C00 PUSH0 DUP3 ADD MSTORE POP JUMP JUMPDEST PUSH0 PUSH2 0x2443 PUSH1 0x1F DUP4 PUSH2 0x1EF4 JUMP JUMPDEST SWAP2 POP PUSH2 0x244E DUP3 PUSH2 0x240F JUMP JUMPDEST PUSH1 0x20 DUP3 ADD SWAP1 POP SWAP2 SWAP1 POP JUMP JUMPDEST PUSH0 PUSH1 0x20 DUP3 ADD SWAP1 POP DUP2 DUP2 SUB PUSH0 DUP4 ADD MSTORE PUSH2 0x2470 DUP2 PUSH2 0x2437 JUMP JUMPDEST SWAP1 POP SWAP2 SWAP1 POP JUMP JUMPDEST PUSH0 PUSH2 0x2481 DUP3 PUSH2 0x1A1A JUMP JUMPDEST SWAP2 POP PUSH2 0x248C DUP4 PUSH2 0x1A1A JUMP JUMPDEST SWAP3 POP DUP3 DUP3 SUB SWAP1 POP DUP2 DUP2 GT ISZERO PUSH2 0x24A4 JUMPI PUSH2 0x24A3 PUSH2 0x1E26 JUMP JUMPDEST JUMPDEST SWAP3 SWAP2 POP POP JUMP JUMPDEST PUSH32 0x496E73756666696369656E74207265776172642062616C616E63650000000000 PUSH0 DUP3 ADD MSTORE POP JUMP JUMPDEST PUSH0 PUSH2 0x24DE PUSH1 0x1B DUP4 PUSH2 0x1EF4 JUMP JUMPDEST SWAP2 POP PUSH2 0x24E9 DUP3 PUSH2 0x24AA JUMP JUMPDEST PUSH1 0x20 DUP3 ADD SWAP1 POP SWAP2 SWAP1 POP JUMP JUMPDEST PUSH0 PUSH1 0x20 DUP3 ADD SWAP1 POP DUP2 DUP2 SUB PUSH0 DUP4 ADD MSTORE PUSH2 0x250B DUP2 PUSH2 0x24D2 JUMP JUMPDEST SWAP1 POP SWAP2 SWAP1 POP JUMP JUMPDEST PUSH0 PUSH2 0x251C DUP3 PUSH2 0x1A1A JUMP JUMPDEST SWAP2 POP PUSH2 0x2527 DUP4 PUSH2 0x1A1A JUMP JUMPDEST SWAP3 POP DUP3 DUP3 MUL PUSH2 0x2535 DUP2 PUSH2 0x1A1A JUMP JUMPDEST SWAP2 POP DUP3 DUP3 DIV DUP5 EQ DUP4 ISZERO OR PUSH2 0x254C JUMPI PUSH2 0x254B PUSH2 0x1E26 JUMP JUMPDEST JUMPDEST POP SWAP3 SWAP2 POP POP JUMP JUMPDEST PUSH32 0x4E487B7100000000000000000000000000000000000000000000000000000000 PUSH0 MSTORE PUSH1 0x12 PUSH1 0x4 MSTORE PUSH1 0x24 PUSH0 REVERT JUMPDEST PUSH0 PUSH2 0x258A DUP3 PUSH2 0x1A1A JUMP JUMPDEST SWAP2 POP PUSH2 0x2595 DUP4 PUSH2 0x1A1A JUMP JUMPDEST SWAP3 POP DUP3 PUSH2 0x25A5 JUMPI PUSH2 0x25A4 PUSH2 0x2553 JUMP JUMPDEST JUMPDEST DUP3 DUP3 DIV SWAP1 POP SWAP3 SWAP2 POP POP JUMP JUMPDEST PUSH0 PUSH1 0x40 DUP3 ADD SWAP1 POP PUSH2 0x25C3 PUSH0 DUP4 ADD DUP6 PUSH2 0x1C2A JUMP JUMPDEST PUSH2 0x25D0 PUSH1 0x20 DUP4 ADD DUP5 PUSH2 0x1CE8 JUMP JUMPDEST SWAP4 SWAP3 POP POP POP JUMP INVALID LOG2 PUSH5 0x6970667358 0x22 SLT KECCAK256 DIV LOG0 0xB4 0xBD PUSH27 0x4C667A33618748745D0EF84EE37EBF247E825679E1E4C971183850 PUSH5 0x736F6C6343 STOP ADDMOD XOR STOP CALLER "
				},
				"gasEstimates": {
					"creation": {
						"codeDepositCost": "1948200",
						"executionCost": "infinite",
						"totalCost": "infinite"
					},
					"external": {
						"DEFAULT_ADMIN_ROLE()": "374",
						"REWARD_MANAGER()": "348",
						"addRewardSchedule(uint256,uint256,uint256,address)": "infinite",
						"balanceOf(address)": "2874",
						"claimRewards()": "infinite",
						"currentScheduleId()": "2536",
						"earned(address)": "infinite",
						"getActiveSchedules()": "7000",
						"getRoleAdmin(bytes32)": "infinite",
						"grantRole(bytes32,address)": "infinite",
						"hasRole(bytes32,address)": "3144",
						"renounceRole(bytes32,address)": "infinite",
						"revokeRole(bytes32,address)": "infinite",
						"rewardSchedules(uint256)": "infinite",
						"stake(uint256)": "infinite",
						"stakingToken()": "infinite",
						"supportsInterface(bytes4)": "763",
						"totalStaked()": "2521",
						"withdraw(uint256)": "infinite"
					},
					"internal": {
						"_earnedPerSchedule(address,uint256)": "infinite",
						"_sendReward(address,address,uint256)": "infinite",
						"_updateRewards(address)": "infinite"
					}
				},
				"methodIdentifiers": {
					"DEFAULT_ADMIN_ROLE()": "a217fddf",
					"REWARD_MANAGER()": "5932fdba",
					"addRewardSchedule(uint256,uint256,uint256,address)": "e075d82c",
					"balanceOf(address)": "70a08231",
					"claimRewards()": "372500ab",
					"currentScheduleId()": "85ecdd93",
					"earned(address)": "008cc262",
					"getActiveSchedules()": "0b35a4b0",
					"getRoleAdmin(bytes32)": "248a9ca3",
					"grantRole(bytes32,address)": "2f2ff15d",
					"hasRole(bytes32,address)": "91d14854",
					"renounceRole(bytes32,address)": "36568abe",
					"revokeRole(bytes32,address)": "d547741f",
					"rewardSchedules(uint256)": "1c1121c5",
					"stake(uint256)": "a694fc3a",
					"stakingToken()": "72f702f3",
					"supportsInterface(bytes4)": "01ffc9a7",
					"totalStaked()": "817b1cd2",
					"withdraw(uint256)": "2e1a7d4d"
				}
			},
			"storageLayout": {
				"storage": [
					{
						"astId": 26,
						"contract": "contracts/rewards/DynamicRewards.sol:DynamicRewards",
						"label": "_roles",
						"offset": 0,
						"slot": "0",
						"type": "t_mapping(t_bytes32,t_struct(RoleData)21_storage)"
					},
					{
						"astId": 389,
						"contract": "contracts/rewards/DynamicRewards.sol:DynamicRewards",
						"label": "_status",
						"offset": 0,
						"slot": "1",
						"type": "t_uint256"
					},
					{
						"astId": 933,
						"contract": "contracts/rewards/DynamicRewards.sol:DynamicRewards",
						"label": "_totalSupply",
						"offset": 0,
						"slot": "2",
						"type": "t_uint256"
					},
					{
						"astId": 937,
						"contract": "contracts/rewards/DynamicRewards.sol:DynamicRewards",
						"label": "_balances",
						"offset": 0,
						"slot": "3",
						"type": "t_mapping(t_address,t_uint256)"
					},
					{
						"astId": 942,
						"contract": "contracts/rewards/DynamicRewards.sol:DynamicRewards",
						"label": "rewardSchedules",
						"offset": 0,
						"slot": "4",
						"type": "t_mapping(t_uint256,t_struct(RewardSchedule)928_storage)"
					},
					{
						"astId": 944,
						"contract": "contracts/rewards/DynamicRewards.sol:DynamicRewards",
						"label": "currentScheduleId",
						"offset": 0,
						"slot": "5",
						"type": "t_uint256"
					},
					{
						"astId": 950,
						"contract": "contracts/rewards/DynamicRewards.sol:DynamicRewards",
						"label": "_userAccrued",
						"offset": 0,
						"slot": "6",
						"type": "t_mapping(t_address,t_mapping(t_uint256,t_uint256))"
					}
				],
				"types": {
					"t_address": {
						"encoding": "inplace",
						"label": "address",
						"numberOfBytes": "20"
					},
					"t_bool": {
						"encoding": "inplace",
						"label": "bool",
						"numberOfBytes": "1"
					},
					"t_bytes32": {
						"encoding": "inplace",
						"label": "bytes32",
						"numberOfBytes": "32"
					},
					"t_mapping(t_address,t_bool)": {
						"encoding": "mapping",
						"key": "t_address",
						"label": "mapping(address => bool)",
						"numberOfBytes": "32",
						"value": "t_bool"
					},
					"t_mapping(t_address,t_mapping(t_uint256,t_uint256))": {
						"encoding": "mapping",
						"key": "t_address",
						"label": "mapping(address => mapping(uint256 => uint256))",
						"numberOfBytes": "32",
						"value": "t_mapping(t_uint256,t_uint256)"
					},
					"t_mapping(t_address,t_uint256)": {
						"encoding": "mapping",
						"key": "t_address",
						"label": "mapping(address => uint256)",
						"numberOfBytes": "32",
						"value": "t_uint256"
					},
					"t_mapping(t_bytes32,t_struct(RoleData)21_storage)": {
						"encoding": "mapping",
						"key": "t_bytes32",
						"label": "mapping(bytes32 => struct AccessControl.RoleData)",
						"numberOfBytes": "32",
						"value": "t_struct(RoleData)21_storage"
					},
					"t_mapping(t_uint256,t_struct(RewardSchedule)928_storage)": {
						"encoding": "mapping",
						"key": "t_uint256",
						"label": "mapping(uint256 => struct DynamicRewards.RewardSchedule)",
						"numberOfBytes": "32",
						"value": "t_struct(RewardSchedule)928_storage"
					},
					"t_mapping(t_uint256,t_uint256)": {
						"encoding": "mapping",
						"key": "t_uint256",
						"label": "mapping(uint256 => uint256)",
						"numberOfBytes": "32",
						"value": "t_uint256"
					},
					"t_struct(RewardSchedule)928_storage": {
						"encoding": "inplace",
						"label": "struct DynamicRewards.RewardSchedule",
						"members": [
							{
								"astId": 919,
								"contract": "contracts/rewards/DynamicRewards.sol:DynamicRewards",
								"label": "startTime",
								"offset": 0,
								"slot": "0",
								"type": "t_uint256"
							},
							{
								"astId": 921,
								"contract": "contracts/rewards/DynamicRewards.sol:DynamicRewards",
								"label": "endTime",
								"offset": 0,
								"slot": "1",
								"type": "t_uint256"
							},
							{
								"astId": 923,
								"contract": "contracts/rewards/DynamicRewards.sol:DynamicRewards",
								"label": "totalRewards",
								"offset": 0,
								"slot": "2",
								"type": "t_uint256"
							},
							{
								"astId": 925,
								"contract": "contracts/rewards/DynamicRewards.sol:DynamicRewards",
								"label": "claimedRewards",
								"offset": 0,
								"slot": "3",
								"type": "t_uint256"
							},
							{
								"astId": 927,
								"contract": "contracts/rewards/DynamicRewards.sol:DynamicRewards",
								"label": "rewardsToken",
								"offset": 0,
								"slot": "4",
								"type": "t_address"
							}
						],
						"numberOfBytes": "160"
					},
					"t_struct(RoleData)21_storage": {
						"encoding": "inplace",
						"label": "struct AccessControl.RoleData",
						"members": [
							{
								"astId": 18,
								"contract": "contracts/rewards/DynamicRewards.sol:DynamicRewards",
								"label": "hasRole",
								"offset": 0,
								"slot": "0",
								"type": "t_mapping(t_address,t_bool)"
							},
							{
								"astId": 20,
								"contract": "contracts/rewards/DynamicRewards.sol:DynamicRewards",
								"label": "adminRole",
								"offset": 0,
								"slot": "1",
								"type": "t_bytes32"
							}
						],
						"numberOfBytes": "64"
					},
					"t_uint256": {
						"encoding": "inplace",
						"label": "uint256",
						"numberOfBytes": "32"
					}
				}
			},
			"userdoc": {
				"kind": "user",
				"methods": {},
				"version": 1
			}
		}
	}
}