{
	"contracts/rewards/BaseRewards.sol": {
		"BaseRewards": {
			"abi": [
				{
					"inputs": [
						{
							"internalType": "address",
							"name": "_stakingToken",
							"type": "address"
						},
						{
							"internalType": "address",
							"name": "_rewardsToken",
							"type": "address"
						},
						{
							"internalType": "address",
							"name": "initialOwner",
							"type": "address"
						}
					],
					"stateMutability": "nonpayable",
					"type": "constructor"
				},
				{
					"inputs": [
						{
							"internalType": "address",
							"name": "owner",
							"type": "address"
						}
					],
					"name": "OwnableInvalidOwner",
					"type": "error"
				},
				{
					"inputs": [
						{
							"internalType": "address",
							"name": "account",
							"type": "address"
						}
					],
					"name": "OwnableUnauthorizedAccount",
					"type": "error"
				},
				{
					"anonymous": false,
					"inputs": [
						{
							"indexed": true,
							"internalType": "address",
							"name": "previousOwner",
							"type": "address"
						},
						{
							"indexed": true,
							"internalType": "address",
							"name": "newOwner",
							"type": "address"
						}
					],
					"name": "OwnershipTransferred",
					"type": "event"
				},
				{
					"anonymous": false,
					"inputs": [
						{
							"indexed": true,
							"internalType": "address",
							"name": "user",
							"type": "address"
						},
						{
							"indexed": false,
							"internalType": "uint256",
							"name": "reward",
							"type": "uint256"
						}
					],
					"name": "RewardPaid",
					"type": "event"
				},
				{
					"anonymous": false,
					"inputs": [
						{
							"indexed": true,
							"internalType": "address",
							"name": "user",
							"type": "address"
						},
						{
							"indexed": false,
							"internalType": "uint256",
							"name": "amount",
							"type": "uint256"
						}
					],
					"name": "Staked",
					"type": "event"
				},
				{
					"anonymous": false,
					"inputs": [
						{
							"indexed": true,
							"internalType": "address",
							"name": "user",
							"type": "address"
						},
						{
							"indexed": false,
							"internalType": "uint256",
							"name": "amount",
							"type": "uint256"
						}
					],
					"name": "Withdrawn",
					"type": "event"
				},
				{
					"inputs": [
						{
							"internalType": "address",
							"name": "account",
							"type": "address"
						}
					],
					"name": "balanceOf",
					"outputs": [
						{
							"internalType": "uint256",
							"name": "",
							"type": "uint256"
						}
					],
					"stateMutability": "view",
					"type": "function"
				},
				{
					"inputs": [],
					"name": "claimReward",
					"outputs": [],
					"stateMutability": "nonpayable",
					"type": "function"
				},
				{
					"inputs": [
						{
							"internalType": "address",
							"name": "account",
							"type": "address"
						}
					],
					"name": "earned",
					"outputs": [
						{
							"internalType": "uint256",
							"name": "",
							"type": "uint256"
						}
					],
					"stateMutability": "view",
					"type": "function"
				},
				{
					"inputs": [],
					"name": "lastUpdateTime",
					"outputs": [
						{
							"internalType": "uint256",
							"name": "",
							"type": "uint256"
						}
					],
					"stateMutability": "view",
					"type": "function"
				},
				{
					"inputs": [],
					"name": "owner",
					"outputs": [
						{
							"internalType": "address",
							"name": "",
							"type": "address"
						}
					],
					"stateMutability": "view",
					"type": "function"
				},
				{
					"inputs": [],
					"name": "renounceOwnership",
					"outputs": [],
					"stateMutability": "nonpayable",
					"type": "function"
				},
				{
					"inputs": [
						{
							"internalType": "address",
							"name": "tokenAddress",
							"type": "address"
						},
						{
							"internalType": "uint256",
							"name": "amount",
							"type": "uint256"
						}
					],
					"name": "rescueERC20",
					"outputs": [],
					"stateMutability": "nonpayable",
					"type": "function"
				},
				{
					"inputs": [],
					"name": "rewardPerToken",
					"outputs": [
						{
							"internalType": "uint256",
							"name": "",
							"type": "uint256"
						}
					],
					"stateMutability": "view",
					"type": "function"
				},
				{
					"inputs": [],
					"name": "rewardPerTokenStored",
					"outputs": [
						{
							"internalType": "uint256",
							"name": "",
							"type": "uint256"
						}
					],
					"stateMutability": "view",
					"type": "function"
				},
				{
					"inputs": [],
					"name": "rewardRate",
					"outputs": [
						{
							"internalType": "uint256",
							"name": "",
							"type": "uint256"
						}
					],
					"stateMutability": "view",
					"type": "function"
				},
				{
					"inputs": [
						{
							"internalType": "address",
							"name": "",
							"type": "address"
						}
					],
					"name": "rewards",
					"outputs": [
						{
							"internalType": "uint256",
							"name": "",
							"type": "uint256"
						}
					],
					"stateMutability": "view",
					"type": "function"
				},
				{
					"inputs": [],
					"name": "rewardsToken",
					"outputs": [
						{
							"internalType": "contract IERC20",
							"name": "",
							"type": "address"
						}
					],
					"stateMutability": "view",
					"type": "function"
				},
				{
					"inputs": [
						{
							"internalType": "uint256",
							"name": "_rewardRate",
							"type": "uint256"
						}
					],
					"name": "setRewardRate",
					"outputs": [],
					"stateMutability": "nonpayable",
					"type": "function"
				},
				{
					"inputs": [
						{
							"internalType": "uint256",
							"name": "amount",
							"type": "uint256"
						}
					],
					"name": "stake",
					"outputs": [],
					"stateMutability": "nonpayable",
					"type": "function"
				},
				{
					"inputs": [],
					"name": "stakingToken",
					"outputs": [
						{
							"internalType": "contract IERC20",
							"name": "",
							"type": "address"
						}
					],
					"stateMutability": "view",
					"type": "function"
				},
				{
					"inputs": [],
					"name": "totalSupply",
					"outputs": [
						{
							"internalType": "uint256",
							"name": "",
							"type": "uint256"
						}
					],
					"stateMutability": "view",
					"type": "function"
				},
				{
					"inputs": [
						{
							"internalType": "address",
							"name": "newOwner",
							"type": "address"
						}
					],
					"name": "transferOwnership",
					"outputs": [],
					"stateMutability": "nonpayable",
					"type": "function"
				},
				{
					"inputs": [
						{
							"internalType": "address",
							"name": "",
							"type": "address"
						}
					],
					"name": "userRewardPerTokenPaid",
					"outputs": [
						{
							"internalType": "uint256",
							"name": "",
							"type": "uint256"
						}
					],
					"stateMutability": "view",
					"type": "function"
				},
				{
					"inputs": [
						{
							"internalType": "uint256",
							"name": "amount",
							"type": "uint256"
						}
					],
					"name": "withdraw",
					"outputs": [],
					"stateMutability": "nonpayable",
					"type": "function"
				}
			],
			"devdoc": {
				"errors": {
					"OwnableInvalidOwner(address)": [
						{
							"details": "The owner is not a valid owner account. (eg. `address(0)`)"
						}
					],
					"OwnableUnauthorizedAccount(address)": [
						{
							"details": "The caller account is not authorized to perform an operation."
						}
					]
				},
				"kind": "dev",
				"methods": {
					"owner()": {
						"details": "Returns the address of the current owner."
					},
					"renounceOwnership()": {
						"details": "Leaves the contract without owner. It will not be possible to call `onlyOwner` functions. Can only be called by the current owner. NOTE: Renouncing ownership will leave the contract without an owner, thereby disabling any functionality that is only available to the owner."
					},
					"transferOwnership(address)": {
						"details": "Transfers ownership of the contract to a new account (`newOwner`). Can only be called by the current owner."
					}
				},
				"version": 1
			},
			"evm": {
				"assembly": "    /* \"contracts/rewards/BaseRewards.sol\":298:3981  contract BaseRewards is Ownable, ReentrancyGuard {... */\n  mstore(0x40, 0x80)\n    /* \"contracts/rewards/BaseRewards.sol\":1118:1357  constructor(... */\n  callvalue\n  dup1\n  iszero\n  tag_1\n  jumpi\n  0x00\n  dup1\n  revert\ntag_1:\n  pop\n  mload(0x40)\n  sub(codesize, bytecodeSize)\n  dup1\n  bytecodeSize\n  dup4\n  codecopy\n  dup2\n  dup2\n  add\n  0x40\n  mstore\n  dup2\n  add\n  swap1\n  tag_2\n  swap2\n  swap1\n  tag_3\n  jump\t// in\ntag_2:\n    /* \"contracts/rewards/BaseRewards.sol\":1241:1253  initialOwner */\n  dup1\n    /* \"@openzeppelin/contracts/access/Ownable.sol\":1297:1298  0 */\n  0x00\n    /* \"@openzeppelin/contracts/access/Ownable.sol\":1273:1299  initialOwner == address(0) */\n  0xffffffffffffffffffffffffffffffffffffffff\n  and\n    /* \"@openzeppelin/contracts/access/Ownable.sol\":1273:1285  initialOwner */\n  dup2\n    /* \"@openzeppelin/contracts/access/Ownable.sol\":1273:1299  initialOwner == address(0) */\n  0xffffffffffffffffffffffffffffffffffffffff\n  and\n  sub\n    /* \"@openzeppelin/contracts/access/Ownable.sol\":1269:1364  if (initialOwner == address(0)) {... */\n  tag_8\n  jumpi\n    /* \"@openzeppelin/contracts/access/Ownable.sol\":1350:1351  0 */\n  0x00\n    /* \"@openzeppelin/contracts/access/Ownable.sol\":1322:1353  OwnableInvalidOwner(address(0)) */\n  mload(0x40)\n  0x1e4fbdf700000000000000000000000000000000000000000000000000000000\n  dup2\n  mstore\n  0x04\n  add\n  tag_9\n  swap2\n  swap1\n  tag_10\n  jump\t// in\ntag_9:\n  mload(0x40)\n  dup1\n  swap2\n  sub\n  swap1\n  revert\n    /* \"@openzeppelin/contracts/access/Ownable.sol\":1269:1364  if (initialOwner == address(0)) {... */\ntag_8:\n    /* \"@openzeppelin/contracts/access/Ownable.sol\":1373:1405  _transferOwnership(initialOwner) */\n  tag_11\n    /* \"@openzeppelin/contracts/access/Ownable.sol\":1392:1404  initialOwner */\n  dup2\n    /* \"@openzeppelin/contracts/access/Ownable.sol\":1373:1391  _transferOwnership */\n  shl(0x20, tag_12)\n    /* \"@openzeppelin/contracts/access/Ownable.sol\":1373:1405  _transferOwnership(initialOwner) */\n  0x20\n  shr\n  jump\t// in\ntag_11:\n    /* \"@openzeppelin/contracts/access/Ownable.sol\":1225:1412  constructor(address initialOwner) {... */\n  pop\n    /* \"@openzeppelin/contracts/security/ReentrancyGuard.sol\":1716:1717  1 */\n  0x01\n    /* \"@openzeppelin/contracts/security/ReentrancyGuard.sol\":1821:1828  _status */\n  dup1\n    /* \"@openzeppelin/contracts/security/ReentrancyGuard.sol\":1821:1843  _status = _NOT_ENTERED */\n  dup2\n  swap1\n  sstore\n  pop\n    /* \"contracts/rewards/BaseRewards.sol\":1288:1301  _stakingToken */\n  dup3\n    /* \"contracts/rewards/BaseRewards.sol\":1266:1278  stakingToken */\n  0x02\n  0x00\n    /* \"contracts/rewards/BaseRewards.sol\":1266:1302  stakingToken = IERC20(_stakingToken) */\n  0x0100\n  exp\n  dup2\n  sload\n  dup2\n  0xffffffffffffffffffffffffffffffffffffffff\n  mul\n  not\n  and\n  swap1\n  dup4\n  0xffffffffffffffffffffffffffffffffffffffff\n  and\n  mul\n  or\n  swap1\n  sstore\n  pop\n    /* \"contracts/rewards/BaseRewards.sol\":1335:1348  _rewardsToken */\n  dup2\n    /* \"contracts/rewards/BaseRewards.sol\":1313:1325  rewardsToken */\n  0x03\n  0x00\n    /* \"contracts/rewards/BaseRewards.sol\":1313:1349  rewardsToken = IERC20(_rewardsToken) */\n  0x0100\n  exp\n  dup2\n  sload\n  dup2\n  0xffffffffffffffffffffffffffffffffffffffff\n  mul\n  not\n  and\n  swap1\n  dup4\n  0xffffffffffffffffffffffffffffffffffffffff\n  and\n  mul\n  or\n  swap1\n  sstore\n  pop\n    /* \"contracts/rewards/BaseRewards.sol\":1118:1357  constructor(... */\n  pop\n  pop\n  pop\n    /* \"contracts/rewards/BaseRewards.sol\":298:3981  contract BaseRewards is Ownable, ReentrancyGuard {... */\n  jump(tag_15)\n    /* \"@openzeppelin/contracts/access/Ownable.sol\":2912:3099  function _transferOwnership(address newOwner) internal virtual {... */\ntag_12:\n    /* \"@openzeppelin/contracts/access/Ownable.sol\":2985:3001  address oldOwner */\n  0x00\n    /* \"@openzeppelin/contracts/access/Ownable.sol\":3004:3010  _owner */\n  dup1\n  0x00\n  swap1\n  sload\n  swap1\n  0x0100\n  exp\n  swap1\n  div\n  0xffffffffffffffffffffffffffffffffffffffff\n  and\n    /* \"@openzeppelin/contracts/access/Ownable.sol\":2985:3010  address oldOwner = _owner */\n  swap1\n  pop\n    /* \"@openzeppelin/contracts/access/Ownable.sol\":3029:3037  newOwner */\n  dup2\n    /* \"@openzeppelin/contracts/access/Ownable.sol\":3020:3026  _owner */\n  0x00\n  dup1\n    /* \"@openzeppelin/contracts/access/Ownable.sol\":3020:3037  _owner = newOwner */\n  0x0100\n  exp\n  dup2\n  sload\n  dup2\n  0xffffffffffffffffffffffffffffffffffffffff\n  mul\n  not\n  and\n  swap1\n  dup4\n  0xffffffffffffffffffffffffffffffffffffffff\n  and\n  mul\n  or\n  swap1\n  sstore\n  pop\n    /* \"@openzeppelin/contracts/access/Ownable.sol\":3083:3091  newOwner */\n  dup2\n    /* \"@openzeppelin/contracts/access/Ownable.sol\":3052:3092  OwnershipTransferred(oldOwner, newOwner) */\n  0xffffffffffffffffffffffffffffffffffffffff\n  and\n    /* \"@openzeppelin/contracts/access/Ownable.sol\":3073:3081  oldOwner */\n  dup2\n    /* \"@openzeppelin/contracts/access/Ownable.sol\":3052:3092  OwnershipTransferred(oldOwner, newOwner) */\n  0xffffffffffffffffffffffffffffffffffffffff\n  and\n  0x8be0079c531659141344cd1fd0a4f28419497f9722a3daafe3b4186f6b6457e0\n  mload(0x40)\n  mload(0x40)\n  dup1\n  swap2\n  sub\n  swap1\n  log3\n    /* \"@openzeppelin/contracts/access/Ownable.sol\":2975:3099  {... */\n  pop\n    /* \"@openzeppelin/contracts/access/Ownable.sol\":2912:3099  function _transferOwnership(address newOwner) internal virtual {... */\n  pop\n  jump\t// out\n    /* \"#utility.yul\":88:205   */\ntag_18:\n    /* \"#utility.yul\":197:198   */\n  0x00\n    /* \"#utility.yul\":194:195   */\n  dup1\n    /* \"#utility.yul\":187:199   */\n  revert\n    /* \"#utility.yul\":334:460   */\ntag_20:\n    /* \"#utility.yul\":371:378   */\n  0x00\n    /* \"#utility.yul\":411:453   */\n  0xffffffffffffffffffffffffffffffffffffffff\n    /* \"#utility.yul\":404:409   */\n  dup3\n    /* \"#utility.yul\":400:454   */\n  and\n    /* \"#utility.yul\":389:454   */\n  swap1\n  pop\n    /* \"#utility.yul\":334:460   */\n  swap2\n  swap1\n  pop\n  jump\t// out\n    /* \"#utility.yul\":466:562   */\ntag_21:\n    /* \"#utility.yul\":503:510   */\n  0x00\n    /* \"#utility.yul\":532:556   */\n  tag_31\n    /* \"#utility.yul\":550:555   */\n  dup3\n    /* \"#utility.yul\":532:556   */\n  tag_20\n  jump\t// in\ntag_31:\n    /* \"#utility.yul\":521:556   */\n  swap1\n  pop\n    /* \"#utility.yul\":466:562   */\n  swap2\n  swap1\n  pop\n  jump\t// out\n    /* \"#utility.yul\":568:690   */\ntag_22:\n    /* \"#utility.yul\":641:665   */\n  tag_33\n    /* \"#utility.yul\":659:664   */\n  dup2\n    /* \"#utility.yul\":641:665   */\n  tag_21\n  jump\t// in\ntag_33:\n    /* \"#utility.yul\":634:639   */\n  dup2\n    /* \"#utility.yul\":631:666   */\n  eq\n    /* \"#utility.yul\":621:684   */\n  tag_34\n  jumpi\n    /* \"#utility.yul\":680:681   */\n  0x00\n    /* \"#utility.yul\":677:678   */\n  dup1\n    /* \"#utility.yul\":670:682   */\n  revert\n    /* \"#utility.yul\":621:684   */\ntag_34:\n    /* \"#utility.yul\":568:690   */\n  pop\n  jump\t// out\n    /* \"#utility.yul\":696:839   */\ntag_23:\n    /* \"#utility.yul\":753:758   */\n  0x00\n    /* \"#utility.yul\":784:790   */\n  dup2\n    /* \"#utility.yul\":778:791   */\n  mload\n    /* \"#utility.yul\":769:791   */\n  swap1\n  pop\n    /* \"#utility.yul\":800:833   */\n  tag_36\n    /* \"#utility.yul\":827:832   */\n  dup2\n    /* \"#utility.yul\":800:833   */\n  tag_22\n  jump\t// in\ntag_36:\n    /* \"#utility.yul\":696:839   */\n  swap3\n  swap2\n  pop\n  pop\n  jump\t// out\n    /* \"#utility.yul\":845:1508   */\ntag_3:\n    /* \"#utility.yul\":933:939   */\n  0x00\n    /* \"#utility.yul\":941:947   */\n  dup1\n    /* \"#utility.yul\":949:955   */\n  0x00\n    /* \"#utility.yul\":998:1000   */\n  0x60\n    /* \"#utility.yul\":986:995   */\n  dup5\n    /* \"#utility.yul\":977:984   */\n  dup7\n    /* \"#utility.yul\":973:996   */\n  sub\n    /* \"#utility.yul\":969:1001   */\n  slt\n    /* \"#utility.yul\":966:1085   */\n  iszero\n  tag_38\n  jumpi\n    /* \"#utility.yul\":1004:1083   */\n  tag_39\n  tag_18\n  jump\t// in\ntag_39:\n    /* \"#utility.yul\":966:1085   */\ntag_38:\n    /* \"#utility.yul\":1124:1125   */\n  0x00\n    /* \"#utility.yul\":1149:1213   */\n  tag_40\n    /* \"#utility.yul\":1205:1212   */\n  dup7\n    /* \"#utility.yul\":1196:1202   */\n  dup3\n    /* \"#utility.yul\":1185:1194   */\n  dup8\n    /* \"#utility.yul\":1181:1203   */\n  add\n    /* \"#utility.yul\":1149:1213   */\n  tag_23\n  jump\t// in\ntag_40:\n    /* \"#utility.yul\":1139:1213   */\n  swap4\n  pop\n    /* \"#utility.yul\":1095:1223   */\n  pop\n    /* \"#utility.yul\":1262:1264   */\n  0x20\n    /* \"#utility.yul\":1288:1352   */\n  tag_41\n    /* \"#utility.yul\":1344:1351   */\n  dup7\n    /* \"#utility.yul\":1335:1341   */\n  dup3\n    /* \"#utility.yul\":1324:1333   */\n  dup8\n    /* \"#utility.yul\":1320:1342   */\n  add\n    /* \"#utility.yul\":1288:1352   */\n  tag_23\n  jump\t// in\ntag_41:\n    /* \"#utility.yul\":1278:1352   */\n  swap3\n  pop\n    /* \"#utility.yul\":1233:1362   */\n  pop\n    /* \"#utility.yul\":1401:1403   */\n  0x40\n    /* \"#utility.yul\":1427:1491   */\n  tag_42\n    /* \"#utility.yul\":1483:1490   */\n  dup7\n    /* \"#utility.yul\":1474:1480   */\n  dup3\n    /* \"#utility.yul\":1463:1472   */\n  dup8\n    /* \"#utility.yul\":1459:1481   */\n  add\n    /* \"#utility.yul\":1427:1491   */\n  tag_23\n  jump\t// in\ntag_42:\n    /* \"#utility.yul\":1417:1491   */\n  swap2\n  pop\n    /* \"#utility.yul\":1372:1501   */\n  pop\n    /* \"#utility.yul\":845:1508   */\n  swap3\n  pop\n  swap3\n  pop\n  swap3\n  jump\t// out\n    /* \"#utility.yul\":1514:1632   */\ntag_24:\n    /* \"#utility.yul\":1601:1625   */\n  tag_44\n    /* \"#utility.yul\":1619:1624   */\n  dup2\n    /* \"#utility.yul\":1601:1625   */\n  tag_21\n  jump\t// in\ntag_44:\n    /* \"#utility.yul\":1596:1599   */\n  dup3\n    /* \"#utility.yul\":1589:1626   */\n  mstore\n    /* \"#utility.yul\":1514:1632   */\n  pop\n  pop\n  jump\t// out\n    /* \"#utility.yul\":1638:1860   */\ntag_10:\n    /* \"#utility.yul\":1731:1735   */\n  0x00\n    /* \"#utility.yul\":1769:1771   */\n  0x20\n    /* \"#utility.yul\":1758:1767   */\n  dup3\n    /* \"#utility.yul\":1754:1772   */\n  add\n    /* \"#utility.yul\":1746:1772   */\n  swap1\n  pop\n    /* \"#utility.yul\":1782:1853   */\n  tag_46\n    /* \"#utility.yul\":1850:1851   */\n  0x00\n    /* \"#utility.yul\":1839:1848   */\n  dup4\n    /* \"#utility.yul\":1835:1852   */\n  add\n    /* \"#utility.yul\":1826:1832   */\n  dup5\n    /* \"#utility.yul\":1782:1853   */\n  tag_24\n  jump\t// in\ntag_46:\n    /* \"#utility.yul\":1638:1860   */\n  swap3\n  swap2\n  pop\n  pop\n  jump\t// out\n    /* \"contracts/rewards/BaseRewards.sol\":298:3981  contract BaseRewards is Ownable, ReentrancyGuard {... */\ntag_15:\n  dataSize(sub_0)\n  dup1\n  dataOffset(sub_0)\n  0x00\n  codecopy\n  0x00\n  return\nstop\n\nsub_0: assembly {\n        /* \"contracts/rewards/BaseRewards.sol\":298:3981  contract BaseRewards is Ownable, ReentrancyGuard {... */\n      mstore(0x40, 0x80)\n      callvalue\n      dup1\n      iszero\n      tag_1\n      jumpi\n      0x00\n      dup1\n      revert\n    tag_1:\n      pop\n      jumpi(tag_2, lt(calldatasize, 0x04))\n      shr(0xe0, calldataload(0x00))\n      dup1\n      0x8cd4426d\n      gt\n      tag_22\n      jumpi\n      dup1\n      0xc8f33c91\n      gt\n      tag_23\n      jumpi\n      dup1\n      0xc8f33c91\n      eq\n      tag_17\n      jumpi\n      dup1\n      0xcd3daf9d\n      eq\n      tag_18\n      jumpi\n      dup1\n      0xd1af0c7d\n      eq\n      tag_19\n      jumpi\n      dup1\n      0xdf136d65\n      eq\n      tag_20\n      jumpi\n      dup1\n      0xf2fde38b\n      eq\n      tag_21\n      jumpi\n      jump(tag_2)\n    tag_23:\n      dup1\n      0x8cd4426d\n      eq\n      tag_12\n      jumpi\n      dup1\n      0x8da5cb5b\n      eq\n      tag_13\n      jumpi\n      dup1\n      0x9e447fc6\n      eq\n      tag_14\n      jumpi\n      dup1\n      0xa694fc3a\n      eq\n      tag_15\n      jumpi\n      dup1\n      0xb88a802f\n      eq\n      tag_16\n      jumpi\n      jump(tag_2)\n    tag_22:\n      dup1\n      0x70a08231\n      gt\n      tag_24\n      jumpi\n      dup1\n      0x70a08231\n      eq\n      tag_7\n      jumpi\n      dup1\n      0x715018a6\n      eq\n      tag_8\n      jumpi\n      dup1\n      0x72f702f3\n      eq\n      tag_9\n      jumpi\n      dup1\n      0x7b0a47ee\n      eq\n      tag_10\n      jumpi\n      dup1\n      0x8b876347\n      eq\n      tag_11\n      jumpi\n      jump(tag_2)\n    tag_24:\n      dup1\n      0x8cc262\n      eq\n      tag_3\n      jumpi\n      dup1\n      0x0700037d\n      eq\n      tag_4\n      jumpi\n      dup1\n      0x18160ddd\n      eq\n      tag_5\n      jumpi\n      dup1\n      0x2e1a7d4d\n      eq\n      tag_6\n      jumpi\n    tag_2:\n      0x00\n      dup1\n      revert\n        /* \"contracts/rewards/BaseRewards.sol\":2998:3263  function earned(address account) public view returns (uint256) {... */\n    tag_3:\n      tag_25\n      0x04\n      dup1\n      calldatasize\n      sub\n      dup2\n      add\n      swap1\n      tag_26\n      swap2\n      swap1\n      tag_27\n      jump\t// in\n    tag_26:\n      tag_28\n      jump\t// in\n    tag_25:\n      mload(0x40)\n      tag_29\n      swap2\n      swap1\n      tag_30\n      jump\t// in\n    tag_29:\n      mload(0x40)\n      dup1\n      swap2\n      sub\n      swap1\n      return\n        /* \"contracts/rewards/BaseRewards.sol\":798:840  mapping(address => uint256) public rewards */\n    tag_4:\n      tag_31\n      0x04\n      dup1\n      calldatasize\n      sub\n      dup2\n      add\n      swap1\n      tag_32\n      swap2\n      swap1\n      tag_27\n      jump\t// in\n    tag_32:\n      tag_33\n      jump\t// in\n    tag_31:\n      mload(0x40)\n      tag_34\n      swap2\n      swap1\n      tag_30\n      jump\t// in\n    tag_34:\n      mload(0x40)\n      dup1\n      swap2\n      sub\n      swap1\n      return\n        /* \"contracts/rewards/BaseRewards.sol\":2777:2870  function totalSupply() external view returns (uint256) {... */\n    tag_5:\n      tag_35\n      tag_36\n      jump\t// in\n    tag_35:\n      mload(0x40)\n      tag_37\n      swap2\n      swap1\n      tag_30\n      jump\t// in\n    tag_37:\n      mload(0x40)\n      dup1\n      swap2\n      sub\n      swap1\n      return\n        /* \"contracts/rewards/BaseRewards.sol\":1757:2067  function withdraw(uint256 amount) public nonReentrant updateReward(msg.sender) {... */\n    tag_6:\n      tag_38\n      0x04\n      dup1\n      calldatasize\n      sub\n      dup2\n      add\n      swap1\n      tag_39\n      swap2\n      swap1\n      tag_40\n      jump\t// in\n    tag_39:\n      tag_41\n      jump\t// in\n    tag_38:\n      stop\n        /* \"contracts/rewards/BaseRewards.sol\":2878:2990  function balanceOf(address account) external view returns (uint256) {... */\n    tag_7:\n      tag_42\n      0x04\n      dup1\n      calldatasize\n      sub\n      dup2\n      add\n      swap1\n      tag_43\n      swap2\n      swap1\n      tag_27\n      jump\t// in\n    tag_43:\n      tag_44\n      jump\t// in\n    tag_42:\n      mload(0x40)\n      tag_45\n      swap2\n      swap1\n      tag_30\n      jump\t// in\n    tag_45:\n      mload(0x40)\n      dup1\n      swap2\n      sub\n      swap1\n      return\n        /* \"@openzeppelin/contracts/access/Ownable.sol\":2293:2394  function renounceOwnership() public virtual onlyOwner {... */\n    tag_8:\n      tag_46\n      tag_47\n      jump\t// in\n    tag_46:\n      stop\n        /* \"contracts/rewards/BaseRewards.sol\":431:457  IERC20 public stakingToken */\n    tag_9:\n      tag_48\n      tag_49\n      jump\t// in\n    tag_48:\n      mload(0x40)\n      tag_50\n      swap2\n      swap1\n      tag_51\n      jump\t// in\n    tag_50:\n      mload(0x40)\n      dup1\n      swap2\n      sub\n      swap1\n      return\n        /* \"contracts/rewards/BaseRewards.sol\":544:569  uint256 public rewardRate */\n    tag_10:\n      tag_52\n      tag_53\n      jump\t// in\n    tag_52:\n      mload(0x40)\n      tag_54\n      swap2\n      swap1\n      tag_30\n      jump\t// in\n    tag_54:\n      mload(0x40)\n      dup1\n      swap2\n      sub\n      swap1\n      return\n        /* \"contracts/rewards/BaseRewards.sol\":734:791  mapping(address => uint256) public userRewardPerTokenPaid */\n    tag_11:\n      tag_55\n      0x04\n      dup1\n      calldatasize\n      sub\n      dup2\n      add\n      swap1\n      tag_56\n      swap2\n      swap1\n      tag_27\n      jump\t// in\n    tag_56:\n      tag_57\n      jump\t// in\n    tag_55:\n      mload(0x40)\n      tag_58\n      swap2\n      swap1\n      tag_30\n      jump\t// in\n    tag_58:\n      mload(0x40)\n      dup1\n      swap2\n      sub\n      swap1\n      return\n        /* \"contracts/rewards/BaseRewards.sol\":2564:2707  function rescueERC20(address tokenAddress, uint256 amount) external onlyOwner {... */\n    tag_12:\n      tag_59\n      0x04\n      dup1\n      calldatasize\n      sub\n      dup2\n      add\n      swap1\n      tag_60\n      swap2\n      swap1\n      tag_61\n      jump\t// in\n    tag_60:\n      tag_62\n      jump\t// in\n    tag_59:\n      stop\n        /* \"@openzeppelin/contracts/access/Ownable.sol\":1638:1723  function owner() public view virtual returns (address) {... */\n    tag_13:\n      tag_63\n      tag_64\n      jump\t// in\n    tag_63:\n      mload(0x40)\n      tag_65\n      swap2\n      swap1\n      tag_66\n      jump\t// in\n    tag_65:\n      mload(0x40)\n      dup1\n      swap2\n      sub\n      swap1\n      return\n        /* \"contracts/rewards/BaseRewards.sol\":2450:2556  function setRewardRate(uint256 _rewardRate) external onlyOwner {... */\n    tag_14:\n      tag_67\n      0x04\n      dup1\n      calldatasize\n      sub\n      dup2\n      add\n      swap1\n      tag_68\n      swap2\n      swap1\n      tag_40\n      jump\t// in\n    tag_68:\n      tag_69\n      jump\t// in\n    tag_67:\n      stop\n        /* \"contracts/rewards/BaseRewards.sol\":1427:1749  function stake(uint256 amount) external nonReentrant updateReward(msg.sender) {... */\n    tag_15:\n      tag_70\n      0x04\n      dup1\n      calldatasize\n      sub\n      dup2\n      add\n      swap1\n      tag_71\n      swap2\n      swap1\n      tag_40\n      jump\t// in\n    tag_71:\n      tag_72\n      jump\t// in\n    tag_70:\n      stop\n        /* \"contracts/rewards/BaseRewards.sol\":2075:2380  function claimReward() public nonReentrant updateReward(msg.sender) {... */\n    tag_16:\n      tag_73\n      tag_74\n      jump\t// in\n    tag_73:\n      stop\n        /* \"contracts/rewards/BaseRewards.sol\":602:631  uint256 public lastUpdateTime */\n    tag_17:\n      tag_75\n      tag_76\n      jump\t// in\n    tag_75:\n      mload(0x40)\n      tag_77\n      swap2\n      swap1\n      tag_30\n      jump\t// in\n    tag_77:\n      mload(0x40)\n      dup1\n      swap2\n      sub\n      swap1\n      return\n        /* \"contracts/rewards/BaseRewards.sol\":3271:3592  function rewardPerToken() public view returns (uint256) {... */\n    tag_18:\n      tag_78\n      tag_79\n      jump\t// in\n    tag_78:\n      mload(0x40)\n      tag_80\n      swap2\n      swap1\n      tag_30\n      jump\t// in\n    tag_80:\n      mload(0x40)\n      dup1\n      swap2\n      sub\n      swap1\n      return\n        /* \"contracts/rewards/BaseRewards.sol\":485:511  IERC20 public rewardsToken */\n    tag_19:\n      tag_81\n      tag_82\n      jump\t// in\n    tag_81:\n      mload(0x40)\n      tag_83\n      swap2\n      swap1\n      tag_51\n      jump\t// in\n    tag_83:\n      mload(0x40)\n      dup1\n      swap2\n      sub\n      swap1\n      return\n        /* \"contracts/rewards/BaseRewards.sol\":663:698  uint256 public rewardPerTokenStored */\n    tag_20:\n      tag_84\n      tag_85\n      jump\t// in\n    tag_84:\n      mload(0x40)\n      tag_86\n      swap2\n      swap1\n      tag_30\n      jump\t// in\n    tag_86:\n      mload(0x40)\n      dup1\n      swap2\n      sub\n      swap1\n      return\n        /* \"@openzeppelin/contracts/access/Ownable.sol\":2543:2758  function transferOwnership(address newOwner) public virtual onlyOwner {... */\n    tag_21:\n      tag_87\n      0x04\n      dup1\n      calldatasize\n      sub\n      dup2\n      add\n      swap1\n      tag_88\n      swap2\n      swap1\n      tag_27\n      jump\t// in\n    tag_88:\n      tag_89\n      jump\t// in\n    tag_87:\n      stop\n        /* \"contracts/rewards/BaseRewards.sol\":2998:3263  function earned(address account) public view returns (uint256) {... */\n    tag_28:\n        /* \"contracts/rewards/BaseRewards.sol\":3052:3059  uint256 */\n      0x00\n        /* \"contracts/rewards/BaseRewards.sol\":3092:3255  _balances[account]... */\n      tag_91\n        /* \"contracts/rewards/BaseRewards.sol\":3238:3245  rewards */\n      0x08\n        /* \"contracts/rewards/BaseRewards.sol\":3238:3254  rewards[account] */\n      0x00\n        /* \"contracts/rewards/BaseRewards.sol\":3246:3253  account */\n      dup5\n        /* \"contracts/rewards/BaseRewards.sol\":3238:3254  rewards[account] */\n      0xffffffffffffffffffffffffffffffffffffffff\n      and\n      0xffffffffffffffffffffffffffffffffffffffff\n      and\n      dup2\n      mstore\n      0x20\n      add\n      swap1\n      dup2\n      mstore\n      0x20\n      add\n      0x00\n      keccak256\n      sload\n        /* \"contracts/rewards/BaseRewards.sol\":3092:3215  _balances[account]... */\n      tag_92\n        /* \"contracts/rewards/BaseRewards.sol\":3210:3214  1e18 */\n      0x0de0b6b3a7640000\n        /* \"contracts/rewards/BaseRewards.sol\":3092:3187  _balances[account]... */\n      tag_93\n        /* \"contracts/rewards/BaseRewards.sol\":3133:3186  rewardPerToken().sub(userRewardPerTokenPaid[account]) */\n      tag_94\n        /* \"contracts/rewards/BaseRewards.sol\":3154:3176  userRewardPerTokenPaid */\n      0x07\n        /* \"contracts/rewards/BaseRewards.sol\":3154:3185  userRewardPerTokenPaid[account] */\n      0x00\n        /* \"contracts/rewards/BaseRewards.sol\":3177:3184  account */\n      dup10\n        /* \"contracts/rewards/BaseRewards.sol\":3154:3185  userRewardPerTokenPaid[account] */\n      0xffffffffffffffffffffffffffffffffffffffff\n      and\n      0xffffffffffffffffffffffffffffffffffffffff\n      and\n      dup2\n      mstore\n      0x20\n      add\n      swap1\n      dup2\n      mstore\n      0x20\n      add\n      0x00\n      keccak256\n      sload\n        /* \"contracts/rewards/BaseRewards.sol\":3133:3149  rewardPerToken() */\n      tag_95\n        /* \"contracts/rewards/BaseRewards.sol\":3133:3147  rewardPerToken */\n      tag_79\n        /* \"contracts/rewards/BaseRewards.sol\":3133:3149  rewardPerToken() */\n      jump\t// in\n    tag_95:\n        /* \"contracts/rewards/BaseRewards.sol\":3133:3153  rewardPerToken().sub */\n      tag_96\n      swap1\n        /* \"contracts/rewards/BaseRewards.sol\":3133:3186  rewardPerToken().sub(userRewardPerTokenPaid[account]) */\n      swap2\n      swap1\n      0xffffffff\n      and\n      jump\t// in\n    tag_94:\n        /* \"contracts/rewards/BaseRewards.sol\":3092:3101  _balances */\n      0x0a\n        /* \"contracts/rewards/BaseRewards.sol\":3092:3110  _balances[account] */\n      0x00\n        /* \"contracts/rewards/BaseRewards.sol\":3102:3109  account */\n      dup10\n        /* \"contracts/rewards/BaseRewards.sol\":3092:3110  _balances[account] */\n      0xffffffffffffffffffffffffffffffffffffffff\n      and\n      0xffffffffffffffffffffffffffffffffffffffff\n      and\n      dup2\n      mstore\n      0x20\n      add\n      swap1\n      dup2\n      mstore\n      0x20\n      add\n      0x00\n      keccak256\n      sload\n        /* \"contracts/rewards/BaseRewards.sol\":3092:3132  _balances[account]... */\n      tag_97\n      swap1\n        /* \"contracts/rewards/BaseRewards.sol\":3092:3187  _balances[account]... */\n      swap2\n      swap1\n      0xffffffff\n      and\n      jump\t// in\n    tag_93:\n        /* \"contracts/rewards/BaseRewards.sol\":3092:3209  _balances[account]... */\n      tag_98\n      swap1\n        /* \"contracts/rewards/BaseRewards.sol\":3092:3215  _balances[account]... */\n      swap2\n      swap1\n      0xffffffff\n      and\n      jump\t// in\n    tag_92:\n        /* \"contracts/rewards/BaseRewards.sol\":3092:3237  _balances[account]... */\n      tag_99\n      swap1\n        /* \"contracts/rewards/BaseRewards.sol\":3092:3255  _balances[account]... */\n      swap2\n      swap1\n      0xffffffff\n      and\n      jump\t// in\n    tag_91:\n        /* \"contracts/rewards/BaseRewards.sol\":3072:3255  return... */\n      swap1\n      pop\n        /* \"contracts/rewards/BaseRewards.sol\":2998:3263  function earned(address account) public view returns (uint256) {... */\n      swap2\n      swap1\n      pop\n      jump\t// out\n        /* \"contracts/rewards/BaseRewards.sol\":798:840  mapping(address => uint256) public rewards */\n    tag_33:\n      mstore(0x20, 0x08)\n      dup1\n      0x00\n      mstore\n      keccak256(0x00, 0x40)\n      0x00\n      swap2\n      pop\n      swap1\n      pop\n      sload\n      dup2\n      jump\t// out\n        /* \"contracts/rewards/BaseRewards.sol\":2777:2870  function totalSupply() external view returns (uint256) {... */\n    tag_36:\n        /* \"contracts/rewards/BaseRewards.sol\":2823:2830  uint256 */\n      0x00\n        /* \"contracts/rewards/BaseRewards.sol\":2850:2862  _totalSupply */\n      sload(0x09)\n        /* \"contracts/rewards/BaseRewards.sol\":2843:2862  return _totalSupply */\n      swap1\n      pop\n        /* \"contracts/rewards/BaseRewards.sol\":2777:2870  function totalSupply() external view returns (uint256) {... */\n      swap1\n      jump\t// out\n        /* \"contracts/rewards/BaseRewards.sol\":1757:2067  function withdraw(uint256 amount) public nonReentrant updateReward(msg.sender) {... */\n    tag_41:\n        /* \"@openzeppelin/contracts/security/ReentrancyGuard.sol\":2261:2282  _nonReentrantBefore() */\n      tag_102\n        /* \"@openzeppelin/contracts/security/ReentrancyGuard.sol\":2261:2280  _nonReentrantBefore */\n      tag_103\n        /* \"@openzeppelin/contracts/security/ReentrancyGuard.sol\":2261:2282  _nonReentrantBefore() */\n      jump\t// in\n    tag_102:\n        /* \"contracts/rewards/BaseRewards.sol\":1824:1834  msg.sender */\n      caller\n        /* \"contracts/rewards/BaseRewards.sol\":3732:3748  rewardPerToken() */\n      tag_105\n        /* \"contracts/rewards/BaseRewards.sol\":3732:3746  rewardPerToken */\n      tag_79\n        /* \"contracts/rewards/BaseRewards.sol\":3732:3748  rewardPerToken() */\n      jump\t// in\n    tag_105:\n        /* \"contracts/rewards/BaseRewards.sol\":3709:3729  rewardPerTokenStored */\n      0x06\n        /* \"contracts/rewards/BaseRewards.sol\":3709:3748  rewardPerTokenStored = rewardPerToken() */\n      dup2\n      swap1\n      sstore\n      pop\n        /* \"contracts/rewards/BaseRewards.sol\":3776:3791  block.timestamp */\n      timestamp\n        /* \"contracts/rewards/BaseRewards.sol\":3759:3773  lastUpdateTime */\n      0x05\n        /* \"contracts/rewards/BaseRewards.sol\":3759:3791  lastUpdateTime = block.timestamp */\n      dup2\n      swap1\n      sstore\n      pop\n        /* \"contracts/rewards/BaseRewards.sol\":3825:3826  0 */\n      0x00\n        /* \"contracts/rewards/BaseRewards.sol\":3806:3827  account != address(0) */\n      0xffffffffffffffffffffffffffffffffffffffff\n      and\n        /* \"contracts/rewards/BaseRewards.sol\":3806:3813  account */\n      dup2\n        /* \"contracts/rewards/BaseRewards.sol\":3806:3827  account != address(0) */\n      0xffffffffffffffffffffffffffffffffffffffff\n      and\n      eq\n        /* \"contracts/rewards/BaseRewards.sol\":3802:3959  if (account != address(0)) {... */\n      tag_106\n      jumpi\n        /* \"contracts/rewards/BaseRewards.sol\":3863:3878  earned(account) */\n      tag_107\n        /* \"contracts/rewards/BaseRewards.sol\":3870:3877  account */\n      dup2\n        /* \"contracts/rewards/BaseRewards.sol\":3863:3869  earned */\n      tag_28\n        /* \"contracts/rewards/BaseRewards.sol\":3863:3878  earned(account) */\n      jump\t// in\n    tag_107:\n        /* \"contracts/rewards/BaseRewards.sol\":3844:3851  rewards */\n      0x08\n        /* \"contracts/rewards/BaseRewards.sol\":3844:3860  rewards[account] */\n      0x00\n        /* \"contracts/rewards/BaseRewards.sol\":3852:3859  account */\n      dup4\n        /* \"contracts/rewards/BaseRewards.sol\":3844:3860  rewards[account] */\n      0xffffffffffffffffffffffffffffffffffffffff\n      and\n      0xffffffffffffffffffffffffffffffffffffffff\n      and\n      dup2\n      mstore\n      0x20\n      add\n      swap1\n      dup2\n      mstore\n      0x20\n      add\n      0x00\n      keccak256\n        /* \"contracts/rewards/BaseRewards.sol\":3844:3878  rewards[account] = earned(account) */\n      dup2\n      swap1\n      sstore\n      pop\n        /* \"contracts/rewards/BaseRewards.sol\":3927:3947  rewardPerTokenStored */\n      sload(0x06)\n        /* \"contracts/rewards/BaseRewards.sol\":3893:3915  userRewardPerTokenPaid */\n      0x07\n        /* \"contracts/rewards/BaseRewards.sol\":3893:3924  userRewardPerTokenPaid[account] */\n      0x00\n        /* \"contracts/rewards/BaseRewards.sol\":3916:3923  account */\n      dup4\n        /* \"contracts/rewards/BaseRewards.sol\":3893:3924  userRewardPerTokenPaid[account] */\n      0xffffffffffffffffffffffffffffffffffffffff\n      and\n      0xffffffffffffffffffffffffffffffffffffffff\n      and\n      dup2\n      mstore\n      0x20\n      add\n      swap1\n      dup2\n      mstore\n      0x20\n      add\n      0x00\n      keccak256\n        /* \"contracts/rewards/BaseRewards.sol\":3893:3947  userRewardPerTokenPaid[account] = rewardPerTokenStored */\n      dup2\n      swap1\n      sstore\n      pop\n        /* \"contracts/rewards/BaseRewards.sol\":3802:3959  if (account != address(0)) {... */\n    tag_106:\n        /* \"contracts/rewards/BaseRewards.sol\":1864:1865  0 */\n      0x00\n        /* \"contracts/rewards/BaseRewards.sol\":1855:1861  amount */\n      dup3\n        /* \"contracts/rewards/BaseRewards.sol\":1855:1865  amount > 0 */\n      gt\n        /* \"contracts/rewards/BaseRewards.sol\":1847:1887  require(amount > 0, \"Cannot withdraw 0\") */\n      tag_109\n      jumpi\n      mload(0x40)\n      0x08c379a000000000000000000000000000000000000000000000000000000000\n      dup2\n      mstore\n      0x04\n      add\n      tag_110\n      swap1\n      tag_111\n      jump\t// in\n    tag_110:\n      mload(0x40)\n      dup1\n      swap2\n      sub\n      swap1\n      revert\n    tag_109:\n        /* \"contracts/rewards/BaseRewards.sol\":1914:1920  amount */\n      dup2\n        /* \"contracts/rewards/BaseRewards.sol\":1898:1910  _totalSupply */\n      0x09\n      0x00\n        /* \"contracts/rewards/BaseRewards.sol\":1898:1920  _totalSupply -= amount */\n      dup3\n      dup3\n      sload\n      tag_112\n      swap2\n      swap1\n      tag_113\n      jump\t// in\n    tag_112:\n      swap3\n      pop\n      pop\n      dup2\n      swap1\n      sstore\n      pop\n        /* \"contracts/rewards/BaseRewards.sol\":1956:1962  amount */\n      dup2\n        /* \"contracts/rewards/BaseRewards.sol\":1931:1940  _balances */\n      0x0a\n        /* \"contracts/rewards/BaseRewards.sol\":1931:1952  _balances[msg.sender] */\n      0x00\n        /* \"contracts/rewards/BaseRewards.sol\":1941:1951  msg.sender */\n      caller\n        /* \"contracts/rewards/BaseRewards.sol\":1931:1952  _balances[msg.sender] */\n      0xffffffffffffffffffffffffffffffffffffffff\n      and\n      0xffffffffffffffffffffffffffffffffffffffff\n      and\n      dup2\n      mstore\n      0x20\n      add\n      swap1\n      dup2\n      mstore\n      0x20\n      add\n      0x00\n      keccak256\n      0x00\n        /* \"contracts/rewards/BaseRewards.sol\":1931:1962  _balances[msg.sender] -= amount */\n      dup3\n      dup3\n      sload\n      tag_114\n      swap2\n      swap1\n      tag_113\n      jump\t// in\n    tag_114:\n      swap3\n      pop\n      pop\n      dup2\n      swap1\n      sstore\n      pop\n        /* \"contracts/rewards/BaseRewards.sol\":1973:1985  stakingToken */\n      0x02\n      0x00\n      swap1\n      sload\n      swap1\n      0x0100\n      exp\n      swap1\n      div\n      0xffffffffffffffffffffffffffffffffffffffff\n      and\n        /* \"contracts/rewards/BaseRewards.sol\":1973:1994  stakingToken.transfer */\n      0xffffffffffffffffffffffffffffffffffffffff\n      and\n      0xa9059cbb\n        /* \"contracts/rewards/BaseRewards.sol\":1995:2005  msg.sender */\n      caller\n        /* \"contracts/rewards/BaseRewards.sol\":2007:2013  amount */\n      dup5\n        /* \"contracts/rewards/BaseRewards.sol\":1973:2014  stakingToken.transfer(msg.sender, amount) */\n      mload(0x40)\n      dup4\n      0xffffffff\n      and\n      0xe0\n      shl\n      dup2\n      mstore\n      0x04\n      add\n      tag_115\n      swap3\n      swap2\n      swap1\n      tag_116\n      jump\t// in\n    tag_115:\n      0x20\n      mload(0x40)\n      dup1\n      dup4\n      sub\n      dup2\n      0x00\n      dup8\n      gas\n      call\n      iszero\n      dup1\n      iszero\n      tag_118\n      jumpi\n      returndatasize\n      0x00\n      dup1\n      returndatacopy\n      revert(0x00, returndatasize)\n    tag_118:\n      pop\n      pop\n      pop\n      pop\n      mload(0x40)\n      returndatasize\n      not(0x1f)\n      0x1f\n      dup3\n      add\n      and\n      dup3\n      add\n      dup1\n      0x40\n      mstore\n      pop\n      dup2\n      add\n      swap1\n      tag_119\n      swap2\n      swap1\n      tag_120\n      jump\t// in\n    tag_119:\n      pop\n        /* \"contracts/rewards/BaseRewards.sol\":2040:2050  msg.sender */\n      caller\n        /* \"contracts/rewards/BaseRewards.sol\":2030:2059  Withdrawn(msg.sender, amount) */\n      0xffffffffffffffffffffffffffffffffffffffff\n      and\n      0x7084f5476618d8e60b11ef0d7d3f06914655adb8793e28ff7f018d4c76d505d5\n        /* \"contracts/rewards/BaseRewards.sol\":2052:2058  amount */\n      dup4\n        /* \"contracts/rewards/BaseRewards.sol\":2030:2059  Withdrawn(msg.sender, amount) */\n      mload(0x40)\n      tag_121\n      swap2\n      swap1\n      tag_30\n      jump\t// in\n    tag_121:\n      mload(0x40)\n      dup1\n      swap2\n      sub\n      swap1\n      log2\n        /* \"@openzeppelin/contracts/security/ReentrancyGuard.sol\":2292:2293  _ */\n      pop\n        /* \"@openzeppelin/contracts/security/ReentrancyGuard.sol\":2303:2323  _nonReentrantAfter() */\n      tag_122\n        /* \"@openzeppelin/contracts/security/ReentrancyGuard.sol\":2303:2321  _nonReentrantAfter */\n      tag_123\n        /* \"@openzeppelin/contracts/security/ReentrancyGuard.sol\":2303:2323  _nonReentrantAfter() */\n      jump\t// in\n    tag_122:\n        /* \"contracts/rewards/BaseRewards.sol\":1757:2067  function withdraw(uint256 amount) public nonReentrant updateReward(msg.sender) {... */\n      pop\n      jump\t// out\n        /* \"contracts/rewards/BaseRewards.sol\":2878:2990  function balanceOf(address account) external view returns (uint256) {... */\n    tag_44:\n        /* \"contracts/rewards/BaseRewards.sol\":2937:2944  uint256 */\n      0x00\n        /* \"contracts/rewards/BaseRewards.sol\":2964:2973  _balances */\n      0x0a\n        /* \"contracts/rewards/BaseRewards.sol\":2964:2982  _balances[account] */\n      0x00\n        /* \"contracts/rewards/BaseRewards.sol\":2974:2981  account */\n      dup4\n        /* \"contracts/rewards/BaseRewards.sol\":2964:2982  _balances[account] */\n      0xffffffffffffffffffffffffffffffffffffffff\n      and\n      0xffffffffffffffffffffffffffffffffffffffff\n      and\n      dup2\n      mstore\n      0x20\n      add\n      swap1\n      dup2\n      mstore\n      0x20\n      add\n      0x00\n      keccak256\n      sload\n        /* \"contracts/rewards/BaseRewards.sol\":2957:2982  return _balances[account] */\n      swap1\n      pop\n        /* \"contracts/rewards/BaseRewards.sol\":2878:2990  function balanceOf(address account) external view returns (uint256) {... */\n      swap2\n      swap1\n      pop\n      jump\t// out\n        /* \"@openzeppelin/contracts/access/Ownable.sol\":2293:2394  function renounceOwnership() public virtual onlyOwner {... */\n    tag_47:\n        /* \"@openzeppelin/contracts/access/Ownable.sol\":1531:1544  _checkOwner() */\n      tag_126\n        /* \"@openzeppelin/contracts/access/Ownable.sol\":1531:1542  _checkOwner */\n      tag_127\n        /* \"@openzeppelin/contracts/access/Ownable.sol\":1531:1544  _checkOwner() */\n      jump\t// in\n    tag_126:\n        /* \"@openzeppelin/contracts/access/Ownable.sol\":2357:2387  _transferOwnership(address(0)) */\n      tag_129\n        /* \"@openzeppelin/contracts/access/Ownable.sol\":2384:2385  0 */\n      0x00\n        /* \"@openzeppelin/contracts/access/Ownable.sol\":2357:2375  _transferOwnership */\n      tag_130\n        /* \"@openzeppelin/contracts/access/Ownable.sol\":2357:2387  _transferOwnership(address(0)) */\n      jump\t// in\n    tag_129:\n        /* \"@openzeppelin/contracts/access/Ownable.sol\":2293:2394  function renounceOwnership() public virtual onlyOwner {... */\n      jump\t// out\n        /* \"contracts/rewards/BaseRewards.sol\":431:457  IERC20 public stakingToken */\n    tag_49:\n      0x02\n      0x00\n      swap1\n      sload\n      swap1\n      0x0100\n      exp\n      swap1\n      div\n      0xffffffffffffffffffffffffffffffffffffffff\n      and\n      dup2\n      jump\t// out\n        /* \"contracts/rewards/BaseRewards.sol\":544:569  uint256 public rewardRate */\n    tag_53:\n      sload(0x04)\n      dup2\n      jump\t// out\n        /* \"contracts/rewards/BaseRewards.sol\":734:791  mapping(address => uint256) public userRewardPerTokenPaid */\n    tag_57:\n      mstore(0x20, 0x07)\n      dup1\n      0x00\n      mstore\n      keccak256(0x00, 0x40)\n      0x00\n      swap2\n      pop\n      swap1\n      pop\n      sload\n      dup2\n      jump\t// out\n        /* \"contracts/rewards/BaseRewards.sol\":2564:2707  function rescueERC20(address tokenAddress, uint256 amount) external onlyOwner {... */\n    tag_62:\n        /* \"@openzeppelin/contracts/access/Ownable.sol\":1531:1544  _checkOwner() */\n      tag_132\n        /* \"@openzeppelin/contracts/access/Ownable.sol\":1531:1542  _checkOwner */\n      tag_127\n        /* \"@openzeppelin/contracts/access/Ownable.sol\":1531:1544  _checkOwner() */\n      jump\t// in\n    tag_132:\n        /* \"contracts/rewards/BaseRewards.sol\":2660:2672  tokenAddress */\n      dup2\n        /* \"contracts/rewards/BaseRewards.sol\":2653:2682  IERC20(tokenAddress).transfer */\n      0xffffffffffffffffffffffffffffffffffffffff\n      and\n      0xa9059cbb\n        /* \"contracts/rewards/BaseRewards.sol\":2683:2690  owner() */\n      tag_134\n        /* \"contracts/rewards/BaseRewards.sol\":2683:2688  owner */\n      tag_64\n        /* \"contracts/rewards/BaseRewards.sol\":2683:2690  owner() */\n      jump\t// in\n    tag_134:\n        /* \"contracts/rewards/BaseRewards.sol\":2692:2698  amount */\n      dup4\n        /* \"contracts/rewards/BaseRewards.sol\":2653:2699  IERC20(tokenAddress).transfer(owner(), amount) */\n      mload(0x40)\n      dup4\n      0xffffffff\n      and\n      0xe0\n      shl\n      dup2\n      mstore\n      0x04\n      add\n      tag_135\n      swap3\n      swap2\n      swap1\n      tag_116\n      jump\t// in\n    tag_135:\n      0x20\n      mload(0x40)\n      dup1\n      dup4\n      sub\n      dup2\n      0x00\n      dup8\n      gas\n      call\n      iszero\n      dup1\n      iszero\n      tag_137\n      jumpi\n      returndatasize\n      0x00\n      dup1\n      returndatacopy\n      revert(0x00, returndatasize)\n    tag_137:\n      pop\n      pop\n      pop\n      pop\n      mload(0x40)\n      returndatasize\n      not(0x1f)\n      0x1f\n      dup3\n      add\n      and\n      dup3\n      add\n      dup1\n      0x40\n      mstore\n      pop\n      dup2\n      add\n      swap1\n      tag_138\n      swap2\n      swap1\n      tag_120\n      jump\t// in\n    tag_138:\n      pop\n        /* \"contracts/rewards/BaseRewards.sol\":2564:2707  function rescueERC20(address tokenAddress, uint256 amount) external onlyOwner {... */\n      pop\n      pop\n      jump\t// out\n        /* \"@openzeppelin/contracts/access/Ownable.sol\":1638:1723  function owner() public view virtual returns (address) {... */\n    tag_64:\n        /* \"@openzeppelin/contracts/access/Ownable.sol\":1684:1691  address */\n      0x00\n        /* \"@openzeppelin/contracts/access/Ownable.sol\":1710:1716  _owner */\n      dup1\n      0x00\n      swap1\n      sload\n      swap1\n      0x0100\n      exp\n      swap1\n      div\n      0xffffffffffffffffffffffffffffffffffffffff\n      and\n        /* \"@openzeppelin/contracts/access/Ownable.sol\":1703:1716  return _owner */\n      swap1\n      pop\n        /* \"@openzeppelin/contracts/access/Ownable.sol\":1638:1723  function owner() public view virtual returns (address) {... */\n      swap1\n      jump\t// out\n        /* \"contracts/rewards/BaseRewards.sol\":2450:2556  function setRewardRate(uint256 _rewardRate) external onlyOwner {... */\n    tag_69:\n        /* \"@openzeppelin/contracts/access/Ownable.sol\":1531:1544  _checkOwner() */\n      tag_141\n        /* \"@openzeppelin/contracts/access/Ownable.sol\":1531:1542  _checkOwner */\n      tag_127\n        /* \"@openzeppelin/contracts/access/Ownable.sol\":1531:1544  _checkOwner() */\n      jump\t// in\n    tag_141:\n        /* \"contracts/rewards/BaseRewards.sol\":2537:2548  _rewardRate */\n      dup1\n        /* \"contracts/rewards/BaseRewards.sol\":2524:2534  rewardRate */\n      0x04\n        /* \"contracts/rewards/BaseRewards.sol\":2524:2548  rewardRate = _rewardRate */\n      dup2\n      swap1\n      sstore\n      pop\n        /* \"contracts/rewards/BaseRewards.sol\":2450:2556  function setRewardRate(uint256 _rewardRate) external onlyOwner {... */\n      pop\n      jump\t// out\n        /* \"contracts/rewards/BaseRewards.sol\":1427:1749  function stake(uint256 amount) external nonReentrant updateReward(msg.sender) {... */\n    tag_72:\n        /* \"@openzeppelin/contracts/security/ReentrancyGuard.sol\":2261:2282  _nonReentrantBefore() */\n      tag_144\n        /* \"@openzeppelin/contracts/security/ReentrancyGuard.sol\":2261:2280  _nonReentrantBefore */\n      tag_103\n        /* \"@openzeppelin/contracts/security/ReentrancyGuard.sol\":2261:2282  _nonReentrantBefore() */\n      jump\t// in\n    tag_144:\n        /* \"contracts/rewards/BaseRewards.sol\":1493:1503  msg.sender */\n      caller\n        /* \"contracts/rewards/BaseRewards.sol\":3732:3748  rewardPerToken() */\n      tag_146\n        /* \"contracts/rewards/BaseRewards.sol\":3732:3746  rewardPerToken */\n      tag_79\n        /* \"contracts/rewards/BaseRewards.sol\":3732:3748  rewardPerToken() */\n      jump\t// in\n    tag_146:\n        /* \"contracts/rewards/BaseRewards.sol\":3709:3729  rewardPerTokenStored */\n      0x06\n        /* \"contracts/rewards/BaseRewards.sol\":3709:3748  rewardPerTokenStored = rewardPerToken() */\n      dup2\n      swap1\n      sstore\n      pop\n        /* \"contracts/rewards/BaseRewards.sol\":3776:3791  block.timestamp */\n      timestamp\n        /* \"contracts/rewards/BaseRewards.sol\":3759:3773  lastUpdateTime */\n      0x05\n        /* \"contracts/rewards/BaseRewards.sol\":3759:3791  lastUpdateTime = block.timestamp */\n      dup2\n      swap1\n      sstore\n      pop\n        /* \"contracts/rewards/BaseRewards.sol\":3825:3826  0 */\n      0x00\n        /* \"contracts/rewards/BaseRewards.sol\":3806:3827  account != address(0) */\n      0xffffffffffffffffffffffffffffffffffffffff\n      and\n        /* \"contracts/rewards/BaseRewards.sol\":3806:3813  account */\n      dup2\n        /* \"contracts/rewards/BaseRewards.sol\":3806:3827  account != address(0) */\n      0xffffffffffffffffffffffffffffffffffffffff\n      and\n      eq\n        /* \"contracts/rewards/BaseRewards.sol\":3802:3959  if (account != address(0)) {... */\n      tag_147\n      jumpi\n        /* \"contracts/rewards/BaseRewards.sol\":3863:3878  earned(account) */\n      tag_148\n        /* \"contracts/rewards/BaseRewards.sol\":3870:3877  account */\n      dup2\n        /* \"contracts/rewards/BaseRewards.sol\":3863:3869  earned */\n      tag_28\n        /* \"contracts/rewards/BaseRewards.sol\":3863:3878  earned(account) */\n      jump\t// in\n    tag_148:\n        /* \"contracts/rewards/BaseRewards.sol\":3844:3851  rewards */\n      0x08\n        /* \"contracts/rewards/BaseRewards.sol\":3844:3860  rewards[account] */\n      0x00\n        /* \"contracts/rewards/BaseRewards.sol\":3852:3859  account */\n      dup4\n        /* \"contracts/rewards/BaseRewards.sol\":3844:3860  rewards[account] */\n      0xffffffffffffffffffffffffffffffffffffffff\n      and\n      0xffffffffffffffffffffffffffffffffffffffff\n      and\n      dup2\n      mstore\n      0x20\n      add\n      swap1\n      dup2\n      mstore\n      0x20\n      add\n      0x00\n      keccak256\n        /* \"contracts/rewards/BaseRewards.sol\":3844:3878  rewards[account] = earned(account) */\n      dup2\n      swap1\n      sstore\n      pop\n        /* \"contracts/rewards/BaseRewards.sol\":3927:3947  rewardPerTokenStored */\n      sload(0x06)\n        /* \"contracts/rewards/BaseRewards.sol\":3893:3915  userRewardPerTokenPaid */\n      0x07\n        /* \"contracts/rewards/BaseRewards.sol\":3893:3924  userRewardPerTokenPaid[account] */\n      0x00\n        /* \"contracts/rewards/BaseRewards.sol\":3916:3923  account */\n      dup4\n        /* \"contracts/rewards/BaseRewards.sol\":3893:3924  userRewardPerTokenPaid[account] */\n      0xffffffffffffffffffffffffffffffffffffffff\n      and\n      0xffffffffffffffffffffffffffffffffffffffff\n      and\n      dup2\n      mstore\n      0x20\n      add\n      swap1\n      dup2\n      mstore\n      0x20\n      add\n      0x00\n      keccak256\n        /* \"contracts/rewards/BaseRewards.sol\":3893:3947  userRewardPerTokenPaid[account] = rewardPerTokenStored */\n      dup2\n      swap1\n      sstore\n      pop\n        /* \"contracts/rewards/BaseRewards.sol\":3802:3959  if (account != address(0)) {... */\n    tag_147:\n        /* \"contracts/rewards/BaseRewards.sol\":1533:1534  0 */\n      0x00\n        /* \"contracts/rewards/BaseRewards.sol\":1524:1530  amount */\n      dup3\n        /* \"contracts/rewards/BaseRewards.sol\":1524:1534  amount > 0 */\n      gt\n        /* \"contracts/rewards/BaseRewards.sol\":1516:1553  require(amount > 0, \"Cannot stake 0\") */\n      tag_150\n      jumpi\n      mload(0x40)\n      0x08c379a000000000000000000000000000000000000000000000000000000000\n      dup2\n      mstore\n      0x04\n      add\n      tag_151\n      swap1\n      tag_152\n      jump\t// in\n    tag_151:\n      mload(0x40)\n      dup1\n      swap2\n      sub\n      swap1\n      revert\n    tag_150:\n        /* \"contracts/rewards/BaseRewards.sol\":1580:1586  amount */\n      dup2\n        /* \"contracts/rewards/BaseRewards.sol\":1564:1576  _totalSupply */\n      0x09\n      0x00\n        /* \"contracts/rewards/BaseRewards.sol\":1564:1586  _totalSupply += amount */\n      dup3\n      dup3\n      sload\n      tag_153\n      swap2\n      swap1\n      tag_154\n      jump\t// in\n    tag_153:\n      swap3\n      pop\n      pop\n      dup2\n      swap1\n      sstore\n      pop\n        /* \"contracts/rewards/BaseRewards.sol\":1622:1628  amount */\n      dup2\n        /* \"contracts/rewards/BaseRewards.sol\":1597:1606  _balances */\n      0x0a\n        /* \"contracts/rewards/BaseRewards.sol\":1597:1618  _balances[msg.sender] */\n      0x00\n        /* \"contracts/rewards/BaseRewards.sol\":1607:1617  msg.sender */\n      caller\n        /* \"contracts/rewards/BaseRewards.sol\":1597:1618  _balances[msg.sender] */\n      0xffffffffffffffffffffffffffffffffffffffff\n      and\n      0xffffffffffffffffffffffffffffffffffffffff\n      and\n      dup2\n      mstore\n      0x20\n      add\n      swap1\n      dup2\n      mstore\n      0x20\n      add\n      0x00\n      keccak256\n      0x00\n        /* \"contracts/rewards/BaseRewards.sol\":1597:1628  _balances[msg.sender] += amount */\n      dup3\n      dup3\n      sload\n      tag_155\n      swap2\n      swap1\n      tag_154\n      jump\t// in\n    tag_155:\n      swap3\n      pop\n      pop\n      dup2\n      swap1\n      sstore\n      pop\n        /* \"contracts/rewards/BaseRewards.sol\":1639:1651  stakingToken */\n      0x02\n      0x00\n      swap1\n      sload\n      swap1\n      0x0100\n      exp\n      swap1\n      div\n      0xffffffffffffffffffffffffffffffffffffffff\n      and\n        /* \"contracts/rewards/BaseRewards.sol\":1639:1664  stakingToken.transferFrom */\n      0xffffffffffffffffffffffffffffffffffffffff\n      and\n      0x23b872dd\n        /* \"contracts/rewards/BaseRewards.sol\":1665:1675  msg.sender */\n      caller\n        /* \"contracts/rewards/BaseRewards.sol\":1685:1689  this */\n      address\n        /* \"contracts/rewards/BaseRewards.sol\":1692:1698  amount */\n      dup6\n        /* \"contracts/rewards/BaseRewards.sol\":1639:1699  stakingToken.transferFrom(msg.sender, address(this), amount) */\n      mload(0x40)\n      dup5\n      0xffffffff\n      and\n      0xe0\n      shl\n      dup2\n      mstore\n      0x04\n      add\n      tag_156\n      swap4\n      swap3\n      swap2\n      swap1\n      tag_157\n      jump\t// in\n    tag_156:\n      0x20\n      mload(0x40)\n      dup1\n      dup4\n      sub\n      dup2\n      0x00\n      dup8\n      gas\n      call\n      iszero\n      dup1\n      iszero\n      tag_159\n      jumpi\n      returndatasize\n      0x00\n      dup1\n      returndatacopy\n      revert(0x00, returndatasize)\n    tag_159:\n      pop\n      pop\n      pop\n      pop\n      mload(0x40)\n      returndatasize\n      not(0x1f)\n      0x1f\n      dup3\n      add\n      and\n      dup3\n      add\n      dup1\n      0x40\n      mstore\n      pop\n      dup2\n      add\n      swap1\n      tag_160\n      swap2\n      swap1\n      tag_120\n      jump\t// in\n    tag_160:\n      pop\n        /* \"contracts/rewards/BaseRewards.sol\":1722:1732  msg.sender */\n      caller\n        /* \"contracts/rewards/BaseRewards.sol\":1715:1741  Staked(msg.sender, amount) */\n      0xffffffffffffffffffffffffffffffffffffffff\n      and\n      0x9e71bc8eea02a63969f509818f2dafb9254532904319f9dbda79b67bd34a5f3d\n        /* \"contracts/rewards/BaseRewards.sol\":1734:1740  amount */\n      dup4\n        /* \"contracts/rewards/BaseRewards.sol\":1715:1741  Staked(msg.sender, amount) */\n      mload(0x40)\n      tag_161\n      swap2\n      swap1\n      tag_30\n      jump\t// in\n    tag_161:\n      mload(0x40)\n      dup1\n      swap2\n      sub\n      swap1\n      log2\n        /* \"@openzeppelin/contracts/security/ReentrancyGuard.sol\":2292:2293  _ */\n      pop\n        /* \"@openzeppelin/contracts/security/ReentrancyGuard.sol\":2303:2323  _nonReentrantAfter() */\n      tag_162\n        /* \"@openzeppelin/contracts/security/ReentrancyGuard.sol\":2303:2321  _nonReentrantAfter */\n      tag_123\n        /* \"@openzeppelin/contracts/security/ReentrancyGuard.sol\":2303:2323  _nonReentrantAfter() */\n      jump\t// in\n    tag_162:\n        /* \"contracts/rewards/BaseRewards.sol\":1427:1749  function stake(uint256 amount) external nonReentrant updateReward(msg.sender) {... */\n      pop\n      jump\t// out\n        /* \"contracts/rewards/BaseRewards.sol\":2075:2380  function claimReward() public nonReentrant updateReward(msg.sender) {... */\n    tag_74:\n        /* \"@openzeppelin/contracts/security/ReentrancyGuard.sol\":2261:2282  _nonReentrantBefore() */\n      tag_164\n        /* \"@openzeppelin/contracts/security/ReentrancyGuard.sol\":2261:2280  _nonReentrantBefore */\n      tag_103\n        /* \"@openzeppelin/contracts/security/ReentrancyGuard.sol\":2261:2282  _nonReentrantBefore() */\n      jump\t// in\n    tag_164:\n        /* \"contracts/rewards/BaseRewards.sol\":2131:2141  msg.sender */\n      caller\n        /* \"contracts/rewards/BaseRewards.sol\":3732:3748  rewardPerToken() */\n      tag_166\n        /* \"contracts/rewards/BaseRewards.sol\":3732:3746  rewardPerToken */\n      tag_79\n        /* \"contracts/rewards/BaseRewards.sol\":3732:3748  rewardPerToken() */\n      jump\t// in\n    tag_166:\n        /* \"contracts/rewards/BaseRewards.sol\":3709:3729  rewardPerTokenStored */\n      0x06\n        /* \"contracts/rewards/BaseRewards.sol\":3709:3748  rewardPerTokenStored = rewardPerToken() */\n      dup2\n      swap1\n      sstore\n      pop\n        /* \"contracts/rewards/BaseRewards.sol\":3776:3791  block.timestamp */\n      timestamp\n        /* \"contracts/rewards/BaseRewards.sol\":3759:3773  lastUpdateTime */\n      0x05\n        /* \"contracts/rewards/BaseRewards.sol\":3759:3791  lastUpdateTime = block.timestamp */\n      dup2\n      swap1\n      sstore\n      pop\n        /* \"contracts/rewards/BaseRewards.sol\":3825:3826  0 */\n      0x00\n        /* \"contracts/rewards/BaseRewards.sol\":3806:3827  account != address(0) */\n      0xffffffffffffffffffffffffffffffffffffffff\n      and\n        /* \"contracts/rewards/BaseRewards.sol\":3806:3813  account */\n      dup2\n        /* \"contracts/rewards/BaseRewards.sol\":3806:3827  account != address(0) */\n      0xffffffffffffffffffffffffffffffffffffffff\n      and\n      eq\n        /* \"contracts/rewards/BaseRewards.sol\":3802:3959  if (account != address(0)) {... */\n      tag_167\n      jumpi\n        /* \"contracts/rewards/BaseRewards.sol\":3863:3878  earned(account) */\n      tag_168\n        /* \"contracts/rewards/BaseRewards.sol\":3870:3877  account */\n      dup2\n        /* \"contracts/rewards/BaseRewards.sol\":3863:3869  earned */\n      tag_28\n        /* \"contracts/rewards/BaseRewards.sol\":3863:3878  earned(account) */\n      jump\t// in\n    tag_168:\n        /* \"contracts/rewards/BaseRewards.sol\":3844:3851  rewards */\n      0x08\n        /* \"contracts/rewards/BaseRewards.sol\":3844:3860  rewards[account] */\n      0x00\n        /* \"contracts/rewards/BaseRewards.sol\":3852:3859  account */\n      dup4\n        /* \"contracts/rewards/BaseRewards.sol\":3844:3860  rewards[account] */\n      0xffffffffffffffffffffffffffffffffffffffff\n      and\n      0xffffffffffffffffffffffffffffffffffffffff\n      and\n      dup2\n      mstore\n      0x20\n      add\n      swap1\n      dup2\n      mstore\n      0x20\n      add\n      0x00\n      keccak256\n        /* \"contracts/rewards/BaseRewards.sol\":3844:3878  rewards[account] = earned(account) */\n      dup2\n      swap1\n      sstore\n      pop\n        /* \"contracts/rewards/BaseRewards.sol\":3927:3947  rewardPerTokenStored */\n      sload(0x06)\n        /* \"contracts/rewards/BaseRewards.sol\":3893:3915  userRewardPerTokenPaid */\n      0x07\n        /* \"contracts/rewards/BaseRewards.sol\":3893:3924  userRewardPerTokenPaid[account] */\n      0x00\n        /* \"contracts/rewards/BaseRewards.sol\":3916:3923  account */\n      dup4\n        /* \"contracts/rewards/BaseRewards.sol\":3893:3924  userRewardPerTokenPaid[account] */\n      0xffffffffffffffffffffffffffffffffffffffff\n      and\n      0xffffffffffffffffffffffffffffffffffffffff\n      and\n      dup2\n      mstore\n      0x20\n      add\n      swap1\n      dup2\n      mstore\n      0x20\n      add\n      0x00\n      keccak256\n        /* \"contracts/rewards/BaseRewards.sol\":3893:3947  userRewardPerTokenPaid[account] = rewardPerTokenStored */\n      dup2\n      swap1\n      sstore\n      pop\n        /* \"contracts/rewards/BaseRewards.sol\":3802:3959  if (account != address(0)) {... */\n    tag_167:\n        /* \"contracts/rewards/BaseRewards.sol\":2154:2168  uint256 reward */\n      0x00\n        /* \"contracts/rewards/BaseRewards.sol\":2171:2178  rewards */\n      0x08\n        /* \"contracts/rewards/BaseRewards.sol\":2171:2190  rewards[msg.sender] */\n      0x00\n        /* \"contracts/rewards/BaseRewards.sol\":2179:2189  msg.sender */\n      caller\n        /* \"contracts/rewards/BaseRewards.sol\":2171:2190  rewards[msg.sender] */\n      0xffffffffffffffffffffffffffffffffffffffff\n      and\n      0xffffffffffffffffffffffffffffffffffffffff\n      and\n      dup2\n      mstore\n      0x20\n      add\n      swap1\n      dup2\n      mstore\n      0x20\n      add\n      0x00\n      keccak256\n      sload\n        /* \"contracts/rewards/BaseRewards.sol\":2154:2190  uint256 reward = rewards[msg.sender] */\n      swap1\n      pop\n        /* \"contracts/rewards/BaseRewards.sol\":2214:2215  0 */\n      0x00\n        /* \"contracts/rewards/BaseRewards.sol\":2205:2211  reward */\n      dup2\n        /* \"contracts/rewards/BaseRewards.sol\":2205:2215  reward > 0 */\n      gt\n        /* \"contracts/rewards/BaseRewards.sol\":2201:2373  if (reward > 0) {... */\n      iszero\n      tag_170\n      jumpi\n        /* \"contracts/rewards/BaseRewards.sol\":2254:2255  0 */\n      0x00\n        /* \"contracts/rewards/BaseRewards.sol\":2232:2239  rewards */\n      0x08\n        /* \"contracts/rewards/BaseRewards.sol\":2232:2251  rewards[msg.sender] */\n      0x00\n        /* \"contracts/rewards/BaseRewards.sol\":2240:2250  msg.sender */\n      caller\n        /* \"contracts/rewards/BaseRewards.sol\":2232:2251  rewards[msg.sender] */\n      0xffffffffffffffffffffffffffffffffffffffff\n      and\n      0xffffffffffffffffffffffffffffffffffffffff\n      and\n      dup2\n      mstore\n      0x20\n      add\n      swap1\n      dup2\n      mstore\n      0x20\n      add\n      0x00\n      keccak256\n        /* \"contracts/rewards/BaseRewards.sol\":2232:2255  rewards[msg.sender] = 0 */\n      dup2\n      swap1\n      sstore\n      pop\n        /* \"contracts/rewards/BaseRewards.sol\":2270:2282  rewardsToken */\n      0x03\n      0x00\n      swap1\n      sload\n      swap1\n      0x0100\n      exp\n      swap1\n      div\n      0xffffffffffffffffffffffffffffffffffffffff\n      and\n        /* \"contracts/rewards/BaseRewards.sol\":2270:2291  rewardsToken.transfer */\n      0xffffffffffffffffffffffffffffffffffffffff\n      and\n      0xa9059cbb\n        /* \"contracts/rewards/BaseRewards.sol\":2292:2302  msg.sender */\n      caller\n        /* \"contracts/rewards/BaseRewards.sol\":2304:2310  reward */\n      dup4\n        /* \"contracts/rewards/BaseRewards.sol\":2270:2311  rewardsToken.transfer(msg.sender, reward) */\n      mload(0x40)\n      dup4\n      0xffffffff\n      and\n      0xe0\n      shl\n      dup2\n      mstore\n      0x04\n      add\n      tag_171\n      swap3\n      swap2\n      swap1\n      tag_116\n      jump\t// in\n    tag_171:\n      0x20\n      mload(0x40)\n      dup1\n      dup4\n      sub\n      dup2\n      0x00\n      dup8\n      gas\n      call\n      iszero\n      dup1\n      iszero\n      tag_173\n      jumpi\n      returndatasize\n      0x00\n      dup1\n      returndatacopy\n      revert(0x00, returndatasize)\n    tag_173:\n      pop\n      pop\n      pop\n      pop\n      mload(0x40)\n      returndatasize\n      not(0x1f)\n      0x1f\n      dup3\n      add\n      and\n      dup3\n      add\n      dup1\n      0x40\n      mstore\n      pop\n      dup2\n      add\n      swap1\n      tag_174\n      swap2\n      swap1\n      tag_120\n      jump\t// in\n    tag_174:\n      pop\n        /* \"contracts/rewards/BaseRewards.sol\":2342:2352  msg.sender */\n      caller\n        /* \"contracts/rewards/BaseRewards.sol\":2331:2361  RewardPaid(msg.sender, reward) */\n      0xffffffffffffffffffffffffffffffffffffffff\n      and\n      0xe2403640ba68fed3a2f88b7557551d1993f84b99bb10ff833f0cf8db0c5e0486\n        /* \"contracts/rewards/BaseRewards.sol\":2354:2360  reward */\n      dup3\n        /* \"contracts/rewards/BaseRewards.sol\":2331:2361  RewardPaid(msg.sender, reward) */\n      mload(0x40)\n      tag_175\n      swap2\n      swap1\n      tag_30\n      jump\t// in\n    tag_175:\n      mload(0x40)\n      dup1\n      swap2\n      sub\n      swap1\n      log2\n        /* \"contracts/rewards/BaseRewards.sol\":2201:2373  if (reward > 0) {... */\n    tag_170:\n        /* \"contracts/rewards/BaseRewards.sol\":2143:2380  {... */\n      pop\n        /* \"@openzeppelin/contracts/security/ReentrancyGuard.sol\":2292:2293  _ */\n      pop\n        /* \"@openzeppelin/contracts/security/ReentrancyGuard.sol\":2303:2323  _nonReentrantAfter() */\n      tag_176\n        /* \"@openzeppelin/contracts/security/ReentrancyGuard.sol\":2303:2321  _nonReentrantAfter */\n      tag_123\n        /* \"@openzeppelin/contracts/security/ReentrancyGuard.sol\":2303:2323  _nonReentrantAfter() */\n      jump\t// in\n    tag_176:\n        /* \"contracts/rewards/BaseRewards.sol\":2075:2380  function claimReward() public nonReentrant updateReward(msg.sender) {... */\n      jump\t// out\n        /* \"contracts/rewards/BaseRewards.sol\":602:631  uint256 public lastUpdateTime */\n    tag_76:\n      sload(0x05)\n      dup2\n      jump\t// out\n        /* \"contracts/rewards/BaseRewards.sol\":3271:3592  function rewardPerToken() public view returns (uint256) {... */\n    tag_79:\n        /* \"contracts/rewards/BaseRewards.sol\":3318:3325  uint256 */\n      0x00\n        /* \"contracts/rewards/BaseRewards.sol\":3358:3359  0 */\n      dup1\n        /* \"contracts/rewards/BaseRewards.sol\":3342:3354  _totalSupply */\n      sload(0x09)\n        /* \"contracts/rewards/BaseRewards.sol\":3342:3359  _totalSupply == 0 */\n      sub\n        /* \"contracts/rewards/BaseRewards.sol\":3338:3415  if (_totalSupply == 0) {... */\n      tag_178\n      jumpi\n        /* \"contracts/rewards/BaseRewards.sol\":3383:3403  rewardPerTokenStored */\n      sload(0x06)\n        /* \"contracts/rewards/BaseRewards.sol\":3376:3403  return rewardPerTokenStored */\n      swap1\n      pop\n      jump(tag_177)\n        /* \"contracts/rewards/BaseRewards.sol\":3338:3415  if (_totalSupply == 0) {... */\n    tag_178:\n        /* \"contracts/rewards/BaseRewards.sol\":3445:3584  rewardPerTokenStored.add(... */\n      tag_179\n        /* \"contracts/rewards/BaseRewards.sol\":3488:3569  (block.timestamp.sub(lastUpdateTime)).mul(rewardRate).mul(1e18).div(_totalSupply) */\n      tag_180\n        /* \"contracts/rewards/BaseRewards.sol\":3556:3568  _totalSupply */\n      sload(0x09)\n        /* \"contracts/rewards/BaseRewards.sol\":3488:3551  (block.timestamp.sub(lastUpdateTime)).mul(rewardRate).mul(1e18) */\n      tag_181\n        /* \"contracts/rewards/BaseRewards.sol\":3546:3550  1e18 */\n      0x0de0b6b3a7640000\n        /* \"contracts/rewards/BaseRewards.sol\":3488:3541  (block.timestamp.sub(lastUpdateTime)).mul(rewardRate) */\n      tag_182\n        /* \"contracts/rewards/BaseRewards.sol\":3530:3540  rewardRate */\n      sload(0x04)\n        /* \"contracts/rewards/BaseRewards.sol\":3489:3524  block.timestamp.sub(lastUpdateTime) */\n      tag_183\n        /* \"contracts/rewards/BaseRewards.sol\":3509:3523  lastUpdateTime */\n      sload(0x05)\n        /* \"contracts/rewards/BaseRewards.sol\":3489:3504  block.timestamp */\n      timestamp\n        /* \"contracts/rewards/BaseRewards.sol\":3489:3508  block.timestamp.sub */\n      tag_96\n      swap1\n        /* \"contracts/rewards/BaseRewards.sol\":3489:3524  block.timestamp.sub(lastUpdateTime) */\n      swap2\n      swap1\n      0xffffffff\n      and\n      jump\t// in\n    tag_183:\n        /* \"contracts/rewards/BaseRewards.sol\":3488:3529  (block.timestamp.sub(lastUpdateTime)).mul */\n      tag_97\n      swap1\n        /* \"contracts/rewards/BaseRewards.sol\":3488:3541  (block.timestamp.sub(lastUpdateTime)).mul(rewardRate) */\n      swap2\n      swap1\n      0xffffffff\n      and\n      jump\t// in\n    tag_182:\n        /* \"contracts/rewards/BaseRewards.sol\":3488:3545  (block.timestamp.sub(lastUpdateTime)).mul(rewardRate).mul */\n      tag_97\n      swap1\n        /* \"contracts/rewards/BaseRewards.sol\":3488:3551  (block.timestamp.sub(lastUpdateTime)).mul(rewardRate).mul(1e18) */\n      swap2\n      swap1\n      0xffffffff\n      and\n      jump\t// in\n    tag_181:\n        /* \"contracts/rewards/BaseRewards.sol\":3488:3555  (block.timestamp.sub(lastUpdateTime)).mul(rewardRate).mul(1e18).div */\n      tag_98\n      swap1\n        /* \"contracts/rewards/BaseRewards.sol\":3488:3569  (block.timestamp.sub(lastUpdateTime)).mul(rewardRate).mul(1e18).div(_totalSupply) */\n      swap2\n      swap1\n      0xffffffff\n      and\n      jump\t// in\n    tag_180:\n        /* \"contracts/rewards/BaseRewards.sol\":3445:3465  rewardPerTokenStored */\n      sload(0x06)\n        /* \"contracts/rewards/BaseRewards.sol\":3445:3469  rewardPerTokenStored.add */\n      tag_99\n      swap1\n        /* \"contracts/rewards/BaseRewards.sol\":3445:3584  rewardPerTokenStored.add(... */\n      swap2\n      swap1\n      0xffffffff\n      and\n      jump\t// in\n    tag_179:\n        /* \"contracts/rewards/BaseRewards.sol\":3425:3584  return... */\n      swap1\n      pop\n        /* \"contracts/rewards/BaseRewards.sol\":3271:3592  function rewardPerToken() public view returns (uint256) {... */\n    tag_177:\n      swap1\n      jump\t// out\n        /* \"contracts/rewards/BaseRewards.sol\":485:511  IERC20 public rewardsToken */\n    tag_82:\n      0x03\n      0x00\n      swap1\n      sload\n      swap1\n      0x0100\n      exp\n      swap1\n      div\n      0xffffffffffffffffffffffffffffffffffffffff\n      and\n      dup2\n      jump\t// out\n        /* \"contracts/rewards/BaseRewards.sol\":663:698  uint256 public rewardPerTokenStored */\n    tag_85:\n      sload(0x06)\n      dup2\n      jump\t// out\n        /* \"@openzeppelin/contracts/access/Ownable.sol\":2543:2758  function transferOwnership(address newOwner) public virtual onlyOwner {... */\n    tag_89:\n        /* \"@openzeppelin/contracts/access/Ownable.sol\":1531:1544  _checkOwner() */\n      tag_185\n        /* \"@openzeppelin/contracts/access/Ownable.sol\":1531:1542  _checkOwner */\n      tag_127\n        /* \"@openzeppelin/contracts/access/Ownable.sol\":1531:1544  _checkOwner() */\n      jump\t// in\n    tag_185:\n        /* \"@openzeppelin/contracts/access/Ownable.sol\":2647:2648  0 */\n      0x00\n        /* \"@openzeppelin/contracts/access/Ownable.sol\":2627:2649  newOwner == address(0) */\n      0xffffffffffffffffffffffffffffffffffffffff\n      and\n        /* \"@openzeppelin/contracts/access/Ownable.sol\":2627:2635  newOwner */\n      dup2\n        /* \"@openzeppelin/contracts/access/Ownable.sol\":2627:2649  newOwner == address(0) */\n      0xffffffffffffffffffffffffffffffffffffffff\n      and\n      sub\n        /* \"@openzeppelin/contracts/access/Ownable.sol\":2623:2714  if (newOwner == address(0)) {... */\n      tag_187\n      jumpi\n        /* \"@openzeppelin/contracts/access/Ownable.sol\":2700:2701  0 */\n      0x00\n        /* \"@openzeppelin/contracts/access/Ownable.sol\":2672:2703  OwnableInvalidOwner(address(0)) */\n      mload(0x40)\n      0x1e4fbdf700000000000000000000000000000000000000000000000000000000\n      dup2\n      mstore\n      0x04\n      add\n      tag_188\n      swap2\n      swap1\n      tag_66\n      jump\t// in\n    tag_188:\n      mload(0x40)\n      dup1\n      swap2\n      sub\n      swap1\n      revert\n        /* \"@openzeppelin/contracts/access/Ownable.sol\":2623:2714  if (newOwner == address(0)) {... */\n    tag_187:\n        /* \"@openzeppelin/contracts/access/Ownable.sol\":2723:2751  _transferOwnership(newOwner) */\n      tag_189\n        /* \"@openzeppelin/contracts/access/Ownable.sol\":2742:2750  newOwner */\n      dup2\n        /* \"@openzeppelin/contracts/access/Ownable.sol\":2723:2741  _transferOwnership */\n      tag_130\n        /* \"@openzeppelin/contracts/access/Ownable.sol\":2723:2751  _transferOwnership(newOwner) */\n      jump\t// in\n    tag_189:\n        /* \"@openzeppelin/contracts/access/Ownable.sol\":2543:2758  function transferOwnership(address newOwner) public virtual onlyOwner {... */\n      pop\n      jump\t// out\n        /* \"@openzeppelin/contracts/utils/math/SafeMath.sol\":3122:3218  function sub(uint256 a, uint256 b) internal pure returns (uint256) {... */\n    tag_96:\n        /* \"@openzeppelin/contracts/utils/math/SafeMath.sol\":3180:3187  uint256 */\n      0x00\n        /* \"@openzeppelin/contracts/utils/math/SafeMath.sol\":3210:3211  b */\n      dup2\n        /* \"@openzeppelin/contracts/utils/math/SafeMath.sol\":3206:3207  a */\n      dup4\n        /* \"@openzeppelin/contracts/utils/math/SafeMath.sol\":3206:3211  a - b */\n      tag_191\n      swap2\n      swap1\n      tag_113\n      jump\t// in\n    tag_191:\n        /* \"@openzeppelin/contracts/utils/math/SafeMath.sol\":3199:3211  return a - b */\n      swap1\n      pop\n        /* \"@openzeppelin/contracts/utils/math/SafeMath.sol\":3122:3218  function sub(uint256 a, uint256 b) internal pure returns (uint256) {... */\n      swap3\n      swap2\n      pop\n      pop\n      jump\t// out\n        /* \"@openzeppelin/contracts/utils/math/SafeMath.sol\":3465:3561  function mul(uint256 a, uint256 b) internal pure returns (uint256) {... */\n    tag_97:\n        /* \"@openzeppelin/contracts/utils/math/SafeMath.sol\":3523:3530  uint256 */\n      0x00\n        /* \"@openzeppelin/contracts/utils/math/SafeMath.sol\":3553:3554  b */\n      dup2\n        /* \"@openzeppelin/contracts/utils/math/SafeMath.sol\":3549:3550  a */\n      dup4\n        /* \"@openzeppelin/contracts/utils/math/SafeMath.sol\":3549:3554  a * b */\n      tag_193\n      swap2\n      swap1\n      tag_194\n      jump\t// in\n    tag_193:\n        /* \"@openzeppelin/contracts/utils/math/SafeMath.sol\":3542:3554  return a * b */\n      swap1\n      pop\n        /* \"@openzeppelin/contracts/utils/math/SafeMath.sol\":3465:3561  function mul(uint256 a, uint256 b) internal pure returns (uint256) {... */\n      swap3\n      swap2\n      pop\n      pop\n      jump\t// out\n        /* \"@openzeppelin/contracts/utils/math/SafeMath.sol\":3850:3946  function div(uint256 a, uint256 b) internal pure returns (uint256) {... */\n    tag_98:\n        /* \"@openzeppelin/contracts/utils/math/SafeMath.sol\":3908:3915  uint256 */\n      0x00\n        /* \"@openzeppelin/contracts/utils/math/SafeMath.sol\":3938:3939  b */\n      dup2\n        /* \"@openzeppelin/contracts/utils/math/SafeMath.sol\":3934:3935  a */\n      dup4\n        /* \"@openzeppelin/contracts/utils/math/SafeMath.sol\":3934:3939  a / b */\n      tag_196\n      swap2\n      swap1\n      tag_197\n      jump\t// in\n    tag_196:\n        /* \"@openzeppelin/contracts/utils/math/SafeMath.sol\":3927:3939  return a / b */\n      swap1\n      pop\n        /* \"@openzeppelin/contracts/utils/math/SafeMath.sol\":3850:3946  function div(uint256 a, uint256 b) internal pure returns (uint256) {... */\n      swap3\n      swap2\n      pop\n      pop\n      jump\t// out\n        /* \"@openzeppelin/contracts/utils/math/SafeMath.sol\":2755:2851  function add(uint256 a, uint256 b) internal pure returns (uint256) {... */\n    tag_99:\n        /* \"@openzeppelin/contracts/utils/math/SafeMath.sol\":2813:2820  uint256 */\n      0x00\n        /* \"@openzeppelin/contracts/utils/math/SafeMath.sol\":2843:2844  b */\n      dup2\n        /* \"@openzeppelin/contracts/utils/math/SafeMath.sol\":2839:2840  a */\n      dup4\n        /* \"@openzeppelin/contracts/utils/math/SafeMath.sol\":2839:2844  a + b */\n      tag_199\n      swap2\n      swap1\n      tag_154\n      jump\t// in\n    tag_199:\n        /* \"@openzeppelin/contracts/utils/math/SafeMath.sol\":2832:2844  return a + b */\n      swap1\n      pop\n        /* \"@openzeppelin/contracts/utils/math/SafeMath.sol\":2755:2851  function add(uint256 a, uint256 b) internal pure returns (uint256) {... */\n      swap3\n      swap2\n      pop\n      pop\n      jump\t// out\n        /* \"@openzeppelin/contracts/security/ReentrancyGuard.sol\":2336:2623  function _nonReentrantBefore() private {... */\n    tag_103:\n        /* \"@openzeppelin/contracts/security/ReentrancyGuard.sol\":1759:1760  2 */\n      0x02\n        /* \"@openzeppelin/contracts/security/ReentrancyGuard.sol\":2468:2475  _status */\n      sload(0x01)\n        /* \"@openzeppelin/contracts/security/ReentrancyGuard.sol\":2468:2487  _status != _ENTERED */\n      sub\n        /* \"@openzeppelin/contracts/security/ReentrancyGuard.sol\":2460:2523  require(_status != _ENTERED, \"ReentrancyGuard: reentrant call\") */\n      tag_201\n      jumpi\n      mload(0x40)\n      0x08c379a000000000000000000000000000000000000000000000000000000000\n      dup2\n      mstore\n      0x04\n      add\n      tag_202\n      swap1\n      tag_203\n      jump\t// in\n    tag_202:\n      mload(0x40)\n      dup1\n      swap2\n      sub\n      swap1\n      revert\n    tag_201:\n        /* \"@openzeppelin/contracts/security/ReentrancyGuard.sol\":1759:1760  2 */\n      0x02\n        /* \"@openzeppelin/contracts/security/ReentrancyGuard.sol\":2598:2605  _status */\n      0x01\n        /* \"@openzeppelin/contracts/security/ReentrancyGuard.sol\":2598:2616  _status = _ENTERED */\n      dup2\n      swap1\n      sstore\n      pop\n        /* \"@openzeppelin/contracts/security/ReentrancyGuard.sol\":2336:2623  function _nonReentrantBefore() private {... */\n      jump\t// out\n        /* \"@openzeppelin/contracts/security/ReentrancyGuard.sol\":2629:2838  function _nonReentrantAfter() private {... */\n    tag_123:\n        /* \"@openzeppelin/contracts/security/ReentrancyGuard.sol\":1716:1717  1 */\n      0x01\n        /* \"@openzeppelin/contracts/security/ReentrancyGuard.sol\":2809:2816  _status */\n      dup1\n        /* \"@openzeppelin/contracts/security/ReentrancyGuard.sol\":2809:2831  _status = _NOT_ENTERED */\n      dup2\n      swap1\n      sstore\n      pop\n        /* \"@openzeppelin/contracts/security/ReentrancyGuard.sol\":2629:2838  function _nonReentrantAfter() private {... */\n      jump\t// out\n        /* \"@openzeppelin/contracts/access/Ownable.sol\":1796:1958  function _checkOwner() internal view virtual {... */\n    tag_127:\n        /* \"@openzeppelin/contracts/access/Ownable.sol\":1866:1878  _msgSender() */\n      tag_206\n        /* \"@openzeppelin/contracts/access/Ownable.sol\":1866:1876  _msgSender */\n      tag_207\n        /* \"@openzeppelin/contracts/access/Ownable.sol\":1866:1878  _msgSender() */\n      jump\t// in\n    tag_206:\n        /* \"@openzeppelin/contracts/access/Ownable.sol\":1855:1878  owner() != _msgSender() */\n      0xffffffffffffffffffffffffffffffffffffffff\n      and\n        /* \"@openzeppelin/contracts/access/Ownable.sol\":1855:1862  owner() */\n      tag_208\n        /* \"@openzeppelin/contracts/access/Ownable.sol\":1855:1860  owner */\n      tag_64\n        /* \"@openzeppelin/contracts/access/Ownable.sol\":1855:1862  owner() */\n      jump\t// in\n    tag_208:\n        /* \"@openzeppelin/contracts/access/Ownable.sol\":1855:1878  owner() != _msgSender() */\n      0xffffffffffffffffffffffffffffffffffffffff\n      and\n      eq\n        /* \"@openzeppelin/contracts/access/Ownable.sol\":1851:1952  if (owner() != _msgSender()) {... */\n      tag_209\n      jumpi\n        /* \"@openzeppelin/contracts/access/Ownable.sol\":1928:1940  _msgSender() */\n      tag_210\n        /* \"@openzeppelin/contracts/access/Ownable.sol\":1928:1938  _msgSender */\n      tag_207\n        /* \"@openzeppelin/contracts/access/Ownable.sol\":1928:1940  _msgSender() */\n      jump\t// in\n    tag_210:\n        /* \"@openzeppelin/contracts/access/Ownable.sol\":1901:1941  OwnableUnauthorizedAccount(_msgSender()) */\n      mload(0x40)\n      0x118cdaa700000000000000000000000000000000000000000000000000000000\n      dup2\n      mstore\n      0x04\n      add\n      tag_211\n      swap2\n      swap1\n      tag_66\n      jump\t// in\n    tag_211:\n      mload(0x40)\n      dup1\n      swap2\n      sub\n      swap1\n      revert\n        /* \"@openzeppelin/contracts/access/Ownable.sol\":1851:1952  if (owner() != _msgSender()) {... */\n    tag_209:\n        /* \"@openzeppelin/contracts/access/Ownable.sol\":1796:1958  function _checkOwner() internal view virtual {... */\n      jump\t// out\n        /* \"@openzeppelin/contracts/access/Ownable.sol\":2912:3099  function _transferOwnership(address newOwner) internal virtual {... */\n    tag_130:\n        /* \"@openzeppelin/contracts/access/Ownable.sol\":2985:3001  address oldOwner */\n      0x00\n        /* \"@openzeppelin/contracts/access/Ownable.sol\":3004:3010  _owner */\n      dup1\n      0x00\n      swap1\n      sload\n      swap1\n      0x0100\n      exp\n      swap1\n      div\n      0xffffffffffffffffffffffffffffffffffffffff\n      and\n        /* \"@openzeppelin/contracts/access/Ownable.sol\":2985:3010  address oldOwner = _owner */\n      swap1\n      pop\n        /* \"@openzeppelin/contracts/access/Ownable.sol\":3029:3037  newOwner */\n      dup2\n        /* \"@openzeppelin/contracts/access/Ownable.sol\":3020:3026  _owner */\n      0x00\n      dup1\n        /* \"@openzeppelin/contracts/access/Ownable.sol\":3020:3037  _owner = newOwner */\n      0x0100\n      exp\n      dup2\n      sload\n      dup2\n      0xffffffffffffffffffffffffffffffffffffffff\n      mul\n      not\n      and\n      swap1\n      dup4\n      0xffffffffffffffffffffffffffffffffffffffff\n      and\n      mul\n      or\n      swap1\n      sstore\n      pop\n        /* \"@openzeppelin/contracts/access/Ownable.sol\":3083:3091  newOwner */\n      dup2\n        /* \"@openzeppelin/contracts/access/Ownable.sol\":3052:3092  OwnershipTransferred(oldOwner, newOwner) */\n      0xffffffffffffffffffffffffffffffffffffffff\n      and\n        /* \"@openzeppelin/contracts/access/Ownable.sol\":3073:3081  oldOwner */\n      dup2\n        /* \"@openzeppelin/contracts/access/Ownable.sol\":3052:3092  OwnershipTransferred(oldOwner, newOwner) */\n      0xffffffffffffffffffffffffffffffffffffffff\n      and\n      0x8be0079c531659141344cd1fd0a4f28419497f9722a3daafe3b4186f6b6457e0\n      mload(0x40)\n      mload(0x40)\n      dup1\n      swap2\n      sub\n      swap1\n      log3\n        /* \"@openzeppelin/contracts/access/Ownable.sol\":2975:3099  {... */\n      pop\n        /* \"@openzeppelin/contracts/access/Ownable.sol\":2912:3099  function _transferOwnership(address newOwner) internal virtual {... */\n      pop\n      jump\t// out\n        /* \"@openzeppelin/contracts/utils/Context.sol\":656:752  function _msgSender() internal view virtual returns (address) {... */\n    tag_207:\n        /* \"@openzeppelin/contracts/utils/Context.sol\":709:716  address */\n      0x00\n        /* \"@openzeppelin/contracts/utils/Context.sol\":735:745  msg.sender */\n      caller\n        /* \"@openzeppelin/contracts/utils/Context.sol\":728:745  return msg.sender */\n      swap1\n      pop\n        /* \"@openzeppelin/contracts/utils/Context.sol\":656:752  function _msgSender() internal view virtual returns (address) {... */\n      swap1\n      jump\t// out\n        /* \"#utility.yul\":88:205   */\n    tag_215:\n        /* \"#utility.yul\":197:198   */\n      0x00\n        /* \"#utility.yul\":194:195   */\n      dup1\n        /* \"#utility.yul\":187:199   */\n      revert\n        /* \"#utility.yul\":334:460   */\n    tag_217:\n        /* \"#utility.yul\":371:378   */\n      0x00\n        /* \"#utility.yul\":411:453   */\n      0xffffffffffffffffffffffffffffffffffffffff\n        /* \"#utility.yul\":404:409   */\n      dup3\n        /* \"#utility.yul\":400:454   */\n      and\n        /* \"#utility.yul\":389:454   */\n      swap1\n      pop\n        /* \"#utility.yul\":334:460   */\n      swap2\n      swap1\n      pop\n      jump\t// out\n        /* \"#utility.yul\":466:562   */\n    tag_218:\n        /* \"#utility.yul\":503:510   */\n      0x00\n        /* \"#utility.yul\":532:556   */\n      tag_249\n        /* \"#utility.yul\":550:555   */\n      dup3\n        /* \"#utility.yul\":532:556   */\n      tag_217\n      jump\t// in\n    tag_249:\n        /* \"#utility.yul\":521:556   */\n      swap1\n      pop\n        /* \"#utility.yul\":466:562   */\n      swap2\n      swap1\n      pop\n      jump\t// out\n        /* \"#utility.yul\":568:690   */\n    tag_219:\n        /* \"#utility.yul\":641:665   */\n      tag_251\n        /* \"#utility.yul\":659:664   */\n      dup2\n        /* \"#utility.yul\":641:665   */\n      tag_218\n      jump\t// in\n    tag_251:\n        /* \"#utility.yul\":634:639   */\n      dup2\n        /* \"#utility.yul\":631:666   */\n      eq\n        /* \"#utility.yul\":621:684   */\n      tag_252\n      jumpi\n        /* \"#utility.yul\":680:681   */\n      0x00\n        /* \"#utility.yul\":677:678   */\n      dup1\n        /* \"#utility.yul\":670:682   */\n      revert\n        /* \"#utility.yul\":621:684   */\n    tag_252:\n        /* \"#utility.yul\":568:690   */\n      pop\n      jump\t// out\n        /* \"#utility.yul\":696:835   */\n    tag_220:\n        /* \"#utility.yul\":742:747   */\n      0x00\n        /* \"#utility.yul\":780:786   */\n      dup2\n        /* \"#utility.yul\":767:787   */\n      calldataload\n        /* \"#utility.yul\":758:787   */\n      swap1\n      pop\n        /* \"#utility.yul\":796:829   */\n      tag_254\n        /* \"#utility.yul\":823:828   */\n      dup2\n        /* \"#utility.yul\":796:829   */\n      tag_219\n      jump\t// in\n    tag_254:\n        /* \"#utility.yul\":696:835   */\n      swap3\n      swap2\n      pop\n      pop\n      jump\t// out\n        /* \"#utility.yul\":841:1170   */\n    tag_27:\n        /* \"#utility.yul\":900:906   */\n      0x00\n        /* \"#utility.yul\":949:951   */\n      0x20\n        /* \"#utility.yul\":937:946   */\n      dup3\n        /* \"#utility.yul\":928:935   */\n      dup5\n        /* \"#utility.yul\":924:947   */\n      sub\n        /* \"#utility.yul\":920:952   */\n      slt\n        /* \"#utility.yul\":917:1036   */\n      iszero\n      tag_256\n      jumpi\n        /* \"#utility.yul\":955:1034   */\n      tag_257\n      tag_215\n      jump\t// in\n    tag_257:\n        /* \"#utility.yul\":917:1036   */\n    tag_256:\n        /* \"#utility.yul\":1075:1076   */\n      0x00\n        /* \"#utility.yul\":1100:1153   */\n      tag_258\n        /* \"#utility.yul\":1145:1152   */\n      dup5\n        /* \"#utility.yul\":1136:1142   */\n      dup3\n        /* \"#utility.yul\":1125:1134   */\n      dup6\n        /* \"#utility.yul\":1121:1143   */\n      add\n        /* \"#utility.yul\":1100:1153   */\n      tag_220\n      jump\t// in\n    tag_258:\n        /* \"#utility.yul\":1090:1153   */\n      swap2\n      pop\n        /* \"#utility.yul\":1046:1163   */\n      pop\n        /* \"#utility.yul\":841:1170   */\n      swap3\n      swap2\n      pop\n      pop\n      jump\t// out\n        /* \"#utility.yul\":1176:1253   */\n    tag_221:\n        /* \"#utility.yul\":1213:1220   */\n      0x00\n        /* \"#utility.yul\":1242:1247   */\n      dup2\n        /* \"#utility.yul\":1231:1247   */\n      swap1\n      pop\n        /* \"#utility.yul\":1176:1253   */\n      swap2\n      swap1\n      pop\n      jump\t// out\n        /* \"#utility.yul\":1259:1377   */\n    tag_222:\n        /* \"#utility.yul\":1346:1370   */\n      tag_261\n        /* \"#utility.yul\":1364:1369   */\n      dup2\n        /* \"#utility.yul\":1346:1370   */\n      tag_221\n      jump\t// in\n    tag_261:\n        /* \"#utility.yul\":1341:1344   */\n      dup3\n        /* \"#utility.yul\":1334:1371   */\n      mstore\n        /* \"#utility.yul\":1259:1377   */\n      pop\n      pop\n      jump\t// out\n        /* \"#utility.yul\":1383:1605   */\n    tag_30:\n        /* \"#utility.yul\":1476:1480   */\n      0x00\n        /* \"#utility.yul\":1514:1516   */\n      0x20\n        /* \"#utility.yul\":1503:1512   */\n      dup3\n        /* \"#utility.yul\":1499:1517   */\n      add\n        /* \"#utility.yul\":1491:1517   */\n      swap1\n      pop\n        /* \"#utility.yul\":1527:1598   */\n      tag_263\n        /* \"#utility.yul\":1595:1596   */\n      0x00\n        /* \"#utility.yul\":1584:1593   */\n      dup4\n        /* \"#utility.yul\":1580:1597   */\n      add\n        /* \"#utility.yul\":1571:1577   */\n      dup5\n        /* \"#utility.yul\":1527:1598   */\n      tag_222\n      jump\t// in\n    tag_263:\n        /* \"#utility.yul\":1383:1605   */\n      swap3\n      swap2\n      pop\n      pop\n      jump\t// out\n        /* \"#utility.yul\":1611:1733   */\n    tag_223:\n        /* \"#utility.yul\":1684:1708   */\n      tag_265\n        /* \"#utility.yul\":1702:1707   */\n      dup2\n        /* \"#utility.yul\":1684:1708   */\n      tag_221\n      jump\t// in\n    tag_265:\n        /* \"#utility.yul\":1677:1682   */\n      dup2\n        /* \"#utility.yul\":1674:1709   */\n      eq\n        /* \"#utility.yul\":1664:1727   */\n      tag_266\n      jumpi\n        /* \"#utility.yul\":1723:1724   */\n      0x00\n        /* \"#utility.yul\":1720:1721   */\n      dup1\n        /* \"#utility.yul\":1713:1725   */\n      revert\n        /* \"#utility.yul\":1664:1727   */\n    tag_266:\n        /* \"#utility.yul\":1611:1733   */\n      pop\n      jump\t// out\n        /* \"#utility.yul\":1739:1878   */\n    tag_224:\n        /* \"#utility.yul\":1785:1790   */\n      0x00\n        /* \"#utility.yul\":1823:1829   */\n      dup2\n        /* \"#utility.yul\":1810:1830   */\n      calldataload\n        /* \"#utility.yul\":1801:1830   */\n      swap1\n      pop\n        /* \"#utility.yul\":1839:1872   */\n      tag_268\n        /* \"#utility.yul\":1866:1871   */\n      dup2\n        /* \"#utility.yul\":1839:1872   */\n      tag_223\n      jump\t// in\n    tag_268:\n        /* \"#utility.yul\":1739:1878   */\n      swap3\n      swap2\n      pop\n      pop\n      jump\t// out\n        /* \"#utility.yul\":1884:2213   */\n    tag_40:\n        /* \"#utility.yul\":1943:1949   */\n      0x00\n        /* \"#utility.yul\":1992:1994   */\n      0x20\n        /* \"#utility.yul\":1980:1989   */\n      dup3\n        /* \"#utility.yul\":1971:1978   */\n      dup5\n        /* \"#utility.yul\":1967:1990   */\n      sub\n        /* \"#utility.yul\":1963:1995   */\n      slt\n        /* \"#utility.yul\":1960:2079   */\n      iszero\n      tag_270\n      jumpi\n        /* \"#utility.yul\":1998:2077   */\n      tag_271\n      tag_215\n      jump\t// in\n    tag_271:\n        /* \"#utility.yul\":1960:2079   */\n    tag_270:\n        /* \"#utility.yul\":2118:2119   */\n      0x00\n        /* \"#utility.yul\":2143:2196   */\n      tag_272\n        /* \"#utility.yul\":2188:2195   */\n      dup5\n        /* \"#utility.yul\":2179:2185   */\n      dup3\n        /* \"#utility.yul\":2168:2177   */\n      dup6\n        /* \"#utility.yul\":2164:2186   */\n      add\n        /* \"#utility.yul\":2143:2196   */\n      tag_224\n      jump\t// in\n    tag_272:\n        /* \"#utility.yul\":2133:2196   */\n      swap2\n      pop\n        /* \"#utility.yul\":2089:2206   */\n      pop\n        /* \"#utility.yul\":1884:2213   */\n      swap3\n      swap2\n      pop\n      pop\n      jump\t// out\n        /* \"#utility.yul\":2219:2279   */\n    tag_225:\n        /* \"#utility.yul\":2247:2250   */\n      0x00\n        /* \"#utility.yul\":2268:2273   */\n      dup2\n        /* \"#utility.yul\":2261:2273   */\n      swap1\n      pop\n        /* \"#utility.yul\":2219:2279   */\n      swap2\n      swap1\n      pop\n      jump\t// out\n        /* \"#utility.yul\":2285:2427   */\n    tag_226:\n        /* \"#utility.yul\":2335:2344   */\n      0x00\n        /* \"#utility.yul\":2368:2421   */\n      tag_275\n        /* \"#utility.yul\":2386:2420   */\n      tag_276\n        /* \"#utility.yul\":2395:2419   */\n      tag_277\n        /* \"#utility.yul\":2413:2418   */\n      dup5\n        /* \"#utility.yul\":2395:2419   */\n      tag_217\n      jump\t// in\n    tag_277:\n        /* \"#utility.yul\":2386:2420   */\n      tag_225\n      jump\t// in\n    tag_276:\n        /* \"#utility.yul\":2368:2421   */\n      tag_217\n      jump\t// in\n    tag_275:\n        /* \"#utility.yul\":2355:2421   */\n      swap1\n      pop\n        /* \"#utility.yul\":2285:2427   */\n      swap2\n      swap1\n      pop\n      jump\t// out\n        /* \"#utility.yul\":2433:2559   */\n    tag_227:\n        /* \"#utility.yul\":2483:2492   */\n      0x00\n        /* \"#utility.yul\":2516:2553   */\n      tag_279\n        /* \"#utility.yul\":2547:2552   */\n      dup3\n        /* \"#utility.yul\":2516:2553   */\n      tag_226\n      jump\t// in\n    tag_279:\n        /* \"#utility.yul\":2503:2553   */\n      swap1\n      pop\n        /* \"#utility.yul\":2433:2559   */\n      swap2\n      swap1\n      pop\n      jump\t// out\n        /* \"#utility.yul\":2565:2705   */\n    tag_228:\n        /* \"#utility.yul\":2629:2638   */\n      0x00\n        /* \"#utility.yul\":2662:2699   */\n      tag_281\n        /* \"#utility.yul\":2693:2698   */\n      dup3\n        /* \"#utility.yul\":2662:2699   */\n      tag_227\n      jump\t// in\n    tag_281:\n        /* \"#utility.yul\":2649:2699   */\n      swap1\n      pop\n        /* \"#utility.yul\":2565:2705   */\n      swap2\n      swap1\n      pop\n      jump\t// out\n        /* \"#utility.yul\":2711:2870   */\n    tag_229:\n        /* \"#utility.yul\":2812:2863   */\n      tag_283\n        /* \"#utility.yul\":2857:2862   */\n      dup2\n        /* \"#utility.yul\":2812:2863   */\n      tag_228\n      jump\t// in\n    tag_283:\n        /* \"#utility.yul\":2807:2810   */\n      dup3\n        /* \"#utility.yul\":2800:2864   */\n      mstore\n        /* \"#utility.yul\":2711:2870   */\n      pop\n      pop\n      jump\t// out\n        /* \"#utility.yul\":2876:3126   */\n    tag_51:\n        /* \"#utility.yul\":2983:2987   */\n      0x00\n        /* \"#utility.yul\":3021:3023   */\n      0x20\n        /* \"#utility.yul\":3010:3019   */\n      dup3\n        /* \"#utility.yul\":3006:3024   */\n      add\n        /* \"#utility.yul\":2998:3024   */\n      swap1\n      pop\n        /* \"#utility.yul\":3034:3119   */\n      tag_285\n        /* \"#utility.yul\":3116:3117   */\n      0x00\n        /* \"#utility.yul\":3105:3114   */\n      dup4\n        /* \"#utility.yul\":3101:3118   */\n      add\n        /* \"#utility.yul\":3092:3098   */\n      dup5\n        /* \"#utility.yul\":3034:3119   */\n      tag_229\n      jump\t// in\n    tag_285:\n        /* \"#utility.yul\":2876:3126   */\n      swap3\n      swap2\n      pop\n      pop\n      jump\t// out\n        /* \"#utility.yul\":3132:3606   */\n    tag_61:\n        /* \"#utility.yul\":3200:3206   */\n      0x00\n        /* \"#utility.yul\":3208:3214   */\n      dup1\n        /* \"#utility.yul\":3257:3259   */\n      0x40\n        /* \"#utility.yul\":3245:3254   */\n      dup4\n        /* \"#utility.yul\":3236:3243   */\n      dup6\n        /* \"#utility.yul\":3232:3255   */\n      sub\n        /* \"#utility.yul\":3228:3260   */\n      slt\n        /* \"#utility.yul\":3225:3344   */\n      iszero\n      tag_287\n      jumpi\n        /* \"#utility.yul\":3263:3342   */\n      tag_288\n      tag_215\n      jump\t// in\n    tag_288:\n        /* \"#utility.yul\":3225:3344   */\n    tag_287:\n        /* \"#utility.yul\":3383:3384   */\n      0x00\n        /* \"#utility.yul\":3408:3461   */\n      tag_289\n        /* \"#utility.yul\":3453:3460   */\n      dup6\n        /* \"#utility.yul\":3444:3450   */\n      dup3\n        /* \"#utility.yul\":3433:3442   */\n      dup7\n        /* \"#utility.yul\":3429:3451   */\n      add\n        /* \"#utility.yul\":3408:3461   */\n      tag_220\n      jump\t// in\n    tag_289:\n        /* \"#utility.yul\":3398:3461   */\n      swap3\n      pop\n        /* \"#utility.yul\":3354:3471   */\n      pop\n        /* \"#utility.yul\":3510:3512   */\n      0x20\n        /* \"#utility.yul\":3536:3589   */\n      tag_290\n        /* \"#utility.yul\":3581:3588   */\n      dup6\n        /* \"#utility.yul\":3572:3578   */\n      dup3\n        /* \"#utility.yul\":3561:3570   */\n      dup7\n        /* \"#utility.yul\":3557:3579   */\n      add\n        /* \"#utility.yul\":3536:3589   */\n      tag_224\n      jump\t// in\n    tag_290:\n        /* \"#utility.yul\":3526:3589   */\n      swap2\n      pop\n        /* \"#utility.yul\":3481:3599   */\n      pop\n        /* \"#utility.yul\":3132:3606   */\n      swap3\n      pop\n      swap3\n      swap1\n      pop\n      jump\t// out\n        /* \"#utility.yul\":3612:3730   */\n    tag_230:\n        /* \"#utility.yul\":3699:3723   */\n      tag_292\n        /* \"#utility.yul\":3717:3722   */\n      dup2\n        /* \"#utility.yul\":3699:3723   */\n      tag_218\n      jump\t// in\n    tag_292:\n        /* \"#utility.yul\":3694:3697   */\n      dup3\n        /* \"#utility.yul\":3687:3724   */\n      mstore\n        /* \"#utility.yul\":3612:3730   */\n      pop\n      pop\n      jump\t// out\n        /* \"#utility.yul\":3736:3958   */\n    tag_66:\n        /* \"#utility.yul\":3829:3833   */\n      0x00\n        /* \"#utility.yul\":3867:3869   */\n      0x20\n        /* \"#utility.yul\":3856:3865   */\n      dup3\n        /* \"#utility.yul\":3852:3870   */\n      add\n        /* \"#utility.yul\":3844:3870   */\n      swap1\n      pop\n        /* \"#utility.yul\":3880:3951   */\n      tag_294\n        /* \"#utility.yul\":3948:3949   */\n      0x00\n        /* \"#utility.yul\":3937:3946   */\n      dup4\n        /* \"#utility.yul\":3933:3950   */\n      add\n        /* \"#utility.yul\":3924:3930   */\n      dup5\n        /* \"#utility.yul\":3880:3951   */\n      tag_230\n      jump\t// in\n    tag_294:\n        /* \"#utility.yul\":3736:3958   */\n      swap3\n      swap2\n      pop\n      pop\n      jump\t// out\n        /* \"#utility.yul\":3964:4133   */\n    tag_231:\n        /* \"#utility.yul\":4048:4059   */\n      0x00\n        /* \"#utility.yul\":4082:4088   */\n      dup3\n        /* \"#utility.yul\":4077:4080   */\n      dup3\n        /* \"#utility.yul\":4070:4089   */\n      mstore\n        /* \"#utility.yul\":4122:4126   */\n      0x20\n        /* \"#utility.yul\":4117:4120   */\n      dup3\n        /* \"#utility.yul\":4113:4127   */\n      add\n        /* \"#utility.yul\":4098:4127   */\n      swap1\n      pop\n        /* \"#utility.yul\":3964:4133   */\n      swap3\n      swap2\n      pop\n      pop\n      jump\t// out\n        /* \"#utility.yul\":4139:4306   */\n    tag_232:\n        /* \"#utility.yul\":4279:4298   */\n      0x43616e6e6f742077697468647261772030000000000000000000000000000000\n        /* \"#utility.yul\":4275:4276   */\n      0x00\n        /* \"#utility.yul\":4267:4273   */\n      dup3\n        /* \"#utility.yul\":4263:4277   */\n      add\n        /* \"#utility.yul\":4256:4299   */\n      mstore\n        /* \"#utility.yul\":4139:4306   */\n      pop\n      jump\t// out\n        /* \"#utility.yul\":4312:4678   */\n    tag_233:\n        /* \"#utility.yul\":4454:4457   */\n      0x00\n        /* \"#utility.yul\":4475:4542   */\n      tag_298\n        /* \"#utility.yul\":4539:4541   */\n      0x11\n        /* \"#utility.yul\":4534:4537   */\n      dup4\n        /* \"#utility.yul\":4475:4542   */\n      tag_231\n      jump\t// in\n    tag_298:\n        /* \"#utility.yul\":4468:4542   */\n      swap2\n      pop\n        /* \"#utility.yul\":4551:4644   */\n      tag_299\n        /* \"#utility.yul\":4640:4643   */\n      dup3\n        /* \"#utility.yul\":4551:4644   */\n      tag_232\n      jump\t// in\n    tag_299:\n        /* \"#utility.yul\":4669:4671   */\n      0x20\n        /* \"#utility.yul\":4664:4667   */\n      dup3\n        /* \"#utility.yul\":4660:4672   */\n      add\n        /* \"#utility.yul\":4653:4672   */\n      swap1\n      pop\n        /* \"#utility.yul\":4312:4678   */\n      swap2\n      swap1\n      pop\n      jump\t// out\n        /* \"#utility.yul\":4684:5103   */\n    tag_111:\n        /* \"#utility.yul\":4850:4854   */\n      0x00\n        /* \"#utility.yul\":4888:4890   */\n      0x20\n        /* \"#utility.yul\":4877:4886   */\n      dup3\n        /* \"#utility.yul\":4873:4891   */\n      add\n        /* \"#utility.yul\":4865:4891   */\n      swap1\n      pop\n        /* \"#utility.yul\":4937:4946   */\n      dup2\n        /* \"#utility.yul\":4931:4935   */\n      dup2\n        /* \"#utility.yul\":4927:4947   */\n      sub\n        /* \"#utility.yul\":4923:4924   */\n      0x00\n        /* \"#utility.yul\":4912:4921   */\n      dup4\n        /* \"#utility.yul\":4908:4925   */\n      add\n        /* \"#utility.yul\":4901:4948   */\n      mstore\n        /* \"#utility.yul\":4965:5096   */\n      tag_301\n        /* \"#utility.yul\":5091:5095   */\n      dup2\n        /* \"#utility.yul\":4965:5096   */\n      tag_233\n      jump\t// in\n    tag_301:\n        /* \"#utility.yul\":4957:5096   */\n      swap1\n      pop\n        /* \"#utility.yul\":4684:5103   */\n      swap2\n      swap1\n      pop\n      jump\t// out\n        /* \"#utility.yul\":5109:5289   */\n    tag_234:\n        /* \"#utility.yul\":5157:5234   */\n      0x4e487b7100000000000000000000000000000000000000000000000000000000\n        /* \"#utility.yul\":5154:5155   */\n      0x00\n        /* \"#utility.yul\":5147:5235   */\n      mstore\n        /* \"#utility.yul\":5254:5258   */\n      0x11\n        /* \"#utility.yul\":5251:5252   */\n      0x04\n        /* \"#utility.yul\":5244:5259   */\n      mstore\n        /* \"#utility.yul\":5278:5282   */\n      0x24\n        /* \"#utility.yul\":5275:5276   */\n      0x00\n        /* \"#utility.yul\":5268:5283   */\n      revert\n        /* \"#utility.yul\":5295:5489   */\n    tag_113:\n        /* \"#utility.yul\":5335:5339   */\n      0x00\n        /* \"#utility.yul\":5355:5375   */\n      tag_304\n        /* \"#utility.yul\":5373:5374   */\n      dup3\n        /* \"#utility.yul\":5355:5375   */\n      tag_221\n      jump\t// in\n    tag_304:\n        /* \"#utility.yul\":5350:5375   */\n      swap2\n      pop\n        /* \"#utility.yul\":5389:5409   */\n      tag_305\n        /* \"#utility.yul\":5407:5408   */\n      dup4\n        /* \"#utility.yul\":5389:5409   */\n      tag_221\n      jump\t// in\n    tag_305:\n        /* \"#utility.yul\":5384:5409   */\n      swap3\n      pop\n        /* \"#utility.yul\":5433:5434   */\n      dup3\n        /* \"#utility.yul\":5430:5431   */\n      dup3\n        /* \"#utility.yul\":5426:5435   */\n      sub\n        /* \"#utility.yul\":5418:5435   */\n      swap1\n      pop\n        /* \"#utility.yul\":5457:5458   */\n      dup2\n        /* \"#utility.yul\":5451:5455   */\n      dup2\n        /* \"#utility.yul\":5448:5459   */\n      gt\n        /* \"#utility.yul\":5445:5482   */\n      iszero\n      tag_306\n      jumpi\n        /* \"#utility.yul\":5462:5480   */\n      tag_307\n      tag_234\n      jump\t// in\n    tag_307:\n        /* \"#utility.yul\":5445:5482   */\n    tag_306:\n        /* \"#utility.yul\":5295:5489   */\n      swap3\n      swap2\n      pop\n      pop\n      jump\t// out\n        /* \"#utility.yul\":5495:5827   */\n    tag_116:\n        /* \"#utility.yul\":5616:5620   */\n      0x00\n        /* \"#utility.yul\":5654:5656   */\n      0x40\n        /* \"#utility.yul\":5643:5652   */\n      dup3\n        /* \"#utility.yul\":5639:5657   */\n      add\n        /* \"#utility.yul\":5631:5657   */\n      swap1\n      pop\n        /* \"#utility.yul\":5667:5738   */\n      tag_309\n        /* \"#utility.yul\":5735:5736   */\n      0x00\n        /* \"#utility.yul\":5724:5733   */\n      dup4\n        /* \"#utility.yul\":5720:5737   */\n      add\n        /* \"#utility.yul\":5711:5717   */\n      dup6\n        /* \"#utility.yul\":5667:5738   */\n      tag_230\n      jump\t// in\n    tag_309:\n        /* \"#utility.yul\":5748:5820   */\n      tag_310\n        /* \"#utility.yul\":5816:5818   */\n      0x20\n        /* \"#utility.yul\":5805:5814   */\n      dup4\n        /* \"#utility.yul\":5801:5819   */\n      add\n        /* \"#utility.yul\":5792:5798   */\n      dup5\n        /* \"#utility.yul\":5748:5820   */\n      tag_222\n      jump\t// in\n    tag_310:\n        /* \"#utility.yul\":5495:5827   */\n      swap4\n      swap3\n      pop\n      pop\n      pop\n      jump\t// out\n        /* \"#utility.yul\":5833:5923   */\n    tag_235:\n        /* \"#utility.yul\":5867:5874   */\n      0x00\n        /* \"#utility.yul\":5910:5915   */\n      dup2\n        /* \"#utility.yul\":5903:5916   */\n      iszero\n        /* \"#utility.yul\":5896:5917   */\n      iszero\n        /* \"#utility.yul\":5885:5917   */\n      swap1\n      pop\n        /* \"#utility.yul\":5833:5923   */\n      swap2\n      swap1\n      pop\n      jump\t// out\n        /* \"#utility.yul\":5929:6045   */\n    tag_236:\n        /* \"#utility.yul\":5999:6020   */\n      tag_313\n        /* \"#utility.yul\":6014:6019   */\n      dup2\n        /* \"#utility.yul\":5999:6020   */\n      tag_235\n      jump\t// in\n    tag_313:\n        /* \"#utility.yul\":5992:5997   */\n      dup2\n        /* \"#utility.yul\":5989:6021   */\n      eq\n        /* \"#utility.yul\":5979:6039   */\n      tag_314\n      jumpi\n        /* \"#utility.yul\":6035:6036   */\n      0x00\n        /* \"#utility.yul\":6032:6033   */\n      dup1\n        /* \"#utility.yul\":6025:6037   */\n      revert\n        /* \"#utility.yul\":5979:6039   */\n    tag_314:\n        /* \"#utility.yul\":5929:6045   */\n      pop\n      jump\t// out\n        /* \"#utility.yul\":6051:6188   */\n    tag_237:\n        /* \"#utility.yul\":6105:6110   */\n      0x00\n        /* \"#utility.yul\":6136:6142   */\n      dup2\n        /* \"#utility.yul\":6130:6143   */\n      mload\n        /* \"#utility.yul\":6121:6143   */\n      swap1\n      pop\n        /* \"#utility.yul\":6152:6182   */\n      tag_316\n        /* \"#utility.yul\":6176:6181   */\n      dup2\n        /* \"#utility.yul\":6152:6182   */\n      tag_236\n      jump\t// in\n    tag_316:\n        /* \"#utility.yul\":6051:6188   */\n      swap3\n      swap2\n      pop\n      pop\n      jump\t// out\n        /* \"#utility.yul\":6194:6539   */\n    tag_120:\n        /* \"#utility.yul\":6261:6267   */\n      0x00\n        /* \"#utility.yul\":6310:6312   */\n      0x20\n        /* \"#utility.yul\":6298:6307   */\n      dup3\n        /* \"#utility.yul\":6289:6296   */\n      dup5\n        /* \"#utility.yul\":6285:6308   */\n      sub\n        /* \"#utility.yul\":6281:6313   */\n      slt\n        /* \"#utility.yul\":6278:6397   */\n      iszero\n      tag_318\n      jumpi\n        /* \"#utility.yul\":6316:6395   */\n      tag_319\n      tag_215\n      jump\t// in\n    tag_319:\n        /* \"#utility.yul\":6278:6397   */\n    tag_318:\n        /* \"#utility.yul\":6436:6437   */\n      0x00\n        /* \"#utility.yul\":6461:6522   */\n      tag_320\n        /* \"#utility.yul\":6514:6521   */\n      dup5\n        /* \"#utility.yul\":6505:6511   */\n      dup3\n        /* \"#utility.yul\":6494:6503   */\n      dup6\n        /* \"#utility.yul\":6490:6512   */\n      add\n        /* \"#utility.yul\":6461:6522   */\n      tag_237\n      jump\t// in\n    tag_320:\n        /* \"#utility.yul\":6451:6522   */\n      swap2\n      pop\n        /* \"#utility.yul\":6407:6532   */\n      pop\n        /* \"#utility.yul\":6194:6539   */\n      swap3\n      swap2\n      pop\n      pop\n      jump\t// out\n        /* \"#utility.yul\":6545:6709   */\n    tag_238:\n        /* \"#utility.yul\":6685:6701   */\n      0x43616e6e6f74207374616b652030000000000000000000000000000000000000\n        /* \"#utility.yul\":6681:6682   */\n      0x00\n        /* \"#utility.yul\":6673:6679   */\n      dup3\n        /* \"#utility.yul\":6669:6683   */\n      add\n        /* \"#utility.yul\":6662:6702   */\n      mstore\n        /* \"#utility.yul\":6545:6709   */\n      pop\n      jump\t// out\n        /* \"#utility.yul\":6715:7081   */\n    tag_239:\n        /* \"#utility.yul\":6857:6860   */\n      0x00\n        /* \"#utility.yul\":6878:6945   */\n      tag_323\n        /* \"#utility.yul\":6942:6944   */\n      0x0e\n        /* \"#utility.yul\":6937:6940   */\n      dup4\n        /* \"#utility.yul\":6878:6945   */\n      tag_231\n      jump\t// in\n    tag_323:\n        /* \"#utility.yul\":6871:6945   */\n      swap2\n      pop\n        /* \"#utility.yul\":6954:7047   */\n      tag_324\n        /* \"#utility.yul\":7043:7046   */\n      dup3\n        /* \"#utility.yul\":6954:7047   */\n      tag_238\n      jump\t// in\n    tag_324:\n        /* \"#utility.yul\":7072:7074   */\n      0x20\n        /* \"#utility.yul\":7067:7070   */\n      dup3\n        /* \"#utility.yul\":7063:7075   */\n      add\n        /* \"#utility.yul\":7056:7075   */\n      swap1\n      pop\n        /* \"#utility.yul\":6715:7081   */\n      swap2\n      swap1\n      pop\n      jump\t// out\n        /* \"#utility.yul\":7087:7506   */\n    tag_152:\n        /* \"#utility.yul\":7253:7257   */\n      0x00\n        /* \"#utility.yul\":7291:7293   */\n      0x20\n        /* \"#utility.yul\":7280:7289   */\n      dup3\n        /* \"#utility.yul\":7276:7294   */\n      add\n        /* \"#utility.yul\":7268:7294   */\n      swap1\n      pop\n        /* \"#utility.yul\":7340:7349   */\n      dup2\n        /* \"#utility.yul\":7334:7338   */\n      dup2\n        /* \"#utility.yul\":7330:7350   */\n      sub\n        /* \"#utility.yul\":7326:7327   */\n      0x00\n        /* \"#utility.yul\":7315:7324   */\n      dup4\n        /* \"#utility.yul\":7311:7328   */\n      add\n        /* \"#utility.yul\":7304:7351   */\n      mstore\n        /* \"#utility.yul\":7368:7499   */\n      tag_326\n        /* \"#utility.yul\":7494:7498   */\n      dup2\n        /* \"#utility.yul\":7368:7499   */\n      tag_239\n      jump\t// in\n    tag_326:\n        /* \"#utility.yul\":7360:7499   */\n      swap1\n      pop\n        /* \"#utility.yul\":7087:7506   */\n      swap2\n      swap1\n      pop\n      jump\t// out\n        /* \"#utility.yul\":7512:7703   */\n    tag_154:\n        /* \"#utility.yul\":7552:7555   */\n      0x00\n        /* \"#utility.yul\":7571:7591   */\n      tag_328\n        /* \"#utility.yul\":7589:7590   */\n      dup3\n        /* \"#utility.yul\":7571:7591   */\n      tag_221\n      jump\t// in\n    tag_328:\n        /* \"#utility.yul\":7566:7591   */\n      swap2\n      pop\n        /* \"#utility.yul\":7605:7625   */\n      tag_329\n        /* \"#utility.yul\":7623:7624   */\n      dup4\n        /* \"#utility.yul\":7605:7625   */\n      tag_221\n      jump\t// in\n    tag_329:\n        /* \"#utility.yul\":7600:7625   */\n      swap3\n      pop\n        /* \"#utility.yul\":7648:7649   */\n      dup3\n        /* \"#utility.yul\":7645:7646   */\n      dup3\n        /* \"#utility.yul\":7641:7650   */\n      add\n        /* \"#utility.yul\":7634:7650   */\n      swap1\n      pop\n        /* \"#utility.yul\":7669:7672   */\n      dup1\n        /* \"#utility.yul\":7666:7667   */\n      dup3\n        /* \"#utility.yul\":7663:7673   */\n      gt\n        /* \"#utility.yul\":7660:7696   */\n      iszero\n      tag_330\n      jumpi\n        /* \"#utility.yul\":7676:7694   */\n      tag_331\n      tag_234\n      jump\t// in\n    tag_331:\n        /* \"#utility.yul\":7660:7696   */\n    tag_330:\n        /* \"#utility.yul\":7512:7703   */\n      swap3\n      swap2\n      pop\n      pop\n      jump\t// out\n        /* \"#utility.yul\":7709:8151   */\n    tag_157:\n        /* \"#utility.yul\":7858:7862   */\n      0x00\n        /* \"#utility.yul\":7896:7898   */\n      0x60\n        /* \"#utility.yul\":7885:7894   */\n      dup3\n        /* \"#utility.yul\":7881:7899   */\n      add\n        /* \"#utility.yul\":7873:7899   */\n      swap1\n      pop\n        /* \"#utility.yul\":7909:7980   */\n      tag_333\n        /* \"#utility.yul\":7977:7978   */\n      0x00\n        /* \"#utility.yul\":7966:7975   */\n      dup4\n        /* \"#utility.yul\":7962:7979   */\n      add\n        /* \"#utility.yul\":7953:7959   */\n      dup7\n        /* \"#utility.yul\":7909:7980   */\n      tag_230\n      jump\t// in\n    tag_333:\n        /* \"#utility.yul\":7990:8062   */\n      tag_334\n        /* \"#utility.yul\":8058:8060   */\n      0x20\n        /* \"#utility.yul\":8047:8056   */\n      dup4\n        /* \"#utility.yul\":8043:8061   */\n      add\n        /* \"#utility.yul\":8034:8040   */\n      dup6\n        /* \"#utility.yul\":7990:8062   */\n      tag_230\n      jump\t// in\n    tag_334:\n        /* \"#utility.yul\":8072:8144   */\n      tag_335\n        /* \"#utility.yul\":8140:8142   */\n      0x40\n        /* \"#utility.yul\":8129:8138   */\n      dup4\n        /* \"#utility.yul\":8125:8143   */\n      add\n        /* \"#utility.yul\":8116:8122   */\n      dup5\n        /* \"#utility.yul\":8072:8144   */\n      tag_222\n      jump\t// in\n    tag_335:\n        /* \"#utility.yul\":7709:8151   */\n      swap5\n      swap4\n      pop\n      pop\n      pop\n      pop\n      jump\t// out\n        /* \"#utility.yul\":8157:8567   */\n    tag_194:\n        /* \"#utility.yul\":8197:8204   */\n      0x00\n        /* \"#utility.yul\":8220:8240   */\n      tag_337\n        /* \"#utility.yul\":8238:8239   */\n      dup3\n        /* \"#utility.yul\":8220:8240   */\n      tag_221\n      jump\t// in\n    tag_337:\n        /* \"#utility.yul\":8215:8240   */\n      swap2\n      pop\n        /* \"#utility.yul\":8254:8274   */\n      tag_338\n        /* \"#utility.yul\":8272:8273   */\n      dup4\n        /* \"#utility.yul\":8254:8274   */\n      tag_221\n      jump\t// in\n    tag_338:\n        /* \"#utility.yul\":8249:8274   */\n      swap3\n      pop\n        /* \"#utility.yul\":8309:8310   */\n      dup3\n        /* \"#utility.yul\":8306:8307   */\n      dup3\n        /* \"#utility.yul\":8302:8311   */\n      mul\n        /* \"#utility.yul\":8331:8361   */\n      tag_339\n        /* \"#utility.yul\":8349:8360   */\n      dup2\n        /* \"#utility.yul\":8331:8361   */\n      tag_221\n      jump\t// in\n    tag_339:\n        /* \"#utility.yul\":8320:8361   */\n      swap2\n      pop\n        /* \"#utility.yul\":8510:8511   */\n      dup3\n        /* \"#utility.yul\":8501:8508   */\n      dup3\n        /* \"#utility.yul\":8497:8512   */\n      div\n        /* \"#utility.yul\":8494:8495   */\n      dup5\n        /* \"#utility.yul\":8491:8513   */\n      eq\n        /* \"#utility.yul\":8471:8472   */\n      dup4\n        /* \"#utility.yul\":8464:8473   */\n      iszero\n        /* \"#utility.yul\":8444:8527   */\n      or\n        /* \"#utility.yul\":8421:8560   */\n      tag_340\n      jumpi\n        /* \"#utility.yul\":8540:8558   */\n      tag_341\n      tag_234\n      jump\t// in\n    tag_341:\n        /* \"#utility.yul\":8421:8560   */\n    tag_340:\n        /* \"#utility.yul\":8205:8567   */\n      pop\n        /* \"#utility.yul\":8157:8567   */\n      swap3\n      swap2\n      pop\n      pop\n      jump\t// out\n        /* \"#utility.yul\":8573:8753   */\n    tag_240:\n        /* \"#utility.yul\":8621:8698   */\n      0x4e487b7100000000000000000000000000000000000000000000000000000000\n        /* \"#utility.yul\":8618:8619   */\n      0x00\n        /* \"#utility.yul\":8611:8699   */\n      mstore\n        /* \"#utility.yul\":8718:8722   */\n      0x12\n        /* \"#utility.yul\":8715:8716   */\n      0x04\n        /* \"#utility.yul\":8708:8723   */\n      mstore\n        /* \"#utility.yul\":8742:8746   */\n      0x24\n        /* \"#utility.yul\":8739:8740   */\n      0x00\n        /* \"#utility.yul\":8732:8747   */\n      revert\n        /* \"#utility.yul\":8759:8944   */\n    tag_197:\n        /* \"#utility.yul\":8799:8800   */\n      0x00\n        /* \"#utility.yul\":8816:8836   */\n      tag_344\n        /* \"#utility.yul\":8834:8835   */\n      dup3\n        /* \"#utility.yul\":8816:8836   */\n      tag_221\n      jump\t// in\n    tag_344:\n        /* \"#utility.yul\":8811:8836   */\n      swap2\n      pop\n        /* \"#utility.yul\":8850:8870   */\n      tag_345\n        /* \"#utility.yul\":8868:8869   */\n      dup4\n        /* \"#utility.yul\":8850:8870   */\n      tag_221\n      jump\t// in\n    tag_345:\n        /* \"#utility.yul\":8845:8870   */\n      swap3\n      pop\n        /* \"#utility.yul\":8889:8890   */\n      dup3\n        /* \"#utility.yul\":8879:8914   */\n      tag_346\n      jumpi\n        /* \"#utility.yul\":8894:8912   */\n      tag_347\n      tag_240\n      jump\t// in\n    tag_347:\n        /* \"#utility.yul\":8879:8914   */\n    tag_346:\n        /* \"#utility.yul\":8936:8937   */\n      dup3\n        /* \"#utility.yul\":8933:8934   */\n      dup3\n        /* \"#utility.yul\":8929:8938   */\n      div\n        /* \"#utility.yul\":8924:8938   */\n      swap1\n      pop\n        /* \"#utility.yul\":8759:8944   */\n      swap3\n      swap2\n      pop\n      pop\n      jump\t// out\n        /* \"#utility.yul\":8950:9131   */\n    tag_241:\n        /* \"#utility.yul\":9090:9123   */\n      0x5265656e7472616e637947756172643a207265656e7472616e742063616c6c00\n        /* \"#utility.yul\":9086:9087   */\n      0x00\n        /* \"#utility.yul\":9078:9084   */\n      dup3\n        /* \"#utility.yul\":9074:9088   */\n      add\n        /* \"#utility.yul\":9067:9124   */\n      mstore\n        /* \"#utility.yul\":8950:9131   */\n      pop\n      jump\t// out\n        /* \"#utility.yul\":9137:9503   */\n    tag_242:\n        /* \"#utility.yul\":9279:9282   */\n      0x00\n        /* \"#utility.yul\":9300:9367   */\n      tag_350\n        /* \"#utility.yul\":9364:9366   */\n      0x1f\n        /* \"#utility.yul\":9359:9362   */\n      dup4\n        /* \"#utility.yul\":9300:9367   */\n      tag_231\n      jump\t// in\n    tag_350:\n        /* \"#utility.yul\":9293:9367   */\n      swap2\n      pop\n        /* \"#utility.yul\":9376:9469   */\n      tag_351\n        /* \"#utility.yul\":9465:9468   */\n      dup3\n        /* \"#utility.yul\":9376:9469   */\n      tag_241\n      jump\t// in\n    tag_351:\n        /* \"#utility.yul\":9494:9496   */\n      0x20\n        /* \"#utility.yul\":9489:9492   */\n      dup3\n        /* \"#utility.yul\":9485:9497   */\n      add\n        /* \"#utility.yul\":9478:9497   */\n      swap1\n      pop\n        /* \"#utility.yul\":9137:9503   */\n      swap2\n      swap1\n      pop\n      jump\t// out\n        /* \"#utility.yul\":9509:9928   */\n    tag_203:\n        /* \"#utility.yul\":9675:9679   */\n      0x00\n        /* \"#utility.yul\":9713:9715   */\n      0x20\n        /* \"#utility.yul\":9702:9711   */\n      dup3\n        /* \"#utility.yul\":9698:9716   */\n      add\n        /* \"#utility.yul\":9690:9716   */\n      swap1\n      pop\n        /* \"#utility.yul\":9762:9771   */\n      dup2\n        /* \"#utility.yul\":9756:9760   */\n      dup2\n        /* \"#utility.yul\":9752:9772   */\n      sub\n        /* \"#utility.yul\":9748:9749   */\n      0x00\n        /* \"#utility.yul\":9737:9746   */\n      dup4\n        /* \"#utility.yul\":9733:9750   */\n      add\n        /* \"#utility.yul\":9726:9773   */\n      mstore\n        /* \"#utility.yul\":9790:9921   */\n      tag_353\n        /* \"#utility.yul\":9916:9920   */\n      dup2\n        /* \"#utility.yul\":9790:9921   */\n      tag_242\n      jump\t// in\n    tag_353:\n        /* \"#utility.yul\":9782:9921   */\n      swap1\n      pop\n        /* \"#utility.yul\":9509:9928   */\n      swap2\n      swap1\n      pop\n      jump\t// out\n\n    auxdata: 0xa2646970667358221220509b465ce5e3fb815d83eaac43352a8668214ba6e7c89e69bc9e2b43ac49766e64736f6c63430008180033\n}\n",
				"bytecode": {
					"linkReferences": {},
					"object": "608060405234801562000010575f80fd5b506040516200190338038062001903833981810160405281019062000036919062000272565b805f73ffffffffffffffffffffffffffffffffffffffff168173ffffffffffffffffffffffffffffffffffffffff1603620000aa575f6040517f1e4fbdf7000000000000000000000000000000000000000000000000000000008152600401620000a19190620002dc565b60405180910390fd5b620000bb816200014c60201b60201c565b50600180819055508260025f6101000a81548173ffffffffffffffffffffffffffffffffffffffff021916908373ffffffffffffffffffffffffffffffffffffffff1602179055508160035f6101000a81548173ffffffffffffffffffffffffffffffffffffffff021916908373ffffffffffffffffffffffffffffffffffffffff160217905550505050620002f7565b5f805f9054906101000a900473ffffffffffffffffffffffffffffffffffffffff169050815f806101000a81548173ffffffffffffffffffffffffffffffffffffffff021916908373ffffffffffffffffffffffffffffffffffffffff1602179055508173ffffffffffffffffffffffffffffffffffffffff168173ffffffffffffffffffffffffffffffffffffffff167f8be0079c531659141344cd1fd0a4f28419497f9722a3daafe3b4186f6b6457e060405160405180910390a35050565b5f80fd5b5f73ffffffffffffffffffffffffffffffffffffffff82169050919050565b5f6200023c8262000211565b9050919050565b6200024e8162000230565b811462000259575f80fd5b50565b5f815190506200026c8162000243565b92915050565b5f805f606084860312156200028c576200028b6200020d565b5b5f6200029b868287016200025c565b9350506020620002ae868287016200025c565b9250506040620002c1868287016200025c565b9150509250925092565b620002d68162000230565b82525050565b5f602082019050620002f15f830184620002cb565b92915050565b6115fe80620003055f395ff3fe608060405234801561000f575f80fd5b506004361061011e575f3560e01c80638cd4426d116100ab578063c8f33c911161006f578063c8f33c91146102de578063cd3daf9d146102fc578063d1af0c7d1461031a578063df136d6514610338578063f2fde38b146103565761011e565b80638cd4426d146102625780638da5cb5b1461027e5780639e447fc61461029c578063a694fc3a146102b8578063b88a802f146102d45761011e565b806370a08231116100f257806370a08231146101bc578063715018a6146101ec57806372f702f3146101f65780637b0a47ee146102145780638b876347146102325761011e565b80628cc262146101225780630700037d1461015257806318160ddd146101825780632e1a7d4d146101a0575b5f80fd5b61013c60048036038101906101379190611108565b610372565b604051610149919061114b565b60405180910390f35b61016c60048036038101906101679190611108565b610489565b604051610179919061114b565b60405180910390f35b61018a61049e565b604051610197919061114b565b60405180910390f35b6101ba60048036038101906101b5919061118e565b6104a7565b005b6101d660048036038101906101d19190611108565b61072b565b6040516101e3919061114b565b60405180910390f35b6101f4610771565b005b6101fe610784565b60405161020b9190611214565b60405180910390f35b61021c6107a9565b604051610229919061114b565b60405180910390f35b61024c60048036038101906102479190611108565b6107af565b604051610259919061114b565b60405180910390f35b61027c6004803603810190610277919061122d565b6107c4565b005b610286610853565b604051610293919061127a565b60405180910390f35b6102b660048036038101906102b1919061118e565b61087a565b005b6102d260048036038101906102cd919061118e565b61088c565b005b6102dc610b12565b005b6102e6610d75565b6040516102f3919061114b565b60405180910390f35b610304610d7b565b604051610311919061114b565b60405180910390f35b610322610e00565b60405161032f9190611214565b60405180910390f35b610340610e25565b60405161034d919061114b565b60405180910390f35b610370600480360381019061036b9190611108565b610e2b565b005b5f61048260085f8473ffffffffffffffffffffffffffffffffffffffff1673ffffffffffffffffffffffffffffffffffffffff1681526020019081526020015f2054610474670de0b6b3a764000061046661041a60075f8973ffffffffffffffffffffffffffffffffffffffff1673ffffffffffffffffffffffffffffffffffffffff1681526020019081526020015f205461040c610d7b565b610eaf90919063ffffffff16565b600a5f8973ffffffffffffffffffffffffffffffffffffffff1673ffffffffffffffffffffffffffffffffffffffff1681526020019081526020015f2054610ec490919063ffffffff16565b610ed990919063ffffffff16565b610eee90919063ffffffff16565b9050919050565b6008602052805f5260405f205f915090505481565b5f600954905090565b6104af610f03565b336104b8610d7b565b600681905550426005819055505f73ffffffffffffffffffffffffffffffffffffffff168173ffffffffffffffffffffffffffffffffffffffff16146105875761050181610372565b60085f8373ffffffffffffffffffffffffffffffffffffffff1673ffffffffffffffffffffffffffffffffffffffff1681526020019081526020015f208190555060065460075f8373ffffffffffffffffffffffffffffffffffffffff1673ffffffffffffffffffffffffffffffffffffffff1681526020019081526020015f20819055505b5f82116105c9576040517f08c379a00000000000000000000000000000000000000000000000000000000081526004016105c0906112ed565b60405180910390fd5b8160095f8282546105da9190611338565b9250508190555081600a5f3373ffffffffffffffffffffffffffffffffffffffff1673ffffffffffffffffffffffffffffffffffffffff1681526020019081526020015f205f82825461062d9190611338565b9250508190555060025f9054906101000a900473ffffffffffffffffffffffffffffffffffffffff1673ffffffffffffffffffffffffffffffffffffffff1663a9059cbb33846040518363ffffffff1660e01b815260040161069092919061136b565b6020604051808303815f875af11580156106ac573d5f803e3d5ffd5b505050506040513d601f19601f820116820180604052508101906106d091906113c7565b503373ffffffffffffffffffffffffffffffffffffffff167f7084f5476618d8e60b11ef0d7d3f06914655adb8793e28ff7f018d4c76d505d583604051610717919061114b565b60405180910390a250610728610f52565b50565b5f600a5f8373ffffffffffffffffffffffffffffffffffffffff1673ffffffffffffffffffffffffffffffffffffffff1681526020019081526020015f20549050919050565b610779610f5b565b6107825f610fe2565b565b60025f9054906101000a900473ffffffffffffffffffffffffffffffffffffffff1681565b60045481565b6007602052805f5260405f205f915090505481565b6107cc610f5b565b8173ffffffffffffffffffffffffffffffffffffffff1663a9059cbb6107f0610853565b836040518363ffffffff1660e01b815260040161080e92919061136b565b6020604051808303815f875af115801561082a573d5f803e3d5ffd5b505050506040513d601f19601f8201168201806040525081019061084e91906113c7565b505050565b5f805f9054906101000a900473ffffffffffffffffffffffffffffffffffffffff16905090565b610882610f5b565b8060048190555050565b610894610f03565b3361089d610d7b565b600681905550426005819055505f73ffffffffffffffffffffffffffffffffffffffff168173ffffffffffffffffffffffffffffffffffffffff161461096c576108e681610372565b60085f8373ffffffffffffffffffffffffffffffffffffffff1673ffffffffffffffffffffffffffffffffffffffff1681526020019081526020015f208190555060065460075f8373ffffffffffffffffffffffffffffffffffffffff1673ffffffffffffffffffffffffffffffffffffffff1681526020019081526020015f20819055505b5f82116109ae576040517f08c379a00000000000000000000000000000000000000000000000000000000081526004016109a59061143c565b60405180910390fd5b8160095f8282546109bf919061145a565b9250508190555081600a5f3373ffffffffffffffffffffffffffffffffffffffff1673ffffffffffffffffffffffffffffffffffffffff1681526020019081526020015f205f828254610a12919061145a565b9250508190555060025f9054906101000a900473ffffffffffffffffffffffffffffffffffffffff1673ffffffffffffffffffffffffffffffffffffffff166323b872dd3330856040518463ffffffff1660e01b8152600401610a779392919061148d565b6020604051808303815f875af1158015610a93573d5f803e3d5ffd5b505050506040513d601f19601f82011682018060405250810190610ab791906113c7565b503373ffffffffffffffffffffffffffffffffffffffff167f9e71bc8eea02a63969f509818f2dafb9254532904319f9dbda79b67bd34a5f3d83604051610afe919061114b565b60405180910390a250610b0f610f52565b50565b610b1a610f03565b33610b23610d7b565b600681905550426005819055505f73ffffffffffffffffffffffffffffffffffffffff168173ffffffffffffffffffffffffffffffffffffffff1614610bf257610b6c81610372565b60085f8373ffffffffffffffffffffffffffffffffffffffff1673ffffffffffffffffffffffffffffffffffffffff1681526020019081526020015f208190555060065460075f8373ffffffffffffffffffffffffffffffffffffffff1673ffffffffffffffffffffffffffffffffffffffff1681526020019081526020015f20819055505b5f60085f3373ffffffffffffffffffffffffffffffffffffffff1673ffffffffffffffffffffffffffffffffffffffff1681526020019081526020015f205490505f811115610d69575f60085f3373ffffffffffffffffffffffffffffffffffffffff1673ffffffffffffffffffffffffffffffffffffffff1681526020019081526020015f208190555060035f9054906101000a900473ffffffffffffffffffffffffffffffffffffffff1673ffffffffffffffffffffffffffffffffffffffff1663a9059cbb33836040518363ffffffff1660e01b8152600401610cd992919061136b565b6020604051808303815f875af1158015610cf5573d5f803e3d5ffd5b505050506040513d601f19601f82011682018060405250810190610d1991906113c7565b503373ffffffffffffffffffffffffffffffffffffffff167fe2403640ba68fed3a2f88b7557551d1993f84b99bb10ff833f0cf8db0c5e048682604051610d60919061114b565b60405180910390a25b5050610d73610f52565b565b60055481565b5f8060095403610d8f576006549050610dfd565b610dfa610de9600954610ddb670de0b6b3a7640000610dcd600454610dbf60055442610eaf90919063ffffffff16565b610ec490919063ffffffff16565b610ec490919063ffffffff16565b610ed990919063ffffffff16565b600654610eee90919063ffffffff16565b90505b90565b60035f9054906101000a900473ffffffffffffffffffffffffffffffffffffffff1681565b60065481565b610e33610f5b565b5f73ffffffffffffffffffffffffffffffffffffffff168173ffffffffffffffffffffffffffffffffffffffff1603610ea3575f6040517f1e4fbdf7000000000000000000000000000000000000000000000000000000008152600401610e9a919061127a565b60405180910390fd5b610eac81610fe2565b50565b5f8183610ebc9190611338565b905092915050565b5f8183610ed191906114c2565b905092915050565b5f8183610ee69190611530565b905092915050565b5f8183610efb919061145a565b905092915050565b600260015403610f48576040517f08c379a0000000000000000000000000000000000000000000000000000000008152600401610f3f906115aa565b60405180910390fd5b6002600181905550565b60018081905550565b610f636110a3565b73ffffffffffffffffffffffffffffffffffffffff16610f81610853565b73ffffffffffffffffffffffffffffffffffffffff1614610fe057610fa46110a3565b6040517f118cdaa7000000000000000000000000000000000000000000000000000000008152600401610fd7919061127a565b60405180910390fd5b565b5f805f9054906101000a900473ffffffffffffffffffffffffffffffffffffffff169050815f806101000a81548173ffffffffffffffffffffffffffffffffffffffff021916908373ffffffffffffffffffffffffffffffffffffffff1602179055508173ffffffffffffffffffffffffffffffffffffffff168173ffffffffffffffffffffffffffffffffffffffff167f8be0079c531659141344cd1fd0a4f28419497f9722a3daafe3b4186f6b6457e060405160405180910390a35050565b5f33905090565b5f80fd5b5f73ffffffffffffffffffffffffffffffffffffffff82169050919050565b5f6110d7826110ae565b9050919050565b6110e7816110cd565b81146110f1575f80fd5b50565b5f81359050611102816110de565b92915050565b5f6020828403121561111d5761111c6110aa565b5b5f61112a848285016110f4565b91505092915050565b5f819050919050565b61114581611133565b82525050565b5f60208201905061115e5f83018461113c565b92915050565b61116d81611133565b8114611177575f80fd5b50565b5f8135905061118881611164565b92915050565b5f602082840312156111a3576111a26110aa565b5b5f6111b08482850161117a565b91505092915050565b5f819050919050565b5f6111dc6111d76111d2846110ae565b6111b9565b6110ae565b9050919050565b5f6111ed826111c2565b9050919050565b5f6111fe826111e3565b9050919050565b61120e816111f4565b82525050565b5f6020820190506112275f830184611205565b92915050565b5f8060408385031215611243576112426110aa565b5b5f611250858286016110f4565b92505060206112618582860161117a565b9150509250929050565b611274816110cd565b82525050565b5f60208201905061128d5f83018461126b565b92915050565b5f82825260208201905092915050565b7f43616e6e6f7420776974686472617720300000000000000000000000000000005f82015250565b5f6112d7601183611293565b91506112e2826112a3565b602082019050919050565b5f6020820190508181035f830152611304816112cb565b9050919050565b7f4e487b71000000000000000000000000000000000000000000000000000000005f52601160045260245ffd5b5f61134282611133565b915061134d83611133565b92508282039050818111156113655761136461130b565b5b92915050565b5f60408201905061137e5f83018561126b565b61138b602083018461113c565b9392505050565b5f8115159050919050565b6113a681611392565b81146113b0575f80fd5b50565b5f815190506113c18161139d565b92915050565b5f602082840312156113dc576113db6110aa565b5b5f6113e9848285016113b3565b91505092915050565b7f43616e6e6f74207374616b6520300000000000000000000000000000000000005f82015250565b5f611426600e83611293565b9150611431826113f2565b602082019050919050565b5f6020820190508181035f8301526114538161141a565b9050919050565b5f61146482611133565b915061146f83611133565b92508282019050808211156114875761148661130b565b5b92915050565b5f6060820190506114a05f83018661126b565b6114ad602083018561126b565b6114ba604083018461113c565b949350505050565b5f6114cc82611133565b91506114d783611133565b92508282026114e581611133565b915082820484148315176114fc576114fb61130b565b5b5092915050565b7f4e487b71000000000000000000000000000000000000000000000000000000005f52601260045260245ffd5b5f61153a82611133565b915061154583611133565b92508261155557611554611503565b5b828204905092915050565b7f5265656e7472616e637947756172643a207265656e7472616e742063616c6c005f82015250565b5f611594601f83611293565b915061159f82611560565b602082019050919050565b5f6020820190508181035f8301526115c181611588565b905091905056fea2646970667358221220509b465ce5e3fb815d83eaac43352a8668214ba6e7c89e69bc9e2b43ac49766e64736f6c63430008180033",
					"opcodes": "PUSH1 0x80 PUSH1 0x40 MSTORE CALLVALUE DUP1 ISZERO PUSH3 0x10 JUMPI PUSH0 DUP1 REVERT JUMPDEST POP PUSH1 0x40 MLOAD PUSH3 0x1903 CODESIZE SUB DUP1 PUSH3 0x1903 DUP4 CODECOPY DUP2 DUP2 ADD PUSH1 0x40 MSTORE DUP2 ADD SWAP1 PUSH3 0x36 SWAP2 SWAP1 PUSH3 0x272 JUMP JUMPDEST DUP1 PUSH0 PUSH20 0xFFFFFFFFFFFFFFFFFFFFFFFFFFFFFFFFFFFFFFFF AND DUP2 PUSH20 0xFFFFFFFFFFFFFFFFFFFFFFFFFFFFFFFFFFFFFFFF AND SUB PUSH3 0xAA JUMPI PUSH0 PUSH1 0x40 MLOAD PUSH32 0x1E4FBDF700000000000000000000000000000000000000000000000000000000 DUP2 MSTORE PUSH1 0x4 ADD PUSH3 0xA1 SWAP2 SWAP1 PUSH3 0x2DC JUMP JUMPDEST PUSH1 0x40 MLOAD DUP1 SWAP2 SUB SWAP1 REVERT JUMPDEST PUSH3 0xBB DUP2 PUSH3 0x14C PUSH1 0x20 SHL PUSH1 0x20 SHR JUMP JUMPDEST POP PUSH1 0x1 DUP1 DUP2 SWAP1 SSTORE POP DUP3 PUSH1 0x2 PUSH0 PUSH2 0x100 EXP DUP2 SLOAD DUP2 PUSH20 0xFFFFFFFFFFFFFFFFFFFFFFFFFFFFFFFFFFFFFFFF MUL NOT AND SWAP1 DUP4 PUSH20 0xFFFFFFFFFFFFFFFFFFFFFFFFFFFFFFFFFFFFFFFF AND MUL OR SWAP1 SSTORE POP DUP2 PUSH1 0x3 PUSH0 PUSH2 0x100 EXP DUP2 SLOAD DUP2 PUSH20 0xFFFFFFFFFFFFFFFFFFFFFFFFFFFFFFFFFFFFFFFF MUL NOT AND SWAP1 DUP4 PUSH20 0xFFFFFFFFFFFFFFFFFFFFFFFFFFFFFFFFFFFFFFFF AND MUL OR SWAP1 SSTORE POP POP POP POP PUSH3 0x2F7 JUMP JUMPDEST PUSH0 DUP1 PUSH0 SWAP1 SLOAD SWAP1 PUSH2 0x100 EXP SWAP1 DIV PUSH20 0xFFFFFFFFFFFFFFFFFFFFFFFFFFFFFFFFFFFFFFFF AND SWAP1 POP DUP2 PUSH0 DUP1 PUSH2 0x100 EXP DUP2 SLOAD DUP2 PUSH20 0xFFFFFFFFFFFFFFFFFFFFFFFFFFFFFFFFFFFFFFFF MUL NOT AND SWAP1 DUP4 PUSH20 0xFFFFFFFFFFFFFFFFFFFFFFFFFFFFFFFFFFFFFFFF AND MUL OR SWAP1 SSTORE POP DUP2 PUSH20 0xFFFFFFFFFFFFFFFFFFFFFFFFFFFFFFFFFFFFFFFF AND DUP2 PUSH20 0xFFFFFFFFFFFFFFFFFFFFFFFFFFFFFFFFFFFFFFFF AND PUSH32 0x8BE0079C531659141344CD1FD0A4F28419497F9722A3DAAFE3B4186F6B6457E0 PUSH1 0x40 MLOAD PUSH1 0x40 MLOAD DUP1 SWAP2 SUB SWAP1 LOG3 POP POP JUMP JUMPDEST PUSH0 DUP1 REVERT JUMPDEST PUSH0 PUSH20 0xFFFFFFFFFFFFFFFFFFFFFFFFFFFFFFFFFFFFFFFF DUP3 AND SWAP1 POP SWAP2 SWAP1 POP JUMP JUMPDEST PUSH0 PUSH3 0x23C DUP3 PUSH3 0x211 JUMP JUMPDEST SWAP1 POP SWAP2 SWAP1 POP JUMP JUMPDEST PUSH3 0x24E DUP2 PUSH3 0x230 JUMP JUMPDEST DUP2 EQ PUSH3 0x259 JUMPI PUSH0 DUP1 REVERT JUMPDEST POP JUMP JUMPDEST PUSH0 DUP2 MLOAD SWAP1 POP PUSH3 0x26C DUP2 PUSH3 0x243 JUMP JUMPDEST SWAP3 SWAP2 POP POP JUMP JUMPDEST PUSH0 DUP1 PUSH0 PUSH1 0x60 DUP5 DUP7 SUB SLT ISZERO PUSH3 0x28C JUMPI PUSH3 0x28B PUSH3 0x20D JUMP JUMPDEST JUMPDEST PUSH0 PUSH3 0x29B DUP7 DUP3 DUP8 ADD PUSH3 0x25C JUMP JUMPDEST SWAP4 POP POP PUSH1 0x20 PUSH3 0x2AE DUP7 DUP3 DUP8 ADD PUSH3 0x25C JUMP JUMPDEST SWAP3 POP POP PUSH1 0x40 PUSH3 0x2C1 DUP7 DUP3 DUP8 ADD PUSH3 0x25C JUMP JUMPDEST SWAP2 POP POP SWAP3 POP SWAP3 POP SWAP3 JUMP JUMPDEST PUSH3 0x2D6 DUP2 PUSH3 0x230 JUMP JUMPDEST DUP3 MSTORE POP POP JUMP JUMPDEST PUSH0 PUSH1 0x20 DUP3 ADD SWAP1 POP PUSH3 0x2F1 PUSH0 DUP4 ADD DUP5 PUSH3 0x2CB JUMP JUMPDEST SWAP3 SWAP2 POP POP JUMP JUMPDEST PUSH2 0x15FE DUP1 PUSH3 0x305 PUSH0 CODECOPY PUSH0 RETURN INVALID PUSH1 0x80 PUSH1 0x40 MSTORE CALLVALUE DUP1 ISZERO PUSH2 0xF JUMPI PUSH0 DUP1 REVERT JUMPDEST POP PUSH1 0x4 CALLDATASIZE LT PUSH2 0x11E JUMPI PUSH0 CALLDATALOAD PUSH1 0xE0 SHR DUP1 PUSH4 0x8CD4426D GT PUSH2 0xAB JUMPI DUP1 PUSH4 0xC8F33C91 GT PUSH2 0x6F JUMPI DUP1 PUSH4 0xC8F33C91 EQ PUSH2 0x2DE JUMPI DUP1 PUSH4 0xCD3DAF9D EQ PUSH2 0x2FC JUMPI DUP1 PUSH4 0xD1AF0C7D EQ PUSH2 0x31A JUMPI DUP1 PUSH4 0xDF136D65 EQ PUSH2 0x338 JUMPI DUP1 PUSH4 0xF2FDE38B EQ PUSH2 0x356 JUMPI PUSH2 0x11E JUMP JUMPDEST DUP1 PUSH4 0x8CD4426D EQ PUSH2 0x262 JUMPI DUP1 PUSH4 0x8DA5CB5B EQ PUSH2 0x27E JUMPI DUP1 PUSH4 0x9E447FC6 EQ PUSH2 0x29C JUMPI DUP1 PUSH4 0xA694FC3A EQ PUSH2 0x2B8 JUMPI DUP1 PUSH4 0xB88A802F EQ PUSH2 0x2D4 JUMPI PUSH2 0x11E JUMP JUMPDEST DUP1 PUSH4 0x70A08231 GT PUSH2 0xF2 JUMPI DUP1 PUSH4 0x70A08231 EQ PUSH2 0x1BC JUMPI DUP1 PUSH4 0x715018A6 EQ PUSH2 0x1EC JUMPI DUP1 PUSH4 0x72F702F3 EQ PUSH2 0x1F6 JUMPI DUP1 PUSH4 0x7B0A47EE EQ PUSH2 0x214 JUMPI DUP1 PUSH4 0x8B876347 EQ PUSH2 0x232 JUMPI PUSH2 0x11E JUMP JUMPDEST DUP1 PUSH3 0x8CC262 EQ PUSH2 0x122 JUMPI DUP1 PUSH4 0x700037D EQ PUSH2 0x152 JUMPI DUP1 PUSH4 0x18160DDD EQ PUSH2 0x182 JUMPI DUP1 PUSH4 0x2E1A7D4D EQ PUSH2 0x1A0 JUMPI JUMPDEST PUSH0 DUP1 REVERT JUMPDEST PUSH2 0x13C PUSH1 0x4 DUP1 CALLDATASIZE SUB DUP2 ADD SWAP1 PUSH2 0x137 SWAP2 SWAP1 PUSH2 0x1108 JUMP JUMPDEST PUSH2 0x372 JUMP JUMPDEST PUSH1 0x40 MLOAD PUSH2 0x149 SWAP2 SWAP1 PUSH2 0x114B JUMP JUMPDEST PUSH1 0x40 MLOAD DUP1 SWAP2 SUB SWAP1 RETURN JUMPDEST PUSH2 0x16C PUSH1 0x4 DUP1 CALLDATASIZE SUB DUP2 ADD SWAP1 PUSH2 0x167 SWAP2 SWAP1 PUSH2 0x1108 JUMP JUMPDEST PUSH2 0x489 JUMP JUMPDEST PUSH1 0x40 MLOAD PUSH2 0x179 SWAP2 SWAP1 PUSH2 0x114B JUMP JUMPDEST PUSH1 0x40 MLOAD DUP1 SWAP2 SUB SWAP1 RETURN JUMPDEST PUSH2 0x18A PUSH2 0x49E JUMP JUMPDEST PUSH1 0x40 MLOAD PUSH2 0x197 SWAP2 SWAP1 PUSH2 0x114B JUMP JUMPDEST PUSH1 0x40 MLOAD DUP1 SWAP2 SUB SWAP1 RETURN JUMPDEST PUSH2 0x1BA PUSH1 0x4 DUP1 CALLDATASIZE SUB DUP2 ADD SWAP1 PUSH2 0x1B5 SWAP2 SWAP1 PUSH2 0x118E JUMP JUMPDEST PUSH2 0x4A7 JUMP JUMPDEST STOP JUMPDEST PUSH2 0x1D6 PUSH1 0x4 DUP1 CALLDATASIZE SUB DUP2 ADD SWAP1 PUSH2 0x1D1 SWAP2 SWAP1 PUSH2 0x1108 JUMP JUMPDEST PUSH2 0x72B JUMP JUMPDEST PUSH1 0x40 MLOAD PUSH2 0x1E3 SWAP2 SWAP1 PUSH2 0x114B JUMP JUMPDEST PUSH1 0x40 MLOAD DUP1 SWAP2 SUB SWAP1 RETURN JUMPDEST PUSH2 0x1F4 PUSH2 0x771 JUMP JUMPDEST STOP JUMPDEST PUSH2 0x1FE PUSH2 0x784 JUMP JUMPDEST PUSH1 0x40 MLOAD PUSH2 0x20B SWAP2 SWAP1 PUSH2 0x1214 JUMP JUMPDEST PUSH1 0x40 MLOAD DUP1 SWAP2 SUB SWAP1 RETURN JUMPDEST PUSH2 0x21C PUSH2 0x7A9 JUMP JUMPDEST PUSH1 0x40 MLOAD PUSH2 0x229 SWAP2 SWAP1 PUSH2 0x114B JUMP JUMPDEST PUSH1 0x40 MLOAD DUP1 SWAP2 SUB SWAP1 RETURN JUMPDEST PUSH2 0x24C PUSH1 0x4 DUP1 CALLDATASIZE SUB DUP2 ADD SWAP1 PUSH2 0x247 SWAP2 SWAP1 PUSH2 0x1108 JUMP JUMPDEST PUSH2 0x7AF JUMP JUMPDEST PUSH1 0x40 MLOAD PUSH2 0x259 SWAP2 SWAP1 PUSH2 0x114B JUMP JUMPDEST PUSH1 0x40 MLOAD DUP1 SWAP2 SUB SWAP1 RETURN JUMPDEST PUSH2 0x27C PUSH1 0x4 DUP1 CALLDATASIZE SUB DUP2 ADD SWAP1 PUSH2 0x277 SWAP2 SWAP1 PUSH2 0x122D JUMP JUMPDEST PUSH2 0x7C4 JUMP JUMPDEST STOP JUMPDEST PUSH2 0x286 PUSH2 0x853 JUMP JUMPDEST PUSH1 0x40 MLOAD PUSH2 0x293 SWAP2 SWAP1 PUSH2 0x127A JUMP JUMPDEST PUSH1 0x40 MLOAD DUP1 SWAP2 SUB SWAP1 RETURN JUMPDEST PUSH2 0x2B6 PUSH1 0x4 DUP1 CALLDATASIZE SUB DUP2 ADD SWAP1 PUSH2 0x2B1 SWAP2 SWAP1 PUSH2 0x118E JUMP JUMPDEST PUSH2 0x87A JUMP JUMPDEST STOP JUMPDEST PUSH2 0x2D2 PUSH1 0x4 DUP1 CALLDATASIZE SUB DUP2 ADD SWAP1 PUSH2 0x2CD SWAP2 SWAP1 PUSH2 0x118E JUMP JUMPDEST PUSH2 0x88C JUMP JUMPDEST STOP JUMPDEST PUSH2 0x2DC PUSH2 0xB12 JUMP JUMPDEST STOP JUMPDEST PUSH2 0x2E6 PUSH2 0xD75 JUMP JUMPDEST PUSH1 0x40 MLOAD PUSH2 0x2F3 SWAP2 SWAP1 PUSH2 0x114B JUMP JUMPDEST PUSH1 0x40 MLOAD DUP1 SWAP2 SUB SWAP1 RETURN JUMPDEST PUSH2 0x304 PUSH2 0xD7B JUMP JUMPDEST PUSH1 0x40 MLOAD PUSH2 0x311 SWAP2 SWAP1 PUSH2 0x114B JUMP JUMPDEST PUSH1 0x40 MLOAD DUP1 SWAP2 SUB SWAP1 RETURN JUMPDEST PUSH2 0x322 PUSH2 0xE00 JUMP JUMPDEST PUSH1 0x40 MLOAD PUSH2 0x32F SWAP2 SWAP1 PUSH2 0x1214 JUMP JUMPDEST PUSH1 0x40 MLOAD DUP1 SWAP2 SUB SWAP1 RETURN JUMPDEST PUSH2 0x340 PUSH2 0xE25 JUMP JUMPDEST PUSH1 0x40 MLOAD PUSH2 0x34D SWAP2 SWAP1 PUSH2 0x114B JUMP JUMPDEST PUSH1 0x40 MLOAD DUP1 SWAP2 SUB SWAP1 RETURN JUMPDEST PUSH2 0x370 PUSH1 0x4 DUP1 CALLDATASIZE SUB DUP2 ADD SWAP1 PUSH2 0x36B SWAP2 SWAP1 PUSH2 0x1108 JUMP JUMPDEST PUSH2 0xE2B JUMP JUMPDEST STOP JUMPDEST PUSH0 PUSH2 0x482 PUSH1 0x8 PUSH0 DUP5 PUSH20 0xFFFFFFFFFFFFFFFFFFFFFFFFFFFFFFFFFFFFFFFF AND PUSH20 0xFFFFFFFFFFFFFFFFFFFFFFFFFFFFFFFFFFFFFFFF AND DUP2 MSTORE PUSH1 0x20 ADD SWAP1 DUP2 MSTORE PUSH1 0x20 ADD PUSH0 KECCAK256 SLOAD PUSH2 0x474 PUSH8 0xDE0B6B3A7640000 PUSH2 0x466 PUSH2 0x41A PUSH1 0x7 PUSH0 DUP10 PUSH20 0xFFFFFFFFFFFFFFFFFFFFFFFFFFFFFFFFFFFFFFFF AND PUSH20 0xFFFFFFFFFFFFFFFFFFFFFFFFFFFFFFFFFFFFFFFF AND DUP2 MSTORE PUSH1 0x20 ADD SWAP1 DUP2 MSTORE PUSH1 0x20 ADD PUSH0 KECCAK256 SLOAD PUSH2 0x40C PUSH2 0xD7B JUMP JUMPDEST PUSH2 0xEAF SWAP1 SWAP2 SWAP1 PUSH4 0xFFFFFFFF AND JUMP JUMPDEST PUSH1 0xA PUSH0 DUP10 PUSH20 0xFFFFFFFFFFFFFFFFFFFFFFFFFFFFFFFFFFFFFFFF AND PUSH20 0xFFFFFFFFFFFFFFFFFFFFFFFFFFFFFFFFFFFFFFFF AND DUP2 MSTORE PUSH1 0x20 ADD SWAP1 DUP2 MSTORE PUSH1 0x20 ADD PUSH0 KECCAK256 SLOAD PUSH2 0xEC4 SWAP1 SWAP2 SWAP1 PUSH4 0xFFFFFFFF AND JUMP JUMPDEST PUSH2 0xED9 SWAP1 SWAP2 SWAP1 PUSH4 0xFFFFFFFF AND JUMP JUMPDEST PUSH2 0xEEE SWAP1 SWAP2 SWAP1 PUSH4 0xFFFFFFFF AND JUMP JUMPDEST SWAP1 POP SWAP2 SWAP1 POP JUMP JUMPDEST PUSH1 0x8 PUSH1 0x20 MSTORE DUP1 PUSH0 MSTORE PUSH1 0x40 PUSH0 KECCAK256 PUSH0 SWAP2 POP SWAP1 POP SLOAD DUP2 JUMP JUMPDEST PUSH0 PUSH1 0x9 SLOAD SWAP1 POP SWAP1 JUMP JUMPDEST PUSH2 0x4AF PUSH2 0xF03 JUMP JUMPDEST CALLER PUSH2 0x4B8 PUSH2 0xD7B JUMP JUMPDEST PUSH1 0x6 DUP2 SWAP1 SSTORE POP TIMESTAMP PUSH1 0x5 DUP2 SWAP1 SSTORE POP PUSH0 PUSH20 0xFFFFFFFFFFFFFFFFFFFFFFFFFFFFFFFFFFFFFFFF AND DUP2 PUSH20 0xFFFFFFFFFFFFFFFFFFFFFFFFFFFFFFFFFFFFFFFF AND EQ PUSH2 0x587 JUMPI PUSH2 0x501 DUP2 PUSH2 0x372 JUMP JUMPDEST PUSH1 0x8 PUSH0 DUP4 PUSH20 0xFFFFFFFFFFFFFFFFFFFFFFFFFFFFFFFFFFFFFFFF AND PUSH20 0xFFFFFFFFFFFFFFFFFFFFFFFFFFFFFFFFFFFFFFFF AND DUP2 MSTORE PUSH1 0x20 ADD SWAP1 DUP2 MSTORE PUSH1 0x20 ADD PUSH0 KECCAK256 DUP2 SWAP1 SSTORE POP PUSH1 0x6 SLOAD PUSH1 0x7 PUSH0 DUP4 PUSH20 0xFFFFFFFFFFFFFFFFFFFFFFFFFFFFFFFFFFFFFFFF AND PUSH20 0xFFFFFFFFFFFFFFFFFFFFFFFFFFFFFFFFFFFFFFFF AND DUP2 MSTORE PUSH1 0x20 ADD SWAP1 DUP2 MSTORE PUSH1 0x20 ADD PUSH0 KECCAK256 DUP2 SWAP1 SSTORE POP JUMPDEST PUSH0 DUP3 GT PUSH2 0x5C9 JUMPI PUSH1 0x40 MLOAD PUSH32 0x8C379A000000000000000000000000000000000000000000000000000000000 DUP2 MSTORE PUSH1 0x4 ADD PUSH2 0x5C0 SWAP1 PUSH2 0x12ED JUMP JUMPDEST PUSH1 0x40 MLOAD DUP1 SWAP2 SUB SWAP1 REVERT JUMPDEST DUP2 PUSH1 0x9 PUSH0 DUP3 DUP3 SLOAD PUSH2 0x5DA SWAP2 SWAP1 PUSH2 0x1338 JUMP JUMPDEST SWAP3 POP POP DUP2 SWAP1 SSTORE POP DUP2 PUSH1 0xA PUSH0 CALLER PUSH20 0xFFFFFFFFFFFFFFFFFFFFFFFFFFFFFFFFFFFFFFFF AND PUSH20 0xFFFFFFFFFFFFFFFFFFFFFFFFFFFFFFFFFFFFFFFF AND DUP2 MSTORE PUSH1 0x20 ADD SWAP1 DUP2 MSTORE PUSH1 0x20 ADD PUSH0 KECCAK256 PUSH0 DUP3 DUP3 SLOAD PUSH2 0x62D SWAP2 SWAP1 PUSH2 0x1338 JUMP JUMPDEST SWAP3 POP POP DUP2 SWAP1 SSTORE POP PUSH1 0x2 PUSH0 SWAP1 SLOAD SWAP1 PUSH2 0x100 EXP SWAP1 DIV PUSH20 0xFFFFFFFFFFFFFFFFFFFFFFFFFFFFFFFFFFFFFFFF AND PUSH20 0xFFFFFFFFFFFFFFFFFFFFFFFFFFFFFFFFFFFFFFFF AND PUSH4 0xA9059CBB CALLER DUP5 PUSH1 0x40 MLOAD DUP4 PUSH4 0xFFFFFFFF AND PUSH1 0xE0 SHL DUP2 MSTORE PUSH1 0x4 ADD PUSH2 0x690 SWAP3 SWAP2 SWAP1 PUSH2 0x136B JUMP JUMPDEST PUSH1 0x20 PUSH1 0x40 MLOAD DUP1 DUP4 SUB DUP2 PUSH0 DUP8 GAS CALL ISZERO DUP1 ISZERO PUSH2 0x6AC JUMPI RETURNDATASIZE PUSH0 DUP1 RETURNDATACOPY RETURNDATASIZE PUSH0 REVERT JUMPDEST POP POP POP POP PUSH1 0x40 MLOAD RETURNDATASIZE PUSH1 0x1F NOT PUSH1 0x1F DUP3 ADD AND DUP3 ADD DUP1 PUSH1 0x40 MSTORE POP DUP2 ADD SWAP1 PUSH2 0x6D0 SWAP2 SWAP1 PUSH2 0x13C7 JUMP JUMPDEST POP CALLER PUSH20 0xFFFFFFFFFFFFFFFFFFFFFFFFFFFFFFFFFFFFFFFF AND PUSH32 0x7084F5476618D8E60B11EF0D7D3F06914655ADB8793E28FF7F018D4C76D505D5 DUP4 PUSH1 0x40 MLOAD PUSH2 0x717 SWAP2 SWAP1 PUSH2 0x114B JUMP JUMPDEST PUSH1 0x40 MLOAD DUP1 SWAP2 SUB SWAP1 LOG2 POP PUSH2 0x728 PUSH2 0xF52 JUMP JUMPDEST POP JUMP JUMPDEST PUSH0 PUSH1 0xA PUSH0 DUP4 PUSH20 0xFFFFFFFFFFFFFFFFFFFFFFFFFFFFFFFFFFFFFFFF AND PUSH20 0xFFFFFFFFFFFFFFFFFFFFFFFFFFFFFFFFFFFFFFFF AND DUP2 MSTORE PUSH1 0x20 ADD SWAP1 DUP2 MSTORE PUSH1 0x20 ADD PUSH0 KECCAK256 SLOAD SWAP1 POP SWAP2 SWAP1 POP JUMP JUMPDEST PUSH2 0x779 PUSH2 0xF5B JUMP JUMPDEST PUSH2 0x782 PUSH0 PUSH2 0xFE2 JUMP JUMPDEST JUMP JUMPDEST PUSH1 0x2 PUSH0 SWAP1 SLOAD SWAP1 PUSH2 0x100 EXP SWAP1 DIV PUSH20 0xFFFFFFFFFFFFFFFFFFFFFFFFFFFFFFFFFFFFFFFF AND DUP2 JUMP JUMPDEST PUSH1 0x4 SLOAD DUP2 JUMP JUMPDEST PUSH1 0x7 PUSH1 0x20 MSTORE DUP1 PUSH0 MSTORE PUSH1 0x40 PUSH0 KECCAK256 PUSH0 SWAP2 POP SWAP1 POP SLOAD DUP2 JUMP JUMPDEST PUSH2 0x7CC PUSH2 0xF5B JUMP JUMPDEST DUP2 PUSH20 0xFFFFFFFFFFFFFFFFFFFFFFFFFFFFFFFFFFFFFFFF AND PUSH4 0xA9059CBB PUSH2 0x7F0 PUSH2 0x853 JUMP JUMPDEST DUP4 PUSH1 0x40 MLOAD DUP4 PUSH4 0xFFFFFFFF AND PUSH1 0xE0 SHL DUP2 MSTORE PUSH1 0x4 ADD PUSH2 0x80E SWAP3 SWAP2 SWAP1 PUSH2 0x136B JUMP JUMPDEST PUSH1 0x20 PUSH1 0x40 MLOAD DUP1 DUP4 SUB DUP2 PUSH0 DUP8 GAS CALL ISZERO DUP1 ISZERO PUSH2 0x82A JUMPI RETURNDATASIZE PUSH0 DUP1 RETURNDATACOPY RETURNDATASIZE PUSH0 REVERT JUMPDEST POP POP POP POP PUSH1 0x40 MLOAD RETURNDATASIZE PUSH1 0x1F NOT PUSH1 0x1F DUP3 ADD AND DUP3 ADD DUP1 PUSH1 0x40 MSTORE POP DUP2 ADD SWAP1 PUSH2 0x84E SWAP2 SWAP1 PUSH2 0x13C7 JUMP JUMPDEST POP POP POP JUMP JUMPDEST PUSH0 DUP1 PUSH0 SWAP1 SLOAD SWAP1 PUSH2 0x100 EXP SWAP1 DIV PUSH20 0xFFFFFFFFFFFFFFFFFFFFFFFFFFFFFFFFFFFFFFFF AND SWAP1 POP SWAP1 JUMP JUMPDEST PUSH2 0x882 PUSH2 0xF5B JUMP JUMPDEST DUP1 PUSH1 0x4 DUP2 SWAP1 SSTORE POP POP JUMP JUMPDEST PUSH2 0x894 PUSH2 0xF03 JUMP JUMPDEST CALLER PUSH2 0x89D PUSH2 0xD7B JUMP JUMPDEST PUSH1 0x6 DUP2 SWAP1 SSTORE POP TIMESTAMP PUSH1 0x5 DUP2 SWAP1 SSTORE POP PUSH0 PUSH20 0xFFFFFFFFFFFFFFFFFFFFFFFFFFFFFFFFFFFFFFFF AND DUP2 PUSH20 0xFFFFFFFFFFFFFFFFFFFFFFFFFFFFFFFFFFFFFFFF AND EQ PUSH2 0x96C JUMPI PUSH2 0x8E6 DUP2 PUSH2 0x372 JUMP JUMPDEST PUSH1 0x8 PUSH0 DUP4 PUSH20 0xFFFFFFFFFFFFFFFFFFFFFFFFFFFFFFFFFFFFFFFF AND PUSH20 0xFFFFFFFFFFFFFFFFFFFFFFFFFFFFFFFFFFFFFFFF AND DUP2 MSTORE PUSH1 0x20 ADD SWAP1 DUP2 MSTORE PUSH1 0x20 ADD PUSH0 KECCAK256 DUP2 SWAP1 SSTORE POP PUSH1 0x6 SLOAD PUSH1 0x7 PUSH0 DUP4 PUSH20 0xFFFFFFFFFFFFFFFFFFFFFFFFFFFFFFFFFFFFFFFF AND PUSH20 0xFFFFFFFFFFFFFFFFFFFFFFFFFFFFFFFFFFFFFFFF AND DUP2 MSTORE PUSH1 0x20 ADD SWAP1 DUP2 MSTORE PUSH1 0x20 ADD PUSH0 KECCAK256 DUP2 SWAP1 SSTORE POP JUMPDEST PUSH0 DUP3 GT PUSH2 0x9AE JUMPI PUSH1 0x40 MLOAD PUSH32 0x8C379A000000000000000000000000000000000000000000000000000000000 DUP2 MSTORE PUSH1 0x4 ADD PUSH2 0x9A5 SWAP1 PUSH2 0x143C JUMP JUMPDEST PUSH1 0x40 MLOAD DUP1 SWAP2 SUB SWAP1 REVERT JUMPDEST DUP2 PUSH1 0x9 PUSH0 DUP3 DUP3 SLOAD PUSH2 0x9BF SWAP2 SWAP1 PUSH2 0x145A JUMP JUMPDEST SWAP3 POP POP DUP2 SWAP1 SSTORE POP DUP2 PUSH1 0xA PUSH0 CALLER PUSH20 0xFFFFFFFFFFFFFFFFFFFFFFFFFFFFFFFFFFFFFFFF AND PUSH20 0xFFFFFFFFFFFFFFFFFFFFFFFFFFFFFFFFFFFFFFFF AND DUP2 MSTORE PUSH1 0x20 ADD SWAP1 DUP2 MSTORE PUSH1 0x20 ADD PUSH0 KECCAK256 PUSH0 DUP3 DUP3 SLOAD PUSH2 0xA12 SWAP2 SWAP1 PUSH2 0x145A JUMP JUMPDEST SWAP3 POP POP DUP2 SWAP1 SSTORE POP PUSH1 0x2 PUSH0 SWAP1 SLOAD SWAP1 PUSH2 0x100 EXP SWAP1 DIV PUSH20 0xFFFFFFFFFFFFFFFFFFFFFFFFFFFFFFFFFFFFFFFF AND PUSH20 0xFFFFFFFFFFFFFFFFFFFFFFFFFFFFFFFFFFFFFFFF AND PUSH4 0x23B872DD CALLER ADDRESS DUP6 PUSH1 0x40 MLOAD DUP5 PUSH4 0xFFFFFFFF AND PUSH1 0xE0 SHL DUP2 MSTORE PUSH1 0x4 ADD PUSH2 0xA77 SWAP4 SWAP3 SWAP2 SWAP1 PUSH2 0x148D JUMP JUMPDEST PUSH1 0x20 PUSH1 0x40 MLOAD DUP1 DUP4 SUB DUP2 PUSH0 DUP8 GAS CALL ISZERO DUP1 ISZERO PUSH2 0xA93 JUMPI RETURNDATASIZE PUSH0 DUP1 RETURNDATACOPY RETURNDATASIZE PUSH0 REVERT JUMPDEST POP POP POP POP PUSH1 0x40 MLOAD RETURNDATASIZE PUSH1 0x1F NOT PUSH1 0x1F DUP3 ADD AND DUP3 ADD DUP1 PUSH1 0x40 MSTORE POP DUP2 ADD SWAP1 PUSH2 0xAB7 SWAP2 SWAP1 PUSH2 0x13C7 JUMP JUMPDEST POP CALLER PUSH20 0xFFFFFFFFFFFFFFFFFFFFFFFFFFFFFFFFFFFFFFFF AND PUSH32 0x9E71BC8EEA02A63969F509818F2DAFB9254532904319F9DBDA79B67BD34A5F3D DUP4 PUSH1 0x40 MLOAD PUSH2 0xAFE SWAP2 SWAP1 PUSH2 0x114B JUMP JUMPDEST PUSH1 0x40 MLOAD DUP1 SWAP2 SUB SWAP1 LOG2 POP PUSH2 0xB0F PUSH2 0xF52 JUMP JUMPDEST POP JUMP JUMPDEST PUSH2 0xB1A PUSH2 0xF03 JUMP JUMPDEST CALLER PUSH2 0xB23 PUSH2 0xD7B JUMP JUMPDEST PUSH1 0x6 DUP2 SWAP1 SSTORE POP TIMESTAMP PUSH1 0x5 DUP2 SWAP1 SSTORE POP PUSH0 PUSH20 0xFFFFFFFFFFFFFFFFFFFFFFFFFFFFFFFFFFFFFFFF AND DUP2 PUSH20 0xFFFFFFFFFFFFFFFFFFFFFFFFFFFFFFFFFFFFFFFF AND EQ PUSH2 0xBF2 JUMPI PUSH2 0xB6C DUP2 PUSH2 0x372 JUMP JUMPDEST PUSH1 0x8 PUSH0 DUP4 PUSH20 0xFFFFFFFFFFFFFFFFFFFFFFFFFFFFFFFFFFFFFFFF AND PUSH20 0xFFFFFFFFFFFFFFFFFFFFFFFFFFFFFFFFFFFFFFFF AND DUP2 MSTORE PUSH1 0x20 ADD SWAP1 DUP2 MSTORE PUSH1 0x20 ADD PUSH0 KECCAK256 DUP2 SWAP1 SSTORE POP PUSH1 0x6 SLOAD PUSH1 0x7 PUSH0 DUP4 PUSH20 0xFFFFFFFFFFFFFFFFFFFFFFFFFFFFFFFFFFFFFFFF AND PUSH20 0xFFFFFFFFFFFFFFFFFFFFFFFFFFFFFFFFFFFFFFFF AND DUP2 MSTORE PUSH1 0x20 ADD SWAP1 DUP2 MSTORE PUSH1 0x20 ADD PUSH0 KECCAK256 DUP2 SWAP1 SSTORE POP JUMPDEST PUSH0 PUSH1 0x8 PUSH0 CALLER PUSH20 0xFFFFFFFFFFFFFFFFFFFFFFFFFFFFFFFFFFFFFFFF AND PUSH20 0xFFFFFFFFFFFFFFFFFFFFFFFFFFFFFFFFFFFFFFFF AND DUP2 MSTORE PUSH1 0x20 ADD SWAP1 DUP2 MSTORE PUSH1 0x20 ADD PUSH0 KECCAK256 SLOAD SWAP1 POP PUSH0 DUP2 GT ISZERO PUSH2 0xD69 JUMPI PUSH0 PUSH1 0x8 PUSH0 CALLER PUSH20 0xFFFFFFFFFFFFFFFFFFFFFFFFFFFFFFFFFFFFFFFF AND PUSH20 0xFFFFFFFFFFFFFFFFFFFFFFFFFFFFFFFFFFFFFFFF AND DUP2 MSTORE PUSH1 0x20 ADD SWAP1 DUP2 MSTORE PUSH1 0x20 ADD PUSH0 KECCAK256 DUP2 SWAP1 SSTORE POP PUSH1 0x3 PUSH0 SWAP1 SLOAD SWAP1 PUSH2 0x100 EXP SWAP1 DIV PUSH20 0xFFFFFFFFFFFFFFFFFFFFFFFFFFFFFFFFFFFFFFFF AND PUSH20 0xFFFFFFFFFFFFFFFFFFFFFFFFFFFFFFFFFFFFFFFF AND PUSH4 0xA9059CBB CALLER DUP4 PUSH1 0x40 MLOAD DUP4 PUSH4 0xFFFFFFFF AND PUSH1 0xE0 SHL DUP2 MSTORE PUSH1 0x4 ADD PUSH2 0xCD9 SWAP3 SWAP2 SWAP1 PUSH2 0x136B JUMP JUMPDEST PUSH1 0x20 PUSH1 0x40 MLOAD DUP1 DUP4 SUB DUP2 PUSH0 DUP8 GAS CALL ISZERO DUP1 ISZERO PUSH2 0xCF5 JUMPI RETURNDATASIZE PUSH0 DUP1 RETURNDATACOPY RETURNDATASIZE PUSH0 REVERT JUMPDEST POP POP POP POP PUSH1 0x40 MLOAD RETURNDATASIZE PUSH1 0x1F NOT PUSH1 0x1F DUP3 ADD AND DUP3 ADD DUP1 PUSH1 0x40 MSTORE POP DUP2 ADD SWAP1 PUSH2 0xD19 SWAP2 SWAP1 PUSH2 0x13C7 JUMP JUMPDEST POP CALLER PUSH20 0xFFFFFFFFFFFFFFFFFFFFFFFFFFFFFFFFFFFFFFFF AND PUSH32 0xE2403640BA68FED3A2F88B7557551D1993F84B99BB10FF833F0CF8DB0C5E0486 DUP3 PUSH1 0x40 MLOAD PUSH2 0xD60 SWAP2 SWAP1 PUSH2 0x114B JUMP JUMPDEST PUSH1 0x40 MLOAD DUP1 SWAP2 SUB SWAP1 LOG2 JUMPDEST POP POP PUSH2 0xD73 PUSH2 0xF52 JUMP JUMPDEST JUMP JUMPDEST PUSH1 0x5 SLOAD DUP2 JUMP JUMPDEST PUSH0 DUP1 PUSH1 0x9 SLOAD SUB PUSH2 0xD8F JUMPI PUSH1 0x6 SLOAD SWAP1 POP PUSH2 0xDFD JUMP JUMPDEST PUSH2 0xDFA PUSH2 0xDE9 PUSH1 0x9 SLOAD PUSH2 0xDDB PUSH8 0xDE0B6B3A7640000 PUSH2 0xDCD PUSH1 0x4 SLOAD PUSH2 0xDBF PUSH1 0x5 SLOAD TIMESTAMP PUSH2 0xEAF SWAP1 SWAP2 SWAP1 PUSH4 0xFFFFFFFF AND JUMP JUMPDEST PUSH2 0xEC4 SWAP1 SWAP2 SWAP1 PUSH4 0xFFFFFFFF AND JUMP JUMPDEST PUSH2 0xEC4 SWAP1 SWAP2 SWAP1 PUSH4 0xFFFFFFFF AND JUMP JUMPDEST PUSH2 0xED9 SWAP1 SWAP2 SWAP1 PUSH4 0xFFFFFFFF AND JUMP JUMPDEST PUSH1 0x6 SLOAD PUSH2 0xEEE SWAP1 SWAP2 SWAP1 PUSH4 0xFFFFFFFF AND JUMP JUMPDEST SWAP1 POP JUMPDEST SWAP1 JUMP JUMPDEST PUSH1 0x3 PUSH0 SWAP1 SLOAD SWAP1 PUSH2 0x100 EXP SWAP1 DIV PUSH20 0xFFFFFFFFFFFFFFFFFFFFFFFFFFFFFFFFFFFFFFFF AND DUP2 JUMP JUMPDEST PUSH1 0x6 SLOAD DUP2 JUMP JUMPDEST PUSH2 0xE33 PUSH2 0xF5B JUMP JUMPDEST PUSH0 PUSH20 0xFFFFFFFFFFFFFFFFFFFFFFFFFFFFFFFFFFFFFFFF AND DUP2 PUSH20 0xFFFFFFFFFFFFFFFFFFFFFFFFFFFFFFFFFFFFFFFF AND SUB PUSH2 0xEA3 JUMPI PUSH0 PUSH1 0x40 MLOAD PUSH32 0x1E4FBDF700000000000000000000000000000000000000000000000000000000 DUP2 MSTORE PUSH1 0x4 ADD PUSH2 0xE9A SWAP2 SWAP1 PUSH2 0x127A JUMP JUMPDEST PUSH1 0x40 MLOAD DUP1 SWAP2 SUB SWAP1 REVERT JUMPDEST PUSH2 0xEAC DUP2 PUSH2 0xFE2 JUMP JUMPDEST POP JUMP JUMPDEST PUSH0 DUP2 DUP4 PUSH2 0xEBC SWAP2 SWAP1 PUSH2 0x1338 JUMP JUMPDEST SWAP1 POP SWAP3 SWAP2 POP POP JUMP JUMPDEST PUSH0 DUP2 DUP4 PUSH2 0xED1 SWAP2 SWAP1 PUSH2 0x14C2 JUMP JUMPDEST SWAP1 POP SWAP3 SWAP2 POP POP JUMP JUMPDEST PUSH0 DUP2 DUP4 PUSH2 0xEE6 SWAP2 SWAP1 PUSH2 0x1530 JUMP JUMPDEST SWAP1 POP SWAP3 SWAP2 POP POP JUMP JUMPDEST PUSH0 DUP2 DUP4 PUSH2 0xEFB SWAP2 SWAP1 PUSH2 0x145A JUMP JUMPDEST SWAP1 POP SWAP3 SWAP2 POP POP JUMP JUMPDEST PUSH1 0x2 PUSH1 0x1 SLOAD SUB PUSH2 0xF48 JUMPI PUSH1 0x40 MLOAD PUSH32 0x8C379A000000000000000000000000000000000000000000000000000000000 DUP2 MSTORE PUSH1 0x4 ADD PUSH2 0xF3F SWAP1 PUSH2 0x15AA JUMP JUMPDEST PUSH1 0x40 MLOAD DUP1 SWAP2 SUB SWAP1 REVERT JUMPDEST PUSH1 0x2 PUSH1 0x1 DUP2 SWAP1 SSTORE POP JUMP JUMPDEST PUSH1 0x1 DUP1 DUP2 SWAP1 SSTORE POP JUMP JUMPDEST PUSH2 0xF63 PUSH2 0x10A3 JUMP JUMPDEST PUSH20 0xFFFFFFFFFFFFFFFFFFFFFFFFFFFFFFFFFFFFFFFF AND PUSH2 0xF81 PUSH2 0x853 JUMP JUMPDEST PUSH20 0xFFFFFFFFFFFFFFFFFFFFFFFFFFFFFFFFFFFFFFFF AND EQ PUSH2 0xFE0 JUMPI PUSH2 0xFA4 PUSH2 0x10A3 JUMP JUMPDEST PUSH1 0x40 MLOAD PUSH32 0x118CDAA700000000000000000000000000000000000000000000000000000000 DUP2 MSTORE PUSH1 0x4 ADD PUSH2 0xFD7 SWAP2 SWAP1 PUSH2 0x127A JUMP JUMPDEST PUSH1 0x40 MLOAD DUP1 SWAP2 SUB SWAP1 REVERT JUMPDEST JUMP JUMPDEST PUSH0 DUP1 PUSH0 SWAP1 SLOAD SWAP1 PUSH2 0x100 EXP SWAP1 DIV PUSH20 0xFFFFFFFFFFFFFFFFFFFFFFFFFFFFFFFFFFFFFFFF AND SWAP1 POP DUP2 PUSH0 DUP1 PUSH2 0x100 EXP DUP2 SLOAD DUP2 PUSH20 0xFFFFFFFFFFFFFFFFFFFFFFFFFFFFFFFFFFFFFFFF MUL NOT AND SWAP1 DUP4 PUSH20 0xFFFFFFFFFFFFFFFFFFFFFFFFFFFFFFFFFFFFFFFF AND MUL OR SWAP1 SSTORE POP DUP2 PUSH20 0xFFFFFFFFFFFFFFFFFFFFFFFFFFFFFFFFFFFFFFFF AND DUP2 PUSH20 0xFFFFFFFFFFFFFFFFFFFFFFFFFFFFFFFFFFFFFFFF AND PUSH32 0x8BE0079C531659141344CD1FD0A4F28419497F9722A3DAAFE3B4186F6B6457E0 PUSH1 0x40 MLOAD PUSH1 0x40 MLOAD DUP1 SWAP2 SUB SWAP1 LOG3 POP POP JUMP JUMPDEST PUSH0 CALLER SWAP1 POP SWAP1 JUMP JUMPDEST PUSH0 DUP1 REVERT JUMPDEST PUSH0 PUSH20 0xFFFFFFFFFFFFFFFFFFFFFFFFFFFFFFFFFFFFFFFF DUP3 AND SWAP1 POP SWAP2 SWAP1 POP JUMP JUMPDEST PUSH0 PUSH2 0x10D7 DUP3 PUSH2 0x10AE JUMP JUMPDEST SWAP1 POP SWAP2 SWAP1 POP JUMP JUMPDEST PUSH2 0x10E7 DUP2 PUSH2 0x10CD JUMP JUMPDEST DUP2 EQ PUSH2 0x10F1 JUMPI PUSH0 DUP1 REVERT JUMPDEST POP JUMP JUMPDEST PUSH0 DUP2 CALLDATALOAD SWAP1 POP PUSH2 0x1102 DUP2 PUSH2 0x10DE JUMP JUMPDEST SWAP3 SWAP2 POP POP JUMP JUMPDEST PUSH0 PUSH1 0x20 DUP3 DUP5 SUB SLT ISZERO PUSH2 0x111D JUMPI PUSH2 0x111C PUSH2 0x10AA JUMP JUMPDEST JUMPDEST PUSH0 PUSH2 0x112A DUP5 DUP3 DUP6 ADD PUSH2 0x10F4 JUMP JUMPDEST SWAP2 POP POP SWAP3 SWAP2 POP POP JUMP JUMPDEST PUSH0 DUP2 SWAP1 POP SWAP2 SWAP1 POP JUMP JUMPDEST PUSH2 0x1145 DUP2 PUSH2 0x1133 JUMP JUMPDEST DUP3 MSTORE POP POP JUMP JUMPDEST PUSH0 PUSH1 0x20 DUP3 ADD SWAP1 POP PUSH2 0x115E PUSH0 DUP4 ADD DUP5 PUSH2 0x113C JUMP JUMPDEST SWAP3 SWAP2 POP POP JUMP JUMPDEST PUSH2 0x116D DUP2 PUSH2 0x1133 JUMP JUMPDEST DUP2 EQ PUSH2 0x1177 JUMPI PUSH0 DUP1 REVERT JUMPDEST POP JUMP JUMPDEST PUSH0 DUP2 CALLDATALOAD SWAP1 POP PUSH2 0x1188 DUP2 PUSH2 0x1164 JUMP JUMPDEST SWAP3 SWAP2 POP POP JUMP JUMPDEST PUSH0 PUSH1 0x20 DUP3 DUP5 SUB SLT ISZERO PUSH2 0x11A3 JUMPI PUSH2 0x11A2 PUSH2 0x10AA JUMP JUMPDEST JUMPDEST PUSH0 PUSH2 0x11B0 DUP5 DUP3 DUP6 ADD PUSH2 0x117A JUMP JUMPDEST SWAP2 POP POP SWAP3 SWAP2 POP POP JUMP JUMPDEST PUSH0 DUP2 SWAP1 POP SWAP2 SWAP1 POP JUMP JUMPDEST PUSH0 PUSH2 0x11DC PUSH2 0x11D7 PUSH2 0x11D2 DUP5 PUSH2 0x10AE JUMP JUMPDEST PUSH2 0x11B9 JUMP JUMPDEST PUSH2 0x10AE JUMP JUMPDEST SWAP1 POP SWAP2 SWAP1 POP JUMP JUMPDEST PUSH0 PUSH2 0x11ED DUP3 PUSH2 0x11C2 JUMP JUMPDEST SWAP1 POP SWAP2 SWAP1 POP JUMP JUMPDEST PUSH0 PUSH2 0x11FE DUP3 PUSH2 0x11E3 JUMP JUMPDEST SWAP1 POP SWAP2 SWAP1 POP JUMP JUMPDEST PUSH2 0x120E DUP2 PUSH2 0x11F4 JUMP JUMPDEST DUP3 MSTORE POP POP JUMP JUMPDEST PUSH0 PUSH1 0x20 DUP3 ADD SWAP1 POP PUSH2 0x1227 PUSH0 DUP4 ADD DUP5 PUSH2 0x1205 JUMP JUMPDEST SWAP3 SWAP2 POP POP JUMP JUMPDEST PUSH0 DUP1 PUSH1 0x40 DUP4 DUP6 SUB SLT ISZERO PUSH2 0x1243 JUMPI PUSH2 0x1242 PUSH2 0x10AA JUMP JUMPDEST JUMPDEST PUSH0 PUSH2 0x1250 DUP6 DUP3 DUP7 ADD PUSH2 0x10F4 JUMP JUMPDEST SWAP3 POP POP PUSH1 0x20 PUSH2 0x1261 DUP6 DUP3 DUP7 ADD PUSH2 0x117A JUMP JUMPDEST SWAP2 POP POP SWAP3 POP SWAP3 SWAP1 POP JUMP JUMPDEST PUSH2 0x1274 DUP2 PUSH2 0x10CD JUMP JUMPDEST DUP3 MSTORE POP POP JUMP JUMPDEST PUSH0 PUSH1 0x20 DUP3 ADD SWAP1 POP PUSH2 0x128D PUSH0 DUP4 ADD DUP5 PUSH2 0x126B JUMP JUMPDEST SWAP3 SWAP2 POP POP JUMP JUMPDEST PUSH0 DUP3 DUP3 MSTORE PUSH1 0x20 DUP3 ADD SWAP1 POP SWAP3 SWAP2 POP POP JUMP JUMPDEST PUSH32 0x43616E6E6F742077697468647261772030000000000000000000000000000000 PUSH0 DUP3 ADD MSTORE POP JUMP JUMPDEST PUSH0 PUSH2 0x12D7 PUSH1 0x11 DUP4 PUSH2 0x1293 JUMP JUMPDEST SWAP2 POP PUSH2 0x12E2 DUP3 PUSH2 0x12A3 JUMP JUMPDEST PUSH1 0x20 DUP3 ADD SWAP1 POP SWAP2 SWAP1 POP JUMP JUMPDEST PUSH0 PUSH1 0x20 DUP3 ADD SWAP1 POP DUP2 DUP2 SUB PUSH0 DUP4 ADD MSTORE PUSH2 0x1304 DUP2 PUSH2 0x12CB JUMP JUMPDEST SWAP1 POP SWAP2 SWAP1 POP JUMP JUMPDEST PUSH32 0x4E487B7100000000000000000000000000000000000000000000000000000000 PUSH0 MSTORE PUSH1 0x11 PUSH1 0x4 MSTORE PUSH1 0x24 PUSH0 REVERT JUMPDEST PUSH0 PUSH2 0x1342 DUP3 PUSH2 0x1133 JUMP JUMPDEST SWAP2 POP PUSH2 0x134D DUP4 PUSH2 0x1133 JUMP JUMPDEST SWAP3 POP DUP3 DUP3 SUB SWAP1 POP DUP2 DUP2 GT ISZERO PUSH2 0x1365 JUMPI PUSH2 0x1364 PUSH2 0x130B JUMP JUMPDEST JUMPDEST SWAP3 SWAP2 POP POP JUMP JUMPDEST PUSH0 PUSH1 0x40 DUP3 ADD SWAP1 POP PUSH2 0x137E PUSH0 DUP4 ADD DUP6 PUSH2 0x126B JUMP JUMPDEST PUSH2 0x138B PUSH1 0x20 DUP4 ADD DUP5 PUSH2 0x113C JUMP JUMPDEST SWAP4 SWAP3 POP POP POP JUMP JUMPDEST PUSH0 DUP2 ISZERO ISZERO SWAP1 POP SWAP2 SWAP1 POP JUMP JUMPDEST PUSH2 0x13A6 DUP2 PUSH2 0x1392 JUMP JUMPDEST DUP2 EQ PUSH2 0x13B0 JUMPI PUSH0 DUP1 REVERT JUMPDEST POP JUMP JUMPDEST PUSH0 DUP2 MLOAD SWAP1 POP PUSH2 0x13C1 DUP2 PUSH2 0x139D JUMP JUMPDEST SWAP3 SWAP2 POP POP JUMP JUMPDEST PUSH0 PUSH1 0x20 DUP3 DUP5 SUB SLT ISZERO PUSH2 0x13DC JUMPI PUSH2 0x13DB PUSH2 0x10AA JUMP JUMPDEST JUMPDEST PUSH0 PUSH2 0x13E9 DUP5 DUP3 DUP6 ADD PUSH2 0x13B3 JUMP JUMPDEST SWAP2 POP POP SWAP3 SWAP2 POP POP JUMP JUMPDEST PUSH32 0x43616E6E6F74207374616B652030000000000000000000000000000000000000 PUSH0 DUP3 ADD MSTORE POP JUMP JUMPDEST PUSH0 PUSH2 0x1426 PUSH1 0xE DUP4 PUSH2 0x1293 JUMP JUMPDEST SWAP2 POP PUSH2 0x1431 DUP3 PUSH2 0x13F2 JUMP JUMPDEST PUSH1 0x20 DUP3 ADD SWAP1 POP SWAP2 SWAP1 POP JUMP JUMPDEST PUSH0 PUSH1 0x20 DUP3 ADD SWAP1 POP DUP2 DUP2 SUB PUSH0 DUP4 ADD MSTORE PUSH2 0x1453 DUP2 PUSH2 0x141A JUMP JUMPDEST SWAP1 POP SWAP2 SWAP1 POP JUMP JUMPDEST PUSH0 PUSH2 0x1464 DUP3 PUSH2 0x1133 JUMP JUMPDEST SWAP2 POP PUSH2 0x146F DUP4 PUSH2 0x1133 JUMP JUMPDEST SWAP3 POP DUP3 DUP3 ADD SWAP1 POP DUP1 DUP3 GT ISZERO PUSH2 0x1487 JUMPI PUSH2 0x1486 PUSH2 0x130B JUMP JUMPDEST JUMPDEST SWAP3 SWAP2 POP POP JUMP JUMPDEST PUSH0 PUSH1 0x60 DUP3 ADD SWAP1 POP PUSH2 0x14A0 PUSH0 DUP4 ADD DUP7 PUSH2 0x126B JUMP JUMPDEST PUSH2 0x14AD PUSH1 0x20 DUP4 ADD DUP6 PUSH2 0x126B JUMP JUMPDEST PUSH2 0x14BA PUSH1 0x40 DUP4 ADD DUP5 PUSH2 0x113C JUMP JUMPDEST SWAP5 SWAP4 POP POP POP POP JUMP JUMPDEST PUSH0 PUSH2 0x14CC DUP3 PUSH2 0x1133 JUMP JUMPDEST SWAP2 POP PUSH2 0x14D7 DUP4 PUSH2 0x1133 JUMP JUMPDEST SWAP3 POP DUP3 DUP3 MUL PUSH2 0x14E5 DUP2 PUSH2 0x1133 JUMP JUMPDEST SWAP2 POP DUP3 DUP3 DIV DUP5 EQ DUP4 ISZERO OR PUSH2 0x14FC JUMPI PUSH2 0x14FB PUSH2 0x130B JUMP JUMPDEST JUMPDEST POP SWAP3 SWAP2 POP POP JUMP JUMPDEST PUSH32 0x4E487B7100000000000000000000000000000000000000000000000000000000 PUSH0 MSTORE PUSH1 0x12 PUSH1 0x4 MSTORE PUSH1 0x24 PUSH0 REVERT JUMPDEST PUSH0 PUSH2 0x153A DUP3 PUSH2 0x1133 JUMP JUMPDEST SWAP2 POP PUSH2 0x1545 DUP4 PUSH2 0x1133 JUMP JUMPDEST SWAP3 POP DUP3 PUSH2 0x1555 JUMPI PUSH2 0x1554 PUSH2 0x1503 JUMP JUMPDEST JUMPDEST DUP3 DUP3 DIV SWAP1 POP SWAP3 SWAP2 POP POP JUMP JUMPDEST PUSH32 0x5265656E7472616E637947756172643A207265656E7472616E742063616C6C00 PUSH0 DUP3 ADD MSTORE POP JUMP JUMPDEST PUSH0 PUSH2 0x1594 PUSH1 0x1F DUP4 PUSH2 0x1293 JUMP JUMPDEST SWAP2 POP PUSH2 0x159F DUP3 PUSH2 0x1560 JUMP JUMPDEST PUSH1 0x20 DUP3 ADD SWAP1 POP SWAP2 SWAP1 POP JUMP JUMPDEST PUSH0 PUSH1 0x20 DUP3 ADD SWAP1 POP DUP2 DUP2 SUB PUSH0 DUP4 ADD MSTORE PUSH2 0x15C1 DUP2 PUSH2 0x1588 JUMP JUMPDEST SWAP1 POP SWAP2 SWAP1 POP JUMP INVALID LOG2 PUSH5 0x6970667358 0x22 SLT KECCAK256 POP SWAP12 CHAINID TLOAD 0xE5 0xE3 0xFB DUP2 TSTORE DUP4 0xEA 0xAC NUMBER CALLDATALOAD 0x2A DUP7 PUSH9 0x214BA6E7C89E69BC9E 0x2B NUMBER 0xAC BLOBHASH PUSH23 0x6E64736F6C634300081800330000000000000000000000 "
				},
				"gasEstimates": {
					"creation": {
						"codeDepositCost": "1126000",
						"executionCost": "infinite",
						"totalCost": "infinite"
					},
					"external": {
						"balanceOf(address)": "2852",
						"claimReward()": "infinite",
						"earned(address)": "infinite",
						"lastUpdateTime()": "2447",
						"owner()": "2560",
						"renounceOwnership()": "infinite",
						"rescueERC20(address,uint256)": "infinite",
						"rewardPerToken()": "infinite",
						"rewardPerTokenStored()": "2513",
						"rewardRate()": "2514",
						"rewards(address)": "2848",
						"rewardsToken()": "infinite",
						"setRewardRate(uint256)": "infinite",
						"stake(uint256)": "infinite",
						"stakingToken()": "infinite",
						"totalSupply()": "2500",
						"transferOwnership(address)": "infinite",
						"userRewardPerTokenPaid(address)": "2913",
						"withdraw(uint256)": "infinite"
					}
				},
				"methodIdentifiers": {
					"balanceOf(address)": "70a08231",
					"claimReward()": "b88a802f",
					"earned(address)": "008cc262",
					"lastUpdateTime()": "c8f33c91",
					"owner()": "8da5cb5b",
					"renounceOwnership()": "715018a6",
					"rescueERC20(address,uint256)": "8cd4426d",
					"rewardPerToken()": "cd3daf9d",
					"rewardPerTokenStored()": "df136d65",
					"rewardRate()": "7b0a47ee",
					"rewards(address)": "0700037d",
					"rewardsToken()": "d1af0c7d",
					"setRewardRate(uint256)": "9e447fc6",
					"stake(uint256)": "a694fc3a",
					"stakingToken()": "72f702f3",
					"totalSupply()": "18160ddd",
					"transferOwnership(address)": "f2fde38b",
					"userRewardPerTokenPaid(address)": "8b876347",
					"withdraw(uint256)": "2e1a7d4d"
				}
			},
			"storageLayout": {
				"storage": [
					{
						"astId": 8,
						"contract": "contracts/rewards/BaseRewards.sol:BaseRewards",
						"label": "_owner",
						"offset": 0,
						"slot": "0",
						"type": "t_address"
					},
					{
						"astId": 158,
						"contract": "contracts/rewards/BaseRewards.sol:BaseRewards",
						"label": "_status",
						"offset": 0,
						"slot": "1",
						"type": "t_uint256"
					},
					{
						"astId": 648,
						"contract": "contracts/rewards/BaseRewards.sol:BaseRewards",
						"label": "stakingToken",
						"offset": 0,
						"slot": "2",
						"type": "t_contract(IERC20)290"
					},
					{
						"astId": 651,
						"contract": "contracts/rewards/BaseRewards.sol:BaseRewards",
						"label": "rewardsToken",
						"offset": 0,
						"slot": "3",
						"type": "t_contract(IERC20)290"
					},
					{
						"astId": 653,
						"contract": "contracts/rewards/BaseRewards.sol:BaseRewards",
						"label": "rewardRate",
						"offset": 0,
						"slot": "4",
						"type": "t_uint256"
					},
					{
						"astId": 655,
						"contract": "contracts/rewards/BaseRewards.sol:BaseRewards",
						"label": "lastUpdateTime",
						"offset": 0,
						"slot": "5",
						"type": "t_uint256"
					},
					{
						"astId": 657,
						"contract": "contracts/rewards/BaseRewards.sol:BaseRewards",
						"label": "rewardPerTokenStored",
						"offset": 0,
						"slot": "6",
						"type": "t_uint256"
					},
					{
						"astId": 661,
						"contract": "contracts/rewards/BaseRewards.sol:BaseRewards",
						"label": "userRewardPerTokenPaid",
						"offset": 0,
						"slot": "7",
						"type": "t_mapping(t_address,t_uint256)"
					},
					{
						"astId": 665,
						"contract": "contracts/rewards/BaseRewards.sol:BaseRewards",
						"label": "rewards",
						"offset": 0,
						"slot": "8",
						"type": "t_mapping(t_address,t_uint256)"
					},
					{
						"astId": 667,
						"contract": "contracts/rewards/BaseRewards.sol:BaseRewards",
						"label": "_totalSupply",
						"offset": 0,
						"slot": "9",
						"type": "t_uint256"
					},
					{
						"astId": 671,
						"contract": "contracts/rewards/BaseRewards.sol:BaseRewards",
						"label": "_balances",
						"offset": 0,
						"slot": "10",
						"type": "t_mapping(t_address,t_uint256)"
					}
				],
				"types": {
					"t_address": {
						"encoding": "inplace",
						"label": "address",
						"numberOfBytes": "20"
					},
					"t_contract(IERC20)290": {
						"encoding": "inplace",
						"label": "contract IERC20",
						"numberOfBytes": "20"
					},
					"t_mapping(t_address,t_uint256)": {
						"encoding": "mapping",
						"key": "t_address",
						"label": "mapping(address => uint256)",
						"numberOfBytes": "32",
						"value": "t_uint256"
					},
					"t_uint256": {
						"encoding": "inplace",
						"label": "uint256",
						"numberOfBytes": "32"
					}
				}
			},
			"userdoc": {
				"kind": "user",
				"methods": {},
				"version": 1
			}
		}
	}
}