{
  "_format": "hh-sol-artifact-1",
  "contractName": "DeflationaryToken",
  "sourceName": "contracts/mocks/DeflationaryToken.sol",
  "abi": [
    {
      "inputs": [
        {
          "internalType": "string",
          "name": "name",
          "type": "string"
        },
        {
          "internalType": "string",
          "name": "symbol",
          "type": "string"
        },
        {
          "internalType": "uint8",
          "name": "",
          "type": "uint8"
        },
        {
          "internalType": "uint256",
          "name": "_transferFeeRate",
          "type": "uint256"
        }
      ],
      "stateMutability": "nonpayable",
      "type": "constructor"
    },
    {
      "anonymous": false,
      "inputs": [
        {
          "indexed": true,
          "internalType": "address",
          "name": "owner",
          "type": "address"
        },
        {
          "indexed": true,
          "internalType": "address",
          "name": "spender",
          "type": "address"
        },
        {
          "indexed": false,
          "internalType": "uint256",
          "name": "value",
          "type": "uint256"
        }
      ],
      "name": "Approval",
      "type": "event"
    },
    {
      "anonymous": false,
      "inputs": [
        {
          "indexed": true,
          "internalType": "address",
          "name": "from",
          "type": "address"
        },
        {
          "indexed": true,
          "internalType": "address",
          "name": "to",
          "type": "address"
        },
        {
          "indexed": false,
          "internalType": "uint256",
          "name": "amount",
          "type": "uint256"
        },
        {
          "indexed": false,
          "internalType": "uint256",
          "name": "fee",
          "type": "uint256"
        }
      ],
      "name": "FeeCollected",
      "type": "event"
    },
    {
      "anonymous": false,
      "inputs": [
        {
          "indexed": true,
          "internalType": "address",
          "name": "previousOwner",
          "type": "address"
        },
        {
          "indexed": true,
          "internalType": "address",
          "name": "newOwner",
          "type": "address"
        }
      ],
      "name": "OwnershipTransferred",
      "type": "event"
    },
    {
      "anonymous": false,
      "inputs": [
        {
          "indexed": true,
          "internalType": "address",
          "name": "from",
          "type": "address"
        },
        {
          "indexed": true,
          "internalType": "address",
          "name": "to",
          "type": "address"
        },
        {
          "indexed": false,
          "internalType": "uint256",
          "name": "value",
          "type": "uint256"
        }
      ],
      "name": "Transfer",
      "type": "event"
    },
    {
      "anonymous": false,
      "inputs": [
        {
          "indexed": false,
          "internalType": "uint256",
          "name": "oldRate",
          "type": "uint256"
        },
        {
          "indexed": false,
          "internalType": "uint256",
          "name": "newRate",
          "type": "uint256"
        }
      ],
      "name": "TransferFeeChanged",
      "type": "event"
    },
    {
      "inputs": [],
      "name": "MAX_FEE_RATE",
      "outputs": [
        {
          "internalType": "uint256",
          "name": "",
          "type": "uint256"
        }
      ],
      "stateMutability": "view",
      "type": "function"
    },
    {
      "inputs": [
        {
          "internalType": "address",
          "name": "owner",
          "type": "address"
        },
        {
          "internalType": "address",
          "name": "spender",
          "type": "address"
        }
      ],
      "name": "allowance",
      "outputs": [
        {
          "internalType": "uint256",
          "name": "",
          "type": "uint256"
        }
      ],
      "stateMutability": "view",
      "type": "function"
    },
    {
      "inputs": [
        {
          "internalType": "address",
          "name": "spender",
          "type": "address"
        },
        {
          "internalType": "uint256",
          "name": "amount",
          "type": "uint256"
        }
      ],
      "name": "approve",
      "outputs": [
        {
          "internalType": "bool",
          "name": "",
          "type": "bool"
        }
      ],
      "stateMutability": "nonpayable",
      "type": "function"
    },
    {
      "inputs": [
        {
          "internalType": "address",
          "name": "account",
          "type": "address"
        }
      ],
      "name": "balanceOf",
      "outputs": [
        {
          "internalType": "uint256",
          "name": "",
          "type": "uint256"
        }
      ],
      "stateMutability": "view",
      "type": "function"
    },
    {
      "inputs": [
        {
          "internalType": "uint256",
          "name": "amount",
          "type": "uint256"
        }
      ],
      "name": "burn",
      "outputs": [],
      "stateMutability": "nonpayable",
      "type": "function"
    },
    {
      "inputs": [],
      "name": "decimals",
      "outputs": [
        {
          "internalType": "uint8",
          "name": "",
          "type": "uint8"
        }
      ],
      "stateMutability": "view",
      "type": "function"
    },
    {
      "inputs": [
        {
          "internalType": "address",
          "name": "spender",
          "type": "address"
        },
        {
          "internalType": "uint256",
          "name": "subtractedValue",
          "type": "uint256"
        }
      ],
      "name": "decreaseAllowance",
      "outputs": [
        {
          "internalType": "bool",
          "name": "",
          "type": "bool"
        }
      ],
      "stateMutability": "nonpayable",
      "type": "function"
    },
    {
      "inputs": [
        {
          "internalType": "uint256",
          "name": "amount",
          "type": "uint256"
        }
      ],
      "name": "getTransferAmountAfterFee",
      "outputs": [
        {
          "internalType": "uint256",
          "name": "",
          "type": "uint256"
        }
      ],
      "stateMutability": "view",
      "type": "function"
    },
    {
      "inputs": [
        {
          "internalType": "uint256",
          "name": "amount",
          "type": "uint256"
        }
      ],
      "name": "getTransferFee",
      "outputs": [
        {
          "internalType": "uint256",
          "name": "",
          "type": "uint256"
        }
      ],
      "stateMutability": "view",
      "type": "function"
    },
    {
      "inputs": [
        {
          "internalType": "address",
          "name": "spender",
          "type": "address"
        },
        {
          "internalType": "uint256",
          "name": "addedValue",
          "type": "uint256"
        }
      ],
      "name": "increaseAllowance",
      "outputs": [
        {
          "internalType": "bool",
          "name": "",
          "type": "bool"
        }
      ],
      "stateMutability": "nonpayable",
      "type": "function"
    },
    {
      "inputs": [
        {
          "internalType": "address",
          "name": "to",
          "type": "address"
        },
        {
          "internalType": "uint256",
          "name": "amount",
          "type": "uint256"
        }
      ],
      "name": "mint",
      "outputs": [],
      "stateMutability": "nonpayable",
      "type": "function"
    },
    {
      "inputs": [],
      "name": "name",
      "outputs": [
        {
          "internalType": "string",
          "name": "",
          "type": "string"
        }
      ],
      "stateMutability": "view",
      "type": "function"
    },
    {
      "inputs": [],
      "name": "owner",
      "outputs": [
        {
          "internalType": "address",
          "name": "",
          "type": "address"
        }
      ],
      "stateMutability": "view",
      "type": "function"
    },
    {
      "inputs": [],
      "name": "renounceOwnership",
      "outputs": [],
      "stateMutability": "nonpayable",
      "type": "function"
    },
    {
      "inputs": [
        {
          "internalType": "uint256",
          "name": "_transferFeeRate",
          "type": "uint256"
        }
      ],
      "name": "setTransferFeeRate",
      "outputs": [],
      "stateMutability": "nonpayable",
      "type": "function"
    },
    {
      "inputs": [],
      "name": "symbol",
      "outputs": [
        {
          "internalType": "string",
          "name": "",
          "type": "string"
        }
      ],
      "stateMutability": "view",
      "type": "function"
    },
    {
      "inputs": [],
      "name": "totalSupply",
      "outputs": [
        {
          "internalType": "uint256",
          "name": "",
          "type": "uint256"
        }
      ],
      "stateMutability": "view",
      "type": "function"
    },
    {
      "inputs": [
        {
          "internalType": "address",
          "name": "to",
          "type": "address"
        },
        {
          "internalType": "uint256",
          "name": "amount",
          "type": "uint256"
        }
      ],
      "name": "transfer",
      "outputs": [
        {
          "internalType": "bool",
          "name": "",
          "type": "bool"
        }
      ],
      "stateMutability": "nonpayable",
      "type": "function"
    },
    {
      "inputs": [],
      "name": "transferFeeRate",
      "outputs": [
        {
          "internalType": "uint256",
          "name": "",
          "type": "uint256"
        }
      ],
      "stateMutability": "view",
      "type": "function"
    },
    {
      "inputs": [
        {
          "internalType": "address",
          "name": "from",
          "type": "address"
        },
        {
          "internalType": "address",
          "name": "to",
          "type": "address"
        },
        {
          "internalType": "uint256",
          "name": "amount",
          "type": "uint256"
        }
      ],
      "name": "transferFrom",
      "outputs": [
        {
          "internalType": "bool",
          "name": "",
          "type": "bool"
        }
      ],
      "stateMutability": "nonpayable",
      "type": "function"
    },
    {
      "inputs": [
        {
          "internalType": "address",
          "name": "newOwner",
          "type": "address"
        }
      ],
      "name": "transferOwnership",
      "outputs": [],
      "stateMutability": "nonpayable",
      "type": "function"
    }
  ],
  "bytecode": "0x6080604052346200038b5762001286803803806200001d8162000390565b9283398101906080818303126200038b5780516001600160401b0392908381116200038b578162000050918401620003b6565b60209182840151908582116200038b576200006d918501620003b6565b92604081015160ff8116036200038b57606001519381518181116200028b576003908154906001948583811c9316801562000380575b878410146200036a578190601f9384811162000314575b508790848311600114620002ad57600092620002a1575b505060001982851b1c191690851b1782555b85519283116200028b5760049586548581811c9116801562000280575b878210146200026b5782811162000220575b5085918411600114620001b557938394918492600095620001a9575b50501b92600019911b1c19161782555b620001493362000428565b6107d08311620001725782600655620001623362000428565b604051610e149081620004728239f35b60405162461bcd60e51b815291820152601160248201527008ccaca40e4c2e8ca40e8dede40d0d2ced607b1b604482015260649150fd5b0151935038806200012e565b9190601f198416928760005284876000209460005b8989838310620002085750505010620001ed575b50505050811b0182556200013e565b01519060f884600019921b161c1916905538808080620001de565b868601518955909701969485019488935001620001ca565b87600052866000208380870160051c82019289881062000261575b0160051c019086905b8281106200025457505062000112565b6000815501869062000244565b925081926200023b565b602288634e487b7160e01b6000525260246000fd5b90607f169062000100565b634e487b7160e01b600052604160045260246000fd5b015190503880620000d1565b90879350601f1983169186600052896000209260005b8b828210620002fd5750508411620002e4575b505050811b018255620000e3565b015160001983871b60f8161c19169055388080620002d6565b8385015186558b97909501949384019301620002c3565b90915084600052876000208480850160051c8201928a861062000360575b918991869594930160051c01915b82811062000350575050620000ba565b6000815585945089910162000340565b9250819262000332565b634e487b7160e01b600052602260045260246000fd5b92607f1692620000a3565b600080fd5b6040519190601f01601f191682016001600160401b038111838210176200028b57604052565b919080601f840112156200038b5782516001600160401b0381116200028b57602090620003ec601f8201601f1916830162000390565b928184528282870101116200038b5760005b8181106200041457508260009394955001015290565b8581018301518482018401528201620003fe565b600580546001600160a01b039283166001600160a01b0319821681179092559091167f8be0079c531659141344cd1fd0a4f28419497f9722a3daafe3b4186f6b6457e0600080a356fe6080604081815260048036101561001557600080fd5b600092833560e01c90816306fdde03146107a157508063095ea7b31461077757806318160ddd1461075857806323b872dd1461068e578063313ce56714610672578063351bf51814610653578063395093511461060357806340c10f19146105d657806342966c68146105ad57806356c1e9491461057e57806370a0823114610547578063715018a6146104fc5780638da5cb5b146104d357806392f6576e146104b657806395d89b41146103b4578063a457c2d714610310578063a9059cbb146102df578063ab4a8870146102a4578063c894e1e51461020d578063dd62ed3e146101c05763f2fde38b1461010a57600080fd5b346101bc5760203660031901126101bc576101236108c1565b9061012c6108f2565b6001600160a01b0391821692831561016a575050600580546001600160a01b03198116841790915516600080516020610d9f8339815191528380a380f35b906020608492519162461bcd60e51b8352820152602660248201527f4f776e61626c653a206e6577206f776e657220697320746865207a65726f206160448201526564647265737360d01b6064820152fd5b8280fd5b505034610209578060031936011261020957806020926101de6108c1565b6101e66108dc565b6001600160a01b0391821683526001865283832091168252845220549051908152f35b5080fd5b50346101bc5760203660031901126101bc5780359061022a6108f2565b6107d0821161026d5750907fac8d13f8c445d614898726a3e8c94776304ad684f6024c1c5d361d520c503c4491600654908060065582519182526020820152a180f35b606490602084519162461bcd60e51b8352820152601160248201527008ccaca40e4c2e8ca40e8dede40d0d2ced607b1b6044820152fd5b5091346102dc5760203660031901126102dc57506102d5602092356127106102ce60065483610a6f565b0490610a82565b9051908152f35b80fd5b5050346102095780600319360112610209576020906103096102ff6108c1565b6024359033610a8f565b5160018152f35b5082346102dc57826003193601126102dc5761032a6108c1565b918360243592338152600160205281812060018060a01b038616825260205220549082821061036357602085610309858503873361096d565b608490602086519162461bcd60e51b8352820152602560248201527f45524332303a2064656372656173656420616c6c6f77616e63652062656c6f77604482015264207a65726f60d81b6064820152fd5b50919034610209578160031936011261020957805190828454600181811c908083169283156104ac575b60209384841081146104995783885290811561047d5750600114610445575b505050829003601f01601f19168201926001600160401b03841183851017610432575082918261042e925282610878565b0390f35b634e487b7160e01b815260418552602490fd5b919250868652828620918387935b83851061046957505050508301013880806103fd565b805488860183015293019284908201610453565b60ff1916878501525050151560051b84010190503880806103fd565b634e487b7160e01b895260228a52602489fd5b91607f16916103de565b505034610209578160031936011261020957602090516107d08152f35b50503461020957816003193601126102095760055490516001600160a01b039091168152602090f35b83346102dc57806003193601126102dc576105156108f2565b600580546001600160a01b0319811690915581906001600160a01b0316600080516020610d9f8339815191528280a380f35b5050346102095760203660031901126102095760209181906001600160a01b0361056f6108c1565b16815280845220549051908152f35b5091346102dc5760203660031901126102dc57506127106105a56020936006549035610a6f565b049051908152f35b838234610209576020366003190112610209576105d3906105cc6108f2565b3533610ca9565b80f35b505034610209573660031901126102dc576105d36105f26108c1565b6105fa6108f2565b60243590610c18565b50503461020957806003193601126102095761030960209261064c6106266108c1565b338352600186528483206001600160a01b0382168452865291849020546024359061094a565b903361096d565b5050346102095781600319360112610209576020906006549051908152f35b5050346102095781600319360112610209576020905160128152f35b50829034610209576060366003190112610209576106aa6108c1565b6106b26108dc565b91846044359460018060a01b0384168152600160205281812033825260205220549060001982036106ec575b602086610309878787610a8f565b848210610715575091839161070a602096956103099503338361096d565b9193948193506106de565b606490602087519162461bcd60e51b8352820152601d60248201527f45524332303a20696e73756666696369656e7420616c6c6f77616e63650000006044820152fd5b5050346102095781600319360112610209576020906002549051908152f35b5050346102095780600319360112610209576020906103096107976108c1565b602435903361096d565b84915083346101bc57826003193601126101bc5782600354600181811c9080831692831561086e575b602093848410811461049957838852908115610852575060011461081957505050829003601f01601f19168201926001600160401b03841183851017610432575082918261042e925282610878565b91925060038652828620918387935b83851061083e57505050508301018580806103fd565b805488860183015293019284908201610828565b60ff1916878501525050151560051b84010190508580806103fd565b91607f16916107ca565b6020808252825181830181905290939260005b8281106108ad57505060409293506000838284010152601f8019910116010190565b81810186015184820160400152850161088b565b600435906001600160a01b03821682036108d757565b600080fd5b602435906001600160a01b03821682036108d757565b6005546001600160a01b0316330361090657565b606460405162461bcd60e51b815260206004820152602060248201527f4f776e61626c653a2063616c6c6572206973206e6f7420746865206f776e65726044820152fd5b9190820180921161095757565b634e487b7160e01b600052601160045260246000fd5b6001600160a01b03908116918215610a1e57169182156109ce5760207f8c5be1e5ebec7d5bd14f71427d1e84f3dd0314c0f7b2291e5b200ac8c7c3b925918360005260018252604060002085600052825280604060002055604051908152a3565b60405162461bcd60e51b815260206004820152602260248201527f45524332303a20617070726f766520746f20746865207a65726f206164647265604482015261737360f01b6064820152608490fd5b60405162461bcd60e51b8152602060048201526024808201527f45524332303a20617070726f76652066726f6d20746865207a65726f206164646044820152637265737360e01b6064820152608490fd5b8181029291811591840414171561095757565b9190820391821161095757565b6001600160a01b038082169291908315610bc5578216938415610b74578360005260006020528060406000205410610b20577f205442d60b70af1203d43cab62352c3b69b94f091be32fe683198057282b5c9292610b13604093612710610af860065486610a6f565b0492610b0e85610b088682610a82565b93610ca9565b610c18565b82519182526020820152a3565b60405162461bcd60e51b815260206004820152602660248201527f45524332303a207472616e7366657220616d6f756e7420657863656564732062604482015265616c616e636560d01b6064820152608490fd5b60405162461bcd60e51b815260206004820152602360248201527f45524332303a207472616e7366657220746f20746865207a65726f206164647260448201526265737360e81b6064820152608490fd5b60405162461bcd60e51b815260206004820152602560248201527f45524332303a207472616e736665722066726f6d20746865207a65726f206164604482015264647265737360d81b6064820152608490fd5b6001600160a01b0316908115610c6457600080516020610dbf833981519152602082610c4860009460025461094a565b60025584845283825260408420818154019055604051908152a3565b60405162461bcd60e51b815260206004820152601f60248201527f45524332303a206d696e7420746f20746865207a65726f2061646472657373006044820152606490fd5b6001600160a01b03168015610d4f57600091818352826020526040832054818110610cff5781600080516020610dbf833981519152926020928587528684520360408620558060025403600255604051908152a3565b60405162461bcd60e51b815260206004820152602260248201527f45524332303a206275726e20616d6f756e7420657863656564732062616c616e604482015261636560f01b6064820152608490fd5b60405162461bcd60e51b815260206004820152602160248201527f45524332303a206275726e2066726f6d20746865207a65726f206164647265736044820152607360f81b6064820152608490fdfe8be0079c531659141344cd1fd0a4f28419497f9722a3daafe3b4186f6b6457e0ddf252ad1be2c89b69c2b068fc378daa952ba7f163c4a11628f55a4df523b3efa264697066735822122005b56fa1db898c063ada082c40377d8b91d34c7bc17634970fcdbcff5d7e17f064736f6c63430008140033",
  "linkReferences": {},
  "deployedLinkReferences": {}
}