{
  "_format": "hh-sol-artifact-1",
  "contractName": "StakingConstants",
  "sourceName": "contracts/libraries/StakingConstants.sol",
  "abi": [
    {
      "inputs": [],
      "name": "MAX_STAKING_PERIOD",
      "outputs": [
        {
          "internalType": "uint256",
          "name": "",
          "type": "uint256"
        }
      ],
      "stateMutability": "view",
      "type": "function"
    },
    {
      "inputs": [],
      "name": "MIN_STAKING_PERIOD",
      "outputs": [
        {
          "internalType": "uint256",
          "name": "",
          "type": "uint256"
        }
      ],
      "stateMutability": "view",
      "type": "function"
    }
  ],
  "bytecode": "0x609d610038600b82828239805160001a607314602b57634e487b7160e01b600052600060045260246000fd5b30600052607381538281f3fe7300000000000000000000000000000000000000003014608060405260043610603d5760003560e01c8063c743dabb146042578063cac33fdc14605d575b600080fd5b604b62093a8081565b60405190815260200160405180910390f35b604b6301e133808156fea2646970667358221220d08386c124023020fc672b158ed39f4b3c6bd6df069e9550dcdadbc80431acf764736f6c63430008140033",
  "linkReferences": {},
  "deployedLinkReferences": {}
}