{
  "_format": "hh-sol-artifact-1",
  "contractName": "StakingConstants",
  "sourceName": "contracts/libraries/StakingConstants.sol",
  "abi": [
    {
      "inputs": [],
      "name": "MAX_STAKING_PERIOD",
      "outputs": [
        {
          "internalType": "uint256",
          "name": "",
          "type": "uint256"
        }
      ],
      "stateMutability": "view",
      "type": "function"
    },
    {
      "inputs": [],
      "name": "MIN_STAKING_PERIOD",
      "outputs": [
        {
          "internalType": "uint256",
          "name": "",
          "type": "uint256"
        }
      ],
      "stateMutability": "view",
      "type": "function"
    }
  ],
  "bytecode": "0x608080604052346100195760a0908161001f823930815050f35b600080fdfe6080806040526004361015601257600080fd5b600090813560e01c908163c743dabb14604f575063cac33fdc14603457600080fd5b80600319360112604c5760206040516301e133808152f35b80fd5b9050816003193601126066578062093a8060209252f35b5080fdfea264697066735822122076625cd8f37942376902f0cf4014b23ee4d4f59504ebf51f0903a152d169928864736f6c63430008140033",
  "linkReferences": {},
  "deployedLinkReferences": {}
}