{
  "_format": "hh-sol-artifact-1",
  "contractName": "BaseRewards",
  "sourceName": "contracts/rewards/BaseRewards.sol",
  "abi": [
    {
      "inputs": [
        {
          "internalType": "address",
          "name": "_stakingToken",
          "type": "address"
        },
        {
          "internalType": "address",
          "name": "_rewardsToken",
          "type": "address"
        },
        {
          "internalType": "address",
          "name": "initialOwner",
          "type": "address"
        }
      ],
      "stateMutability": "nonpayable",
      "type": "constructor"
    },
    {
      "anonymous": false,
      "inputs": [
        {
          "indexed": false,
          "internalType": "bool",
          "name": "paused",
          "type": "bool"
        },
        {
          "indexed": true,
          "internalType": "address",
          "name": "admin",
          "type": "address"
        }
      ],
      "name": "CircuitBreakerToggled",
      "type": "event"
    },
    {
      "anonymous": false,
      "inputs": [
        {
          "indexed": true,
          "internalType": "address",
          "name": "activator",
          "type": "address"
        },
        {
          "indexed": false,
          "internalType": "uint256",
          "name": "timestamp",
          "type": "uint256"
        }
      ],
      "name": "EmergencyModeActivated",
      "type": "event"
    },
    {
      "anonymous": false,
      "inputs": [
        {
          "indexed": true,
          "internalType": "address",
          "name": "user",
          "type": "address"
        },
        {
          "indexed": false,
          "internalType": "uint256",
          "name": "amount",
          "type": "uint256"
        }
      ],
      "name": "EmergencyWithdrawal",
      "type": "event"
    },
    {
      "anonymous": false,
      "inputs": [
        {
          "indexed": false,
          "internalType": "uint256",
          "name": "newPeriod",
          "type": "uint256"
        }
      ],
      "name": "MinStakingPeriodUpdated",
      "type": "event"
    },
    {
      "anonymous": false,
      "inputs": [
        {
          "indexed": true,
          "internalType": "address",
          "name": "previousOwner",
          "type": "address"
        },
        {
          "indexed": true,
          "internalType": "address",
          "name": "newOwner",
          "type": "address"
        }
      ],
      "name": "OwnershipTransferred",
      "type": "event"
    },
    {
      "anonymous": false,
      "inputs": [
        {
          "indexed": true,
          "internalType": "address",
          "name": "user",
          "type": "address"
        },
        {
          "indexed": false,
          "internalType": "uint256",
          "name": "amount",
          "type": "uint256"
        }
      ],
      "name": "RewardExpired",
      "type": "event"
    },
    {
      "anonymous": false,
      "inputs": [
        {
          "indexed": true,
          "internalType": "address",
          "name": "user",
          "type": "address"
        },
        {
          "indexed": false,
          "internalType": "uint256",
          "name": "reward",
          "type": "uint256"
        }
      ],
      "name": "RewardPaid",
      "type": "event"
    },
    {
      "anonymous": false,
      "inputs": [
        {
          "indexed": false,
          "internalType": "uint256",
          "name": "oldRate",
          "type": "uint256"
        },
        {
          "indexed": false,
          "internalType": "uint256",
          "name": "newRate",
          "type": "uint256"
        },
        {
          "indexed": true,
          "internalType": "address",
          "name": "admin",
          "type": "address"
        }
      ],
      "name": "RewardRateUpdated",
      "type": "event"
    },
    {
      "anonymous": false,
      "inputs": [
        {
          "indexed": true,
          "internalType": "address",
          "name": "user",
          "type": "address"
        },
        {
          "indexed": false,
          "internalType": "uint256",
          "name": "amount",
          "type": "uint256"
        }
      ],
      "name": "Staked",
      "type": "event"
    },
    {
      "anonymous": false,
      "inputs": [
        {
          "indexed": true,
          "internalType": "address",
          "name": "token",
          "type": "address"
        },
        {
          "indexed": false,
          "internalType": "uint256",
          "name": "amount",
          "type": "uint256"
        },
        {
          "indexed": true,
          "internalType": "address",
          "name": "recipient",
          "type": "address"
        }
      ],
      "name": "TokensRescued",
      "type": "event"
    },
    {
      "anonymous": false,
      "inputs": [
        {
          "indexed": true,
          "internalType": "address",
          "name": "user",
          "type": "address"
        },
        {
          "indexed": false,
          "internalType": "uint256",
          "name": "amount",
          "type": "uint256"
        }
      ],
      "name": "Withdrawn",
      "type": "event"
    },
    {
      "inputs": [],
      "name": "MAX_CLAIM_PERIOD",
      "outputs": [
        {
          "internalType": "uint256",
          "name": "",
          "type": "uint256"
        }
      ],
      "stateMutability": "view",
      "type": "function"
    },
    {
      "inputs": [],
      "name": "MAX_CLAIM_PERIOD_DAYS",
      "outputs": [
        {
          "internalType": "uint256",
          "name": "",
          "type": "uint256"
        }
      ],
      "stateMutability": "view",
      "type": "function"
    },
    {
      "inputs": [],
      "name": "MAX_PERIODS_PROCESSED",
      "outputs": [
        {
          "internalType": "uint256",
          "name": "",
          "type": "uint256"
        }
      ],
      "stateMutability": "view",
      "type": "function"
    },
    {
      "inputs": [],
      "name": "MAX_REWARD_RATE",
      "outputs": [
        {
          "internalType": "uint256",
          "name": "",
          "type": "uint256"
        }
      ],
      "stateMutability": "view",
      "type": "function"
    },
    {
      "inputs": [],
      "name": "MIN_STAKING_PERIOD",
      "outputs": [
        {
          "internalType": "uint256",
          "name": "",
          "type": "uint256"
        }
      ],
      "stateMutability": "view",
      "type": "function"
    },
    {
      "inputs": [],
      "name": "PERCENTAGE_BASE",
      "outputs": [
        {
          "internalType": "uint256",
          "name": "",
          "type": "uint256"
        }
      ],
      "stateMutability": "view",
      "type": "function"
    },
    {
      "inputs": [],
      "name": "RATE_CHANGE_COOLDOWN",
      "outputs": [
        {
          "internalType": "uint256",
          "name": "",
          "type": "uint256"
        }
      ],
      "stateMutability": "view",
      "type": "function"
    },
    {
      "inputs": [],
      "name": "SECONDS_PER_DAY",
      "outputs": [
        {
          "internalType": "uint256",
          "name": "",
          "type": "uint256"
        }
      ],
      "stateMutability": "view",
      "type": "function"
    },
    {
      "inputs": [],
      "name": "TOKEN_PRECISION",
      "outputs": [
        {
          "internalType": "uint256",
          "name": "",
          "type": "uint256"
        }
      ],
      "stateMutability": "view",
      "type": "function"
    },
    {
      "inputs": [],
      "name": "activateEmergencyMode",
      "outputs": [],
      "stateMutability": "nonpayable",
      "type": "function"
    },
    {
      "inputs": [
        {
          "internalType": "address",
          "name": "account",
          "type": "address"
        }
      ],
      "name": "balanceOf",
      "outputs": [
        {
          "internalType": "uint256",
          "name": "",
          "type": "uint256"
        }
      ],
      "stateMutability": "view",
      "type": "function"
    },
    {
      "inputs": [],
      "name": "claimReward",
      "outputs": [],
      "stateMutability": "nonpayable",
      "type": "function"
    },
    {
      "inputs": [
        {
          "internalType": "address",
          "name": "account",
          "type": "address"
        }
      ],
      "name": "clearExpiredRewards",
      "outputs": [],
      "stateMutability": "nonpayable",
      "type": "function"
    },
    {
      "inputs": [
        {
          "internalType": "address",
          "name": "account",
          "type": "address"
        }
      ],
      "name": "earned",
      "outputs": [
        {
          "internalType": "uint256",
          "name": "",
          "type": "uint256"
        }
      ],
      "stateMutability": "view",
      "type": "function"
    },
    {
      "inputs": [],
      "name": "emergencyMode",
      "outputs": [
        {
          "internalType": "bool",
          "name": "",
          "type": "bool"
        }
      ],
      "stateMutability": "view",
      "type": "function"
    },
    {
      "inputs": [],
      "name": "emergencyWithdraw",
      "outputs": [],
      "stateMutability": "nonpayable",
      "type": "function"
    },
    {
      "inputs": [
        {
          "internalType": "address",
          "name": "account",
          "type": "address"
        }
      ],
      "name": "getWithdrawableAmount",
      "outputs": [
        {
          "internalType": "uint256",
          "name": "",
          "type": "uint256"
        }
      ],
      "stateMutability": "view",
      "type": "function"
    },
    {
      "inputs": [],
      "name": "lastRateChange",
      "outputs": [
        {
          "internalType": "uint256",
          "name": "",
          "type": "uint256"
        }
      ],
      "stateMutability": "view",
      "type": "function"
    },
    {
      "inputs": [],
      "name": "lastUpdateTime",
      "outputs": [
        {
          "internalType": "uint256",
          "name": "",
          "type": "uint256"
        }
      ],
      "stateMutability": "view",
      "type": "function"
    },
    {
      "inputs": [],
      "name": "minStakingPeriod",
      "outputs": [
        {
          "internalType": "uint256",
          "name": "",
          "type": "uint256"
        }
      ],
      "stateMutability": "view",
      "type": "function"
    },
    {
      "inputs": [],
      "name": "owner",
      "outputs": [
        {
          "internalType": "address",
          "name": "",
          "type": "address"
        }
      ],
      "stateMutability": "view",
      "type": "function"
    },
    {
      "inputs": [],
      "name": "rateChangePaused",
      "outputs": [
        {
          "internalType": "bool",
          "name": "",
          "type": "bool"
        }
      ],
      "stateMutability": "view",
      "type": "function"
    },
    {
      "inputs": [],
      "name": "renounceOwnership",
      "outputs": [],
      "stateMutability": "view",
      "type": "function"
    },
    {
      "inputs": [
        {
          "internalType": "address",
          "name": "tokenAddress",
          "type": "address"
        },
        {
          "internalType": "uint256",
          "name": "amount",
          "type": "uint256"
        }
      ],
      "name": "rescueERC20",
      "outputs": [],
      "stateMutability": "nonpayable",
      "type": "function"
    },
    {
      "inputs": [
        {
          "internalType": "address",
          "name": "",
          "type": "address"
        }
      ],
      "name": "rewardExpirationTimestamps",
      "outputs": [
        {
          "internalType": "uint256",
          "name": "",
          "type": "uint256"
        }
      ],
      "stateMutability": "view",
      "type": "function"
    },
    {
      "inputs": [],
      "name": "rewardPerToken",
      "outputs": [
        {
          "internalType": "uint256",
          "name": "",
          "type": "uint256"
        }
      ],
      "stateMutability": "view",
      "type": "function"
    },
    {
      "inputs": [],
      "name": "rewardPerTokenStored",
      "outputs": [
        {
          "internalType": "uint256",
          "name": "",
          "type": "uint256"
        }
      ],
      "stateMutability": "view",
      "type": "function"
    },
    {
      "inputs": [
        {
          "internalType": "uint256",
          "name": "",
          "type": "uint256"
        }
      ],
      "name": "rewardPeriods",
      "outputs": [
        {
          "internalType": "uint256",
          "name": "rate",
          "type": "uint256"
        },
        {
          "internalType": "uint256",
          "name": "startTime",
          "type": "uint256"
        },
        {
          "internalType": "uint256",
          "name": "endTime",
          "type": "uint256"
        }
      ],
      "stateMutability": "view",
      "type": "function"
    },
    {
      "inputs": [
        {
          "internalType": "address",
          "name": "",
          "type": "address"
        }
      ],
      "name": "rewards",
      "outputs": [
        {
          "internalType": "uint256",
          "name": "",
          "type": "uint256"
        }
      ],
      "stateMutability": "view",
      "type": "function"
    },
    {
      "inputs": [],
      "name": "rewardsToken",
      "outputs": [
        {
          "internalType": "contract ERC20",
          "name": "",
          "type": "address"
        }
      ],
      "stateMutability": "view",
      "type": "function"
    },
    {
      "inputs": [],
      "name": "rewardsTokenUnit",
      "outputs": [
        {
          "internalType": "uint256",
          "name": "",
          "type": "uint256"
        }
      ],
      "stateMutability": "view",
      "type": "function"
    },
    {
      "inputs": [
        {
          "internalType": "uint256",
          "name": "period",
          "type": "uint256"
        }
      ],
      "name": "setMinStakingPeriod",
      "outputs": [],
      "stateMutability": "nonpayable",
      "type": "function"
    },
    {
      "inputs": [
        {
          "internalType": "uint256",
          "name": "_rewardRate",
          "type": "uint256"
        }
      ],
      "name": "setRewardRate",
      "outputs": [],
      "stateMutability": "nonpayable",
      "type": "function"
    },
    {
      "inputs": [
        {
          "internalType": "uint256",
          "name": "amount",
          "type": "uint256"
        }
      ],
      "name": "stake",
      "outputs": [],
      "stateMutability": "nonpayable",
      "type": "function"
    },
    {
      "inputs": [],
      "name": "stakingToken",
      "outputs": [
        {
          "internalType": "contract ERC20",
          "name": "",
          "type": "address"
        }
      ],
      "stateMutability": "view",
      "type": "function"
    },
    {
      "inputs": [],
      "name": "stakingTokenUnit",
      "outputs": [
        {
          "internalType": "uint256",
          "name": "",
          "type": "uint256"
        }
      ],
      "stateMutability": "view",
      "type": "function"
    },
    {
      "inputs": [
        {
          "internalType": "bool",
          "name": "paused",
          "type": "bool"
        }
      ],
      "name": "toggleRateChangePaused",
      "outputs": [],
      "stateMutability": "nonpayable",
      "type": "function"
    },
    {
      "inputs": [],
      "name": "totalSupply",
      "outputs": [
        {
          "internalType": "uint256",
          "name": "",
          "type": "uint256"
        }
      ],
      "stateMutability": "view",
      "type": "function"
    },
    {
      "inputs": [
        {
          "internalType": "address",
          "name": "newOwner",
          "type": "address"
        }
      ],
      "name": "transferOwnership",
      "outputs": [],
      "stateMutability": "nonpayable",
      "type": "function"
    },
    {
      "inputs": [
        {
          "internalType": "address",
          "name": "",
          "type": "address"
        }
      ],
      "name": "userRewardPerTokenPaid",
      "outputs": [
        {
          "internalType": "uint256",
          "name": "",
          "type": "uint256"
        }
      ],
      "stateMutability": "view",
      "type": "function"
    },
    {
      "inputs": [
        {
          "internalType": "uint256",
          "name": "amount",
          "type": "uint256"
        }
      ],
      "name": "withdraw",
      "outputs": [],
      "stateMutability": "nonpayable",
      "type": "function"
    }
  ],
  "bytecode": "0x61010060405262093a80600e556000601160006101000a81548160ff0219169083151502179055503480156200003457600080fd5b5060405162004f8338038062004f8383398181016040528101906200005a9190620004d5565b6200007a6200006e6200039f60201b60201c565b620003a760201b60201c565b60018081905550600073ffffffffffffffffffffffffffffffffffffffff168373ffffffffffffffffffffffffffffffffffffffff1603620000f3576040517f08c379a0000000000000000000000000000000000000000000000000000000008152600401620000ea9062000592565b60405180910390fd5b600073ffffffffffffffffffffffffffffffffffffffff168273ffffffffffffffffffffffffffffffffffffffff160362000165576040517f08c379a00000000000000000000000000000000000000000000000000000000081526004016200015c9062000604565b60405180910390fd5b8273ffffffffffffffffffffffffffffffffffffffff1660c08173ffffffffffffffffffffffffffffffffffffffff16815250508173ffffffffffffffffffffffffffffffffffffffff1660e08173ffffffffffffffffffffffffffffffffffffffff168152505060008060c05173ffffffffffffffffffffffffffffffffffffffff1663313ce5676040518163ffffffff1660e01b8152600401602060405180830381865afa9250505080156200023d57506040513d601f19601f820116820180604052508101906200023a919062000664565b60015b6200025357670de0b6b3a7640000915062000269565b8060ff16600a62000265919062000823565b9250505b60e05173ffffffffffffffffffffffffffffffffffffffff1663313ce5676040518163ffffffff1660e01b8152600401602060405180830381865afa925050508015620002d657506040513d601f19601f82011682018060405250810190620002d3919062000664565b60015b620002ec57670de0b6b3a7640000905062000302565b8060ff16600a620002fe919062000823565b9150505b81608081815250508060a08181525050600073ffffffffffffffffffffffffffffffffffffffff168373ffffffffffffffffffffffffffffffffffffffff16141580156200037c57503373ffffffffffffffffffffffffffffffffffffffff168373ffffffffffffffffffffffffffffffffffffffff1614155b1562000394576200039383620003a760201b60201c565b5b505050505062000874565b600033905090565b60008060009054906101000a900473ffffffffffffffffffffffffffffffffffffffff169050816000806101000a81548173ffffffffffffffffffffffffffffffffffffffff021916908373ffffffffffffffffffffffffffffffffffffffff1602179055508173ffffffffffffffffffffffffffffffffffffffff168173ffffffffffffffffffffffffffffffffffffffff167f8be0079c531659141344cd1fd0a4f28419497f9722a3daafe3b4186f6b6457e060405160405180910390a35050565b600080fd5b600073ffffffffffffffffffffffffffffffffffffffff82169050919050565b60006200049d8262000470565b9050919050565b620004af8162000490565b8114620004bb57600080fd5b50565b600081519050620004cf81620004a4565b92915050565b600080600060608486031215620004f157620004f06200046b565b5b60006200050186828701620004be565b93505060206200051486828701620004be565b92505060406200052786828701620004be565b9150509250925092565b600082825260208201905092915050565b7f496e76616c6964207374616b696e6720746f6b656e2061646472657373000000600082015250565b60006200057a601d8362000531565b9150620005878262000542565b602082019050919050565b60006020820190508181036000830152620005ad816200056b565b9050919050565b7f496e76616c6964207265776172647320746f6b656e2061646472657373000000600082015250565b6000620005ec601d8362000531565b9150620005f982620005b4565b602082019050919050565b600060208201905081810360008301526200061f81620005dd565b9050919050565b600060ff82169050919050565b6200063e8162000626565b81146200064a57600080fd5b50565b6000815190506200065e8162000633565b92915050565b6000602082840312156200067d576200067c6200046b565b5b60006200068d848285016200064d565b91505092915050565b7f4e487b7100000000000000000000000000000000000000000000000000000000600052601160045260246000fd5b60008160011c9050919050565b6000808291508390505b60018511156200072457808604811115620006fc57620006fb62000696565b5b60018516156200070c5780820291505b80810290506200071c85620006c5565b9450620006dc565b94509492505050565b6000826200073f576001905062000812565b816200074f576000905062000812565b81600181146200076857600281146200077357620007a9565b600191505062000812565b60ff84111562000788576200078762000696565b5b8360020a915084821115620007a257620007a162000696565b5b5062000812565b5060208310610133831016604e8410600b8410161715620007e35782820a905083811115620007dd57620007dc62000696565b5b62000812565b620007f28484846001620006d2565b925090508184048111156200080c576200080b62000696565b5b81810290505b9392505050565b6000819050919050565b6000620008308262000819565b91506200083d8362000819565b92506200086c7fffffffffffffffffffffffffffffffffffffffffffffffffffffffffffffffff84846200072d565b905092915050565b60805160a05160c05160e051614673620009106000396000818161144b015281816114a001528181611d5501528181612586015281816126610152612b24015260008181610c3b015281816111c4015281816113bd01528181611e3101528181611ecd01528181611fae0152612dc301526000818161285201526129bf01526000818161078901528181610e59015261320e01526146736000f3fe608060405234801561001057600080fd5b50600436106102525760003560e01c80638b230df211610146578063c8f33c91116100c3578063da71ae7911610087578063da71ae7914610695578063db2e21bc146106b3578063df136d65146106bd578063f2fde38b146106db578063f6777175146106f7578063ffd46b781461072757610252565b8063c8f33c9114610613578063c9d3d16d14610631578063cd3daf9d1461064f578063d00960101461066d578063d1af0c7d1461067757610252565b8063a694fc3a1161010a578063a694fc3a14610593578063b88a802f146105af578063be0eac0c146105b9578063c6616894146105d7578063c743dabb146105f557610252565b80638b230df2146104f15780638b8763471461050d5780638cd4426d1461053d5780638da5cb5b146105595780639e447fc61461057757610252565b8063539f1f34116101d457806372f702f31161019857806372f702f31461044957806374f0314f146104675780638252097d1461048557806387c13943146104b757806388ee6a43146104d557610252565b8063539f1f34146103b55780636eaa7ba2146103d357806370a08231146103f1578063715018a614610421578063718dc3c31461042b57610252565b80632e1a7d4d1161021b5780632e1a7d4d1461031157806330568c8c1461032d57806342364b4f1461034b57806348e0dc121461037b57806353809b571461039957610252565b80628cc26214610257578063069c34f6146102875780630700037d146102a55780630905f560146102d557806318160ddd146102f3575b600080fd5b610271600480360381019061026c919061337f565b610745565b60405161027e91906133c5565b60405180910390f35b61028f61085f565b60405161029c91906133c5565b60405180910390f35b6102bf60048036038101906102ba919061337f565b610865565b6040516102cc91906133c5565b60405180910390f35b6102dd61087d565b6040516102ea91906133fb565b60405180910390f35b6102fb610890565b60405161030891906133c5565b60405180910390f35b61032b60048036038101906103269190613442565b61089a565b005b610335610e2c565b60405161034291906133c5565b60405180910390f35b6103656004803603810190610360919061337f565b610e3f565b60405161037291906133c5565b60405180910390f35b610383610e57565b60405161039091906133c5565b60405180910390f35b6103b360048036038101906103ae919061337f565b610e7b565b005b6103bd61111d565b6040516103ca91906133c5565b60405180910390f35b6103db611122565b6040516103e891906133c5565b60405180910390f35b61040b6004803603810190610406919061337f565b611129565b60405161041891906133c5565b60405180910390f35b610429611172565b005b6104336111b5565b60405161044091906133c5565b60405180910390f35b6104516111c2565b60405161045e91906134ce565b60405180910390f35b61046f6111e6565b60405161047c91906133c5565b60405180910390f35b61049f600480360381019061049a9190613442565b6111ed565b6040516104ae939291906134e9565b60405180910390f35b6104bf611227565b6040516104cc91906133c5565b60405180910390f35b6104ef60048036038101906104ea9190613442565b61122d565b005b61050b6004803603810190610506919061354c565b611276565b005b6105276004803603810190610522919061337f565b6112e9565b60405161053491906133c5565b60405180910390f35b61055760048036038101906105529190613579565b611301565b005b610561611723565b60405161056e91906135c8565b60405180910390f35b610591600480360381019061058c9190613442565b61174c565b005b6105ad60048036038101906105a89190613442565b611bc8565b005b6105b7612329565b005b6105c1612850565b6040516105ce91906133c5565b60405180910390f35b6105df612874565b6040516105ec91906133c5565b60405180910390f35b6105fd612880565b60405161060a91906133c5565b60405180910390f35b61061b612887565b60405161062891906133c5565b60405180910390f35b61063961288d565b60405161064691906133fb565b60405180910390f35b6106576128a0565b60405161066491906133c5565b60405180910390f35b610675612a5f565b005b61067f612b22565b60405161068c91906134ce565b60405180910390f35b61069d612b46565b6040516106aa91906133c5565b60405180910390f35b6106bb612b4c565b005b6106c5612fb1565b6040516106d291906133c5565b60405180910390f35b6106f560048036038101906106f0919061337f565b612fb7565b005b610711600480360381019061070c919061337f565b61303a565b60405161071e91906133c5565b60405180910390f35b61072f613102565b60405161073c91906133c5565b60405180910390f35b6000600660008373ffffffffffffffffffffffffffffffffffffffff1673ffffffffffffffffffffffffffffffffffffffff168152602001908152602001600020547f0000000000000000000000000000000000000000000000000000000000000000600560008573ffffffffffffffffffffffffffffffffffffffff1673ffffffffffffffffffffffffffffffffffffffff168152602001908152602001600020546107f06128a0565b6107fa9190613612565b600d60008673ffffffffffffffffffffffffffffffffffffffff1673ffffffffffffffffffffffffffffffffffffffff168152602001908152602001600020546108449190613646565b61084e91906136b7565b61085891906136e8565b9050919050565b600e5481565b60066020528060005260406000206000915090505481565b601160009054906101000a900460ff1681565b6000600a54905090565b6108a2613107565b3360006108ad6128a0565b90508060038190555042600481905550600073ffffffffffffffffffffffffffffffffffffffff168273ffffffffffffffffffffffffffffffffffffffff16146109e0576108fa82610745565b600660008473ffffffffffffffffffffffffffffffffffffffff1673ffffffffffffffffffffffffffffffffffffffff1681526020019081526020016000208190555080600560008473ffffffffffffffffffffffffffffffffffffffff1673ffffffffffffffffffffffffffffffffffffffff1681526020019081526020016000208190555062015180601e6109919190613646565b4261099c91906136e8565b600760008473ffffffffffffffffffffffffffffffffffffffff1673ffffffffffffffffffffffffffffffffffffffff168152602001908152602001600020819055505b60008311610a23576040517f08c379a0000000000000000000000000000000000000000000000000000000008152600401610a1a90613779565b60405180910390fd5b6000610a2e3361303a565b905083811015610a73576040517f08c379a0000000000000000000000000000000000000000000000000000000008152600401610a6a9061380b565b60405180910390fd5b60008490506000600f60003373ffffffffffffffffffffffffffffffffffffffff1673ffffffffffffffffffffffffffffffffffffffff168152602001908152602001600020905060005b818054905081108015610ad15750600083115b15610b86576000828281548110610aeb57610aea61382b565b5b90600052602060002090600202019050600e548160010154610b0d91906136e8565b421015610b1a5750610b73565b6000816000015403610b2c5750610b73565b600081600001548511610b3f5784610b45565b81600001545b905080826000016000828254610b5b9190613612565b925050819055508085610b6e9190613612565b945050505b8080610b7e9061385a565b915050610abe565b5060008214610bca576040517f08c379a0000000000000000000000000000000000000000000000000000000008152600401610bc1906138ee565b60405180910390fd5b85600b60003373ffffffffffffffffffffffffffffffffffffffff1673ffffffffffffffffffffffffffffffffffffffff1681526020019081526020016000206000828254610c199190613612565b9250508190555085600a6000828254610c329190613612565b925050819055507f000000000000000000000000000000000000000000000000000000000000000073ffffffffffffffffffffffffffffffffffffffff1663a9059cbb33886040518363ffffffff1660e01b8152600401610c9492919061390e565b6020604051808303816000875af1158015610cb3573d6000803e3d6000fd5b505050506040513d601f19601f82011682018060405250810190610cd7919061394c565b610d16576040517f08c379a0000000000000000000000000000000000000000000000000000000008152600401610d0d906139c5565b60405180910390fd5b3373ffffffffffffffffffffffffffffffffffffffff167f7084f5476618d8e60b11ef0d7d3f06914655adb8793e28ff7f018d4c76d505d587604051610d5c91906133c5565b60405180910390a2505050600073ffffffffffffffffffffffffffffffffffffffff168273ffffffffffffffffffffffffffffffffffffffff1614610e1f57600b60008373ffffffffffffffffffffffffffffffffffffffff1673ffffffffffffffffffffffffffffffffffffffff16815260200190815260200160002054600d60008473ffffffffffffffffffffffffffffffffffffffff1673ffffffffffffffffffffffffffffffffffffffff168152602001908152602001600020819055505b5050610e29613156565b50565b62015180601e610e3c9190613646565b81565b60076020528060005260406000206000915090505481565b7f000000000000000000000000000000000000000000000000000000000000000081565b610e83613107565b600073ffffffffffffffffffffffffffffffffffffffff168173ffffffffffffffffffffffffffffffffffffffff1603610ef2576040517f08c379a0000000000000000000000000000000000000000000000000000000008152600401610ee990613a31565b60405180910390fd5b6000600760008373ffffffffffffffffffffffffffffffffffffffff1673ffffffffffffffffffffffffffffffffffffffff1681526020019081526020016000205411610f74576040517f08c379a0000000000000000000000000000000000000000000000000000000008152600401610f6b90613a9d565b60405180910390fd5b600760008273ffffffffffffffffffffffffffffffffffffffff1673ffffffffffffffffffffffffffffffffffffffff168152602001908152602001600020544211610ff5576040517f08c379a0000000000000000000000000000000000000000000000000000000008152600401610fec90613b09565b60405180910390fd5b6000600660008373ffffffffffffffffffffffffffffffffffffffff1673ffffffffffffffffffffffffffffffffffffffff1681526020019081526020016000205490506000600660008473ffffffffffffffffffffffffffffffffffffffff1673ffffffffffffffffffffffffffffffffffffffff168152602001908152602001600020819055506000600760008473ffffffffffffffffffffffffffffffffffffffff1673ffffffffffffffffffffffffffffffffffffffff168152602001908152602001600020819055508173ffffffffffffffffffffffffffffffffffffffff167f6424bfe05f4bf0bb8ed07ffc754f2c4ed6ca4ef02134180b34899ab61d998e028260405161110991906133c5565b60405180910390a25061111a613156565b50565b606481565b6201518081565b6000600b60008373ffffffffffffffffffffffffffffffffffffffff1673ffffffffffffffffffffffffffffffffffffffff168152602001908152602001600020549050919050565b61117a61315f565b6040517f08c379a00000000000000000000000000000000000000000000000000000000081526004016111ac90613b75565b60405180910390fd5b68056bc75e2d6310000081565b7f000000000000000000000000000000000000000000000000000000000000000081565b6201518081565b600281815481106111fd57600080fd5b90600052602060002090600302016000915090508060000154908060010154908060020154905083565b61271081565b61123561315f565b80600e819055507f8114637a99d6dbde6e7e5125969a8ecbe5d143eedc597560c9c79a8cb9a6b5d08160405161126b91906133c5565b60405180910390a150565b61127e61315f565b80600960006101000a81548160ff0219169083151502179055503373ffffffffffffffffffffffffffffffffffffffff167f238aa50ad679735a56e863b0b72aebfb67e754e8d454f06eedac4f06597ad72a826040516112de91906133fb565b60405180910390a250565b60056020528060005260406000206000915090505481565b61130961315f565b600073ffffffffffffffffffffffffffffffffffffffff168273ffffffffffffffffffffffffffffffffffffffff1603611378576040517f08c379a000000000000000000000000000000000000000000000000000000000815260040161136f90613be1565b60405180910390fd5b600081116113bb576040517f08c379a00000000000000000000000000000000000000000000000000000000081526004016113b290613c4d565b60405180910390fd5b7f000000000000000000000000000000000000000000000000000000000000000073ffffffffffffffffffffffffffffffffffffffff168273ffffffffffffffffffffffffffffffffffffffff1603611449576040517f08c379a000000000000000000000000000000000000000000000000000000000815260040161144090613cb9565b60405180910390fd5b7f000000000000000000000000000000000000000000000000000000000000000073ffffffffffffffffffffffffffffffffffffffff168273ffffffffffffffffffffffffffffffffffffffff16036115ef5760007f000000000000000000000000000000000000000000000000000000000000000073ffffffffffffffffffffffffffffffffffffffff166370a08231306040518263ffffffff1660e01b81526004016114f791906135c8565b602060405180830381865afa158015611514573d6000803e3d6000fd5b505050506040513d601f19601f820116820180604052508101906115389190613cee565b905060006115446131dd565b90506000818311611556576000611563565b81836115629190613612565b5b9050600081116115a8576040517f08c379a000000000000000000000000000000000000000000000000000000000815260040161159f90613d8d565b60405180910390fd5b808411156115eb576040517f08c379a00000000000000000000000000000000000000000000000000000000081526004016115e290613e1f565b60405180910390fd5b5050505b8173ffffffffffffffffffffffffffffffffffffffff1663a9059cbb611613611723565b836040518363ffffffff1660e01b815260040161163192919061390e565b6020604051808303816000875af1158015611650573d6000803e3d6000fd5b505050506040513d601f19601f82011682018060405250810190611674919061394c565b6116b3576040517f08c379a00000000000000000000000000000000000000000000000000000000081526004016116aa90613e8b565b60405180910390fd5b6116bb611723565b73ffffffffffffffffffffffffffffffffffffffff168273ffffffffffffffffffffffffffffffffffffffff167ffb475a842bad10d3800b61bd1a92e716051afba979b124b583bd99a2d1d7bfd58360405161171791906133c5565b60405180910390a35050565b60008060009054906101000a900473ffffffffffffffffffffffffffffffffffffffff16905090565b61175461315f565b60008061175f6128a0565b90508060038190555042600481905550600073ffffffffffffffffffffffffffffffffffffffff168273ffffffffffffffffffffffffffffffffffffffff1614611892576117ac82610745565b600660008473ffffffffffffffffffffffffffffffffffffffff1673ffffffffffffffffffffffffffffffffffffffff1681526020019081526020016000208190555080600560008473ffffffffffffffffffffffffffffffffffffffff1673ffffffffffffffffffffffffffffffffffffffff1681526020019081526020016000208190555062015180601e6118439190613646565b4261184e91906136e8565b600760008473ffffffffffffffffffffffffffffffffffffffff1673ffffffffffffffffffffffffffffffffffffffff168152602001908152602001600020819055505b600960009054906101000a900460ff16156118e2576040517f08c379a00000000000000000000000000000000000000000000000000000000081526004016118d990613f1d565b60405180910390fd5b68056bc75e2d6310000083111561192e576040517f08c379a000000000000000000000000000000000000000000000000000000000815260040161192590613f89565b60405180910390fd5b6201518060085461193f91906136e8565b421015611981576040517f08c379a000000000000000000000000000000000000000000000000000000000815260040161197890613ff5565b60405180910390fd5b600080600280549050116119965760006119ce565b600260016002805490506119aa9190613612565b815481106119bb576119ba61382b565b5b9060005260206000209060030201600001545b905060006002805490501115611a20576000600260016002805490506119f49190613612565b81548110611a0557611a0461382b565b5b90600052602060002090600302019050428160020181905550505b600060405180606001604052808681526020014281526020017fffffffffffffffffffffffffffffffffffffffffffffffffffffffffffffffff81525090506002819080600181540180825580915050600190039060005260206000209060030201600090919091909150600082015181600001556020820151816001015560408201518160020155505042600481905550426008819055503373ffffffffffffffffffffffffffffffffffffffff167f32191e98bcd46ebeb00f4196390aa79d479294b3b08655329c4d2647030b77da8387604051611b01929190614015565b60405180910390a25050600073ffffffffffffffffffffffffffffffffffffffff168273ffffffffffffffffffffffffffffffffffffffff1614611bc357600b60008373ffffffffffffffffffffffffffffffffffffffff1673ffffffffffffffffffffffffffffffffffffffff16815260200190815260200160002054600d60008473ffffffffffffffffffffffffffffffffffffffff1673ffffffffffffffffffffffffffffffffffffffff168152602001908152602001600020819055505b505050565b611bd0613107565b336000611bdb6128a0565b90508060038190555042600481905550600073ffffffffffffffffffffffffffffffffffffffff168273ffffffffffffffffffffffffffffffffffffffff1614611d0e57611c2882610745565b600660008473ffffffffffffffffffffffffffffffffffffffff1673ffffffffffffffffffffffffffffffffffffffff1681526020019081526020016000208190555080600560008473ffffffffffffffffffffffffffffffffffffffff1673ffffffffffffffffffffffffffffffffffffffff1681526020019081526020016000208190555062015180601e611cbf9190613646565b42611cca91906136e8565b600760008473ffffffffffffffffffffffffffffffffffffffff1673ffffffffffffffffffffffffffffffffffffffff168152602001908152602001600020819055505b60008311611d51576040517f08c379a0000000000000000000000000000000000000000000000000000000008152600401611d489061408a565b60405180910390fd5b60007f000000000000000000000000000000000000000000000000000000000000000073ffffffffffffffffffffffffffffffffffffffff166370a08231306040518263ffffffff1660e01b8152600401611dac91906135c8565b602060405180830381865afa158015611dc9573d6000803e3d6000fd5b505050506040513d601f19601f82011682018060405250810190611ded9190613cee565b11611e2d576040517f08c379a0000000000000000000000000000000000000000000000000000000008152600401611e24906140f6565b60405180910390fd5b60007f000000000000000000000000000000000000000000000000000000000000000073ffffffffffffffffffffffffffffffffffffffff166370a08231306040518263ffffffff1660e01b8152600401611e8891906135c8565b602060405180830381865afa158015611ea5573d6000803e3d6000fd5b505050506040513d601f19601f82011682018060405250810190611ec99190613cee565b90507f000000000000000000000000000000000000000000000000000000000000000073ffffffffffffffffffffffffffffffffffffffff166323b872dd3330876040518463ffffffff1660e01b8152600401611f2893929190614116565b6020604051808303816000875af1158015611f47573d6000803e3d6000fd5b505050506040513d601f19601f82011682018060405250810190611f6b919061394c565b611faa576040517f08c379a0000000000000000000000000000000000000000000000000000000008152600401611fa1906139c5565b60405180910390fd5b60007f000000000000000000000000000000000000000000000000000000000000000073ffffffffffffffffffffffffffffffffffffffff166370a08231306040518263ffffffff1660e01b815260040161200591906135c8565b602060405180830381865afa158015612022573d6000803e3d6000fd5b505050506040513d601f19601f820116820180604052508101906120469190613cee565b9050600082826120569190613612565b905085811461209a576040517f08c379a000000000000000000000000000000000000000000000000000000000815260040161209190614199565b60405180910390fd5b80600a546120a891906136e8565b600a8190555080600b60003373ffffffffffffffffffffffffffffffffffffffff1673ffffffffffffffffffffffffffffffffffffffff168152602001908152602001600020546120f991906136e8565b600b60003373ffffffffffffffffffffffffffffffffffffffff1673ffffffffffffffffffffffffffffffffffffffff1681526020019081526020016000208190555042600c60003373ffffffffffffffffffffffffffffffffffffffff1673ffffffffffffffffffffffffffffffffffffffff16815260200190815260200160002081905550600f60003373ffffffffffffffffffffffffffffffffffffffff1673ffffffffffffffffffffffffffffffffffffffff1681526020019081526020016000206040518060400160405280838152602001428152509080600181540180825580915050600190039060005260206000209060020201600090919091909150600082015181600001556020820151816001015550503373ffffffffffffffffffffffffffffffffffffffff167f9e71bc8eea02a63969f509818f2dafb9254532904319f9dbda79b67bd34a5f3d8260405161225991906133c5565b60405180910390a2505050600073ffffffffffffffffffffffffffffffffffffffff168273ffffffffffffffffffffffffffffffffffffffff161461231c57600b60008373ffffffffffffffffffffffffffffffffffffffff1673ffffffffffffffffffffffffffffffffffffffff16815260200190815260200160002054600d60008473ffffffffffffffffffffffffffffffffffffffff1673ffffffffffffffffffffffffffffffffffffffff168152602001908152602001600020819055505b5050612326613156565b50565b612331613107565b33600061233c6128a0565b90508060038190555042600481905550600073ffffffffffffffffffffffffffffffffffffffff168273ffffffffffffffffffffffffffffffffffffffff161461246f5761238982610745565b600660008473ffffffffffffffffffffffffffffffffffffffff1673ffffffffffffffffffffffffffffffffffffffff1681526020019081526020016000208190555080600560008473ffffffffffffffffffffffffffffffffffffffff1673ffffffffffffffffffffffffffffffffffffffff1681526020019081526020016000208190555062015180601e6124209190613646565b4261242b91906136e8565b600760008473ffffffffffffffffffffffffffffffffffffffff1673ffffffffffffffffffffffffffffffffffffffff168152602001908152602001600020819055505b600760003373ffffffffffffffffffffffffffffffffffffffff1673ffffffffffffffffffffffffffffffffffffffff168152602001908152602001600020544211156124f1576040517f08c379a00000000000000000000000000000000000000000000000000000000081526004016124e890614205565b60405180910390fd5b6000600660003373ffffffffffffffffffffffffffffffffffffffff1673ffffffffffffffffffffffffffffffffffffffff168152602001908152602001600020549050600081111561278b576000600660003373ffffffffffffffffffffffffffffffffffffffff1673ffffffffffffffffffffffffffffffffffffffff16815260200190815260200160002081905550807f000000000000000000000000000000000000000000000000000000000000000073ffffffffffffffffffffffffffffffffffffffff166370a08231306040518263ffffffff1660e01b81526004016125dd91906135c8565b602060405180830381865afa1580156125fa573d6000803e3d6000fd5b505050506040513d601f19601f8201168201806040525081019061261e9190613cee565b101561265f576040517f08c379a000000000000000000000000000000000000000000000000000000000815260040161265690614297565b60405180910390fd5b7f000000000000000000000000000000000000000000000000000000000000000073ffffffffffffffffffffffffffffffffffffffff1663a9059cbb33836040518363ffffffff1660e01b81526004016126ba92919061390e565b6020604051808303816000875af11580156126d9573d6000803e3d6000fd5b505050506040513d601f19601f820116820180604052508101906126fd919061394c565b61273c576040517f08c379a000000000000000000000000000000000000000000000000000000000815260040161273390614303565b60405180910390fd5b3373ffffffffffffffffffffffffffffffffffffffff167fe2403640ba68fed3a2f88b7557551d1993f84b99bb10ff833f0cf8db0c5e04868260405161278291906133c5565b60405180910390a25b50600073ffffffffffffffffffffffffffffffffffffffff168273ffffffffffffffffffffffffffffffffffffffff161461284457600b60008373ffffffffffffffffffffffffffffffffffffffff1673ffffffffffffffffffffffffffffffffffffffff16815260200190815260200160002054600d60008473ffffffffffffffffffffffffffffffffffffffff1673ffffffffffffffffffffffffffffffffffffffff168152602001908152602001600020819055505b505061284e613156565b565b7f000000000000000000000000000000000000000000000000000000000000000081565b670de0b6b3a764000081565b62093a8081565b60045481565b600960009054906101000a900460ff1681565b600080600a5414806128b457506000600454145b156128c3576003549050612a5c565b60008060028054905090506000805b82811015612a47576000600282815481106128f0576128ef61382b565b5b906000526020600020906003020160405180606001604052908160008201548152602001600182015481526020016002820154815250509050600081604001519050600082602001519050600454821115612a3157600060045482116129585760045461295a565b815b905060007fffffffffffffffffffffffffffffffffffffffffffffffffffffffffffffffff84148061298b57504284115b6129955783612997565b425b905081811115612a2e57600082826129af9190613612565b9050600086600001519050600a547f000000000000000000000000000000000000000000000000000000000000000083836129ea9190613646565b6129f49190613646565b6129fe91906136b7565b8b612a0991906136e8565b9a50606489612a179061385a565b99508910612a2b5750505050505050612a47565b50505b50505b5050508080612a3f9061385a565b9150506128d2565b5082600354612a5691906136e8565b93505050505b90565b612a6761315f565b601160009054906101000a900460ff1615612ab7576040517f08c379a0000000000000000000000000000000000000000000000000000000008152600401612aae9061436f565b60405180910390fd5b6001601160006101000a81548160ff0219169083151502179055503373ffffffffffffffffffffffffffffffffffffffff167f16ea6c4a0ff7e3a4c096560a5a71632e344907cd03af0f6e655b409a61d549ef42604051612b1891906133c5565b60405180910390a2565b7f000000000000000000000000000000000000000000000000000000000000000081565b60085481565b612b54613107565b336000612b5f6128a0565b90508060038190555042600481905550600073ffffffffffffffffffffffffffffffffffffffff168273ffffffffffffffffffffffffffffffffffffffff1614612c9257612bac82610745565b600660008473ffffffffffffffffffffffffffffffffffffffff1673ffffffffffffffffffffffffffffffffffffffff1681526020019081526020016000208190555080600560008473ffffffffffffffffffffffffffffffffffffffff1673ffffffffffffffffffffffffffffffffffffffff1681526020019081526020016000208190555062015180601e612c439190613646565b42612c4e91906136e8565b600760008473ffffffffffffffffffffffffffffffffffffffff1673ffffffffffffffffffffffffffffffffffffffff168152602001908152602001600020819055505b601160009054906101000a900460ff16612ce1576040517f08c379a0000000000000000000000000000000000000000000000000000000008152600401612cd8906143db565b60405180910390fd5b6000600b60003373ffffffffffffffffffffffffffffffffffffffff1673ffffffffffffffffffffffffffffffffffffffff16815260200190815260200160002054905060008111612d68576040517f08c379a0000000000000000000000000000000000000000000000000000000008152600401612d5f90614447565b60405180910390fd5b6000600b60003373ffffffffffffffffffffffffffffffffffffffff1673ffffffffffffffffffffffffffffffffffffffff1681526020019081526020016000208190555080600a54612dbb9190613612565b600a819055507f000000000000000000000000000000000000000000000000000000000000000073ffffffffffffffffffffffffffffffffffffffff1663a9059cbb33836040518363ffffffff1660e01b8152600401612e1c92919061390e565b6020604051808303816000875af1158015612e3b573d6000803e3d6000fd5b505050506040513d601f19601f82011682018060405250810190612e5f919061394c565b612e9e576040517f08c379a0000000000000000000000000000000000000000000000000000000008152600401612e95906144b3565b60405180910390fd5b3373ffffffffffffffffffffffffffffffffffffffff167f23d6711a1d031134a36921253c75aa59e967d38e369ac625992824315e204f2082604051612ee491906133c5565b60405180910390a250600073ffffffffffffffffffffffffffffffffffffffff168273ffffffffffffffffffffffffffffffffffffffff1614612fa557600b60008373ffffffffffffffffffffffffffffffffffffffff1673ffffffffffffffffffffffffffffffffffffffff16815260200190815260200160002054600d60008473ffffffffffffffffffffffffffffffffffffffff1673ffffffffffffffffffffffffffffffffffffffff168152602001908152602001600020819055505b5050612faf613156565b565b60035481565b612fbf61315f565b600073ffffffffffffffffffffffffffffffffffffffff168173ffffffffffffffffffffffffffffffffffffffff160361302e576040517f08c379a000000000000000000000000000000000000000000000000000000000815260040161302590614545565b60405180910390fd5b61303781613250565b50565b600080600090506000600f60008573ffffffffffffffffffffffffffffffffffffffff1673ffffffffffffffffffffffffffffffffffffffff168152602001908152602001600020905060005b81805490508110156130f75760008282815481106130a8576130a761382b565b5b90600052602060002090600202019050600e5481600101546130ca91906136e8565b42106130e3578060000154846130e091906136e8565b93505b5080806130ef9061385a565b915050613087565b508192505050919050565b601e81565b60026001540361314c576040517f08c379a0000000000000000000000000000000000000000000000000000000008152600401613143906145b1565b60405180910390fd5b6002600181905550565b60018081905550565b613167613314565b73ffffffffffffffffffffffffffffffffffffffff16613185611723565b73ffffffffffffffffffffffffffffffffffffffff16146131db576040517f08c379a00000000000000000000000000000000000000000000000000000000081526004016131d29061461d565b60405180910390fd5b565b600080600090506000600a541180156131fb57506000600280549050115b1561324957600061320a6128a0565b90507f000000000000000000000000000000000000000000000000000000000000000081600a5461323b9190613646565b61324591906136b7565b9150505b8091505090565b60008060009054906101000a900473ffffffffffffffffffffffffffffffffffffffff169050816000806101000a81548173ffffffffffffffffffffffffffffffffffffffff021916908373ffffffffffffffffffffffffffffffffffffffff1602179055508173ffffffffffffffffffffffffffffffffffffffff168173ffffffffffffffffffffffffffffffffffffffff167f8be0079c531659141344cd1fd0a4f28419497f9722a3daafe3b4186f6b6457e060405160405180910390a35050565b600033905090565b600080fd5b600073ffffffffffffffffffffffffffffffffffffffff82169050919050565b600061334c82613321565b9050919050565b61335c81613341565b811461336757600080fd5b50565b60008135905061337981613353565b92915050565b6000602082840312156133955761339461331c565b5b60006133a38482850161336a565b91505092915050565b6000819050919050565b6133bf816133ac565b82525050565b60006020820190506133da60008301846133b6565b92915050565b60008115159050919050565b6133f5816133e0565b82525050565b600060208201905061341060008301846133ec565b92915050565b61341f816133ac565b811461342a57600080fd5b50565b60008135905061343c81613416565b92915050565b6000602082840312156134585761345761331c565b5b60006134668482850161342d565b91505092915050565b6000819050919050565b600061349461348f61348a84613321565b61346f565b613321565b9050919050565b60006134a682613479565b9050919050565b60006134b88261349b565b9050919050565b6134c8816134ad565b82525050565b60006020820190506134e360008301846134bf565b92915050565b60006060820190506134fe60008301866133b6565b61350b60208301856133b6565b61351860408301846133b6565b949350505050565b613529816133e0565b811461353457600080fd5b50565b60008135905061354681613520565b92915050565b6000602082840312156135625761356161331c565b5b600061357084828501613537565b91505092915050565b600080604083850312156135905761358f61331c565b5b600061359e8582860161336a565b92505060206135af8582860161342d565b9150509250929050565b6135c281613341565b82525050565b60006020820190506135dd60008301846135b9565b92915050565b7f4e487b7100000000000000000000000000000000000000000000000000000000600052601160045260246000fd5b600061361d826133ac565b9150613628836133ac565b92508282039050818111156136405761363f6135e3565b5b92915050565b6000613651826133ac565b915061365c836133ac565b925082820261366a816133ac565b91508282048414831517613681576136806135e3565b5b5092915050565b7f4e487b7100000000000000000000000000000000000000000000000000000000600052601260045260246000fd5b60006136c2826133ac565b91506136cd836133ac565b9250826136dd576136dc613688565b5b828204905092915050565b60006136f3826133ac565b91506136fe836133ac565b9250828201905080821115613716576137156135e3565b5b92915050565b600082825260208201905092915050565b7f43616e6e6f742077697468647261772030000000000000000000000000000000600082015250565b600061376360118361371c565b915061376e8261372d565b602082019050919050565b6000602082019050818103600083015261379281613756565b9050919050565b7f496e73756666696369656e7420776974686472617761626c652062616c616e6360008201527f6500000000000000000000000000000000000000000000000000000000000000602082015250565b60006137f560218361371c565b915061380082613799565b604082019050919050565b60006020820190508181036000830152613824816137e8565b9050919050565b7f4e487b7100000000000000000000000000000000000000000000000000000000600052603260045260246000fd5b6000613865826133ac565b91507fffffffffffffffffffffffffffffffffffffffffffffffffffffffffffffffff8203613897576138966135e3565b5b600182019050919050565b7f5769746864726177616c2063616c63756c6174696f6e206572726f7200000000600082015250565b60006138d8601c8361371c565b91506138e3826138a2565b602082019050919050565b60006020820190508181036000830152613907816138cb565b9050919050565b600060408201905061392360008301856135b9565b61393060208301846133b6565b9392505050565b60008151905061394681613520565b92915050565b6000602082840312156139625761396161331c565b5b600061397084828501613937565b91505092915050565b7f546f6b656e207472616e73666572206661696c65640000000000000000000000600082015250565b60006139af60158361371c565b91506139ba82613979565b602082019050919050565b600060208201905081810360008301526139de816139a2565b9050919050565b7f496e76616c6964206163636f756e742061646472657373000000000000000000600082015250565b6000613a1b60178361371c565b9150613a26826139e5565b602082019050919050565b60006020820190508181036000830152613a4a81613a0e565b9050919050565b7f4e6f207265776172647320746f20636c65617200000000000000000000000000600082015250565b6000613a8760138361371c565b9150613a9282613a51565b602082019050919050565b60006020820190508181036000830152613ab681613a7a565b9050919050565b7f52657761726473206e6f74206578706972656400000000000000000000000000600082015250565b6000613af360138361371c565b9150613afe82613abd565b602082019050919050565b60006020820190508181036000830152613b2281613ae6565b9050919050565b7f4f776e6572736869702072656e756e63696174696f6e2064697361626c656400600082015250565b6000613b5f601f8361371c565b9150613b6a82613b29565b602082019050919050565b60006020820190508181036000830152613b8e81613b52565b9050919050565b7f496e76616c696420746f6b656e20616464726573730000000000000000000000600082015250565b6000613bcb60158361371c565b9150613bd682613b95565b602082019050919050565b60006020820190508181036000830152613bfa81613bbe565b9050919050565b7f43616e6e6f7420726573637565207a65726f20616d6f756e7400000000000000600082015250565b6000613c3760198361371c565b9150613c4282613c01565b602082019050919050565b60006020820190508181036000830152613c6681613c2a565b9050919050565b7f43616e6e6f74207769746864726177207374616b696e6720746f6b656e000000600082015250565b6000613ca3601d8361371c565b9150613cae82613c6d565b602082019050919050565b60006020820190508181036000830152613cd281613c96565b9050919050565b600081519050613ce881613416565b92915050565b600060208284031215613d0457613d0361331c565b5b6000613d1284828501613cd9565b91505092915050565b7f4e6f206578636573732072657761726420746f6b656e7320617661696c61626c60008201527f6520666f72207265736375650000000000000000000000000000000000000000602082015250565b6000613d77602c8361371c565b9150613d8282613d1b565b604082019050919050565b60006020820190508181036000830152613da681613d6a565b9050919050565b7f416d6f756e74206578636565647320617661696c61626c65206578636573732060008201527f72657761726420746f6b656e7300000000000000000000000000000000000000602082015250565b6000613e09602d8361371c565b9150613e1482613dad565b604082019050919050565b60006020820190508181036000830152613e3881613dfc565b9050919050565b7f546f6b656e20726573637565207472616e73666572206661696c656400000000600082015250565b6000613e75601c8361371c565b9150613e8082613e3f565b602082019050919050565b60006020820190508181036000830152613ea481613e68565b9050919050565b7f4369726375697420627265616b6572206163746976653a20726174652063686160008201527f6e67657320706175736564000000000000000000000000000000000000000000602082015250565b6000613f07602b8361371c565b9150613f1282613eab565b604082019050919050565b60006020820190508181036000830152613f3681613efa565b9050919050565b7f52657761726420726174652065786365656473206d6178696d756d0000000000600082015250565b6000613f73601b8361371c565b9150613f7e82613f3d565b602082019050919050565b60006020820190508181036000830152613fa281613f66565b9050919050565b7f52617465206368616e676520636f6f6c646f776e206163746976650000000000600082015250565b6000613fdf601b8361371c565b9150613fea82613fa9565b602082019050919050565b6000602082019050818103600083015261400e81613fd2565b9050919050565b600060408201905061402a60008301856133b6565b61403760208301846133b6565b9392505050565b7f43616e6e6f74207374616b652030000000000000000000000000000000000000600082015250565b6000614074600e8361371c565b915061407f8261403e565b602082019050919050565b600060208201905081810360008301526140a381614067565b9050919050565b7f5265776172647320706f6f6c20697320656d7074790000000000000000000000600082015250565b60006140e060158361371c565b91506140eb826140aa565b602082019050919050565b6000602082019050818103600083015261410f816140d3565b9050919050565b600060608201905061412b60008301866135b9565b61413860208301856135b9565b61414560408301846133b6565b949350505050565b7f496e636f727265637420616d6f756e7420726563656976656400000000000000600082015250565b600061418360198361371c565b915061418e8261414d565b602082019050919050565b600060208201905081810360008301526141b281614176565b9050919050565b7f52657761726420636c61696d20706572696f6420657870697265640000000000600082015250565b60006141ef601b8361371c565b91506141fa826141b9565b602082019050919050565b6000602082019050818103600083015261421e816141e2565b9050919050565b7f496e73756666696369656e742072657761726420746f6b656e2062616c616e6360008201527f6500000000000000000000000000000000000000000000000000000000000000602082015250565b600061428160218361371c565b915061428c82614225565b604082019050919050565b600060208201905081810360008301526142b081614274565b9050919050565b7f526577617264207472616e73666572206661696c656400000000000000000000600082015250565b60006142ed60168361371c565b91506142f8826142b7565b602082019050919050565b6000602082019050818103600083015261431c816142e0565b9050919050565b7f456d657267656e6379206d6f646520616c726561647920616374697665000000600082015250565b6000614359601d8361371c565b915061436482614323565b602082019050919050565b600060208201905081810360008301526143888161434c565b9050919050565b7f456d657267656e6379206d6f6465206e6f742061637469766500000000000000600082015250565b60006143c560198361371c565b91506143d08261438f565b602082019050919050565b600060208201905081810360008301526143f4816143b8565b9050919050565b7f4e6f207374616b656420746f6b656e7320746f20776974686472617700000000600082015250565b6000614431601c8361371c565b915061443c826143fb565b602082019050919050565b6000602082019050818103600083015261446081614424565b9050919050565b7f456d657267656e637920746f6b656e207472616e73666572206661696c656400600082015250565b600061449d601f8361371c565b91506144a882614467565b602082019050919050565b600060208201905081810360008301526144cc81614490565b9050919050565b7f4f776e61626c653a206e6577206f776e657220697320746865207a65726f206160008201527f6464726573730000000000000000000000000000000000000000000000000000602082015250565b600061452f60268361371c565b915061453a826144d3565b604082019050919050565b6000602082019050818103600083015261455e81614522565b9050919050565b7f5265656e7472616e637947756172643a207265656e7472616e742063616c6c00600082015250565b600061459b601f8361371c565b91506145a682614565565b602082019050919050565b600060208201905081810360008301526145ca8161458e565b9050919050565b7f4f776e61626c653a2063616c6c6572206973206e6f7420746865206f776e6572600082015250565b600061460760208361371c565b9150614612826145d1565b602082019050919050565b60006020820190508181036000830152614636816145fa565b905091905056fea264697066735822122011b8fd720adddc90ecb20af2cd077add32686084b1250ef907a8cd182c07d92e64736f6c63430008140033",
  "linkReferences": {},
  "deployedLinkReferences": {}
}