{
  "_format": "hh-sol-artifact-1",
  "contractName": "BaseRewards",
  "sourceName": "contracts/rewards/BaseRewards.sol",
  "abi": [
    {
      "inputs": [
        {
          "internalType": "address",
          "name": "_stakingToken",
          "type": "address"
        },
        {
          "internalType": "address",
          "name": "_rewardsToken",
          "type": "address"
        },
        {
          "internalType": "address",
          "name": "initialOwner",
          "type": "address"
        }
      ],
      "stateMutability": "nonpayable",
      "type": "constructor"
    },
    {
      "anonymous": false,
      "inputs": [
        {
          "indexed": false,
          "internalType": "bool",
          "name": "paused",
          "type": "bool"
        }
      ],
      "name": "CircuitBreakerToggled",
      "type": "event"
    },
    {
      "anonymous": false,
      "inputs": [
        {
          "indexed": false,
          "internalType": "uint256",
          "name": "newPeriod",
          "type": "uint256"
        }
      ],
      "name": "MinStakingPeriodUpdated",
      "type": "event"
    },
    {
      "anonymous": false,
      "inputs": [
        {
          "indexed": true,
          "internalType": "address",
          "name": "previousOwner",
          "type": "address"
        },
        {
          "indexed": true,
          "internalType": "address",
          "name": "newOwner",
          "type": "address"
        }
      ],
      "name": "OwnershipTransferred",
      "type": "event"
    },
    {
      "anonymous": false,
      "inputs": [
        {
          "indexed": true,
          "internalType": "address",
          "name": "user",
          "type": "address"
        },
        {
          "indexed": false,
          "internalType": "uint256",
          "name": "amount",
          "type": "uint256"
        }
      ],
      "name": "RewardExpired",
      "type": "event"
    },
    {
      "anonymous": false,
      "inputs": [
        {
          "indexed": true,
          "internalType": "address",
          "name": "user",
          "type": "address"
        },
        {
          "indexed": false,
          "internalType": "uint256",
          "name": "reward",
          "type": "uint256"
        }
      ],
      "name": "RewardPaid",
      "type": "event"
    },
    {
      "anonymous": false,
      "inputs": [
        {
          "indexed": false,
          "internalType": "uint256",
          "name": "oldRate",
          "type": "uint256"
        },
        {
          "indexed": false,
          "internalType": "uint256",
          "name": "newRate",
          "type": "uint256"
        },
        {
          "indexed": true,
          "internalType": "address",
          "name": "admin",
          "type": "address"
        }
      ],
      "name": "RewardRateUpdated",
      "type": "event"
    },
    {
      "anonymous": false,
      "inputs": [
        {
          "indexed": true,
          "internalType": "address",
          "name": "user",
          "type": "address"
        },
        {
          "indexed": false,
          "internalType": "uint256",
          "name": "amount",
          "type": "uint256"
        }
      ],
      "name": "Staked",
      "type": "event"
    },
    {
      "anonymous": false,
      "inputs": [
        {
          "indexed": true,
          "internalType": "address",
          "name": "token",
          "type": "address"
        },
        {
          "indexed": false,
          "internalType": "uint256",
          "name": "amount",
          "type": "uint256"
        },
        {
          "indexed": true,
          "internalType": "address",
          "name": "admin",
          "type": "address"
        }
      ],
      "name": "TokensRescued",
      "type": "event"
    },
    {
      "anonymous": false,
      "inputs": [
        {
          "indexed": true,
          "internalType": "address",
          "name": "user",
          "type": "address"
        },
        {
          "indexed": false,
          "internalType": "uint256",
          "name": "amount",
          "type": "uint256"
        }
      ],
      "name": "Withdrawn",
      "type": "event"
    },
    {
      "inputs": [],
      "name": "MAX_CLAIM_PERIOD",
      "outputs": [
        {
          "internalType": "uint256",
          "name": "",
          "type": "uint256"
        }
      ],
      "stateMutability": "view",
      "type": "function"
    },
    {
      "inputs": [],
      "name": "MAX_PERIODS_PROCESSED",
      "outputs": [
        {
          "internalType": "uint256",
          "name": "",
          "type": "uint256"
        }
      ],
      "stateMutability": "view",
      "type": "function"
    },
    {
      "inputs": [],
      "name": "MAX_REWARD_RATE",
      "outputs": [
        {
          "internalType": "uint256",
          "name": "",
          "type": "uint256"
        }
      ],
      "stateMutability": "view",
      "type": "function"
    },
    {
      "inputs": [],
      "name": "MIN_STAKING_PERIOD",
      "outputs": [
        {
          "internalType": "uint256",
          "name": "",
          "type": "uint256"
        }
      ],
      "stateMutability": "view",
      "type": "function"
    },
    {
      "inputs": [],
      "name": "RATE_CHANGE_COOLDOWN",
      "outputs": [
        {
          "internalType": "uint256",
          "name": "",
          "type": "uint256"
        }
      ],
      "stateMutability": "view",
      "type": "function"
    },
    {
      "inputs": [
        {
          "internalType": "address",
          "name": "account",
          "type": "address"
        }
      ],
      "name": "balanceOf",
      "outputs": [
        {
          "internalType": "uint256",
          "name": "",
          "type": "uint256"
        }
      ],
      "stateMutability": "view",
      "type": "function"
    },
    {
      "inputs": [],
      "name": "claimReward",
      "outputs": [],
      "stateMutability": "nonpayable",
      "type": "function"
    },
    {
      "inputs": [
        {
          "internalType": "address",
          "name": "account",
          "type": "address"
        }
      ],
      "name": "clearExpiredRewards",
      "outputs": [],
      "stateMutability": "nonpayable",
      "type": "function"
    },
    {
      "inputs": [
        {
          "internalType": "address",
          "name": "account",
          "type": "address"
        }
      ],
      "name": "earned",
      "outputs": [
        {
          "internalType": "uint256",
          "name": "",
          "type": "uint256"
        }
      ],
      "stateMutability": "view",
      "type": "function"
    },
    {
      "inputs": [],
      "name": "lastRateChange",
      "outputs": [
        {
          "internalType": "uint256",
          "name": "",
          "type": "uint256"
        }
      ],
      "stateMutability": "view",
      "type": "function"
    },
    {
      "inputs": [],
      "name": "lastUpdateTime",
      "outputs": [
        {
          "internalType": "uint256",
          "name": "",
          "type": "uint256"
        }
      ],
      "stateMutability": "view",
      "type": "function"
    },
    {
      "inputs": [],
      "name": "minStakingPeriod",
      "outputs": [
        {
          "internalType": "uint256",
          "name": "",
          "type": "uint256"
        }
      ],
      "stateMutability": "view",
      "type": "function"
    },
    {
      "inputs": [],
      "name": "owner",
      "outputs": [
        {
          "internalType": "address",
          "name": "",
          "type": "address"
        }
      ],
      "stateMutability": "view",
      "type": "function"
    },
    {
      "inputs": [],
      "name": "rateChangePaused",
      "outputs": [
        {
          "internalType": "bool",
          "name": "",
          "type": "bool"
        }
      ],
      "stateMutability": "view",
      "type": "function"
    },
    {
      "inputs": [],
      "name": "renounceOwnership",
      "outputs": [],
      "stateMutability": "nonpayable",
      "type": "function"
    },
    {
      "inputs": [
        {
          "internalType": "address",
          "name": "tokenAddress",
          "type": "address"
        },
        {
          "internalType": "uint256",
          "name": "amount",
          "type": "uint256"
        }
      ],
      "name": "rescueERC20",
      "outputs": [],
      "stateMutability": "nonpayable",
      "type": "function"
    },
    {
      "inputs": [
        {
          "internalType": "address",
          "name": "",
          "type": "address"
        }
      ],
      "name": "rewardExpirationTimestamps",
      "outputs": [
        {
          "internalType": "uint256",
          "name": "",
          "type": "uint256"
        }
      ],
      "stateMutability": "view",
      "type": "function"
    },
    {
      "inputs": [],
      "name": "rewardPerToken",
      "outputs": [
        {
          "internalType": "uint256",
          "name": "",
          "type": "uint256"
        }
      ],
      "stateMutability": "view",
      "type": "function"
    },
    {
      "inputs": [],
      "name": "rewardPerTokenStored",
      "outputs": [
        {
          "internalType": "uint256",
          "name": "",
          "type": "uint256"
        }
      ],
      "stateMutability": "view",
      "type": "function"
    },
    {
      "inputs": [
        {
          "internalType": "uint256",
          "name": "",
          "type": "uint256"
        }
      ],
      "name": "rewardPeriods",
      "outputs": [
        {
          "internalType": "uint256",
          "name": "rate",
          "type": "uint256"
        },
        {
          "internalType": "uint256",
          "name": "startTime",
          "type": "uint256"
        },
        {
          "internalType": "uint256",
          "name": "endTime",
          "type": "uint256"
        }
      ],
      "stateMutability": "view",
      "type": "function"
    },
    {
      "inputs": [
        {
          "internalType": "address",
          "name": "",
          "type": "address"
        }
      ],
      "name": "rewards",
      "outputs": [
        {
          "internalType": "uint256",
          "name": "",
          "type": "uint256"
        }
      ],
      "stateMutability": "view",
      "type": "function"
    },
    {
      "inputs": [],
      "name": "rewardsToken",
      "outputs": [
        {
          "internalType": "contract ERC20",
          "name": "",
          "type": "address"
        }
      ],
      "stateMutability": "view",
      "type": "function"
    },
    {
      "inputs": [],
      "name": "rewardsTokenUnit",
      "outputs": [
        {
          "internalType": "uint256",
          "name": "",
          "type": "uint256"
        }
      ],
      "stateMutability": "view",
      "type": "function"
    },
    {
      "inputs": [
        {
          "internalType": "uint256",
          "name": "period",
          "type": "uint256"
        }
      ],
      "name": "setMinStakingPeriod",
      "outputs": [],
      "stateMutability": "nonpayable",
      "type": "function"
    },
    {
      "inputs": [
        {
          "internalType": "uint256",
          "name": "_rewardRate",
          "type": "uint256"
        }
      ],
      "name": "setRewardRate",
      "outputs": [],
      "stateMutability": "nonpayable",
      "type": "function"
    },
    {
      "inputs": [
        {
          "internalType": "uint256",
          "name": "amount",
          "type": "uint256"
        }
      ],
      "name": "stake",
      "outputs": [],
      "stateMutability": "nonpayable",
      "type": "function"
    },
    {
      "inputs": [],
      "name": "stakingToken",
      "outputs": [
        {
          "internalType": "contract ERC20",
          "name": "",
          "type": "address"
        }
      ],
      "stateMutability": "view",
      "type": "function"
    },
    {
      "inputs": [],
      "name": "stakingTokenUnit",
      "outputs": [
        {
          "internalType": "uint256",
          "name": "",
          "type": "uint256"
        }
      ],
      "stateMutability": "view",
      "type": "function"
    },
    {
      "inputs": [
        {
          "internalType": "bool",
          "name": "paused",
          "type": "bool"
        }
      ],
      "name": "toggleRateChangePaused",
      "outputs": [],
      "stateMutability": "nonpayable",
      "type": "function"
    },
    {
      "inputs": [],
      "name": "totalSupply",
      "outputs": [
        {
          "internalType": "uint256",
          "name": "",
          "type": "uint256"
        }
      ],
      "stateMutability": "view",
      "type": "function"
    },
    {
      "inputs": [
        {
          "internalType": "address",
          "name": "newOwner",
          "type": "address"
        }
      ],
      "name": "transferOwnership",
      "outputs": [],
      "stateMutability": "nonpayable",
      "type": "function"
    },
    {
      "inputs": [
        {
          "internalType": "address",
          "name": "",
          "type": "address"
        }
      ],
      "name": "userRewardPerTokenPaid",
      "outputs": [
        {
          "internalType": "uint256",
          "name": "",
          "type": "uint256"
        }
      ],
      "stateMutability": "view",
      "type": "function"
    },
    {
      "inputs": [
        {
          "internalType": "uint256",
          "name": "amount",
          "type": "uint256"
        }
      ],
      "name": "withdraw",
      "outputs": [],
      "stateMutability": "nonpayable",
      "type": "function"
    }
  ],
  "bytecode": "0x61010060405262093a80600e553480156200001957600080fd5b5060405162003d1238038062003d1283398181016040528101906200003f9190620004ba565b6200005f620000536200038460201b60201c565b6200038c60201b60201c565b60018081905550600073ffffffffffffffffffffffffffffffffffffffff168373ffffffffffffffffffffffffffffffffffffffff1603620000d8576040517f08c379a0000000000000000000000000000000000000000000000000000000008152600401620000cf9062000577565b60405180910390fd5b600073ffffffffffffffffffffffffffffffffffffffff168273ffffffffffffffffffffffffffffffffffffffff16036200014a576040517f08c379a00000000000000000000000000000000000000000000000000000000081526004016200014190620005e9565b60405180910390fd5b8273ffffffffffffffffffffffffffffffffffffffff1660c08173ffffffffffffffffffffffffffffffffffffffff16815250508173ffffffffffffffffffffffffffffffffffffffff1660e08173ffffffffffffffffffffffffffffffffffffffff168152505060008060c05173ffffffffffffffffffffffffffffffffffffffff1663313ce5676040518163ffffffff1660e01b8152600401602060405180830381865afa9250505080156200022257506040513d601f19601f820116820180604052508101906200021f919062000649565b60015b6200023857670de0b6b3a764000091506200024e565b8060ff16600a6200024a919062000808565b9250505b60e05173ffffffffffffffffffffffffffffffffffffffff1663313ce5676040518163ffffffff1660e01b8152600401602060405180830381865afa925050508015620002bb57506040513d601f19601f82011682018060405250810190620002b8919062000649565b60015b620002d157670de0b6b3a76400009050620002e7565b8060ff16600a620002e3919062000808565b9150505b81608081815250508060a08181525050600073ffffffffffffffffffffffffffffffffffffffff168373ffffffffffffffffffffffffffffffffffffffff16141580156200036157503373ffffffffffffffffffffffffffffffffffffffff168373ffffffffffffffffffffffffffffffffffffffff1614155b15620003795762000378836200038c60201b60201c565b5b505050505062000859565b600033905090565b60008060009054906101000a900473ffffffffffffffffffffffffffffffffffffffff169050816000806101000a81548173ffffffffffffffffffffffffffffffffffffffff021916908373ffffffffffffffffffffffffffffffffffffffff1602179055508173ffffffffffffffffffffffffffffffffffffffff168173ffffffffffffffffffffffffffffffffffffffff167f8be0079c531659141344cd1fd0a4f28419497f9722a3daafe3b4186f6b6457e060405160405180910390a35050565b600080fd5b600073ffffffffffffffffffffffffffffffffffffffff82169050919050565b6000620004828262000455565b9050919050565b620004948162000475565b8114620004a057600080fd5b50565b600081519050620004b48162000489565b92915050565b600080600060608486031215620004d657620004d562000450565b5b6000620004e686828701620004a3565b9350506020620004f986828701620004a3565b92505060406200050c86828701620004a3565b9150509250925092565b600082825260208201905092915050565b7f496e76616c6964207374616b696e6720746f6b656e2061646472657373000000600082015250565b60006200055f601d8362000516565b91506200056c8262000527565b602082019050919050565b60006020820190508181036000830152620005928162000550565b9050919050565b7f496e76616c6964207265776172647320746f6b656e2061646472657373000000600082015250565b6000620005d1601d8362000516565b9150620005de8262000599565b602082019050919050565b600060208201905081810360008301526200060481620005c2565b9050919050565b600060ff82169050919050565b62000623816200060b565b81146200062f57600080fd5b50565b600081519050620006438162000618565b92915050565b60006020828403121562000662576200066162000450565b5b6000620006728482850162000632565b91505092915050565b7f4e487b7100000000000000000000000000000000000000000000000000000000600052601160045260246000fd5b60008160011c9050919050565b6000808291508390505b60018511156200070957808604811115620006e157620006e06200067b565b5b6001851615620006f15780820291505b80810290506200070185620006aa565b9450620006c1565b94509492505050565b600082620007245760019050620007f7565b81620007345760009050620007f7565b81600181146200074d576002811462000758576200078e565b6001915050620007f7565b60ff8411156200076d576200076c6200067b565b5b8360020a9150848211156200078757620007866200067b565b5b50620007f7565b5060208310610133831016604e8410600b8410161715620007c85782820a905083811115620007c257620007c16200067b565b5b620007f7565b620007d78484846001620006b7565b92509050818404811115620007f157620007f06200067b565b5b81810290505b9392505050565b6000819050919050565b60006200081582620007fe565b91506200082283620007fe565b9250620008517fffffffffffffffffffffffffffffffffffffffffffffffffffffffffffffffff848462000712565b905092915050565b60805160a05160c05160e051613432620008e060003960008181610fdf015281816117e801528181611f45015281816120200152612332015260008181610ad001528181610e2e01528181610f51015281816118c4015281816119600152611a4101526000818161215901526122900152600081816106570152610c2801526134326000f3fe608060405234801561001057600080fd5b50600436106101fa5760003560e01c806388ee6a431161011a578063be0eac0c116100ad578063cd3daf9d1161007c578063cd3daf9d1461057f578063d1af0c7d1461059d578063da71ae79146105bb578063df136d65146105d9578063f2fde38b146105f7576101fa565b8063be0eac0c14610507578063c743dabb14610525578063c8f33c9114610543578063c9d3d16d14610561576101fa565b80638da5cb5b116100e95780638da5cb5b146104a75780639e447fc6146104c5578063a694fc3a146104e1578063b88a802f146104fd576101fa565b806388ee6a43146104235780638b230df21461043f5780638b8763471461045b5780638cd4426d1461048b576101fa565b806353809b5711610192578063715018a611610161578063715018a6146103ab578063718dc3c3146103b557806372f702f3146103d35780638252097d146103f1576101fa565b806353809b5714610323578063539f1f341461033f5780636eaa7ba21461035d57806370a082311461037b576101fa565b80632e1a7d4d116101ce5780632e1a7d4d1461029b57806330568c8c146102b757806342364b4f146102d557806348e0dc1214610305576101fa565b80628cc262146101ff578063069c34f61461022f5780630700037d1461024d57806318160ddd1461027d575b600080fd5b610219600480360381019061021491906125e8565b610613565b604051610226919061262e565b60405180910390f35b61023761072d565b604051610244919061262e565b60405180910390f35b610267600480360381019061026291906125e8565b610733565b604051610274919061262e565b60405180910390f35b61028561074b565b604051610292919061262e565b60405180910390f35b6102b560048036038101906102b09190612675565b610755565b005b6102bf610c07565b6040516102cc919061262e565b60405180910390f35b6102ef60048036038101906102ea91906125e8565b610c0e565b6040516102fc919061262e565b60405180910390f35b61030d610c26565b60405161031a919061262e565b60405180910390f35b61033d600480360381019061033891906125e8565b610c4a565b005b610347610db6565b604051610354919061262e565b60405180910390f35b610365610dbb565b604051610372919061262e565b60405180910390f35b610395600480360381019061039091906125e8565b610dc2565b6040516103a2919061262e565b60405180910390f35b6103b3610e0b565b005b6103bd610e1f565b6040516103ca919061262e565b60405180910390f35b6103db610e2c565b6040516103e89190612701565b60405180910390f35b61040b60048036038101906104069190612675565b610e50565b60405161041a9392919061271c565b60405180910390f35b61043d60048036038101906104389190612675565b610e8a565b005b6104596004803603810190610454919061278b565b610ed3565b005b610475600480360381019061047091906125e8565b610f2f565b604051610482919061262e565b60405180910390f35b6104a560048036038101906104a091906127b8565b610f47565b005b6104af61119f565b6040516104bc9190612807565b60405180910390f35b6104df60048036038101906104da9190612675565b6111c8565b005b6104fb60048036038101906104f69190612675565b6115e4565b005b610505611c71565b005b61050f612157565b60405161051c919061262e565b60405180910390f35b61052d61217b565b60405161053a919061262e565b60405180910390f35b61054b612182565b604051610558919061262e565b60405180910390f35b610569612188565b6040516105769190612831565b60405180910390f35b61058761219b565b604051610594919061262e565b60405180910390f35b6105a5612330565b6040516105b29190612701565b60405180910390f35b6105c3612354565b6040516105d0919061262e565b60405180910390f35b6105e161235a565b6040516105ee919061262e565b60405180910390f35b610611600480360381019061060c91906125e8565b612360565b005b6000600660008373ffffffffffffffffffffffffffffffffffffffff1673ffffffffffffffffffffffffffffffffffffffff168152602001908152602001600020547f0000000000000000000000000000000000000000000000000000000000000000600560008573ffffffffffffffffffffffffffffffffffffffff1673ffffffffffffffffffffffffffffffffffffffff168152602001908152602001600020546106be61219b565b6106c8919061287b565b600d60008673ffffffffffffffffffffffffffffffffffffffff1673ffffffffffffffffffffffffffffffffffffffff1681526020019081526020016000205461071291906128af565b61071c9190612920565b6107269190612951565b9050919050565b600e5481565b60066020528060005260406000206000915090505481565b6000600a54905090565b61075d6123e3565b33600061076861219b565b90508060038190555042600481905550600073ffffffffffffffffffffffffffffffffffffffff168273ffffffffffffffffffffffffffffffffffffffff1614610912576107b582610613565b600660008473ffffffffffffffffffffffffffffffffffffffff1673ffffffffffffffffffffffffffffffffffffffff1681526020019081526020016000208190555080600560008473ffffffffffffffffffffffffffffffffffffffff1673ffffffffffffffffffffffffffffffffffffffff16815260200190815260200160002081905550600b60008373ffffffffffffffffffffffffffffffffffffffff1673ffffffffffffffffffffffffffffffffffffffff16815260200190815260200160002054600d60008473ffffffffffffffffffffffffffffffffffffffff1673ffffffffffffffffffffffffffffffffffffffff1681526020019081526020016000208190555062278d00426108ce9190612951565b600760008473ffffffffffffffffffffffffffffffffffffffff1673ffffffffffffffffffffffffffffffffffffffff168152602001908152602001600020819055505b600e54600c60003373ffffffffffffffffffffffffffffffffffffffff1673ffffffffffffffffffffffffffffffffffffffff1681526020019081526020016000205461095f9190612951565b4210156109a1576040517f08c379a0000000000000000000000000000000000000000000000000000000008152600401610998906129e2565b60405180910390fd5b600083116109e4576040517f08c379a00000000000000000000000000000000000000000000000000000000081526004016109db90612a4e565b60405180910390fd5b6000600b60003373ffffffffffffffffffffffffffffffffffffffff1673ffffffffffffffffffffffffffffffffffffffff16815260200190815260200160002054905083811015610a6b576040517f08c379a0000000000000000000000000000000000000000000000000000000008152600401610a6290612aba565b60405180910390fd5b8381610a77919061287b565b600b60003373ffffffffffffffffffffffffffffffffffffffff1673ffffffffffffffffffffffffffffffffffffffff1681526020019081526020016000208190555083600a54610ac8919061287b565b600a819055507f000000000000000000000000000000000000000000000000000000000000000073ffffffffffffffffffffffffffffffffffffffff1663a9059cbb33866040518363ffffffff1660e01b8152600401610b29929190612ada565b6020604051808303816000875af1158015610b48573d6000803e3d6000fd5b505050506040513d601f19601f82011682018060405250810190610b6c9190612b18565b610bab576040517f08c379a0000000000000000000000000000000000000000000000000000000008152600401610ba290612b91565b60405180910390fd5b3373ffffffffffffffffffffffffffffffffffffffff167f7084f5476618d8e60b11ef0d7d3f06914655adb8793e28ff7f018d4c76d505d585604051610bf1919061262e565b60405180910390a2505050610c04612432565b50565b62278d0081565b60076020528060005260406000206000915090505481565b7f000000000000000000000000000000000000000000000000000000000000000081565b610c526123e3565b600760008273ffffffffffffffffffffffffffffffffffffffff1673ffffffffffffffffffffffffffffffffffffffff168152602001908152602001600020544211610cd3576040517f08c379a0000000000000000000000000000000000000000000000000000000008152600401610cca90612bfd565b60405180910390fd5b6000600660008373ffffffffffffffffffffffffffffffffffffffff1673ffffffffffffffffffffffffffffffffffffffff1681526020019081526020016000205490506000600660008473ffffffffffffffffffffffffffffffffffffffff1673ffffffffffffffffffffffffffffffffffffffff168152602001908152602001600020819055508173ffffffffffffffffffffffffffffffffffffffff167f6424bfe05f4bf0bb8ed07ffc754f2c4ed6ca4ef02134180b34899ab61d998e0282604051610da2919061262e565b60405180910390a250610db3612432565b50565b606481565b6201518081565b6000600b60008373ffffffffffffffffffffffffffffffffffffffff1673ffffffffffffffffffffffffffffffffffffffff168152602001908152602001600020549050919050565b610e1361243b565b610e1d60006124b9565b565b68056bc75e2d6310000081565b7f000000000000000000000000000000000000000000000000000000000000000081565b60028181548110610e6057600080fd5b90600052602060002090600302016000915090508060000154908060010154908060020154905083565b610e9261243b565b80600e819055507f8114637a99d6dbde6e7e5125969a8ecbe5d143eedc597560c9c79a8cb9a6b5d081604051610ec8919061262e565b60405180910390a150565b610edb61243b565b80600960006101000a81548160ff0219169083151502179055507fd54e260c48d23339d5c29a5c474aecd018822c155cb3624f2012203665da42b581604051610f249190612831565b60405180910390a150565b60056020528060005260406000206000915090505481565b610f4f61243b565b7f000000000000000000000000000000000000000000000000000000000000000073ffffffffffffffffffffffffffffffffffffffff168273ffffffffffffffffffffffffffffffffffffffff1603610fdd576040517f08c379a0000000000000000000000000000000000000000000000000000000008152600401610fd490612c69565b60405180910390fd5b7f000000000000000000000000000000000000000000000000000000000000000073ffffffffffffffffffffffffffffffffffffffff168273ffffffffffffffffffffffffffffffffffffffff160361106b576040517f08c379a000000000000000000000000000000000000000000000000000000000815260040161106290612cd5565b60405180910390fd5b8173ffffffffffffffffffffffffffffffffffffffff1663a9059cbb61108f61119f565b836040518363ffffffff1660e01b81526004016110ad929190612ada565b6020604051808303816000875af11580156110cc573d6000803e3d6000fd5b505050506040513d601f19601f820116820180604052508101906110f09190612b18565b61112f576040517f08c379a000000000000000000000000000000000000000000000000000000000815260040161112690612d41565b60405180910390fd5b61113761119f565b73ffffffffffffffffffffffffffffffffffffffff168273ffffffffffffffffffffffffffffffffffffffff167ffb475a842bad10d3800b61bd1a92e716051afba979b124b583bd99a2d1d7bfd583604051611193919061262e565b60405180910390a35050565b60008060009054906101000a900473ffffffffffffffffffffffffffffffffffffffff16905090565b6111d061243b565b6000806111db61219b565b90508060038190555042600481905550600073ffffffffffffffffffffffffffffffffffffffff168273ffffffffffffffffffffffffffffffffffffffff16146113855761122882610613565b600660008473ffffffffffffffffffffffffffffffffffffffff1673ffffffffffffffffffffffffffffffffffffffff1681526020019081526020016000208190555080600560008473ffffffffffffffffffffffffffffffffffffffff1673ffffffffffffffffffffffffffffffffffffffff16815260200190815260200160002081905550600b60008373ffffffffffffffffffffffffffffffffffffffff1673ffffffffffffffffffffffffffffffffffffffff16815260200190815260200160002054600d60008473ffffffffffffffffffffffffffffffffffffffff1673ffffffffffffffffffffffffffffffffffffffff1681526020019081526020016000208190555062278d00426113419190612951565b600760008473ffffffffffffffffffffffffffffffffffffffff1673ffffffffffffffffffffffffffffffffffffffff168152602001908152602001600020819055505b600960009054906101000a900460ff16156113d5576040517f08c379a00000000000000000000000000000000000000000000000000000000081526004016113cc90612dd3565b60405180910390fd5b68056bc75e2d63100000831115611421576040517f08c379a000000000000000000000000000000000000000000000000000000000815260040161141890612e3f565b60405180910390fd5b620151806008546114329190612951565b421015611474576040517f08c379a000000000000000000000000000000000000000000000000000000000815260040161146b90612eab565b60405180910390fd5b600080600280549050116114895760006114c1565b6002600160028054905061149d919061287b565b815481106114ae576114ad612ecb565b5b9060005260206000209060030201600001545b905060006002805490501115611513576000600260016002805490506114e7919061287b565b815481106114f8576114f7612ecb565b5b90600052602060002090600302019050428160020181905550505b60006040518060600160405280868152602001428152602001600081525090506002819080600181540180825580915050600190039060005260206000209060030201600090919091909150600082015181600001556020820151816001015560408201518160020155505042600481905550426008819055503373ffffffffffffffffffffffffffffffffffffffff167f32191e98bcd46ebeb00f4196390aa79d479294b3b08655329c4d2647030b77da83876040516115d5929190612efa565b60405180910390a25050505050565b6115ec6123e3565b3360006115f761219b565b90508060038190555042600481905550600073ffffffffffffffffffffffffffffffffffffffff168273ffffffffffffffffffffffffffffffffffffffff16146117a15761164482610613565b600660008473ffffffffffffffffffffffffffffffffffffffff1673ffffffffffffffffffffffffffffffffffffffff1681526020019081526020016000208190555080600560008473ffffffffffffffffffffffffffffffffffffffff1673ffffffffffffffffffffffffffffffffffffffff16815260200190815260200160002081905550600b60008373ffffffffffffffffffffffffffffffffffffffff1673ffffffffffffffffffffffffffffffffffffffff16815260200190815260200160002054600d60008473ffffffffffffffffffffffffffffffffffffffff1673ffffffffffffffffffffffffffffffffffffffff1681526020019081526020016000208190555062278d004261175d9190612951565b600760008473ffffffffffffffffffffffffffffffffffffffff1673ffffffffffffffffffffffffffffffffffffffff168152602001908152602001600020819055505b600083116117e4576040517f08c379a00000000000000000000000000000000000000000000000000000000081526004016117db90612f6f565b60405180910390fd5b60007f000000000000000000000000000000000000000000000000000000000000000073ffffffffffffffffffffffffffffffffffffffff166370a08231306040518263ffffffff1660e01b815260040161183f9190612807565b602060405180830381865afa15801561185c573d6000803e3d6000fd5b505050506040513d601f19601f820116820180604052508101906118809190612fa4565b116118c0576040517f08c379a00000000000000000000000000000000000000000000000000000000081526004016118b79061301d565b60405180910390fd5b60007f000000000000000000000000000000000000000000000000000000000000000073ffffffffffffffffffffffffffffffffffffffff166370a08231306040518263ffffffff1660e01b815260040161191b9190612807565b602060405180830381865afa158015611938573d6000803e3d6000fd5b505050506040513d601f19601f8201168201806040525081019061195c9190612fa4565b90507f000000000000000000000000000000000000000000000000000000000000000073ffffffffffffffffffffffffffffffffffffffff166323b872dd3330876040518463ffffffff1660e01b81526004016119bb9392919061303d565b6020604051808303816000875af11580156119da573d6000803e3d6000fd5b505050506040513d601f19601f820116820180604052508101906119fe9190612b18565b611a3d576040517f08c379a0000000000000000000000000000000000000000000000000000000008152600401611a3490612b91565b60405180910390fd5b60007f000000000000000000000000000000000000000000000000000000000000000073ffffffffffffffffffffffffffffffffffffffff166370a08231306040518263ffffffff1660e01b8152600401611a989190612807565b602060405180830381865afa158015611ab5573d6000803e3d6000fd5b505050506040513d601f19601f82011682018060405250810190611ad99190612fa4565b905060008282611ae9919061287b565b9050858114611b2d576040517f08c379a0000000000000000000000000000000000000000000000000000000008152600401611b24906130c0565b60405180910390fd5b80600a54611b3b9190612951565b600a8190555080600b60003373ffffffffffffffffffffffffffffffffffffffff1673ffffffffffffffffffffffffffffffffffffffff16815260200190815260200160002054611b8c9190612951565b600b60003373ffffffffffffffffffffffffffffffffffffffff1673ffffffffffffffffffffffffffffffffffffffff1681526020019081526020016000208190555042600c60003373ffffffffffffffffffffffffffffffffffffffff1673ffffffffffffffffffffffffffffffffffffffff168152602001908152602001600020819055503373ffffffffffffffffffffffffffffffffffffffff167f9e71bc8eea02a63969f509818f2dafb9254532904319f9dbda79b67bd34a5f3d82604051611c59919061262e565b60405180910390a25050505050611c6e612432565b50565b611c796123e3565b336000611c8461219b565b90508060038190555042600481905550600073ffffffffffffffffffffffffffffffffffffffff168273ffffffffffffffffffffffffffffffffffffffff1614611e2e57611cd182610613565b600660008473ffffffffffffffffffffffffffffffffffffffff1673ffffffffffffffffffffffffffffffffffffffff1681526020019081526020016000208190555080600560008473ffffffffffffffffffffffffffffffffffffffff1673ffffffffffffffffffffffffffffffffffffffff16815260200190815260200160002081905550600b60008373ffffffffffffffffffffffffffffffffffffffff1673ffffffffffffffffffffffffffffffffffffffff16815260200190815260200160002054600d60008473ffffffffffffffffffffffffffffffffffffffff1673ffffffffffffffffffffffffffffffffffffffff1681526020019081526020016000208190555062278d0042611dea9190612951565b600760008473ffffffffffffffffffffffffffffffffffffffff1673ffffffffffffffffffffffffffffffffffffffff168152602001908152602001600020819055505b600760003373ffffffffffffffffffffffffffffffffffffffff1673ffffffffffffffffffffffffffffffffffffffff16815260200190815260200160002054421115611eb0576040517f08c379a0000000000000000000000000000000000000000000000000000000008152600401611ea79061312c565b60405180910390fd5b6000600660003373ffffffffffffffffffffffffffffffffffffffff1673ffffffffffffffffffffffffffffffffffffffff168152602001908152602001600020549050600081111561214a576000600660003373ffffffffffffffffffffffffffffffffffffffff1673ffffffffffffffffffffffffffffffffffffffff16815260200190815260200160002081905550807f000000000000000000000000000000000000000000000000000000000000000073ffffffffffffffffffffffffffffffffffffffff166370a08231306040518263ffffffff1660e01b8152600401611f9c9190612807565b602060405180830381865afa158015611fb9573d6000803e3d6000fd5b505050506040513d601f19601f82011682018060405250810190611fdd9190612fa4565b101561201e576040517f08c379a0000000000000000000000000000000000000000000000000000000008152600401612015906131be565b60405180910390fd5b7f000000000000000000000000000000000000000000000000000000000000000073ffffffffffffffffffffffffffffffffffffffff1663a9059cbb33836040518363ffffffff1660e01b8152600401612079929190612ada565b6020604051808303816000875af1158015612098573d6000803e3d6000fd5b505050506040513d601f19601f820116820180604052508101906120bc9190612b18565b6120fb576040517f08c379a00000000000000000000000000000000000000000000000000000000081526004016120f29061322a565b60405180910390fd5b3373ffffffffffffffffffffffffffffffffffffffff167fe2403640ba68fed3a2f88b7557551d1993f84b99bb10ff833f0cf8db0c5e048682604051612141919061262e565b60405180910390a25b505050612155612432565b565b7f000000000000000000000000000000000000000000000000000000000000000081565b62093a8081565b60045481565b600960009054906101000a900460ff1681565b600080600a5414806121af57506000600454145b156121be57600354905061232d565b60008060028054905090506000805b82811015612318576000600282815481106121eb576121ea612ecb565b5b906000526020600020906003020160405180606001604052908160008201548152602001600182015481526020016002820154815250509050600081604001519050600082602001519050600454821115612302576000600454821161225357600454612255565b815b905060004284106122665742612268565b835b9050818111156122ff5760008282612280919061287b565b9050600086600001519050600a547f000000000000000000000000000000000000000000000000000000000000000083836122bb91906128af565b6122c591906128af565b6122cf9190612920565b8b6122da9190612951565b9a506064896122e89061324a565b995089106122fc5750505050505050612318565b50505b50505b50505080806123109061324a565b9150506121cd565b50826003546123279190612951565b93505050505b90565b7f000000000000000000000000000000000000000000000000000000000000000081565b60085481565b60035481565b61236861243b565b600073ffffffffffffffffffffffffffffffffffffffff168173ffffffffffffffffffffffffffffffffffffffff16036123d7576040517f08c379a00000000000000000000000000000000000000000000000000000000081526004016123ce90613304565b60405180910390fd5b6123e0816124b9565b50565b600260015403612428576040517f08c379a000000000000000000000000000000000000000000000000000000000815260040161241f90613370565b60405180910390fd5b6002600181905550565b60018081905550565b61244361257d565b73ffffffffffffffffffffffffffffffffffffffff1661246161119f565b73ffffffffffffffffffffffffffffffffffffffff16146124b7576040517f08c379a00000000000000000000000000000000000000000000000000000000081526004016124ae906133dc565b60405180910390fd5b565b60008060009054906101000a900473ffffffffffffffffffffffffffffffffffffffff169050816000806101000a81548173ffffffffffffffffffffffffffffffffffffffff021916908373ffffffffffffffffffffffffffffffffffffffff1602179055508173ffffffffffffffffffffffffffffffffffffffff168173ffffffffffffffffffffffffffffffffffffffff167f8be0079c531659141344cd1fd0a4f28419497f9722a3daafe3b4186f6b6457e060405160405180910390a35050565b600033905090565b600080fd5b600073ffffffffffffffffffffffffffffffffffffffff82169050919050565b60006125b58261258a565b9050919050565b6125c5816125aa565b81146125d057600080fd5b50565b6000813590506125e2816125bc565b92915050565b6000602082840312156125fe576125fd612585565b5b600061260c848285016125d3565b91505092915050565b6000819050919050565b61262881612615565b82525050565b6000602082019050612643600083018461261f565b92915050565b61265281612615565b811461265d57600080fd5b50565b60008135905061266f81612649565b92915050565b60006020828403121561268b5761268a612585565b5b600061269984828501612660565b91505092915050565b6000819050919050565b60006126c76126c26126bd8461258a565b6126a2565b61258a565b9050919050565b60006126d9826126ac565b9050919050565b60006126eb826126ce565b9050919050565b6126fb816126e0565b82525050565b600060208201905061271660008301846126f2565b92915050565b6000606082019050612731600083018661261f565b61273e602083018561261f565b61274b604083018461261f565b949350505050565b60008115159050919050565b61276881612753565b811461277357600080fd5b50565b6000813590506127858161275f565b92915050565b6000602082840312156127a1576127a0612585565b5b60006127af84828501612776565b91505092915050565b600080604083850312156127cf576127ce612585565b5b60006127dd858286016125d3565b92505060206127ee85828601612660565b9150509250929050565b612801816125aa565b82525050565b600060208201905061281c60008301846127f8565b92915050565b61282b81612753565b82525050565b60006020820190506128466000830184612822565b92915050565b7f4e487b7100000000000000000000000000000000000000000000000000000000600052601160045260246000fd5b600061288682612615565b915061289183612615565b92508282039050818111156128a9576128a861284c565b5b92915050565b60006128ba82612615565b91506128c583612615565b92508282026128d381612615565b915082820484148315176128ea576128e961284c565b5b5092915050565b7f4e487b7100000000000000000000000000000000000000000000000000000000600052601260045260246000fd5b600061292b82612615565b915061293683612615565b925082612946576129456128f1565b5b828204905092915050565b600061295c82612615565b915061296783612615565b925082820190508082111561297f5761297e61284c565b5b92915050565b600082825260208201905092915050565b7f4d696e696d756d207374616b696e6720706572696f64206e6f74206d65740000600082015250565b60006129cc601e83612985565b91506129d782612996565b602082019050919050565b600060208201905081810360008301526129fb816129bf565b9050919050565b7f43616e6e6f742077697468647261772030000000000000000000000000000000600082015250565b6000612a38601183612985565b9150612a4382612a02565b602082019050919050565b60006020820190508181036000830152612a6781612a2b565b9050919050565b7f496e73756666696369656e74207374616b65642062616c616e63650000000000600082015250565b6000612aa4601b83612985565b9150612aaf82612a6e565b602082019050919050565b60006020820190508181036000830152612ad381612a97565b9050919050565b6000604082019050612aef60008301856127f8565b612afc602083018461261f565b9392505050565b600081519050612b128161275f565b92915050565b600060208284031215612b2e57612b2d612585565b5b6000612b3c84828501612b03565b91505092915050565b7f546f6b656e207472616e73666572206661696c65640000000000000000000000600082015250565b6000612b7b601583612985565b9150612b8682612b45565b602082019050919050565b60006020820190508181036000830152612baa81612b6e565b9050919050565b7f526577617264206e6f7420657870697265640000000000000000000000000000600082015250565b6000612be7601283612985565b9150612bf282612bb1565b602082019050919050565b60006020820190508181036000830152612c1681612bda565b9050919050565b7f43616e6e6f74207769746864726177207374616b696e6720746f6b656e000000600082015250565b6000612c53601d83612985565b9150612c5e82612c1d565b602082019050919050565b60006020820190508181036000830152612c8281612c46565b9050919050565b7f43616e6e6f74207769746864726177207265776172647320746f6b656e000000600082015250565b6000612cbf601d83612985565b9150612cca82612c89565b602082019050919050565b60006020820190508181036000830152612cee81612cb2565b9050919050565b7f546f6b656e20726573637565207472616e73666572206661696c656400000000600082015250565b6000612d2b601c83612985565b9150612d3682612cf5565b602082019050919050565b60006020820190508181036000830152612d5a81612d1e565b9050919050565b7f4369726375697420627265616b6572206163746976653a20726174652063686160008201527f6e67657320706175736564000000000000000000000000000000000000000000602082015250565b6000612dbd602b83612985565b9150612dc882612d61565b604082019050919050565b60006020820190508181036000830152612dec81612db0565b9050919050565b7f52657761726420726174652065786365656473206d6178696d756d0000000000600082015250565b6000612e29601b83612985565b9150612e3482612df3565b602082019050919050565b60006020820190508181036000830152612e5881612e1c565b9050919050565b7f52617465206368616e676520636f6f6c646f776e206163746976650000000000600082015250565b6000612e95601b83612985565b9150612ea082612e5f565b602082019050919050565b60006020820190508181036000830152612ec481612e88565b9050919050565b7f4e487b7100000000000000000000000000000000000000000000000000000000600052603260045260246000fd5b6000604082019050612f0f600083018561261f565b612f1c602083018461261f565b9392505050565b7f43616e6e6f74207374616b652030000000000000000000000000000000000000600082015250565b6000612f59600e83612985565b9150612f6482612f23565b602082019050919050565b60006020820190508181036000830152612f8881612f4c565b9050919050565b600081519050612f9e81612649565b92915050565b600060208284031215612fba57612fb9612585565b5b6000612fc884828501612f8f565b91505092915050565b7f5265776172647320706f6f6c20697320656d7074790000000000000000000000600082015250565b6000613007601583612985565b915061301282612fd1565b602082019050919050565b6000602082019050818103600083015261303681612ffa565b9050919050565b600060608201905061305260008301866127f8565b61305f60208301856127f8565b61306c604083018461261f565b949350505050565b7f496e636f727265637420616d6f756e7420726563656976656400000000000000600082015250565b60006130aa601983612985565b91506130b582613074565b602082019050919050565b600060208201905081810360008301526130d98161309d565b9050919050565b7f52657761726420636c61696d20706572696f6420657870697265640000000000600082015250565b6000613116601b83612985565b9150613121826130e0565b602082019050919050565b6000602082019050818103600083015261314581613109565b9050919050565b7f496e73756666696369656e742072657761726420746f6b656e2062616c616e6360008201527f6500000000000000000000000000000000000000000000000000000000000000602082015250565b60006131a8602183612985565b91506131b38261314c565b604082019050919050565b600060208201905081810360008301526131d78161319b565b9050919050565b7f526577617264207472616e73666572206661696c656400000000000000000000600082015250565b6000613214601683612985565b915061321f826131de565b602082019050919050565b6000602082019050818103600083015261324381613207565b9050919050565b600061325582612615565b91507fffffffffffffffffffffffffffffffffffffffffffffffffffffffffffffffff82036132875761328661284c565b5b600182019050919050565b7f4f776e61626c653a206e6577206f776e657220697320746865207a65726f206160008201527f6464726573730000000000000000000000000000000000000000000000000000602082015250565b60006132ee602683612985565b91506132f982613292565b604082019050919050565b6000602082019050818103600083015261331d816132e1565b9050919050565b7f5265656e7472616e637947756172643a207265656e7472616e742063616c6c00600082015250565b600061335a601f83612985565b915061336582613324565b602082019050919050565b600060208201905081810360008301526133898161334d565b9050919050565b7f4f776e61626c653a2063616c6c6572206973206e6f7420746865206f776e6572600082015250565b60006133c6602083612985565b91506133d182613390565b602082019050919050565b600060208201905081810360008301526133f5816133b9565b905091905056fea26469706673582212206e657fe81479d3c267840ff7fc502fdc3b0d8065cfd9fb15642010039f56e40d64736f6c63430008140033",
  "linkReferences": {},
  "deployedLinkReferences": {}
}