{
  "_format": "hh-sol-artifact-1",
  "contractName": "BaseRewards",
  "sourceName": "contracts/rewards/BaseRewards.sol",
  "abi": [
    {
      "inputs": [
        {
          "internalType": "address",
          "name": "_stakingToken",
          "type": "address"
        },
        {
          "internalType": "address",
          "name": "_rewardsToken",
          "type": "address"
        },
        {
          "internalType": "address",
          "name": "initialOwner",
          "type": "address"
        }
      ],
      "stateMutability": "nonpayable",
      "type": "constructor"
    },
    {
      "anonymous": false,
      "inputs": [
        {
          "indexed": false,
          "internalType": "uint256",
          "name": "newPeriod",
          "type": "uint256"
        }
      ],
      "name": "MinStakingPeriodUpdated",
      "type": "event"
    },
    {
      "anonymous": false,
      "inputs": [
        {
          "indexed": true,
          "internalType": "address",
          "name": "previousOwner",
          "type": "address"
        },
        {
          "indexed": true,
          "internalType": "address",
          "name": "newOwner",
          "type": "address"
        }
      ],
      "name": "OwnershipTransferred",
      "type": "event"
    },
    {
      "anonymous": false,
      "inputs": [
        {
          "indexed": true,
          "internalType": "address",
          "name": "user",
          "type": "address"
        },
        {
          "indexed": false,
          "internalType": "uint256",
          "name": "amount",
          "type": "uint256"
        }
      ],
      "name": "RewardExpired",
      "type": "event"
    },
    {
      "anonymous": false,
      "inputs": [
        {
          "indexed": true,
          "internalType": "address",
          "name": "user",
          "type": "address"
        },
        {
          "indexed": false,
          "internalType": "uint256",
          "name": "reward",
          "type": "uint256"
        }
      ],
      "name": "RewardPaid",
      "type": "event"
    },
    {
      "anonymous": false,
      "inputs": [
        {
          "indexed": false,
          "internalType": "uint256",
          "name": "oldRate",
          "type": "uint256"
        },
        {
          "indexed": false,
          "internalType": "uint256",
          "name": "newRate",
          "type": "uint256"
        },
        {
          "indexed": true,
          "internalType": "address",
          "name": "admin",
          "type": "address"
        }
      ],
      "name": "RewardRateUpdated",
      "type": "event"
    },
    {
      "anonymous": false,
      "inputs": [
        {
          "indexed": true,
          "internalType": "address",
          "name": "user",
          "type": "address"
        },
        {
          "indexed": false,
          "internalType": "uint256",
          "name": "amount",
          "type": "uint256"
        }
      ],
      "name": "Staked",
      "type": "event"
    },
    {
      "anonymous": false,
      "inputs": [
        {
          "indexed": true,
          "internalType": "address",
          "name": "token",
          "type": "address"
        },
        {
          "indexed": false,
          "internalType": "uint256",
          "name": "amount",
          "type": "uint256"
        },
        {
          "indexed": true,
          "internalType": "address",
          "name": "admin",
          "type": "address"
        }
      ],
      "name": "TokensRescued",
      "type": "event"
    },
    {
      "anonymous": false,
      "inputs": [
        {
          "indexed": true,
          "internalType": "address",
          "name": "user",
          "type": "address"
        },
        {
          "indexed": false,
          "internalType": "uint256",
          "name": "amount",
          "type": "uint256"
        }
      ],
      "name": "Withdrawn",
      "type": "event"
    },
    {
      "inputs": [],
      "name": "BASIS_POINTS",
      "outputs": [
        {
          "internalType": "uint256",
          "name": "",
          "type": "uint256"
        }
      ],
      "stateMutability": "view",
      "type": "function"
    },
    {
      "inputs": [],
      "name": "MAX_CLAIM_PERIOD",
      "outputs": [
        {
          "internalType": "uint256",
          "name": "",
          "type": "uint256"
        }
      ],
      "stateMutability": "view",
      "type": "function"
    },
    {
      "inputs": [],
      "name": "MAX_PERIODS_PROCESSED",
      "outputs": [
        {
          "internalType": "uint256",
          "name": "",
          "type": "uint256"
        }
      ],
      "stateMutability": "view",
      "type": "function"
    },
    {
      "inputs": [],
      "name": "MAX_REWARD_AMOUNT",
      "outputs": [
        {
          "internalType": "uint256",
          "name": "",
          "type": "uint256"
        }
      ],
      "stateMutability": "view",
      "type": "function"
    },
    {
      "inputs": [],
      "name": "MAX_REWARD_RATE",
      "outputs": [
        {
          "internalType": "uint256",
          "name": "",
          "type": "uint256"
        }
      ],
      "stateMutability": "view",
      "type": "function"
    },
    {
      "inputs": [],
      "name": "MAX_STAKING_DAYS",
      "outputs": [
        {
          "internalType": "uint256",
          "name": "",
          "type": "uint256"
        }
      ],
      "stateMutability": "view",
      "type": "function"
    },
    {
      "inputs": [],
      "name": "MIN_STAKING_PERIOD",
      "outputs": [
        {
          "internalType": "uint256",
          "name": "",
          "type": "uint256"
        }
      ],
      "stateMutability": "view",
      "type": "function"
    },
    {
      "inputs": [],
      "name": "RATE_CHANGE_COOLDOWN",
      "outputs": [
        {
          "internalType": "uint256",
          "name": "",
          "type": "uint256"
        }
      ],
      "stateMutability": "view",
      "type": "function"
    },
    {
      "inputs": [],
      "name": "adminControl",
      "outputs": [
        {
          "internalType": "contract IAdminControl",
          "name": "",
          "type": "address"
        }
      ],
      "stateMutability": "view",
      "type": "function"
    },
    {
      "inputs": [
        {
          "internalType": "address",
          "name": "account",
          "type": "address"
        }
      ],
      "name": "balanceOf",
      "outputs": [
        {
          "internalType": "uint256",
          "name": "",
          "type": "uint256"
        }
      ],
      "stateMutability": "view",
      "type": "function"
    },
    {
      "inputs": [
        {
          "internalType": "address",
          "name": "user",
          "type": "address"
        },
        {
          "internalType": "uint256",
          "name": "stakingAmount",
          "type": "uint256"
        },
        {
          "internalType": "uint256",
          "name": "stakingDuration",
          "type": "uint256"
        }
      ],
      "name": "calculateRewards",
      "outputs": [
        {
          "internalType": "uint256",
          "name": "totalReward",
          "type": "uint256"
        }
      ],
      "stateMutability": "view",
      "type": "function"
    },
    {
      "inputs": [],
      "name": "claimReward",
      "outputs": [],
      "stateMutability": "nonpayable",
      "type": "function"
    },
    {
      "inputs": [
        {
          "internalType": "address",
          "name": "account",
          "type": "address"
        }
      ],
      "name": "clearExpiredRewards",
      "outputs": [],
      "stateMutability": "nonpayable",
      "type": "function"
    },
    {
      "inputs": [
        {
          "internalType": "address",
          "name": "account",
          "type": "address"
        }
      ],
      "name": "earned",
      "outputs": [
        {
          "internalType": "uint256",
          "name": "",
          "type": "uint256"
        }
      ],
      "stateMutability": "view",
      "type": "function"
    },
    {
      "inputs": [],
      "name": "lastRateChange",
      "outputs": [
        {
          "internalType": "uint256",
          "name": "",
          "type": "uint256"
        }
      ],
      "stateMutability": "view",
      "type": "function"
    },
    {
      "inputs": [],
      "name": "lastUpdateTime",
      "outputs": [
        {
          "internalType": "uint256",
          "name": "",
          "type": "uint256"
        }
      ],
      "stateMutability": "view",
      "type": "function"
    },
    {
      "inputs": [],
      "name": "minStakingPeriod",
      "outputs": [
        {
          "internalType": "uint256",
          "name": "",
          "type": "uint256"
        }
      ],
      "stateMutability": "view",
      "type": "function"
    },
    {
      "inputs": [],
      "name": "owner",
      "outputs": [
        {
          "internalType": "address",
          "name": "",
          "type": "address"
        }
      ],
      "stateMutability": "view",
      "type": "function"
    },
    {
      "inputs": [],
      "name": "pauseRateChanges",
      "outputs": [],
      "stateMutability": "nonpayable",
      "type": "function"
    },
    {
      "inputs": [],
      "name": "rateChangePaused",
      "outputs": [
        {
          "internalType": "bool",
          "name": "",
          "type": "bool"
        }
      ],
      "stateMutability": "view",
      "type": "function"
    },
    {
      "inputs": [],
      "name": "renounceOwnership",
      "outputs": [],
      "stateMutability": "nonpayable",
      "type": "function"
    },
    {
      "inputs": [
        {
          "internalType": "address",
          "name": "token",
          "type": "address"
        },
        {
          "internalType": "uint256",
          "name": "amount",
          "type": "uint256"
        }
      ],
      "name": "rescueTokens",
      "outputs": [],
      "stateMutability": "nonpayable",
      "type": "function"
    },
    {
      "inputs": [],
      "name": "rewardConfig",
      "outputs": [
        {
          "internalType": "uint256",
          "name": "baseRewardRate",
          "type": "uint256"
        },
        {
          "internalType": "uint256",
          "name": "communityBonusRate",
          "type": "uint256"
        },
        {
          "internalType": "uint256",
          "name": "leaseBonusRate",
          "type": "uint256"
        }
      ],
      "stateMutability": "view",
      "type": "function"
    },
    {
      "inputs": [
        {
          "internalType": "address",
          "name": "",
          "type": "address"
        }
      ],
      "name": "rewardExpirationTimestamps",
      "outputs": [
        {
          "internalType": "uint256",
          "name": "",
          "type": "uint256"
        }
      ],
      "stateMutability": "view",
      "type": "function"
    },
    {
      "inputs": [],
      "name": "rewardPerToken",
      "outputs": [
        {
          "internalType": "uint256",
          "name": "",
          "type": "uint256"
        }
      ],
      "stateMutability": "view",
      "type": "function"
    },
    {
      "inputs": [],
      "name": "rewardPerTokenStored",
      "outputs": [
        {
          "internalType": "uint256",
          "name": "",
          "type": "uint256"
        }
      ],
      "stateMutability": "view",
      "type": "function"
    },
    {
      "inputs": [
        {
          "internalType": "uint256",
          "name": "",
          "type": "uint256"
        }
      ],
      "name": "rewardPeriods",
      "outputs": [
        {
          "internalType": "uint256",
          "name": "rate",
          "type": "uint256"
        },
        {
          "internalType": "uint256",
          "name": "startTime",
          "type": "uint256"
        },
        {
          "internalType": "uint256",
          "name": "endTime",
          "type": "uint256"
        }
      ],
      "stateMutability": "view",
      "type": "function"
    },
    {
      "inputs": [
        {
          "internalType": "address",
          "name": "",
          "type": "address"
        }
      ],
      "name": "rewards",
      "outputs": [
        {
          "internalType": "uint256",
          "name": "",
          "type": "uint256"
        }
      ],
      "stateMutability": "view",
      "type": "function"
    },
    {
      "inputs": [],
      "name": "rewardsToken",
      "outputs": [
        {
          "internalType": "contract ERC20",
          "name": "",
          "type": "address"
        }
      ],
      "stateMutability": "view",
      "type": "function"
    },
    {
      "inputs": [],
      "name": "rewardsTokenUnit",
      "outputs": [
        {
          "internalType": "uint256",
          "name": "",
          "type": "uint256"
        }
      ],
      "stateMutability": "view",
      "type": "function"
    },
    {
      "inputs": [
        {
          "internalType": "uint256",
          "name": "period",
          "type": "uint256"
        }
      ],
      "name": "setMinStakingPeriod",
      "outputs": [],
      "stateMutability": "nonpayable",
      "type": "function"
    },
    {
      "inputs": [
        {
          "internalType": "uint256",
          "name": "_rewardRate",
          "type": "uint256"
        }
      ],
      "name": "setRewardRate",
      "outputs": [],
      "stateMutability": "nonpayable",
      "type": "function"
    },
    {
      "inputs": [
        {
          "internalType": "uint256",
          "name": "amount",
          "type": "uint256"
        }
      ],
      "name": "stake",
      "outputs": [],
      "stateMutability": "nonpayable",
      "type": "function"
    },
    {
      "inputs": [],
      "name": "stakingToken",
      "outputs": [
        {
          "internalType": "contract ERC20",
          "name": "",
          "type": "address"
        }
      ],
      "stateMutability": "view",
      "type": "function"
    },
    {
      "inputs": [],
      "name": "stakingTokenUnit",
      "outputs": [
        {
          "internalType": "uint256",
          "name": "",
          "type": "uint256"
        }
      ],
      "stateMutability": "view",
      "type": "function"
    },
    {
      "inputs": [],
      "name": "totalSupply",
      "outputs": [
        {
          "internalType": "uint256",
          "name": "",
          "type": "uint256"
        }
      ],
      "stateMutability": "view",
      "type": "function"
    },
    {
      "inputs": [
        {
          "internalType": "address",
          "name": "newOwner",
          "type": "address"
        }
      ],
      "name": "transferOwnership",
      "outputs": [],
      "stateMutability": "nonpayable",
      "type": "function"
    },
    {
      "inputs": [],
      "name": "unpauseRateChanges",
      "outputs": [],
      "stateMutability": "nonpayable",
      "type": "function"
    },
    {
      "inputs": [
        {
          "internalType": "address",
          "name": "",
          "type": "address"
        }
      ],
      "name": "userRewardPerTokenPaid",
      "outputs": [
        {
          "internalType": "uint256",
          "name": "",
          "type": "uint256"
        }
      ],
      "stateMutability": "view",
      "type": "function"
    },
    {
      "inputs": [
        {
          "internalType": "uint256",
          "name": "amount",
          "type": "uint256"
        }
      ],
      "name": "withdraw",
      "outputs": [],
      "stateMutability": "nonpayable",
      "type": "function"
    }
  ],
  "bytecode": "0x61010060405262093a806012553480156200001957600080fd5b5060405162002505380380620025058339810160408190526200003c91620002dd565b620000473362000270565b600180556001600160a01b038316620000a75760405162461bcd60e51b815260206004820152601d60248201527f496e76616c6964207374616b696e6720746f6b656e206164647265737300000060448201526064015b60405180910390fd5b6001600160a01b038216620000ff5760405162461bcd60e51b815260206004820152601d60248201527f496e76616c6964207265776172647320746f6b656e206164647265737300000060448201526064016200009e565b6001600160a01b0380841660c081905290831660e0526040805163313ce56760e01b815290516000928392909163313ce567916004808201926020929091908290030181865afa92505050801562000176575060408051601f3d908101601f19168201909252620001739181019062000327565b60015b6200018c57670de0b6b3a76400009150620001a0565b6200019c60ff8216600a62000468565b9250505b60e0516001600160a01b031663313ce5676040518163ffffffff1660e01b8152600401602060405180830381865afa925050508015620001ff575060408051601f3d908101601f19168201909252620001fc9181019062000327565b60015b620002145750670de0b6b3a764000062000228565b6200022460ff8216600a62000468565b9150505b608082905260a08190526001600160a01b038316158015906200025457506001600160a01b0383163314155b156200026557620002658362000270565b505050505062000476565b600080546001600160a01b038381166001600160a01b0319831681178455604051919092169283917f8be0079c531659141344cd1fd0a4f28419497f9722a3daafe3b4186f6b6457e09190a35050565b80516001600160a01b0381168114620002d857600080fd5b919050565b600080600060608486031215620002f357600080fd5b620002fe84620002c0565b92506200030e60208501620002c0565b91506200031e60408501620002c0565b90509250925092565b6000602082840312156200033a57600080fd5b815160ff811681146200034c57600080fd5b9392505050565b634e487b7160e01b600052601160045260246000fd5b600181815b80851115620003aa5781600019048211156200038e576200038e62000353565b808516156200039c57918102915b93841c93908002906200036e565b509250929050565b600082620003c35750600162000462565b81620003d25750600062000462565b8160018114620003eb5760028114620003f65762000416565b600191505062000462565b60ff8411156200040a576200040a62000353565b50506001821b62000462565b5060208310610133831016604e8410600b84101617156200043b575081810a62000462565b62000447838362000369565b80600019048211156200045e576200045e62000353565b0290505b92915050565b60006200034c8383620003b2565b60805160a05160c05160e05161200f620004f66000396000818161050f01528181610fbc0152818161146f015261154e0152600081816103f001528181610819015281816109b80152818161108c0152818161112401526111cd0152600081816104b0015261171d0152600081816102f801526105a0015261200f6000f3fe608060405234801561001057600080fd5b50600436106102475760003560e01c80638252097d1161013b578063c8f33c91116100b8578063da71ae791161007c578063da71ae7914610544578063df136d651461054d578063e1f1c4a714610556578063ef0e74171461055f578063f2fde38b1461056757600080fd5b8063c8f33c91146104dc578063c9d3d16d146104e5578063cd3daf9d14610502578063d1af0c7d1461050a578063d72b08c61461053157600080fd5b8063a04f6b4b116100ff578063a04f6b4b1461047c578063a694fc3a14610490578063b88a802f146104a3578063be0eac0c146104ab578063c743dabb146104d257600080fd5b80638252097d1461041257806388ee6a43146104255780638b876347146104385780638da5cb5b146104585780639e447fc61461046957600080fd5b80634e94c285116101c95780636eaa7ba21161018d5780636eaa7ba2146103a057806370a08231146103aa578063715018a6146103d3578063718dc3c3146103db57806372f702f3146103eb57600080fd5b80634e94c2851461031a57806353809b5714610347578063539f1f341461035a578063555d3e6314610362578063573761981461038d57600080fd5b806318160ddd1161021057806318160ddd146102ae5780632e1a7d4d146102b657806330568c8c146102c957806342364b4f146102d357806348e0dc12146102f357600080fd5b80628cc2621461024c57806305cb614114610272578063069c34f61461027b5780630700037d1461028457806313f52235146102a4575b600080fd5b61025f61025a366004611ddc565b61057a565b6040519081526020015b60405180910390f35b61025f610e4281565b61025f60125481565b61025f610292366004611ddc565b600a6020526000908152604090205481565b6102ac61060f565b005b600e5461025f565b6102ac6102c4366004611dfe565b610626565b61025f62278d0081565b61025f6102e1366004611ddc565b600b6020526000908152604090205481565b61025f7f000000000000000000000000000000000000000000000000000000000000000081565b60035460045460055461032c92919083565b60408051938452602084019290925290820152606001610269565b6102ac610355366004611ddc565b6108ee565b61025f606481565b600254610375906001600160a01b031681565b6040516001600160a01b039091168152602001610269565b6102ac61039b366004611e17565b6109ae565b61025f6201518081565b61025f6103b8366004611ddc565b6001600160a01b03166000908152600f602052604090205490565b6102ac610b08565b61025f68056bc75e2d6310000081565b6103757f000000000000000000000000000000000000000000000000000000000000000081565b61032c610420366004611dfe565b610b1c565b6102ac610433366004611dfe565b610b4f565b61025f610446366004611ddc565b60096020526000908152604090205481565b6000546001600160a01b0316610375565b6102ac610477366004611dfe565b610b92565b61025f6c0c9f2c9cd04674edea4000000081565b6102ac61049e366004611dfe565b610ecc565b6102ac611332565b61025f7f000000000000000000000000000000000000000000000000000000000000000081565b61025f62093a8081565b61025f60085481565b600d546104f29060ff1681565b6040519015158152602001610269565b61025f61164a565b6103757f000000000000000000000000000000000000000000000000000000000000000081565b61025f61053f366004611e41565b6117b8565b61025f600c5481565b61025f60075481565b61025f61271081565b6102ac611ae3565b6102ac610575366004611ddc565b611af7565b6001600160a01b0381166000908152600a602090815260408083205460099092528220547f0000000000000000000000000000000000000000000000000000000000000000906105c861164a565b6105d29190611e8a565b6001600160a01b0385166000908152601160205260409020546105f59190611e9d565b6105ff9190611eca565b6106099190611eec565b92915050565b610617611b6d565b600d805460ff19166001179055565b61062e611bc7565b33600061063961164a565b60078190554260085590506001600160a01b038216156106bd5761065c8261057a565b6001600160a01b0383166000908152600a602090815260408083209390935560098152828220849055600f8152828220546011909152919020556106a362278d0042611eec565b6001600160a01b0383166000908152600b60205260409020555b601254336000908152601060205260409020546106da9190611eec565b42101561072e5760405162461bcd60e51b815260206004820152601e60248201527f4d696e696d756d207374616b696e6720706572696f64206e6f74206d6574000060448201526064015b60405180910390fd5b600083116107725760405162461bcd60e51b8152602060048201526011602482015270043616e6e6f74207769746864726177203607c1b6044820152606401610725565b336000908152600f6020526040902054838110156107d25760405162461bcd60e51b815260206004820152601b60248201527f496e73756666696369656e74207374616b65642062616c616e636500000000006044820152606401610725565b6107dc8482611e8a565b336000908152600f6020526040902055600e546107fa908590611e8a565b600e5560405163a9059cbb60e01b8152336004820152602481018590527f00000000000000000000000000000000000000000000000000000000000000006001600160a01b03169063a9059cbb906044016020604051808303816000875af115801561086a573d6000803e3d6000fd5b505050506040513d601f19601f8201168201806040525081019061088e9190611eff565b6108aa5760405162461bcd60e51b815260040161072590611f21565b60405184815233907f7084f5476618d8e60b11ef0d7d3f06914655adb8793e28ff7f018d4c76d505d59060200160405180910390a25050506108eb60018055565b50565b6108f6611bc7565b6001600160a01b0381166000908152600b602052604090205442116109525760405162461bcd60e51b815260206004820152601260248201527114995dd85c99081b9bdd08195e1c1a5c995960721b6044820152606401610725565b6001600160a01b0381166000818152600a602090815260408083208054939055518281529192917f6424bfe05f4bf0bb8ed07ffc754f2c4ed6ca4ef02134180b34899ab61d998e02910160405180910390a2506108eb60018055565b6109b6611b6d565b7f00000000000000000000000000000000000000000000000000000000000000006001600160a01b0316826001600160a01b031603610a375760405162461bcd60e51b815260206004820152601b60248201527f43616e6e6f7420726573637565207374616b696e6720746f6b656e00000000006044820152606401610725565b60405163a9059cbb60e01b8152336004820152602481018290526001600160a01b0383169063a9059cbb906044016020604051808303816000875af1158015610a84573d6000803e3d6000fd5b505050506040513d601f19601f82011682018060405250810190610aa89190611eff565b610ac45760405162461bcd60e51b815260040161072590611f21565b60405181815233906001600160a01b038416907ffb475a842bad10d3800b61bd1a92e716051afba979b124b583bd99a2d1d7bfd59060200160405180910390a35050565b610b10611b6d565b610b1a6000611c20565b565b60068181548110610b2c57600080fd5b600091825260209091206003909102018054600182015460029092015490925083565b610b57611b6d565b60128190556040518181527f8114637a99d6dbde6e7e5125969a8ecbe5d143eedc597560c9c79a8cb9a6b5d09060200160405180910390a150565b610b9a611b6d565b600080610ba561164a565b60078190554260085590506001600160a01b03821615610c2957610bc88261057a565b6001600160a01b0383166000908152600a602090815260408083209390935560098152828220849055600f815282822054601190915291902055610c0f62278d0042611eec565b6001600160a01b0383166000908152600b60205260409020555b600d5460ff1615610c905760405162461bcd60e51b815260206004820152602b60248201527f4369726375697420627265616b6572206163746976653a20726174652063686160448201526a1b99d95cc81c185d5cd95960aa1b6064820152608401610725565b68056bc75e2d63100000831115610ce95760405162461bcd60e51b815260206004820152601b60248201527f52657761726420726174652065786365656473206d6178696d756d00000000006044820152606401610725565b62015180600c54610cfa9190611eec565b421015610d495760405162461bcd60e51b815260206004820152601b60248201527f52617465206368616e676520636f6f6c646f776e2061637469766500000000006044820152606401610725565b600654600090610d5a576000610d8d565b60068054610d6a90600190611e8a565b81548110610d7a57610d7a611f50565b9060005260206000209060030201600001545b60065490915015610de1576006805460009190610dac90600190611e8a565b81548110610dbc57610dbc611f50565b906000526020600020906003020190504281600201541115610ddf574260028201555b505b604080516060810182528581524260208083018281526000198486019081526006805460018101825560009190915294517ff652222313e28459528d920b65115c16c04f3efc82aaedc97be59f3f377c0d3f60039096029586015590517ff652222313e28459528d920b65115c16c04f3efc82aaedc97be59f3f377c0d40850155517ff652222313e28459528d920b65115c16c04f3efc82aaedc97be59f3f377c0d4190930192909255600c55815183815290810186905233917f32191e98bcd46ebeb00f4196390aa79d479294b3b08655329c4d2647030b77da910160405180910390a250505050565b610ed4611bc7565b336000610edf61164a565b60078190554260085590506001600160a01b03821615610f6357610f028261057a565b6001600160a01b0383166000908152600a602090815260408083209390935560098152828220849055600f815282822054601190915291902055610f4962278d0042611eec565b6001600160a01b0383166000908152600b60205260409020555b60008311610fa45760405162461bcd60e51b815260206004820152600e60248201526d043616e6e6f74207374616b6520360941b6044820152606401610725565b6040516370a0823160e01b81523060048201526000907f00000000000000000000000000000000000000000000000000000000000000006001600160a01b0316906370a0823190602401602060405180830381865afa15801561100b573d6000803e3d6000fd5b505050506040513d601f19601f8201168201806040525081019061102f9190611f66565b116110745760405162461bcd60e51b81526020600482015260156024820152745265776172647320706f6f6c20697320656d70747960581b6044820152606401610725565b6040516370a0823160e01b81523060048201526000907f00000000000000000000000000000000000000000000000000000000000000006001600160a01b0316906370a0823190602401602060405180830381865afa1580156110db573d6000803e3d6000fd5b505050506040513d601f19601f820116820180604052508101906110ff9190611f66565b6040516323b872dd60e01b8152336004820152306024820152604481018690529091507f00000000000000000000000000000000000000000000000000000000000000006001600160a01b0316906323b872dd906064016020604051808303816000875af1158015611175573d6000803e3d6000fd5b505050506040513d601f19601f820116820180604052508101906111999190611eff565b6111b55760405162461bcd60e51b815260040161072590611f21565b6040516370a0823160e01b81523060048201526000907f00000000000000000000000000000000000000000000000000000000000000006001600160a01b0316906370a0823190602401602060405180830381865afa15801561121c573d6000803e3d6000fd5b505050506040513d601f19601f820116820180604052508101906112409190611f66565b9050600061124e8383611e8a565b905085811461129f5760405162461bcd60e51b815260206004820152601960248201527f496e636f727265637420616d6f756e74207265636569766564000000000000006044820152606401610725565b80600e546112ad9190611eec565b600e55336000908152600f60205260409020546112cb908290611eec565b336000818152600f60209081526040808320949094556010905282902042905590517f9e71bc8eea02a63969f509818f2dafb9254532904319f9dbda79b67bd34a5f3d9061131c9084815260200190565b60405180910390a250505050506108eb60018055565b61133a611bc7565b33600061134561164a565b60078190554260085590506001600160a01b038216156113c9576113688261057a565b6001600160a01b0383166000908152600a602090815260408083209390935560098152828220849055600f8152828220546011909152919020556113af62278d0042611eec565b6001600160a01b0383166000908152600b60205260409020555b336000908152600b60205260409020544211156114285760405162461bcd60e51b815260206004820152601b60248201527f52657761726420636c61696d20706572696f64206578706972656400000000006044820152606401610725565b336000908152600a6020526040902054801561163e57336000908152600a602052604080822091909155516370a0823160e01b815230600482015281906001600160a01b037f000000000000000000000000000000000000000000000000000000000000000016906370a0823190602401602060405180830381865afa1580156114b6573d6000803e3d6000fd5b505050506040513d601f19601f820116820180604052508101906114da9190611f66565b10156115325760405162461bcd60e51b815260206004820152602160248201527f496e73756666696369656e742072657761726420746f6b656e2062616c616e636044820152606560f81b6064820152608401610725565b60405163a9059cbb60e01b8152336004820152602481018290527f00000000000000000000000000000000000000000000000000000000000000006001600160a01b03169063a9059cbb906044016020604051808303816000875af115801561159f573d6000803e3d6000fd5b505050506040513d601f19601f820116820180604052508101906115c39190611eff565b6116085760405162461bcd60e51b815260206004820152601660248201527514995dd85c99081d1c985b9cd9995c8819985a5b195960521b6044820152606401610725565b60405181815233907fe2403640ba68fed3a2f88b7557551d1993f84b99bb10ff833f0cf8db0c5e04869060200160405180910390a25b505050610b1a60018055565b6000600e546000148061165d5750600854155b15611669575060075490565b60065460009081805b828110156117a15760006006828154811061168f5761168f611f50565b600091825260209182902060408051606081018252600390930290910180548352600181015493830184905260020154908201819052600854919350919082111561178b57600060085482116116e7576008546116e9565b815b905060004284106116fa57426116fc565b835b9050818111156117885760006117128383611e8a565b8651600e54919250907f00000000000000000000000000000000000000000000000000000000000000006117468484611e9d565b6117509190611e9d565b61175a9190611eca565b611764908c611eec565b9a5060646117718a611f7f565b9950891061178557505050505050506117a1565b50505b50505b505050808061179990611f7f565b915050611672565b50826007546117b09190611eec565b935050505090565b60006001600160a01b0384166118075760405162461bcd60e51b8152602060048201526014602482015273496e76616c69642075736572206164647265737360601b6044820152606401610725565b600083116118505760405162461bcd60e51b8152602060048201526016602482015275125b9d985b1a59081cdd185ada5b99c8185b5bdd5b9d60521b6044820152606401610725565b600082116118a05760405162461bcd60e51b815260206004820152601860248201527f496e76616c6964207374616b696e67206475726174696f6e00000000000000006044820152606401610725565b600354806118f05760405162461bcd60e51b815260206004820152601860248201527f42617365207265776172642072617465206e6f742073657400000000000000006044820152606401610725565b60006118ff6201518085611eca565b9050610e428111156119535760405162461bcd60e51b815260206004820152601960248201527f5374616b696e67206475726174696f6e20746f6f206c6f6e67000000000000006044820152606401610725565b6000826000198161196657611966611eb4565b048611156119b65760405162461bcd60e51b815260206004820152601a60248201527f43616c63756c6174696f6e20776f756c64206f766572666c6f770000000000006044820152606401610725565b5084820281600019816119cb576119cb611eb4565b04811115611a1b5760405162461bcd60e51b815260206004820152601a60248201527f43616c63756c6174696f6e20776f756c64206f766572666c6f770000000000006044820152606401610725565b612710908202046000611a2e8883611c70565b90506000611a3c8984611d51565b905082955081600019611a4f9190611e8a565b861115611a6e5760405162461bcd60e51b815260040161072590611f98565b611a788287611eec565b9550611a8681600019611e8a565b861115611aa55760405162461bcd60e51b815260040161072590611f98565b611aaf8187611eec565b95506c0c9f2c9cd04674edea40000000861115611ad7576c0c9f2c9cd04674edea4000000095505b50505050509392505050565b611aeb611b6d565b600d805460ff19169055565b611aff611b6d565b6001600160a01b038116611b645760405162461bcd60e51b815260206004820152602660248201527f4f776e61626c653a206e6577206f776e657220697320746865207a65726f206160448201526564647265737360d01b6064820152608401610725565b6108eb81611c20565b6000546001600160a01b03163314610b1a5760405162461bcd60e51b815260206004820181905260248201527f4f776e61626c653a2063616c6c6572206973206e6f7420746865206f776e65726044820152606401610725565b600260015403611c195760405162461bcd60e51b815260206004820152601f60248201527f5265656e7472616e637947756172643a207265656e7472616e742063616c6c006044820152606401610725565b6002600155565b600080546001600160a01b038381166001600160a01b0319831681178455604051919092169283917f8be0079c531659141344cd1fd0a4f28419497f9722a3daafe3b4186f6b6457e09190a35050565b60025460405163d636b87f60e01b81526001600160a01b038481166004830152600092839291169063d636b87f90602401602060405180830381865afa158015611cbe573d6000803e3d6000fd5b505050506040513d601f19601f82011682018060405250810190611ce29190611f66565b905080600003611cf6576000915050610609565b6004546000819003611d0d57600092505050610609565b8060001981611d1e57611d1e611eb4565b04841115611d3d576c0c9f2c9cd04674edea4000000092505050610609565b620f424084820283025b0495945050505050565b60006001600160a01b038316151580611d6e576000915050610609565b6005546000819003611d8557600092505050610609565b8060001981611d9657611d96611eb4565b04841115611db5576c0c9f2c9cd04674edea4000000092505050610609565b612710848202611d47565b80356001600160a01b0381168114611dd757600080fd5b919050565b600060208284031215611dee57600080fd5b611df782611dc0565b9392505050565b600060208284031215611e1057600080fd5b5035919050565b60008060408385031215611e2a57600080fd5b611e3383611dc0565b946020939093013593505050565b600080600060608486031215611e5657600080fd5b611e5f84611dc0565b95602085013595506040909401359392505050565b634e487b7160e01b600052601160045260246000fd5b8181038181111561060957610609611e74565b808202811582820484141761060957610609611e74565b634e487b7160e01b600052601260045260246000fd5b600082611ee757634e487b7160e01b600052601260045260246000fd5b500490565b8082018082111561060957610609611e74565b600060208284031215611f1157600080fd5b81518015158114611df757600080fd5b602080825260159082015274151bdad95b881d1c985b9cd9995c8819985a5b1959605a1b604082015260600190565b634e487b7160e01b600052603260045260246000fd5b600060208284031215611f7857600080fd5b5051919050565b600060018201611f9157611f91611e74565b5060010190565b60208082526021908201527f546f74616c207265776172642063616c63756c6174696f6e206f766572666c6f6040820152607760f81b60608201526080019056fea264697066735822122003936a604764b3fcb806f240563209cb7b31153271441374b55e0a31c5a7876f64736f6c63430008140033",
  "linkReferences": {},
  "deployedLinkReferences": {}
}